{
  "address": "0xD12F9B5a8faBFEB6f034D32DAF2a21097D13E55b",
  "abi": [
    {
      "inputs": [
        {
          "internalType": "contract TotemToken",
          "name": "_totemToken",
          "type": "address"
        },
        {
          "internalType": "contract RewardManager",
          "name": "_rewardManager",
          "type": "address"
        },
        {
          "internalType": "address",
          "name": "_oracleContract",
          "type": "address"
        },
        {
          "internalType": "address",
          "name": "_swapRouter",
          "type": "address"
        },
        {
          "internalType": "address",
          "name": "_usdToken",
          "type": "address"
        },
        {
          "internalType": "address",
          "name": "_btcToken",
          "type": "address"
        }
      ],
      "stateMutability": "nonpayable",
      "type": "constructor"
    },
    {
      "anonymous": false,
      "inputs": [
        {
          "indexed": true,
          "internalType": "address",
          "name": "pool",
          "type": "address"
        },
        {
          "indexed": false,
          "internalType": "string",
          "name": "poolType",
          "type": "string"
        },
        {
          "indexed": false,
          "internalType": "uint256[10]",
          "name": "variables",
          "type": "uint256[10]"
        },
        {
          "indexed": false,
          "internalType": "uint256[8]",
          "name": "ranks",
          "type": "uint256[8]"
        },
        {
          "indexed": false,
          "internalType": "uint256[8]",
          "name": "percentages",
          "type": "uint256[8]"
        },
        {
          "indexed": false,
          "internalType": "bool",
          "name": "isEnhancedEnabled",
          "type": "bool"
        }
      ],
      "name": "PoolCreated",
      "type": "event"
    },
    {
      "anonymous": false,
      "inputs": [
        {
          "indexed": true,
          "internalType": "address",
          "name": "account",
          "type": "address"
        }
      ],
      "name": "PoolCreatorAdded",
      "type": "event"
    },
    {
      "anonymous": false,
      "inputs": [
        {
          "indexed": true,
          "internalType": "address",
          "name": "account",
          "type": "address"
        }
      ],
      "name": "PoolCreatorRemoved",
      "type": "event"
    },
    {
      "inputs": [
        {
          "internalType": "address",
          "name": "account",
          "type": "address"
        }
      ],
      "name": "addPoolCreator",
      "outputs": [],
      "stateMutability": "nonpayable",
      "type": "function"
    },
    {
      "inputs": [
        {
          "internalType": "string",
          "name": "_poolType",
          "type": "string"
        },
        {
          "internalType": "uint256[10]",
          "name": "_variables",
          "type": "uint256[10]"
        },
        {
          "internalType": "uint256[8]",
          "name": "_ranks",
          "type": "uint256[8]"
        },
        {
          "internalType": "uint256[8]",
          "name": "_percentages",
          "type": "uint256[8]"
        },
        {
          "internalType": "bool",
          "name": "isEnhancedEnabled",
          "type": "bool"
        }
      ],
      "name": "create",
      "outputs": [
        {
          "internalType": "address",
          "name": "",
          "type": "address"
        }
      ],
      "stateMutability": "nonpayable",
      "type": "function"
    },
    {
      "inputs": [
        {
          "internalType": "address",
          "name": "account",
          "type": "address"
        }
      ],
      "name": "isPoolCreator",
      "outputs": [
        {
          "internalType": "bool",
          "name": "",
          "type": "bool"
        }
      ],
      "stateMutability": "view",
      "type": "function"
    },
    {
      "inputs": [],
      "name": "oracleContract",
      "outputs": [
        {
          "internalType": "address",
          "name": "",
          "type": "address"
        }
      ],
      "stateMutability": "view",
      "type": "function"
    },
    {
      "inputs": [],
      "name": "renouncePoolCreator",
      "outputs": [],
      "stateMutability": "nonpayable",
      "type": "function"
    },
    {
      "inputs": [],
      "name": "rewardManager",
      "outputs": [
        {
          "internalType": "contract RewardManager",
          "name": "",
          "type": "address"
        }
      ],
      "stateMutability": "view",
      "type": "function"
    },
    {
      "inputs": [
        {
          "internalType": "address",
          "name": "_oracleContract",
          "type": "address"
        }
      ],
      "name": "setOracleContract",
      "outputs": [],
      "stateMutability": "nonpayable",
      "type": "function"
    },
    {
      "inputs": [
        {
          "internalType": "address",
          "name": "_swapRouter",
          "type": "address"
        }
      ],
      "name": "setSwapRouter",
      "outputs": [],
      "stateMutability": "nonpayable",
      "type": "function"
    },
    {
      "inputs": [
        {
          "internalType": "uint256",
          "name": "newStakingPoolTaxRate",
          "type": "uint256"
        }
      ],
      "name": "setTaxRate",
      "outputs": [],
      "stateMutability": "nonpayable",
      "type": "function"
    },
    {
      "inputs": [],
      "name": "stakingPoolTaxRate",
      "outputs": [
        {
          "internalType": "uint256",
          "name": "",
          "type": "uint256"
        }
      ],
      "stateMutability": "view",
      "type": "function"
    },
    {
      "inputs": [],
      "name": "swapRouter",
      "outputs": [
        {
          "internalType": "address",
          "name": "",
          "type": "address"
        }
      ],
      "stateMutability": "view",
      "type": "function"
    },
    {
      "inputs": [],
      "name": "totemToken",
      "outputs": [
        {
          "internalType": "contract TotemToken",
          "name": "",
          "type": "address"
        }
      ],
      "stateMutability": "view",
      "type": "function"
    }
  ],
  "transactionHash": "0xf32470d0e2e38d9832ce8907df3f1b02b9c9283cf2c0726fc5e865f660416018",
  "args": [
    "0x6FF1BFa14A57594a5874B37ff6AC5efbD9F9599A",
    "0xe59930296DB36f4659850c5d5504B4A571a5669E",
    "0x264990fbd0A4796A3E3d8E37C4d5F87a3aCa5Ebf",
    "0x10ED43C718714eb63d5aA57B78B54704E256024E",
    "0xe9e7cea3dedca5984780bafc599bd69add087d56",
    "0x7130d2a12b9bcbfae4f2634d864a1ee1ce3ead9c"
  ],
  "solcInputHash": "434c4e897ba01563ea13bf293d489347",
  "bytecode": "0x6101006040523480156200001257600080fd5b506040516200613d3803806200613d833981810160405260c08110156200003857600080fd5b508051602082015160408301516060840151608085015160a0909501519394929391929091620000716200006b620000f0565b620000f4565b6200008a576200008a62000084620000f0565b62000117565b6001600160601b0319606096871b811660805294861b851660a052600280546001600160a01b039586166001600160a01b031991821617909155600180549490951693169290921790925590831b821660c05290911b1660e05261012c60035562000256565b3390565b6000620001118260006200016960201b620006ac1790919060201c565b92915050565b62000132816000620001d260201b620007151790919060201c565b6040516001600160a01b038216907fac89bb7b3d0c5a763a97f31bc75f8faee00426e7b235f02ca76897d55caf7b6190600090a250565b60006001600160a01b038216620001b25760405162461bcd60e51b81526004018080602001828103825260228152602001806200611b6022913960400191505060405180910390fd5b506001600160a01b03166000908152602091909152604090205460ff1690565b620001de828262000169565b1562000231576040805162461bcd60e51b815260206004820152601f60248201527f526f6c65733a206163636f756e7420616c72656164792068617320726f6c6500604482015290519081900360640190fd5b6001600160a01b0316600090815260209190915260409020805460ff19166001179055565b60805160601c60a05160601c60c05160601c60e05160601c615e74620002a76000398061086e52508061084c52508061034552806108085280610b4752508061068a52806107e75250615e746000f3fe60806040523480156200001157600080fd5b5060043610620000c45760003560e01c8063aae5a02a116200007b578063aae5a02a14620001c5578063bece753214620002fb578063c31c9c071462000305578063c6d69a30146200030f578063e281cc7e146200032f578063e8153c93146200033957620000c4565b80630f4ef8a614620000c95780634127365714620000ef578063441f5c65146200011a578063496ccd9b14620001365780638c2d741c146200015f5780639a94775d1462000188575b600080fd5b620000d362000343565b604080516001600160a01b039092168252519081900360200190f35b62000118600480360360208110156200010757600080fd5b50356001600160a01b031662000367565b005b620001246200041f565b60408051918252519081900360200190f35b62000118600480360360208110156200014e57600080fd5b50356001600160a01b031662000425565b62000118600480360360208110156200017757600080fd5b50356001600160a01b0316620004d7565b620001b160048036036020811015620001a057600080fd5b50356001600160a01b031662000530565b604080519115158252519081900360200190f35b620000d36004803603610380811015620001de57600080fd5b810190602081018135640100000000811115620001fa57600080fd5b8201836020820111156200020d57600080fd5b803590602001918460018302840111640100000000831117156200023057600080fd5b91908080601f0160208091040260200160405190810160405280939291908181526020018383808284376000920191909152505060408051610140818101909252939695948181019493509150600a9083908390808284376000920191909152505060408051610100818101909252929594938181019392509060089083908390808284376000920191909152505060408051610100818101909252929594938181019392509060089083908390808284376000920191909152509194505050351515905062000544565b620000d3620005c2565b620000d3620005d1565b62000118600480360360208110156200032757600080fd5b5035620005e0565b6200011862000672565b620000d362000688565b7f000000000000000000000000000000000000000000000000000000000000000081565b6200037b6200037562000799565b62000530565b620003b85760405162461bcd60e51b815260040180806020018281038252603a81526020018062005dc2603a913960400191505060405180910390fd5b6001600160a01b038116620003fd576040805162461bcd60e51b815260206004808301919091526024820152630303431360e41b604482015290519081900360640190fd5b600180546001600160a01b0319166001600160a01b0392909216919091179055565b60035481565b620004336200037562000799565b620004705760405162461bcd60e51b815260040180806020018281038252603a81526020018062005dc2603a913960400191505060405180910390fd5b6001600160a01b038116620004b5576040805162461bcd60e51b815260206004808301919091526024820152630303430360e41b604482015290519081900360640190fd5b600280546001600160a01b0319166001600160a01b0392909216919091179055565b620004e56200037562000799565b620005225760405162461bcd60e51b815260040180806020018281038252603a81526020018062005dc2603a913960400191505060405180910390fd5b6200052d816200079d565b50565b60006200053e8183620006ac565b92915050565b6000620005546200037562000799565b620005915760405162461bcd60e51b815260040180806020018281038252603a81526020018062005dc2603a913960400191505060405180910390fd5b610100850151620005a6576003546101008601525b6000620005b78787878787620007e1565b979650505050505050565b6002546001600160a01b031681565b6001546001600160a01b031681565b620005ee6200037562000799565b6200062b5760405162461bcd60e51b815260040180806020018281038252603a81526020018062005dc2603a913960400191505060405180910390fd5b61271081106200066d5760405162461bcd60e51b815260040180806020018281038252602781526020018062005d9b6027913960400191505060405180910390fd5b600355565b620006866200068062000799565b62000bd9565b565b7f000000000000000000000000000000000000000000000000000000000000000081565b60006001600160a01b038216620006f55760405162461bcd60e51b815260040180806020018281038252602281526020018062005e1d6022913960400191505060405180910390fd5b506001600160a01b03166000908152602091909152604090205460ff1690565b620007218282620006ac565b1562000774576040805162461bcd60e51b815260206004820152601f60248201527f526f6c65733a206163636f756e7420616c72656164792068617320726f6c6500604482015290519081900360640190fd5b6001600160a01b0316600090815260209190915260409020805460ff19166001179055565b3390565b620007aa60008262000715565b6040516001600160a01b038216907fac89bb7b3d0c5a763a97f31bc75f8faee00426e7b235f02ca76897d55caf7b6190600090a250565b600080867f00000000000000000000000000000000000000000000000000000000000000007f00000000000000000000000000000000000000000000000000000000000000006200083162000799565b6001546002546040516001600160a01b0392831692909116907f0000000000000000000000000000000000000000000000000000000000000000907f0000000000000000000000000000000000000000000000000000000000000000908e908e908e908e90620008a19062000c88565b6001600160a01b03808d1660208301528b811660408301528a81166060830152898116608083015288811660a083015287811660c0830152861660e08201528061010081018661014080838360005b838110156200090a578181015183820152602001620008f0565b5050505090500185600860200280838360005b83811015620009375781810151838201526020016200091d565b5050505090500184600860200280838360005b83811015620009645781810151838201526020016200094a565b50505050905001831515815260200182810382528e818151815260200191508051906020019080838360005b83811015620009aa57818101518382015260200162000990565b50505050905090810190601f168015620009d85780820380516001836020036101000a031916815260200191505b509d5050505050505050505050505050604051809103906000f08015801562000a05573d6000803e3d6000fd5b509050806001600160a01b03167fdd5f5623ee1a63d687ad474df3d6d285611992f03076c58e6bb37228d45d91e28888888888604051808060200186600a60200280838360005b8381101562000a6657818101518382015260200162000a4c565b5050505090500185600860200280838360005b8381101562000a9357818101518382015260200162000a79565b5050505090500184600860200280838360005b8381101562000ac057818101518382015260200162000aa6565b505050509050018315158152602001828103825287818151815260200191508051906020019080838360005b8381101562000b0657818101518382015260200162000aec565b50505050905090810190601f16801562000b345780820380516001836020036101000a031916815260200191505b50965050505050505060405180910390a27f00000000000000000000000000000000000000000000000000000000000000006001600160a01b031663d914cd4b826040518263ffffffff1660e01b815260040180826001600160a01b03168152602001915050600060405180830381600087803b15801562000bb557600080fd5b505af115801562000bca573d6000803e3d6000fd5b50929998505050505050505050565b62000be660008262000c1d565b6040516001600160a01b038216907f2bc71cc60b543df5fdd80ef5a45e1cdb344843769b649e9d901de3be24aeb24e90600090a250565b62000c298282620006ac565b62000c665760405162461bcd60e51b815260040180806020018281038252602181526020018062005dfc6021913960400191505060405180910390fd5b6001600160a01b0316600090815260209190915260409020805460ff19169055565b6151048062000c978339019056fe6102606040523480156200001257600080fd5b50604051620051043803806200510483398181016040526104608110156200003957600080fd5b81019080805160405193929190846401000000008211156200005a57600080fd5b9083019060208201858111156200007057600080fd5b82516401000000008111828201881017156200008b57600080fd5b82525081516020918201929091019080838360005b83811015620000ba578181015183820152602001620000a0565b50505050905090810190601f168015620000e85780820380516001836020036101000a031916815260200191505b5060409081526020820151908201516060830151608084015160a085015160c086015160e08701516104408801519699509497509295919490939161010081019161024082019161034001908786868960006200014462000375565b600080546001600160a01b0319166001600160a01b0383169081178255604051929350917f8be0079c531659141344cd1fd0a4f28419497f9722a3daafe3b4186f6b6457e0908290a3506001600160a01b038116620001a257600080fd5b600180546001600160a01b03199081166001600160a01b039384161790915560038054821695831695909517909455600480548516938216939093179092556005805490931691161790558b51620002029060069060208f01906200039b565b506001600160601b031960608c811b82166080528b901b1660a052600d80546001600160a01b038b166001600160a01b0319909116179055620002458662000379565b606085811b6001600160601b03191660c09081524260e0908152865161012090815260208801516101009081526040890151670de0b6b3a7640000908102610140529489015161016052608089015185026101805260a089015185026101a05292880151610200529087015161022052908601516101c052850151026101e05280151560f81b6102405260005b60088110156200036257828160088110620002e957fe5b6020020151620002f95762000362565b600e60405180604001604052808684600881106200031357fe5b602002015181526020018584600881106200032a57fe5b6020908102919091015190915282546001818101855560009485529382902083516002909202019081559101519082015501620002d2565b5050505050505050505050505062000447565b3390565b600280546001600160a01b0319166001600160a01b0392909216919091179055565b828054600181600116156101000203166002900490600052602060002090601f016020900481019282620003d357600085556200041e565b82601f10620003ee57805160ff19168380011785556200041e565b828001600101855582156200041e579182015b828111156200041e57825182559160200191906001019062000401565b506200042c92915062000430565b5090565b5b808211156200042c576000815560010162000431565b60805160601c60a05160601c60c05160601c60e05161010051610120516101405161016051610180516101a0516101c0516101e05161020051610220516102405160f81c614b1d620005e76000398061154552806146c1525080610e4f5280613360525080610e195280610e7952806133185250806119445280611bd7525080611920528061398052806139b0525080610d455280611a26528061233f52806129dc5280612e935280613f7052806145f8525080611b5e5280613ff25280614641525080612826528061378752508061158d5280611c405280611db652806121bf525080610ca252806115695280611870528061373a525080610be85280610cc3528061189152806137185280614714525080610bc45280610ce452806118b252806136f752806146f3525080610a1f5280610faa5280612a085280612ebf525080610c0c528061289352806129225280612d4b5280612dda5250806117215280611c725280611d035280611e515280611f145280611f4352806124fd52806128645280612b185280612d1c5280612fc8528061333c5250614b1d6000f3fe608060405234801561001057600080fd5b50600436106103e65760003560e01c80638bfbbcbe1161020a578063c6c1decd11610125578063eda2d424116100b8578063f2fde38b11610087578063f2fde38b146109c2578063f3d9dc0d146109e8578063f5e96fc9146109f0578063fd5e6dd1146109f8578063fd8fd47f14610a15576103e6565b8063eda2d42414610962578063eee394031461096a578063f0141d8414610987578063f1b17a8b146109a5576103e6565b8063de09ee20116100f4578063de09ee201461090a578063e425df8c1461094a578063e8153c9314610952578063eb850ae11461095a576103e6565b8063c6c1decd146108d5578063d025188b146108dd578063d7efb6b7146108e5578063d83db49f146108ed576103e6565b8063a4e2d6341161019d578063b1dd61b61161016c578063b1dd61b614610840578063b88a802f146108bd578063bf852196146108c5578063c1201054146108cd576103e6565b8063a4e2d634146107bb578063a508bc71146107c3578063aa7bcb571461081b578063b1b1e1c014610823576103e6565b806395c2ba47116101d957806395c2ba47146107865780639d9a62df1461078e578063a08b2c79146107ab578063a150194b146107b3576103e6565b80638bfbbcbe146107665780638da5cb5b1461076e5780638e15f473146107765780639234a39a1461077e576103e6565b806351eacbf011610305578063765e14d8116102985780637f2b6a0d116102675780637f2b6a0d146106b4578063817b1cd2146106bc578063850fa7cb146106c4578063857b21ee1461073b5780638a9920b71461075e576103e6565b8063765e14d81461063c578063785fa627146106685780637b0472f0146106705780637d1fcbfa14610693576103e6565b80636847d0c5116102d45780636847d0c51461061c5780636b036f4514610624578063715018a61461062c57806373f3170314610634576103e6565b806351eacbf0146105b05780635b9f4f90146105b85780635d2631e2146105de5780635e2e2ffc14610614576103e6565b806331769ef71161037d578063444a49021161034c578063444a49021461053e57806345e91319146105605780634bc4eeb2146105a05780634e8bfdaa146105a8576103e6565b806331769ef71461048557806331e244e51461048d5780634026478e1461049557806343352d611461049d576103e6565b80630f4ef8a6116103b95780630f4ef8a61461044e5780631898a1a7146104565780632d42cf7d146104735780632e577d071461047d576103e6565b8063074bc101146103eb57806309082c291461040f5780630b97bc861461043e5780630d66808714610446575b600080fd5b6103f3610a1d565b604080516001600160a01b039092168252519081900360200190f35b61042c6004803603602081101561042557600080fd5b5035610a41565b60408051918252519081900360200190f35b61042c610bc2565b61042c610be6565b6103f3610c0a565b61042c6004803603602081101561046c57600080fd5b5035610c2e565b61047b610c47565b005b6103f3610f96565b61042c610fa6565b61047b611046565b61047b6110b4565b6104a5611117565b604051808060200180602001838103835285818151815260200191508051906020019060200280838360005b838110156104e95781810151838201526020016104d1565b50505050905001838103825284818151815260200191508051906020019060200280838360005b83811015610528578181015183820152602001610510565b5050505090500194505050505060405180910390f35b61047b600480360361064081101561055557600080fd5b50610320810161125c565b61058c6004803603604081101561057657600080fd5b506001600160a01b0381351690602001356113b1565b604080519115158252519081900360200190f35b61058c611543565b61042c611567565b61042c61158b565b61042c600480360360208110156105ce57600080fd5b50356001600160a01b03166115af565b61047b600480360360608110156105f457600080fd5b506001600160a01b038135811691602081013591604090910135166116c6565b61047b611815565b61042c61191e565b61042c611942565b61047b611966565b61042c611a24565b61042c6004803603604081101561065257600080fd5b506001600160a01b038135169060200135611a48565b61042c611b5c565b61047b6004803603604081101561068657600080fd5b5080359060200135611b80565b61069b612243565b6040805192835260208301919091528051918290030190f35b61058c61225e565b61042c61226e565b6106f0600480360360408110156106da57600080fd5b506001600160a01b038135169060200135612274565b60408051998a5260208a0198909852888801969096526060880194909452608087019290925260a086015260c0850152151560e0840152151561010083015251908190036101200190f35b61047b6004803603604081101561075157600080fd5b50803590602001356122e2565b61047b61248b565b61047b612602565b6103f3612699565b61042c6126a8565b61069b612742565b61042c612755565b61069b600480360360208110156107a457600080fd5b503561275a565b61058c612778565b61042c612788565b61058c61278d565b6107cb61279d565b60408051602080825283518183015283519192839290830191858101910280838360005b838110156108075781810151838201526020016107ef565b505050509050019250505060405180910390f35b61042c612824565b61047b6004803603602081101561083957600080fd5b5035612848565b610848612c72565b6040805160208082528351818301528351919283929083019185019080838360005b8381101561088257818101518382015260200161086a565b50505050905090810190601f1680156108af5780820380516001836020036101000a031916815260200191505b509250505060405180910390f35b61047b612d00565b61042c61311b565b61042c61325b565b6103f36132a6565b61042c6132b5565b61058c6132bb565b61042c6004803603602081101561090357600080fd5b50356132cb565b6109276004803603602081101561092057600080fd5b50356132de565b604080516001600160a01b03909316835260208301919091528051918290030190f35b61042c613316565b6103f361333a565b61042c61335e565b61042c613382565b61069b6004803603602081101561098057600080fd5b5035613399565b61098f6133ad565b6040805160ff9092168252519081900360200190f35b61069b600480360360208110156109bb57600080fd5b5035613430565b61047b600480360360208110156109d857600080fd5b50356001600160a01b031661345e565b61042c613572565b6103f3613578565b61092760048036036020811015610a0e57600080fd5b5035613587565b61042c613597565b7f000000000000000000000000000000000000000000000000000000000000000081565b60035460009081906001600160a01b031663d06ca61f84610a6061279d565b6040518363ffffffff1660e01b81526004018083815260200180602001828103825283818151815260200191508051906020019060200280838360005b83811015610ab5578181015183820152602001610a9d565b50505050905001935050505060006040518083038186803b158015610ad957600080fd5b505afa158015610aed573d6000803e3d6000fd5b505050506040513d6000823e601f3d908101601f191682016040526020811015610b1657600080fd5b8101908080516040519392919084640100000000821115610b3657600080fd5b908301906020820185811115610b4b57600080fd5b8251866020820283011164010000000082111715610b6857600080fd5b82525081516020918201928201910280838360005b83811015610b95578181015183820152602001610b7d565b50505050905001604052505050905080600181518110610bb157fe5b60200260200101519150505b919050565b7f000000000000000000000000000000000000000000000000000000000000000081565b7f000000000000000000000000000000000000000000000000000000000000000081565b7f000000000000000000000000000000000000000000000000000000000000000081565b6000610c41610c3b6135a0565b83611a48565b92915050565b600d546001600160a01b0316610c5b6135a0565b6001600160a01b031614610ca05760405162461bcd60e51b81526004018080602001828103825260218152602001806149fa6021913960400191505060405180910390fd5b7f00000000000000000000000000000000000000000000000000000000000000007f00000000000000000000000000000000000000000000000000000000000000007f00000000000000000000000000000000000000000000000000000000000000000101421015610d435760405162461bcd60e51b815260040180806020018281038252602c815260200180614987602c913960400191505060405180910390fd5b7f000000000000000000000000000000000000000000000000000000000000000015610dc257610d71610fa6565b610dc2576040805162461bcd60e51b815260206004820152601e60248201527f30333631204254432052657761726473206e6f7420617661696c61626c650000604482015290519081900360640190fd5b60085415610e1757600954610e17576040805162461bcd60e51b81526020600482015260166024820152750c0ccd8c88199a5c9cdd081cda1bdd5b19081cdbdc9d60521b604482015290519081900360640190fd5b7f000000000000000000000000000000000000000000000000000000000000000015610e9e576000610e4761311b565b9050610e73817f00000000000000000000000000000000000000000000000000000000000000006135a4565b610e9c577f0000000000000000000000000000000000000000000000000000000000000000600c555b505b600954600090601910610eb357600954610eb6565b60195b905060005b81811015610f4757806001016007600060098481548110610ed857fe5b600091825260208083206002909202909101546001600160a01b0316835282019290925260400190206009805484908110610f0f57fe5b90600052602060002090600202016001015481548110610f2b57fe5b6000918252602090912060066008909202010155600101610ebb565b50600d805460ff60b01b1960ff60a81b19909116600160a81b1716600160b01b1790556040517fe8ef7a17c92d025d9c1ead1c6b3ca3b44d3283d0ee954f615c5c476911f629a590600090a150565b6003546001600160a01b03165b90565b60007f00000000000000000000000000000000000000000000000000000000000000006001600160a01b03166370a08231306040518263ffffffff1660e01b815260040180826001600160a01b0316815260200191505060206040518083038186803b15801561101557600080fd5b505afa158015611029573d6000803e3d6000fd5b505050506040513d602081101561103f57600080fd5b5051905090565b600d546001600160a01b031661105a6135a0565b6001600160a01b03161461109f5760405162461bcd60e51b81526004018080602001828103825260218152602001806149fa6021913960400191505060405180910390fd5b600d805460ff60a01b1916600160a01b179055565b600d546001600160a01b03166110c86135a0565b6001600160a01b03161461110d5760405162461bcd60e51b81526004018080602001828103825260218152602001806149fa6021913960400191505060405180910390fd5b611115613612565b565b606080600060088054905067ffffffffffffffff8111801561113857600080fd5b50604051908082528060200260200182016040528015611162578160200160208202803683370190505b5060085490915060009067ffffffffffffffff8111801561118257600080fd5b506040519080825280602002602001820160405280156111ac578160200160208202803683370190505b50905060005b60085481101561125257600881815481106111c957fe5b600091825260209091206002909102015483516001600160a01b03909116908490839081106111f457fe5b60200260200101906001600160a01b031690816001600160a01b0316815250506008818154811061122157fe5b90600052602060002090600202016001015482828151811061123f57fe5b60209081029190910101526001016111b2565b5090925090509091565b600d546001600160a01b03166112706135a0565b6001600160a01b0316146112b55760405162461bcd60e51b81526004018080602001828103825260218152602001806149fa6021913960400191505060405180910390fd5b60005b60198110156113835760008382601981106112cf57fe5b60200201356001600160a01b03166001600160a01b031614156112f157611383565b6009604051806040016040528085846019811061130a57fe5b60200201356001600160a01b03166001600160a01b0316815260200184846019811061133257fe5b60209081029190910135909152825460018082018555600094855293829020835160029092020180546001600160a01b0319166001600160a01b0390921691909117815591015190820155016112b8565b506040517f5c243cc6e4f210bf2dd86b8eca0ca891d3f8ad2eb09fbf91735eb348bc199c7e90600090a15050565b6001600160a01b038216600090815260076020908152604080832080548251818502810185019093528083528493849084015b8282101561147657600084815260209081902060408051610120810182526008860290920180548352600180820154848601526002820154928401929092526003810154606084015260048101546080840152600581015460a0840152600681015460c08401526007015460ff808216151560e0850152610100918290041615159083015290835290920191016113e4565b50505050905060008151116114bc5760405162461bcd60e51b815260040180806020018281038252602b815260200180614a5d602b913960400191505060405180910390fd5b80518310611511576040805162461bcd60e51b815260206004820152601760248201527f30333831207468697320696e6465782065786365656473000000000000000000604482015290519081900360640190fd5b80838151811061151d57fe5b6020026020010151610100015115611539576001915050610c41565b5060009392505050565b7f000000000000000000000000000000000000000000000000000000000000000081565b7f000000000000000000000000000000000000000000000000000000000000000081565b7f000000000000000000000000000000000000000000000000000000000000000081565b6001600160a01b038116600090815260076020908152604080832080548251818502810185019093528083528493849084015b8282101561167457600084815260209081902060408051610120810182526008860290920180548352600180820154848601526002820154928401929092526003810154606084015260048101546080840152600581015460a0840152600681015460c08401526007015460ff808216151560e0850152610100918290041615159083015290835290920191016115e2565b50505050905080516000141561168e576000915050610bbd565b6000805b82518110156116be5760006116a78683613650565b90506116b383826137e8565b925050600101611692565b509392505050565b600d546001600160a01b03166116da6135a0565b6001600160a01b03161461171f5760405162461bcd60e51b81526004018080602001828103825260218152602001806149fa6021913960400191505060405180910390fd5b7f00000000000000000000000000000000000000000000000000000000000000006001600160a01b0316836001600160a01b031614156117905760405162461bcd60e51b81526004018080602001828103825260218152602001806149d96021913960400191505060405180910390fd5b6040805163a9059cbb60e01b81526001600160a01b038381166004830152602482018590529151859283169163a9059cbb9160448083019260209291908290030181600087803b1580156117e357600080fd5b505af11580156117f7573d6000803e3d6000fd5b505050506040513d602081101561180d57600080fd5b505050505050565b600d546001600160a01b03166118296135a0565b6001600160a01b03161461186e5760405162461bcd60e51b81526004018080602001828103825260218152602001806149fa6021913960400191505060405180910390fd5b7f00000000000000000000000000000000000000000000000000000000000000007f00000000000000000000000000000000000000000000000000000000000000007f000000000000000000000000000000000000000000000000000000000000000001014210156119115760405162461bcd60e51b8152600401808060200182810382526036815260200180614ab26036913960400191505060405180910390fd5b6119196126a8565b600b55565b7f000000000000000000000000000000000000000000000000000000000000000081565b7f000000000000000000000000000000000000000000000000000000000000000081565b61196e6135a0565b6001600160a01b031661197f612699565b6001600160a01b0316146119da576040805162461bcd60e51b815260206004820181905260248201527f4f776e61626c653a2063616c6c6572206973206e6f7420746865206f776e6572604482015290519081900360640190fd5b600080546040516001600160a01b03909116907f8be0079c531659141344cd1fd0a4f28419497f9722a3daafe3b4186f6b6457e0908390a3600080546001600160a01b0319169055565b7f000000000000000000000000000000000000000000000000000000000000000081565b6001600160a01b038216600090815260076020908152604080832080548251818502810185019093528083528493849084015b82821015611b0d57600084815260209081902060408051610120810182526008860290920180548352600180820154848601526002820154928401929092526003810154606084015260048101546080840152600581015460a0840152600681015460c08401526007015460ff808216151560e085015261010091829004161515908301529083529092019101611a7b565b505050509050805160001415611b27576000915050610c41565b80518310611b39576000915050610c41565b600080611b468686613650565b9050611b5282826137e8565b9695505050505050565b7f000000000000000000000000000000000000000000000000000000000000000081565b600d54600160a81b900460ff1615611bd5576040805162461bcd60e51b81526020600482015260136024820152720c0ccc4c08141bdbdb081a5cc81b1bd8dad959606a1b604482015290519081900360640190fd5b7f0000000000000000000000000000000000000000000000000000000000000000821015611c345760405162461bcd60e51b815260040180806020018281038252602a815260200180614a88602a913960400191505060405180910390fd5b6000611c6c6064611c667f00000000000000000000000000000000000000000000000000000000000000006005613849565b906138a2565b905060007f00000000000000000000000000000000000000000000000000000000000000006001600160a01b031663771a3a1d6040518163ffffffff1660e01b815260040160206040518083038186803b158015611cc957600080fd5b505afa158015611cdd573d6000803e3d6000fd5b505050506040513d6020811015611cf357600080fd5b5051905060006001600160a01b037f00000000000000000000000000000000000000000000000000000000000000001663d1ecfc68611d306135a0565b6040518263ffffffff1660e01b815260040180826001600160a01b0316815260200191505060206040518083038186803b158015611d6d57600080fd5b505afa158015611d81573d6000803e3d6000fd5b505050506040513d6020811015611d9757600080fd5b5051611dac57611da78583613909565b611daf565b60005b9050611ddb7f0000000000000000000000000000000000000000000000000000000000000000846137e8565b611dfa82611df488600a546137e890919063ffffffff16565b9061391b565b1115611e375760405162461bcd60e51b81526004018080602001828103825260268152602001806149b36026913960400191505060405180910390fd5b6000611e438684613978565b965090506001600160a01b037f0000000000000000000000000000000000000000000000000000000000000000166323b872dd611e7e6135a0565b604080516001600160e01b031960e085901b1681526001600160a01b03909216600483015230602483015289850160448301525160648083019260209291908290030181600087803b158015611ed357600080fd5b505af1158015611ee7573d6000803e3d6000fd5b505050506040513d6020811015611efd57600080fd5b50611f0a9050868361391b565b95508015612041577f00000000000000000000000000000000000000000000000000000000000000006001600160a01b031663a9059cbb7f00000000000000000000000000000000000000000000000000000000000000006001600160a01b0316634a5db0a96040518163ffffffff1660e01b815260040160206040518083038186803b158015611f9a57600080fd5b505afa158015611fae573d6000803e3d6000fd5b505050506040513d6020811015611fc457600080fd5b5051604080516001600160e01b031960e085901b1681526001600160a01b039092166004830152602482018590525160448083019260209291908290030181600087803b15801561201457600080fd5b505af1158015612028573d6000803e3d6000fd5b505050506040513d602081101561203e57600080fd5b50505b600a5461204e90876137e8565b600a81905550600860405180604001604052806120696135a0565b6001600160a01b03168152602001600760006120836135a0565b6001600160a01b0390811682526020808301939093526040909101600090812054909352845460018082018755958452828420855160029092020180546001600160a01b0319169190921617815592015191909201556007906120e46135a0565b6001600160a01b03168152602080820192909252604090810160009081208251610120810184528a81524281860181815294820184815260608301918252608083018c815260001960a0850181815260c0860191825260e086018881526101008088018a8152895460018082018c559a8c529c909a2097516008909c029097019a8b559851968a01969096559151600289015591516003880155905160048701559151600586015590516006850155915160079093018054915160ff19929092169315159390931761ff001916901515909102179055600a547f0000000000000000000000000000000000000000000000000000000000000000116121eb576121eb613612565b6121f36135a0565b6001600160a01b03167f5af417134f72a9d41143ace85b0a26dce6f550f894f2cbc1eeee8810603d91b68787604051808381526020018281526020019250505060405180910390a2505050505050565b6000806122566122516135a0565b613a14565b915091509091565b600d54600160b01b900460ff1681565b600a5481565b6007602052816000526040600020818154811061229057600080fd5b6000918252602090912060089091020180546001820154600283015460038401546004850154600586015460068701546007909701549598509396509194909391929160ff8082169161010090041689565b600d546001600160a01b03166122f66135a0565b6001600160a01b03161461233b5760405162461bcd60e51b81526004018080602001828103825260218152602001806149fa6021913960400191505060405180910390fd5b60007f00000000000000000000000000000000000000000000000000000000000000001161239a5760405162461bcd60e51b8152600401808060200182810382526021815260200180614a3c6021913960400191505060405180910390fd5b600082116123ef576040805162461bcd60e51b815260206004820152601960248201527f3033343120416d6f756e742063616e2774206265207a65726f00000000000000604482015290519081900360640190fd5b4281101561243b576040805162461bcd60e51b81526020600482015260146024820152733033343220646561646c696e65206973206c6f7760601b604482015290519081900360640190fd5b6000612445610f96565b90506124518184613a4b565b600061245c84610a41565b9050600061247661246f8361012c613909565b839061391b565b905061248430868387613b10565b5050505050565b600d54600160a01b900460ff166124e1576040805162461bcd60e51b815260206004820152601560248201527469742773206e6f7420616e20656d657267656e637960581b604482015290519081900360640190fd5b60006124f36124ee6135a0565b613ca9565b905080156125ff577f00000000000000000000000000000000000000000000000000000000000000006001600160a01b031663a9059cbb6125326135a0565b836040518363ffffffff1660e01b815260040180836001600160a01b0316815260200182815260200192505050602060405180830381600087803b15801561257957600080fd5b505af115801561258d573d6000803e3d6000fd5b505050506040513d60208110156125a357600080fd5b506125b690506125b16135a0565b613de7565b6125be6135a0565b6001600160a01b03167f85082129d87b2fe11527cb1b3b7a520aeb5aa6913f88a3d8757fe40d1db02fdd826040518082815260200191505060405180910390a25b50565b600d546001600160a01b03166126166135a0565b6001600160a01b03161461265b5760405162461bcd60e51b81526004018080602001828103825260218152602001806149fa6021913960400191505060405180910390fd5b600d805460ff60b81b1916600160b81b1790556040517f9331b2a38c658c57a39ea19b2709d928c28a12cc8fbb838d12b85148550f937d90600090a1565b6000546001600160a01b031690565b600080600160009054906101000a90046001600160a01b03166001600160a01b031663feaf968c6040518163ffffffff1660e01b815260040160a06040518083038186803b1580156126f957600080fd5b505afa15801561270d573d6000803e3d6000fd5b505050506040513d60a081101561272357600080fd5b50602001519050600081121561273a57600061273c565b805b91505090565b6000806122566127506135a0565b613e5b565b600581565b60008061276e6127686135a0565b84614076565b915091505b915091565b600d54600160a01b900460ff1681565b600881565b600d54600160a81b900460ff1681565b60408051600280825260608083018452926000929190602083019080368337505060045482519293506001600160a01b0316918391506000906127dc57fe5b6001600160a01b03928316602091820292909201015260055482519116908290600190811061280757fe5b6001600160a01b0390921660209283029190910190910152905090565b7f000000000000000000000000000000000000000000000000000000000000000081565b6000806128566127686135a0565b909250905081156129b757817f00000000000000000000000000000000000000000000000000000000000000006001600160a01b03166370a082317f00000000000000000000000000000000000000000000000000000000000000006040518263ffffffff1660e01b815260040180826001600160a01b0316815260200191505060206040518083038186803b1580156128ef57600080fd5b505afa158015612903573d6000803e3d6000fd5b505050506040513d602081101561291957600080fd5b5051106129b7577f00000000000000000000000000000000000000000000000000000000000000006001600160a01b031663e4e103dc6129576135a0565b846040518363ffffffff1660e01b815260040180836001600160a01b0316815260200182815260200192505050600060405180830381600087803b15801561299e57600080fd5b505af11580156129b2573d6000803e3d6000fd5b505050505b6129c86129c26135a0565b846140b0565b600d54600160b01b900460ff1615612c1d577f000000000000000000000000000000000000000000000000000000000000000015612afb578015612aea577f00000000000000000000000000000000000000000000000000000000000000006001600160a01b031663a9059cbb612a3d6135a0565b836040518363ffffffff1660e01b815260040180836001600160a01b0316815260200182815260200192505050602060405180830381600087803b158015612a8457600080fd5b505af1158015612a98573d6000803e3d6000fd5b505050506040513d6020811015612aae57600080fd5b5051612aea576040805162461bcd60e51b815260206004808301919091526024820152630303333360e41b604482015290519081900360640190fd5b612afb612af56135a0565b8461416a565b6000612b0e612b086135a0565b856141f1565b90508015612c1b577f00000000000000000000000000000000000000000000000000000000000000006001600160a01b031663a9059cbb612b4d6135a0565b836040518363ffffffff1660e01b815260040180836001600160a01b0316815260200182815260200192505050602060405180830381600087803b158015612b9457600080fd5b505af1158015612ba8573d6000803e3d6000fd5b505050506040513d6020811015612bbe57600080fd5b50612bd29050612bcc6135a0565b85614336565b612bda6135a0565b6001600160a01b03167f85082129d87b2fe11527cb1b3b7a520aeb5aa6913f88a3d8757fe40d1db02fdd826040518082815260200191505060405180910390a25b505b612c256135a0565b6001600160a01b03167ff279e6a1f5e320cca91135676d9cb6e44ca8a08c0b88342bcdb1144f6511b5688383604051808381526020018281526020019250505060405180910390a2505050565b6006805460408051602060026001851615610100026000190190941693909304601f81018490048402820184019092528181529291830182828015612cf85780601f10612ccd57610100808354040283529160200191612cf8565b820191906000526020600020905b815481529060010190602001808311612cdb57829003601f168201915b505050505081565b600080612d0e6122516135a0565b90925090508115612e6f57817f00000000000000000000000000000000000000000000000000000000000000006001600160a01b03166370a082317f00000000000000000000000000000000000000000000000000000000000000006040518263ffffffff1660e01b815260040180826001600160a01b0316815260200191505060206040518083038186803b158015612da757600080fd5b505afa158015612dbb573d6000803e3d6000fd5b505050506040513d6020811015612dd157600080fd5b505110612e6f577f00000000000000000000000000000000000000000000000000000000000000006001600160a01b031663e4e103dc612e0f6135a0565b846040518363ffffffff1660e01b815260040180836001600160a01b0316815260200182815260200192505050600060405180830381600087803b158015612e5657600080fd5b505af1158015612e6a573d6000803e3d6000fd5b505050505b612e7f612e7a6135a0565b6143a3565b600d54600160b01b900460ff16156130c7577f000000000000000000000000000000000000000000000000000000000000000015612fb1578015612fa1577f00000000000000000000000000000000000000000000000000000000000000006001600160a01b031663a9059cbb612ef46135a0565b836040518363ffffffff1660e01b815260040180836001600160a01b0316815260200182815260200192505050602060405180830381600087803b158015612f3b57600080fd5b505af1158015612f4f573d6000803e3d6000fd5b505050506040513d6020811015612f6557600080fd5b5051612fa1576040805162461bcd60e51b815260206004808301919091526024820152630303332360e41b604482015290519081900360640190fd5b612fb1612fac6135a0565b61443c565b6000612fbe6124ee6135a0565b905080156130c5577f00000000000000000000000000000000000000000000000000000000000000006001600160a01b031663a9059cbb612ffd6135a0565b836040518363ffffffff1660e01b815260040180836001600160a01b0316815260200182815260200192505050602060405180830381600087803b15801561304457600080fd5b505af1158015613058573d6000803e3d6000fd5b505050506040513d602081101561306e57600080fd5b5061307c90506125b16135a0565b6130846135a0565b6001600160a01b03167f85082129d87b2fe11527cb1b3b7a520aeb5aa6913f88a3d8757fe40d1db02fdd826040518082815260200191505060405180910390a25b505b6130cf6135a0565b6001600160a01b03167ff279e6a1f5e320cca91135676d9cb6e44ca8a08c0b88342bcdb1144f6511b5688383604051808381526020018281526020019250505060405180910390a25050565b6000600a546000141561313057506000610fa3565b6000805b60085481101561324c576000600760006008848154811061315157fe5b600091825260208083206002909202909101546001600160a01b031683528201929092526040019020600880548490811061318857fe5b906000526020600020906002020160010154815481106131a457fe5b600091825260209182902060408051610120810182526008909302909101805480845260018201549484019490945260028101549183019190915260038101546060830152600481015460808301819052600582015460a0840152600682015460c084015260079091015460ff808216151560e085015261010091829004161515908301529092506132419161323a9190613849565b84906137e8565b925050600101613134565b50600a5461273c9082906138a2565b600254604080516370a0823160e01b815230600482015290516000926001600160a01b0316916370a08231916024808301926020929190829003018186803b15801561101557600080fd5b600d546001600160a01b031681565b600b5481565b600d54600160b81b900460ff1681565b6000610c416132d86135a0565b836141f1565b600981815481106132ee57600080fd5b6000918252602090912060029091020180546001909101546001600160a01b03909116915082565b7f000000000000000000000000000000000000000000000000000000000000000081565b7f000000000000000000000000000000000000000000000000000000000000000081565b7f000000000000000000000000000000000000000000000000000000000000000081565b600061339461338f6135a0565b6115af565b905090565b60008061276e6133a76135a0565b846144a4565b600080600160009054906101000a90046001600160a01b03166001600160a01b031663313ce5676040518163ffffffff1660e01b815260040160206040518083038186803b1580156133fe57600080fd5b505afa158015613412573d6000803e3d6000fd5b505050506040513d602081101561342857600080fd5b505191505090565b600e818154811061344057600080fd5b60009182526020909120600290910201805460019091015490915082565b6134666135a0565b6001600160a01b0316613477612699565b6001600160a01b0316146134d2576040805162461bcd60e51b815260206004820181905260248201527f4f776e61626c653a2063616c6c6572206973206e6f7420746865206f776e6572604482015290519081900360640190fd5b6001600160a01b0381166135175760405162461bcd60e51b81526004018080602001828103825260268152602001806149616026913960400191505060405180910390fd5b600080546040516001600160a01b03808516939216917f8be0079c531659141344cd1fd0a4f28419497f9722a3daafe3b4186f6b6457e091a3600080546001600160a01b0319166001600160a01b0392909216919091179055565b600c5481565b6002546001600160a01b031690565b600881815481106132ee57600080fd5b60006133946124ee5b3390565b6000600b548311156135e257600b546135bd848461391b565b116135ca57506000610c41565b600b546135db90611df4858561391b565b9050610c41565b600b546135ef84846137e8565b106135fc57506000610c41565b6135db61360984846137e8565b600b549061391b565b600d805460ff60a81b1916600160a81b1790556040517f2e136745550967f28b779ce8c395ca060a2f844edfb5b06631fe677f66f9e30590600090a1565b6001600160a01b038216600090815260076020526040812080548291908490811061367757fe5b6000918252602080832060408051610120810182526008909402909101805484526001810154928401929092526002820154908301526003810154606083015260048101546080830152600581015460a0830152600681015460c08301526007015460ff808216151560e0840152610100918290041615159082015291507f00000000000000000000000000000000000000000000000000000000000000007f0000000000000000000000000000000000000000000000000000000000000000017f00000000000000000000000000000000000000000000000000000000000000000190428210613768574261376a565b815b9050600061377b84602001516146bd565b905060006137c36137ac7f0000000000000000000000000000000000000000000000000000000000000000846137e8565b60208701516137bc90869061391b565b87516147c4565b90506137dc85604001518261391b90919063ffffffff16565b98975050505050505050565b600082820183811015613842576040805162461bcd60e51b815260206004820152601b60248201527f536166654d6174683a206164646974696f6e206f766572666c6f770000000000604482015290519081900360640190fd5b9392505050565b60008261385857506000610c41565b8282028284828161386557fe5b04146138425760405162461bcd60e51b8152600401808060200182810382526021815260200180614a1b6021913960400191505060405180910390fd5b60008082116138f8576040805162461bcd60e51b815260206004820152601a60248201527f536166654d6174683a206469766973696f6e206279207a65726f000000000000604482015290519081900360640190fd5b81838161390157fe5b049392505050565b6000613842612710611c668585613849565b600082821115613972576040805162461bcd60e51b815260206004820152601e60248201527f536166654d6174683a207375627472616374696f6e206f766572666c6f770000604482015290519081900360640190fd5b50900390565b6000806000837f0000000000000000000000000000000000000000000000000000000000000000116139ab5760006139d5565b6139d57f00000000000000000000000000000000000000000000000000000000000000008561391b565b9050806139e9576000859250925050613a0d565b6139f38582613909565b613a07613a008784613909565b879061391b565b92509250505b9250929050565b6000806000806000613a25866115af565b9050613a3086613e5b565b9093509150613a3f81846137e8565b94509092505050915091565b6002546040805163095ea7b360e01b81526001600160a01b038581166004830152602482018590529151919092169163095ea7b39160448083019260209291908290030181600087803b158015613aa157600080fd5b505af1158015613ab5573d6000803e3d6000fd5b505050506040513d6020811015613acb57600080fd5b50506040805182815290516001600160a01b038416917fd77df63d9076d067d9fd7af16c3d67db48b84064c3314f5900ae919922d364a1919081900360200190a25050565b6001600160a01b038416613b2357600080fd5b6003546001600160a01b03166338ed17398484613b3e61279d565b88866040518663ffffffff1660e01b81526004018086815260200185815260200180602001846001600160a01b03168152602001838152602001828103825285818151815260200191508051906020019060200280838360005b83811015613bb0578181015183820152602001613b98565b505050509050019650505050505050600060405180830381600087803b158015613bd957600080fd5b505af1158015613bed573d6000803e3d6000fd5b505050506040513d6000823e601f3d908101601f191682016040526020811015613c1657600080fd5b8101908080516040519392919084640100000000821115613c3657600080fd5b908301906020820185811115613c4b57600080fd5b8251866020820283011164010000000082111715613c6857600080fd5b82525081516020918201928201910280838360005b83811015613c95578181015183820152602001613c7d565b505050509050016040525050505050505050565b6001600160a01b038116600090815260076020908152604080832080548251818502810185019093528083528493849084015b82821015613d6e57600084815260209081902060408051610120810182526008860290920180548352600180820154848601526002820154928401929092526003810154606084015260048101546080840152600581015460a0840152600681015460c08401526007015460ff808216151560e085015261010091829004161515908301529083529092019101613cdc565b505050509050805160001415613d88576000915050610bbd565b6000805b82518110156116be57828181518110613da157fe5b60200260200101516101000151613ddf57613ddc838281518110613dc157fe5b602002602001015160000151836137e890919063ffffffff16565b91505b600101613d8c565b6001600160a01b03811660009081526007602052604090208054613e0b57506125ff565b60005b8154811015613e56576001828281548110613e2557fe5b6000918252602090912060076008909202010180549115156101000261ff0019909216919091179055600101613e0e565b505050565b600d546000908190600160b01b900460ff16613e7c57506000905080612773565b6001600160a01b038316600090815260076020908152604080832080548251818502810185019093528083529192909190849084015b82821015613f4457600084815260209081902060408051610120810182526008860290920180548352600180820154848601526002820154928401929092526003810154606084015260048101546080840152600581015460a0840152600681015460c08401526007015460ff808216151560e085015261010091829004161515908301529083529092019101613eb2565b505050509050805160001415613f61576000809250925050612773565b600b54600090613f9990611c667f00000000000000000000000000000000000000000000000000000000000000006305f5e100613849565b905060008060005b845181101561403957848181518110613fb657fe5b602002602001015160e00151614031576000613fe8868381518110613fd757fe5b602002602001015160c001516148cd565b905061401e6140177f000000000000000000000000000000000000000000000000000000000000000083613909565b85906137e8565b935061402d61323a8683613909565b9250505b600101613fa1565b50600c541561406a57600c54614050908390614938565b9150614067600c548261493890919063ffffffff16565b90505b90945092505050915091565b60008060008060006140888787611a48565b905061409487876144a4565b90935091506140a381846137e8565b9791965090945050505050565b6001600160a01b038216600090815260076020526040902080546140d45750614166565b805482106140e25750614166565b60006140ee8484613650565b9050428284815481106140fd57fe5b9060005260206000209060080201600301819055506141428183858154811061412257fe5b9060005260206000209060080201600201546137e890919063ffffffff16565b82848154811061414e57fe5b90600052602060002090600802016002018190555050505b5050565b6001600160a01b0382166000908152600760205260409020805461418e5750614166565b80828154811061419a57fe5b600091825260209091206007600890920201015460ff16156141bc5750614166565b60018183815481106141ca57fe5b60009182526020909120600890910201600701805460ff1916911515919091179055505050565b6001600160a01b038216600090815260076020908152604080832080548251818502810185019093528083528493849084015b828210156142b657600084815260209081902060408051610120810182526008860290920180548352600180820154848601526002820154928401929092526003810154606084015260048101546080840152600581015460a0840152600681015460c08401526007015460ff808216151560e085015261010091829004161515908301529083529092019101614224565b5050505090508051600014156142d0576000915050610c41565b805183106142e2576000915050610c41565b60008184815181106142f057fe5b6020026020010151610100015161432e5761432b82858151811061431057fe5b602002602001015160000151826137e890919063ffffffff16565b90505b949350505050565b6001600160a01b0382166000908152600760205260409020805461435a5750614166565b805482106143685750614166565b600181838154811061437657fe5b906000526020600020906008020160070160016101000a81548160ff021916908315150217905550505050565b6001600160a01b038116600090815260076020526040902080546143c757506125ff565b60005b8154811015613e565760006143df8483613650565b9050428383815481106143ee57fe5b9060005260206000209060080201600301819055506144138184848154811061412257fe5b83838154811061441f57fe5b6000918252602090912060026008909202010155506001016143ca565b6001600160a01b0381166000908152600760205260409020805461446057506125ff565b60005b8154811015613e5657600182828154811061447a57fe5b60009182526020909120600890910201600701805460ff1916911515919091179055600101614463565b600d546000908190600160b01b900460ff166144c557506000905080613a0d565b6001600160a01b038416600090815260076020908152604080832080548251818502810185019093528083529192909190849084015b8282101561458d57600084815260209081902060408051610120810182526008860290920180548352600180820154848601526002820154928401929092526003810154606084015260048101546080840152600581015460a0840152600681015460c08401526007015460ff808216151560e0850152610100918290041615159083015290835290920191016144fb565b5050505090508051600014156145aa576000809250925050613a0d565b805184106145bf576000809250925050613a0d565b8084815181106145cb57fe5b602002602001015160e00151156145e9576000809250925050613a0d565b600b5460009061462190611c667f00000000000000000000000000000000000000000000000000000000000000006305f5e100613849565b90506000806000614637858981518110613fd757fe5b905061466661323a7f000000000000000000000000000000000000000000000000000000000000000083613909565b925061467c6146758583613909565b83906137e8565b600c54909250156146af57600c54614695908490614938565b92506146ac600c548361493890919063ffffffff16565b91505b509097909650945050505050565b60007f00000000000000000000000000000000000000000000000000000000000000006146ec57506000610bbd565b60006147387f00000000000000000000000000000000000000000000000000000000000000007f00000000000000000000000000000000000000000000000000000000000000006137e8565b90506000614746828561391b565b90506202a30081101561475e57600092505050610bbd565b6203f48081101561477457606492505050610bbd565b6205460081101561478a5760c892505050610bbd565b620697808110156147a15761012c92505050610bbd565b6207e9008110156147b85761019092505050610bbd565b6101f492505050610bbd565b60006301e13380816147e166038882915c40006305f5e100613849565b905060006147fd6113886147f785818a8c613849565b90613849565b905060006148146113886147f78a6002880a613849565b9050600061482d6006611c666002808c0a908d0a613849565b905060006148506002611c66886147f760028f0a8e61384990919063ffffffff16565b905060006148696003611c666002808f0a908b0a613849565b905060006148838261487d86818b8b6137e8565b906137e8565b905061489383611df4838861391b565b90506148a38b6147f7838f613849565b90506148bd64e8d4a51000611c6660038b0a81858f613849565b9c9b505050505050505050505050565b6000805b600e5481101561492f57600e81815481106148e857fe5b906000526020600020906002020160000154831161492757600e818154811061490d57fe5b906000526020600020906002020160010154915050610bbd565b6001016148d1565b50600092915050565b60008261494757506000610c41565b81614953575081610c41565b61384261323a848461390956fe4f776e61626c653a206e6577206f776e657220697320746865207a65726f2061646472657373303336302043616e277420656e6420706f6f6c206265666f726520746865206d617475726974792074696d65303331322043616e2774207374616b652061626f76652073697a6520616c6c6f636174696f6e3033373020746f74656d732063616e206e6f74206265207472616e736665726564303330302063616c6c6572206973206e6f74206120706f6f6c2063726561746f72536166654d6174683a206d756c7469706c69636174696f6e206f766572666c6f77303334302054686520706f6f6c206973206e6f74204254432072657761726465723033383020746869732061646472657373206469646e2774207374616b6520696e207468697320706f6f6c3033313120416d6f756e742063616e2774206265206c657373207468616e20746865206d696e696d756d303335302043616e277420736574206d61747572696e67207072696365206265666f726520746865206d617475726974792074696d65a2646970667358221220788769e583bd50a5106717a90a2a23ad0509831f1ad8fc6286fcc58823d6a21a64736f6c63430007060033303432302054617820636f6e6e6f74206265206f76657220313030252028313030303020425029506f6f6c43726561746f72526f6c653a2063616c6c657220646f6573206e6f7420686176652074686520506f6f6c43726561746f7220726f6c65526f6c65733a206163636f756e7420646f6573206e6f74206861766520726f6c65526f6c65733a206163636f756e7420697320746865207a65726f2061646472657373a26469706673582212204af71937f9f50dd22b10404377b359a442d4aff96f2554eece81ca5829b0658b64736f6c63430007060033526f6c65733a206163636f756e7420697320746865207a65726f2061646472657373",
  "devdoc": {
    "kind": "dev",
    "methods": {},
    "version": 1
  },
  "userdoc": {
    "kind": "user",
    "methods": {},
    "version": 1
  },
  "storageLayout": {
    "storage": [
      {
        "astId": 2067,
        "contract": "contracts/Staking/StakingPoolFactory.sol:StakingPoolFactory",
        "label": "_poolCreators",
        "offset": 0,
        "slot": "0",
        "type": "t_struct(Role)2284_storage"
      },
      {
        "astId": 5293,
        "contract": "contracts/Staking/StakingPoolFactory.sol:StakingPoolFactory",
        "label": "swapRouter",
        "offset": 0,
        "slot": "1",
        "type": "t_address"
      },
      {
        "astId": 5295,
        "contract": "contracts/Staking/StakingPoolFactory.sol:StakingPoolFactory",
        "label": "oracleContract",
        "offset": 0,
        "slot": "2",
        "type": "t_address"
      },
      {
        "astId": 5301,
        "contract": "contracts/Staking/StakingPoolFactory.sol:StakingPoolFactory",
        "label": "stakingPoolTaxRate",
        "offset": 0,
        "slot": "3",
        "type": "t_uint256"
      }
    ],
    "types": {
      "t_address": {
        "encoding": "inplace",
        "label": "address",
        "numberOfBytes": "20"
      },
      "t_bool": {
        "encoding": "inplace",
        "label": "bool",
        "numberOfBytes": "1"
      },
      "t_mapping(t_address,t_bool)": {
        "encoding": "mapping",
        "key": "t_address",
        "label": "mapping(address => bool)",
        "numberOfBytes": "32",
        "value": "t_bool"
      },
      "t_struct(Role)2284_storage": {
        "encoding": "inplace",
        "label": "struct Roles.Role",
        "members": [
          {
            "astId": 2283,
            "contract": "contracts/Staking/StakingPoolFactory.sol:StakingPoolFactory",
            "label": "bearer",
            "offset": 0,
            "slot": "0",
            "type": "t_mapping(t_address,t_bool)"
          }
        ],
        "numberOfBytes": "32"
      },
      "t_uint256": {
        "encoding": "inplace",
        "label": "uint256",
        "numberOfBytes": "32"
      }
    }
  }
}