{
  "address": "0x492eDE9b0f9c5bfD50400c5b220a730dc107469f",
  "abi": [
    {
      "inputs": [
        {
          "internalType": "contract TotemToken",
          "name": "_totemToken",
          "type": "address"
        },
        {
          "internalType": "contract RewardManager",
          "name": "_rewardManager",
          "type": "address"
        },
        {
          "internalType": "address",
          "name": "_oracleContract",
          "type": "address"
        },
        {
          "internalType": "address",
          "name": "_swapRouter",
          "type": "address"
        },
        {
          "internalType": "address",
          "name": "_usdToken",
          "type": "address"
        },
        {
          "internalType": "address",
          "name": "_btcToken",
          "type": "address"
        }
      ],
      "stateMutability": "nonpayable",
      "type": "constructor"
    },
    {
      "anonymous": false,
      "inputs": [
        {
          "indexed": true,
          "internalType": "address",
          "name": "pool",
          "type": "address"
        },
        {
          "indexed": false,
          "internalType": "uint256",
          "name": "maturityTime",
          "type": "uint256"
        },
        {
          "indexed": false,
          "internalType": "uint256",
          "name": "lockTime",
          "type": "uint256"
        },
        {
          "indexed": false,
          "internalType": "uint256",
          "name": "sizeAllocation",
          "type": "uint256"
        },
        {
          "indexed": false,
          "internalType": "uint256",
          "name": "stakeApr",
          "type": "uint256"
        },
        {
          "indexed": false,
          "internalType": "uint256",
          "name": "prizeAmount",
          "type": "uint256"
        },
        {
          "indexed": false,
          "internalType": "uint256",
          "name": "usdPrizeAmount",
          "type": "uint256"
        },
        {
          "indexed": false,
          "internalType": "uint256",
          "name": "potentialCollabReward",
          "type": "uint256"
        },
        {
          "indexed": false,
          "internalType": "uint256",
          "name": "stakingPoolTaxRate",
          "type": "uint256"
        },
        {
          "indexed": false,
          "internalType": "uint256",
          "name": "minimumStakeAmount",
          "type": "uint256"
        },
        {
          "indexed": false,
          "internalType": "bool",
          "name": "isEnhancedEnabled",
          "type": "bool"
        }
      ],
      "name": "PoolCreated",
      "type": "event"
    },
    {
      "anonymous": false,
      "inputs": [
        {
          "indexed": true,
          "internalType": "address",
          "name": "account",
          "type": "address"
        }
      ],
      "name": "PoolCreatorAdded",
      "type": "event"
    },
    {
      "anonymous": false,
      "inputs": [
        {
          "indexed": true,
          "internalType": "address",
          "name": "account",
          "type": "address"
        }
      ],
      "name": "PoolCreatorRemoved",
      "type": "event"
    },
    {
      "inputs": [
        {
          "internalType": "address",
          "name": "account",
          "type": "address"
        }
      ],
      "name": "addPoolCreator",
      "outputs": [],
      "stateMutability": "nonpayable",
      "type": "function"
    },
    {
      "inputs": [
        {
          "internalType": "uint256",
          "name": "maturityTime",
          "type": "uint256"
        },
        {
          "internalType": "uint256",
          "name": "lockTime",
          "type": "uint256"
        },
        {
          "internalType": "uint256",
          "name": "sizeAllocation",
          "type": "uint256"
        },
        {
          "internalType": "uint256",
          "name": "stakeApr",
          "type": "uint256"
        },
        {
          "internalType": "uint256",
          "name": "prizeAmount",
          "type": "uint256"
        },
        {
          "internalType": "uint256",
          "name": "usdPrizeAmount",
          "type": "uint256"
        },
        {
          "internalType": "uint256",
          "name": "potentialCollabReward",
          "type": "uint256"
        },
        {
          "internalType": "bool",
          "name": "isEnhancedEnabled",
          "type": "bool"
        }
      ],
      "name": "create",
      "outputs": [
        {
          "internalType": "address",
          "name": "",
          "type": "address"
        }
      ],
      "stateMutability": "nonpayable",
      "type": "function"
    },
    {
      "inputs": [
        {
          "internalType": "address",
          "name": "account",
          "type": "address"
        }
      ],
      "name": "isPoolCreator",
      "outputs": [
        {
          "internalType": "bool",
          "name": "",
          "type": "bool"
        }
      ],
      "stateMutability": "view",
      "type": "function"
    },
    {
      "inputs": [],
      "name": "minimumStakeAmount",
      "outputs": [
        {
          "internalType": "uint256",
          "name": "",
          "type": "uint256"
        }
      ],
      "stateMutability": "view",
      "type": "function"
    },
    {
      "inputs": [],
      "name": "oracleContract",
      "outputs": [
        {
          "internalType": "address",
          "name": "",
          "type": "address"
        }
      ],
      "stateMutability": "view",
      "type": "function"
    },
    {
      "inputs": [],
      "name": "renouncePoolCreator",
      "outputs": [],
      "stateMutability": "nonpayable",
      "type": "function"
    },
    {
      "inputs": [],
      "name": "rewardManager",
      "outputs": [
        {
          "internalType": "contract RewardManager",
          "name": "",
          "type": "address"
        }
      ],
      "stateMutability": "view",
      "type": "function"
    },
    {
      "inputs": [
        {
          "internalType": "uint256",
          "name": "newMinimumStakeAmount",
          "type": "uint256"
        }
      ],
      "name": "setMinimuntToStake",
      "outputs": [],
      "stateMutability": "nonpayable",
      "type": "function"
    },
    {
      "inputs": [
        {
          "internalType": "address",
          "name": "_oracleContract",
          "type": "address"
        }
      ],
      "name": "setOracleContract",
      "outputs": [],
      "stateMutability": "nonpayable",
      "type": "function"
    },
    {
      "inputs": [
        {
          "internalType": "address",
          "name": "_swapRouter",
          "type": "address"
        }
      ],
      "name": "setSwapRouter",
      "outputs": [],
      "stateMutability": "nonpayable",
      "type": "function"
    },
    {
      "inputs": [
        {
          "internalType": "uint256",
          "name": "newStakingPoolTaxRate",
          "type": "uint256"
        }
      ],
      "name": "setTaxRate",
      "outputs": [],
      "stateMutability": "nonpayable",
      "type": "function"
    },
    {
      "inputs": [],
      "name": "stakingPoolTaxRate",
      "outputs": [
        {
          "internalType": "uint256",
          "name": "",
          "type": "uint256"
        }
      ],
      "stateMutability": "view",
      "type": "function"
    },
    {
      "inputs": [],
      "name": "swapRouter",
      "outputs": [
        {
          "internalType": "address",
          "name": "",
          "type": "address"
        }
      ],
      "stateMutability": "view",
      "type": "function"
    },
    {
      "inputs": [],
      "name": "totemToken",
      "outputs": [
        {
          "internalType": "contract TotemToken",
          "name": "",
          "type": "address"
        }
      ],
      "stateMutability": "view",
      "type": "function"
    }
  ],
  "transactionHash": "0xc1fd4bc97a7f742e7241fb06152adafbd3e1a76edee1e050427351769ba1c49b",
  "args": [
    "0x6FF1BFa14A57594a5874B37ff6AC5efbD9F9599A",
    "0xe59930296DB36f4659850c5d5504B4A571a5669E",
    "0x264990fbd0A4796A3E3d8E37C4d5F87a3aCa5Ebf",
    "0x10ED43C718714eb63d5aA57B78B54704E256024E",
    "0xe9e7cea3dedca5984780bafc599bd69add087d56",
    "0x7130d2a12b9bcbfae4f2634d864a1ee1ce3ead9c"
  ],
  "solcInputHash": "c6ac247c365a57ab02c0240f203f09bb",
  "bytecode": "0x6101006040523480156200001257600080fd5b5060405162005bc838038062005bc8833981810160405260c08110156200003857600080fd5b508051602082015160408301516060840151608085015160a0909501519394929391929091620000716200006b620000fd565b62000101565b6200008a576200008a62000084620000fd565b62000124565b6001600160601b0319606096871b811660805294861b851660a052600280546001600160a01b039586166001600160a01b031991821617909155600180549490951693169290921790925590831b821660c05290911b1660e05261012c600355680d8d726b7177a8000060045562000263565b3390565b60006200011e8260006200017660201b6200090e1790919060201c565b92915050565b6200013f816000620001df60201b620009771790919060201c565b6040516001600160a01b038216907fac89bb7b3d0c5a763a97f31bc75f8faee00426e7b235f02ca76897d55caf7b6190600090a250565b60006001600160a01b038216620001bf5760405162461bcd60e51b815260040180806020018281038252602281526020018062005ba66022913960400191505060405180910390fd5b506001600160a01b03166000908152602091909152604090205460ff1690565b620001eb828262000176565b156200023e576040805162461bcd60e51b815260206004820152601f60248201527f526f6c65733a206163636f756e7420616c72656164792068617320726f6c6500604482015290519081900360640190fd5b6001600160a01b0316600090815260209190915260409020805460ff19166001179055565b60805160601c60a05160601c60c05160601c60e05160601c6158f2620002b4600039806106375250806106155250806102c252806105d1528061078e5250806105b052806108ec52506158f26000f3fe60806040523480156200001157600080fd5b5060043610620001005760003560e01c80639a94775d1162000099578063c31c9c07116200006f578063c31c9c071462000282578063c6d69a30146200028c578063e281cc7e14620002ac578063e8153c9314620002b65762000100565b80639a94775d14620001ee578063b9603d6a146200022b578063bece753214620002785762000100565b8063441f5c6511620000db578063441f5c651462000176578063496ccd9b14620001925780636b036f4514620001bb5780638c2d741c14620001c55762000100565b80630f4ef8a6146200010557806337e77675146200012b57806341273657146200014d575b600080fd5b6200010f620002c0565b604080516001600160a01b039092168252519081900360200190f35b6200014b600480360360208110156200014357600080fd5b5035620002e4565b005b6200014b600480360360208110156200016557600080fd5b50356001600160a01b03166200033a565b62000180620003ec565b60408051918252519081900360200190f35b6200014b60048036036020811015620001aa57600080fd5b50356001600160a01b0316620003f2565b62000180620004a4565b6200014b60048036036020811015620001dd57600080fd5b50356001600160a01b0316620004aa565b62000217600480360360208110156200020657600080fd5b50356001600160a01b031662000503565b604080519115158252519081900360200190f35b6200010f60048036036101008110156200024457600080fd5b5080359060208101359060408101359060608101359060808101359060a08101359060c08101359060e00135151562000517565b6200010f62000824565b6200010f62000833565b6200014b60048036036020811015620002a457600080fd5b503562000842565b6200014b620008d4565b6200010f620008ea565b7f000000000000000000000000000000000000000000000000000000000000000081565b620002f8620002f2620009fb565b62000503565b620003355760405162461bcd60e51b815260040180806020018281038252603a81526020018062005840603a913960400191505060405180910390fd5b600455565b62000348620002f2620009fb565b620003855760405162461bcd60e51b815260040180806020018281038252603a81526020018062005840603a913960400191505060405180910390fd5b6001600160a01b038116620003ca576040805162461bcd60e51b815260206004808301919091526024820152630303431360e41b604482015290519081900360640190fd5b600180546001600160a01b0319166001600160a01b0392909216919091179055565b60035481565b62000400620002f2620009fb565b6200043d5760405162461bcd60e51b815260040180806020018281038252603a81526020018062005840603a913960400191505060405180910390fd5b6001600160a01b03811662000482576040805162461bcd60e51b815260206004808301919091526024820152630303430360e41b604482015290519081900360640190fd5b600280546001600160a01b0319166001600160a01b0392909216919091179055565b60045481565b620004b8620002f2620009fb565b620004f55760405162461bcd60e51b815260040180806020018281038252603a81526020018062005840603a913960400191505060405180910390fd5b6200050081620009ff565b50565b60006200051181836200090e565b92915050565b600062000527620002f2620009fb565b620005645760405162461bcd60e51b815260040180806020018281038252603a81526020018062005840603a913960400191505060405180910390fd5b60006040518061012001604052808b81526020018a81526020018981526020018881526020018781526020018681526020018581526020016003548152602001600454815250905060007f00000000000000000000000000000000000000000000000000000000000000007f0000000000000000000000000000000000000000000000000000000000000000620005fa620009fb565b6001546002546040516001600160a01b0392831692909116907f0000000000000000000000000000000000000000000000000000000000000000907f00000000000000000000000000000000000000000000000000000000000000009089908c90620006669062000af2565b6001600160a01b03808b168252898116602083015288811660408301528781166060830152868116608083015285811660a0830152841660c082015260e081018361012080838360005b83811015620006ca578181015183820152602001620006b0565b5050505090500182151581526020019950505050505050505050604051809103906000f08015801562000701573d6000803e3d6000fd5b50600354600454604080518f8152602081018f90528082018e9052606081018d9052608081018c905260a081018b905260c081018a905260e0810193909352610100830191909152861515610120830152519192506001600160a01b038316917f75243069ec60d1b18edc96a68bc98623353ebb06c41582ecbcaa59e4ec8df221918190036101400190a27f00000000000000000000000000000000000000000000000000000000000000006001600160a01b031663d914cd4b826040518263ffffffff1660e01b815260040180826001600160a01b03168152602001915050600060405180830381600087803b158015620007fc57600080fd5b505af115801562000811573d6000803e3d6000fd5b50929d9c50505050505050505050505050565b6002546001600160a01b031681565b6001546001600160a01b031681565b62000850620002f2620009fb565b6200088d5760405162461bcd60e51b815260040180806020018281038252603a81526020018062005840603a913960400191505060405180910390fd5b6127108110620008cf5760405162461bcd60e51b8152600401808060200182810382526027815260200180620058196027913960400191505060405180910390fd5b600355565b620008e8620008e2620009fb565b62000a43565b565b7f000000000000000000000000000000000000000000000000000000000000000081565b60006001600160a01b038216620009575760405162461bcd60e51b81526004018080602001828103825260228152602001806200589b6022913960400191505060405180910390fd5b506001600160a01b03166000908152602091909152604090205460ff1690565b6200098382826200090e565b15620009d6576040805162461bcd60e51b815260206004820152601f60248201527f526f6c65733a206163636f756e7420616c72656164792068617320726f6c6500604482015290519081900360640190fd5b6001600160a01b0316600090815260209190915260409020805460ff19166001179055565b3390565b62000a0c60008262000977565b6040516001600160a01b038216907fac89bb7b3d0c5a763a97f31bc75f8faee00426e7b235f02ca76897d55caf7b6190600090a250565b62000a5060008262000a87565b6040516001600160a01b038216907f2bc71cc60b543df5fdd80ef5a45e1cdb344843769b649e9d901de3be24aeb24e90600090a250565b62000a9382826200090e565b62000ad05760405162461bcd60e51b81526004018080602001828103825260218152602001806200587a6021913960400191505060405180910390fd5b6001600160a01b0316600090815260209190915260409020805460ff19169055565b614d188062000b018339019056fe6102406040523480156200001257600080fd5b5060405162004d1838038062004d1883398181016040526102208110156200003957600080fd5b508051602082015160408301516060840151608085015160a086015160c0870151610200880151969795969495939492939192909160e001908584848760006200008262000311565b600080546001600160a01b0319166001600160a01b0383169081178255604051929350917f8be0079c531659141344cd1fd0a4f28419497f9722a3daafe3b4186f6b6457e0908290a3506001600160a01b038116620000e057600080fd5b600180546001600160a01b03199081166001600160a01b0393841617909155600380548216958316959095179094556004805485169382169390931790925560058054841691831691909117905560608b811b6001600160601b0319908116608052908b901b1660a052600c8054909216908916179055620001628462000315565b606092831b6001600160601b03191660c09081524260e090815283516101205260208085015161010090815260408087015161014052968601516101605260808601516101805260a08601516101a0529285015161020052908401516101c0529201516101e052151560f81b61022052815180830183526001808252610ea6828401908152600d80548084018255600082815294517fd7b6990105719101dabeb77144f2a3385c8033acd3af97e9423a695e81ad1eb560029283028181019290925593517fd7b6990105719101dabeb77144f2a3385c8033acd3af97e9423a695e81ad1eb691820155875180890189528281526107d081890190815284548088018655858952915191840280870192909255519082015587518089018952600381526103e881890190815284548088018655858952915191840280870192909255519082015587518089018952600a815260fa818901908152845480880186558589529151918402808701929092555190820155875180890190985260198852606496880196875282549485018355919094529451919092029182015590519101555062000337945050505050565b3390565b600280546001600160a01b0319166001600160a01b0392909216919091179055565b60805160601c60a05160601c60c05160601c60e05161010051610120516101405161016051610180516101a0516101c0516101e051610200516102205160f81c614855620004c3600039806113e7528061433d525080610d455280610d895280612fb75250806117e65280611a795250806117c252806135fb528061362b525080610c7152806118c852806121e952806126ff5280612b285280613a395280614274525080611a005280613abb52806142bd525080612549528061340252508061142f5280611ae25280611c595280612060525080610bce528061140b528061171252806133b5525080610b145280610bef528061173352806133935280614390525080610af05280610c1052806117545280613372528061436f52508061094b5280610eba528061272b5280612b54525080610b3852806125b6528061264552806129e05280612a6f5250806115c35280611b155280611ba65280611cf25280611db55280611de45280612587528061283b52806129b15280612c625280612fdb52506148556000f3fe608060405234801561001057600080fd5b50600436106103af5760003560e01c8063857b21ee116101f4578063c6c1decd1161011a578063eee39403116100ad578063f3d9dc0d1161007c578063f3d9dc0d14610914578063f5e96fc91461091c578063fd5e6dd114610924578063fd8fd47f14610941576103af565b8063eee3940314610896578063f0141d84146108b3578063f1b17a8b146108d1578063f2fde38b146108ee576103af565b8063de09ee20116100e9578063de09ee201461083e578063e425df8c1461087e578063e8153c9314610886578063eda2d4241461088e576103af565b8063c6c1decd14610809578063d025188b14610811578063d7efb6b714610819578063d83db49f14610821576103af565b8063a150194b11610192578063b1b1e1c011610161578063b1b1e1c0146107d4578063b88a802f146107f1578063bf852196146107f9578063c120105414610801576103af565b8063a150194b14610764578063a4e2d6341461076c578063a508bc7114610774578063aa7bcb57146107cc576103af565b80638e15f473116101ce5780638e15f4731461072f5780639234a39a1461073757806395c2ba471461073f5780639d9a62df14610747576103af565b8063857b21ee146106fc5780638bfbbcbe1461071f5780638da5cb5b14610727576103af565b806351eacbf0116102d957806373f31703116102775780637d1fcbfa116102465780637d1fcbfa146106545780637f2b6a0d14610675578063817b1cd21461067d578063850fa7cb14610685576103af565b806373f31703146105f5578063765e14d8146105fd578063785fa627146106295780637b0472f014610631576103af565b80635e2e2ffc116102b35780635e2e2ffc146105d55780636847d0c5146105dd5780636b036f45146105e5578063715018a6146105ed576103af565b806351eacbf0146105715780635b9f4f90146105795780635d2631e21461059f576103af565b80632e577d0711610351578063444a490211610320578063444a4902146104ff57806345e91319146105215780634bc4eeb2146105615780634e8bfdaa14610569576103af565b80632e577d071461044657806331769ef71461044e5780634026478e1461045657806343352d611461045e576103af565b80630d6680871161038d5780630d6680871461040f5780630f4ef8a6146104175780631898a1a71461041f5780632d42cf7d1461043c576103af565b8063074bc101146103b457806309082c29146103d85780630b97bc8614610407575b600080fd5b6103bc610949565b604080516001600160a01b039092168252519081900360200190f35b6103f5600480360360208110156103ee57600080fd5b503561096d565b60408051918252519081900360200190f35b6103f5610aee565b6103f5610b12565b6103bc610b36565b6103f56004803603602081101561043557600080fd5b5035610b5a565b610444610b73565b005b6103bc610ea6565b6103f5610eb6565b610444610f56565b610466610fb9565b604051808060200180602001838103835285818151815260200191508051906020019060200280838360005b838110156104aa578181015183820152602001610492565b50505050905001838103825284818151815260200191508051906020019060200280838360005b838110156104e95781810151838201526020016104d1565b5050505090500194505050505060405180910390f35b610444600480360361064081101561051657600080fd5b5061032081016110fe565b61054d6004803603604081101561053757600080fd5b506001600160a01b038135169060200135611253565b604080519115158252519081900360200190f35b61054d6113e5565b6103f5611409565b6103f561142d565b6103f56004803603602081101561058f57600080fd5b50356001600160a01b0316611451565b610444600480360360608110156105b557600080fd5b506001600160a01b03813581169160208101359160409091013516611568565b6104446116b7565b6103f56117c0565b6103f56117e4565b610444611808565b6103f56118c6565b6103f56004803603604081101561061357600080fd5b506001600160a01b0381351690602001356118ea565b6103f56119fe565b6104446004803603604081101561064757600080fd5b5080359060200135611a22565b61065c6120ed565b6040805192835260208301919091528051918290030190f35b61054d612108565b6103f5612118565b6106b16004803603604081101561069b57600080fd5b506001600160a01b03813516906020013561211e565b60408051998a5260208a0198909852888801969096526060880194909452608087019290925260a086015260c0850152151560e0840152151561010083015251908190036101200190f35b6104446004803603604081101561071257600080fd5b508035906020013561218c565b610444612335565b6103bc6123cc565b6103f56123db565b61065c612475565b6103f5612488565b61065c6004803603602081101561075d57600080fd5b503561248d565b6103f56124ab565b61054d6124b0565b61077c6124c0565b60408051602080825283518183015283519192839290830191858101910280838360005b838110156107b85781810151838201526020016107a0565b505050509050019250505060405180910390f35b6103f5612547565b610444600480360360208110156107ea57600080fd5b503561256b565b610444612995565b6103f5612dba565b6103f5612efa565b6103bc612f45565b6103f5612f54565b61054d612f5a565b6103f56004803603602081101561083757600080fd5b5035612f6a565b61085b6004803603602081101561085457600080fd5b5035612f7d565b604080516001600160a01b03909316835260208301919091528051918290030190f35b6103f5612fb5565b6103bc612fd9565b6103f5612ffd565b61065c600480360360208110156108ac57600080fd5b5035613014565b6108bb613028565b6040805160ff9092168252519081900360200190f35b61065c600480360360208110156108e757600080fd5b50356130ab565b6104446004803603602081101561090457600080fd5b50356001600160a01b03166130d9565b6103f56131ed565b6103bc6131f3565b61085b6004803603602081101561093a57600080fd5b5035613202565b6103f5613212565b7f000000000000000000000000000000000000000000000000000000000000000081565b60035460009081906001600160a01b031663d06ca61f8461098c6124c0565b6040518363ffffffff1660e01b81526004018083815260200180602001828103825283818151815260200191508051906020019060200280838360005b838110156109e15781810151838201526020016109c9565b50505050905001935050505060006040518083038186803b158015610a0557600080fd5b505afa158015610a19573d6000803e3d6000fd5b505050506040513d6000823e601f3d908101601f191682016040526020811015610a4257600080fd5b8101908080516040519392919084640100000000821115610a6257600080fd5b908301906020820185811115610a7757600080fd5b8251866020820283011164010000000082111715610a9457600080fd5b82525081516020918201928201910280838360005b83811015610ac1578181015183820152602001610aa9565b50505050905001604052505050905080600181518110610add57fe5b60200260200101519150505b919050565b7f000000000000000000000000000000000000000000000000000000000000000081565b7f000000000000000000000000000000000000000000000000000000000000000081565b7f000000000000000000000000000000000000000000000000000000000000000081565b6000610b6d610b6761321b565b836118ea565b92915050565b600c546001600160a01b0316610b8761321b565b6001600160a01b031614610bcc5760405162461bcd60e51b81526004018080602001828103825260218152602001806147326021913960400191505060405180910390fd5b7f00000000000000000000000000000000000000000000000000000000000000007f00000000000000000000000000000000000000000000000000000000000000007f00000000000000000000000000000000000000000000000000000000000000000101421015610c6f5760405162461bcd60e51b815260040180806020018281038252602c8152602001806146bf602c913960400191505060405180910390fd5b7f000000000000000000000000000000000000000000000000000000000000000015610cee57610c9d610eb6565b610cee576040805162461bcd60e51b815260206004820152601e60248201527f30333631204254432052657761726473206e6f7420617661696c61626c650000604482015290519081900360640190fd5b60075415610d4357600854610d43576040805162461bcd60e51b81526020600482015260166024820152750c0ccd8c88199a5c9cdd081cda1bdd5b19081cdbdc9d60521b604482015290519081900360640190fd5b7f000000000000000000000000000000000000000000000000000000000000000015610dae576000610d73612dba565b9050610d8381639502f90061321f565b610dac577f0000000000000000000000000000000000000000000000000000000000000000600b555b505b600854600090601910610dc357600854610dc6565b60195b905060005b81811015610e5757806001016006600060088481548110610de857fe5b600091825260208083206002909202909101546001600160a01b0316835282019290925260400190206008805484908110610e1f57fe5b90600052602060002090600202016001015481548110610e3b57fe5b6000918252602090912060066008909202010155600101610dcb565b50600c805460ff60a81b1960ff60a01b19909116600160a01b1716600160a81b1790556040517fe8ef7a17c92d025d9c1ead1c6b3ca3b44d3283d0ee954f615c5c476911f629a590600090a150565b6003546001600160a01b03165b90565b60007f00000000000000000000000000000000000000000000000000000000000000006001600160a01b03166370a08231306040518263ffffffff1660e01b815260040180826001600160a01b0316815260200191505060206040518083038186803b158015610f2557600080fd5b505afa158015610f39573d6000803e3d6000fd5b505050506040513d6020811015610f4f57600080fd5b5051905090565b600c546001600160a01b0316610f6a61321b565b6001600160a01b031614610faf5760405162461bcd60e51b81526004018080602001828103825260218152602001806147326021913960400191505060405180910390fd5b610fb761328d565b565b606080600060078054905067ffffffffffffffff81118015610fda57600080fd5b50604051908082528060200260200182016040528015611004578160200160208202803683370190505b5060075490915060009067ffffffffffffffff8111801561102457600080fd5b5060405190808252806020026020018201604052801561104e578160200160208202803683370190505b50905060005b6007548110156110f4576007818154811061106b57fe5b600091825260209091206002909102015483516001600160a01b039091169084908390811061109657fe5b60200260200101906001600160a01b031690816001600160a01b031681525050600781815481106110c357fe5b9060005260206000209060020201600101548282815181106110e157fe5b6020908102919091010152600101611054565b5090925090509091565b600c546001600160a01b031661111261321b565b6001600160a01b0316146111575760405162461bcd60e51b81526004018080602001828103825260218152602001806147326021913960400191505060405180910390fd5b60005b601981101561122557600083826019811061117157fe5b60200201356001600160a01b03166001600160a01b0316141561119357611225565b600860405180604001604052808584601981106111ac57fe5b60200201356001600160a01b03166001600160a01b031681526020018484601981106111d457fe5b60209081029190910135909152825460018082018555600094855293829020835160029092020180546001600160a01b0319166001600160a01b03909216919091178155910151908201550161115a565b506040517f5c243cc6e4f210bf2dd86b8eca0ca891d3f8ad2eb09fbf91735eb348bc199c7e90600090a15050565b6001600160a01b038216600090815260066020908152604080832080548251818502810185019093528083528493849084015b8282101561131857600084815260209081902060408051610120810182526008860290920180548352600180820154848601526002820154928401929092526003810154606084015260048101546080840152600581015460a0840152600681015460c08401526007015460ff808216151560e085015261010091829004161515908301529083529092019101611286565b505050509050600081511161135e5760405162461bcd60e51b815260040180806020018281038252602b815260200180614795602b913960400191505060405180910390fd5b805183106113b3576040805162461bcd60e51b815260206004820152601760248201527f30333831207468697320696e6465782065786365656473000000000000000000604482015290519081900360640190fd5b8083815181106113bf57fe5b60200260200101516101000151156113db576001915050610b6d565b5060009392505050565b7f000000000000000000000000000000000000000000000000000000000000000081565b7f000000000000000000000000000000000000000000000000000000000000000081565b7f000000000000000000000000000000000000000000000000000000000000000081565b6001600160a01b038116600090815260066020908152604080832080548251818502810185019093528083528493849084015b8282101561151657600084815260209081902060408051610120810182526008860290920180548352600180820154848601526002820154928401929092526003810154606084015260048101546080840152600581015460a0840152600681015460c08401526007015460ff808216151560e085015261010091829004161515908301529083529092019101611484565b505050509050805160001415611530576000915050610ae9565b6000805b825181101561156057600061154986836132cb565b90506115558382613463565b925050600101611534565b509392505050565b600c546001600160a01b031661157c61321b565b6001600160a01b0316146115c15760405162461bcd60e51b81526004018080602001828103825260218152602001806147326021913960400191505060405180910390fd5b7f00000000000000000000000000000000000000000000000000000000000000006001600160a01b0316836001600160a01b031614156116325760405162461bcd60e51b81526004018080602001828103825260218152602001806147116021913960400191505060405180910390fd5b6040805163a9059cbb60e01b81526001600160a01b038381166004830152602482018590529151859283169163a9059cbb9160448083019260209291908290030181600087803b15801561168557600080fd5b505af1158015611699573d6000803e3d6000fd5b505050506040513d60208110156116af57600080fd5b505050505050565b600c546001600160a01b03166116cb61321b565b6001600160a01b0316146117105760405162461bcd60e51b81526004018080602001828103825260218152602001806147326021913960400191505060405180910390fd5b7f00000000000000000000000000000000000000000000000000000000000000007f00000000000000000000000000000000000000000000000000000000000000007f000000000000000000000000000000000000000000000000000000000000000001014210156117b35760405162461bcd60e51b81526004018080602001828103825260368152602001806147ea6036913960400191505060405180910390fd5b6117bb6123db565b600a55565b7f000000000000000000000000000000000000000000000000000000000000000081565b7f000000000000000000000000000000000000000000000000000000000000000081565b61181061321b565b6001600160a01b03166118216123cc565b6001600160a01b03161461187c576040805162461bcd60e51b815260206004820181905260248201527f4f776e61626c653a2063616c6c6572206973206e6f7420746865206f776e6572604482015290519081900360640190fd5b600080546040516001600160a01b03909116907f8be0079c531659141344cd1fd0a4f28419497f9722a3daafe3b4186f6b6457e0908390a3600080546001600160a01b0319169055565b7f000000000000000000000000000000000000000000000000000000000000000081565b6001600160a01b038216600090815260066020908152604080832080548251818502810185019093528083528493849084015b828210156119af57600084815260209081902060408051610120810182526008860290920180548352600180820154848601526002820154928401929092526003810154606084015260048101546080840152600581015460a0840152600681015460c08401526007015460ff808216151560e08501526101009182900416151590830152908352909201910161191d565b5050505090508051600014156119c9576000915050610b6d565b805183106119db576000915050610b6d565b6000806119e886866132cb565b90506119f48282613463565b9695505050505050565b7f000000000000000000000000000000000000000000000000000000000000000081565b600c54600160a01b900460ff1615611a77576040805162461bcd60e51b81526020600482015260136024820152720c0ccc4c08141bdbdb081a5cc81b1bd8dad959606a1b604482015290519081900360640190fd5b7f0000000000000000000000000000000000000000000000000000000000000000821015611ad65760405162461bcd60e51b815260040180806020018281038252602a8152602001806147c0602a913960400191505060405180910390fd5b6000611b0e6064611b087f000000000000000000000000000000000000000000000000000000000000000060056134c4565b9061351d565b90506000807f00000000000000000000000000000000000000000000000000000000000000006001600160a01b031663771a3a1d6040518163ffffffff1660e01b815260040160206040518083038186803b158015611b6c57600080fd5b505afa158015611b80573d6000803e3d6000fd5b505050506040513d6020811015611b9657600080fd5b5051905060006001600160a01b037f00000000000000000000000000000000000000000000000000000000000000001663d1ecfc68611bd361321b565b6040518263ffffffff1660e01b815260040180826001600160a01b0316815260200191505060206040518083038186803b158015611c1057600080fd5b505afa158015611c24573d6000803e3d6000fd5b505050506040513d6020811015611c3a57600080fd5b5051611c4f57611c4a8683613584565b611c52565b60005b9050611c7e7f000000000000000000000000000000000000000000000000000000000000000085613463565b611c9d82611c978960095461346390919063ffffffff16565b90613596565b1115611cda5760405162461bcd60e51b81526004018080602001828103825260268152602001806146eb6026913960400191505060405180910390fd5b611ce486836135f3565b965092506001600160a01b037f0000000000000000000000000000000000000000000000000000000000000000166323b872dd611d1f61321b565b604080516001600160e01b031960e085901b1681526001600160a01b03909216600483015230602483015289870160448301525160648083019260209291908290030181600087803b158015611d7457600080fd5b505af1158015611d88573d6000803e3d6000fd5b505050506040513d6020811015611d9e57600080fd5b50611dab90508682613596565b95508215611ee2577f00000000000000000000000000000000000000000000000000000000000000006001600160a01b031663a9059cbb7f00000000000000000000000000000000000000000000000000000000000000006001600160a01b0316634a5db0a96040518163ffffffff1660e01b815260040160206040518083038186803b158015611e3b57600080fd5b505afa158015611e4f573d6000803e3d6000fd5b505050506040513d6020811015611e6557600080fd5b5051604080516001600160e01b031960e085901b1681526001600160a01b039092166004830152602482018790525160448083019260209291908290030181600087803b158015611eb557600080fd5b505af1158015611ec9573d6000803e3d6000fd5b505050506040513d6020811015611edf57600080fd5b50505b600954611eef9087613463565b60098190555060076040518060400160405280611f0a61321b565b6001600160a01b0316815260200160066000611f2461321b565b6001600160a01b0390811682526020808301939093526040909101600090812054909352845460018082018755958452828420855160029092020180546001600160a01b031916919092161781559201519190920155600690611f8561321b565b6001600160a01b03168152602080820192909252604090810160009081208251610120810184528a81524281860181815294820184815260608301918252608083018c815260001960a0850181815260c0860191825260e086018881526101008088018a8152895460018082018c559a8c529c909a2097516008909c029097019a8b559851968a01969096559151600289015591516003880155905160048701559151600586015590516006850155915160079093018054915160ff19929092169315159390931761ff0019169015159091021790556120857f000000000000000000000000000000000000000000000000000000000000000085613596565b600954106120955761209561328d565b61209d61321b565b6001600160a01b03167f5af417134f72a9d41143ace85b0a26dce6f550f894f2cbc1eeee8810603d91b68787604051808381526020018281526020019250505060405180910390a2505050505050565b6000806121006120fb61321b565b61368f565b915091509091565b600c54600160a81b900460ff1681565b60095481565b6006602052816000526040600020818154811061213a57600080fd5b6000918252602090912060089091020180546001820154600283015460038401546004850154600586015460068701546007909701549598509396509194909391929160ff8082169161010090041689565b600c546001600160a01b03166121a061321b565b6001600160a01b0316146121e55760405162461bcd60e51b81526004018080602001828103825260218152602001806147326021913960400191505060405180910390fd5b60007f0000000000000000000000000000000000000000000000000000000000000000116122445760405162461bcd60e51b81526004018080602001828103825260218152602001806147746021913960400191505060405180910390fd5b60008211612299576040805162461bcd60e51b815260206004820152601960248201527f3033343120416d6f756e742063616e2774206265207a65726f00000000000000604482015290519081900360640190fd5b428110156122e5576040805162461bcd60e51b81526020600482015260146024820152733033343220646561646c696e65206973206c6f7760601b604482015290519081900360640190fd5b60006122ef610ea6565b90506122fb81846136c6565b60006123068461096d565b905060006123206123198361012c613584565b8390613596565b905061232e3086838761378b565b5050505050565b600c546001600160a01b031661234961321b565b6001600160a01b03161461238e5760405162461bcd60e51b81526004018080602001828103825260218152602001806147326021913960400191505060405180910390fd5b600c805460ff60b01b1916600160b01b1790556040517f9331b2a38c658c57a39ea19b2709d928c28a12cc8fbb838d12b85148550f937d90600090a1565b6000546001600160a01b031690565b600080600160009054906101000a90046001600160a01b03166001600160a01b031663feaf968c6040518163ffffffff1660e01b815260040160a06040518083038186803b15801561242c57600080fd5b505afa158015612440573d6000803e3d6000fd5b505050506040513d60a081101561245657600080fd5b50602001519050600081121561246d57600061246f565b805b91505090565b60008061210061248361321b565b613924565b600581565b6000806124a161249b61321b565b84613b3f565b915091505b915091565b600881565b600c54600160a01b900460ff1681565b60408051600280825260608083018452926000929190602083019080368337505060045482519293506001600160a01b0316918391506000906124ff57fe5b6001600160a01b03928316602091820292909201015260055482519116908290600190811061252a57fe5b6001600160a01b0390921660209283029190910190910152905090565b7f000000000000000000000000000000000000000000000000000000000000000081565b60008061257961249b61321b565b909250905081156126da57817f00000000000000000000000000000000000000000000000000000000000000006001600160a01b03166370a082317f00000000000000000000000000000000000000000000000000000000000000006040518263ffffffff1660e01b815260040180826001600160a01b0316815260200191505060206040518083038186803b15801561261257600080fd5b505afa158015612626573d6000803e3d6000fd5b505050506040513d602081101561263c57600080fd5b5051106126da577f00000000000000000000000000000000000000000000000000000000000000006001600160a01b031663e4e103dc61267a61321b565b846040518363ffffffff1660e01b815260040180836001600160a01b0316815260200182815260200192505050600060405180830381600087803b1580156126c157600080fd5b505af11580156126d5573d6000803e3d6000fd5b505050505b6126eb6126e561321b565b84613b79565b600c54600160a81b900460ff1615612940577f00000000000000000000000000000000000000000000000000000000000000001561281e57801561280d577f00000000000000000000000000000000000000000000000000000000000000006001600160a01b031663a9059cbb61276061321b565b836040518363ffffffff1660e01b815260040180836001600160a01b0316815260200182815260200192505050602060405180830381600087803b1580156127a757600080fd5b505af11580156127bb573d6000803e3d6000fd5b505050506040513d60208110156127d157600080fd5b505161280d576040805162461bcd60e51b815260206004808301919091526024820152630303333360e41b604482015290519081900360640190fd5b61281e61281861321b565b84613c33565b600061283161282b61321b565b85613cba565b9050801561293e577f00000000000000000000000000000000000000000000000000000000000000006001600160a01b031663a9059cbb61287061321b565b836040518363ffffffff1660e01b815260040180836001600160a01b0316815260200182815260200192505050602060405180830381600087803b1580156128b757600080fd5b505af11580156128cb573d6000803e3d6000fd5b505050506040513d60208110156128e157600080fd5b506128f590506128ef61321b565b85613dff565b6128fd61321b565b6001600160a01b03167f85082129d87b2fe11527cb1b3b7a520aeb5aa6913f88a3d8757fe40d1db02fdd826040518082815260200191505060405180910390a25b505b61294861321b565b6001600160a01b03167ff279e6a1f5e320cca91135676d9cb6e44ca8a08c0b88342bcdb1144f6511b5688383604051808381526020018281526020019250505060405180910390a2505050565b6000806129a36120fb61321b565b90925090508115612b0457817f00000000000000000000000000000000000000000000000000000000000000006001600160a01b03166370a082317f00000000000000000000000000000000000000000000000000000000000000006040518263ffffffff1660e01b815260040180826001600160a01b0316815260200191505060206040518083038186803b158015612a3c57600080fd5b505afa158015612a50573d6000803e3d6000fd5b505050506040513d6020811015612a6657600080fd5b505110612b04577f00000000000000000000000000000000000000000000000000000000000000006001600160a01b031663e4e103dc612aa461321b565b846040518363ffffffff1660e01b815260040180836001600160a01b0316815260200182815260200192505050600060405180830381600087803b158015612aeb57600080fd5b505af1158015612aff573d6000803e3d6000fd5b505050505b612b14612b0f61321b565b613e6c565b600c54600160a81b900460ff1615612d66577f000000000000000000000000000000000000000000000000000000000000000015612c46578015612c36577f00000000000000000000000000000000000000000000000000000000000000006001600160a01b031663a9059cbb612b8961321b565b836040518363ffffffff1660e01b815260040180836001600160a01b0316815260200182815260200192505050602060405180830381600087803b158015612bd057600080fd5b505af1158015612be4573d6000803e3d6000fd5b505050506040513d6020811015612bfa57600080fd5b5051612c36576040805162461bcd60e51b815260206004808301919091526024820152630303332360e41b604482015290519081900360640190fd5b612c46612c4161321b565b613f0b565b6000612c58612c5361321b565b613f73565b90508015612d64577f00000000000000000000000000000000000000000000000000000000000000006001600160a01b031663a9059cbb612c9761321b565b836040518363ffffffff1660e01b815260040180836001600160a01b0316815260200182815260200192505050602060405180830381600087803b158015612cde57600080fd5b505af1158015612cf2573d6000803e3d6000fd5b505050506040513d6020811015612d0857600080fd5b50612d1b9050612d1661321b565b6140b1565b612d2361321b565b6001600160a01b03167f85082129d87b2fe11527cb1b3b7a520aeb5aa6913f88a3d8757fe40d1db02fdd826040518082815260200191505060405180910390a25b505b612d6e61321b565b6001600160a01b03167ff279e6a1f5e320cca91135676d9cb6e44ca8a08c0b88342bcdb1144f6511b5688383604051808381526020018281526020019250505060405180910390a25050565b600060095460001415612dcf57506000610eb3565b6000805b600754811015612eeb5760006006600060078481548110612df057fe5b600091825260208083206002909202909101546001600160a01b0316835282019290925260400190206007805484908110612e2757fe5b90600052602060002090600202016001015481548110612e4357fe5b600091825260209182902060408051610120810182526008909302909101805480845260018201549484019490945260028101549183019190915260038101546060830152600481015460808301819052600582015460a0840152600682015460c084015260079091015460ff808216151560e08501526101009182900416151590830152909250612ee091612ed991906134c4565b8490613463565b925050600101612dd3565b5060095461246f90829061351d565b600254604080516370a0823160e01b815230600482015290516000926001600160a01b0316916370a08231916024808301926020929190829003018186803b158015610f2557600080fd5b600c546001600160a01b031681565b600a5481565b600c54600160b01b900460ff1681565b6000610b6d612f7761321b565b83613cba565b60088181548110612f8d57600080fd5b6000918252602090912060029091020180546001909101546001600160a01b03909116915082565b7f000000000000000000000000000000000000000000000000000000000000000081565b7f000000000000000000000000000000000000000000000000000000000000000081565b600061300f61300a61321b565b611451565b905090565b6000806124a161302261321b565b84614120565b600080600160009054906101000a90046001600160a01b03166001600160a01b031663313ce5676040518163ffffffff1660e01b815260040160206040518083038186803b15801561307957600080fd5b505afa15801561308d573d6000803e3d6000fd5b505050506040513d60208110156130a357600080fd5b505191505090565b600d81815481106130bb57600080fd5b60009182526020909120600290910201805460019091015490915082565b6130e161321b565b6001600160a01b03166130f26123cc565b6001600160a01b03161461314d576040805162461bcd60e51b815260206004820181905260248201527f4f776e61626c653a2063616c6c6572206973206e6f7420746865206f776e6572604482015290519081900360640190fd5b6001600160a01b0381166131925760405162461bcd60e51b81526004018080602001828103825260268152602001806146996026913960400191505060405180910390fd5b600080546040516001600160a01b03808516939216917f8be0079c531659141344cd1fd0a4f28419497f9722a3daafe3b4186f6b6457e091a3600080546001600160a01b0319166001600160a01b0392909216919091179055565b600b5481565b6002546001600160a01b031690565b60078181548110612f8d57600080fd5b600061300f612c535b3390565b6000600a5483111561325d57600a546132388484613596565b1161324557506000610b6d565b600a5461325690611c978585613596565b9050610b6d565b600a5461326a8484613463565b1061327757506000610b6d565b6132566132848484613463565b600a5490613596565b600c805460ff60a01b1916600160a01b1790556040517f2e136745550967f28b779ce8c395ca060a2f844edfb5b06631fe677f66f9e30590600090a1565b6001600160a01b03821660009081526006602052604081208054829190849081106132f257fe5b6000918252602080832060408051610120810182526008909402909101805484526001810154928401929092526002820154908301526003810154606083015260048101546080830152600581015460a0830152600681015460c08301526007015460ff808216151560e0840152610100918290041615159082015291507f00000000000000000000000000000000000000000000000000000000000000007f0000000000000000000000000000000000000000000000000000000000000000017f000000000000000000000000000000000000000000000000000000000000000001904282106133e357426133e5565b815b905060006133f68460200151614339565b9050600061343e6134277f000000000000000000000000000000000000000000000000000000000000000084613463565b6020870151613437908690613596565b8751614440565b905061345785604001518261359690919063ffffffff16565b98975050505050505050565b6000828201838110156134bd576040805162461bcd60e51b815260206004820152601b60248201527f536166654d6174683a206164646974696f6e206f766572666c6f770000000000604482015290519081900360640190fd5b9392505050565b6000826134d357506000610b6d565b828202828482816134e057fe5b04146134bd5760405162461bcd60e51b81526004018080602001828103825260218152602001806147536021913960400191505060405180910390fd5b6000808211613573576040805162461bcd60e51b815260206004820152601a60248201527f536166654d6174683a206469766973696f6e206279207a65726f000000000000604482015290519081900360640190fd5b81838161357c57fe5b049392505050565b60006134bd612710611b0885856134c4565b6000828211156135ed576040805162461bcd60e51b815260206004820152601e60248201527f536166654d6174683a207375627472616374696f6e206f766572666c6f770000604482015290519081900360640190fd5b50900390565b6000806000837f000000000000000000000000000000000000000000000000000000000000000011613626576000613650565b6136507f000000000000000000000000000000000000000000000000000000000000000085613596565b905080613664576000859250925050613688565b61366e8582613584565b61368261367b8784613584565b8790613596565b92509250505b9250929050565b60008060008060006136a086611451565b90506136ab86613924565b90935091506136ba8184613463565b94509092505050915091565b6002546040805163095ea7b360e01b81526001600160a01b038581166004830152602482018590529151919092169163095ea7b39160448083019260209291908290030181600087803b15801561371c57600080fd5b505af1158015613730573d6000803e3d6000fd5b505050506040513d602081101561374657600080fd5b50506040805182815290516001600160a01b038416917fd77df63d9076d067d9fd7af16c3d67db48b84064c3314f5900ae919922d364a1919081900360200190a25050565b6001600160a01b03841661379e57600080fd5b6003546001600160a01b03166338ed173984846137b96124c0565b88866040518663ffffffff1660e01b81526004018086815260200185815260200180602001846001600160a01b03168152602001838152602001828103825285818151815260200191508051906020019060200280838360005b8381101561382b578181015183820152602001613813565b505050509050019650505050505050600060405180830381600087803b15801561385457600080fd5b505af1158015613868573d6000803e3d6000fd5b505050506040513d6000823e601f3d908101601f19168201604052602081101561389157600080fd5b81019080805160405193929190846401000000008211156138b157600080fd5b9083019060208201858111156138c657600080fd5b82518660208202830111640100000000821117156138e357600080fd5b82525081516020918201928201910280838360005b838110156139105781810151838201526020016138f8565b505050509050016040525050505050505050565b600c546000908190600160a81b900460ff16613945575060009050806124a6565b6001600160a01b038316600090815260066020908152604080832080548251818502810185019093528083529192909190849084015b82821015613a0d57600084815260209081902060408051610120810182526008860290920180548352600180820154848601526002820154928401929092526003810154606084015260048101546080840152600581015460a0840152600681015460c08401526007015460ff808216151560e08501526101009182900416151590830152908352909201910161397b565b505050509050805160001415613a2a5760008092509250506124a6565b600a54600090613a6290611b087f00000000000000000000000000000000000000000000000000000000000000006305f5e1006134c4565b905060008060005b8451811015613b0257848181518110613a7f57fe5b602002602001015160e00151613afa576000613ab1868381518110613aa057fe5b602002602001015160c00151614549565b9050613ae7613ae07f000000000000000000000000000000000000000000000000000000000000000083613584565b8590613463565b9350613af6612ed98683613584565b9250505b600101613a6a565b50600b5415613b3357600b54613b19908390614670565b9150613b30600b548261467090919063ffffffff16565b90505b90945092505050915091565b6000806000806000613b5187876118ea565b9050613b5d8787614120565b9093509150613b6c8184613463565b9791965090945050505050565b6001600160a01b03821660009081526006602052604090208054613b9d5750613c2f565b80548210613bab5750613c2f565b6000613bb784846132cb565b905042828481548110613bc657fe5b906000526020600020906008020160030181905550613c0b81838581548110613beb57fe5b90600052602060002090600802016002015461346390919063ffffffff16565b828481548110613c1757fe5b90600052602060002090600802016002018190555050505b5050565b6001600160a01b03821660009081526006602052604090208054613c575750613c2f565b808281548110613c6357fe5b600091825260209091206007600890920201015460ff1615613c855750613c2f565b6001818381548110613c9357fe5b60009182526020909120600890910201600701805460ff1916911515919091179055505050565b6001600160a01b038216600090815260066020908152604080832080548251818502810185019093528083528493849084015b82821015613d7f57600084815260209081902060408051610120810182526008860290920180548352600180820154848601526002820154928401929092526003810154606084015260048101546080840152600581015460a0840152600681015460c08401526007015460ff808216151560e085015261010091829004161515908301529083529092019101613ced565b505050509050805160001415613d99576000915050610b6d565b80518310613dab576000915050610b6d565b6000818481518110613db957fe5b60200260200101516101000151613df757613df4828581518110613dd957fe5b6020026020010151600001518261346390919063ffffffff16565b90505b949350505050565b6001600160a01b03821660009081526006602052604090208054613e235750613c2f565b80548210613e315750613c2f565b6001818381548110613e3f57fe5b906000526020600020906008020160070160016101000a81548160ff021916908315150217905550505050565b6001600160a01b03811660009081526006602052604090208054613e905750613f08565b60005b8154811015613f05576000613ea884836132cb565b905042838381548110613eb757fe5b906000526020600020906008020160030181905550613edc81848481548110613beb57fe5b838381548110613ee857fe5b600091825260209091206002600890920201015550600101613e93565b50505b50565b6001600160a01b03811660009081526006602052604090208054613f2f5750613f08565b60005b8154811015613f05576001828281548110613f4957fe5b60009182526020909120600890910201600701805460ff1916911515919091179055600101613f32565b6001600160a01b038116600090815260066020908152604080832080548251818502810185019093528083528493849084015b8282101561403857600084815260209081902060408051610120810182526008860290920180548352600180820154848601526002820154928401929092526003810154606084015260048101546080840152600581015460a0840152600681015460c08401526007015460ff808216151560e085015261010091829004161515908301529083529092019101613fa6565b505050509050805160001415614052576000915050610ae9565b6000805b82518110156115605782818151811061406b57fe5b602002602001015161010001516140a9576140a683828151811061408b57fe5b6020026020010151600001518361346390919063ffffffff16565b91505b600101614056565b6001600160a01b038116600090815260066020526040902080546140d55750613f08565b60005b8154811015613f055760018282815481106140ef57fe5b6000918252602090912060076008909202010180549115156101000261ff00199092169190911790556001016140d8565b600c546000908190600160a81b900460ff1661414157506000905080613688565b6001600160a01b038416600090815260066020908152604080832080548251818502810185019093528083529192909190849084015b8282101561420957600084815260209081902060408051610120810182526008860290920180548352600180820154848601526002820154928401929092526003810154606084015260048101546080840152600581015460a0840152600681015460c08401526007015460ff808216151560e085015261010091829004161515908301529083529092019101614177565b505050509050805160001415614226576000809250925050613688565b8051841061423b576000809250925050613688565b80848151811061424757fe5b602002602001015160e0015115614265576000809250925050613688565b600a5460009061429d90611b087f00000000000000000000000000000000000000000000000000000000000000006305f5e1006134c4565b905060008060006142b3858981518110613aa057fe5b90506142e2612ed97f000000000000000000000000000000000000000000000000000000000000000083613584565b92506142f86142f18583613584565b8390613463565b600b549092501561432b57600b54614311908490614670565b9250614328600b548361467090919063ffffffff16565b91505b509097909650945050505050565b60007f000000000000000000000000000000000000000000000000000000000000000061436857506000610ae9565b60006143b47f00000000000000000000000000000000000000000000000000000000000000007f0000000000000000000000000000000000000000000000000000000000000000613463565b905060006143c28285613596565b90506202a3008110156143da57600092505050610ae9565b6203f4808110156143f057606492505050610ae9565b620546008110156144065760c892505050610ae9565b6206978081101561441d5761012c92505050610ae9565b6207e9008110156144345761019092505050610ae9565b6101f492505050610ae9565b60006301e133808161445d66038882915c40006305f5e1006134c4565b9050600061447961138861447385818a8c6134c4565b906134c4565b905060006144906113886144738a6002880a6134c4565b905060006144a96006611b086002808c0a908d0a6134c4565b905060006144cc6002611b088861447360028f0a8e6134c490919063ffffffff16565b905060006144e56003611b086002808f0a908b0a6134c4565b905060006144ff826144f986818b8b613463565b90613463565b905061450f83611c978388613596565b905061451f8b614473838f6134c4565b905061453964e8d4a51000611b0860038b0a81858f6134c4565b9c9b505050505050505050505050565b6000600d60008154811061455957fe5b906000526020600020906002020160000154821161459857600d60008154811061457f57fe5b9060005260206000209060020201600101549050610ae9565b600d6001815481106145a657fe5b90600052602060002090600202016000015482116145cc57600d60018154811061457f57fe5b600d6002815481106145da57fe5b906000526020600020906002020160000154821161460057600d60028154811061457f57fe5b600d60038154811061460e57fe5b906000526020600020906002020160000154821161463457600d60038154811061457f57fe5b600d60048154811061464257fe5b906000526020600020906002020160000154821161466857600d60048154811061457f57fe5b506000610ae9565b60008261467f57506000610b6d565b8161468b575081610b6d565b6134bd612ed9848461358456fe4f776e61626c653a206e6577206f776e657220697320746865207a65726f2061646472657373303336302043616e277420656e6420706f6f6c206265666f726520746865206d617475726974792074696d65303331322043616e2774207374616b652061626f76652073697a6520616c6c6f636174696f6e3033373020746f74656d732063616e206e6f74206265207472616e736665726564303330302063616c6c6572206973206e6f74206120706f6f6c2063726561746f72536166654d6174683a206d756c7469706c69636174696f6e206f766572666c6f77303334302054686520706f6f6c206973206e6f74204254432072657761726465723033383020746869732061646472657373206469646e2774207374616b6520696e207468697320706f6f6c3033313120416d6f756e742063616e2774206265206c657373207468616e20746865206d696e696d756d303335302043616e277420736574206d61747572696e67207072696365206265666f726520746865206d617475726974792074696d65a264697066735822122083632cee0675c6efd348f88d6ea6afeee38748b5e2f4ae296b43ab22aba336f564736f6c63430007060033303432302054617820636f6e6e6f74206265206f76657220313030252028313030303020425029506f6f6c43726561746f72526f6c653a2063616c6c657220646f6573206e6f7420686176652074686520506f6f6c43726561746f7220726f6c65526f6c65733a206163636f756e7420646f6573206e6f74206861766520726f6c65526f6c65733a206163636f756e7420697320746865207a65726f2061646472657373a2646970667358221220bbf6da3b31ff121d5aa7654e53d67291043974f7393750e41bfd1692b299277764736f6c63430007060033526f6c65733a206163636f756e7420697320746865207a65726f2061646472657373",
  "devdoc": {
    "kind": "dev",
    "methods": {},
    "version": 1
  },
  "userdoc": {
    "kind": "user",
    "methods": {},
    "version": 1
  },
  "storageLayout": {
    "storage": [
      {
        "astId": 2067,
        "contract": "contracts/Staking/StakingPoolFactory.sol:StakingPoolFactory",
        "label": "_poolCreators",
        "offset": 0,
        "slot": "0",
        "type": "t_struct(Role)2284_storage"
      },
      {
        "astId": 5253,
        "contract": "contracts/Staking/StakingPoolFactory.sol:StakingPoolFactory",
        "label": "swapRouter",
        "offset": 0,
        "slot": "1",
        "type": "t_address"
      },
      {
        "astId": 5255,
        "contract": "contracts/Staking/StakingPoolFactory.sol:StakingPoolFactory",
        "label": "oracleContract",
        "offset": 0,
        "slot": "2",
        "type": "t_address"
      },
      {
        "astId": 5261,
        "contract": "contracts/Staking/StakingPoolFactory.sol:StakingPoolFactory",
        "label": "stakingPoolTaxRate",
        "offset": 0,
        "slot": "3",
        "type": "t_uint256"
      },
      {
        "astId": 5263,
        "contract": "contracts/Staking/StakingPoolFactory.sol:StakingPoolFactory",
        "label": "minimumStakeAmount",
        "offset": 0,
        "slot": "4",
        "type": "t_uint256"
      }
    ],
    "types": {
      "t_address": {
        "encoding": "inplace",
        "label": "address",
        "numberOfBytes": "20"
      },
      "t_bool": {
        "encoding": "inplace",
        "label": "bool",
        "numberOfBytes": "1"
      },
      "t_mapping(t_address,t_bool)": {
        "encoding": "mapping",
        "key": "t_address",
        "label": "mapping(address => bool)",
        "numberOfBytes": "32",
        "value": "t_bool"
      },
      "t_struct(Role)2284_storage": {
        "encoding": "inplace",
        "label": "struct Roles.Role",
        "members": [
          {
            "astId": 2283,
            "contract": "contracts/Staking/StakingPoolFactory.sol:StakingPoolFactory",
            "label": "bearer",
            "offset": 0,
            "slot": "0",
            "type": "t_mapping(t_address,t_bool)"
          }
        ],
        "numberOfBytes": "32"
      },
      "t_uint256": {
        "encoding": "inplace",
        "label": "uint256",
        "numberOfBytes": "32"
      }
    }
  }
}