{
  "contractName": "ClaimRewardLib",
  "sourceName": "contracts/libraries/ClaimRewardLib.sol",
  "abi": [
    {
      "inputs": [],
      "name": "oracleDecimal",
      "outputs": [
        {
          "internalType": "uint256",
          "name": "",
          "type": "uint256"
        }
      ],
      "stateMutability": "view",
      "type": "function"
    }
  ],
  "bytecode": "0x610bae61003a600b82828239805160001a60731461002d57634e487b7160e01b600052600060045260246000fd5b30600052607381538281f3fe730000000000000000000000000000000000000000301460806040526004361061006c5760003560e01c806332a1b321146100715780634142c6521461009b57806347dc9eee146100bd578063a150194b146100dd578063d4675770146100f2578063f66d9a4d14610105575b600080fd5b61008461007f366004610970565b610125565b6040516100929291906109a4565b60405180910390f35b8180156100a757600080fd5b506100bb6100b636600461094f565b6102a1565b005b8180156100c957600080fd5b506100bb6100d8366004610937565b61038e565b6100e56103fe565b604051610092919061099b565b6100e561010036600461094f565b610403565b81801561011157600080fd5b506100bb610120366004610937565b61045a565b60088201546000908190610100900460ff1661014657506000905080610299565b845461015757506000905080610299565b6000610183856003015461017d6008600a6101729190610a30565b6004890154906104ce565b906104e1565b905060008060005b885481101561025b578881815481106101b457634e487b7160e01b600052603260045260246000fd5b600091825260209091206007600890920201015460ff1661024957600061020c8a83815481106101f457634e487b7160e01b600052603260045260246000fd5b906000526020600020906008020160060154896104ed565b905061022f610228828b6005015461058890919063ffffffff16565b859061059a565b935061024561023e8683610588565b849061059a565b9250505b8061025381610b47565b91505061018b565b506007870154156102925760078701546102769083906105a6565b915061028f8760070154826105a690919063ffffffff16565b90505b9093509150505b935093915050565b81546102ac5761038a565b60005b82548110156103885760006102c58483856105ce565b9050428483815481106102e857634e487b7160e01b600052603260045260246000fd5b9060005260206000209060080201600301819055506103418185848154811061032157634e487b7160e01b600052603260045260246000fd5b90600052602060002090600802016002015461059a90919063ffffffff16565b84838154811061036157634e487b7160e01b600052603260045260246000fd5b6000918252602090912060026008909202010155508061038081610b47565b9150506102af565b505b5050565b8054610399576103fb565b60005b815481101561038a5760018282815481106103c757634e487b7160e01b600052603260045260246000fd5b60009182526020909120600890910201600701805460ff1916911515919091179055806103f381610b47565b91505061039c565b50565b600881565b815460009061041457506000610454565b6000805b845481101561045057600061042e8683876105ce565b905061043a838261059a565b925050808061044890610b47565b915050610418565b5090505b92915050565b8054610465576103fb565b60005b815481101561038a57600182828154811061049357634e487b7160e01b600052603260045260246000fd5b906000526020600020906008020160070160016101000a81548160ff02191690831515021790555080806104c690610b47565b915050610468565b60006104da8284610b11565b9392505050565b60006104da82846109ca565b6000805b825481101561057e5782818154811061051a57634e487b7160e01b600052603260045260246000fd5b906000526020600020906002020160000154841161056c5782818154811061055257634e487b7160e01b600052603260045260246000fd5b906000526020600020906002020160010154915050610454565b8061057681610b47565b9150506104f1565b5060009392505050565b60006104da61271061017d85856104ce565b60006104da82846109b2565b6000826105b557506000610454565b816105c1575081610454565b6104da61023e8484610588565b6000808260020154836001015484600001546105ea91906109b2565b6105f491906109b2565b905060008142116106055742610607565b815b600885015490915060009060ff16156106585761065587878154811061063d57634e487b7160e01b600052603260045260246000fd5b90600052602060002090600802016001015486610741565b90505b60006106ef61067483886006015461059a90919063ffffffff16565b6106b88a8a8154811061069757634e487b7160e01b600052603260045260246000fd5b906000526020600020906008020160010154866107f890919063ffffffff16565b8a8a815481106106d857634e487b7160e01b600052603260045260246000fd5b906000526020600020906008020160000154610804565b905061073588888154811061071457634e487b7160e01b600052603260045260246000fd5b906000526020600020906008020160020154826107f890919063ffffffff16565b98975050505050505050565b600881015460009060ff1661075857506000610454565b6001820154825460009161076c919061059a565b9050600061077a82866107f8565b90506202a30081101561079257600092505050610454565b6203f4808110156107a857606492505050610454565b620546008110156107be5760c892505050610454565b620697808110156107d55761012c92505050610454565b6207e9008110156107ec5761019092505050610454565b6101f492505050610454565b60006104da8284610b30565b60006301e13380816108256305f5e10061081f600285610a3f565b906104ce565b9050600061083b61138861081f85818a8c6104ce565b9050600061085a61138861081f610853600288610a3f565b8b906104ce565b9050600061087c600661017d61087160028d610a3f565b61081f60028d610a3f565b905060006108a0600261017d8861081f60028f6108999190610a3f565b8e906104ce565b905060006108c4600361017d6108b760028b610a3f565b60028f61081f9190610a3f565b905060006108de826108d886818b8b61059a565b9061059a565b90506108f4836108ee83886107f8565b906107f8565b90506109048b61081f838f6104ce565b905061092764e8d4a5100061017d61091d60038c610a3f565b61017d858f6104ce565b9c9b505050505050505050505050565b600060208284031215610948578081fd5b5035919050565b60008060408385031215610961578081fd5b50508035926020909101359150565b600080600060608486031215610984578081fd5b505081359360208301359350604090920135919050565b90815260200190565b918252602082015260400190565b600082198211156109c5576109c5610b62565b500190565b6000826109e557634e487b7160e01b81526012600452602481fd5b500490565b80825b60018086116109fc5750610a27565b818704821115610a0e57610a0e610b62565b80861615610a1b57918102915b9490941c9380026109ed565b94509492505050565b60006104da6000198484610a4d565b60006104da60001960ff8516845b600082610a5c575060016104da565b81610a69575060006104da565b8160018114610a7f5760028114610a8957610ab6565b60019150506104da565b60ff841115610a9a57610a9a610b62565b6001841b915084821115610ab057610ab0610b62565b506104da565b5060208310610133831016604e8410600b8410161715610ae9575081810a83811115610ae457610ae4610b62565b6104da565b610af684848460016109ea565b808604821115610b0857610b08610b62565b02949350505050565b6000816000190483118215151615610b2b57610b2b610b62565b500290565b600082821015610b4257610b42610b62565b500390565b6000600019821415610b5b57610b5b610b62565b5060010190565b634e487b7160e01b600052601160045260246000fdfea264697066735822122076057db1353763f86020068c421450b886266d2ff8505181b39e7511fc6e323164736f6c63430008000033",
  "linkReferences": {},
  "deployedLinkReferences": {},
  "devdoc": {
    "kind": "dev",
    "methods": {},
    "version": 1
  },
  "evm": {
    "bytecode": {
      "linkReferences": {},
      "opcodes": "PUSH2 0xBAE PUSH2 0x3A PUSH1 0xB DUP3 DUP3 DUP3 CODECOPY DUP1 MLOAD PUSH1 0x0 BYTE PUSH1 0x73 EQ PUSH2 0x2D JUMPI PUSH4 0x4E487B71 PUSH1 0xE0 SHL PUSH1 0x0 MSTORE PUSH1 0x0 PUSH1 0x4 MSTORE PUSH1 0x24 PUSH1 0x0 REVERT JUMPDEST ADDRESS PUSH1 0x0 MSTORE PUSH1 0x73 DUP2 MSTORE8 DUP3 DUP2 RETURN INVALID PUSH20 0x0 ADDRESS EQ PUSH1 0x80 PUSH1 0x40 MSTORE PUSH1 0x4 CALLDATASIZE LT PUSH2 0x6C JUMPI PUSH1 0x0 CALLDATALOAD PUSH1 0xE0 SHR DUP1 PUSH4 0x32A1B321 EQ PUSH2 0x71 JUMPI DUP1 PUSH4 0x4142C652 EQ PUSH2 0x9B JUMPI DUP1 PUSH4 0x47DC9EEE EQ PUSH2 0xBD JUMPI DUP1 PUSH4 0xA150194B EQ PUSH2 0xDD JUMPI DUP1 PUSH4 0xD4675770 EQ PUSH2 0xF2 JUMPI DUP1 PUSH4 0xF66D9A4D EQ PUSH2 0x105 JUMPI JUMPDEST PUSH1 0x0 DUP1 REVERT JUMPDEST PUSH2 0x84 PUSH2 0x7F CALLDATASIZE PUSH1 0x4 PUSH2 0x970 JUMP JUMPDEST PUSH2 0x125 JUMP JUMPDEST PUSH1 0x40 MLOAD PUSH2 0x92 SWAP3 SWAP2 SWAP1 PUSH2 0x9A4 JUMP JUMPDEST PUSH1 0x40 MLOAD DUP1 SWAP2 SUB SWAP1 RETURN JUMPDEST DUP2 DUP1 ISZERO PUSH2 0xA7 JUMPI PUSH1 0x0 DUP1 REVERT JUMPDEST POP PUSH2 0xBB PUSH2 0xB6 CALLDATASIZE PUSH1 0x4 PUSH2 0x94F JUMP JUMPDEST PUSH2 0x2A1 JUMP JUMPDEST STOP JUMPDEST DUP2 DUP1 ISZERO PUSH2 0xC9 JUMPI PUSH1 0x0 DUP1 REVERT JUMPDEST POP PUSH2 0xBB PUSH2 0xD8 CALLDATASIZE PUSH1 0x4 PUSH2 0x937 JUMP JUMPDEST PUSH2 0x38E JUMP JUMPDEST PUSH2 0xE5 PUSH2 0x3FE JUMP JUMPDEST PUSH1 0x40 MLOAD PUSH2 0x92 SWAP2 SWAP1 PUSH2 0x99B JUMP JUMPDEST PUSH2 0xE5 PUSH2 0x100 CALLDATASIZE PUSH1 0x4 PUSH2 0x94F JUMP JUMPDEST PUSH2 0x403 JUMP JUMPDEST DUP2 DUP1 ISZERO PUSH2 0x111 JUMPI PUSH1 0x0 DUP1 REVERT JUMPDEST POP PUSH2 0xBB PUSH2 0x120 CALLDATASIZE PUSH1 0x4 PUSH2 0x937 JUMP JUMPDEST PUSH2 0x45A JUMP JUMPDEST PUSH1 0x8 DUP3 ADD SLOAD PUSH1 0x0 SWAP1 DUP2 SWAP1 PUSH2 0x100 SWAP1 DIV PUSH1 0xFF AND PUSH2 0x146 JUMPI POP PUSH1 0x0 SWAP1 POP DUP1 PUSH2 0x299 JUMP JUMPDEST DUP5 SLOAD PUSH2 0x157 JUMPI POP PUSH1 0x0 SWAP1 POP DUP1 PUSH2 0x299 JUMP JUMPDEST PUSH1 0x0 PUSH2 0x183 DUP6 PUSH1 0x3 ADD SLOAD PUSH2 0x17D PUSH1 0x8 PUSH1 0xA PUSH2 0x172 SWAP2 SWAP1 PUSH2 0xA30 JUMP JUMPDEST PUSH1 0x4 DUP10 ADD SLOAD SWAP1 PUSH2 0x4CE JUMP JUMPDEST SWAP1 PUSH2 0x4E1 JUMP JUMPDEST SWAP1 POP PUSH1 0x0 DUP1 PUSH1 0x0 JUMPDEST DUP9 SLOAD DUP2 LT ISZERO PUSH2 0x25B JUMPI DUP9 DUP2 DUP2 SLOAD DUP2 LT PUSH2 0x1B4 JUMPI PUSH4 0x4E487B71 PUSH1 0xE0 SHL PUSH1 0x0 MSTORE PUSH1 0x32 PUSH1 0x4 MSTORE PUSH1 0x24 PUSH1 0x0 REVERT JUMPDEST PUSH1 0x0 SWAP2 DUP3 MSTORE PUSH1 0x20 SWAP1 SWAP2 KECCAK256 PUSH1 0x7 PUSH1 0x8 SWAP1 SWAP3 MUL ADD ADD SLOAD PUSH1 0xFF AND PUSH2 0x249 JUMPI PUSH1 0x0 PUSH2 0x20C DUP11 DUP4 DUP2 SLOAD DUP2 LT PUSH2 0x1F4 JUMPI PUSH4 0x4E487B71 PUSH1 0xE0 SHL PUSH1 0x0 MSTORE PUSH1 0x32 PUSH1 0x4 MSTORE PUSH1 0x24 PUSH1 0x0 REVERT JUMPDEST SWAP1 PUSH1 0x0 MSTORE PUSH1 0x20 PUSH1 0x0 KECCAK256 SWAP1 PUSH1 0x8 MUL ADD PUSH1 0x6 ADD SLOAD DUP10 PUSH2 0x4ED JUMP JUMPDEST SWAP1 POP PUSH2 0x22F PUSH2 0x228 DUP3 DUP12 PUSH1 0x5 ADD SLOAD PUSH2 0x588 SWAP1 SWAP2 SWAP1 PUSH4 0xFFFFFFFF AND JUMP JUMPDEST DUP6 SWAP1 PUSH2 0x59A JUMP JUMPDEST SWAP4 POP PUSH2 0x245 PUSH2 0x23E DUP7 DUP4 PUSH2 0x588 JUMP JUMPDEST DUP5 SWAP1 PUSH2 0x59A JUMP JUMPDEST SWAP3 POP POP JUMPDEST DUP1 PUSH2 0x253 DUP2 PUSH2 0xB47 JUMP JUMPDEST SWAP2 POP POP PUSH2 0x18B JUMP JUMPDEST POP PUSH1 0x7 DUP8 ADD SLOAD ISZERO PUSH2 0x292 JUMPI PUSH1 0x7 DUP8 ADD SLOAD PUSH2 0x276 SWAP1 DUP4 SWAP1 PUSH2 0x5A6 JUMP JUMPDEST SWAP2 POP PUSH2 0x28F DUP8 PUSH1 0x7 ADD SLOAD DUP3 PUSH2 0x5A6 SWAP1 SWAP2 SWAP1 PUSH4 0xFFFFFFFF AND JUMP JUMPDEST SWAP1 POP JUMPDEST SWAP1 SWAP4 POP SWAP2 POP POP JUMPDEST SWAP4 POP SWAP4 SWAP2 POP POP JUMP JUMPDEST DUP2 SLOAD PUSH2 0x2AC JUMPI PUSH2 0x38A JUMP JUMPDEST PUSH1 0x0 JUMPDEST DUP3 SLOAD DUP2 LT ISZERO PUSH2 0x388 JUMPI PUSH1 0x0 PUSH2 0x2C5 DUP5 DUP4 DUP6 PUSH2 0x5CE JUMP JUMPDEST SWAP1 POP TIMESTAMP DUP5 DUP4 DUP2 SLOAD DUP2 LT PUSH2 0x2E8 JUMPI PUSH4 0x4E487B71 PUSH1 0xE0 SHL PUSH1 0x0 MSTORE PUSH1 0x32 PUSH1 0x4 MSTORE PUSH1 0x24 PUSH1 0x0 REVERT JUMPDEST SWAP1 PUSH1 0x0 MSTORE PUSH1 0x20 PUSH1 0x0 KECCAK256 SWAP1 PUSH1 0x8 MUL ADD PUSH1 0x3 ADD DUP2 SWAP1 SSTORE POP PUSH2 0x341 DUP2 DUP6 DUP5 DUP2 SLOAD DUP2 LT PUSH2 0x321 JUMPI PUSH4 0x4E487B71 PUSH1 0xE0 SHL PUSH1 0x0 MSTORE PUSH1 0x32 PUSH1 0x4 MSTORE PUSH1 0x24 PUSH1 0x0 REVERT JUMPDEST SWAP1 PUSH1 0x0 MSTORE PUSH1 0x20 PUSH1 0x0 KECCAK256 SWAP1 PUSH1 0x8 MUL ADD PUSH1 0x2 ADD SLOAD PUSH2 0x59A SWAP1 SWAP2 SWAP1 PUSH4 0xFFFFFFFF AND JUMP JUMPDEST DUP5 DUP4 DUP2 SLOAD DUP2 LT PUSH2 0x361 JUMPI PUSH4 0x4E487B71 PUSH1 0xE0 SHL PUSH1 0x0 MSTORE PUSH1 0x32 PUSH1 0x4 MSTORE PUSH1 0x24 PUSH1 0x0 REVERT JUMPDEST PUSH1 0x0 SWAP2 DUP3 MSTORE PUSH1 0x20 SWAP1 SWAP2 KECCAK256 PUSH1 0x2 PUSH1 0x8 SWAP1 SWAP3 MUL ADD ADD SSTORE POP DUP1 PUSH2 0x380 DUP2 PUSH2 0xB47 JUMP JUMPDEST SWAP2 POP POP PUSH2 0x2AF JUMP JUMPDEST POP JUMPDEST POP POP JUMP JUMPDEST DUP1 SLOAD PUSH2 0x399 JUMPI PUSH2 0x3FB JUMP JUMPDEST PUSH1 0x0 JUMPDEST DUP2 SLOAD DUP2 LT ISZERO PUSH2 0x38A JUMPI PUSH1 0x1 DUP3 DUP3 DUP2 SLOAD DUP2 LT PUSH2 0x3C7 JUMPI PUSH4 0x4E487B71 PUSH1 0xE0 SHL PUSH1 0x0 MSTORE PUSH1 0x32 PUSH1 0x4 MSTORE PUSH1 0x24 PUSH1 0x0 REVERT JUMPDEST PUSH1 0x0 SWAP2 DUP3 MSTORE PUSH1 0x20 SWAP1 SWAP2 KECCAK256 PUSH1 0x8 SWAP1 SWAP2 MUL ADD PUSH1 0x7 ADD DUP1 SLOAD PUSH1 0xFF NOT AND SWAP2 ISZERO ISZERO SWAP2 SWAP1 SWAP2 OR SWAP1 SSTORE DUP1 PUSH2 0x3F3 DUP2 PUSH2 0xB47 JUMP JUMPDEST SWAP2 POP POP PUSH2 0x39C JUMP JUMPDEST POP JUMP JUMPDEST PUSH1 0x8 DUP2 JUMP JUMPDEST DUP2 SLOAD PUSH1 0x0 SWAP1 PUSH2 0x414 JUMPI POP PUSH1 0x0 PUSH2 0x454 JUMP JUMPDEST PUSH1 0x0 DUP1 JUMPDEST DUP5 SLOAD DUP2 LT ISZERO PUSH2 0x450 JUMPI PUSH1 0x0 PUSH2 0x42E DUP7 DUP4 DUP8 PUSH2 0x5CE JUMP JUMPDEST SWAP1 POP PUSH2 0x43A DUP4 DUP3 PUSH2 0x59A JUMP JUMPDEST SWAP3 POP POP DUP1 DUP1 PUSH2 0x448 SWAP1 PUSH2 0xB47 JUMP JUMPDEST SWAP2 POP POP PUSH2 0x418 JUMP JUMPDEST POP SWAP1 POP JUMPDEST SWAP3 SWAP2 POP POP JUMP JUMPDEST DUP1 SLOAD PUSH2 0x465 JUMPI PUSH2 0x3FB JUMP JUMPDEST PUSH1 0x0 JUMPDEST DUP2 SLOAD DUP2 LT ISZERO PUSH2 0x38A JUMPI PUSH1 0x1 DUP3 DUP3 DUP2 SLOAD DUP2 LT PUSH2 0x493 JUMPI PUSH4 0x4E487B71 PUSH1 0xE0 SHL PUSH1 0x0 MSTORE PUSH1 0x32 PUSH1 0x4 MSTORE PUSH1 0x24 PUSH1 0x0 REVERT JUMPDEST SWAP1 PUSH1 0x0 MSTORE PUSH1 0x20 PUSH1 0x0 KECCAK256 SWAP1 PUSH1 0x8 MUL ADD PUSH1 0x7 ADD PUSH1 0x1 PUSH2 0x100 EXP DUP2 SLOAD DUP2 PUSH1 0xFF MUL NOT AND SWAP1 DUP4 ISZERO ISZERO MUL OR SWAP1 SSTORE POP DUP1 DUP1 PUSH2 0x4C6 SWAP1 PUSH2 0xB47 JUMP JUMPDEST SWAP2 POP POP PUSH2 0x468 JUMP JUMPDEST PUSH1 0x0 PUSH2 0x4DA DUP3 DUP5 PUSH2 0xB11 JUMP JUMPDEST SWAP4 SWAP3 POP POP POP JUMP JUMPDEST PUSH1 0x0 PUSH2 0x4DA DUP3 DUP5 PUSH2 0x9CA JUMP JUMPDEST PUSH1 0x0 DUP1 JUMPDEST DUP3 SLOAD DUP2 LT ISZERO PUSH2 0x57E JUMPI DUP3 DUP2 DUP2 SLOAD DUP2 LT PUSH2 0x51A JUMPI PUSH4 0x4E487B71 PUSH1 0xE0 SHL PUSH1 0x0 MSTORE PUSH1 0x32 PUSH1 0x4 MSTORE PUSH1 0x24 PUSH1 0x0 REVERT JUMPDEST SWAP1 PUSH1 0x0 MSTORE PUSH1 0x20 PUSH1 0x0 KECCAK256 SWAP1 PUSH1 0x2 MUL ADD PUSH1 0x0 ADD SLOAD DUP5 GT PUSH2 0x56C JUMPI DUP3 DUP2 DUP2 SLOAD DUP2 LT PUSH2 0x552 JUMPI PUSH4 0x4E487B71 PUSH1 0xE0 SHL PUSH1 0x0 MSTORE PUSH1 0x32 PUSH1 0x4 MSTORE PUSH1 0x24 PUSH1 0x0 REVERT JUMPDEST SWAP1 PUSH1 0x0 MSTORE PUSH1 0x20 PUSH1 0x0 KECCAK256 SWAP1 PUSH1 0x2 MUL ADD PUSH1 0x1 ADD SLOAD SWAP2 POP POP PUSH2 0x454 JUMP JUMPDEST DUP1 PUSH2 0x576 DUP2 PUSH2 0xB47 JUMP JUMPDEST SWAP2 POP POP PUSH2 0x4F1 JUMP JUMPDEST POP PUSH1 0x0 SWAP4 SWAP3 POP POP POP JUMP JUMPDEST PUSH1 0x0 PUSH2 0x4DA PUSH2 0x2710 PUSH2 0x17D DUP6 DUP6 PUSH2 0x4CE JUMP JUMPDEST PUSH1 0x0 PUSH2 0x4DA DUP3 DUP5 PUSH2 0x9B2 JUMP JUMPDEST PUSH1 0x0 DUP3 PUSH2 0x5B5 JUMPI POP PUSH1 0x0 PUSH2 0x454 JUMP JUMPDEST DUP2 PUSH2 0x5C1 JUMPI POP DUP2 PUSH2 0x454 JUMP JUMPDEST PUSH2 0x4DA PUSH2 0x23E DUP5 DUP5 PUSH2 0x588 JUMP JUMPDEST PUSH1 0x0 DUP1 DUP3 PUSH1 0x2 ADD SLOAD DUP4 PUSH1 0x1 ADD SLOAD DUP5 PUSH1 0x0 ADD SLOAD PUSH2 0x5EA SWAP2 SWAP1 PUSH2 0x9B2 JUMP JUMPDEST PUSH2 0x5F4 SWAP2 SWAP1 PUSH2 0x9B2 JUMP JUMPDEST SWAP1 POP PUSH1 0x0 DUP2 TIMESTAMP GT PUSH2 0x605 JUMPI TIMESTAMP PUSH2 0x607 JUMP JUMPDEST DUP2 JUMPDEST PUSH1 0x8 DUP6 ADD SLOAD SWAP1 SWAP2 POP PUSH1 0x0 SWAP1 PUSH1 0xFF AND ISZERO PUSH2 0x658 JUMPI PUSH2 0x655 DUP8 DUP8 DUP2 SLOAD DUP2 LT PUSH2 0x63D JUMPI PUSH4 0x4E487B71 PUSH1 0xE0 SHL PUSH1 0x0 MSTORE PUSH1 0x32 PUSH1 0x4 MSTORE PUSH1 0x24 PUSH1 0x0 REVERT JUMPDEST SWAP1 PUSH1 0x0 MSTORE PUSH1 0x20 PUSH1 0x0 KECCAK256 SWAP1 PUSH1 0x8 MUL ADD PUSH1 0x1 ADD SLOAD DUP7 PUSH2 0x741 JUMP JUMPDEST SWAP1 POP JUMPDEST PUSH1 0x0 PUSH2 0x6EF PUSH2 0x674 DUP4 DUP9 PUSH1 0x6 ADD SLOAD PUSH2 0x59A SWAP1 SWAP2 SWAP1 PUSH4 0xFFFFFFFF AND JUMP JUMPDEST PUSH2 0x6B8 DUP11 DUP11 DUP2 SLOAD DUP2 LT PUSH2 0x697 JUMPI PUSH4 0x4E487B71 PUSH1 0xE0 SHL PUSH1 0x0 MSTORE PUSH1 0x32 PUSH1 0x4 MSTORE PUSH1 0x24 PUSH1 0x0 REVERT JUMPDEST SWAP1 PUSH1 0x0 MSTORE PUSH1 0x20 PUSH1 0x0 KECCAK256 SWAP1 PUSH1 0x8 MUL ADD PUSH1 0x1 ADD SLOAD DUP7 PUSH2 0x7F8 SWAP1 SWAP2 SWAP1 PUSH4 0xFFFFFFFF AND JUMP JUMPDEST DUP11 DUP11 DUP2 SLOAD DUP2 LT PUSH2 0x6D8 JUMPI PUSH4 0x4E487B71 PUSH1 0xE0 SHL PUSH1 0x0 MSTORE PUSH1 0x32 PUSH1 0x4 MSTORE PUSH1 0x24 PUSH1 0x0 REVERT JUMPDEST SWAP1 PUSH1 0x0 MSTORE PUSH1 0x20 PUSH1 0x0 KECCAK256 SWAP1 PUSH1 0x8 MUL ADD PUSH1 0x0 ADD SLOAD PUSH2 0x804 JUMP JUMPDEST SWAP1 POP PUSH2 0x735 DUP9 DUP9 DUP2 SLOAD DUP2 LT PUSH2 0x714 JUMPI PUSH4 0x4E487B71 PUSH1 0xE0 SHL PUSH1 0x0 MSTORE PUSH1 0x32 PUSH1 0x4 MSTORE PUSH1 0x24 PUSH1 0x0 REVERT JUMPDEST SWAP1 PUSH1 0x0 MSTORE PUSH1 0x20 PUSH1 0x0 KECCAK256 SWAP1 PUSH1 0x8 MUL ADD PUSH1 0x2 ADD SLOAD DUP3 PUSH2 0x7F8 SWAP1 SWAP2 SWAP1 PUSH4 0xFFFFFFFF AND JUMP JUMPDEST SWAP9 SWAP8 POP POP POP POP POP POP POP POP JUMP JUMPDEST PUSH1 0x8 DUP2 ADD SLOAD PUSH1 0x0 SWAP1 PUSH1 0xFF AND PUSH2 0x758 JUMPI POP PUSH1 0x0 PUSH2 0x454 JUMP JUMPDEST PUSH1 0x1 DUP3 ADD SLOAD DUP3 SLOAD PUSH1 0x0 SWAP2 PUSH2 0x76C SWAP2 SWAP1 PUSH2 0x59A JUMP JUMPDEST SWAP1 POP PUSH1 0x0 PUSH2 0x77A DUP3 DUP7 PUSH2 0x7F8 JUMP JUMPDEST SWAP1 POP PUSH3 0x2A300 DUP2 LT ISZERO PUSH2 0x792 JUMPI PUSH1 0x0 SWAP3 POP POP POP PUSH2 0x454 JUMP JUMPDEST PUSH3 0x3F480 DUP2 LT ISZERO PUSH2 0x7A8 JUMPI PUSH1 0x64 SWAP3 POP POP POP PUSH2 0x454 JUMP JUMPDEST PUSH3 0x54600 DUP2 LT ISZERO PUSH2 0x7BE JUMPI PUSH1 0xC8 SWAP3 POP POP POP PUSH2 0x454 JUMP JUMPDEST PUSH3 0x69780 DUP2 LT ISZERO PUSH2 0x7D5 JUMPI PUSH2 0x12C SWAP3 POP POP POP PUSH2 0x454 JUMP JUMPDEST PUSH3 0x7E900 DUP2 LT ISZERO PUSH2 0x7EC JUMPI PUSH2 0x190 SWAP3 POP POP POP PUSH2 0x454 JUMP JUMPDEST PUSH2 0x1F4 SWAP3 POP POP POP PUSH2 0x454 JUMP JUMPDEST PUSH1 0x0 PUSH2 0x4DA DUP3 DUP5 PUSH2 0xB30 JUMP JUMPDEST PUSH1 0x0 PUSH4 0x1E13380 DUP2 PUSH2 0x825 PUSH4 0x5F5E100 PUSH2 0x81F PUSH1 0x2 DUP6 PUSH2 0xA3F JUMP JUMPDEST SWAP1 PUSH2 0x4CE JUMP JUMPDEST SWAP1 POP PUSH1 0x0 PUSH2 0x83B PUSH2 0x1388 PUSH2 0x81F DUP6 DUP2 DUP11 DUP13 PUSH2 0x4CE JUMP JUMPDEST SWAP1 POP PUSH1 0x0 PUSH2 0x85A PUSH2 0x1388 PUSH2 0x81F PUSH2 0x853 PUSH1 0x2 DUP9 PUSH2 0xA3F JUMP JUMPDEST DUP12 SWAP1 PUSH2 0x4CE JUMP JUMPDEST SWAP1 POP PUSH1 0x0 PUSH2 0x87C PUSH1 0x6 PUSH2 0x17D PUSH2 0x871 PUSH1 0x2 DUP14 PUSH2 0xA3F JUMP JUMPDEST PUSH2 0x81F PUSH1 0x2 DUP14 PUSH2 0xA3F JUMP JUMPDEST SWAP1 POP PUSH1 0x0 PUSH2 0x8A0 PUSH1 0x2 PUSH2 0x17D DUP9 PUSH2 0x81F PUSH1 0x2 DUP16 PUSH2 0x899 SWAP2 SWAP1 PUSH2 0xA3F JUMP JUMPDEST DUP15 SWAP1 PUSH2 0x4CE JUMP JUMPDEST SWAP1 POP PUSH1 0x0 PUSH2 0x8C4 PUSH1 0x3 PUSH2 0x17D PUSH2 0x8B7 PUSH1 0x2 DUP12 PUSH2 0xA3F JUMP JUMPDEST PUSH1 0x2 DUP16 PUSH2 0x81F SWAP2 SWAP1 PUSH2 0xA3F JUMP JUMPDEST SWAP1 POP PUSH1 0x0 PUSH2 0x8DE DUP3 PUSH2 0x8D8 DUP7 DUP2 DUP12 DUP12 PUSH2 0x59A JUMP JUMPDEST SWAP1 PUSH2 0x59A JUMP JUMPDEST SWAP1 POP PUSH2 0x8F4 DUP4 PUSH2 0x8EE DUP4 DUP9 PUSH2 0x7F8 JUMP JUMPDEST SWAP1 PUSH2 0x7F8 JUMP JUMPDEST SWAP1 POP PUSH2 0x904 DUP12 PUSH2 0x81F DUP4 DUP16 PUSH2 0x4CE JUMP JUMPDEST SWAP1 POP PUSH2 0x927 PUSH5 0xE8D4A51000 PUSH2 0x17D PUSH2 0x91D PUSH1 0x3 DUP13 PUSH2 0xA3F JUMP JUMPDEST PUSH2 0x17D DUP6 DUP16 PUSH2 0x4CE JUMP JUMPDEST SWAP13 SWAP12 POP POP POP POP POP POP POP POP POP POP POP POP JUMP JUMPDEST PUSH1 0x0 PUSH1 0x20 DUP3 DUP5 SUB SLT ISZERO PUSH2 0x948 JUMPI DUP1 DUP2 REVERT JUMPDEST POP CALLDATALOAD SWAP2 SWAP1 POP JUMP JUMPDEST PUSH1 0x0 DUP1 PUSH1 0x40 DUP4 DUP6 SUB SLT ISZERO PUSH2 0x961 JUMPI DUP1 DUP2 REVERT JUMPDEST POP POP DUP1 CALLDATALOAD SWAP3 PUSH1 0x20 SWAP1 SWAP2 ADD CALLDATALOAD SWAP2 POP JUMP JUMPDEST PUSH1 0x0 DUP1 PUSH1 0x0 PUSH1 0x60 DUP5 DUP7 SUB SLT ISZERO PUSH2 0x984 JUMPI DUP1 DUP2 REVERT JUMPDEST POP POP DUP2 CALLDATALOAD SWAP4 PUSH1 0x20 DUP4 ADD CALLDATALOAD SWAP4 POP PUSH1 0x40 SWAP1 SWAP3 ADD CALLDATALOAD SWAP2 SWAP1 POP JUMP JUMPDEST SWAP1 DUP2 MSTORE PUSH1 0x20 ADD SWAP1 JUMP JUMPDEST SWAP2 DUP3 MSTORE PUSH1 0x20 DUP3 ADD MSTORE PUSH1 0x40 ADD SWAP1 JUMP JUMPDEST PUSH1 0x0 DUP3 NOT DUP3 GT ISZERO PUSH2 0x9C5 JUMPI PUSH2 0x9C5 PUSH2 0xB62 JUMP JUMPDEST POP ADD SWAP1 JUMP JUMPDEST PUSH1 0x0 DUP3 PUSH2 0x9E5 JUMPI PUSH4 0x4E487B71 PUSH1 0xE0 SHL DUP2 MSTORE PUSH1 0x12 PUSH1 0x4 MSTORE PUSH1 0x24 DUP2 REVERT JUMPDEST POP DIV SWAP1 JUMP JUMPDEST DUP1 DUP3 JUMPDEST PUSH1 0x1 DUP1 DUP7 GT PUSH2 0x9FC JUMPI POP PUSH2 0xA27 JUMP JUMPDEST DUP2 DUP8 DIV DUP3 GT ISZERO PUSH2 0xA0E JUMPI PUSH2 0xA0E PUSH2 0xB62 JUMP JUMPDEST DUP1 DUP7 AND ISZERO PUSH2 0xA1B JUMPI SWAP2 DUP2 MUL SWAP2 JUMPDEST SWAP5 SWAP1 SWAP5 SHR SWAP4 DUP1 MUL PUSH2 0x9ED JUMP JUMPDEST SWAP5 POP SWAP5 SWAP3 POP POP POP JUMP JUMPDEST PUSH1 0x0 PUSH2 0x4DA PUSH1 0x0 NOT DUP5 DUP5 PUSH2 0xA4D JUMP JUMPDEST PUSH1 0x0 PUSH2 0x4DA PUSH1 0x0 NOT PUSH1 0xFF DUP6 AND DUP5 JUMPDEST PUSH1 0x0 DUP3 PUSH2 0xA5C JUMPI POP PUSH1 0x1 PUSH2 0x4DA JUMP JUMPDEST DUP2 PUSH2 0xA69 JUMPI POP PUSH1 0x0 PUSH2 0x4DA JUMP JUMPDEST DUP2 PUSH1 0x1 DUP2 EQ PUSH2 0xA7F JUMPI PUSH1 0x2 DUP2 EQ PUSH2 0xA89 JUMPI PUSH2 0xAB6 JUMP JUMPDEST PUSH1 0x1 SWAP2 POP POP PUSH2 0x4DA JUMP JUMPDEST PUSH1 0xFF DUP5 GT ISZERO PUSH2 0xA9A JUMPI PUSH2 0xA9A PUSH2 0xB62 JUMP JUMPDEST PUSH1 0x1 DUP5 SHL SWAP2 POP DUP5 DUP3 GT ISZERO PUSH2 0xAB0 JUMPI PUSH2 0xAB0 PUSH2 0xB62 JUMP JUMPDEST POP PUSH2 0x4DA JUMP JUMPDEST POP PUSH1 0x20 DUP4 LT PUSH2 0x133 DUP4 LT AND PUSH1 0x4E DUP5 LT PUSH1 0xB DUP5 LT AND OR ISZERO PUSH2 0xAE9 JUMPI POP DUP2 DUP2 EXP DUP4 DUP2 GT ISZERO PUSH2 0xAE4 JUMPI PUSH2 0xAE4 PUSH2 0xB62 JUMP JUMPDEST PUSH2 0x4DA JUMP JUMPDEST PUSH2 0xAF6 DUP5 DUP5 DUP5 PUSH1 0x1 PUSH2 0x9EA JUMP JUMPDEST DUP1 DUP7 DIV DUP3 GT ISZERO PUSH2 0xB08 JUMPI PUSH2 0xB08 PUSH2 0xB62 JUMP JUMPDEST MUL SWAP5 SWAP4 POP POP POP POP JUMP JUMPDEST PUSH1 0x0 DUP2 PUSH1 0x0 NOT DIV DUP4 GT DUP3 ISZERO ISZERO AND ISZERO PUSH2 0xB2B JUMPI PUSH2 0xB2B PUSH2 0xB62 JUMP JUMPDEST POP MUL SWAP1 JUMP JUMPDEST PUSH1 0x0 DUP3 DUP3 LT ISZERO PUSH2 0xB42 JUMPI PUSH2 0xB42 PUSH2 0xB62 JUMP JUMPDEST POP SUB SWAP1 JUMP JUMPDEST PUSH1 0x0 PUSH1 0x0 NOT DUP3 EQ ISZERO PUSH2 0xB5B JUMPI PUSH2 0xB5B PUSH2 0xB62 JUMP JUMPDEST POP PUSH1 0x1 ADD SWAP1 JUMP JUMPDEST PUSH4 0x4E487B71 PUSH1 0xE0 SHL PUSH1 0x0 MSTORE PUSH1 0x11 PUSH1 0x4 MSTORE PUSH1 0x24 PUSH1 0x0 REVERT INVALID LOG2 PUSH5 0x6970667358 0x22 SLT KECCAK256 PUSH23 0x57DB1353763F86020068C421450B886266D2FF8505181 0xB3 SWAP15 PUSH22 0x11FC6E323164736F6C63430008000033000000000000 "
    },
    "gasEstimates": {
      "creation": {
        "codeDepositCost": "598000",
        "executionCost": "663",
        "totalCost": "598663"
      },
      "external": {
        "getPrize(StakingPoolStorageStructure.StakeWithPrediction[] storage,StakingPoolStorageStructure.LibParams storage,StakingPoolStorageStructure.PrizeRewardRate[] storage)": "infinite",
        "getStakingReturn(StakingPoolStorageStructure.StakeWithPrediction[] storage,StakingPoolStorageStructure.LibParams storage)": "infinite",
        "oracleDecimal()": "256",
        "withdrawPrize(StakingPoolStorageStructure.StakeWithPrediction[] storage)": "infinite",
        "withdrawStakedBalance(StakingPoolStorageStructure.StakeWithPrediction[] storage)": "infinite",
        "withdrawStakingReturn(StakingPoolStorageStructure.StakeWithPrediction[] storage,StakingPoolStorageStructure.LibParams storage)": "infinite"
      }
    },
    "methodIdentifiers": {
      "getPrize(StakingPoolStorageStructure.StakeWithPrediction[] storage,StakingPoolStorageStructure.LibParams storage,StakingPoolStorageStructure.PrizeRewardRate[] storage)": "32a1b321",
      "getStakingReturn(StakingPoolStorageStructure.StakeWithPrediction[] storage,StakingPoolStorageStructure.LibParams storage)": "d4675770",
      "oracleDecimal()": "a150194b",
      "withdrawPrize(StakingPoolStorageStructure.StakeWithPrediction[] storage)": "47dc9eee",
      "withdrawStakedBalance(StakingPoolStorageStructure.StakeWithPrediction[] storage)": "f66d9a4d",
      "withdrawStakingReturn(StakingPoolStorageStructure.StakeWithPrediction[] storage,StakingPoolStorageStructure.LibParams storage)": "4142c652"
    }
  },
  "storageLayout": {
    "storage": [],
    "types": null
  },
  "userdoc": {
    "kind": "user",
    "methods": {},
    "version": 1
  }
}