{
  "contractName": "IndexedClaimRewardLib",
  "sourceName": "contracts/libraries/IndexedClaimRewardLib.sol",
  "abi": [
    {
      "inputs": [],
      "name": "oracleDecimal",
      "outputs": [
        {
          "internalType": "uint256",
          "name": "",
          "type": "uint256"
        }
      ],
      "stateMutability": "view",
      "type": "function"
    }
  ],
  "bytecode": "0x610c8a61003a600b82828239805160001a60731461002d57634e487b7160e01b600052600060045260246000fd5b30600052607381538281f3fe73000000000000000000000000000000000000000030146080604052600436106100875760003560e01c8063a150194b11610065578063a150194b146100ea578063eaff3050146100f2578063ec8ecc0214610112578063f7ac9cba1461013257610087565b80634f1604231461008c5780635eac7af3146100b557806393aaeaf9146100c8575b600080fd5b61009f61009a366004610a24565b610153565b6040516100ac9190610a80565b60405180910390f35b61009f6100c3366004610a03565b61019a565b8180156100d457600080fd5b506100e86100e3366004610a03565b610247565b005b61009f6102dc565b8180156100fe57600080fd5b506100e861010d366004610a24565b6102e1565b81801561011e57600080fd5b506100e861012d366004610a03565b6103be565b610145610140366004610a4f565b610424565b6040516100ac929190610a89565b825460009061016457506000610193565b8354831061017457506000610193565b6000806101828686866105a1565b905061018e8282610714565b925050505b9392505050565b81546000906101ab57506000610241565b825482106101bb57506000610241565b60008383815481106101dd57634e487b7160e01b600052603260045260246000fd5b906000526020600020906008020160070160019054906101000a900460ff1661023e5761023b84848154811061022357634e487b7160e01b600052603260045260246000fd5b60009182526020909120600890910201548290610714565b90505b90505b92915050565b8154610252576102d8565b81818154811061027257634e487b7160e01b600052603260045260246000fd5b600091825260209091206007600890920201015460ff1615610293576102d8565b60018282815481106102b557634e487b7160e01b600052603260045260246000fd5b60009182526020909120600890910201600701805460ff19169115159190911790555b5050565b600881565b82546102ec576103b9565b825482106102f9576103b9565b60006103068484846105a1565b90504284848154811061032957634e487b7160e01b600052603260045260246000fd5b9060005260206000209060080201600301819055506103828185858154811061036257634e487b7160e01b600052603260045260246000fd5b90600052602060002090600802016002015461071490919063ffffffff16565b8484815481106103a257634e487b7160e01b600052603260045260246000fd5b906000526020600020906008020160020181905550505b505050565b81546103c9576102d8565b815481106103d6576102d8565b60018282815481106103f857634e487b7160e01b600052603260045260246000fd5b906000526020600020906008020160070160016101000a81548160ff0219169083151502179055505050565b60088201546000908190610100900460ff1661044557506000905080610598565b855461045657506000905080610598565b8554851061046957506000905080610598565b85858154811061048957634e487b7160e01b600052603260045260246000fd5b600091825260209091206007600890920201015460ff16156104b057506000905080610598565b60006104dc85600301546104d66008600a6104cb9190610b0c565b600489015490610720565b9061072c565b9050600080600061051e8a8a8154811061050657634e487b7160e01b600052603260045260246000fd5b90600052602060002090600802016006015488610738565b905061054161053a828a600501546107d390919063ffffffff16565b8490610714565b925061055761055085836107d3565b8390610714565b6007890154909250156105905760078801546105749084906107e5565b925061058d8860070154836107e590919063ffffffff16565b91505b509093509150505b94509492505050565b6000808260020154836001015484600001546105bd9190610a97565b6105c79190610a97565b905060008142116105d857426105da565b815b600885015490915060009060ff161561062b5761062887878154811061061057634e487b7160e01b600052603260045260246000fd5b9060005260206000209060080201600101548661080d565b90505b60006106c261064783886006015461071490919063ffffffff16565b61068b8a8a8154811061066a57634e487b7160e01b600052603260045260246000fd5b906000526020600020906008020160010154866108c490919063ffffffff16565b8a8a815481106106ab57634e487b7160e01b600052603260045260246000fd5b9060005260206000209060080201600001546108d0565b90506107088888815481106106e757634e487b7160e01b600052603260045260246000fd5b906000526020600020906008020160020154826108c490919063ffffffff16565b98975050505050505050565b600061023e8284610a97565b600061023e8284610bed565b600061023e8284610aaf565b6000805b82548110156107c95782818154811061076557634e487b7160e01b600052603260045260246000fd5b90600052602060002090600202016000015484116107b75782818154811061079d57634e487b7160e01b600052603260045260246000fd5b906000526020600020906002020160010154915050610241565b806107c181610c23565b91505061073c565b5060009392505050565b600061023e6127106104d68585610720565b6000826107f457506000610241565b81610800575081610241565b61023e61053a84846107d3565b600881015460009060ff1661082457506000610241565b600182015482546000916108389190610714565b9050600061084682866108c4565b90506202a30081101561085e57600092505050610241565b6203f48081101561087457606492505050610241565b6205460081101561088a5760c892505050610241565b620697808110156108a15761012c92505050610241565b6207e9008110156108b85761019092505050610241565b6101f492505050610241565b600061023e8284610c0c565b60006301e13380816108f16305f5e1006108eb600285610b1b565b90610720565b905060006109076113886108eb85818a8c610720565b905060006109266113886108eb61091f600288610b1b565b8b90610720565b9050600061094860066104d661093d60028d610b1b565b6108eb60028d610b1b565b9050600061096c60026104d6886108eb60028f6109659190610b1b565b8e90610720565b9050600061099060036104d661098360028b610b1b565b60028f6108eb9190610b1b565b905060006109aa826109a486818b8b610714565b90610714565b90506109c0836109ba83886108c4565b906108c4565b90506109d08b6108eb838f610720565b90506109f364e8d4a510006104d66109e960038c610b1b565b6104d6858f610720565b9c9b505050505050505050505050565b60008060408385031215610a15578182fd5b50508035926020909101359150565b600080600060608486031215610a38578081fd5b505081359360208301359350604090920135919050565b60008060008060808587031215610a64578081fd5b5050823594602084013594506040840135936060013592509050565b90815260200190565b918252602082015260400190565b60008219821115610aaa57610aaa610c3e565b500190565b600082610aca57634e487b7160e01b81526012600452602481fd5b500490565b80825b6001808611610ae15750610598565b818704821115610af357610af3610c3e565b80861615610b0057918102915b9490941c938002610ad2565b600061023e6000198484610b29565b600061023e60001960ff8516845b600082610b3857506001610193565b81610b4557506000610193565b8160018114610b5b5760028114610b6557610b92565b6001915050610193565b60ff841115610b7657610b76610c3e565b6001841b915084821115610b8c57610b8c610c3e565b50610193565b5060208310610133831016604e8410600b8410161715610bc5575081810a83811115610bc057610bc0610c3e565b610193565b610bd28484846001610acf565b808604821115610be457610be4610c3e565b02949350505050565b6000816000190483118215151615610c0757610c07610c3e565b500290565b600082821015610c1e57610c1e610c3e565b500390565b6000600019821415610c3757610c37610c3e565b5060010190565b634e487b7160e01b600052601160045260246000fdfea26469706673582212207712ca171d2e8798c8aebd4da5aa007f72d5c9a7982ae5ead675aaa314a4031f64736f6c63430008000033",
  "linkReferences": {},
  "deployedLinkReferences": {},
  "devdoc": {
    "kind": "dev",
    "methods": {},
    "version": 1
  },
  "evm": {
    "bytecode": {
      "linkReferences": {},
      "opcodes": "PUSH2 0xC8A PUSH2 0x3A PUSH1 0xB DUP3 DUP3 DUP3 CODECOPY DUP1 MLOAD PUSH1 0x0 BYTE PUSH1 0x73 EQ PUSH2 0x2D JUMPI PUSH4 0x4E487B71 PUSH1 0xE0 SHL PUSH1 0x0 MSTORE PUSH1 0x0 PUSH1 0x4 MSTORE PUSH1 0x24 PUSH1 0x0 REVERT JUMPDEST ADDRESS PUSH1 0x0 MSTORE PUSH1 0x73 DUP2 MSTORE8 DUP3 DUP2 RETURN INVALID PUSH20 0x0 ADDRESS EQ PUSH1 0x80 PUSH1 0x40 MSTORE PUSH1 0x4 CALLDATASIZE LT PUSH2 0x87 JUMPI PUSH1 0x0 CALLDATALOAD PUSH1 0xE0 SHR DUP1 PUSH4 0xA150194B GT PUSH2 0x65 JUMPI DUP1 PUSH4 0xA150194B EQ PUSH2 0xEA JUMPI DUP1 PUSH4 0xEAFF3050 EQ PUSH2 0xF2 JUMPI DUP1 PUSH4 0xEC8ECC02 EQ PUSH2 0x112 JUMPI DUP1 PUSH4 0xF7AC9CBA EQ PUSH2 0x132 JUMPI PUSH2 0x87 JUMP JUMPDEST DUP1 PUSH4 0x4F160423 EQ PUSH2 0x8C JUMPI DUP1 PUSH4 0x5EAC7AF3 EQ PUSH2 0xB5 JUMPI DUP1 PUSH4 0x93AAEAF9 EQ PUSH2 0xC8 JUMPI JUMPDEST PUSH1 0x0 DUP1 REVERT JUMPDEST PUSH2 0x9F PUSH2 0x9A CALLDATASIZE PUSH1 0x4 PUSH2 0xA24 JUMP JUMPDEST PUSH2 0x153 JUMP JUMPDEST PUSH1 0x40 MLOAD PUSH2 0xAC SWAP2 SWAP1 PUSH2 0xA80 JUMP JUMPDEST PUSH1 0x40 MLOAD DUP1 SWAP2 SUB SWAP1 RETURN JUMPDEST PUSH2 0x9F PUSH2 0xC3 CALLDATASIZE PUSH1 0x4 PUSH2 0xA03 JUMP JUMPDEST PUSH2 0x19A JUMP JUMPDEST DUP2 DUP1 ISZERO PUSH2 0xD4 JUMPI PUSH1 0x0 DUP1 REVERT JUMPDEST POP PUSH2 0xE8 PUSH2 0xE3 CALLDATASIZE PUSH1 0x4 PUSH2 0xA03 JUMP JUMPDEST PUSH2 0x247 JUMP JUMPDEST STOP JUMPDEST PUSH2 0x9F PUSH2 0x2DC JUMP JUMPDEST DUP2 DUP1 ISZERO PUSH2 0xFE JUMPI PUSH1 0x0 DUP1 REVERT JUMPDEST POP PUSH2 0xE8 PUSH2 0x10D CALLDATASIZE PUSH1 0x4 PUSH2 0xA24 JUMP JUMPDEST PUSH2 0x2E1 JUMP JUMPDEST DUP2 DUP1 ISZERO PUSH2 0x11E JUMPI PUSH1 0x0 DUP1 REVERT JUMPDEST POP PUSH2 0xE8 PUSH2 0x12D CALLDATASIZE PUSH1 0x4 PUSH2 0xA03 JUMP JUMPDEST PUSH2 0x3BE JUMP JUMPDEST PUSH2 0x145 PUSH2 0x140 CALLDATASIZE PUSH1 0x4 PUSH2 0xA4F JUMP JUMPDEST PUSH2 0x424 JUMP JUMPDEST PUSH1 0x40 MLOAD PUSH2 0xAC SWAP3 SWAP2 SWAP1 PUSH2 0xA89 JUMP JUMPDEST DUP3 SLOAD PUSH1 0x0 SWAP1 PUSH2 0x164 JUMPI POP PUSH1 0x0 PUSH2 0x193 JUMP JUMPDEST DUP4 SLOAD DUP4 LT PUSH2 0x174 JUMPI POP PUSH1 0x0 PUSH2 0x193 JUMP JUMPDEST PUSH1 0x0 DUP1 PUSH2 0x182 DUP7 DUP7 DUP7 PUSH2 0x5A1 JUMP JUMPDEST SWAP1 POP PUSH2 0x18E DUP3 DUP3 PUSH2 0x714 JUMP JUMPDEST SWAP3 POP POP POP JUMPDEST SWAP4 SWAP3 POP POP POP JUMP JUMPDEST DUP2 SLOAD PUSH1 0x0 SWAP1 PUSH2 0x1AB JUMPI POP PUSH1 0x0 PUSH2 0x241 JUMP JUMPDEST DUP3 SLOAD DUP3 LT PUSH2 0x1BB JUMPI POP PUSH1 0x0 PUSH2 0x241 JUMP JUMPDEST PUSH1 0x0 DUP4 DUP4 DUP2 SLOAD DUP2 LT PUSH2 0x1DD JUMPI PUSH4 0x4E487B71 PUSH1 0xE0 SHL PUSH1 0x0 MSTORE PUSH1 0x32 PUSH1 0x4 MSTORE PUSH1 0x24 PUSH1 0x0 REVERT JUMPDEST SWAP1 PUSH1 0x0 MSTORE PUSH1 0x20 PUSH1 0x0 KECCAK256 SWAP1 PUSH1 0x8 MUL ADD PUSH1 0x7 ADD PUSH1 0x1 SWAP1 SLOAD SWAP1 PUSH2 0x100 EXP SWAP1 DIV PUSH1 0xFF AND PUSH2 0x23E JUMPI PUSH2 0x23B DUP5 DUP5 DUP2 SLOAD DUP2 LT PUSH2 0x223 JUMPI PUSH4 0x4E487B71 PUSH1 0xE0 SHL PUSH1 0x0 MSTORE PUSH1 0x32 PUSH1 0x4 MSTORE PUSH1 0x24 PUSH1 0x0 REVERT JUMPDEST PUSH1 0x0 SWAP2 DUP3 MSTORE PUSH1 0x20 SWAP1 SWAP2 KECCAK256 PUSH1 0x8 SWAP1 SWAP2 MUL ADD SLOAD DUP3 SWAP1 PUSH2 0x714 JUMP JUMPDEST SWAP1 POP JUMPDEST SWAP1 POP JUMPDEST SWAP3 SWAP2 POP POP JUMP JUMPDEST DUP2 SLOAD PUSH2 0x252 JUMPI PUSH2 0x2D8 JUMP JUMPDEST DUP2 DUP2 DUP2 SLOAD DUP2 LT PUSH2 0x272 JUMPI PUSH4 0x4E487B71 PUSH1 0xE0 SHL PUSH1 0x0 MSTORE PUSH1 0x32 PUSH1 0x4 MSTORE PUSH1 0x24 PUSH1 0x0 REVERT JUMPDEST PUSH1 0x0 SWAP2 DUP3 MSTORE PUSH1 0x20 SWAP1 SWAP2 KECCAK256 PUSH1 0x7 PUSH1 0x8 SWAP1 SWAP3 MUL ADD ADD SLOAD PUSH1 0xFF AND ISZERO PUSH2 0x293 JUMPI PUSH2 0x2D8 JUMP JUMPDEST PUSH1 0x1 DUP3 DUP3 DUP2 SLOAD DUP2 LT PUSH2 0x2B5 JUMPI PUSH4 0x4E487B71 PUSH1 0xE0 SHL PUSH1 0x0 MSTORE PUSH1 0x32 PUSH1 0x4 MSTORE PUSH1 0x24 PUSH1 0x0 REVERT JUMPDEST PUSH1 0x0 SWAP2 DUP3 MSTORE PUSH1 0x20 SWAP1 SWAP2 KECCAK256 PUSH1 0x8 SWAP1 SWAP2 MUL ADD PUSH1 0x7 ADD DUP1 SLOAD PUSH1 0xFF NOT AND SWAP2 ISZERO ISZERO SWAP2 SWAP1 SWAP2 OR SWAP1 SSTORE JUMPDEST POP POP JUMP JUMPDEST PUSH1 0x8 DUP2 JUMP JUMPDEST DUP3 SLOAD PUSH2 0x2EC JUMPI PUSH2 0x3B9 JUMP JUMPDEST DUP3 SLOAD DUP3 LT PUSH2 0x2F9 JUMPI PUSH2 0x3B9 JUMP JUMPDEST PUSH1 0x0 PUSH2 0x306 DUP5 DUP5 DUP5 PUSH2 0x5A1 JUMP JUMPDEST SWAP1 POP TIMESTAMP DUP5 DUP5 DUP2 SLOAD DUP2 LT PUSH2 0x329 JUMPI PUSH4 0x4E487B71 PUSH1 0xE0 SHL PUSH1 0x0 MSTORE PUSH1 0x32 PUSH1 0x4 MSTORE PUSH1 0x24 PUSH1 0x0 REVERT JUMPDEST SWAP1 PUSH1 0x0 MSTORE PUSH1 0x20 PUSH1 0x0 KECCAK256 SWAP1 PUSH1 0x8 MUL ADD PUSH1 0x3 ADD DUP2 SWAP1 SSTORE POP PUSH2 0x382 DUP2 DUP6 DUP6 DUP2 SLOAD DUP2 LT PUSH2 0x362 JUMPI PUSH4 0x4E487B71 PUSH1 0xE0 SHL PUSH1 0x0 MSTORE PUSH1 0x32 PUSH1 0x4 MSTORE PUSH1 0x24 PUSH1 0x0 REVERT JUMPDEST SWAP1 PUSH1 0x0 MSTORE PUSH1 0x20 PUSH1 0x0 KECCAK256 SWAP1 PUSH1 0x8 MUL ADD PUSH1 0x2 ADD SLOAD PUSH2 0x714 SWAP1 SWAP2 SWAP1 PUSH4 0xFFFFFFFF AND JUMP JUMPDEST DUP5 DUP5 DUP2 SLOAD DUP2 LT PUSH2 0x3A2 JUMPI PUSH4 0x4E487B71 PUSH1 0xE0 SHL PUSH1 0x0 MSTORE PUSH1 0x32 PUSH1 0x4 MSTORE PUSH1 0x24 PUSH1 0x0 REVERT JUMPDEST SWAP1 PUSH1 0x0 MSTORE PUSH1 0x20 PUSH1 0x0 KECCAK256 SWAP1 PUSH1 0x8 MUL ADD PUSH1 0x2 ADD DUP2 SWAP1 SSTORE POP POP JUMPDEST POP POP POP JUMP JUMPDEST DUP2 SLOAD PUSH2 0x3C9 JUMPI PUSH2 0x2D8 JUMP JUMPDEST DUP2 SLOAD DUP2 LT PUSH2 0x3D6 JUMPI PUSH2 0x2D8 JUMP JUMPDEST PUSH1 0x1 DUP3 DUP3 DUP2 SLOAD DUP2 LT PUSH2 0x3F8 JUMPI PUSH4 0x4E487B71 PUSH1 0xE0 SHL PUSH1 0x0 MSTORE PUSH1 0x32 PUSH1 0x4 MSTORE PUSH1 0x24 PUSH1 0x0 REVERT JUMPDEST SWAP1 PUSH1 0x0 MSTORE PUSH1 0x20 PUSH1 0x0 KECCAK256 SWAP1 PUSH1 0x8 MUL ADD PUSH1 0x7 ADD PUSH1 0x1 PUSH2 0x100 EXP DUP2 SLOAD DUP2 PUSH1 0xFF MUL NOT AND SWAP1 DUP4 ISZERO ISZERO MUL OR SWAP1 SSTORE POP POP POP JUMP JUMPDEST PUSH1 0x8 DUP3 ADD SLOAD PUSH1 0x0 SWAP1 DUP2 SWAP1 PUSH2 0x100 SWAP1 DIV PUSH1 0xFF AND PUSH2 0x445 JUMPI POP PUSH1 0x0 SWAP1 POP DUP1 PUSH2 0x598 JUMP JUMPDEST DUP6 SLOAD PUSH2 0x456 JUMPI POP PUSH1 0x0 SWAP1 POP DUP1 PUSH2 0x598 JUMP JUMPDEST DUP6 SLOAD DUP6 LT PUSH2 0x469 JUMPI POP PUSH1 0x0 SWAP1 POP DUP1 PUSH2 0x598 JUMP JUMPDEST DUP6 DUP6 DUP2 SLOAD DUP2 LT PUSH2 0x489 JUMPI PUSH4 0x4E487B71 PUSH1 0xE0 SHL PUSH1 0x0 MSTORE PUSH1 0x32 PUSH1 0x4 MSTORE PUSH1 0x24 PUSH1 0x0 REVERT JUMPDEST PUSH1 0x0 SWAP2 DUP3 MSTORE PUSH1 0x20 SWAP1 SWAP2 KECCAK256 PUSH1 0x7 PUSH1 0x8 SWAP1 SWAP3 MUL ADD ADD SLOAD PUSH1 0xFF AND ISZERO PUSH2 0x4B0 JUMPI POP PUSH1 0x0 SWAP1 POP DUP1 PUSH2 0x598 JUMP JUMPDEST PUSH1 0x0 PUSH2 0x4DC DUP6 PUSH1 0x3 ADD SLOAD PUSH2 0x4D6 PUSH1 0x8 PUSH1 0xA PUSH2 0x4CB SWAP2 SWAP1 PUSH2 0xB0C JUMP JUMPDEST PUSH1 0x4 DUP10 ADD SLOAD SWAP1 PUSH2 0x720 JUMP JUMPDEST SWAP1 PUSH2 0x72C JUMP JUMPDEST SWAP1 POP PUSH1 0x0 DUP1 PUSH1 0x0 PUSH2 0x51E DUP11 DUP11 DUP2 SLOAD DUP2 LT PUSH2 0x506 JUMPI PUSH4 0x4E487B71 PUSH1 0xE0 SHL PUSH1 0x0 MSTORE PUSH1 0x32 PUSH1 0x4 MSTORE PUSH1 0x24 PUSH1 0x0 REVERT JUMPDEST SWAP1 PUSH1 0x0 MSTORE PUSH1 0x20 PUSH1 0x0 KECCAK256 SWAP1 PUSH1 0x8 MUL ADD PUSH1 0x6 ADD SLOAD DUP9 PUSH2 0x738 JUMP JUMPDEST SWAP1 POP PUSH2 0x541 PUSH2 0x53A DUP3 DUP11 PUSH1 0x5 ADD SLOAD PUSH2 0x7D3 SWAP1 SWAP2 SWAP1 PUSH4 0xFFFFFFFF AND JUMP JUMPDEST DUP5 SWAP1 PUSH2 0x714 JUMP JUMPDEST SWAP3 POP PUSH2 0x557 PUSH2 0x550 DUP6 DUP4 PUSH2 0x7D3 JUMP JUMPDEST DUP4 SWAP1 PUSH2 0x714 JUMP JUMPDEST PUSH1 0x7 DUP10 ADD SLOAD SWAP1 SWAP3 POP ISZERO PUSH2 0x590 JUMPI PUSH1 0x7 DUP9 ADD SLOAD PUSH2 0x574 SWAP1 DUP5 SWAP1 PUSH2 0x7E5 JUMP JUMPDEST SWAP3 POP PUSH2 0x58D DUP9 PUSH1 0x7 ADD SLOAD DUP4 PUSH2 0x7E5 SWAP1 SWAP2 SWAP1 PUSH4 0xFFFFFFFF AND JUMP JUMPDEST SWAP2 POP JUMPDEST POP SWAP1 SWAP4 POP SWAP2 POP POP JUMPDEST SWAP5 POP SWAP5 SWAP3 POP POP POP JUMP JUMPDEST PUSH1 0x0 DUP1 DUP3 PUSH1 0x2 ADD SLOAD DUP4 PUSH1 0x1 ADD SLOAD DUP5 PUSH1 0x0 ADD SLOAD PUSH2 0x5BD SWAP2 SWAP1 PUSH2 0xA97 JUMP JUMPDEST PUSH2 0x5C7 SWAP2 SWAP1 PUSH2 0xA97 JUMP JUMPDEST SWAP1 POP PUSH1 0x0 DUP2 TIMESTAMP GT PUSH2 0x5D8 JUMPI TIMESTAMP PUSH2 0x5DA JUMP JUMPDEST DUP2 JUMPDEST PUSH1 0x8 DUP6 ADD SLOAD SWAP1 SWAP2 POP PUSH1 0x0 SWAP1 PUSH1 0xFF AND ISZERO PUSH2 0x62B JUMPI PUSH2 0x628 DUP8 DUP8 DUP2 SLOAD DUP2 LT PUSH2 0x610 JUMPI PUSH4 0x4E487B71 PUSH1 0xE0 SHL PUSH1 0x0 MSTORE PUSH1 0x32 PUSH1 0x4 MSTORE PUSH1 0x24 PUSH1 0x0 REVERT JUMPDEST SWAP1 PUSH1 0x0 MSTORE PUSH1 0x20 PUSH1 0x0 KECCAK256 SWAP1 PUSH1 0x8 MUL ADD PUSH1 0x1 ADD SLOAD DUP7 PUSH2 0x80D JUMP JUMPDEST SWAP1 POP JUMPDEST PUSH1 0x0 PUSH2 0x6C2 PUSH2 0x647 DUP4 DUP9 PUSH1 0x6 ADD SLOAD PUSH2 0x714 SWAP1 SWAP2 SWAP1 PUSH4 0xFFFFFFFF AND JUMP JUMPDEST PUSH2 0x68B DUP11 DUP11 DUP2 SLOAD DUP2 LT PUSH2 0x66A JUMPI PUSH4 0x4E487B71 PUSH1 0xE0 SHL PUSH1 0x0 MSTORE PUSH1 0x32 PUSH1 0x4 MSTORE PUSH1 0x24 PUSH1 0x0 REVERT JUMPDEST SWAP1 PUSH1 0x0 MSTORE PUSH1 0x20 PUSH1 0x0 KECCAK256 SWAP1 PUSH1 0x8 MUL ADD PUSH1 0x1 ADD SLOAD DUP7 PUSH2 0x8C4 SWAP1 SWAP2 SWAP1 PUSH4 0xFFFFFFFF AND JUMP JUMPDEST DUP11 DUP11 DUP2 SLOAD DUP2 LT PUSH2 0x6AB JUMPI PUSH4 0x4E487B71 PUSH1 0xE0 SHL PUSH1 0x0 MSTORE PUSH1 0x32 PUSH1 0x4 MSTORE PUSH1 0x24 PUSH1 0x0 REVERT JUMPDEST SWAP1 PUSH1 0x0 MSTORE PUSH1 0x20 PUSH1 0x0 KECCAK256 SWAP1 PUSH1 0x8 MUL ADD PUSH1 0x0 ADD SLOAD PUSH2 0x8D0 JUMP JUMPDEST SWAP1 POP PUSH2 0x708 DUP9 DUP9 DUP2 SLOAD DUP2 LT PUSH2 0x6E7 JUMPI PUSH4 0x4E487B71 PUSH1 0xE0 SHL PUSH1 0x0 MSTORE PUSH1 0x32 PUSH1 0x4 MSTORE PUSH1 0x24 PUSH1 0x0 REVERT JUMPDEST SWAP1 PUSH1 0x0 MSTORE PUSH1 0x20 PUSH1 0x0 KECCAK256 SWAP1 PUSH1 0x8 MUL ADD PUSH1 0x2 ADD SLOAD DUP3 PUSH2 0x8C4 SWAP1 SWAP2 SWAP1 PUSH4 0xFFFFFFFF AND JUMP JUMPDEST SWAP9 SWAP8 POP POP POP POP POP POP POP POP JUMP JUMPDEST PUSH1 0x0 PUSH2 0x23E DUP3 DUP5 PUSH2 0xA97 JUMP JUMPDEST PUSH1 0x0 PUSH2 0x23E DUP3 DUP5 PUSH2 0xBED JUMP JUMPDEST PUSH1 0x0 PUSH2 0x23E DUP3 DUP5 PUSH2 0xAAF JUMP JUMPDEST PUSH1 0x0 DUP1 JUMPDEST DUP3 SLOAD DUP2 LT ISZERO PUSH2 0x7C9 JUMPI DUP3 DUP2 DUP2 SLOAD DUP2 LT PUSH2 0x765 JUMPI PUSH4 0x4E487B71 PUSH1 0xE0 SHL PUSH1 0x0 MSTORE PUSH1 0x32 PUSH1 0x4 MSTORE PUSH1 0x24 PUSH1 0x0 REVERT JUMPDEST SWAP1 PUSH1 0x0 MSTORE PUSH1 0x20 PUSH1 0x0 KECCAK256 SWAP1 PUSH1 0x2 MUL ADD PUSH1 0x0 ADD SLOAD DUP5 GT PUSH2 0x7B7 JUMPI DUP3 DUP2 DUP2 SLOAD DUP2 LT PUSH2 0x79D JUMPI PUSH4 0x4E487B71 PUSH1 0xE0 SHL PUSH1 0x0 MSTORE PUSH1 0x32 PUSH1 0x4 MSTORE PUSH1 0x24 PUSH1 0x0 REVERT JUMPDEST SWAP1 PUSH1 0x0 MSTORE PUSH1 0x20 PUSH1 0x0 KECCAK256 SWAP1 PUSH1 0x2 MUL ADD PUSH1 0x1 ADD SLOAD SWAP2 POP POP PUSH2 0x241 JUMP JUMPDEST DUP1 PUSH2 0x7C1 DUP2 PUSH2 0xC23 JUMP JUMPDEST SWAP2 POP POP PUSH2 0x73C JUMP JUMPDEST POP PUSH1 0x0 SWAP4 SWAP3 POP POP POP JUMP JUMPDEST PUSH1 0x0 PUSH2 0x23E PUSH2 0x2710 PUSH2 0x4D6 DUP6 DUP6 PUSH2 0x720 JUMP JUMPDEST PUSH1 0x0 DUP3 PUSH2 0x7F4 JUMPI POP PUSH1 0x0 PUSH2 0x241 JUMP JUMPDEST DUP2 PUSH2 0x800 JUMPI POP DUP2 PUSH2 0x241 JUMP JUMPDEST PUSH2 0x23E PUSH2 0x53A DUP5 DUP5 PUSH2 0x7D3 JUMP JUMPDEST PUSH1 0x8 DUP2 ADD SLOAD PUSH1 0x0 SWAP1 PUSH1 0xFF AND PUSH2 0x824 JUMPI POP PUSH1 0x0 PUSH2 0x241 JUMP JUMPDEST PUSH1 0x1 DUP3 ADD SLOAD DUP3 SLOAD PUSH1 0x0 SWAP2 PUSH2 0x838 SWAP2 SWAP1 PUSH2 0x714 JUMP JUMPDEST SWAP1 POP PUSH1 0x0 PUSH2 0x846 DUP3 DUP7 PUSH2 0x8C4 JUMP JUMPDEST SWAP1 POP PUSH3 0x2A300 DUP2 LT ISZERO PUSH2 0x85E JUMPI PUSH1 0x0 SWAP3 POP POP POP PUSH2 0x241 JUMP JUMPDEST PUSH3 0x3F480 DUP2 LT ISZERO PUSH2 0x874 JUMPI PUSH1 0x64 SWAP3 POP POP POP PUSH2 0x241 JUMP JUMPDEST PUSH3 0x54600 DUP2 LT ISZERO PUSH2 0x88A JUMPI PUSH1 0xC8 SWAP3 POP POP POP PUSH2 0x241 JUMP JUMPDEST PUSH3 0x69780 DUP2 LT ISZERO PUSH2 0x8A1 JUMPI PUSH2 0x12C SWAP3 POP POP POP PUSH2 0x241 JUMP JUMPDEST PUSH3 0x7E900 DUP2 LT ISZERO PUSH2 0x8B8 JUMPI PUSH2 0x190 SWAP3 POP POP POP PUSH2 0x241 JUMP JUMPDEST PUSH2 0x1F4 SWAP3 POP POP POP PUSH2 0x241 JUMP JUMPDEST PUSH1 0x0 PUSH2 0x23E DUP3 DUP5 PUSH2 0xC0C JUMP JUMPDEST PUSH1 0x0 PUSH4 0x1E13380 DUP2 PUSH2 0x8F1 PUSH4 0x5F5E100 PUSH2 0x8EB PUSH1 0x2 DUP6 PUSH2 0xB1B JUMP JUMPDEST SWAP1 PUSH2 0x720 JUMP JUMPDEST SWAP1 POP PUSH1 0x0 PUSH2 0x907 PUSH2 0x1388 PUSH2 0x8EB DUP6 DUP2 DUP11 DUP13 PUSH2 0x720 JUMP JUMPDEST SWAP1 POP PUSH1 0x0 PUSH2 0x926 PUSH2 0x1388 PUSH2 0x8EB PUSH2 0x91F PUSH1 0x2 DUP9 PUSH2 0xB1B JUMP JUMPDEST DUP12 SWAP1 PUSH2 0x720 JUMP JUMPDEST SWAP1 POP PUSH1 0x0 PUSH2 0x948 PUSH1 0x6 PUSH2 0x4D6 PUSH2 0x93D PUSH1 0x2 DUP14 PUSH2 0xB1B JUMP JUMPDEST PUSH2 0x8EB PUSH1 0x2 DUP14 PUSH2 0xB1B JUMP JUMPDEST SWAP1 POP PUSH1 0x0 PUSH2 0x96C PUSH1 0x2 PUSH2 0x4D6 DUP9 PUSH2 0x8EB PUSH1 0x2 DUP16 PUSH2 0x965 SWAP2 SWAP1 PUSH2 0xB1B JUMP JUMPDEST DUP15 SWAP1 PUSH2 0x720 JUMP JUMPDEST SWAP1 POP PUSH1 0x0 PUSH2 0x990 PUSH1 0x3 PUSH2 0x4D6 PUSH2 0x983 PUSH1 0x2 DUP12 PUSH2 0xB1B JUMP JUMPDEST PUSH1 0x2 DUP16 PUSH2 0x8EB SWAP2 SWAP1 PUSH2 0xB1B JUMP JUMPDEST SWAP1 POP PUSH1 0x0 PUSH2 0x9AA DUP3 PUSH2 0x9A4 DUP7 DUP2 DUP12 DUP12 PUSH2 0x714 JUMP JUMPDEST SWAP1 PUSH2 0x714 JUMP JUMPDEST SWAP1 POP PUSH2 0x9C0 DUP4 PUSH2 0x9BA DUP4 DUP9 PUSH2 0x8C4 JUMP JUMPDEST SWAP1 PUSH2 0x8C4 JUMP JUMPDEST SWAP1 POP PUSH2 0x9D0 DUP12 PUSH2 0x8EB DUP4 DUP16 PUSH2 0x720 JUMP JUMPDEST SWAP1 POP PUSH2 0x9F3 PUSH5 0xE8D4A51000 PUSH2 0x4D6 PUSH2 0x9E9 PUSH1 0x3 DUP13 PUSH2 0xB1B JUMP JUMPDEST PUSH2 0x4D6 DUP6 DUP16 PUSH2 0x720 JUMP JUMPDEST SWAP13 SWAP12 POP POP POP POP POP POP POP POP POP POP POP POP JUMP JUMPDEST PUSH1 0x0 DUP1 PUSH1 0x40 DUP4 DUP6 SUB SLT ISZERO PUSH2 0xA15 JUMPI DUP2 DUP3 REVERT JUMPDEST POP POP DUP1 CALLDATALOAD SWAP3 PUSH1 0x20 SWAP1 SWAP2 ADD CALLDATALOAD SWAP2 POP JUMP JUMPDEST PUSH1 0x0 DUP1 PUSH1 0x0 PUSH1 0x60 DUP5 DUP7 SUB SLT ISZERO PUSH2 0xA38 JUMPI DUP1 DUP2 REVERT JUMPDEST POP POP DUP2 CALLDATALOAD SWAP4 PUSH1 0x20 DUP4 ADD CALLDATALOAD SWAP4 POP PUSH1 0x40 SWAP1 SWAP3 ADD CALLDATALOAD SWAP2 SWAP1 POP JUMP JUMPDEST PUSH1 0x0 DUP1 PUSH1 0x0 DUP1 PUSH1 0x80 DUP6 DUP8 SUB SLT ISZERO PUSH2 0xA64 JUMPI DUP1 DUP2 REVERT JUMPDEST POP POP DUP3 CALLDATALOAD SWAP5 PUSH1 0x20 DUP5 ADD CALLDATALOAD SWAP5 POP PUSH1 0x40 DUP5 ADD CALLDATALOAD SWAP4 PUSH1 0x60 ADD CALLDATALOAD SWAP3 POP SWAP1 POP JUMP JUMPDEST SWAP1 DUP2 MSTORE PUSH1 0x20 ADD SWAP1 JUMP JUMPDEST SWAP2 DUP3 MSTORE PUSH1 0x20 DUP3 ADD MSTORE PUSH1 0x40 ADD SWAP1 JUMP JUMPDEST PUSH1 0x0 DUP3 NOT DUP3 GT ISZERO PUSH2 0xAAA JUMPI PUSH2 0xAAA PUSH2 0xC3E JUMP JUMPDEST POP ADD SWAP1 JUMP JUMPDEST PUSH1 0x0 DUP3 PUSH2 0xACA JUMPI PUSH4 0x4E487B71 PUSH1 0xE0 SHL DUP2 MSTORE PUSH1 0x12 PUSH1 0x4 MSTORE PUSH1 0x24 DUP2 REVERT JUMPDEST POP DIV SWAP1 JUMP JUMPDEST DUP1 DUP3 JUMPDEST PUSH1 0x1 DUP1 DUP7 GT PUSH2 0xAE1 JUMPI POP PUSH2 0x598 JUMP JUMPDEST DUP2 DUP8 DIV DUP3 GT ISZERO PUSH2 0xAF3 JUMPI PUSH2 0xAF3 PUSH2 0xC3E JUMP JUMPDEST DUP1 DUP7 AND ISZERO PUSH2 0xB00 JUMPI SWAP2 DUP2 MUL SWAP2 JUMPDEST SWAP5 SWAP1 SWAP5 SHR SWAP4 DUP1 MUL PUSH2 0xAD2 JUMP JUMPDEST PUSH1 0x0 PUSH2 0x23E PUSH1 0x0 NOT DUP5 DUP5 PUSH2 0xB29 JUMP JUMPDEST PUSH1 0x0 PUSH2 0x23E PUSH1 0x0 NOT PUSH1 0xFF DUP6 AND DUP5 JUMPDEST PUSH1 0x0 DUP3 PUSH2 0xB38 JUMPI POP PUSH1 0x1 PUSH2 0x193 JUMP JUMPDEST DUP2 PUSH2 0xB45 JUMPI POP PUSH1 0x0 PUSH2 0x193 JUMP JUMPDEST DUP2 PUSH1 0x1 DUP2 EQ PUSH2 0xB5B JUMPI PUSH1 0x2 DUP2 EQ PUSH2 0xB65 JUMPI PUSH2 0xB92 JUMP JUMPDEST PUSH1 0x1 SWAP2 POP POP PUSH2 0x193 JUMP JUMPDEST PUSH1 0xFF DUP5 GT ISZERO PUSH2 0xB76 JUMPI PUSH2 0xB76 PUSH2 0xC3E JUMP JUMPDEST PUSH1 0x1 DUP5 SHL SWAP2 POP DUP5 DUP3 GT ISZERO PUSH2 0xB8C JUMPI PUSH2 0xB8C PUSH2 0xC3E JUMP JUMPDEST POP PUSH2 0x193 JUMP JUMPDEST POP PUSH1 0x20 DUP4 LT PUSH2 0x133 DUP4 LT AND PUSH1 0x4E DUP5 LT PUSH1 0xB DUP5 LT AND OR ISZERO PUSH2 0xBC5 JUMPI POP DUP2 DUP2 EXP DUP4 DUP2 GT ISZERO PUSH2 0xBC0 JUMPI PUSH2 0xBC0 PUSH2 0xC3E JUMP JUMPDEST PUSH2 0x193 JUMP JUMPDEST PUSH2 0xBD2 DUP5 DUP5 DUP5 PUSH1 0x1 PUSH2 0xACF JUMP JUMPDEST DUP1 DUP7 DIV DUP3 GT ISZERO PUSH2 0xBE4 JUMPI PUSH2 0xBE4 PUSH2 0xC3E JUMP JUMPDEST MUL SWAP5 SWAP4 POP POP POP POP JUMP JUMPDEST PUSH1 0x0 DUP2 PUSH1 0x0 NOT DIV DUP4 GT DUP3 ISZERO ISZERO AND ISZERO PUSH2 0xC07 JUMPI PUSH2 0xC07 PUSH2 0xC3E JUMP JUMPDEST POP MUL SWAP1 JUMP JUMPDEST PUSH1 0x0 DUP3 DUP3 LT ISZERO PUSH2 0xC1E JUMPI PUSH2 0xC1E PUSH2 0xC3E JUMP JUMPDEST POP SUB SWAP1 JUMP JUMPDEST PUSH1 0x0 PUSH1 0x0 NOT DUP3 EQ ISZERO PUSH2 0xC37 JUMPI PUSH2 0xC37 PUSH2 0xC3E JUMP JUMPDEST POP PUSH1 0x1 ADD SWAP1 JUMP JUMPDEST PUSH4 0x4E487B71 PUSH1 0xE0 SHL PUSH1 0x0 MSTORE PUSH1 0x11 PUSH1 0x4 MSTORE PUSH1 0x24 PUSH1 0x0 REVERT INVALID LOG2 PUSH5 0x6970667358 0x22 SLT KECCAK256 PUSH24 0x12CA171D2E8798C8AEBD4DA5AA007F72D5C9A7982AE5EAD6 PUSH22 0xAAA314A4031F64736F6C634300080000330000000000 "
    },
    "gasEstimates": {
      "creation": {
        "codeDepositCost": "642000",
        "executionCost": "707",
        "totalCost": "642707"
      },
      "external": {
        "getIndexedPrize(StakingPoolStorageStructure.StakeWithPrediction[] storage,uint256,StakingPoolStorageStructure.LibParams storage,StakingPoolStorageStructure.PrizeRewardRate[] storage)": "infinite",
        "getIndexedStakedBalance(StakingPoolStorageStructure.StakeWithPrediction[] storage,uint256)": "infinite",
        "getIndexedStakingReturn(StakingPoolStorageStructure.StakeWithPrediction[] storage,uint256,StakingPoolStorageStructure.LibParams storage)": "infinite",
        "oracleDecimal()": "212",
        "withdrawIndexedPrize(StakingPoolStorageStructure.StakeWithPrediction[] storage,uint256)": "24600",
        "withdrawIndexedStakedBalance(StakingPoolStorageStructure.StakeWithPrediction[] storage,uint256)": "23755",
        "withdrawIndexedStakingReturn(StakingPoolStorageStructure.StakeWithPrediction[] storage,uint256,StakingPoolStorageStructure.LibParams storage)": "infinite"
      }
    },
    "methodIdentifiers": {
      "getIndexedPrize(StakingPoolStorageStructure.StakeWithPrediction[] storage,uint256,StakingPoolStorageStructure.LibParams storage,StakingPoolStorageStructure.PrizeRewardRate[] storage)": "f7ac9cba",
      "getIndexedStakedBalance(StakingPoolStorageStructure.StakeWithPrediction[] storage,uint256)": "5eac7af3",
      "getIndexedStakingReturn(StakingPoolStorageStructure.StakeWithPrediction[] storage,uint256,StakingPoolStorageStructure.LibParams storage)": "4f160423",
      "oracleDecimal()": "a150194b",
      "withdrawIndexedPrize(StakingPoolStorageStructure.StakeWithPrediction[] storage,uint256)": "93aaeaf9",
      "withdrawIndexedStakedBalance(StakingPoolStorageStructure.StakeWithPrediction[] storage,uint256)": "ec8ecc02",
      "withdrawIndexedStakingReturn(StakingPoolStorageStructure.StakeWithPrediction[] storage,uint256,StakingPoolStorageStructure.LibParams storage)": "eaff3050"
    }
  },
  "storageLayout": {
    "storage": [],
    "types": null
  },
  "userdoc": {
    "kind": "user",
    "methods": {},
    "version": 1
  }
}