{
  "contractName": "PrivateSaleVesting",
  "sourceName": "contracts/TotemVesting/PrivateSaleVesting.sol",
  "abi": [
    {
      "inputs": [
        {
          "internalType": "contract TotemToken",
          "name": "_totemToken",
          "type": "address"
        }
      ],
      "stateMutability": "nonpayable",
      "type": "constructor"
    },
    {
      "anonymous": false,
      "inputs": [
        {
          "indexed": true,
          "internalType": "address",
          "name": "previousOwner",
          "type": "address"
        },
        {
          "indexed": true,
          "internalType": "address",
          "name": "newOwner",
          "type": "address"
        }
      ],
      "name": "OwnershipTransferred",
      "type": "event"
    },
    {
      "anonymous": false,
      "inputs": [
        {
          "indexed": false,
          "internalType": "uint256",
          "name": "startTime",
          "type": "uint256"
        }
      ],
      "name": "StartTimeSet",
      "type": "event"
    },
    {
      "anonymous": false,
      "inputs": [
        {
          "indexed": false,
          "internalType": "address",
          "name": "registeredAddress",
          "type": "address"
        },
        {
          "indexed": false,
          "internalType": "uint256",
          "name": "totalAmount",
          "type": "uint256"
        }
      ],
      "name": "VestingScheduleRegistered",
      "type": "event"
    },
    {
      "anonymous": false,
      "inputs": [
        {
          "indexed": false,
          "internalType": "address",
          "name": "registeredAddress",
          "type": "address"
        },
        {
          "indexed": false,
          "internalType": "uint256",
          "name": "amountWithdrawn",
          "type": "uint256"
        }
      ],
      "name": "Withdraw",
      "type": "event"
    },
    {
      "inputs": [],
      "name": "INITIAL_UNLOCK",
      "outputs": [
        {
          "internalType": "uint256",
          "name": "",
          "type": "uint256"
        }
      ],
      "stateMutability": "view",
      "type": "function"
    },
    {
      "inputs": [],
      "name": "LOCK_PERIODS",
      "outputs": [
        {
          "internalType": "uint256",
          "name": "",
          "type": "uint256"
        }
      ],
      "stateMutability": "view",
      "type": "function"
    },
    {
      "inputs": [],
      "name": "RELEASE_PERIODS",
      "outputs": [
        {
          "internalType": "uint256",
          "name": "",
          "type": "uint256"
        }
      ],
      "stateMutability": "view",
      "type": "function"
    },
    {
      "inputs": [],
      "name": "TOTAL_AMOUNT",
      "outputs": [
        {
          "internalType": "uint256",
          "name": "",
          "type": "uint256"
        }
      ],
      "stateMutability": "view",
      "type": "function"
    },
    {
      "inputs": [],
      "name": "WITHDRAW_INTERVAL",
      "outputs": [
        {
          "internalType": "uint256",
          "name": "",
          "type": "uint256"
        }
      ],
      "stateMutability": "view",
      "type": "function"
    },
    {
      "inputs": [
        {
          "internalType": "address",
          "name": "_newRecipient",
          "type": "address"
        },
        {
          "internalType": "uint256",
          "name": "_totalAmount",
          "type": "uint256"
        }
      ],
      "name": "addRecipient",
      "outputs": [],
      "stateMutability": "nonpayable",
      "type": "function"
    },
    {
      "inputs": [],
      "name": "isStartTimeSet",
      "outputs": [
        {
          "internalType": "bool",
          "name": "",
          "type": "bool"
        }
      ],
      "stateMutability": "view",
      "type": "function"
    },
    {
      "inputs": [],
      "name": "lockPeriods",
      "outputs": [
        {
          "internalType": "uint256",
          "name": "",
          "type": "uint256"
        }
      ],
      "stateMutability": "view",
      "type": "function"
    },
    {
      "inputs": [],
      "name": "owner",
      "outputs": [
        {
          "internalType": "address",
          "name": "",
          "type": "address"
        }
      ],
      "stateMutability": "view",
      "type": "function"
    },
    {
      "inputs": [
        {
          "internalType": "address",
          "name": "",
          "type": "address"
        }
      ],
      "name": "recipients",
      "outputs": [
        {
          "internalType": "uint256",
          "name": "totalAmount",
          "type": "uint256"
        },
        {
          "internalType": "uint256",
          "name": "amountWithdrawn",
          "type": "uint256"
        }
      ],
      "stateMutability": "view",
      "type": "function"
    },
    {
      "inputs": [],
      "name": "releasePeriods",
      "outputs": [
        {
          "internalType": "uint256",
          "name": "",
          "type": "uint256"
        }
      ],
      "stateMutability": "view",
      "type": "function"
    },
    {
      "inputs": [],
      "name": "renounceOwnership",
      "outputs": [],
      "stateMutability": "nonpayable",
      "type": "function"
    },
    {
      "inputs": [
        {
          "internalType": "uint256",
          "name": "_newStartTime",
          "type": "uint256"
        }
      ],
      "name": "setStartTime",
      "outputs": [],
      "stateMutability": "nonpayable",
      "type": "function"
    },
    {
      "inputs": [],
      "name": "startTime",
      "outputs": [
        {
          "internalType": "uint256",
          "name": "",
          "type": "uint256"
        }
      ],
      "stateMutability": "view",
      "type": "function"
    },
    {
      "inputs": [],
      "name": "totalAmount",
      "outputs": [
        {
          "internalType": "uint256",
          "name": "",
          "type": "uint256"
        }
      ],
      "stateMutability": "view",
      "type": "function"
    },
    {
      "inputs": [],
      "name": "totemToken",
      "outputs": [
        {
          "internalType": "contract TotemToken",
          "name": "",
          "type": "address"
        }
      ],
      "stateMutability": "view",
      "type": "function"
    },
    {
      "inputs": [
        {
          "internalType": "address",
          "name": "newOwner",
          "type": "address"
        }
      ],
      "name": "transferOwnership",
      "outputs": [],
      "stateMutability": "nonpayable",
      "type": "function"
    },
    {
      "inputs": [],
      "name": "unallocatedAmount",
      "outputs": [
        {
          "internalType": "uint256",
          "name": "",
          "type": "uint256"
        }
      ],
      "stateMutability": "view",
      "type": "function"
    },
    {
      "inputs": [
        {
          "internalType": "address",
          "name": "beneficiary",
          "type": "address"
        }
      ],
      "name": "vested",
      "outputs": [
        {
          "internalType": "uint256",
          "name": "_amountVested",
          "type": "uint256"
        }
      ],
      "stateMutability": "view",
      "type": "function"
    },
    {
      "inputs": [],
      "name": "withdraw",
      "outputs": [],
      "stateMutability": "nonpayable",
      "type": "function"
    },
    {
      "inputs": [],
      "name": "withdrawInterval",
      "outputs": [
        {
          "internalType": "uint256",
          "name": "",
          "type": "uint256"
        }
      ],
      "stateMutability": "view",
      "type": "function"
    },
    {
      "inputs": [
        {
          "internalType": "address",
          "name": "beneficiary",
          "type": "address"
        }
      ],
      "name": "withdrawable",
      "outputs": [
        {
          "internalType": "uint256",
          "name": "amount",
          "type": "uint256"
        }
      ],
      "stateMutability": "view",
      "type": "function"
    }
  ],
  "bytecode": "0x608060405234801561001057600080fd5b50604051610e4f380380610e4f8339818101604052602081101561003357600080fd5b5051806a01a784379d99db4200000062278d006005600080610053610109565b600080546001600160a01b0319166001600160a01b0383169081178255604051929350917f8be0079c531659141344cd1fd0a4f28419497f9722a3daafe3b4186f6b6457e0908290a350600084116100aa57600080fd5b600083116100b757600080fd5b600082116100c457600080fd5b600980546001600160a01b0319166001600160a01b0396909616959095179094556007839055600892909255600455600555600655506003805460ff1916905561010d565b3390565b610d338061011c6000396000f3fe608060405234801561001057600080fd5b50600436106101415760003560e01c8063715018a6116100b8578063e8153c931161007c578063e8153c9314610247578063eb8203121461024f578063f2fde38b1461028e578063f361c59b146102b4578063f57c8cdf146102d0578063f7982243146102d857610141565b8063715018a6146101e557806378e97925146101ed5780638da5cb5b146101f5578063a2d7f5e314610219578063ce513b6f1461022157610141565b80633ccfd60b1161010a5780633ccfd60b146101805780633e0a322d1461018a578063494051a0146101a75780634afe5bf3146101af5780634b3a5fa8146101b75780637102b728146101bf57610141565b8062ad3a2314610146578063162075d8146101605780631a39d8ef146101685780632509e0861461017057806330c6b5eb14610178575b600080fd5b61014e610304565b60408051918252519081900360200190f35b61014e610309565b61014e61030f565b61014e610315565b61014e61031b565b610188610322565b005b610188600480360360208110156101a057600080fd5b5035610473565b61014e610545565b61014e61054a565b61014e610550565b61014e600480360360208110156101d557600080fd5b50356001600160a01b0316610556565b610188610744565b61014e6107f0565b6101fd6107f6565b604080516001600160a01b039092168252519081900360200190f35b61014e610805565b61014e6004803603602081101561023757600080fd5b50356001600160a01b0316610814565b6101fd610849565b6102756004803603602081101561026557600080fd5b50356001600160a01b0316610858565b6040805192835260208301919091528051918290030190f35b610188600480360360208110156102a457600080fd5b50356001600160a01b0316610871565b6102bc610973565b604080519115158252519081900360200190f35b61014e61097c565b610188600480360360408110156102ee57600080fd5b506001600160a01b038135169060200135610982565b600581565b60045481565b60075481565b60065481565b62278d0081565b600060016000610330610b02565b6001600160a01b03168152602081019190915260400160002080549091506103585750610471565b600061036a610365610b02565b610556565b9050600061037e610379610b02565b610814565b600184018390559050801561046d576009546001600160a01b031663a9059cbb6103a6610b02565b836040518363ffffffff1660e01b815260040180836001600160a01b0316815260200182815260200192505050602060405180830381600087803b1580156103ed57600080fd5b505af1158015610401573d6000803e3d6000fd5b505050506040513d602081101561041757600080fd5b505161042257600080fd5b7f884edad9ce6fa2440d8a54cc123490eb96d2768479d49ff9c7366125a942436461044b610b02565b604080516001600160a01b039092168252602082018490528051918290030190a15b5050505b565b61047b610b02565b6001600160a01b031661048c6107f6565b6001600160a01b0316146104d5576040805162461bcd60e51b81526020600482018190526024820152600080516020610cde833981519152604482015290519081900360640190fd5b60035460ff1615806104e8575042600254115b6104f157600080fd5b4281116104fd57600080fd5b60028190556003805460ff191660011790556040805182815290517faad53c4362ef2fe5a5390cc046e71fd8423a0a8dceebc156ac9bbcd15997eec29181900360200190a150565b600081565b60085481565b6108ca81565b6001600160a01b0381166000908152600160208181526040808420815180830190925280548252909201549082015260035460ff16158061059657508051155b806105ac57506006541580156105ac5750600554155b806105b8575060025442105b156105c757600091505061073f565b60006105e0600654600454610b0690919063ffffffff16565b6002549091506105f09082610b66565b4210156106025760009250505061073f565b600061062761061e600554600654610b6690919063ffffffff16565b60045490610b06565b6002549091506106379082610b66565b421061064757505051905061073f565b600061066a60045461066460025442610bc090919063ffffffff16565b90610c1d565b6001019050600654811161068557600094505050505061073f565b60055460065461069491610b66565b81106106a75750509051915061073f9050565b83516000906106b8906108ca610c84565b90506106cf60065483610bc090919063ffffffff16565b600114156106e357945061073f9350505050565b6000610705600160055403610664848960000151610bc090919063ffffffff16565b905060006107358361072f8461072960065460010189610bc090919063ffffffff16565b90610b06565b90610b66565b9750505050505050505b919050565b61074c610b02565b6001600160a01b031661075d6107f6565b6001600160a01b0316146107a6576040805162461bcd60e51b81526020600482018190526024820152600080516020610cde833981519152604482015290519081900360640190fd5b600080546040516001600160a01b03909116907f8be0079c531659141344cd1fd0a4f28419497f9722a3daafe3b4186f6b6457e0908390a3600080546001600160a01b0319169055565b60025481565b6000546001600160a01b031690565b6a01a784379d99db4200000081565b6001600160a01b0381166000908152600160208190526040822001546108439061083d84610556565b90610bc0565b92915050565b6009546001600160a01b031681565b6001602081905260009182526040909120805491015482565b610879610b02565b6001600160a01b031661088a6107f6565b6001600160a01b0316146108d3576040805162461bcd60e51b81526020600482018190526024820152600080516020610cde833981519152604482015290519081900360640190fd5b6001600160a01b0381166109185760405162461bcd60e51b8152600401808060200182810382526026815260200180610c976026913960400191505060405180910390fd5b600080546040516001600160a01b03808516939216917f8be0079c531659141344cd1fd0a4f28419497f9722a3daafe3b4186f6b6457e091a3600080546001600160a01b0319166001600160a01b0392909216919091179055565b60035460ff1681565b60055481565b61098a610b02565b6001600160a01b031661099b6107f6565b6001600160a01b0316146109e4576040805162461bcd60e51b81526020600482018190526024820152600080516020610cde833981519152604482015290519081900360640190fd5b60035460ff1615806109f7575042600254115b610a0057600080fd5b6001600160a01b038216610a1357600080fd5b6001600160a01b03821660009081526001602052604090205415610a5a576001600160a01b038216600090815260016020526040902054600854610a5691610b66565b6008555b600081118015610a6c57506008548111155b610a7557600080fd5b604080518082018252828152600060208083018281526001600160a01b038716835260019182905293909120915182559151910155600854610ab79082610bc0565b600855604080516001600160a01b03841681526020810183905281517f16e42921daee38136dc17f8420c371163ec8299e5299fb480d7aeff85cfac3eb929181900390910190a15050565b3390565b600082610b1557506000610843565b82820282848281610b2257fe5b0414610b5f5760405162461bcd60e51b8152600401808060200182810382526021815260200180610cbd6021913960400191505060405180910390fd5b9392505050565b600082820183811015610b5f576040805162461bcd60e51b815260206004820152601b60248201527f536166654d6174683a206164646974696f6e206f766572666c6f770000000000604482015290519081900360640190fd5b600082821115610c17576040805162461bcd60e51b815260206004820152601e60248201527f536166654d6174683a207375627472616374696f6e206f766572666c6f770000604482015290519081900360640190fd5b50900390565b6000808211610c73576040805162461bcd60e51b815260206004820152601a60248201527f536166654d6174683a206469766973696f6e206279207a65726f000000000000604482015290519081900360640190fd5b818381610c7c57fe5b049392505050565b6000610b5f6127106106648585610b0656fe4f776e61626c653a206e6577206f776e657220697320746865207a65726f2061646472657373536166654d6174683a206d756c7469706c69636174696f6e206f766572666c6f774f776e61626c653a2063616c6c6572206973206e6f7420746865206f776e6572a2646970667358221220f2c6aa80aab380ac2cbbd27dcc250fb0a1d7cd9db8159423094780e5c59bf62964736f6c63430007060033",
  "linkReferences": {},
  "deployedLinkReferences": {},
  "devdoc": {
    "kind": "dev",
    "methods": {
      "owner()": {
        "details": "Returns the address of the current owner."
      },
      "renounceOwnership()": {
        "details": "Leaves the contract without owner. It will not be possible to call `onlyOwner` functions anymore. Can only be called by the current owner. NOTE: Renouncing ownership will leave the contract without an owner, thereby removing any functionality that is only available to the owner."
      },
      "transferOwnership(address)": {
        "details": "Transfers ownership of the contract to a new account (`newOwner`). Can only be called by the current owner."
      }
    },
    "version": 1
  },
  "evm": {
    "bytecode": {
      "linkReferences": {},
      "opcodes": "PUSH1 0x80 PUSH1 0x40 MSTORE CALLVALUE DUP1 ISZERO PUSH2 0x10 JUMPI PUSH1 0x0 DUP1 REVERT JUMPDEST POP PUSH1 0x40 MLOAD PUSH2 0xE4F CODESIZE SUB DUP1 PUSH2 0xE4F DUP4 CODECOPY DUP2 DUP2 ADD PUSH1 0x40 MSTORE PUSH1 0x20 DUP2 LT ISZERO PUSH2 0x33 JUMPI PUSH1 0x0 DUP1 REVERT JUMPDEST POP MLOAD DUP1 PUSH11 0x1A784379D99DB42000000 PUSH3 0x278D00 PUSH1 0x5 PUSH1 0x0 DUP1 PUSH2 0x53 PUSH2 0x109 JUMP JUMPDEST PUSH1 0x0 DUP1 SLOAD PUSH1 0x1 PUSH1 0x1 PUSH1 0xA0 SHL SUB NOT AND PUSH1 0x1 PUSH1 0x1 PUSH1 0xA0 SHL SUB DUP4 AND SWAP1 DUP2 OR DUP3 SSTORE PUSH1 0x40 MLOAD SWAP3 SWAP4 POP SWAP2 PUSH32 0x8BE0079C531659141344CD1FD0A4F28419497F9722A3DAAFE3B4186F6B6457E0 SWAP1 DUP3 SWAP1 LOG3 POP PUSH1 0x0 DUP5 GT PUSH2 0xAA JUMPI PUSH1 0x0 DUP1 REVERT JUMPDEST PUSH1 0x0 DUP4 GT PUSH2 0xB7 JUMPI PUSH1 0x0 DUP1 REVERT JUMPDEST PUSH1 0x0 DUP3 GT PUSH2 0xC4 JUMPI PUSH1 0x0 DUP1 REVERT JUMPDEST PUSH1 0x9 DUP1 SLOAD PUSH1 0x1 PUSH1 0x1 PUSH1 0xA0 SHL SUB NOT AND PUSH1 0x1 PUSH1 0x1 PUSH1 0xA0 SHL SUB SWAP7 SWAP1 SWAP7 AND SWAP6 SWAP1 SWAP6 OR SWAP1 SWAP5 SSTORE PUSH1 0x7 DUP4 SWAP1 SSTORE PUSH1 0x8 SWAP3 SWAP1 SWAP3 SSTORE PUSH1 0x4 SSTORE PUSH1 0x5 SSTORE PUSH1 0x6 SSTORE POP PUSH1 0x3 DUP1 SLOAD PUSH1 0xFF NOT AND SWAP1 SSTORE PUSH2 0x10D JUMP JUMPDEST CALLER SWAP1 JUMP JUMPDEST PUSH2 0xD33 DUP1 PUSH2 0x11C PUSH1 0x0 CODECOPY PUSH1 0x0 RETURN INVALID PUSH1 0x80 PUSH1 0x40 MSTORE CALLVALUE DUP1 ISZERO PUSH2 0x10 JUMPI PUSH1 0x0 DUP1 REVERT JUMPDEST POP PUSH1 0x4 CALLDATASIZE LT PUSH2 0x141 JUMPI PUSH1 0x0 CALLDATALOAD PUSH1 0xE0 SHR DUP1 PUSH4 0x715018A6 GT PUSH2 0xB8 JUMPI DUP1 PUSH4 0xE8153C93 GT PUSH2 0x7C JUMPI DUP1 PUSH4 0xE8153C93 EQ PUSH2 0x247 JUMPI DUP1 PUSH4 0xEB820312 EQ PUSH2 0x24F JUMPI DUP1 PUSH4 0xF2FDE38B EQ PUSH2 0x28E JUMPI DUP1 PUSH4 0xF361C59B EQ PUSH2 0x2B4 JUMPI DUP1 PUSH4 0xF57C8CDF EQ PUSH2 0x2D0 JUMPI DUP1 PUSH4 0xF7982243 EQ PUSH2 0x2D8 JUMPI PUSH2 0x141 JUMP JUMPDEST DUP1 PUSH4 0x715018A6 EQ PUSH2 0x1E5 JUMPI DUP1 PUSH4 0x78E97925 EQ PUSH2 0x1ED JUMPI DUP1 PUSH4 0x8DA5CB5B EQ PUSH2 0x1F5 JUMPI DUP1 PUSH4 0xA2D7F5E3 EQ PUSH2 0x219 JUMPI DUP1 PUSH4 0xCE513B6F EQ PUSH2 0x221 JUMPI PUSH2 0x141 JUMP JUMPDEST DUP1 PUSH4 0x3CCFD60B GT PUSH2 0x10A JUMPI DUP1 PUSH4 0x3CCFD60B EQ PUSH2 0x180 JUMPI DUP1 PUSH4 0x3E0A322D EQ PUSH2 0x18A JUMPI DUP1 PUSH4 0x494051A0 EQ PUSH2 0x1A7 JUMPI DUP1 PUSH4 0x4AFE5BF3 EQ PUSH2 0x1AF JUMPI DUP1 PUSH4 0x4B3A5FA8 EQ PUSH2 0x1B7 JUMPI DUP1 PUSH4 0x7102B728 EQ PUSH2 0x1BF JUMPI PUSH2 0x141 JUMP JUMPDEST DUP1 PUSH3 0xAD3A23 EQ PUSH2 0x146 JUMPI DUP1 PUSH4 0x162075D8 EQ PUSH2 0x160 JUMPI DUP1 PUSH4 0x1A39D8EF EQ PUSH2 0x168 JUMPI DUP1 PUSH4 0x2509E086 EQ PUSH2 0x170 JUMPI DUP1 PUSH4 0x30C6B5EB EQ PUSH2 0x178 JUMPI JUMPDEST PUSH1 0x0 DUP1 REVERT JUMPDEST PUSH2 0x14E PUSH2 0x304 JUMP JUMPDEST PUSH1 0x40 DUP1 MLOAD SWAP2 DUP3 MSTORE MLOAD SWAP1 DUP2 SWAP1 SUB PUSH1 0x20 ADD SWAP1 RETURN JUMPDEST PUSH2 0x14E PUSH2 0x309 JUMP JUMPDEST PUSH2 0x14E PUSH2 0x30F JUMP JUMPDEST PUSH2 0x14E PUSH2 0x315 JUMP JUMPDEST PUSH2 0x14E PUSH2 0x31B JUMP JUMPDEST PUSH2 0x188 PUSH2 0x322 JUMP JUMPDEST STOP JUMPDEST PUSH2 0x188 PUSH1 0x4 DUP1 CALLDATASIZE SUB PUSH1 0x20 DUP2 LT ISZERO PUSH2 0x1A0 JUMPI PUSH1 0x0 DUP1 REVERT JUMPDEST POP CALLDATALOAD PUSH2 0x473 JUMP JUMPDEST PUSH2 0x14E PUSH2 0x545 JUMP JUMPDEST PUSH2 0x14E PUSH2 0x54A JUMP JUMPDEST PUSH2 0x14E PUSH2 0x550 JUMP JUMPDEST PUSH2 0x14E PUSH1 0x4 DUP1 CALLDATASIZE SUB PUSH1 0x20 DUP2 LT ISZERO PUSH2 0x1D5 JUMPI PUSH1 0x0 DUP1 REVERT JUMPDEST POP CALLDATALOAD PUSH1 0x1 PUSH1 0x1 PUSH1 0xA0 SHL SUB AND PUSH2 0x556 JUMP JUMPDEST PUSH2 0x188 PUSH2 0x744 JUMP JUMPDEST PUSH2 0x14E PUSH2 0x7F0 JUMP JUMPDEST PUSH2 0x1FD PUSH2 0x7F6 JUMP JUMPDEST PUSH1 0x40 DUP1 MLOAD PUSH1 0x1 PUSH1 0x1 PUSH1 0xA0 SHL SUB SWAP1 SWAP3 AND DUP3 MSTORE MLOAD SWAP1 DUP2 SWAP1 SUB PUSH1 0x20 ADD SWAP1 RETURN JUMPDEST PUSH2 0x14E PUSH2 0x805 JUMP JUMPDEST PUSH2 0x14E PUSH1 0x4 DUP1 CALLDATASIZE SUB PUSH1 0x20 DUP2 LT ISZERO PUSH2 0x237 JUMPI PUSH1 0x0 DUP1 REVERT JUMPDEST POP CALLDATALOAD PUSH1 0x1 PUSH1 0x1 PUSH1 0xA0 SHL SUB AND PUSH2 0x814 JUMP JUMPDEST PUSH2 0x1FD PUSH2 0x849 JUMP JUMPDEST PUSH2 0x275 PUSH1 0x4 DUP1 CALLDATASIZE SUB PUSH1 0x20 DUP2 LT ISZERO PUSH2 0x265 JUMPI PUSH1 0x0 DUP1 REVERT JUMPDEST POP CALLDATALOAD PUSH1 0x1 PUSH1 0x1 PUSH1 0xA0 SHL SUB AND PUSH2 0x858 JUMP JUMPDEST PUSH1 0x40 DUP1 MLOAD SWAP3 DUP4 MSTORE PUSH1 0x20 DUP4 ADD SWAP2 SWAP1 SWAP2 MSTORE DUP1 MLOAD SWAP2 DUP3 SWAP1 SUB ADD SWAP1 RETURN JUMPDEST PUSH2 0x188 PUSH1 0x4 DUP1 CALLDATASIZE SUB PUSH1 0x20 DUP2 LT ISZERO PUSH2 0x2A4 JUMPI PUSH1 0x0 DUP1 REVERT JUMPDEST POP CALLDATALOAD PUSH1 0x1 PUSH1 0x1 PUSH1 0xA0 SHL SUB AND PUSH2 0x871 JUMP JUMPDEST PUSH2 0x2BC PUSH2 0x973 JUMP JUMPDEST PUSH1 0x40 DUP1 MLOAD SWAP2 ISZERO ISZERO DUP3 MSTORE MLOAD SWAP1 DUP2 SWAP1 SUB PUSH1 0x20 ADD SWAP1 RETURN JUMPDEST PUSH2 0x14E PUSH2 0x97C JUMP JUMPDEST PUSH2 0x188 PUSH1 0x4 DUP1 CALLDATASIZE SUB PUSH1 0x40 DUP2 LT ISZERO PUSH2 0x2EE JUMPI PUSH1 0x0 DUP1 REVERT JUMPDEST POP PUSH1 0x1 PUSH1 0x1 PUSH1 0xA0 SHL SUB DUP2 CALLDATALOAD AND SWAP1 PUSH1 0x20 ADD CALLDATALOAD PUSH2 0x982 JUMP JUMPDEST PUSH1 0x5 DUP2 JUMP JUMPDEST PUSH1 0x4 SLOAD DUP2 JUMP JUMPDEST PUSH1 0x7 SLOAD DUP2 JUMP JUMPDEST PUSH1 0x6 SLOAD DUP2 JUMP JUMPDEST PUSH3 0x278D00 DUP2 JUMP JUMPDEST PUSH1 0x0 PUSH1 0x1 PUSH1 0x0 PUSH2 0x330 PUSH2 0xB02 JUMP JUMPDEST PUSH1 0x1 PUSH1 0x1 PUSH1 0xA0 SHL SUB AND DUP2 MSTORE PUSH1 0x20 DUP2 ADD SWAP2 SWAP1 SWAP2 MSTORE PUSH1 0x40 ADD PUSH1 0x0 KECCAK256 DUP1 SLOAD SWAP1 SWAP2 POP PUSH2 0x358 JUMPI POP PUSH2 0x471 JUMP JUMPDEST PUSH1 0x0 PUSH2 0x36A PUSH2 0x365 PUSH2 0xB02 JUMP JUMPDEST PUSH2 0x556 JUMP JUMPDEST SWAP1 POP PUSH1 0x0 PUSH2 0x37E PUSH2 0x379 PUSH2 0xB02 JUMP JUMPDEST PUSH2 0x814 JUMP JUMPDEST PUSH1 0x1 DUP5 ADD DUP4 SWAP1 SSTORE SWAP1 POP DUP1 ISZERO PUSH2 0x46D JUMPI PUSH1 0x9 SLOAD PUSH1 0x1 PUSH1 0x1 PUSH1 0xA0 SHL SUB AND PUSH4 0xA9059CBB PUSH2 0x3A6 PUSH2 0xB02 JUMP JUMPDEST DUP4 PUSH1 0x40 MLOAD DUP4 PUSH4 0xFFFFFFFF AND PUSH1 0xE0 SHL DUP2 MSTORE PUSH1 0x4 ADD DUP1 DUP4 PUSH1 0x1 PUSH1 0x1 PUSH1 0xA0 SHL SUB AND DUP2 MSTORE PUSH1 0x20 ADD DUP3 DUP2 MSTORE PUSH1 0x20 ADD SWAP3 POP POP POP PUSH1 0x20 PUSH1 0x40 MLOAD DUP1 DUP4 SUB DUP2 PUSH1 0x0 DUP8 DUP1 EXTCODESIZE ISZERO DUP1 ISZERO PUSH2 0x3ED JUMPI PUSH1 0x0 DUP1 REVERT JUMPDEST POP GAS CALL ISZERO DUP1 ISZERO PUSH2 0x401 JUMPI RETURNDATASIZE PUSH1 0x0 DUP1 RETURNDATACOPY RETURNDATASIZE PUSH1 0x0 REVERT JUMPDEST POP POP POP POP PUSH1 0x40 MLOAD RETURNDATASIZE PUSH1 0x20 DUP2 LT ISZERO PUSH2 0x417 JUMPI PUSH1 0x0 DUP1 REVERT JUMPDEST POP MLOAD PUSH2 0x422 JUMPI PUSH1 0x0 DUP1 REVERT JUMPDEST PUSH32 0x884EDAD9CE6FA2440D8A54CC123490EB96D2768479D49FF9C7366125A9424364 PUSH2 0x44B PUSH2 0xB02 JUMP JUMPDEST PUSH1 0x40 DUP1 MLOAD PUSH1 0x1 PUSH1 0x1 PUSH1 0xA0 SHL SUB SWAP1 SWAP3 AND DUP3 MSTORE PUSH1 0x20 DUP3 ADD DUP5 SWAP1 MSTORE DUP1 MLOAD SWAP2 DUP3 SWAP1 SUB ADD SWAP1 LOG1 JUMPDEST POP POP POP JUMPDEST JUMP JUMPDEST PUSH2 0x47B PUSH2 0xB02 JUMP JUMPDEST PUSH1 0x1 PUSH1 0x1 PUSH1 0xA0 SHL SUB AND PUSH2 0x48C PUSH2 0x7F6 JUMP JUMPDEST PUSH1 0x1 PUSH1 0x1 PUSH1 0xA0 SHL SUB AND EQ PUSH2 0x4D5 JUMPI PUSH1 0x40 DUP1 MLOAD PUSH3 0x461BCD PUSH1 0xE5 SHL DUP2 MSTORE PUSH1 0x20 PUSH1 0x4 DUP3 ADD DUP2 SWAP1 MSTORE PUSH1 0x24 DUP3 ADD MSTORE PUSH1 0x0 DUP1 MLOAD PUSH1 0x20 PUSH2 0xCDE DUP4 CODECOPY DUP2 MLOAD SWAP2 MSTORE PUSH1 0x44 DUP3 ADD MSTORE SWAP1 MLOAD SWAP1 DUP2 SWAP1 SUB PUSH1 0x64 ADD SWAP1 REVERT JUMPDEST PUSH1 0x3 SLOAD PUSH1 0xFF AND ISZERO DUP1 PUSH2 0x4E8 JUMPI POP TIMESTAMP PUSH1 0x2 SLOAD GT JUMPDEST PUSH2 0x4F1 JUMPI PUSH1 0x0 DUP1 REVERT JUMPDEST TIMESTAMP DUP2 GT PUSH2 0x4FD JUMPI PUSH1 0x0 DUP1 REVERT JUMPDEST PUSH1 0x2 DUP2 SWAP1 SSTORE PUSH1 0x3 DUP1 SLOAD PUSH1 0xFF NOT AND PUSH1 0x1 OR SWAP1 SSTORE PUSH1 0x40 DUP1 MLOAD DUP3 DUP2 MSTORE SWAP1 MLOAD PUSH32 0xAAD53C4362EF2FE5A5390CC046E71FD8423A0A8DCEEBC156AC9BBCD15997EEC2 SWAP2 DUP2 SWAP1 SUB PUSH1 0x20 ADD SWAP1 LOG1 POP JUMP JUMPDEST PUSH1 0x0 DUP2 JUMP JUMPDEST PUSH1 0x8 SLOAD DUP2 JUMP JUMPDEST PUSH2 0x8CA DUP2 JUMP JUMPDEST PUSH1 0x1 PUSH1 0x1 PUSH1 0xA0 SHL SUB DUP2 AND PUSH1 0x0 SWAP1 DUP2 MSTORE PUSH1 0x1 PUSH1 0x20 DUP2 DUP2 MSTORE PUSH1 0x40 DUP1 DUP5 KECCAK256 DUP2 MLOAD DUP1 DUP4 ADD SWAP1 SWAP3 MSTORE DUP1 SLOAD DUP3 MSTORE SWAP1 SWAP3 ADD SLOAD SWAP1 DUP3 ADD MSTORE PUSH1 0x3 SLOAD PUSH1 0xFF AND ISZERO DUP1 PUSH2 0x596 JUMPI POP DUP1 MLOAD ISZERO JUMPDEST DUP1 PUSH2 0x5AC JUMPI POP PUSH1 0x6 SLOAD ISZERO DUP1 ISZERO PUSH2 0x5AC JUMPI POP PUSH1 0x5 SLOAD ISZERO JUMPDEST DUP1 PUSH2 0x5B8 JUMPI POP PUSH1 0x2 SLOAD TIMESTAMP LT JUMPDEST ISZERO PUSH2 0x5C7 JUMPI PUSH1 0x0 SWAP2 POP POP PUSH2 0x73F JUMP JUMPDEST PUSH1 0x0 PUSH2 0x5E0 PUSH1 0x6 SLOAD PUSH1 0x4 SLOAD PUSH2 0xB06 SWAP1 SWAP2 SWAP1 PUSH4 0xFFFFFFFF AND JUMP JUMPDEST PUSH1 0x2 SLOAD SWAP1 SWAP2 POP PUSH2 0x5F0 SWAP1 DUP3 PUSH2 0xB66 JUMP JUMPDEST TIMESTAMP LT ISZERO PUSH2 0x602 JUMPI PUSH1 0x0 SWAP3 POP POP POP PUSH2 0x73F JUMP JUMPDEST PUSH1 0x0 PUSH2 0x627 PUSH2 0x61E PUSH1 0x5 SLOAD PUSH1 0x6 SLOAD PUSH2 0xB66 SWAP1 SWAP2 SWAP1 PUSH4 0xFFFFFFFF AND JUMP JUMPDEST PUSH1 0x4 SLOAD SWAP1 PUSH2 0xB06 JUMP JUMPDEST PUSH1 0x2 SLOAD SWAP1 SWAP2 POP PUSH2 0x637 SWAP1 DUP3 PUSH2 0xB66 JUMP JUMPDEST TIMESTAMP LT PUSH2 0x647 JUMPI POP POP MLOAD SWAP1 POP PUSH2 0x73F JUMP JUMPDEST PUSH1 0x0 PUSH2 0x66A PUSH1 0x4 SLOAD PUSH2 0x664 PUSH1 0x2 SLOAD TIMESTAMP PUSH2 0xBC0 SWAP1 SWAP2 SWAP1 PUSH4 0xFFFFFFFF AND JUMP JUMPDEST SWAP1 PUSH2 0xC1D JUMP JUMPDEST PUSH1 0x1 ADD SWAP1 POP PUSH1 0x6 SLOAD DUP2 GT PUSH2 0x685 JUMPI PUSH1 0x0 SWAP5 POP POP POP POP POP PUSH2 0x73F JUMP JUMPDEST PUSH1 0x5 SLOAD PUSH1 0x6 SLOAD PUSH2 0x694 SWAP2 PUSH2 0xB66 JUMP JUMPDEST DUP2 LT PUSH2 0x6A7 JUMPI POP POP SWAP1 MLOAD SWAP2 POP PUSH2 0x73F SWAP1 POP JUMP JUMPDEST DUP4 MLOAD PUSH1 0x0 SWAP1 PUSH2 0x6B8 SWAP1 PUSH2 0x8CA PUSH2 0xC84 JUMP JUMPDEST SWAP1 POP PUSH2 0x6CF PUSH1 0x6 SLOAD DUP4 PUSH2 0xBC0 SWAP1 SWAP2 SWAP1 PUSH4 0xFFFFFFFF AND JUMP JUMPDEST PUSH1 0x1 EQ ISZERO PUSH2 0x6E3 JUMPI SWAP5 POP PUSH2 0x73F SWAP4 POP POP POP POP JUMP JUMPDEST PUSH1 0x0 PUSH2 0x705 PUSH1 0x1 PUSH1 0x5 SLOAD SUB PUSH2 0x664 DUP5 DUP10 PUSH1 0x0 ADD MLOAD PUSH2 0xBC0 SWAP1 SWAP2 SWAP1 PUSH4 0xFFFFFFFF AND JUMP JUMPDEST SWAP1 POP PUSH1 0x0 PUSH2 0x735 DUP4 PUSH2 0x72F DUP5 PUSH2 0x729 PUSH1 0x6 SLOAD PUSH1 0x1 ADD DUP10 PUSH2 0xBC0 SWAP1 SWAP2 SWAP1 PUSH4 0xFFFFFFFF AND JUMP JUMPDEST SWAP1 PUSH2 0xB06 JUMP JUMPDEST SWAP1 PUSH2 0xB66 JUMP JUMPDEST SWAP8 POP POP POP POP POP POP POP POP JUMPDEST SWAP2 SWAP1 POP JUMP JUMPDEST PUSH2 0x74C PUSH2 0xB02 JUMP JUMPDEST PUSH1 0x1 PUSH1 0x1 PUSH1 0xA0 SHL SUB AND PUSH2 0x75D PUSH2 0x7F6 JUMP JUMPDEST PUSH1 0x1 PUSH1 0x1 PUSH1 0xA0 SHL SUB AND EQ PUSH2 0x7A6 JUMPI PUSH1 0x40 DUP1 MLOAD PUSH3 0x461BCD PUSH1 0xE5 SHL DUP2 MSTORE PUSH1 0x20 PUSH1 0x4 DUP3 ADD DUP2 SWAP1 MSTORE PUSH1 0x24 DUP3 ADD MSTORE PUSH1 0x0 DUP1 MLOAD PUSH1 0x20 PUSH2 0xCDE DUP4 CODECOPY DUP2 MLOAD SWAP2 MSTORE PUSH1 0x44 DUP3 ADD MSTORE SWAP1 MLOAD SWAP1 DUP2 SWAP1 SUB PUSH1 0x64 ADD SWAP1 REVERT JUMPDEST PUSH1 0x0 DUP1 SLOAD PUSH1 0x40 MLOAD PUSH1 0x1 PUSH1 0x1 PUSH1 0xA0 SHL SUB SWAP1 SWAP2 AND SWAP1 PUSH32 0x8BE0079C531659141344CD1FD0A4F28419497F9722A3DAAFE3B4186F6B6457E0 SWAP1 DUP4 SWAP1 LOG3 PUSH1 0x0 DUP1 SLOAD PUSH1 0x1 PUSH1 0x1 PUSH1 0xA0 SHL SUB NOT AND SWAP1 SSTORE JUMP JUMPDEST PUSH1 0x2 SLOAD DUP2 JUMP JUMPDEST PUSH1 0x0 SLOAD PUSH1 0x1 PUSH1 0x1 PUSH1 0xA0 SHL SUB AND SWAP1 JUMP JUMPDEST PUSH11 0x1A784379D99DB42000000 DUP2 JUMP JUMPDEST PUSH1 0x1 PUSH1 0x1 PUSH1 0xA0 SHL SUB DUP2 AND PUSH1 0x0 SWAP1 DUP2 MSTORE PUSH1 0x1 PUSH1 0x20 DUP2 SWAP1 MSTORE PUSH1 0x40 DUP3 KECCAK256 ADD SLOAD PUSH2 0x843 SWAP1 PUSH2 0x83D DUP5 PUSH2 0x556 JUMP JUMPDEST SWAP1 PUSH2 0xBC0 JUMP JUMPDEST SWAP3 SWAP2 POP POP JUMP JUMPDEST PUSH1 0x9 SLOAD PUSH1 0x1 PUSH1 0x1 PUSH1 0xA0 SHL SUB AND DUP2 JUMP JUMPDEST PUSH1 0x1 PUSH1 0x20 DUP2 SWAP1 MSTORE PUSH1 0x0 SWAP2 DUP3 MSTORE PUSH1 0x40 SWAP1 SWAP2 KECCAK256 DUP1 SLOAD SWAP2 ADD SLOAD DUP3 JUMP JUMPDEST PUSH2 0x879 PUSH2 0xB02 JUMP JUMPDEST PUSH1 0x1 PUSH1 0x1 PUSH1 0xA0 SHL SUB AND PUSH2 0x88A PUSH2 0x7F6 JUMP JUMPDEST PUSH1 0x1 PUSH1 0x1 PUSH1 0xA0 SHL SUB AND EQ PUSH2 0x8D3 JUMPI PUSH1 0x40 DUP1 MLOAD PUSH3 0x461BCD PUSH1 0xE5 SHL DUP2 MSTORE PUSH1 0x20 PUSH1 0x4 DUP3 ADD DUP2 SWAP1 MSTORE PUSH1 0x24 DUP3 ADD MSTORE PUSH1 0x0 DUP1 MLOAD PUSH1 0x20 PUSH2 0xCDE DUP4 CODECOPY DUP2 MLOAD SWAP2 MSTORE PUSH1 0x44 DUP3 ADD MSTORE SWAP1 MLOAD SWAP1 DUP2 SWAP1 SUB PUSH1 0x64 ADD SWAP1 REVERT JUMPDEST PUSH1 0x1 PUSH1 0x1 PUSH1 0xA0 SHL SUB DUP2 AND PUSH2 0x918 JUMPI PUSH1 0x40 MLOAD PUSH3 0x461BCD PUSH1 0xE5 SHL DUP2 MSTORE PUSH1 0x4 ADD DUP1 DUP1 PUSH1 0x20 ADD DUP3 DUP2 SUB DUP3 MSTORE PUSH1 0x26 DUP2 MSTORE PUSH1 0x20 ADD DUP1 PUSH2 0xC97 PUSH1 0x26 SWAP2 CODECOPY PUSH1 0x40 ADD SWAP2 POP POP PUSH1 0x40 MLOAD DUP1 SWAP2 SUB SWAP1 REVERT JUMPDEST PUSH1 0x0 DUP1 SLOAD PUSH1 0x40 MLOAD PUSH1 0x1 PUSH1 0x1 PUSH1 0xA0 SHL SUB DUP1 DUP6 AND SWAP4 SWAP3 AND SWAP2 PUSH32 0x8BE0079C531659141344CD1FD0A4F28419497F9722A3DAAFE3B4186F6B6457E0 SWAP2 LOG3 PUSH1 0x0 DUP1 SLOAD PUSH1 0x1 PUSH1 0x1 PUSH1 0xA0 SHL SUB NOT AND PUSH1 0x1 PUSH1 0x1 PUSH1 0xA0 SHL SUB SWAP3 SWAP1 SWAP3 AND SWAP2 SWAP1 SWAP2 OR SWAP1 SSTORE JUMP JUMPDEST PUSH1 0x3 SLOAD PUSH1 0xFF AND DUP2 JUMP JUMPDEST PUSH1 0x5 SLOAD DUP2 JUMP JUMPDEST PUSH2 0x98A PUSH2 0xB02 JUMP JUMPDEST PUSH1 0x1 PUSH1 0x1 PUSH1 0xA0 SHL SUB AND PUSH2 0x99B PUSH2 0x7F6 JUMP JUMPDEST PUSH1 0x1 PUSH1 0x1 PUSH1 0xA0 SHL SUB AND EQ PUSH2 0x9E4 JUMPI PUSH1 0x40 DUP1 MLOAD PUSH3 0x461BCD PUSH1 0xE5 SHL DUP2 MSTORE PUSH1 0x20 PUSH1 0x4 DUP3 ADD DUP2 SWAP1 MSTORE PUSH1 0x24 DUP3 ADD MSTORE PUSH1 0x0 DUP1 MLOAD PUSH1 0x20 PUSH2 0xCDE DUP4 CODECOPY DUP2 MLOAD SWAP2 MSTORE PUSH1 0x44 DUP3 ADD MSTORE SWAP1 MLOAD SWAP1 DUP2 SWAP1 SUB PUSH1 0x64 ADD SWAP1 REVERT JUMPDEST PUSH1 0x3 SLOAD PUSH1 0xFF AND ISZERO DUP1 PUSH2 0x9F7 JUMPI POP TIMESTAMP PUSH1 0x2 SLOAD GT JUMPDEST PUSH2 0xA00 JUMPI PUSH1 0x0 DUP1 REVERT JUMPDEST PUSH1 0x1 PUSH1 0x1 PUSH1 0xA0 SHL SUB DUP3 AND PUSH2 0xA13 JUMPI PUSH1 0x0 DUP1 REVERT JUMPDEST PUSH1 0x1 PUSH1 0x1 PUSH1 0xA0 SHL SUB DUP3 AND PUSH1 0x0 SWAP1 DUP2 MSTORE PUSH1 0x1 PUSH1 0x20 MSTORE PUSH1 0x40 SWAP1 KECCAK256 SLOAD ISZERO PUSH2 0xA5A JUMPI PUSH1 0x1 PUSH1 0x1 PUSH1 0xA0 SHL SUB DUP3 AND PUSH1 0x0 SWAP1 DUP2 MSTORE PUSH1 0x1 PUSH1 0x20 MSTORE PUSH1 0x40 SWAP1 KECCAK256 SLOAD PUSH1 0x8 SLOAD PUSH2 0xA56 SWAP2 PUSH2 0xB66 JUMP JUMPDEST PUSH1 0x8 SSTORE JUMPDEST PUSH1 0x0 DUP2 GT DUP1 ISZERO PUSH2 0xA6C JUMPI POP PUSH1 0x8 SLOAD DUP2 GT ISZERO JUMPDEST PUSH2 0xA75 JUMPI PUSH1 0x0 DUP1 REVERT JUMPDEST PUSH1 0x40 DUP1 MLOAD DUP1 DUP3 ADD DUP3 MSTORE DUP3 DUP2 MSTORE PUSH1 0x0 PUSH1 0x20 DUP1 DUP4 ADD DUP3 DUP2 MSTORE PUSH1 0x1 PUSH1 0x1 PUSH1 0xA0 SHL SUB DUP8 AND DUP4 MSTORE PUSH1 0x1 SWAP2 DUP3 SWAP1 MSTORE SWAP4 SWAP1 SWAP2 KECCAK256 SWAP2 MLOAD DUP3 SSTORE SWAP2 MLOAD SWAP2 ADD SSTORE PUSH1 0x8 SLOAD PUSH2 0xAB7 SWAP1 DUP3 PUSH2 0xBC0 JUMP JUMPDEST PUSH1 0x8 SSTORE PUSH1 0x40 DUP1 MLOAD PUSH1 0x1 PUSH1 0x1 PUSH1 0xA0 SHL SUB DUP5 AND DUP2 MSTORE PUSH1 0x20 DUP2 ADD DUP4 SWAP1 MSTORE DUP2 MLOAD PUSH32 0x16E42921DAEE38136DC17F8420C371163EC8299E5299FB480D7AEFF85CFAC3EB SWAP3 SWAP2 DUP2 SWAP1 SUB SWAP1 SWAP2 ADD SWAP1 LOG1 POP POP JUMP JUMPDEST CALLER SWAP1 JUMP JUMPDEST PUSH1 0x0 DUP3 PUSH2 0xB15 JUMPI POP PUSH1 0x0 PUSH2 0x843 JUMP JUMPDEST DUP3 DUP3 MUL DUP3 DUP5 DUP3 DUP2 PUSH2 0xB22 JUMPI INVALID JUMPDEST DIV EQ PUSH2 0xB5F JUMPI PUSH1 0x40 MLOAD PUSH3 0x461BCD PUSH1 0xE5 SHL DUP2 MSTORE PUSH1 0x4 ADD DUP1 DUP1 PUSH1 0x20 ADD DUP3 DUP2 SUB DUP3 MSTORE PUSH1 0x21 DUP2 MSTORE PUSH1 0x20 ADD DUP1 PUSH2 0xCBD PUSH1 0x21 SWAP2 CODECOPY PUSH1 0x40 ADD SWAP2 POP POP PUSH1 0x40 MLOAD DUP1 SWAP2 SUB SWAP1 REVERT JUMPDEST SWAP4 SWAP3 POP POP POP JUMP JUMPDEST PUSH1 0x0 DUP3 DUP3 ADD DUP4 DUP2 LT ISZERO PUSH2 0xB5F JUMPI PUSH1 0x40 DUP1 MLOAD PUSH3 0x461BCD PUSH1 0xE5 SHL DUP2 MSTORE PUSH1 0x20 PUSH1 0x4 DUP3 ADD MSTORE PUSH1 0x1B PUSH1 0x24 DUP3 ADD MSTORE PUSH32 0x536166654D6174683A206164646974696F6E206F766572666C6F770000000000 PUSH1 0x44 DUP3 ADD MSTORE SWAP1 MLOAD SWAP1 DUP2 SWAP1 SUB PUSH1 0x64 ADD SWAP1 REVERT JUMPDEST PUSH1 0x0 DUP3 DUP3 GT ISZERO PUSH2 0xC17 JUMPI PUSH1 0x40 DUP1 MLOAD PUSH3 0x461BCD PUSH1 0xE5 SHL DUP2 MSTORE PUSH1 0x20 PUSH1 0x4 DUP3 ADD MSTORE PUSH1 0x1E PUSH1 0x24 DUP3 ADD MSTORE PUSH32 0x536166654D6174683A207375627472616374696F6E206F766572666C6F770000 PUSH1 0x44 DUP3 ADD MSTORE SWAP1 MLOAD SWAP1 DUP2 SWAP1 SUB PUSH1 0x64 ADD SWAP1 REVERT JUMPDEST POP SWAP1 SUB SWAP1 JUMP JUMPDEST PUSH1 0x0 DUP1 DUP3 GT PUSH2 0xC73 JUMPI PUSH1 0x40 DUP1 MLOAD PUSH3 0x461BCD PUSH1 0xE5 SHL DUP2 MSTORE PUSH1 0x20 PUSH1 0x4 DUP3 ADD MSTORE PUSH1 0x1A PUSH1 0x24 DUP3 ADD MSTORE PUSH32 0x536166654D6174683A206469766973696F6E206279207A65726F000000000000 PUSH1 0x44 DUP3 ADD MSTORE SWAP1 MLOAD SWAP1 DUP2 SWAP1 SUB PUSH1 0x64 ADD SWAP1 REVERT JUMPDEST DUP2 DUP4 DUP2 PUSH2 0xC7C JUMPI INVALID JUMPDEST DIV SWAP4 SWAP3 POP POP POP JUMP JUMPDEST PUSH1 0x0 PUSH2 0xB5F PUSH2 0x2710 PUSH2 0x664 DUP6 DUP6 PUSH2 0xB06 JUMP INVALID 0x4F PUSH24 0x6E61626C653A206E6577206F776E65722069732074686520 PUSH27 0x65726F2061646472657373536166654D6174683A206D756C746970 PUSH13 0x69636174696F6E206F76657266 PUSH13 0x6F774F776E61626C653A206361 PUSH13 0x6C6572206973206E6F74207468 PUSH6 0x206F776E6572 LOG2 PUSH5 0x6970667358 0x22 SLT KECCAK256 CALLCODE 0xC6 0xAA DUP1 0xAA 0xB3 DUP1 0xAC 0x2C 0xBB 0xD2 PUSH30 0xCC250FB0A1D7CD9DB8159423094780E5C59BF62964736F6C634300070600 CALLER "
    },
    "gasEstimates": {
      "creation": {
        "codeDepositCost": "675800",
        "executionCost": "infinite",
        "totalCost": "infinite"
      },
      "external": {
        "INITIAL_UNLOCK()": "309",
        "LOCK_PERIODS()": "265",
        "RELEASE_PERIODS()": "222",
        "TOTAL_AMOUNT()": "287",
        "WITHDRAW_INTERVAL()": "310",
        "addRecipient(address,uint256)": "infinite",
        "isStartTimeSet()": "1098",
        "lockPeriods()": "1088",
        "owner()": "1104",
        "recipients(address)": "2010",
        "releasePeriods()": "1108",
        "renounceOwnership()": "infinite",
        "setStartTime(uint256)": "infinite",
        "startTime()": "1043",
        "totalAmount()": "1066",
        "totemToken()": "1059",
        "transferOwnership(address)": "infinite",
        "unallocatedAmount()": "1087",
        "vested(address)": "infinite",
        "withdraw()": "infinite",
        "withdrawInterval()": "1044",
        "withdrawable(address)": "infinite"
      }
    },
    "methodIdentifiers": {
      "INITIAL_UNLOCK()": "4b3a5fa8",
      "LOCK_PERIODS()": "494051a0",
      "RELEASE_PERIODS()": "00ad3a23",
      "TOTAL_AMOUNT()": "a2d7f5e3",
      "WITHDRAW_INTERVAL()": "30c6b5eb",
      "addRecipient(address,uint256)": "f7982243",
      "isStartTimeSet()": "f361c59b",
      "lockPeriods()": "2509e086",
      "owner()": "8da5cb5b",
      "recipients(address)": "eb820312",
      "releasePeriods()": "f57c8cdf",
      "renounceOwnership()": "715018a6",
      "setStartTime(uint256)": "3e0a322d",
      "startTime()": "78e97925",
      "totalAmount()": "1a39d8ef",
      "totemToken()": "e8153c93",
      "transferOwnership(address)": "f2fde38b",
      "unallocatedAmount()": "4afe5bf3",
      "vested(address)": "7102b728",
      "withdraw()": "3ccfd60b",
      "withdrawInterval()": "162075d8",
      "withdrawable(address)": "ce513b6f"
    }
  },
  "storageLayout": {
    "storage": [
      {
        "astId": 53,
        "contract": "contracts/TotemVesting/PrivateSaleVesting.sol:PrivateSaleVesting",
        "label": "_owner",
        "offset": 0,
        "slot": "0",
        "type": "t_address"
      },
      {
        "astId": 6417,
        "contract": "contracts/TotemVesting/PrivateSaleVesting.sol:PrivateSaleVesting",
        "label": "recipients",
        "offset": 0,
        "slot": "1",
        "type": "t_mapping(t_address,t_struct(VestingSchedule)6413_storage)"
      },
      {
        "astId": 6419,
        "contract": "contracts/TotemVesting/PrivateSaleVesting.sol:PrivateSaleVesting",
        "label": "startTime",
        "offset": 0,
        "slot": "2",
        "type": "t_uint256"
      },
      {
        "astId": 6421,
        "contract": "contracts/TotemVesting/PrivateSaleVesting.sol:PrivateSaleVesting",
        "label": "isStartTimeSet",
        "offset": 0,
        "slot": "3",
        "type": "t_bool"
      },
      {
        "astId": 6423,
        "contract": "contracts/TotemVesting/PrivateSaleVesting.sol:PrivateSaleVesting",
        "label": "withdrawInterval",
        "offset": 0,
        "slot": "4",
        "type": "t_uint256"
      },
      {
        "astId": 6425,
        "contract": "contracts/TotemVesting/PrivateSaleVesting.sol:PrivateSaleVesting",
        "label": "releasePeriods",
        "offset": 0,
        "slot": "5",
        "type": "t_uint256"
      },
      {
        "astId": 6427,
        "contract": "contracts/TotemVesting/PrivateSaleVesting.sol:PrivateSaleVesting",
        "label": "lockPeriods",
        "offset": 0,
        "slot": "6",
        "type": "t_uint256"
      },
      {
        "astId": 6429,
        "contract": "contracts/TotemVesting/PrivateSaleVesting.sol:PrivateSaleVesting",
        "label": "totalAmount",
        "offset": 0,
        "slot": "7",
        "type": "t_uint256"
      },
      {
        "astId": 6431,
        "contract": "contracts/TotemVesting/PrivateSaleVesting.sol:PrivateSaleVesting",
        "label": "unallocatedAmount",
        "offset": 0,
        "slot": "8",
        "type": "t_uint256"
      },
      {
        "astId": 6433,
        "contract": "contracts/TotemVesting/PrivateSaleVesting.sol:PrivateSaleVesting",
        "label": "totemToken",
        "offset": 0,
        "slot": "9",
        "type": "t_contract(TotemToken)5743"
      }
    ],
    "types": {
      "t_address": {
        "encoding": "inplace",
        "label": "address",
        "numberOfBytes": "20"
      },
      "t_bool": {
        "encoding": "inplace",
        "label": "bool",
        "numberOfBytes": "1"
      },
      "t_contract(TotemToken)5743": {
        "encoding": "inplace",
        "label": "contract TotemToken",
        "numberOfBytes": "20"
      },
      "t_mapping(t_address,t_struct(VestingSchedule)6413_storage)": {
        "encoding": "mapping",
        "key": "t_address",
        "label": "mapping(address => struct TotemVesting.VestingSchedule)",
        "numberOfBytes": "32",
        "value": "t_struct(VestingSchedule)6413_storage"
      },
      "t_struct(VestingSchedule)6413_storage": {
        "encoding": "inplace",
        "label": "struct TotemVesting.VestingSchedule",
        "members": [
          {
            "astId": 6410,
            "contract": "contracts/TotemVesting/PrivateSaleVesting.sol:PrivateSaleVesting",
            "label": "totalAmount",
            "offset": 0,
            "slot": "0",
            "type": "t_uint256"
          },
          {
            "astId": 6412,
            "contract": "contracts/TotemVesting/PrivateSaleVesting.sol:PrivateSaleVesting",
            "label": "amountWithdrawn",
            "offset": 0,
            "slot": "1",
            "type": "t_uint256"
          }
        ],
        "numberOfBytes": "64"
      },
      "t_uint256": {
        "encoding": "inplace",
        "label": "uint256",
        "numberOfBytes": "32"
      }
    }
  },
  "userdoc": {
    "kind": "user",
    "methods": {},
    "version": 1
  }
}