{
  "contractName": "StakingPoolFactory",
  "sourceName": "contracts/Staking/StakingPoolFactory.sol",
  "abi": [
    {
      "inputs": [
        {
          "internalType": "contract TotemToken",
          "name": "_totemToken",
          "type": "address"
        },
        {
          "internalType": "contract RewardManager",
          "name": "_rewardManager",
          "type": "address"
        },
        {
          "internalType": "address",
          "name": "_swapRouter",
          "type": "address"
        },
        {
          "internalType": "address",
          "name": "_usdToken",
          "type": "address"
        }
      ],
      "stateMutability": "nonpayable",
      "type": "constructor"
    },
    {
      "anonymous": false,
      "inputs": [
        {
          "indexed": true,
          "internalType": "address",
          "name": "pool",
          "type": "address"
        },
        {
          "indexed": false,
          "internalType": "string",
          "name": "wrappedTokenSymbole",
          "type": "string"
        },
        {
          "indexed": false,
          "internalType": "string",
          "name": "poolType",
          "type": "string"
        },
        {
          "indexed": false,
          "internalType": "uint256[11]",
          "name": "variables",
          "type": "uint256[11]"
        },
        {
          "indexed": false,
          "internalType": "uint256[8]",
          "name": "ranks",
          "type": "uint256[8]"
        },
        {
          "indexed": false,
          "internalType": "uint256[8]",
          "name": "percentages",
          "type": "uint256[8]"
        },
        {
          "indexed": false,
          "internalType": "bool",
          "name": "isEnhancedEnabled",
          "type": "bool"
        }
      ],
      "name": "PoolCreated",
      "type": "event"
    },
    {
      "anonymous": false,
      "inputs": [
        {
          "indexed": true,
          "internalType": "address",
          "name": "account",
          "type": "address"
        }
      ],
      "name": "PoolCreatorAdded",
      "type": "event"
    },
    {
      "anonymous": false,
      "inputs": [
        {
          "indexed": true,
          "internalType": "address",
          "name": "account",
          "type": "address"
        }
      ],
      "name": "PoolCreatorRemoved",
      "type": "event"
    },
    {
      "inputs": [
        {
          "internalType": "address",
          "name": "account",
          "type": "address"
        }
      ],
      "name": "addPoolCreator",
      "outputs": [],
      "stateMutability": "nonpayable",
      "type": "function"
    },
    {
      "inputs": [
        {
          "internalType": "address",
          "name": "_oracleContract",
          "type": "address"
        },
        {
          "internalType": "address",
          "name": "_wrappedTokenContract",
          "type": "address"
        },
        {
          "internalType": "string",
          "name": "_wrappedTokenSymbole",
          "type": "string"
        },
        {
          "internalType": "string",
          "name": "_poolType",
          "type": "string"
        },
        {
          "internalType": "uint256[11]",
          "name": "_variables",
          "type": "uint256[11]"
        },
        {
          "internalType": "uint256[8]",
          "name": "_ranks",
          "type": "uint256[8]"
        },
        {
          "internalType": "uint256[8]",
          "name": "_percentages",
          "type": "uint256[8]"
        },
        {
          "internalType": "bool",
          "name": "isEnhancedEnabled",
          "type": "bool"
        }
      ],
      "name": "create",
      "outputs": [
        {
          "internalType": "address",
          "name": "",
          "type": "address"
        }
      ],
      "stateMutability": "nonpayable",
      "type": "function"
    },
    {
      "inputs": [
        {
          "internalType": "address",
          "name": "account",
          "type": "address"
        }
      ],
      "name": "isPoolCreator",
      "outputs": [
        {
          "internalType": "bool",
          "name": "",
          "type": "bool"
        }
      ],
      "stateMutability": "view",
      "type": "function"
    },
    {
      "inputs": [],
      "name": "minimumStakeAmount",
      "outputs": [
        {
          "internalType": "uint256",
          "name": "",
          "type": "uint256"
        }
      ],
      "stateMutability": "view",
      "type": "function"
    },
    {
      "inputs": [],
      "name": "renouncePoolCreator",
      "outputs": [],
      "stateMutability": "nonpayable",
      "type": "function"
    },
    {
      "inputs": [],
      "name": "rewardManager",
      "outputs": [
        {
          "internalType": "contract RewardManager",
          "name": "",
          "type": "address"
        }
      ],
      "stateMutability": "view",
      "type": "function"
    },
    {
      "inputs": [
        {
          "internalType": "uint256",
          "name": "newStakingPoolTaxRate",
          "type": "uint256"
        }
      ],
      "name": "setDefaultTaxRate",
      "outputs": [],
      "stateMutability": "nonpayable",
      "type": "function"
    },
    {
      "inputs": [
        {
          "internalType": "address",
          "name": "_swapRouter",
          "type": "address"
        }
      ],
      "name": "setSwapRouter",
      "outputs": [],
      "stateMutability": "nonpayable",
      "type": "function"
    },
    {
      "inputs": [],
      "name": "stakingPoolTaxRate",
      "outputs": [
        {
          "internalType": "uint256",
          "name": "",
          "type": "uint256"
        }
      ],
      "stateMutability": "view",
      "type": "function"
    },
    {
      "inputs": [],
      "name": "swapRouter",
      "outputs": [
        {
          "internalType": "address",
          "name": "",
          "type": "address"
        }
      ],
      "stateMutability": "view",
      "type": "function"
    },
    {
      "inputs": [],
      "name": "totemToken",
      "outputs": [
        {
          "internalType": "contract TotemToken",
          "name": "",
          "type": "address"
        }
      ],
      "stateMutability": "view",
      "type": "function"
    }
  ],
  "bytecode": "0x60e06040523480156200001157600080fd5b5060405162005aec38038062005aec833981016040819052620000349162000217565b6200004862000042620000b1565b620000b5565b6200006157620000616200005b620000b1565b620000d8565b606093841b6001600160601b031990811660805292841b831660a052600180546001600160a01b0319166001600160a01b03939093169290921790915590911b1660c05261012c60025562000297565b3390565b6000620000d28260006200012a60201b6200047d1790919060201c565b92915050565b620000f38160006200019360201b620004e61790919060201c565b6040516001600160a01b038216907fac89bb7b3d0c5a763a97f31bc75f8faee00426e7b235f02ca76897d55caf7b6190600090a250565b60006001600160a01b038216620001735760405162461bcd60e51b815260040180806020018281038252602281526020018062005aca6022913960400191505060405180910390fd5b506001600160a01b03166000908152602091909152604090205460ff1690565b6200019f82826200012a565b15620001f2576040805162461bcd60e51b815260206004820152601f60248201527f526f6c65733a206163636f756e7420616c72656164792068617320726f6c6500604482015290519081900360640190fd5b6001600160a01b0316600090815260209190915260409020805460ff19166001179055565b600080600080608085870312156200022d578384fd5b84516200023a816200027e565b60208601519094506200024d816200027e565b604086015190935062000260816200027e565b606086015190925062000273816200027e565b939692955090935050565b6001600160a01b03811681146200029457600080fd5b50565b60805160601c60a05160601c60c05160601c6157ee620002dc600039806102555250806101a65280610596528061066b52508061045b528061057552506157ee6000f3fe60806040523480156200001157600080fd5b5060043610620000b85760003560e01c80638c2d741c116200007b5780638c2d741c14620001325780639a94775d1462000149578063c31c9c07146200016f578063d53b245b1462000179578063e281cc7e1462000190578063e8153c93146200019a57620000b8565b80630f4ef8a614620000bd5780631f7e29e514620000df5780634127365714620000f6578063441f5c65146200010f5780636b036f451462000128575b600080fd5b620000c7620001a4565b604051620000d6919062000afe565b60405180910390f35b620000c7620000f036600462000911565b620001c8565b6200010d62000107366004620008ed565b620002af565b005b6200011962000345565b604051620000d6919062000cb4565b620001196200034b565b6200010d62000143366004620008ed565b62000351565b620001606200015a366004620008ed565b620003aa565b604051620000d6919062000b12565b620000c7620003c0565b6200010d6200018a36600462000a41565b620003cf565b6200010d62000443565b620000c762000459565b7f000000000000000000000000000000000000000000000000000000000000000081565b6000620001d86200015a6200056a565b620002155760405162461bcd60e51b815260040180806020018281038252603a8152602001806200573c603a913960400191505060405180910390fd5b62000224565b60405180910390fd5b61012085015162000239576002546101208601525b604080516080810182526001546001600160a01b0390811682527f0000000000000000000000000000000000000000000000000000000000000000811660208301528b81169282019290925290891660608201526000620002a0828a8a8a8a8a8a6200056e565b9b9a5050505050505050505050565b620002bd6200015a6200056a565b620002fa5760405162461bcd60e51b815260040180806020018281038252603a8152602001806200573c603a913960400191505060405180910390fd5b6001600160a01b038116620003235760405162461bcd60e51b81526004016200021b9062000c96565b600180546001600160a01b0319166001600160a01b0392909216919091179055565b60025481565b60035481565b6200035f6200015a6200056a565b6200039c5760405162461bcd60e51b815260040180806020018281038252603a8152602001806200573c603a913960400191505060405180910390fd5b620003a781620006e3565b50565b6000620003b881836200047d565b90505b919050565b6001546001600160a01b031681565b620003dd6200015a6200056a565b6200041a5760405162461bcd60e51b815260040180806020018281038252603a8152602001806200573c603a913960400191505060405180910390fd5b61271081106200043e5760405162461bcd60e51b81526004016200021b9062000c4f565b600255565b62000457620004516200056a565b62000727565b565b7f000000000000000000000000000000000000000000000000000000000000000081565b60006001600160a01b038216620004c65760405162461bcd60e51b8152600401808060200182810382526022815260200180620057976022913960400191505060405180910390fd5b506001600160a01b03166000908152602091909152604090205460ff1690565b620004f282826200047d565b1562000545576040805162461bcd60e51b815260206004820152601f60248201527f526f6c65733a206163636f756e7420616c72656164792068617320726f6c6500604482015290519081900360640190fd5b6001600160a01b0316600090815260209190915260409020805460ff19166001179055565b3390565b60008087877f00000000000000000000000000000000000000000000000000000000000000007f0000000000000000000000000000000000000000000000000000000000000000620005bf6200056a565b8d8b8b8b8b604051620005d290620007d6565b620005e79a9998979695949392919062000b8f565b604051809103906000f08015801562000604573d6000803e3d6000fd5b509050806001600160a01b03167f36fb28861e6315c1412b9cbba95b66a3a98f78cc2192d142d7c9d3a6269a1a538989898989896040516200064c9695949392919062000b1d565b60405180910390a260405163d914cd4b60e01b81526001600160a01b037f0000000000000000000000000000000000000000000000000000000000000000169063d914cd4b90620006a290849060040162000afe565b600060405180830381600087803b158015620006bd57600080fd5b505af1158015620006d2573d6000803e3d6000fd5b50929b9a5050505050505050505050565b620006f0600082620004e6565b6040516001600160a01b038216907fac89bb7b3d0c5a763a97f31bc75f8faee00426e7b235f02ca76897d55caf7b6190600090a250565b620007346000826200076b565b6040516001600160a01b038216907f2bc71cc60b543df5fdd80ef5a45e1cdb344843769b649e9d901de3be24aeb24e90600090a250565b6200077782826200047d565b620007b45760405162461bcd60e51b8152600401808060200182810382526021815260200180620057766021913960400191505060405180910390fd5b6001600160a01b0316600090815260209190915260409020805460ff19169055565b614a3d8062000cff83390190565b80356001600160a01b0381168114620003bb57600080fd5b600082601f8301126200080d578081fd5b60405161010080820182811067ffffffffffffffff821117156200082d57fe5b604052818482810187101562000841578485fd5b8492505b6008831015620008675780358252600192909201916020918201910162000845565b509195945050505050565b80358015158114620003bb57600080fd5b600082601f83011262000894578081fd5b813567ffffffffffffffff811115620008a957fe5b620008be601f8201601f191660200162000cbd565b818152846020838601011115620008d3578283fd5b816020850160208301379081016020019190915292915050565b600060208284031215620008ff578081fd5b6200090a82620007e4565b9392505050565b600080600080600080600080610400898b0312156200092e578384fd5b6200093989620007e4565b975060206200094a818b01620007e4565b975060408a013567ffffffffffffffff8082111562000967578687fd5b620009758d838e0162000883565b985060608c01359150808211156200098b578687fd5b506200099a8c828d0162000883565b9650508a609f8b0112620009ac578485fd5b620009c2620009bc600b62000ce2565b62000cbd565b8060808c016101e08d018e811115620009d9578889fd5b885b600b811015620009fa57823585529385019391850191600101620009db565b5082985062000a0a8f82620007fc565b9750505050505062000a218a6102e08b01620007fc565b915062000a326103e08a0162000872565b90509295985092959890939650565b60006020828403121562000a53578081fd5b5035919050565b8060005b600b81101562000a7f57815184526020938401939091019060010162000a5e565b50505050565b8060005b600881101562000a7f57815184526020938401939091019060010162000a89565b15159052565b60008151808452815b8181101562000ad75760208185018101518683018201520162000ab9565b8181111562000ae95782602083870101525b50601f01601f19169290920160200192915050565b6001600160a01b0391909116815260200190565b901515815260200190565b60006103c080835262000b338184018a62000ab0565b9050828103602084015262000b49818962000ab0565b91505062000b5b604083018762000a5a565b62000b6b6101a083018662000a85565b62000b7b6102a083018562000a85565b8215156103a0830152979650505050505050565b60006104a080835262000ba58184018e62000ab0565b905060208382038185015262000bbc828e62000ab0565b6001600160a01b038d811660408701528c811660608701528b81166080870152909350915060a084018960005b600481101562000c0a57815185168352918301919083019060010162000be9565b505050505062000c1f61012083018762000a5a565b62000c2f61028083018662000a85565b62000c3f61038083018562000a85565b620002a061048083018462000aaa565b60208082526027908201527f303432302054617820636f6e6e6f74206265206f7665722031303025202831306040820152663030302042502960c81b606082015260800190565b6020808252600490820152630303431360e41b604082015260600190565b90815260200190565b60405181810167ffffffffffffffff8111828210171562000cda57fe5b604052919050565b600067ffffffffffffffff82111562000cf757fe5b506020029056fe6102606040523480156200001257600080fd5b5060405162004a3d38038062004a3d83398181016040526104a08110156200003957600080fd5b81019080805160405193929190846401000000008211156200005a57600080fd5b9083019060208201858111156200007057600080fd5b82516401000000008111828201881017156200008b57600080fd5b82525081516020918201929091019080838360005b83811015620000ba578181015183820152602001620000a0565b50505050905090810190601f168015620000e85780820380516001836020036101000a031916815260200191505b50604052602001805160405193929190846401000000008211156200010c57600080fd5b9083019060208201858111156200012257600080fd5b82516401000000008111828201881017156200013d57600080fd5b82525081516020918201929091019080838360005b838110156200016c57818101518382015260200162000152565b50505050905090810190601f1680156200019a5780820380516001836020036101000a031916815260200191505b506040908152602082015190820151606083015161046084015160808501805160a087015160e088015160c0890151979a50959850939691956101008301956102608401956103609094019493916000620001f462000484565b600080546001600160a01b0319166001600160a01b0383169081178255604051929350917f8be0079c531659141344cd1fd0a4f28419497f9722a3daafe3b4186f6b6457e0908290a350600180546001600160a01b03199081166001600160a01b0393841617909155600380548216958316959095179094556004805485169382169390931790925560058054909316911617905542846000602002015111620002d05760405162461bcd60e51b815260040180806020018281038252602181526020018062004a1c6021913960400191505060405180910390fd5b8951620002e59060069060208d0190620004aa565b508851620002fb9060079060208c0190620004aa565b506001600160601b0319606089811b821660805288901b1660a0528460026020020151600f80546001600160a01b03199081166001600160a01b0393841617909155600e80549091169188169190911790556200035f856001602002015162000488565b606085810151811b6001600160601b03191660c0908152855160e0908152602087015161012090815260408801516101009081529388015161014090815260808901516101605260a089015161018052928801516101a05290870151610200529186015161022052908501516101c0528401516101e05280151560f81b6102405260005b60088110156200047357828160088110620003fa57fe5b60200201516200040a5762000473565b601060405180604001604052808684600881106200042457fe5b602002015181526020018584600881106200043b57fe5b6020908102919091015190915282546001818101855560009485529382902083516002909202019081559101519082015501620003e3565b505050505050505050505062000556565b3390565b600280546001600160a01b0319166001600160a01b0392909216919091179055565b828054600181600116156101000203166002900490600052602060002090601f016020900481019282620004e257600085556200052d565b82601f10620004fd57805160ff19168380011785556200052d565b828001600101855582156200052d579182015b828111156200052d57825182559160200191906001019062000510565b506200053b9291506200053f565b5090565b5b808211156200053b576000815560010162000540565b60805160601c60a05160601c60c05160601c60e05161010051610120516101405161016051610180516101a0516101c0516101e05161020051610220516102405160f81c614349620006d3600039806119c05280613f17525080610e5352806133e8525080610e1d5280610e7d52806133a0525080611dbc52806120d3525080611d985280613cea5280613d1a525080610d5f52806112955280611ab35280611e9e5280612ef55250806113175280611ec2525080612ce05280613c81525080611c25528061213c52806122ac52806126af525080610cbc5280611c015280612c155280613c34525080610a355280610cdd5280612c365280613c125280613f6a525080610cfe52806120095280612c5752806136555280613bf15280613f49525080612a755280612f2152806135e8525080610a595280612dad5280612e3c525080611ca2528061216852806121f952806123415280612404528061243352806128295280612d7e528061302a52806133c452506143496000f3fe608060405234801561001057600080fd5b50600436106103db5760003560e01c80638a9920b71161020a578063bf85219611610125578063eb850ae1116100b8578063f3d9dc0d11610087578063f3d9dc0d146109f6578063f5e96fc9146109fe578063f8e829c314610a06578063f8eeed6214610a0e578063fd5e6dd114610a16576103db565b8063eb850ae11461098d578063f0141d8414610995578063f1b17a8b146109b3578063f2fde38b146109d0576103db565b8063d7efb6b7116100f4578063d7efb6b714610935578063de09ee201461093d578063e425df8c1461097d578063e8153c9314610985576103db565b8063bf85219614610915578063c12010541461091d578063c6c1decd14610925578063d025188b1461092d576103db565b8063a150194b1161019d578063aa7bcb571161016c578063aa7bcb57146108f5578063b1dd61b6146108fd578063b88a802f14610905578063bece75321461090d576103db565b8063a150194b14610870578063a35ef3a714610878578063a4e2d634146108d0578063a7a48681146108d8576103db565b806395c2ba47116101d957806395c2ba4714610839578063996c6cc314610841578063a08b2c7914610849578063a118c9a714610851576103db565b80638a9920b7146108195780638bfbbcbe146108215780638da5cb5b146108295780638e15f47314610831576103db565b80634bc4eeb2116102fa578063715018a61161028d5780637b0472f01161025c5780637b0472f01461076f5780637f2b6a0d14610792578063817b1cd21461079a578063850fa7cb146107a2576103db565b8063715018a61461073157806373f3170314610739578063785fa6271461074157806378f4d41314610749576103db565b806351eacbf0116102c957806351eacbf0146106e35780635d2631e2146106eb5780636847d0c5146107215780636b036f4514610729576103db565b80634bc4eeb21461068d5780634c7c77fc146106955780634ddc1bdc146106b85780634e8bfdaa146106db576103db565b80633299ac5f116103725780634026478e116103415780634026478e1461059657806343352d611461059e578063444a49021461063f57806345e9131914610661576103db565b80633299ac5f146104f757806334381749146105145780633ac58b9a146105535780633fcdd82c14610579576103db565b8063238a6c74116103ae578063238a6c74146104605780632d42cf7d146104dd5780632e577d07146104e757806331e244e5146104ef576103db565b80630d668087146103e05780630f4ef8a6146103fa578063183521cc1461041e57806322f3e2d414610444575b600080fd5b6103e8610a33565b60408051918252519081900360200190f35b610402610a57565b604080516001600160a01b039092168252519081900360200190f35b6103e86004803603602081101561043457600080fd5b50356001600160a01b0316610a7b565b61044c610bc3565b604080519115158252519081900360200190f35b610468610bd3565b6040805160208082528351818301528351919283929083019185019080838360005b838110156104a257818101518382015260200161048a565b50505050905090810190601f1680156104cf5780820380516001836020036101000a031916815260200191505b509250505060405180910390f35b6104e5610c61565b005b610402610f9a565b6104e5610faa565b6103e86004803603602081101561050d57600080fd5b5035611021565b61053a6004803603602081101561052a57600080fd5b50356001600160a01b0316611148565b6040805192835260208301919091528051918290030190f35b61053a6004803603602081101561056957600080fd5b50356001600160a01b0316611180565b6103e86004803603602081101561058f57600080fd5b503561139b565b6104e561151b565b6105a661157c565b604051808060200180602001838103835285818151815260200191508051906020019060200280838360005b838110156105ea5781810151838201526020016105d2565b50505050905001838103825284818151815260200191508051906020019060200280838360005b83811015610629578181015183820152602001610611565b5050505090500194505050505060405180910390f35b6104e5600480360361064081101561065657600080fd5b5061032081016116c1565b61044c6004803603604081101561067757600080fd5b506001600160a01b03813516906020013561182a565b61044c6119be565b6103e8600480360360408110156106ab57600080fd5b50803590602001356119e2565b6104e5600480360360408110156106ce57600080fd5b5080359060200135611a56565b6103e8611bff565b6103e8611c23565b6104e56004803603606081101561070157600080fd5b506001600160a01b03813581169160208101359160409091013516611c47565b6103e8611d96565b6103e8611dba565b6104e5611dde565b6103e8611e9c565b6103e8611ec0565b6103e86004803603602081101561075f57600080fd5b50356001600160a01b0316611ee4565b6104e56004803603604081101561078557600080fd5b5080359060200135611ff3565b61044c612733565b6103e8612743565b6107ce600480360360408110156107b857600080fd5b506001600160a01b038135169060200135612749565b60408051998a5260208a0198909852888801969096526060880194909452608087019290925260a086015260c0850152151560e0840152151561010083015251908190036101200190f35b6104e56127b7565b6104e561292e565b6104026129c5565b6103e86129d4565b6103e8612a6e565b610402612a73565b61044c612a97565b6104e56004803603602081101561086757600080fd5b50351515612aa7565b6103e8612b1e565b610880612b23565b60408051602080825283518183015283519192839290830191858101910280838360005b838110156108bc5781810151838201526020016108a4565b505050509050019250505060405180910390f35b61044c612baa565b6104e5600480360360208110156108ee57600080fd5b5035612bba565b6103e8612cde565b610468612d02565b6104e5612d5d565b61040261317d565b6103e861318c565b6103e86132c5565b610402613341565b6103e8613350565b61044c613356565b61095a6004803603602081101561095357600080fd5b5035613366565b604080516001600160a01b03909316835260208301919091528051918290030190f35b6103e861339e565b6104026133c2565b6103e86133e6565b61099d61340a565b6040805160ff9092168252519081900360200190f35b61053a600480360360208110156109c957600080fd5b503561348d565b6104e5600480360360208110156109e657600080fd5b50356001600160a01b03166134bb565b6103e86135cf565b6104026135d5565b6103e86135e4565b6103e8613653565b61095a60048036036020811015610a2c57600080fd5b5035613677565b7f000000000000000000000000000000000000000000000000000000000000000081565b7f000000000000000000000000000000000000000000000000000000000000000081565b6001600160a01b038116600090815260086020908152604080832080548251818502810185019093528083528493849084015b82821015610b4057600084815260209081902060408051610120810182526008860290920180548352600180820154848601526002820154928401929092526003810154606084015260048101546080840152600581015460a0840152600681015460c08401526007015460ff808216151560e085015261010091829004161515908301529083529092019101610aae565b505050509050805160001415610b5a576000915050610bbe565b6000805b8251811015610bb957828181518110610b7357fe5b60200260200101516101000151610bb157610bae838281518110610b9357fe5b6020026020010151600001518361368790919063ffffffff16565b91505b600101610b5e565b509150505b919050565b600f54600160a81b900460ff1681565b6006805460408051602060026001851615610100026000190190941693909304601f81018490048402820184019092528181529291830182828015610c595780601f10610c2e57610100808354040283529160200191610c59565b820191906000526020600020905b815481529060010190602001808311610c3c57829003601f168201915b505050505081565b600e546001600160a01b0316610c756136e8565b6001600160a01b031614610cba5760405162461bcd60e51b81526004018080602001828103825260218152602001806142206021913960400191505060405180910390fd5b7f00000000000000000000000000000000000000000000000000000000000000007f00000000000000000000000000000000000000000000000000000000000000007f00000000000000000000000000000000000000000000000000000000000000000101421015610d5d5760405162461bcd60e51b815260040180806020018281038252602c8152602001806141ad602c913960400191505060405180910390fd5b7f000000000000000000000000000000000000000000000000000000000000000015610dc657610d8b6135e4565b610dc65760405162461bcd60e51b81526004018080602001828103825260278152602001806142b76027913960400191505060405180910390fd5b60095415610e1b57600a54610e1b576040805162461bcd60e51b81526020600482015260166024820152750c0ccd8c88199a5c9cdd081cda1bdd5b19081cdbdc9d60521b604482015290519081900360640190fd5b7f000000000000000000000000000000000000000000000000000000000000000015610ea2576000610e4b61318c565b9050610e77817f00000000000000000000000000000000000000000000000000000000000000006119e2565b610ea0577f0000000000000000000000000000000000000000000000000000000000000000600d555b505b600a54600090601910610eb757600a54610eba565b60195b905060005b81811015610f4b578060010160086000600a8481548110610edc57fe5b600091825260208083206002909202909101546001600160a01b031683528201929092526040019020600a805484908110610f1357fe5b90600052602060002090600202016001015481548110610f2f57fe5b6000918252602090912060066008909202010155600101610ebf565b50600f805460ff60b81b1960ff60b01b19909116600160b01b1716600160b81b1790556040517fe8ef7a17c92d025d9c1ead1c6b3ca3b44d3283d0ee954f615c5c476911f629a590600090a150565b6003546001600160a01b03165b90565b600e546001600160a01b0316610fbe6136e8565b6001600160a01b0316146110035760405162461bcd60e51b81526004018080602001828103825260218152602001806142206021913960400191505060405180910390fd5b600f805461ffff60a01b1916600160a01b17905561101f6136ec565b565b6000806040518060800160405280616b6c8152602001617530815260200161445c81526020016000198152509050600060405180608001604052806103e881526020016102bc8152602001610177815260200160c881525090506000805b600481101561113f576000600382146110ba576110b5670de0b6b3a76400008684600481106110aa57fe5b60200201519061372a565b6110bc565b865b905060008188116110cd57876110cf565b815b9050611119611112670de0b6b3a764000061110c6101f481620f42406111068c8b600481106110fa57fe5b6020020151899061372a565b9061372a565b90613783565b8590613687565b935081881161112957505061113f565b61113388836137ea565b9750505060010161107f565b50949350505050565b600080600080600061115986611ee4565b905061116486611180565b90935091506111738184613687565b945090925050505b915091565b600f546000908190600160b81b900460ff166111a15750600090508061117b565b6001600160a01b038316600090815260086020908152604080832080548251818502810185019093528083529192909190849084015b8282101561126957600084815260209081902060408051610120810182526008860290920180548352600180820154848601526002820154928401929092526003810154606084015260048101546080840152600581015460a0840152600681015460c08401526007015460ff808216151560e0850152610100918290041615159083015290835290920191016111d7565b50505050905080516000141561128657600080925092505061117b565b600c546000906112be9061110c7f00000000000000000000000000000000000000000000000000000000000000006305f5e10061372a565b905060008060005b845181101561135e578481815181106112db57fe5b602002602001015160e0015161135657600061130d8683815181106112fc57fe5b602002602001015160c00151613847565b905061133c6111127f0000000000000000000000000000000000000000000000000000000000000000836138b2565b935061135261134b86836138b2565b8490613687565b9250505b6001016112c6565b50600d541561138f57600d546113759083906138c4565b915061138c600d54826138c490919063ffffffff16565b90505b90945092505050915091565b60035460009081906001600160a01b031663d06ca61f846113ba612b23565b6040518363ffffffff1660e01b81526004018083815260200180602001828103825283818151815260200191508051906020019060200280838360005b8381101561140f5781810151838201526020016113f7565b50505050905001935050505060006040518083038186803b15801561143357600080fd5b505afa158015611447573d6000803e3d6000fd5b505050506040513d6000823e601f3d908101601f19168201604052602081101561147057600080fd5b810190808051604051939291908464010000000082111561149057600080fd5b9083019060208201858111156114a557600080fd5b82518660208202830111640100000000821117156114c257600080fd5b82525081516020918201928201910280838360005b838110156114ef5781810151838201526020016114d7565b5050505090500160405250505090508060018151811061150b57fe5b6020026020010151915050919050565b600e546001600160a01b031661152f6136e8565b6001600160a01b0316146115745760405162461bcd60e51b81526004018080602001828103825260218152602001806142206021913960400191505060405180910390fd5b61101f6136ec565b606080600060098054905067ffffffffffffffff8111801561159d57600080fd5b506040519080825280602002602001820160405280156115c7578160200160208202803683370190505b5060095490915060009067ffffffffffffffff811180156115e757600080fd5b50604051908082528060200260200182016040528015611611578160200160208202803683370190505b50905060005b6009548110156116b7576009818154811061162e57fe5b600091825260209091206002909102015483516001600160a01b039091169084908390811061165957fe5b60200260200101906001600160a01b031690816001600160a01b0316815250506009818154811061168657fe5b9060005260206000209060020201600101548282815181106116a457fe5b6020908102919091010152600101611617565b5090925090509091565b600e546001600160a01b03166116d56136e8565b6001600160a01b03161461171a5760405162461bcd60e51b81526004018080602001828103825260218152602001806142206021913960400191505060405180910390fd5b600a541561172e5761172e600a600061411d565b60005b60198110156117fc57600083826019811061174857fe5b60200201356001600160a01b03166001600160a01b0316141561176a576117fc565b600a604051806040016040528085846019811061178357fe5b60200201356001600160a01b03166001600160a01b031681526020018484601981106117ab57fe5b60209081029190910135909152825460018082018555600094855293829020835160029092020180546001600160a01b0319166001600160a01b039092169190911781559101519082015501611731565b506040517f5c243cc6e4f210bf2dd86b8eca0ca891d3f8ad2eb09fbf91735eb348bc199c7e90600090a15050565b6001600160a01b038216600090815260086020908152604080832080548251818502810185019093528083528493849084015b828210156118ef57600084815260209081902060408051610120810182526008860290920180548352600180820154848601526002820154928401929092526003810154606084015260048101546080840152600581015460a0840152600681015460c08401526007015460ff808216151560e08501526101009182900416151590830152908352909201910161185d565b50505050905060008151116119355760405162461bcd60e51b815260040180806020018281038252602b815260200180614262602b913960400191505060405180910390fd5b8051831061198a576040805162461bcd60e51b815260206004820152601760248201527f30333831207468697320696e6465782065786365656473000000000000000000604482015290519081900360640190fd5b80838151811061199657fe5b60200260200101516101000151156119b25760019150506119b8565b60009150505b92915050565b7f000000000000000000000000000000000000000000000000000000000000000081565b6000600c54831115611a2657600c546119fb84846137ea565b11611a08575060006119b8565b600c54611a1f90611a1985856137ea565b906137ea565b90506119b8565b600c54611a338484613687565b10611a40575060006119b8565b611a1f611a4d8484613687565b600c54906137ea565b600e546001600160a01b0316611a6a6136e8565b6001600160a01b031614611aaf5760405162461bcd60e51b81526004018080602001828103825260218152602001806142206021913960400191505060405180910390fd5b60007f000000000000000000000000000000000000000000000000000000000000000011611b0e5760405162461bcd60e51b81526004018080602001828103825260238152602001806141646023913960400191505060405180910390fd5b60008211611b63576040805162461bcd60e51b815260206004820152601960248201527f3033343120416d6f756e742063616e2774206265207a65726f00000000000000604482015290519081900360640190fd5b42811015611baf576040805162461bcd60e51b81526020600482015260146024820152733033343220446561646c696e65206973206c6f7760601b604482015290519081900360640190fd5b6000611bb9610f9a565b9050611bc581846138ec565b6000611bd08461139b565b90506000611bea611be38361012c6138b2565b83906137ea565b9050611bf8308683876139b1565b5050505050565b7f000000000000000000000000000000000000000000000000000000000000000081565b7f000000000000000000000000000000000000000000000000000000000000000081565b600e546001600160a01b0316611c5b6136e8565b6001600160a01b031614611ca05760405162461bcd60e51b81526004018080602001828103825260218152602001806142206021913960400191505060405180910390fd5b7f00000000000000000000000000000000000000000000000000000000000000006001600160a01b0316836001600160a01b03161415611d115760405162461bcd60e51b81526004018080602001828103825260218152602001806141ff6021913960400191505060405180910390fd5b6040805163a9059cbb60e01b81526001600160a01b038381166004830152602482018590529151859283169163a9059cbb9160448083019260209291908290030181600087803b158015611d6457600080fd5b505af1158015611d78573d6000803e3d6000fd5b505050506040513d6020811015611d8e57600080fd5b505050505050565b7f000000000000000000000000000000000000000000000000000000000000000081565b7f000000000000000000000000000000000000000000000000000000000000000081565b611de66136e8565b6001600160a01b0316611df76129c5565b6001600160a01b031614611e52576040805162461bcd60e51b815260206004820181905260248201527f4f776e61626c653a2063616c6c6572206973206e6f7420746865206f776e6572604482015290519081900360640190fd5b600080546040516001600160a01b03909116907f8be0079c531659141344cd1fd0a4f28419497f9722a3daafe3b4186f6b6457e0908390a3600080546001600160a01b0319169055565b7f000000000000000000000000000000000000000000000000000000000000000081565b7f000000000000000000000000000000000000000000000000000000000000000081565b6001600160a01b038116600090815260086020908152604080832080548251818502810185019093528083528493849084015b82821015611fa957600084815260209081902060408051610120810182526008860290920180548352600180820154848601526002820154928401929092526003810154606084015260048101546080840152600581015460a0840152600681015460c08401526007015460ff808216151560e085015261010091829004161515908301529083529092019101611f17565b505050509050805160001415611fc3576000915050610bbe565b6000805b8251811015610bb9576000611fdc8683613b4a565b9050611fe88382613687565b925050600101611fc7565b600f54600160a81b900460ff16801561202b57507f000000000000000000000000000000000000000000000000000000000000000042115b61207c576040805162461bcd60e51b815260206004820152601760248201527f3033313320706f6f6c206973206e6f7420616374697665000000000000000000604482015290519081900360640190fd5b600f54600160b01b900460ff16156120d1576040805162461bcd60e51b81526020600482015260136024820152720c0ccc4c08141bdbdb081a5cc81b1bd8dad959606a1b604482015290519081900360640190fd5b7f00000000000000000000000000000000000000000000000000000000000000008210156121305760405162461bcd60e51b815260040180806020018281038252602a81526020018061428d602a913960400191505060405180910390fd5b6000612162606461110c7f0000000000000000000000000000000000000000000000000000000000000000600561372a565b905060007f00000000000000000000000000000000000000000000000000000000000000006001600160a01b031663771a3a1d6040518163ffffffff1660e01b815260040160206040518083038186803b1580156121bf57600080fd5b505afa1580156121d3573d6000803e3d6000fd5b505050506040513d60208110156121e957600080fd5b5051905060006001600160a01b037f00000000000000000000000000000000000000000000000000000000000000001663d1ecfc686122266136e8565b6040518263ffffffff1660e01b815260040180826001600160a01b0316815260200191505060206040518083038186803b15801561226357600080fd5b505afa158015612277573d6000803e3d6000fd5b505050506040513d602081101561228d57600080fd5b50516122a25761229d85836138b2565b6122a5565b60005b90506122d17f000000000000000000000000000000000000000000000000000000000000000084613687565b6122ea82611a1988600b5461368790919063ffffffff16565b11156123275760405162461bcd60e51b81526004018080602001828103825260268152602001806141d96026913960400191505060405180910390fd5b60006123338684613ce2565b965090506001600160a01b037f0000000000000000000000000000000000000000000000000000000000000000166323b872dd61236e6136e8565b604080516001600160e01b031960e085901b1681526001600160a01b03909216600483015230602483015289850160448301525160648083019260209291908290030181600087803b1580156123c357600080fd5b505af11580156123d7573d6000803e3d6000fd5b505050506040513d60208110156123ed57600080fd5b506123fa905086836137ea565b95508015612531577f00000000000000000000000000000000000000000000000000000000000000006001600160a01b031663a9059cbb7f00000000000000000000000000000000000000000000000000000000000000006001600160a01b0316634a5db0a96040518163ffffffff1660e01b815260040160206040518083038186803b15801561248a57600080fd5b505afa15801561249e573d6000803e3d6000fd5b505050506040513d60208110156124b457600080fd5b5051604080516001600160e01b031960e085901b1681526001600160a01b039092166004830152602482018590525160448083019260209291908290030181600087803b15801561250457600080fd5b505af1158015612518573d6000803e3d6000fd5b505050506040513d602081101561252e57600080fd5b50505b600b5461253e9087613687565b600b81905550600960405180604001604052806125596136e8565b6001600160a01b03168152602001600860006125736136e8565b6001600160a01b0390811682526020808301939093526040909101600090812054909352845460018082018755958452828420855160029092020180546001600160a01b0319169190921617815592015191909201556008906125d46136e8565b6001600160a01b03168152602080820192909252604090810160009081208251610120810184528a81524281860181815294820184815260608301918252608083018c815260001960a0850181815260c0860191825260e086018881526101008088018a8152895460018082018c559a8c529c909a2097516008909c029097019a8b559851968a01969096559151600289015591516003880155905160048701559151600586015590516006850155915160079093018054915160ff19929092169315159390931761ff001916901515909102179055600b547f0000000000000000000000000000000000000000000000000000000000000000116126db576126db6136ec565b6126e36136e8565b6001600160a01b03167f5af417134f72a9d41143ace85b0a26dce6f550f894f2cbc1eeee8810603d91b68787604051808381526020018281526020019250505060405180910390a2505050505050565b600f54600160b81b900460ff1681565b600b5481565b6008602052816000526040600020818154811061276557600080fd5b6000918252602090912060089091020180546001820154600283015460038401546004850154600586015460068701546007909701549598509396509194909391929160ff8082169161010090041689565b600f54600160a01b900460ff1661280d576040805162461bcd60e51b815260206004820152601560248201527469742773206e6f7420616e20656d657267656e637960581b604482015290519081900360640190fd5b600061281f61281a6136e8565b610a7b565b9050801561292b577f00000000000000000000000000000000000000000000000000000000000000006001600160a01b031663a9059cbb61285e6136e8565b836040518363ffffffff1660e01b815260040180836001600160a01b0316815260200182815260200192505050602060405180830381600087803b1580156128a557600080fd5b505af11580156128b9573d6000803e3d6000fd5b505050506040513d60208110156128cf57600080fd5b506128e290506128dd6136e8565b613d7e565b6128ea6136e8565b6001600160a01b03167f85082129d87b2fe11527cb1b3b7a520aeb5aa6913f88a3d8757fe40d1db02fdd826040518082815260200191505060405180910390a25b50565b600e546001600160a01b03166129426136e8565b6001600160a01b0316146129875760405162461bcd60e51b81526004018080602001828103825260218152602001806142206021913960400191505060405180910390fd5b600f805460ff60c01b1916600160c01b1790556040517f9331b2a38c658c57a39ea19b2709d928c28a12cc8fbb838d12b85148550f937d90600090a1565b6000546001600160a01b031690565b600080600160009054906101000a90046001600160a01b03166001600160a01b031663feaf968c6040518163ffffffff1660e01b815260040160a06040518083038186803b158015612a2557600080fd5b505afa158015612a39573d6000803e3d6000fd5b505050506040513d60a0811015612a4f57600080fd5b506020015190506000811215612a66576000612a68565b805b91505090565b600581565b7f000000000000000000000000000000000000000000000000000000000000000081565b600f54600160a01b900460ff1681565b600e546001600160a01b0316612abb6136e8565b6001600160a01b031614612b005760405162461bcd60e51b81526004018080602001828103825260218152602001806142206021913960400191505060405180910390fd5b600f8054911515600160a81b0260ff60a81b19909216919091179055565b600881565b60408051600280825260608083018452926000929190602083019080368337505060045482519293506001600160a01b031691839150600090612b6257fe5b6001600160a01b039283166020918202929092010152600554825191169082906001908110612b8d57fe5b6001600160a01b0390921660209283029190910190910152905090565b600f54600160b01b900460ff1681565b600e546001600160a01b0316612bce6136e8565b6001600160a01b031614612c135760405162461bcd60e51b81526004018080602001828103825260218152602001806142206021913960400191505060405180910390fd5b7f00000000000000000000000000000000000000000000000000000000000000007f00000000000000000000000000000000000000000000000000000000000000007f00000000000000000000000000000000000000000000000000000000000000000101421015612cb65760405162461bcd60e51b81526004018080602001828103825260368152602001806142de6036913960400191505060405180910390fd5b600f546001600160a01b0316612cd057600c81905561292b565b612cd86129d4565b600c5550565b7f000000000000000000000000000000000000000000000000000000000000000081565b6007805460408051602060026001851615610100026000190190941693909304601f81018490048402820184019092528181529291830182828015610c595780601f10610c2e57610100808354040283529160200191610c59565b600080612d70612d6b6136e8565b611148565b90925090508115612ed157817f00000000000000000000000000000000000000000000000000000000000000006001600160a01b03166370a082317f00000000000000000000000000000000000000000000000000000000000000006040518263ffffffff1660e01b815260040180826001600160a01b0316815260200191505060206040518083038186803b158015612e0957600080fd5b505afa158015612e1d573d6000803e3d6000fd5b505050506040513d6020811015612e3357600080fd5b505110612ed1577f00000000000000000000000000000000000000000000000000000000000000006001600160a01b031663e4e103dc612e716136e8565b846040518363ffffffff1660e01b815260040180836001600160a01b0316815260200182815260200192505050600060405180830381600087803b158015612eb857600080fd5b505af1158015612ecc573d6000803e3d6000fd5b505050505b612ee1612edc6136e8565b613df2565b600f54600160b81b900460ff1615613129577f000000000000000000000000000000000000000000000000000000000000000015613013578015613003577f00000000000000000000000000000000000000000000000000000000000000006001600160a01b031663a9059cbb612f566136e8565b836040518363ffffffff1660e01b815260040180836001600160a01b0316815260200182815260200192505050602060405180830381600087803b158015612f9d57600080fd5b505af1158015612fb1573d6000803e3d6000fd5b505050506040513d6020811015612fc757600080fd5b5051613003576040805162461bcd60e51b815260206004808301919091526024820152630303332360e41b604482015290519081900360640190fd5b61301361300e6136e8565b613eab565b600061302061281a6136e8565b90508015613127577f00000000000000000000000000000000000000000000000000000000000000006001600160a01b031663a9059cbb61305f6136e8565b836040518363ffffffff1660e01b815260040180836001600160a01b0316815260200182815260200192505050602060405180830381600087803b1580156130a657600080fd5b505af11580156130ba573d6000803e3d6000fd5b505050506040513d60208110156130d057600080fd5b506130de90506128dd6136e8565b6130e66136e8565b6001600160a01b03167f85082129d87b2fe11527cb1b3b7a520aeb5aa6913f88a3d8757fe40d1db02fdd826040518082815260200191505060405180910390a25b505b6131316136e8565b6001600160a01b03167ff279e6a1f5e320cca91135676d9cb6e44ca8a08c0b88342bcdb1144f6511b5688383604051808381526020018281526020019250505060405180910390a25050565b600f546001600160a01b031681565b6000600b54600014156131a157506000610fa7565b6000805b6009548110156132b657600060086000600984815481106131c257fe5b600091825260208083206002909202909101546001600160a01b03168352820192909252604001902060098054849081106131f957fe5b9060005260206000209060020201600101548154811061321557fe5b600091825260209182902060408051610120810182526008909302909101805480845260018201549484019490945260028101549183019190915260038101546060830152600481015460808301819052600582015460a0840152600682015460c084015260079091015460ff808216151560e085015261010091829004161515908301529092506132ab9161134b919061372a565b9250506001016131a5565b50600b54612a68908290613783565b600254604080516370a0823160e01b815230600482015290516000926001600160a01b0316916370a08231916024808301926020929190829003018186803b15801561331057600080fd5b505afa158015613324573d6000803e3d6000fd5b505050506040513d602081101561333a57600080fd5b5051905090565b600e546001600160a01b031681565b600c5481565b600f54600160c01b900460ff1681565b600a818154811061337657600080fd5b6000918252602090912060029091020180546001909101546001600160a01b03909116915082565b7f000000000000000000000000000000000000000000000000000000000000000081565b7f000000000000000000000000000000000000000000000000000000000000000081565b7f000000000000000000000000000000000000000000000000000000000000000081565b600080600160009054906101000a90046001600160a01b03166001600160a01b031663313ce5676040518163ffffffff1660e01b815260040160206040518083038186803b15801561345b57600080fd5b505afa15801561346f573d6000803e3d6000fd5b505050506040513d602081101561348557600080fd5b505191505090565b6010818154811061349d57600080fd5b60009182526020909120600290910201805460019091015490915082565b6134c36136e8565b6001600160a01b03166134d46129c5565b6001600160a01b03161461352f576040805162461bcd60e51b815260206004820181905260248201527f4f776e61626c653a2063616c6c6572206973206e6f7420746865206f776e6572604482015290519081900360640190fd5b6001600160a01b0381166135745760405162461bcd60e51b81526004018080602001828103825260268152602001806141876026913960400191505060405180910390fd5b600080546040516001600160a01b03808516939216917f8be0079c531659141344cd1fd0a4f28419497f9722a3daafe3b4186f6b6457e091a3600080546001600160a01b0319166001600160a01b0392909216919091179055565b600d5481565b6002546001600160a01b031690565b60007f00000000000000000000000000000000000000000000000000000000000000006001600160a01b03166370a08231306040518263ffffffff1660e01b815260040180826001600160a01b0316815260200191505060206040518083038186803b15801561331057600080fd5b7f000000000000000000000000000000000000000000000000000000000000000081565b6009818154811061337657600080fd5b6000828201838110156136e1576040805162461bcd60e51b815260206004820152601b60248201527f536166654d6174683a206164646974696f6e206f766572666c6f770000000000604482015290519081900360640190fd5b9392505050565b3390565b600f805460ff60b01b1916600160b01b1790556040517f2e136745550967f28b779ce8c395ca060a2f844edfb5b06631fe677f66f9e30590600090a1565b600082613739575060006119b8565b8282028284828161374657fe5b04146136e15760405162461bcd60e51b81526004018080602001828103825260218152602001806142416021913960400191505060405180910390fd5b60008082116137d9576040805162461bcd60e51b815260206004820152601a60248201527f536166654d6174683a206469766973696f6e206279207a65726f000000000000604482015290519081900360640190fd5b8183816137e257fe5b049392505050565b600082821115613841576040805162461bcd60e51b815260206004820152601e60248201527f536166654d6174683a207375627472616374696f6e206f766572666c6f770000604482015290519081900360640190fd5b50900390565b6000805b6010548110156138a9576010818154811061386257fe5b90600052602060002090600202016000015483116138a1576010818154811061388757fe5b906000526020600020906002020160010154915050610bbe565b60010161384b565b50600092915050565b60006136e161271061110c858561372a565b6000826138d3575060006119b8565b816138df5750816119b8565b6136e161134b84846138b2565b6002546040805163095ea7b360e01b81526001600160a01b038581166004830152602482018590529151919092169163095ea7b39160448083019260209291908290030181600087803b15801561394257600080fd5b505af1158015613956573d6000803e3d6000fd5b505050506040513d602081101561396c57600080fd5b50506040805182815290516001600160a01b038416917fd77df63d9076d067d9fd7af16c3d67db48b84064c3314f5900ae919922d364a1919081900360200190a25050565b6001600160a01b0384166139c457600080fd5b6003546001600160a01b03166338ed173984846139df612b23565b88866040518663ffffffff1660e01b81526004018086815260200185815260200180602001846001600160a01b03168152602001838152602001828103825285818151815260200191508051906020019060200280838360005b83811015613a51578181015183820152602001613a39565b505050509050019650505050505050600060405180830381600087803b158015613a7a57600080fd5b505af1158015613a8e573d6000803e3d6000fd5b505050506040513d6000823e601f3d908101601f191682016040526020811015613ab757600080fd5b8101908080516040519392919084640100000000821115613ad757600080fd5b908301906020820185811115613aec57600080fd5b8251866020820283011164010000000082111715613b0957600080fd5b82525081516020918201928201910280838360005b83811015613b36578181015183820152602001613b1e565b505050509050016040525050505050505050565b6001600160a01b0382166000908152600860205260408120805482919084908110613b7157fe5b6000918252602080832060408051610120810182526008909402909101805484526001810154928401929092526002820154908301526003810154606083015260048101546080830152600581015460a0830152600681015460c08301526007015460ff808216151560e0840152610100918290041615159082015291507f00000000000000000000000000000000000000000000000000000000000000007f0000000000000000000000000000000000000000000000000000000000000000017f00000000000000000000000000000000000000000000000000000000000000000190428210613c625742613c64565b815b90506000613c758460200151613f13565b90506000613cbd613ca67f000000000000000000000000000000000000000000000000000000000000000084613687565b6020870151613cb69086906137ea565b875161401a565b9050613cd68560400151826137ea90919063ffffffff16565b98975050505050505050565b6000806000837f000000000000000000000000000000000000000000000000000000000000000011613d15576000613d3f565b613d3f7f0000000000000000000000000000000000000000000000000000000000000000856137ea565b905080613d53576000859250925050613d77565b613d5d85826138b2565b613d71613d6a87846138b2565b87906137ea565b92509250505b9250929050565b6001600160a01b03811660009081526008602052604090208054613da2575061292b565b60005b8154811015613ded576001828281548110613dbc57fe5b6000918252602090912060076008909202010180549115156101000261ff0019909216919091179055600101613da5565b505050565b6001600160a01b03811660009081526008602052604090208054613e16575061292b565b60005b8154811015613ded576000613e2e8483613b4a565b905042838381548110613e3d57fe5b906000526020600020906008020160030181905550613e8281848481548110613e6257fe5b90600052602060002090600802016002015461368790919063ffffffff16565b838381548110613e8e57fe5b600091825260209091206002600890920201015550600101613e19565b6001600160a01b03811660009081526008602052604090208054613ecf575061292b565b60005b8154811015613ded576001828281548110613ee957fe5b60009182526020909120600890910201600701805460ff1916911515919091179055600101613ed2565b60007f0000000000000000000000000000000000000000000000000000000000000000613f4257506000610bbe565b6000613f8e7f00000000000000000000000000000000000000000000000000000000000000007f0000000000000000000000000000000000000000000000000000000000000000613687565b90506000613f9c82856137ea565b90506202a300811015613fb457600092505050610bbe565b6203f480811015613fca57606492505050610bbe565b62054600811015613fe05760c892505050610bbe565b62069780811015613ff75761012c92505050610bbe565b6207e90081101561400e5761019092505050610bbe565b6101f492505050610bbe565b60006301e133808161403766038882915c40006305f5e10061372a565b9050600061404d61138861110685818a8c61372a565b905060006140646113886111068a6002880a61372a565b9050600061407d600661110c6002808c0a908d0a61372a565b905060006140a0600261110c8861110660028f0a8e61372a90919063ffffffff16565b905060006140b9600361110c6002808f0a908b0a61372a565b905060006140d3826140cd86818b8b613687565b90613687565b90506140e383611a1983886137ea565b90506140f38b611106838f61372a565b905061410d64e8d4a5100061110c60038b0a81858f61372a565b9c9b505050505050505050505050565b508054600082556002029060005260206000209081019061292b91905b8082111561415f5780546001600160a01b03191681556000600182015560020161413a565b509056fe303334302054686520706f6f6c206973206f6e6c7920544f544d2072657761726465724f776e61626c653a206e6577206f776e657220697320746865207a65726f2061646472657373303336302043616e277420656e6420706f6f6c206265666f726520746865206d617475726974792074696d65303331322043616e2774207374616b652061626f76652073697a6520616c6c6f636174696f6e3033373020746f74656d732063616e206e6f74206265207472616e736665726564303330302063616c6c6572206973206e6f74206120706f6f6c2063726561746f72536166654d6174683a206d756c7469706c69636174696f6e206f766572666c6f773033383020746869732061646472657373206469646e2774207374616b6520696e207468697320706f6f6c3033313120416d6f756e742063616e2774206265206c657373207468616e20746865206d696e696d756d303336312057726170706564546f6b656e2052657761726473206e6f7420617661696c61626c65303335302043616e277420736574206d61747572696e67207072696365206265666f726520746865206d617475726974792074696d65a2646970667358221220f219269857c47c3bd976cc3c33097b4d3bad026611ee365ef2a7e4e6e75fece364736f6c6343000706003330333031206c61756e636820646174652063616e277420626520696e2070617374506f6f6c43726561746f72526f6c653a2063616c6c657220646f6573206e6f7420686176652074686520506f6f6c43726561746f7220726f6c65526f6c65733a206163636f756e7420646f6573206e6f74206861766520726f6c65526f6c65733a206163636f756e7420697320746865207a65726f2061646472657373a26469706673582212206b775668cca7020ff3175f135b112f6e54733b651af6f99a706f88e6a3437f5f64736f6c63430007060033526f6c65733a206163636f756e7420697320746865207a65726f2061646472657373",
  "linkReferences": {},
  "deployedLinkReferences": {},
  "devdoc": {
    "kind": "dev",
    "methods": {},
    "version": 1
  },
  "evm": {
    "bytecode": {
      "linkReferences": {},
      "opcodes": "PUSH1 0xE0 PUSH1 0x40 MSTORE CALLVALUE DUP1 ISZERO PUSH3 0x11 JUMPI PUSH1 0x0 DUP1 REVERT JUMPDEST POP PUSH1 0x40 MLOAD PUSH3 0x5AEC CODESIZE SUB DUP1 PUSH3 0x5AEC DUP4 CODECOPY DUP2 ADD PUSH1 0x40 DUP2 SWAP1 MSTORE PUSH3 0x34 SWAP2 PUSH3 0x217 JUMP JUMPDEST PUSH3 0x48 PUSH3 0x42 PUSH3 0xB1 JUMP JUMPDEST PUSH3 0xB5 JUMP JUMPDEST PUSH3 0x61 JUMPI PUSH3 0x61 PUSH3 0x5B PUSH3 0xB1 JUMP JUMPDEST PUSH3 0xD8 JUMP JUMPDEST PUSH1 0x60 SWAP4 DUP5 SHL PUSH1 0x1 PUSH1 0x1 PUSH1 0x60 SHL SUB NOT SWAP1 DUP2 AND PUSH1 0x80 MSTORE SWAP3 DUP5 SHL DUP4 AND PUSH1 0xA0 MSTORE PUSH1 0x1 DUP1 SLOAD PUSH1 0x1 PUSH1 0x1 PUSH1 0xA0 SHL SUB NOT AND PUSH1 0x1 PUSH1 0x1 PUSH1 0xA0 SHL SUB SWAP4 SWAP1 SWAP4 AND SWAP3 SWAP1 SWAP3 OR SWAP1 SWAP2 SSTORE SWAP1 SWAP2 SHL AND PUSH1 0xC0 MSTORE PUSH2 0x12C PUSH1 0x2 SSTORE PUSH3 0x297 JUMP JUMPDEST CALLER SWAP1 JUMP JUMPDEST PUSH1 0x0 PUSH3 0xD2 DUP3 PUSH1 0x0 PUSH3 0x12A PUSH1 0x20 SHL PUSH3 0x47D OR SWAP1 SWAP2 SWAP1 PUSH1 0x20 SHR JUMP JUMPDEST SWAP3 SWAP2 POP POP JUMP JUMPDEST PUSH3 0xF3 DUP2 PUSH1 0x0 PUSH3 0x193 PUSH1 0x20 SHL PUSH3 0x4E6 OR SWAP1 SWAP2 SWAP1 PUSH1 0x20 SHR JUMP JUMPDEST PUSH1 0x40 MLOAD PUSH1 0x1 PUSH1 0x1 PUSH1 0xA0 SHL SUB DUP3 AND SWAP1 PUSH32 0xAC89BB7B3D0C5A763A97F31BC75F8FAEE00426E7B235F02CA76897D55CAF7B61 SWAP1 PUSH1 0x0 SWAP1 LOG2 POP JUMP JUMPDEST PUSH1 0x0 PUSH1 0x1 PUSH1 0x1 PUSH1 0xA0 SHL SUB DUP3 AND PUSH3 0x173 JUMPI PUSH1 0x40 MLOAD PUSH3 0x461BCD PUSH1 0xE5 SHL DUP2 MSTORE PUSH1 0x4 ADD DUP1 DUP1 PUSH1 0x20 ADD DUP3 DUP2 SUB DUP3 MSTORE PUSH1 0x22 DUP2 MSTORE PUSH1 0x20 ADD DUP1 PUSH3 0x5ACA PUSH1 0x22 SWAP2 CODECOPY PUSH1 0x40 ADD SWAP2 POP POP PUSH1 0x40 MLOAD DUP1 SWAP2 SUB SWAP1 REVERT JUMPDEST POP PUSH1 0x1 PUSH1 0x1 PUSH1 0xA0 SHL SUB AND PUSH1 0x0 SWAP1 DUP2 MSTORE PUSH1 0x20 SWAP2 SWAP1 SWAP2 MSTORE PUSH1 0x40 SWAP1 KECCAK256 SLOAD PUSH1 0xFF AND SWAP1 JUMP JUMPDEST PUSH3 0x19F DUP3 DUP3 PUSH3 0x12A JUMP JUMPDEST ISZERO PUSH3 0x1F2 JUMPI PUSH1 0x40 DUP1 MLOAD PUSH3 0x461BCD PUSH1 0xE5 SHL DUP2 MSTORE PUSH1 0x20 PUSH1 0x4 DUP3 ADD MSTORE PUSH1 0x1F PUSH1 0x24 DUP3 ADD MSTORE PUSH32 0x526F6C65733A206163636F756E7420616C72656164792068617320726F6C6500 PUSH1 0x44 DUP3 ADD MSTORE SWAP1 MLOAD SWAP1 DUP2 SWAP1 SUB PUSH1 0x64 ADD SWAP1 REVERT JUMPDEST PUSH1 0x1 PUSH1 0x1 PUSH1 0xA0 SHL SUB AND PUSH1 0x0 SWAP1 DUP2 MSTORE PUSH1 0x20 SWAP2 SWAP1 SWAP2 MSTORE PUSH1 0x40 SWAP1 KECCAK256 DUP1 SLOAD PUSH1 0xFF NOT AND PUSH1 0x1 OR SWAP1 SSTORE JUMP JUMPDEST PUSH1 0x0 DUP1 PUSH1 0x0 DUP1 PUSH1 0x80 DUP6 DUP8 SUB SLT ISZERO PUSH3 0x22D JUMPI DUP4 DUP5 REVERT JUMPDEST DUP5 MLOAD PUSH3 0x23A DUP2 PUSH3 0x27E JUMP JUMPDEST PUSH1 0x20 DUP7 ADD MLOAD SWAP1 SWAP5 POP PUSH3 0x24D DUP2 PUSH3 0x27E JUMP JUMPDEST PUSH1 0x40 DUP7 ADD MLOAD SWAP1 SWAP4 POP PUSH3 0x260 DUP2 PUSH3 0x27E JUMP JUMPDEST PUSH1 0x60 DUP7 ADD MLOAD SWAP1 SWAP3 POP PUSH3 0x273 DUP2 PUSH3 0x27E JUMP JUMPDEST SWAP4 SWAP7 SWAP3 SWAP6 POP SWAP1 SWAP4 POP POP JUMP JUMPDEST PUSH1 0x1 PUSH1 0x1 PUSH1 0xA0 SHL SUB DUP2 AND DUP2 EQ PUSH3 0x294 JUMPI PUSH1 0x0 DUP1 REVERT JUMPDEST POP JUMP JUMPDEST PUSH1 0x80 MLOAD PUSH1 0x60 SHR PUSH1 0xA0 MLOAD PUSH1 0x60 SHR PUSH1 0xC0 MLOAD PUSH1 0x60 SHR PUSH2 0x57EE PUSH3 0x2DC PUSH1 0x0 CODECOPY DUP1 PUSH2 0x255 MSTORE POP DUP1 PUSH2 0x1A6 MSTORE DUP1 PUSH2 0x596 MSTORE DUP1 PUSH2 0x66B MSTORE POP DUP1 PUSH2 0x45B MSTORE DUP1 PUSH2 0x575 MSTORE POP PUSH2 0x57EE PUSH1 0x0 RETURN INVALID PUSH1 0x80 PUSH1 0x40 MSTORE CALLVALUE DUP1 ISZERO PUSH3 0x11 JUMPI PUSH1 0x0 DUP1 REVERT JUMPDEST POP PUSH1 0x4 CALLDATASIZE LT PUSH3 0xB8 JUMPI PUSH1 0x0 CALLDATALOAD PUSH1 0xE0 SHR DUP1 PUSH4 0x8C2D741C GT PUSH3 0x7B JUMPI DUP1 PUSH4 0x8C2D741C EQ PUSH3 0x132 JUMPI DUP1 PUSH4 0x9A94775D EQ PUSH3 0x149 JUMPI DUP1 PUSH4 0xC31C9C07 EQ PUSH3 0x16F JUMPI DUP1 PUSH4 0xD53B245B EQ PUSH3 0x179 JUMPI DUP1 PUSH4 0xE281CC7E EQ PUSH3 0x190 JUMPI DUP1 PUSH4 0xE8153C93 EQ PUSH3 0x19A JUMPI PUSH3 0xB8 JUMP JUMPDEST DUP1 PUSH4 0xF4EF8A6 EQ PUSH3 0xBD JUMPI DUP1 PUSH4 0x1F7E29E5 EQ PUSH3 0xDF JUMPI DUP1 PUSH4 0x41273657 EQ PUSH3 0xF6 JUMPI DUP1 PUSH4 0x441F5C65 EQ PUSH3 0x10F JUMPI DUP1 PUSH4 0x6B036F45 EQ PUSH3 0x128 JUMPI JUMPDEST PUSH1 0x0 DUP1 REVERT JUMPDEST PUSH3 0xC7 PUSH3 0x1A4 JUMP JUMPDEST PUSH1 0x40 MLOAD PUSH3 0xD6 SWAP2 SWAP1 PUSH3 0xAFE JUMP JUMPDEST PUSH1 0x40 MLOAD DUP1 SWAP2 SUB SWAP1 RETURN JUMPDEST PUSH3 0xC7 PUSH3 0xF0 CALLDATASIZE PUSH1 0x4 PUSH3 0x911 JUMP JUMPDEST PUSH3 0x1C8 JUMP JUMPDEST PUSH3 0x10D PUSH3 0x107 CALLDATASIZE PUSH1 0x4 PUSH3 0x8ED JUMP JUMPDEST PUSH3 0x2AF JUMP JUMPDEST STOP JUMPDEST PUSH3 0x119 PUSH3 0x345 JUMP JUMPDEST PUSH1 0x40 MLOAD PUSH3 0xD6 SWAP2 SWAP1 PUSH3 0xCB4 JUMP JUMPDEST PUSH3 0x119 PUSH3 0x34B JUMP JUMPDEST PUSH3 0x10D PUSH3 0x143 CALLDATASIZE PUSH1 0x4 PUSH3 0x8ED JUMP JUMPDEST PUSH3 0x351 JUMP JUMPDEST PUSH3 0x160 PUSH3 0x15A CALLDATASIZE PUSH1 0x4 PUSH3 0x8ED JUMP JUMPDEST PUSH3 0x3AA JUMP JUMPDEST PUSH1 0x40 MLOAD PUSH3 0xD6 SWAP2 SWAP1 PUSH3 0xB12 JUMP JUMPDEST PUSH3 0xC7 PUSH3 0x3C0 JUMP JUMPDEST PUSH3 0x10D PUSH3 0x18A CALLDATASIZE PUSH1 0x4 PUSH3 0xA41 JUMP JUMPDEST PUSH3 0x3CF JUMP JUMPDEST PUSH3 0x10D PUSH3 0x443 JUMP JUMPDEST PUSH3 0xC7 PUSH3 0x459 JUMP JUMPDEST PUSH32 0x0 DUP2 JUMP JUMPDEST PUSH1 0x0 PUSH3 0x1D8 PUSH3 0x15A PUSH3 0x56A JUMP JUMPDEST PUSH3 0x215 JUMPI PUSH1 0x40 MLOAD PUSH3 0x461BCD PUSH1 0xE5 SHL DUP2 MSTORE PUSH1 0x4 ADD DUP1 DUP1 PUSH1 0x20 ADD DUP3 DUP2 SUB DUP3 MSTORE PUSH1 0x3A DUP2 MSTORE PUSH1 0x20 ADD DUP1 PUSH3 0x573C PUSH1 0x3A SWAP2 CODECOPY PUSH1 0x40 ADD SWAP2 POP POP PUSH1 0x40 MLOAD DUP1 SWAP2 SUB SWAP1 REVERT JUMPDEST PUSH3 0x224 JUMP JUMPDEST PUSH1 0x40 MLOAD DUP1 SWAP2 SUB SWAP1 REVERT JUMPDEST PUSH2 0x120 DUP6 ADD MLOAD PUSH3 0x239 JUMPI PUSH1 0x2 SLOAD PUSH2 0x120 DUP7 ADD MSTORE JUMPDEST PUSH1 0x40 DUP1 MLOAD PUSH1 0x80 DUP2 ADD DUP3 MSTORE PUSH1 0x1 SLOAD PUSH1 0x1 PUSH1 0x1 PUSH1 0xA0 SHL SUB SWAP1 DUP2 AND DUP3 MSTORE PUSH32 0x0 DUP2 AND PUSH1 0x20 DUP4 ADD MSTORE DUP12 DUP2 AND SWAP3 DUP3 ADD SWAP3 SWAP1 SWAP3 MSTORE SWAP1 DUP10 AND PUSH1 0x60 DUP3 ADD MSTORE PUSH1 0x0 PUSH3 0x2A0 DUP3 DUP11 DUP11 DUP11 DUP11 DUP11 DUP11 PUSH3 0x56E JUMP JUMPDEST SWAP12 SWAP11 POP POP POP POP POP POP POP POP POP POP POP JUMP JUMPDEST PUSH3 0x2BD PUSH3 0x15A PUSH3 0x56A JUMP JUMPDEST PUSH3 0x2FA JUMPI PUSH1 0x40 MLOAD PUSH3 0x461BCD PUSH1 0xE5 SHL DUP2 MSTORE PUSH1 0x4 ADD DUP1 DUP1 PUSH1 0x20 ADD DUP3 DUP2 SUB DUP3 MSTORE PUSH1 0x3A DUP2 MSTORE PUSH1 0x20 ADD DUP1 PUSH3 0x573C PUSH1 0x3A SWAP2 CODECOPY PUSH1 0x40 ADD SWAP2 POP POP PUSH1 0x40 MLOAD DUP1 SWAP2 SUB SWAP1 REVERT JUMPDEST PUSH1 0x1 PUSH1 0x1 PUSH1 0xA0 SHL SUB DUP2 AND PUSH3 0x323 JUMPI PUSH1 0x40 MLOAD PUSH3 0x461BCD PUSH1 0xE5 SHL DUP2 MSTORE PUSH1 0x4 ADD PUSH3 0x21B SWAP1 PUSH3 0xC96 JUMP JUMPDEST PUSH1 0x1 DUP1 SLOAD PUSH1 0x1 PUSH1 0x1 PUSH1 0xA0 SHL SUB NOT AND PUSH1 0x1 PUSH1 0x1 PUSH1 0xA0 SHL SUB SWAP3 SWAP1 SWAP3 AND SWAP2 SWAP1 SWAP2 OR SWAP1 SSTORE JUMP JUMPDEST PUSH1 0x2 SLOAD DUP2 JUMP JUMPDEST PUSH1 0x3 SLOAD DUP2 JUMP JUMPDEST PUSH3 0x35F PUSH3 0x15A PUSH3 0x56A JUMP JUMPDEST PUSH3 0x39C JUMPI PUSH1 0x40 MLOAD PUSH3 0x461BCD PUSH1 0xE5 SHL DUP2 MSTORE PUSH1 0x4 ADD DUP1 DUP1 PUSH1 0x20 ADD DUP3 DUP2 SUB DUP3 MSTORE PUSH1 0x3A DUP2 MSTORE PUSH1 0x20 ADD DUP1 PUSH3 0x573C PUSH1 0x3A SWAP2 CODECOPY PUSH1 0x40 ADD SWAP2 POP POP PUSH1 0x40 MLOAD DUP1 SWAP2 SUB SWAP1 REVERT JUMPDEST PUSH3 0x3A7 DUP2 PUSH3 0x6E3 JUMP JUMPDEST POP JUMP JUMPDEST PUSH1 0x0 PUSH3 0x3B8 DUP2 DUP4 PUSH3 0x47D JUMP JUMPDEST SWAP1 POP JUMPDEST SWAP2 SWAP1 POP JUMP JUMPDEST PUSH1 0x1 SLOAD PUSH1 0x1 PUSH1 0x1 PUSH1 0xA0 SHL SUB AND DUP2 JUMP JUMPDEST PUSH3 0x3DD PUSH3 0x15A PUSH3 0x56A JUMP JUMPDEST PUSH3 0x41A JUMPI PUSH1 0x40 MLOAD PUSH3 0x461BCD PUSH1 0xE5 SHL DUP2 MSTORE PUSH1 0x4 ADD DUP1 DUP1 PUSH1 0x20 ADD DUP3 DUP2 SUB DUP3 MSTORE PUSH1 0x3A DUP2 MSTORE PUSH1 0x20 ADD DUP1 PUSH3 0x573C PUSH1 0x3A SWAP2 CODECOPY PUSH1 0x40 ADD SWAP2 POP POP PUSH1 0x40 MLOAD DUP1 SWAP2 SUB SWAP1 REVERT JUMPDEST PUSH2 0x2710 DUP2 LT PUSH3 0x43E JUMPI PUSH1 0x40 MLOAD PUSH3 0x461BCD PUSH1 0xE5 SHL DUP2 MSTORE PUSH1 0x4 ADD PUSH3 0x21B SWAP1 PUSH3 0xC4F JUMP JUMPDEST PUSH1 0x2 SSTORE JUMP JUMPDEST PUSH3 0x457 PUSH3 0x451 PUSH3 0x56A JUMP JUMPDEST PUSH3 0x727 JUMP JUMPDEST JUMP JUMPDEST PUSH32 0x0 DUP2 JUMP JUMPDEST PUSH1 0x0 PUSH1 0x1 PUSH1 0x1 PUSH1 0xA0 SHL SUB DUP3 AND PUSH3 0x4C6 JUMPI PUSH1 0x40 MLOAD PUSH3 0x461BCD PUSH1 0xE5 SHL DUP2 MSTORE PUSH1 0x4 ADD DUP1 DUP1 PUSH1 0x20 ADD DUP3 DUP2 SUB DUP3 MSTORE PUSH1 0x22 DUP2 MSTORE PUSH1 0x20 ADD DUP1 PUSH3 0x5797 PUSH1 0x22 SWAP2 CODECOPY PUSH1 0x40 ADD SWAP2 POP POP PUSH1 0x40 MLOAD DUP1 SWAP2 SUB SWAP1 REVERT JUMPDEST POP PUSH1 0x1 PUSH1 0x1 PUSH1 0xA0 SHL SUB AND PUSH1 0x0 SWAP1 DUP2 MSTORE PUSH1 0x20 SWAP2 SWAP1 SWAP2 MSTORE PUSH1 0x40 SWAP1 KECCAK256 SLOAD PUSH1 0xFF AND SWAP1 JUMP JUMPDEST PUSH3 0x4F2 DUP3 DUP3 PUSH3 0x47D JUMP JUMPDEST ISZERO PUSH3 0x545 JUMPI PUSH1 0x40 DUP1 MLOAD PUSH3 0x461BCD PUSH1 0xE5 SHL DUP2 MSTORE PUSH1 0x20 PUSH1 0x4 DUP3 ADD MSTORE PUSH1 0x1F PUSH1 0x24 DUP3 ADD MSTORE PUSH32 0x526F6C65733A206163636F756E7420616C72656164792068617320726F6C6500 PUSH1 0x44 DUP3 ADD MSTORE SWAP1 MLOAD SWAP1 DUP2 SWAP1 SUB PUSH1 0x64 ADD SWAP1 REVERT JUMPDEST PUSH1 0x1 PUSH1 0x1 PUSH1 0xA0 SHL SUB AND PUSH1 0x0 SWAP1 DUP2 MSTORE PUSH1 0x20 SWAP2 SWAP1 SWAP2 MSTORE PUSH1 0x40 SWAP1 KECCAK256 DUP1 SLOAD PUSH1 0xFF NOT AND PUSH1 0x1 OR SWAP1 SSTORE JUMP JUMPDEST CALLER SWAP1 JUMP JUMPDEST PUSH1 0x0 DUP1 DUP8 DUP8 PUSH32 0x0 PUSH32 0x0 PUSH3 0x5BF PUSH3 0x56A JUMP JUMPDEST DUP14 DUP12 DUP12 DUP12 DUP12 PUSH1 0x40 MLOAD PUSH3 0x5D2 SWAP1 PUSH3 0x7D6 JUMP JUMPDEST PUSH3 0x5E7 SWAP11 SWAP10 SWAP9 SWAP8 SWAP7 SWAP6 SWAP5 SWAP4 SWAP3 SWAP2 SWAP1 PUSH3 0xB8F JUMP JUMPDEST PUSH1 0x40 MLOAD DUP1 SWAP2 SUB SWAP1 PUSH1 0x0 CREATE DUP1 ISZERO DUP1 ISZERO PUSH3 0x604 JUMPI RETURNDATASIZE PUSH1 0x0 DUP1 RETURNDATACOPY RETURNDATASIZE PUSH1 0x0 REVERT JUMPDEST POP SWAP1 POP DUP1 PUSH1 0x1 PUSH1 0x1 PUSH1 0xA0 SHL SUB AND PUSH32 0x36FB28861E6315C1412B9CBBA95B66A3A98F78CC2192D142D7C9D3A6269A1A53 DUP10 DUP10 DUP10 DUP10 DUP10 DUP10 PUSH1 0x40 MLOAD PUSH3 0x64C SWAP7 SWAP6 SWAP5 SWAP4 SWAP3 SWAP2 SWAP1 PUSH3 0xB1D JUMP JUMPDEST PUSH1 0x40 MLOAD DUP1 SWAP2 SUB SWAP1 LOG2 PUSH1 0x40 MLOAD PUSH4 0xD914CD4B PUSH1 0xE0 SHL DUP2 MSTORE PUSH1 0x1 PUSH1 0x1 PUSH1 0xA0 SHL SUB PUSH32 0x0 AND SWAP1 PUSH4 0xD914CD4B SWAP1 PUSH3 0x6A2 SWAP1 DUP5 SWAP1 PUSH1 0x4 ADD PUSH3 0xAFE JUMP JUMPDEST PUSH1 0x0 PUSH1 0x40 MLOAD DUP1 DUP4 SUB DUP2 PUSH1 0x0 DUP8 DUP1 EXTCODESIZE ISZERO DUP1 ISZERO PUSH3 0x6BD JUMPI PUSH1 0x0 DUP1 REVERT JUMPDEST POP GAS CALL ISZERO DUP1 ISZERO PUSH3 0x6D2 JUMPI RETURNDATASIZE PUSH1 0x0 DUP1 RETURNDATACOPY RETURNDATASIZE PUSH1 0x0 REVERT JUMPDEST POP SWAP3 SWAP12 SWAP11 POP POP POP POP POP POP POP POP POP POP POP JUMP JUMPDEST PUSH3 0x6F0 PUSH1 0x0 DUP3 PUSH3 0x4E6 JUMP JUMPDEST PUSH1 0x40 MLOAD PUSH1 0x1 PUSH1 0x1 PUSH1 0xA0 SHL SUB DUP3 AND SWAP1 PUSH32 0xAC89BB7B3D0C5A763A97F31BC75F8FAEE00426E7B235F02CA76897D55CAF7B61 SWAP1 PUSH1 0x0 SWAP1 LOG2 POP JUMP JUMPDEST PUSH3 0x734 PUSH1 0x0 DUP3 PUSH3 0x76B JUMP JUMPDEST PUSH1 0x40 MLOAD PUSH1 0x1 PUSH1 0x1 PUSH1 0xA0 SHL SUB DUP3 AND SWAP1 PUSH32 0x2BC71CC60B543DF5FDD80EF5A45E1CDB344843769B649E9D901DE3BE24AEB24E SWAP1 PUSH1 0x0 SWAP1 LOG2 POP JUMP JUMPDEST PUSH3 0x777 DUP3 DUP3 PUSH3 0x47D JUMP JUMPDEST PUSH3 0x7B4 JUMPI PUSH1 0x40 MLOAD PUSH3 0x461BCD PUSH1 0xE5 SHL DUP2 MSTORE PUSH1 0x4 ADD DUP1 DUP1 PUSH1 0x20 ADD DUP3 DUP2 SUB DUP3 MSTORE PUSH1 0x21 DUP2 MSTORE PUSH1 0x20 ADD DUP1 PUSH3 0x5776 PUSH1 0x21 SWAP2 CODECOPY PUSH1 0x40 ADD SWAP2 POP POP PUSH1 0x40 MLOAD DUP1 SWAP2 SUB SWAP1 REVERT JUMPDEST PUSH1 0x1 PUSH1 0x1 PUSH1 0xA0 SHL SUB AND PUSH1 0x0 SWAP1 DUP2 MSTORE PUSH1 0x20 SWAP2 SWAP1 SWAP2 MSTORE PUSH1 0x40 SWAP1 KECCAK256 DUP1 SLOAD PUSH1 0xFF NOT AND SWAP1 SSTORE JUMP JUMPDEST PUSH2 0x4A3D DUP1 PUSH3 0xCFF DUP4 CODECOPY ADD SWAP1 JUMP JUMPDEST DUP1 CALLDATALOAD PUSH1 0x1 PUSH1 0x1 PUSH1 0xA0 SHL SUB DUP2 AND DUP2 EQ PUSH3 0x3BB JUMPI PUSH1 0x0 DUP1 REVERT JUMPDEST PUSH1 0x0 DUP3 PUSH1 0x1F DUP4 ADD SLT PUSH3 0x80D JUMPI DUP1 DUP2 REVERT JUMPDEST PUSH1 0x40 MLOAD PUSH2 0x100 DUP1 DUP3 ADD DUP3 DUP2 LT PUSH8 0xFFFFFFFFFFFFFFFF DUP3 GT OR ISZERO PUSH3 0x82D JUMPI INVALID JUMPDEST PUSH1 0x40 MSTORE DUP2 DUP5 DUP3 DUP2 ADD DUP8 LT ISZERO PUSH3 0x841 JUMPI DUP5 DUP6 REVERT JUMPDEST DUP5 SWAP3 POP JUMPDEST PUSH1 0x8 DUP4 LT ISZERO PUSH3 0x867 JUMPI DUP1 CALLDATALOAD DUP3 MSTORE PUSH1 0x1 SWAP3 SWAP1 SWAP3 ADD SWAP2 PUSH1 0x20 SWAP2 DUP3 ADD SWAP2 ADD PUSH3 0x845 JUMP JUMPDEST POP SWAP2 SWAP6 SWAP5 POP POP POP POP POP JUMP JUMPDEST DUP1 CALLDATALOAD DUP1 ISZERO ISZERO DUP2 EQ PUSH3 0x3BB JUMPI PUSH1 0x0 DUP1 REVERT JUMPDEST PUSH1 0x0 DUP3 PUSH1 0x1F DUP4 ADD SLT PUSH3 0x894 JUMPI DUP1 DUP2 REVERT JUMPDEST DUP2 CALLDATALOAD PUSH8 0xFFFFFFFFFFFFFFFF DUP2 GT ISZERO PUSH3 0x8A9 JUMPI INVALID JUMPDEST PUSH3 0x8BE PUSH1 0x1F DUP3 ADD PUSH1 0x1F NOT AND PUSH1 0x20 ADD PUSH3 0xCBD JUMP JUMPDEST DUP2 DUP2 MSTORE DUP5 PUSH1 0x20 DUP4 DUP7 ADD ADD GT ISZERO PUSH3 0x8D3 JUMPI DUP3 DUP4 REVERT JUMPDEST DUP2 PUSH1 0x20 DUP6 ADD PUSH1 0x20 DUP4 ADD CALLDATACOPY SWAP1 DUP2 ADD PUSH1 0x20 ADD SWAP2 SWAP1 SWAP2 MSTORE SWAP3 SWAP2 POP POP JUMP JUMPDEST PUSH1 0x0 PUSH1 0x20 DUP3 DUP5 SUB SLT ISZERO PUSH3 0x8FF JUMPI DUP1 DUP2 REVERT JUMPDEST PUSH3 0x90A DUP3 PUSH3 0x7E4 JUMP JUMPDEST SWAP4 SWAP3 POP POP POP JUMP JUMPDEST PUSH1 0x0 DUP1 PUSH1 0x0 DUP1 PUSH1 0x0 DUP1 PUSH1 0x0 DUP1 PUSH2 0x400 DUP10 DUP12 SUB SLT ISZERO PUSH3 0x92E JUMPI DUP4 DUP5 REVERT JUMPDEST PUSH3 0x939 DUP10 PUSH3 0x7E4 JUMP JUMPDEST SWAP8 POP PUSH1 0x20 PUSH3 0x94A DUP2 DUP12 ADD PUSH3 0x7E4 JUMP JUMPDEST SWAP8 POP PUSH1 0x40 DUP11 ADD CALLDATALOAD PUSH8 0xFFFFFFFFFFFFFFFF DUP1 DUP3 GT ISZERO PUSH3 0x967 JUMPI DUP7 DUP8 REVERT JUMPDEST PUSH3 0x975 DUP14 DUP4 DUP15 ADD PUSH3 0x883 JUMP JUMPDEST SWAP9 POP PUSH1 0x60 DUP13 ADD CALLDATALOAD SWAP2 POP DUP1 DUP3 GT ISZERO PUSH3 0x98B JUMPI DUP7 DUP8 REVERT JUMPDEST POP PUSH3 0x99A DUP13 DUP3 DUP14 ADD PUSH3 0x883 JUMP JUMPDEST SWAP7 POP POP DUP11 PUSH1 0x9F DUP12 ADD SLT PUSH3 0x9AC JUMPI DUP5 DUP6 REVERT JUMPDEST PUSH3 0x9C2 PUSH3 0x9BC PUSH1 0xB PUSH3 0xCE2 JUMP JUMPDEST PUSH3 0xCBD JUMP JUMPDEST DUP1 PUSH1 0x80 DUP13 ADD PUSH2 0x1E0 DUP14 ADD DUP15 DUP2 GT ISZERO PUSH3 0x9D9 JUMPI DUP9 DUP10 REVERT JUMPDEST DUP9 JUMPDEST PUSH1 0xB DUP2 LT ISZERO PUSH3 0x9FA JUMPI DUP3 CALLDATALOAD DUP6 MSTORE SWAP4 DUP6 ADD SWAP4 SWAP2 DUP6 ADD SWAP2 PUSH1 0x1 ADD PUSH3 0x9DB JUMP JUMPDEST POP DUP3 SWAP9 POP PUSH3 0xA0A DUP16 DUP3 PUSH3 0x7FC JUMP JUMPDEST SWAP8 POP POP POP POP POP POP PUSH3 0xA21 DUP11 PUSH2 0x2E0 DUP12 ADD PUSH3 0x7FC JUMP JUMPDEST SWAP2 POP PUSH3 0xA32 PUSH2 0x3E0 DUP11 ADD PUSH3 0x872 JUMP JUMPDEST SWAP1 POP SWAP3 SWAP6 SWAP9 POP SWAP3 SWAP6 SWAP9 SWAP1 SWAP4 SWAP7 POP JUMP JUMPDEST PUSH1 0x0 PUSH1 0x20 DUP3 DUP5 SUB SLT ISZERO PUSH3 0xA53 JUMPI DUP1 DUP2 REVERT JUMPDEST POP CALLDATALOAD SWAP2 SWAP1 POP JUMP JUMPDEST DUP1 PUSH1 0x0 JUMPDEST PUSH1 0xB DUP2 LT ISZERO PUSH3 0xA7F JUMPI DUP2 MLOAD DUP5 MSTORE PUSH1 0x20 SWAP4 DUP5 ADD SWAP4 SWAP1 SWAP2 ADD SWAP1 PUSH1 0x1 ADD PUSH3 0xA5E JUMP JUMPDEST POP POP POP POP JUMP JUMPDEST DUP1 PUSH1 0x0 JUMPDEST PUSH1 0x8 DUP2 LT ISZERO PUSH3 0xA7F JUMPI DUP2 MLOAD DUP5 MSTORE PUSH1 0x20 SWAP4 DUP5 ADD SWAP4 SWAP1 SWAP2 ADD SWAP1 PUSH1 0x1 ADD PUSH3 0xA89 JUMP JUMPDEST ISZERO ISZERO SWAP1 MSTORE JUMP JUMPDEST PUSH1 0x0 DUP2 MLOAD DUP1 DUP5 MSTORE DUP2 JUMPDEST DUP2 DUP2 LT ISZERO PUSH3 0xAD7 JUMPI PUSH1 0x20 DUP2 DUP6 ADD DUP2 ADD MLOAD DUP7 DUP4 ADD DUP3 ADD MSTORE ADD PUSH3 0xAB9 JUMP JUMPDEST DUP2 DUP2 GT ISZERO PUSH3 0xAE9 JUMPI DUP3 PUSH1 0x20 DUP4 DUP8 ADD ADD MSTORE JUMPDEST POP PUSH1 0x1F ADD PUSH1 0x1F NOT AND SWAP3 SWAP1 SWAP3 ADD PUSH1 0x20 ADD SWAP3 SWAP2 POP POP JUMP JUMPDEST PUSH1 0x1 PUSH1 0x1 PUSH1 0xA0 SHL SUB SWAP2 SWAP1 SWAP2 AND DUP2 MSTORE PUSH1 0x20 ADD SWAP1 JUMP JUMPDEST SWAP1 ISZERO ISZERO DUP2 MSTORE PUSH1 0x20 ADD SWAP1 JUMP JUMPDEST PUSH1 0x0 PUSH2 0x3C0 DUP1 DUP4 MSTORE PUSH3 0xB33 DUP2 DUP5 ADD DUP11 PUSH3 0xAB0 JUMP JUMPDEST SWAP1 POP DUP3 DUP2 SUB PUSH1 0x20 DUP5 ADD MSTORE PUSH3 0xB49 DUP2 DUP10 PUSH3 0xAB0 JUMP JUMPDEST SWAP2 POP POP PUSH3 0xB5B PUSH1 0x40 DUP4 ADD DUP8 PUSH3 0xA5A JUMP JUMPDEST PUSH3 0xB6B PUSH2 0x1A0 DUP4 ADD DUP7 PUSH3 0xA85 JUMP JUMPDEST PUSH3 0xB7B PUSH2 0x2A0 DUP4 ADD DUP6 PUSH3 0xA85 JUMP JUMPDEST DUP3 ISZERO ISZERO PUSH2 0x3A0 DUP4 ADD MSTORE SWAP8 SWAP7 POP POP POP POP POP POP POP JUMP JUMPDEST PUSH1 0x0 PUSH2 0x4A0 DUP1 DUP4 MSTORE PUSH3 0xBA5 DUP2 DUP5 ADD DUP15 PUSH3 0xAB0 JUMP JUMPDEST SWAP1 POP PUSH1 0x20 DUP4 DUP3 SUB DUP2 DUP6 ADD MSTORE PUSH3 0xBBC DUP3 DUP15 PUSH3 0xAB0 JUMP JUMPDEST PUSH1 0x1 PUSH1 0x1 PUSH1 0xA0 SHL SUB DUP14 DUP2 AND PUSH1 0x40 DUP8 ADD MSTORE DUP13 DUP2 AND PUSH1 0x60 DUP8 ADD MSTORE DUP12 DUP2 AND PUSH1 0x80 DUP8 ADD MSTORE SWAP1 SWAP4 POP SWAP2 POP PUSH1 0xA0 DUP5 ADD DUP10 PUSH1 0x0 JUMPDEST PUSH1 0x4 DUP2 LT ISZERO PUSH3 0xC0A JUMPI DUP2 MLOAD DUP6 AND DUP4 MSTORE SWAP2 DUP4 ADD SWAP2 SWAP1 DUP4 ADD SWAP1 PUSH1 0x1 ADD PUSH3 0xBE9 JUMP JUMPDEST POP POP POP POP POP PUSH3 0xC1F PUSH2 0x120 DUP4 ADD DUP8 PUSH3 0xA5A JUMP JUMPDEST PUSH3 0xC2F PUSH2 0x280 DUP4 ADD DUP7 PUSH3 0xA85 JUMP JUMPDEST PUSH3 0xC3F PUSH2 0x380 DUP4 ADD DUP6 PUSH3 0xA85 JUMP JUMPDEST PUSH3 0x2A0 PUSH2 0x480 DUP4 ADD DUP5 PUSH3 0xAAA JUMP JUMPDEST PUSH1 0x20 DUP1 DUP3 MSTORE PUSH1 0x27 SWAP1 DUP3 ADD MSTORE PUSH32 0x303432302054617820636F6E6E6F74206265206F766572203130302520283130 PUSH1 0x40 DUP3 ADD MSTORE PUSH7 0x30303020425029 PUSH1 0xC8 SHL PUSH1 0x60 DUP3 ADD MSTORE PUSH1 0x80 ADD SWAP1 JUMP JUMPDEST PUSH1 0x20 DUP1 DUP3 MSTORE PUSH1 0x4 SWAP1 DUP3 ADD MSTORE PUSH4 0x3034313 PUSH1 0xE4 SHL PUSH1 0x40 DUP3 ADD MSTORE PUSH1 0x60 ADD SWAP1 JUMP JUMPDEST SWAP1 DUP2 MSTORE PUSH1 0x20 ADD SWAP1 JUMP JUMPDEST PUSH1 0x40 MLOAD DUP2 DUP2 ADD PUSH8 0xFFFFFFFFFFFFFFFF DUP2 GT DUP3 DUP3 LT OR ISZERO PUSH3 0xCDA JUMPI INVALID JUMPDEST PUSH1 0x40 MSTORE SWAP2 SWAP1 POP JUMP JUMPDEST PUSH1 0x0 PUSH8 0xFFFFFFFFFFFFFFFF DUP3 GT ISZERO PUSH3 0xCF7 JUMPI INVALID JUMPDEST POP PUSH1 0x20 MUL SWAP1 JUMP INVALID PUSH2 0x260 PUSH1 0x40 MSTORE CALLVALUE DUP1 ISZERO PUSH3 0x12 JUMPI PUSH1 0x0 DUP1 REVERT JUMPDEST POP PUSH1 0x40 MLOAD PUSH3 0x4A3D CODESIZE SUB DUP1 PUSH3 0x4A3D DUP4 CODECOPY DUP2 DUP2 ADD PUSH1 0x40 MSTORE PUSH2 0x4A0 DUP2 LT ISZERO PUSH3 0x39 JUMPI PUSH1 0x0 DUP1 REVERT JUMPDEST DUP2 ADD SWAP1 DUP1 DUP1 MLOAD PUSH1 0x40 MLOAD SWAP4 SWAP3 SWAP2 SWAP1 DUP5 PUSH5 0x100000000 DUP3 GT ISZERO PUSH3 0x5A JUMPI PUSH1 0x0 DUP1 REVERT JUMPDEST SWAP1 DUP4 ADD SWAP1 PUSH1 0x20 DUP3 ADD DUP6 DUP2 GT ISZERO PUSH3 0x70 JUMPI PUSH1 0x0 DUP1 REVERT JUMPDEST DUP3 MLOAD PUSH5 0x100000000 DUP2 GT DUP3 DUP3 ADD DUP9 LT OR ISZERO PUSH3 0x8B JUMPI PUSH1 0x0 DUP1 REVERT JUMPDEST DUP3 MSTORE POP DUP2 MLOAD PUSH1 0x20 SWAP2 DUP3 ADD SWAP3 SWAP1 SWAP2 ADD SWAP1 DUP1 DUP4 DUP4 PUSH1 0x0 JUMPDEST DUP4 DUP2 LT ISZERO PUSH3 0xBA JUMPI DUP2 DUP2 ADD MLOAD DUP4 DUP3 ADD MSTORE PUSH1 0x20 ADD PUSH3 0xA0 JUMP JUMPDEST POP POP POP POP SWAP1 POP SWAP1 DUP2 ADD SWAP1 PUSH1 0x1F AND DUP1 ISZERO PUSH3 0xE8 JUMPI DUP1 DUP3 SUB DUP1 MLOAD PUSH1 0x1 DUP4 PUSH1 0x20 SUB PUSH2 0x100 EXP SUB NOT AND DUP2 MSTORE PUSH1 0x20 ADD SWAP2 POP JUMPDEST POP PUSH1 0x40 MSTORE PUSH1 0x20 ADD DUP1 MLOAD PUSH1 0x40 MLOAD SWAP4 SWAP3 SWAP2 SWAP1 DUP5 PUSH5 0x100000000 DUP3 GT ISZERO PUSH3 0x10C JUMPI PUSH1 0x0 DUP1 REVERT JUMPDEST SWAP1 DUP4 ADD SWAP1 PUSH1 0x20 DUP3 ADD DUP6 DUP2 GT ISZERO PUSH3 0x122 JUMPI PUSH1 0x0 DUP1 REVERT JUMPDEST DUP3 MLOAD PUSH5 0x100000000 DUP2 GT DUP3 DUP3 ADD DUP9 LT OR ISZERO PUSH3 0x13D JUMPI PUSH1 0x0 DUP1 REVERT JUMPDEST DUP3 MSTORE POP DUP2 MLOAD PUSH1 0x20 SWAP2 DUP3 ADD SWAP3 SWAP1 SWAP2 ADD SWAP1 DUP1 DUP4 DUP4 PUSH1 0x0 JUMPDEST DUP4 DUP2 LT ISZERO PUSH3 0x16C JUMPI DUP2 DUP2 ADD MLOAD DUP4 DUP3 ADD MSTORE PUSH1 0x20 ADD PUSH3 0x152 JUMP JUMPDEST POP POP POP POP SWAP1 POP SWAP1 DUP2 ADD SWAP1 PUSH1 0x1F AND DUP1 ISZERO PUSH3 0x19A JUMPI DUP1 DUP3 SUB DUP1 MLOAD PUSH1 0x1 DUP4 PUSH1 0x20 SUB PUSH2 0x100 EXP SUB NOT AND DUP2 MSTORE PUSH1 0x20 ADD SWAP2 POP JUMPDEST POP PUSH1 0x40 SWAP1 DUP2 MSTORE PUSH1 0x20 DUP3 ADD MLOAD SWAP1 DUP3 ADD MLOAD PUSH1 0x60 DUP4 ADD MLOAD PUSH2 0x460 DUP5 ADD MLOAD PUSH1 0x80 DUP6 ADD DUP1 MLOAD PUSH1 0xA0 DUP8 ADD MLOAD PUSH1 0xE0 DUP9 ADD MLOAD PUSH1 0xC0 DUP10 ADD MLOAD SWAP8 SWAP11 POP SWAP6 SWAP9 POP SWAP4 SWAP7 SWAP2 SWAP6 PUSH2 0x100 DUP4 ADD SWAP6 PUSH2 0x260 DUP5 ADD SWAP6 PUSH2 0x360 SWAP1 SWAP5 ADD SWAP5 SWAP4 SWAP2 PUSH1 0x0 PUSH3 0x1F4 PUSH3 0x484 JUMP JUMPDEST PUSH1 0x0 DUP1 SLOAD PUSH1 0x1 PUSH1 0x1 PUSH1 0xA0 SHL SUB NOT AND PUSH1 0x1 PUSH1 0x1 PUSH1 0xA0 SHL SUB DUP4 AND SWAP1 DUP2 OR DUP3 SSTORE PUSH1 0x40 MLOAD SWAP3 SWAP4 POP SWAP2 PUSH32 0x8BE0079C531659141344CD1FD0A4F28419497F9722A3DAAFE3B4186F6B6457E0 SWAP1 DUP3 SWAP1 LOG3 POP PUSH1 0x1 DUP1 SLOAD PUSH1 0x1 PUSH1 0x1 PUSH1 0xA0 SHL SUB NOT SWAP1 DUP2 AND PUSH1 0x1 PUSH1 0x1 PUSH1 0xA0 SHL SUB SWAP4 DUP5 AND OR SWAP1 SWAP2 SSTORE PUSH1 0x3 DUP1 SLOAD DUP3 AND SWAP6 DUP4 AND SWAP6 SWAP1 SWAP6 OR SWAP1 SWAP5 SSTORE PUSH1 0x4 DUP1 SLOAD DUP6 AND SWAP4 DUP3 AND SWAP4 SWAP1 SWAP4 OR SWAP1 SWAP3 SSTORE PUSH1 0x5 DUP1 SLOAD SWAP1 SWAP4 AND SWAP2 AND OR SWAP1 SSTORE TIMESTAMP DUP5 PUSH1 0x0 PUSH1 0x20 MUL ADD MLOAD GT PUSH3 0x2D0 JUMPI PUSH1 0x40 MLOAD PUSH3 0x461BCD PUSH1 0xE5 SHL DUP2 MSTORE PUSH1 0x4 ADD DUP1 DUP1 PUSH1 0x20 ADD DUP3 DUP2 SUB DUP3 MSTORE PUSH1 0x21 DUP2 MSTORE PUSH1 0x20 ADD DUP1 PUSH3 0x4A1C PUSH1 0x21 SWAP2 CODECOPY PUSH1 0x40 ADD SWAP2 POP POP PUSH1 0x40 MLOAD DUP1 SWAP2 SUB SWAP1 REVERT JUMPDEST DUP10 MLOAD PUSH3 0x2E5 SWAP1 PUSH1 0x6 SWAP1 PUSH1 0x20 DUP14 ADD SWAP1 PUSH3 0x4AA JUMP JUMPDEST POP DUP9 MLOAD PUSH3 0x2FB SWAP1 PUSH1 0x7 SWAP1 PUSH1 0x20 DUP13 ADD SWAP1 PUSH3 0x4AA JUMP JUMPDEST POP PUSH1 0x1 PUSH1 0x1 PUSH1 0x60 SHL SUB NOT PUSH1 0x60 DUP10 DUP2 SHL DUP3 AND PUSH1 0x80 MSTORE DUP9 SWAP1 SHL AND PUSH1 0xA0 MSTORE DUP5 PUSH1 0x2 PUSH1 0x20 MUL ADD MLOAD PUSH1 0xF DUP1 SLOAD PUSH1 0x1 PUSH1 0x1 PUSH1 0xA0 SHL SUB NOT SWAP1 DUP2 AND PUSH1 0x1 PUSH1 0x1 PUSH1 0xA0 SHL SUB SWAP4 DUP5 AND OR SWAP1 SWAP2 SSTORE PUSH1 0xE DUP1 SLOAD SWAP1 SWAP2 AND SWAP2 DUP9 AND SWAP2 SWAP1 SWAP2 OR SWAP1 SSTORE PUSH3 0x35F DUP6 PUSH1 0x1 PUSH1 0x20 MUL ADD MLOAD PUSH3 0x488 JUMP JUMPDEST PUSH1 0x60 DUP6 DUP2 ADD MLOAD DUP2 SHL PUSH1 0x1 PUSH1 0x1 PUSH1 0x60 SHL SUB NOT AND PUSH1 0xC0 SWAP1 DUP2 MSTORE DUP6 MLOAD PUSH1 0xE0 SWAP1 DUP2 MSTORE PUSH1 0x20 DUP8 ADD MLOAD PUSH2 0x120 SWAP1 DUP2 MSTORE PUSH1 0x40 DUP9 ADD MLOAD PUSH2 0x100 SWAP1 DUP2 MSTORE SWAP4 DUP9 ADD MLOAD PUSH2 0x140 SWAP1 DUP2 MSTORE PUSH1 0x80 DUP10 ADD MLOAD PUSH2 0x160 MSTORE PUSH1 0xA0 DUP10 ADD MLOAD PUSH2 0x180 MSTORE SWAP3 DUP9 ADD MLOAD PUSH2 0x1A0 MSTORE SWAP1 DUP8 ADD MLOAD PUSH2 0x200 MSTORE SWAP2 DUP7 ADD MLOAD PUSH2 0x220 MSTORE SWAP1 DUP6 ADD MLOAD PUSH2 0x1C0 MSTORE DUP5 ADD MLOAD PUSH2 0x1E0 MSTORE DUP1 ISZERO ISZERO PUSH1 0xF8 SHL PUSH2 0x240 MSTORE PUSH1 0x0 JUMPDEST PUSH1 0x8 DUP2 LT ISZERO PUSH3 0x473 JUMPI DUP3 DUP2 PUSH1 0x8 DUP2 LT PUSH3 0x3FA JUMPI INVALID JUMPDEST PUSH1 0x20 MUL ADD MLOAD PUSH3 0x40A JUMPI PUSH3 0x473 JUMP JUMPDEST PUSH1 0x10 PUSH1 0x40 MLOAD DUP1 PUSH1 0x40 ADD PUSH1 0x40 MSTORE DUP1 DUP7 DUP5 PUSH1 0x8 DUP2 LT PUSH3 0x424 JUMPI INVALID JUMPDEST PUSH1 0x20 MUL ADD MLOAD DUP2 MSTORE PUSH1 0x20 ADD DUP6 DUP5 PUSH1 0x8 DUP2 LT PUSH3 0x43B JUMPI INVALID JUMPDEST PUSH1 0x20 SWAP1 DUP2 MUL SWAP2 SWAP1 SWAP2 ADD MLOAD SWAP1 SWAP2 MSTORE DUP3 SLOAD PUSH1 0x1 DUP2 DUP2 ADD DUP6 SSTORE PUSH1 0x0 SWAP5 DUP6 MSTORE SWAP4 DUP3 SWAP1 KECCAK256 DUP4 MLOAD PUSH1 0x2 SWAP1 SWAP3 MUL ADD SWAP1 DUP2 SSTORE SWAP2 ADD MLOAD SWAP1 DUP3 ADD SSTORE ADD PUSH3 0x3E3 JUMP JUMPDEST POP POP POP POP POP POP POP POP POP POP POP PUSH3 0x556 JUMP JUMPDEST CALLER SWAP1 JUMP JUMPDEST PUSH1 0x2 DUP1 SLOAD PUSH1 0x1 PUSH1 0x1 PUSH1 0xA0 SHL SUB NOT AND PUSH1 0x1 PUSH1 0x1 PUSH1 0xA0 SHL SUB SWAP3 SWAP1 SWAP3 AND SWAP2 SWAP1 SWAP2 OR SWAP1 SSTORE JUMP JUMPDEST DUP3 DUP1 SLOAD PUSH1 0x1 DUP2 PUSH1 0x1 AND ISZERO PUSH2 0x100 MUL SUB AND PUSH1 0x2 SWAP1 DIV SWAP1 PUSH1 0x0 MSTORE PUSH1 0x20 PUSH1 0x0 KECCAK256 SWAP1 PUSH1 0x1F ADD PUSH1 0x20 SWAP1 DIV DUP2 ADD SWAP3 DUP3 PUSH3 0x4E2 JUMPI PUSH1 0x0 DUP6 SSTORE PUSH3 0x52D JUMP JUMPDEST DUP3 PUSH1 0x1F LT PUSH3 0x4FD JUMPI DUP1 MLOAD PUSH1 0xFF NOT AND DUP4 DUP1 ADD OR DUP6 SSTORE PUSH3 0x52D JUMP JUMPDEST DUP3 DUP1 ADD PUSH1 0x1 ADD DUP6 SSTORE DUP3 ISZERO PUSH3 0x52D JUMPI SWAP2 DUP3 ADD JUMPDEST DUP3 DUP2 GT ISZERO PUSH3 0x52D JUMPI DUP3 MLOAD DUP3 SSTORE SWAP2 PUSH1 0x20 ADD SWAP2 SWAP1 PUSH1 0x1 ADD SWAP1 PUSH3 0x510 JUMP JUMPDEST POP PUSH3 0x53B SWAP3 SWAP2 POP PUSH3 0x53F JUMP JUMPDEST POP SWAP1 JUMP JUMPDEST JUMPDEST DUP1 DUP3 GT ISZERO PUSH3 0x53B JUMPI PUSH1 0x0 DUP2 SSTORE PUSH1 0x1 ADD PUSH3 0x540 JUMP JUMPDEST PUSH1 0x80 MLOAD PUSH1 0x60 SHR PUSH1 0xA0 MLOAD PUSH1 0x60 SHR PUSH1 0xC0 MLOAD PUSH1 0x60 SHR PUSH1 0xE0 MLOAD PUSH2 0x100 MLOAD PUSH2 0x120 MLOAD PUSH2 0x140 MLOAD PUSH2 0x160 MLOAD PUSH2 0x180 MLOAD PUSH2 0x1A0 MLOAD PUSH2 0x1C0 MLOAD PUSH2 0x1E0 MLOAD PUSH2 0x200 MLOAD PUSH2 0x220 MLOAD PUSH2 0x240 MLOAD PUSH1 0xF8 SHR PUSH2 0x4349 PUSH3 0x6D3 PUSH1 0x0 CODECOPY DUP1 PUSH2 0x19C0 MSTORE DUP1 PUSH2 0x3F17 MSTORE POP DUP1 PUSH2 0xE53 MSTORE DUP1 PUSH2 0x33E8 MSTORE POP DUP1 PUSH2 0xE1D MSTORE DUP1 PUSH2 0xE7D MSTORE DUP1 PUSH2 0x33A0 MSTORE POP DUP1 PUSH2 0x1DBC MSTORE DUP1 PUSH2 0x20D3 MSTORE POP DUP1 PUSH2 0x1D98 MSTORE DUP1 PUSH2 0x3CEA MSTORE DUP1 PUSH2 0x3D1A MSTORE POP DUP1 PUSH2 0xD5F MSTORE DUP1 PUSH2 0x1295 MSTORE DUP1 PUSH2 0x1AB3 MSTORE DUP1 PUSH2 0x1E9E MSTORE DUP1 PUSH2 0x2EF5 MSTORE POP DUP1 PUSH2 0x1317 MSTORE DUP1 PUSH2 0x1EC2 MSTORE POP DUP1 PUSH2 0x2CE0 MSTORE DUP1 PUSH2 0x3C81 MSTORE POP DUP1 PUSH2 0x1C25 MSTORE DUP1 PUSH2 0x213C MSTORE DUP1 PUSH2 0x22AC MSTORE DUP1 PUSH2 0x26AF MSTORE POP DUP1 PUSH2 0xCBC MSTORE DUP1 PUSH2 0x1C01 MSTORE DUP1 PUSH2 0x2C15 MSTORE DUP1 PUSH2 0x3C34 MSTORE POP DUP1 PUSH2 0xA35 MSTORE DUP1 PUSH2 0xCDD MSTORE DUP1 PUSH2 0x2C36 MSTORE DUP1 PUSH2 0x3C12 MSTORE DUP1 PUSH2 0x3F6A MSTORE POP DUP1 PUSH2 0xCFE MSTORE DUP1 PUSH2 0x2009 MSTORE DUP1 PUSH2 0x2C57 MSTORE DUP1 PUSH2 0x3655 MSTORE DUP1 PUSH2 0x3BF1 MSTORE DUP1 PUSH2 0x3F49 MSTORE POP DUP1 PUSH2 0x2A75 MSTORE DUP1 PUSH2 0x2F21 MSTORE DUP1 PUSH2 0x35E8 MSTORE POP DUP1 PUSH2 0xA59 MSTORE DUP1 PUSH2 0x2DAD MSTORE DUP1 PUSH2 0x2E3C MSTORE POP DUP1 PUSH2 0x1CA2 MSTORE DUP1 PUSH2 0x2168 MSTORE DUP1 PUSH2 0x21F9 MSTORE DUP1 PUSH2 0x2341 MSTORE DUP1 PUSH2 0x2404 MSTORE DUP1 PUSH2 0x2433 MSTORE DUP1 PUSH2 0x2829 MSTORE DUP1 PUSH2 0x2D7E MSTORE DUP1 PUSH2 0x302A MSTORE DUP1 PUSH2 0x33C4 MSTORE POP PUSH2 0x4349 PUSH1 0x0 RETURN INVALID PUSH1 0x80 PUSH1 0x40 MSTORE CALLVALUE DUP1 ISZERO PUSH2 0x10 JUMPI PUSH1 0x0 DUP1 REVERT JUMPDEST POP PUSH1 0x4 CALLDATASIZE LT PUSH2 0x3DB JUMPI PUSH1 0x0 CALLDATALOAD PUSH1 0xE0 SHR DUP1 PUSH4 0x8A9920B7 GT PUSH2 0x20A JUMPI DUP1 PUSH4 0xBF852196 GT PUSH2 0x125 JUMPI DUP1 PUSH4 0xEB850AE1 GT PUSH2 0xB8 JUMPI DUP1 PUSH4 0xF3D9DC0D GT PUSH2 0x87 JUMPI DUP1 PUSH4 0xF3D9DC0D EQ PUSH2 0x9F6 JUMPI DUP1 PUSH4 0xF5E96FC9 EQ PUSH2 0x9FE JUMPI DUP1 PUSH4 0xF8E829C3 EQ PUSH2 0xA06 JUMPI DUP1 PUSH4 0xF8EEED62 EQ PUSH2 0xA0E JUMPI DUP1 PUSH4 0xFD5E6DD1 EQ PUSH2 0xA16 JUMPI PUSH2 0x3DB JUMP JUMPDEST DUP1 PUSH4 0xEB850AE1 EQ PUSH2 0x98D JUMPI DUP1 PUSH4 0xF0141D84 EQ PUSH2 0x995 JUMPI DUP1 PUSH4 0xF1B17A8B EQ PUSH2 0x9B3 JUMPI DUP1 PUSH4 0xF2FDE38B EQ PUSH2 0x9D0 JUMPI PUSH2 0x3DB JUMP JUMPDEST DUP1 PUSH4 0xD7EFB6B7 GT PUSH2 0xF4 JUMPI DUP1 PUSH4 0xD7EFB6B7 EQ PUSH2 0x935 JUMPI DUP1 PUSH4 0xDE09EE20 EQ PUSH2 0x93D JUMPI DUP1 PUSH4 0xE425DF8C EQ PUSH2 0x97D JUMPI DUP1 PUSH4 0xE8153C93 EQ PUSH2 0x985 JUMPI PUSH2 0x3DB JUMP JUMPDEST DUP1 PUSH4 0xBF852196 EQ PUSH2 0x915 JUMPI DUP1 PUSH4 0xC1201054 EQ PUSH2 0x91D JUMPI DUP1 PUSH4 0xC6C1DECD EQ PUSH2 0x925 JUMPI DUP1 PUSH4 0xD025188B EQ PUSH2 0x92D JUMPI PUSH2 0x3DB JUMP JUMPDEST DUP1 PUSH4 0xA150194B GT PUSH2 0x19D JUMPI DUP1 PUSH4 0xAA7BCB57 GT PUSH2 0x16C JUMPI DUP1 PUSH4 0xAA7BCB57 EQ PUSH2 0x8F5 JUMPI DUP1 PUSH4 0xB1DD61B6 EQ PUSH2 0x8FD JUMPI DUP1 PUSH4 0xB88A802F EQ PUSH2 0x905 JUMPI DUP1 PUSH4 0xBECE7532 EQ PUSH2 0x90D JUMPI PUSH2 0x3DB JUMP JUMPDEST DUP1 PUSH4 0xA150194B EQ PUSH2 0x870 JUMPI DUP1 PUSH4 0xA35EF3A7 EQ PUSH2 0x878 JUMPI DUP1 PUSH4 0xA4E2D634 EQ PUSH2 0x8D0 JUMPI DUP1 PUSH4 0xA7A48681 EQ PUSH2 0x8D8 JUMPI PUSH2 0x3DB JUMP JUMPDEST DUP1 PUSH4 0x95C2BA47 GT PUSH2 0x1D9 JUMPI DUP1 PUSH4 0x95C2BA47 EQ PUSH2 0x839 JUMPI DUP1 PUSH4 0x996C6CC3 EQ PUSH2 0x841 JUMPI DUP1 PUSH4 0xA08B2C79 EQ PUSH2 0x849 JUMPI DUP1 PUSH4 0xA118C9A7 EQ PUSH2 0x851 JUMPI PUSH2 0x3DB JUMP JUMPDEST DUP1 PUSH4 0x8A9920B7 EQ PUSH2 0x819 JUMPI DUP1 PUSH4 0x8BFBBCBE EQ PUSH2 0x821 JUMPI DUP1 PUSH4 0x8DA5CB5B EQ PUSH2 0x829 JUMPI DUP1 PUSH4 0x8E15F473 EQ PUSH2 0x831 JUMPI PUSH2 0x3DB JUMP JUMPDEST DUP1 PUSH4 0x4BC4EEB2 GT PUSH2 0x2FA JUMPI DUP1 PUSH4 0x715018A6 GT PUSH2 0x28D JUMPI DUP1 PUSH4 0x7B0472F0 GT PUSH2 0x25C JUMPI DUP1 PUSH4 0x7B0472F0 EQ PUSH2 0x76F JUMPI DUP1 PUSH4 0x7F2B6A0D EQ PUSH2 0x792 JUMPI DUP1 PUSH4 0x817B1CD2 EQ PUSH2 0x79A JUMPI DUP1 PUSH4 0x850FA7CB EQ PUSH2 0x7A2 JUMPI PUSH2 0x3DB JUMP JUMPDEST DUP1 PUSH4 0x715018A6 EQ PUSH2 0x731 JUMPI DUP1 PUSH4 0x73F31703 EQ PUSH2 0x739 JUMPI DUP1 PUSH4 0x785FA627 EQ PUSH2 0x741 JUMPI DUP1 PUSH4 0x78F4D413 EQ PUSH2 0x749 JUMPI PUSH2 0x3DB JUMP JUMPDEST DUP1 PUSH4 0x51EACBF0 GT PUSH2 0x2C9 JUMPI DUP1 PUSH4 0x51EACBF0 EQ PUSH2 0x6E3 JUMPI DUP1 PUSH4 0x5D2631E2 EQ PUSH2 0x6EB JUMPI DUP1 PUSH4 0x6847D0C5 EQ PUSH2 0x721 JUMPI DUP1 PUSH4 0x6B036F45 EQ PUSH2 0x729 JUMPI PUSH2 0x3DB JUMP JUMPDEST DUP1 PUSH4 0x4BC4EEB2 EQ PUSH2 0x68D JUMPI DUP1 PUSH4 0x4C7C77FC EQ PUSH2 0x695 JUMPI DUP1 PUSH4 0x4DDC1BDC EQ PUSH2 0x6B8 JUMPI DUP1 PUSH4 0x4E8BFDAA EQ PUSH2 0x6DB JUMPI PUSH2 0x3DB JUMP JUMPDEST DUP1 PUSH4 0x3299AC5F GT PUSH2 0x372 JUMPI DUP1 PUSH4 0x4026478E GT PUSH2 0x341 JUMPI DUP1 PUSH4 0x4026478E EQ PUSH2 0x596 JUMPI DUP1 PUSH4 0x43352D61 EQ PUSH2 0x59E JUMPI DUP1 PUSH4 0x444A4902 EQ PUSH2 0x63F JUMPI DUP1 PUSH4 0x45E91319 EQ PUSH2 0x661 JUMPI PUSH2 0x3DB JUMP JUMPDEST DUP1 PUSH4 0x3299AC5F EQ PUSH2 0x4F7 JUMPI DUP1 PUSH4 0x34381749 EQ PUSH2 0x514 JUMPI DUP1 PUSH4 0x3AC58B9A EQ PUSH2 0x553 JUMPI DUP1 PUSH4 0x3FCDD82C EQ PUSH2 0x579 JUMPI PUSH2 0x3DB JUMP JUMPDEST DUP1 PUSH4 0x238A6C74 GT PUSH2 0x3AE JUMPI DUP1 PUSH4 0x238A6C74 EQ PUSH2 0x460 JUMPI DUP1 PUSH4 0x2D42CF7D EQ PUSH2 0x4DD JUMPI DUP1 PUSH4 0x2E577D07 EQ PUSH2 0x4E7 JUMPI DUP1 PUSH4 0x31E244E5 EQ PUSH2 0x4EF JUMPI PUSH2 0x3DB JUMP JUMPDEST DUP1 PUSH4 0xD668087 EQ PUSH2 0x3E0 JUMPI DUP1 PUSH4 0xF4EF8A6 EQ PUSH2 0x3FA JUMPI DUP1 PUSH4 0x183521CC EQ PUSH2 0x41E JUMPI DUP1 PUSH4 0x22F3E2D4 EQ PUSH2 0x444 JUMPI JUMPDEST PUSH1 0x0 DUP1 REVERT JUMPDEST PUSH2 0x3E8 PUSH2 0xA33 JUMP JUMPDEST PUSH1 0x40 DUP1 MLOAD SWAP2 DUP3 MSTORE MLOAD SWAP1 DUP2 SWAP1 SUB PUSH1 0x20 ADD SWAP1 RETURN JUMPDEST PUSH2 0x402 PUSH2 0xA57 JUMP JUMPDEST PUSH1 0x40 DUP1 MLOAD PUSH1 0x1 PUSH1 0x1 PUSH1 0xA0 SHL SUB SWAP1 SWAP3 AND DUP3 MSTORE MLOAD SWAP1 DUP2 SWAP1 SUB PUSH1 0x20 ADD SWAP1 RETURN JUMPDEST PUSH2 0x3E8 PUSH1 0x4 DUP1 CALLDATASIZE SUB PUSH1 0x20 DUP2 LT ISZERO PUSH2 0x434 JUMPI PUSH1 0x0 DUP1 REVERT JUMPDEST POP CALLDATALOAD PUSH1 0x1 PUSH1 0x1 PUSH1 0xA0 SHL SUB AND PUSH2 0xA7B JUMP JUMPDEST PUSH2 0x44C PUSH2 0xBC3 JUMP JUMPDEST PUSH1 0x40 DUP1 MLOAD SWAP2 ISZERO ISZERO DUP3 MSTORE MLOAD SWAP1 DUP2 SWAP1 SUB PUSH1 0x20 ADD SWAP1 RETURN JUMPDEST PUSH2 0x468 PUSH2 0xBD3 JUMP JUMPDEST PUSH1 0x40 DUP1 MLOAD PUSH1 0x20 DUP1 DUP3 MSTORE DUP4 MLOAD DUP2 DUP4 ADD MSTORE DUP4 MLOAD SWAP2 SWAP3 DUP4 SWAP3 SWAP1 DUP4 ADD SWAP2 DUP6 ADD SWAP1 DUP1 DUP4 DUP4 PUSH1 0x0 JUMPDEST DUP4 DUP2 LT ISZERO PUSH2 0x4A2 JUMPI DUP2 DUP2 ADD MLOAD DUP4 DUP3 ADD MSTORE PUSH1 0x20 ADD PUSH2 0x48A JUMP JUMPDEST POP POP POP POP SWAP1 POP SWAP1 DUP2 ADD SWAP1 PUSH1 0x1F AND DUP1 ISZERO PUSH2 0x4CF JUMPI DUP1 DUP3 SUB DUP1 MLOAD PUSH1 0x1 DUP4 PUSH1 0x20 SUB PUSH2 0x100 EXP SUB NOT AND DUP2 MSTORE PUSH1 0x20 ADD SWAP2 POP JUMPDEST POP SWAP3 POP POP POP PUSH1 0x40 MLOAD DUP1 SWAP2 SUB SWAP1 RETURN JUMPDEST PUSH2 0x4E5 PUSH2 0xC61 JUMP JUMPDEST STOP JUMPDEST PUSH2 0x402 PUSH2 0xF9A JUMP JUMPDEST PUSH2 0x4E5 PUSH2 0xFAA JUMP JUMPDEST PUSH2 0x3E8 PUSH1 0x4 DUP1 CALLDATASIZE SUB PUSH1 0x20 DUP2 LT ISZERO PUSH2 0x50D JUMPI PUSH1 0x0 DUP1 REVERT JUMPDEST POP CALLDATALOAD PUSH2 0x1021 JUMP JUMPDEST PUSH2 0x53A PUSH1 0x4 DUP1 CALLDATASIZE SUB PUSH1 0x20 DUP2 LT ISZERO PUSH2 0x52A JUMPI PUSH1 0x0 DUP1 REVERT JUMPDEST POP CALLDATALOAD PUSH1 0x1 PUSH1 0x1 PUSH1 0xA0 SHL SUB AND PUSH2 0x1148 JUMP JUMPDEST PUSH1 0x40 DUP1 MLOAD SWAP3 DUP4 MSTORE PUSH1 0x20 DUP4 ADD SWAP2 SWAP1 SWAP2 MSTORE DUP1 MLOAD SWAP2 DUP3 SWAP1 SUB ADD SWAP1 RETURN JUMPDEST PUSH2 0x53A PUSH1 0x4 DUP1 CALLDATASIZE SUB PUSH1 0x20 DUP2 LT ISZERO PUSH2 0x569 JUMPI PUSH1 0x0 DUP1 REVERT JUMPDEST POP CALLDATALOAD PUSH1 0x1 PUSH1 0x1 PUSH1 0xA0 SHL SUB AND PUSH2 0x1180 JUMP JUMPDEST PUSH2 0x3E8 PUSH1 0x4 DUP1 CALLDATASIZE SUB PUSH1 0x20 DUP2 LT ISZERO PUSH2 0x58F JUMPI PUSH1 0x0 DUP1 REVERT JUMPDEST POP CALLDATALOAD PUSH2 0x139B JUMP JUMPDEST PUSH2 0x4E5 PUSH2 0x151B JUMP JUMPDEST PUSH2 0x5A6 PUSH2 0x157C JUMP JUMPDEST PUSH1 0x40 MLOAD DUP1 DUP1 PUSH1 0x20 ADD DUP1 PUSH1 0x20 ADD DUP4 DUP2 SUB DUP4 MSTORE DUP6 DUP2 DUP2 MLOAD DUP2 MSTORE PUSH1 0x20 ADD SWAP2 POP DUP1 MLOAD SWAP1 PUSH1 0x20 ADD SWAP1 PUSH1 0x20 MUL DUP1 DUP4 DUP4 PUSH1 0x0 JUMPDEST DUP4 DUP2 LT ISZERO PUSH2 0x5EA JUMPI DUP2 DUP2 ADD MLOAD DUP4 DUP3 ADD MSTORE PUSH1 0x20 ADD PUSH2 0x5D2 JUMP JUMPDEST POP POP POP POP SWAP1 POP ADD DUP4 DUP2 SUB DUP3 MSTORE DUP5 DUP2 DUP2 MLOAD DUP2 MSTORE PUSH1 0x20 ADD SWAP2 POP DUP1 MLOAD SWAP1 PUSH1 0x20 ADD SWAP1 PUSH1 0x20 MUL DUP1 DUP4 DUP4 PUSH1 0x0 JUMPDEST DUP4 DUP2 LT ISZERO PUSH2 0x629 JUMPI DUP2 DUP2 ADD MLOAD DUP4 DUP3 ADD MSTORE PUSH1 0x20 ADD PUSH2 0x611 JUMP JUMPDEST POP POP POP POP SWAP1 POP ADD SWAP5 POP POP POP POP POP PUSH1 0x40 MLOAD DUP1 SWAP2 SUB SWAP1 RETURN JUMPDEST PUSH2 0x4E5 PUSH1 0x4 DUP1 CALLDATASIZE SUB PUSH2 0x640 DUP2 LT ISZERO PUSH2 0x656 JUMPI PUSH1 0x0 DUP1 REVERT JUMPDEST POP PUSH2 0x320 DUP2 ADD PUSH2 0x16C1 JUMP JUMPDEST PUSH2 0x44C PUSH1 0x4 DUP1 CALLDATASIZE SUB PUSH1 0x40 DUP2 LT ISZERO PUSH2 0x677 JUMPI PUSH1 0x0 DUP1 REVERT JUMPDEST POP PUSH1 0x1 PUSH1 0x1 PUSH1 0xA0 SHL SUB DUP2 CALLDATALOAD AND SWAP1 PUSH1 0x20 ADD CALLDATALOAD PUSH2 0x182A JUMP JUMPDEST PUSH2 0x44C PUSH2 0x19BE JUMP JUMPDEST PUSH2 0x3E8 PUSH1 0x4 DUP1 CALLDATASIZE SUB PUSH1 0x40 DUP2 LT ISZERO PUSH2 0x6AB JUMPI PUSH1 0x0 DUP1 REVERT JUMPDEST POP DUP1 CALLDATALOAD SWAP1 PUSH1 0x20 ADD CALLDATALOAD PUSH2 0x19E2 JUMP JUMPDEST PUSH2 0x4E5 PUSH1 0x4 DUP1 CALLDATASIZE SUB PUSH1 0x40 DUP2 LT ISZERO PUSH2 0x6CE JUMPI PUSH1 0x0 DUP1 REVERT JUMPDEST POP DUP1 CALLDATALOAD SWAP1 PUSH1 0x20 ADD CALLDATALOAD PUSH2 0x1A56 JUMP JUMPDEST PUSH2 0x3E8 PUSH2 0x1BFF JUMP JUMPDEST PUSH2 0x3E8 PUSH2 0x1C23 JUMP JUMPDEST PUSH2 0x4E5 PUSH1 0x4 DUP1 CALLDATASIZE SUB PUSH1 0x60 DUP2 LT ISZERO PUSH2 0x701 JUMPI PUSH1 0x0 DUP1 REVERT JUMPDEST POP PUSH1 0x1 PUSH1 0x1 PUSH1 0xA0 SHL SUB DUP2 CALLDATALOAD DUP2 AND SWAP2 PUSH1 0x20 DUP2 ADD CALLDATALOAD SWAP2 PUSH1 0x40 SWAP1 SWAP2 ADD CALLDATALOAD AND PUSH2 0x1C47 JUMP JUMPDEST PUSH2 0x3E8 PUSH2 0x1D96 JUMP JUMPDEST PUSH2 0x3E8 PUSH2 0x1DBA JUMP JUMPDEST PUSH2 0x4E5 PUSH2 0x1DDE JUMP JUMPDEST PUSH2 0x3E8 PUSH2 0x1E9C JUMP JUMPDEST PUSH2 0x3E8 PUSH2 0x1EC0 JUMP JUMPDEST PUSH2 0x3E8 PUSH1 0x4 DUP1 CALLDATASIZE SUB PUSH1 0x20 DUP2 LT ISZERO PUSH2 0x75F JUMPI PUSH1 0x0 DUP1 REVERT JUMPDEST POP CALLDATALOAD PUSH1 0x1 PUSH1 0x1 PUSH1 0xA0 SHL SUB AND PUSH2 0x1EE4 JUMP JUMPDEST PUSH2 0x4E5 PUSH1 0x4 DUP1 CALLDATASIZE SUB PUSH1 0x40 DUP2 LT ISZERO PUSH2 0x785 JUMPI PUSH1 0x0 DUP1 REVERT JUMPDEST POP DUP1 CALLDATALOAD SWAP1 PUSH1 0x20 ADD CALLDATALOAD PUSH2 0x1FF3 JUMP JUMPDEST PUSH2 0x44C PUSH2 0x2733 JUMP JUMPDEST PUSH2 0x3E8 PUSH2 0x2743 JUMP JUMPDEST PUSH2 0x7CE PUSH1 0x4 DUP1 CALLDATASIZE SUB PUSH1 0x40 DUP2 LT ISZERO PUSH2 0x7B8 JUMPI PUSH1 0x0 DUP1 REVERT JUMPDEST POP PUSH1 0x1 PUSH1 0x1 PUSH1 0xA0 SHL SUB DUP2 CALLDATALOAD AND SWAP1 PUSH1 0x20 ADD CALLDATALOAD PUSH2 0x2749 JUMP JUMPDEST PUSH1 0x40 DUP1 MLOAD SWAP10 DUP11 MSTORE PUSH1 0x20 DUP11 ADD SWAP9 SWAP1 SWAP9 MSTORE DUP9 DUP9 ADD SWAP7 SWAP1 SWAP7 MSTORE PUSH1 0x60 DUP9 ADD SWAP5 SWAP1 SWAP5 MSTORE PUSH1 0x80 DUP8 ADD SWAP3 SWAP1 SWAP3 MSTORE PUSH1 0xA0 DUP7 ADD MSTORE PUSH1 0xC0 DUP6 ADD MSTORE ISZERO ISZERO PUSH1 0xE0 DUP5 ADD MSTORE ISZERO ISZERO PUSH2 0x100 DUP4 ADD MSTORE MLOAD SWAP1 DUP2 SWAP1 SUB PUSH2 0x120 ADD SWAP1 RETURN JUMPDEST PUSH2 0x4E5 PUSH2 0x27B7 JUMP JUMPDEST PUSH2 0x4E5 PUSH2 0x292E JUMP JUMPDEST PUSH2 0x402 PUSH2 0x29C5 JUMP JUMPDEST PUSH2 0x3E8 PUSH2 0x29D4 JUMP JUMPDEST PUSH2 0x3E8 PUSH2 0x2A6E JUMP JUMPDEST PUSH2 0x402 PUSH2 0x2A73 JUMP JUMPDEST PUSH2 0x44C PUSH2 0x2A97 JUMP JUMPDEST PUSH2 0x4E5 PUSH1 0x4 DUP1 CALLDATASIZE SUB PUSH1 0x20 DUP2 LT ISZERO PUSH2 0x867 JUMPI PUSH1 0x0 DUP1 REVERT JUMPDEST POP CALLDATALOAD ISZERO ISZERO PUSH2 0x2AA7 JUMP JUMPDEST PUSH2 0x3E8 PUSH2 0x2B1E JUMP JUMPDEST PUSH2 0x880 PUSH2 0x2B23 JUMP JUMPDEST PUSH1 0x40 DUP1 MLOAD PUSH1 0x20 DUP1 DUP3 MSTORE DUP4 MLOAD DUP2 DUP4 ADD MSTORE DUP4 MLOAD SWAP2 SWAP3 DUP4 SWAP3 SWAP1 DUP4 ADD SWAP2 DUP6 DUP2 ADD SWAP2 MUL DUP1 DUP4 DUP4 PUSH1 0x0 JUMPDEST DUP4 DUP2 LT ISZERO PUSH2 0x8BC JUMPI DUP2 DUP2 ADD MLOAD DUP4 DUP3 ADD MSTORE PUSH1 0x20 ADD PUSH2 0x8A4 JUMP JUMPDEST POP POP POP POP SWAP1 POP ADD SWAP3 POP POP POP PUSH1 0x40 MLOAD DUP1 SWAP2 SUB SWAP1 RETURN JUMPDEST PUSH2 0x44C PUSH2 0x2BAA JUMP JUMPDEST PUSH2 0x4E5 PUSH1 0x4 DUP1 CALLDATASIZE SUB PUSH1 0x20 DUP2 LT ISZERO PUSH2 0x8EE JUMPI PUSH1 0x0 DUP1 REVERT JUMPDEST POP CALLDATALOAD PUSH2 0x2BBA JUMP JUMPDEST PUSH2 0x3E8 PUSH2 0x2CDE JUMP JUMPDEST PUSH2 0x468 PUSH2 0x2D02 JUMP JUMPDEST PUSH2 0x4E5 PUSH2 0x2D5D JUMP JUMPDEST PUSH2 0x402 PUSH2 0x317D JUMP JUMPDEST PUSH2 0x3E8 PUSH2 0x318C JUMP JUMPDEST PUSH2 0x3E8 PUSH2 0x32C5 JUMP JUMPDEST PUSH2 0x402 PUSH2 0x3341 JUMP JUMPDEST PUSH2 0x3E8 PUSH2 0x3350 JUMP JUMPDEST PUSH2 0x44C PUSH2 0x3356 JUMP JUMPDEST PUSH2 0x95A PUSH1 0x4 DUP1 CALLDATASIZE SUB PUSH1 0x20 DUP2 LT ISZERO PUSH2 0x953 JUMPI PUSH1 0x0 DUP1 REVERT JUMPDEST POP CALLDATALOAD PUSH2 0x3366 JUMP JUMPDEST PUSH1 0x40 DUP1 MLOAD PUSH1 0x1 PUSH1 0x1 PUSH1 0xA0 SHL SUB SWAP1 SWAP4 AND DUP4 MSTORE PUSH1 0x20 DUP4 ADD SWAP2 SWAP1 SWAP2 MSTORE DUP1 MLOAD SWAP2 DUP3 SWAP1 SUB ADD SWAP1 RETURN JUMPDEST PUSH2 0x3E8 PUSH2 0x339E JUMP JUMPDEST PUSH2 0x402 PUSH2 0x33C2 JUMP JUMPDEST PUSH2 0x3E8 PUSH2 0x33E6 JUMP JUMPDEST PUSH2 0x99D PUSH2 0x340A JUMP JUMPDEST PUSH1 0x40 DUP1 MLOAD PUSH1 0xFF SWAP1 SWAP3 AND DUP3 MSTORE MLOAD SWAP1 DUP2 SWAP1 SUB PUSH1 0x20 ADD SWAP1 RETURN JUMPDEST PUSH2 0x53A PUSH1 0x4 DUP1 CALLDATASIZE SUB PUSH1 0x20 DUP2 LT ISZERO PUSH2 0x9C9 JUMPI PUSH1 0x0 DUP1 REVERT JUMPDEST POP CALLDATALOAD PUSH2 0x348D JUMP JUMPDEST PUSH2 0x4E5 PUSH1 0x4 DUP1 CALLDATASIZE SUB PUSH1 0x20 DUP2 LT ISZERO PUSH2 0x9E6 JUMPI PUSH1 0x0 DUP1 REVERT JUMPDEST POP CALLDATALOAD PUSH1 0x1 PUSH1 0x1 PUSH1 0xA0 SHL SUB AND PUSH2 0x34BB JUMP JUMPDEST PUSH2 0x3E8 PUSH2 0x35CF JUMP JUMPDEST PUSH2 0x402 PUSH2 0x35D5 JUMP JUMPDEST PUSH2 0x3E8 PUSH2 0x35E4 JUMP JUMPDEST PUSH2 0x3E8 PUSH2 0x3653 JUMP JUMPDEST PUSH2 0x95A PUSH1 0x4 DUP1 CALLDATASIZE SUB PUSH1 0x20 DUP2 LT ISZERO PUSH2 0xA2C JUMPI PUSH1 0x0 DUP1 REVERT JUMPDEST POP CALLDATALOAD PUSH2 0x3677 JUMP JUMPDEST PUSH32 0x0 DUP2 JUMP JUMPDEST PUSH32 0x0 DUP2 JUMP JUMPDEST PUSH1 0x1 PUSH1 0x1 PUSH1 0xA0 SHL SUB DUP2 AND PUSH1 0x0 SWAP1 DUP2 MSTORE PUSH1 0x8 PUSH1 0x20 SWAP1 DUP2 MSTORE PUSH1 0x40 DUP1 DUP4 KECCAK256 DUP1 SLOAD DUP3 MLOAD DUP2 DUP6 MUL DUP2 ADD DUP6 ADD SWAP1 SWAP4 MSTORE DUP1 DUP4 MSTORE DUP5 SWAP4 DUP5 SWAP1 DUP5 ADD JUMPDEST DUP3 DUP3 LT ISZERO PUSH2 0xB40 JUMPI PUSH1 0x0 DUP5 DUP2 MSTORE PUSH1 0x20 SWAP1 DUP2 SWAP1 KECCAK256 PUSH1 0x40 DUP1 MLOAD PUSH2 0x120 DUP2 ADD DUP3 MSTORE PUSH1 0x8 DUP7 MUL SWAP1 SWAP3 ADD DUP1 SLOAD DUP4 MSTORE PUSH1 0x1 DUP1 DUP3 ADD SLOAD DUP5 DUP7 ADD MSTORE PUSH1 0x2 DUP3 ADD SLOAD SWAP3 DUP5 ADD SWAP3 SWAP1 SWAP3 MSTORE PUSH1 0x3 DUP2 ADD SLOAD PUSH1 0x60 DUP5 ADD MSTORE PUSH1 0x4 DUP2 ADD SLOAD PUSH1 0x80 DUP5 ADD MSTORE PUSH1 0x5 DUP2 ADD SLOAD PUSH1 0xA0 DUP5 ADD MSTORE PUSH1 0x6 DUP2 ADD SLOAD PUSH1 0xC0 DUP5 ADD MSTORE PUSH1 0x7 ADD SLOAD PUSH1 0xFF DUP1 DUP3 AND ISZERO ISZERO PUSH1 0xE0 DUP6 ADD MSTORE PUSH2 0x100 SWAP2 DUP3 SWAP1 DIV AND ISZERO ISZERO SWAP1 DUP4 ADD MSTORE SWAP1 DUP4 MSTORE SWAP1 SWAP3 ADD SWAP2 ADD PUSH2 0xAAE JUMP JUMPDEST POP POP POP POP SWAP1 POP DUP1 MLOAD PUSH1 0x0 EQ ISZERO PUSH2 0xB5A JUMPI PUSH1 0x0 SWAP2 POP POP PUSH2 0xBBE JUMP JUMPDEST PUSH1 0x0 DUP1 JUMPDEST DUP3 MLOAD DUP2 LT ISZERO PUSH2 0xBB9 JUMPI DUP3 DUP2 DUP2 MLOAD DUP2 LT PUSH2 0xB73 JUMPI INVALID JUMPDEST PUSH1 0x20 MUL PUSH1 0x20 ADD ADD MLOAD PUSH2 0x100 ADD MLOAD PUSH2 0xBB1 JUMPI PUSH2 0xBAE DUP4 DUP3 DUP2 MLOAD DUP2 LT PUSH2 0xB93 JUMPI INVALID JUMPDEST PUSH1 0x20 MUL PUSH1 0x20 ADD ADD MLOAD PUSH1 0x0 ADD MLOAD DUP4 PUSH2 0x3687 SWAP1 SWAP2 SWAP1 PUSH4 0xFFFFFFFF AND JUMP JUMPDEST SWAP2 POP JUMPDEST PUSH1 0x1 ADD PUSH2 0xB5E JUMP JUMPDEST POP SWAP2 POP POP JUMPDEST SWAP2 SWAP1 POP JUMP JUMPDEST PUSH1 0xF SLOAD PUSH1 0x1 PUSH1 0xA8 SHL SWAP1 DIV PUSH1 0xFF AND DUP2 JUMP JUMPDEST PUSH1 0x6 DUP1 SLOAD PUSH1 0x40 DUP1 MLOAD PUSH1 0x20 PUSH1 0x2 PUSH1 0x1 DUP6 AND ISZERO PUSH2 0x100 MUL PUSH1 0x0 NOT ADD SWAP1 SWAP5 AND SWAP4 SWAP1 SWAP4 DIV PUSH1 0x1F DUP2 ADD DUP5 SWAP1 DIV DUP5 MUL DUP3 ADD DUP5 ADD SWAP1 SWAP3 MSTORE DUP2 DUP2 MSTORE SWAP3 SWAP2 DUP4 ADD DUP3 DUP3 DUP1 ISZERO PUSH2 0xC59 JUMPI DUP1 PUSH1 0x1F LT PUSH2 0xC2E JUMPI PUSH2 0x100 DUP1 DUP4 SLOAD DIV MUL DUP4 MSTORE SWAP2 PUSH1 0x20 ADD SWAP2 PUSH2 0xC59 JUMP JUMPDEST DUP3 ADD SWAP2 SWAP1 PUSH1 0x0 MSTORE PUSH1 0x20 PUSH1 0x0 KECCAK256 SWAP1 JUMPDEST DUP2 SLOAD DUP2 MSTORE SWAP1 PUSH1 0x1 ADD SWAP1 PUSH1 0x20 ADD DUP1 DUP4 GT PUSH2 0xC3C JUMPI DUP3 SWAP1 SUB PUSH1 0x1F AND DUP3 ADD SWAP2 JUMPDEST POP POP POP POP POP DUP2 JUMP JUMPDEST PUSH1 0xE SLOAD PUSH1 0x1 PUSH1 0x1 PUSH1 0xA0 SHL SUB AND PUSH2 0xC75 PUSH2 0x36E8 JUMP JUMPDEST PUSH1 0x1 PUSH1 0x1 PUSH1 0xA0 SHL SUB AND EQ PUSH2 0xCBA JUMPI PUSH1 0x40 MLOAD PUSH3 0x461BCD PUSH1 0xE5 SHL DUP2 MSTORE PUSH1 0x4 ADD DUP1 DUP1 PUSH1 0x20 ADD DUP3 DUP2 SUB DUP3 MSTORE PUSH1 0x21 DUP2 MSTORE PUSH1 0x20 ADD DUP1 PUSH2 0x4220 PUSH1 0x21 SWAP2 CODECOPY PUSH1 0x40 ADD SWAP2 POP POP PUSH1 0x40 MLOAD DUP1 SWAP2 SUB SWAP1 REVERT JUMPDEST PUSH32 0x0 PUSH32 0x0 PUSH32 0x0 ADD ADD TIMESTAMP LT ISZERO PUSH2 0xD5D JUMPI PUSH1 0x40 MLOAD PUSH3 0x461BCD PUSH1 0xE5 SHL DUP2 MSTORE PUSH1 0x4 ADD DUP1 DUP1 PUSH1 0x20 ADD DUP3 DUP2 SUB DUP3 MSTORE PUSH1 0x2C DUP2 MSTORE PUSH1 0x20 ADD DUP1 PUSH2 0x41AD PUSH1 0x2C SWAP2 CODECOPY PUSH1 0x40 ADD SWAP2 POP POP PUSH1 0x40 MLOAD DUP1 SWAP2 SUB SWAP1 REVERT JUMPDEST PUSH32 0x0 ISZERO PUSH2 0xDC6 JUMPI PUSH2 0xD8B PUSH2 0x35E4 JUMP JUMPDEST PUSH2 0xDC6 JUMPI PUSH1 0x40 MLOAD PUSH3 0x461BCD PUSH1 0xE5 SHL DUP2 MSTORE PUSH1 0x4 ADD DUP1 DUP1 PUSH1 0x20 ADD DUP3 DUP2 SUB DUP3 MSTORE PUSH1 0x27 DUP2 MSTORE PUSH1 0x20 ADD DUP1 PUSH2 0x42B7 PUSH1 0x27 SWAP2 CODECOPY PUSH1 0x40 ADD SWAP2 POP POP PUSH1 0x40 MLOAD DUP1 SWAP2 SUB SWAP1 REVERT JUMPDEST PUSH1 0x9 SLOAD ISZERO PUSH2 0xE1B JUMPI PUSH1 0xA SLOAD PUSH2 0xE1B JUMPI PUSH1 0x40 DUP1 MLOAD PUSH3 0x461BCD PUSH1 0xE5 SHL DUP2 MSTORE PUSH1 0x20 PUSH1 0x4 DUP3 ADD MSTORE PUSH1 0x16 PUSH1 0x24 DUP3 ADD MSTORE PUSH22 0xC0CCD8C88199A5C9CDD081CDA1BDD5B19081CDBDC9D PUSH1 0x52 SHL PUSH1 0x44 DUP3 ADD MSTORE SWAP1 MLOAD SWAP1 DUP2 SWAP1 SUB PUSH1 0x64 ADD SWAP1 REVERT JUMPDEST PUSH32 0x0 ISZERO PUSH2 0xEA2 JUMPI PUSH1 0x0 PUSH2 0xE4B PUSH2 0x318C JUMP JUMPDEST SWAP1 POP PUSH2 0xE77 DUP2 PUSH32 0x0 PUSH2 0x19E2 JUMP JUMPDEST PUSH2 0xEA0 JUMPI PUSH32 0x0 PUSH1 0xD SSTORE JUMPDEST POP JUMPDEST PUSH1 0xA SLOAD PUSH1 0x0 SWAP1 PUSH1 0x19 LT PUSH2 0xEB7 JUMPI PUSH1 0xA SLOAD PUSH2 0xEBA JUMP JUMPDEST PUSH1 0x19 JUMPDEST SWAP1 POP PUSH1 0x0 JUMPDEST DUP2 DUP2 LT ISZERO PUSH2 0xF4B JUMPI DUP1 PUSH1 0x1 ADD PUSH1 0x8 PUSH1 0x0 PUSH1 0xA DUP5 DUP2 SLOAD DUP2 LT PUSH2 0xEDC JUMPI INVALID JUMPDEST PUSH1 0x0 SWAP2 DUP3 MSTORE PUSH1 0x20 DUP1 DUP4 KECCAK256 PUSH1 0x2 SWAP1 SWAP3 MUL SWAP1 SWAP2 ADD SLOAD PUSH1 0x1 PUSH1 0x1 PUSH1 0xA0 SHL SUB AND DUP4 MSTORE DUP3 ADD SWAP3 SWAP1 SWAP3 MSTORE PUSH1 0x40 ADD SWAP1 KECCAK256 PUSH1 0xA DUP1 SLOAD DUP5 SWAP1 DUP2 LT PUSH2 0xF13 JUMPI INVALID JUMPDEST SWAP1 PUSH1 0x0 MSTORE PUSH1 0x20 PUSH1 0x0 KECCAK256 SWAP1 PUSH1 0x2 MUL ADD PUSH1 0x1 ADD SLOAD DUP2 SLOAD DUP2 LT PUSH2 0xF2F JUMPI INVALID JUMPDEST PUSH1 0x0 SWAP2 DUP3 MSTORE PUSH1 0x20 SWAP1 SWAP2 KECCAK256 PUSH1 0x6 PUSH1 0x8 SWAP1 SWAP3 MUL ADD ADD SSTORE PUSH1 0x1 ADD PUSH2 0xEBF JUMP JUMPDEST POP PUSH1 0xF DUP1 SLOAD PUSH1 0xFF PUSH1 0xB8 SHL NOT PUSH1 0xFF PUSH1 0xB0 SHL NOT SWAP1 SWAP2 AND PUSH1 0x1 PUSH1 0xB0 SHL OR AND PUSH1 0x1 PUSH1 0xB8 SHL OR SWAP1 SSTORE PUSH1 0x40 MLOAD PUSH32 0xE8EF7A17C92D025D9C1EAD1C6B3CA3B44D3283D0EE954F615C5C476911F629A5 SWAP1 PUSH1 0x0 SWAP1 LOG1 POP JUMP JUMPDEST PUSH1 0x3 SLOAD PUSH1 0x1 PUSH1 0x1 PUSH1 0xA0 SHL SUB AND JUMPDEST SWAP1 JUMP JUMPDEST PUSH1 0xE SLOAD PUSH1 0x1 PUSH1 0x1 PUSH1 0xA0 SHL SUB AND PUSH2 0xFBE PUSH2 0x36E8 JUMP JUMPDEST PUSH1 0x1 PUSH1 0x1 PUSH1 0xA0 SHL SUB AND EQ PUSH2 0x1003 JUMPI PUSH1 0x40 MLOAD PUSH3 0x461BCD PUSH1 0xE5 SHL DUP2 MSTORE PUSH1 0x4 ADD DUP1 DUP1 PUSH1 0x20 ADD DUP3 DUP2 SUB DUP3 MSTORE PUSH1 0x21 DUP2 MSTORE PUSH1 0x20 ADD DUP1 PUSH2 0x4220 PUSH1 0x21 SWAP2 CODECOPY PUSH1 0x40 ADD SWAP2 POP POP PUSH1 0x40 MLOAD DUP1 SWAP2 SUB SWAP1 REVERT JUMPDEST PUSH1 0xF DUP1 SLOAD PUSH2 0xFFFF PUSH1 0xA0 SHL NOT AND PUSH1 0x1 PUSH1 0xA0 SHL OR SWAP1 SSTORE PUSH2 0x101F PUSH2 0x36EC JUMP JUMPDEST JUMP JUMPDEST PUSH1 0x0 DUP1 PUSH1 0x40 MLOAD DUP1 PUSH1 0x80 ADD PUSH1 0x40 MSTORE DUP1 PUSH2 0x6B6C DUP2 MSTORE PUSH1 0x20 ADD PUSH2 0x7530 DUP2 MSTORE PUSH1 0x20 ADD PUSH2 0x445C DUP2 MSTORE PUSH1 0x20 ADD PUSH1 0x0 NOT DUP2 MSTORE POP SWAP1 POP PUSH1 0x0 PUSH1 0x40 MLOAD DUP1 PUSH1 0x80 ADD PUSH1 0x40 MSTORE DUP1 PUSH2 0x3E8 DUP2 MSTORE PUSH1 0x20 ADD PUSH2 0x2BC DUP2 MSTORE PUSH1 0x20 ADD PUSH2 0x177 DUP2 MSTORE PUSH1 0x20 ADD PUSH1 0xC8 DUP2 MSTORE POP SWAP1 POP PUSH1 0x0 DUP1 JUMPDEST PUSH1 0x4 DUP2 LT ISZERO PUSH2 0x113F JUMPI PUSH1 0x0 PUSH1 0x3 DUP3 EQ PUSH2 0x10BA JUMPI PUSH2 0x10B5 PUSH8 0xDE0B6B3A7640000 DUP7 DUP5 PUSH1 0x4 DUP2 LT PUSH2 0x10AA JUMPI INVALID JUMPDEST PUSH1 0x20 MUL ADD MLOAD SWAP1 PUSH2 0x372A JUMP JUMPDEST PUSH2 0x10BC JUMP JUMPDEST DUP7 JUMPDEST SWAP1 POP PUSH1 0x0 DUP2 DUP9 GT PUSH2 0x10CD JUMPI DUP8 PUSH2 0x10CF JUMP JUMPDEST DUP2 JUMPDEST SWAP1 POP PUSH2 0x1119 PUSH2 0x1112 PUSH8 0xDE0B6B3A7640000 PUSH2 0x110C PUSH2 0x1F4 DUP2 PUSH3 0xF4240 PUSH2 0x1106 DUP13 DUP12 PUSH1 0x4 DUP2 LT PUSH2 0x10FA JUMPI INVALID JUMPDEST PUSH1 0x20 MUL ADD MLOAD DUP10 SWAP1 PUSH2 0x372A JUMP JUMPDEST SWAP1 PUSH2 0x372A JUMP JUMPDEST SWAP1 PUSH2 0x3783 JUMP JUMPDEST DUP6 SWAP1 PUSH2 0x3687 JUMP JUMPDEST SWAP4 POP DUP2 DUP9 GT PUSH2 0x1129 JUMPI POP POP PUSH2 0x113F JUMP JUMPDEST PUSH2 0x1133 DUP9 DUP4 PUSH2 0x37EA JUMP JUMPDEST SWAP8 POP POP POP PUSH1 0x1 ADD PUSH2 0x107F JUMP JUMPDEST POP SWAP5 SWAP4 POP POP POP POP JUMP JUMPDEST PUSH1 0x0 DUP1 PUSH1 0x0 DUP1 PUSH1 0x0 PUSH2 0x1159 DUP7 PUSH2 0x1EE4 JUMP JUMPDEST SWAP1 POP PUSH2 0x1164 DUP7 PUSH2 0x1180 JUMP JUMPDEST SWAP1 SWAP4 POP SWAP2 POP PUSH2 0x1173 DUP2 DUP5 PUSH2 0x3687 JUMP JUMPDEST SWAP5 POP SWAP1 SWAP3 POP POP POP JUMPDEST SWAP2 POP SWAP2 JUMP JUMPDEST PUSH1 0xF SLOAD PUSH1 0x0 SWAP1 DUP2 SWAP1 PUSH1 0x1 PUSH1 0xB8 SHL SWAP1 DIV PUSH1 0xFF AND PUSH2 0x11A1 JUMPI POP PUSH1 0x0 SWAP1 POP DUP1 PUSH2 0x117B JUMP JUMPDEST PUSH1 0x1 PUSH1 0x1 PUSH1 0xA0 SHL SUB DUP4 AND PUSH1 0x0 SWAP1 DUP2 MSTORE PUSH1 0x8 PUSH1 0x20 SWAP1 DUP2 MSTORE PUSH1 0x40 DUP1 DUP4 KECCAK256 DUP1 SLOAD DUP3 MLOAD DUP2 DUP6 MUL DUP2 ADD DUP6 ADD SWAP1 SWAP4 MSTORE DUP1 DUP4 MSTORE SWAP2 SWAP3 SWAP1 SWAP2 SWAP1 DUP5 SWAP1 DUP5 ADD JUMPDEST DUP3 DUP3 LT ISZERO PUSH2 0x1269 JUMPI PUSH1 0x0 DUP5 DUP2 MSTORE PUSH1 0x20 SWAP1 DUP2 SWAP1 KECCAK256 PUSH1 0x40 DUP1 MLOAD PUSH2 0x120 DUP2 ADD DUP3 MSTORE PUSH1 0x8 DUP7 MUL SWAP1 SWAP3 ADD DUP1 SLOAD DUP4 MSTORE PUSH1 0x1 DUP1 DUP3 ADD SLOAD DUP5 DUP7 ADD MSTORE PUSH1 0x2 DUP3 ADD SLOAD SWAP3 DUP5 ADD SWAP3 SWAP1 SWAP3 MSTORE PUSH1 0x3 DUP2 ADD SLOAD PUSH1 0x60 DUP5 ADD MSTORE PUSH1 0x4 DUP2 ADD SLOAD PUSH1 0x80 DUP5 ADD MSTORE PUSH1 0x5 DUP2 ADD SLOAD PUSH1 0xA0 DUP5 ADD MSTORE PUSH1 0x6 DUP2 ADD SLOAD PUSH1 0xC0 DUP5 ADD MSTORE PUSH1 0x7 ADD SLOAD PUSH1 0xFF DUP1 DUP3 AND ISZERO ISZERO PUSH1 0xE0 DUP6 ADD MSTORE PUSH2 0x100 SWAP2 DUP3 SWAP1 DIV AND ISZERO ISZERO SWAP1 DUP4 ADD MSTORE SWAP1 DUP4 MSTORE SWAP1 SWAP3 ADD SWAP2 ADD PUSH2 0x11D7 JUMP JUMPDEST POP POP POP POP SWAP1 POP DUP1 MLOAD PUSH1 0x0 EQ ISZERO PUSH2 0x1286 JUMPI PUSH1 0x0 DUP1 SWAP3 POP SWAP3 POP POP PUSH2 0x117B JUMP JUMPDEST PUSH1 0xC SLOAD PUSH1 0x0 SWAP1 PUSH2 0x12BE SWAP1 PUSH2 0x110C PUSH32 0x0 PUSH4 0x5F5E100 PUSH2 0x372A JUMP JUMPDEST SWAP1 POP PUSH1 0x0 DUP1 PUSH1 0x0 JUMPDEST DUP5 MLOAD DUP2 LT ISZERO PUSH2 0x135E JUMPI DUP5 DUP2 DUP2 MLOAD DUP2 LT PUSH2 0x12DB JUMPI INVALID JUMPDEST PUSH1 0x20 MUL PUSH1 0x20 ADD ADD MLOAD PUSH1 0xE0 ADD MLOAD PUSH2 0x1356 JUMPI PUSH1 0x0 PUSH2 0x130D DUP7 DUP4 DUP2 MLOAD DUP2 LT PUSH2 0x12FC JUMPI INVALID JUMPDEST PUSH1 0x20 MUL PUSH1 0x20 ADD ADD MLOAD PUSH1 0xC0 ADD MLOAD PUSH2 0x3847 JUMP JUMPDEST SWAP1 POP PUSH2 0x133C PUSH2 0x1112 PUSH32 0x0 DUP4 PUSH2 0x38B2 JUMP JUMPDEST SWAP4 POP PUSH2 0x1352 PUSH2 0x134B DUP7 DUP4 PUSH2 0x38B2 JUMP JUMPDEST DUP5 SWAP1 PUSH2 0x3687 JUMP JUMPDEST SWAP3 POP POP JUMPDEST PUSH1 0x1 ADD PUSH2 0x12C6 JUMP JUMPDEST POP PUSH1 0xD SLOAD ISZERO PUSH2 0x138F JUMPI PUSH1 0xD SLOAD PUSH2 0x1375 SWAP1 DUP4 SWAP1 PUSH2 0x38C4 JUMP JUMPDEST SWAP2 POP PUSH2 0x138C PUSH1 0xD SLOAD DUP3 PUSH2 0x38C4 SWAP1 SWAP2 SWAP1 PUSH4 0xFFFFFFFF AND JUMP JUMPDEST SWAP1 POP JUMPDEST SWAP1 SWAP5 POP SWAP3 POP POP POP SWAP2 POP SWAP2 JUMP JUMPDEST PUSH1 0x3 SLOAD PUSH1 0x0 SWAP1 DUP2 SWAP1 PUSH1 0x1 PUSH1 0x1 PUSH1 0xA0 SHL SUB AND PUSH4 0xD06CA61F DUP5 PUSH2 0x13BA PUSH2 0x2B23 JUMP JUMPDEST PUSH1 0x40 MLOAD DUP4 PUSH4 0xFFFFFFFF AND PUSH1 0xE0 SHL DUP2 MSTORE PUSH1 0x4 ADD DUP1 DUP4 DUP2 MSTORE PUSH1 0x20 ADD DUP1 PUSH1 0x20 ADD DUP3 DUP2 SUB DUP3 MSTORE DUP4 DUP2 DUP2 MLOAD DUP2 MSTORE PUSH1 0x20 ADD SWAP2 POP DUP1 MLOAD SWAP1 PUSH1 0x20 ADD SWAP1 PUSH1 0x20 MUL DUP1 DUP4 DUP4 PUSH1 0x0 JUMPDEST DUP4 DUP2 LT ISZERO PUSH2 0x140F JUMPI DUP2 DUP2 ADD MLOAD DUP4 DUP3 ADD MSTORE PUSH1 0x20 ADD PUSH2 0x13F7 JUMP JUMPDEST POP POP POP POP SWAP1 POP ADD SWAP4 POP POP POP POP PUSH1 0x0 PUSH1 0x40 MLOAD DUP1 DUP4 SUB DUP2 DUP7 DUP1 EXTCODESIZE ISZERO DUP1 ISZERO PUSH2 0x1433 JUMPI PUSH1 0x0 DUP1 REVERT JUMPDEST POP GAS STATICCALL ISZERO DUP1 ISZERO PUSH2 0x1447 JUMPI RETURNDATASIZE PUSH1 0x0 DUP1 RETURNDATACOPY RETURNDATASIZE PUSH1 0x0 REVERT JUMPDEST POP POP POP POP PUSH1 0x40 MLOAD RETURNDATASIZE PUSH1 0x0 DUP3 RETURNDATACOPY PUSH1 0x1F RETURNDATASIZE SWAP1 DUP2 ADD PUSH1 0x1F NOT AND DUP3 ADD PUSH1 0x40 MSTORE PUSH1 0x20 DUP2 LT ISZERO PUSH2 0x1470 JUMPI PUSH1 0x0 DUP1 REVERT JUMPDEST DUP2 ADD SWAP1 DUP1 DUP1 MLOAD PUSH1 0x40 MLOAD SWAP4 SWAP3 SWAP2 SWAP1 DUP5 PUSH5 0x100000000 DUP3 GT ISZERO PUSH2 0x1490 JUMPI PUSH1 0x0 DUP1 REVERT JUMPDEST SWAP1 DUP4 ADD SWAP1 PUSH1 0x20 DUP3 ADD DUP6 DUP2 GT ISZERO PUSH2 0x14A5 JUMPI PUSH1 0x0 DUP1 REVERT JUMPDEST DUP3 MLOAD DUP7 PUSH1 0x20 DUP3 MUL DUP4 ADD GT PUSH5 0x100000000 DUP3 GT OR ISZERO PUSH2 0x14C2 JUMPI PUSH1 0x0 DUP1 REVERT JUMPDEST DUP3 MSTORE POP DUP2 MLOAD PUSH1 0x20 SWAP2 DUP3 ADD SWAP3 DUP3 ADD SWAP2 MUL DUP1 DUP4 DUP4 PUSH1 0x0 JUMPDEST DUP4 DUP2 LT ISZERO PUSH2 0x14EF JUMPI DUP2 DUP2 ADD MLOAD DUP4 DUP3 ADD MSTORE PUSH1 0x20 ADD PUSH2 0x14D7 JUMP JUMPDEST POP POP POP POP SWAP1 POP ADD PUSH1 0x40 MSTORE POP POP POP SWAP1 POP DUP1 PUSH1 0x1 DUP2 MLOAD DUP2 LT PUSH2 0x150B JUMPI INVALID JUMPDEST PUSH1 0x20 MUL PUSH1 0x20 ADD ADD MLOAD SWAP2 POP POP SWAP2 SWAP1 POP JUMP JUMPDEST PUSH1 0xE SLOAD PUSH1 0x1 PUSH1 0x1 PUSH1 0xA0 SHL SUB AND PUSH2 0x152F PUSH2 0x36E8 JUMP JUMPDEST PUSH1 0x1 PUSH1 0x1 PUSH1 0xA0 SHL SUB AND EQ PUSH2 0x1574 JUMPI PUSH1 0x40 MLOAD PUSH3 0x461BCD PUSH1 0xE5 SHL DUP2 MSTORE PUSH1 0x4 ADD DUP1 DUP1 PUSH1 0x20 ADD DUP3 DUP2 SUB DUP3 MSTORE PUSH1 0x21 DUP2 MSTORE PUSH1 0x20 ADD DUP1 PUSH2 0x4220 PUSH1 0x21 SWAP2 CODECOPY PUSH1 0x40 ADD SWAP2 POP POP PUSH1 0x40 MLOAD DUP1 SWAP2 SUB SWAP1 REVERT JUMPDEST PUSH2 0x101F PUSH2 0x36EC JUMP JUMPDEST PUSH1 0x60 DUP1 PUSH1 0x0 PUSH1 0x9 DUP1 SLOAD SWAP1 POP PUSH8 0xFFFFFFFFFFFFFFFF DUP2 GT DUP1 ISZERO PUSH2 0x159D JUMPI PUSH1 0x0 DUP1 REVERT JUMPDEST POP PUSH1 0x40 MLOAD SWAP1 DUP1 DUP3 MSTORE DUP1 PUSH1 0x20 MUL PUSH1 0x20 ADD DUP3 ADD PUSH1 0x40 MSTORE DUP1 ISZERO PUSH2 0x15C7 JUMPI DUP2 PUSH1 0x20 ADD PUSH1 0x20 DUP3 MUL DUP1 CALLDATASIZE DUP4 CALLDATACOPY ADD SWAP1 POP JUMPDEST POP PUSH1 0x9 SLOAD SWAP1 SWAP2 POP PUSH1 0x0 SWAP1 PUSH8 0xFFFFFFFFFFFFFFFF DUP2 GT DUP1 ISZERO PUSH2 0x15E7 JUMPI PUSH1 0x0 DUP1 REVERT JUMPDEST POP PUSH1 0x40 MLOAD SWAP1 DUP1 DUP3 MSTORE DUP1 PUSH1 0x20 MUL PUSH1 0x20 ADD DUP3 ADD PUSH1 0x40 MSTORE DUP1 ISZERO PUSH2 0x1611 JUMPI DUP2 PUSH1 0x20 ADD PUSH1 0x20 DUP3 MUL DUP1 CALLDATASIZE DUP4 CALLDATACOPY ADD SWAP1 POP JUMPDEST POP SWAP1 POP PUSH1 0x0 JUMPDEST PUSH1 0x9 SLOAD DUP2 LT ISZERO PUSH2 0x16B7 JUMPI PUSH1 0x9 DUP2 DUP2 SLOAD DUP2 LT PUSH2 0x162E JUMPI INVALID JUMPDEST PUSH1 0x0 SWAP2 DUP3 MSTORE PUSH1 0x20 SWAP1 SWAP2 KECCAK256 PUSH1 0x2 SWAP1 SWAP2 MUL ADD SLOAD DUP4 MLOAD PUSH1 0x1 PUSH1 0x1 PUSH1 0xA0 SHL SUB SWAP1 SWAP2 AND SWAP1 DUP5 SWAP1 DUP4 SWAP1 DUP2 LT PUSH2 0x1659 JUMPI INVALID JUMPDEST PUSH1 0x20 MUL PUSH1 0x20 ADD ADD SWAP1 PUSH1 0x1 PUSH1 0x1 PUSH1 0xA0 SHL SUB AND SWAP1 DUP2 PUSH1 0x1 PUSH1 0x1 PUSH1 0xA0 SHL SUB AND DUP2 MSTORE POP POP PUSH1 0x9 DUP2 DUP2 SLOAD DUP2 LT PUSH2 0x1686 JUMPI INVALID JUMPDEST SWAP1 PUSH1 0x0 MSTORE PUSH1 0x20 PUSH1 0x0 KECCAK256 SWAP1 PUSH1 0x2 MUL ADD PUSH1 0x1 ADD SLOAD DUP3 DUP3 DUP2 MLOAD DUP2 LT PUSH2 0x16A4 JUMPI INVALID JUMPDEST PUSH1 0x20 SWAP1 DUP2 MUL SWAP2 SWAP1 SWAP2 ADD ADD MSTORE PUSH1 0x1 ADD PUSH2 0x1617 JUMP JUMPDEST POP SWAP1 SWAP3 POP SWAP1 POP SWAP1 SWAP2 JUMP JUMPDEST PUSH1 0xE SLOAD PUSH1 0x1 PUSH1 0x1 PUSH1 0xA0 SHL SUB AND PUSH2 0x16D5 PUSH2 0x36E8 JUMP JUMPDEST PUSH1 0x1 PUSH1 0x1 PUSH1 0xA0 SHL SUB AND EQ PUSH2 0x171A JUMPI PUSH1 0x40 MLOAD PUSH3 0x461BCD PUSH1 0xE5 SHL DUP2 MSTORE PUSH1 0x4 ADD DUP1 DUP1 PUSH1 0x20 ADD DUP3 DUP2 SUB DUP3 MSTORE PUSH1 0x21 DUP2 MSTORE PUSH1 0x20 ADD DUP1 PUSH2 0x4220 PUSH1 0x21 SWAP2 CODECOPY PUSH1 0x40 ADD SWAP2 POP POP PUSH1 0x40 MLOAD DUP1 SWAP2 SUB SWAP1 REVERT JUMPDEST PUSH1 0xA SLOAD ISZERO PUSH2 0x172E JUMPI PUSH2 0x172E PUSH1 0xA PUSH1 0x0 PUSH2 0x411D JUMP JUMPDEST PUSH1 0x0 JUMPDEST PUSH1 0x19 DUP2 LT ISZERO PUSH2 0x17FC JUMPI PUSH1 0x0 DUP4 DUP3 PUSH1 0x19 DUP2 LT PUSH2 0x1748 JUMPI INVALID JUMPDEST PUSH1 0x20 MUL ADD CALLDATALOAD PUSH1 0x1 PUSH1 0x1 PUSH1 0xA0 SHL SUB AND PUSH1 0x1 PUSH1 0x1 PUSH1 0xA0 SHL SUB AND EQ ISZERO PUSH2 0x176A JUMPI PUSH2 0x17FC JUMP JUMPDEST PUSH1 0xA PUSH1 0x40 MLOAD DUP1 PUSH1 0x40 ADD PUSH1 0x40 MSTORE DUP1 DUP6 DUP5 PUSH1 0x19 DUP2 LT PUSH2 0x1783 JUMPI INVALID JUMPDEST PUSH1 0x20 MUL ADD CALLDATALOAD PUSH1 0x1 PUSH1 0x1 PUSH1 0xA0 SHL SUB AND PUSH1 0x1 PUSH1 0x1 PUSH1 0xA0 SHL SUB AND DUP2 MSTORE PUSH1 0x20 ADD DUP5 DUP5 PUSH1 0x19 DUP2 LT PUSH2 0x17AB JUMPI INVALID JUMPDEST PUSH1 0x20 SWAP1 DUP2 MUL SWAP2 SWAP1 SWAP2 ADD CALLDATALOAD SWAP1 SWAP2 MSTORE DUP3 SLOAD PUSH1 0x1 DUP1 DUP3 ADD DUP6 SSTORE PUSH1 0x0 SWAP5 DUP6 MSTORE SWAP4 DUP3 SWAP1 KECCAK256 DUP4 MLOAD PUSH1 0x2 SWAP1 SWAP3 MUL ADD DUP1 SLOAD PUSH1 0x1 PUSH1 0x1 PUSH1 0xA0 SHL SUB NOT AND PUSH1 0x1 PUSH1 0x1 PUSH1 0xA0 SHL SUB SWAP1 SWAP3 AND SWAP2 SWAP1 SWAP2 OR DUP2 SSTORE SWAP2 ADD MLOAD SWAP1 DUP3 ADD SSTORE ADD PUSH2 0x1731 JUMP JUMPDEST POP PUSH1 0x40 MLOAD PUSH32 0x5C243CC6E4F210BF2DD86B8ECA0CA891D3F8AD2EB09FBF91735EB348BC199C7E SWAP1 PUSH1 0x0 SWAP1 LOG1 POP POP JUMP JUMPDEST PUSH1 0x1 PUSH1 0x1 PUSH1 0xA0 SHL SUB DUP3 AND PUSH1 0x0 SWAP1 DUP2 MSTORE PUSH1 0x8 PUSH1 0x20 SWAP1 DUP2 MSTORE PUSH1 0x40 DUP1 DUP4 KECCAK256 DUP1 SLOAD DUP3 MLOAD DUP2 DUP6 MUL DUP2 ADD DUP6 ADD SWAP1 SWAP4 MSTORE DUP1 DUP4 MSTORE DUP5 SWAP4 DUP5 SWAP1 DUP5 ADD JUMPDEST DUP3 DUP3 LT ISZERO PUSH2 0x18EF JUMPI PUSH1 0x0 DUP5 DUP2 MSTORE PUSH1 0x20 SWAP1 DUP2 SWAP1 KECCAK256 PUSH1 0x40 DUP1 MLOAD PUSH2 0x120 DUP2 ADD DUP3 MSTORE PUSH1 0x8 DUP7 MUL SWAP1 SWAP3 ADD DUP1 SLOAD DUP4 MSTORE PUSH1 0x1 DUP1 DUP3 ADD SLOAD DUP5 DUP7 ADD MSTORE PUSH1 0x2 DUP3 ADD SLOAD SWAP3 DUP5 ADD SWAP3 SWAP1 SWAP3 MSTORE PUSH1 0x3 DUP2 ADD SLOAD PUSH1 0x60 DUP5 ADD MSTORE PUSH1 0x4 DUP2 ADD SLOAD PUSH1 0x80 DUP5 ADD MSTORE PUSH1 0x5 DUP2 ADD SLOAD PUSH1 0xA0 DUP5 ADD MSTORE PUSH1 0x6 DUP2 ADD SLOAD PUSH1 0xC0 DUP5 ADD MSTORE PUSH1 0x7 ADD SLOAD PUSH1 0xFF DUP1 DUP3 AND ISZERO ISZERO PUSH1 0xE0 DUP6 ADD MSTORE PUSH2 0x100 SWAP2 DUP3 SWAP1 DIV AND ISZERO ISZERO SWAP1 DUP4 ADD MSTORE SWAP1 DUP4 MSTORE SWAP1 SWAP3 ADD SWAP2 ADD PUSH2 0x185D JUMP JUMPDEST POP POP POP POP SWAP1 POP PUSH1 0x0 DUP2 MLOAD GT PUSH2 0x1935 JUMPI PUSH1 0x40 MLOAD PUSH3 0x461BCD PUSH1 0xE5 SHL DUP2 MSTORE PUSH1 0x4 ADD DUP1 DUP1 PUSH1 0x20 ADD DUP3 DUP2 SUB DUP3 MSTORE PUSH1 0x2B DUP2 MSTORE PUSH1 0x20 ADD DUP1 PUSH2 0x4262 PUSH1 0x2B SWAP2 CODECOPY PUSH1 0x40 ADD SWAP2 POP POP PUSH1 0x40 MLOAD DUP1 SWAP2 SUB SWAP1 REVERT JUMPDEST DUP1 MLOAD DUP4 LT PUSH2 0x198A JUMPI PUSH1 0x40 DUP1 MLOAD PUSH3 0x461BCD PUSH1 0xE5 SHL DUP2 MSTORE PUSH1 0x20 PUSH1 0x4 DUP3 ADD MSTORE PUSH1 0x17 PUSH1 0x24 DUP3 ADD MSTORE PUSH32 0x30333831207468697320696E6465782065786365656473000000000000000000 PUSH1 0x44 DUP3 ADD MSTORE SWAP1 MLOAD SWAP1 DUP2 SWAP1 SUB PUSH1 0x64 ADD SWAP1 REVERT JUMPDEST DUP1 DUP4 DUP2 MLOAD DUP2 LT PUSH2 0x1996 JUMPI INVALID JUMPDEST PUSH1 0x20 MUL PUSH1 0x20 ADD ADD MLOAD PUSH2 0x100 ADD MLOAD ISZERO PUSH2 0x19B2 JUMPI PUSH1 0x1 SWAP2 POP POP PUSH2 0x19B8 JUMP JUMPDEST PUSH1 0x0 SWAP2 POP POP JUMPDEST SWAP3 SWAP2 POP POP JUMP JUMPDEST PUSH32 0x0 DUP2 JUMP JUMPDEST PUSH1 0x0 PUSH1 0xC SLOAD DUP4 GT ISZERO PUSH2 0x1A26 JUMPI PUSH1 0xC SLOAD PUSH2 0x19FB DUP5 DUP5 PUSH2 0x37EA JUMP JUMPDEST GT PUSH2 0x1A08 JUMPI POP PUSH1 0x0 PUSH2 0x19B8 JUMP JUMPDEST PUSH1 0xC SLOAD PUSH2 0x1A1F SWAP1 PUSH2 0x1A19 DUP6 DUP6 PUSH2 0x37EA JUMP JUMPDEST SWAP1 PUSH2 0x37EA JUMP JUMPDEST SWAP1 POP PUSH2 0x19B8 JUMP JUMPDEST PUSH1 0xC SLOAD PUSH2 0x1A33 DUP5 DUP5 PUSH2 0x3687 JUMP JUMPDEST LT PUSH2 0x1A40 JUMPI POP PUSH1 0x0 PUSH2 0x19B8 JUMP JUMPDEST PUSH2 0x1A1F PUSH2 0x1A4D DUP5 DUP5 PUSH2 0x3687 JUMP JUMPDEST PUSH1 0xC SLOAD SWAP1 PUSH2 0x37EA JUMP JUMPDEST PUSH1 0xE SLOAD PUSH1 0x1 PUSH1 0x1 PUSH1 0xA0 SHL SUB AND PUSH2 0x1A6A PUSH2 0x36E8 JUMP JUMPDEST PUSH1 0x1 PUSH1 0x1 PUSH1 0xA0 SHL SUB AND EQ PUSH2 0x1AAF JUMPI PUSH1 0x40 MLOAD PUSH3 0x461BCD PUSH1 0xE5 SHL DUP2 MSTORE PUSH1 0x4 ADD DUP1 DUP1 PUSH1 0x20 ADD DUP3 DUP2 SUB DUP3 MSTORE PUSH1 0x21 DUP2 MSTORE PUSH1 0x20 ADD DUP1 PUSH2 0x4220 PUSH1 0x21 SWAP2 CODECOPY PUSH1 0x40 ADD SWAP2 POP POP PUSH1 0x40 MLOAD DUP1 SWAP2 SUB SWAP1 REVERT JUMPDEST PUSH1 0x0 PUSH32 0x0 GT PUSH2 0x1B0E JUMPI PUSH1 0x40 MLOAD PUSH3 0x461BCD PUSH1 0xE5 SHL DUP2 MSTORE PUSH1 0x4 ADD DUP1 DUP1 PUSH1 0x20 ADD DUP3 DUP2 SUB DUP3 MSTORE PUSH1 0x23 DUP2 MSTORE PUSH1 0x20 ADD DUP1 PUSH2 0x4164 PUSH1 0x23 SWAP2 CODECOPY PUSH1 0x40 ADD SWAP2 POP POP PUSH1 0x40 MLOAD DUP1 SWAP2 SUB SWAP1 REVERT JUMPDEST PUSH1 0x0 DUP3 GT PUSH2 0x1B63 JUMPI PUSH1 0x40 DUP1 MLOAD PUSH3 0x461BCD PUSH1 0xE5 SHL DUP2 MSTORE PUSH1 0x20 PUSH1 0x4 DUP3 ADD MSTORE PUSH1 0x19 PUSH1 0x24 DUP3 ADD MSTORE PUSH32 0x3033343120416D6F756E742063616E2774206265207A65726F00000000000000 PUSH1 0x44 DUP3 ADD MSTORE SWAP1 MLOAD SWAP1 DUP2 SWAP1 SUB PUSH1 0x64 ADD SWAP1 REVERT JUMPDEST TIMESTAMP DUP2 LT ISZERO PUSH2 0x1BAF JUMPI PUSH1 0x40 DUP1 MLOAD PUSH3 0x461BCD PUSH1 0xE5 SHL DUP2 MSTORE PUSH1 0x20 PUSH1 0x4 DUP3 ADD MSTORE PUSH1 0x14 PUSH1 0x24 DUP3 ADD MSTORE PUSH20 0x3033343220446561646C696E65206973206C6F77 PUSH1 0x60 SHL PUSH1 0x44 DUP3 ADD MSTORE SWAP1 MLOAD SWAP1 DUP2 SWAP1 SUB PUSH1 0x64 ADD SWAP1 REVERT JUMPDEST PUSH1 0x0 PUSH2 0x1BB9 PUSH2 0xF9A JUMP JUMPDEST SWAP1 POP PUSH2 0x1BC5 DUP2 DUP5 PUSH2 0x38EC JUMP JUMPDEST PUSH1 0x0 PUSH2 0x1BD0 DUP5 PUSH2 0x139B JUMP JUMPDEST SWAP1 POP PUSH1 0x0 PUSH2 0x1BEA PUSH2 0x1BE3 DUP4 PUSH2 0x12C PUSH2 0x38B2 JUMP JUMPDEST DUP4 SWAP1 PUSH2 0x37EA JUMP JUMPDEST SWAP1 POP PUSH2 0x1BF8 ADDRESS DUP7 DUP4 DUP8 PUSH2 0x39B1 JUMP JUMPDEST POP POP POP POP POP JUMP JUMPDEST PUSH32 0x0 DUP2 JUMP JUMPDEST PUSH32 0x0 DUP2 JUMP JUMPDEST PUSH1 0xE SLOAD PUSH1 0x1 PUSH1 0x1 PUSH1 0xA0 SHL SUB AND PUSH2 0x1C5B PUSH2 0x36E8 JUMP JUMPDEST PUSH1 0x1 PUSH1 0x1 PUSH1 0xA0 SHL SUB AND EQ PUSH2 0x1CA0 JUMPI PUSH1 0x40 MLOAD PUSH3 0x461BCD PUSH1 0xE5 SHL DUP2 MSTORE PUSH1 0x4 ADD DUP1 DUP1 PUSH1 0x20 ADD DUP3 DUP2 SUB DUP3 MSTORE PUSH1 0x21 DUP2 MSTORE PUSH1 0x20 ADD DUP1 PUSH2 0x4220 PUSH1 0x21 SWAP2 CODECOPY PUSH1 0x40 ADD SWAP2 POP POP PUSH1 0x40 MLOAD DUP1 SWAP2 SUB SWAP1 REVERT JUMPDEST PUSH32 0x0 PUSH1 0x1 PUSH1 0x1 PUSH1 0xA0 SHL SUB AND DUP4 PUSH1 0x1 PUSH1 0x1 PUSH1 0xA0 SHL SUB AND EQ ISZERO PUSH2 0x1D11 JUMPI PUSH1 0x40 MLOAD PUSH3 0x461BCD PUSH1 0xE5 SHL DUP2 MSTORE PUSH1 0x4 ADD DUP1 DUP1 PUSH1 0x20 ADD DUP3 DUP2 SUB DUP3 MSTORE PUSH1 0x21 DUP2 MSTORE PUSH1 0x20 ADD DUP1 PUSH2 0x41FF PUSH1 0x21 SWAP2 CODECOPY PUSH1 0x40 ADD SWAP2 POP POP PUSH1 0x40 MLOAD DUP1 SWAP2 SUB SWAP1 REVERT JUMPDEST PUSH1 0x40 DUP1 MLOAD PUSH4 0xA9059CBB PUSH1 0xE0 SHL DUP2 MSTORE PUSH1 0x1 PUSH1 0x1 PUSH1 0xA0 SHL SUB DUP4 DUP2 AND PUSH1 0x4 DUP4 ADD MSTORE PUSH1 0x24 DUP3 ADD DUP6 SWAP1 MSTORE SWAP2 MLOAD DUP6 SWAP3 DUP4 AND SWAP2 PUSH4 0xA9059CBB SWAP2 PUSH1 0x44 DUP1 DUP4 ADD SWAP3 PUSH1 0x20 SWAP3 SWAP2 SWAP1 DUP3 SWAP1 SUB ADD DUP2 PUSH1 0x0 DUP8 DUP1 EXTCODESIZE ISZERO DUP1 ISZERO PUSH2 0x1D64 JUMPI PUSH1 0x0 DUP1 REVERT JUMPDEST POP GAS CALL ISZERO DUP1 ISZERO PUSH2 0x1D78 JUMPI RETURNDATASIZE PUSH1 0x0 DUP1 RETURNDATACOPY RETURNDATASIZE PUSH1 0x0 REVERT JUMPDEST POP POP POP POP PUSH1 0x40 MLOAD RETURNDATASIZE PUSH1 0x20 DUP2 LT ISZERO PUSH2 0x1D8E JUMPI PUSH1 0x0 DUP1 REVERT JUMPDEST POP POP POP POP POP POP JUMP JUMPDEST PUSH32 0x0 DUP2 JUMP JUMPDEST PUSH32 0x0 DUP2 JUMP JUMPDEST PUSH2 0x1DE6 PUSH2 0x36E8 JUMP JUMPDEST PUSH1 0x1 PUSH1 0x1 PUSH1 0xA0 SHL SUB AND PUSH2 0x1DF7 PUSH2 0x29C5 JUMP JUMPDEST PUSH1 0x1 PUSH1 0x1 PUSH1 0xA0 SHL SUB AND EQ PUSH2 0x1E52 JUMPI PUSH1 0x40 DUP1 MLOAD PUSH3 0x461BCD PUSH1 0xE5 SHL DUP2 MSTORE PUSH1 0x20 PUSH1 0x4 DUP3 ADD DUP2 SWAP1 MSTORE PUSH1 0x24 DUP3 ADD MSTORE PUSH32 0x4F776E61626C653A2063616C6C6572206973206E6F7420746865206F776E6572 PUSH1 0x44 DUP3 ADD MSTORE SWAP1 MLOAD SWAP1 DUP2 SWAP1 SUB PUSH1 0x64 ADD SWAP1 REVERT JUMPDEST PUSH1 0x0 DUP1 SLOAD PUSH1 0x40 MLOAD PUSH1 0x1 PUSH1 0x1 PUSH1 0xA0 SHL SUB SWAP1 SWAP2 AND SWAP1 PUSH32 0x8BE0079C531659141344CD1FD0A4F28419497F9722A3DAAFE3B4186F6B6457E0 SWAP1 DUP4 SWAP1 LOG3 PUSH1 0x0 DUP1 SLOAD PUSH1 0x1 PUSH1 0x1 PUSH1 0xA0 SHL SUB NOT AND SWAP1 SSTORE JUMP JUMPDEST PUSH32 0x0 DUP2 JUMP JUMPDEST PUSH32 0x0 DUP2 JUMP JUMPDEST PUSH1 0x1 PUSH1 0x1 PUSH1 0xA0 SHL SUB DUP2 AND PUSH1 0x0 SWAP1 DUP2 MSTORE PUSH1 0x8 PUSH1 0x20 SWAP1 DUP2 MSTORE PUSH1 0x40 DUP1 DUP4 KECCAK256 DUP1 SLOAD DUP3 MLOAD DUP2 DUP6 MUL DUP2 ADD DUP6 ADD SWAP1 SWAP4 MSTORE DUP1 DUP4 MSTORE DUP5 SWAP4 DUP5 SWAP1 DUP5 ADD JUMPDEST DUP3 DUP3 LT ISZERO PUSH2 0x1FA9 JUMPI PUSH1 0x0 DUP5 DUP2 MSTORE PUSH1 0x20 SWAP1 DUP2 SWAP1 KECCAK256 PUSH1 0x40 DUP1 MLOAD PUSH2 0x120 DUP2 ADD DUP3 MSTORE PUSH1 0x8 DUP7 MUL SWAP1 SWAP3 ADD DUP1 SLOAD DUP4 MSTORE PUSH1 0x1 DUP1 DUP3 ADD SLOAD DUP5 DUP7 ADD MSTORE PUSH1 0x2 DUP3 ADD SLOAD SWAP3 DUP5 ADD SWAP3 SWAP1 SWAP3 MSTORE PUSH1 0x3 DUP2 ADD SLOAD PUSH1 0x60 DUP5 ADD MSTORE PUSH1 0x4 DUP2 ADD SLOAD PUSH1 0x80 DUP5 ADD MSTORE PUSH1 0x5 DUP2 ADD SLOAD PUSH1 0xA0 DUP5 ADD MSTORE PUSH1 0x6 DUP2 ADD SLOAD PUSH1 0xC0 DUP5 ADD MSTORE PUSH1 0x7 ADD SLOAD PUSH1 0xFF DUP1 DUP3 AND ISZERO ISZERO PUSH1 0xE0 DUP6 ADD MSTORE PUSH2 0x100 SWAP2 DUP3 SWAP1 DIV AND ISZERO ISZERO SWAP1 DUP4 ADD MSTORE SWAP1 DUP4 MSTORE SWAP1 SWAP3 ADD SWAP2 ADD PUSH2 0x1F17 JUMP JUMPDEST POP POP POP POP SWAP1 POP DUP1 MLOAD PUSH1 0x0 EQ ISZERO PUSH2 0x1FC3 JUMPI PUSH1 0x0 SWAP2 POP POP PUSH2 0xBBE JUMP JUMPDEST PUSH1 0x0 DUP1 JUMPDEST DUP3 MLOAD DUP2 LT ISZERO PUSH2 0xBB9 JUMPI PUSH1 0x0 PUSH2 0x1FDC DUP7 DUP4 PUSH2 0x3B4A JUMP JUMPDEST SWAP1 POP PUSH2 0x1FE8 DUP4 DUP3 PUSH2 0x3687 JUMP JUMPDEST SWAP3 POP POP PUSH1 0x1 ADD PUSH2 0x1FC7 JUMP JUMPDEST PUSH1 0xF SLOAD PUSH1 0x1 PUSH1 0xA8 SHL SWAP1 DIV PUSH1 0xFF AND DUP1 ISZERO PUSH2 0x202B JUMPI POP PUSH32 0x0 TIMESTAMP GT JUMPDEST PUSH2 0x207C JUMPI PUSH1 0x40 DUP1 MLOAD PUSH3 0x461BCD PUSH1 0xE5 SHL DUP2 MSTORE PUSH1 0x20 PUSH1 0x4 DUP3 ADD MSTORE PUSH1 0x17 PUSH1 0x24 DUP3 ADD MSTORE PUSH32 0x3033313320706F6F6C206973206E6F7420616374697665000000000000000000 PUSH1 0x44 DUP3 ADD MSTORE SWAP1 MLOAD SWAP1 DUP2 SWAP1 SUB PUSH1 0x64 ADD SWAP1 REVERT JUMPDEST PUSH1 0xF SLOAD PUSH1 0x1 PUSH1 0xB0 SHL SWAP1 DIV PUSH1 0xFF AND ISZERO PUSH2 0x20D1 JUMPI PUSH1 0x40 DUP1 MLOAD PUSH3 0x461BCD PUSH1 0xE5 SHL DUP2 MSTORE PUSH1 0x20 PUSH1 0x4 DUP3 ADD MSTORE PUSH1 0x13 PUSH1 0x24 DUP3 ADD MSTORE PUSH19 0xC0CCC4C08141BDBDB081A5CC81B1BD8DAD959 PUSH1 0x6A SHL PUSH1 0x44 DUP3 ADD MSTORE SWAP1 MLOAD SWAP1 DUP2 SWAP1 SUB PUSH1 0x64 ADD SWAP1 REVERT JUMPDEST PUSH32 0x0 DUP3 LT ISZERO PUSH2 0x2130 JUMPI PUSH1 0x40 MLOAD PUSH3 0x461BCD PUSH1 0xE5 SHL DUP2 MSTORE PUSH1 0x4 ADD DUP1 DUP1 PUSH1 0x20 ADD DUP3 DUP2 SUB DUP3 MSTORE PUSH1 0x2A DUP2 MSTORE PUSH1 0x20 ADD DUP1 PUSH2 0x428D PUSH1 0x2A SWAP2 CODECOPY PUSH1 0x40 ADD SWAP2 POP POP PUSH1 0x40 MLOAD DUP1 SWAP2 SUB SWAP1 REVERT JUMPDEST PUSH1 0x0 PUSH2 0x2162 PUSH1 0x64 PUSH2 0x110C PUSH32 0x0 PUSH1 0x5 PUSH2 0x372A JUMP JUMPDEST SWAP1 POP PUSH1 0x0 PUSH32 0x0 PUSH1 0x1 PUSH1 0x1 PUSH1 0xA0 SHL SUB AND PUSH4 0x771A3A1D PUSH1 0x40 MLOAD DUP2 PUSH4 0xFFFFFFFF AND PUSH1 0xE0 SHL DUP2 MSTORE PUSH1 0x4 ADD PUSH1 0x20 PUSH1 0x40 MLOAD DUP1 DUP4 SUB DUP2 DUP7 DUP1 EXTCODESIZE ISZERO DUP1 ISZERO PUSH2 0x21BF JUMPI PUSH1 0x0 DUP1 REVERT JUMPDEST POP GAS STATICCALL ISZERO DUP1 ISZERO PUSH2 0x21D3 JUMPI RETURNDATASIZE PUSH1 0x0 DUP1 RETURNDATACOPY RETURNDATASIZE PUSH1 0x0 REVERT JUMPDEST POP POP POP POP PUSH1 0x40 MLOAD RETURNDATASIZE PUSH1 0x20 DUP2 LT ISZERO PUSH2 0x21E9 JUMPI PUSH1 0x0 DUP1 REVERT JUMPDEST POP MLOAD SWAP1 POP PUSH1 0x0 PUSH1 0x1 PUSH1 0x1 PUSH1 0xA0 SHL SUB PUSH32 0x0 AND PUSH4 0xD1ECFC68 PUSH2 0x2226 PUSH2 0x36E8 JUMP JUMPDEST PUSH1 0x40 MLOAD DUP3 PUSH4 0xFFFFFFFF AND PUSH1 0xE0 SHL DUP2 MSTORE PUSH1 0x4 ADD DUP1 DUP3 PUSH1 0x1 PUSH1 0x1 PUSH1 0xA0 SHL SUB AND DUP2 MSTORE PUSH1 0x20 ADD SWAP2 POP POP PUSH1 0x20 PUSH1 0x40 MLOAD DUP1 DUP4 SUB DUP2 DUP7 DUP1 EXTCODESIZE ISZERO DUP1 ISZERO PUSH2 0x2263 JUMPI PUSH1 0x0 DUP1 REVERT JUMPDEST POP GAS STATICCALL ISZERO DUP1 ISZERO PUSH2 0x2277 JUMPI RETURNDATASIZE PUSH1 0x0 DUP1 RETURNDATACOPY RETURNDATASIZE PUSH1 0x0 REVERT JUMPDEST POP POP POP POP PUSH1 0x40 MLOAD RETURNDATASIZE PUSH1 0x20 DUP2 LT ISZERO PUSH2 0x228D JUMPI PUSH1 0x0 DUP1 REVERT JUMPDEST POP MLOAD PUSH2 0x22A2 JUMPI PUSH2 0x229D DUP6 DUP4 PUSH2 0x38B2 JUMP JUMPDEST PUSH2 0x22A5 JUMP JUMPDEST PUSH1 0x0 JUMPDEST SWAP1 POP PUSH2 0x22D1 PUSH32 0x0 DUP5 PUSH2 0x3687 JUMP JUMPDEST PUSH2 0x22EA DUP3 PUSH2 0x1A19 DUP9 PUSH1 0xB SLOAD PUSH2 0x3687 SWAP1 SWAP2 SWAP1 PUSH4 0xFFFFFFFF AND JUMP JUMPDEST GT ISZERO PUSH2 0x2327 JUMPI PUSH1 0x40 MLOAD PUSH3 0x461BCD PUSH1 0xE5 SHL DUP2 MSTORE PUSH1 0x4 ADD DUP1 DUP1 PUSH1 0x20 ADD DUP3 DUP2 SUB DUP3 MSTORE PUSH1 0x26 DUP2 MSTORE PUSH1 0x20 ADD DUP1 PUSH2 0x41D9 PUSH1 0x26 SWAP2 CODECOPY PUSH1 0x40 ADD SWAP2 POP POP PUSH1 0x40 MLOAD DUP1 SWAP2 SUB SWAP1 REVERT JUMPDEST PUSH1 0x0 PUSH2 0x2333 DUP7 DUP5 PUSH2 0x3CE2 JUMP JUMPDEST SWAP7 POP SWAP1 POP PUSH1 0x1 PUSH1 0x1 PUSH1 0xA0 SHL SUB PUSH32 0x0 AND PUSH4 0x23B872DD PUSH2 0x236E PUSH2 0x36E8 JUMP JUMPDEST PUSH1 0x40 DUP1 MLOAD PUSH1 0x1 PUSH1 0x1 PUSH1 0xE0 SHL SUB NOT PUSH1 0xE0 DUP6 SWAP1 SHL AND DUP2 MSTORE PUSH1 0x1 PUSH1 0x1 PUSH1 0xA0 SHL SUB SWAP1 SWAP3 AND PUSH1 0x4 DUP4 ADD MSTORE ADDRESS PUSH1 0x24 DUP4 ADD MSTORE DUP10 DUP6 ADD PUSH1 0x44 DUP4 ADD MSTORE MLOAD PUSH1 0x64 DUP1 DUP4 ADD SWAP3 PUSH1 0x20 SWAP3 SWAP2 SWAP1 DUP3 SWAP1 SUB ADD DUP2 PUSH1 0x0 DUP8 DUP1 EXTCODESIZE ISZERO DUP1 ISZERO PUSH2 0x23C3 JUMPI PUSH1 0x0 DUP1 REVERT JUMPDEST POP GAS CALL ISZERO DUP1 ISZERO PUSH2 0x23D7 JUMPI RETURNDATASIZE PUSH1 0x0 DUP1 RETURNDATACOPY RETURNDATASIZE PUSH1 0x0 REVERT JUMPDEST POP POP POP POP PUSH1 0x40 MLOAD RETURNDATASIZE PUSH1 0x20 DUP2 LT ISZERO PUSH2 0x23ED JUMPI PUSH1 0x0 DUP1 REVERT JUMPDEST POP PUSH2 0x23FA SWAP1 POP DUP7 DUP4 PUSH2 0x37EA JUMP JUMPDEST SWAP6 POP DUP1 ISZERO PUSH2 0x2531 JUMPI PUSH32 0x0 PUSH1 0x1 PUSH1 0x1 PUSH1 0xA0 SHL SUB AND PUSH4 0xA9059CBB PUSH32 0x0 PUSH1 0x1 PUSH1 0x1 PUSH1 0xA0 SHL SUB AND PUSH4 0x4A5DB0A9 PUSH1 0x40 MLOAD DUP2 PUSH4 0xFFFFFFFF AND PUSH1 0xE0 SHL DUP2 MSTORE PUSH1 0x4 ADD PUSH1 0x20 PUSH1 0x40 MLOAD DUP1 DUP4 SUB DUP2 DUP7 DUP1 EXTCODESIZE ISZERO DUP1 ISZERO PUSH2 0x248A JUMPI PUSH1 0x0 DUP1 REVERT JUMPDEST POP GAS STATICCALL ISZERO DUP1 ISZERO PUSH2 0x249E JUMPI RETURNDATASIZE PUSH1 0x0 DUP1 RETURNDATACOPY RETURNDATASIZE PUSH1 0x0 REVERT JUMPDEST POP POP POP POP PUSH1 0x40 MLOAD RETURNDATASIZE PUSH1 0x20 DUP2 LT ISZERO PUSH2 0x24B4 JUMPI PUSH1 0x0 DUP1 REVERT JUMPDEST POP MLOAD PUSH1 0x40 DUP1 MLOAD PUSH1 0x1 PUSH1 0x1 PUSH1 0xE0 SHL SUB NOT PUSH1 0xE0 DUP6 SWAP1 SHL AND DUP2 MSTORE PUSH1 0x1 PUSH1 0x1 PUSH1 0xA0 SHL SUB SWAP1 SWAP3 AND PUSH1 0x4 DUP4 ADD MSTORE PUSH1 0x24 DUP3 ADD DUP6 SWAP1 MSTORE MLOAD PUSH1 0x44 DUP1 DUP4 ADD SWAP3 PUSH1 0x20 SWAP3 SWAP2 SWAP1 DUP3 SWAP1 SUB ADD DUP2 PUSH1 0x0 DUP8 DUP1 EXTCODESIZE ISZERO DUP1 ISZERO PUSH2 0x2504 JUMPI PUSH1 0x0 DUP1 REVERT JUMPDEST POP GAS CALL ISZERO DUP1 ISZERO PUSH2 0x2518 JUMPI RETURNDATASIZE PUSH1 0x0 DUP1 RETURNDATACOPY RETURNDATASIZE PUSH1 0x0 REVERT JUMPDEST POP POP POP POP PUSH1 0x40 MLOAD RETURNDATASIZE PUSH1 0x20 DUP2 LT ISZERO PUSH2 0x252E JUMPI PUSH1 0x0 DUP1 REVERT JUMPDEST POP POP JUMPDEST PUSH1 0xB SLOAD PUSH2 0x253E SWAP1 DUP8 PUSH2 0x3687 JUMP JUMPDEST PUSH1 0xB DUP2 SWAP1 SSTORE POP PUSH1 0x9 PUSH1 0x40 MLOAD DUP1 PUSH1 0x40 ADD PUSH1 0x40 MSTORE DUP1 PUSH2 0x2559 PUSH2 0x36E8 JUMP JUMPDEST PUSH1 0x1 PUSH1 0x1 PUSH1 0xA0 SHL SUB AND DUP2 MSTORE PUSH1 0x20 ADD PUSH1 0x8 PUSH1 0x0 PUSH2 0x2573 PUSH2 0x36E8 JUMP JUMPDEST PUSH1 0x1 PUSH1 0x1 PUSH1 0xA0 SHL SUB SWAP1 DUP2 AND DUP3 MSTORE PUSH1 0x20 DUP1 DUP4 ADD SWAP4 SWAP1 SWAP4 MSTORE PUSH1 0x40 SWAP1 SWAP2 ADD PUSH1 0x0 SWAP1 DUP2 KECCAK256 SLOAD SWAP1 SWAP4 MSTORE DUP5 SLOAD PUSH1 0x1 DUP1 DUP3 ADD DUP8 SSTORE SWAP6 DUP5 MSTORE DUP3 DUP5 KECCAK256 DUP6 MLOAD PUSH1 0x2 SWAP1 SWAP3 MUL ADD DUP1 SLOAD PUSH1 0x1 PUSH1 0x1 PUSH1 0xA0 SHL SUB NOT AND SWAP2 SWAP1 SWAP3 AND OR DUP2 SSTORE SWAP3 ADD MLOAD SWAP2 SWAP1 SWAP3 ADD SSTORE PUSH1 0x8 SWAP1 PUSH2 0x25D4 PUSH2 0x36E8 JUMP JUMPDEST PUSH1 0x1 PUSH1 0x1 PUSH1 0xA0 SHL SUB AND DUP2 MSTORE PUSH1 0x20 DUP1 DUP3 ADD SWAP3 SWAP1 SWAP3 MSTORE PUSH1 0x40 SWAP1 DUP2 ADD PUSH1 0x0 SWAP1 DUP2 KECCAK256 DUP3 MLOAD PUSH2 0x120 DUP2 ADD DUP5 MSTORE DUP11 DUP2 MSTORE TIMESTAMP DUP2 DUP7 ADD DUP2 DUP2 MSTORE SWAP5 DUP3 ADD DUP5 DUP2 MSTORE PUSH1 0x60 DUP4 ADD SWAP2 DUP3 MSTORE PUSH1 0x80 DUP4 ADD DUP13 DUP2 MSTORE PUSH1 0x0 NOT PUSH1 0xA0 DUP6 ADD DUP2 DUP2 MSTORE PUSH1 0xC0 DUP7 ADD SWAP2 DUP3 MSTORE PUSH1 0xE0 DUP7 ADD DUP9 DUP2 MSTORE PUSH2 0x100 DUP1 DUP9 ADD DUP11 DUP2 MSTORE DUP10 SLOAD PUSH1 0x1 DUP1 DUP3 ADD DUP13 SSTORE SWAP11 DUP13 MSTORE SWAP13 SWAP1 SWAP11 KECCAK256 SWAP8 MLOAD PUSH1 0x8 SWAP1 SWAP13 MUL SWAP1 SWAP8 ADD SWAP11 DUP12 SSTORE SWAP9 MLOAD SWAP7 DUP11 ADD SWAP7 SWAP1 SWAP7 SSTORE SWAP2 MLOAD PUSH1 0x2 DUP10 ADD SSTORE SWAP2 MLOAD PUSH1 0x3 DUP9 ADD SSTORE SWAP1 MLOAD PUSH1 0x4 DUP8 ADD SSTORE SWAP2 MLOAD PUSH1 0x5 DUP7 ADD SSTORE SWAP1 MLOAD PUSH1 0x6 DUP6 ADD SSTORE SWAP2 MLOAD PUSH1 0x7 SWAP1 SWAP4 ADD DUP1 SLOAD SWAP2 MLOAD PUSH1 0xFF NOT SWAP3 SWAP1 SWAP3 AND SWAP4 ISZERO ISZERO SWAP4 SWAP1 SWAP4 OR PUSH2 0xFF00 NOT AND SWAP1 ISZERO ISZERO SWAP1 SWAP2 MUL OR SWAP1 SSTORE PUSH1 0xB SLOAD PUSH32 0x0 GT PUSH2 0x26DB JUMPI PUSH2 0x26DB PUSH2 0x36EC JUMP JUMPDEST PUSH2 0x26E3 PUSH2 0x36E8 JUMP JUMPDEST PUSH1 0x1 PUSH1 0x1 PUSH1 0xA0 SHL SUB AND PUSH32 0x5AF417134F72A9D41143ACE85B0A26DCE6F550F894F2CBC1EEEE8810603D91B6 DUP8 DUP8 PUSH1 0x40 MLOAD DUP1 DUP4 DUP2 MSTORE PUSH1 0x20 ADD DUP3 DUP2 MSTORE PUSH1 0x20 ADD SWAP3 POP POP POP PUSH1 0x40 MLOAD DUP1 SWAP2 SUB SWAP1 LOG2 POP POP POP POP POP POP JUMP JUMPDEST PUSH1 0xF SLOAD PUSH1 0x1 PUSH1 0xB8 SHL SWAP1 DIV PUSH1 0xFF AND DUP2 JUMP JUMPDEST PUSH1 0xB SLOAD DUP2 JUMP JUMPDEST PUSH1 0x8 PUSH1 0x20 MSTORE DUP2 PUSH1 0x0 MSTORE PUSH1 0x40 PUSH1 0x0 KECCAK256 DUP2 DUP2 SLOAD DUP2 LT PUSH2 0x2765 JUMPI PUSH1 0x0 DUP1 REVERT JUMPDEST PUSH1 0x0 SWAP2 DUP3 MSTORE PUSH1 0x20 SWAP1 SWAP2 KECCAK256 PUSH1 0x8 SWAP1 SWAP2 MUL ADD DUP1 SLOAD PUSH1 0x1 DUP3 ADD SLOAD PUSH1 0x2 DUP4 ADD SLOAD PUSH1 0x3 DUP5 ADD SLOAD PUSH1 0x4 DUP6 ADD SLOAD PUSH1 0x5 DUP7 ADD SLOAD PUSH1 0x6 DUP8 ADD SLOAD PUSH1 0x7 SWAP1 SWAP8 ADD SLOAD SWAP6 SWAP9 POP SWAP4 SWAP7 POP SWAP2 SWAP5 SWAP1 SWAP4 SWAP2 SWAP3 SWAP2 PUSH1 0xFF DUP1 DUP3 AND SWAP2 PUSH2 0x100 SWAP1 DIV AND DUP10 JUMP JUMPDEST PUSH1 0xF SLOAD PUSH1 0x1 PUSH1 0xA0 SHL SWAP1 DIV PUSH1 0xFF AND PUSH2 0x280D JUMPI PUSH1 0x40 DUP1 MLOAD PUSH3 0x461BCD PUSH1 0xE5 SHL DUP2 MSTORE PUSH1 0x20 PUSH1 0x4 DUP3 ADD MSTORE PUSH1 0x15 PUSH1 0x24 DUP3 ADD MSTORE PUSH21 0x69742773206E6F7420616E20656D657267656E6379 PUSH1 0x58 SHL PUSH1 0x44 DUP3 ADD MSTORE SWAP1 MLOAD SWAP1 DUP2 SWAP1 SUB PUSH1 0x64 ADD SWAP1 REVERT JUMPDEST PUSH1 0x0 PUSH2 0x281F PUSH2 0x281A PUSH2 0x36E8 JUMP JUMPDEST PUSH2 0xA7B JUMP JUMPDEST SWAP1 POP DUP1 ISZERO PUSH2 0x292B JUMPI PUSH32 0x0 PUSH1 0x1 PUSH1 0x1 PUSH1 0xA0 SHL SUB AND PUSH4 0xA9059CBB PUSH2 0x285E PUSH2 0x36E8 JUMP JUMPDEST DUP4 PUSH1 0x40 MLOAD DUP4 PUSH4 0xFFFFFFFF AND PUSH1 0xE0 SHL DUP2 MSTORE PUSH1 0x4 ADD DUP1 DUP4 PUSH1 0x1 PUSH1 0x1 PUSH1 0xA0 SHL SUB AND DUP2 MSTORE PUSH1 0x20 ADD DUP3 DUP2 MSTORE PUSH1 0x20 ADD SWAP3 POP POP POP PUSH1 0x20 PUSH1 0x40 MLOAD DUP1 DUP4 SUB DUP2 PUSH1 0x0 DUP8 DUP1 EXTCODESIZE ISZERO DUP1 ISZERO PUSH2 0x28A5 JUMPI PUSH1 0x0 DUP1 REVERT JUMPDEST POP GAS CALL ISZERO DUP1 ISZERO PUSH2 0x28B9 JUMPI RETURNDATASIZE PUSH1 0x0 DUP1 RETURNDATACOPY RETURNDATASIZE PUSH1 0x0 REVERT JUMPDEST POP POP POP POP PUSH1 0x40 MLOAD RETURNDATASIZE PUSH1 0x20 DUP2 LT ISZERO PUSH2 0x28CF JUMPI PUSH1 0x0 DUP1 REVERT JUMPDEST POP PUSH2 0x28E2 SWAP1 POP PUSH2 0x28DD PUSH2 0x36E8 JUMP JUMPDEST PUSH2 0x3D7E JUMP JUMPDEST PUSH2 0x28EA PUSH2 0x36E8 JUMP JUMPDEST PUSH1 0x1 PUSH1 0x1 PUSH1 0xA0 SHL SUB AND PUSH32 0x85082129D87B2FE11527CB1B3B7A520AEB5AA6913F88A3D8757FE40D1DB02FDD DUP3 PUSH1 0x40 MLOAD DUP1 DUP3 DUP2 MSTORE PUSH1 0x20 ADD SWAP2 POP POP PUSH1 0x40 MLOAD DUP1 SWAP2 SUB SWAP1 LOG2 JUMPDEST POP JUMP JUMPDEST PUSH1 0xE SLOAD PUSH1 0x1 PUSH1 0x1 PUSH1 0xA0 SHL SUB AND PUSH2 0x2942 PUSH2 0x36E8 JUMP JUMPDEST PUSH1 0x1 PUSH1 0x1 PUSH1 0xA0 SHL SUB AND EQ PUSH2 0x2987 JUMPI PUSH1 0x40 MLOAD PUSH3 0x461BCD PUSH1 0xE5 SHL DUP2 MSTORE PUSH1 0x4 ADD DUP1 DUP1 PUSH1 0x20 ADD DUP3 DUP2 SUB DUP3 MSTORE PUSH1 0x21 DUP2 MSTORE PUSH1 0x20 ADD DUP1 PUSH2 0x4220 PUSH1 0x21 SWAP2 CODECOPY PUSH1 0x40 ADD SWAP2 POP POP PUSH1 0x40 MLOAD DUP1 SWAP2 SUB SWAP1 REVERT JUMPDEST PUSH1 0xF DUP1 SLOAD PUSH1 0xFF PUSH1 0xC0 SHL NOT AND PUSH1 0x1 PUSH1 0xC0 SHL OR SWAP1 SSTORE PUSH1 0x40 MLOAD PUSH32 0x9331B2A38C658C57A39EA19B2709D928C28A12CC8FBB838D12B85148550F937D SWAP1 PUSH1 0x0 SWAP1 LOG1 JUMP JUMPDEST PUSH1 0x0 SLOAD PUSH1 0x1 PUSH1 0x1 PUSH1 0xA0 SHL SUB AND SWAP1 JUMP JUMPDEST PUSH1 0x0 DUP1 PUSH1 0x1 PUSH1 0x0 SWAP1 SLOAD SWAP1 PUSH2 0x100 EXP SWAP1 DIV PUSH1 0x1 PUSH1 0x1 PUSH1 0xA0 SHL SUB AND PUSH1 0x1 PUSH1 0x1 PUSH1 0xA0 SHL SUB AND PUSH4 0xFEAF968C PUSH1 0x40 MLOAD DUP2 PUSH4 0xFFFFFFFF AND PUSH1 0xE0 SHL DUP2 MSTORE PUSH1 0x4 ADD PUSH1 0xA0 PUSH1 0x40 MLOAD DUP1 DUP4 SUB DUP2 DUP7 DUP1 EXTCODESIZE ISZERO DUP1 ISZERO PUSH2 0x2A25 JUMPI PUSH1 0x0 DUP1 REVERT JUMPDEST POP GAS STATICCALL ISZERO DUP1 ISZERO PUSH2 0x2A39 JUMPI RETURNDATASIZE PUSH1 0x0 DUP1 RETURNDATACOPY RETURNDATASIZE PUSH1 0x0 REVERT JUMPDEST POP POP POP POP PUSH1 0x40 MLOAD RETURNDATASIZE PUSH1 0xA0 DUP2 LT ISZERO PUSH2 0x2A4F JUMPI PUSH1 0x0 DUP1 REVERT JUMPDEST POP PUSH1 0x20 ADD MLOAD SWAP1 POP PUSH1 0x0 DUP2 SLT ISZERO PUSH2 0x2A66 JUMPI PUSH1 0x0 PUSH2 0x2A68 JUMP JUMPDEST DUP1 JUMPDEST SWAP2 POP POP SWAP1 JUMP JUMPDEST PUSH1 0x5 DUP2 JUMP JUMPDEST PUSH32 0x0 DUP2 JUMP JUMPDEST PUSH1 0xF SLOAD PUSH1 0x1 PUSH1 0xA0 SHL SWAP1 DIV PUSH1 0xFF AND DUP2 JUMP JUMPDEST PUSH1 0xE SLOAD PUSH1 0x1 PUSH1 0x1 PUSH1 0xA0 SHL SUB AND PUSH2 0x2ABB PUSH2 0x36E8 JUMP JUMPDEST PUSH1 0x1 PUSH1 0x1 PUSH1 0xA0 SHL SUB AND EQ PUSH2 0x2B00 JUMPI PUSH1 0x40 MLOAD PUSH3 0x461BCD PUSH1 0xE5 SHL DUP2 MSTORE PUSH1 0x4 ADD DUP1 DUP1 PUSH1 0x20 ADD DUP3 DUP2 SUB DUP3 MSTORE PUSH1 0x21 DUP2 MSTORE PUSH1 0x20 ADD DUP1 PUSH2 0x4220 PUSH1 0x21 SWAP2 CODECOPY PUSH1 0x40 ADD SWAP2 POP POP PUSH1 0x40 MLOAD DUP1 SWAP2 SUB SWAP1 REVERT JUMPDEST PUSH1 0xF DUP1 SLOAD SWAP2 ISZERO ISZERO PUSH1 0x1 PUSH1 0xA8 SHL MUL PUSH1 0xFF PUSH1 0xA8 SHL NOT SWAP1 SWAP3 AND SWAP2 SWAP1 SWAP2 OR SWAP1 SSTORE JUMP JUMPDEST PUSH1 0x8 DUP2 JUMP JUMPDEST PUSH1 0x40 DUP1 MLOAD PUSH1 0x2 DUP1 DUP3 MSTORE PUSH1 0x60 DUP1 DUP4 ADD DUP5 MSTORE SWAP3 PUSH1 0x0 SWAP3 SWAP2 SWAP1 PUSH1 0x20 DUP4 ADD SWAP1 DUP1 CALLDATASIZE DUP4 CALLDATACOPY POP POP PUSH1 0x4 SLOAD DUP3 MLOAD SWAP3 SWAP4 POP PUSH1 0x1 PUSH1 0x1 PUSH1 0xA0 SHL SUB AND SWAP2 DUP4 SWAP2 POP PUSH1 0x0 SWAP1 PUSH2 0x2B62 JUMPI INVALID JUMPDEST PUSH1 0x1 PUSH1 0x1 PUSH1 0xA0 SHL SUB SWAP3 DUP4 AND PUSH1 0x20 SWAP2 DUP3 MUL SWAP3 SWAP1 SWAP3 ADD ADD MSTORE PUSH1 0x5 SLOAD DUP3 MLOAD SWAP2 AND SWAP1 DUP3 SWAP1 PUSH1 0x1 SWAP1 DUP2 LT PUSH2 0x2B8D JUMPI INVALID JUMPDEST PUSH1 0x1 PUSH1 0x1 PUSH1 0xA0 SHL SUB SWAP1 SWAP3 AND PUSH1 0x20 SWAP3 DUP4 MUL SWAP2 SWAP1 SWAP2 ADD SWAP1 SWAP2 ADD MSTORE SWAP1 POP SWAP1 JUMP JUMPDEST PUSH1 0xF SLOAD PUSH1 0x1 PUSH1 0xB0 SHL SWAP1 DIV PUSH1 0xFF AND DUP2 JUMP JUMPDEST PUSH1 0xE SLOAD PUSH1 0x1 PUSH1 0x1 PUSH1 0xA0 SHL SUB AND PUSH2 0x2BCE PUSH2 0x36E8 JUMP JUMPDEST PUSH1 0x1 PUSH1 0x1 PUSH1 0xA0 SHL SUB AND EQ PUSH2 0x2C13 JUMPI PUSH1 0x40 MLOAD PUSH3 0x461BCD PUSH1 0xE5 SHL DUP2 MSTORE PUSH1 0x4 ADD DUP1 DUP1 PUSH1 0x20 ADD DUP3 DUP2 SUB DUP3 MSTORE PUSH1 0x21 DUP2 MSTORE PUSH1 0x20 ADD DUP1 PUSH2 0x4220 PUSH1 0x21 SWAP2 CODECOPY PUSH1 0x40 ADD SWAP2 POP POP PUSH1 0x40 MLOAD DUP1 SWAP2 SUB SWAP1 REVERT JUMPDEST PUSH32 0x0 PUSH32 0x0 PUSH32 0x0 ADD ADD TIMESTAMP LT ISZERO PUSH2 0x2CB6 JUMPI PUSH1 0x40 MLOAD PUSH3 0x461BCD PUSH1 0xE5 SHL DUP2 MSTORE PUSH1 0x4 ADD DUP1 DUP1 PUSH1 0x20 ADD DUP3 DUP2 SUB DUP3 MSTORE PUSH1 0x36 DUP2 MSTORE PUSH1 0x20 ADD DUP1 PUSH2 0x42DE PUSH1 0x36 SWAP2 CODECOPY PUSH1 0x40 ADD SWAP2 POP POP PUSH1 0x40 MLOAD DUP1 SWAP2 SUB SWAP1 REVERT JUMPDEST PUSH1 0xF SLOAD PUSH1 0x1 PUSH1 0x1 PUSH1 0xA0 SHL SUB AND PUSH2 0x2CD0 JUMPI PUSH1 0xC DUP2 SWAP1 SSTORE PUSH2 0x292B JUMP JUMPDEST PUSH2 0x2CD8 PUSH2 0x29D4 JUMP JUMPDEST PUSH1 0xC SSTORE POP JUMP JUMPDEST PUSH32 0x0 DUP2 JUMP JUMPDEST PUSH1 0x7 DUP1 SLOAD PUSH1 0x40 DUP1 MLOAD PUSH1 0x20 PUSH1 0x2 PUSH1 0x1 DUP6 AND ISZERO PUSH2 0x100 MUL PUSH1 0x0 NOT ADD SWAP1 SWAP5 AND SWAP4 SWAP1 SWAP4 DIV PUSH1 0x1F DUP2 ADD DUP5 SWAP1 DIV DUP5 MUL DUP3 ADD DUP5 ADD SWAP1 SWAP3 MSTORE DUP2 DUP2 MSTORE SWAP3 SWAP2 DUP4 ADD DUP3 DUP3 DUP1 ISZERO PUSH2 0xC59 JUMPI DUP1 PUSH1 0x1F LT PUSH2 0xC2E JUMPI PUSH2 0x100 DUP1 DUP4 SLOAD DIV MUL DUP4 MSTORE SWAP2 PUSH1 0x20 ADD SWAP2 PUSH2 0xC59 JUMP JUMPDEST PUSH1 0x0 DUP1 PUSH2 0x2D70 PUSH2 0x2D6B PUSH2 0x36E8 JUMP JUMPDEST PUSH2 0x1148 JUMP JUMPDEST SWAP1 SWAP3 POP SWAP1 POP DUP2 ISZERO PUSH2 0x2ED1 JUMPI DUP2 PUSH32 0x0 PUSH1 0x1 PUSH1 0x1 PUSH1 0xA0 SHL SUB AND PUSH4 0x70A08231 PUSH32 0x0 PUSH1 0x40 MLOAD DUP3 PUSH4 0xFFFFFFFF AND PUSH1 0xE0 SHL DUP2 MSTORE PUSH1 0x4 ADD DUP1 DUP3 PUSH1 0x1 PUSH1 0x1 PUSH1 0xA0 SHL SUB AND DUP2 MSTORE PUSH1 0x20 ADD SWAP2 POP POP PUSH1 0x20 PUSH1 0x40 MLOAD DUP1 DUP4 SUB DUP2 DUP7 DUP1 EXTCODESIZE ISZERO DUP1 ISZERO PUSH2 0x2E09 JUMPI PUSH1 0x0 DUP1 REVERT JUMPDEST POP GAS STATICCALL ISZERO DUP1 ISZERO PUSH2 0x2E1D JUMPI RETURNDATASIZE PUSH1 0x0 DUP1 RETURNDATACOPY RETURNDATASIZE PUSH1 0x0 REVERT JUMPDEST POP POP POP POP PUSH1 0x40 MLOAD RETURNDATASIZE PUSH1 0x20 DUP2 LT ISZERO PUSH2 0x2E33 JUMPI PUSH1 0x0 DUP1 REVERT JUMPDEST POP MLOAD LT PUSH2 0x2ED1 JUMPI PUSH32 0x0 PUSH1 0x1 PUSH1 0x1 PUSH1 0xA0 SHL SUB AND PUSH4 0xE4E103DC PUSH2 0x2E71 PUSH2 0x36E8 JUMP JUMPDEST DUP5 PUSH1 0x40 MLOAD DUP4 PUSH4 0xFFFFFFFF AND PUSH1 0xE0 SHL DUP2 MSTORE PUSH1 0x4 ADD DUP1 DUP4 PUSH1 0x1 PUSH1 0x1 PUSH1 0xA0 SHL SUB AND DUP2 MSTORE PUSH1 0x20 ADD DUP3 DUP2 MSTORE PUSH1 0x20 ADD SWAP3 POP POP POP PUSH1 0x0 PUSH1 0x40 MLOAD DUP1 DUP4 SUB DUP2 PUSH1 0x0 DUP8 DUP1 EXTCODESIZE ISZERO DUP1 ISZERO PUSH2 0x2EB8 JUMPI PUSH1 0x0 DUP1 REVERT JUMPDEST POP GAS CALL ISZERO DUP1 ISZERO PUSH2 0x2ECC JUMPI RETURNDATASIZE PUSH1 0x0 DUP1 RETURNDATACOPY RETURNDATASIZE PUSH1 0x0 REVERT JUMPDEST POP POP POP POP JUMPDEST PUSH2 0x2EE1 PUSH2 0x2EDC PUSH2 0x36E8 JUMP JUMPDEST PUSH2 0x3DF2 JUMP JUMPDEST PUSH1 0xF SLOAD PUSH1 0x1 PUSH1 0xB8 SHL SWAP1 DIV PUSH1 0xFF AND ISZERO PUSH2 0x3129 JUMPI PUSH32 0x0 ISZERO PUSH2 0x3013 JUMPI DUP1 ISZERO PUSH2 0x3003 JUMPI PUSH32 0x0 PUSH1 0x1 PUSH1 0x1 PUSH1 0xA0 SHL SUB AND PUSH4 0xA9059CBB PUSH2 0x2F56 PUSH2 0x36E8 JUMP JUMPDEST DUP4 PUSH1 0x40 MLOAD DUP4 PUSH4 0xFFFFFFFF AND PUSH1 0xE0 SHL DUP2 MSTORE PUSH1 0x4 ADD DUP1 DUP4 PUSH1 0x1 PUSH1 0x1 PUSH1 0xA0 SHL SUB AND DUP2 MSTORE PUSH1 0x20 ADD DUP3 DUP2 MSTORE PUSH1 0x20 ADD SWAP3 POP POP POP PUSH1 0x20 PUSH1 0x40 MLOAD DUP1 DUP4 SUB DUP2 PUSH1 0x0 DUP8 DUP1 EXTCODESIZE ISZERO DUP1 ISZERO PUSH2 0x2F9D JUMPI PUSH1 0x0 DUP1 REVERT JUMPDEST POP GAS CALL ISZERO DUP1 ISZERO PUSH2 0x2FB1 JUMPI RETURNDATASIZE PUSH1 0x0 DUP1 RETURNDATACOPY RETURNDATASIZE PUSH1 0x0 REVERT JUMPDEST POP POP POP POP PUSH1 0x40 MLOAD RETURNDATASIZE PUSH1 0x20 DUP2 LT ISZERO PUSH2 0x2FC7 JUMPI PUSH1 0x0 DUP1 REVERT JUMPDEST POP MLOAD PUSH2 0x3003 JUMPI PUSH1 0x40 DUP1 MLOAD PUSH3 0x461BCD PUSH1 0xE5 SHL DUP2 MSTORE PUSH1 0x20 PUSH1 0x4 DUP1 DUP4 ADD SWAP2 SWAP1 SWAP2 MSTORE PUSH1 0x24 DUP3 ADD MSTORE PUSH4 0x3033323 PUSH1 0xE4 SHL PUSH1 0x44 DUP3 ADD MSTORE SWAP1 MLOAD SWAP1 DUP2 SWAP1 SUB PUSH1 0x64 ADD SWAP1 REVERT JUMPDEST PUSH2 0x3013 PUSH2 0x300E PUSH2 0x36E8 JUMP JUMPDEST PUSH2 0x3EAB JUMP JUMPDEST PUSH1 0x0 PUSH2 0x3020 PUSH2 0x281A PUSH2 0x36E8 JUMP JUMPDEST SWAP1 POP DUP1 ISZERO PUSH2 0x3127 JUMPI PUSH32 0x0 PUSH1 0x1 PUSH1 0x1 PUSH1 0xA0 SHL SUB AND PUSH4 0xA9059CBB PUSH2 0x305F PUSH2 0x36E8 JUMP JUMPDEST DUP4 PUSH1 0x40 MLOAD DUP4 PUSH4 0xFFFFFFFF AND PUSH1 0xE0 SHL DUP2 MSTORE PUSH1 0x4 ADD DUP1 DUP4 PUSH1 0x1 PUSH1 0x1 PUSH1 0xA0 SHL SUB AND DUP2 MSTORE PUSH1 0x20 ADD DUP3 DUP2 MSTORE PUSH1 0x20 ADD SWAP3 POP POP POP PUSH1 0x20 PUSH1 0x40 MLOAD DUP1 DUP4 SUB DUP2 PUSH1 0x0 DUP8 DUP1 EXTCODESIZE ISZERO DUP1 ISZERO PUSH2 0x30A6 JUMPI PUSH1 0x0 DUP1 REVERT JUMPDEST POP GAS CALL ISZERO DUP1 ISZERO PUSH2 0x30BA JUMPI RETURNDATASIZE PUSH1 0x0 DUP1 RETURNDATACOPY RETURNDATASIZE PUSH1 0x0 REVERT JUMPDEST POP POP POP POP PUSH1 0x40 MLOAD RETURNDATASIZE PUSH1 0x20 DUP2 LT ISZERO PUSH2 0x30D0 JUMPI PUSH1 0x0 DUP1 REVERT JUMPDEST POP PUSH2 0x30DE SWAP1 POP PUSH2 0x28DD PUSH2 0x36E8 JUMP JUMPDEST PUSH2 0x30E6 PUSH2 0x36E8 JUMP JUMPDEST PUSH1 0x1 PUSH1 0x1 PUSH1 0xA0 SHL SUB AND PUSH32 0x85082129D87B2FE11527CB1B3B7A520AEB5AA6913F88A3D8757FE40D1DB02FDD DUP3 PUSH1 0x40 MLOAD DUP1 DUP3 DUP2 MSTORE PUSH1 0x20 ADD SWAP2 POP POP PUSH1 0x40 MLOAD DUP1 SWAP2 SUB SWAP1 LOG2 JUMPDEST POP JUMPDEST PUSH2 0x3131 PUSH2 0x36E8 JUMP JUMPDEST PUSH1 0x1 PUSH1 0x1 PUSH1 0xA0 SHL SUB AND PUSH32 0xF279E6A1F5E320CCA91135676D9CB6E44CA8A08C0B88342BCDB1144F6511B568 DUP4 DUP4 PUSH1 0x40 MLOAD DUP1 DUP4 DUP2 MSTORE PUSH1 0x20 ADD DUP3 DUP2 MSTORE PUSH1 0x20 ADD SWAP3 POP POP POP PUSH1 0x40 MLOAD DUP1 SWAP2 SUB SWAP1 LOG2 POP POP JUMP JUMPDEST PUSH1 0xF SLOAD PUSH1 0x1 PUSH1 0x1 PUSH1 0xA0 SHL SUB AND DUP2 JUMP JUMPDEST PUSH1 0x0 PUSH1 0xB SLOAD PUSH1 0x0 EQ ISZERO PUSH2 0x31A1 JUMPI POP PUSH1 0x0 PUSH2 0xFA7 JUMP JUMPDEST PUSH1 0x0 DUP1 JUMPDEST PUSH1 0x9 SLOAD DUP2 LT ISZERO PUSH2 0x32B6 JUMPI PUSH1 0x0 PUSH1 0x8 PUSH1 0x0 PUSH1 0x9 DUP5 DUP2 SLOAD DUP2 LT PUSH2 0x31C2 JUMPI INVALID JUMPDEST PUSH1 0x0 SWAP2 DUP3 MSTORE PUSH1 0x20 DUP1 DUP4 KECCAK256 PUSH1 0x2 SWAP1 SWAP3 MUL SWAP1 SWAP2 ADD SLOAD PUSH1 0x1 PUSH1 0x1 PUSH1 0xA0 SHL SUB AND DUP4 MSTORE DUP3 ADD SWAP3 SWAP1 SWAP3 MSTORE PUSH1 0x40 ADD SWAP1 KECCAK256 PUSH1 0x9 DUP1 SLOAD DUP5 SWAP1 DUP2 LT PUSH2 0x31F9 JUMPI INVALID JUMPDEST SWAP1 PUSH1 0x0 MSTORE PUSH1 0x20 PUSH1 0x0 KECCAK256 SWAP1 PUSH1 0x2 MUL ADD PUSH1 0x1 ADD SLOAD DUP2 SLOAD DUP2 LT PUSH2 0x3215 JUMPI INVALID JUMPDEST PUSH1 0x0 SWAP2 DUP3 MSTORE PUSH1 0x20 SWAP2 DUP3 SWAP1 KECCAK256 PUSH1 0x40 DUP1 MLOAD PUSH2 0x120 DUP2 ADD DUP3 MSTORE PUSH1 0x8 SWAP1 SWAP4 MUL SWAP1 SWAP2 ADD DUP1 SLOAD DUP1 DUP5 MSTORE PUSH1 0x1 DUP3 ADD SLOAD SWAP5 DUP5 ADD SWAP5 SWAP1 SWAP5 MSTORE PUSH1 0x2 DUP2 ADD SLOAD SWAP2 DUP4 ADD SWAP2 SWAP1 SWAP2 MSTORE PUSH1 0x3 DUP2 ADD SLOAD PUSH1 0x60 DUP4 ADD MSTORE PUSH1 0x4 DUP2 ADD SLOAD PUSH1 0x80 DUP4 ADD DUP2 SWAP1 MSTORE PUSH1 0x5 DUP3 ADD SLOAD PUSH1 0xA0 DUP5 ADD MSTORE PUSH1 0x6 DUP3 ADD SLOAD PUSH1 0xC0 DUP5 ADD MSTORE PUSH1 0x7 SWAP1 SWAP2 ADD SLOAD PUSH1 0xFF DUP1 DUP3 AND ISZERO ISZERO PUSH1 0xE0 DUP6 ADD MSTORE PUSH2 0x100 SWAP2 DUP3 SWAP1 DIV AND ISZERO ISZERO SWAP1 DUP4 ADD MSTORE SWAP1 SWAP3 POP PUSH2 0x32AB SWAP2 PUSH2 0x134B SWAP2 SWAP1 PUSH2 0x372A JUMP JUMPDEST SWAP3 POP POP PUSH1 0x1 ADD PUSH2 0x31A5 JUMP JUMPDEST POP PUSH1 0xB SLOAD PUSH2 0x2A68 SWAP1 DUP3 SWAP1 PUSH2 0x3783 JUMP JUMPDEST PUSH1 0x2 SLOAD PUSH1 0x40 DUP1 MLOAD PUSH4 0x70A08231 PUSH1 0xE0 SHL DUP2 MSTORE ADDRESS PUSH1 0x4 DUP3 ADD MSTORE SWAP1 MLOAD PUSH1 0x0 SWAP3 PUSH1 0x1 PUSH1 0x1 PUSH1 0xA0 SHL SUB AND SWAP2 PUSH4 0x70A08231 SWAP2 PUSH1 0x24 DUP1 DUP4 ADD SWAP3 PUSH1 0x20 SWAP3 SWAP2 SWAP1 DUP3 SWAP1 SUB ADD DUP2 DUP7 DUP1 EXTCODESIZE ISZERO DUP1 ISZERO PUSH2 0x3310 JUMPI PUSH1 0x0 DUP1 REVERT JUMPDEST POP GAS STATICCALL ISZERO DUP1 ISZERO PUSH2 0x3324 JUMPI RETURNDATASIZE PUSH1 0x0 DUP1 RETURNDATACOPY RETURNDATASIZE PUSH1 0x0 REVERT JUMPDEST POP POP POP POP PUSH1 0x40 MLOAD RETURNDATASIZE PUSH1 0x20 DUP2 LT ISZERO PUSH2 0x333A JUMPI PUSH1 0x0 DUP1 REVERT JUMPDEST POP MLOAD SWAP1 POP SWAP1 JUMP JUMPDEST PUSH1 0xE SLOAD PUSH1 0x1 PUSH1 0x1 PUSH1 0xA0 SHL SUB AND DUP2 JUMP JUMPDEST PUSH1 0xC SLOAD DUP2 JUMP JUMPDEST PUSH1 0xF SLOAD PUSH1 0x1 PUSH1 0xC0 SHL SWAP1 DIV PUSH1 0xFF AND DUP2 JUMP JUMPDEST PUSH1 0xA DUP2 DUP2 SLOAD DUP2 LT PUSH2 0x3376 JUMPI PUSH1 0x0 DUP1 REVERT JUMPDEST PUSH1 0x0 SWAP2 DUP3 MSTORE PUSH1 0x20 SWAP1 SWAP2 KECCAK256 PUSH1 0x2 SWAP1 SWAP2 MUL ADD DUP1 SLOAD PUSH1 0x1 SWAP1 SWAP2 ADD SLOAD PUSH1 0x1 PUSH1 0x1 PUSH1 0xA0 SHL SUB SWAP1 SWAP2 AND SWAP2 POP DUP3 JUMP JUMPDEST PUSH32 0x0 DUP2 JUMP JUMPDEST PUSH32 0x0 DUP2 JUMP JUMPDEST PUSH32 0x0 DUP2 JUMP JUMPDEST PUSH1 0x0 DUP1 PUSH1 0x1 PUSH1 0x0 SWAP1 SLOAD SWAP1 PUSH2 0x100 EXP SWAP1 DIV PUSH1 0x1 PUSH1 0x1 PUSH1 0xA0 SHL SUB AND PUSH1 0x1 PUSH1 0x1 PUSH1 0xA0 SHL SUB AND PUSH4 0x313CE567 PUSH1 0x40 MLOAD DUP2 PUSH4 0xFFFFFFFF AND PUSH1 0xE0 SHL DUP2 MSTORE PUSH1 0x4 ADD PUSH1 0x20 PUSH1 0x40 MLOAD DUP1 DUP4 SUB DUP2 DUP7 DUP1 EXTCODESIZE ISZERO DUP1 ISZERO PUSH2 0x345B JUMPI PUSH1 0x0 DUP1 REVERT JUMPDEST POP GAS STATICCALL ISZERO DUP1 ISZERO PUSH2 0x346F JUMPI RETURNDATASIZE PUSH1 0x0 DUP1 RETURNDATACOPY RETURNDATASIZE PUSH1 0x0 REVERT JUMPDEST POP POP POP POP PUSH1 0x40 MLOAD RETURNDATASIZE PUSH1 0x20 DUP2 LT ISZERO PUSH2 0x3485 JUMPI PUSH1 0x0 DUP1 REVERT JUMPDEST POP MLOAD SWAP2 POP POP SWAP1 JUMP JUMPDEST PUSH1 0x10 DUP2 DUP2 SLOAD DUP2 LT PUSH2 0x349D JUMPI PUSH1 0x0 DUP1 REVERT JUMPDEST PUSH1 0x0 SWAP2 DUP3 MSTORE PUSH1 0x20 SWAP1 SWAP2 KECCAK256 PUSH1 0x2 SWAP1 SWAP2 MUL ADD DUP1 SLOAD PUSH1 0x1 SWAP1 SWAP2 ADD SLOAD SWAP1 SWAP2 POP DUP3 JUMP JUMPDEST PUSH2 0x34C3 PUSH2 0x36E8 JUMP JUMPDEST PUSH1 0x1 PUSH1 0x1 PUSH1 0xA0 SHL SUB AND PUSH2 0x34D4 PUSH2 0x29C5 JUMP JUMPDEST PUSH1 0x1 PUSH1 0x1 PUSH1 0xA0 SHL SUB AND EQ PUSH2 0x352F JUMPI PUSH1 0x40 DUP1 MLOAD PUSH3 0x461BCD PUSH1 0xE5 SHL DUP2 MSTORE PUSH1 0x20 PUSH1 0x4 DUP3 ADD DUP2 SWAP1 MSTORE PUSH1 0x24 DUP3 ADD MSTORE PUSH32 0x4F776E61626C653A2063616C6C6572206973206E6F7420746865206F776E6572 PUSH1 0x44 DUP3 ADD MSTORE SWAP1 MLOAD SWAP1 DUP2 SWAP1 SUB PUSH1 0x64 ADD SWAP1 REVERT JUMPDEST PUSH1 0x1 PUSH1 0x1 PUSH1 0xA0 SHL SUB DUP2 AND PUSH2 0x3574 JUMPI PUSH1 0x40 MLOAD PUSH3 0x461BCD PUSH1 0xE5 SHL DUP2 MSTORE PUSH1 0x4 ADD DUP1 DUP1 PUSH1 0x20 ADD DUP3 DUP2 SUB DUP3 MSTORE PUSH1 0x26 DUP2 MSTORE PUSH1 0x20 ADD DUP1 PUSH2 0x4187 PUSH1 0x26 SWAP2 CODECOPY PUSH1 0x40 ADD SWAP2 POP POP PUSH1 0x40 MLOAD DUP1 SWAP2 SUB SWAP1 REVERT JUMPDEST PUSH1 0x0 DUP1 SLOAD PUSH1 0x40 MLOAD PUSH1 0x1 PUSH1 0x1 PUSH1 0xA0 SHL SUB DUP1 DUP6 AND SWAP4 SWAP3 AND SWAP2 PUSH32 0x8BE0079C531659141344CD1FD0A4F28419497F9722A3DAAFE3B4186F6B6457E0 SWAP2 LOG3 PUSH1 0x0 DUP1 SLOAD PUSH1 0x1 PUSH1 0x1 PUSH1 0xA0 SHL SUB NOT AND PUSH1 0x1 PUSH1 0x1 PUSH1 0xA0 SHL SUB SWAP3 SWAP1 SWAP3 AND SWAP2 SWAP1 SWAP2 OR SWAP1 SSTORE JUMP JUMPDEST PUSH1 0xD SLOAD DUP2 JUMP JUMPDEST PUSH1 0x2 SLOAD PUSH1 0x1 PUSH1 0x1 PUSH1 0xA0 SHL SUB AND SWAP1 JUMP JUMPDEST PUSH1 0x0 PUSH32 0x0 PUSH1 0x1 PUSH1 0x1 PUSH1 0xA0 SHL SUB AND PUSH4 0x70A08231 ADDRESS PUSH1 0x40 MLOAD DUP3 PUSH4 0xFFFFFFFF AND PUSH1 0xE0 SHL DUP2 MSTORE PUSH1 0x4 ADD DUP1 DUP3 PUSH1 0x1 PUSH1 0x1 PUSH1 0xA0 SHL SUB AND DUP2 MSTORE PUSH1 0x20 ADD SWAP2 POP POP PUSH1 0x20 PUSH1 0x40 MLOAD DUP1 DUP4 SUB DUP2 DUP7 DUP1 EXTCODESIZE ISZERO DUP1 ISZERO PUSH2 0x3310 JUMPI PUSH1 0x0 DUP1 REVERT JUMPDEST PUSH32 0x0 DUP2 JUMP JUMPDEST PUSH1 0x9 DUP2 DUP2 SLOAD DUP2 LT PUSH2 0x3376 JUMPI PUSH1 0x0 DUP1 REVERT JUMPDEST PUSH1 0x0 DUP3 DUP3 ADD DUP4 DUP2 LT ISZERO PUSH2 0x36E1 JUMPI PUSH1 0x40 DUP1 MLOAD PUSH3 0x461BCD PUSH1 0xE5 SHL DUP2 MSTORE PUSH1 0x20 PUSH1 0x4 DUP3 ADD MSTORE PUSH1 0x1B PUSH1 0x24 DUP3 ADD MSTORE PUSH32 0x536166654D6174683A206164646974696F6E206F766572666C6F770000000000 PUSH1 0x44 DUP3 ADD MSTORE SWAP1 MLOAD SWAP1 DUP2 SWAP1 SUB PUSH1 0x64 ADD SWAP1 REVERT JUMPDEST SWAP4 SWAP3 POP POP POP JUMP JUMPDEST CALLER SWAP1 JUMP JUMPDEST PUSH1 0xF DUP1 SLOAD PUSH1 0xFF PUSH1 0xB0 SHL NOT AND PUSH1 0x1 PUSH1 0xB0 SHL OR SWAP1 SSTORE PUSH1 0x40 MLOAD PUSH32 0x2E136745550967F28B779CE8C395CA060A2F844EDFB5B06631FE677F66F9E305 SWAP1 PUSH1 0x0 SWAP1 LOG1 JUMP JUMPDEST PUSH1 0x0 DUP3 PUSH2 0x3739 JUMPI POP PUSH1 0x0 PUSH2 0x19B8 JUMP JUMPDEST DUP3 DUP3 MUL DUP3 DUP5 DUP3 DUP2 PUSH2 0x3746 JUMPI INVALID JUMPDEST DIV EQ PUSH2 0x36E1 JUMPI PUSH1 0x40 MLOAD PUSH3 0x461BCD PUSH1 0xE5 SHL DUP2 MSTORE PUSH1 0x4 ADD DUP1 DUP1 PUSH1 0x20 ADD DUP3 DUP2 SUB DUP3 MSTORE PUSH1 0x21 DUP2 MSTORE PUSH1 0x20 ADD DUP1 PUSH2 0x4241 PUSH1 0x21 SWAP2 CODECOPY PUSH1 0x40 ADD SWAP2 POP POP PUSH1 0x40 MLOAD DUP1 SWAP2 SUB SWAP1 REVERT JUMPDEST PUSH1 0x0 DUP1 DUP3 GT PUSH2 0x37D9 JUMPI PUSH1 0x40 DUP1 MLOAD PUSH3 0x461BCD PUSH1 0xE5 SHL DUP2 MSTORE PUSH1 0x20 PUSH1 0x4 DUP3 ADD MSTORE PUSH1 0x1A PUSH1 0x24 DUP3 ADD MSTORE PUSH32 0x536166654D6174683A206469766973696F6E206279207A65726F000000000000 PUSH1 0x44 DUP3 ADD MSTORE SWAP1 MLOAD SWAP1 DUP2 SWAP1 SUB PUSH1 0x64 ADD SWAP1 REVERT JUMPDEST DUP2 DUP4 DUP2 PUSH2 0x37E2 JUMPI INVALID JUMPDEST DIV SWAP4 SWAP3 POP POP POP JUMP JUMPDEST PUSH1 0x0 DUP3 DUP3 GT ISZERO PUSH2 0x3841 JUMPI PUSH1 0x40 DUP1 MLOAD PUSH3 0x461BCD PUSH1 0xE5 SHL DUP2 MSTORE PUSH1 0x20 PUSH1 0x4 DUP3 ADD MSTORE PUSH1 0x1E PUSH1 0x24 DUP3 ADD MSTORE PUSH32 0x536166654D6174683A207375627472616374696F6E206F766572666C6F770000 PUSH1 0x44 DUP3 ADD MSTORE SWAP1 MLOAD SWAP1 DUP2 SWAP1 SUB PUSH1 0x64 ADD SWAP1 REVERT JUMPDEST POP SWAP1 SUB SWAP1 JUMP JUMPDEST PUSH1 0x0 DUP1 JUMPDEST PUSH1 0x10 SLOAD DUP2 LT ISZERO PUSH2 0x38A9 JUMPI PUSH1 0x10 DUP2 DUP2 SLOAD DUP2 LT PUSH2 0x3862 JUMPI INVALID JUMPDEST SWAP1 PUSH1 0x0 MSTORE PUSH1 0x20 PUSH1 0x0 KECCAK256 SWAP1 PUSH1 0x2 MUL ADD PUSH1 0x0 ADD SLOAD DUP4 GT PUSH2 0x38A1 JUMPI PUSH1 0x10 DUP2 DUP2 SLOAD DUP2 LT PUSH2 0x3887 JUMPI INVALID JUMPDEST SWAP1 PUSH1 0x0 MSTORE PUSH1 0x20 PUSH1 0x0 KECCAK256 SWAP1 PUSH1 0x2 MUL ADD PUSH1 0x1 ADD SLOAD SWAP2 POP POP PUSH2 0xBBE JUMP JUMPDEST PUSH1 0x1 ADD PUSH2 0x384B JUMP JUMPDEST POP PUSH1 0x0 SWAP3 SWAP2 POP POP JUMP JUMPDEST PUSH1 0x0 PUSH2 0x36E1 PUSH2 0x2710 PUSH2 0x110C DUP6 DUP6 PUSH2 0x372A JUMP JUMPDEST PUSH1 0x0 DUP3 PUSH2 0x38D3 JUMPI POP PUSH1 0x0 PUSH2 0x19B8 JUMP JUMPDEST DUP2 PUSH2 0x38DF JUMPI POP DUP2 PUSH2 0x19B8 JUMP JUMPDEST PUSH2 0x36E1 PUSH2 0x134B DUP5 DUP5 PUSH2 0x38B2 JUMP JUMPDEST PUSH1 0x2 SLOAD PUSH1 0x40 DUP1 MLOAD PUSH4 0x95EA7B3 PUSH1 0xE0 SHL DUP2 MSTORE PUSH1 0x1 PUSH1 0x1 PUSH1 0xA0 SHL SUB DUP6 DUP2 AND PUSH1 0x4 DUP4 ADD MSTORE PUSH1 0x24 DUP3 ADD DUP6 SWAP1 MSTORE SWAP2 MLOAD SWAP2 SWAP1 SWAP3 AND SWAP2 PUSH4 0x95EA7B3 SWAP2 PUSH1 0x44 DUP1 DUP4 ADD SWAP3 PUSH1 0x20 SWAP3 SWAP2 SWAP1 DUP3 SWAP1 SUB ADD DUP2 PUSH1 0x0 DUP8 DUP1 EXTCODESIZE ISZERO DUP1 ISZERO PUSH2 0x3942 JUMPI PUSH1 0x0 DUP1 REVERT JUMPDEST POP GAS CALL ISZERO DUP1 ISZERO PUSH2 0x3956 JUMPI RETURNDATASIZE PUSH1 0x0 DUP1 RETURNDATACOPY RETURNDATASIZE PUSH1 0x0 REVERT JUMPDEST POP POP POP POP PUSH1 0x40 MLOAD RETURNDATASIZE PUSH1 0x20 DUP2 LT ISZERO PUSH2 0x396C JUMPI PUSH1 0x0 DUP1 REVERT JUMPDEST POP POP PUSH1 0x40 DUP1 MLOAD DUP3 DUP2 MSTORE SWAP1 MLOAD PUSH1 0x1 PUSH1 0x1 PUSH1 0xA0 SHL SUB DUP5 AND SWAP2 PUSH32 0xD77DF63D9076D067D9FD7AF16C3D67DB48B84064C3314F5900AE919922D364A1 SWAP2 SWAP1 DUP2 SWAP1 SUB PUSH1 0x20 ADD SWAP1 LOG2 POP POP JUMP JUMPDEST PUSH1 0x1 PUSH1 0x1 PUSH1 0xA0 SHL SUB DUP5 AND PUSH2 0x39C4 JUMPI PUSH1 0x0 DUP1 REVERT JUMPDEST PUSH1 0x3 SLOAD PUSH1 0x1 PUSH1 0x1 PUSH1 0xA0 SHL SUB AND PUSH4 0x38ED1739 DUP5 DUP5 PUSH2 0x39DF PUSH2 0x2B23 JUMP JUMPDEST DUP9 DUP7 PUSH1 0x40 MLOAD DUP7 PUSH4 0xFFFFFFFF AND PUSH1 0xE0 SHL DUP2 MSTORE PUSH1 0x4 ADD DUP1 DUP7 DUP2 MSTORE PUSH1 0x20 ADD DUP6 DUP2 MSTORE PUSH1 0x20 ADD DUP1 PUSH1 0x20 ADD DUP5 PUSH1 0x1 PUSH1 0x1 PUSH1 0xA0 SHL SUB AND DUP2 MSTORE PUSH1 0x20 ADD DUP4 DUP2 MSTORE PUSH1 0x20 ADD DUP3 DUP2 SUB DUP3 MSTORE DUP6 DUP2 DUP2 MLOAD DUP2 MSTORE PUSH1 0x20 ADD SWAP2 POP DUP1 MLOAD SWAP1 PUSH1 0x20 ADD SWAP1 PUSH1 0x20 MUL DUP1 DUP4 DUP4 PUSH1 0x0 JUMPDEST DUP4 DUP2 LT ISZERO PUSH2 0x3A51 JUMPI DUP2 DUP2 ADD MLOAD DUP4 DUP3 ADD MSTORE PUSH1 0x20 ADD PUSH2 0x3A39 JUMP JUMPDEST POP POP POP POP SWAP1 POP ADD SWAP7 POP POP POP POP POP POP POP PUSH1 0x0 PUSH1 0x40 MLOAD DUP1 DUP4 SUB DUP2 PUSH1 0x0 DUP8 DUP1 EXTCODESIZE ISZERO DUP1 ISZERO PUSH2 0x3A7A JUMPI PUSH1 0x0 DUP1 REVERT JUMPDEST POP GAS CALL ISZERO DUP1 ISZERO PUSH2 0x3A8E JUMPI RETURNDATASIZE PUSH1 0x0 DUP1 RETURNDATACOPY RETURNDATASIZE PUSH1 0x0 REVERT JUMPDEST POP POP POP POP PUSH1 0x40 MLOAD RETURNDATASIZE PUSH1 0x0 DUP3 RETURNDATACOPY PUSH1 0x1F RETURNDATASIZE SWAP1 DUP2 ADD PUSH1 0x1F NOT AND DUP3 ADD PUSH1 0x40 MSTORE PUSH1 0x20 DUP2 LT ISZERO PUSH2 0x3AB7 JUMPI PUSH1 0x0 DUP1 REVERT JUMPDEST DUP2 ADD SWAP1 DUP1 DUP1 MLOAD PUSH1 0x40 MLOAD SWAP4 SWAP3 SWAP2 SWAP1 DUP5 PUSH5 0x100000000 DUP3 GT ISZERO PUSH2 0x3AD7 JUMPI PUSH1 0x0 DUP1 REVERT JUMPDEST SWAP1 DUP4 ADD SWAP1 PUSH1 0x20 DUP3 ADD DUP6 DUP2 GT ISZERO PUSH2 0x3AEC JUMPI PUSH1 0x0 DUP1 REVERT JUMPDEST DUP3 MLOAD DUP7 PUSH1 0x20 DUP3 MUL DUP4 ADD GT PUSH5 0x100000000 DUP3 GT OR ISZERO PUSH2 0x3B09 JUMPI PUSH1 0x0 DUP1 REVERT JUMPDEST DUP3 MSTORE POP DUP2 MLOAD PUSH1 0x20 SWAP2 DUP3 ADD SWAP3 DUP3 ADD SWAP2 MUL DUP1 DUP4 DUP4 PUSH1 0x0 JUMPDEST DUP4 DUP2 LT ISZERO PUSH2 0x3B36 JUMPI DUP2 DUP2 ADD MLOAD DUP4 DUP3 ADD MSTORE PUSH1 0x20 ADD PUSH2 0x3B1E JUMP JUMPDEST POP POP POP POP SWAP1 POP ADD PUSH1 0x40 MSTORE POP POP POP POP POP POP POP POP JUMP JUMPDEST PUSH1 0x1 PUSH1 0x1 PUSH1 0xA0 SHL SUB DUP3 AND PUSH1 0x0 SWAP1 DUP2 MSTORE PUSH1 0x8 PUSH1 0x20 MSTORE PUSH1 0x40 DUP2 KECCAK256 DUP1 SLOAD DUP3 SWAP2 SWAP1 DUP5 SWAP1 DUP2 LT PUSH2 0x3B71 JUMPI INVALID JUMPDEST PUSH1 0x0 SWAP2 DUP3 MSTORE PUSH1 0x20 DUP1 DUP4 KECCAK256 PUSH1 0x40 DUP1 MLOAD PUSH2 0x120 DUP2 ADD DUP3 MSTORE PUSH1 0x8 SWAP1 SWAP5 MUL SWAP1 SWAP2 ADD DUP1 SLOAD DUP5 MSTORE PUSH1 0x1 DUP2 ADD SLOAD SWAP3 DUP5 ADD SWAP3 SWAP1 SWAP3 MSTORE PUSH1 0x2 DUP3 ADD SLOAD SWAP1 DUP4 ADD MSTORE PUSH1 0x3 DUP2 ADD SLOAD PUSH1 0x60 DUP4 ADD MSTORE PUSH1 0x4 DUP2 ADD SLOAD PUSH1 0x80 DUP4 ADD MSTORE PUSH1 0x5 DUP2 ADD SLOAD PUSH1 0xA0 DUP4 ADD MSTORE PUSH1 0x6 DUP2 ADD SLOAD PUSH1 0xC0 DUP4 ADD MSTORE PUSH1 0x7 ADD SLOAD PUSH1 0xFF DUP1 DUP3 AND ISZERO ISZERO PUSH1 0xE0 DUP5 ADD MSTORE PUSH2 0x100 SWAP2 DUP3 SWAP1 DIV AND ISZERO ISZERO SWAP1 DUP3 ADD MSTORE SWAP2 POP PUSH32 0x0 PUSH32 0x0 ADD PUSH32 0x0 ADD SWAP1 TIMESTAMP DUP3 LT PUSH2 0x3C62 JUMPI TIMESTAMP PUSH2 0x3C64 JUMP JUMPDEST DUP2 JUMPDEST SWAP1 POP PUSH1 0x0 PUSH2 0x3C75 DUP5 PUSH1 0x20 ADD MLOAD PUSH2 0x3F13 JUMP JUMPDEST SWAP1 POP PUSH1 0x0 PUSH2 0x3CBD PUSH2 0x3CA6 PUSH32 0x0 DUP5 PUSH2 0x3687 JUMP JUMPDEST PUSH1 0x20 DUP8 ADD MLOAD PUSH2 0x3CB6 SWAP1 DUP7 SWAP1 PUSH2 0x37EA JUMP JUMPDEST DUP8 MLOAD PUSH2 0x401A JUMP JUMPDEST SWAP1 POP PUSH2 0x3CD6 DUP6 PUSH1 0x40 ADD MLOAD DUP3 PUSH2 0x37EA SWAP1 SWAP2 SWAP1 PUSH4 0xFFFFFFFF AND JUMP JUMPDEST SWAP9 SWAP8 POP POP POP POP POP POP POP POP JUMP JUMPDEST PUSH1 0x0 DUP1 PUSH1 0x0 DUP4 PUSH32 0x0 GT PUSH2 0x3D15 JUMPI PUSH1 0x0 PUSH2 0x3D3F JUMP JUMPDEST PUSH2 0x3D3F PUSH32 0x0 DUP6 PUSH2 0x37EA JUMP JUMPDEST SWAP1 POP DUP1 PUSH2 0x3D53 JUMPI PUSH1 0x0 DUP6 SWAP3 POP SWAP3 POP POP PUSH2 0x3D77 JUMP JUMPDEST PUSH2 0x3D5D DUP6 DUP3 PUSH2 0x38B2 JUMP JUMPDEST PUSH2 0x3D71 PUSH2 0x3D6A DUP8 DUP5 PUSH2 0x38B2 JUMP JUMPDEST DUP8 SWAP1 PUSH2 0x37EA JUMP JUMPDEST SWAP3 POP SWAP3 POP POP JUMPDEST SWAP3 POP SWAP3 SWAP1 POP JUMP JUMPDEST PUSH1 0x1 PUSH1 0x1 PUSH1 0xA0 SHL SUB DUP2 AND PUSH1 0x0 SWAP1 DUP2 MSTORE PUSH1 0x8 PUSH1 0x20 MSTORE PUSH1 0x40 SWAP1 KECCAK256 DUP1 SLOAD PUSH2 0x3DA2 JUMPI POP PUSH2 0x292B JUMP JUMPDEST PUSH1 0x0 JUMPDEST DUP2 SLOAD DUP2 LT ISZERO PUSH2 0x3DED JUMPI PUSH1 0x1 DUP3 DUP3 DUP2 SLOAD DUP2 LT PUSH2 0x3DBC JUMPI INVALID JUMPDEST PUSH1 0x0 SWAP2 DUP3 MSTORE PUSH1 0x20 SWAP1 SWAP2 KECCAK256 PUSH1 0x7 PUSH1 0x8 SWAP1 SWAP3 MUL ADD ADD DUP1 SLOAD SWAP2 ISZERO ISZERO PUSH2 0x100 MUL PUSH2 0xFF00 NOT SWAP1 SWAP3 AND SWAP2 SWAP1 SWAP2 OR SWAP1 SSTORE PUSH1 0x1 ADD PUSH2 0x3DA5 JUMP JUMPDEST POP POP POP JUMP JUMPDEST PUSH1 0x1 PUSH1 0x1 PUSH1 0xA0 SHL SUB DUP2 AND PUSH1 0x0 SWAP1 DUP2 MSTORE PUSH1 0x8 PUSH1 0x20 MSTORE PUSH1 0x40 SWAP1 KECCAK256 DUP1 SLOAD PUSH2 0x3E16 JUMPI POP PUSH2 0x292B JUMP JUMPDEST PUSH1 0x0 JUMPDEST DUP2 SLOAD DUP2 LT ISZERO PUSH2 0x3DED JUMPI PUSH1 0x0 PUSH2 0x3E2E DUP5 DUP4 PUSH2 0x3B4A JUMP JUMPDEST SWAP1 POP TIMESTAMP DUP4 DUP4 DUP2 SLOAD DUP2 LT PUSH2 0x3E3D JUMPI INVALID JUMPDEST SWAP1 PUSH1 0x0 MSTORE PUSH1 0x20 PUSH1 0x0 KECCAK256 SWAP1 PUSH1 0x8 MUL ADD PUSH1 0x3 ADD DUP2 SWAP1 SSTORE POP PUSH2 0x3E82 DUP2 DUP5 DUP5 DUP2 SLOAD DUP2 LT PUSH2 0x3E62 JUMPI INVALID JUMPDEST SWAP1 PUSH1 0x0 MSTORE PUSH1 0x20 PUSH1 0x0 KECCAK256 SWAP1 PUSH1 0x8 MUL ADD PUSH1 0x2 ADD SLOAD PUSH2 0x3687 SWAP1 SWAP2 SWAP1 PUSH4 0xFFFFFFFF AND JUMP JUMPDEST DUP4 DUP4 DUP2 SLOAD DUP2 LT PUSH2 0x3E8E JUMPI INVALID JUMPDEST PUSH1 0x0 SWAP2 DUP3 MSTORE PUSH1 0x20 SWAP1 SWAP2 KECCAK256 PUSH1 0x2 PUSH1 0x8 SWAP1 SWAP3 MUL ADD ADD SSTORE POP PUSH1 0x1 ADD PUSH2 0x3E19 JUMP JUMPDEST PUSH1 0x1 PUSH1 0x1 PUSH1 0xA0 SHL SUB DUP2 AND PUSH1 0x0 SWAP1 DUP2 MSTORE PUSH1 0x8 PUSH1 0x20 MSTORE PUSH1 0x40 SWAP1 KECCAK256 DUP1 SLOAD PUSH2 0x3ECF JUMPI POP PUSH2 0x292B JUMP JUMPDEST PUSH1 0x0 JUMPDEST DUP2 SLOAD DUP2 LT ISZERO PUSH2 0x3DED JUMPI PUSH1 0x1 DUP3 DUP3 DUP2 SLOAD DUP2 LT PUSH2 0x3EE9 JUMPI INVALID JUMPDEST PUSH1 0x0 SWAP2 DUP3 MSTORE PUSH1 0x20 SWAP1 SWAP2 KECCAK256 PUSH1 0x8 SWAP1 SWAP2 MUL ADD PUSH1 0x7 ADD DUP1 SLOAD PUSH1 0xFF NOT AND SWAP2 ISZERO ISZERO SWAP2 SWAP1 SWAP2 OR SWAP1 SSTORE PUSH1 0x1 ADD PUSH2 0x3ED2 JUMP JUMPDEST PUSH1 0x0 PUSH32 0x0 PUSH2 0x3F42 JUMPI POP PUSH1 0x0 PUSH2 0xBBE JUMP JUMPDEST PUSH1 0x0 PUSH2 0x3F8E PUSH32 0x0 PUSH32 0x0 PUSH2 0x3687 JUMP JUMPDEST SWAP1 POP PUSH1 0x0 PUSH2 0x3F9C DUP3 DUP6 PUSH2 0x37EA JUMP JUMPDEST SWAP1 POP PUSH3 0x2A300 DUP2 LT ISZERO PUSH2 0x3FB4 JUMPI PUSH1 0x0 SWAP3 POP POP POP PUSH2 0xBBE JUMP JUMPDEST PUSH3 0x3F480 DUP2 LT ISZERO PUSH2 0x3FCA JUMPI PUSH1 0x64 SWAP3 POP POP POP PUSH2 0xBBE JUMP JUMPDEST PUSH3 0x54600 DUP2 LT ISZERO PUSH2 0x3FE0 JUMPI PUSH1 0xC8 SWAP3 POP POP POP PUSH2 0xBBE JUMP JUMPDEST PUSH3 0x69780 DUP2 LT ISZERO PUSH2 0x3FF7 JUMPI PUSH2 0x12C SWAP3 POP POP POP PUSH2 0xBBE JUMP JUMPDEST PUSH3 0x7E900 DUP2 LT ISZERO PUSH2 0x400E JUMPI PUSH2 0x190 SWAP3 POP POP POP PUSH2 0xBBE JUMP JUMPDEST PUSH2 0x1F4 SWAP3 POP POP POP PUSH2 0xBBE JUMP JUMPDEST PUSH1 0x0 PUSH4 0x1E13380 DUP2 PUSH2 0x4037 PUSH7 0x38882915C4000 PUSH4 0x5F5E100 PUSH2 0x372A JUMP JUMPDEST SWAP1 POP PUSH1 0x0 PUSH2 0x404D PUSH2 0x1388 PUSH2 0x1106 DUP6 DUP2 DUP11 DUP13 PUSH2 0x372A JUMP JUMPDEST SWAP1 POP PUSH1 0x0 PUSH2 0x4064 PUSH2 0x1388 PUSH2 0x1106 DUP11 PUSH1 0x2 DUP9 EXP PUSH2 0x372A JUMP JUMPDEST SWAP1 POP PUSH1 0x0 PUSH2 0x407D PUSH1 0x6 PUSH2 0x110C PUSH1 0x2 DUP1 DUP13 EXP SWAP1 DUP14 EXP PUSH2 0x372A JUMP JUMPDEST SWAP1 POP PUSH1 0x0 PUSH2 0x40A0 PUSH1 0x2 PUSH2 0x110C DUP9 PUSH2 0x1106 PUSH1 0x2 DUP16 EXP DUP15 PUSH2 0x372A SWAP1 SWAP2 SWAP1 PUSH4 0xFFFFFFFF AND JUMP JUMPDEST SWAP1 POP PUSH1 0x0 PUSH2 0x40B9 PUSH1 0x3 PUSH2 0x110C PUSH1 0x2 DUP1 DUP16 EXP SWAP1 DUP12 EXP PUSH2 0x372A JUMP JUMPDEST SWAP1 POP PUSH1 0x0 PUSH2 0x40D3 DUP3 PUSH2 0x40CD DUP7 DUP2 DUP12 DUP12 PUSH2 0x3687 JUMP JUMPDEST SWAP1 PUSH2 0x3687 JUMP JUMPDEST SWAP1 POP PUSH2 0x40E3 DUP4 PUSH2 0x1A19 DUP4 DUP9 PUSH2 0x37EA JUMP JUMPDEST SWAP1 POP PUSH2 0x40F3 DUP12 PUSH2 0x1106 DUP4 DUP16 PUSH2 0x372A JUMP JUMPDEST SWAP1 POP PUSH2 0x410D PUSH5 0xE8D4A51000 PUSH2 0x110C PUSH1 0x3 DUP12 EXP DUP2 DUP6 DUP16 PUSH2 0x372A JUMP JUMPDEST SWAP13 SWAP12 POP POP POP POP POP POP POP POP POP POP POP POP JUMP JUMPDEST POP DUP1 SLOAD PUSH1 0x0 DUP3 SSTORE PUSH1 0x2 MUL SWAP1 PUSH1 0x0 MSTORE PUSH1 0x20 PUSH1 0x0 KECCAK256 SWAP1 DUP2 ADD SWAP1 PUSH2 0x292B SWAP2 SWAP1 JUMPDEST DUP1 DUP3 GT ISZERO PUSH2 0x415F JUMPI DUP1 SLOAD PUSH1 0x1 PUSH1 0x1 PUSH1 0xA0 SHL SUB NOT AND DUP2 SSTORE PUSH1 0x0 PUSH1 0x1 DUP3 ADD SSTORE PUSH1 0x2 ADD PUSH2 0x413A JUMP JUMPDEST POP SWAP1 JUMP INVALID ADDRESS CALLER CALLVALUE ADDRESS KECCAK256 SLOAD PUSH9 0x6520706F6F6C206973 KECCAK256 PUSH16 0x6E6C7920544F544D2072657761726465 PUSH19 0x4F776E61626C653A206E6577206F776E657220 PUSH10 0x7320746865207A65726F KECCAK256 PUSH2 0x6464 PUSH19 0x657373303336302043616E277420656E642070 PUSH16 0x6F6C206265666F726520746865206D61 PUSH21 0x75726974792074696D65303331322043616E277420 PUSH20 0x74616B652061626F76652073697A6520616C6C6F PUSH4 0x6174696F PUSH15 0x3033373020746F74656D732063616E KECCAK256 PUSH15 0x6F74206265207472616E7366657265 PUSH5 0x3033303020 PUSH4 0x616C6C65 PUSH19 0x206973206E6F74206120706F6F6C2063726561 PUSH21 0x6F72536166654D6174683A206D756C7469706C6963 PUSH2 0x7469 PUSH16 0x6E206F766572666C6F77303338302074 PUSH9 0x697320616464726573 PUSH20 0x206469646E2774207374616B6520696E20746869 PUSH20 0x20706F6F6C3033313120416D6F756E742063616E 0x27 PUSH21 0x206265206C657373207468616E20746865206D696E PUSH10 0x6D756D30333631205772 PUSH2 0x7070 PUSH6 0x64546F6B656E KECCAK256 MSTORE PUSH6 0x776172647320 PUSH15 0x6F7420617661696C61626C65303335 ADDRESS KECCAK256 NUMBER PUSH2 0x6E27 PUSH21 0x20736574206D61747572696E672070726963652062 PUSH6 0x666F72652074 PUSH9 0x65206D617475726974 PUSH26 0x2074696D65A2646970667358221220F219269857C47C3BD976CC EXTCODECOPY CALLER MULMOD PUSH28 0x4D3BAD026611EE365EF2A7E4E6E75FECE364736F6C63430007060033 ADDRESS CALLER ADDRESS BALANCE KECCAK256 PUSH13 0x61756E63682064617465206361 PUSH15 0x277420626520696E2070617374506F PUSH16 0x6C43726561746F72526F6C653A206361 PUSH13 0x6C657220646F6573206E6F7420 PUSH9 0x617665207468652050 PUSH16 0x6F6C43726561746F7220726F6C65526F PUSH13 0x65733A206163636F756E742064 PUSH16 0x6573206E6F74206861766520726F6C65 MSTORE PUSH16 0x6C65733A206163636F756E7420697320 PUSH21 0x6865207A65726F2061646472657373A26469706673 PC 0x22 SLT KECCAK256 PUSH12 0x775668CCA7020FF3175F135B GT 0x2F PUSH15 0x54733B651AF6F99A706F88E6A3437F 0x5F PUSH5 0x736F6C6343 STOP SMOD MOD STOP CALLER MSTORE PUSH16 0x6C65733A206163636F756E7420697320 PUSH21 0x6865207A65726F2061646472657373000000000000 "
    },
    "gasEstimates": {
      "creation": {
        "codeDepositCost": "4502000",
        "executionCost": "infinite",
        "totalCost": "infinite"
      },
      "external": {
        "addPoolCreator(address)": "infinite",
        "create(address,address,string,string,uint256[11],uint256[8],uint256[8],bool)": "infinite",
        "isPoolCreator(address)": "infinite",
        "minimumStakeAmount()": "1117",
        "renouncePoolCreator()": "infinite",
        "rewardManager()": "infinite",
        "setDefaultTaxRate(uint256)": "infinite",
        "setSwapRouter(address)": "infinite",
        "stakingPoolTaxRate()": "1095",
        "swapRouter()": "1114",
        "totemToken()": "infinite"
      },
      "internal": {
        "createPool(address[4] memory,string memory,string memory,uint256[11] memory,uint256[8] memory,uint256[8] memory,bool)": "infinite"
      }
    },
    "methodIdentifiers": {
      "addPoolCreator(address)": "8c2d741c",
      "create(address,address,string,string,uint256[11],uint256[8],uint256[8],bool)": "1f7e29e5",
      "isPoolCreator(address)": "9a94775d",
      "minimumStakeAmount()": "6b036f45",
      "renouncePoolCreator()": "e281cc7e",
      "rewardManager()": "0f4ef8a6",
      "setDefaultTaxRate(uint256)": "d53b245b",
      "setSwapRouter(address)": "41273657",
      "stakingPoolTaxRate()": "441f5c65",
      "swapRouter()": "c31c9c07",
      "totemToken()": "e8153c93"
    }
  },
  "storageLayout": {
    "storage": [
      {
        "astId": 2058,
        "contract": "contracts/Staking/StakingPoolFactory.sol:StakingPoolFactory",
        "label": "_poolCreators",
        "offset": 0,
        "slot": "0",
        "type": "t_struct(Role)2275_storage"
      },
      {
        "astId": 4728,
        "contract": "contracts/Staking/StakingPoolFactory.sol:StakingPoolFactory",
        "label": "swapRouter",
        "offset": 0,
        "slot": "1",
        "type": "t_address"
      },
      {
        "astId": 4732,
        "contract": "contracts/Staking/StakingPoolFactory.sol:StakingPoolFactory",
        "label": "stakingPoolTaxRate",
        "offset": 0,
        "slot": "2",
        "type": "t_uint256"
      },
      {
        "astId": 4734,
        "contract": "contracts/Staking/StakingPoolFactory.sol:StakingPoolFactory",
        "label": "minimumStakeAmount",
        "offset": 0,
        "slot": "3",
        "type": "t_uint256"
      }
    ],
    "types": {
      "t_address": {
        "encoding": "inplace",
        "label": "address",
        "numberOfBytes": "20"
      },
      "t_bool": {
        "encoding": "inplace",
        "label": "bool",
        "numberOfBytes": "1"
      },
      "t_mapping(t_address,t_bool)": {
        "encoding": "mapping",
        "key": "t_address",
        "label": "mapping(address => bool)",
        "numberOfBytes": "32",
        "value": "t_bool"
      },
      "t_struct(Role)2275_storage": {
        "encoding": "inplace",
        "label": "struct Roles.Role",
        "members": [
          {
            "astId": 2274,
            "contract": "contracts/Staking/StakingPoolFactory.sol:StakingPoolFactory",
            "label": "bearer",
            "offset": 0,
            "slot": "0",
            "type": "t_mapping(t_address,t_bool)"
          }
        ],
        "numberOfBytes": "32"
      },
      "t_uint256": {
        "encoding": "inplace",
        "label": "uint256",
        "numberOfBytes": "32"
      }
    }
  },
  "userdoc": {
    "kind": "user",
    "methods": {},
    "version": 1
  }
}