{
  "contractName": "StakingPoolImplementation",
  "sourceName": "contracts/Staking/StakingPoolImplementation.sol",
  "abi": [
    {
      "anonymous": false,
      "inputs": [
        {
          "indexed": true,
          "internalType": "address",
          "name": "to",
          "type": "address"
        },
        {
          "indexed": false,
          "internalType": "uint256",
          "name": "amount",
          "type": "uint256"
        }
      ],
      "name": "ApproveTokens",
      "type": "event"
    },
    {
      "anonymous": false,
      "inputs": [
        {
          "indexed": true,
          "internalType": "address",
          "name": "to",
          "type": "address"
        },
        {
          "indexed": false,
          "internalType": "uint256",
          "name": "amount",
          "type": "uint256"
        }
      ],
      "name": "DistributedBTC",
      "type": "event"
    },
    {
      "anonymous": false,
      "inputs": [
        {
          "indexed": true,
          "internalType": "address",
          "name": "previousOwner",
          "type": "address"
        },
        {
          "indexed": true,
          "internalType": "address",
          "name": "newOwner",
          "type": "address"
        }
      ],
      "name": "OwnershipTransferred",
      "type": "event"
    },
    {
      "anonymous": false,
      "inputs": [],
      "name": "PoolActivated",
      "type": "event"
    },
    {
      "anonymous": false,
      "inputs": [],
      "name": "PoolDeactivated",
      "type": "event"
    },
    {
      "anonymous": false,
      "inputs": [],
      "name": "PoolDeleted",
      "type": "event"
    },
    {
      "anonymous": false,
      "inputs": [],
      "name": "PoolLocked",
      "type": "event"
    },
    {
      "anonymous": false,
      "inputs": [],
      "name": "PoolMatured",
      "type": "event"
    },
    {
      "anonymous": false,
      "inputs": [],
      "name": "PoolSorted",
      "type": "event"
    },
    {
      "anonymous": false,
      "inputs": [
        {
          "indexed": true,
          "internalType": "address",
          "name": "from",
          "type": "address"
        },
        {
          "indexed": false,
          "internalType": "uint256",
          "name": "amount",
          "type": "uint256"
        }
      ],
      "name": "ReceivedTokens",
      "type": "event"
    },
    {
      "anonymous": false,
      "inputs": [
        {
          "indexed": true,
          "internalType": "address",
          "name": "user",
          "type": "address"
        },
        {
          "indexed": false,
          "internalType": "uint256",
          "name": "amount",
          "type": "uint256"
        },
        {
          "indexed": false,
          "internalType": "uint256",
          "name": "pricePrediction",
          "type": "uint256"
        }
      ],
      "name": "Stake",
      "type": "event"
    },
    {
      "anonymous": false,
      "inputs": [
        {
          "indexed": true,
          "internalType": "address",
          "name": "to",
          "type": "address"
        },
        {
          "indexed": false,
          "internalType": "uint256",
          "name": "amount",
          "type": "uint256"
        }
      ],
      "name": "TransferTokens",
      "type": "event"
    },
    {
      "anonymous": false,
      "inputs": [
        {
          "indexed": true,
          "internalType": "address",
          "name": "user",
          "type": "address"
        },
        {
          "indexed": false,
          "internalType": "uint256",
          "name": "amount",
          "type": "uint256"
        }
      ],
      "name": "Unstake",
      "type": "event"
    },
    {
      "anonymous": false,
      "inputs": [
        {
          "indexed": true,
          "internalType": "address",
          "name": "user",
          "type": "address"
        },
        {
          "indexed": false,
          "internalType": "uint256",
          "name": "stakingReturn",
          "type": "uint256"
        }
      ],
      "name": "WithdrawStakingReturn",
      "type": "event"
    },
    {
      "anonymous": false,
      "inputs": [
        {
          "indexed": true,
          "internalType": "address",
          "name": "user",
          "type": "address"
        },
        {
          "indexed": false,
          "internalType": "uint256",
          "name": "totemPrize",
          "type": "uint256"
        }
      ],
      "name": "WithdrawTotemPrize",
      "type": "event"
    },
    {
      "anonymous": false,
      "inputs": [
        {
          "indexed": true,
          "internalType": "address",
          "name": "user",
          "type": "address"
        },
        {
          "indexed": false,
          "internalType": "uint256",
          "name": "wrappedTokenPrize",
          "type": "uint256"
        }
      ],
      "name": "WithdrawWrappedTokenPrize",
      "type": "event"
    },
    {
      "inputs": [
        {
          "internalType": "address",
          "name": "_oracle",
          "type": "address"
        }
      ],
      "name": "__PriceConsumer_initialize",
      "outputs": [],
      "stateMutability": "nonpayable",
      "type": "function"
    },
    {
      "inputs": [
        {
          "internalType": "address",
          "name": "swapRouterAddress",
          "type": "address"
        },
        {
          "internalType": "address",
          "name": "BUSDContractAddress",
          "type": "address"
        },
        {
          "internalType": "address",
          "name": "WrappedTokenContractAddress",
          "type": "address"
        }
      ],
      "name": "__WrappedTokenDistributor_initialize",
      "outputs": [],
      "stateMutability": "nonpayable",
      "type": "function"
    },
    {
      "inputs": [],
      "name": "claimReward",
      "outputs": [],
      "stateMutability": "nonpayable",
      "type": "function"
    },
    {
      "inputs": [],
      "name": "collaborativeRange",
      "outputs": [
        {
          "internalType": "uint256",
          "name": "",
          "type": "uint256"
        }
      ],
      "stateMutability": "view",
      "type": "function"
    },
    {
      "inputs": [],
      "name": "collaborativeReward",
      "outputs": [
        {
          "internalType": "uint256",
          "name": "",
          "type": "uint256"
        }
      ],
      "stateMutability": "view",
      "type": "function"
    },
    {
      "inputs": [],
      "name": "declareEmergency",
      "outputs": [],
      "stateMutability": "nonpayable",
      "type": "function"
    },
    {
      "inputs": [],
      "name": "deletePool",
      "outputs": [],
      "stateMutability": "nonpayable",
      "type": "function"
    },
    {
      "inputs": [],
      "name": "emergentWithdraw",
      "outputs": [],
      "stateMutability": "nonpayable",
      "type": "function"
    },
    {
      "inputs": [],
      "name": "endPool",
      "outputs": [],
      "stateMutability": "nonpayable",
      "type": "function"
    },
    {
      "inputs": [],
      "name": "getAveragePricePrediction",
      "outputs": [
        {
          "internalType": "uint256",
          "name": "",
          "type": "uint256"
        }
      ],
      "stateMutability": "view",
      "type": "function"
    },
    {
      "inputs": [],
      "name": "getDecimals",
      "outputs": [
        {
          "internalType": "uint8",
          "name": "",
          "type": "uint8"
        }
      ],
      "stateMutability": "view",
      "type": "function"
    },
    {
      "inputs": [
        {
          "internalType": "uint256",
          "name": "prediction",
          "type": "uint256"
        },
        {
          "internalType": "uint256",
          "name": "_range",
          "type": "uint256"
        }
      ],
      "name": "getDifference",
      "outputs": [
        {
          "internalType": "uint256",
          "name": "",
          "type": "uint256"
        }
      ],
      "stateMutability": "view",
      "type": "function"
    },
    {
      "inputs": [
        {
          "internalType": "uint256",
          "name": "_amount",
          "type": "uint256"
        }
      ],
      "name": "getEstimatedWrappedTokenForUSD",
      "outputs": [
        {
          "internalType": "uint256",
          "name": "",
          "type": "uint256"
        }
      ],
      "stateMutability": "view",
      "type": "function"
    },
    {
      "inputs": [
        {
          "internalType": "address",
          "name": "_staker",
          "type": "address"
        },
        {
          "internalType": "uint256",
          "name": "_stakeIndex",
          "type": "uint256"
        }
      ],
      "name": "getIndexedPrize",
      "outputs": [
        {
          "internalType": "uint256",
          "name": "",
          "type": "uint256"
        },
        {
          "internalType": "uint256",
          "name": "",
          "type": "uint256"
        }
      ],
      "stateMutability": "view",
      "type": "function"
    },
    {
      "inputs": [
        {
          "internalType": "address",
          "name": "_staker",
          "type": "address"
        },
        {
          "internalType": "uint256",
          "name": "_stakeIndex",
          "type": "uint256"
        }
      ],
      "name": "getIndexedStakingReward",
      "outputs": [
        {
          "internalType": "uint256",
          "name": "",
          "type": "uint256"
        }
      ],
      "stateMutability": "view",
      "type": "function"
    },
    {
      "inputs": [],
      "name": "getLatestPrice",
      "outputs": [
        {
          "internalType": "uint256",
          "name": "",
          "type": "uint256"
        }
      ],
      "stateMutability": "view",
      "type": "function"
    },
    {
      "inputs": [],
      "name": "getPathForUSDToWrappedToken",
      "outputs": [
        {
          "internalType": "address[]",
          "name": "",
          "type": "address[]"
        }
      ],
      "stateMutability": "view",
      "type": "function"
    },
    {
      "inputs": [
        {
          "internalType": "address",
          "name": "_staker",
          "type": "address"
        }
      ],
      "name": "getPrize",
      "outputs": [
        {
          "internalType": "uint256",
          "name": "",
          "type": "uint256"
        },
        {
          "internalType": "uint256",
          "name": "",
          "type": "uint256"
        }
      ],
      "stateMutability": "view",
      "type": "function"
    },
    {
      "inputs": [],
      "name": "getStakers",
      "outputs": [
        {
          "internalType": "address[]",
          "name": "",
          "type": "address[]"
        },
        {
          "internalType": "uint256[]",
          "name": "",
          "type": "uint256[]"
        }
      ],
      "stateMutability": "view",
      "type": "function"
    },
    {
      "inputs": [
        {
          "internalType": "address",
          "name": "_staker",
          "type": "address"
        }
      ],
      "name": "getStakingReward",
      "outputs": [
        {
          "internalType": "uint256",
          "name": "",
          "type": "uint256"
        }
      ],
      "stateMutability": "view",
      "type": "function"
    },
    {
      "inputs": [
        {
          "internalType": "uint256",
          "name": "amount",
          "type": "uint256"
        },
        {
          "internalType": "uint256",
          "name": "tokenTaxRate",
          "type": "uint256"
        }
      ],
      "name": "getStakingTax",
      "outputs": [
        {
          "internalType": "uint256",
          "name": "",
          "type": "uint256"
        },
        {
          "internalType": "uint256",
          "name": "",
          "type": "uint256"
        }
      ],
      "stateMutability": "view",
      "type": "function"
    },
    {
      "inputs": [],
      "name": "getUSDBalance",
      "outputs": [
        {
          "internalType": "uint256",
          "name": "",
          "type": "uint256"
        }
      ],
      "stateMutability": "view",
      "type": "function"
    },
    {
      "inputs": [],
      "name": "getUSDToken",
      "outputs": [
        {
          "internalType": "address",
          "name": "",
          "type": "address"
        }
      ],
      "stateMutability": "view",
      "type": "function"
    },
    {
      "inputs": [],
      "name": "getWrappedTokenBalance",
      "outputs": [
        {
          "internalType": "uint256",
          "name": "",
          "type": "uint256"
        }
      ],
      "stateMutability": "view",
      "type": "function"
    },
    {
      "inputs": [],
      "name": "getswapRouter",
      "outputs": [
        {
          "internalType": "address",
          "name": "",
          "type": "address"
        }
      ],
      "stateMutability": "view",
      "type": "function"
    },
    {
      "inputs": [
        {
          "internalType": "address",
          "name": "staker",
          "type": "address"
        },
        {
          "internalType": "uint256",
          "name": "stakeIndex",
          "type": "uint256"
        }
      ],
      "name": "hasUnStaked",
      "outputs": [
        {
          "internalType": "bool",
          "name": "",
          "type": "bool"
        }
      ],
      "stateMutability": "view",
      "type": "function"
    },
    {
      "inputs": [
        {
          "internalType": "uint256",
          "name": "stakeIndex",
          "type": "uint256"
        }
      ],
      "name": "indexedClaimReward",
      "outputs": [],
      "stateMutability": "nonpayable",
      "type": "function"
    },
    {
      "inputs": [],
      "name": "isActive",
      "outputs": [
        {
          "internalType": "bool",
          "name": "",
          "type": "bool"
        }
      ],
      "stateMutability": "view",
      "type": "function"
    },
    {
      "inputs": [],
      "name": "isAnEmergency",
      "outputs": [
        {
          "internalType": "bool",
          "name": "",
          "type": "bool"
        }
      ],
      "stateMutability": "view",
      "type": "function"
    },
    {
      "inputs": [],
      "name": "isDeleted",
      "outputs": [
        {
          "internalType": "bool",
          "name": "",
          "type": "bool"
        }
      ],
      "stateMutability": "view",
      "type": "function"
    },
    {
      "inputs": [],
      "name": "isEnhancedEnabled",
      "outputs": [
        {
          "internalType": "bool",
          "name": "",
          "type": "bool"
        }
      ],
      "stateMutability": "view",
      "type": "function"
    },
    {
      "inputs": [],
      "name": "isLocked",
      "outputs": [
        {
          "internalType": "bool",
          "name": "",
          "type": "bool"
        }
      ],
      "stateMutability": "view",
      "type": "function"
    },
    {
      "inputs": [],
      "name": "isMatured",
      "outputs": [
        {
          "internalType": "bool",
          "name": "",
          "type": "bool"
        }
      ],
      "stateMutability": "view",
      "type": "function"
    },
    {
      "inputs": [],
      "name": "launchDate",
      "outputs": [
        {
          "internalType": "uint256",
          "name": "",
          "type": "uint256"
        }
      ],
      "stateMutability": "view",
      "type": "function"
    },
    {
      "inputs": [],
      "name": "lockPool",
      "outputs": [],
      "stateMutability": "nonpayable",
      "type": "function"
    },
    {
      "inputs": [],
      "name": "lockTime",
      "outputs": [
        {
          "internalType": "uint256",
          "name": "",
          "type": "uint256"
        }
      ],
      "stateMutability": "view",
      "type": "function"
    },
    {
      "inputs": [],
      "name": "lps",
      "outputs": [
        {
          "internalType": "uint256",
          "name": "launchDate",
          "type": "uint256"
        },
        {
          "internalType": "uint256",
          "name": "lockTime",
          "type": "uint256"
        },
        {
          "internalType": "uint256",
          "name": "maturityTime",
          "type": "uint256"
        },
        {
          "internalType": "uint256",
          "name": "maturingPrice",
          "type": "uint256"
        },
        {
          "internalType": "uint256",
          "name": "usdPrizeAmount",
          "type": "uint256"
        },
        {
          "internalType": "uint256",
          "name": "prizeAmount",
          "type": "uint256"
        },
        {
          "internalType": "uint256",
          "name": "stakeApr",
          "type": "uint256"
        },
        {
          "internalType": "uint256",
          "name": "collaborativeReward",
          "type": "uint256"
        },
        {
          "internalType": "bool",
          "name": "isEnhancedEnabled",
          "type": "bool"
        },
        {
          "internalType": "bool",
          "name": "isMatured",
          "type": "bool"
        }
      ],
      "stateMutability": "view",
      "type": "function"
    },
    {
      "inputs": [],
      "name": "maturingPrice",
      "outputs": [
        {
          "internalType": "uint256",
          "name": "",
          "type": "uint256"
        }
      ],
      "stateMutability": "view",
      "type": "function"
    },
    {
      "inputs": [],
      "name": "maturityTime",
      "outputs": [
        {
          "internalType": "uint256",
          "name": "",
          "type": "uint256"
        }
      ],
      "stateMutability": "view",
      "type": "function"
    },
    {
      "inputs": [],
      "name": "minimumStakeAmount",
      "outputs": [
        {
          "internalType": "uint256",
          "name": "",
          "type": "uint256"
        }
      ],
      "stateMutability": "view",
      "type": "function"
    },
    {
      "inputs": [],
      "name": "oracleContract",
      "outputs": [
        {
          "internalType": "address",
          "name": "",
          "type": "address"
        }
      ],
      "stateMutability": "view",
      "type": "function"
    },
    {
      "inputs": [],
      "name": "oracleDecimal",
      "outputs": [
        {
          "internalType": "uint256",
          "name": "",
          "type": "uint256"
        }
      ],
      "stateMutability": "view",
      "type": "function"
    },
    {
      "inputs": [],
      "name": "owner",
      "outputs": [
        {
          "internalType": "address",
          "name": "",
          "type": "address"
        }
      ],
      "stateMutability": "view",
      "type": "function"
    },
    {
      "inputs": [],
      "name": "poolCreator",
      "outputs": [
        {
          "internalType": "address",
          "name": "",
          "type": "address"
        }
      ],
      "stateMutability": "view",
      "type": "function"
    },
    {
      "inputs": [],
      "name": "poolType",
      "outputs": [
        {
          "internalType": "string",
          "name": "",
          "type": "string"
        }
      ],
      "stateMutability": "view",
      "type": "function"
    },
    {
      "inputs": [],
      "name": "potentialCollabReward",
      "outputs": [
        {
          "internalType": "uint256",
          "name": "",
          "type": "uint256"
        }
      ],
      "stateMutability": "view",
      "type": "function"
    },
    {
      "inputs": [
        {
          "internalType": "address",
          "name": "",
          "type": "address"
        },
        {
          "internalType": "uint256",
          "name": "",
          "type": "uint256"
        }
      ],
      "name": "predictions",
      "outputs": [
        {
          "internalType": "uint256",
          "name": "stakedBalance",
          "type": "uint256"
        },
        {
          "internalType": "uint256",
          "name": "stakedTime",
          "type": "uint256"
        },
        {
          "internalType": "uint256",
          "name": "amountWithdrawn",
          "type": "uint256"
        },
        {
          "internalType": "uint256",
          "name": "lastWithdrawalTime",
          "type": "uint256"
        },
        {
          "internalType": "uint256",
          "name": "pricePrediction",
          "type": "uint256"
        },
        {
          "internalType": "uint256",
          "name": "difference",
          "type": "uint256"
        },
        {
          "internalType": "uint256",
          "name": "rank",
          "type": "uint256"
        },
        {
          "internalType": "bool",
          "name": "prizeRewardWithdrawn",
          "type": "bool"
        },
        {
          "internalType": "bool",
          "name": "didUnstake",
          "type": "bool"
        }
      ],
      "stateMutability": "view",
      "type": "function"
    },
    {
      "inputs": [],
      "name": "prizeAmount",
      "outputs": [
        {
          "internalType": "uint256",
          "name": "",
          "type": "uint256"
        }
      ],
      "stateMutability": "view",
      "type": "function"
    },
    {
      "inputs": [
        {
          "internalType": "uint256",
          "name": "",
          "type": "uint256"
        }
      ],
      "name": "prizeRewardRates",
      "outputs": [
        {
          "internalType": "uint256",
          "name": "rank",
          "type": "uint256"
        },
        {
          "internalType": "uint256",
          "name": "percentage",
          "type": "uint256"
        }
      ],
      "stateMutability": "view",
      "type": "function"
    },
    {
      "inputs": [
        {
          "internalType": "uint256",
          "name": "usdAmount",
          "type": "uint256"
        },
        {
          "internalType": "uint256",
          "name": "deadline",
          "type": "uint256"
        }
      ],
      "name": "purchaseWrappedToken",
      "outputs": [],
      "stateMutability": "nonpayable",
      "type": "function"
    },
    {
      "inputs": [],
      "name": "renounceOwnership",
      "outputs": [],
      "stateMutability": "nonpayable",
      "type": "function"
    },
    {
      "inputs": [],
      "name": "rewardManager",
      "outputs": [
        {
          "internalType": "contract IRewardManager",
          "name": "",
          "type": "address"
        }
      ],
      "stateMutability": "view",
      "type": "function"
    },
    {
      "inputs": [
        {
          "internalType": "bool",
          "name": "_activationStatus",
          "type": "bool"
        }
      ],
      "name": "setActivationStatus",
      "outputs": [],
      "stateMutability": "nonpayable",
      "type": "function"
    },
    {
      "inputs": [],
      "name": "setOracleToZero",
      "outputs": [],
      "stateMutability": "nonpayable",
      "type": "function"
    },
    {
      "inputs": [
        {
          "internalType": "address[25]",
          "name": "addrArray",
          "type": "address[25]"
        },
        {
          "internalType": "uint256[25]",
          "name": "indexArray",
          "type": "uint256[25]"
        }
      ],
      "name": "setSortedStakers",
      "outputs": [],
      "stateMutability": "nonpayable",
      "type": "function"
    },
    {
      "inputs": [],
      "name": "sizeAllocation",
      "outputs": [
        {
          "internalType": "uint256",
          "name": "",
          "type": "uint256"
        }
      ],
      "stateMutability": "view",
      "type": "function"
    },
    {
      "inputs": [],
      "name": "sizeLimitRangeRate",
      "outputs": [
        {
          "internalType": "uint256",
          "name": "",
          "type": "uint256"
        }
      ],
      "stateMutability": "view",
      "type": "function"
    },
    {
      "inputs": [
        {
          "internalType": "uint256",
          "name": "",
          "type": "uint256"
        }
      ],
      "name": "sortedStakers",
      "outputs": [
        {
          "internalType": "address",
          "name": "stakerAddress",
          "type": "address"
        },
        {
          "internalType": "uint256",
          "name": "index",
          "type": "uint256"
        }
      ],
      "stateMutability": "view",
      "type": "function"
    },
    {
      "inputs": [
        {
          "internalType": "uint256",
          "name": "_amount",
          "type": "uint256"
        },
        {
          "internalType": "uint256",
          "name": "_pricePrediction",
          "type": "uint256"
        }
      ],
      "name": "stake",
      "outputs": [],
      "stateMutability": "nonpayable",
      "type": "function"
    },
    {
      "inputs": [],
      "name": "stakeApr",
      "outputs": [
        {
          "internalType": "uint256",
          "name": "",
          "type": "uint256"
        }
      ],
      "stateMutability": "view",
      "type": "function"
    },
    {
      "inputs": [],
      "name": "stakeTaxRate",
      "outputs": [
        {
          "internalType": "uint256",
          "name": "",
          "type": "uint256"
        }
      ],
      "stateMutability": "view",
      "type": "function"
    },
    {
      "inputs": [
        {
          "internalType": "uint256",
          "name": "",
          "type": "uint256"
        }
      ],
      "name": "stakers",
      "outputs": [
        {
          "internalType": "address",
          "name": "stakerAddress",
          "type": "address"
        },
        {
          "internalType": "uint256",
          "name": "index",
          "type": "uint256"
        }
      ],
      "stateMutability": "view",
      "type": "function"
    },
    {
      "inputs": [],
      "name": "stakingPoolImplementation",
      "outputs": [
        {
          "internalType": "address",
          "name": "",
          "type": "address"
        }
      ],
      "stateMutability": "view",
      "type": "function"
    },
    {
      "inputs": [],
      "name": "totalStaked",
      "outputs": [
        {
          "internalType": "uint256",
          "name": "",
          "type": "uint256"
        }
      ],
      "stateMutability": "view",
      "type": "function"
    },
    {
      "inputs": [],
      "name": "totemToken",
      "outputs": [
        {
          "internalType": "contract ITotemToken",
          "name": "",
          "type": "address"
        }
      ],
      "stateMutability": "view",
      "type": "function"
    },
    {
      "inputs": [
        {
          "internalType": "address",
          "name": "newOwner",
          "type": "address"
        }
      ],
      "name": "transferOwnership",
      "outputs": [],
      "stateMutability": "nonpayable",
      "type": "function"
    },
    {
      "inputs": [
        {
          "internalType": "uint256",
          "name": "_price",
          "type": "uint256"
        }
      ],
      "name": "updateMaturingPrice",
      "outputs": [],
      "stateMutability": "nonpayable",
      "type": "function"
    },
    {
      "inputs": [],
      "name": "upgradeEnabled",
      "outputs": [
        {
          "internalType": "bool",
          "name": "",
          "type": "bool"
        }
      ],
      "stateMutability": "view",
      "type": "function"
    },
    {
      "inputs": [],
      "name": "usdPrizeAmount",
      "outputs": [
        {
          "internalType": "uint256",
          "name": "",
          "type": "uint256"
        }
      ],
      "stateMutability": "view",
      "type": "function"
    },
    {
      "inputs": [
        {
          "internalType": "address",
          "name": "_stuckToken",
          "type": "address"
        },
        {
          "internalType": "uint256",
          "name": "amount",
          "type": "uint256"
        },
        {
          "internalType": "address",
          "name": "receiver",
          "type": "address"
        }
      ],
      "name": "withdrawStuckTokens",
      "outputs": [],
      "stateMutability": "nonpayable",
      "type": "function"
    },
    {
      "inputs": [],
      "name": "wrappedToken",
      "outputs": [
        {
          "internalType": "contract IERC20",
          "name": "",
          "type": "address"
        }
      ],
      "stateMutability": "view",
      "type": "function"
    },
    {
      "inputs": [],
      "name": "wrappedTokenSymbol",
      "outputs": [
        {
          "internalType": "string",
          "name": "",
          "type": "string"
        }
      ],
      "stateMutability": "view",
      "type": "function"
    }
  ],
  "bytecode": "0x608060405234801561001057600080fd5b50614ba0806100206000396000f3fe608060405234801561001057600080fd5b50600436106104285760003560e01c80638da5cb5b1161022b578063c120105411610130578063eb850ae1116100b8578063f3d9dc0d11610087578063f3d9dc0d146107da578063f5e96fc9146107e2578063f8e829c3146107ea578063f8eeed62146107f2578063fd5e6dd1146107fa57610428565b8063eb850ae114610797578063f0141d841461079f578063f1b17a8b146107b4578063f2fde38b146107c757610428565b8063de09ee20116100ff578063de09ee2014610740578063df7f92e014610761578063e081866914610769578063e425df8c14610787578063e8153c931461078f57610428565b8063c120105414610720578063c6c1decd14610728578063d025188b14610730578063d7efb6b71461073857610428565b8063a7a48681116101b3578063b1dd61b611610182578063b1dd61b6146106ed578063b7b30170146106f5578063b88a802f14610708578063bece753214610710578063bf8521961461071857610428565b8063a7a48681146106ac578063a8f7b346146106bf578063aa7bcb57146106d2578063b1b1e1c0146106da57610428565b8063a08b2c79116101fa578063a08b2c791461066c578063a118c9a714610674578063a150194b14610687578063a35ef3a71461068f578063a4e2d634146106a457610428565b80638da5cb5b1461064c5780638e15f4731461065457806395c2ba471461065c578063996c6cc31461066457610428565b80634c7c77fc11610331578063785fa627116102b9578063817b1cd211610288578063817b1cd214610604578063850fa7cb1461060c5780638a9920b7146106345780638bfbbcbe1461063c5780638cf0e21e1461064457610428565b8063785fa627146105ce57806378f4d413146105d65780637b0472f0146105e95780637f2b6a0d146105fc57610428565b80635d2631e2116103005780635d2631e21461059b5780636847d0c5146105ae5780636b036f45146105b6578063715018a6146105be57806373f31703146105c657610428565b80634c7c77fc146105655780634ddc1bdc146105785780634e8bfdaa1461058b57806351eacbf01461059357610428565b806331e244e5116103b45780634026478e116103835780634026478e1461051957806343352d6114610521578063444a49021461053757806345e913191461054a5780634bc4eeb21461055d57610428565b806331e244e5146104d857806337c4f6a4146104e0578063395b3dac146104f35780633fcdd82c1461050657610428565b8063238a6c74116103fb578063238a6c74146104885780632aa8195e1461049d5780632d42cf7d146104a55780632d5cd1d6146104af5780632e577d07146104d057610428565b80630d6680871461042d5780630f4ef8a61461044b57806322f3e2d4146104605780632342e48014610475575b600080fd5b61043561080d565b60405161044291906142e2565b60405180910390f35b610453610813565b6040516104429190614228565b610468610822565b604051610442919061432a565b610435610483366004613f78565b610831565b6104906108df565b6040516104429190614335565b61045361096d565b6104ad61097c565b005b6104c26104bd366004613ef6565b610be6565b6040516104429291906142eb565b610453610c9a565b6104ad610caa565b6104ad6104ee366004613ef6565b610cfd565b6104c2610501366004614131565b610d8e565b610435610514366004614101565b610def565b6104ad610eb3565b610529610ef5565b60405161044292919061428c565b6104ad610545366004613fd9565b6110b2565b610468610558366004613f78565b61124d565b61046861139f565b610435610573366004614131565b6113ad565b6104ad610586366004614131565b611431565b61043561151d565b610435611523565b6104ad6105a9366004613fa3565b611529565b610435611613565b610435611619565b6104ad61161f565b610435611668565b61043561166e565b6104356105e4366004613ef6565b611674565b6104ad6105f7366004614131565b61171d565b610468611cc7565b610435611cd8565b61061f61061a366004613f78565b611cde565b604051610442999897969594939291906149bd565b6104ad611d4c565b6104ad611f94565b610468612010565b610453612023565b610435612032565b6104356120d9565b6104536120de565b6104686120ed565b6104ad6106823660046140c9565b6120f6565b6104356121df565b6106976121e4565b6040516104429190614279565b610468612293565b6104ad6106ba366004614101565b6122a3565b6104ad6106cd366004613f2e565b61234b565b610435612400565b6104ad6106e8366004614101565b612406565b610490612dc4565b6104c2610703366004613f78565b612dd1565b6104ad612e88565b6104536137b1565b6104356137c0565b610435613947565b6104536139cd565b6104356139dc565b6104686139e2565b61075361074e366004614101565b6139f4565b604051610442929190614260565b6104ad613a2c565b610771613a78565b6040516104429a99989796959493929190614a00565b610435613aa2565b610453613aa8565b610435613ab7565b6107a7613abd565b6040516104429190614a49565b6104c26107c2366004614101565b613b46565b6104ad6107d5366004613ef6565b613b74565b610435613be2565b610453613be8565b610435613bf7565b610435613c28565b610753610808366004614101565b613c2e565b60805481565b607b546001600160a01b031681565b608d5462010000900460ff1681565b6001600160a01b0382166000908152607960205260408082209051634f16042360e01b8152829173__$7fd944d8f8efff7c575121b9e933203c2c$__91634f16042391610885918790606d906004016142f9565b60206040518083038186803b15801561089d57600080fd5b505af41580156108b1573d6000803e3d6000fd5b505050506040513d601f19601f820116820180604052508101906108d59190614119565b9150505b92915050565b607d80546108ec90614ac5565b80601f016020809104026020016040519081016040528092919081815260200182805461091890614ac5565b80156109655780601f1061093a57610100808354040283529160200191610965565b820191906000526020600020905b81548152906001019060200180831161094857829003601f168201915b505050505081565b606a546001600160a01b031681565b606b546001600160a01b0316610990613c3e565b6001600160a01b0316146109bf5760405162461bcd60e51b81526004016109b690614735565b60405180910390fd5b608154608054607f546109d29190614a57565b6109dc9190614a57565b4210156109fb5760405162461bcd60e51b81526004016109b690614475565b60855415610a2757610a0b613bf7565b610a275760405162461bcd60e51b81526004016109b690614877565b60775415610a4e57607854610a4e5760405162461bcd60e51b81526004016109b6906144c1565b608a5415610a80576000610a606137c0565b9050610a6e81608b546113ad565b610a7e57608a54608c8190556074555b505b607854600090601910610a9557607854610a98565b60195b905060005b81811015610b7657610ab0816001614a57565b6079600060788481548110610ad557634e487b7160e01b600052603260045260246000fd5b600091825260208083206002909202909101546001600160a01b0316835282019290925260400190206078805484908110610b2057634e487b7160e01b600052603260045260246000fd5b90600052602060002090600202016001015481548110610b5057634e487b7160e01b600052603260045260246000fd5b600091825260209091206006600890920201015580610b6e81614b00565b915050610a9d565b50608d805464ff000000001963ff000000199091166301000000171664010000000090811791829055607580549190920460ff1615156101000261ff00199091161790556040517fe8ef7a17c92d025d9c1ead1c6b3ca3b44d3283d0ee954f615c5c476911f629a590600090a150565b6001600160a01b03811660009081526079602052604080822090516332a1b32160e01b815282918291829173__$171d2da81d2a08eb52330533595f0c4998$__916332a1b32191610c3f91606d906076906004016142f9565b604080518083038186803b158015610c5657600080fd5b505af4158015610c6a573d6000803e3d6000fd5b505050506040513d601f19601f82011682018060405250810190610c8e9190614152565b90945092505050915091565b6067546001600160a01b03165b90565b606b546001600160a01b0316610cbe613c3e565b6001600160a01b031614610ce45760405162461bcd60e51b81526004016109b690614735565b608d805462ff00ff19166001179055610cfb613c42565b565b600054610100900460ff1680610d16575060005460ff16155b610d325760405162461bcd60e51b81526004016109b6906146e7565b600054610100900460ff16158015610d5d576000805460ff1961ff0019909116610100171660011790555b606580546001600160a01b0319166001600160a01b0384161790558015610d8a576000805461ff00191690555b5050565b60008060008360865411610da3576000610db0565b608654610db09085613c80565b905080610dc4576000859250925050610de8565b610dce8582613c8c565b610de2610ddb8784613c8c565b8790613c80565b92509250505b9250929050565b60675460009081906001600160a01b031663d06ca61f84610e0e6121e4565b6040518363ffffffff1660e01b8152600401610e2b929190614960565b60006040518083038186803b158015610e4357600080fd5b505afa158015610e57573d6000803e3d6000fd5b505050506040513d6000823e601f3d908101601f19168201604052610e7f919081019061400f565b905080600181518110610ea257634e487b7160e01b600052603260045260246000fd5b60200260200101519150505b919050565b606b546001600160a01b0316610ec7613c3e565b6001600160a01b031614610eed5760405162461bcd60e51b81526004016109b690614735565b610cfb613c42565b606080600060778054905067ffffffffffffffff811115610f2657634e487b7160e01b600052604160045260246000fd5b604051908082528060200260200182016040528015610f4f578160200160208202803683370190505b5060775490915060009067ffffffffffffffff811115610f7f57634e487b7160e01b600052604160045260246000fd5b604051908082528060200260200182016040528015610fa8578160200160208202803683370190505b50905060005b6077548110156110a85760778181548110610fd957634e487b7160e01b600052603260045260246000fd5b600091825260209091206002909102015483516001600160a01b039091169084908390811061101857634e487b7160e01b600052603260045260246000fd5b60200260200101906001600160a01b031690816001600160a01b0316815250506077818154811061105957634e487b7160e01b600052603260045260246000fd5b90600052602060002090600202016001015482828151811061108b57634e487b7160e01b600052603260045260246000fd5b6020908102919091010152806110a081614b00565b915050610fae565b5090925090509091565b606b546001600160a01b03166110c6613c3e565b6001600160a01b0316146110ec5760405162461bcd60e51b81526004016109b690614735565b607854156111005761110060786000613e84565b60005b601981101561121f57600083826019811061112e57634e487b7160e01b600052603260045260246000fd5b6020020160208101906111419190613ef6565b6001600160a01b031614156111555761121f565b6078604051806040016040528085846019811061118257634e487b7160e01b600052603260045260246000fd5b6020020160208101906111959190613ef6565b6001600160a01b031681526020018484601981106111c357634e487b7160e01b600052603260045260246000fd5b60209081029190910135909152825460018082018555600094855293829020835160029092020180546001600160a01b0319166001600160a01b039092169190911781559101519101558061121781614b00565b915050611103565b506040517f5c243cc6e4f210bf2dd86b8eca0ca891d3f8ad2eb09fbf91735eb348bc199c7e90600090a15050565b6001600160a01b038216600090815260796020908152604080832080548251818502810185019093528083528493849084015b8282101561131257600084815260209081902060408051610120810182526008860290920180548352600180820154848601526002820154928401929092526003810154606084015260048101546080840152600581015460a0840152600681015460c08401526007015460ff808216151560e085015261010091829004161515908301529083529092019101611280565b50505050905060008151116113395760405162461bcd60e51b81526004016109b6906147ab565b805183106113595760405162461bcd60e51b81526004016109b690614388565b80838151811061137957634e487b7160e01b600052603260045260246000fd5b60200260200101516101000151156113955760019150506108d9565b5060009392505050565b608d54610100900460ff1681565b6000828211156113bf575060006108d9565b608954831115611401576089546113d68484613c80565b116113e3575060006108d9565b6089546113fa906113f48585613c80565b90613c80565b90506108d9565b60895461140e8484613c9e565b1061141b575060006108d9565b6113fa6114288484613c9e565b60895490613c80565b606b546001600160a01b0316611445613c3e565b6001600160a01b03161461146b5760405162461bcd60e51b81526004016109b690614735565b60006085541161148d5760405162461bcd60e51b81526004016109b6906143ec565b600082116114ad5760405162461bcd60e51b81526004016109b690614681565b428110156114cd5760405162461bcd60e51b81526004016109b6906144f1565b60006114d7610c9a565b90506114e38184613caa565b60006114ee84610def565b905060006115086115018361012c613c8c565b8390613c80565b905061151630868387613d74565b5050505050565b60815481565b60825481565b606b546001600160a01b031661153d613c3e565b6001600160a01b0316146115635760405162461bcd60e51b81526004016109b690614735565b607a546001600160a01b03848116911614156115915760405162461bcd60e51b81526004016109b690614640565b60405163a9059cbb60e01b815283906001600160a01b0382169063a9059cbb906115c19085908790600401614260565b602060405180830381600087803b1580156115db57600080fd5b505af11580156115ef573d6000803e3d6000fd5b505050506040513d601f19601f8201168201806040525081019061151691906140e5565b60865481565b60875481565b611627613c3e565b6001600160a01b0316611638612023565b6001600160a01b03161461165e5760405162461bcd60e51b81526004016109b690614776565b610cfb6000613e1a565b60855481565b60845481565b6001600160a01b0381166000908152607960205260408082209051630d46757760e41b8152829173__$171d2da81d2a08eb52330533595f0c4998$__9163d4675770916116c691606d906004016142eb565b60206040518083038186803b1580156116de57600080fd5b505af41580156116f2573d6000803e3d6000fd5b505050506040513d601f19601f820116820180604052508101906117169190614119565b9392505050565b608d5462010000900460ff1680156117365750607f5442115b6117525760405162461bcd60e51b81526004016109b6906147f6565b608d546301000000900460ff161561177c5760405162461bcd60e51b81526004016109b6906143bf565b60875482101561179e5760405162461bcd60e51b81526004016109b69061482d565b60006117c160646117bb6005608254613e6c90919063ffffffff16565b90613e78565b90506000607a60009054906101000a90046001600160a01b03166001600160a01b031663771a3a1d6040518163ffffffff1660e01b8152600401602060405180830381600087803b15801561181557600080fd5b505af1158015611829573d6000803e3d6000fd5b505050506040513d601f19601f8201168201806040525081019061184d9190614119565b607a549091506000906001600160a01b031663d1ecfc6861186c613c3e565b6040518263ffffffff1660e01b81526004016118889190614228565b602060405180830381600087803b1580156118a257600080fd5b505af11580156118b6573d6000803e3d6000fd5b505050506040513d601f19601f820116820180604052508101906118da91906140e5565b6118ed576118e88583613c8c565b6118f0565b60005b6082549091506119009084613c9e565b611919826113f488608854613c9e90919063ffffffff16565b11156119375760405162461bcd60e51b81526004016109b6906145fa565b60006119438684610d8e565b607a549097509091506001600160a01b03166323b872dd611962613c3e565b3061196d858b614a57565b6040518463ffffffff1660e01b815260040161198b9392919061423c565b602060405180830381600087803b1580156119a557600080fd5b505af11580156119b9573d6000803e3d6000fd5b505050506040513d601f19601f820116820180604052508101906119dd91906140e5565b506119e88683613c80565b95508015611ae957607a5460408051634a5db0a960e01b815290516001600160a01b039092169163a9059cbb918391634a5db0a9916004808201926020929091908290030181600087803b158015611a3f57600080fd5b505af1158015611a53573d6000803e3d6000fd5b505050506040513d601f19601f82011682018060405250810190611a779190613f12565b836040518363ffffffff1660e01b8152600401611a95929190614260565b602060405180830381600087803b158015611aaf57600080fd5b505af1158015611ac3573d6000803e3d6000fd5b505050506040513d601f19601f82011682018060405250810190611ae791906140e5565b505b608854611af69087613c9e565b60888190555060776040518060400160405280611b11613c3e565b6001600160a01b0316815260200160796000611b2b613c3e565b6001600160a01b0390811682526020808301939093526040909101600090812054909352845460018082018755958452828420855160029092020180546001600160a01b031916919092161781559201519190920155607990611b8c613c3e565b6001600160a01b03168152602080820192909252604090810160009081208251610120810184528a81524281860181815294820184815260608301918252608083018c815260001960a0850181815260c0860191825260e086018881526101008088018a8152895460018082018c559a8c529c909a2097516008909c029097019a8b559851968a01969096559151600289015591516003880155905160048701559151600586015590516006850155915160079093018054915160ff19929092169315159390931761ff00191690151590910217905560825460885410611c7557611c75613c42565b611c7d613c3e565b6001600160a01b03167f5af417134f72a9d41143ace85b0a26dce6f550f894f2cbc1eeee8810603d91b68787604051611cb79291906142eb565b60405180910390a2505050505050565b608d54640100000000900460ff1681565b60885481565b60796020528160005260406000208181548110611cfa57600080fd5b6000918252602090912060089091020180546001820154600283015460038401546004850154600586015460068701546007909701549598509396509194909391929160ff8082169161010090041689565b608d5460ff16611d6e5760405162461bcd60e51b81526004016109b6906146b8565b600073__$60b6e19b11029f04c25a43d0435d86b2be$__63066f1dee60796000611d96613c3e565b6001600160a01b03166001600160a01b031681526020019081526020016000206040518263ffffffff1660e01b8152600401611dd291906142e2565b60206040518083038186803b158015611dea57600080fd5b505af4158015611dfe573d6000803e3d6000fd5b505050506040513d601f19601f82011682018060405250810190611e229190614119565b90508015611f915773__$171d2da81d2a08eb52330533595f0c4998$__63f66d9a4d60796000611e50613c3e565b6001600160a01b03166001600160a01b031681526020019081526020016000206040518263ffffffff1660e01b8152600401611e8c91906142e2565b60006040518083038186803b158015611ea457600080fd5b505af4158015611eb8573d6000803e3d6000fd5b5050607a546001600160a01b0316915063a9059cbb9050611ed7613c3e565b836040518363ffffffff1660e01b8152600401611ef5929190614260565b602060405180830381600087803b158015611f0f57600080fd5b505af1158015611f23573d6000803e3d6000fd5b505050506040513d601f19601f82011682018060405250810190611f4791906140e5565b50611f50613c3e565b6001600160a01b03167f85082129d87b2fe11527cb1b3b7a520aeb5aa6913f88a3d8757fe40d1db02fdd82604051611f8891906142e2565b60405180910390a25b50565b606b546001600160a01b0316611fa8613c3e565b6001600160a01b031614611fce5760405162461bcd60e51b81526004016109b690614735565b608d805465ff00000000001916650100000000001790556040517f9331b2a38c658c57a39ea19b2709d928c28a12cc8fbb838d12b85148550f937d90600090a1565b608d546601000000000000900460ff1681565b6033546001600160a01b031690565b600080606560009054906101000a90046001600160a01b03166001600160a01b031663feaf968c6040518163ffffffff1660e01b815260040160a06040518083038186803b15801561208357600080fd5b505afa158015612097573d6000803e3d6000fd5b505050506040513d601f19601f820116820180604052508101906120bb9190614175565b50505091505060008112156120d15760006120d3565b805b91505090565b600581565b607c546001600160a01b031681565b608d5460ff1681565b606b546001600160a01b031661210a613c3e565b6001600160a01b0316146121305760405162461bcd60e51b81526004016109b690614735565b608d5460ff6201000090910416151581151514156121605760405162461bcd60e51b81526004016109b690614574565b608d805462ff00001916620100008315158102919091179182905560ff910416156121b3576040517f3d31b97eef590df350bb2cdbc390034c613c9f23ea6ae1906682628c85248b5390600090a1611f91565b6040517f763d36bfedf6707954f8bb39c2011a58a47a54844f2b3cdcd326c71cad0aa75390600090a150565b600881565b60408051600280825260608083018452926000929190602083019080368337505060685482519293506001600160a01b03169183915060009061223757634e487b7160e01b600052603260045260246000fd5b6001600160a01b03928316602091820292909201015260695482519116908290600190811061227657634e487b7160e01b600052603260045260246000fd5b6001600160a01b0390921660209283029190910190910152905090565b608d546301000000900460ff1681565b606b546001600160a01b03166122b7613c3e565b6001600160a01b0316146122dd5760405162461bcd60e51b81526004016109b690614735565b608154608054607f546122f09190614a57565b6122fa9190614a57565b4210156123195760405162461bcd60e51b81526004016109b6906148ec565b606c546001600160a01b03166123385760898190556070819055611f91565b612340612032565b608981905560705550565b600054610100900460ff1680612364575060005460ff16155b6123805760405162461bcd60e51b81526004016109b6906146e7565b600054610100900460ff161580156123ab576000805460ff1961ff0019909116610100171660011790555b606780546001600160a01b038087166001600160a01b03199283161790925560688054868416908316179055606980549285169290911691909117905580156123fa576000805461ff00191690555b50505050565b60835481565b8060796000612413613c3e565b6001600160a01b03168152602081019190915260400160002054101561244b5760405162461bcd60e51b81526004016109b6906148be565b60796000612457613c3e565b6001600160a01b0316815260208101919091526040016000205461248d5760405162461bcd60e51b81526004016109b69061451f565b600073__$7fd944d8f8efff7c575121b9e933203c2c$__634f160423607960006124b5613c3e565b6001600160a01b03166001600160a01b0316815260200190815260200160002084606d6040518463ffffffff1660e01b81526004016124f6939291906142f9565b60206040518083038186803b15801561250e57600080fd5b505af4158015612522573d6000803e3d6000fd5b505050506040513d601f19601f820116820180604052508101906125469190614119565b905060008073__$7fd944d8f8efff7c575121b9e933203c2c$__63f7ac9cba60796000612571613c3e565b6001600160a01b03166001600160a01b0316815260200190815260200160002086606d60766040518563ffffffff1660e01b81526004016125b5949392919061430f565b604080518083038186803b1580156125cc57600080fd5b505af41580156125e0573d6000803e3d6000fd5b505050506040513d601f19601f820116820180604052508101906126049190614152565b909250905082156127ff57607a54607b546040516370a0823160e01b815285926001600160a01b03908116926370a08231926126469290911690600401614228565b60206040518083038186803b15801561265e57600080fd5b505afa158015612672573d6000803e3d6000fd5b505050506040513d601f19601f820116820180604052508101906126969190614119565b10156126b45760405162461bcd60e51b81526004016109b6906145b6565b73__$7fd944d8f8efff7c575121b9e933203c2c$__63eaff3050607960006126da613c3e565b6001600160a01b03166001600160a01b0316815260200190815260200160002086606d6040518463ffffffff1660e01b815260040161271b939291906142f9565b60006040518083038186803b15801561273357600080fd5b505af4158015612747573d6000803e3d6000fd5b5050607b546001600160a01b0316915063e4e103dc9050612766613c3e565b856040518363ffffffff1660e01b8152600401612784929190614260565b600060405180830381600087803b15801561279e57600080fd5b505af11580156127b2573d6000803e3d6000fd5b505050506127be613c3e565b6001600160a01b03167f115e2fe760f98d4fd0828d7741ae2070e7db700f892efbfe98448b53ac583886846040516127f691906142e2565b60405180910390a25b608d54640100000000900460ff16156123fa57608554156129a45780156129a45773__$7fd944d8f8efff7c575121b9e933203c2c$__6393aaeaf960796000612846613c3e565b6001600160a01b03166001600160a01b03168152602001908152602001600020866040518363ffffffff1660e01b81526004016128849291906142eb565b60006040518083038186803b15801561289c57600080fd5b505af41580156128b0573d6000803e3d6000fd5b5050607c546001600160a01b0316915063a9059cbb90506128cf613c3e565b836040518363ffffffff1660e01b81526004016128ed929190614260565b602060405180830381600087803b15801561290757600080fd5b505af115801561291b573d6000803e3d6000fd5b505050506040513d601f19601f8201168201806040525081019061293f91906140e5565b61295b5760405162461bcd60e51b81526004016109b690614942565b612963613c3e565b6001600160a01b03167fd93fc6d1e8779271f55cdb0d5f7b6b05be64a2226a1ad050d3036f5609c1cdcf8260405161299b91906142e2565b60405180910390a25b8115612b9757607a54607b546040516370a0823160e01b815284926001600160a01b03908116926370a08231926129e19290911690600401614228565b60206040518083038186803b1580156129f957600080fd5b505afa158015612a0d573d6000803e3d6000fd5b505050506040513d601f19601f82011682018060405250810190612a319190614119565b1015612a4f5760405162461bcd60e51b81526004016109b6906145b6565b73__$7fd944d8f8efff7c575121b9e933203c2c$__6393aaeaf960796000612a75613c3e565b6001600160a01b03166001600160a01b03168152602001908152602001600020866040518363ffffffff1660e01b8152600401612ab39291906142eb565b60006040518083038186803b158015612acb57600080fd5b505af4158015612adf573d6000803e3d6000fd5b5050607b546001600160a01b0316915063e4e103dc9050612afe613c3e565b846040518363ffffffff1660e01b8152600401612b1c929190614260565b600060405180830381600087803b158015612b3657600080fd5b505af1158015612b4a573d6000803e3d6000fd5b50505050612b56613c3e565b6001600160a01b03167f723b06f6c3a94dc82019852e6aa01c0241fba5f84410b9003ddc3440ad499e5983604051612b8e91906142e2565b60405180910390a25b600073__$7fd944d8f8efff7c575121b9e933203c2c$__635eac7af360796000612bbf613c3e565b6001600160a01b03166001600160a01b03168152602001908152602001600020876040518363ffffffff1660e01b8152600401612bfd9291906142eb565b60206040518083038186803b158015612c1557600080fd5b505af4158015612c29573d6000803e3d6000fd5b505050506040513d601f19601f82011682018060405250810190612c4d9190614119565b905080156115165773__$7fd944d8f8efff7c575121b9e933203c2c$__63ec8ecc0260796000612c7b613c3e565b6001600160a01b03166001600160a01b03168152602001908152602001600020876040518363ffffffff1660e01b8152600401612cb99291906142eb565b60006040518083038186803b158015612cd157600080fd5b505af4158015612ce5573d6000803e3d6000fd5b5050607a546001600160a01b0316915063a9059cbb9050612d04613c3e565b836040518363ffffffff1660e01b8152600401612d22929190614260565b602060405180830381600087803b158015612d3c57600080fd5b505af1158015612d50573d6000803e3d6000fd5b505050506040513d601f19601f82011682018060405250810190612d7491906140e5565b50612d7d613c3e565b6001600160a01b03167f85082129d87b2fe11527cb1b3b7a520aeb5aa6913f88a3d8757fe40d1db02fdd82604051612db591906142e2565b60405180910390a25050505050565b607e80546108ec90614ac5565b6001600160a01b0382166000908152607960205260408082209051637bd64e5d60e11b815282918291829173__$7fd944d8f8efff7c575121b9e933203c2c$__9163f7ac9cba91612e2c918990606d9060769060040161430f565b604080518083038186803b158015612e4357600080fd5b505af4158015612e57573d6000803e3d6000fd5b505050506040513d601f19601f82011682018060405250810190612e7b9190614152565b9097909650945050505050565b600073__$171d2da81d2a08eb52330533595f0c4998$__63d467577060796000612eb0613c3e565b6001600160a01b03166001600160a01b03168152602001908152602001600020606d6040518363ffffffff1660e01b8152600401612eef9291906142eb565b60206040518083038186803b158015612f0757600080fd5b505af4158015612f1b573d6000803e3d6000fd5b505050506040513d601f19601f82011682018060405250810190612f3f9190614119565b905060008073__$171d2da81d2a08eb52330533595f0c4998$__6332a1b32160796000612f6a613c3e565b6001600160a01b03166001600160a01b03168152602001908152602001600020606d60766040518463ffffffff1660e01b8152600401612fac939291906142f9565b604080518083038186803b158015612fc357600080fd5b505af4158015612fd7573d6000803e3d6000fd5b505050506040513d601f19601f82011682018060405250810190612ffb9190614152565b909250905082156131f457607a54607b546040516370a0823160e01b815285926001600160a01b03908116926370a082319261303d9290911690600401614228565b60206040518083038186803b15801561305557600080fd5b505afa158015613069573d6000803e3d6000fd5b505050506040513d601f19601f8201168201806040525081019061308d9190614119565b10156130ab5760405162461bcd60e51b81526004016109b6906145b6565b73__$171d2da81d2a08eb52330533595f0c4998$__634142c652607960006130d1613c3e565b6001600160a01b03166001600160a01b03168152602001908152602001600020606d6040518363ffffffff1660e01b81526004016131109291906142eb565b60006040518083038186803b15801561312857600080fd5b505af415801561313c573d6000803e3d6000fd5b5050607b546001600160a01b0316915063e4e103dc905061315b613c3e565b856040518363ffffffff1660e01b8152600401613179929190614260565b600060405180830381600087803b15801561319357600080fd5b505af11580156131a7573d6000803e3d6000fd5b505050506131b3613c3e565b6001600160a01b03167f115e2fe760f98d4fd0828d7741ae2070e7db700f892efbfe98448b53ac583886846040516131eb91906142e2565b60405180910390a25b608d54640100000000900460ff16156137ac57608554156133975780156133975773__$171d2da81d2a08eb52330533595f0c4998$__6347dc9eee6079600061323b613c3e565b6001600160a01b03166001600160a01b031681526020019081526020016000206040518263ffffffff1660e01b815260040161327791906142e2565b60006040518083038186803b15801561328f57600080fd5b505af41580156132a3573d6000803e3d6000fd5b5050607c546001600160a01b0316915063a9059cbb90506132c2613c3e565b836040518363ffffffff1660e01b81526004016132e0929190614260565b602060405180830381600087803b1580156132fa57600080fd5b505af115801561330e573d6000803e3d6000fd5b505050506040513d601f19601f8201168201806040525081019061333291906140e5565b61334e5760405162461bcd60e51b81526004016109b690614556565b613356613c3e565b6001600160a01b03167fd93fc6d1e8779271f55cdb0d5f7b6b05be64a2226a1ad050d3036f5609c1cdcf8260405161338e91906142e2565b60405180910390a25b811561358857607a54607b546040516370a0823160e01b815284926001600160a01b03908116926370a08231926133d49290911690600401614228565b60206040518083038186803b1580156133ec57600080fd5b505afa158015613400573d6000803e3d6000fd5b505050506040513d601f19601f820116820180604052508101906134249190614119565b10156134425760405162461bcd60e51b81526004016109b6906145b6565b73__$171d2da81d2a08eb52330533595f0c4998$__6347dc9eee60796000613468613c3e565b6001600160a01b03166001600160a01b031681526020019081526020016000206040518263ffffffff1660e01b81526004016134a491906142e2565b60006040518083038186803b1580156134bc57600080fd5b505af41580156134d0573d6000803e3d6000fd5b5050607b546001600160a01b0316915063e4e103dc90506134ef613c3e565b846040518363ffffffff1660e01b815260040161350d929190614260565b600060405180830381600087803b15801561352757600080fd5b505af115801561353b573d6000803e3d6000fd5b50505050613547613c3e565b6001600160a01b03167f723b06f6c3a94dc82019852e6aa01c0241fba5f84410b9003ddc3440ad499e598360405161357f91906142e2565b60405180910390a25b600073__$60b6e19b11029f04c25a43d0435d86b2be$__63066f1dee607960006135b0613c3e565b6001600160a01b03166001600160a01b031681526020019081526020016000206040518263ffffffff1660e01b81526004016135ec91906142e2565b60206040518083038186803b15801561360457600080fd5b505af4158015613618573d6000803e3d6000fd5b505050506040513d601f19601f8201168201806040525081019061363c9190614119565b905080156123fa5773__$171d2da81d2a08eb52330533595f0c4998$__63f66d9a4d6079600061366a613c3e565b6001600160a01b03166001600160a01b031681526020019081526020016000206040518263ffffffff1660e01b81526004016136a691906142e2565b60006040518083038186803b1580156136be57600080fd5b505af41580156136d2573d6000803e3d6000fd5b5050607a546001600160a01b0316915063a9059cbb90506136f1613c3e565b836040518363ffffffff1660e01b815260040161370f929190614260565b602060405180830381600087803b15801561372957600080fd5b505af115801561373d573d6000803e3d6000fd5b505050506040513d601f19601f8201168201806040525081019061376191906140e5565b5061376a613c3e565b6001600160a01b03167f85082129d87b2fe11527cb1b3b7a520aeb5aa6913f88a3d8757fe40d1db02fdd826040516137a291906142e2565b60405180910390a2505b505050565b606c546001600160a01b031681565b6000608854600014156137d557506000610ca7565b6000805b607754811015613938576000607960006077848154811061380a57634e487b7160e01b600052603260045260246000fd5b600091825260208083206002909202909101546001600160a01b031683528201929092526040019020607780548490811061385557634e487b7160e01b600052603260045260246000fd5b9060005260206000209060020201600101548154811061388557634e487b7160e01b600052603260045260246000fd5b600091825260209182902060408051610120810182526008909302909101805480845260018201549484019490945260028101549183019190915260038101546060830152600481015460808301819052600582015460a0840152600682015460c084015260079091015460ff808216151560e085015261010091829004161515908301529092506139229161391b9190613e6c565b8490613c9e565b925050808061393090614b00565b9150506137d9565b506088546120d3908290613e78565b6066546040516370a0823160e01b81526000916001600160a01b0316906370a0823190613978903090600401614228565b60206040518083038186803b15801561399057600080fd5b505afa1580156139a4573d6000803e3d6000fd5b505050506040513d601f19601f820116820180604052508101906139c89190614119565b905090565b606b546001600160a01b031681565b60895481565b608d5465010000000000900460ff1681565b60788181548110613a0457600080fd5b6000918252602090912060029091020180546001909101546001600160a01b03909116915082565b606b546001600160a01b0316613a40613c3e565b6001600160a01b031614613a665760405162461bcd60e51b81526004016109b690614735565b606c80546001600160a01b0319169055565b606d54606e54606f5460705460715460725460735460745460755460ff808216916101009004168a565b608a5481565b607a546001600160a01b031681565b608b5481565b600080606560009054906101000a90046001600160a01b03166001600160a01b031663313ce5676040518163ffffffff1660e01b815260040160206040518083038186803b158015613b0e57600080fd5b505afa158015613b22573d6000803e3d6000fd5b505050506040513d601f19601f820116820180604052508101906120d391906141c4565b60768181548110613b5657600080fd5b60009182526020909120600290910201805460019091015490915082565b613b7c613c3e565b6001600160a01b0316613b8d612023565b6001600160a01b031614613bb35760405162461bcd60e51b81526004016109b690614776565b6001600160a01b038116613bd95760405162461bcd60e51b81526004016109b69061442f565b611f9181613e1a565b608c5481565b6066546001600160a01b031690565b607c546040516370a0823160e01b81526000916001600160a01b0316906370a0823190613978903090600401614228565b607f5481565b60778181548110613a0457600080fd5b3390565b608d805463ff000000191663010000001790556040517f2e136745550967f28b779ce8c395ca060a2f844edfb5b06631fe677f66f9e30590600090a1565b60006117168284614aae565b60006117166127106117bb8585613e6c565b60006117168284614a57565b60665460405163095ea7b360e01b81526001600160a01b039091169063095ea7b390613cdc9085908590600401614260565b602060405180830381600087803b158015613cf657600080fd5b505af1158015613d0a573d6000803e3d6000fd5b505050506040513d601f19601f82011682018060405250810190613d2e91906140e5565b50816001600160a01b03167fd77df63d9076d067d9fd7af16c3d67db48b84064c3314f5900ae919922d364a182604051613d6891906142e2565b60405180910390a25050565b6001600160a01b038416613d8757600080fd5b6067546001600160a01b03166338ed17398484613da26121e4565b88866040518663ffffffff1660e01b8152600401613dc4959493929190614981565b600060405180830381600087803b158015613dde57600080fd5b505af1158015613df2573d6000803e3d6000fd5b505050506040513d6000823e601f3d908101601f19168201604052611516919081019061400f565b603380546001600160a01b038381166001600160a01b0319831681179093556040519116919082907f8be0079c531659141344cd1fd0a4f28419497f9722a3daafe3b4186f6b6457e090600090a35050565b60006117168284614a8f565b60006117168284614a6f565b5080546000825560020290600052602060002090810190611f9191905b80821115613ec65780546001600160a01b031916815560006001820155600201613ea1565b5090565b8061032081018310156108d957600080fd5b805169ffffffffffffffffffff81168114610eae57600080fd5b600060208284031215613f07578081fd5b813561171681614b47565b600060208284031215613f23578081fd5b815161171681614b47565b600080600060608486031215613f42578182fd5b8335613f4d81614b47565b92506020840135613f5d81614b47565b91506040840135613f6d81614b47565b809150509250925092565b60008060408385031215613f8a578182fd5b8235613f9581614b47565b946020939093013593505050565b600080600060608486031215613fb7578283fd5b8335613fc281614b47565b9250602084013591506040840135613f6d81614b47565b6000806106408385031215613fec578182fd5b613ff68484613eca565b9150614006846103208501613eca565b90509250929050565b60006020808385031215614021578182fd5b825167ffffffffffffffff80821115614038578384fd5b818501915085601f83011261404b578384fd5b81518181111561405d5761405d614b31565b8381026040518582820101818110858211171561407c5761407c614b31565b604052828152858101935084860182860187018a101561409a578788fd5b8795505b838610156140bc57805185526001959095019493860193860161409e565b5098975050505050505050565b6000602082840312156140da578081fd5b813561171681614b5c565b6000602082840312156140f6578081fd5b815161171681614b5c565b600060208284031215614112578081fd5b5035919050565b60006020828403121561412a578081fd5b5051919050565b60008060408385031215614143578182fd5b50508035926020909101359150565b60008060408385031215614164578182fd5b505080516020909101519092909150565b600080600080600060a0868803121561418c578283fd5b61419586613edc565b94506020860151935060408601519250606086015191506141b860808701613edc565b90509295509295909350565b6000602082840312156141d5578081fd5b815160ff81168114611716578182fd5b6000815180845260208085019450808401835b8381101561421d5781516001600160a01b0316875295820195908201906001016141f8565b509495945050505050565b6001600160a01b0391909116815260200190565b6001600160a01b039384168152919092166020820152604081019190915260600190565b6001600160a01b03929092168252602082015260400190565b60006020825261171660208301846141e5565b60006040825261429f60408301856141e5565b828103602084810191909152845180835285820192820190845b818110156142d5578451835293830193918301916001016142b9565b5090979650505050505050565b90815260200190565b918252602082015260400190565b9283526020830191909152604082015260600190565b93845260208401929092526040830152606082015260800190565b901515815260200190565b6000602080835283518082850152825b8181101561436157858101830151858201604001528201614345565b818111156143725783604083870101525b50601f01601f1916929092016040019392505050565b60208082526017908201527f30333831207468697320696e6465782065786365656473000000000000000000604082015260600190565b6020808252601390820152720c0ccc4c08141bdbdb081a5cc81b1bd8dad959606a1b604082015260600190565b60208082526023908201527f303334302054686520706f6f6c206973206f6e6c7920544f544d2072657761726040820152623232b960e91b606082015260800190565b60208082526026908201527f4f776e61626c653a206e6577206f776e657220697320746865207a65726f206160408201526564647265737360d01b606082015260800190565b6020808252602c908201527f303336302043616e277420656e6420706f6f6c206265666f726520746865206d60408201526b617475726974792074696d6560a01b606082015260800190565b6020808252601690820152750c0ccd8c88199a5c9cdd081cda1bdd5b19081cdbdc9d60521b604082015260600190565b6020808252601490820152733033343220446561646c696e65206973206c6f7760601b604082015260600190565b6020808252601d908201527f5573657220646f6573206e6f74206861766520616e79207374616b6573000000604082015260600190565b6020808252600490820152630303332360e41b604082015260600190565b60208082526022908201527f4e6f74206368616e67696e67207468652061637469766174696f6e2073746174604082015261757360f01b606082015260800190565b60208082526024908201527f4e6f7420656e6f7567682062616c616e636520696e20726577617264206d616e60408201526330b3b2b960e11b606082015260800190565b60208082526026908201527f303331322043616e2774207374616b652061626f76652073697a6520616c6c6f60408201526531b0ba34b7b760d11b606082015260800190565b60208082526021908201527f3033373020746f74656d732063616e206e6f74206265207472616e73666572656040820152601960fa1b606082015260800190565b60208082526019908201527f3033343120416d6f756e742063616e2774206265207a65726f00000000000000604082015260600190565b60208082526015908201527469742773206e6f7420616e20656d657267656e637960581b604082015260600190565b6020808252602e908201527f496e697469616c697a61626c653a20636f6e747261637420697320616c72656160408201526d191e481a5b9a5d1a585b1a5e995960921b606082015260800190565b60208082526021908201527f303330302063616c6c6572206973206e6f74206120706f6f6c2063726561746f6040820152603960f91b606082015260800190565b6020808252818101527f4f776e61626c653a2063616c6c6572206973206e6f7420746865206f776e6572604082015260600190565b6020808252602b908201527f3033383020746869732061646472657373206469646e2774207374616b65206960408201526a1b881d1a1a5cc81c1bdbdb60aa1b606082015260800190565b60208082526017908201527f3033313320706f6f6c206973206e6f7420616374697665000000000000000000604082015260600190565b6020808252602a908201527f3033313120416d6f756e742063616e2774206265206c657373207468616e20746040820152696865206d696e696d756d60b01b606082015260800190565b60208082526027908201527f303336312057726170706564546f6b656e2052657761726473206e6f7420617660408201526661696c61626c6560c81b606082015260800190565b602080825260149082015273125b99195e08191bd95cc81b9bdd08195e1a5cdd60621b604082015260600190565b60208082526036908201527f303335302043616e277420736574206d61747572696e67207072696365206265604082015275666f726520746865206d617475726974792074696d6560501b606082015260800190565b6020808252600490820152630303333360e41b604082015260600190565b60008382526040602083015261497960408301846141e5565b949350505050565b600086825285602083015260a060408301526149a060a08301866141e5565b6001600160a01b0394909416606083015250608001529392505050565b988952602089019790975260408801959095526060870193909352608086019190915260a085015260c0840152151560e083015215156101008201526101200190565b998a5260208a019890985260408901969096526060880194909452608087019290925260a086015260c085015260e0840152151561010083015215156101208201526101400190565b60ff91909116815260200190565b60008219821115614a6a57614a6a614b1b565b500190565b600082614a8a57634e487b7160e01b81526012600452602481fd5b500490565b6000816000190483118215151615614aa957614aa9614b1b565b500290565b600082821015614ac057614ac0614b1b565b500390565b600281046001821680614ad957607f821691505b60208210811415614afa57634e487b7160e01b600052602260045260246000fd5b50919050565b6000600019821415614b1457614b14614b1b565b5060010190565b634e487b7160e01b600052601160045260246000fd5b634e487b7160e01b600052604160045260246000fd5b6001600160a01b0381168114611f9157600080fd5b8015158114611f9157600080fdfea264697066735822122082d52da3af1ace1061bf8c63dcab29e4bcda149f37bf38b8c5427789d11c8dbf64736f6c63430008000033",
  "linkReferences": {
    "contracts/libraries/CalculateRewardLib.sol": {
      "CalculateRewardLib": [
        {
          "length": 20,
          "start": 7570
        },
        {
          "length": 20,
          "start": 13740
        }
      ]
    },
    "contracts/libraries/ClaimRewardLib.sol": {
      "ClaimRewardLib": [
        {
          "length": 20,
          "start": 3123
        },
        {
          "length": 20,
          "start": 5821
        },
        {
          "length": 20,
          "start": 7756
        },
        {
          "length": 20,
          "start": 11948
        },
        {
          "length": 20,
          "start": 12134
        },
        {
          "length": 20,
          "start": 12493
        },
        {
          "length": 20,
          "start": 12855
        },
        {
          "length": 20,
          "start": 13412
        },
        {
          "length": 20,
          "start": 13926
        }
      ]
    },
    "contracts/libraries/IndexedClaimRewardLib.sol": {
      "IndexedClaimRewardLib": [
        {
          "length": 20,
          "start": 2170
        },
        {
          "length": 20,
          "start": 9393
        },
        {
          "length": 20,
          "start": 9581
        },
        {
          "length": 20,
          "start": 9942
        },
        {
          "length": 20,
          "start": 10306
        },
        {
          "length": 20,
          "start": 10865
        },
        {
          "length": 20,
          "start": 11195
        },
        {
          "length": 20,
          "start": 11383
        },
        {
          "length": 20,
          "start": 11806
        }
      ]
    }
  },
  "deployedLinkReferences": {
    "contracts/libraries/CalculateRewardLib.sol": {
      "CalculateRewardLib": [
        {
          "length": 20,
          "start": 7538
        },
        {
          "length": 20,
          "start": 13708
        }
      ]
    },
    "contracts/libraries/ClaimRewardLib.sol": {
      "ClaimRewardLib": [
        {
          "length": 20,
          "start": 3091
        },
        {
          "length": 20,
          "start": 5789
        },
        {
          "length": 20,
          "start": 7724
        },
        {
          "length": 20,
          "start": 11916
        },
        {
          "length": 20,
          "start": 12102
        },
        {
          "length": 20,
          "start": 12461
        },
        {
          "length": 20,
          "start": 12823
        },
        {
          "length": 20,
          "start": 13380
        },
        {
          "length": 20,
          "start": 13894
        }
      ]
    },
    "contracts/libraries/IndexedClaimRewardLib.sol": {
      "IndexedClaimRewardLib": [
        {
          "length": 20,
          "start": 2138
        },
        {
          "length": 20,
          "start": 9361
        },
        {
          "length": 20,
          "start": 9549
        },
        {
          "length": 20,
          "start": 9910
        },
        {
          "length": 20,
          "start": 10274
        },
        {
          "length": 20,
          "start": 10833
        },
        {
          "length": 20,
          "start": 11163
        },
        {
          "length": 20,
          "start": 11351
        },
        {
          "length": 20,
          "start": 11774
        }
      ]
    }
  },
  "devdoc": {
    "kind": "dev",
    "methods": {
      "__PriceConsumer_initialize(address)": {
        "params": {
          "_oracle": "The chainlink node oracle address to send requests"
        }
      },
      "getEstimatedWrappedTokenForUSD(uint256)": {
        "params": {
          "_amount": "Amount"
        }
      },
      "owner()": {
        "details": "Returns the address of the current owner."
      },
      "renounceOwnership()": {
        "details": "Leaves the contract without owner. It will not be possible to call `onlyOwner` functions anymore. Can only be called by the current owner. NOTE: Renouncing ownership will leave the contract without an owner, thereby removing any functionality that is only available to the owner."
      },
      "transferOwnership(address)": {
        "details": "Transfers ownership of the contract to a new account (`newOwner`). Can only be called by the current owner."
      },
      "updateMaturingPrice(uint256)": {
        "params": {
          "_price": "is ignored if oracle is not zero address.When there is no oracle, _price is the maturingPrice and is set manually by the pool creator"
        }
      }
    },
    "version": 1
  },
  "evm": {
    "bytecode": {
      "linkReferences": {
        "contracts/libraries/CalculateRewardLib.sol": {
          "CalculateRewardLib": [
            {
              "length": 20,
              "start": 7570
            },
            {
              "length": 20,
              "start": 13740
            }
          ]
        },
        "contracts/libraries/ClaimRewardLib.sol": {
          "ClaimRewardLib": [
            {
              "length": 20,
              "start": 3123
            },
            {
              "length": 20,
              "start": 5821
            },
            {
              "length": 20,
              "start": 7756
            },
            {
              "length": 20,
              "start": 11948
            },
            {
              "length": 20,
              "start": 12134
            },
            {
              "length": 20,
              "start": 12493
            },
            {
              "length": 20,
              "start": 12855
            },
            {
              "length": 20,
              "start": 13412
            },
            {
              "length": 20,
              "start": 13926
            }
          ]
        },
        "contracts/libraries/IndexedClaimRewardLib.sol": {
          "IndexedClaimRewardLib": [
            {
              "length": 20,
              "start": 2170
            },
            {
              "length": 20,
              "start": 9393
            },
            {
              "length": 20,
              "start": 9581
            },
            {
              "length": 20,
              "start": 9942
            },
            {
              "length": 20,
              "start": 10306
            },
            {
              "length": 20,
              "start": 10865
            },
            {
              "length": 20,
              "start": 11195
            },
            {
              "length": 20,
              "start": 11383
            },
            {
              "length": 20,
              "start": 11806
            }
          ]
        }
      },
      "opcodes": "PUSH1 0x80 PUSH1 0x40 MSTORE CALLVALUE DUP1 ISZERO PUSH2 0x10 JUMPI PUSH1 0x0 DUP1 REVERT JUMPDEST POP PUSH2 0x4BA0 DUP1 PUSH2 0x20 PUSH1 0x0 CODECOPY PUSH1 0x0 RETURN INVALID PUSH1 0x80 PUSH1 0x40 MSTORE CALLVALUE DUP1 ISZERO PUSH2 0x10 JUMPI PUSH1 0x0 DUP1 REVERT JUMPDEST POP PUSH1 0x4 CALLDATASIZE LT PUSH2 0x428 JUMPI PUSH1 0x0 CALLDATALOAD PUSH1 0xE0 SHR DUP1 PUSH4 0x8DA5CB5B GT PUSH2 0x22B JUMPI DUP1 PUSH4 0xC1201054 GT PUSH2 0x130 JUMPI DUP1 PUSH4 0xEB850AE1 GT PUSH2 0xB8 JUMPI DUP1 PUSH4 0xF3D9DC0D GT PUSH2 0x87 JUMPI DUP1 PUSH4 0xF3D9DC0D EQ PUSH2 0x7DA JUMPI DUP1 PUSH4 0xF5E96FC9 EQ PUSH2 0x7E2 JUMPI DUP1 PUSH4 0xF8E829C3 EQ PUSH2 0x7EA JUMPI DUP1 PUSH4 0xF8EEED62 EQ PUSH2 0x7F2 JUMPI DUP1 PUSH4 0xFD5E6DD1 EQ PUSH2 0x7FA JUMPI PUSH2 0x428 JUMP JUMPDEST DUP1 PUSH4 0xEB850AE1 EQ PUSH2 0x797 JUMPI DUP1 PUSH4 0xF0141D84 EQ PUSH2 0x79F JUMPI DUP1 PUSH4 0xF1B17A8B EQ PUSH2 0x7B4 JUMPI DUP1 PUSH4 0xF2FDE38B EQ PUSH2 0x7C7 JUMPI PUSH2 0x428 JUMP JUMPDEST DUP1 PUSH4 0xDE09EE20 GT PUSH2 0xFF JUMPI DUP1 PUSH4 0xDE09EE20 EQ PUSH2 0x740 JUMPI DUP1 PUSH4 0xDF7F92E0 EQ PUSH2 0x761 JUMPI DUP1 PUSH4 0xE0818669 EQ PUSH2 0x769 JUMPI DUP1 PUSH4 0xE425DF8C EQ PUSH2 0x787 JUMPI DUP1 PUSH4 0xE8153C93 EQ PUSH2 0x78F JUMPI PUSH2 0x428 JUMP JUMPDEST DUP1 PUSH4 0xC1201054 EQ PUSH2 0x720 JUMPI DUP1 PUSH4 0xC6C1DECD EQ PUSH2 0x728 JUMPI DUP1 PUSH4 0xD025188B EQ PUSH2 0x730 JUMPI DUP1 PUSH4 0xD7EFB6B7 EQ PUSH2 0x738 JUMPI PUSH2 0x428 JUMP JUMPDEST DUP1 PUSH4 0xA7A48681 GT PUSH2 0x1B3 JUMPI DUP1 PUSH4 0xB1DD61B6 GT PUSH2 0x182 JUMPI DUP1 PUSH4 0xB1DD61B6 EQ PUSH2 0x6ED JUMPI DUP1 PUSH4 0xB7B30170 EQ PUSH2 0x6F5 JUMPI DUP1 PUSH4 0xB88A802F EQ PUSH2 0x708 JUMPI DUP1 PUSH4 0xBECE7532 EQ PUSH2 0x710 JUMPI DUP1 PUSH4 0xBF852196 EQ PUSH2 0x718 JUMPI PUSH2 0x428 JUMP JUMPDEST DUP1 PUSH4 0xA7A48681 EQ PUSH2 0x6AC JUMPI DUP1 PUSH4 0xA8F7B346 EQ PUSH2 0x6BF JUMPI DUP1 PUSH4 0xAA7BCB57 EQ PUSH2 0x6D2 JUMPI DUP1 PUSH4 0xB1B1E1C0 EQ PUSH2 0x6DA JUMPI PUSH2 0x428 JUMP JUMPDEST DUP1 PUSH4 0xA08B2C79 GT PUSH2 0x1FA JUMPI DUP1 PUSH4 0xA08B2C79 EQ PUSH2 0x66C JUMPI DUP1 PUSH4 0xA118C9A7 EQ PUSH2 0x674 JUMPI DUP1 PUSH4 0xA150194B EQ PUSH2 0x687 JUMPI DUP1 PUSH4 0xA35EF3A7 EQ PUSH2 0x68F JUMPI DUP1 PUSH4 0xA4E2D634 EQ PUSH2 0x6A4 JUMPI PUSH2 0x428 JUMP JUMPDEST DUP1 PUSH4 0x8DA5CB5B EQ PUSH2 0x64C JUMPI DUP1 PUSH4 0x8E15F473 EQ PUSH2 0x654 JUMPI DUP1 PUSH4 0x95C2BA47 EQ PUSH2 0x65C JUMPI DUP1 PUSH4 0x996C6CC3 EQ PUSH2 0x664 JUMPI PUSH2 0x428 JUMP JUMPDEST DUP1 PUSH4 0x4C7C77FC GT PUSH2 0x331 JUMPI DUP1 PUSH4 0x785FA627 GT PUSH2 0x2B9 JUMPI DUP1 PUSH4 0x817B1CD2 GT PUSH2 0x288 JUMPI DUP1 PUSH4 0x817B1CD2 EQ PUSH2 0x604 JUMPI DUP1 PUSH4 0x850FA7CB EQ PUSH2 0x60C JUMPI DUP1 PUSH4 0x8A9920B7 EQ PUSH2 0x634 JUMPI DUP1 PUSH4 0x8BFBBCBE EQ PUSH2 0x63C JUMPI DUP1 PUSH4 0x8CF0E21E EQ PUSH2 0x644 JUMPI PUSH2 0x428 JUMP JUMPDEST DUP1 PUSH4 0x785FA627 EQ PUSH2 0x5CE JUMPI DUP1 PUSH4 0x78F4D413 EQ PUSH2 0x5D6 JUMPI DUP1 PUSH4 0x7B0472F0 EQ PUSH2 0x5E9 JUMPI DUP1 PUSH4 0x7F2B6A0D EQ PUSH2 0x5FC JUMPI PUSH2 0x428 JUMP JUMPDEST DUP1 PUSH4 0x5D2631E2 GT PUSH2 0x300 JUMPI DUP1 PUSH4 0x5D2631E2 EQ PUSH2 0x59B JUMPI DUP1 PUSH4 0x6847D0C5 EQ PUSH2 0x5AE JUMPI DUP1 PUSH4 0x6B036F45 EQ PUSH2 0x5B6 JUMPI DUP1 PUSH4 0x715018A6 EQ PUSH2 0x5BE JUMPI DUP1 PUSH4 0x73F31703 EQ PUSH2 0x5C6 JUMPI PUSH2 0x428 JUMP JUMPDEST DUP1 PUSH4 0x4C7C77FC EQ PUSH2 0x565 JUMPI DUP1 PUSH4 0x4DDC1BDC EQ PUSH2 0x578 JUMPI DUP1 PUSH4 0x4E8BFDAA EQ PUSH2 0x58B JUMPI DUP1 PUSH4 0x51EACBF0 EQ PUSH2 0x593 JUMPI PUSH2 0x428 JUMP JUMPDEST DUP1 PUSH4 0x31E244E5 GT PUSH2 0x3B4 JUMPI DUP1 PUSH4 0x4026478E GT PUSH2 0x383 JUMPI DUP1 PUSH4 0x4026478E EQ PUSH2 0x519 JUMPI DUP1 PUSH4 0x43352D61 EQ PUSH2 0x521 JUMPI DUP1 PUSH4 0x444A4902 EQ PUSH2 0x537 JUMPI DUP1 PUSH4 0x45E91319 EQ PUSH2 0x54A JUMPI DUP1 PUSH4 0x4BC4EEB2 EQ PUSH2 0x55D JUMPI PUSH2 0x428 JUMP JUMPDEST DUP1 PUSH4 0x31E244E5 EQ PUSH2 0x4D8 JUMPI DUP1 PUSH4 0x37C4F6A4 EQ PUSH2 0x4E0 JUMPI DUP1 PUSH4 0x395B3DAC EQ PUSH2 0x4F3 JUMPI DUP1 PUSH4 0x3FCDD82C EQ PUSH2 0x506 JUMPI PUSH2 0x428 JUMP JUMPDEST DUP1 PUSH4 0x238A6C74 GT PUSH2 0x3FB JUMPI DUP1 PUSH4 0x238A6C74 EQ PUSH2 0x488 JUMPI DUP1 PUSH4 0x2AA8195E EQ PUSH2 0x49D JUMPI DUP1 PUSH4 0x2D42CF7D EQ PUSH2 0x4A5 JUMPI DUP1 PUSH4 0x2D5CD1D6 EQ PUSH2 0x4AF JUMPI DUP1 PUSH4 0x2E577D07 EQ PUSH2 0x4D0 JUMPI PUSH2 0x428 JUMP JUMPDEST DUP1 PUSH4 0xD668087 EQ PUSH2 0x42D JUMPI DUP1 PUSH4 0xF4EF8A6 EQ PUSH2 0x44B JUMPI DUP1 PUSH4 0x22F3E2D4 EQ PUSH2 0x460 JUMPI DUP1 PUSH4 0x2342E480 EQ PUSH2 0x475 JUMPI JUMPDEST PUSH1 0x0 DUP1 REVERT JUMPDEST PUSH2 0x435 PUSH2 0x80D JUMP JUMPDEST PUSH1 0x40 MLOAD PUSH2 0x442 SWAP2 SWAP1 PUSH2 0x42E2 JUMP JUMPDEST PUSH1 0x40 MLOAD DUP1 SWAP2 SUB SWAP1 RETURN JUMPDEST PUSH2 0x453 PUSH2 0x813 JUMP JUMPDEST PUSH1 0x40 MLOAD PUSH2 0x442 SWAP2 SWAP1 PUSH2 0x4228 JUMP JUMPDEST PUSH2 0x468 PUSH2 0x822 JUMP JUMPDEST PUSH1 0x40 MLOAD PUSH2 0x442 SWAP2 SWAP1 PUSH2 0x432A JUMP JUMPDEST PUSH2 0x435 PUSH2 0x483 CALLDATASIZE PUSH1 0x4 PUSH2 0x3F78 JUMP JUMPDEST PUSH2 0x831 JUMP JUMPDEST PUSH2 0x490 PUSH2 0x8DF JUMP JUMPDEST PUSH1 0x40 MLOAD PUSH2 0x442 SWAP2 SWAP1 PUSH2 0x4335 JUMP JUMPDEST PUSH2 0x453 PUSH2 0x96D JUMP JUMPDEST PUSH2 0x4AD PUSH2 0x97C JUMP JUMPDEST STOP JUMPDEST PUSH2 0x4C2 PUSH2 0x4BD CALLDATASIZE PUSH1 0x4 PUSH2 0x3EF6 JUMP JUMPDEST PUSH2 0xBE6 JUMP JUMPDEST PUSH1 0x40 MLOAD PUSH2 0x442 SWAP3 SWAP2 SWAP1 PUSH2 0x42EB JUMP JUMPDEST PUSH2 0x453 PUSH2 0xC9A JUMP JUMPDEST PUSH2 0x4AD PUSH2 0xCAA JUMP JUMPDEST PUSH2 0x4AD PUSH2 0x4EE CALLDATASIZE PUSH1 0x4 PUSH2 0x3EF6 JUMP JUMPDEST PUSH2 0xCFD JUMP JUMPDEST PUSH2 0x4C2 PUSH2 0x501 CALLDATASIZE PUSH1 0x4 PUSH2 0x4131 JUMP JUMPDEST PUSH2 0xD8E JUMP JUMPDEST PUSH2 0x435 PUSH2 0x514 CALLDATASIZE PUSH1 0x4 PUSH2 0x4101 JUMP JUMPDEST PUSH2 0xDEF JUMP JUMPDEST PUSH2 0x4AD PUSH2 0xEB3 JUMP JUMPDEST PUSH2 0x529 PUSH2 0xEF5 JUMP JUMPDEST PUSH1 0x40 MLOAD PUSH2 0x442 SWAP3 SWAP2 SWAP1 PUSH2 0x428C JUMP JUMPDEST PUSH2 0x4AD PUSH2 0x545 CALLDATASIZE PUSH1 0x4 PUSH2 0x3FD9 JUMP JUMPDEST PUSH2 0x10B2 JUMP JUMPDEST PUSH2 0x468 PUSH2 0x558 CALLDATASIZE PUSH1 0x4 PUSH2 0x3F78 JUMP JUMPDEST PUSH2 0x124D JUMP JUMPDEST PUSH2 0x468 PUSH2 0x139F JUMP JUMPDEST PUSH2 0x435 PUSH2 0x573 CALLDATASIZE PUSH1 0x4 PUSH2 0x4131 JUMP JUMPDEST PUSH2 0x13AD JUMP JUMPDEST PUSH2 0x4AD PUSH2 0x586 CALLDATASIZE PUSH1 0x4 PUSH2 0x4131 JUMP JUMPDEST PUSH2 0x1431 JUMP JUMPDEST PUSH2 0x435 PUSH2 0x151D JUMP JUMPDEST PUSH2 0x435 PUSH2 0x1523 JUMP JUMPDEST PUSH2 0x4AD PUSH2 0x5A9 CALLDATASIZE PUSH1 0x4 PUSH2 0x3FA3 JUMP JUMPDEST PUSH2 0x1529 JUMP JUMPDEST PUSH2 0x435 PUSH2 0x1613 JUMP JUMPDEST PUSH2 0x435 PUSH2 0x1619 JUMP JUMPDEST PUSH2 0x4AD PUSH2 0x161F JUMP JUMPDEST PUSH2 0x435 PUSH2 0x1668 JUMP JUMPDEST PUSH2 0x435 PUSH2 0x166E JUMP JUMPDEST PUSH2 0x435 PUSH2 0x5E4 CALLDATASIZE PUSH1 0x4 PUSH2 0x3EF6 JUMP JUMPDEST PUSH2 0x1674 JUMP JUMPDEST PUSH2 0x4AD PUSH2 0x5F7 CALLDATASIZE PUSH1 0x4 PUSH2 0x4131 JUMP JUMPDEST PUSH2 0x171D JUMP JUMPDEST PUSH2 0x468 PUSH2 0x1CC7 JUMP JUMPDEST PUSH2 0x435 PUSH2 0x1CD8 JUMP JUMPDEST PUSH2 0x61F PUSH2 0x61A CALLDATASIZE PUSH1 0x4 PUSH2 0x3F78 JUMP JUMPDEST PUSH2 0x1CDE JUMP JUMPDEST PUSH1 0x40 MLOAD PUSH2 0x442 SWAP10 SWAP9 SWAP8 SWAP7 SWAP6 SWAP5 SWAP4 SWAP3 SWAP2 SWAP1 PUSH2 0x49BD JUMP JUMPDEST PUSH2 0x4AD PUSH2 0x1D4C JUMP JUMPDEST PUSH2 0x4AD PUSH2 0x1F94 JUMP JUMPDEST PUSH2 0x468 PUSH2 0x2010 JUMP JUMPDEST PUSH2 0x453 PUSH2 0x2023 JUMP JUMPDEST PUSH2 0x435 PUSH2 0x2032 JUMP JUMPDEST PUSH2 0x435 PUSH2 0x20D9 JUMP JUMPDEST PUSH2 0x453 PUSH2 0x20DE JUMP JUMPDEST PUSH2 0x468 PUSH2 0x20ED JUMP JUMPDEST PUSH2 0x4AD PUSH2 0x682 CALLDATASIZE PUSH1 0x4 PUSH2 0x40C9 JUMP JUMPDEST PUSH2 0x20F6 JUMP JUMPDEST PUSH2 0x435 PUSH2 0x21DF JUMP JUMPDEST PUSH2 0x697 PUSH2 0x21E4 JUMP JUMPDEST PUSH1 0x40 MLOAD PUSH2 0x442 SWAP2 SWAP1 PUSH2 0x4279 JUMP JUMPDEST PUSH2 0x468 PUSH2 0x2293 JUMP JUMPDEST PUSH2 0x4AD PUSH2 0x6BA CALLDATASIZE PUSH1 0x4 PUSH2 0x4101 JUMP JUMPDEST PUSH2 0x22A3 JUMP JUMPDEST PUSH2 0x4AD PUSH2 0x6CD CALLDATASIZE PUSH1 0x4 PUSH2 0x3F2E JUMP JUMPDEST PUSH2 0x234B JUMP JUMPDEST PUSH2 0x435 PUSH2 0x2400 JUMP JUMPDEST PUSH2 0x4AD PUSH2 0x6E8 CALLDATASIZE PUSH1 0x4 PUSH2 0x4101 JUMP JUMPDEST PUSH2 0x2406 JUMP JUMPDEST PUSH2 0x490 PUSH2 0x2DC4 JUMP JUMPDEST PUSH2 0x4C2 PUSH2 0x703 CALLDATASIZE PUSH1 0x4 PUSH2 0x3F78 JUMP JUMPDEST PUSH2 0x2DD1 JUMP JUMPDEST PUSH2 0x4AD PUSH2 0x2E88 JUMP JUMPDEST PUSH2 0x453 PUSH2 0x37B1 JUMP JUMPDEST PUSH2 0x435 PUSH2 0x37C0 JUMP JUMPDEST PUSH2 0x435 PUSH2 0x3947 JUMP JUMPDEST PUSH2 0x453 PUSH2 0x39CD JUMP JUMPDEST PUSH2 0x435 PUSH2 0x39DC JUMP JUMPDEST PUSH2 0x468 PUSH2 0x39E2 JUMP JUMPDEST PUSH2 0x753 PUSH2 0x74E CALLDATASIZE PUSH1 0x4 PUSH2 0x4101 JUMP JUMPDEST PUSH2 0x39F4 JUMP JUMPDEST PUSH1 0x40 MLOAD PUSH2 0x442 SWAP3 SWAP2 SWAP1 PUSH2 0x4260 JUMP JUMPDEST PUSH2 0x4AD PUSH2 0x3A2C JUMP JUMPDEST PUSH2 0x771 PUSH2 0x3A78 JUMP JUMPDEST PUSH1 0x40 MLOAD PUSH2 0x442 SWAP11 SWAP10 SWAP9 SWAP8 SWAP7 SWAP6 SWAP5 SWAP4 SWAP3 SWAP2 SWAP1 PUSH2 0x4A00 JUMP JUMPDEST PUSH2 0x435 PUSH2 0x3AA2 JUMP JUMPDEST PUSH2 0x453 PUSH2 0x3AA8 JUMP JUMPDEST PUSH2 0x435 PUSH2 0x3AB7 JUMP JUMPDEST PUSH2 0x7A7 PUSH2 0x3ABD JUMP JUMPDEST PUSH1 0x40 MLOAD PUSH2 0x442 SWAP2 SWAP1 PUSH2 0x4A49 JUMP JUMPDEST PUSH2 0x4C2 PUSH2 0x7C2 CALLDATASIZE PUSH1 0x4 PUSH2 0x4101 JUMP JUMPDEST PUSH2 0x3B46 JUMP JUMPDEST PUSH2 0x4AD PUSH2 0x7D5 CALLDATASIZE PUSH1 0x4 PUSH2 0x3EF6 JUMP JUMPDEST PUSH2 0x3B74 JUMP JUMPDEST PUSH2 0x435 PUSH2 0x3BE2 JUMP JUMPDEST PUSH2 0x453 PUSH2 0x3BE8 JUMP JUMPDEST PUSH2 0x435 PUSH2 0x3BF7 JUMP JUMPDEST PUSH2 0x435 PUSH2 0x3C28 JUMP JUMPDEST PUSH2 0x753 PUSH2 0x808 CALLDATASIZE PUSH1 0x4 PUSH2 0x4101 JUMP JUMPDEST PUSH2 0x3C2E JUMP JUMPDEST PUSH1 0x80 SLOAD DUP2 JUMP JUMPDEST PUSH1 0x7B SLOAD PUSH1 0x1 PUSH1 0x1 PUSH1 0xA0 SHL SUB AND DUP2 JUMP JUMPDEST PUSH1 0x8D SLOAD PUSH3 0x10000 SWAP1 DIV PUSH1 0xFF AND DUP2 JUMP JUMPDEST PUSH1 0x1 PUSH1 0x1 PUSH1 0xA0 SHL SUB DUP3 AND PUSH1 0x0 SWAP1 DUP2 MSTORE PUSH1 0x79 PUSH1 0x20 MSTORE PUSH1 0x40 DUP1 DUP3 KECCAK256 SWAP1 MLOAD PUSH4 0x4F160423 PUSH1 0xE0 SHL DUP2 MSTORE DUP3 SWAP2 PUSH20 0x0 SWAP2 PUSH4 0x4F160423 SWAP2 PUSH2 0x885 SWAP2 DUP8 SWAP1 PUSH1 0x6D SWAP1 PUSH1 0x4 ADD PUSH2 0x42F9 JUMP JUMPDEST PUSH1 0x20 PUSH1 0x40 MLOAD DUP1 DUP4 SUB DUP2 DUP7 DUP1 EXTCODESIZE ISZERO DUP1 ISZERO PUSH2 0x89D JUMPI PUSH1 0x0 DUP1 REVERT JUMPDEST POP GAS DELEGATECALL ISZERO DUP1 ISZERO PUSH2 0x8B1 JUMPI RETURNDATASIZE PUSH1 0x0 DUP1 RETURNDATACOPY RETURNDATASIZE PUSH1 0x0 REVERT JUMPDEST POP POP POP POP PUSH1 0x40 MLOAD RETURNDATASIZE PUSH1 0x1F NOT PUSH1 0x1F DUP3 ADD AND DUP3 ADD DUP1 PUSH1 0x40 MSTORE POP DUP2 ADD SWAP1 PUSH2 0x8D5 SWAP2 SWAP1 PUSH2 0x4119 JUMP JUMPDEST SWAP2 POP POP JUMPDEST SWAP3 SWAP2 POP POP JUMP JUMPDEST PUSH1 0x7D DUP1 SLOAD PUSH2 0x8EC SWAP1 PUSH2 0x4AC5 JUMP JUMPDEST DUP1 PUSH1 0x1F ADD PUSH1 0x20 DUP1 SWAP2 DIV MUL PUSH1 0x20 ADD PUSH1 0x40 MLOAD SWAP1 DUP2 ADD PUSH1 0x40 MSTORE DUP1 SWAP3 SWAP2 SWAP1 DUP2 DUP2 MSTORE PUSH1 0x20 ADD DUP3 DUP1 SLOAD PUSH2 0x918 SWAP1 PUSH2 0x4AC5 JUMP JUMPDEST DUP1 ISZERO PUSH2 0x965 JUMPI DUP1 PUSH1 0x1F LT PUSH2 0x93A JUMPI PUSH2 0x100 DUP1 DUP4 SLOAD DIV MUL DUP4 MSTORE SWAP2 PUSH1 0x20 ADD SWAP2 PUSH2 0x965 JUMP JUMPDEST DUP3 ADD SWAP2 SWAP1 PUSH1 0x0 MSTORE PUSH1 0x20 PUSH1 0x0 KECCAK256 SWAP1 JUMPDEST DUP2 SLOAD DUP2 MSTORE SWAP1 PUSH1 0x1 ADD SWAP1 PUSH1 0x20 ADD DUP1 DUP4 GT PUSH2 0x948 JUMPI DUP3 SWAP1 SUB PUSH1 0x1F AND DUP3 ADD SWAP2 JUMPDEST POP POP POP POP POP DUP2 JUMP JUMPDEST PUSH1 0x6A SLOAD PUSH1 0x1 PUSH1 0x1 PUSH1 0xA0 SHL SUB AND DUP2 JUMP JUMPDEST PUSH1 0x6B SLOAD PUSH1 0x1 PUSH1 0x1 PUSH1 0xA0 SHL SUB AND PUSH2 0x990 PUSH2 0x3C3E JUMP JUMPDEST PUSH1 0x1 PUSH1 0x1 PUSH1 0xA0 SHL SUB AND EQ PUSH2 0x9BF JUMPI PUSH1 0x40 MLOAD PUSH3 0x461BCD PUSH1 0xE5 SHL DUP2 MSTORE PUSH1 0x4 ADD PUSH2 0x9B6 SWAP1 PUSH2 0x4735 JUMP JUMPDEST PUSH1 0x40 MLOAD DUP1 SWAP2 SUB SWAP1 REVERT JUMPDEST PUSH1 0x81 SLOAD PUSH1 0x80 SLOAD PUSH1 0x7F SLOAD PUSH2 0x9D2 SWAP2 SWAP1 PUSH2 0x4A57 JUMP JUMPDEST PUSH2 0x9DC SWAP2 SWAP1 PUSH2 0x4A57 JUMP JUMPDEST TIMESTAMP LT ISZERO PUSH2 0x9FB JUMPI PUSH1 0x40 MLOAD PUSH3 0x461BCD PUSH1 0xE5 SHL DUP2 MSTORE PUSH1 0x4 ADD PUSH2 0x9B6 SWAP1 PUSH2 0x4475 JUMP JUMPDEST PUSH1 0x85 SLOAD ISZERO PUSH2 0xA27 JUMPI PUSH2 0xA0B PUSH2 0x3BF7 JUMP JUMPDEST PUSH2 0xA27 JUMPI PUSH1 0x40 MLOAD PUSH3 0x461BCD PUSH1 0xE5 SHL DUP2 MSTORE PUSH1 0x4 ADD PUSH2 0x9B6 SWAP1 PUSH2 0x4877 JUMP JUMPDEST PUSH1 0x77 SLOAD ISZERO PUSH2 0xA4E JUMPI PUSH1 0x78 SLOAD PUSH2 0xA4E JUMPI PUSH1 0x40 MLOAD PUSH3 0x461BCD PUSH1 0xE5 SHL DUP2 MSTORE PUSH1 0x4 ADD PUSH2 0x9B6 SWAP1 PUSH2 0x44C1 JUMP JUMPDEST PUSH1 0x8A SLOAD ISZERO PUSH2 0xA80 JUMPI PUSH1 0x0 PUSH2 0xA60 PUSH2 0x37C0 JUMP JUMPDEST SWAP1 POP PUSH2 0xA6E DUP2 PUSH1 0x8B SLOAD PUSH2 0x13AD JUMP JUMPDEST PUSH2 0xA7E JUMPI PUSH1 0x8A SLOAD PUSH1 0x8C DUP2 SWAP1 SSTORE PUSH1 0x74 SSTORE JUMPDEST POP JUMPDEST PUSH1 0x78 SLOAD PUSH1 0x0 SWAP1 PUSH1 0x19 LT PUSH2 0xA95 JUMPI PUSH1 0x78 SLOAD PUSH2 0xA98 JUMP JUMPDEST PUSH1 0x19 JUMPDEST SWAP1 POP PUSH1 0x0 JUMPDEST DUP2 DUP2 LT ISZERO PUSH2 0xB76 JUMPI PUSH2 0xAB0 DUP2 PUSH1 0x1 PUSH2 0x4A57 JUMP JUMPDEST PUSH1 0x79 PUSH1 0x0 PUSH1 0x78 DUP5 DUP2 SLOAD DUP2 LT PUSH2 0xAD5 JUMPI PUSH4 0x4E487B71 PUSH1 0xE0 SHL PUSH1 0x0 MSTORE PUSH1 0x32 PUSH1 0x4 MSTORE PUSH1 0x24 PUSH1 0x0 REVERT JUMPDEST PUSH1 0x0 SWAP2 DUP3 MSTORE PUSH1 0x20 DUP1 DUP4 KECCAK256 PUSH1 0x2 SWAP1 SWAP3 MUL SWAP1 SWAP2 ADD SLOAD PUSH1 0x1 PUSH1 0x1 PUSH1 0xA0 SHL SUB AND DUP4 MSTORE DUP3 ADD SWAP3 SWAP1 SWAP3 MSTORE PUSH1 0x40 ADD SWAP1 KECCAK256 PUSH1 0x78 DUP1 SLOAD DUP5 SWAP1 DUP2 LT PUSH2 0xB20 JUMPI PUSH4 0x4E487B71 PUSH1 0xE0 SHL PUSH1 0x0 MSTORE PUSH1 0x32 PUSH1 0x4 MSTORE PUSH1 0x24 PUSH1 0x0 REVERT JUMPDEST SWAP1 PUSH1 0x0 MSTORE PUSH1 0x20 PUSH1 0x0 KECCAK256 SWAP1 PUSH1 0x2 MUL ADD PUSH1 0x1 ADD SLOAD DUP2 SLOAD DUP2 LT PUSH2 0xB50 JUMPI PUSH4 0x4E487B71 PUSH1 0xE0 SHL PUSH1 0x0 MSTORE PUSH1 0x32 PUSH1 0x4 MSTORE PUSH1 0x24 PUSH1 0x0 REVERT JUMPDEST PUSH1 0x0 SWAP2 DUP3 MSTORE PUSH1 0x20 SWAP1 SWAP2 KECCAK256 PUSH1 0x6 PUSH1 0x8 SWAP1 SWAP3 MUL ADD ADD SSTORE DUP1 PUSH2 0xB6E DUP2 PUSH2 0x4B00 JUMP JUMPDEST SWAP2 POP POP PUSH2 0xA9D JUMP JUMPDEST POP PUSH1 0x8D DUP1 SLOAD PUSH5 0xFF00000000 NOT PUSH4 0xFF000000 NOT SWAP1 SWAP2 AND PUSH4 0x1000000 OR AND PUSH5 0x100000000 SWAP1 DUP2 OR SWAP2 DUP3 SWAP1 SSTORE PUSH1 0x75 DUP1 SLOAD SWAP2 SWAP1 SWAP3 DIV PUSH1 0xFF AND ISZERO ISZERO PUSH2 0x100 MUL PUSH2 0xFF00 NOT SWAP1 SWAP2 AND OR SWAP1 SSTORE PUSH1 0x40 MLOAD PUSH32 0xE8EF7A17C92D025D9C1EAD1C6B3CA3B44D3283D0EE954F615C5C476911F629A5 SWAP1 PUSH1 0x0 SWAP1 LOG1 POP JUMP JUMPDEST PUSH1 0x1 PUSH1 0x1 PUSH1 0xA0 SHL SUB DUP2 AND PUSH1 0x0 SWAP1 DUP2 MSTORE PUSH1 0x79 PUSH1 0x20 MSTORE PUSH1 0x40 DUP1 DUP3 KECCAK256 SWAP1 MLOAD PUSH4 0x32A1B321 PUSH1 0xE0 SHL DUP2 MSTORE DUP3 SWAP2 DUP3 SWAP2 DUP3 SWAP2 PUSH20 0x0 SWAP2 PUSH4 0x32A1B321 SWAP2 PUSH2 0xC3F SWAP2 PUSH1 0x6D SWAP1 PUSH1 0x76 SWAP1 PUSH1 0x4 ADD PUSH2 0x42F9 JUMP JUMPDEST PUSH1 0x40 DUP1 MLOAD DUP1 DUP4 SUB DUP2 DUP7 DUP1 EXTCODESIZE ISZERO DUP1 ISZERO PUSH2 0xC56 JUMPI PUSH1 0x0 DUP1 REVERT JUMPDEST POP GAS DELEGATECALL ISZERO DUP1 ISZERO PUSH2 0xC6A JUMPI RETURNDATASIZE PUSH1 0x0 DUP1 RETURNDATACOPY RETURNDATASIZE PUSH1 0x0 REVERT JUMPDEST POP POP POP POP PUSH1 0x40 MLOAD RETURNDATASIZE PUSH1 0x1F NOT PUSH1 0x1F DUP3 ADD AND DUP3 ADD DUP1 PUSH1 0x40 MSTORE POP DUP2 ADD SWAP1 PUSH2 0xC8E SWAP2 SWAP1 PUSH2 0x4152 JUMP JUMPDEST SWAP1 SWAP5 POP SWAP3 POP POP POP SWAP2 POP SWAP2 JUMP JUMPDEST PUSH1 0x67 SLOAD PUSH1 0x1 PUSH1 0x1 PUSH1 0xA0 SHL SUB AND JUMPDEST SWAP1 JUMP JUMPDEST PUSH1 0x6B SLOAD PUSH1 0x1 PUSH1 0x1 PUSH1 0xA0 SHL SUB AND PUSH2 0xCBE PUSH2 0x3C3E JUMP JUMPDEST PUSH1 0x1 PUSH1 0x1 PUSH1 0xA0 SHL SUB AND EQ PUSH2 0xCE4 JUMPI PUSH1 0x40 MLOAD PUSH3 0x461BCD PUSH1 0xE5 SHL DUP2 MSTORE PUSH1 0x4 ADD PUSH2 0x9B6 SWAP1 PUSH2 0x4735 JUMP JUMPDEST PUSH1 0x8D DUP1 SLOAD PUSH3 0xFF00FF NOT AND PUSH1 0x1 OR SWAP1 SSTORE PUSH2 0xCFB PUSH2 0x3C42 JUMP JUMPDEST JUMP JUMPDEST PUSH1 0x0 SLOAD PUSH2 0x100 SWAP1 DIV PUSH1 0xFF AND DUP1 PUSH2 0xD16 JUMPI POP PUSH1 0x0 SLOAD PUSH1 0xFF AND ISZERO JUMPDEST PUSH2 0xD32 JUMPI PUSH1 0x40 MLOAD PUSH3 0x461BCD PUSH1 0xE5 SHL DUP2 MSTORE PUSH1 0x4 ADD PUSH2 0x9B6 SWAP1 PUSH2 0x46E7 JUMP JUMPDEST PUSH1 0x0 SLOAD PUSH2 0x100 SWAP1 DIV PUSH1 0xFF AND ISZERO DUP1 ISZERO PUSH2 0xD5D JUMPI PUSH1 0x0 DUP1 SLOAD PUSH1 0xFF NOT PUSH2 0xFF00 NOT SWAP1 SWAP2 AND PUSH2 0x100 OR AND PUSH1 0x1 OR SWAP1 SSTORE JUMPDEST PUSH1 0x65 DUP1 SLOAD PUSH1 0x1 PUSH1 0x1 PUSH1 0xA0 SHL SUB NOT AND PUSH1 0x1 PUSH1 0x1 PUSH1 0xA0 SHL SUB DUP5 AND OR SWAP1 SSTORE DUP1 ISZERO PUSH2 0xD8A JUMPI PUSH1 0x0 DUP1 SLOAD PUSH2 0xFF00 NOT AND SWAP1 SSTORE JUMPDEST POP POP JUMP JUMPDEST PUSH1 0x0 DUP1 PUSH1 0x0 DUP4 PUSH1 0x86 SLOAD GT PUSH2 0xDA3 JUMPI PUSH1 0x0 PUSH2 0xDB0 JUMP JUMPDEST PUSH1 0x86 SLOAD PUSH2 0xDB0 SWAP1 DUP6 PUSH2 0x3C80 JUMP JUMPDEST SWAP1 POP DUP1 PUSH2 0xDC4 JUMPI PUSH1 0x0 DUP6 SWAP3 POP SWAP3 POP POP PUSH2 0xDE8 JUMP JUMPDEST PUSH2 0xDCE DUP6 DUP3 PUSH2 0x3C8C JUMP JUMPDEST PUSH2 0xDE2 PUSH2 0xDDB DUP8 DUP5 PUSH2 0x3C8C JUMP JUMPDEST DUP8 SWAP1 PUSH2 0x3C80 JUMP JUMPDEST SWAP3 POP SWAP3 POP POP JUMPDEST SWAP3 POP SWAP3 SWAP1 POP JUMP JUMPDEST PUSH1 0x67 SLOAD PUSH1 0x0 SWAP1 DUP2 SWAP1 PUSH1 0x1 PUSH1 0x1 PUSH1 0xA0 SHL SUB AND PUSH4 0xD06CA61F DUP5 PUSH2 0xE0E PUSH2 0x21E4 JUMP JUMPDEST PUSH1 0x40 MLOAD DUP4 PUSH4 0xFFFFFFFF AND PUSH1 0xE0 SHL DUP2 MSTORE PUSH1 0x4 ADD PUSH2 0xE2B SWAP3 SWAP2 SWAP1 PUSH2 0x4960 JUMP JUMPDEST PUSH1 0x0 PUSH1 0x40 MLOAD DUP1 DUP4 SUB DUP2 DUP7 DUP1 EXTCODESIZE ISZERO DUP1 ISZERO PUSH2 0xE43 JUMPI PUSH1 0x0 DUP1 REVERT JUMPDEST POP GAS STATICCALL ISZERO DUP1 ISZERO PUSH2 0xE57 JUMPI RETURNDATASIZE PUSH1 0x0 DUP1 RETURNDATACOPY RETURNDATASIZE PUSH1 0x0 REVERT JUMPDEST POP POP POP POP PUSH1 0x40 MLOAD RETURNDATASIZE PUSH1 0x0 DUP3 RETURNDATACOPY PUSH1 0x1F RETURNDATASIZE SWAP1 DUP2 ADD PUSH1 0x1F NOT AND DUP3 ADD PUSH1 0x40 MSTORE PUSH2 0xE7F SWAP2 SWAP1 DUP2 ADD SWAP1 PUSH2 0x400F JUMP JUMPDEST SWAP1 POP DUP1 PUSH1 0x1 DUP2 MLOAD DUP2 LT PUSH2 0xEA2 JUMPI PUSH4 0x4E487B71 PUSH1 0xE0 SHL PUSH1 0x0 MSTORE PUSH1 0x32 PUSH1 0x4 MSTORE PUSH1 0x24 PUSH1 0x0 REVERT JUMPDEST PUSH1 0x20 MUL PUSH1 0x20 ADD ADD MLOAD SWAP2 POP POP JUMPDEST SWAP2 SWAP1 POP JUMP JUMPDEST PUSH1 0x6B SLOAD PUSH1 0x1 PUSH1 0x1 PUSH1 0xA0 SHL SUB AND PUSH2 0xEC7 PUSH2 0x3C3E JUMP JUMPDEST PUSH1 0x1 PUSH1 0x1 PUSH1 0xA0 SHL SUB AND EQ PUSH2 0xEED JUMPI PUSH1 0x40 MLOAD PUSH3 0x461BCD PUSH1 0xE5 SHL DUP2 MSTORE PUSH1 0x4 ADD PUSH2 0x9B6 SWAP1 PUSH2 0x4735 JUMP JUMPDEST PUSH2 0xCFB PUSH2 0x3C42 JUMP JUMPDEST PUSH1 0x60 DUP1 PUSH1 0x0 PUSH1 0x77 DUP1 SLOAD SWAP1 POP PUSH8 0xFFFFFFFFFFFFFFFF DUP2 GT ISZERO PUSH2 0xF26 JUMPI PUSH4 0x4E487B71 PUSH1 0xE0 SHL PUSH1 0x0 MSTORE PUSH1 0x41 PUSH1 0x4 MSTORE PUSH1 0x24 PUSH1 0x0 REVERT JUMPDEST PUSH1 0x40 MLOAD SWAP1 DUP1 DUP3 MSTORE DUP1 PUSH1 0x20 MUL PUSH1 0x20 ADD DUP3 ADD PUSH1 0x40 MSTORE DUP1 ISZERO PUSH2 0xF4F JUMPI DUP2 PUSH1 0x20 ADD PUSH1 0x20 DUP3 MUL DUP1 CALLDATASIZE DUP4 CALLDATACOPY ADD SWAP1 POP JUMPDEST POP PUSH1 0x77 SLOAD SWAP1 SWAP2 POP PUSH1 0x0 SWAP1 PUSH8 0xFFFFFFFFFFFFFFFF DUP2 GT ISZERO PUSH2 0xF7F JUMPI PUSH4 0x4E487B71 PUSH1 0xE0 SHL PUSH1 0x0 MSTORE PUSH1 0x41 PUSH1 0x4 MSTORE PUSH1 0x24 PUSH1 0x0 REVERT JUMPDEST PUSH1 0x40 MLOAD SWAP1 DUP1 DUP3 MSTORE DUP1 PUSH1 0x20 MUL PUSH1 0x20 ADD DUP3 ADD PUSH1 0x40 MSTORE DUP1 ISZERO PUSH2 0xFA8 JUMPI DUP2 PUSH1 0x20 ADD PUSH1 0x20 DUP3 MUL DUP1 CALLDATASIZE DUP4 CALLDATACOPY ADD SWAP1 POP JUMPDEST POP SWAP1 POP PUSH1 0x0 JUMPDEST PUSH1 0x77 SLOAD DUP2 LT ISZERO PUSH2 0x10A8 JUMPI PUSH1 0x77 DUP2 DUP2 SLOAD DUP2 LT PUSH2 0xFD9 JUMPI PUSH4 0x4E487B71 PUSH1 0xE0 SHL PUSH1 0x0 MSTORE PUSH1 0x32 PUSH1 0x4 MSTORE PUSH1 0x24 PUSH1 0x0 REVERT JUMPDEST PUSH1 0x0 SWAP2 DUP3 MSTORE PUSH1 0x20 SWAP1 SWAP2 KECCAK256 PUSH1 0x2 SWAP1 SWAP2 MUL ADD SLOAD DUP4 MLOAD PUSH1 0x1 PUSH1 0x1 PUSH1 0xA0 SHL SUB SWAP1 SWAP2 AND SWAP1 DUP5 SWAP1 DUP4 SWAP1 DUP2 LT PUSH2 0x1018 JUMPI PUSH4 0x4E487B71 PUSH1 0xE0 SHL PUSH1 0x0 MSTORE PUSH1 0x32 PUSH1 0x4 MSTORE PUSH1 0x24 PUSH1 0x0 REVERT JUMPDEST PUSH1 0x20 MUL PUSH1 0x20 ADD ADD SWAP1 PUSH1 0x1 PUSH1 0x1 PUSH1 0xA0 SHL SUB AND SWAP1 DUP2 PUSH1 0x1 PUSH1 0x1 PUSH1 0xA0 SHL SUB AND DUP2 MSTORE POP POP PUSH1 0x77 DUP2 DUP2 SLOAD DUP2 LT PUSH2 0x1059 JUMPI PUSH4 0x4E487B71 PUSH1 0xE0 SHL PUSH1 0x0 MSTORE PUSH1 0x32 PUSH1 0x4 MSTORE PUSH1 0x24 PUSH1 0x0 REVERT JUMPDEST SWAP1 PUSH1 0x0 MSTORE PUSH1 0x20 PUSH1 0x0 KECCAK256 SWAP1 PUSH1 0x2 MUL ADD PUSH1 0x1 ADD SLOAD DUP3 DUP3 DUP2 MLOAD DUP2 LT PUSH2 0x108B JUMPI PUSH4 0x4E487B71 PUSH1 0xE0 SHL PUSH1 0x0 MSTORE PUSH1 0x32 PUSH1 0x4 MSTORE PUSH1 0x24 PUSH1 0x0 REVERT JUMPDEST PUSH1 0x20 SWAP1 DUP2 MUL SWAP2 SWAP1 SWAP2 ADD ADD MSTORE DUP1 PUSH2 0x10A0 DUP2 PUSH2 0x4B00 JUMP JUMPDEST SWAP2 POP POP PUSH2 0xFAE JUMP JUMPDEST POP SWAP1 SWAP3 POP SWAP1 POP SWAP1 SWAP2 JUMP JUMPDEST PUSH1 0x6B SLOAD PUSH1 0x1 PUSH1 0x1 PUSH1 0xA0 SHL SUB AND PUSH2 0x10C6 PUSH2 0x3C3E JUMP JUMPDEST PUSH1 0x1 PUSH1 0x1 PUSH1 0xA0 SHL SUB AND EQ PUSH2 0x10EC JUMPI PUSH1 0x40 MLOAD PUSH3 0x461BCD PUSH1 0xE5 SHL DUP2 MSTORE PUSH1 0x4 ADD PUSH2 0x9B6 SWAP1 PUSH2 0x4735 JUMP JUMPDEST PUSH1 0x78 SLOAD ISZERO PUSH2 0x1100 JUMPI PUSH2 0x1100 PUSH1 0x78 PUSH1 0x0 PUSH2 0x3E84 JUMP JUMPDEST PUSH1 0x0 JUMPDEST PUSH1 0x19 DUP2 LT ISZERO PUSH2 0x121F JUMPI PUSH1 0x0 DUP4 DUP3 PUSH1 0x19 DUP2 LT PUSH2 0x112E JUMPI PUSH4 0x4E487B71 PUSH1 0xE0 SHL PUSH1 0x0 MSTORE PUSH1 0x32 PUSH1 0x4 MSTORE PUSH1 0x24 PUSH1 0x0 REVERT JUMPDEST PUSH1 0x20 MUL ADD PUSH1 0x20 DUP2 ADD SWAP1 PUSH2 0x1141 SWAP2 SWAP1 PUSH2 0x3EF6 JUMP JUMPDEST PUSH1 0x1 PUSH1 0x1 PUSH1 0xA0 SHL SUB AND EQ ISZERO PUSH2 0x1155 JUMPI PUSH2 0x121F JUMP JUMPDEST PUSH1 0x78 PUSH1 0x40 MLOAD DUP1 PUSH1 0x40 ADD PUSH1 0x40 MSTORE DUP1 DUP6 DUP5 PUSH1 0x19 DUP2 LT PUSH2 0x1182 JUMPI PUSH4 0x4E487B71 PUSH1 0xE0 SHL PUSH1 0x0 MSTORE PUSH1 0x32 PUSH1 0x4 MSTORE PUSH1 0x24 PUSH1 0x0 REVERT JUMPDEST PUSH1 0x20 MUL ADD PUSH1 0x20 DUP2 ADD SWAP1 PUSH2 0x1195 SWAP2 SWAP1 PUSH2 0x3EF6 JUMP JUMPDEST PUSH1 0x1 PUSH1 0x1 PUSH1 0xA0 SHL SUB AND DUP2 MSTORE PUSH1 0x20 ADD DUP5 DUP5 PUSH1 0x19 DUP2 LT PUSH2 0x11C3 JUMPI PUSH4 0x4E487B71 PUSH1 0xE0 SHL PUSH1 0x0 MSTORE PUSH1 0x32 PUSH1 0x4 MSTORE PUSH1 0x24 PUSH1 0x0 REVERT JUMPDEST PUSH1 0x20 SWAP1 DUP2 MUL SWAP2 SWAP1 SWAP2 ADD CALLDATALOAD SWAP1 SWAP2 MSTORE DUP3 SLOAD PUSH1 0x1 DUP1 DUP3 ADD DUP6 SSTORE PUSH1 0x0 SWAP5 DUP6 MSTORE SWAP4 DUP3 SWAP1 KECCAK256 DUP4 MLOAD PUSH1 0x2 SWAP1 SWAP3 MUL ADD DUP1 SLOAD PUSH1 0x1 PUSH1 0x1 PUSH1 0xA0 SHL SUB NOT AND PUSH1 0x1 PUSH1 0x1 PUSH1 0xA0 SHL SUB SWAP1 SWAP3 AND SWAP2 SWAP1 SWAP2 OR DUP2 SSTORE SWAP2 ADD MLOAD SWAP2 ADD SSTORE DUP1 PUSH2 0x1217 DUP2 PUSH2 0x4B00 JUMP JUMPDEST SWAP2 POP POP PUSH2 0x1103 JUMP JUMPDEST POP PUSH1 0x40 MLOAD PUSH32 0x5C243CC6E4F210BF2DD86B8ECA0CA891D3F8AD2EB09FBF91735EB348BC199C7E SWAP1 PUSH1 0x0 SWAP1 LOG1 POP POP JUMP JUMPDEST PUSH1 0x1 PUSH1 0x1 PUSH1 0xA0 SHL SUB DUP3 AND PUSH1 0x0 SWAP1 DUP2 MSTORE PUSH1 0x79 PUSH1 0x20 SWAP1 DUP2 MSTORE PUSH1 0x40 DUP1 DUP4 KECCAK256 DUP1 SLOAD DUP3 MLOAD DUP2 DUP6 MUL DUP2 ADD DUP6 ADD SWAP1 SWAP4 MSTORE DUP1 DUP4 MSTORE DUP5 SWAP4 DUP5 SWAP1 DUP5 ADD JUMPDEST DUP3 DUP3 LT ISZERO PUSH2 0x1312 JUMPI PUSH1 0x0 DUP5 DUP2 MSTORE PUSH1 0x20 SWAP1 DUP2 SWAP1 KECCAK256 PUSH1 0x40 DUP1 MLOAD PUSH2 0x120 DUP2 ADD DUP3 MSTORE PUSH1 0x8 DUP7 MUL SWAP1 SWAP3 ADD DUP1 SLOAD DUP4 MSTORE PUSH1 0x1 DUP1 DUP3 ADD SLOAD DUP5 DUP7 ADD MSTORE PUSH1 0x2 DUP3 ADD SLOAD SWAP3 DUP5 ADD SWAP3 SWAP1 SWAP3 MSTORE PUSH1 0x3 DUP2 ADD SLOAD PUSH1 0x60 DUP5 ADD MSTORE PUSH1 0x4 DUP2 ADD SLOAD PUSH1 0x80 DUP5 ADD MSTORE PUSH1 0x5 DUP2 ADD SLOAD PUSH1 0xA0 DUP5 ADD MSTORE PUSH1 0x6 DUP2 ADD SLOAD PUSH1 0xC0 DUP5 ADD MSTORE PUSH1 0x7 ADD SLOAD PUSH1 0xFF DUP1 DUP3 AND ISZERO ISZERO PUSH1 0xE0 DUP6 ADD MSTORE PUSH2 0x100 SWAP2 DUP3 SWAP1 DIV AND ISZERO ISZERO SWAP1 DUP4 ADD MSTORE SWAP1 DUP4 MSTORE SWAP1 SWAP3 ADD SWAP2 ADD PUSH2 0x1280 JUMP JUMPDEST POP POP POP POP SWAP1 POP PUSH1 0x0 DUP2 MLOAD GT PUSH2 0x1339 JUMPI PUSH1 0x40 MLOAD PUSH3 0x461BCD PUSH1 0xE5 SHL DUP2 MSTORE PUSH1 0x4 ADD PUSH2 0x9B6 SWAP1 PUSH2 0x47AB JUMP JUMPDEST DUP1 MLOAD DUP4 LT PUSH2 0x1359 JUMPI PUSH1 0x40 MLOAD PUSH3 0x461BCD PUSH1 0xE5 SHL DUP2 MSTORE PUSH1 0x4 ADD PUSH2 0x9B6 SWAP1 PUSH2 0x4388 JUMP JUMPDEST DUP1 DUP4 DUP2 MLOAD DUP2 LT PUSH2 0x1379 JUMPI PUSH4 0x4E487B71 PUSH1 0xE0 SHL PUSH1 0x0 MSTORE PUSH1 0x32 PUSH1 0x4 MSTORE PUSH1 0x24 PUSH1 0x0 REVERT JUMPDEST PUSH1 0x20 MUL PUSH1 0x20 ADD ADD MLOAD PUSH2 0x100 ADD MLOAD ISZERO PUSH2 0x1395 JUMPI PUSH1 0x1 SWAP2 POP POP PUSH2 0x8D9 JUMP JUMPDEST POP PUSH1 0x0 SWAP4 SWAP3 POP POP POP JUMP JUMPDEST PUSH1 0x8D SLOAD PUSH2 0x100 SWAP1 DIV PUSH1 0xFF AND DUP2 JUMP JUMPDEST PUSH1 0x0 DUP3 DUP3 GT ISZERO PUSH2 0x13BF JUMPI POP PUSH1 0x0 PUSH2 0x8D9 JUMP JUMPDEST PUSH1 0x89 SLOAD DUP4 GT ISZERO PUSH2 0x1401 JUMPI PUSH1 0x89 SLOAD PUSH2 0x13D6 DUP5 DUP5 PUSH2 0x3C80 JUMP JUMPDEST GT PUSH2 0x13E3 JUMPI POP PUSH1 0x0 PUSH2 0x8D9 JUMP JUMPDEST PUSH1 0x89 SLOAD PUSH2 0x13FA SWAP1 PUSH2 0x13F4 DUP6 DUP6 PUSH2 0x3C80 JUMP JUMPDEST SWAP1 PUSH2 0x3C80 JUMP JUMPDEST SWAP1 POP PUSH2 0x8D9 JUMP JUMPDEST PUSH1 0x89 SLOAD PUSH2 0x140E DUP5 DUP5 PUSH2 0x3C9E JUMP JUMPDEST LT PUSH2 0x141B JUMPI POP PUSH1 0x0 PUSH2 0x8D9 JUMP JUMPDEST PUSH2 0x13FA PUSH2 0x1428 DUP5 DUP5 PUSH2 0x3C9E JUMP JUMPDEST PUSH1 0x89 SLOAD SWAP1 PUSH2 0x3C80 JUMP JUMPDEST PUSH1 0x6B SLOAD PUSH1 0x1 PUSH1 0x1 PUSH1 0xA0 SHL SUB AND PUSH2 0x1445 PUSH2 0x3C3E JUMP JUMPDEST PUSH1 0x1 PUSH1 0x1 PUSH1 0xA0 SHL SUB AND EQ PUSH2 0x146B JUMPI PUSH1 0x40 MLOAD PUSH3 0x461BCD PUSH1 0xE5 SHL DUP2 MSTORE PUSH1 0x4 ADD PUSH2 0x9B6 SWAP1 PUSH2 0x4735 JUMP JUMPDEST PUSH1 0x0 PUSH1 0x85 SLOAD GT PUSH2 0x148D JUMPI PUSH1 0x40 MLOAD PUSH3 0x461BCD PUSH1 0xE5 SHL DUP2 MSTORE PUSH1 0x4 ADD PUSH2 0x9B6 SWAP1 PUSH2 0x43EC JUMP JUMPDEST PUSH1 0x0 DUP3 GT PUSH2 0x14AD JUMPI PUSH1 0x40 MLOAD PUSH3 0x461BCD PUSH1 0xE5 SHL DUP2 MSTORE PUSH1 0x4 ADD PUSH2 0x9B6 SWAP1 PUSH2 0x4681 JUMP JUMPDEST TIMESTAMP DUP2 LT ISZERO PUSH2 0x14CD JUMPI PUSH1 0x40 MLOAD PUSH3 0x461BCD PUSH1 0xE5 SHL DUP2 MSTORE PUSH1 0x4 ADD PUSH2 0x9B6 SWAP1 PUSH2 0x44F1 JUMP JUMPDEST PUSH1 0x0 PUSH2 0x14D7 PUSH2 0xC9A JUMP JUMPDEST SWAP1 POP PUSH2 0x14E3 DUP2 DUP5 PUSH2 0x3CAA JUMP JUMPDEST PUSH1 0x0 PUSH2 0x14EE DUP5 PUSH2 0xDEF JUMP JUMPDEST SWAP1 POP PUSH1 0x0 PUSH2 0x1508 PUSH2 0x1501 DUP4 PUSH2 0x12C PUSH2 0x3C8C JUMP JUMPDEST DUP4 SWAP1 PUSH2 0x3C80 JUMP JUMPDEST SWAP1 POP PUSH2 0x1516 ADDRESS DUP7 DUP4 DUP8 PUSH2 0x3D74 JUMP JUMPDEST POP POP POP POP POP JUMP JUMPDEST PUSH1 0x81 SLOAD DUP2 JUMP JUMPDEST PUSH1 0x82 SLOAD DUP2 JUMP JUMPDEST PUSH1 0x6B SLOAD PUSH1 0x1 PUSH1 0x1 PUSH1 0xA0 SHL SUB AND PUSH2 0x153D PUSH2 0x3C3E JUMP JUMPDEST PUSH1 0x1 PUSH1 0x1 PUSH1 0xA0 SHL SUB AND EQ PUSH2 0x1563 JUMPI PUSH1 0x40 MLOAD PUSH3 0x461BCD PUSH1 0xE5 SHL DUP2 MSTORE PUSH1 0x4 ADD PUSH2 0x9B6 SWAP1 PUSH2 0x4735 JUMP JUMPDEST PUSH1 0x7A SLOAD PUSH1 0x1 PUSH1 0x1 PUSH1 0xA0 SHL SUB DUP5 DUP2 AND SWAP2 AND EQ ISZERO PUSH2 0x1591 JUMPI PUSH1 0x40 MLOAD PUSH3 0x461BCD PUSH1 0xE5 SHL DUP2 MSTORE PUSH1 0x4 ADD PUSH2 0x9B6 SWAP1 PUSH2 0x4640 JUMP JUMPDEST PUSH1 0x40 MLOAD PUSH4 0xA9059CBB PUSH1 0xE0 SHL DUP2 MSTORE DUP4 SWAP1 PUSH1 0x1 PUSH1 0x1 PUSH1 0xA0 SHL SUB DUP3 AND SWAP1 PUSH4 0xA9059CBB SWAP1 PUSH2 0x15C1 SWAP1 DUP6 SWAP1 DUP8 SWAP1 PUSH1 0x4 ADD PUSH2 0x4260 JUMP JUMPDEST PUSH1 0x20 PUSH1 0x40 MLOAD DUP1 DUP4 SUB DUP2 PUSH1 0x0 DUP8 DUP1 EXTCODESIZE ISZERO DUP1 ISZERO PUSH2 0x15DB JUMPI PUSH1 0x0 DUP1 REVERT JUMPDEST POP GAS CALL ISZERO DUP1 ISZERO PUSH2 0x15EF JUMPI RETURNDATASIZE PUSH1 0x0 DUP1 RETURNDATACOPY RETURNDATASIZE PUSH1 0x0 REVERT JUMPDEST POP POP POP POP PUSH1 0x40 MLOAD RETURNDATASIZE PUSH1 0x1F NOT PUSH1 0x1F DUP3 ADD AND DUP3 ADD DUP1 PUSH1 0x40 MSTORE POP DUP2 ADD SWAP1 PUSH2 0x1516 SWAP2 SWAP1 PUSH2 0x40E5 JUMP JUMPDEST PUSH1 0x86 SLOAD DUP2 JUMP JUMPDEST PUSH1 0x87 SLOAD DUP2 JUMP JUMPDEST PUSH2 0x1627 PUSH2 0x3C3E JUMP JUMPDEST PUSH1 0x1 PUSH1 0x1 PUSH1 0xA0 SHL SUB AND PUSH2 0x1638 PUSH2 0x2023 JUMP JUMPDEST PUSH1 0x1 PUSH1 0x1 PUSH1 0xA0 SHL SUB AND EQ PUSH2 0x165E JUMPI PUSH1 0x40 MLOAD PUSH3 0x461BCD PUSH1 0xE5 SHL DUP2 MSTORE PUSH1 0x4 ADD PUSH2 0x9B6 SWAP1 PUSH2 0x4776 JUMP JUMPDEST PUSH2 0xCFB PUSH1 0x0 PUSH2 0x3E1A JUMP JUMPDEST PUSH1 0x85 SLOAD DUP2 JUMP JUMPDEST PUSH1 0x84 SLOAD DUP2 JUMP JUMPDEST PUSH1 0x1 PUSH1 0x1 PUSH1 0xA0 SHL SUB DUP2 AND PUSH1 0x0 SWAP1 DUP2 MSTORE PUSH1 0x79 PUSH1 0x20 MSTORE PUSH1 0x40 DUP1 DUP3 KECCAK256 SWAP1 MLOAD PUSH4 0xD467577 PUSH1 0xE4 SHL DUP2 MSTORE DUP3 SWAP2 PUSH20 0x0 SWAP2 PUSH4 0xD4675770 SWAP2 PUSH2 0x16C6 SWAP2 PUSH1 0x6D SWAP1 PUSH1 0x4 ADD PUSH2 0x42EB JUMP JUMPDEST PUSH1 0x20 PUSH1 0x40 MLOAD DUP1 DUP4 SUB DUP2 DUP7 DUP1 EXTCODESIZE ISZERO DUP1 ISZERO PUSH2 0x16DE JUMPI PUSH1 0x0 DUP1 REVERT JUMPDEST POP GAS DELEGATECALL ISZERO DUP1 ISZERO PUSH2 0x16F2 JUMPI RETURNDATASIZE PUSH1 0x0 DUP1 RETURNDATACOPY RETURNDATASIZE PUSH1 0x0 REVERT JUMPDEST POP POP POP POP PUSH1 0x40 MLOAD RETURNDATASIZE PUSH1 0x1F NOT PUSH1 0x1F DUP3 ADD AND DUP3 ADD DUP1 PUSH1 0x40 MSTORE POP DUP2 ADD SWAP1 PUSH2 0x1716 SWAP2 SWAP1 PUSH2 0x4119 JUMP JUMPDEST SWAP4 SWAP3 POP POP POP JUMP JUMPDEST PUSH1 0x8D SLOAD PUSH3 0x10000 SWAP1 DIV PUSH1 0xFF AND DUP1 ISZERO PUSH2 0x1736 JUMPI POP PUSH1 0x7F SLOAD TIMESTAMP GT JUMPDEST PUSH2 0x1752 JUMPI PUSH1 0x40 MLOAD PUSH3 0x461BCD PUSH1 0xE5 SHL DUP2 MSTORE PUSH1 0x4 ADD PUSH2 0x9B6 SWAP1 PUSH2 0x47F6 JUMP JUMPDEST PUSH1 0x8D SLOAD PUSH4 0x1000000 SWAP1 DIV PUSH1 0xFF AND ISZERO PUSH2 0x177C JUMPI PUSH1 0x40 MLOAD PUSH3 0x461BCD PUSH1 0xE5 SHL DUP2 MSTORE PUSH1 0x4 ADD PUSH2 0x9B6 SWAP1 PUSH2 0x43BF JUMP JUMPDEST PUSH1 0x87 SLOAD DUP3 LT ISZERO PUSH2 0x179E JUMPI PUSH1 0x40 MLOAD PUSH3 0x461BCD PUSH1 0xE5 SHL DUP2 MSTORE PUSH1 0x4 ADD PUSH2 0x9B6 SWAP1 PUSH2 0x482D JUMP JUMPDEST PUSH1 0x0 PUSH2 0x17C1 PUSH1 0x64 PUSH2 0x17BB PUSH1 0x5 PUSH1 0x82 SLOAD PUSH2 0x3E6C SWAP1 SWAP2 SWAP1 PUSH4 0xFFFFFFFF AND JUMP JUMPDEST SWAP1 PUSH2 0x3E78 JUMP JUMPDEST SWAP1 POP PUSH1 0x0 PUSH1 0x7A PUSH1 0x0 SWAP1 SLOAD SWAP1 PUSH2 0x100 EXP SWAP1 DIV PUSH1 0x1 PUSH1 0x1 PUSH1 0xA0 SHL SUB AND PUSH1 0x1 PUSH1 0x1 PUSH1 0xA0 SHL SUB AND PUSH4 0x771A3A1D PUSH1 0x40 MLOAD DUP2 PUSH4 0xFFFFFFFF AND PUSH1 0xE0 SHL DUP2 MSTORE PUSH1 0x4 ADD PUSH1 0x20 PUSH1 0x40 MLOAD DUP1 DUP4 SUB DUP2 PUSH1 0x0 DUP8 DUP1 EXTCODESIZE ISZERO DUP1 ISZERO PUSH2 0x1815 JUMPI PUSH1 0x0 DUP1 REVERT JUMPDEST POP GAS CALL ISZERO DUP1 ISZERO PUSH2 0x1829 JUMPI RETURNDATASIZE PUSH1 0x0 DUP1 RETURNDATACOPY RETURNDATASIZE PUSH1 0x0 REVERT JUMPDEST POP POP POP POP PUSH1 0x40 MLOAD RETURNDATASIZE PUSH1 0x1F NOT PUSH1 0x1F DUP3 ADD AND DUP3 ADD DUP1 PUSH1 0x40 MSTORE POP DUP2 ADD SWAP1 PUSH2 0x184D SWAP2 SWAP1 PUSH2 0x4119 JUMP JUMPDEST PUSH1 0x7A SLOAD SWAP1 SWAP2 POP PUSH1 0x0 SWAP1 PUSH1 0x1 PUSH1 0x1 PUSH1 0xA0 SHL SUB AND PUSH4 0xD1ECFC68 PUSH2 0x186C PUSH2 0x3C3E JUMP JUMPDEST PUSH1 0x40 MLOAD DUP3 PUSH4 0xFFFFFFFF AND PUSH1 0xE0 SHL DUP2 MSTORE PUSH1 0x4 ADD PUSH2 0x1888 SWAP2 SWAP1 PUSH2 0x4228 JUMP JUMPDEST PUSH1 0x20 PUSH1 0x40 MLOAD DUP1 DUP4 SUB DUP2 PUSH1 0x0 DUP8 DUP1 EXTCODESIZE ISZERO DUP1 ISZERO PUSH2 0x18A2 JUMPI PUSH1 0x0 DUP1 REVERT JUMPDEST POP GAS CALL ISZERO DUP1 ISZERO PUSH2 0x18B6 JUMPI RETURNDATASIZE PUSH1 0x0 DUP1 RETURNDATACOPY RETURNDATASIZE PUSH1 0x0 REVERT JUMPDEST POP POP POP POP PUSH1 0x40 MLOAD RETURNDATASIZE PUSH1 0x1F NOT PUSH1 0x1F DUP3 ADD AND DUP3 ADD DUP1 PUSH1 0x40 MSTORE POP DUP2 ADD SWAP1 PUSH2 0x18DA SWAP2 SWAP1 PUSH2 0x40E5 JUMP JUMPDEST PUSH2 0x18ED JUMPI PUSH2 0x18E8 DUP6 DUP4 PUSH2 0x3C8C JUMP JUMPDEST PUSH2 0x18F0 JUMP JUMPDEST PUSH1 0x0 JUMPDEST PUSH1 0x82 SLOAD SWAP1 SWAP2 POP PUSH2 0x1900 SWAP1 DUP5 PUSH2 0x3C9E JUMP JUMPDEST PUSH2 0x1919 DUP3 PUSH2 0x13F4 DUP9 PUSH1 0x88 SLOAD PUSH2 0x3C9E SWAP1 SWAP2 SWAP1 PUSH4 0xFFFFFFFF AND JUMP JUMPDEST GT ISZERO PUSH2 0x1937 JUMPI PUSH1 0x40 MLOAD PUSH3 0x461BCD PUSH1 0xE5 SHL DUP2 MSTORE PUSH1 0x4 ADD PUSH2 0x9B6 SWAP1 PUSH2 0x45FA JUMP JUMPDEST PUSH1 0x0 PUSH2 0x1943 DUP7 DUP5 PUSH2 0xD8E JUMP JUMPDEST PUSH1 0x7A SLOAD SWAP1 SWAP8 POP SWAP1 SWAP2 POP PUSH1 0x1 PUSH1 0x1 PUSH1 0xA0 SHL SUB AND PUSH4 0x23B872DD PUSH2 0x1962 PUSH2 0x3C3E JUMP JUMPDEST ADDRESS PUSH2 0x196D DUP6 DUP12 PUSH2 0x4A57 JUMP JUMPDEST PUSH1 0x40 MLOAD DUP5 PUSH4 0xFFFFFFFF AND PUSH1 0xE0 SHL DUP2 MSTORE PUSH1 0x4 ADD PUSH2 0x198B SWAP4 SWAP3 SWAP2 SWAP1 PUSH2 0x423C JUMP JUMPDEST PUSH1 0x20 PUSH1 0x40 MLOAD DUP1 DUP4 SUB DUP2 PUSH1 0x0 DUP8 DUP1 EXTCODESIZE ISZERO DUP1 ISZERO PUSH2 0x19A5 JUMPI PUSH1 0x0 DUP1 REVERT JUMPDEST POP GAS CALL ISZERO DUP1 ISZERO PUSH2 0x19B9 JUMPI RETURNDATASIZE PUSH1 0x0 DUP1 RETURNDATACOPY RETURNDATASIZE PUSH1 0x0 REVERT JUMPDEST POP POP POP POP PUSH1 0x40 MLOAD RETURNDATASIZE PUSH1 0x1F NOT PUSH1 0x1F DUP3 ADD AND DUP3 ADD DUP1 PUSH1 0x40 MSTORE POP DUP2 ADD SWAP1 PUSH2 0x19DD SWAP2 SWAP1 PUSH2 0x40E5 JUMP JUMPDEST POP PUSH2 0x19E8 DUP7 DUP4 PUSH2 0x3C80 JUMP JUMPDEST SWAP6 POP DUP1 ISZERO PUSH2 0x1AE9 JUMPI PUSH1 0x7A SLOAD PUSH1 0x40 DUP1 MLOAD PUSH4 0x4A5DB0A9 PUSH1 0xE0 SHL DUP2 MSTORE SWAP1 MLOAD PUSH1 0x1 PUSH1 0x1 PUSH1 0xA0 SHL SUB SWAP1 SWAP3 AND SWAP2 PUSH4 0xA9059CBB SWAP2 DUP4 SWAP2 PUSH4 0x4A5DB0A9 SWAP2 PUSH1 0x4 DUP1 DUP3 ADD SWAP3 PUSH1 0x20 SWAP3 SWAP1 SWAP2 SWAP1 DUP3 SWAP1 SUB ADD DUP2 PUSH1 0x0 DUP8 DUP1 EXTCODESIZE ISZERO DUP1 ISZERO PUSH2 0x1A3F JUMPI PUSH1 0x0 DUP1 REVERT JUMPDEST POP GAS CALL ISZERO DUP1 ISZERO PUSH2 0x1A53 JUMPI RETURNDATASIZE PUSH1 0x0 DUP1 RETURNDATACOPY RETURNDATASIZE PUSH1 0x0 REVERT JUMPDEST POP POP POP POP PUSH1 0x40 MLOAD RETURNDATASIZE PUSH1 0x1F NOT PUSH1 0x1F DUP3 ADD AND DUP3 ADD DUP1 PUSH1 0x40 MSTORE POP DUP2 ADD SWAP1 PUSH2 0x1A77 SWAP2 SWAP1 PUSH2 0x3F12 JUMP JUMPDEST DUP4 PUSH1 0x40 MLOAD DUP4 PUSH4 0xFFFFFFFF AND PUSH1 0xE0 SHL DUP2 MSTORE PUSH1 0x4 ADD PUSH2 0x1A95 SWAP3 SWAP2 SWAP1 PUSH2 0x4260 JUMP JUMPDEST PUSH1 0x20 PUSH1 0x40 MLOAD DUP1 DUP4 SUB DUP2 PUSH1 0x0 DUP8 DUP1 EXTCODESIZE ISZERO DUP1 ISZERO PUSH2 0x1AAF JUMPI PUSH1 0x0 DUP1 REVERT JUMPDEST POP GAS CALL ISZERO DUP1 ISZERO PUSH2 0x1AC3 JUMPI RETURNDATASIZE PUSH1 0x0 DUP1 RETURNDATACOPY RETURNDATASIZE PUSH1 0x0 REVERT JUMPDEST POP POP POP POP PUSH1 0x40 MLOAD RETURNDATASIZE PUSH1 0x1F NOT PUSH1 0x1F DUP3 ADD AND DUP3 ADD DUP1 PUSH1 0x40 MSTORE POP DUP2 ADD SWAP1 PUSH2 0x1AE7 SWAP2 SWAP1 PUSH2 0x40E5 JUMP JUMPDEST POP JUMPDEST PUSH1 0x88 SLOAD PUSH2 0x1AF6 SWAP1 DUP8 PUSH2 0x3C9E JUMP JUMPDEST PUSH1 0x88 DUP2 SWAP1 SSTORE POP PUSH1 0x77 PUSH1 0x40 MLOAD DUP1 PUSH1 0x40 ADD PUSH1 0x40 MSTORE DUP1 PUSH2 0x1B11 PUSH2 0x3C3E JUMP JUMPDEST PUSH1 0x1 PUSH1 0x1 PUSH1 0xA0 SHL SUB AND DUP2 MSTORE PUSH1 0x20 ADD PUSH1 0x79 PUSH1 0x0 PUSH2 0x1B2B PUSH2 0x3C3E JUMP JUMPDEST PUSH1 0x1 PUSH1 0x1 PUSH1 0xA0 SHL SUB SWAP1 DUP2 AND DUP3 MSTORE PUSH1 0x20 DUP1 DUP4 ADD SWAP4 SWAP1 SWAP4 MSTORE PUSH1 0x40 SWAP1 SWAP2 ADD PUSH1 0x0 SWAP1 DUP2 KECCAK256 SLOAD SWAP1 SWAP4 MSTORE DUP5 SLOAD PUSH1 0x1 DUP1 DUP3 ADD DUP8 SSTORE SWAP6 DUP5 MSTORE DUP3 DUP5 KECCAK256 DUP6 MLOAD PUSH1 0x2 SWAP1 SWAP3 MUL ADD DUP1 SLOAD PUSH1 0x1 PUSH1 0x1 PUSH1 0xA0 SHL SUB NOT AND SWAP2 SWAP1 SWAP3 AND OR DUP2 SSTORE SWAP3 ADD MLOAD SWAP2 SWAP1 SWAP3 ADD SSTORE PUSH1 0x79 SWAP1 PUSH2 0x1B8C PUSH2 0x3C3E JUMP JUMPDEST PUSH1 0x1 PUSH1 0x1 PUSH1 0xA0 SHL SUB AND DUP2 MSTORE PUSH1 0x20 DUP1 DUP3 ADD SWAP3 SWAP1 SWAP3 MSTORE PUSH1 0x40 SWAP1 DUP2 ADD PUSH1 0x0 SWAP1 DUP2 KECCAK256 DUP3 MLOAD PUSH2 0x120 DUP2 ADD DUP5 MSTORE DUP11 DUP2 MSTORE TIMESTAMP DUP2 DUP7 ADD DUP2 DUP2 MSTORE SWAP5 DUP3 ADD DUP5 DUP2 MSTORE PUSH1 0x60 DUP4 ADD SWAP2 DUP3 MSTORE PUSH1 0x80 DUP4 ADD DUP13 DUP2 MSTORE PUSH1 0x0 NOT PUSH1 0xA0 DUP6 ADD DUP2 DUP2 MSTORE PUSH1 0xC0 DUP7 ADD SWAP2 DUP3 MSTORE PUSH1 0xE0 DUP7 ADD DUP9 DUP2 MSTORE PUSH2 0x100 DUP1 DUP9 ADD DUP11 DUP2 MSTORE DUP10 SLOAD PUSH1 0x1 DUP1 DUP3 ADD DUP13 SSTORE SWAP11 DUP13 MSTORE SWAP13 SWAP1 SWAP11 KECCAK256 SWAP8 MLOAD PUSH1 0x8 SWAP1 SWAP13 MUL SWAP1 SWAP8 ADD SWAP11 DUP12 SSTORE SWAP9 MLOAD SWAP7 DUP11 ADD SWAP7 SWAP1 SWAP7 SSTORE SWAP2 MLOAD PUSH1 0x2 DUP10 ADD SSTORE SWAP2 MLOAD PUSH1 0x3 DUP9 ADD SSTORE SWAP1 MLOAD PUSH1 0x4 DUP8 ADD SSTORE SWAP2 MLOAD PUSH1 0x5 DUP7 ADD SSTORE SWAP1 MLOAD PUSH1 0x6 DUP6 ADD SSTORE SWAP2 MLOAD PUSH1 0x7 SWAP1 SWAP4 ADD DUP1 SLOAD SWAP2 MLOAD PUSH1 0xFF NOT SWAP3 SWAP1 SWAP3 AND SWAP4 ISZERO ISZERO SWAP4 SWAP1 SWAP4 OR PUSH2 0xFF00 NOT AND SWAP1 ISZERO ISZERO SWAP1 SWAP2 MUL OR SWAP1 SSTORE PUSH1 0x82 SLOAD PUSH1 0x88 SLOAD LT PUSH2 0x1C75 JUMPI PUSH2 0x1C75 PUSH2 0x3C42 JUMP JUMPDEST PUSH2 0x1C7D PUSH2 0x3C3E JUMP JUMPDEST PUSH1 0x1 PUSH1 0x1 PUSH1 0xA0 SHL SUB AND PUSH32 0x5AF417134F72A9D41143ACE85B0A26DCE6F550F894F2CBC1EEEE8810603D91B6 DUP8 DUP8 PUSH1 0x40 MLOAD PUSH2 0x1CB7 SWAP3 SWAP2 SWAP1 PUSH2 0x42EB JUMP JUMPDEST PUSH1 0x40 MLOAD DUP1 SWAP2 SUB SWAP1 LOG2 POP POP POP POP POP POP JUMP JUMPDEST PUSH1 0x8D SLOAD PUSH5 0x100000000 SWAP1 DIV PUSH1 0xFF AND DUP2 JUMP JUMPDEST PUSH1 0x88 SLOAD DUP2 JUMP JUMPDEST PUSH1 0x79 PUSH1 0x20 MSTORE DUP2 PUSH1 0x0 MSTORE PUSH1 0x40 PUSH1 0x0 KECCAK256 DUP2 DUP2 SLOAD DUP2 LT PUSH2 0x1CFA JUMPI PUSH1 0x0 DUP1 REVERT JUMPDEST PUSH1 0x0 SWAP2 DUP3 MSTORE PUSH1 0x20 SWAP1 SWAP2 KECCAK256 PUSH1 0x8 SWAP1 SWAP2 MUL ADD DUP1 SLOAD PUSH1 0x1 DUP3 ADD SLOAD PUSH1 0x2 DUP4 ADD SLOAD PUSH1 0x3 DUP5 ADD SLOAD PUSH1 0x4 DUP6 ADD SLOAD PUSH1 0x5 DUP7 ADD SLOAD PUSH1 0x6 DUP8 ADD SLOAD PUSH1 0x7 SWAP1 SWAP8 ADD SLOAD SWAP6 SWAP9 POP SWAP4 SWAP7 POP SWAP2 SWAP5 SWAP1 SWAP4 SWAP2 SWAP3 SWAP2 PUSH1 0xFF DUP1 DUP3 AND SWAP2 PUSH2 0x100 SWAP1 DIV AND DUP10 JUMP JUMPDEST PUSH1 0x8D SLOAD PUSH1 0xFF AND PUSH2 0x1D6E JUMPI PUSH1 0x40 MLOAD PUSH3 0x461BCD PUSH1 0xE5 SHL DUP2 MSTORE PUSH1 0x4 ADD PUSH2 0x9B6 SWAP1 PUSH2 0x46B8 JUMP JUMPDEST PUSH1 0x0 PUSH20 0x0 PUSH4 0x66F1DEE PUSH1 0x79 PUSH1 0x0 PUSH2 0x1D96 PUSH2 0x3C3E JUMP JUMPDEST PUSH1 0x1 PUSH1 0x1 PUSH1 0xA0 SHL SUB AND PUSH1 0x1 PUSH1 0x1 PUSH1 0xA0 SHL SUB AND DUP2 MSTORE PUSH1 0x20 ADD SWAP1 DUP2 MSTORE PUSH1 0x20 ADD PUSH1 0x0 KECCAK256 PUSH1 0x40 MLOAD DUP3 PUSH4 0xFFFFFFFF AND PUSH1 0xE0 SHL DUP2 MSTORE PUSH1 0x4 ADD PUSH2 0x1DD2 SWAP2 SWAP1 PUSH2 0x42E2 JUMP JUMPDEST PUSH1 0x20 PUSH1 0x40 MLOAD DUP1 DUP4 SUB DUP2 DUP7 DUP1 EXTCODESIZE ISZERO DUP1 ISZERO PUSH2 0x1DEA JUMPI PUSH1 0x0 DUP1 REVERT JUMPDEST POP GAS DELEGATECALL ISZERO DUP1 ISZERO PUSH2 0x1DFE JUMPI RETURNDATASIZE PUSH1 0x0 DUP1 RETURNDATACOPY RETURNDATASIZE PUSH1 0x0 REVERT JUMPDEST POP POP POP POP PUSH1 0x40 MLOAD RETURNDATASIZE PUSH1 0x1F NOT PUSH1 0x1F DUP3 ADD AND DUP3 ADD DUP1 PUSH1 0x40 MSTORE POP DUP2 ADD SWAP1 PUSH2 0x1E22 SWAP2 SWAP1 PUSH2 0x4119 JUMP JUMPDEST SWAP1 POP DUP1 ISZERO PUSH2 0x1F91 JUMPI PUSH20 0x0 PUSH4 0xF66D9A4D PUSH1 0x79 PUSH1 0x0 PUSH2 0x1E50 PUSH2 0x3C3E JUMP JUMPDEST PUSH1 0x1 PUSH1 0x1 PUSH1 0xA0 SHL SUB AND PUSH1 0x1 PUSH1 0x1 PUSH1 0xA0 SHL SUB AND DUP2 MSTORE PUSH1 0x20 ADD SWAP1 DUP2 MSTORE PUSH1 0x20 ADD PUSH1 0x0 KECCAK256 PUSH1 0x40 MLOAD DUP3 PUSH4 0xFFFFFFFF AND PUSH1 0xE0 SHL DUP2 MSTORE PUSH1 0x4 ADD PUSH2 0x1E8C SWAP2 SWAP1 PUSH2 0x42E2 JUMP JUMPDEST PUSH1 0x0 PUSH1 0x40 MLOAD DUP1 DUP4 SUB DUP2 DUP7 DUP1 EXTCODESIZE ISZERO DUP1 ISZERO PUSH2 0x1EA4 JUMPI PUSH1 0x0 DUP1 REVERT JUMPDEST POP GAS DELEGATECALL ISZERO DUP1 ISZERO PUSH2 0x1EB8 JUMPI RETURNDATASIZE PUSH1 0x0 DUP1 RETURNDATACOPY RETURNDATASIZE PUSH1 0x0 REVERT JUMPDEST POP POP PUSH1 0x7A SLOAD PUSH1 0x1 PUSH1 0x1 PUSH1 0xA0 SHL SUB AND SWAP2 POP PUSH4 0xA9059CBB SWAP1 POP PUSH2 0x1ED7 PUSH2 0x3C3E JUMP JUMPDEST DUP4 PUSH1 0x40 MLOAD DUP4 PUSH4 0xFFFFFFFF AND PUSH1 0xE0 SHL DUP2 MSTORE PUSH1 0x4 ADD PUSH2 0x1EF5 SWAP3 SWAP2 SWAP1 PUSH2 0x4260 JUMP JUMPDEST PUSH1 0x20 PUSH1 0x40 MLOAD DUP1 DUP4 SUB DUP2 PUSH1 0x0 DUP8 DUP1 EXTCODESIZE ISZERO DUP1 ISZERO PUSH2 0x1F0F JUMPI PUSH1 0x0 DUP1 REVERT JUMPDEST POP GAS CALL ISZERO DUP1 ISZERO PUSH2 0x1F23 JUMPI RETURNDATASIZE PUSH1 0x0 DUP1 RETURNDATACOPY RETURNDATASIZE PUSH1 0x0 REVERT JUMPDEST POP POP POP POP PUSH1 0x40 MLOAD RETURNDATASIZE PUSH1 0x1F NOT PUSH1 0x1F DUP3 ADD AND DUP3 ADD DUP1 PUSH1 0x40 MSTORE POP DUP2 ADD SWAP1 PUSH2 0x1F47 SWAP2 SWAP1 PUSH2 0x40E5 JUMP JUMPDEST POP PUSH2 0x1F50 PUSH2 0x3C3E JUMP JUMPDEST PUSH1 0x1 PUSH1 0x1 PUSH1 0xA0 SHL SUB AND PUSH32 0x85082129D87B2FE11527CB1B3B7A520AEB5AA6913F88A3D8757FE40D1DB02FDD DUP3 PUSH1 0x40 MLOAD PUSH2 0x1F88 SWAP2 SWAP1 PUSH2 0x42E2 JUMP JUMPDEST PUSH1 0x40 MLOAD DUP1 SWAP2 SUB SWAP1 LOG2 JUMPDEST POP JUMP JUMPDEST PUSH1 0x6B SLOAD PUSH1 0x1 PUSH1 0x1 PUSH1 0xA0 SHL SUB AND PUSH2 0x1FA8 PUSH2 0x3C3E JUMP JUMPDEST PUSH1 0x1 PUSH1 0x1 PUSH1 0xA0 SHL SUB AND EQ PUSH2 0x1FCE JUMPI PUSH1 0x40 MLOAD PUSH3 0x461BCD PUSH1 0xE5 SHL DUP2 MSTORE PUSH1 0x4 ADD PUSH2 0x9B6 SWAP1 PUSH2 0x4735 JUMP JUMPDEST PUSH1 0x8D DUP1 SLOAD PUSH6 0xFF0000000000 NOT AND PUSH6 0x10000000000 OR SWAP1 SSTORE PUSH1 0x40 MLOAD PUSH32 0x9331B2A38C658C57A39EA19B2709D928C28A12CC8FBB838D12B85148550F937D SWAP1 PUSH1 0x0 SWAP1 LOG1 JUMP JUMPDEST PUSH1 0x8D SLOAD PUSH7 0x1000000000000 SWAP1 DIV PUSH1 0xFF AND DUP2 JUMP JUMPDEST PUSH1 0x33 SLOAD PUSH1 0x1 PUSH1 0x1 PUSH1 0xA0 SHL SUB AND SWAP1 JUMP JUMPDEST PUSH1 0x0 DUP1 PUSH1 0x65 PUSH1 0x0 SWAP1 SLOAD SWAP1 PUSH2 0x100 EXP SWAP1 DIV PUSH1 0x1 PUSH1 0x1 PUSH1 0xA0 SHL SUB AND PUSH1 0x1 PUSH1 0x1 PUSH1 0xA0 SHL SUB AND PUSH4 0xFEAF968C PUSH1 0x40 MLOAD DUP2 PUSH4 0xFFFFFFFF AND PUSH1 0xE0 SHL DUP2 MSTORE PUSH1 0x4 ADD PUSH1 0xA0 PUSH1 0x40 MLOAD DUP1 DUP4 SUB DUP2 DUP7 DUP1 EXTCODESIZE ISZERO DUP1 ISZERO PUSH2 0x2083 JUMPI PUSH1 0x0 DUP1 REVERT JUMPDEST POP GAS STATICCALL ISZERO DUP1 ISZERO PUSH2 0x2097 JUMPI RETURNDATASIZE PUSH1 0x0 DUP1 RETURNDATACOPY RETURNDATASIZE PUSH1 0x0 REVERT JUMPDEST POP POP POP POP PUSH1 0x40 MLOAD RETURNDATASIZE PUSH1 0x1F NOT PUSH1 0x1F DUP3 ADD AND DUP3 ADD DUP1 PUSH1 0x40 MSTORE POP DUP2 ADD SWAP1 PUSH2 0x20BB SWAP2 SWAP1 PUSH2 0x4175 JUMP JUMPDEST POP POP POP SWAP2 POP POP PUSH1 0x0 DUP2 SLT ISZERO PUSH2 0x20D1 JUMPI PUSH1 0x0 PUSH2 0x20D3 JUMP JUMPDEST DUP1 JUMPDEST SWAP2 POP POP SWAP1 JUMP JUMPDEST PUSH1 0x5 DUP2 JUMP JUMPDEST PUSH1 0x7C SLOAD PUSH1 0x1 PUSH1 0x1 PUSH1 0xA0 SHL SUB AND DUP2 JUMP JUMPDEST PUSH1 0x8D SLOAD PUSH1 0xFF AND DUP2 JUMP JUMPDEST PUSH1 0x6B SLOAD PUSH1 0x1 PUSH1 0x1 PUSH1 0xA0 SHL SUB AND PUSH2 0x210A PUSH2 0x3C3E JUMP JUMPDEST PUSH1 0x1 PUSH1 0x1 PUSH1 0xA0 SHL SUB AND EQ PUSH2 0x2130 JUMPI PUSH1 0x40 MLOAD PUSH3 0x461BCD PUSH1 0xE5 SHL DUP2 MSTORE PUSH1 0x4 ADD PUSH2 0x9B6 SWAP1 PUSH2 0x4735 JUMP JUMPDEST PUSH1 0x8D SLOAD PUSH1 0xFF PUSH3 0x10000 SWAP1 SWAP2 DIV AND ISZERO ISZERO DUP2 ISZERO ISZERO EQ ISZERO PUSH2 0x2160 JUMPI PUSH1 0x40 MLOAD PUSH3 0x461BCD PUSH1 0xE5 SHL DUP2 MSTORE PUSH1 0x4 ADD PUSH2 0x9B6 SWAP1 PUSH2 0x4574 JUMP JUMPDEST PUSH1 0x8D DUP1 SLOAD PUSH3 0xFF0000 NOT AND PUSH3 0x10000 DUP4 ISZERO ISZERO DUP2 MUL SWAP2 SWAP1 SWAP2 OR SWAP2 DUP3 SWAP1 SSTORE PUSH1 0xFF SWAP2 DIV AND ISZERO PUSH2 0x21B3 JUMPI PUSH1 0x40 MLOAD PUSH32 0x3D31B97EEF590DF350BB2CDBC390034C613C9F23EA6AE1906682628C85248B53 SWAP1 PUSH1 0x0 SWAP1 LOG1 PUSH2 0x1F91 JUMP JUMPDEST PUSH1 0x40 MLOAD PUSH32 0x763D36BFEDF6707954F8BB39C2011A58A47A54844F2B3CDCD326C71CAD0AA753 SWAP1 PUSH1 0x0 SWAP1 LOG1 POP JUMP JUMPDEST PUSH1 0x8 DUP2 JUMP JUMPDEST PUSH1 0x40 DUP1 MLOAD PUSH1 0x2 DUP1 DUP3 MSTORE PUSH1 0x60 DUP1 DUP4 ADD DUP5 MSTORE SWAP3 PUSH1 0x0 SWAP3 SWAP2 SWAP1 PUSH1 0x20 DUP4 ADD SWAP1 DUP1 CALLDATASIZE DUP4 CALLDATACOPY POP POP PUSH1 0x68 SLOAD DUP3 MLOAD SWAP3 SWAP4 POP PUSH1 0x1 PUSH1 0x1 PUSH1 0xA0 SHL SUB AND SWAP2 DUP4 SWAP2 POP PUSH1 0x0 SWAP1 PUSH2 0x2237 JUMPI PUSH4 0x4E487B71 PUSH1 0xE0 SHL PUSH1 0x0 MSTORE PUSH1 0x32 PUSH1 0x4 MSTORE PUSH1 0x24 PUSH1 0x0 REVERT JUMPDEST PUSH1 0x1 PUSH1 0x1 PUSH1 0xA0 SHL SUB SWAP3 DUP4 AND PUSH1 0x20 SWAP2 DUP3 MUL SWAP3 SWAP1 SWAP3 ADD ADD MSTORE PUSH1 0x69 SLOAD DUP3 MLOAD SWAP2 AND SWAP1 DUP3 SWAP1 PUSH1 0x1 SWAP1 DUP2 LT PUSH2 0x2276 JUMPI PUSH4 0x4E487B71 PUSH1 0xE0 SHL PUSH1 0x0 MSTORE PUSH1 0x32 PUSH1 0x4 MSTORE PUSH1 0x24 PUSH1 0x0 REVERT JUMPDEST PUSH1 0x1 PUSH1 0x1 PUSH1 0xA0 SHL SUB SWAP1 SWAP3 AND PUSH1 0x20 SWAP3 DUP4 MUL SWAP2 SWAP1 SWAP2 ADD SWAP1 SWAP2 ADD MSTORE SWAP1 POP SWAP1 JUMP JUMPDEST PUSH1 0x8D SLOAD PUSH4 0x1000000 SWAP1 DIV PUSH1 0xFF AND DUP2 JUMP JUMPDEST PUSH1 0x6B SLOAD PUSH1 0x1 PUSH1 0x1 PUSH1 0xA0 SHL SUB AND PUSH2 0x22B7 PUSH2 0x3C3E JUMP JUMPDEST PUSH1 0x1 PUSH1 0x1 PUSH1 0xA0 SHL SUB AND EQ PUSH2 0x22DD JUMPI PUSH1 0x40 MLOAD PUSH3 0x461BCD PUSH1 0xE5 SHL DUP2 MSTORE PUSH1 0x4 ADD PUSH2 0x9B6 SWAP1 PUSH2 0x4735 JUMP JUMPDEST PUSH1 0x81 SLOAD PUSH1 0x80 SLOAD PUSH1 0x7F SLOAD PUSH2 0x22F0 SWAP2 SWAP1 PUSH2 0x4A57 JUMP JUMPDEST PUSH2 0x22FA SWAP2 SWAP1 PUSH2 0x4A57 JUMP JUMPDEST TIMESTAMP LT ISZERO PUSH2 0x2319 JUMPI PUSH1 0x40 MLOAD PUSH3 0x461BCD PUSH1 0xE5 SHL DUP2 MSTORE PUSH1 0x4 ADD PUSH2 0x9B6 SWAP1 PUSH2 0x48EC JUMP JUMPDEST PUSH1 0x6C SLOAD PUSH1 0x1 PUSH1 0x1 PUSH1 0xA0 SHL SUB AND PUSH2 0x2338 JUMPI PUSH1 0x89 DUP2 SWAP1 SSTORE PUSH1 0x70 DUP2 SWAP1 SSTORE PUSH2 0x1F91 JUMP JUMPDEST PUSH2 0x2340 PUSH2 0x2032 JUMP JUMPDEST PUSH1 0x89 DUP2 SWAP1 SSTORE PUSH1 0x70 SSTORE POP JUMP JUMPDEST PUSH1 0x0 SLOAD PUSH2 0x100 SWAP1 DIV PUSH1 0xFF AND DUP1 PUSH2 0x2364 JUMPI POP PUSH1 0x0 SLOAD PUSH1 0xFF AND ISZERO JUMPDEST PUSH2 0x2380 JUMPI PUSH1 0x40 MLOAD PUSH3 0x461BCD PUSH1 0xE5 SHL DUP2 MSTORE PUSH1 0x4 ADD PUSH2 0x9B6 SWAP1 PUSH2 0x46E7 JUMP JUMPDEST PUSH1 0x0 SLOAD PUSH2 0x100 SWAP1 DIV PUSH1 0xFF AND ISZERO DUP1 ISZERO PUSH2 0x23AB JUMPI PUSH1 0x0 DUP1 SLOAD PUSH1 0xFF NOT PUSH2 0xFF00 NOT SWAP1 SWAP2 AND PUSH2 0x100 OR AND PUSH1 0x1 OR SWAP1 SSTORE JUMPDEST PUSH1 0x67 DUP1 SLOAD PUSH1 0x1 PUSH1 0x1 PUSH1 0xA0 SHL SUB DUP1 DUP8 AND PUSH1 0x1 PUSH1 0x1 PUSH1 0xA0 SHL SUB NOT SWAP3 DUP4 AND OR SWAP1 SWAP3 SSTORE PUSH1 0x68 DUP1 SLOAD DUP7 DUP5 AND SWAP1 DUP4 AND OR SWAP1 SSTORE PUSH1 0x69 DUP1 SLOAD SWAP3 DUP6 AND SWAP3 SWAP1 SWAP2 AND SWAP2 SWAP1 SWAP2 OR SWAP1 SSTORE DUP1 ISZERO PUSH2 0x23FA JUMPI PUSH1 0x0 DUP1 SLOAD PUSH2 0xFF00 NOT AND SWAP1 SSTORE JUMPDEST POP POP POP POP JUMP JUMPDEST PUSH1 0x83 SLOAD DUP2 JUMP JUMPDEST DUP1 PUSH1 0x79 PUSH1 0x0 PUSH2 0x2413 PUSH2 0x3C3E JUMP JUMPDEST PUSH1 0x1 PUSH1 0x1 PUSH1 0xA0 SHL SUB AND DUP2 MSTORE PUSH1 0x20 DUP2 ADD SWAP2 SWAP1 SWAP2 MSTORE PUSH1 0x40 ADD PUSH1 0x0 KECCAK256 SLOAD LT ISZERO PUSH2 0x244B JUMPI PUSH1 0x40 MLOAD PUSH3 0x461BCD PUSH1 0xE5 SHL DUP2 MSTORE PUSH1 0x4 ADD PUSH2 0x9B6 SWAP1 PUSH2 0x48BE JUMP JUMPDEST PUSH1 0x79 PUSH1 0x0 PUSH2 0x2457 PUSH2 0x3C3E JUMP JUMPDEST PUSH1 0x1 PUSH1 0x1 PUSH1 0xA0 SHL SUB AND DUP2 MSTORE PUSH1 0x20 DUP2 ADD SWAP2 SWAP1 SWAP2 MSTORE PUSH1 0x40 ADD PUSH1 0x0 KECCAK256 SLOAD PUSH2 0x248D JUMPI PUSH1 0x40 MLOAD PUSH3 0x461BCD PUSH1 0xE5 SHL DUP2 MSTORE PUSH1 0x4 ADD PUSH2 0x9B6 SWAP1 PUSH2 0x451F JUMP JUMPDEST PUSH1 0x0 PUSH20 0x0 PUSH4 0x4F160423 PUSH1 0x79 PUSH1 0x0 PUSH2 0x24B5 PUSH2 0x3C3E JUMP JUMPDEST PUSH1 0x1 PUSH1 0x1 PUSH1 0xA0 SHL SUB AND PUSH1 0x1 PUSH1 0x1 PUSH1 0xA0 SHL SUB AND DUP2 MSTORE PUSH1 0x20 ADD SWAP1 DUP2 MSTORE PUSH1 0x20 ADD PUSH1 0x0 KECCAK256 DUP5 PUSH1 0x6D PUSH1 0x40 MLOAD DUP5 PUSH4 0xFFFFFFFF AND PUSH1 0xE0 SHL DUP2 MSTORE PUSH1 0x4 ADD PUSH2 0x24F6 SWAP4 SWAP3 SWAP2 SWAP1 PUSH2 0x42F9 JUMP JUMPDEST PUSH1 0x20 PUSH1 0x40 MLOAD DUP1 DUP4 SUB DUP2 DUP7 DUP1 EXTCODESIZE ISZERO DUP1 ISZERO PUSH2 0x250E JUMPI PUSH1 0x0 DUP1 REVERT JUMPDEST POP GAS DELEGATECALL ISZERO DUP1 ISZERO PUSH2 0x2522 JUMPI RETURNDATASIZE PUSH1 0x0 DUP1 RETURNDATACOPY RETURNDATASIZE PUSH1 0x0 REVERT JUMPDEST POP POP POP POP PUSH1 0x40 MLOAD RETURNDATASIZE PUSH1 0x1F NOT PUSH1 0x1F DUP3 ADD AND DUP3 ADD DUP1 PUSH1 0x40 MSTORE POP DUP2 ADD SWAP1 PUSH2 0x2546 SWAP2 SWAP1 PUSH2 0x4119 JUMP JUMPDEST SWAP1 POP PUSH1 0x0 DUP1 PUSH20 0x0 PUSH4 0xF7AC9CBA PUSH1 0x79 PUSH1 0x0 PUSH2 0x2571 PUSH2 0x3C3E JUMP JUMPDEST PUSH1 0x1 PUSH1 0x1 PUSH1 0xA0 SHL SUB AND PUSH1 0x1 PUSH1 0x1 PUSH1 0xA0 SHL SUB AND DUP2 MSTORE PUSH1 0x20 ADD SWAP1 DUP2 MSTORE PUSH1 0x20 ADD PUSH1 0x0 KECCAK256 DUP7 PUSH1 0x6D PUSH1 0x76 PUSH1 0x40 MLOAD DUP6 PUSH4 0xFFFFFFFF AND PUSH1 0xE0 SHL DUP2 MSTORE PUSH1 0x4 ADD PUSH2 0x25B5 SWAP5 SWAP4 SWAP3 SWAP2 SWAP1 PUSH2 0x430F JUMP JUMPDEST PUSH1 0x40 DUP1 MLOAD DUP1 DUP4 SUB DUP2 DUP7 DUP1 EXTCODESIZE ISZERO DUP1 ISZERO PUSH2 0x25CC JUMPI PUSH1 0x0 DUP1 REVERT JUMPDEST POP GAS DELEGATECALL ISZERO DUP1 ISZERO PUSH2 0x25E0 JUMPI RETURNDATASIZE PUSH1 0x0 DUP1 RETURNDATACOPY RETURNDATASIZE PUSH1 0x0 REVERT JUMPDEST POP POP POP POP PUSH1 0x40 MLOAD RETURNDATASIZE PUSH1 0x1F NOT PUSH1 0x1F DUP3 ADD AND DUP3 ADD DUP1 PUSH1 0x40 MSTORE POP DUP2 ADD SWAP1 PUSH2 0x2604 SWAP2 SWAP1 PUSH2 0x4152 JUMP JUMPDEST SWAP1 SWAP3 POP SWAP1 POP DUP3 ISZERO PUSH2 0x27FF JUMPI PUSH1 0x7A SLOAD PUSH1 0x7B SLOAD PUSH1 0x40 MLOAD PUSH4 0x70A08231 PUSH1 0xE0 SHL DUP2 MSTORE DUP6 SWAP3 PUSH1 0x1 PUSH1 0x1 PUSH1 0xA0 SHL SUB SWAP1 DUP2 AND SWAP3 PUSH4 0x70A08231 SWAP3 PUSH2 0x2646 SWAP3 SWAP1 SWAP2 AND SWAP1 PUSH1 0x4 ADD PUSH2 0x4228 JUMP JUMPDEST PUSH1 0x20 PUSH1 0x40 MLOAD DUP1 DUP4 SUB DUP2 DUP7 DUP1 EXTCODESIZE ISZERO DUP1 ISZERO PUSH2 0x265E JUMPI PUSH1 0x0 DUP1 REVERT JUMPDEST POP GAS STATICCALL ISZERO DUP1 ISZERO PUSH2 0x2672 JUMPI RETURNDATASIZE PUSH1 0x0 DUP1 RETURNDATACOPY RETURNDATASIZE PUSH1 0x0 REVERT JUMPDEST POP POP POP POP PUSH1 0x40 MLOAD RETURNDATASIZE PUSH1 0x1F NOT PUSH1 0x1F DUP3 ADD AND DUP3 ADD DUP1 PUSH1 0x40 MSTORE POP DUP2 ADD SWAP1 PUSH2 0x2696 SWAP2 SWAP1 PUSH2 0x4119 JUMP JUMPDEST LT ISZERO PUSH2 0x26B4 JUMPI PUSH1 0x40 MLOAD PUSH3 0x461BCD PUSH1 0xE5 SHL DUP2 MSTORE PUSH1 0x4 ADD PUSH2 0x9B6 SWAP1 PUSH2 0x45B6 JUMP JUMPDEST PUSH20 0x0 PUSH4 0xEAFF3050 PUSH1 0x79 PUSH1 0x0 PUSH2 0x26DA PUSH2 0x3C3E JUMP JUMPDEST PUSH1 0x1 PUSH1 0x1 PUSH1 0xA0 SHL SUB AND PUSH1 0x1 PUSH1 0x1 PUSH1 0xA0 SHL SUB AND DUP2 MSTORE PUSH1 0x20 ADD SWAP1 DUP2 MSTORE PUSH1 0x20 ADD PUSH1 0x0 KECCAK256 DUP7 PUSH1 0x6D PUSH1 0x40 MLOAD DUP5 PUSH4 0xFFFFFFFF AND PUSH1 0xE0 SHL DUP2 MSTORE PUSH1 0x4 ADD PUSH2 0x271B SWAP4 SWAP3 SWAP2 SWAP1 PUSH2 0x42F9 JUMP JUMPDEST PUSH1 0x0 PUSH1 0x40 MLOAD DUP1 DUP4 SUB DUP2 DUP7 DUP1 EXTCODESIZE ISZERO DUP1 ISZERO PUSH2 0x2733 JUMPI PUSH1 0x0 DUP1 REVERT JUMPDEST POP GAS DELEGATECALL ISZERO DUP1 ISZERO PUSH2 0x2747 JUMPI RETURNDATASIZE PUSH1 0x0 DUP1 RETURNDATACOPY RETURNDATASIZE PUSH1 0x0 REVERT JUMPDEST POP POP PUSH1 0x7B SLOAD PUSH1 0x1 PUSH1 0x1 PUSH1 0xA0 SHL SUB AND SWAP2 POP PUSH4 0xE4E103DC SWAP1 POP PUSH2 0x2766 PUSH2 0x3C3E JUMP JUMPDEST DUP6 PUSH1 0x40 MLOAD DUP4 PUSH4 0xFFFFFFFF AND PUSH1 0xE0 SHL DUP2 MSTORE PUSH1 0x4 ADD PUSH2 0x2784 SWAP3 SWAP2 SWAP1 PUSH2 0x4260 JUMP JUMPDEST PUSH1 0x0 PUSH1 0x40 MLOAD DUP1 DUP4 SUB DUP2 PUSH1 0x0 DUP8 DUP1 EXTCODESIZE ISZERO DUP1 ISZERO PUSH2 0x279E JUMPI PUSH1 0x0 DUP1 REVERT JUMPDEST POP GAS CALL ISZERO DUP1 ISZERO PUSH2 0x27B2 JUMPI RETURNDATASIZE PUSH1 0x0 DUP1 RETURNDATACOPY RETURNDATASIZE PUSH1 0x0 REVERT JUMPDEST POP POP POP POP PUSH2 0x27BE PUSH2 0x3C3E JUMP JUMPDEST PUSH1 0x1 PUSH1 0x1 PUSH1 0xA0 SHL SUB AND PUSH32 0x115E2FE760F98D4FD0828D7741AE2070E7DB700F892EFBFE98448B53AC583886 DUP5 PUSH1 0x40 MLOAD PUSH2 0x27F6 SWAP2 SWAP1 PUSH2 0x42E2 JUMP JUMPDEST PUSH1 0x40 MLOAD DUP1 SWAP2 SUB SWAP1 LOG2 JUMPDEST PUSH1 0x8D SLOAD PUSH5 0x100000000 SWAP1 DIV PUSH1 0xFF AND ISZERO PUSH2 0x23FA JUMPI PUSH1 0x85 SLOAD ISZERO PUSH2 0x29A4 JUMPI DUP1 ISZERO PUSH2 0x29A4 JUMPI PUSH20 0x0 PUSH4 0x93AAEAF9 PUSH1 0x79 PUSH1 0x0 PUSH2 0x2846 PUSH2 0x3C3E JUMP JUMPDEST PUSH1 0x1 PUSH1 0x1 PUSH1 0xA0 SHL SUB AND PUSH1 0x1 PUSH1 0x1 PUSH1 0xA0 SHL SUB AND DUP2 MSTORE PUSH1 0x20 ADD SWAP1 DUP2 MSTORE PUSH1 0x20 ADD PUSH1 0x0 KECCAK256 DUP7 PUSH1 0x40 MLOAD DUP4 PUSH4 0xFFFFFFFF AND PUSH1 0xE0 SHL DUP2 MSTORE PUSH1 0x4 ADD PUSH2 0x2884 SWAP3 SWAP2 SWAP1 PUSH2 0x42EB JUMP JUMPDEST PUSH1 0x0 PUSH1 0x40 MLOAD DUP1 DUP4 SUB DUP2 DUP7 DUP1 EXTCODESIZE ISZERO DUP1 ISZERO PUSH2 0x289C JUMPI PUSH1 0x0 DUP1 REVERT JUMPDEST POP GAS DELEGATECALL ISZERO DUP1 ISZERO PUSH2 0x28B0 JUMPI RETURNDATASIZE PUSH1 0x0 DUP1 RETURNDATACOPY RETURNDATASIZE PUSH1 0x0 REVERT JUMPDEST POP POP PUSH1 0x7C SLOAD PUSH1 0x1 PUSH1 0x1 PUSH1 0xA0 SHL SUB AND SWAP2 POP PUSH4 0xA9059CBB SWAP1 POP PUSH2 0x28CF PUSH2 0x3C3E JUMP JUMPDEST DUP4 PUSH1 0x40 MLOAD DUP4 PUSH4 0xFFFFFFFF AND PUSH1 0xE0 SHL DUP2 MSTORE PUSH1 0x4 ADD PUSH2 0x28ED SWAP3 SWAP2 SWAP1 PUSH2 0x4260 JUMP JUMPDEST PUSH1 0x20 PUSH1 0x40 MLOAD DUP1 DUP4 SUB DUP2 PUSH1 0x0 DUP8 DUP1 EXTCODESIZE ISZERO DUP1 ISZERO PUSH2 0x2907 JUMPI PUSH1 0x0 DUP1 REVERT JUMPDEST POP GAS CALL ISZERO DUP1 ISZERO PUSH2 0x291B JUMPI RETURNDATASIZE PUSH1 0x0 DUP1 RETURNDATACOPY RETURNDATASIZE PUSH1 0x0 REVERT JUMPDEST POP POP POP POP PUSH1 0x40 MLOAD RETURNDATASIZE PUSH1 0x1F NOT PUSH1 0x1F DUP3 ADD AND DUP3 ADD DUP1 PUSH1 0x40 MSTORE POP DUP2 ADD SWAP1 PUSH2 0x293F SWAP2 SWAP1 PUSH2 0x40E5 JUMP JUMPDEST PUSH2 0x295B JUMPI PUSH1 0x40 MLOAD PUSH3 0x461BCD PUSH1 0xE5 SHL DUP2 MSTORE PUSH1 0x4 ADD PUSH2 0x9B6 SWAP1 PUSH2 0x4942 JUMP JUMPDEST PUSH2 0x2963 PUSH2 0x3C3E JUMP JUMPDEST PUSH1 0x1 PUSH1 0x1 PUSH1 0xA0 SHL SUB AND PUSH32 0xD93FC6D1E8779271F55CDB0D5F7B6B05BE64A2226A1AD050D3036F5609C1CDCF DUP3 PUSH1 0x40 MLOAD PUSH2 0x299B SWAP2 SWAP1 PUSH2 0x42E2 JUMP JUMPDEST PUSH1 0x40 MLOAD DUP1 SWAP2 SUB SWAP1 LOG2 JUMPDEST DUP2 ISZERO PUSH2 0x2B97 JUMPI PUSH1 0x7A SLOAD PUSH1 0x7B SLOAD PUSH1 0x40 MLOAD PUSH4 0x70A08231 PUSH1 0xE0 SHL DUP2 MSTORE DUP5 SWAP3 PUSH1 0x1 PUSH1 0x1 PUSH1 0xA0 SHL SUB SWAP1 DUP2 AND SWAP3 PUSH4 0x70A08231 SWAP3 PUSH2 0x29E1 SWAP3 SWAP1 SWAP2 AND SWAP1 PUSH1 0x4 ADD PUSH2 0x4228 JUMP JUMPDEST PUSH1 0x20 PUSH1 0x40 MLOAD DUP1 DUP4 SUB DUP2 DUP7 DUP1 EXTCODESIZE ISZERO DUP1 ISZERO PUSH2 0x29F9 JUMPI PUSH1 0x0 DUP1 REVERT JUMPDEST POP GAS STATICCALL ISZERO DUP1 ISZERO PUSH2 0x2A0D JUMPI RETURNDATASIZE PUSH1 0x0 DUP1 RETURNDATACOPY RETURNDATASIZE PUSH1 0x0 REVERT JUMPDEST POP POP POP POP PUSH1 0x40 MLOAD RETURNDATASIZE PUSH1 0x1F NOT PUSH1 0x1F DUP3 ADD AND DUP3 ADD DUP1 PUSH1 0x40 MSTORE POP DUP2 ADD SWAP1 PUSH2 0x2A31 SWAP2 SWAP1 PUSH2 0x4119 JUMP JUMPDEST LT ISZERO PUSH2 0x2A4F JUMPI PUSH1 0x40 MLOAD PUSH3 0x461BCD PUSH1 0xE5 SHL DUP2 MSTORE PUSH1 0x4 ADD PUSH2 0x9B6 SWAP1 PUSH2 0x45B6 JUMP JUMPDEST PUSH20 0x0 PUSH4 0x93AAEAF9 PUSH1 0x79 PUSH1 0x0 PUSH2 0x2A75 PUSH2 0x3C3E JUMP JUMPDEST PUSH1 0x1 PUSH1 0x1 PUSH1 0xA0 SHL SUB AND PUSH1 0x1 PUSH1 0x1 PUSH1 0xA0 SHL SUB AND DUP2 MSTORE PUSH1 0x20 ADD SWAP1 DUP2 MSTORE PUSH1 0x20 ADD PUSH1 0x0 KECCAK256 DUP7 PUSH1 0x40 MLOAD DUP4 PUSH4 0xFFFFFFFF AND PUSH1 0xE0 SHL DUP2 MSTORE PUSH1 0x4 ADD PUSH2 0x2AB3 SWAP3 SWAP2 SWAP1 PUSH2 0x42EB JUMP JUMPDEST PUSH1 0x0 PUSH1 0x40 MLOAD DUP1 DUP4 SUB DUP2 DUP7 DUP1 EXTCODESIZE ISZERO DUP1 ISZERO PUSH2 0x2ACB JUMPI PUSH1 0x0 DUP1 REVERT JUMPDEST POP GAS DELEGATECALL ISZERO DUP1 ISZERO PUSH2 0x2ADF JUMPI RETURNDATASIZE PUSH1 0x0 DUP1 RETURNDATACOPY RETURNDATASIZE PUSH1 0x0 REVERT JUMPDEST POP POP PUSH1 0x7B SLOAD PUSH1 0x1 PUSH1 0x1 PUSH1 0xA0 SHL SUB AND SWAP2 POP PUSH4 0xE4E103DC SWAP1 POP PUSH2 0x2AFE PUSH2 0x3C3E JUMP JUMPDEST DUP5 PUSH1 0x40 MLOAD DUP4 PUSH4 0xFFFFFFFF AND PUSH1 0xE0 SHL DUP2 MSTORE PUSH1 0x4 ADD PUSH2 0x2B1C SWAP3 SWAP2 SWAP1 PUSH2 0x4260 JUMP JUMPDEST PUSH1 0x0 PUSH1 0x40 MLOAD DUP1 DUP4 SUB DUP2 PUSH1 0x0 DUP8 DUP1 EXTCODESIZE ISZERO DUP1 ISZERO PUSH2 0x2B36 JUMPI PUSH1 0x0 DUP1 REVERT JUMPDEST POP GAS CALL ISZERO DUP1 ISZERO PUSH2 0x2B4A JUMPI RETURNDATASIZE PUSH1 0x0 DUP1 RETURNDATACOPY RETURNDATASIZE PUSH1 0x0 REVERT JUMPDEST POP POP POP POP PUSH2 0x2B56 PUSH2 0x3C3E JUMP JUMPDEST PUSH1 0x1 PUSH1 0x1 PUSH1 0xA0 SHL SUB AND PUSH32 0x723B06F6C3A94DC82019852E6AA01C0241FBA5F84410B9003DDC3440AD499E59 DUP4 PUSH1 0x40 MLOAD PUSH2 0x2B8E SWAP2 SWAP1 PUSH2 0x42E2 JUMP JUMPDEST PUSH1 0x40 MLOAD DUP1 SWAP2 SUB SWAP1 LOG2 JUMPDEST PUSH1 0x0 PUSH20 0x0 PUSH4 0x5EAC7AF3 PUSH1 0x79 PUSH1 0x0 PUSH2 0x2BBF PUSH2 0x3C3E JUMP JUMPDEST PUSH1 0x1 PUSH1 0x1 PUSH1 0xA0 SHL SUB AND PUSH1 0x1 PUSH1 0x1 PUSH1 0xA0 SHL SUB AND DUP2 MSTORE PUSH1 0x20 ADD SWAP1 DUP2 MSTORE PUSH1 0x20 ADD PUSH1 0x0 KECCAK256 DUP8 PUSH1 0x40 MLOAD DUP4 PUSH4 0xFFFFFFFF AND PUSH1 0xE0 SHL DUP2 MSTORE PUSH1 0x4 ADD PUSH2 0x2BFD SWAP3 SWAP2 SWAP1 PUSH2 0x42EB JUMP JUMPDEST PUSH1 0x20 PUSH1 0x40 MLOAD DUP1 DUP4 SUB DUP2 DUP7 DUP1 EXTCODESIZE ISZERO DUP1 ISZERO PUSH2 0x2C15 JUMPI PUSH1 0x0 DUP1 REVERT JUMPDEST POP GAS DELEGATECALL ISZERO DUP1 ISZERO PUSH2 0x2C29 JUMPI RETURNDATASIZE PUSH1 0x0 DUP1 RETURNDATACOPY RETURNDATASIZE PUSH1 0x0 REVERT JUMPDEST POP POP POP POP PUSH1 0x40 MLOAD RETURNDATASIZE PUSH1 0x1F NOT PUSH1 0x1F DUP3 ADD AND DUP3 ADD DUP1 PUSH1 0x40 MSTORE POP DUP2 ADD SWAP1 PUSH2 0x2C4D SWAP2 SWAP1 PUSH2 0x4119 JUMP JUMPDEST SWAP1 POP DUP1 ISZERO PUSH2 0x1516 JUMPI PUSH20 0x0 PUSH4 0xEC8ECC02 PUSH1 0x79 PUSH1 0x0 PUSH2 0x2C7B PUSH2 0x3C3E JUMP JUMPDEST PUSH1 0x1 PUSH1 0x1 PUSH1 0xA0 SHL SUB AND PUSH1 0x1 PUSH1 0x1 PUSH1 0xA0 SHL SUB AND DUP2 MSTORE PUSH1 0x20 ADD SWAP1 DUP2 MSTORE PUSH1 0x20 ADD PUSH1 0x0 KECCAK256 DUP8 PUSH1 0x40 MLOAD DUP4 PUSH4 0xFFFFFFFF AND PUSH1 0xE0 SHL DUP2 MSTORE PUSH1 0x4 ADD PUSH2 0x2CB9 SWAP3 SWAP2 SWAP1 PUSH2 0x42EB JUMP JUMPDEST PUSH1 0x0 PUSH1 0x40 MLOAD DUP1 DUP4 SUB DUP2 DUP7 DUP1 EXTCODESIZE ISZERO DUP1 ISZERO PUSH2 0x2CD1 JUMPI PUSH1 0x0 DUP1 REVERT JUMPDEST POP GAS DELEGATECALL ISZERO DUP1 ISZERO PUSH2 0x2CE5 JUMPI RETURNDATASIZE PUSH1 0x0 DUP1 RETURNDATACOPY RETURNDATASIZE PUSH1 0x0 REVERT JUMPDEST POP POP PUSH1 0x7A SLOAD PUSH1 0x1 PUSH1 0x1 PUSH1 0xA0 SHL SUB AND SWAP2 POP PUSH4 0xA9059CBB SWAP1 POP PUSH2 0x2D04 PUSH2 0x3C3E JUMP JUMPDEST DUP4 PUSH1 0x40 MLOAD DUP4 PUSH4 0xFFFFFFFF AND PUSH1 0xE0 SHL DUP2 MSTORE PUSH1 0x4 ADD PUSH2 0x2D22 SWAP3 SWAP2 SWAP1 PUSH2 0x4260 JUMP JUMPDEST PUSH1 0x20 PUSH1 0x40 MLOAD DUP1 DUP4 SUB DUP2 PUSH1 0x0 DUP8 DUP1 EXTCODESIZE ISZERO DUP1 ISZERO PUSH2 0x2D3C JUMPI PUSH1 0x0 DUP1 REVERT JUMPDEST POP GAS CALL ISZERO DUP1 ISZERO PUSH2 0x2D50 JUMPI RETURNDATASIZE PUSH1 0x0 DUP1 RETURNDATACOPY RETURNDATASIZE PUSH1 0x0 REVERT JUMPDEST POP POP POP POP PUSH1 0x40 MLOAD RETURNDATASIZE PUSH1 0x1F NOT PUSH1 0x1F DUP3 ADD AND DUP3 ADD DUP1 PUSH1 0x40 MSTORE POP DUP2 ADD SWAP1 PUSH2 0x2D74 SWAP2 SWAP1 PUSH2 0x40E5 JUMP JUMPDEST POP PUSH2 0x2D7D PUSH2 0x3C3E JUMP JUMPDEST PUSH1 0x1 PUSH1 0x1 PUSH1 0xA0 SHL SUB AND PUSH32 0x85082129D87B2FE11527CB1B3B7A520AEB5AA6913F88A3D8757FE40D1DB02FDD DUP3 PUSH1 0x40 MLOAD PUSH2 0x2DB5 SWAP2 SWAP1 PUSH2 0x42E2 JUMP JUMPDEST PUSH1 0x40 MLOAD DUP1 SWAP2 SUB SWAP1 LOG2 POP POP POP POP POP JUMP JUMPDEST PUSH1 0x7E DUP1 SLOAD PUSH2 0x8EC SWAP1 PUSH2 0x4AC5 JUMP JUMPDEST PUSH1 0x1 PUSH1 0x1 PUSH1 0xA0 SHL SUB DUP3 AND PUSH1 0x0 SWAP1 DUP2 MSTORE PUSH1 0x79 PUSH1 0x20 MSTORE PUSH1 0x40 DUP1 DUP3 KECCAK256 SWAP1 MLOAD PUSH4 0x7BD64E5D PUSH1 0xE1 SHL DUP2 MSTORE DUP3 SWAP2 DUP3 SWAP2 DUP3 SWAP2 PUSH20 0x0 SWAP2 PUSH4 0xF7AC9CBA SWAP2 PUSH2 0x2E2C SWAP2 DUP10 SWAP1 PUSH1 0x6D SWAP1 PUSH1 0x76 SWAP1 PUSH1 0x4 ADD PUSH2 0x430F JUMP JUMPDEST PUSH1 0x40 DUP1 MLOAD DUP1 DUP4 SUB DUP2 DUP7 DUP1 EXTCODESIZE ISZERO DUP1 ISZERO PUSH2 0x2E43 JUMPI PUSH1 0x0 DUP1 REVERT JUMPDEST POP GAS DELEGATECALL ISZERO DUP1 ISZERO PUSH2 0x2E57 JUMPI RETURNDATASIZE PUSH1 0x0 DUP1 RETURNDATACOPY RETURNDATASIZE PUSH1 0x0 REVERT JUMPDEST POP POP POP POP PUSH1 0x40 MLOAD RETURNDATASIZE PUSH1 0x1F NOT PUSH1 0x1F DUP3 ADD AND DUP3 ADD DUP1 PUSH1 0x40 MSTORE POP DUP2 ADD SWAP1 PUSH2 0x2E7B SWAP2 SWAP1 PUSH2 0x4152 JUMP JUMPDEST SWAP1 SWAP8 SWAP1 SWAP7 POP SWAP5 POP POP POP POP POP JUMP JUMPDEST PUSH1 0x0 PUSH20 0x0 PUSH4 0xD4675770 PUSH1 0x79 PUSH1 0x0 PUSH2 0x2EB0 PUSH2 0x3C3E JUMP JUMPDEST PUSH1 0x1 PUSH1 0x1 PUSH1 0xA0 SHL SUB AND PUSH1 0x1 PUSH1 0x1 PUSH1 0xA0 SHL SUB AND DUP2 MSTORE PUSH1 0x20 ADD SWAP1 DUP2 MSTORE PUSH1 0x20 ADD PUSH1 0x0 KECCAK256 PUSH1 0x6D PUSH1 0x40 MLOAD DUP4 PUSH4 0xFFFFFFFF AND PUSH1 0xE0 SHL DUP2 MSTORE PUSH1 0x4 ADD PUSH2 0x2EEF SWAP3 SWAP2 SWAP1 PUSH2 0x42EB JUMP JUMPDEST PUSH1 0x20 PUSH1 0x40 MLOAD DUP1 DUP4 SUB DUP2 DUP7 DUP1 EXTCODESIZE ISZERO DUP1 ISZERO PUSH2 0x2F07 JUMPI PUSH1 0x0 DUP1 REVERT JUMPDEST POP GAS DELEGATECALL ISZERO DUP1 ISZERO PUSH2 0x2F1B JUMPI RETURNDATASIZE PUSH1 0x0 DUP1 RETURNDATACOPY RETURNDATASIZE PUSH1 0x0 REVERT JUMPDEST POP POP POP POP PUSH1 0x40 MLOAD RETURNDATASIZE PUSH1 0x1F NOT PUSH1 0x1F DUP3 ADD AND DUP3 ADD DUP1 PUSH1 0x40 MSTORE POP DUP2 ADD SWAP1 PUSH2 0x2F3F SWAP2 SWAP1 PUSH2 0x4119 JUMP JUMPDEST SWAP1 POP PUSH1 0x0 DUP1 PUSH20 0x0 PUSH4 0x32A1B321 PUSH1 0x79 PUSH1 0x0 PUSH2 0x2F6A PUSH2 0x3C3E JUMP JUMPDEST PUSH1 0x1 PUSH1 0x1 PUSH1 0xA0 SHL SUB AND PUSH1 0x1 PUSH1 0x1 PUSH1 0xA0 SHL SUB AND DUP2 MSTORE PUSH1 0x20 ADD SWAP1 DUP2 MSTORE PUSH1 0x20 ADD PUSH1 0x0 KECCAK256 PUSH1 0x6D PUSH1 0x76 PUSH1 0x40 MLOAD DUP5 PUSH4 0xFFFFFFFF AND PUSH1 0xE0 SHL DUP2 MSTORE PUSH1 0x4 ADD PUSH2 0x2FAC SWAP4 SWAP3 SWAP2 SWAP1 PUSH2 0x42F9 JUMP JUMPDEST PUSH1 0x40 DUP1 MLOAD DUP1 DUP4 SUB DUP2 DUP7 DUP1 EXTCODESIZE ISZERO DUP1 ISZERO PUSH2 0x2FC3 JUMPI PUSH1 0x0 DUP1 REVERT JUMPDEST POP GAS DELEGATECALL ISZERO DUP1 ISZERO PUSH2 0x2FD7 JUMPI RETURNDATASIZE PUSH1 0x0 DUP1 RETURNDATACOPY RETURNDATASIZE PUSH1 0x0 REVERT JUMPDEST POP POP POP POP PUSH1 0x40 MLOAD RETURNDATASIZE PUSH1 0x1F NOT PUSH1 0x1F DUP3 ADD AND DUP3 ADD DUP1 PUSH1 0x40 MSTORE POP DUP2 ADD SWAP1 PUSH2 0x2FFB SWAP2 SWAP1 PUSH2 0x4152 JUMP JUMPDEST SWAP1 SWAP3 POP SWAP1 POP DUP3 ISZERO PUSH2 0x31F4 JUMPI PUSH1 0x7A SLOAD PUSH1 0x7B SLOAD PUSH1 0x40 MLOAD PUSH4 0x70A08231 PUSH1 0xE0 SHL DUP2 MSTORE DUP6 SWAP3 PUSH1 0x1 PUSH1 0x1 PUSH1 0xA0 SHL SUB SWAP1 DUP2 AND SWAP3 PUSH4 0x70A08231 SWAP3 PUSH2 0x303D SWAP3 SWAP1 SWAP2 AND SWAP1 PUSH1 0x4 ADD PUSH2 0x4228 JUMP JUMPDEST PUSH1 0x20 PUSH1 0x40 MLOAD DUP1 DUP4 SUB DUP2 DUP7 DUP1 EXTCODESIZE ISZERO DUP1 ISZERO PUSH2 0x3055 JUMPI PUSH1 0x0 DUP1 REVERT JUMPDEST POP GAS STATICCALL ISZERO DUP1 ISZERO PUSH2 0x3069 JUMPI RETURNDATASIZE PUSH1 0x0 DUP1 RETURNDATACOPY RETURNDATASIZE PUSH1 0x0 REVERT JUMPDEST POP POP POP POP PUSH1 0x40 MLOAD RETURNDATASIZE PUSH1 0x1F NOT PUSH1 0x1F DUP3 ADD AND DUP3 ADD DUP1 PUSH1 0x40 MSTORE POP DUP2 ADD SWAP1 PUSH2 0x308D SWAP2 SWAP1 PUSH2 0x4119 JUMP JUMPDEST LT ISZERO PUSH2 0x30AB JUMPI PUSH1 0x40 MLOAD PUSH3 0x461BCD PUSH1 0xE5 SHL DUP2 MSTORE PUSH1 0x4 ADD PUSH2 0x9B6 SWAP1 PUSH2 0x45B6 JUMP JUMPDEST PUSH20 0x0 PUSH4 0x4142C652 PUSH1 0x79 PUSH1 0x0 PUSH2 0x30D1 PUSH2 0x3C3E JUMP JUMPDEST PUSH1 0x1 PUSH1 0x1 PUSH1 0xA0 SHL SUB AND PUSH1 0x1 PUSH1 0x1 PUSH1 0xA0 SHL SUB AND DUP2 MSTORE PUSH1 0x20 ADD SWAP1 DUP2 MSTORE PUSH1 0x20 ADD PUSH1 0x0 KECCAK256 PUSH1 0x6D PUSH1 0x40 MLOAD DUP4 PUSH4 0xFFFFFFFF AND PUSH1 0xE0 SHL DUP2 MSTORE PUSH1 0x4 ADD PUSH2 0x3110 SWAP3 SWAP2 SWAP1 PUSH2 0x42EB JUMP JUMPDEST PUSH1 0x0 PUSH1 0x40 MLOAD DUP1 DUP4 SUB DUP2 DUP7 DUP1 EXTCODESIZE ISZERO DUP1 ISZERO PUSH2 0x3128 JUMPI PUSH1 0x0 DUP1 REVERT JUMPDEST POP GAS DELEGATECALL ISZERO DUP1 ISZERO PUSH2 0x313C JUMPI RETURNDATASIZE PUSH1 0x0 DUP1 RETURNDATACOPY RETURNDATASIZE PUSH1 0x0 REVERT JUMPDEST POP POP PUSH1 0x7B SLOAD PUSH1 0x1 PUSH1 0x1 PUSH1 0xA0 SHL SUB AND SWAP2 POP PUSH4 0xE4E103DC SWAP1 POP PUSH2 0x315B PUSH2 0x3C3E JUMP JUMPDEST DUP6 PUSH1 0x40 MLOAD DUP4 PUSH4 0xFFFFFFFF AND PUSH1 0xE0 SHL DUP2 MSTORE PUSH1 0x4 ADD PUSH2 0x3179 SWAP3 SWAP2 SWAP1 PUSH2 0x4260 JUMP JUMPDEST PUSH1 0x0 PUSH1 0x40 MLOAD DUP1 DUP4 SUB DUP2 PUSH1 0x0 DUP8 DUP1 EXTCODESIZE ISZERO DUP1 ISZERO PUSH2 0x3193 JUMPI PUSH1 0x0 DUP1 REVERT JUMPDEST POP GAS CALL ISZERO DUP1 ISZERO PUSH2 0x31A7 JUMPI RETURNDATASIZE PUSH1 0x0 DUP1 RETURNDATACOPY RETURNDATASIZE PUSH1 0x0 REVERT JUMPDEST POP POP POP POP PUSH2 0x31B3 PUSH2 0x3C3E JUMP JUMPDEST PUSH1 0x1 PUSH1 0x1 PUSH1 0xA0 SHL SUB AND PUSH32 0x115E2FE760F98D4FD0828D7741AE2070E7DB700F892EFBFE98448B53AC583886 DUP5 PUSH1 0x40 MLOAD PUSH2 0x31EB SWAP2 SWAP1 PUSH2 0x42E2 JUMP JUMPDEST PUSH1 0x40 MLOAD DUP1 SWAP2 SUB SWAP1 LOG2 JUMPDEST PUSH1 0x8D SLOAD PUSH5 0x100000000 SWAP1 DIV PUSH1 0xFF AND ISZERO PUSH2 0x37AC JUMPI PUSH1 0x85 SLOAD ISZERO PUSH2 0x3397 JUMPI DUP1 ISZERO PUSH2 0x3397 JUMPI PUSH20 0x0 PUSH4 0x47DC9EEE PUSH1 0x79 PUSH1 0x0 PUSH2 0x323B PUSH2 0x3C3E JUMP JUMPDEST PUSH1 0x1 PUSH1 0x1 PUSH1 0xA0 SHL SUB AND PUSH1 0x1 PUSH1 0x1 PUSH1 0xA0 SHL SUB AND DUP2 MSTORE PUSH1 0x20 ADD SWAP1 DUP2 MSTORE PUSH1 0x20 ADD PUSH1 0x0 KECCAK256 PUSH1 0x40 MLOAD DUP3 PUSH4 0xFFFFFFFF AND PUSH1 0xE0 SHL DUP2 MSTORE PUSH1 0x4 ADD PUSH2 0x3277 SWAP2 SWAP1 PUSH2 0x42E2 JUMP JUMPDEST PUSH1 0x0 PUSH1 0x40 MLOAD DUP1 DUP4 SUB DUP2 DUP7 DUP1 EXTCODESIZE ISZERO DUP1 ISZERO PUSH2 0x328F JUMPI PUSH1 0x0 DUP1 REVERT JUMPDEST POP GAS DELEGATECALL ISZERO DUP1 ISZERO PUSH2 0x32A3 JUMPI RETURNDATASIZE PUSH1 0x0 DUP1 RETURNDATACOPY RETURNDATASIZE PUSH1 0x0 REVERT JUMPDEST POP POP PUSH1 0x7C SLOAD PUSH1 0x1 PUSH1 0x1 PUSH1 0xA0 SHL SUB AND SWAP2 POP PUSH4 0xA9059CBB SWAP1 POP PUSH2 0x32C2 PUSH2 0x3C3E JUMP JUMPDEST DUP4 PUSH1 0x40 MLOAD DUP4 PUSH4 0xFFFFFFFF AND PUSH1 0xE0 SHL DUP2 MSTORE PUSH1 0x4 ADD PUSH2 0x32E0 SWAP3 SWAP2 SWAP1 PUSH2 0x4260 JUMP JUMPDEST PUSH1 0x20 PUSH1 0x40 MLOAD DUP1 DUP4 SUB DUP2 PUSH1 0x0 DUP8 DUP1 EXTCODESIZE ISZERO DUP1 ISZERO PUSH2 0x32FA JUMPI PUSH1 0x0 DUP1 REVERT JUMPDEST POP GAS CALL ISZERO DUP1 ISZERO PUSH2 0x330E JUMPI RETURNDATASIZE PUSH1 0x0 DUP1 RETURNDATACOPY RETURNDATASIZE PUSH1 0x0 REVERT JUMPDEST POP POP POP POP PUSH1 0x40 MLOAD RETURNDATASIZE PUSH1 0x1F NOT PUSH1 0x1F DUP3 ADD AND DUP3 ADD DUP1 PUSH1 0x40 MSTORE POP DUP2 ADD SWAP1 PUSH2 0x3332 SWAP2 SWAP1 PUSH2 0x40E5 JUMP JUMPDEST PUSH2 0x334E JUMPI PUSH1 0x40 MLOAD PUSH3 0x461BCD PUSH1 0xE5 SHL DUP2 MSTORE PUSH1 0x4 ADD PUSH2 0x9B6 SWAP1 PUSH2 0x4556 JUMP JUMPDEST PUSH2 0x3356 PUSH2 0x3C3E JUMP JUMPDEST PUSH1 0x1 PUSH1 0x1 PUSH1 0xA0 SHL SUB AND PUSH32 0xD93FC6D1E8779271F55CDB0D5F7B6B05BE64A2226A1AD050D3036F5609C1CDCF DUP3 PUSH1 0x40 MLOAD PUSH2 0x338E SWAP2 SWAP1 PUSH2 0x42E2 JUMP JUMPDEST PUSH1 0x40 MLOAD DUP1 SWAP2 SUB SWAP1 LOG2 JUMPDEST DUP2 ISZERO PUSH2 0x3588 JUMPI PUSH1 0x7A SLOAD PUSH1 0x7B SLOAD PUSH1 0x40 MLOAD PUSH4 0x70A08231 PUSH1 0xE0 SHL DUP2 MSTORE DUP5 SWAP3 PUSH1 0x1 PUSH1 0x1 PUSH1 0xA0 SHL SUB SWAP1 DUP2 AND SWAP3 PUSH4 0x70A08231 SWAP3 PUSH2 0x33D4 SWAP3 SWAP1 SWAP2 AND SWAP1 PUSH1 0x4 ADD PUSH2 0x4228 JUMP JUMPDEST PUSH1 0x20 PUSH1 0x40 MLOAD DUP1 DUP4 SUB DUP2 DUP7 DUP1 EXTCODESIZE ISZERO DUP1 ISZERO PUSH2 0x33EC JUMPI PUSH1 0x0 DUP1 REVERT JUMPDEST POP GAS STATICCALL ISZERO DUP1 ISZERO PUSH2 0x3400 JUMPI RETURNDATASIZE PUSH1 0x0 DUP1 RETURNDATACOPY RETURNDATASIZE PUSH1 0x0 REVERT JUMPDEST POP POP POP POP PUSH1 0x40 MLOAD RETURNDATASIZE PUSH1 0x1F NOT PUSH1 0x1F DUP3 ADD AND DUP3 ADD DUP1 PUSH1 0x40 MSTORE POP DUP2 ADD SWAP1 PUSH2 0x3424 SWAP2 SWAP1 PUSH2 0x4119 JUMP JUMPDEST LT ISZERO PUSH2 0x3442 JUMPI PUSH1 0x40 MLOAD PUSH3 0x461BCD PUSH1 0xE5 SHL DUP2 MSTORE PUSH1 0x4 ADD PUSH2 0x9B6 SWAP1 PUSH2 0x45B6 JUMP JUMPDEST PUSH20 0x0 PUSH4 0x47DC9EEE PUSH1 0x79 PUSH1 0x0 PUSH2 0x3468 PUSH2 0x3C3E JUMP JUMPDEST PUSH1 0x1 PUSH1 0x1 PUSH1 0xA0 SHL SUB AND PUSH1 0x1 PUSH1 0x1 PUSH1 0xA0 SHL SUB AND DUP2 MSTORE PUSH1 0x20 ADD SWAP1 DUP2 MSTORE PUSH1 0x20 ADD PUSH1 0x0 KECCAK256 PUSH1 0x40 MLOAD DUP3 PUSH4 0xFFFFFFFF AND PUSH1 0xE0 SHL DUP2 MSTORE PUSH1 0x4 ADD PUSH2 0x34A4 SWAP2 SWAP1 PUSH2 0x42E2 JUMP JUMPDEST PUSH1 0x0 PUSH1 0x40 MLOAD DUP1 DUP4 SUB DUP2 DUP7 DUP1 EXTCODESIZE ISZERO DUP1 ISZERO PUSH2 0x34BC JUMPI PUSH1 0x0 DUP1 REVERT JUMPDEST POP GAS DELEGATECALL ISZERO DUP1 ISZERO PUSH2 0x34D0 JUMPI RETURNDATASIZE PUSH1 0x0 DUP1 RETURNDATACOPY RETURNDATASIZE PUSH1 0x0 REVERT JUMPDEST POP POP PUSH1 0x7B SLOAD PUSH1 0x1 PUSH1 0x1 PUSH1 0xA0 SHL SUB AND SWAP2 POP PUSH4 0xE4E103DC SWAP1 POP PUSH2 0x34EF PUSH2 0x3C3E JUMP JUMPDEST DUP5 PUSH1 0x40 MLOAD DUP4 PUSH4 0xFFFFFFFF AND PUSH1 0xE0 SHL DUP2 MSTORE PUSH1 0x4 ADD PUSH2 0x350D SWAP3 SWAP2 SWAP1 PUSH2 0x4260 JUMP JUMPDEST PUSH1 0x0 PUSH1 0x40 MLOAD DUP1 DUP4 SUB DUP2 PUSH1 0x0 DUP8 DUP1 EXTCODESIZE ISZERO DUP1 ISZERO PUSH2 0x3527 JUMPI PUSH1 0x0 DUP1 REVERT JUMPDEST POP GAS CALL ISZERO DUP1 ISZERO PUSH2 0x353B JUMPI RETURNDATASIZE PUSH1 0x0 DUP1 RETURNDATACOPY RETURNDATASIZE PUSH1 0x0 REVERT JUMPDEST POP POP POP POP PUSH2 0x3547 PUSH2 0x3C3E JUMP JUMPDEST PUSH1 0x1 PUSH1 0x1 PUSH1 0xA0 SHL SUB AND PUSH32 0x723B06F6C3A94DC82019852E6AA01C0241FBA5F84410B9003DDC3440AD499E59 DUP4 PUSH1 0x40 MLOAD PUSH2 0x357F SWAP2 SWAP1 PUSH2 0x42E2 JUMP JUMPDEST PUSH1 0x40 MLOAD DUP1 SWAP2 SUB SWAP1 LOG2 JUMPDEST PUSH1 0x0 PUSH20 0x0 PUSH4 0x66F1DEE PUSH1 0x79 PUSH1 0x0 PUSH2 0x35B0 PUSH2 0x3C3E JUMP JUMPDEST PUSH1 0x1 PUSH1 0x1 PUSH1 0xA0 SHL SUB AND PUSH1 0x1 PUSH1 0x1 PUSH1 0xA0 SHL SUB AND DUP2 MSTORE PUSH1 0x20 ADD SWAP1 DUP2 MSTORE PUSH1 0x20 ADD PUSH1 0x0 KECCAK256 PUSH1 0x40 MLOAD DUP3 PUSH4 0xFFFFFFFF AND PUSH1 0xE0 SHL DUP2 MSTORE PUSH1 0x4 ADD PUSH2 0x35EC SWAP2 SWAP1 PUSH2 0x42E2 JUMP JUMPDEST PUSH1 0x20 PUSH1 0x40 MLOAD DUP1 DUP4 SUB DUP2 DUP7 DUP1 EXTCODESIZE ISZERO DUP1 ISZERO PUSH2 0x3604 JUMPI PUSH1 0x0 DUP1 REVERT JUMPDEST POP GAS DELEGATECALL ISZERO DUP1 ISZERO PUSH2 0x3618 JUMPI RETURNDATASIZE PUSH1 0x0 DUP1 RETURNDATACOPY RETURNDATASIZE PUSH1 0x0 REVERT JUMPDEST POP POP POP POP PUSH1 0x40 MLOAD RETURNDATASIZE PUSH1 0x1F NOT PUSH1 0x1F DUP3 ADD AND DUP3 ADD DUP1 PUSH1 0x40 MSTORE POP DUP2 ADD SWAP1 PUSH2 0x363C SWAP2 SWAP1 PUSH2 0x4119 JUMP JUMPDEST SWAP1 POP DUP1 ISZERO PUSH2 0x23FA JUMPI PUSH20 0x0 PUSH4 0xF66D9A4D PUSH1 0x79 PUSH1 0x0 PUSH2 0x366A PUSH2 0x3C3E JUMP JUMPDEST PUSH1 0x1 PUSH1 0x1 PUSH1 0xA0 SHL SUB AND PUSH1 0x1 PUSH1 0x1 PUSH1 0xA0 SHL SUB AND DUP2 MSTORE PUSH1 0x20 ADD SWAP1 DUP2 MSTORE PUSH1 0x20 ADD PUSH1 0x0 KECCAK256 PUSH1 0x40 MLOAD DUP3 PUSH4 0xFFFFFFFF AND PUSH1 0xE0 SHL DUP2 MSTORE PUSH1 0x4 ADD PUSH2 0x36A6 SWAP2 SWAP1 PUSH2 0x42E2 JUMP JUMPDEST PUSH1 0x0 PUSH1 0x40 MLOAD DUP1 DUP4 SUB DUP2 DUP7 DUP1 EXTCODESIZE ISZERO DUP1 ISZERO PUSH2 0x36BE JUMPI PUSH1 0x0 DUP1 REVERT JUMPDEST POP GAS DELEGATECALL ISZERO DUP1 ISZERO PUSH2 0x36D2 JUMPI RETURNDATASIZE PUSH1 0x0 DUP1 RETURNDATACOPY RETURNDATASIZE PUSH1 0x0 REVERT JUMPDEST POP POP PUSH1 0x7A SLOAD PUSH1 0x1 PUSH1 0x1 PUSH1 0xA0 SHL SUB AND SWAP2 POP PUSH4 0xA9059CBB SWAP1 POP PUSH2 0x36F1 PUSH2 0x3C3E JUMP JUMPDEST DUP4 PUSH1 0x40 MLOAD DUP4 PUSH4 0xFFFFFFFF AND PUSH1 0xE0 SHL DUP2 MSTORE PUSH1 0x4 ADD PUSH2 0x370F SWAP3 SWAP2 SWAP1 PUSH2 0x4260 JUMP JUMPDEST PUSH1 0x20 PUSH1 0x40 MLOAD DUP1 DUP4 SUB DUP2 PUSH1 0x0 DUP8 DUP1 EXTCODESIZE ISZERO DUP1 ISZERO PUSH2 0x3729 JUMPI PUSH1 0x0 DUP1 REVERT JUMPDEST POP GAS CALL ISZERO DUP1 ISZERO PUSH2 0x373D JUMPI RETURNDATASIZE PUSH1 0x0 DUP1 RETURNDATACOPY RETURNDATASIZE PUSH1 0x0 REVERT JUMPDEST POP POP POP POP PUSH1 0x40 MLOAD RETURNDATASIZE PUSH1 0x1F NOT PUSH1 0x1F DUP3 ADD AND DUP3 ADD DUP1 PUSH1 0x40 MSTORE POP DUP2 ADD SWAP1 PUSH2 0x3761 SWAP2 SWAP1 PUSH2 0x40E5 JUMP JUMPDEST POP PUSH2 0x376A PUSH2 0x3C3E JUMP JUMPDEST PUSH1 0x1 PUSH1 0x1 PUSH1 0xA0 SHL SUB AND PUSH32 0x85082129D87B2FE11527CB1B3B7A520AEB5AA6913F88A3D8757FE40D1DB02FDD DUP3 PUSH1 0x40 MLOAD PUSH2 0x37A2 SWAP2 SWAP1 PUSH2 0x42E2 JUMP JUMPDEST PUSH1 0x40 MLOAD DUP1 SWAP2 SUB SWAP1 LOG2 POP JUMPDEST POP POP POP JUMP JUMPDEST PUSH1 0x6C SLOAD PUSH1 0x1 PUSH1 0x1 PUSH1 0xA0 SHL SUB AND DUP2 JUMP JUMPDEST PUSH1 0x0 PUSH1 0x88 SLOAD PUSH1 0x0 EQ ISZERO PUSH2 0x37D5 JUMPI POP PUSH1 0x0 PUSH2 0xCA7 JUMP JUMPDEST PUSH1 0x0 DUP1 JUMPDEST PUSH1 0x77 SLOAD DUP2 LT ISZERO PUSH2 0x3938 JUMPI PUSH1 0x0 PUSH1 0x79 PUSH1 0x0 PUSH1 0x77 DUP5 DUP2 SLOAD DUP2 LT PUSH2 0x380A JUMPI PUSH4 0x4E487B71 PUSH1 0xE0 SHL PUSH1 0x0 MSTORE PUSH1 0x32 PUSH1 0x4 MSTORE PUSH1 0x24 PUSH1 0x0 REVERT JUMPDEST PUSH1 0x0 SWAP2 DUP3 MSTORE PUSH1 0x20 DUP1 DUP4 KECCAK256 PUSH1 0x2 SWAP1 SWAP3 MUL SWAP1 SWAP2 ADD SLOAD PUSH1 0x1 PUSH1 0x1 PUSH1 0xA0 SHL SUB AND DUP4 MSTORE DUP3 ADD SWAP3 SWAP1 SWAP3 MSTORE PUSH1 0x40 ADD SWAP1 KECCAK256 PUSH1 0x77 DUP1 SLOAD DUP5 SWAP1 DUP2 LT PUSH2 0x3855 JUMPI PUSH4 0x4E487B71 PUSH1 0xE0 SHL PUSH1 0x0 MSTORE PUSH1 0x32 PUSH1 0x4 MSTORE PUSH1 0x24 PUSH1 0x0 REVERT JUMPDEST SWAP1 PUSH1 0x0 MSTORE PUSH1 0x20 PUSH1 0x0 KECCAK256 SWAP1 PUSH1 0x2 MUL ADD PUSH1 0x1 ADD SLOAD DUP2 SLOAD DUP2 LT PUSH2 0x3885 JUMPI PUSH4 0x4E487B71 PUSH1 0xE0 SHL PUSH1 0x0 MSTORE PUSH1 0x32 PUSH1 0x4 MSTORE PUSH1 0x24 PUSH1 0x0 REVERT JUMPDEST PUSH1 0x0 SWAP2 DUP3 MSTORE PUSH1 0x20 SWAP2 DUP3 SWAP1 KECCAK256 PUSH1 0x40 DUP1 MLOAD PUSH2 0x120 DUP2 ADD DUP3 MSTORE PUSH1 0x8 SWAP1 SWAP4 MUL SWAP1 SWAP2 ADD DUP1 SLOAD DUP1 DUP5 MSTORE PUSH1 0x1 DUP3 ADD SLOAD SWAP5 DUP5 ADD SWAP5 SWAP1 SWAP5 MSTORE PUSH1 0x2 DUP2 ADD SLOAD SWAP2 DUP4 ADD SWAP2 SWAP1 SWAP2 MSTORE PUSH1 0x3 DUP2 ADD SLOAD PUSH1 0x60 DUP4 ADD MSTORE PUSH1 0x4 DUP2 ADD SLOAD PUSH1 0x80 DUP4 ADD DUP2 SWAP1 MSTORE PUSH1 0x5 DUP3 ADD SLOAD PUSH1 0xA0 DUP5 ADD MSTORE PUSH1 0x6 DUP3 ADD SLOAD PUSH1 0xC0 DUP5 ADD MSTORE PUSH1 0x7 SWAP1 SWAP2 ADD SLOAD PUSH1 0xFF DUP1 DUP3 AND ISZERO ISZERO PUSH1 0xE0 DUP6 ADD MSTORE PUSH2 0x100 SWAP2 DUP3 SWAP1 DIV AND ISZERO ISZERO SWAP1 DUP4 ADD MSTORE SWAP1 SWAP3 POP PUSH2 0x3922 SWAP2 PUSH2 0x391B SWAP2 SWAP1 PUSH2 0x3E6C JUMP JUMPDEST DUP5 SWAP1 PUSH2 0x3C9E JUMP JUMPDEST SWAP3 POP POP DUP1 DUP1 PUSH2 0x3930 SWAP1 PUSH2 0x4B00 JUMP JUMPDEST SWAP2 POP POP PUSH2 0x37D9 JUMP JUMPDEST POP PUSH1 0x88 SLOAD PUSH2 0x20D3 SWAP1 DUP3 SWAP1 PUSH2 0x3E78 JUMP JUMPDEST PUSH1 0x66 SLOAD PUSH1 0x40 MLOAD PUSH4 0x70A08231 PUSH1 0xE0 SHL DUP2 MSTORE PUSH1 0x0 SWAP2 PUSH1 0x1 PUSH1 0x1 PUSH1 0xA0 SHL SUB AND SWAP1 PUSH4 0x70A08231 SWAP1 PUSH2 0x3978 SWAP1 ADDRESS SWAP1 PUSH1 0x4 ADD PUSH2 0x4228 JUMP JUMPDEST PUSH1 0x20 PUSH1 0x40 MLOAD DUP1 DUP4 SUB DUP2 DUP7 DUP1 EXTCODESIZE ISZERO DUP1 ISZERO PUSH2 0x3990 JUMPI PUSH1 0x0 DUP1 REVERT JUMPDEST POP GAS STATICCALL ISZERO DUP1 ISZERO PUSH2 0x39A4 JUMPI RETURNDATASIZE PUSH1 0x0 DUP1 RETURNDATACOPY RETURNDATASIZE PUSH1 0x0 REVERT JUMPDEST POP POP POP POP PUSH1 0x40 MLOAD RETURNDATASIZE PUSH1 0x1F NOT PUSH1 0x1F DUP3 ADD AND DUP3 ADD DUP1 PUSH1 0x40 MSTORE POP DUP2 ADD SWAP1 PUSH2 0x39C8 SWAP2 SWAP1 PUSH2 0x4119 JUMP JUMPDEST SWAP1 POP SWAP1 JUMP JUMPDEST PUSH1 0x6B SLOAD PUSH1 0x1 PUSH1 0x1 PUSH1 0xA0 SHL SUB AND DUP2 JUMP JUMPDEST PUSH1 0x89 SLOAD DUP2 JUMP JUMPDEST PUSH1 0x8D SLOAD PUSH6 0x10000000000 SWAP1 DIV PUSH1 0xFF AND DUP2 JUMP JUMPDEST PUSH1 0x78 DUP2 DUP2 SLOAD DUP2 LT PUSH2 0x3A04 JUMPI PUSH1 0x0 DUP1 REVERT JUMPDEST PUSH1 0x0 SWAP2 DUP3 MSTORE PUSH1 0x20 SWAP1 SWAP2 KECCAK256 PUSH1 0x2 SWAP1 SWAP2 MUL ADD DUP1 SLOAD PUSH1 0x1 SWAP1 SWAP2 ADD SLOAD PUSH1 0x1 PUSH1 0x1 PUSH1 0xA0 SHL SUB SWAP1 SWAP2 AND SWAP2 POP DUP3 JUMP JUMPDEST PUSH1 0x6B SLOAD PUSH1 0x1 PUSH1 0x1 PUSH1 0xA0 SHL SUB AND PUSH2 0x3A40 PUSH2 0x3C3E JUMP JUMPDEST PUSH1 0x1 PUSH1 0x1 PUSH1 0xA0 SHL SUB AND EQ PUSH2 0x3A66 JUMPI PUSH1 0x40 MLOAD PUSH3 0x461BCD PUSH1 0xE5 SHL DUP2 MSTORE PUSH1 0x4 ADD PUSH2 0x9B6 SWAP1 PUSH2 0x4735 JUMP JUMPDEST PUSH1 0x6C DUP1 SLOAD PUSH1 0x1 PUSH1 0x1 PUSH1 0xA0 SHL SUB NOT AND SWAP1 SSTORE JUMP JUMPDEST PUSH1 0x6D SLOAD PUSH1 0x6E SLOAD PUSH1 0x6F SLOAD PUSH1 0x70 SLOAD PUSH1 0x71 SLOAD PUSH1 0x72 SLOAD PUSH1 0x73 SLOAD PUSH1 0x74 SLOAD PUSH1 0x75 SLOAD PUSH1 0xFF DUP1 DUP3 AND SWAP2 PUSH2 0x100 SWAP1 DIV AND DUP11 JUMP JUMPDEST PUSH1 0x8A SLOAD DUP2 JUMP JUMPDEST PUSH1 0x7A SLOAD PUSH1 0x1 PUSH1 0x1 PUSH1 0xA0 SHL SUB AND DUP2 JUMP JUMPDEST PUSH1 0x8B SLOAD DUP2 JUMP JUMPDEST PUSH1 0x0 DUP1 PUSH1 0x65 PUSH1 0x0 SWAP1 SLOAD SWAP1 PUSH2 0x100 EXP SWAP1 DIV PUSH1 0x1 PUSH1 0x1 PUSH1 0xA0 SHL SUB AND PUSH1 0x1 PUSH1 0x1 PUSH1 0xA0 SHL SUB AND PUSH4 0x313CE567 PUSH1 0x40 MLOAD DUP2 PUSH4 0xFFFFFFFF AND PUSH1 0xE0 SHL DUP2 MSTORE PUSH1 0x4 ADD PUSH1 0x20 PUSH1 0x40 MLOAD DUP1 DUP4 SUB DUP2 DUP7 DUP1 EXTCODESIZE ISZERO DUP1 ISZERO PUSH2 0x3B0E JUMPI PUSH1 0x0 DUP1 REVERT JUMPDEST POP GAS STATICCALL ISZERO DUP1 ISZERO PUSH2 0x3B22 JUMPI RETURNDATASIZE PUSH1 0x0 DUP1 RETURNDATACOPY RETURNDATASIZE PUSH1 0x0 REVERT JUMPDEST POP POP POP POP PUSH1 0x40 MLOAD RETURNDATASIZE PUSH1 0x1F NOT PUSH1 0x1F DUP3 ADD AND DUP3 ADD DUP1 PUSH1 0x40 MSTORE POP DUP2 ADD SWAP1 PUSH2 0x20D3 SWAP2 SWAP1 PUSH2 0x41C4 JUMP JUMPDEST PUSH1 0x76 DUP2 DUP2 SLOAD DUP2 LT PUSH2 0x3B56 JUMPI PUSH1 0x0 DUP1 REVERT JUMPDEST PUSH1 0x0 SWAP2 DUP3 MSTORE PUSH1 0x20 SWAP1 SWAP2 KECCAK256 PUSH1 0x2 SWAP1 SWAP2 MUL ADD DUP1 SLOAD PUSH1 0x1 SWAP1 SWAP2 ADD SLOAD SWAP1 SWAP2 POP DUP3 JUMP JUMPDEST PUSH2 0x3B7C PUSH2 0x3C3E JUMP JUMPDEST PUSH1 0x1 PUSH1 0x1 PUSH1 0xA0 SHL SUB AND PUSH2 0x3B8D PUSH2 0x2023 JUMP JUMPDEST PUSH1 0x1 PUSH1 0x1 PUSH1 0xA0 SHL SUB AND EQ PUSH2 0x3BB3 JUMPI PUSH1 0x40 MLOAD PUSH3 0x461BCD PUSH1 0xE5 SHL DUP2 MSTORE PUSH1 0x4 ADD PUSH2 0x9B6 SWAP1 PUSH2 0x4776 JUMP JUMPDEST PUSH1 0x1 PUSH1 0x1 PUSH1 0xA0 SHL SUB DUP2 AND PUSH2 0x3BD9 JUMPI PUSH1 0x40 MLOAD PUSH3 0x461BCD PUSH1 0xE5 SHL DUP2 MSTORE PUSH1 0x4 ADD PUSH2 0x9B6 SWAP1 PUSH2 0x442F JUMP JUMPDEST PUSH2 0x1F91 DUP2 PUSH2 0x3E1A JUMP JUMPDEST PUSH1 0x8C SLOAD DUP2 JUMP JUMPDEST PUSH1 0x66 SLOAD PUSH1 0x1 PUSH1 0x1 PUSH1 0xA0 SHL SUB AND SWAP1 JUMP JUMPDEST PUSH1 0x7C SLOAD PUSH1 0x40 MLOAD PUSH4 0x70A08231 PUSH1 0xE0 SHL DUP2 MSTORE PUSH1 0x0 SWAP2 PUSH1 0x1 PUSH1 0x1 PUSH1 0xA0 SHL SUB AND SWAP1 PUSH4 0x70A08231 SWAP1 PUSH2 0x3978 SWAP1 ADDRESS SWAP1 PUSH1 0x4 ADD PUSH2 0x4228 JUMP JUMPDEST PUSH1 0x7F SLOAD DUP2 JUMP JUMPDEST PUSH1 0x77 DUP2 DUP2 SLOAD DUP2 LT PUSH2 0x3A04 JUMPI PUSH1 0x0 DUP1 REVERT JUMPDEST CALLER SWAP1 JUMP JUMPDEST PUSH1 0x8D DUP1 SLOAD PUSH4 0xFF000000 NOT AND PUSH4 0x1000000 OR SWAP1 SSTORE PUSH1 0x40 MLOAD PUSH32 0x2E136745550967F28B779CE8C395CA060A2F844EDFB5B06631FE677F66F9E305 SWAP1 PUSH1 0x0 SWAP1 LOG1 JUMP JUMPDEST PUSH1 0x0 PUSH2 0x1716 DUP3 DUP5 PUSH2 0x4AAE JUMP JUMPDEST PUSH1 0x0 PUSH2 0x1716 PUSH2 0x2710 PUSH2 0x17BB DUP6 DUP6 PUSH2 0x3E6C JUMP JUMPDEST PUSH1 0x0 PUSH2 0x1716 DUP3 DUP5 PUSH2 0x4A57 JUMP JUMPDEST PUSH1 0x66 SLOAD PUSH1 0x40 MLOAD PUSH4 0x95EA7B3 PUSH1 0xE0 SHL DUP2 MSTORE PUSH1 0x1 PUSH1 0x1 PUSH1 0xA0 SHL SUB SWAP1 SWAP2 AND SWAP1 PUSH4 0x95EA7B3 SWAP1 PUSH2 0x3CDC SWAP1 DUP6 SWAP1 DUP6 SWAP1 PUSH1 0x4 ADD PUSH2 0x4260 JUMP JUMPDEST PUSH1 0x20 PUSH1 0x40 MLOAD DUP1 DUP4 SUB DUP2 PUSH1 0x0 DUP8 DUP1 EXTCODESIZE ISZERO DUP1 ISZERO PUSH2 0x3CF6 JUMPI PUSH1 0x0 DUP1 REVERT JUMPDEST POP GAS CALL ISZERO DUP1 ISZERO PUSH2 0x3D0A JUMPI RETURNDATASIZE PUSH1 0x0 DUP1 RETURNDATACOPY RETURNDATASIZE PUSH1 0x0 REVERT JUMPDEST POP POP POP POP PUSH1 0x40 MLOAD RETURNDATASIZE PUSH1 0x1F NOT PUSH1 0x1F DUP3 ADD AND DUP3 ADD DUP1 PUSH1 0x40 MSTORE POP DUP2 ADD SWAP1 PUSH2 0x3D2E SWAP2 SWAP1 PUSH2 0x40E5 JUMP JUMPDEST POP DUP2 PUSH1 0x1 PUSH1 0x1 PUSH1 0xA0 SHL SUB AND PUSH32 0xD77DF63D9076D067D9FD7AF16C3D67DB48B84064C3314F5900AE919922D364A1 DUP3 PUSH1 0x40 MLOAD PUSH2 0x3D68 SWAP2 SWAP1 PUSH2 0x42E2 JUMP JUMPDEST PUSH1 0x40 MLOAD DUP1 SWAP2 SUB SWAP1 LOG2 POP POP JUMP JUMPDEST PUSH1 0x1 PUSH1 0x1 PUSH1 0xA0 SHL SUB DUP5 AND PUSH2 0x3D87 JUMPI PUSH1 0x0 DUP1 REVERT JUMPDEST PUSH1 0x67 SLOAD PUSH1 0x1 PUSH1 0x1 PUSH1 0xA0 SHL SUB AND PUSH4 0x38ED1739 DUP5 DUP5 PUSH2 0x3DA2 PUSH2 0x21E4 JUMP JUMPDEST DUP9 DUP7 PUSH1 0x40 MLOAD DUP7 PUSH4 0xFFFFFFFF AND PUSH1 0xE0 SHL DUP2 MSTORE PUSH1 0x4 ADD PUSH2 0x3DC4 SWAP6 SWAP5 SWAP4 SWAP3 SWAP2 SWAP1 PUSH2 0x4981 JUMP JUMPDEST PUSH1 0x0 PUSH1 0x40 MLOAD DUP1 DUP4 SUB DUP2 PUSH1 0x0 DUP8 DUP1 EXTCODESIZE ISZERO DUP1 ISZERO PUSH2 0x3DDE JUMPI PUSH1 0x0 DUP1 REVERT JUMPDEST POP GAS CALL ISZERO DUP1 ISZERO PUSH2 0x3DF2 JUMPI RETURNDATASIZE PUSH1 0x0 DUP1 RETURNDATACOPY RETURNDATASIZE PUSH1 0x0 REVERT JUMPDEST POP POP POP POP PUSH1 0x40 MLOAD RETURNDATASIZE PUSH1 0x0 DUP3 RETURNDATACOPY PUSH1 0x1F RETURNDATASIZE SWAP1 DUP2 ADD PUSH1 0x1F NOT AND DUP3 ADD PUSH1 0x40 MSTORE PUSH2 0x1516 SWAP2 SWAP1 DUP2 ADD SWAP1 PUSH2 0x400F JUMP JUMPDEST PUSH1 0x33 DUP1 SLOAD PUSH1 0x1 PUSH1 0x1 PUSH1 0xA0 SHL SUB DUP4 DUP2 AND PUSH1 0x1 PUSH1 0x1 PUSH1 0xA0 SHL SUB NOT DUP4 AND DUP2 OR SWAP1 SWAP4 SSTORE PUSH1 0x40 MLOAD SWAP2 AND SWAP2 SWAP1 DUP3 SWAP1 PUSH32 0x8BE0079C531659141344CD1FD0A4F28419497F9722A3DAAFE3B4186F6B6457E0 SWAP1 PUSH1 0x0 SWAP1 LOG3 POP POP JUMP JUMPDEST PUSH1 0x0 PUSH2 0x1716 DUP3 DUP5 PUSH2 0x4A8F JUMP JUMPDEST PUSH1 0x0 PUSH2 0x1716 DUP3 DUP5 PUSH2 0x4A6F JUMP JUMPDEST POP DUP1 SLOAD PUSH1 0x0 DUP3 SSTORE PUSH1 0x2 MUL SWAP1 PUSH1 0x0 MSTORE PUSH1 0x20 PUSH1 0x0 KECCAK256 SWAP1 DUP2 ADD SWAP1 PUSH2 0x1F91 SWAP2 SWAP1 JUMPDEST DUP1 DUP3 GT ISZERO PUSH2 0x3EC6 JUMPI DUP1 SLOAD PUSH1 0x1 PUSH1 0x1 PUSH1 0xA0 SHL SUB NOT AND DUP2 SSTORE PUSH1 0x0 PUSH1 0x1 DUP3 ADD SSTORE PUSH1 0x2 ADD PUSH2 0x3EA1 JUMP JUMPDEST POP SWAP1 JUMP JUMPDEST DUP1 PUSH2 0x320 DUP2 ADD DUP4 LT ISZERO PUSH2 0x8D9 JUMPI PUSH1 0x0 DUP1 REVERT JUMPDEST DUP1 MLOAD PUSH10 0xFFFFFFFFFFFFFFFFFFFF DUP2 AND DUP2 EQ PUSH2 0xEAE JUMPI PUSH1 0x0 DUP1 REVERT JUMPDEST PUSH1 0x0 PUSH1 0x20 DUP3 DUP5 SUB SLT ISZERO PUSH2 0x3F07 JUMPI DUP1 DUP2 REVERT JUMPDEST DUP2 CALLDATALOAD PUSH2 0x1716 DUP2 PUSH2 0x4B47 JUMP JUMPDEST PUSH1 0x0 PUSH1 0x20 DUP3 DUP5 SUB SLT ISZERO PUSH2 0x3F23 JUMPI DUP1 DUP2 REVERT JUMPDEST DUP2 MLOAD PUSH2 0x1716 DUP2 PUSH2 0x4B47 JUMP JUMPDEST PUSH1 0x0 DUP1 PUSH1 0x0 PUSH1 0x60 DUP5 DUP7 SUB SLT ISZERO PUSH2 0x3F42 JUMPI DUP2 DUP3 REVERT JUMPDEST DUP4 CALLDATALOAD PUSH2 0x3F4D DUP2 PUSH2 0x4B47 JUMP JUMPDEST SWAP3 POP PUSH1 0x20 DUP5 ADD CALLDATALOAD PUSH2 0x3F5D DUP2 PUSH2 0x4B47 JUMP JUMPDEST SWAP2 POP PUSH1 0x40 DUP5 ADD CALLDATALOAD PUSH2 0x3F6D DUP2 PUSH2 0x4B47 JUMP JUMPDEST DUP1 SWAP2 POP POP SWAP3 POP SWAP3 POP SWAP3 JUMP JUMPDEST PUSH1 0x0 DUP1 PUSH1 0x40 DUP4 DUP6 SUB SLT ISZERO PUSH2 0x3F8A JUMPI DUP2 DUP3 REVERT JUMPDEST DUP3 CALLDATALOAD PUSH2 0x3F95 DUP2 PUSH2 0x4B47 JUMP JUMPDEST SWAP5 PUSH1 0x20 SWAP4 SWAP1 SWAP4 ADD CALLDATALOAD SWAP4 POP POP POP JUMP JUMPDEST PUSH1 0x0 DUP1 PUSH1 0x0 PUSH1 0x60 DUP5 DUP7 SUB SLT ISZERO PUSH2 0x3FB7 JUMPI DUP3 DUP4 REVERT JUMPDEST DUP4 CALLDATALOAD PUSH2 0x3FC2 DUP2 PUSH2 0x4B47 JUMP JUMPDEST SWAP3 POP PUSH1 0x20 DUP5 ADD CALLDATALOAD SWAP2 POP PUSH1 0x40 DUP5 ADD CALLDATALOAD PUSH2 0x3F6D DUP2 PUSH2 0x4B47 JUMP JUMPDEST PUSH1 0x0 DUP1 PUSH2 0x640 DUP4 DUP6 SUB SLT ISZERO PUSH2 0x3FEC JUMPI DUP2 DUP3 REVERT JUMPDEST PUSH2 0x3FF6 DUP5 DUP5 PUSH2 0x3ECA JUMP JUMPDEST SWAP2 POP PUSH2 0x4006 DUP5 PUSH2 0x320 DUP6 ADD PUSH2 0x3ECA JUMP JUMPDEST SWAP1 POP SWAP3 POP SWAP3 SWAP1 POP JUMP JUMPDEST PUSH1 0x0 PUSH1 0x20 DUP1 DUP4 DUP6 SUB SLT ISZERO PUSH2 0x4021 JUMPI DUP2 DUP3 REVERT JUMPDEST DUP3 MLOAD PUSH8 0xFFFFFFFFFFFFFFFF DUP1 DUP3 GT ISZERO PUSH2 0x4038 JUMPI DUP4 DUP5 REVERT JUMPDEST DUP2 DUP6 ADD SWAP2 POP DUP6 PUSH1 0x1F DUP4 ADD SLT PUSH2 0x404B JUMPI DUP4 DUP5 REVERT JUMPDEST DUP2 MLOAD DUP2 DUP2 GT ISZERO PUSH2 0x405D JUMPI PUSH2 0x405D PUSH2 0x4B31 JUMP JUMPDEST DUP4 DUP2 MUL PUSH1 0x40 MLOAD DUP6 DUP3 DUP3 ADD ADD DUP2 DUP2 LT DUP6 DUP3 GT OR ISZERO PUSH2 0x407C JUMPI PUSH2 0x407C PUSH2 0x4B31 JUMP JUMPDEST PUSH1 0x40 MSTORE DUP3 DUP2 MSTORE DUP6 DUP2 ADD SWAP4 POP DUP5 DUP7 ADD DUP3 DUP7 ADD DUP8 ADD DUP11 LT ISZERO PUSH2 0x409A JUMPI DUP8 DUP9 REVERT JUMPDEST DUP8 SWAP6 POP JUMPDEST DUP4 DUP7 LT ISZERO PUSH2 0x40BC JUMPI DUP1 MLOAD DUP6 MSTORE PUSH1 0x1 SWAP6 SWAP1 SWAP6 ADD SWAP5 SWAP4 DUP7 ADD SWAP4 DUP7 ADD PUSH2 0x409E JUMP JUMPDEST POP SWAP9 SWAP8 POP POP POP POP POP POP POP POP JUMP JUMPDEST PUSH1 0x0 PUSH1 0x20 DUP3 DUP5 SUB SLT ISZERO PUSH2 0x40DA JUMPI DUP1 DUP2 REVERT JUMPDEST DUP2 CALLDATALOAD PUSH2 0x1716 DUP2 PUSH2 0x4B5C JUMP JUMPDEST PUSH1 0x0 PUSH1 0x20 DUP3 DUP5 SUB SLT ISZERO PUSH2 0x40F6 JUMPI DUP1 DUP2 REVERT JUMPDEST DUP2 MLOAD PUSH2 0x1716 DUP2 PUSH2 0x4B5C JUMP JUMPDEST PUSH1 0x0 PUSH1 0x20 DUP3 DUP5 SUB SLT ISZERO PUSH2 0x4112 JUMPI DUP1 DUP2 REVERT JUMPDEST POP CALLDATALOAD SWAP2 SWAP1 POP JUMP JUMPDEST PUSH1 0x0 PUSH1 0x20 DUP3 DUP5 SUB SLT ISZERO PUSH2 0x412A JUMPI DUP1 DUP2 REVERT JUMPDEST POP MLOAD SWAP2 SWAP1 POP JUMP JUMPDEST PUSH1 0x0 DUP1 PUSH1 0x40 DUP4 DUP6 SUB SLT ISZERO PUSH2 0x4143 JUMPI DUP2 DUP3 REVERT JUMPDEST POP POP DUP1 CALLDATALOAD SWAP3 PUSH1 0x20 SWAP1 SWAP2 ADD CALLDATALOAD SWAP2 POP JUMP JUMPDEST PUSH1 0x0 DUP1 PUSH1 0x40 DUP4 DUP6 SUB SLT ISZERO PUSH2 0x4164 JUMPI DUP2 DUP3 REVERT JUMPDEST POP POP DUP1 MLOAD PUSH1 0x20 SWAP1 SWAP2 ADD MLOAD SWAP1 SWAP3 SWAP1 SWAP2 POP JUMP JUMPDEST PUSH1 0x0 DUP1 PUSH1 0x0 DUP1 PUSH1 0x0 PUSH1 0xA0 DUP7 DUP9 SUB SLT ISZERO PUSH2 0x418C JUMPI DUP3 DUP4 REVERT JUMPDEST PUSH2 0x4195 DUP7 PUSH2 0x3EDC JUMP JUMPDEST SWAP5 POP PUSH1 0x20 DUP7 ADD MLOAD SWAP4 POP PUSH1 0x40 DUP7 ADD MLOAD SWAP3 POP PUSH1 0x60 DUP7 ADD MLOAD SWAP2 POP PUSH2 0x41B8 PUSH1 0x80 DUP8 ADD PUSH2 0x3EDC JUMP JUMPDEST SWAP1 POP SWAP3 SWAP6 POP SWAP3 SWAP6 SWAP1 SWAP4 POP JUMP JUMPDEST PUSH1 0x0 PUSH1 0x20 DUP3 DUP5 SUB SLT ISZERO PUSH2 0x41D5 JUMPI DUP1 DUP2 REVERT JUMPDEST DUP2 MLOAD PUSH1 0xFF DUP2 AND DUP2 EQ PUSH2 0x1716 JUMPI DUP2 DUP3 REVERT JUMPDEST PUSH1 0x0 DUP2 MLOAD DUP1 DUP5 MSTORE PUSH1 0x20 DUP1 DUP6 ADD SWAP5 POP DUP1 DUP5 ADD DUP4 JUMPDEST DUP4 DUP2 LT ISZERO PUSH2 0x421D JUMPI DUP2 MLOAD PUSH1 0x1 PUSH1 0x1 PUSH1 0xA0 SHL SUB AND DUP8 MSTORE SWAP6 DUP3 ADD SWAP6 SWAP1 DUP3 ADD SWAP1 PUSH1 0x1 ADD PUSH2 0x41F8 JUMP JUMPDEST POP SWAP5 SWAP6 SWAP5 POP POP POP POP POP JUMP JUMPDEST PUSH1 0x1 PUSH1 0x1 PUSH1 0xA0 SHL SUB SWAP2 SWAP1 SWAP2 AND DUP2 MSTORE PUSH1 0x20 ADD SWAP1 JUMP JUMPDEST PUSH1 0x1 PUSH1 0x1 PUSH1 0xA0 SHL SUB SWAP4 DUP5 AND DUP2 MSTORE SWAP2 SWAP1 SWAP3 AND PUSH1 0x20 DUP3 ADD MSTORE PUSH1 0x40 DUP2 ADD SWAP2 SWAP1 SWAP2 MSTORE PUSH1 0x60 ADD SWAP1 JUMP JUMPDEST PUSH1 0x1 PUSH1 0x1 PUSH1 0xA0 SHL SUB SWAP3 SWAP1 SWAP3 AND DUP3 MSTORE PUSH1 0x20 DUP3 ADD MSTORE PUSH1 0x40 ADD SWAP1 JUMP JUMPDEST PUSH1 0x0 PUSH1 0x20 DUP3 MSTORE PUSH2 0x1716 PUSH1 0x20 DUP4 ADD DUP5 PUSH2 0x41E5 JUMP JUMPDEST PUSH1 0x0 PUSH1 0x40 DUP3 MSTORE PUSH2 0x429F PUSH1 0x40 DUP4 ADD DUP6 PUSH2 0x41E5 JUMP JUMPDEST DUP3 DUP2 SUB PUSH1 0x20 DUP5 DUP2 ADD SWAP2 SWAP1 SWAP2 MSTORE DUP5 MLOAD DUP1 DUP4 MSTORE DUP6 DUP3 ADD SWAP3 DUP3 ADD SWAP1 DUP5 JUMPDEST DUP2 DUP2 LT ISZERO PUSH2 0x42D5 JUMPI DUP5 MLOAD DUP4 MSTORE SWAP4 DUP4 ADD SWAP4 SWAP2 DUP4 ADD SWAP2 PUSH1 0x1 ADD PUSH2 0x42B9 JUMP JUMPDEST POP SWAP1 SWAP8 SWAP7 POP POP POP POP POP POP POP JUMP JUMPDEST SWAP1 DUP2 MSTORE PUSH1 0x20 ADD SWAP1 JUMP JUMPDEST SWAP2 DUP3 MSTORE PUSH1 0x20 DUP3 ADD MSTORE PUSH1 0x40 ADD SWAP1 JUMP JUMPDEST SWAP3 DUP4 MSTORE PUSH1 0x20 DUP4 ADD SWAP2 SWAP1 SWAP2 MSTORE PUSH1 0x40 DUP3 ADD MSTORE PUSH1 0x60 ADD SWAP1 JUMP JUMPDEST SWAP4 DUP5 MSTORE PUSH1 0x20 DUP5 ADD SWAP3 SWAP1 SWAP3 MSTORE PUSH1 0x40 DUP4 ADD MSTORE PUSH1 0x60 DUP3 ADD MSTORE PUSH1 0x80 ADD SWAP1 JUMP JUMPDEST SWAP1 ISZERO ISZERO DUP2 MSTORE PUSH1 0x20 ADD SWAP1 JUMP JUMPDEST PUSH1 0x0 PUSH1 0x20 DUP1 DUP4 MSTORE DUP4 MLOAD DUP1 DUP3 DUP6 ADD MSTORE DUP3 JUMPDEST DUP2 DUP2 LT ISZERO PUSH2 0x4361 JUMPI DUP6 DUP2 ADD DUP4 ADD MLOAD DUP6 DUP3 ADD PUSH1 0x40 ADD MSTORE DUP3 ADD PUSH2 0x4345 JUMP JUMPDEST DUP2 DUP2 GT ISZERO PUSH2 0x4372 JUMPI DUP4 PUSH1 0x40 DUP4 DUP8 ADD ADD MSTORE JUMPDEST POP PUSH1 0x1F ADD PUSH1 0x1F NOT AND SWAP3 SWAP1 SWAP3 ADD PUSH1 0x40 ADD SWAP4 SWAP3 POP POP POP JUMP JUMPDEST PUSH1 0x20 DUP1 DUP3 MSTORE PUSH1 0x17 SWAP1 DUP3 ADD MSTORE PUSH32 0x30333831207468697320696E6465782065786365656473000000000000000000 PUSH1 0x40 DUP3 ADD MSTORE PUSH1 0x60 ADD SWAP1 JUMP JUMPDEST PUSH1 0x20 DUP1 DUP3 MSTORE PUSH1 0x13 SWAP1 DUP3 ADD MSTORE PUSH19 0xC0CCC4C08141BDBDB081A5CC81B1BD8DAD959 PUSH1 0x6A SHL PUSH1 0x40 DUP3 ADD MSTORE PUSH1 0x60 ADD SWAP1 JUMP JUMPDEST PUSH1 0x20 DUP1 DUP3 MSTORE PUSH1 0x23 SWAP1 DUP3 ADD MSTORE PUSH32 0x303334302054686520706F6F6C206973206F6E6C7920544F544D207265776172 PUSH1 0x40 DUP3 ADD MSTORE PUSH3 0x3232B9 PUSH1 0xE9 SHL PUSH1 0x60 DUP3 ADD MSTORE PUSH1 0x80 ADD SWAP1 JUMP JUMPDEST PUSH1 0x20 DUP1 DUP3 MSTORE PUSH1 0x26 SWAP1 DUP3 ADD MSTORE PUSH32 0x4F776E61626C653A206E6577206F776E657220697320746865207A65726F2061 PUSH1 0x40 DUP3 ADD MSTORE PUSH6 0x646472657373 PUSH1 0xD0 SHL PUSH1 0x60 DUP3 ADD MSTORE PUSH1 0x80 ADD SWAP1 JUMP JUMPDEST PUSH1 0x20 DUP1 DUP3 MSTORE PUSH1 0x2C SWAP1 DUP3 ADD MSTORE PUSH32 0x303336302043616E277420656E6420706F6F6C206265666F726520746865206D PUSH1 0x40 DUP3 ADD MSTORE PUSH12 0x617475726974792074696D65 PUSH1 0xA0 SHL PUSH1 0x60 DUP3 ADD MSTORE PUSH1 0x80 ADD SWAP1 JUMP JUMPDEST PUSH1 0x20 DUP1 DUP3 MSTORE PUSH1 0x16 SWAP1 DUP3 ADD MSTORE PUSH22 0xC0CCD8C88199A5C9CDD081CDA1BDD5B19081CDBDC9D PUSH1 0x52 SHL PUSH1 0x40 DUP3 ADD MSTORE PUSH1 0x60 ADD SWAP1 JUMP JUMPDEST PUSH1 0x20 DUP1 DUP3 MSTORE PUSH1 0x14 SWAP1 DUP3 ADD MSTORE PUSH20 0x3033343220446561646C696E65206973206C6F77 PUSH1 0x60 SHL PUSH1 0x40 DUP3 ADD MSTORE PUSH1 0x60 ADD SWAP1 JUMP JUMPDEST PUSH1 0x20 DUP1 DUP3 MSTORE PUSH1 0x1D SWAP1 DUP3 ADD MSTORE PUSH32 0x5573657220646F6573206E6F74206861766520616E79207374616B6573000000 PUSH1 0x40 DUP3 ADD MSTORE PUSH1 0x60 ADD SWAP1 JUMP JUMPDEST PUSH1 0x20 DUP1 DUP3 MSTORE PUSH1 0x4 SWAP1 DUP3 ADD MSTORE PUSH4 0x3033323 PUSH1 0xE4 SHL PUSH1 0x40 DUP3 ADD MSTORE PUSH1 0x60 ADD SWAP1 JUMP JUMPDEST PUSH1 0x20 DUP1 DUP3 MSTORE PUSH1 0x22 SWAP1 DUP3 ADD MSTORE PUSH32 0x4E6F74206368616E67696E67207468652061637469766174696F6E2073746174 PUSH1 0x40 DUP3 ADD MSTORE PUSH2 0x7573 PUSH1 0xF0 SHL PUSH1 0x60 DUP3 ADD MSTORE PUSH1 0x80 ADD SWAP1 JUMP JUMPDEST PUSH1 0x20 DUP1 DUP3 MSTORE PUSH1 0x24 SWAP1 DUP3 ADD MSTORE PUSH32 0x4E6F7420656E6F7567682062616C616E636520696E20726577617264206D616E PUSH1 0x40 DUP3 ADD MSTORE PUSH4 0x30B3B2B9 PUSH1 0xE1 SHL PUSH1 0x60 DUP3 ADD MSTORE PUSH1 0x80 ADD SWAP1 JUMP JUMPDEST PUSH1 0x20 DUP1 DUP3 MSTORE PUSH1 0x26 SWAP1 DUP3 ADD MSTORE PUSH32 0x303331322043616E2774207374616B652061626F76652073697A6520616C6C6F PUSH1 0x40 DUP3 ADD MSTORE PUSH6 0x31B0BA34B7B7 PUSH1 0xD1 SHL PUSH1 0x60 DUP3 ADD MSTORE PUSH1 0x80 ADD SWAP1 JUMP JUMPDEST PUSH1 0x20 DUP1 DUP3 MSTORE PUSH1 0x21 SWAP1 DUP3 ADD MSTORE PUSH32 0x3033373020746F74656D732063616E206E6F74206265207472616E7366657265 PUSH1 0x40 DUP3 ADD MSTORE PUSH1 0x19 PUSH1 0xFA SHL PUSH1 0x60 DUP3 ADD MSTORE PUSH1 0x80 ADD SWAP1 JUMP JUMPDEST PUSH1 0x20 DUP1 DUP3 MSTORE PUSH1 0x19 SWAP1 DUP3 ADD MSTORE PUSH32 0x3033343120416D6F756E742063616E2774206265207A65726F00000000000000 PUSH1 0x40 DUP3 ADD MSTORE PUSH1 0x60 ADD SWAP1 JUMP JUMPDEST PUSH1 0x20 DUP1 DUP3 MSTORE PUSH1 0x15 SWAP1 DUP3 ADD MSTORE PUSH21 0x69742773206E6F7420616E20656D657267656E6379 PUSH1 0x58 SHL PUSH1 0x40 DUP3 ADD MSTORE PUSH1 0x60 ADD SWAP1 JUMP JUMPDEST PUSH1 0x20 DUP1 DUP3 MSTORE PUSH1 0x2E SWAP1 DUP3 ADD MSTORE PUSH32 0x496E697469616C697A61626C653A20636F6E747261637420697320616C726561 PUSH1 0x40 DUP3 ADD MSTORE PUSH14 0x191E481A5B9A5D1A585B1A5E9959 PUSH1 0x92 SHL PUSH1 0x60 DUP3 ADD MSTORE PUSH1 0x80 ADD SWAP1 JUMP JUMPDEST PUSH1 0x20 DUP1 DUP3 MSTORE PUSH1 0x21 SWAP1 DUP3 ADD MSTORE PUSH32 0x303330302063616C6C6572206973206E6F74206120706F6F6C2063726561746F PUSH1 0x40 DUP3 ADD MSTORE PUSH1 0x39 PUSH1 0xF9 SHL PUSH1 0x60 DUP3 ADD MSTORE PUSH1 0x80 ADD SWAP1 JUMP JUMPDEST PUSH1 0x20 DUP1 DUP3 MSTORE DUP2 DUP2 ADD MSTORE PUSH32 0x4F776E61626C653A2063616C6C6572206973206E6F7420746865206F776E6572 PUSH1 0x40 DUP3 ADD MSTORE PUSH1 0x60 ADD SWAP1 JUMP JUMPDEST PUSH1 0x20 DUP1 DUP3 MSTORE PUSH1 0x2B SWAP1 DUP3 ADD MSTORE PUSH32 0x3033383020746869732061646472657373206469646E2774207374616B652069 PUSH1 0x40 DUP3 ADD MSTORE PUSH11 0x1B881D1A1A5CC81C1BDBDB PUSH1 0xAA SHL PUSH1 0x60 DUP3 ADD MSTORE PUSH1 0x80 ADD SWAP1 JUMP JUMPDEST PUSH1 0x20 DUP1 DUP3 MSTORE PUSH1 0x17 SWAP1 DUP3 ADD MSTORE PUSH32 0x3033313320706F6F6C206973206E6F7420616374697665000000000000000000 PUSH1 0x40 DUP3 ADD MSTORE PUSH1 0x60 ADD SWAP1 JUMP JUMPDEST PUSH1 0x20 DUP1 DUP3 MSTORE PUSH1 0x2A SWAP1 DUP3 ADD MSTORE PUSH32 0x3033313120416D6F756E742063616E2774206265206C657373207468616E2074 PUSH1 0x40 DUP3 ADD MSTORE PUSH10 0x6865206D696E696D756D PUSH1 0xB0 SHL PUSH1 0x60 DUP3 ADD MSTORE PUSH1 0x80 ADD SWAP1 JUMP JUMPDEST PUSH1 0x20 DUP1 DUP3 MSTORE PUSH1 0x27 SWAP1 DUP3 ADD MSTORE PUSH32 0x303336312057726170706564546F6B656E2052657761726473206E6F74206176 PUSH1 0x40 DUP3 ADD MSTORE PUSH7 0x61696C61626C65 PUSH1 0xC8 SHL PUSH1 0x60 DUP3 ADD MSTORE PUSH1 0x80 ADD SWAP1 JUMP JUMPDEST PUSH1 0x20 DUP1 DUP3 MSTORE PUSH1 0x14 SWAP1 DUP3 ADD MSTORE PUSH20 0x125B99195E08191BD95CC81B9BDD08195E1A5CDD PUSH1 0x62 SHL PUSH1 0x40 DUP3 ADD MSTORE PUSH1 0x60 ADD SWAP1 JUMP JUMPDEST PUSH1 0x20 DUP1 DUP3 MSTORE PUSH1 0x36 SWAP1 DUP3 ADD MSTORE PUSH32 0x303335302043616E277420736574206D61747572696E67207072696365206265 PUSH1 0x40 DUP3 ADD MSTORE PUSH22 0x666F726520746865206D617475726974792074696D65 PUSH1 0x50 SHL PUSH1 0x60 DUP3 ADD MSTORE PUSH1 0x80 ADD SWAP1 JUMP JUMPDEST PUSH1 0x20 DUP1 DUP3 MSTORE PUSH1 0x4 SWAP1 DUP3 ADD MSTORE PUSH4 0x3033333 PUSH1 0xE4 SHL PUSH1 0x40 DUP3 ADD MSTORE PUSH1 0x60 ADD SWAP1 JUMP JUMPDEST PUSH1 0x0 DUP4 DUP3 MSTORE PUSH1 0x40 PUSH1 0x20 DUP4 ADD MSTORE PUSH2 0x4979 PUSH1 0x40 DUP4 ADD DUP5 PUSH2 0x41E5 JUMP JUMPDEST SWAP5 SWAP4 POP POP POP POP JUMP JUMPDEST PUSH1 0x0 DUP7 DUP3 MSTORE DUP6 PUSH1 0x20 DUP4 ADD MSTORE PUSH1 0xA0 PUSH1 0x40 DUP4 ADD MSTORE PUSH2 0x49A0 PUSH1 0xA0 DUP4 ADD DUP7 PUSH2 0x41E5 JUMP JUMPDEST PUSH1 0x1 PUSH1 0x1 PUSH1 0xA0 SHL SUB SWAP5 SWAP1 SWAP5 AND PUSH1 0x60 DUP4 ADD MSTORE POP PUSH1 0x80 ADD MSTORE SWAP4 SWAP3 POP POP POP JUMP JUMPDEST SWAP9 DUP10 MSTORE PUSH1 0x20 DUP10 ADD SWAP8 SWAP1 SWAP8 MSTORE PUSH1 0x40 DUP9 ADD SWAP6 SWAP1 SWAP6 MSTORE PUSH1 0x60 DUP8 ADD SWAP4 SWAP1 SWAP4 MSTORE PUSH1 0x80 DUP7 ADD SWAP2 SWAP1 SWAP2 MSTORE PUSH1 0xA0 DUP6 ADD MSTORE PUSH1 0xC0 DUP5 ADD MSTORE ISZERO ISZERO PUSH1 0xE0 DUP4 ADD MSTORE ISZERO ISZERO PUSH2 0x100 DUP3 ADD MSTORE PUSH2 0x120 ADD SWAP1 JUMP JUMPDEST SWAP10 DUP11 MSTORE PUSH1 0x20 DUP11 ADD SWAP9 SWAP1 SWAP9 MSTORE PUSH1 0x40 DUP10 ADD SWAP7 SWAP1 SWAP7 MSTORE PUSH1 0x60 DUP9 ADD SWAP5 SWAP1 SWAP5 MSTORE PUSH1 0x80 DUP8 ADD SWAP3 SWAP1 SWAP3 MSTORE PUSH1 0xA0 DUP7 ADD MSTORE PUSH1 0xC0 DUP6 ADD MSTORE PUSH1 0xE0 DUP5 ADD MSTORE ISZERO ISZERO PUSH2 0x100 DUP4 ADD MSTORE ISZERO ISZERO PUSH2 0x120 DUP3 ADD MSTORE PUSH2 0x140 ADD SWAP1 JUMP JUMPDEST PUSH1 0xFF SWAP2 SWAP1 SWAP2 AND DUP2 MSTORE PUSH1 0x20 ADD SWAP1 JUMP JUMPDEST PUSH1 0x0 DUP3 NOT DUP3 GT ISZERO PUSH2 0x4A6A JUMPI PUSH2 0x4A6A PUSH2 0x4B1B JUMP JUMPDEST POP ADD SWAP1 JUMP JUMPDEST PUSH1 0x0 DUP3 PUSH2 0x4A8A JUMPI PUSH4 0x4E487B71 PUSH1 0xE0 SHL DUP2 MSTORE PUSH1 0x12 PUSH1 0x4 MSTORE PUSH1 0x24 DUP2 REVERT JUMPDEST POP DIV SWAP1 JUMP JUMPDEST PUSH1 0x0 DUP2 PUSH1 0x0 NOT DIV DUP4 GT DUP3 ISZERO ISZERO AND ISZERO PUSH2 0x4AA9 JUMPI PUSH2 0x4AA9 PUSH2 0x4B1B JUMP JUMPDEST POP MUL SWAP1 JUMP JUMPDEST PUSH1 0x0 DUP3 DUP3 LT ISZERO PUSH2 0x4AC0 JUMPI PUSH2 0x4AC0 PUSH2 0x4B1B JUMP JUMPDEST POP SUB SWAP1 JUMP JUMPDEST PUSH1 0x2 DUP2 DIV PUSH1 0x1 DUP3 AND DUP1 PUSH2 0x4AD9 JUMPI PUSH1 0x7F DUP3 AND SWAP2 POP JUMPDEST PUSH1 0x20 DUP3 LT DUP2 EQ ISZERO PUSH2 0x4AFA JUMPI PUSH4 0x4E487B71 PUSH1 0xE0 SHL PUSH1 0x0 MSTORE PUSH1 0x22 PUSH1 0x4 MSTORE PUSH1 0x24 PUSH1 0x0 REVERT JUMPDEST POP SWAP2 SWAP1 POP JUMP JUMPDEST PUSH1 0x0 PUSH1 0x0 NOT DUP3 EQ ISZERO PUSH2 0x4B14 JUMPI PUSH2 0x4B14 PUSH2 0x4B1B JUMP JUMPDEST POP PUSH1 0x1 ADD SWAP1 JUMP JUMPDEST PUSH4 0x4E487B71 PUSH1 0xE0 SHL PUSH1 0x0 MSTORE PUSH1 0x11 PUSH1 0x4 MSTORE PUSH1 0x24 PUSH1 0x0 REVERT JUMPDEST PUSH4 0x4E487B71 PUSH1 0xE0 SHL PUSH1 0x0 MSTORE PUSH1 0x41 PUSH1 0x4 MSTORE PUSH1 0x24 PUSH1 0x0 REVERT JUMPDEST PUSH1 0x1 PUSH1 0x1 PUSH1 0xA0 SHL SUB DUP2 AND DUP2 EQ PUSH2 0x1F91 JUMPI PUSH1 0x0 DUP1 REVERT JUMPDEST DUP1 ISZERO ISZERO DUP2 EQ PUSH2 0x1F91 JUMPI PUSH1 0x0 DUP1 REVERT INVALID LOG2 PUSH5 0x6970667358 0x22 SLT KECCAK256 DUP3 0xD5 0x2D LOG3 0xAF BYTE 0xCE LT PUSH2 0xBF8C PUSH4 0xDCAB29E4 0xBC 0xDA EQ SWAP16 CALLDATACOPY 0xBF CODESIZE 0xB8 0xC5 TIMESTAMP PUSH24 0x89D11C8DBF64736F6C634300080000330000000000000000 "
    },
    "gasEstimates": {
      "creation": {
        "codeDepositCost": "3872000",
        "executionCost": "4395",
        "totalCost": "3876395"
      },
      "external": {
        "__PriceConsumer_initialize(address)": "65436",
        "__WrappedTokenDistributor_initialize(address,address,address)": "infinite",
        "claimReward()": "infinite",
        "collaborativeRange()": "1095",
        "collaborativeReward()": "1094",
        "declareEmergency()": "43538",
        "deletePool()": "22754",
        "emergentWithdraw()": "infinite",
        "endPool()": "infinite",
        "getAveragePricePrediction()": "infinite",
        "getDecimals()": "infinite",
        "getDifference(uint256,uint256)": "infinite",
        "getEstimatedWrappedTokenForUSD(uint256)": "infinite",
        "getIndexedPrize(address,uint256)": "infinite",
        "getIndexedStakingReward(address,uint256)": "infinite",
        "getLatestPrice()": "infinite",
        "getPathForUSDToWrappedToken()": "infinite",
        "getPrize(address)": "infinite",
        "getStakers()": "infinite",
        "getStakingReward(address)": "infinite",
        "getStakingTax(uint256,uint256)": "infinite",
        "getUSDBalance()": "infinite",
        "getUSDToken()": "1158",
        "getWrappedTokenBalance()": "infinite",
        "getswapRouter()": "1228",
        "hasUnStaked(address,uint256)": "infinite",
        "indexedClaimReward(uint256)": "infinite",
        "isActive()": "1165",
        "isAnEmergency()": "1108",
        "isDeleted()": "1185",
        "isEnhancedEnabled()": "1207",
        "isLocked()": "1207",
        "isMatured()": "1185",
        "launchDate()": "1160",
        "lockPool()": "22713",
        "lockTime()": "1098",
        "lps()": "7802",
        "maturingPrice()": "1140",
        "maturityTime()": "1141",
        "minimumStakeAmount()": "1140",
        "oracleContract()": "1203",
        "oracleDecimal()": "340",
        "owner()": "1139",
        "poolCreator()": "1160",
        "poolType()": "infinite",
        "potentialCollabReward()": "1161",
        "predictions(address,uint256)": "8180",
        "prizeAmount()": "1096",
        "prizeRewardRates(uint256)": "2957",
        "purchaseWrappedToken(uint256,uint256)": "infinite",
        "renounceOwnership()": "23641",
        "rewardManager()": "1162",
        "setActivationStatus(bool)": "infinite",
        "setOracleToZero()": "21948",
        "setSortedStakers(address[25],uint256[25])": "infinite",
        "sizeAllocation()": "1163",
        "sizeLimitRangeRate()": "341",
        "sortedStakers(uint256)": "2958",
        "stake(uint256,uint256)": "infinite",
        "stakeApr()": "1140",
        "stakeTaxRate()": "1118",
        "stakers(uint256)": "3045",
        "stakingPoolImplementation()": "1161",
        "totalStaked()": "1095",
        "totemToken()": "1225",
        "transferOwnership(address)": "infinite",
        "updateMaturingPrice(uint256)": "infinite",
        "upgradeEnabled()": "1206",
        "usdPrizeAmount()": "1184",
        "withdrawStuckTokens(address,uint256,address)": "infinite",
        "wrappedToken()": "1205",
        "wrappedTokenSymbol()": "infinite"
      },
      "internal": {
        "_lockPool()": "21610"
      }
    },
    "methodIdentifiers": {
      "__PriceConsumer_initialize(address)": "37c4f6a4",
      "__WrappedTokenDistributor_initialize(address,address,address)": "a8f7b346",
      "claimReward()": "b88a802f",
      "collaborativeRange()": "eb850ae1",
      "collaborativeReward()": "f3d9dc0d",
      "declareEmergency()": "31e244e5",
      "deletePool()": "8bfbbcbe",
      "emergentWithdraw()": "8a9920b7",
      "endPool()": "2d42cf7d",
      "getAveragePricePrediction()": "bf852196",
      "getDecimals()": "f0141d84",
      "getDifference(uint256,uint256)": "4c7c77fc",
      "getEstimatedWrappedTokenForUSD(uint256)": "3fcdd82c",
      "getIndexedPrize(address,uint256)": "b7b30170",
      "getIndexedStakingReward(address,uint256)": "2342e480",
      "getLatestPrice()": "8e15f473",
      "getPathForUSDToWrappedToken()": "a35ef3a7",
      "getPrize(address)": "2d5cd1d6",
      "getStakers()": "43352d61",
      "getStakingReward(address)": "78f4d413",
      "getStakingTax(uint256,uint256)": "395b3dac",
      "getUSDBalance()": "c1201054",
      "getUSDToken()": "f5e96fc9",
      "getWrappedTokenBalance()": "f8e829c3",
      "getswapRouter()": "2e577d07",
      "hasUnStaked(address,uint256)": "45e91319",
      "indexedClaimReward(uint256)": "b1b1e1c0",
      "isActive()": "22f3e2d4",
      "isAnEmergency()": "a08b2c79",
      "isDeleted()": "d7efb6b7",
      "isEnhancedEnabled()": "4bc4eeb2",
      "isLocked()": "a4e2d634",
      "isMatured()": "7f2b6a0d",
      "launchDate()": "f8eeed62",
      "lockPool()": "4026478e",
      "lockTime()": "0d668087",
      "lps()": "e0818669",
      "maturingPrice()": "d025188b",
      "maturityTime()": "4e8bfdaa",
      "minimumStakeAmount()": "6b036f45",
      "oracleContract()": "bece7532",
      "oracleDecimal()": "a150194b",
      "owner()": "8da5cb5b",
      "poolCreator()": "c6c1decd",
      "poolType()": "b1dd61b6",
      "potentialCollabReward()": "e425df8c",
      "predictions(address,uint256)": "850fa7cb",
      "prizeAmount()": "785fa627",
      "prizeRewardRates(uint256)": "f1b17a8b",
      "purchaseWrappedToken(uint256,uint256)": "4ddc1bdc",
      "renounceOwnership()": "715018a6",
      "rewardManager()": "0f4ef8a6",
      "setActivationStatus(bool)": "a118c9a7",
      "setOracleToZero()": "df7f92e0",
      "setSortedStakers(address[25],uint256[25])": "444a4902",
      "sizeAllocation()": "51eacbf0",
      "sizeLimitRangeRate()": "95c2ba47",
      "sortedStakers(uint256)": "de09ee20",
      "stake(uint256,uint256)": "7b0472f0",
      "stakeApr()": "aa7bcb57",
      "stakeTaxRate()": "6847d0c5",
      "stakers(uint256)": "fd5e6dd1",
      "stakingPoolImplementation()": "2aa8195e",
      "totalStaked()": "817b1cd2",
      "totemToken()": "e8153c93",
      "transferOwnership(address)": "f2fde38b",
      "updateMaturingPrice(uint256)": "a7a48681",
      "upgradeEnabled()": "8cf0e21e",
      "usdPrizeAmount()": "73f31703",
      "withdrawStuckTokens(address,uint256,address)": "5d2631e2",
      "wrappedToken()": "996c6cc3",
      "wrappedTokenSymbol()": "238a6c74"
    }
  },
  "storageLayout": {
    "storage": [
      {
        "astId": 176,
        "contract": "contracts/Staking/StakingPoolImplementation.sol:StakingPoolImplementation",
        "label": "_initialized",
        "offset": 0,
        "slot": "0",
        "type": "t_bool"
      },
      {
        "astId": 179,
        "contract": "contracts/Staking/StakingPoolImplementation.sol:StakingPoolImplementation",
        "label": "_initializing",
        "offset": 1,
        "slot": "0",
        "type": "t_bool"
      },
      {
        "astId": 259,
        "contract": "contracts/Staking/StakingPoolImplementation.sol:StakingPoolImplementation",
        "label": "__gap",
        "offset": 0,
        "slot": "1",
        "type": "t_array(t_uint256)50_storage"
      },
      {
        "astId": 56,
        "contract": "contracts/Staking/StakingPoolImplementation.sol:StakingPoolImplementation",
        "label": "_owner",
        "offset": 0,
        "slot": "51",
        "type": "t_address"
      },
      {
        "astId": 169,
        "contract": "contracts/Staking/StakingPoolImplementation.sol:StakingPoolImplementation",
        "label": "__gap",
        "offset": 0,
        "slot": "52",
        "type": "t_array(t_uint256)49_storage"
      },
      {
        "astId": 1585,
        "contract": "contracts/Staking/StakingPoolImplementation.sol:StakingPoolImplementation",
        "label": "priceFeed",
        "offset": 0,
        "slot": "101",
        "type": "t_contract(AggregatorV3Interface)45"
      },
      {
        "astId": 1353,
        "contract": "contracts/Staking/StakingPoolImplementation.sol:StakingPoolImplementation",
        "label": "USDCContract",
        "offset": 0,
        "slot": "102",
        "type": "t_contract(IERC20)988"
      },
      {
        "astId": 1438,
        "contract": "contracts/Staking/StakingPoolImplementation.sol:StakingPoolImplementation",
        "label": "swapRouter",
        "offset": 0,
        "slot": "103",
        "type": "t_contract(IPancakeRouter02)7031"
      },
      {
        "astId": 1440,
        "contract": "contracts/Staking/StakingPoolImplementation.sol:StakingPoolImplementation",
        "label": "BUSD_CONTRACT_ADDRESS",
        "offset": 0,
        "slot": "104",
        "type": "t_address"
      },
      {
        "astId": 1442,
        "contract": "contracts/Staking/StakingPoolImplementation.sol:StakingPoolImplementation",
        "label": "WRAPPED_Token_CONTRACT_ADDRESS",
        "offset": 0,
        "slot": "105",
        "type": "t_address"
      },
      {
        "astId": 4405,
        "contract": "contracts/Staking/StakingPoolImplementation.sol:StakingPoolImplementation",
        "label": "stakingPoolImplementation",
        "offset": 0,
        "slot": "106",
        "type": "t_address"
      },
      {
        "astId": 4407,
        "contract": "contracts/Staking/StakingPoolImplementation.sol:StakingPoolImplementation",
        "label": "poolCreator",
        "offset": 0,
        "slot": "107",
        "type": "t_address"
      },
      {
        "astId": 4409,
        "contract": "contracts/Staking/StakingPoolImplementation.sol:StakingPoolImplementation",
        "label": "oracleContract",
        "offset": 0,
        "slot": "108",
        "type": "t_address"
      },
      {
        "astId": 4462,
        "contract": "contracts/Staking/StakingPoolImplementation.sol:StakingPoolImplementation",
        "label": "lps",
        "offset": 0,
        "slot": "109",
        "type": "t_struct(LibParams)4430_storage"
      },
      {
        "astId": 4466,
        "contract": "contracts/Staking/StakingPoolImplementation.sol:StakingPoolImplementation",
        "label": "prizeRewardRates",
        "offset": 0,
        "slot": "118",
        "type": "t_array(t_struct(PrizeRewardRate)4459_storage)dyn_storage"
      },
      {
        "astId": 4470,
        "contract": "contracts/Staking/StakingPoolImplementation.sol:StakingPoolImplementation",
        "label": "stakers",
        "offset": 0,
        "slot": "119",
        "type": "t_array(t_struct(Staker)4454_storage)dyn_storage"
      },
      {
        "astId": 4474,
        "contract": "contracts/Staking/StakingPoolImplementation.sol:StakingPoolImplementation",
        "label": "sortedStakers",
        "offset": 0,
        "slot": "120",
        "type": "t_array(t_struct(Staker)4454_storage)dyn_storage"
      },
      {
        "astId": 4480,
        "contract": "contracts/Staking/StakingPoolImplementation.sol:StakingPoolImplementation",
        "label": "predictions",
        "offset": 0,
        "slot": "121",
        "type": "t_mapping(t_address,t_array(t_struct(StakeWithPrediction)4449_storage)dyn_storage)"
      },
      {
        "astId": 4483,
        "contract": "contracts/Staking/StakingPoolImplementation.sol:StakingPoolImplementation",
        "label": "totemToken",
        "offset": 0,
        "slot": "122",
        "type": "t_contract(ITotemToken)7152"
      },
      {
        "astId": 4486,
        "contract": "contracts/Staking/StakingPoolImplementation.sol:StakingPoolImplementation",
        "label": "rewardManager",
        "offset": 0,
        "slot": "123",
        "type": "t_contract(IRewardManager)7059"
      },
      {
        "astId": 4489,
        "contract": "contracts/Staking/StakingPoolImplementation.sol:StakingPoolImplementation",
        "label": "wrappedToken",
        "offset": 0,
        "slot": "124",
        "type": "t_contract(IERC20)988"
      },
      {
        "astId": 4491,
        "contract": "contracts/Staking/StakingPoolImplementation.sol:StakingPoolImplementation",
        "label": "wrappedTokenSymbol",
        "offset": 0,
        "slot": "125",
        "type": "t_string_storage"
      },
      {
        "astId": 4493,
        "contract": "contracts/Staking/StakingPoolImplementation.sol:StakingPoolImplementation",
        "label": "poolType",
        "offset": 0,
        "slot": "126",
        "type": "t_string_storage"
      },
      {
        "astId": 4501,
        "contract": "contracts/Staking/StakingPoolImplementation.sol:StakingPoolImplementation",
        "label": "launchDate",
        "offset": 0,
        "slot": "127",
        "type": "t_uint256"
      },
      {
        "astId": 4503,
        "contract": "contracts/Staking/StakingPoolImplementation.sol:StakingPoolImplementation",
        "label": "lockTime",
        "offset": 0,
        "slot": "128",
        "type": "t_uint256"
      },
      {
        "astId": 4505,
        "contract": "contracts/Staking/StakingPoolImplementation.sol:StakingPoolImplementation",
        "label": "maturityTime",
        "offset": 0,
        "slot": "129",
        "type": "t_uint256"
      },
      {
        "astId": 4507,
        "contract": "contracts/Staking/StakingPoolImplementation.sol:StakingPoolImplementation",
        "label": "sizeAllocation",
        "offset": 0,
        "slot": "130",
        "type": "t_uint256"
      },
      {
        "astId": 4509,
        "contract": "contracts/Staking/StakingPoolImplementation.sol:StakingPoolImplementation",
        "label": "stakeApr",
        "offset": 0,
        "slot": "131",
        "type": "t_uint256"
      },
      {
        "astId": 4511,
        "contract": "contracts/Staking/StakingPoolImplementation.sol:StakingPoolImplementation",
        "label": "prizeAmount",
        "offset": 0,
        "slot": "132",
        "type": "t_uint256"
      },
      {
        "astId": 4514,
        "contract": "contracts/Staking/StakingPoolImplementation.sol:StakingPoolImplementation",
        "label": "usdPrizeAmount",
        "offset": 0,
        "slot": "133",
        "type": "t_uint256"
      },
      {
        "astId": 4516,
        "contract": "contracts/Staking/StakingPoolImplementation.sol:StakingPoolImplementation",
        "label": "stakeTaxRate",
        "offset": 0,
        "slot": "134",
        "type": "t_uint256"
      },
      {
        "astId": 4518,
        "contract": "contracts/Staking/StakingPoolImplementation.sol:StakingPoolImplementation",
        "label": "minimumStakeAmount",
        "offset": 0,
        "slot": "135",
        "type": "t_uint256"
      },
      {
        "astId": 4520,
        "contract": "contracts/Staking/StakingPoolImplementation.sol:StakingPoolImplementation",
        "label": "totalStaked",
        "offset": 0,
        "slot": "136",
        "type": "t_uint256"
      },
      {
        "astId": 4522,
        "contract": "contracts/Staking/StakingPoolImplementation.sol:StakingPoolImplementation",
        "label": "maturingPrice",
        "offset": 0,
        "slot": "137",
        "type": "t_uint256"
      },
      {
        "astId": 4524,
        "contract": "contracts/Staking/StakingPoolImplementation.sol:StakingPoolImplementation",
        "label": "potentialCollabReward",
        "offset": 0,
        "slot": "138",
        "type": "t_uint256"
      },
      {
        "astId": 4526,
        "contract": "contracts/Staking/StakingPoolImplementation.sol:StakingPoolImplementation",
        "label": "collaborativeRange",
        "offset": 0,
        "slot": "139",
        "type": "t_uint256"
      },
      {
        "astId": 4529,
        "contract": "contracts/Staking/StakingPoolImplementation.sol:StakingPoolImplementation",
        "label": "collaborativeReward",
        "offset": 0,
        "slot": "140",
        "type": "t_uint256"
      },
      {
        "astId": 4531,
        "contract": "contracts/Staking/StakingPoolImplementation.sol:StakingPoolImplementation",
        "label": "isAnEmergency",
        "offset": 0,
        "slot": "141",
        "type": "t_bool"
      },
      {
        "astId": 4533,
        "contract": "contracts/Staking/StakingPoolImplementation.sol:StakingPoolImplementation",
        "label": "isEnhancedEnabled",
        "offset": 1,
        "slot": "141",
        "type": "t_bool"
      },
      {
        "astId": 4535,
        "contract": "contracts/Staking/StakingPoolImplementation.sol:StakingPoolImplementation",
        "label": "isActive",
        "offset": 2,
        "slot": "141",
        "type": "t_bool"
      },
      {
        "astId": 4537,
        "contract": "contracts/Staking/StakingPoolImplementation.sol:StakingPoolImplementation",
        "label": "isLocked",
        "offset": 3,
        "slot": "141",
        "type": "t_bool"
      },
      {
        "astId": 4539,
        "contract": "contracts/Staking/StakingPoolImplementation.sol:StakingPoolImplementation",
        "label": "isMatured",
        "offset": 4,
        "slot": "141",
        "type": "t_bool"
      },
      {
        "astId": 4541,
        "contract": "contracts/Staking/StakingPoolImplementation.sol:StakingPoolImplementation",
        "label": "isDeleted",
        "offset": 5,
        "slot": "141",
        "type": "t_bool"
      },
      {
        "astId": 4544,
        "contract": "contracts/Staking/StakingPoolImplementation.sol:StakingPoolImplementation",
        "label": "upgradeEnabled",
        "offset": 6,
        "slot": "141",
        "type": "t_bool"
      }
    ],
    "types": {
      "t_address": {
        "encoding": "inplace",
        "label": "address",
        "numberOfBytes": "20"
      },
      "t_array(t_struct(PrizeRewardRate)4459_storage)dyn_storage": {
        "base": "t_struct(PrizeRewardRate)4459_storage",
        "encoding": "dynamic_array",
        "label": "struct StakingPoolStorageStructure.PrizeRewardRate[]",
        "numberOfBytes": "32"
      },
      "t_array(t_struct(StakeWithPrediction)4449_storage)dyn_storage": {
        "base": "t_struct(StakeWithPrediction)4449_storage",
        "encoding": "dynamic_array",
        "label": "struct StakingPoolStorageStructure.StakeWithPrediction[]",
        "numberOfBytes": "32"
      },
      "t_array(t_struct(Staker)4454_storage)dyn_storage": {
        "base": "t_struct(Staker)4454_storage",
        "encoding": "dynamic_array",
        "label": "struct StakingPoolStorageStructure.Staker[]",
        "numberOfBytes": "32"
      },
      "t_array(t_uint256)49_storage": {
        "base": "t_uint256",
        "encoding": "inplace",
        "label": "uint256[49]",
        "numberOfBytes": "1568"
      },
      "t_array(t_uint256)50_storage": {
        "base": "t_uint256",
        "encoding": "inplace",
        "label": "uint256[50]",
        "numberOfBytes": "1600"
      },
      "t_bool": {
        "encoding": "inplace",
        "label": "bool",
        "numberOfBytes": "1"
      },
      "t_contract(AggregatorV3Interface)45": {
        "encoding": "inplace",
        "label": "contract AggregatorV3Interface",
        "numberOfBytes": "20"
      },
      "t_contract(IERC20)988": {
        "encoding": "inplace",
        "label": "contract IERC20",
        "numberOfBytes": "20"
      },
      "t_contract(IPancakeRouter02)7031": {
        "encoding": "inplace",
        "label": "contract IPancakeRouter02",
        "numberOfBytes": "20"
      },
      "t_contract(IRewardManager)7059": {
        "encoding": "inplace",
        "label": "contract IRewardManager",
        "numberOfBytes": "20"
      },
      "t_contract(ITotemToken)7152": {
        "encoding": "inplace",
        "label": "contract ITotemToken",
        "numberOfBytes": "20"
      },
      "t_mapping(t_address,t_array(t_struct(StakeWithPrediction)4449_storage)dyn_storage)": {
        "encoding": "mapping",
        "key": "t_address",
        "label": "mapping(address => struct StakingPoolStorageStructure.StakeWithPrediction[])",
        "numberOfBytes": "32",
        "value": "t_array(t_struct(StakeWithPrediction)4449_storage)dyn_storage"
      },
      "t_string_storage": {
        "encoding": "bytes",
        "label": "string",
        "numberOfBytes": "32"
      },
      "t_struct(LibParams)4430_storage": {
        "encoding": "inplace",
        "label": "struct StakingPoolStorageStructure.LibParams",
        "members": [
          {
            "astId": 4411,
            "contract": "contracts/Staking/StakingPoolImplementation.sol:StakingPoolImplementation",
            "label": "launchDate",
            "offset": 0,
            "slot": "0",
            "type": "t_uint256"
          },
          {
            "astId": 4413,
            "contract": "contracts/Staking/StakingPoolImplementation.sol:StakingPoolImplementation",
            "label": "lockTime",
            "offset": 0,
            "slot": "1",
            "type": "t_uint256"
          },
          {
            "astId": 4415,
            "contract": "contracts/Staking/StakingPoolImplementation.sol:StakingPoolImplementation",
            "label": "maturityTime",
            "offset": 0,
            "slot": "2",
            "type": "t_uint256"
          },
          {
            "astId": 4417,
            "contract": "contracts/Staking/StakingPoolImplementation.sol:StakingPoolImplementation",
            "label": "maturingPrice",
            "offset": 0,
            "slot": "3",
            "type": "t_uint256"
          },
          {
            "astId": 4419,
            "contract": "contracts/Staking/StakingPoolImplementation.sol:StakingPoolImplementation",
            "label": "usdPrizeAmount",
            "offset": 0,
            "slot": "4",
            "type": "t_uint256"
          },
          {
            "astId": 4421,
            "contract": "contracts/Staking/StakingPoolImplementation.sol:StakingPoolImplementation",
            "label": "prizeAmount",
            "offset": 0,
            "slot": "5",
            "type": "t_uint256"
          },
          {
            "astId": 4423,
            "contract": "contracts/Staking/StakingPoolImplementation.sol:StakingPoolImplementation",
            "label": "stakeApr",
            "offset": 0,
            "slot": "6",
            "type": "t_uint256"
          },
          {
            "astId": 4425,
            "contract": "contracts/Staking/StakingPoolImplementation.sol:StakingPoolImplementation",
            "label": "collaborativeReward",
            "offset": 0,
            "slot": "7",
            "type": "t_uint256"
          },
          {
            "astId": 4427,
            "contract": "contracts/Staking/StakingPoolImplementation.sol:StakingPoolImplementation",
            "label": "isEnhancedEnabled",
            "offset": 0,
            "slot": "8",
            "type": "t_bool"
          },
          {
            "astId": 4429,
            "contract": "contracts/Staking/StakingPoolImplementation.sol:StakingPoolImplementation",
            "label": "isMatured",
            "offset": 1,
            "slot": "8",
            "type": "t_bool"
          }
        ],
        "numberOfBytes": "288"
      },
      "t_struct(PrizeRewardRate)4459_storage": {
        "encoding": "inplace",
        "label": "struct StakingPoolStorageStructure.PrizeRewardRate",
        "members": [
          {
            "astId": 4456,
            "contract": "contracts/Staking/StakingPoolImplementation.sol:StakingPoolImplementation",
            "label": "rank",
            "offset": 0,
            "slot": "0",
            "type": "t_uint256"
          },
          {
            "astId": 4458,
            "contract": "contracts/Staking/StakingPoolImplementation.sol:StakingPoolImplementation",
            "label": "percentage",
            "offset": 0,
            "slot": "1",
            "type": "t_uint256"
          }
        ],
        "numberOfBytes": "64"
      },
      "t_struct(StakeWithPrediction)4449_storage": {
        "encoding": "inplace",
        "label": "struct StakingPoolStorageStructure.StakeWithPrediction",
        "members": [
          {
            "astId": 4432,
            "contract": "contracts/Staking/StakingPoolImplementation.sol:StakingPoolImplementation",
            "label": "stakedBalance",
            "offset": 0,
            "slot": "0",
            "type": "t_uint256"
          },
          {
            "astId": 4434,
            "contract": "contracts/Staking/StakingPoolImplementation.sol:StakingPoolImplementation",
            "label": "stakedTime",
            "offset": 0,
            "slot": "1",
            "type": "t_uint256"
          },
          {
            "astId": 4436,
            "contract": "contracts/Staking/StakingPoolImplementation.sol:StakingPoolImplementation",
            "label": "amountWithdrawn",
            "offset": 0,
            "slot": "2",
            "type": "t_uint256"
          },
          {
            "astId": 4438,
            "contract": "contracts/Staking/StakingPoolImplementation.sol:StakingPoolImplementation",
            "label": "lastWithdrawalTime",
            "offset": 0,
            "slot": "3",
            "type": "t_uint256"
          },
          {
            "astId": 4440,
            "contract": "contracts/Staking/StakingPoolImplementation.sol:StakingPoolImplementation",
            "label": "pricePrediction",
            "offset": 0,
            "slot": "4",
            "type": "t_uint256"
          },
          {
            "astId": 4442,
            "contract": "contracts/Staking/StakingPoolImplementation.sol:StakingPoolImplementation",
            "label": "difference",
            "offset": 0,
            "slot": "5",
            "type": "t_uint256"
          },
          {
            "astId": 4444,
            "contract": "contracts/Staking/StakingPoolImplementation.sol:StakingPoolImplementation",
            "label": "rank",
            "offset": 0,
            "slot": "6",
            "type": "t_uint256"
          },
          {
            "astId": 4446,
            "contract": "contracts/Staking/StakingPoolImplementation.sol:StakingPoolImplementation",
            "label": "prizeRewardWithdrawn",
            "offset": 0,
            "slot": "7",
            "type": "t_bool"
          },
          {
            "astId": 4448,
            "contract": "contracts/Staking/StakingPoolImplementation.sol:StakingPoolImplementation",
            "label": "didUnstake",
            "offset": 1,
            "slot": "7",
            "type": "t_bool"
          }
        ],
        "numberOfBytes": "256"
      },
      "t_struct(Staker)4454_storage": {
        "encoding": "inplace",
        "label": "struct StakingPoolStorageStructure.Staker",
        "members": [
          {
            "astId": 4451,
            "contract": "contracts/Staking/StakingPoolImplementation.sol:StakingPoolImplementation",
            "label": "stakerAddress",
            "offset": 0,
            "slot": "0",
            "type": "t_address"
          },
          {
            "astId": 4453,
            "contract": "contracts/Staking/StakingPoolImplementation.sol:StakingPoolImplementation",
            "label": "index",
            "offset": 0,
            "slot": "1",
            "type": "t_uint256"
          }
        ],
        "numberOfBytes": "64"
      },
      "t_uint256": {
        "encoding": "inplace",
        "label": "uint256",
        "numberOfBytes": "32"
      }
    }
  },
  "userdoc": {
    "kind": "user",
    "methods": {
      "collaborativeReward()": {
        "notice": "Based on the white paper, the collaborative reward can be 20% (2000), 25% (2500) or 35% (3500)."
      },
      "getAveragePricePrediction()": {
        "notice": "Gets the avgerage price prediction for calculating collaborative reward"
      },
      "getDecimals()": {
        "notice": "Returns decimals for oracle contract"
      },
      "getLatestPrice()": {
        "notice": "Returns the latest price from oracle contract"
      },
      "hasUnStaked(address,uint256)": {
        "notice": "hasUnStaked return true if the user staked in the pool and then  has unStaked it (claimed)"
      },
      "setOracleToZero()": {
        "notice": "Sets oracle to zero in case it was given incorrectly by the owner,         or it is not available"
      },
      "usdPrizeAmount()": {
        "notice": "usdPrizeAmount is the enabler of WrappedToken rewarder; If it is set to 0  then the pool is only TOTM rewarder."
      }
    },
    "version": 1
  }
}