{
  "contractName": "StakingPoolImplementation",
  "sourceName": "contracts/Staking/StakingPoolImplementation.sol",
  "abi": [
    {
      "anonymous": false,
      "inputs": [
        {
          "indexed": true,
          "internalType": "address",
          "name": "to",
          "type": "address"
        },
        {
          "indexed": false,
          "internalType": "uint256",
          "name": "amount",
          "type": "uint256"
        }
      ],
      "name": "ApproveTokens",
      "type": "event"
    },
    {
      "anonymous": false,
      "inputs": [
        {
          "indexed": true,
          "internalType": "address",
          "name": "user",
          "type": "address"
        },
        {
          "indexed": false,
          "internalType": "uint256[]",
          "name": "stakeAmounts",
          "type": "uint256[]"
        },
        {
          "indexed": false,
          "internalType": "uint256[]",
          "name": "predictions",
          "type": "uint256[]"
        }
      ],
      "name": "BatchStake",
      "type": "event"
    },
    {
      "anonymous": false,
      "inputs": [
        {
          "indexed": true,
          "internalType": "address",
          "name": "to",
          "type": "address"
        },
        {
          "indexed": false,
          "internalType": "uint256",
          "name": "amount",
          "type": "uint256"
        }
      ],
      "name": "DistributedBTC",
      "type": "event"
    },
    {
      "anonymous": false,
      "inputs": [
        {
          "indexed": true,
          "internalType": "address",
          "name": "previousOwner",
          "type": "address"
        },
        {
          "indexed": true,
          "internalType": "address",
          "name": "newOwner",
          "type": "address"
        }
      ],
      "name": "OwnershipTransferred",
      "type": "event"
    },
    {
      "anonymous": false,
      "inputs": [],
      "name": "PoolActivated",
      "type": "event"
    },
    {
      "anonymous": false,
      "inputs": [],
      "name": "PoolDeactivated",
      "type": "event"
    },
    {
      "anonymous": false,
      "inputs": [],
      "name": "PoolDeleted",
      "type": "event"
    },
    {
      "anonymous": false,
      "inputs": [],
      "name": "PoolLocked",
      "type": "event"
    },
    {
      "anonymous": false,
      "inputs": [],
      "name": "PoolMatured",
      "type": "event"
    },
    {
      "anonymous": false,
      "inputs": [],
      "name": "PoolSorted",
      "type": "event"
    },
    {
      "anonymous": false,
      "inputs": [
        {
          "indexed": true,
          "internalType": "address",
          "name": "from",
          "type": "address"
        },
        {
          "indexed": false,
          "internalType": "uint256",
          "name": "amount",
          "type": "uint256"
        }
      ],
      "name": "ReceivedTokens",
      "type": "event"
    },
    {
      "anonymous": false,
      "inputs": [
        {
          "indexed": true,
          "internalType": "address",
          "name": "user",
          "type": "address"
        },
        {
          "indexed": false,
          "internalType": "uint256",
          "name": "amount",
          "type": "uint256"
        },
        {
          "indexed": false,
          "internalType": "uint256",
          "name": "pricePrediction",
          "type": "uint256"
        }
      ],
      "name": "Stake",
      "type": "event"
    },
    {
      "anonymous": false,
      "inputs": [
        {
          "indexed": true,
          "internalType": "address",
          "name": "to",
          "type": "address"
        },
        {
          "indexed": false,
          "internalType": "uint256",
          "name": "amount",
          "type": "uint256"
        }
      ],
      "name": "TransferTokens",
      "type": "event"
    },
    {
      "anonymous": false,
      "inputs": [
        {
          "indexed": true,
          "internalType": "address",
          "name": "user",
          "type": "address"
        },
        {
          "indexed": false,
          "internalType": "uint256",
          "name": "amount",
          "type": "uint256"
        }
      ],
      "name": "Unstake",
      "type": "event"
    },
    {
      "anonymous": false,
      "inputs": [
        {
          "indexed": true,
          "internalType": "address",
          "name": "user",
          "type": "address"
        },
        {
          "indexed": false,
          "internalType": "uint256",
          "name": "stakingReturn",
          "type": "uint256"
        }
      ],
      "name": "WithdrawStakingReturn",
      "type": "event"
    },
    {
      "anonymous": false,
      "inputs": [
        {
          "indexed": true,
          "internalType": "address",
          "name": "user",
          "type": "address"
        },
        {
          "indexed": false,
          "internalType": "uint256",
          "name": "totemPrize",
          "type": "uint256"
        }
      ],
      "name": "WithdrawTotemPrize",
      "type": "event"
    },
    {
      "anonymous": false,
      "inputs": [
        {
          "indexed": true,
          "internalType": "address",
          "name": "user",
          "type": "address"
        },
        {
          "indexed": false,
          "internalType": "uint256",
          "name": "wrappedTokenPrize",
          "type": "uint256"
        }
      ],
      "name": "WithdrawWrappedTokenPrize",
      "type": "event"
    },
    {
      "inputs": [
        {
          "internalType": "address",
          "name": "_oracle",
          "type": "address"
        }
      ],
      "name": "__PriceConsumer_initialize",
      "outputs": [],
      "stateMutability": "nonpayable",
      "type": "function"
    },
    {
      "inputs": [
        {
          "internalType": "address",
          "name": "swapRouterAddress",
          "type": "address"
        },
        {
          "internalType": "address",
          "name": "BUSDContractAddress",
          "type": "address"
        },
        {
          "internalType": "address",
          "name": "WrappedTokenContractAddress",
          "type": "address"
        }
      ],
      "name": "__WrappedTokenDistributor_initialize",
      "outputs": [],
      "stateMutability": "nonpayable",
      "type": "function"
    },
    {
      "inputs": [
        {
          "internalType": "uint256[]",
          "name": "_stakingAmounts",
          "type": "uint256[]"
        },
        {
          "internalType": "uint256[]",
          "name": "_predictions",
          "type": "uint256[]"
        }
      ],
      "name": "batchStake",
      "outputs": [],
      "stateMutability": "nonpayable",
      "type": "function"
    },
    {
      "inputs": [],
      "name": "claimReward",
      "outputs": [],
      "stateMutability": "nonpayable",
      "type": "function"
    },
    {
      "inputs": [],
      "name": "collaborativeRange",
      "outputs": [
        {
          "internalType": "uint256",
          "name": "",
          "type": "uint256"
        }
      ],
      "stateMutability": "view",
      "type": "function"
    },
    {
      "inputs": [],
      "name": "collaborativeReward",
      "outputs": [
        {
          "internalType": "uint256",
          "name": "",
          "type": "uint256"
        }
      ],
      "stateMutability": "view",
      "type": "function"
    },
    {
      "inputs": [],
      "name": "declareEmergency",
      "outputs": [],
      "stateMutability": "nonpayable",
      "type": "function"
    },
    {
      "inputs": [],
      "name": "deletePool",
      "outputs": [],
      "stateMutability": "nonpayable",
      "type": "function"
    },
    {
      "inputs": [],
      "name": "emergentWithdraw",
      "outputs": [],
      "stateMutability": "nonpayable",
      "type": "function"
    },
    {
      "inputs": [],
      "name": "endPool",
      "outputs": [],
      "stateMutability": "nonpayable",
      "type": "function"
    },
    {
      "inputs": [],
      "name": "getAveragePricePrediction",
      "outputs": [
        {
          "internalType": "uint256",
          "name": "",
          "type": "uint256"
        }
      ],
      "stateMutability": "view",
      "type": "function"
    },
    {
      "inputs": [],
      "name": "getDecimals",
      "outputs": [
        {
          "internalType": "uint8",
          "name": "",
          "type": "uint8"
        }
      ],
      "stateMutability": "view",
      "type": "function"
    },
    {
      "inputs": [
        {
          "internalType": "uint256",
          "name": "prediction",
          "type": "uint256"
        },
        {
          "internalType": "uint256",
          "name": "_range",
          "type": "uint256"
        }
      ],
      "name": "getDifference",
      "outputs": [
        {
          "internalType": "uint256",
          "name": "",
          "type": "uint256"
        }
      ],
      "stateMutability": "view",
      "type": "function"
    },
    {
      "inputs": [
        {
          "internalType": "uint256",
          "name": "_amount",
          "type": "uint256"
        }
      ],
      "name": "getEstimatedWrappedTokenForUSD",
      "outputs": [
        {
          "internalType": "uint256",
          "name": "",
          "type": "uint256"
        }
      ],
      "stateMutability": "view",
      "type": "function"
    },
    {
      "inputs": [
        {
          "internalType": "address",
          "name": "_staker",
          "type": "address"
        },
        {
          "internalType": "uint256",
          "name": "_stakeIndex",
          "type": "uint256"
        }
      ],
      "name": "getIndexedPrize",
      "outputs": [
        {
          "internalType": "uint256",
          "name": "",
          "type": "uint256"
        },
        {
          "internalType": "uint256",
          "name": "",
          "type": "uint256"
        }
      ],
      "stateMutability": "view",
      "type": "function"
    },
    {
      "inputs": [
        {
          "internalType": "address",
          "name": "_staker",
          "type": "address"
        },
        {
          "internalType": "uint256",
          "name": "_stakeIndex",
          "type": "uint256"
        }
      ],
      "name": "getIndexedStakingReward",
      "outputs": [
        {
          "internalType": "uint256",
          "name": "",
          "type": "uint256"
        }
      ],
      "stateMutability": "view",
      "type": "function"
    },
    {
      "inputs": [],
      "name": "getLatestPrice",
      "outputs": [
        {
          "internalType": "uint256",
          "name": "",
          "type": "uint256"
        }
      ],
      "stateMutability": "view",
      "type": "function"
    },
    {
      "inputs": [],
      "name": "getPathForUSDToWrappedToken",
      "outputs": [
        {
          "internalType": "address[]",
          "name": "",
          "type": "address[]"
        }
      ],
      "stateMutability": "view",
      "type": "function"
    },
    {
      "inputs": [
        {
          "internalType": "address",
          "name": "_staker",
          "type": "address"
        }
      ],
      "name": "getPrize",
      "outputs": [
        {
          "internalType": "uint256",
          "name": "",
          "type": "uint256"
        },
        {
          "internalType": "uint256",
          "name": "",
          "type": "uint256"
        }
      ],
      "stateMutability": "view",
      "type": "function"
    },
    {
      "inputs": [],
      "name": "getStakers",
      "outputs": [
        {
          "internalType": "address[]",
          "name": "",
          "type": "address[]"
        },
        {
          "internalType": "uint256[]",
          "name": "",
          "type": "uint256[]"
        }
      ],
      "stateMutability": "view",
      "type": "function"
    },
    {
      "inputs": [
        {
          "internalType": "address",
          "name": "_staker",
          "type": "address"
        }
      ],
      "name": "getStakingReward",
      "outputs": [
        {
          "internalType": "uint256",
          "name": "",
          "type": "uint256"
        }
      ],
      "stateMutability": "view",
      "type": "function"
    },
    {
      "inputs": [
        {
          "internalType": "uint256",
          "name": "amount",
          "type": "uint256"
        },
        {
          "internalType": "uint256",
          "name": "tokenTaxRate",
          "type": "uint256"
        }
      ],
      "name": "getStakingTax",
      "outputs": [
        {
          "internalType": "uint256",
          "name": "",
          "type": "uint256"
        },
        {
          "internalType": "uint256",
          "name": "",
          "type": "uint256"
        }
      ],
      "stateMutability": "view",
      "type": "function"
    },
    {
      "inputs": [],
      "name": "getSwapRouter",
      "outputs": [
        {
          "internalType": "address",
          "name": "",
          "type": "address"
        }
      ],
      "stateMutability": "view",
      "type": "function"
    },
    {
      "inputs": [],
      "name": "getUSDBalance",
      "outputs": [
        {
          "internalType": "uint256",
          "name": "",
          "type": "uint256"
        }
      ],
      "stateMutability": "view",
      "type": "function"
    },
    {
      "inputs": [],
      "name": "getUSDToken",
      "outputs": [
        {
          "internalType": "address",
          "name": "",
          "type": "address"
        }
      ],
      "stateMutability": "view",
      "type": "function"
    },
    {
      "inputs": [],
      "name": "getWrappedTokenBalance",
      "outputs": [
        {
          "internalType": "uint256",
          "name": "",
          "type": "uint256"
        }
      ],
      "stateMutability": "view",
      "type": "function"
    },
    {
      "inputs": [
        {
          "internalType": "address",
          "name": "staker",
          "type": "address"
        },
        {
          "internalType": "uint256",
          "name": "stakeIndex",
          "type": "uint256"
        }
      ],
      "name": "hasUnStaked",
      "outputs": [
        {
          "internalType": "bool",
          "name": "",
          "type": "bool"
        }
      ],
      "stateMutability": "view",
      "type": "function"
    },
    {
      "inputs": [
        {
          "internalType": "uint256",
          "name": "stakeIndex",
          "type": "uint256"
        }
      ],
      "name": "indexedClaimReward",
      "outputs": [],
      "stateMutability": "nonpayable",
      "type": "function"
    },
    {
      "inputs": [],
      "name": "isActive",
      "outputs": [
        {
          "internalType": "bool",
          "name": "",
          "type": "bool"
        }
      ],
      "stateMutability": "view",
      "type": "function"
    },
    {
      "inputs": [],
      "name": "isAnEmergency",
      "outputs": [
        {
          "internalType": "bool",
          "name": "",
          "type": "bool"
        }
      ],
      "stateMutability": "view",
      "type": "function"
    },
    {
      "inputs": [],
      "name": "isDeleted",
      "outputs": [
        {
          "internalType": "bool",
          "name": "",
          "type": "bool"
        }
      ],
      "stateMutability": "view",
      "type": "function"
    },
    {
      "inputs": [],
      "name": "isEnhancedEnabled",
      "outputs": [
        {
          "internalType": "bool",
          "name": "",
          "type": "bool"
        }
      ],
      "stateMutability": "view",
      "type": "function"
    },
    {
      "inputs": [],
      "name": "isLocked",
      "outputs": [
        {
          "internalType": "bool",
          "name": "",
          "type": "bool"
        }
      ],
      "stateMutability": "view",
      "type": "function"
    },
    {
      "inputs": [],
      "name": "isMatured",
      "outputs": [
        {
          "internalType": "bool",
          "name": "",
          "type": "bool"
        }
      ],
      "stateMutability": "view",
      "type": "function"
    },
    {
      "inputs": [],
      "name": "launchDate",
      "outputs": [
        {
          "internalType": "uint256",
          "name": "",
          "type": "uint256"
        }
      ],
      "stateMutability": "view",
      "type": "function"
    },
    {
      "inputs": [],
      "name": "lockPool",
      "outputs": [],
      "stateMutability": "nonpayable",
      "type": "function"
    },
    {
      "inputs": [],
      "name": "lockTime",
      "outputs": [
        {
          "internalType": "uint256",
          "name": "",
          "type": "uint256"
        }
      ],
      "stateMutability": "view",
      "type": "function"
    },
    {
      "inputs": [],
      "name": "lps",
      "outputs": [
        {
          "internalType": "uint256",
          "name": "launchDate",
          "type": "uint256"
        },
        {
          "internalType": "uint256",
          "name": "lockTime",
          "type": "uint256"
        },
        {
          "internalType": "uint256",
          "name": "maturityTime",
          "type": "uint256"
        },
        {
          "internalType": "uint256",
          "name": "maturingPrice",
          "type": "uint256"
        },
        {
          "internalType": "uint256",
          "name": "usdPrizeAmount",
          "type": "uint256"
        },
        {
          "internalType": "uint256",
          "name": "prizeAmount",
          "type": "uint256"
        },
        {
          "internalType": "uint256",
          "name": "stakeApr",
          "type": "uint256"
        },
        {
          "internalType": "uint256",
          "name": "collaborativeReward",
          "type": "uint256"
        },
        {
          "internalType": "uint256",
          "name": "oracleDecimals",
          "type": "uint256"
        },
        {
          "internalType": "bool",
          "name": "isEnhancedEnabled",
          "type": "bool"
        },
        {
          "internalType": "bool",
          "name": "isMatured",
          "type": "bool"
        }
      ],
      "stateMutability": "view",
      "type": "function"
    },
    {
      "inputs": [],
      "name": "maturingPrice",
      "outputs": [
        {
          "internalType": "uint256",
          "name": "",
          "type": "uint256"
        }
      ],
      "stateMutability": "view",
      "type": "function"
    },
    {
      "inputs": [],
      "name": "maturityTime",
      "outputs": [
        {
          "internalType": "uint256",
          "name": "",
          "type": "uint256"
        }
      ],
      "stateMutability": "view",
      "type": "function"
    },
    {
      "inputs": [],
      "name": "minimumStakeAmount",
      "outputs": [
        {
          "internalType": "uint256",
          "name": "",
          "type": "uint256"
        }
      ],
      "stateMutability": "view",
      "type": "function"
    },
    {
      "inputs": [],
      "name": "oracleContract",
      "outputs": [
        {
          "internalType": "address",
          "name": "",
          "type": "address"
        }
      ],
      "stateMutability": "view",
      "type": "function"
    },
    {
      "inputs": [],
      "name": "oracleDecimals",
      "outputs": [
        {
          "internalType": "uint256",
          "name": "",
          "type": "uint256"
        }
      ],
      "stateMutability": "view",
      "type": "function"
    },
    {
      "inputs": [],
      "name": "owner",
      "outputs": [
        {
          "internalType": "address",
          "name": "",
          "type": "address"
        }
      ],
      "stateMutability": "view",
      "type": "function"
    },
    {
      "inputs": [],
      "name": "poolCreator",
      "outputs": [
        {
          "internalType": "address",
          "name": "",
          "type": "address"
        }
      ],
      "stateMutability": "view",
      "type": "function"
    },
    {
      "inputs": [],
      "name": "poolType",
      "outputs": [
        {
          "internalType": "string",
          "name": "",
          "type": "string"
        }
      ],
      "stateMutability": "view",
      "type": "function"
    },
    {
      "inputs": [],
      "name": "potentialCollabReward",
      "outputs": [
        {
          "internalType": "uint256",
          "name": "",
          "type": "uint256"
        }
      ],
      "stateMutability": "view",
      "type": "function"
    },
    {
      "inputs": [
        {
          "internalType": "address",
          "name": "",
          "type": "address"
        },
        {
          "internalType": "uint256",
          "name": "",
          "type": "uint256"
        }
      ],
      "name": "predictions",
      "outputs": [
        {
          "internalType": "uint256",
          "name": "stakedBalance",
          "type": "uint256"
        },
        {
          "internalType": "uint256",
          "name": "stakedTime",
          "type": "uint256"
        },
        {
          "internalType": "uint256",
          "name": "amountWithdrawn",
          "type": "uint256"
        },
        {
          "internalType": "uint256",
          "name": "lastWithdrawalTime",
          "type": "uint256"
        },
        {
          "internalType": "uint256",
          "name": "pricePrediction",
          "type": "uint256"
        },
        {
          "internalType": "uint256",
          "name": "difference",
          "type": "uint256"
        },
        {
          "internalType": "uint256",
          "name": "rank",
          "type": "uint256"
        },
        {
          "internalType": "bool",
          "name": "prizeRewardWithdrawn",
          "type": "bool"
        },
        {
          "internalType": "bool",
          "name": "didUnstake",
          "type": "bool"
        }
      ],
      "stateMutability": "view",
      "type": "function"
    },
    {
      "inputs": [],
      "name": "prizeAmount",
      "outputs": [
        {
          "internalType": "uint256",
          "name": "",
          "type": "uint256"
        }
      ],
      "stateMutability": "view",
      "type": "function"
    },
    {
      "inputs": [
        {
          "internalType": "uint256",
          "name": "",
          "type": "uint256"
        }
      ],
      "name": "prizeRewardRates",
      "outputs": [
        {
          "internalType": "uint256",
          "name": "rank",
          "type": "uint256"
        },
        {
          "internalType": "uint256",
          "name": "percentage",
          "type": "uint256"
        }
      ],
      "stateMutability": "view",
      "type": "function"
    },
    {
      "inputs": [
        {
          "internalType": "uint256",
          "name": "usdAmount",
          "type": "uint256"
        },
        {
          "internalType": "uint256",
          "name": "deadline",
          "type": "uint256"
        }
      ],
      "name": "purchaseWrappedToken",
      "outputs": [],
      "stateMutability": "nonpayable",
      "type": "function"
    },
    {
      "inputs": [],
      "name": "renounceOwnership",
      "outputs": [],
      "stateMutability": "nonpayable",
      "type": "function"
    },
    {
      "inputs": [],
      "name": "rewardManager",
      "outputs": [
        {
          "internalType": "contract IRewardManager",
          "name": "",
          "type": "address"
        }
      ],
      "stateMutability": "view",
      "type": "function"
    },
    {
      "inputs": [
        {
          "internalType": "bool",
          "name": "_activationStatus",
          "type": "bool"
        }
      ],
      "name": "setActivationStatus",
      "outputs": [],
      "stateMutability": "nonpayable",
      "type": "function"
    },
    {
      "inputs": [],
      "name": "setOracleToZero",
      "outputs": [],
      "stateMutability": "nonpayable",
      "type": "function"
    },
    {
      "inputs": [
        {
          "internalType": "address[25]",
          "name": "addrArray",
          "type": "address[25]"
        },
        {
          "internalType": "uint256[25]",
          "name": "indexArray",
          "type": "uint256[25]"
        }
      ],
      "name": "setSortedStakers",
      "outputs": [],
      "stateMutability": "nonpayable",
      "type": "function"
    },
    {
      "inputs": [],
      "name": "sizeAllocation",
      "outputs": [
        {
          "internalType": "uint256",
          "name": "",
          "type": "uint256"
        }
      ],
      "stateMutability": "view",
      "type": "function"
    },
    {
      "inputs": [],
      "name": "sizeLimitRangeRate",
      "outputs": [
        {
          "internalType": "uint256",
          "name": "",
          "type": "uint256"
        }
      ],
      "stateMutability": "view",
      "type": "function"
    },
    {
      "inputs": [
        {
          "internalType": "uint256",
          "name": "",
          "type": "uint256"
        }
      ],
      "name": "sortedStakers",
      "outputs": [
        {
          "internalType": "address",
          "name": "stakerAddress",
          "type": "address"
        },
        {
          "internalType": "uint256",
          "name": "index",
          "type": "uint256"
        }
      ],
      "stateMutability": "view",
      "type": "function"
    },
    {
      "inputs": [
        {
          "internalType": "uint256",
          "name": "_amount",
          "type": "uint256"
        },
        {
          "internalType": "uint256",
          "name": "_pricePrediction",
          "type": "uint256"
        }
      ],
      "name": "stake",
      "outputs": [],
      "stateMutability": "nonpayable",
      "type": "function"
    },
    {
      "inputs": [],
      "name": "stakeApr",
      "outputs": [
        {
          "internalType": "uint256",
          "name": "",
          "type": "uint256"
        }
      ],
      "stateMutability": "view",
      "type": "function"
    },
    {
      "inputs": [],
      "name": "stakeTaxRate",
      "outputs": [
        {
          "internalType": "uint256",
          "name": "",
          "type": "uint256"
        }
      ],
      "stateMutability": "view",
      "type": "function"
    },
    {
      "inputs": [
        {
          "internalType": "uint256",
          "name": "",
          "type": "uint256"
        }
      ],
      "name": "stakers",
      "outputs": [
        {
          "internalType": "address",
          "name": "stakerAddress",
          "type": "address"
        },
        {
          "internalType": "uint256",
          "name": "index",
          "type": "uint256"
        }
      ],
      "stateMutability": "view",
      "type": "function"
    },
    {
      "inputs": [],
      "name": "stakingPoolImplementation",
      "outputs": [
        {
          "internalType": "address",
          "name": "",
          "type": "address"
        }
      ],
      "stateMutability": "view",
      "type": "function"
    },
    {
      "inputs": [],
      "name": "totalStaked",
      "outputs": [
        {
          "internalType": "uint256",
          "name": "",
          "type": "uint256"
        }
      ],
      "stateMutability": "view",
      "type": "function"
    },
    {
      "inputs": [],
      "name": "totemToken",
      "outputs": [
        {
          "internalType": "contract ITotemToken",
          "name": "",
          "type": "address"
        }
      ],
      "stateMutability": "view",
      "type": "function"
    },
    {
      "inputs": [
        {
          "internalType": "address",
          "name": "newOwner",
          "type": "address"
        }
      ],
      "name": "transferOwnership",
      "outputs": [],
      "stateMutability": "nonpayable",
      "type": "function"
    },
    {
      "inputs": [
        {
          "internalType": "uint256",
          "name": "_price",
          "type": "uint256"
        }
      ],
      "name": "updateMaturingPrice",
      "outputs": [],
      "stateMutability": "nonpayable",
      "type": "function"
    },
    {
      "inputs": [],
      "name": "upgradeEnabled",
      "outputs": [
        {
          "internalType": "bool",
          "name": "",
          "type": "bool"
        }
      ],
      "stateMutability": "view",
      "type": "function"
    },
    {
      "inputs": [],
      "name": "usdPrizeAmount",
      "outputs": [
        {
          "internalType": "uint256",
          "name": "",
          "type": "uint256"
        }
      ],
      "stateMutability": "view",
      "type": "function"
    },
    {
      "inputs": [
        {
          "internalType": "address",
          "name": "_stuckToken",
          "type": "address"
        },
        {
          "internalType": "uint256",
          "name": "amount",
          "type": "uint256"
        },
        {
          "internalType": "address",
          "name": "receiver",
          "type": "address"
        }
      ],
      "name": "withdrawStuckTokens",
      "outputs": [],
      "stateMutability": "nonpayable",
      "type": "function"
    },
    {
      "inputs": [],
      "name": "wrappedToken",
      "outputs": [
        {
          "internalType": "contract IERC20",
          "name": "",
          "type": "address"
        }
      ],
      "stateMutability": "view",
      "type": "function"
    },
    {
      "inputs": [],
      "name": "wrappedTokenSymbol",
      "outputs": [
        {
          "internalType": "string",
          "name": "",
          "type": "string"
        }
      ],
      "stateMutability": "view",
      "type": "function"
    }
  ],
  "bytecode": "0x608060405234801561001057600080fd5b50615269806100206000396000f3fe608060405234801561001057600080fd5b50600436106104335760003560e01c80638da5cb5b11610236578063c6c1decd1161013b578063e8153c93116100c3578063f3d9dc0d11610087578063f3d9dc0d146107f9578063f5e96fc914610801578063f8e829c314610809578063f8eeed6214610811578063fd5e6dd11461081957610433565b8063e8153c93146107ae578063eb850ae1146107b6578063f0141d84146107be578063f1b17a8b146107d3578063f2fde38b146107e657610433565b8063de09ee201161010a578063de09ee2014610756578063df7f92e014610777578063e08186691461077f578063e425df8c1461079e578063e68b52e7146107a657610433565b8063c6c1decd1461072b578063d025188b14610733578063d49fab8a1461073b578063d7efb6b71461074e57610433565b8063a8f7b346116101be578063b7b301701161018d578063b7b30170146106f8578063b88a802f1461070b578063bece753214610713578063bf8521961461071b578063c12010541461072357610433565b8063a8f7b346146106c2578063aa7bcb57146106d5578063b1b1e1c0146106dd578063b1dd61b6146106f057610433565b8063a08b2c7911610205578063a08b2c7914610677578063a118c9a71461067f578063a35ef3a714610692578063a4e2d634146106a7578063a7a48681146106af57610433565b80638da5cb5b146106575780638e15f4731461065f57806395c2ba4714610667578063996c6cc31461066f57610433565b80634ddc1bdc1161033c578063785fa627116102c4578063817b1cd211610293578063817b1cd21461060f578063850fa7cb146106175780638a9920b71461063f5780638bfbbcbe146106475780638cf0e21e1461064f57610433565b8063785fa627146105d957806378f4d413146105e15780637b0472f0146105f45780637f2b6a0d1461060757610433565b80636847d0c51161030b5780636847d0c5146105b15780636b036f45146105b9578063715018a6146105c1578063725c9c49146105c957806373f31703146105d157610433565b80634ddc1bdc1461057b5780634e8bfdaa1461058e57806351eacbf0146105965780635d2631e21461059e57610433565b806337c4f6a4116103bf57806343352d611161038e57806343352d6114610524578063444a49021461053a57806345e913191461054d5780634bc4eeb2146105605780634c7c77fc1461056857610433565b806337c4f6a4146104e3578063395b3dac146104f65780633fcdd82c146105095780634026478e1461051c57610433565b8063238a6c7411610406578063238a6c74146104935780632aa8195e146104a85780632d42cf7d146104b05780632d5cd1d6146104ba57806331e244e5146104db57610433565b80630d668087146104385780630f4ef8a61461045657806322f3e2d41461046b5780632342e48014610480575b600080fd5b61044061082c565b60405161044d91906148dc565b60405180910390f35b61045e610832565b60405161044d9190614822565b610473610841565b60405161044d9190614956565b61044061048e3660046144d5565b610850565b61049b6108fe565b60405161044d9190614961565b61045e61098c565b6104b861099b565b005b6104cd6104c8366004614453565b610c05565b60405161044d9291906148e5565b6104b8610cb9565b6104b86104f1366004614453565b610d0c565b6104cd6105043660046146f7565b610d9d565b6104406105173660046146c7565b610dfe565b6104b8610ec2565b61052c610f04565b60405161044d929190614886565b6104b8610548366004614536565b6110c1565b61047361055b3660046144d5565b61125c565b6104736113ae565b6104406105763660046146f7565b6113bc565b6104b86105893660046146f7565b611440565b61044061152c565b610440611532565b6104b86105ac366004614500565b611538565b610440611622565b610440611628565b6104b861162e565b61045e611677565b610440611687565b61044061168d565b6104406105ef366004614453565b611693565b6104b86106023660046146f7565b61173c565b610473611bbd565b610440611bce565b61062a6106253660046144d5565b611bd4565b60405161044d9998979695949392919061507d565b6104b8611c42565b6104b8611e8a565b610473611f06565b61045e611f19565b610440611f28565b610440611fcf565b61045e611fd4565b610473611fe3565b6104b861068d36600461468f565b611fec565b61069a6120d5565b60405161044d9190614873565b610473612184565b6104b86106bd3660046146c7565b612194565b6104b86106d036600461448b565b61223c565b6104406122f1565b6104b86106eb3660046146c7565b6122f7565b61049b612bb6565b6104cd6107063660046144d5565b612bc3565b6104b8612c7a565b61045e6134a3565b6104406134b2565b610440613639565b61045e6136bf565b6104406136ce565b6104b861074936600461456c565b6136d4565b610473613d23565b6107696107643660046146c7565b613d35565b60405161044d92919061485a565b6104b8613d6d565b610787613db9565b60405161044d9b9a999897969594939291906150c0565b610440613de6565b610440613dec565b61045e613df2565b610440613e01565b6107c6613e07565b60405161044d9190615112565b6104cd6107e13660046146c7565b613e90565b6104b86107f4366004614453565b613ebe565b610440613f2c565b61045e613f32565b610440613f41565b610440613f72565b6107696108273660046146c7565b613f78565b60815481565b607c546001600160a01b031681565b608f5462010000900460ff1681565b6001600160a01b0382166000908152607a60205260408082209051634f16042360e01b8152829173__$7fd944d8f8efff7c575121b9e933203c2c$__91634f160423916108a4918790606d906004016148f3565b60206040518083038186803b1580156108bc57600080fd5b505af41580156108d0573d6000803e3d6000fd5b505050506040513d601f19601f820116820180604052508101906108f491906146df565b9150505b92915050565b607e805461090b9061518e565b80601f01602080910402602001604051908101604052809291908181526020018280546109379061518e565b80156109845780601f1061095957610100808354040283529160200191610984565b820191906000526020600020905b81548152906001019060200180831161096757829003601f168201915b505050505081565b606a546001600160a01b031681565b606b546001600160a01b03166109af613f88565b6001600160a01b0316146109de5760405162461bcd60e51b81526004016109d590614df5565b60405180910390fd5b6082546081546080546109f19190615120565b6109fb9190615120565b421015610a1a5760405162461bcd60e51b81526004016109d590614b35565b60865415610a4657610a2a613f41565b610a465760405162461bcd60e51b81526004016109d590614f37565b60785415610a6d57607954610a6d5760405162461bcd60e51b81526004016109d590614b81565b608b5415610a9f576000610a7f6134b2565b9050610a8d81608c546113bc565b610a9d57608b54608d8190556074555b505b607954600090601910610ab457607954610ab7565b60195b905060005b81811015610b9557610acf816001615120565b607a600060798481548110610af457634e487b7160e01b600052603260045260246000fd5b600091825260208083206002909202909101546001600160a01b0316835282019290925260400190206079805484908110610b3f57634e487b7160e01b600052603260045260246000fd5b90600052602060002090600202016001015481548110610b6f57634e487b7160e01b600052603260045260246000fd5b600091825260209091206006600890920201015580610b8d816151c9565b915050610abc565b50608f805464ff000000001963ff000000199091166301000000171664010000000090811791829055607680549190920460ff1615156101000261ff00199091161790556040517fe8ef7a17c92d025d9c1ead1c6b3ca3b44d3283d0ee954f615c5c476911f629a590600090a150565b6001600160a01b0381166000908152607a602052604080822090516332a1b32160e01b815282918291829173__$171d2da81d2a08eb52330533595f0c4998$__916332a1b32191610c5e91606d906077906004016148f3565b604080518083038186803b158015610c7557600080fd5b505af4158015610c89573d6000803e3d6000fd5b505050506040513d601f19601f82011682018060405250810190610cad9190614718565b90945092505050915091565b606b546001600160a01b0316610ccd613f88565b6001600160a01b031614610cf35760405162461bcd60e51b81526004016109d590614df5565b608f805462ff00ff19166001179055610d0a613f8c565b565b600054610100900460ff1680610d25575060005460ff16155b610d415760405162461bcd60e51b81526004016109d590614da7565b600054610100900460ff16158015610d6c576000805460ff1961ff0019909116610100171660011790555b606580546001600160a01b0319166001600160a01b0384161790558015610d99576000805461ff00191690555b5050565b60008060008360875411610db2576000610dbf565b608754610dbf9085613fca565b905080610dd3576000859250925050610df7565b610ddd8582613fd6565b610df1610dea8784613fd6565b8790613fca565b92509250505b9250929050565b60675460009081906001600160a01b031663d06ca61f84610e1d6120d5565b6040518363ffffffff1660e01b8152600401610e3a929190615020565b60006040518083038186803b158015610e5257600080fd5b505afa158015610e66573d6000803e3d6000fd5b505050506040513d6000823e601f3d908101601f19168201604052610e8e91908101906145d5565b905080600181518110610eb157634e487b7160e01b600052603260045260246000fd5b60200260200101519150505b919050565b606b546001600160a01b0316610ed6613f88565b6001600160a01b031614610efc5760405162461bcd60e51b81526004016109d590614df5565b610d0a613f8c565b606080600060788054905067ffffffffffffffff811115610f3557634e487b7160e01b600052604160045260246000fd5b604051908082528060200260200182016040528015610f5e578160200160208202803683370190505b5060785490915060009067ffffffffffffffff811115610f8e57634e487b7160e01b600052604160045260246000fd5b604051908082528060200260200182016040528015610fb7578160200160208202803683370190505b50905060005b6078548110156110b75760788181548110610fe857634e487b7160e01b600052603260045260246000fd5b600091825260209091206002909102015483516001600160a01b039091169084908390811061102757634e487b7160e01b600052603260045260246000fd5b60200260200101906001600160a01b031690816001600160a01b0316815250506078818154811061106857634e487b7160e01b600052603260045260246000fd5b90600052602060002090600202016001015482828151811061109a57634e487b7160e01b600052603260045260246000fd5b6020908102919091010152806110af816151c9565b915050610fbd565b5090925090509091565b606b546001600160a01b03166110d5613f88565b6001600160a01b0316146110fb5760405162461bcd60e51b81526004016109d590614df5565b6079541561110f5761110f6079600061439f565b60005b601981101561122e57600083826019811061113d57634e487b7160e01b600052603260045260246000fd5b6020020160208101906111509190614453565b6001600160a01b031614156111645761122e565b6079604051806040016040528085846019811061119157634e487b7160e01b600052603260045260246000fd5b6020020160208101906111a49190614453565b6001600160a01b031681526020018484601981106111d257634e487b7160e01b600052603260045260246000fd5b60209081029190910135909152825460018082018555600094855293829020835160029092020180546001600160a01b0319166001600160a01b0390921691909117815591015191015580611226816151c9565b915050611112565b506040517f5c243cc6e4f210bf2dd86b8eca0ca891d3f8ad2eb09fbf91735eb348bc199c7e90600090a15050565b6001600160a01b0382166000908152607a6020908152604080832080548251818502810185019093528083528493849084015b8282101561132157600084815260209081902060408051610120810182526008860290920180548352600180820154848601526002820154928401929092526003810154606084015260048101546080840152600581015460a0840152600681015460c08401526007015460ff808216151560e08501526101009182900416151590830152908352909201910161128f565b50505050905060008151116113485760405162461bcd60e51b81526004016109d590614e6b565b805183106113685760405162461bcd60e51b81526004016109d5906149b4565b80838151811061138857634e487b7160e01b600052603260045260246000fd5b60200260200101516101000151156113a45760019150506108f8565b5060009392505050565b608f54610100900460ff1681565b6000828211156113ce575060006108f8565b608a5483111561141057608a546113e58484613fca565b116113f2575060006108f8565b608a54611409906114038585613fca565b90613fca565b90506108f8565b608a5461141d8484613fe8565b1061142a575060006108f8565b6114096114378484613fe8565b608a5490613fca565b606b546001600160a01b0316611454613f88565b6001600160a01b03161461147a5760405162461bcd60e51b81526004016109d590614df5565b60006086541161149c5760405162461bcd60e51b81526004016109d590614aac565b600082116114bc5760405162461bcd60e51b81526004016109d590614d41565b428110156114dc5760405162461bcd60e51b81526004016109d590614bb1565b60006114e6611677565b90506114f28184613ff4565b60006114fd84610dfe565b905060006115176115108361012c613fd6565b8390613fca565b9050611525308683876140be565b5050505050565b60825481565b60835481565b606b546001600160a01b031661154c613f88565b6001600160a01b0316146115725760405162461bcd60e51b81526004016109d590614df5565b607b546001600160a01b03848116911614156115a05760405162461bcd60e51b81526004016109d590614d00565b60405163a9059cbb60e01b815283906001600160a01b0382169063a9059cbb906115d0908590879060040161485a565b602060405180830381600087803b1580156115ea57600080fd5b505af11580156115fe573d6000803e3d6000fd5b505050506040513d601f19601f8201168201806040525081019061152591906146ab565b60875481565b60885481565b611636613f88565b6001600160a01b0316611647611f19565b6001600160a01b03161461166d5760405162461bcd60e51b81526004016109d590614e36565b610d0a6000614164565b6067546001600160a01b03165b90565b60865481565b60855481565b6001600160a01b0381166000908152607a60205260408082209051630d46757760e41b8152829173__$171d2da81d2a08eb52330533595f0c4998$__9163d4675770916116e591606d906004016148e5565b60206040518083038186803b1580156116fd57600080fd5b505af4158015611711573d6000803e3d6000fd5b505050506040513d601f19601f8201168201806040525081019061173591906146df565b9392505050565b608f5462010000900460ff168015611755575060805442115b6117715760405162461bcd60e51b81526004016109d590614eb6565b6081546080546117819190615120565b421061179f5760405162461bcd60e51b81526004016109d590614a18565b608f546301000000900460ff16156117c95760405162461bcd60e51b81526004016109d5906149eb565b6088548210156117eb5760405162461bcd60e51b81526004016109d590614eed565b600061180e606461180860056083546141b690919063ffffffff16565b906141c2565b90506000607b60009054906101000a90046001600160a01b03166001600160a01b031663771a3a1d6040518163ffffffff1660e01b8152600401602060405180830381600087803b15801561186257600080fd5b505af1158015611876573d6000803e3d6000fd5b505050506040513d601f19601f8201168201806040525081019061189a91906146df565b607b549091506000906001600160a01b031663d1ecfc686118b9613f88565b6040518263ffffffff1660e01b81526004016118d59190614822565b602060405180830381600087803b1580156118ef57600080fd5b505af1158015611903573d6000803e3d6000fd5b505050506040513d601f19601f8201168201806040525081019061192791906146ab565b61193a576119358583613fd6565b61193d565b60005b60835490915061194d9084613fe8565b6119668261140388608954613fe890919063ffffffff16565b11156119845760405162461bcd60e51b81526004016109d590614cba565b60006119908684610d9d565b607b549097509091506001600160a01b03166323b872dd6119af613f88565b306119ba858b615120565b6040518463ffffffff1660e01b81526004016119d893929190614836565b602060405180830381600087803b1580156119f257600080fd5b505af1158015611a06573d6000803e3d6000fd5b505050506040513d601f19601f82011682018060405250810190611a2a91906146ab565b50611a358683613fca565b95508015611b3657607b5460408051634a5db0a960e01b815290516001600160a01b039092169163a9059cbb918391634a5db0a9916004808201926020929091908290030181600087803b158015611a8c57600080fd5b505af1158015611aa0573d6000803e3d6000fd5b505050506040513d601f19601f82011682018060405250810190611ac4919061446f565b836040518363ffffffff1660e01b8152600401611ae292919061485a565b602060405180830381600087803b158015611afc57600080fd5b505af1158015611b10573d6000803e3d6000fd5b505050506040513d601f19601f82011682018060405250810190611b3491906146ab565b505b608954611b439087613fe8565b608955611b58611b51613f88565b87876141ce565b60835460895410611b6b57611b6b613f8c565b611b73613f88565b6001600160a01b03167f5af417134f72a9d41143ace85b0a26dce6f550f894f2cbc1eeee8810603d91b68787604051611bad9291906148e5565b60405180910390a2505050505050565b608f54640100000000900460ff1681565b60895481565b607a6020528160005260406000208181548110611bf057600080fd5b6000918252602090912060089091020180546001820154600283015460038401546004850154600586015460068701546007909701549598509396509194909391929160ff8082169161010090041689565b608f5460ff16611c645760405162461bcd60e51b81526004016109d590614d78565b600073__$60b6e19b11029f04c25a43d0435d86b2be$__63066f1dee607a6000611c8c613f88565b6001600160a01b03166001600160a01b031681526020019081526020016000206040518263ffffffff1660e01b8152600401611cc891906148dc565b60206040518083038186803b158015611ce057600080fd5b505af4158015611cf4573d6000803e3d6000fd5b505050506040513d601f19601f82011682018060405250810190611d1891906146df565b90508015611e875773__$171d2da81d2a08eb52330533595f0c4998$__63f66d9a4d607a6000611d46613f88565b6001600160a01b03166001600160a01b031681526020019081526020016000206040518263ffffffff1660e01b8152600401611d8291906148dc565b60006040518083038186803b158015611d9a57600080fd5b505af4158015611dae573d6000803e3d6000fd5b5050607b546001600160a01b0316915063a9059cbb9050611dcd613f88565b836040518363ffffffff1660e01b8152600401611deb92919061485a565b602060405180830381600087803b158015611e0557600080fd5b505af1158015611e19573d6000803e3d6000fd5b505050506040513d601f19601f82011682018060405250810190611e3d91906146ab565b50611e46613f88565b6001600160a01b03167f85082129d87b2fe11527cb1b3b7a520aeb5aa6913f88a3d8757fe40d1db02fdd82604051611e7e91906148dc565b60405180910390a25b50565b606b546001600160a01b0316611e9e613f88565b6001600160a01b031614611ec45760405162461bcd60e51b81526004016109d590614df5565b608f805465ff00000000001916650100000000001790556040517f9331b2a38c658c57a39ea19b2709d928c28a12cc8fbb838d12b85148550f937d90600090a1565b608f546601000000000000900460ff1681565b6033546001600160a01b031690565b600080606560009054906101000a90046001600160a01b03166001600160a01b031663feaf968c6040518163ffffffff1660e01b815260040160a06040518083038186803b158015611f7957600080fd5b505afa158015611f8d573d6000803e3d6000fd5b505050506040513d601f19601f82011682018060405250810190611fb1919061473b565b5050509150506000811215611fc7576000611fc9565b805b91505090565b600581565b607d546001600160a01b031681565b608f5460ff1681565b606b546001600160a01b0316612000613f88565b6001600160a01b0316146120265760405162461bcd60e51b81526004016109d590614df5565b608f5460ff6201000090910416151581151514156120565760405162461bcd60e51b81526004016109d590614c34565b608f805462ff00001916620100008315158102919091179182905560ff910416156120a9576040517f3d31b97eef590df350bb2cdbc390034c613c9f23ea6ae1906682628c85248b5390600090a1611e87565b6040517f763d36bfedf6707954f8bb39c2011a58a47a54844f2b3cdcd326c71cad0aa75390600090a150565b60408051600280825260608083018452926000929190602083019080368337505060685482519293506001600160a01b03169183915060009061212857634e487b7160e01b600052603260045260246000fd5b6001600160a01b03928316602091820292909201015260695482519116908290600190811061216757634e487b7160e01b600052603260045260246000fd5b6001600160a01b0390921660209283029190910190910152905090565b608f546301000000900460ff1681565b606b546001600160a01b03166121a8613f88565b6001600160a01b0316146121ce5760405162461bcd60e51b81526004016109d590614df5565b6082546081546080546121e19190615120565b6121eb9190615120565b42101561220a5760405162461bcd60e51b81526004016109d590614fac565b606c546001600160a01b031661222957608a8190556070819055611e87565b612231611f28565b608a81905560705550565b600054610100900460ff1680612255575060005460ff16155b6122715760405162461bcd60e51b81526004016109d590614da7565b600054610100900460ff1615801561229c576000805460ff1961ff0019909116610100171660011790555b606780546001600160a01b038087166001600160a01b03199283161790925560688054868416908316179055606980549285169290911691909117905580156122eb576000805461ff00191690555b50505050565b60845481565b80607a6000612304613f88565b6001600160a01b03168152602081019190915260400160002054101561233c5760405162461bcd60e51b81526004016109d590614f7e565b607a6000612348613f88565b6001600160a01b0316815260208101919091526040016000205461237e5760405162461bcd60e51b81526004016109d590614bdf565b600073__$7fd944d8f8efff7c575121b9e933203c2c$__634f160423607a60006123a6613f88565b6001600160a01b03166001600160a01b0316815260200190815260200160002084606d6040518463ffffffff1660e01b81526004016123e7939291906148f3565b60206040518083038186803b1580156123ff57600080fd5b505af4158015612413573d6000803e3d6000fd5b505050506040513d601f19601f8201168201806040525081019061243791906146df565b905060008073__$7fd944d8f8efff7c575121b9e933203c2c$__63f7ac9cba607a6000612462613f88565b6001600160a01b03166001600160a01b0316815260200190815260200160002086606d60776040518563ffffffff1660e01b81526004016124a69493929190614909565b604080518083038186803b1580156124bd57600080fd5b505af41580156124d1573d6000803e3d6000fd5b505050506040513d601f19601f820116820180604052508101906124f59190614718565b909250905060006125068484615120565b608f54909150640100000000900460ff161561297257608654156126ae5781156126ae5773__$7fd944d8f8efff7c575121b9e933203c2c$__6393aaeaf9607a6000612550613f88565b6001600160a01b03166001600160a01b03168152602001908152602001600020876040518363ffffffff1660e01b815260040161258e9291906148e5565b60006040518083038186803b1580156125a657600080fd5b505af41580156125ba573d6000803e3d6000fd5b5050607d546001600160a01b0316915063a9059cbb90506125d9613f88565b846040518363ffffffff1660e01b81526004016125f792919061485a565b602060405180830381600087803b15801561261157600080fd5b505af1158015612625573d6000803e3d6000fd5b505050506040513d601f19601f8201168201806040525081019061264991906146ab565b6126655760405162461bcd60e51b81526004016109d590615002565b61266d613f88565b6001600160a01b03167fd93fc6d1e8779271f55cdb0d5f7b6b05be64a2226a1ad050d3036f5609c1cdcf836040516126a591906148dc565b60405180910390a25b82156127495773__$7fd944d8f8efff7c575121b9e933203c2c$__6393aaeaf9607a60006126da613f88565b6001600160a01b03166001600160a01b03168152602001908152602001600020876040518363ffffffff1660e01b81526004016127189291906148e5565b60006040518083038186803b15801561273057600080fd5b505af4158015612744573d6000803e3d6000fd5b505050505b600073__$7fd944d8f8efff7c575121b9e933203c2c$__635eac7af3607a6000612771613f88565b6001600160a01b03166001600160a01b03168152602001908152602001600020886040518363ffffffff1660e01b81526004016127af9291906148e5565b60206040518083038186803b1580156127c757600080fd5b505af41580156127db573d6000803e3d6000fd5b505050506040513d601f19601f820116820180604052508101906127ff91906146df565b905080156129705773__$7fd944d8f8efff7c575121b9e933203c2c$__63ec8ecc02607a600061282d613f88565b6001600160a01b03166001600160a01b03168152602001908152602001600020886040518363ffffffff1660e01b815260040161286b9291906148e5565b60006040518083038186803b15801561288357600080fd5b505af4158015612897573d6000803e3d6000fd5b5050607b546001600160a01b0316915063a9059cbb90506128b6613f88565b836040518363ffffffff1660e01b81526004016128d492919061485a565b602060405180830381600087803b1580156128ee57600080fd5b505af1158015612902573d6000803e3d6000fd5b505050506040513d601f19601f8201168201806040525081019061292691906146ab565b5061292f613f88565b6001600160a01b03167f85082129d87b2fe11527cb1b3b7a520aeb5aa6913f88a3d8757fe40d1db02fdd8260405161296791906148dc565b60405180910390a25b505b801561152557607b54607c546040516370a0823160e01b815283926001600160a01b03908116926370a08231926129af9290911690600401614822565b60206040518083038186803b1580156129c757600080fd5b505afa1580156129db573d6000803e3d6000fd5b505050506040513d601f19601f820116820180604052508101906129ff91906146df565b1015612a1d5760405162461bcd60e51b81526004016109d590614c76565b73__$7fd944d8f8efff7c575121b9e933203c2c$__63eaff3050607a6000612a43613f88565b6001600160a01b03166001600160a01b0316815260200190815260200160002087606d6040518463ffffffff1660e01b8152600401612a84939291906148f3565b60006040518083038186803b158015612a9c57600080fd5b505af4158015612ab0573d6000803e3d6000fd5b5050607c546001600160a01b0316915063e4e103dc9050612acf613f88565b836040518363ffffffff1660e01b8152600401612aed92919061485a565b600060405180830381600087803b158015612b0757600080fd5b505af1158015612b1b573d6000803e3d6000fd5b50505050612b27613f88565b6001600160a01b03167f115e2fe760f98d4fd0828d7741ae2070e7db700f892efbfe98448b53ac58388685604051612b5f91906148dc565b60405180910390a2612b6f613f88565b6001600160a01b03167f723b06f6c3a94dc82019852e6aa01c0241fba5f84410b9003ddc3440ad499e5984604051612ba791906148dc565b60405180910390a25050505050565b607f805461090b9061518e565b6001600160a01b0382166000908152607a60205260408082209051637bd64e5d60e11b815282918291829173__$7fd944d8f8efff7c575121b9e933203c2c$__9163f7ac9cba91612c1e918990606d90607790600401614909565b604080518083038186803b158015612c3557600080fd5b505af4158015612c49573d6000803e3d6000fd5b505050506040513d601f19601f82011682018060405250810190612c6d9190614718565b9097909650945050505050565b600073__$171d2da81d2a08eb52330533595f0c4998$__63d4675770607a6000612ca2613f88565b6001600160a01b03166001600160a01b03168152602001908152602001600020606d6040518363ffffffff1660e01b8152600401612ce19291906148e5565b60206040518083038186803b158015612cf957600080fd5b505af4158015612d0d573d6000803e3d6000fd5b505050506040513d601f19601f82011682018060405250810190612d3191906146df565b905060008073__$171d2da81d2a08eb52330533595f0c4998$__6332a1b321607a6000612d5c613f88565b6001600160a01b03166001600160a01b03168152602001908152602001600020606d60776040518463ffffffff1660e01b8152600401612d9e939291906148f3565b604080518083038186803b158015612db557600080fd5b505af4158015612dc9573d6000803e3d6000fd5b505050506040513d601f19601f82011682018060405250810190612ded9190614718565b90925090506000612dfe8484615120565b608f54909150640100000000900460ff16156132625760865415612fa4578115612fa45773__$171d2da81d2a08eb52330533595f0c4998$__6347dc9eee607a6000612e48613f88565b6001600160a01b03166001600160a01b031681526020019081526020016000206040518263ffffffff1660e01b8152600401612e8491906148dc565b60006040518083038186803b158015612e9c57600080fd5b505af4158015612eb0573d6000803e3d6000fd5b5050607d546001600160a01b0316915063a9059cbb9050612ecf613f88565b846040518363ffffffff1660e01b8152600401612eed92919061485a565b602060405180830381600087803b158015612f0757600080fd5b505af1158015612f1b573d6000803e3d6000fd5b505050506040513d601f19601f82011682018060405250810190612f3f91906146ab565b612f5b5760405162461bcd60e51b81526004016109d590614c16565b612f63613f88565b6001600160a01b03167fd93fc6d1e8779271f55cdb0d5f7b6b05be64a2226a1ad050d3036f5609c1cdcf83604051612f9b91906148dc565b60405180910390a25b821561303d5773__$171d2da81d2a08eb52330533595f0c4998$__6347dc9eee607a6000612fd0613f88565b6001600160a01b03166001600160a01b031681526020019081526020016000206040518263ffffffff1660e01b815260040161300c91906148dc565b60006040518083038186803b15801561302457600080fd5b505af4158015613038573d6000803e3d6000fd5b505050505b600073__$60b6e19b11029f04c25a43d0435d86b2be$__63066f1dee607a6000613065613f88565b6001600160a01b03166001600160a01b031681526020019081526020016000206040518263ffffffff1660e01b81526004016130a191906148dc565b60206040518083038186803b1580156130b957600080fd5b505af41580156130cd573d6000803e3d6000fd5b505050506040513d601f19601f820116820180604052508101906130f191906146df565b905080156132605773__$171d2da81d2a08eb52330533595f0c4998$__63f66d9a4d607a600061311f613f88565b6001600160a01b03166001600160a01b031681526020019081526020016000206040518263ffffffff1660e01b815260040161315b91906148dc565b60006040518083038186803b15801561317357600080fd5b505af4158015613187573d6000803e3d6000fd5b5050607b546001600160a01b0316915063a9059cbb90506131a6613f88565b836040518363ffffffff1660e01b81526004016131c492919061485a565b602060405180830381600087803b1580156131de57600080fd5b505af11580156131f2573d6000803e3d6000fd5b505050506040513d601f19601f8201168201806040525081019061321691906146ab565b5061321f613f88565b6001600160a01b03167f85082129d87b2fe11527cb1b3b7a520aeb5aa6913f88a3d8757fe40d1db02fdd8260405161325791906148dc565b60405180910390a25b505b80156122eb57607b54607c546040516370a0823160e01b815283926001600160a01b03908116926370a082319261329f9290911690600401614822565b60206040518083038186803b1580156132b757600080fd5b505afa1580156132cb573d6000803e3d6000fd5b505050506040513d601f19601f820116820180604052508101906132ef91906146df565b101561330d5760405162461bcd60e51b81526004016109d590614c76565b73__$171d2da81d2a08eb52330533595f0c4998$__634142c652607a6000613333613f88565b6001600160a01b03166001600160a01b03168152602001908152602001600020606d6040518363ffffffff1660e01b81526004016133729291906148e5565b60006040518083038186803b15801561338a57600080fd5b505af415801561339e573d6000803e3d6000fd5b5050607c546001600160a01b0316915063e4e103dc90506133bd613f88565b836040518363ffffffff1660e01b81526004016133db92919061485a565b600060405180830381600087803b1580156133f557600080fd5b505af1158015613409573d6000803e3d6000fd5b50505050613415613f88565b6001600160a01b03167f115e2fe760f98d4fd0828d7741ae2070e7db700f892efbfe98448b53ac5838868560405161344d91906148dc565b60405180910390a261345d613f88565b6001600160a01b03167f723b06f6c3a94dc82019852e6aa01c0241fba5f84410b9003ddc3440ad499e598460405161349591906148dc565b60405180910390a250505050565b606c546001600160a01b031681565b6000608954600014156134c757506000611684565b6000805b60785481101561362a576000607a6000607884815481106134fc57634e487b7160e01b600052603260045260246000fd5b600091825260208083206002909202909101546001600160a01b031683528201929092526040019020607880548490811061354757634e487b7160e01b600052603260045260246000fd5b9060005260206000209060020201600101548154811061357757634e487b7160e01b600052603260045260246000fd5b600091825260209182902060408051610120810182526008909302909101805480845260018201549484019490945260028101549183019190915260038101546060830152600481015460808301819052600582015460a0840152600682015460c084015260079091015460ff808216151560e085015261010091829004161515908301529092506136149161360d91906141b6565b8490613fe8565b9250508080613622906151c9565b9150506134cb565b50608954611fc99082906141c2565b6066546040516370a0823160e01b81526000916001600160a01b0316906370a082319061366a903090600401614822565b60206040518083038186803b15801561368257600080fd5b505afa158015613696573d6000803e3d6000fd5b505050506040513d601f19601f820116820180604052508101906136ba91906146df565b905090565b606b546001600160a01b031681565b608a5481565b608f5462010000900460ff1680156136ed575060805442115b6137095760405162461bcd60e51b81526004016109d590614eb6565b6081546080546137199190615120565b42106137375760405162461bcd60e51b81526004016109d590614a18565b608f546301000000900460ff16156137615760405162461bcd60e51b81526004016109d5906149eb565b8281146137805760405162461bcd60e51b81526004016109d590614a5a565b6000805b84811015613821576088548686838181106137af57634e487b7160e01b600052603260045260246000fd5b9050602002013510156137d45760405162461bcd60e51b81526004016109d590614eed565b61380d8686838181106137f757634e487b7160e01b600052603260045260246000fd5b9050602002013583613fe890919063ffffffff16565b915080613819816151c9565b915050613784565b50600061383f606461180860056083546141b690919063ffffffff16565b90506000607b60009054906101000a90046001600160a01b03166001600160a01b031663771a3a1d6040518163ffffffff1660e01b8152600401602060405180830381600087803b15801561389357600080fd5b505af11580156138a7573d6000803e3d6000fd5b505050506040513d601f19601f820116820180604052508101906138cb91906146df565b607b549091506000906001600160a01b031663d1ecfc686138ea613f88565b6040518263ffffffff1660e01b81526004016139069190614822565b602060405180830381600087803b15801561392057600080fd5b505af1158015613934573d6000803e3d6000fd5b505050506040513d601f19601f8201168201806040525081019061395891906146ab565b61396b576139668483613fd6565b61396e565b60005b60835490915061397e9084613fe8565b6139978261140387608954613fe890919063ffffffff16565b11156139b55760405162461bcd60e51b81526004016109d590614cba565b60006139c18584610d9d565b607b549096509091506001600160a01b03166323b872dd6139e0613f88565b306139eb858a615120565b6040518463ffffffff1660e01b8152600401613a0993929190614836565b602060405180830381600087803b158015613a2357600080fd5b505af1158015613a37573d6000803e3d6000fd5b505050506040513d601f19601f82011682018060405250810190613a5b91906146ab565b50613a668583613fca565b94508015613b6757607b5460408051634a5db0a960e01b815290516001600160a01b039092169163a9059cbb918391634a5db0a9916004808201926020929091908290030181600087803b158015613abd57600080fd5b505af1158015613ad1573d6000803e3d6000fd5b505050506040513d601f19601f82011682018060405250810190613af5919061446f565b836040518363ffffffff1660e01b8152600401613b1392919061485a565b602060405180830381600087803b158015613b2d57600080fd5b505af1158015613b41573d6000803e3d6000fd5b505050506040513d601f19601f82011682018060405250810190613b6591906146ab565b505b608954613b749086613fe8565b60895560005b88811015613cb65760008a8a83818110613ba457634e487b7160e01b600052603260045260246000fd5b607b54602090910292909201359250506001600160a01b031663d1ecfc68613bca613f88565b6040518263ffffffff1660e01b8152600401613be69190614822565b602060405180830381600087803b158015613c0057600080fd5b505af1158015613c14573d6000803e3d6000fd5b505050506040513d601f19601f82011682018060405250810190613c3891906146ab565b613c4b57613c468186613fd6565b613c4e565b60005b9350613c5a8186610d9d565b9093509050613c698185613fca565b9050613ca3613c76613f88565b828b8b86818110613c9757634e487b7160e01b600052603260045260246000fd5b905060200201356141ce565b5080613cae816151c9565b915050613b7a565b5060835460895410613cca57613cca613f8c565b613cd2613f88565b6001600160a01b03167f13a48d8febad6aab3d08d69a6538376ee5c1fc0d28b26d360870b006b5454f438a8a8a8a604051613d109493929190614924565b60405180910390a2505050505050505050565b608f5465010000000000900460ff1681565b60798181548110613d4557600080fd5b6000918252602090912060029091020180546001909101546001600160a01b03909116915082565b606b546001600160a01b0316613d81613f88565b6001600160a01b031614613da75760405162461bcd60e51b81526004016109d590614df5565b606c80546001600160a01b0319169055565b606d54606e54606f5460705460715460725460735460745460755460765460ff808216916101009004168b565b608b5481565b608e5481565b607b546001600160a01b031681565b608c5481565b600080606560009054906101000a90046001600160a01b03166001600160a01b031663313ce5676040518163ffffffff1660e01b815260040160206040518083038186803b158015613e5857600080fd5b505afa158015613e6c573d6000803e3d6000fd5b505050506040513d601f19601f82011682018060405250810190611fc9919061478a565b60778181548110613ea057600080fd5b60009182526020909120600290910201805460019091015490915082565b613ec6613f88565b6001600160a01b0316613ed7611f19565b6001600160a01b031614613efd5760405162461bcd60e51b81526004016109d590614e36565b6001600160a01b038116613f235760405162461bcd60e51b81526004016109d590614aef565b611e8781614164565b608d5481565b6066546001600160a01b031690565b607d546040516370a0823160e01b81526000916001600160a01b0316906370a082319061366a903090600401614822565b60805481565b60788181548110613d4557600080fd5b3390565b608f805463ff000000191663010000001790556040517f2e136745550967f28b779ce8c395ca060a2f844edfb5b06631fe677f66f9e30590600090a1565b60006117358284615177565b600061173561271061180885856141b6565b60006117358284615120565b60665460405163095ea7b360e01b81526001600160a01b039091169063095ea7b390614026908590859060040161485a565b602060405180830381600087803b15801561404057600080fd5b505af1158015614054573d6000803e3d6000fd5b505050506040513d601f19601f8201168201806040525081019061407891906146ab565b50816001600160a01b03167fd77df63d9076d067d9fd7af16c3d67db48b84064c3314f5900ae919922d364a1826040516140b291906148dc565b60405180910390a25050565b6001600160a01b0384166140d157600080fd5b6067546001600160a01b03166338ed173984846140ec6120d5565b88866040518663ffffffff1660e01b815260040161410e959493929190615041565b600060405180830381600087803b15801561412857600080fd5b505af115801561413c573d6000803e3d6000fd5b505050506040513d6000823e601f3d908101601f1916820160405261152591908101906145d5565b603380546001600160a01b038381166001600160a01b0319831681179093556040519116919082907f8be0079c531659141344cd1fd0a4f28419497f9722a3daafe3b4186f6b6457e090600090a35050565b60006117358284615158565b60006117358284615138565b60786040518060400160405280856001600160a01b03168152602001607a6000876001600160a01b03166001600160a01b0316815260200190815260200160002080549050815250908060018154018082558091505060019003906000526020600020906002020160009091909190915060008201518160000160006101000a8154816001600160a01b0302191690836001600160a01b03160217905550602082015181600101555050607a6000846001600160a01b03166001600160a01b031681526020019081526020016000206040518061012001604052808481526020014281526020016000815260200142815260200183815260200160001981526020016000198152602001600015158152602001600015158152509080600181540180825580915050600190039060005260206000209060080201600090919091909150600082015181600001556020820151816001015560408201518160020155606082015181600301556080820151816004015560a0820151816005015560c0820151816006015560e08201518160070160006101000a81548160ff0219169083151502179055506101008201518160070160016101000a81548160ff0219169083151502179055505050505050565b5080546000825560020290600052602060002090810190611e8791905b808211156143e15780546001600160a01b0319168155600060018201556002016143bc565b5090565b8061032081018310156108f857600080fd5b60008083601f840112614408578182fd5b50813567ffffffffffffffff81111561441f578182fd5b6020830191508360208083028501011115610df757600080fd5b805169ffffffffffffffffffff81168114610ebd57600080fd5b600060208284031215614464578081fd5b813561173581615210565b600060208284031215614480578081fd5b815161173581615210565b60008060006060848603121561449f578182fd5b83356144aa81615210565b925060208401356144ba81615210565b915060408401356144ca81615210565b809150509250925092565b600080604083850312156144e7578182fd5b82356144f281615210565b946020939093013593505050565b600080600060608486031215614514578283fd5b833561451f81615210565b92506020840135915060408401356144ca81615210565b6000806106408385031215614549578182fd5b61455384846143e5565b91506145638461032085016143e5565b90509250929050565b60008060008060408587031215614581578081fd5b843567ffffffffffffffff80821115614598578283fd5b6145a4888389016143f7565b909650945060208701359150808211156145bc578283fd5b506145c9878288016143f7565b95989497509550505050565b600060208083850312156145e7578182fd5b825167ffffffffffffffff808211156145fe578384fd5b818501915085601f830112614611578384fd5b815181811115614623576146236151fa565b83810260405185828201018181108582111715614642576146426151fa565b604052828152858101935084860182860187018a1015614660578788fd5b8795505b83861015614682578051855260019590950194938601938601614664565b5098975050505050505050565b6000602082840312156146a0578081fd5b813561173581615225565b6000602082840312156146bc578081fd5b815161173581615225565b6000602082840312156146d8578081fd5b5035919050565b6000602082840312156146f0578081fd5b5051919050565b60008060408385031215614709578182fd5b50508035926020909101359150565b6000806040838503121561472a578182fd5b505080516020909101519092909150565b600080600080600060a08688031215614752578283fd5b61475b86614439565b945060208601519350604086015192506060860151915061477e60808701614439565b90509295509295909350565b60006020828403121561479b578081fd5b815160ff81168114611735578182fd5b6000815180845260208085019450808401835b838110156147e35781516001600160a01b0316875295820195908201906001016147be565b509495945050505050565b81835260006001600160fb1b03831115614806578081fd5b6020830280836020870137939093016020019283525090919050565b6001600160a01b0391909116815260200190565b6001600160a01b039384168152919092166020820152604081019190915260600190565b6001600160a01b03929092168252602082015260400190565b60006020825261173560208301846147ab565b60006040825261489960408301856147ab565b828103602084810191909152845180835285820192820190845b818110156148cf578451835293830193918301916001016148b3565b5090979650505050505050565b90815260200190565b918252602082015260400190565b9283526020830191909152604082015260600190565b93845260208401929092526040830152606082015260800190565b6000604082526149386040830186886147ee565b828103602084015261494b8185876147ee565b979650505050505050565b901515815260200190565b6000602080835283518082850152825b8181101561498d57858101830151858201604001528201614971565b8181111561499e5783604083870101525b50601f01601f1916929092016040019392505050565b60208082526017908201527f30333831207468697320696e6465782065786365656473000000000000000000604082015260600190565b6020808252601390820152720c0ccc4c08141bdbdb081a5cc81b1bd8dad959606a1b604082015260600190565b60208082526022908201527f303331362043616e206e6f74207374616b65206166746572206c6f636b206461604082015261746560f01b606082015260800190565b60208082526032908201527f30333135207374616b696e67416d6f756e7420616e642070726564696374696f6040820152710dce640d8cadccee8d040dad2e6dac2e8c6d60731b606082015260800190565b60208082526023908201527f303334302054686520706f6f6c206973206f6e6c7920544f544d2072657761726040820152623232b960e91b606082015260800190565b60208082526026908201527f4f776e61626c653a206e6577206f776e657220697320746865207a65726f206160408201526564647265737360d01b606082015260800190565b6020808252602c908201527f303336302043616e277420656e6420706f6f6c206265666f726520746865206d60408201526b617475726974792074696d6560a01b606082015260800190565b6020808252601690820152750c0ccd8c88199a5c9cdd081cda1bdd5b19081cdbdc9d60521b604082015260600190565b6020808252601490820152733033343220446561646c696e65206973206c6f7760601b604082015260600190565b6020808252601d908201527f5573657220646f6573206e6f74206861766520616e79207374616b6573000000604082015260600190565b6020808252600490820152630303332360e41b604082015260600190565b60208082526022908201527f4e6f74206368616e67696e67207468652061637469766174696f6e2073746174604082015261757360f01b606082015260800190565b60208082526024908201527f4e6f7420656e6f7567682062616c616e636520696e20726577617264206d616e60408201526330b3b2b960e11b606082015260800190565b60208082526026908201527f303331322043616e2774207374616b652061626f76652073697a6520616c6c6f60408201526531b0ba34b7b760d11b606082015260800190565b60208082526021908201527f3033373020746f74656d732063616e206e6f74206265207472616e73666572656040820152601960fa1b606082015260800190565b60208082526019908201527f3033343120416d6f756e742063616e2774206265207a65726f00000000000000604082015260600190565b60208082526015908201527469742773206e6f7420616e20656d657267656e637960581b604082015260600190565b6020808252602e908201527f496e697469616c697a61626c653a20636f6e747261637420697320616c72656160408201526d191e481a5b9a5d1a585b1a5e995960921b606082015260800190565b60208082526021908201527f303330302063616c6c6572206973206e6f74206120706f6f6c2063726561746f6040820152603960f91b606082015260800190565b6020808252818101527f4f776e61626c653a2063616c6c6572206973206e6f7420746865206f776e6572604082015260600190565b6020808252602b908201527f3033383020746869732061646472657373206469646e2774207374616b65206960408201526a1b881d1a1a5cc81c1bdbdb60aa1b606082015260800190565b60208082526017908201527f3033313320706f6f6c206973206e6f7420616374697665000000000000000000604082015260600190565b6020808252602a908201527f3033313120416d6f756e742063616e2774206265206c657373207468616e20746040820152696865206d696e696d756d60b01b606082015260800190565b60208082526027908201527f303336312057726170706564546f6b656e2052657761726473206e6f7420617660408201526661696c61626c6560c81b606082015260800190565b602080825260149082015273125b99195e08191bd95cc81b9bdd08195e1a5cdd60621b604082015260600190565b60208082526036908201527f303335302043616e277420736574206d61747572696e67207072696365206265604082015275666f726520746865206d617475726974792074696d6560501b606082015260800190565b6020808252600490820152630303333360e41b604082015260600190565b60008382526040602083015261503960408301846147ab565b949350505050565b600086825285602083015260a0604083015261506060a08301866147ab565b6001600160a01b0394909416606083015250608001529392505050565b988952602089019790975260408801959095526060870193909352608086019190915260a085015260c0840152151560e083015215156101008201526101200190565b9a8b5260208b019990995260408a01979097526060890195909552608088019390935260a087019190915260c086015260e0850152610100840152151561012083015215156101408201526101600190565b60ff91909116815260200190565b60008219821115615133576151336151e4565b500190565b60008261515357634e487b7160e01b81526012600452602481fd5b500490565b6000816000190483118215151615615172576151726151e4565b500290565b600082821015615189576151896151e4565b500390565b6002810460018216806151a257607f821691505b602082108114156151c357634e487b7160e01b600052602260045260246000fd5b50919050565b60006000198214156151dd576151dd6151e4565b5060010190565b634e487b7160e01b600052601160045260246000fd5b634e487b7160e01b600052604160045260246000fd5b6001600160a01b0381168114611e8757600080fd5b8015158114611e8757600080fdfea26469706673582212205a2833578544bf307a62b392e5dd3a9a7e171695c9ba1c0074ebcfb55a4e89fc64736f6c63430008000033",
  "linkReferences": {
    "contracts/libraries/CalculateRewardLib.sol": {
      "CalculateRewardLib": [
        {
          "length": 20,
          "start": 7304
        },
        {
          "length": 20,
          "start": 12385
        }
      ]
    },
    "contracts/libraries/ClaimRewardLib.sol": {
      "ClaimRewardLib": [
        {
          "length": 20,
          "start": 3154
        },
        {
          "length": 20,
          "start": 5852
        },
        {
          "length": 20,
          "start": 7490
        },
        {
          "length": 20,
          "start": 11422
        },
        {
          "length": 20,
          "start": 11608
        },
        {
          "length": 20,
          "start": 11844
        },
        {
          "length": 20,
          "start": 12236
        },
        {
          "length": 20,
          "start": 12571
        },
        {
          "length": 20,
          "start": 13103
        }
      ]
    },
    "contracts/libraries/IndexedClaimRewardLib.sol": {
      "IndexedClaimRewardLib": [
        {
          "length": 20,
          "start": 2201
        },
        {
          "length": 20,
          "start": 9122
        },
        {
          "length": 20,
          "start": 9310
        },
        {
          "length": 20,
          "start": 9548
        },
        {
          "length": 20,
          "start": 9942
        },
        {
          "length": 20,
          "start": 10093
        },
        {
          "length": 20,
          "start": 10281
        },
        {
          "length": 20,
          "start": 10815
        },
        {
          "length": 20,
          "start": 11280
        }
      ]
    }
  },
  "deployedLinkReferences": {
    "contracts/libraries/CalculateRewardLib.sol": {
      "CalculateRewardLib": [
        {
          "length": 20,
          "start": 7272
        },
        {
          "length": 20,
          "start": 12353
        }
      ]
    },
    "contracts/libraries/ClaimRewardLib.sol": {
      "ClaimRewardLib": [
        {
          "length": 20,
          "start": 3122
        },
        {
          "length": 20,
          "start": 5820
        },
        {
          "length": 20,
          "start": 7458
        },
        {
          "length": 20,
          "start": 11390
        },
        {
          "length": 20,
          "start": 11576
        },
        {
          "length": 20,
          "start": 11812
        },
        {
          "length": 20,
          "start": 12204
        },
        {
          "length": 20,
          "start": 12539
        },
        {
          "length": 20,
          "start": 13071
        }
      ]
    },
    "contracts/libraries/IndexedClaimRewardLib.sol": {
      "IndexedClaimRewardLib": [
        {
          "length": 20,
          "start": 2169
        },
        {
          "length": 20,
          "start": 9090
        },
        {
          "length": 20,
          "start": 9278
        },
        {
          "length": 20,
          "start": 9516
        },
        {
          "length": 20,
          "start": 9910
        },
        {
          "length": 20,
          "start": 10061
        },
        {
          "length": 20,
          "start": 10249
        },
        {
          "length": 20,
          "start": 10783
        },
        {
          "length": 20,
          "start": 11248
        }
      ]
    }
  },
  "devdoc": {
    "kind": "dev",
    "methods": {
      "__PriceConsumer_initialize(address)": {
        "params": {
          "_oracle": "The chainlink node oracle address to send requests"
        }
      },
      "getEstimatedWrappedTokenForUSD(uint256)": {
        "params": {
          "_amount": "Amount"
        }
      },
      "owner()": {
        "details": "Returns the address of the current owner."
      },
      "renounceOwnership()": {
        "details": "Leaves the contract without owner. It will not be possible to call `onlyOwner` functions anymore. Can only be called by the current owner. NOTE: Renouncing ownership will leave the contract without an owner, thereby removing any functionality that is only available to the owner."
      },
      "transferOwnership(address)": {
        "details": "Transfers ownership of the contract to a new account (`newOwner`). Can only be called by the current owner."
      },
      "updateMaturingPrice(uint256)": {
        "params": {
          "_price": "is ignored if oracle is not zero address.When there is no oracle, _price is the maturingPrice and is set manually by the pool creator"
        }
      }
    },
    "version": 1
  },
  "evm": {
    "bytecode": {
      "linkReferences": {
        "contracts/libraries/CalculateRewardLib.sol": {
          "CalculateRewardLib": [
            {
              "length": 20,
              "start": 7304
            },
            {
              "length": 20,
              "start": 12385
            }
          ]
        },
        "contracts/libraries/ClaimRewardLib.sol": {
          "ClaimRewardLib": [
            {
              "length": 20,
              "start": 3154
            },
            {
              "length": 20,
              "start": 5852
            },
            {
              "length": 20,
              "start": 7490
            },
            {
              "length": 20,
              "start": 11422
            },
            {
              "length": 20,
              "start": 11608
            },
            {
              "length": 20,
              "start": 11844
            },
            {
              "length": 20,
              "start": 12236
            },
            {
              "length": 20,
              "start": 12571
            },
            {
              "length": 20,
              "start": 13103
            }
          ]
        },
        "contracts/libraries/IndexedClaimRewardLib.sol": {
          "IndexedClaimRewardLib": [
            {
              "length": 20,
              "start": 2201
            },
            {
              "length": 20,
              "start": 9122
            },
            {
              "length": 20,
              "start": 9310
            },
            {
              "length": 20,
              "start": 9548
            },
            {
              "length": 20,
              "start": 9942
            },
            {
              "length": 20,
              "start": 10093
            },
            {
              "length": 20,
              "start": 10281
            },
            {
              "length": 20,
              "start": 10815
            },
            {
              "length": 20,
              "start": 11280
            }
          ]
        }
      },
      "opcodes": "PUSH1 0x80 PUSH1 0x40 MSTORE CALLVALUE DUP1 ISZERO PUSH2 0x10 JUMPI PUSH1 0x0 DUP1 REVERT JUMPDEST POP PUSH2 0x5269 DUP1 PUSH2 0x20 PUSH1 0x0 CODECOPY PUSH1 0x0 RETURN INVALID PUSH1 0x80 PUSH1 0x40 MSTORE CALLVALUE DUP1 ISZERO PUSH2 0x10 JUMPI PUSH1 0x0 DUP1 REVERT JUMPDEST POP PUSH1 0x4 CALLDATASIZE LT PUSH2 0x433 JUMPI PUSH1 0x0 CALLDATALOAD PUSH1 0xE0 SHR DUP1 PUSH4 0x8DA5CB5B GT PUSH2 0x236 JUMPI DUP1 PUSH4 0xC6C1DECD GT PUSH2 0x13B JUMPI DUP1 PUSH4 0xE8153C93 GT PUSH2 0xC3 JUMPI DUP1 PUSH4 0xF3D9DC0D GT PUSH2 0x87 JUMPI DUP1 PUSH4 0xF3D9DC0D EQ PUSH2 0x7F9 JUMPI DUP1 PUSH4 0xF5E96FC9 EQ PUSH2 0x801 JUMPI DUP1 PUSH4 0xF8E829C3 EQ PUSH2 0x809 JUMPI DUP1 PUSH4 0xF8EEED62 EQ PUSH2 0x811 JUMPI DUP1 PUSH4 0xFD5E6DD1 EQ PUSH2 0x819 JUMPI PUSH2 0x433 JUMP JUMPDEST DUP1 PUSH4 0xE8153C93 EQ PUSH2 0x7AE JUMPI DUP1 PUSH4 0xEB850AE1 EQ PUSH2 0x7B6 JUMPI DUP1 PUSH4 0xF0141D84 EQ PUSH2 0x7BE JUMPI DUP1 PUSH4 0xF1B17A8B EQ PUSH2 0x7D3 JUMPI DUP1 PUSH4 0xF2FDE38B EQ PUSH2 0x7E6 JUMPI PUSH2 0x433 JUMP JUMPDEST DUP1 PUSH4 0xDE09EE20 GT PUSH2 0x10A JUMPI DUP1 PUSH4 0xDE09EE20 EQ PUSH2 0x756 JUMPI DUP1 PUSH4 0xDF7F92E0 EQ PUSH2 0x777 JUMPI DUP1 PUSH4 0xE0818669 EQ PUSH2 0x77F JUMPI DUP1 PUSH4 0xE425DF8C EQ PUSH2 0x79E JUMPI DUP1 PUSH4 0xE68B52E7 EQ PUSH2 0x7A6 JUMPI PUSH2 0x433 JUMP JUMPDEST DUP1 PUSH4 0xC6C1DECD EQ PUSH2 0x72B JUMPI DUP1 PUSH4 0xD025188B EQ PUSH2 0x733 JUMPI DUP1 PUSH4 0xD49FAB8A EQ PUSH2 0x73B JUMPI DUP1 PUSH4 0xD7EFB6B7 EQ PUSH2 0x74E JUMPI PUSH2 0x433 JUMP JUMPDEST DUP1 PUSH4 0xA8F7B346 GT PUSH2 0x1BE JUMPI DUP1 PUSH4 0xB7B30170 GT PUSH2 0x18D JUMPI DUP1 PUSH4 0xB7B30170 EQ PUSH2 0x6F8 JUMPI DUP1 PUSH4 0xB88A802F EQ PUSH2 0x70B JUMPI DUP1 PUSH4 0xBECE7532 EQ PUSH2 0x713 JUMPI DUP1 PUSH4 0xBF852196 EQ PUSH2 0x71B JUMPI DUP1 PUSH4 0xC1201054 EQ PUSH2 0x723 JUMPI PUSH2 0x433 JUMP JUMPDEST DUP1 PUSH4 0xA8F7B346 EQ PUSH2 0x6C2 JUMPI DUP1 PUSH4 0xAA7BCB57 EQ PUSH2 0x6D5 JUMPI DUP1 PUSH4 0xB1B1E1C0 EQ PUSH2 0x6DD JUMPI DUP1 PUSH4 0xB1DD61B6 EQ PUSH2 0x6F0 JUMPI PUSH2 0x433 JUMP JUMPDEST DUP1 PUSH4 0xA08B2C79 GT PUSH2 0x205 JUMPI DUP1 PUSH4 0xA08B2C79 EQ PUSH2 0x677 JUMPI DUP1 PUSH4 0xA118C9A7 EQ PUSH2 0x67F JUMPI DUP1 PUSH4 0xA35EF3A7 EQ PUSH2 0x692 JUMPI DUP1 PUSH4 0xA4E2D634 EQ PUSH2 0x6A7 JUMPI DUP1 PUSH4 0xA7A48681 EQ PUSH2 0x6AF JUMPI PUSH2 0x433 JUMP JUMPDEST DUP1 PUSH4 0x8DA5CB5B EQ PUSH2 0x657 JUMPI DUP1 PUSH4 0x8E15F473 EQ PUSH2 0x65F JUMPI DUP1 PUSH4 0x95C2BA47 EQ PUSH2 0x667 JUMPI DUP1 PUSH4 0x996C6CC3 EQ PUSH2 0x66F JUMPI PUSH2 0x433 JUMP JUMPDEST DUP1 PUSH4 0x4DDC1BDC GT PUSH2 0x33C JUMPI DUP1 PUSH4 0x785FA627 GT PUSH2 0x2C4 JUMPI DUP1 PUSH4 0x817B1CD2 GT PUSH2 0x293 JUMPI DUP1 PUSH4 0x817B1CD2 EQ PUSH2 0x60F JUMPI DUP1 PUSH4 0x850FA7CB EQ PUSH2 0x617 JUMPI DUP1 PUSH4 0x8A9920B7 EQ PUSH2 0x63F JUMPI DUP1 PUSH4 0x8BFBBCBE EQ PUSH2 0x647 JUMPI DUP1 PUSH4 0x8CF0E21E EQ PUSH2 0x64F JUMPI PUSH2 0x433 JUMP JUMPDEST DUP1 PUSH4 0x785FA627 EQ PUSH2 0x5D9 JUMPI DUP1 PUSH4 0x78F4D413 EQ PUSH2 0x5E1 JUMPI DUP1 PUSH4 0x7B0472F0 EQ PUSH2 0x5F4 JUMPI DUP1 PUSH4 0x7F2B6A0D EQ PUSH2 0x607 JUMPI PUSH2 0x433 JUMP JUMPDEST DUP1 PUSH4 0x6847D0C5 GT PUSH2 0x30B JUMPI DUP1 PUSH4 0x6847D0C5 EQ PUSH2 0x5B1 JUMPI DUP1 PUSH4 0x6B036F45 EQ PUSH2 0x5B9 JUMPI DUP1 PUSH4 0x715018A6 EQ PUSH2 0x5C1 JUMPI DUP1 PUSH4 0x725C9C49 EQ PUSH2 0x5C9 JUMPI DUP1 PUSH4 0x73F31703 EQ PUSH2 0x5D1 JUMPI PUSH2 0x433 JUMP JUMPDEST DUP1 PUSH4 0x4DDC1BDC EQ PUSH2 0x57B JUMPI DUP1 PUSH4 0x4E8BFDAA EQ PUSH2 0x58E JUMPI DUP1 PUSH4 0x51EACBF0 EQ PUSH2 0x596 JUMPI DUP1 PUSH4 0x5D2631E2 EQ PUSH2 0x59E JUMPI PUSH2 0x433 JUMP JUMPDEST DUP1 PUSH4 0x37C4F6A4 GT PUSH2 0x3BF JUMPI DUP1 PUSH4 0x43352D61 GT PUSH2 0x38E JUMPI DUP1 PUSH4 0x43352D61 EQ PUSH2 0x524 JUMPI DUP1 PUSH4 0x444A4902 EQ PUSH2 0x53A JUMPI DUP1 PUSH4 0x45E91319 EQ PUSH2 0x54D JUMPI DUP1 PUSH4 0x4BC4EEB2 EQ PUSH2 0x560 JUMPI DUP1 PUSH4 0x4C7C77FC EQ PUSH2 0x568 JUMPI PUSH2 0x433 JUMP JUMPDEST DUP1 PUSH4 0x37C4F6A4 EQ PUSH2 0x4E3 JUMPI DUP1 PUSH4 0x395B3DAC EQ PUSH2 0x4F6 JUMPI DUP1 PUSH4 0x3FCDD82C EQ PUSH2 0x509 JUMPI DUP1 PUSH4 0x4026478E EQ PUSH2 0x51C JUMPI PUSH2 0x433 JUMP JUMPDEST DUP1 PUSH4 0x238A6C74 GT PUSH2 0x406 JUMPI DUP1 PUSH4 0x238A6C74 EQ PUSH2 0x493 JUMPI DUP1 PUSH4 0x2AA8195E EQ PUSH2 0x4A8 JUMPI DUP1 PUSH4 0x2D42CF7D EQ PUSH2 0x4B0 JUMPI DUP1 PUSH4 0x2D5CD1D6 EQ PUSH2 0x4BA JUMPI DUP1 PUSH4 0x31E244E5 EQ PUSH2 0x4DB JUMPI PUSH2 0x433 JUMP JUMPDEST DUP1 PUSH4 0xD668087 EQ PUSH2 0x438 JUMPI DUP1 PUSH4 0xF4EF8A6 EQ PUSH2 0x456 JUMPI DUP1 PUSH4 0x22F3E2D4 EQ PUSH2 0x46B JUMPI DUP1 PUSH4 0x2342E480 EQ PUSH2 0x480 JUMPI JUMPDEST PUSH1 0x0 DUP1 REVERT JUMPDEST PUSH2 0x440 PUSH2 0x82C JUMP JUMPDEST PUSH1 0x40 MLOAD PUSH2 0x44D SWAP2 SWAP1 PUSH2 0x48DC JUMP JUMPDEST PUSH1 0x40 MLOAD DUP1 SWAP2 SUB SWAP1 RETURN JUMPDEST PUSH2 0x45E PUSH2 0x832 JUMP JUMPDEST PUSH1 0x40 MLOAD PUSH2 0x44D SWAP2 SWAP1 PUSH2 0x4822 JUMP JUMPDEST PUSH2 0x473 PUSH2 0x841 JUMP JUMPDEST PUSH1 0x40 MLOAD PUSH2 0x44D SWAP2 SWAP1 PUSH2 0x4956 JUMP JUMPDEST PUSH2 0x440 PUSH2 0x48E CALLDATASIZE PUSH1 0x4 PUSH2 0x44D5 JUMP JUMPDEST PUSH2 0x850 JUMP JUMPDEST PUSH2 0x49B PUSH2 0x8FE JUMP JUMPDEST PUSH1 0x40 MLOAD PUSH2 0x44D SWAP2 SWAP1 PUSH2 0x4961 JUMP JUMPDEST PUSH2 0x45E PUSH2 0x98C JUMP JUMPDEST PUSH2 0x4B8 PUSH2 0x99B JUMP JUMPDEST STOP JUMPDEST PUSH2 0x4CD PUSH2 0x4C8 CALLDATASIZE PUSH1 0x4 PUSH2 0x4453 JUMP JUMPDEST PUSH2 0xC05 JUMP JUMPDEST PUSH1 0x40 MLOAD PUSH2 0x44D SWAP3 SWAP2 SWAP1 PUSH2 0x48E5 JUMP JUMPDEST PUSH2 0x4B8 PUSH2 0xCB9 JUMP JUMPDEST PUSH2 0x4B8 PUSH2 0x4F1 CALLDATASIZE PUSH1 0x4 PUSH2 0x4453 JUMP JUMPDEST PUSH2 0xD0C JUMP JUMPDEST PUSH2 0x4CD PUSH2 0x504 CALLDATASIZE PUSH1 0x4 PUSH2 0x46F7 JUMP JUMPDEST PUSH2 0xD9D JUMP JUMPDEST PUSH2 0x440 PUSH2 0x517 CALLDATASIZE PUSH1 0x4 PUSH2 0x46C7 JUMP JUMPDEST PUSH2 0xDFE JUMP JUMPDEST PUSH2 0x4B8 PUSH2 0xEC2 JUMP JUMPDEST PUSH2 0x52C PUSH2 0xF04 JUMP JUMPDEST PUSH1 0x40 MLOAD PUSH2 0x44D SWAP3 SWAP2 SWAP1 PUSH2 0x4886 JUMP JUMPDEST PUSH2 0x4B8 PUSH2 0x548 CALLDATASIZE PUSH1 0x4 PUSH2 0x4536 JUMP JUMPDEST PUSH2 0x10C1 JUMP JUMPDEST PUSH2 0x473 PUSH2 0x55B CALLDATASIZE PUSH1 0x4 PUSH2 0x44D5 JUMP JUMPDEST PUSH2 0x125C JUMP JUMPDEST PUSH2 0x473 PUSH2 0x13AE JUMP JUMPDEST PUSH2 0x440 PUSH2 0x576 CALLDATASIZE PUSH1 0x4 PUSH2 0x46F7 JUMP JUMPDEST PUSH2 0x13BC JUMP JUMPDEST PUSH2 0x4B8 PUSH2 0x589 CALLDATASIZE PUSH1 0x4 PUSH2 0x46F7 JUMP JUMPDEST PUSH2 0x1440 JUMP JUMPDEST PUSH2 0x440 PUSH2 0x152C JUMP JUMPDEST PUSH2 0x440 PUSH2 0x1532 JUMP JUMPDEST PUSH2 0x4B8 PUSH2 0x5AC CALLDATASIZE PUSH1 0x4 PUSH2 0x4500 JUMP JUMPDEST PUSH2 0x1538 JUMP JUMPDEST PUSH2 0x440 PUSH2 0x1622 JUMP JUMPDEST PUSH2 0x440 PUSH2 0x1628 JUMP JUMPDEST PUSH2 0x4B8 PUSH2 0x162E JUMP JUMPDEST PUSH2 0x45E PUSH2 0x1677 JUMP JUMPDEST PUSH2 0x440 PUSH2 0x1687 JUMP JUMPDEST PUSH2 0x440 PUSH2 0x168D JUMP JUMPDEST PUSH2 0x440 PUSH2 0x5EF CALLDATASIZE PUSH1 0x4 PUSH2 0x4453 JUMP JUMPDEST PUSH2 0x1693 JUMP JUMPDEST PUSH2 0x4B8 PUSH2 0x602 CALLDATASIZE PUSH1 0x4 PUSH2 0x46F7 JUMP JUMPDEST PUSH2 0x173C JUMP JUMPDEST PUSH2 0x473 PUSH2 0x1BBD JUMP JUMPDEST PUSH2 0x440 PUSH2 0x1BCE JUMP JUMPDEST PUSH2 0x62A PUSH2 0x625 CALLDATASIZE PUSH1 0x4 PUSH2 0x44D5 JUMP JUMPDEST PUSH2 0x1BD4 JUMP JUMPDEST PUSH1 0x40 MLOAD PUSH2 0x44D SWAP10 SWAP9 SWAP8 SWAP7 SWAP6 SWAP5 SWAP4 SWAP3 SWAP2 SWAP1 PUSH2 0x507D JUMP JUMPDEST PUSH2 0x4B8 PUSH2 0x1C42 JUMP JUMPDEST PUSH2 0x4B8 PUSH2 0x1E8A JUMP JUMPDEST PUSH2 0x473 PUSH2 0x1F06 JUMP JUMPDEST PUSH2 0x45E PUSH2 0x1F19 JUMP JUMPDEST PUSH2 0x440 PUSH2 0x1F28 JUMP JUMPDEST PUSH2 0x440 PUSH2 0x1FCF JUMP JUMPDEST PUSH2 0x45E PUSH2 0x1FD4 JUMP JUMPDEST PUSH2 0x473 PUSH2 0x1FE3 JUMP JUMPDEST PUSH2 0x4B8 PUSH2 0x68D CALLDATASIZE PUSH1 0x4 PUSH2 0x468F JUMP JUMPDEST PUSH2 0x1FEC JUMP JUMPDEST PUSH2 0x69A PUSH2 0x20D5 JUMP JUMPDEST PUSH1 0x40 MLOAD PUSH2 0x44D SWAP2 SWAP1 PUSH2 0x4873 JUMP JUMPDEST PUSH2 0x473 PUSH2 0x2184 JUMP JUMPDEST PUSH2 0x4B8 PUSH2 0x6BD CALLDATASIZE PUSH1 0x4 PUSH2 0x46C7 JUMP JUMPDEST PUSH2 0x2194 JUMP JUMPDEST PUSH2 0x4B8 PUSH2 0x6D0 CALLDATASIZE PUSH1 0x4 PUSH2 0x448B JUMP JUMPDEST PUSH2 0x223C JUMP JUMPDEST PUSH2 0x440 PUSH2 0x22F1 JUMP JUMPDEST PUSH2 0x4B8 PUSH2 0x6EB CALLDATASIZE PUSH1 0x4 PUSH2 0x46C7 JUMP JUMPDEST PUSH2 0x22F7 JUMP JUMPDEST PUSH2 0x49B PUSH2 0x2BB6 JUMP JUMPDEST PUSH2 0x4CD PUSH2 0x706 CALLDATASIZE PUSH1 0x4 PUSH2 0x44D5 JUMP JUMPDEST PUSH2 0x2BC3 JUMP JUMPDEST PUSH2 0x4B8 PUSH2 0x2C7A JUMP JUMPDEST PUSH2 0x45E PUSH2 0x34A3 JUMP JUMPDEST PUSH2 0x440 PUSH2 0x34B2 JUMP JUMPDEST PUSH2 0x440 PUSH2 0x3639 JUMP JUMPDEST PUSH2 0x45E PUSH2 0x36BF JUMP JUMPDEST PUSH2 0x440 PUSH2 0x36CE JUMP JUMPDEST PUSH2 0x4B8 PUSH2 0x749 CALLDATASIZE PUSH1 0x4 PUSH2 0x456C JUMP JUMPDEST PUSH2 0x36D4 JUMP JUMPDEST PUSH2 0x473 PUSH2 0x3D23 JUMP JUMPDEST PUSH2 0x769 PUSH2 0x764 CALLDATASIZE PUSH1 0x4 PUSH2 0x46C7 JUMP JUMPDEST PUSH2 0x3D35 JUMP JUMPDEST PUSH1 0x40 MLOAD PUSH2 0x44D SWAP3 SWAP2 SWAP1 PUSH2 0x485A JUMP JUMPDEST PUSH2 0x4B8 PUSH2 0x3D6D JUMP JUMPDEST PUSH2 0x787 PUSH2 0x3DB9 JUMP JUMPDEST PUSH1 0x40 MLOAD PUSH2 0x44D SWAP12 SWAP11 SWAP10 SWAP9 SWAP8 SWAP7 SWAP6 SWAP5 SWAP4 SWAP3 SWAP2 SWAP1 PUSH2 0x50C0 JUMP JUMPDEST PUSH2 0x440 PUSH2 0x3DE6 JUMP JUMPDEST PUSH2 0x440 PUSH2 0x3DEC JUMP JUMPDEST PUSH2 0x45E PUSH2 0x3DF2 JUMP JUMPDEST PUSH2 0x440 PUSH2 0x3E01 JUMP JUMPDEST PUSH2 0x7C6 PUSH2 0x3E07 JUMP JUMPDEST PUSH1 0x40 MLOAD PUSH2 0x44D SWAP2 SWAP1 PUSH2 0x5112 JUMP JUMPDEST PUSH2 0x4CD PUSH2 0x7E1 CALLDATASIZE PUSH1 0x4 PUSH2 0x46C7 JUMP JUMPDEST PUSH2 0x3E90 JUMP JUMPDEST PUSH2 0x4B8 PUSH2 0x7F4 CALLDATASIZE PUSH1 0x4 PUSH2 0x4453 JUMP JUMPDEST PUSH2 0x3EBE JUMP JUMPDEST PUSH2 0x440 PUSH2 0x3F2C JUMP JUMPDEST PUSH2 0x45E PUSH2 0x3F32 JUMP JUMPDEST PUSH2 0x440 PUSH2 0x3F41 JUMP JUMPDEST PUSH2 0x440 PUSH2 0x3F72 JUMP JUMPDEST PUSH2 0x769 PUSH2 0x827 CALLDATASIZE PUSH1 0x4 PUSH2 0x46C7 JUMP JUMPDEST PUSH2 0x3F78 JUMP JUMPDEST PUSH1 0x81 SLOAD DUP2 JUMP JUMPDEST PUSH1 0x7C SLOAD PUSH1 0x1 PUSH1 0x1 PUSH1 0xA0 SHL SUB AND DUP2 JUMP JUMPDEST PUSH1 0x8F SLOAD PUSH3 0x10000 SWAP1 DIV PUSH1 0xFF AND DUP2 JUMP JUMPDEST PUSH1 0x1 PUSH1 0x1 PUSH1 0xA0 SHL SUB DUP3 AND PUSH1 0x0 SWAP1 DUP2 MSTORE PUSH1 0x7A PUSH1 0x20 MSTORE PUSH1 0x40 DUP1 DUP3 KECCAK256 SWAP1 MLOAD PUSH4 0x4F160423 PUSH1 0xE0 SHL DUP2 MSTORE DUP3 SWAP2 PUSH20 0x0 SWAP2 PUSH4 0x4F160423 SWAP2 PUSH2 0x8A4 SWAP2 DUP8 SWAP1 PUSH1 0x6D SWAP1 PUSH1 0x4 ADD PUSH2 0x48F3 JUMP JUMPDEST PUSH1 0x20 PUSH1 0x40 MLOAD DUP1 DUP4 SUB DUP2 DUP7 DUP1 EXTCODESIZE ISZERO DUP1 ISZERO PUSH2 0x8BC JUMPI PUSH1 0x0 DUP1 REVERT JUMPDEST POP GAS DELEGATECALL ISZERO DUP1 ISZERO PUSH2 0x8D0 JUMPI RETURNDATASIZE PUSH1 0x0 DUP1 RETURNDATACOPY RETURNDATASIZE PUSH1 0x0 REVERT JUMPDEST POP POP POP POP PUSH1 0x40 MLOAD RETURNDATASIZE PUSH1 0x1F NOT PUSH1 0x1F DUP3 ADD AND DUP3 ADD DUP1 PUSH1 0x40 MSTORE POP DUP2 ADD SWAP1 PUSH2 0x8F4 SWAP2 SWAP1 PUSH2 0x46DF JUMP JUMPDEST SWAP2 POP POP JUMPDEST SWAP3 SWAP2 POP POP JUMP JUMPDEST PUSH1 0x7E DUP1 SLOAD PUSH2 0x90B SWAP1 PUSH2 0x518E JUMP JUMPDEST DUP1 PUSH1 0x1F ADD PUSH1 0x20 DUP1 SWAP2 DIV MUL PUSH1 0x20 ADD PUSH1 0x40 MLOAD SWAP1 DUP2 ADD PUSH1 0x40 MSTORE DUP1 SWAP3 SWAP2 SWAP1 DUP2 DUP2 MSTORE PUSH1 0x20 ADD DUP3 DUP1 SLOAD PUSH2 0x937 SWAP1 PUSH2 0x518E JUMP JUMPDEST DUP1 ISZERO PUSH2 0x984 JUMPI DUP1 PUSH1 0x1F LT PUSH2 0x959 JUMPI PUSH2 0x100 DUP1 DUP4 SLOAD DIV MUL DUP4 MSTORE SWAP2 PUSH1 0x20 ADD SWAP2 PUSH2 0x984 JUMP JUMPDEST DUP3 ADD SWAP2 SWAP1 PUSH1 0x0 MSTORE PUSH1 0x20 PUSH1 0x0 KECCAK256 SWAP1 JUMPDEST DUP2 SLOAD DUP2 MSTORE SWAP1 PUSH1 0x1 ADD SWAP1 PUSH1 0x20 ADD DUP1 DUP4 GT PUSH2 0x967 JUMPI DUP3 SWAP1 SUB PUSH1 0x1F AND DUP3 ADD SWAP2 JUMPDEST POP POP POP POP POP DUP2 JUMP JUMPDEST PUSH1 0x6A SLOAD PUSH1 0x1 PUSH1 0x1 PUSH1 0xA0 SHL SUB AND DUP2 JUMP JUMPDEST PUSH1 0x6B SLOAD PUSH1 0x1 PUSH1 0x1 PUSH1 0xA0 SHL SUB AND PUSH2 0x9AF PUSH2 0x3F88 JUMP JUMPDEST PUSH1 0x1 PUSH1 0x1 PUSH1 0xA0 SHL SUB AND EQ PUSH2 0x9DE JUMPI PUSH1 0x40 MLOAD PUSH3 0x461BCD PUSH1 0xE5 SHL DUP2 MSTORE PUSH1 0x4 ADD PUSH2 0x9D5 SWAP1 PUSH2 0x4DF5 JUMP JUMPDEST PUSH1 0x40 MLOAD DUP1 SWAP2 SUB SWAP1 REVERT JUMPDEST PUSH1 0x82 SLOAD PUSH1 0x81 SLOAD PUSH1 0x80 SLOAD PUSH2 0x9F1 SWAP2 SWAP1 PUSH2 0x5120 JUMP JUMPDEST PUSH2 0x9FB SWAP2 SWAP1 PUSH2 0x5120 JUMP JUMPDEST TIMESTAMP LT ISZERO PUSH2 0xA1A JUMPI PUSH1 0x40 MLOAD PUSH3 0x461BCD PUSH1 0xE5 SHL DUP2 MSTORE PUSH1 0x4 ADD PUSH2 0x9D5 SWAP1 PUSH2 0x4B35 JUMP JUMPDEST PUSH1 0x86 SLOAD ISZERO PUSH2 0xA46 JUMPI PUSH2 0xA2A PUSH2 0x3F41 JUMP JUMPDEST PUSH2 0xA46 JUMPI PUSH1 0x40 MLOAD PUSH3 0x461BCD PUSH1 0xE5 SHL DUP2 MSTORE PUSH1 0x4 ADD PUSH2 0x9D5 SWAP1 PUSH2 0x4F37 JUMP JUMPDEST PUSH1 0x78 SLOAD ISZERO PUSH2 0xA6D JUMPI PUSH1 0x79 SLOAD PUSH2 0xA6D JUMPI PUSH1 0x40 MLOAD PUSH3 0x461BCD PUSH1 0xE5 SHL DUP2 MSTORE PUSH1 0x4 ADD PUSH2 0x9D5 SWAP1 PUSH2 0x4B81 JUMP JUMPDEST PUSH1 0x8B SLOAD ISZERO PUSH2 0xA9F JUMPI PUSH1 0x0 PUSH2 0xA7F PUSH2 0x34B2 JUMP JUMPDEST SWAP1 POP PUSH2 0xA8D DUP2 PUSH1 0x8C SLOAD PUSH2 0x13BC JUMP JUMPDEST PUSH2 0xA9D JUMPI PUSH1 0x8B SLOAD PUSH1 0x8D DUP2 SWAP1 SSTORE PUSH1 0x74 SSTORE JUMPDEST POP JUMPDEST PUSH1 0x79 SLOAD PUSH1 0x0 SWAP1 PUSH1 0x19 LT PUSH2 0xAB4 JUMPI PUSH1 0x79 SLOAD PUSH2 0xAB7 JUMP JUMPDEST PUSH1 0x19 JUMPDEST SWAP1 POP PUSH1 0x0 JUMPDEST DUP2 DUP2 LT ISZERO PUSH2 0xB95 JUMPI PUSH2 0xACF DUP2 PUSH1 0x1 PUSH2 0x5120 JUMP JUMPDEST PUSH1 0x7A PUSH1 0x0 PUSH1 0x79 DUP5 DUP2 SLOAD DUP2 LT PUSH2 0xAF4 JUMPI PUSH4 0x4E487B71 PUSH1 0xE0 SHL PUSH1 0x0 MSTORE PUSH1 0x32 PUSH1 0x4 MSTORE PUSH1 0x24 PUSH1 0x0 REVERT JUMPDEST PUSH1 0x0 SWAP2 DUP3 MSTORE PUSH1 0x20 DUP1 DUP4 KECCAK256 PUSH1 0x2 SWAP1 SWAP3 MUL SWAP1 SWAP2 ADD SLOAD PUSH1 0x1 PUSH1 0x1 PUSH1 0xA0 SHL SUB AND DUP4 MSTORE DUP3 ADD SWAP3 SWAP1 SWAP3 MSTORE PUSH1 0x40 ADD SWAP1 KECCAK256 PUSH1 0x79 DUP1 SLOAD DUP5 SWAP1 DUP2 LT PUSH2 0xB3F JUMPI PUSH4 0x4E487B71 PUSH1 0xE0 SHL PUSH1 0x0 MSTORE PUSH1 0x32 PUSH1 0x4 MSTORE PUSH1 0x24 PUSH1 0x0 REVERT JUMPDEST SWAP1 PUSH1 0x0 MSTORE PUSH1 0x20 PUSH1 0x0 KECCAK256 SWAP1 PUSH1 0x2 MUL ADD PUSH1 0x1 ADD SLOAD DUP2 SLOAD DUP2 LT PUSH2 0xB6F JUMPI PUSH4 0x4E487B71 PUSH1 0xE0 SHL PUSH1 0x0 MSTORE PUSH1 0x32 PUSH1 0x4 MSTORE PUSH1 0x24 PUSH1 0x0 REVERT JUMPDEST PUSH1 0x0 SWAP2 DUP3 MSTORE PUSH1 0x20 SWAP1 SWAP2 KECCAK256 PUSH1 0x6 PUSH1 0x8 SWAP1 SWAP3 MUL ADD ADD SSTORE DUP1 PUSH2 0xB8D DUP2 PUSH2 0x51C9 JUMP JUMPDEST SWAP2 POP POP PUSH2 0xABC JUMP JUMPDEST POP PUSH1 0x8F DUP1 SLOAD PUSH5 0xFF00000000 NOT PUSH4 0xFF000000 NOT SWAP1 SWAP2 AND PUSH4 0x1000000 OR AND PUSH5 0x100000000 SWAP1 DUP2 OR SWAP2 DUP3 SWAP1 SSTORE PUSH1 0x76 DUP1 SLOAD SWAP2 SWAP1 SWAP3 DIV PUSH1 0xFF AND ISZERO ISZERO PUSH2 0x100 MUL PUSH2 0xFF00 NOT SWAP1 SWAP2 AND OR SWAP1 SSTORE PUSH1 0x40 MLOAD PUSH32 0xE8EF7A17C92D025D9C1EAD1C6B3CA3B44D3283D0EE954F615C5C476911F629A5 SWAP1 PUSH1 0x0 SWAP1 LOG1 POP JUMP JUMPDEST PUSH1 0x1 PUSH1 0x1 PUSH1 0xA0 SHL SUB DUP2 AND PUSH1 0x0 SWAP1 DUP2 MSTORE PUSH1 0x7A PUSH1 0x20 MSTORE PUSH1 0x40 DUP1 DUP3 KECCAK256 SWAP1 MLOAD PUSH4 0x32A1B321 PUSH1 0xE0 SHL DUP2 MSTORE DUP3 SWAP2 DUP3 SWAP2 DUP3 SWAP2 PUSH20 0x0 SWAP2 PUSH4 0x32A1B321 SWAP2 PUSH2 0xC5E SWAP2 PUSH1 0x6D SWAP1 PUSH1 0x77 SWAP1 PUSH1 0x4 ADD PUSH2 0x48F3 JUMP JUMPDEST PUSH1 0x40 DUP1 MLOAD DUP1 DUP4 SUB DUP2 DUP7 DUP1 EXTCODESIZE ISZERO DUP1 ISZERO PUSH2 0xC75 JUMPI PUSH1 0x0 DUP1 REVERT JUMPDEST POP GAS DELEGATECALL ISZERO DUP1 ISZERO PUSH2 0xC89 JUMPI RETURNDATASIZE PUSH1 0x0 DUP1 RETURNDATACOPY RETURNDATASIZE PUSH1 0x0 REVERT JUMPDEST POP POP POP POP PUSH1 0x40 MLOAD RETURNDATASIZE PUSH1 0x1F NOT PUSH1 0x1F DUP3 ADD AND DUP3 ADD DUP1 PUSH1 0x40 MSTORE POP DUP2 ADD SWAP1 PUSH2 0xCAD SWAP2 SWAP1 PUSH2 0x4718 JUMP JUMPDEST SWAP1 SWAP5 POP SWAP3 POP POP POP SWAP2 POP SWAP2 JUMP JUMPDEST PUSH1 0x6B SLOAD PUSH1 0x1 PUSH1 0x1 PUSH1 0xA0 SHL SUB AND PUSH2 0xCCD PUSH2 0x3F88 JUMP JUMPDEST PUSH1 0x1 PUSH1 0x1 PUSH1 0xA0 SHL SUB AND EQ PUSH2 0xCF3 JUMPI PUSH1 0x40 MLOAD PUSH3 0x461BCD PUSH1 0xE5 SHL DUP2 MSTORE PUSH1 0x4 ADD PUSH2 0x9D5 SWAP1 PUSH2 0x4DF5 JUMP JUMPDEST PUSH1 0x8F DUP1 SLOAD PUSH3 0xFF00FF NOT AND PUSH1 0x1 OR SWAP1 SSTORE PUSH2 0xD0A PUSH2 0x3F8C JUMP JUMPDEST JUMP JUMPDEST PUSH1 0x0 SLOAD PUSH2 0x100 SWAP1 DIV PUSH1 0xFF AND DUP1 PUSH2 0xD25 JUMPI POP PUSH1 0x0 SLOAD PUSH1 0xFF AND ISZERO JUMPDEST PUSH2 0xD41 JUMPI PUSH1 0x40 MLOAD PUSH3 0x461BCD PUSH1 0xE5 SHL DUP2 MSTORE PUSH1 0x4 ADD PUSH2 0x9D5 SWAP1 PUSH2 0x4DA7 JUMP JUMPDEST PUSH1 0x0 SLOAD PUSH2 0x100 SWAP1 DIV PUSH1 0xFF AND ISZERO DUP1 ISZERO PUSH2 0xD6C JUMPI PUSH1 0x0 DUP1 SLOAD PUSH1 0xFF NOT PUSH2 0xFF00 NOT SWAP1 SWAP2 AND PUSH2 0x100 OR AND PUSH1 0x1 OR SWAP1 SSTORE JUMPDEST PUSH1 0x65 DUP1 SLOAD PUSH1 0x1 PUSH1 0x1 PUSH1 0xA0 SHL SUB NOT AND PUSH1 0x1 PUSH1 0x1 PUSH1 0xA0 SHL SUB DUP5 AND OR SWAP1 SSTORE DUP1 ISZERO PUSH2 0xD99 JUMPI PUSH1 0x0 DUP1 SLOAD PUSH2 0xFF00 NOT AND SWAP1 SSTORE JUMPDEST POP POP JUMP JUMPDEST PUSH1 0x0 DUP1 PUSH1 0x0 DUP4 PUSH1 0x87 SLOAD GT PUSH2 0xDB2 JUMPI PUSH1 0x0 PUSH2 0xDBF JUMP JUMPDEST PUSH1 0x87 SLOAD PUSH2 0xDBF SWAP1 DUP6 PUSH2 0x3FCA JUMP JUMPDEST SWAP1 POP DUP1 PUSH2 0xDD3 JUMPI PUSH1 0x0 DUP6 SWAP3 POP SWAP3 POP POP PUSH2 0xDF7 JUMP JUMPDEST PUSH2 0xDDD DUP6 DUP3 PUSH2 0x3FD6 JUMP JUMPDEST PUSH2 0xDF1 PUSH2 0xDEA DUP8 DUP5 PUSH2 0x3FD6 JUMP JUMPDEST DUP8 SWAP1 PUSH2 0x3FCA JUMP JUMPDEST SWAP3 POP SWAP3 POP POP JUMPDEST SWAP3 POP SWAP3 SWAP1 POP JUMP JUMPDEST PUSH1 0x67 SLOAD PUSH1 0x0 SWAP1 DUP2 SWAP1 PUSH1 0x1 PUSH1 0x1 PUSH1 0xA0 SHL SUB AND PUSH4 0xD06CA61F DUP5 PUSH2 0xE1D PUSH2 0x20D5 JUMP JUMPDEST PUSH1 0x40 MLOAD DUP4 PUSH4 0xFFFFFFFF AND PUSH1 0xE0 SHL DUP2 MSTORE PUSH1 0x4 ADD PUSH2 0xE3A SWAP3 SWAP2 SWAP1 PUSH2 0x5020 JUMP JUMPDEST PUSH1 0x0 PUSH1 0x40 MLOAD DUP1 DUP4 SUB DUP2 DUP7 DUP1 EXTCODESIZE ISZERO DUP1 ISZERO PUSH2 0xE52 JUMPI PUSH1 0x0 DUP1 REVERT JUMPDEST POP GAS STATICCALL ISZERO DUP1 ISZERO PUSH2 0xE66 JUMPI RETURNDATASIZE PUSH1 0x0 DUP1 RETURNDATACOPY RETURNDATASIZE PUSH1 0x0 REVERT JUMPDEST POP POP POP POP PUSH1 0x40 MLOAD RETURNDATASIZE PUSH1 0x0 DUP3 RETURNDATACOPY PUSH1 0x1F RETURNDATASIZE SWAP1 DUP2 ADD PUSH1 0x1F NOT AND DUP3 ADD PUSH1 0x40 MSTORE PUSH2 0xE8E SWAP2 SWAP1 DUP2 ADD SWAP1 PUSH2 0x45D5 JUMP JUMPDEST SWAP1 POP DUP1 PUSH1 0x1 DUP2 MLOAD DUP2 LT PUSH2 0xEB1 JUMPI PUSH4 0x4E487B71 PUSH1 0xE0 SHL PUSH1 0x0 MSTORE PUSH1 0x32 PUSH1 0x4 MSTORE PUSH1 0x24 PUSH1 0x0 REVERT JUMPDEST PUSH1 0x20 MUL PUSH1 0x20 ADD ADD MLOAD SWAP2 POP POP JUMPDEST SWAP2 SWAP1 POP JUMP JUMPDEST PUSH1 0x6B SLOAD PUSH1 0x1 PUSH1 0x1 PUSH1 0xA0 SHL SUB AND PUSH2 0xED6 PUSH2 0x3F88 JUMP JUMPDEST PUSH1 0x1 PUSH1 0x1 PUSH1 0xA0 SHL SUB AND EQ PUSH2 0xEFC JUMPI PUSH1 0x40 MLOAD PUSH3 0x461BCD PUSH1 0xE5 SHL DUP2 MSTORE PUSH1 0x4 ADD PUSH2 0x9D5 SWAP1 PUSH2 0x4DF5 JUMP JUMPDEST PUSH2 0xD0A PUSH2 0x3F8C JUMP JUMPDEST PUSH1 0x60 DUP1 PUSH1 0x0 PUSH1 0x78 DUP1 SLOAD SWAP1 POP PUSH8 0xFFFFFFFFFFFFFFFF DUP2 GT ISZERO PUSH2 0xF35 JUMPI PUSH4 0x4E487B71 PUSH1 0xE0 SHL PUSH1 0x0 MSTORE PUSH1 0x41 PUSH1 0x4 MSTORE PUSH1 0x24 PUSH1 0x0 REVERT JUMPDEST PUSH1 0x40 MLOAD SWAP1 DUP1 DUP3 MSTORE DUP1 PUSH1 0x20 MUL PUSH1 0x20 ADD DUP3 ADD PUSH1 0x40 MSTORE DUP1 ISZERO PUSH2 0xF5E JUMPI DUP2 PUSH1 0x20 ADD PUSH1 0x20 DUP3 MUL DUP1 CALLDATASIZE DUP4 CALLDATACOPY ADD SWAP1 POP JUMPDEST POP PUSH1 0x78 SLOAD SWAP1 SWAP2 POP PUSH1 0x0 SWAP1 PUSH8 0xFFFFFFFFFFFFFFFF DUP2 GT ISZERO PUSH2 0xF8E JUMPI PUSH4 0x4E487B71 PUSH1 0xE0 SHL PUSH1 0x0 MSTORE PUSH1 0x41 PUSH1 0x4 MSTORE PUSH1 0x24 PUSH1 0x0 REVERT JUMPDEST PUSH1 0x40 MLOAD SWAP1 DUP1 DUP3 MSTORE DUP1 PUSH1 0x20 MUL PUSH1 0x20 ADD DUP3 ADD PUSH1 0x40 MSTORE DUP1 ISZERO PUSH2 0xFB7 JUMPI DUP2 PUSH1 0x20 ADD PUSH1 0x20 DUP3 MUL DUP1 CALLDATASIZE DUP4 CALLDATACOPY ADD SWAP1 POP JUMPDEST POP SWAP1 POP PUSH1 0x0 JUMPDEST PUSH1 0x78 SLOAD DUP2 LT ISZERO PUSH2 0x10B7 JUMPI PUSH1 0x78 DUP2 DUP2 SLOAD DUP2 LT PUSH2 0xFE8 JUMPI PUSH4 0x4E487B71 PUSH1 0xE0 SHL PUSH1 0x0 MSTORE PUSH1 0x32 PUSH1 0x4 MSTORE PUSH1 0x24 PUSH1 0x0 REVERT JUMPDEST PUSH1 0x0 SWAP2 DUP3 MSTORE PUSH1 0x20 SWAP1 SWAP2 KECCAK256 PUSH1 0x2 SWAP1 SWAP2 MUL ADD SLOAD DUP4 MLOAD PUSH1 0x1 PUSH1 0x1 PUSH1 0xA0 SHL SUB SWAP1 SWAP2 AND SWAP1 DUP5 SWAP1 DUP4 SWAP1 DUP2 LT PUSH2 0x1027 JUMPI PUSH4 0x4E487B71 PUSH1 0xE0 SHL PUSH1 0x0 MSTORE PUSH1 0x32 PUSH1 0x4 MSTORE PUSH1 0x24 PUSH1 0x0 REVERT JUMPDEST PUSH1 0x20 MUL PUSH1 0x20 ADD ADD SWAP1 PUSH1 0x1 PUSH1 0x1 PUSH1 0xA0 SHL SUB AND SWAP1 DUP2 PUSH1 0x1 PUSH1 0x1 PUSH1 0xA0 SHL SUB AND DUP2 MSTORE POP POP PUSH1 0x78 DUP2 DUP2 SLOAD DUP2 LT PUSH2 0x1068 JUMPI PUSH4 0x4E487B71 PUSH1 0xE0 SHL PUSH1 0x0 MSTORE PUSH1 0x32 PUSH1 0x4 MSTORE PUSH1 0x24 PUSH1 0x0 REVERT JUMPDEST SWAP1 PUSH1 0x0 MSTORE PUSH1 0x20 PUSH1 0x0 KECCAK256 SWAP1 PUSH1 0x2 MUL ADD PUSH1 0x1 ADD SLOAD DUP3 DUP3 DUP2 MLOAD DUP2 LT PUSH2 0x109A JUMPI PUSH4 0x4E487B71 PUSH1 0xE0 SHL PUSH1 0x0 MSTORE PUSH1 0x32 PUSH1 0x4 MSTORE PUSH1 0x24 PUSH1 0x0 REVERT JUMPDEST PUSH1 0x20 SWAP1 DUP2 MUL SWAP2 SWAP1 SWAP2 ADD ADD MSTORE DUP1 PUSH2 0x10AF DUP2 PUSH2 0x51C9 JUMP JUMPDEST SWAP2 POP POP PUSH2 0xFBD JUMP JUMPDEST POP SWAP1 SWAP3 POP SWAP1 POP SWAP1 SWAP2 JUMP JUMPDEST PUSH1 0x6B SLOAD PUSH1 0x1 PUSH1 0x1 PUSH1 0xA0 SHL SUB AND PUSH2 0x10D5 PUSH2 0x3F88 JUMP JUMPDEST PUSH1 0x1 PUSH1 0x1 PUSH1 0xA0 SHL SUB AND EQ PUSH2 0x10FB JUMPI PUSH1 0x40 MLOAD PUSH3 0x461BCD PUSH1 0xE5 SHL DUP2 MSTORE PUSH1 0x4 ADD PUSH2 0x9D5 SWAP1 PUSH2 0x4DF5 JUMP JUMPDEST PUSH1 0x79 SLOAD ISZERO PUSH2 0x110F JUMPI PUSH2 0x110F PUSH1 0x79 PUSH1 0x0 PUSH2 0x439F JUMP JUMPDEST PUSH1 0x0 JUMPDEST PUSH1 0x19 DUP2 LT ISZERO PUSH2 0x122E JUMPI PUSH1 0x0 DUP4 DUP3 PUSH1 0x19 DUP2 LT PUSH2 0x113D JUMPI PUSH4 0x4E487B71 PUSH1 0xE0 SHL PUSH1 0x0 MSTORE PUSH1 0x32 PUSH1 0x4 MSTORE PUSH1 0x24 PUSH1 0x0 REVERT JUMPDEST PUSH1 0x20 MUL ADD PUSH1 0x20 DUP2 ADD SWAP1 PUSH2 0x1150 SWAP2 SWAP1 PUSH2 0x4453 JUMP JUMPDEST PUSH1 0x1 PUSH1 0x1 PUSH1 0xA0 SHL SUB AND EQ ISZERO PUSH2 0x1164 JUMPI PUSH2 0x122E JUMP JUMPDEST PUSH1 0x79 PUSH1 0x40 MLOAD DUP1 PUSH1 0x40 ADD PUSH1 0x40 MSTORE DUP1 DUP6 DUP5 PUSH1 0x19 DUP2 LT PUSH2 0x1191 JUMPI PUSH4 0x4E487B71 PUSH1 0xE0 SHL PUSH1 0x0 MSTORE PUSH1 0x32 PUSH1 0x4 MSTORE PUSH1 0x24 PUSH1 0x0 REVERT JUMPDEST PUSH1 0x20 MUL ADD PUSH1 0x20 DUP2 ADD SWAP1 PUSH2 0x11A4 SWAP2 SWAP1 PUSH2 0x4453 JUMP JUMPDEST PUSH1 0x1 PUSH1 0x1 PUSH1 0xA0 SHL SUB AND DUP2 MSTORE PUSH1 0x20 ADD DUP5 DUP5 PUSH1 0x19 DUP2 LT PUSH2 0x11D2 JUMPI PUSH4 0x4E487B71 PUSH1 0xE0 SHL PUSH1 0x0 MSTORE PUSH1 0x32 PUSH1 0x4 MSTORE PUSH1 0x24 PUSH1 0x0 REVERT JUMPDEST PUSH1 0x20 SWAP1 DUP2 MUL SWAP2 SWAP1 SWAP2 ADD CALLDATALOAD SWAP1 SWAP2 MSTORE DUP3 SLOAD PUSH1 0x1 DUP1 DUP3 ADD DUP6 SSTORE PUSH1 0x0 SWAP5 DUP6 MSTORE SWAP4 DUP3 SWAP1 KECCAK256 DUP4 MLOAD PUSH1 0x2 SWAP1 SWAP3 MUL ADD DUP1 SLOAD PUSH1 0x1 PUSH1 0x1 PUSH1 0xA0 SHL SUB NOT AND PUSH1 0x1 PUSH1 0x1 PUSH1 0xA0 SHL SUB SWAP1 SWAP3 AND SWAP2 SWAP1 SWAP2 OR DUP2 SSTORE SWAP2 ADD MLOAD SWAP2 ADD SSTORE DUP1 PUSH2 0x1226 DUP2 PUSH2 0x51C9 JUMP JUMPDEST SWAP2 POP POP PUSH2 0x1112 JUMP JUMPDEST POP PUSH1 0x40 MLOAD PUSH32 0x5C243CC6E4F210BF2DD86B8ECA0CA891D3F8AD2EB09FBF91735EB348BC199C7E SWAP1 PUSH1 0x0 SWAP1 LOG1 POP POP JUMP JUMPDEST PUSH1 0x1 PUSH1 0x1 PUSH1 0xA0 SHL SUB DUP3 AND PUSH1 0x0 SWAP1 DUP2 MSTORE PUSH1 0x7A PUSH1 0x20 SWAP1 DUP2 MSTORE PUSH1 0x40 DUP1 DUP4 KECCAK256 DUP1 SLOAD DUP3 MLOAD DUP2 DUP6 MUL DUP2 ADD DUP6 ADD SWAP1 SWAP4 MSTORE DUP1 DUP4 MSTORE DUP5 SWAP4 DUP5 SWAP1 DUP5 ADD JUMPDEST DUP3 DUP3 LT ISZERO PUSH2 0x1321 JUMPI PUSH1 0x0 DUP5 DUP2 MSTORE PUSH1 0x20 SWAP1 DUP2 SWAP1 KECCAK256 PUSH1 0x40 DUP1 MLOAD PUSH2 0x120 DUP2 ADD DUP3 MSTORE PUSH1 0x8 DUP7 MUL SWAP1 SWAP3 ADD DUP1 SLOAD DUP4 MSTORE PUSH1 0x1 DUP1 DUP3 ADD SLOAD DUP5 DUP7 ADD MSTORE PUSH1 0x2 DUP3 ADD SLOAD SWAP3 DUP5 ADD SWAP3 SWAP1 SWAP3 MSTORE PUSH1 0x3 DUP2 ADD SLOAD PUSH1 0x60 DUP5 ADD MSTORE PUSH1 0x4 DUP2 ADD SLOAD PUSH1 0x80 DUP5 ADD MSTORE PUSH1 0x5 DUP2 ADD SLOAD PUSH1 0xA0 DUP5 ADD MSTORE PUSH1 0x6 DUP2 ADD SLOAD PUSH1 0xC0 DUP5 ADD MSTORE PUSH1 0x7 ADD SLOAD PUSH1 0xFF DUP1 DUP3 AND ISZERO ISZERO PUSH1 0xE0 DUP6 ADD MSTORE PUSH2 0x100 SWAP2 DUP3 SWAP1 DIV AND ISZERO ISZERO SWAP1 DUP4 ADD MSTORE SWAP1 DUP4 MSTORE SWAP1 SWAP3 ADD SWAP2 ADD PUSH2 0x128F JUMP JUMPDEST POP POP POP POP SWAP1 POP PUSH1 0x0 DUP2 MLOAD GT PUSH2 0x1348 JUMPI PUSH1 0x40 MLOAD PUSH3 0x461BCD PUSH1 0xE5 SHL DUP2 MSTORE PUSH1 0x4 ADD PUSH2 0x9D5 SWAP1 PUSH2 0x4E6B JUMP JUMPDEST DUP1 MLOAD DUP4 LT PUSH2 0x1368 JUMPI PUSH1 0x40 MLOAD PUSH3 0x461BCD PUSH1 0xE5 SHL DUP2 MSTORE PUSH1 0x4 ADD PUSH2 0x9D5 SWAP1 PUSH2 0x49B4 JUMP JUMPDEST DUP1 DUP4 DUP2 MLOAD DUP2 LT PUSH2 0x1388 JUMPI PUSH4 0x4E487B71 PUSH1 0xE0 SHL PUSH1 0x0 MSTORE PUSH1 0x32 PUSH1 0x4 MSTORE PUSH1 0x24 PUSH1 0x0 REVERT JUMPDEST PUSH1 0x20 MUL PUSH1 0x20 ADD ADD MLOAD PUSH2 0x100 ADD MLOAD ISZERO PUSH2 0x13A4 JUMPI PUSH1 0x1 SWAP2 POP POP PUSH2 0x8F8 JUMP JUMPDEST POP PUSH1 0x0 SWAP4 SWAP3 POP POP POP JUMP JUMPDEST PUSH1 0x8F SLOAD PUSH2 0x100 SWAP1 DIV PUSH1 0xFF AND DUP2 JUMP JUMPDEST PUSH1 0x0 DUP3 DUP3 GT ISZERO PUSH2 0x13CE JUMPI POP PUSH1 0x0 PUSH2 0x8F8 JUMP JUMPDEST PUSH1 0x8A SLOAD DUP4 GT ISZERO PUSH2 0x1410 JUMPI PUSH1 0x8A SLOAD PUSH2 0x13E5 DUP5 DUP5 PUSH2 0x3FCA JUMP JUMPDEST GT PUSH2 0x13F2 JUMPI POP PUSH1 0x0 PUSH2 0x8F8 JUMP JUMPDEST PUSH1 0x8A SLOAD PUSH2 0x1409 SWAP1 PUSH2 0x1403 DUP6 DUP6 PUSH2 0x3FCA JUMP JUMPDEST SWAP1 PUSH2 0x3FCA JUMP JUMPDEST SWAP1 POP PUSH2 0x8F8 JUMP JUMPDEST PUSH1 0x8A SLOAD PUSH2 0x141D DUP5 DUP5 PUSH2 0x3FE8 JUMP JUMPDEST LT PUSH2 0x142A JUMPI POP PUSH1 0x0 PUSH2 0x8F8 JUMP JUMPDEST PUSH2 0x1409 PUSH2 0x1437 DUP5 DUP5 PUSH2 0x3FE8 JUMP JUMPDEST PUSH1 0x8A SLOAD SWAP1 PUSH2 0x3FCA JUMP JUMPDEST PUSH1 0x6B SLOAD PUSH1 0x1 PUSH1 0x1 PUSH1 0xA0 SHL SUB AND PUSH2 0x1454 PUSH2 0x3F88 JUMP JUMPDEST PUSH1 0x1 PUSH1 0x1 PUSH1 0xA0 SHL SUB AND EQ PUSH2 0x147A JUMPI PUSH1 0x40 MLOAD PUSH3 0x461BCD PUSH1 0xE5 SHL DUP2 MSTORE PUSH1 0x4 ADD PUSH2 0x9D5 SWAP1 PUSH2 0x4DF5 JUMP JUMPDEST PUSH1 0x0 PUSH1 0x86 SLOAD GT PUSH2 0x149C JUMPI PUSH1 0x40 MLOAD PUSH3 0x461BCD PUSH1 0xE5 SHL DUP2 MSTORE PUSH1 0x4 ADD PUSH2 0x9D5 SWAP1 PUSH2 0x4AAC JUMP JUMPDEST PUSH1 0x0 DUP3 GT PUSH2 0x14BC JUMPI PUSH1 0x40 MLOAD PUSH3 0x461BCD PUSH1 0xE5 SHL DUP2 MSTORE PUSH1 0x4 ADD PUSH2 0x9D5 SWAP1 PUSH2 0x4D41 JUMP JUMPDEST TIMESTAMP DUP2 LT ISZERO PUSH2 0x14DC JUMPI PUSH1 0x40 MLOAD PUSH3 0x461BCD PUSH1 0xE5 SHL DUP2 MSTORE PUSH1 0x4 ADD PUSH2 0x9D5 SWAP1 PUSH2 0x4BB1 JUMP JUMPDEST PUSH1 0x0 PUSH2 0x14E6 PUSH2 0x1677 JUMP JUMPDEST SWAP1 POP PUSH2 0x14F2 DUP2 DUP5 PUSH2 0x3FF4 JUMP JUMPDEST PUSH1 0x0 PUSH2 0x14FD DUP5 PUSH2 0xDFE JUMP JUMPDEST SWAP1 POP PUSH1 0x0 PUSH2 0x1517 PUSH2 0x1510 DUP4 PUSH2 0x12C PUSH2 0x3FD6 JUMP JUMPDEST DUP4 SWAP1 PUSH2 0x3FCA JUMP JUMPDEST SWAP1 POP PUSH2 0x1525 ADDRESS DUP7 DUP4 DUP8 PUSH2 0x40BE JUMP JUMPDEST POP POP POP POP POP JUMP JUMPDEST PUSH1 0x82 SLOAD DUP2 JUMP JUMPDEST PUSH1 0x83 SLOAD DUP2 JUMP JUMPDEST PUSH1 0x6B SLOAD PUSH1 0x1 PUSH1 0x1 PUSH1 0xA0 SHL SUB AND PUSH2 0x154C PUSH2 0x3F88 JUMP JUMPDEST PUSH1 0x1 PUSH1 0x1 PUSH1 0xA0 SHL SUB AND EQ PUSH2 0x1572 JUMPI PUSH1 0x40 MLOAD PUSH3 0x461BCD PUSH1 0xE5 SHL DUP2 MSTORE PUSH1 0x4 ADD PUSH2 0x9D5 SWAP1 PUSH2 0x4DF5 JUMP JUMPDEST PUSH1 0x7B SLOAD PUSH1 0x1 PUSH1 0x1 PUSH1 0xA0 SHL SUB DUP5 DUP2 AND SWAP2 AND EQ ISZERO PUSH2 0x15A0 JUMPI PUSH1 0x40 MLOAD PUSH3 0x461BCD PUSH1 0xE5 SHL DUP2 MSTORE PUSH1 0x4 ADD PUSH2 0x9D5 SWAP1 PUSH2 0x4D00 JUMP JUMPDEST PUSH1 0x40 MLOAD PUSH4 0xA9059CBB PUSH1 0xE0 SHL DUP2 MSTORE DUP4 SWAP1 PUSH1 0x1 PUSH1 0x1 PUSH1 0xA0 SHL SUB DUP3 AND SWAP1 PUSH4 0xA9059CBB SWAP1 PUSH2 0x15D0 SWAP1 DUP6 SWAP1 DUP8 SWAP1 PUSH1 0x4 ADD PUSH2 0x485A JUMP JUMPDEST PUSH1 0x20 PUSH1 0x40 MLOAD DUP1 DUP4 SUB DUP2 PUSH1 0x0 DUP8 DUP1 EXTCODESIZE ISZERO DUP1 ISZERO PUSH2 0x15EA JUMPI PUSH1 0x0 DUP1 REVERT JUMPDEST POP GAS CALL ISZERO DUP1 ISZERO PUSH2 0x15FE JUMPI RETURNDATASIZE PUSH1 0x0 DUP1 RETURNDATACOPY RETURNDATASIZE PUSH1 0x0 REVERT JUMPDEST POP POP POP POP PUSH1 0x40 MLOAD RETURNDATASIZE PUSH1 0x1F NOT PUSH1 0x1F DUP3 ADD AND DUP3 ADD DUP1 PUSH1 0x40 MSTORE POP DUP2 ADD SWAP1 PUSH2 0x1525 SWAP2 SWAP1 PUSH2 0x46AB JUMP JUMPDEST PUSH1 0x87 SLOAD DUP2 JUMP JUMPDEST PUSH1 0x88 SLOAD DUP2 JUMP JUMPDEST PUSH2 0x1636 PUSH2 0x3F88 JUMP JUMPDEST PUSH1 0x1 PUSH1 0x1 PUSH1 0xA0 SHL SUB AND PUSH2 0x1647 PUSH2 0x1F19 JUMP JUMPDEST PUSH1 0x1 PUSH1 0x1 PUSH1 0xA0 SHL SUB AND EQ PUSH2 0x166D JUMPI PUSH1 0x40 MLOAD PUSH3 0x461BCD PUSH1 0xE5 SHL DUP2 MSTORE PUSH1 0x4 ADD PUSH2 0x9D5 SWAP1 PUSH2 0x4E36 JUMP JUMPDEST PUSH2 0xD0A PUSH1 0x0 PUSH2 0x4164 JUMP JUMPDEST PUSH1 0x67 SLOAD PUSH1 0x1 PUSH1 0x1 PUSH1 0xA0 SHL SUB AND JUMPDEST SWAP1 JUMP JUMPDEST PUSH1 0x86 SLOAD DUP2 JUMP JUMPDEST PUSH1 0x85 SLOAD DUP2 JUMP JUMPDEST PUSH1 0x1 PUSH1 0x1 PUSH1 0xA0 SHL SUB DUP2 AND PUSH1 0x0 SWAP1 DUP2 MSTORE PUSH1 0x7A PUSH1 0x20 MSTORE PUSH1 0x40 DUP1 DUP3 KECCAK256 SWAP1 MLOAD PUSH4 0xD467577 PUSH1 0xE4 SHL DUP2 MSTORE DUP3 SWAP2 PUSH20 0x0 SWAP2 PUSH4 0xD4675770 SWAP2 PUSH2 0x16E5 SWAP2 PUSH1 0x6D SWAP1 PUSH1 0x4 ADD PUSH2 0x48E5 JUMP JUMPDEST PUSH1 0x20 PUSH1 0x40 MLOAD DUP1 DUP4 SUB DUP2 DUP7 DUP1 EXTCODESIZE ISZERO DUP1 ISZERO PUSH2 0x16FD JUMPI PUSH1 0x0 DUP1 REVERT JUMPDEST POP GAS DELEGATECALL ISZERO DUP1 ISZERO PUSH2 0x1711 JUMPI RETURNDATASIZE PUSH1 0x0 DUP1 RETURNDATACOPY RETURNDATASIZE PUSH1 0x0 REVERT JUMPDEST POP POP POP POP PUSH1 0x40 MLOAD RETURNDATASIZE PUSH1 0x1F NOT PUSH1 0x1F DUP3 ADD AND DUP3 ADD DUP1 PUSH1 0x40 MSTORE POP DUP2 ADD SWAP1 PUSH2 0x1735 SWAP2 SWAP1 PUSH2 0x46DF JUMP JUMPDEST SWAP4 SWAP3 POP POP POP JUMP JUMPDEST PUSH1 0x8F SLOAD PUSH3 0x10000 SWAP1 DIV PUSH1 0xFF AND DUP1 ISZERO PUSH2 0x1755 JUMPI POP PUSH1 0x80 SLOAD TIMESTAMP GT JUMPDEST PUSH2 0x1771 JUMPI PUSH1 0x40 MLOAD PUSH3 0x461BCD PUSH1 0xE5 SHL DUP2 MSTORE PUSH1 0x4 ADD PUSH2 0x9D5 SWAP1 PUSH2 0x4EB6 JUMP JUMPDEST PUSH1 0x81 SLOAD PUSH1 0x80 SLOAD PUSH2 0x1781 SWAP2 SWAP1 PUSH2 0x5120 JUMP JUMPDEST TIMESTAMP LT PUSH2 0x179F JUMPI PUSH1 0x40 MLOAD PUSH3 0x461BCD PUSH1 0xE5 SHL DUP2 MSTORE PUSH1 0x4 ADD PUSH2 0x9D5 SWAP1 PUSH2 0x4A18 JUMP JUMPDEST PUSH1 0x8F SLOAD PUSH4 0x1000000 SWAP1 DIV PUSH1 0xFF AND ISZERO PUSH2 0x17C9 JUMPI PUSH1 0x40 MLOAD PUSH3 0x461BCD PUSH1 0xE5 SHL DUP2 MSTORE PUSH1 0x4 ADD PUSH2 0x9D5 SWAP1 PUSH2 0x49EB JUMP JUMPDEST PUSH1 0x88 SLOAD DUP3 LT ISZERO PUSH2 0x17EB JUMPI PUSH1 0x40 MLOAD PUSH3 0x461BCD PUSH1 0xE5 SHL DUP2 MSTORE PUSH1 0x4 ADD PUSH2 0x9D5 SWAP1 PUSH2 0x4EED JUMP JUMPDEST PUSH1 0x0 PUSH2 0x180E PUSH1 0x64 PUSH2 0x1808 PUSH1 0x5 PUSH1 0x83 SLOAD PUSH2 0x41B6 SWAP1 SWAP2 SWAP1 PUSH4 0xFFFFFFFF AND JUMP JUMPDEST SWAP1 PUSH2 0x41C2 JUMP JUMPDEST SWAP1 POP PUSH1 0x0 PUSH1 0x7B PUSH1 0x0 SWAP1 SLOAD SWAP1 PUSH2 0x100 EXP SWAP1 DIV PUSH1 0x1 PUSH1 0x1 PUSH1 0xA0 SHL SUB AND PUSH1 0x1 PUSH1 0x1 PUSH1 0xA0 SHL SUB AND PUSH4 0x771A3A1D PUSH1 0x40 MLOAD DUP2 PUSH4 0xFFFFFFFF AND PUSH1 0xE0 SHL DUP2 MSTORE PUSH1 0x4 ADD PUSH1 0x20 PUSH1 0x40 MLOAD DUP1 DUP4 SUB DUP2 PUSH1 0x0 DUP8 DUP1 EXTCODESIZE ISZERO DUP1 ISZERO PUSH2 0x1862 JUMPI PUSH1 0x0 DUP1 REVERT JUMPDEST POP GAS CALL ISZERO DUP1 ISZERO PUSH2 0x1876 JUMPI RETURNDATASIZE PUSH1 0x0 DUP1 RETURNDATACOPY RETURNDATASIZE PUSH1 0x0 REVERT JUMPDEST POP POP POP POP PUSH1 0x40 MLOAD RETURNDATASIZE PUSH1 0x1F NOT PUSH1 0x1F DUP3 ADD AND DUP3 ADD DUP1 PUSH1 0x40 MSTORE POP DUP2 ADD SWAP1 PUSH2 0x189A SWAP2 SWAP1 PUSH2 0x46DF JUMP JUMPDEST PUSH1 0x7B SLOAD SWAP1 SWAP2 POP PUSH1 0x0 SWAP1 PUSH1 0x1 PUSH1 0x1 PUSH1 0xA0 SHL SUB AND PUSH4 0xD1ECFC68 PUSH2 0x18B9 PUSH2 0x3F88 JUMP JUMPDEST PUSH1 0x40 MLOAD DUP3 PUSH4 0xFFFFFFFF AND PUSH1 0xE0 SHL DUP2 MSTORE PUSH1 0x4 ADD PUSH2 0x18D5 SWAP2 SWAP1 PUSH2 0x4822 JUMP JUMPDEST PUSH1 0x20 PUSH1 0x40 MLOAD DUP1 DUP4 SUB DUP2 PUSH1 0x0 DUP8 DUP1 EXTCODESIZE ISZERO DUP1 ISZERO PUSH2 0x18EF JUMPI PUSH1 0x0 DUP1 REVERT JUMPDEST POP GAS CALL ISZERO DUP1 ISZERO PUSH2 0x1903 JUMPI RETURNDATASIZE PUSH1 0x0 DUP1 RETURNDATACOPY RETURNDATASIZE PUSH1 0x0 REVERT JUMPDEST POP POP POP POP PUSH1 0x40 MLOAD RETURNDATASIZE PUSH1 0x1F NOT PUSH1 0x1F DUP3 ADD AND DUP3 ADD DUP1 PUSH1 0x40 MSTORE POP DUP2 ADD SWAP1 PUSH2 0x1927 SWAP2 SWAP1 PUSH2 0x46AB JUMP JUMPDEST PUSH2 0x193A JUMPI PUSH2 0x1935 DUP6 DUP4 PUSH2 0x3FD6 JUMP JUMPDEST PUSH2 0x193D JUMP JUMPDEST PUSH1 0x0 JUMPDEST PUSH1 0x83 SLOAD SWAP1 SWAP2 POP PUSH2 0x194D SWAP1 DUP5 PUSH2 0x3FE8 JUMP JUMPDEST PUSH2 0x1966 DUP3 PUSH2 0x1403 DUP9 PUSH1 0x89 SLOAD PUSH2 0x3FE8 SWAP1 SWAP2 SWAP1 PUSH4 0xFFFFFFFF AND JUMP JUMPDEST GT ISZERO PUSH2 0x1984 JUMPI PUSH1 0x40 MLOAD PUSH3 0x461BCD PUSH1 0xE5 SHL DUP2 MSTORE PUSH1 0x4 ADD PUSH2 0x9D5 SWAP1 PUSH2 0x4CBA JUMP JUMPDEST PUSH1 0x0 PUSH2 0x1990 DUP7 DUP5 PUSH2 0xD9D JUMP JUMPDEST PUSH1 0x7B SLOAD SWAP1 SWAP8 POP SWAP1 SWAP2 POP PUSH1 0x1 PUSH1 0x1 PUSH1 0xA0 SHL SUB AND PUSH4 0x23B872DD PUSH2 0x19AF PUSH2 0x3F88 JUMP JUMPDEST ADDRESS PUSH2 0x19BA DUP6 DUP12 PUSH2 0x5120 JUMP JUMPDEST PUSH1 0x40 MLOAD DUP5 PUSH4 0xFFFFFFFF AND PUSH1 0xE0 SHL DUP2 MSTORE PUSH1 0x4 ADD PUSH2 0x19D8 SWAP4 SWAP3 SWAP2 SWAP1 PUSH2 0x4836 JUMP JUMPDEST PUSH1 0x20 PUSH1 0x40 MLOAD DUP1 DUP4 SUB DUP2 PUSH1 0x0 DUP8 DUP1 EXTCODESIZE ISZERO DUP1 ISZERO PUSH2 0x19F2 JUMPI PUSH1 0x0 DUP1 REVERT JUMPDEST POP GAS CALL ISZERO DUP1 ISZERO PUSH2 0x1A06 JUMPI RETURNDATASIZE PUSH1 0x0 DUP1 RETURNDATACOPY RETURNDATASIZE PUSH1 0x0 REVERT JUMPDEST POP POP POP POP PUSH1 0x40 MLOAD RETURNDATASIZE PUSH1 0x1F NOT PUSH1 0x1F DUP3 ADD AND DUP3 ADD DUP1 PUSH1 0x40 MSTORE POP DUP2 ADD SWAP1 PUSH2 0x1A2A SWAP2 SWAP1 PUSH2 0x46AB JUMP JUMPDEST POP PUSH2 0x1A35 DUP7 DUP4 PUSH2 0x3FCA JUMP JUMPDEST SWAP6 POP DUP1 ISZERO PUSH2 0x1B36 JUMPI PUSH1 0x7B SLOAD PUSH1 0x40 DUP1 MLOAD PUSH4 0x4A5DB0A9 PUSH1 0xE0 SHL DUP2 MSTORE SWAP1 MLOAD PUSH1 0x1 PUSH1 0x1 PUSH1 0xA0 SHL SUB SWAP1 SWAP3 AND SWAP2 PUSH4 0xA9059CBB SWAP2 DUP4 SWAP2 PUSH4 0x4A5DB0A9 SWAP2 PUSH1 0x4 DUP1 DUP3 ADD SWAP3 PUSH1 0x20 SWAP3 SWAP1 SWAP2 SWAP1 DUP3 SWAP1 SUB ADD DUP2 PUSH1 0x0 DUP8 DUP1 EXTCODESIZE ISZERO DUP1 ISZERO PUSH2 0x1A8C JUMPI PUSH1 0x0 DUP1 REVERT JUMPDEST POP GAS CALL ISZERO DUP1 ISZERO PUSH2 0x1AA0 JUMPI RETURNDATASIZE PUSH1 0x0 DUP1 RETURNDATACOPY RETURNDATASIZE PUSH1 0x0 REVERT JUMPDEST POP POP POP POP PUSH1 0x40 MLOAD RETURNDATASIZE PUSH1 0x1F NOT PUSH1 0x1F DUP3 ADD AND DUP3 ADD DUP1 PUSH1 0x40 MSTORE POP DUP2 ADD SWAP1 PUSH2 0x1AC4 SWAP2 SWAP1 PUSH2 0x446F JUMP JUMPDEST DUP4 PUSH1 0x40 MLOAD DUP4 PUSH4 0xFFFFFFFF AND PUSH1 0xE0 SHL DUP2 MSTORE PUSH1 0x4 ADD PUSH2 0x1AE2 SWAP3 SWAP2 SWAP1 PUSH2 0x485A JUMP JUMPDEST PUSH1 0x20 PUSH1 0x40 MLOAD DUP1 DUP4 SUB DUP2 PUSH1 0x0 DUP8 DUP1 EXTCODESIZE ISZERO DUP1 ISZERO PUSH2 0x1AFC JUMPI PUSH1 0x0 DUP1 REVERT JUMPDEST POP GAS CALL ISZERO DUP1 ISZERO PUSH2 0x1B10 JUMPI RETURNDATASIZE PUSH1 0x0 DUP1 RETURNDATACOPY RETURNDATASIZE PUSH1 0x0 REVERT JUMPDEST POP POP POP POP PUSH1 0x40 MLOAD RETURNDATASIZE PUSH1 0x1F NOT PUSH1 0x1F DUP3 ADD AND DUP3 ADD DUP1 PUSH1 0x40 MSTORE POP DUP2 ADD SWAP1 PUSH2 0x1B34 SWAP2 SWAP1 PUSH2 0x46AB JUMP JUMPDEST POP JUMPDEST PUSH1 0x89 SLOAD PUSH2 0x1B43 SWAP1 DUP8 PUSH2 0x3FE8 JUMP JUMPDEST PUSH1 0x89 SSTORE PUSH2 0x1B58 PUSH2 0x1B51 PUSH2 0x3F88 JUMP JUMPDEST DUP8 DUP8 PUSH2 0x41CE JUMP JUMPDEST PUSH1 0x83 SLOAD PUSH1 0x89 SLOAD LT PUSH2 0x1B6B JUMPI PUSH2 0x1B6B PUSH2 0x3F8C JUMP JUMPDEST PUSH2 0x1B73 PUSH2 0x3F88 JUMP JUMPDEST PUSH1 0x1 PUSH1 0x1 PUSH1 0xA0 SHL SUB AND PUSH32 0x5AF417134F72A9D41143ACE85B0A26DCE6F550F894F2CBC1EEEE8810603D91B6 DUP8 DUP8 PUSH1 0x40 MLOAD PUSH2 0x1BAD SWAP3 SWAP2 SWAP1 PUSH2 0x48E5 JUMP JUMPDEST PUSH1 0x40 MLOAD DUP1 SWAP2 SUB SWAP1 LOG2 POP POP POP POP POP POP JUMP JUMPDEST PUSH1 0x8F SLOAD PUSH5 0x100000000 SWAP1 DIV PUSH1 0xFF AND DUP2 JUMP JUMPDEST PUSH1 0x89 SLOAD DUP2 JUMP JUMPDEST PUSH1 0x7A PUSH1 0x20 MSTORE DUP2 PUSH1 0x0 MSTORE PUSH1 0x40 PUSH1 0x0 KECCAK256 DUP2 DUP2 SLOAD DUP2 LT PUSH2 0x1BF0 JUMPI PUSH1 0x0 DUP1 REVERT JUMPDEST PUSH1 0x0 SWAP2 DUP3 MSTORE PUSH1 0x20 SWAP1 SWAP2 KECCAK256 PUSH1 0x8 SWAP1 SWAP2 MUL ADD DUP1 SLOAD PUSH1 0x1 DUP3 ADD SLOAD PUSH1 0x2 DUP4 ADD SLOAD PUSH1 0x3 DUP5 ADD SLOAD PUSH1 0x4 DUP6 ADD SLOAD PUSH1 0x5 DUP7 ADD SLOAD PUSH1 0x6 DUP8 ADD SLOAD PUSH1 0x7 SWAP1 SWAP8 ADD SLOAD SWAP6 SWAP9 POP SWAP4 SWAP7 POP SWAP2 SWAP5 SWAP1 SWAP4 SWAP2 SWAP3 SWAP2 PUSH1 0xFF DUP1 DUP3 AND SWAP2 PUSH2 0x100 SWAP1 DIV AND DUP10 JUMP JUMPDEST PUSH1 0x8F SLOAD PUSH1 0xFF AND PUSH2 0x1C64 JUMPI PUSH1 0x40 MLOAD PUSH3 0x461BCD PUSH1 0xE5 SHL DUP2 MSTORE PUSH1 0x4 ADD PUSH2 0x9D5 SWAP1 PUSH2 0x4D78 JUMP JUMPDEST PUSH1 0x0 PUSH20 0x0 PUSH4 0x66F1DEE PUSH1 0x7A PUSH1 0x0 PUSH2 0x1C8C PUSH2 0x3F88 JUMP JUMPDEST PUSH1 0x1 PUSH1 0x1 PUSH1 0xA0 SHL SUB AND PUSH1 0x1 PUSH1 0x1 PUSH1 0xA0 SHL SUB AND DUP2 MSTORE PUSH1 0x20 ADD SWAP1 DUP2 MSTORE PUSH1 0x20 ADD PUSH1 0x0 KECCAK256 PUSH1 0x40 MLOAD DUP3 PUSH4 0xFFFFFFFF AND PUSH1 0xE0 SHL DUP2 MSTORE PUSH1 0x4 ADD PUSH2 0x1CC8 SWAP2 SWAP1 PUSH2 0x48DC JUMP JUMPDEST PUSH1 0x20 PUSH1 0x40 MLOAD DUP1 DUP4 SUB DUP2 DUP7 DUP1 EXTCODESIZE ISZERO DUP1 ISZERO PUSH2 0x1CE0 JUMPI PUSH1 0x0 DUP1 REVERT JUMPDEST POP GAS DELEGATECALL ISZERO DUP1 ISZERO PUSH2 0x1CF4 JUMPI RETURNDATASIZE PUSH1 0x0 DUP1 RETURNDATACOPY RETURNDATASIZE PUSH1 0x0 REVERT JUMPDEST POP POP POP POP PUSH1 0x40 MLOAD RETURNDATASIZE PUSH1 0x1F NOT PUSH1 0x1F DUP3 ADD AND DUP3 ADD DUP1 PUSH1 0x40 MSTORE POP DUP2 ADD SWAP1 PUSH2 0x1D18 SWAP2 SWAP1 PUSH2 0x46DF JUMP JUMPDEST SWAP1 POP DUP1 ISZERO PUSH2 0x1E87 JUMPI PUSH20 0x0 PUSH4 0xF66D9A4D PUSH1 0x7A PUSH1 0x0 PUSH2 0x1D46 PUSH2 0x3F88 JUMP JUMPDEST PUSH1 0x1 PUSH1 0x1 PUSH1 0xA0 SHL SUB AND PUSH1 0x1 PUSH1 0x1 PUSH1 0xA0 SHL SUB AND DUP2 MSTORE PUSH1 0x20 ADD SWAP1 DUP2 MSTORE PUSH1 0x20 ADD PUSH1 0x0 KECCAK256 PUSH1 0x40 MLOAD DUP3 PUSH4 0xFFFFFFFF AND PUSH1 0xE0 SHL DUP2 MSTORE PUSH1 0x4 ADD PUSH2 0x1D82 SWAP2 SWAP1 PUSH2 0x48DC JUMP JUMPDEST PUSH1 0x0 PUSH1 0x40 MLOAD DUP1 DUP4 SUB DUP2 DUP7 DUP1 EXTCODESIZE ISZERO DUP1 ISZERO PUSH2 0x1D9A JUMPI PUSH1 0x0 DUP1 REVERT JUMPDEST POP GAS DELEGATECALL ISZERO DUP1 ISZERO PUSH2 0x1DAE JUMPI RETURNDATASIZE PUSH1 0x0 DUP1 RETURNDATACOPY RETURNDATASIZE PUSH1 0x0 REVERT JUMPDEST POP POP PUSH1 0x7B SLOAD PUSH1 0x1 PUSH1 0x1 PUSH1 0xA0 SHL SUB AND SWAP2 POP PUSH4 0xA9059CBB SWAP1 POP PUSH2 0x1DCD PUSH2 0x3F88 JUMP JUMPDEST DUP4 PUSH1 0x40 MLOAD DUP4 PUSH4 0xFFFFFFFF AND PUSH1 0xE0 SHL DUP2 MSTORE PUSH1 0x4 ADD PUSH2 0x1DEB SWAP3 SWAP2 SWAP1 PUSH2 0x485A JUMP JUMPDEST PUSH1 0x20 PUSH1 0x40 MLOAD DUP1 DUP4 SUB DUP2 PUSH1 0x0 DUP8 DUP1 EXTCODESIZE ISZERO DUP1 ISZERO PUSH2 0x1E05 JUMPI PUSH1 0x0 DUP1 REVERT JUMPDEST POP GAS CALL ISZERO DUP1 ISZERO PUSH2 0x1E19 JUMPI RETURNDATASIZE PUSH1 0x0 DUP1 RETURNDATACOPY RETURNDATASIZE PUSH1 0x0 REVERT JUMPDEST POP POP POP POP PUSH1 0x40 MLOAD RETURNDATASIZE PUSH1 0x1F NOT PUSH1 0x1F DUP3 ADD AND DUP3 ADD DUP1 PUSH1 0x40 MSTORE POP DUP2 ADD SWAP1 PUSH2 0x1E3D SWAP2 SWAP1 PUSH2 0x46AB JUMP JUMPDEST POP PUSH2 0x1E46 PUSH2 0x3F88 JUMP JUMPDEST PUSH1 0x1 PUSH1 0x1 PUSH1 0xA0 SHL SUB AND PUSH32 0x85082129D87B2FE11527CB1B3B7A520AEB5AA6913F88A3D8757FE40D1DB02FDD DUP3 PUSH1 0x40 MLOAD PUSH2 0x1E7E SWAP2 SWAP1 PUSH2 0x48DC JUMP JUMPDEST PUSH1 0x40 MLOAD DUP1 SWAP2 SUB SWAP1 LOG2 JUMPDEST POP JUMP JUMPDEST PUSH1 0x6B SLOAD PUSH1 0x1 PUSH1 0x1 PUSH1 0xA0 SHL SUB AND PUSH2 0x1E9E PUSH2 0x3F88 JUMP JUMPDEST PUSH1 0x1 PUSH1 0x1 PUSH1 0xA0 SHL SUB AND EQ PUSH2 0x1EC4 JUMPI PUSH1 0x40 MLOAD PUSH3 0x461BCD PUSH1 0xE5 SHL DUP2 MSTORE PUSH1 0x4 ADD PUSH2 0x9D5 SWAP1 PUSH2 0x4DF5 JUMP JUMPDEST PUSH1 0x8F DUP1 SLOAD PUSH6 0xFF0000000000 NOT AND PUSH6 0x10000000000 OR SWAP1 SSTORE PUSH1 0x40 MLOAD PUSH32 0x9331B2A38C658C57A39EA19B2709D928C28A12CC8FBB838D12B85148550F937D SWAP1 PUSH1 0x0 SWAP1 LOG1 JUMP JUMPDEST PUSH1 0x8F SLOAD PUSH7 0x1000000000000 SWAP1 DIV PUSH1 0xFF AND DUP2 JUMP JUMPDEST PUSH1 0x33 SLOAD PUSH1 0x1 PUSH1 0x1 PUSH1 0xA0 SHL SUB AND SWAP1 JUMP JUMPDEST PUSH1 0x0 DUP1 PUSH1 0x65 PUSH1 0x0 SWAP1 SLOAD SWAP1 PUSH2 0x100 EXP SWAP1 DIV PUSH1 0x1 PUSH1 0x1 PUSH1 0xA0 SHL SUB AND PUSH1 0x1 PUSH1 0x1 PUSH1 0xA0 SHL SUB AND PUSH4 0xFEAF968C PUSH1 0x40 MLOAD DUP2 PUSH4 0xFFFFFFFF AND PUSH1 0xE0 SHL DUP2 MSTORE PUSH1 0x4 ADD PUSH1 0xA0 PUSH1 0x40 MLOAD DUP1 DUP4 SUB DUP2 DUP7 DUP1 EXTCODESIZE ISZERO DUP1 ISZERO PUSH2 0x1F79 JUMPI PUSH1 0x0 DUP1 REVERT JUMPDEST POP GAS STATICCALL ISZERO DUP1 ISZERO PUSH2 0x1F8D JUMPI RETURNDATASIZE PUSH1 0x0 DUP1 RETURNDATACOPY RETURNDATASIZE PUSH1 0x0 REVERT JUMPDEST POP POP POP POP PUSH1 0x40 MLOAD RETURNDATASIZE PUSH1 0x1F NOT PUSH1 0x1F DUP3 ADD AND DUP3 ADD DUP1 PUSH1 0x40 MSTORE POP DUP2 ADD SWAP1 PUSH2 0x1FB1 SWAP2 SWAP1 PUSH2 0x473B JUMP JUMPDEST POP POP POP SWAP2 POP POP PUSH1 0x0 DUP2 SLT ISZERO PUSH2 0x1FC7 JUMPI PUSH1 0x0 PUSH2 0x1FC9 JUMP JUMPDEST DUP1 JUMPDEST SWAP2 POP POP SWAP1 JUMP JUMPDEST PUSH1 0x5 DUP2 JUMP JUMPDEST PUSH1 0x7D SLOAD PUSH1 0x1 PUSH1 0x1 PUSH1 0xA0 SHL SUB AND DUP2 JUMP JUMPDEST PUSH1 0x8F SLOAD PUSH1 0xFF AND DUP2 JUMP JUMPDEST PUSH1 0x6B SLOAD PUSH1 0x1 PUSH1 0x1 PUSH1 0xA0 SHL SUB AND PUSH2 0x2000 PUSH2 0x3F88 JUMP JUMPDEST PUSH1 0x1 PUSH1 0x1 PUSH1 0xA0 SHL SUB AND EQ PUSH2 0x2026 JUMPI PUSH1 0x40 MLOAD PUSH3 0x461BCD PUSH1 0xE5 SHL DUP2 MSTORE PUSH1 0x4 ADD PUSH2 0x9D5 SWAP1 PUSH2 0x4DF5 JUMP JUMPDEST PUSH1 0x8F SLOAD PUSH1 0xFF PUSH3 0x10000 SWAP1 SWAP2 DIV AND ISZERO ISZERO DUP2 ISZERO ISZERO EQ ISZERO PUSH2 0x2056 JUMPI PUSH1 0x40 MLOAD PUSH3 0x461BCD PUSH1 0xE5 SHL DUP2 MSTORE PUSH1 0x4 ADD PUSH2 0x9D5 SWAP1 PUSH2 0x4C34 JUMP JUMPDEST PUSH1 0x8F DUP1 SLOAD PUSH3 0xFF0000 NOT AND PUSH3 0x10000 DUP4 ISZERO ISZERO DUP2 MUL SWAP2 SWAP1 SWAP2 OR SWAP2 DUP3 SWAP1 SSTORE PUSH1 0xFF SWAP2 DIV AND ISZERO PUSH2 0x20A9 JUMPI PUSH1 0x40 MLOAD PUSH32 0x3D31B97EEF590DF350BB2CDBC390034C613C9F23EA6AE1906682628C85248B53 SWAP1 PUSH1 0x0 SWAP1 LOG1 PUSH2 0x1E87 JUMP JUMPDEST PUSH1 0x40 MLOAD PUSH32 0x763D36BFEDF6707954F8BB39C2011A58A47A54844F2B3CDCD326C71CAD0AA753 SWAP1 PUSH1 0x0 SWAP1 LOG1 POP JUMP JUMPDEST PUSH1 0x40 DUP1 MLOAD PUSH1 0x2 DUP1 DUP3 MSTORE PUSH1 0x60 DUP1 DUP4 ADD DUP5 MSTORE SWAP3 PUSH1 0x0 SWAP3 SWAP2 SWAP1 PUSH1 0x20 DUP4 ADD SWAP1 DUP1 CALLDATASIZE DUP4 CALLDATACOPY POP POP PUSH1 0x68 SLOAD DUP3 MLOAD SWAP3 SWAP4 POP PUSH1 0x1 PUSH1 0x1 PUSH1 0xA0 SHL SUB AND SWAP2 DUP4 SWAP2 POP PUSH1 0x0 SWAP1 PUSH2 0x2128 JUMPI PUSH4 0x4E487B71 PUSH1 0xE0 SHL PUSH1 0x0 MSTORE PUSH1 0x32 PUSH1 0x4 MSTORE PUSH1 0x24 PUSH1 0x0 REVERT JUMPDEST PUSH1 0x1 PUSH1 0x1 PUSH1 0xA0 SHL SUB SWAP3 DUP4 AND PUSH1 0x20 SWAP2 DUP3 MUL SWAP3 SWAP1 SWAP3 ADD ADD MSTORE PUSH1 0x69 SLOAD DUP3 MLOAD SWAP2 AND SWAP1 DUP3 SWAP1 PUSH1 0x1 SWAP1 DUP2 LT PUSH2 0x2167 JUMPI PUSH4 0x4E487B71 PUSH1 0xE0 SHL PUSH1 0x0 MSTORE PUSH1 0x32 PUSH1 0x4 MSTORE PUSH1 0x24 PUSH1 0x0 REVERT JUMPDEST PUSH1 0x1 PUSH1 0x1 PUSH1 0xA0 SHL SUB SWAP1 SWAP3 AND PUSH1 0x20 SWAP3 DUP4 MUL SWAP2 SWAP1 SWAP2 ADD SWAP1 SWAP2 ADD MSTORE SWAP1 POP SWAP1 JUMP JUMPDEST PUSH1 0x8F SLOAD PUSH4 0x1000000 SWAP1 DIV PUSH1 0xFF AND DUP2 JUMP JUMPDEST PUSH1 0x6B SLOAD PUSH1 0x1 PUSH1 0x1 PUSH1 0xA0 SHL SUB AND PUSH2 0x21A8 PUSH2 0x3F88 JUMP JUMPDEST PUSH1 0x1 PUSH1 0x1 PUSH1 0xA0 SHL SUB AND EQ PUSH2 0x21CE JUMPI PUSH1 0x40 MLOAD PUSH3 0x461BCD PUSH1 0xE5 SHL DUP2 MSTORE PUSH1 0x4 ADD PUSH2 0x9D5 SWAP1 PUSH2 0x4DF5 JUMP JUMPDEST PUSH1 0x82 SLOAD PUSH1 0x81 SLOAD PUSH1 0x80 SLOAD PUSH2 0x21E1 SWAP2 SWAP1 PUSH2 0x5120 JUMP JUMPDEST PUSH2 0x21EB SWAP2 SWAP1 PUSH2 0x5120 JUMP JUMPDEST TIMESTAMP LT ISZERO PUSH2 0x220A JUMPI PUSH1 0x40 MLOAD PUSH3 0x461BCD PUSH1 0xE5 SHL DUP2 MSTORE PUSH1 0x4 ADD PUSH2 0x9D5 SWAP1 PUSH2 0x4FAC JUMP JUMPDEST PUSH1 0x6C SLOAD PUSH1 0x1 PUSH1 0x1 PUSH1 0xA0 SHL SUB AND PUSH2 0x2229 JUMPI PUSH1 0x8A DUP2 SWAP1 SSTORE PUSH1 0x70 DUP2 SWAP1 SSTORE PUSH2 0x1E87 JUMP JUMPDEST PUSH2 0x2231 PUSH2 0x1F28 JUMP JUMPDEST PUSH1 0x8A DUP2 SWAP1 SSTORE PUSH1 0x70 SSTORE POP JUMP JUMPDEST PUSH1 0x0 SLOAD PUSH2 0x100 SWAP1 DIV PUSH1 0xFF AND DUP1 PUSH2 0x2255 JUMPI POP PUSH1 0x0 SLOAD PUSH1 0xFF AND ISZERO JUMPDEST PUSH2 0x2271 JUMPI PUSH1 0x40 MLOAD PUSH3 0x461BCD PUSH1 0xE5 SHL DUP2 MSTORE PUSH1 0x4 ADD PUSH2 0x9D5 SWAP1 PUSH2 0x4DA7 JUMP JUMPDEST PUSH1 0x0 SLOAD PUSH2 0x100 SWAP1 DIV PUSH1 0xFF AND ISZERO DUP1 ISZERO PUSH2 0x229C JUMPI PUSH1 0x0 DUP1 SLOAD PUSH1 0xFF NOT PUSH2 0xFF00 NOT SWAP1 SWAP2 AND PUSH2 0x100 OR AND PUSH1 0x1 OR SWAP1 SSTORE JUMPDEST PUSH1 0x67 DUP1 SLOAD PUSH1 0x1 PUSH1 0x1 PUSH1 0xA0 SHL SUB DUP1 DUP8 AND PUSH1 0x1 PUSH1 0x1 PUSH1 0xA0 SHL SUB NOT SWAP3 DUP4 AND OR SWAP1 SWAP3 SSTORE PUSH1 0x68 DUP1 SLOAD DUP7 DUP5 AND SWAP1 DUP4 AND OR SWAP1 SSTORE PUSH1 0x69 DUP1 SLOAD SWAP3 DUP6 AND SWAP3 SWAP1 SWAP2 AND SWAP2 SWAP1 SWAP2 OR SWAP1 SSTORE DUP1 ISZERO PUSH2 0x22EB JUMPI PUSH1 0x0 DUP1 SLOAD PUSH2 0xFF00 NOT AND SWAP1 SSTORE JUMPDEST POP POP POP POP JUMP JUMPDEST PUSH1 0x84 SLOAD DUP2 JUMP JUMPDEST DUP1 PUSH1 0x7A PUSH1 0x0 PUSH2 0x2304 PUSH2 0x3F88 JUMP JUMPDEST PUSH1 0x1 PUSH1 0x1 PUSH1 0xA0 SHL SUB AND DUP2 MSTORE PUSH1 0x20 DUP2 ADD SWAP2 SWAP1 SWAP2 MSTORE PUSH1 0x40 ADD PUSH1 0x0 KECCAK256 SLOAD LT ISZERO PUSH2 0x233C JUMPI PUSH1 0x40 MLOAD PUSH3 0x461BCD PUSH1 0xE5 SHL DUP2 MSTORE PUSH1 0x4 ADD PUSH2 0x9D5 SWAP1 PUSH2 0x4F7E JUMP JUMPDEST PUSH1 0x7A PUSH1 0x0 PUSH2 0x2348 PUSH2 0x3F88 JUMP JUMPDEST PUSH1 0x1 PUSH1 0x1 PUSH1 0xA0 SHL SUB AND DUP2 MSTORE PUSH1 0x20 DUP2 ADD SWAP2 SWAP1 SWAP2 MSTORE PUSH1 0x40 ADD PUSH1 0x0 KECCAK256 SLOAD PUSH2 0x237E JUMPI PUSH1 0x40 MLOAD PUSH3 0x461BCD PUSH1 0xE5 SHL DUP2 MSTORE PUSH1 0x4 ADD PUSH2 0x9D5 SWAP1 PUSH2 0x4BDF JUMP JUMPDEST PUSH1 0x0 PUSH20 0x0 PUSH4 0x4F160423 PUSH1 0x7A PUSH1 0x0 PUSH2 0x23A6 PUSH2 0x3F88 JUMP JUMPDEST PUSH1 0x1 PUSH1 0x1 PUSH1 0xA0 SHL SUB AND PUSH1 0x1 PUSH1 0x1 PUSH1 0xA0 SHL SUB AND DUP2 MSTORE PUSH1 0x20 ADD SWAP1 DUP2 MSTORE PUSH1 0x20 ADD PUSH1 0x0 KECCAK256 DUP5 PUSH1 0x6D PUSH1 0x40 MLOAD DUP5 PUSH4 0xFFFFFFFF AND PUSH1 0xE0 SHL DUP2 MSTORE PUSH1 0x4 ADD PUSH2 0x23E7 SWAP4 SWAP3 SWAP2 SWAP1 PUSH2 0x48F3 JUMP JUMPDEST PUSH1 0x20 PUSH1 0x40 MLOAD DUP1 DUP4 SUB DUP2 DUP7 DUP1 EXTCODESIZE ISZERO DUP1 ISZERO PUSH2 0x23FF JUMPI PUSH1 0x0 DUP1 REVERT JUMPDEST POP GAS DELEGATECALL ISZERO DUP1 ISZERO PUSH2 0x2413 JUMPI RETURNDATASIZE PUSH1 0x0 DUP1 RETURNDATACOPY RETURNDATASIZE PUSH1 0x0 REVERT JUMPDEST POP POP POP POP PUSH1 0x40 MLOAD RETURNDATASIZE PUSH1 0x1F NOT PUSH1 0x1F DUP3 ADD AND DUP3 ADD DUP1 PUSH1 0x40 MSTORE POP DUP2 ADD SWAP1 PUSH2 0x2437 SWAP2 SWAP1 PUSH2 0x46DF JUMP JUMPDEST SWAP1 POP PUSH1 0x0 DUP1 PUSH20 0x0 PUSH4 0xF7AC9CBA PUSH1 0x7A PUSH1 0x0 PUSH2 0x2462 PUSH2 0x3F88 JUMP JUMPDEST PUSH1 0x1 PUSH1 0x1 PUSH1 0xA0 SHL SUB AND PUSH1 0x1 PUSH1 0x1 PUSH1 0xA0 SHL SUB AND DUP2 MSTORE PUSH1 0x20 ADD SWAP1 DUP2 MSTORE PUSH1 0x20 ADD PUSH1 0x0 KECCAK256 DUP7 PUSH1 0x6D PUSH1 0x77 PUSH1 0x40 MLOAD DUP6 PUSH4 0xFFFFFFFF AND PUSH1 0xE0 SHL DUP2 MSTORE PUSH1 0x4 ADD PUSH2 0x24A6 SWAP5 SWAP4 SWAP3 SWAP2 SWAP1 PUSH2 0x4909 JUMP JUMPDEST PUSH1 0x40 DUP1 MLOAD DUP1 DUP4 SUB DUP2 DUP7 DUP1 EXTCODESIZE ISZERO DUP1 ISZERO PUSH2 0x24BD JUMPI PUSH1 0x0 DUP1 REVERT JUMPDEST POP GAS DELEGATECALL ISZERO DUP1 ISZERO PUSH2 0x24D1 JUMPI RETURNDATASIZE PUSH1 0x0 DUP1 RETURNDATACOPY RETURNDATASIZE PUSH1 0x0 REVERT JUMPDEST POP POP POP POP PUSH1 0x40 MLOAD RETURNDATASIZE PUSH1 0x1F NOT PUSH1 0x1F DUP3 ADD AND DUP3 ADD DUP1 PUSH1 0x40 MSTORE POP DUP2 ADD SWAP1 PUSH2 0x24F5 SWAP2 SWAP1 PUSH2 0x4718 JUMP JUMPDEST SWAP1 SWAP3 POP SWAP1 POP PUSH1 0x0 PUSH2 0x2506 DUP5 DUP5 PUSH2 0x5120 JUMP JUMPDEST PUSH1 0x8F SLOAD SWAP1 SWAP2 POP PUSH5 0x100000000 SWAP1 DIV PUSH1 0xFF AND ISZERO PUSH2 0x2972 JUMPI PUSH1 0x86 SLOAD ISZERO PUSH2 0x26AE JUMPI DUP2 ISZERO PUSH2 0x26AE JUMPI PUSH20 0x0 PUSH4 0x93AAEAF9 PUSH1 0x7A PUSH1 0x0 PUSH2 0x2550 PUSH2 0x3F88 JUMP JUMPDEST PUSH1 0x1 PUSH1 0x1 PUSH1 0xA0 SHL SUB AND PUSH1 0x1 PUSH1 0x1 PUSH1 0xA0 SHL SUB AND DUP2 MSTORE PUSH1 0x20 ADD SWAP1 DUP2 MSTORE PUSH1 0x20 ADD PUSH1 0x0 KECCAK256 DUP8 PUSH1 0x40 MLOAD DUP4 PUSH4 0xFFFFFFFF AND PUSH1 0xE0 SHL DUP2 MSTORE PUSH1 0x4 ADD PUSH2 0x258E SWAP3 SWAP2 SWAP1 PUSH2 0x48E5 JUMP JUMPDEST PUSH1 0x0 PUSH1 0x40 MLOAD DUP1 DUP4 SUB DUP2 DUP7 DUP1 EXTCODESIZE ISZERO DUP1 ISZERO PUSH2 0x25A6 JUMPI PUSH1 0x0 DUP1 REVERT JUMPDEST POP GAS DELEGATECALL ISZERO DUP1 ISZERO PUSH2 0x25BA JUMPI RETURNDATASIZE PUSH1 0x0 DUP1 RETURNDATACOPY RETURNDATASIZE PUSH1 0x0 REVERT JUMPDEST POP POP PUSH1 0x7D SLOAD PUSH1 0x1 PUSH1 0x1 PUSH1 0xA0 SHL SUB AND SWAP2 POP PUSH4 0xA9059CBB SWAP1 POP PUSH2 0x25D9 PUSH2 0x3F88 JUMP JUMPDEST DUP5 PUSH1 0x40 MLOAD DUP4 PUSH4 0xFFFFFFFF AND PUSH1 0xE0 SHL DUP2 MSTORE PUSH1 0x4 ADD PUSH2 0x25F7 SWAP3 SWAP2 SWAP1 PUSH2 0x485A JUMP JUMPDEST PUSH1 0x20 PUSH1 0x40 MLOAD DUP1 DUP4 SUB DUP2 PUSH1 0x0 DUP8 DUP1 EXTCODESIZE ISZERO DUP1 ISZERO PUSH2 0x2611 JUMPI PUSH1 0x0 DUP1 REVERT JUMPDEST POP GAS CALL ISZERO DUP1 ISZERO PUSH2 0x2625 JUMPI RETURNDATASIZE PUSH1 0x0 DUP1 RETURNDATACOPY RETURNDATASIZE PUSH1 0x0 REVERT JUMPDEST POP POP POP POP PUSH1 0x40 MLOAD RETURNDATASIZE PUSH1 0x1F NOT PUSH1 0x1F DUP3 ADD AND DUP3 ADD DUP1 PUSH1 0x40 MSTORE POP DUP2 ADD SWAP1 PUSH2 0x2649 SWAP2 SWAP1 PUSH2 0x46AB JUMP JUMPDEST PUSH2 0x2665 JUMPI PUSH1 0x40 MLOAD PUSH3 0x461BCD PUSH1 0xE5 SHL DUP2 MSTORE PUSH1 0x4 ADD PUSH2 0x9D5 SWAP1 PUSH2 0x5002 JUMP JUMPDEST PUSH2 0x266D PUSH2 0x3F88 JUMP JUMPDEST PUSH1 0x1 PUSH1 0x1 PUSH1 0xA0 SHL SUB AND PUSH32 0xD93FC6D1E8779271F55CDB0D5F7B6B05BE64A2226A1AD050D3036F5609C1CDCF DUP4 PUSH1 0x40 MLOAD PUSH2 0x26A5 SWAP2 SWAP1 PUSH2 0x48DC JUMP JUMPDEST PUSH1 0x40 MLOAD DUP1 SWAP2 SUB SWAP1 LOG2 JUMPDEST DUP3 ISZERO PUSH2 0x2749 JUMPI PUSH20 0x0 PUSH4 0x93AAEAF9 PUSH1 0x7A PUSH1 0x0 PUSH2 0x26DA PUSH2 0x3F88 JUMP JUMPDEST PUSH1 0x1 PUSH1 0x1 PUSH1 0xA0 SHL SUB AND PUSH1 0x1 PUSH1 0x1 PUSH1 0xA0 SHL SUB AND DUP2 MSTORE PUSH1 0x20 ADD SWAP1 DUP2 MSTORE PUSH1 0x20 ADD PUSH1 0x0 KECCAK256 DUP8 PUSH1 0x40 MLOAD DUP4 PUSH4 0xFFFFFFFF AND PUSH1 0xE0 SHL DUP2 MSTORE PUSH1 0x4 ADD PUSH2 0x2718 SWAP3 SWAP2 SWAP1 PUSH2 0x48E5 JUMP JUMPDEST PUSH1 0x0 PUSH1 0x40 MLOAD DUP1 DUP4 SUB DUP2 DUP7 DUP1 EXTCODESIZE ISZERO DUP1 ISZERO PUSH2 0x2730 JUMPI PUSH1 0x0 DUP1 REVERT JUMPDEST POP GAS DELEGATECALL ISZERO DUP1 ISZERO PUSH2 0x2744 JUMPI RETURNDATASIZE PUSH1 0x0 DUP1 RETURNDATACOPY RETURNDATASIZE PUSH1 0x0 REVERT JUMPDEST POP POP POP POP JUMPDEST PUSH1 0x0 PUSH20 0x0 PUSH4 0x5EAC7AF3 PUSH1 0x7A PUSH1 0x0 PUSH2 0x2771 PUSH2 0x3F88 JUMP JUMPDEST PUSH1 0x1 PUSH1 0x1 PUSH1 0xA0 SHL SUB AND PUSH1 0x1 PUSH1 0x1 PUSH1 0xA0 SHL SUB AND DUP2 MSTORE PUSH1 0x20 ADD SWAP1 DUP2 MSTORE PUSH1 0x20 ADD PUSH1 0x0 KECCAK256 DUP9 PUSH1 0x40 MLOAD DUP4 PUSH4 0xFFFFFFFF AND PUSH1 0xE0 SHL DUP2 MSTORE PUSH1 0x4 ADD PUSH2 0x27AF SWAP3 SWAP2 SWAP1 PUSH2 0x48E5 JUMP JUMPDEST PUSH1 0x20 PUSH1 0x40 MLOAD DUP1 DUP4 SUB DUP2 DUP7 DUP1 EXTCODESIZE ISZERO DUP1 ISZERO PUSH2 0x27C7 JUMPI PUSH1 0x0 DUP1 REVERT JUMPDEST POP GAS DELEGATECALL ISZERO DUP1 ISZERO PUSH2 0x27DB JUMPI RETURNDATASIZE PUSH1 0x0 DUP1 RETURNDATACOPY RETURNDATASIZE PUSH1 0x0 REVERT JUMPDEST POP POP POP POP PUSH1 0x40 MLOAD RETURNDATASIZE PUSH1 0x1F NOT PUSH1 0x1F DUP3 ADD AND DUP3 ADD DUP1 PUSH1 0x40 MSTORE POP DUP2 ADD SWAP1 PUSH2 0x27FF SWAP2 SWAP1 PUSH2 0x46DF JUMP JUMPDEST SWAP1 POP DUP1 ISZERO PUSH2 0x2970 JUMPI PUSH20 0x0 PUSH4 0xEC8ECC02 PUSH1 0x7A PUSH1 0x0 PUSH2 0x282D PUSH2 0x3F88 JUMP JUMPDEST PUSH1 0x1 PUSH1 0x1 PUSH1 0xA0 SHL SUB AND PUSH1 0x1 PUSH1 0x1 PUSH1 0xA0 SHL SUB AND DUP2 MSTORE PUSH1 0x20 ADD SWAP1 DUP2 MSTORE PUSH1 0x20 ADD PUSH1 0x0 KECCAK256 DUP9 PUSH1 0x40 MLOAD DUP4 PUSH4 0xFFFFFFFF AND PUSH1 0xE0 SHL DUP2 MSTORE PUSH1 0x4 ADD PUSH2 0x286B SWAP3 SWAP2 SWAP1 PUSH2 0x48E5 JUMP JUMPDEST PUSH1 0x0 PUSH1 0x40 MLOAD DUP1 DUP4 SUB DUP2 DUP7 DUP1 EXTCODESIZE ISZERO DUP1 ISZERO PUSH2 0x2883 JUMPI PUSH1 0x0 DUP1 REVERT JUMPDEST POP GAS DELEGATECALL ISZERO DUP1 ISZERO PUSH2 0x2897 JUMPI RETURNDATASIZE PUSH1 0x0 DUP1 RETURNDATACOPY RETURNDATASIZE PUSH1 0x0 REVERT JUMPDEST POP POP PUSH1 0x7B SLOAD PUSH1 0x1 PUSH1 0x1 PUSH1 0xA0 SHL SUB AND SWAP2 POP PUSH4 0xA9059CBB SWAP1 POP PUSH2 0x28B6 PUSH2 0x3F88 JUMP JUMPDEST DUP4 PUSH1 0x40 MLOAD DUP4 PUSH4 0xFFFFFFFF AND PUSH1 0xE0 SHL DUP2 MSTORE PUSH1 0x4 ADD PUSH2 0x28D4 SWAP3 SWAP2 SWAP1 PUSH2 0x485A JUMP JUMPDEST PUSH1 0x20 PUSH1 0x40 MLOAD DUP1 DUP4 SUB DUP2 PUSH1 0x0 DUP8 DUP1 EXTCODESIZE ISZERO DUP1 ISZERO PUSH2 0x28EE JUMPI PUSH1 0x0 DUP1 REVERT JUMPDEST POP GAS CALL ISZERO DUP1 ISZERO PUSH2 0x2902 JUMPI RETURNDATASIZE PUSH1 0x0 DUP1 RETURNDATACOPY RETURNDATASIZE PUSH1 0x0 REVERT JUMPDEST POP POP POP POP PUSH1 0x40 MLOAD RETURNDATASIZE PUSH1 0x1F NOT PUSH1 0x1F DUP3 ADD AND DUP3 ADD DUP1 PUSH1 0x40 MSTORE POP DUP2 ADD SWAP1 PUSH2 0x2926 SWAP2 SWAP1 PUSH2 0x46AB JUMP JUMPDEST POP PUSH2 0x292F PUSH2 0x3F88 JUMP JUMPDEST PUSH1 0x1 PUSH1 0x1 PUSH1 0xA0 SHL SUB AND PUSH32 0x85082129D87B2FE11527CB1B3B7A520AEB5AA6913F88A3D8757FE40D1DB02FDD DUP3 PUSH1 0x40 MLOAD PUSH2 0x2967 SWAP2 SWAP1 PUSH2 0x48DC JUMP JUMPDEST PUSH1 0x40 MLOAD DUP1 SWAP2 SUB SWAP1 LOG2 JUMPDEST POP JUMPDEST DUP1 ISZERO PUSH2 0x1525 JUMPI PUSH1 0x7B SLOAD PUSH1 0x7C SLOAD PUSH1 0x40 MLOAD PUSH4 0x70A08231 PUSH1 0xE0 SHL DUP2 MSTORE DUP4 SWAP3 PUSH1 0x1 PUSH1 0x1 PUSH1 0xA0 SHL SUB SWAP1 DUP2 AND SWAP3 PUSH4 0x70A08231 SWAP3 PUSH2 0x29AF SWAP3 SWAP1 SWAP2 AND SWAP1 PUSH1 0x4 ADD PUSH2 0x4822 JUMP JUMPDEST PUSH1 0x20 PUSH1 0x40 MLOAD DUP1 DUP4 SUB DUP2 DUP7 DUP1 EXTCODESIZE ISZERO DUP1 ISZERO PUSH2 0x29C7 JUMPI PUSH1 0x0 DUP1 REVERT JUMPDEST POP GAS STATICCALL ISZERO DUP1 ISZERO PUSH2 0x29DB JUMPI RETURNDATASIZE PUSH1 0x0 DUP1 RETURNDATACOPY RETURNDATASIZE PUSH1 0x0 REVERT JUMPDEST POP POP POP POP PUSH1 0x40 MLOAD RETURNDATASIZE PUSH1 0x1F NOT PUSH1 0x1F DUP3 ADD AND DUP3 ADD DUP1 PUSH1 0x40 MSTORE POP DUP2 ADD SWAP1 PUSH2 0x29FF SWAP2 SWAP1 PUSH2 0x46DF JUMP JUMPDEST LT ISZERO PUSH2 0x2A1D JUMPI PUSH1 0x40 MLOAD PUSH3 0x461BCD PUSH1 0xE5 SHL DUP2 MSTORE PUSH1 0x4 ADD PUSH2 0x9D5 SWAP1 PUSH2 0x4C76 JUMP JUMPDEST PUSH20 0x0 PUSH4 0xEAFF3050 PUSH1 0x7A PUSH1 0x0 PUSH2 0x2A43 PUSH2 0x3F88 JUMP JUMPDEST PUSH1 0x1 PUSH1 0x1 PUSH1 0xA0 SHL SUB AND PUSH1 0x1 PUSH1 0x1 PUSH1 0xA0 SHL SUB AND DUP2 MSTORE PUSH1 0x20 ADD SWAP1 DUP2 MSTORE PUSH1 0x20 ADD PUSH1 0x0 KECCAK256 DUP8 PUSH1 0x6D PUSH1 0x40 MLOAD DUP5 PUSH4 0xFFFFFFFF AND PUSH1 0xE0 SHL DUP2 MSTORE PUSH1 0x4 ADD PUSH2 0x2A84 SWAP4 SWAP3 SWAP2 SWAP1 PUSH2 0x48F3 JUMP JUMPDEST PUSH1 0x0 PUSH1 0x40 MLOAD DUP1 DUP4 SUB DUP2 DUP7 DUP1 EXTCODESIZE ISZERO DUP1 ISZERO PUSH2 0x2A9C JUMPI PUSH1 0x0 DUP1 REVERT JUMPDEST POP GAS DELEGATECALL ISZERO DUP1 ISZERO PUSH2 0x2AB0 JUMPI RETURNDATASIZE PUSH1 0x0 DUP1 RETURNDATACOPY RETURNDATASIZE PUSH1 0x0 REVERT JUMPDEST POP POP PUSH1 0x7C SLOAD PUSH1 0x1 PUSH1 0x1 PUSH1 0xA0 SHL SUB AND SWAP2 POP PUSH4 0xE4E103DC SWAP1 POP PUSH2 0x2ACF PUSH2 0x3F88 JUMP JUMPDEST DUP4 PUSH1 0x40 MLOAD DUP4 PUSH4 0xFFFFFFFF AND PUSH1 0xE0 SHL DUP2 MSTORE PUSH1 0x4 ADD PUSH2 0x2AED SWAP3 SWAP2 SWAP1 PUSH2 0x485A JUMP JUMPDEST PUSH1 0x0 PUSH1 0x40 MLOAD DUP1 DUP4 SUB DUP2 PUSH1 0x0 DUP8 DUP1 EXTCODESIZE ISZERO DUP1 ISZERO PUSH2 0x2B07 JUMPI PUSH1 0x0 DUP1 REVERT JUMPDEST POP GAS CALL ISZERO DUP1 ISZERO PUSH2 0x2B1B JUMPI RETURNDATASIZE PUSH1 0x0 DUP1 RETURNDATACOPY RETURNDATASIZE PUSH1 0x0 REVERT JUMPDEST POP POP POP POP PUSH2 0x2B27 PUSH2 0x3F88 JUMP JUMPDEST PUSH1 0x1 PUSH1 0x1 PUSH1 0xA0 SHL SUB AND PUSH32 0x115E2FE760F98D4FD0828D7741AE2070E7DB700F892EFBFE98448B53AC583886 DUP6 PUSH1 0x40 MLOAD PUSH2 0x2B5F SWAP2 SWAP1 PUSH2 0x48DC JUMP JUMPDEST PUSH1 0x40 MLOAD DUP1 SWAP2 SUB SWAP1 LOG2 PUSH2 0x2B6F PUSH2 0x3F88 JUMP JUMPDEST PUSH1 0x1 PUSH1 0x1 PUSH1 0xA0 SHL SUB AND PUSH32 0x723B06F6C3A94DC82019852E6AA01C0241FBA5F84410B9003DDC3440AD499E59 DUP5 PUSH1 0x40 MLOAD PUSH2 0x2BA7 SWAP2 SWAP1 PUSH2 0x48DC JUMP JUMPDEST PUSH1 0x40 MLOAD DUP1 SWAP2 SUB SWAP1 LOG2 POP POP POP POP POP JUMP JUMPDEST PUSH1 0x7F DUP1 SLOAD PUSH2 0x90B SWAP1 PUSH2 0x518E JUMP JUMPDEST PUSH1 0x1 PUSH1 0x1 PUSH1 0xA0 SHL SUB DUP3 AND PUSH1 0x0 SWAP1 DUP2 MSTORE PUSH1 0x7A PUSH1 0x20 MSTORE PUSH1 0x40 DUP1 DUP3 KECCAK256 SWAP1 MLOAD PUSH4 0x7BD64E5D PUSH1 0xE1 SHL DUP2 MSTORE DUP3 SWAP2 DUP3 SWAP2 DUP3 SWAP2 PUSH20 0x0 SWAP2 PUSH4 0xF7AC9CBA SWAP2 PUSH2 0x2C1E SWAP2 DUP10 SWAP1 PUSH1 0x6D SWAP1 PUSH1 0x77 SWAP1 PUSH1 0x4 ADD PUSH2 0x4909 JUMP JUMPDEST PUSH1 0x40 DUP1 MLOAD DUP1 DUP4 SUB DUP2 DUP7 DUP1 EXTCODESIZE ISZERO DUP1 ISZERO PUSH2 0x2C35 JUMPI PUSH1 0x0 DUP1 REVERT JUMPDEST POP GAS DELEGATECALL ISZERO DUP1 ISZERO PUSH2 0x2C49 JUMPI RETURNDATASIZE PUSH1 0x0 DUP1 RETURNDATACOPY RETURNDATASIZE PUSH1 0x0 REVERT JUMPDEST POP POP POP POP PUSH1 0x40 MLOAD RETURNDATASIZE PUSH1 0x1F NOT PUSH1 0x1F DUP3 ADD AND DUP3 ADD DUP1 PUSH1 0x40 MSTORE POP DUP2 ADD SWAP1 PUSH2 0x2C6D SWAP2 SWAP1 PUSH2 0x4718 JUMP JUMPDEST SWAP1 SWAP8 SWAP1 SWAP7 POP SWAP5 POP POP POP POP POP JUMP JUMPDEST PUSH1 0x0 PUSH20 0x0 PUSH4 0xD4675770 PUSH1 0x7A PUSH1 0x0 PUSH2 0x2CA2 PUSH2 0x3F88 JUMP JUMPDEST PUSH1 0x1 PUSH1 0x1 PUSH1 0xA0 SHL SUB AND PUSH1 0x1 PUSH1 0x1 PUSH1 0xA0 SHL SUB AND DUP2 MSTORE PUSH1 0x20 ADD SWAP1 DUP2 MSTORE PUSH1 0x20 ADD PUSH1 0x0 KECCAK256 PUSH1 0x6D PUSH1 0x40 MLOAD DUP4 PUSH4 0xFFFFFFFF AND PUSH1 0xE0 SHL DUP2 MSTORE PUSH1 0x4 ADD PUSH2 0x2CE1 SWAP3 SWAP2 SWAP1 PUSH2 0x48E5 JUMP JUMPDEST PUSH1 0x20 PUSH1 0x40 MLOAD DUP1 DUP4 SUB DUP2 DUP7 DUP1 EXTCODESIZE ISZERO DUP1 ISZERO PUSH2 0x2CF9 JUMPI PUSH1 0x0 DUP1 REVERT JUMPDEST POP GAS DELEGATECALL ISZERO DUP1 ISZERO PUSH2 0x2D0D JUMPI RETURNDATASIZE PUSH1 0x0 DUP1 RETURNDATACOPY RETURNDATASIZE PUSH1 0x0 REVERT JUMPDEST POP POP POP POP PUSH1 0x40 MLOAD RETURNDATASIZE PUSH1 0x1F NOT PUSH1 0x1F DUP3 ADD AND DUP3 ADD DUP1 PUSH1 0x40 MSTORE POP DUP2 ADD SWAP1 PUSH2 0x2D31 SWAP2 SWAP1 PUSH2 0x46DF JUMP JUMPDEST SWAP1 POP PUSH1 0x0 DUP1 PUSH20 0x0 PUSH4 0x32A1B321 PUSH1 0x7A PUSH1 0x0 PUSH2 0x2D5C PUSH2 0x3F88 JUMP JUMPDEST PUSH1 0x1 PUSH1 0x1 PUSH1 0xA0 SHL SUB AND PUSH1 0x1 PUSH1 0x1 PUSH1 0xA0 SHL SUB AND DUP2 MSTORE PUSH1 0x20 ADD SWAP1 DUP2 MSTORE PUSH1 0x20 ADD PUSH1 0x0 KECCAK256 PUSH1 0x6D PUSH1 0x77 PUSH1 0x40 MLOAD DUP5 PUSH4 0xFFFFFFFF AND PUSH1 0xE0 SHL DUP2 MSTORE PUSH1 0x4 ADD PUSH2 0x2D9E SWAP4 SWAP3 SWAP2 SWAP1 PUSH2 0x48F3 JUMP JUMPDEST PUSH1 0x40 DUP1 MLOAD DUP1 DUP4 SUB DUP2 DUP7 DUP1 EXTCODESIZE ISZERO DUP1 ISZERO PUSH2 0x2DB5 JUMPI PUSH1 0x0 DUP1 REVERT JUMPDEST POP GAS DELEGATECALL ISZERO DUP1 ISZERO PUSH2 0x2DC9 JUMPI RETURNDATASIZE PUSH1 0x0 DUP1 RETURNDATACOPY RETURNDATASIZE PUSH1 0x0 REVERT JUMPDEST POP POP POP POP PUSH1 0x40 MLOAD RETURNDATASIZE PUSH1 0x1F NOT PUSH1 0x1F DUP3 ADD AND DUP3 ADD DUP1 PUSH1 0x40 MSTORE POP DUP2 ADD SWAP1 PUSH2 0x2DED SWAP2 SWAP1 PUSH2 0x4718 JUMP JUMPDEST SWAP1 SWAP3 POP SWAP1 POP PUSH1 0x0 PUSH2 0x2DFE DUP5 DUP5 PUSH2 0x5120 JUMP JUMPDEST PUSH1 0x8F SLOAD SWAP1 SWAP2 POP PUSH5 0x100000000 SWAP1 DIV PUSH1 0xFF AND ISZERO PUSH2 0x3262 JUMPI PUSH1 0x86 SLOAD ISZERO PUSH2 0x2FA4 JUMPI DUP2 ISZERO PUSH2 0x2FA4 JUMPI PUSH20 0x0 PUSH4 0x47DC9EEE PUSH1 0x7A PUSH1 0x0 PUSH2 0x2E48 PUSH2 0x3F88 JUMP JUMPDEST PUSH1 0x1 PUSH1 0x1 PUSH1 0xA0 SHL SUB AND PUSH1 0x1 PUSH1 0x1 PUSH1 0xA0 SHL SUB AND DUP2 MSTORE PUSH1 0x20 ADD SWAP1 DUP2 MSTORE PUSH1 0x20 ADD PUSH1 0x0 KECCAK256 PUSH1 0x40 MLOAD DUP3 PUSH4 0xFFFFFFFF AND PUSH1 0xE0 SHL DUP2 MSTORE PUSH1 0x4 ADD PUSH2 0x2E84 SWAP2 SWAP1 PUSH2 0x48DC JUMP JUMPDEST PUSH1 0x0 PUSH1 0x40 MLOAD DUP1 DUP4 SUB DUP2 DUP7 DUP1 EXTCODESIZE ISZERO DUP1 ISZERO PUSH2 0x2E9C JUMPI PUSH1 0x0 DUP1 REVERT JUMPDEST POP GAS DELEGATECALL ISZERO DUP1 ISZERO PUSH2 0x2EB0 JUMPI RETURNDATASIZE PUSH1 0x0 DUP1 RETURNDATACOPY RETURNDATASIZE PUSH1 0x0 REVERT JUMPDEST POP POP PUSH1 0x7D SLOAD PUSH1 0x1 PUSH1 0x1 PUSH1 0xA0 SHL SUB AND SWAP2 POP PUSH4 0xA9059CBB SWAP1 POP PUSH2 0x2ECF PUSH2 0x3F88 JUMP JUMPDEST DUP5 PUSH1 0x40 MLOAD DUP4 PUSH4 0xFFFFFFFF AND PUSH1 0xE0 SHL DUP2 MSTORE PUSH1 0x4 ADD PUSH2 0x2EED SWAP3 SWAP2 SWAP1 PUSH2 0x485A JUMP JUMPDEST PUSH1 0x20 PUSH1 0x40 MLOAD DUP1 DUP4 SUB DUP2 PUSH1 0x0 DUP8 DUP1 EXTCODESIZE ISZERO DUP1 ISZERO PUSH2 0x2F07 JUMPI PUSH1 0x0 DUP1 REVERT JUMPDEST POP GAS CALL ISZERO DUP1 ISZERO PUSH2 0x2F1B JUMPI RETURNDATASIZE PUSH1 0x0 DUP1 RETURNDATACOPY RETURNDATASIZE PUSH1 0x0 REVERT JUMPDEST POP POP POP POP PUSH1 0x40 MLOAD RETURNDATASIZE PUSH1 0x1F NOT PUSH1 0x1F DUP3 ADD AND DUP3 ADD DUP1 PUSH1 0x40 MSTORE POP DUP2 ADD SWAP1 PUSH2 0x2F3F SWAP2 SWAP1 PUSH2 0x46AB JUMP JUMPDEST PUSH2 0x2F5B JUMPI PUSH1 0x40 MLOAD PUSH3 0x461BCD PUSH1 0xE5 SHL DUP2 MSTORE PUSH1 0x4 ADD PUSH2 0x9D5 SWAP1 PUSH2 0x4C16 JUMP JUMPDEST PUSH2 0x2F63 PUSH2 0x3F88 JUMP JUMPDEST PUSH1 0x1 PUSH1 0x1 PUSH1 0xA0 SHL SUB AND PUSH32 0xD93FC6D1E8779271F55CDB0D5F7B6B05BE64A2226A1AD050D3036F5609C1CDCF DUP4 PUSH1 0x40 MLOAD PUSH2 0x2F9B SWAP2 SWAP1 PUSH2 0x48DC JUMP JUMPDEST PUSH1 0x40 MLOAD DUP1 SWAP2 SUB SWAP1 LOG2 JUMPDEST DUP3 ISZERO PUSH2 0x303D JUMPI PUSH20 0x0 PUSH4 0x47DC9EEE PUSH1 0x7A PUSH1 0x0 PUSH2 0x2FD0 PUSH2 0x3F88 JUMP JUMPDEST PUSH1 0x1 PUSH1 0x1 PUSH1 0xA0 SHL SUB AND PUSH1 0x1 PUSH1 0x1 PUSH1 0xA0 SHL SUB AND DUP2 MSTORE PUSH1 0x20 ADD SWAP1 DUP2 MSTORE PUSH1 0x20 ADD PUSH1 0x0 KECCAK256 PUSH1 0x40 MLOAD DUP3 PUSH4 0xFFFFFFFF AND PUSH1 0xE0 SHL DUP2 MSTORE PUSH1 0x4 ADD PUSH2 0x300C SWAP2 SWAP1 PUSH2 0x48DC JUMP JUMPDEST PUSH1 0x0 PUSH1 0x40 MLOAD DUP1 DUP4 SUB DUP2 DUP7 DUP1 EXTCODESIZE ISZERO DUP1 ISZERO PUSH2 0x3024 JUMPI PUSH1 0x0 DUP1 REVERT JUMPDEST POP GAS DELEGATECALL ISZERO DUP1 ISZERO PUSH2 0x3038 JUMPI RETURNDATASIZE PUSH1 0x0 DUP1 RETURNDATACOPY RETURNDATASIZE PUSH1 0x0 REVERT JUMPDEST POP POP POP POP JUMPDEST PUSH1 0x0 PUSH20 0x0 PUSH4 0x66F1DEE PUSH1 0x7A PUSH1 0x0 PUSH2 0x3065 PUSH2 0x3F88 JUMP JUMPDEST PUSH1 0x1 PUSH1 0x1 PUSH1 0xA0 SHL SUB AND PUSH1 0x1 PUSH1 0x1 PUSH1 0xA0 SHL SUB AND DUP2 MSTORE PUSH1 0x20 ADD SWAP1 DUP2 MSTORE PUSH1 0x20 ADD PUSH1 0x0 KECCAK256 PUSH1 0x40 MLOAD DUP3 PUSH4 0xFFFFFFFF AND PUSH1 0xE0 SHL DUP2 MSTORE PUSH1 0x4 ADD PUSH2 0x30A1 SWAP2 SWAP1 PUSH2 0x48DC JUMP JUMPDEST PUSH1 0x20 PUSH1 0x40 MLOAD DUP1 DUP4 SUB DUP2 DUP7 DUP1 EXTCODESIZE ISZERO DUP1 ISZERO PUSH2 0x30B9 JUMPI PUSH1 0x0 DUP1 REVERT JUMPDEST POP GAS DELEGATECALL ISZERO DUP1 ISZERO PUSH2 0x30CD JUMPI RETURNDATASIZE PUSH1 0x0 DUP1 RETURNDATACOPY RETURNDATASIZE PUSH1 0x0 REVERT JUMPDEST POP POP POP POP PUSH1 0x40 MLOAD RETURNDATASIZE PUSH1 0x1F NOT PUSH1 0x1F DUP3 ADD AND DUP3 ADD DUP1 PUSH1 0x40 MSTORE POP DUP2 ADD SWAP1 PUSH2 0x30F1 SWAP2 SWAP1 PUSH2 0x46DF JUMP JUMPDEST SWAP1 POP DUP1 ISZERO PUSH2 0x3260 JUMPI PUSH20 0x0 PUSH4 0xF66D9A4D PUSH1 0x7A PUSH1 0x0 PUSH2 0x311F PUSH2 0x3F88 JUMP JUMPDEST PUSH1 0x1 PUSH1 0x1 PUSH1 0xA0 SHL SUB AND PUSH1 0x1 PUSH1 0x1 PUSH1 0xA0 SHL SUB AND DUP2 MSTORE PUSH1 0x20 ADD SWAP1 DUP2 MSTORE PUSH1 0x20 ADD PUSH1 0x0 KECCAK256 PUSH1 0x40 MLOAD DUP3 PUSH4 0xFFFFFFFF AND PUSH1 0xE0 SHL DUP2 MSTORE PUSH1 0x4 ADD PUSH2 0x315B SWAP2 SWAP1 PUSH2 0x48DC JUMP JUMPDEST PUSH1 0x0 PUSH1 0x40 MLOAD DUP1 DUP4 SUB DUP2 DUP7 DUP1 EXTCODESIZE ISZERO DUP1 ISZERO PUSH2 0x3173 JUMPI PUSH1 0x0 DUP1 REVERT JUMPDEST POP GAS DELEGATECALL ISZERO DUP1 ISZERO PUSH2 0x3187 JUMPI RETURNDATASIZE PUSH1 0x0 DUP1 RETURNDATACOPY RETURNDATASIZE PUSH1 0x0 REVERT JUMPDEST POP POP PUSH1 0x7B SLOAD PUSH1 0x1 PUSH1 0x1 PUSH1 0xA0 SHL SUB AND SWAP2 POP PUSH4 0xA9059CBB SWAP1 POP PUSH2 0x31A6 PUSH2 0x3F88 JUMP JUMPDEST DUP4 PUSH1 0x40 MLOAD DUP4 PUSH4 0xFFFFFFFF AND PUSH1 0xE0 SHL DUP2 MSTORE PUSH1 0x4 ADD PUSH2 0x31C4 SWAP3 SWAP2 SWAP1 PUSH2 0x485A JUMP JUMPDEST PUSH1 0x20 PUSH1 0x40 MLOAD DUP1 DUP4 SUB DUP2 PUSH1 0x0 DUP8 DUP1 EXTCODESIZE ISZERO DUP1 ISZERO PUSH2 0x31DE JUMPI PUSH1 0x0 DUP1 REVERT JUMPDEST POP GAS CALL ISZERO DUP1 ISZERO PUSH2 0x31F2 JUMPI RETURNDATASIZE PUSH1 0x0 DUP1 RETURNDATACOPY RETURNDATASIZE PUSH1 0x0 REVERT JUMPDEST POP POP POP POP PUSH1 0x40 MLOAD RETURNDATASIZE PUSH1 0x1F NOT PUSH1 0x1F DUP3 ADD AND DUP3 ADD DUP1 PUSH1 0x40 MSTORE POP DUP2 ADD SWAP1 PUSH2 0x3216 SWAP2 SWAP1 PUSH2 0x46AB JUMP JUMPDEST POP PUSH2 0x321F PUSH2 0x3F88 JUMP JUMPDEST PUSH1 0x1 PUSH1 0x1 PUSH1 0xA0 SHL SUB AND PUSH32 0x85082129D87B2FE11527CB1B3B7A520AEB5AA6913F88A3D8757FE40D1DB02FDD DUP3 PUSH1 0x40 MLOAD PUSH2 0x3257 SWAP2 SWAP1 PUSH2 0x48DC JUMP JUMPDEST PUSH1 0x40 MLOAD DUP1 SWAP2 SUB SWAP1 LOG2 JUMPDEST POP JUMPDEST DUP1 ISZERO PUSH2 0x22EB JUMPI PUSH1 0x7B SLOAD PUSH1 0x7C SLOAD PUSH1 0x40 MLOAD PUSH4 0x70A08231 PUSH1 0xE0 SHL DUP2 MSTORE DUP4 SWAP3 PUSH1 0x1 PUSH1 0x1 PUSH1 0xA0 SHL SUB SWAP1 DUP2 AND SWAP3 PUSH4 0x70A08231 SWAP3 PUSH2 0x329F SWAP3 SWAP1 SWAP2 AND SWAP1 PUSH1 0x4 ADD PUSH2 0x4822 JUMP JUMPDEST PUSH1 0x20 PUSH1 0x40 MLOAD DUP1 DUP4 SUB DUP2 DUP7 DUP1 EXTCODESIZE ISZERO DUP1 ISZERO PUSH2 0x32B7 JUMPI PUSH1 0x0 DUP1 REVERT JUMPDEST POP GAS STATICCALL ISZERO DUP1 ISZERO PUSH2 0x32CB JUMPI RETURNDATASIZE PUSH1 0x0 DUP1 RETURNDATACOPY RETURNDATASIZE PUSH1 0x0 REVERT JUMPDEST POP POP POP POP PUSH1 0x40 MLOAD RETURNDATASIZE PUSH1 0x1F NOT PUSH1 0x1F DUP3 ADD AND DUP3 ADD DUP1 PUSH1 0x40 MSTORE POP DUP2 ADD SWAP1 PUSH2 0x32EF SWAP2 SWAP1 PUSH2 0x46DF JUMP JUMPDEST LT ISZERO PUSH2 0x330D JUMPI PUSH1 0x40 MLOAD PUSH3 0x461BCD PUSH1 0xE5 SHL DUP2 MSTORE PUSH1 0x4 ADD PUSH2 0x9D5 SWAP1 PUSH2 0x4C76 JUMP JUMPDEST PUSH20 0x0 PUSH4 0x4142C652 PUSH1 0x7A PUSH1 0x0 PUSH2 0x3333 PUSH2 0x3F88 JUMP JUMPDEST PUSH1 0x1 PUSH1 0x1 PUSH1 0xA0 SHL SUB AND PUSH1 0x1 PUSH1 0x1 PUSH1 0xA0 SHL SUB AND DUP2 MSTORE PUSH1 0x20 ADD SWAP1 DUP2 MSTORE PUSH1 0x20 ADD PUSH1 0x0 KECCAK256 PUSH1 0x6D PUSH1 0x40 MLOAD DUP4 PUSH4 0xFFFFFFFF AND PUSH1 0xE0 SHL DUP2 MSTORE PUSH1 0x4 ADD PUSH2 0x3372 SWAP3 SWAP2 SWAP1 PUSH2 0x48E5 JUMP JUMPDEST PUSH1 0x0 PUSH1 0x40 MLOAD DUP1 DUP4 SUB DUP2 DUP7 DUP1 EXTCODESIZE ISZERO DUP1 ISZERO PUSH2 0x338A JUMPI PUSH1 0x0 DUP1 REVERT JUMPDEST POP GAS DELEGATECALL ISZERO DUP1 ISZERO PUSH2 0x339E JUMPI RETURNDATASIZE PUSH1 0x0 DUP1 RETURNDATACOPY RETURNDATASIZE PUSH1 0x0 REVERT JUMPDEST POP POP PUSH1 0x7C SLOAD PUSH1 0x1 PUSH1 0x1 PUSH1 0xA0 SHL SUB AND SWAP2 POP PUSH4 0xE4E103DC SWAP1 POP PUSH2 0x33BD PUSH2 0x3F88 JUMP JUMPDEST DUP4 PUSH1 0x40 MLOAD DUP4 PUSH4 0xFFFFFFFF AND PUSH1 0xE0 SHL DUP2 MSTORE PUSH1 0x4 ADD PUSH2 0x33DB SWAP3 SWAP2 SWAP1 PUSH2 0x485A JUMP JUMPDEST PUSH1 0x0 PUSH1 0x40 MLOAD DUP1 DUP4 SUB DUP2 PUSH1 0x0 DUP8 DUP1 EXTCODESIZE ISZERO DUP1 ISZERO PUSH2 0x33F5 JUMPI PUSH1 0x0 DUP1 REVERT JUMPDEST POP GAS CALL ISZERO DUP1 ISZERO PUSH2 0x3409 JUMPI RETURNDATASIZE PUSH1 0x0 DUP1 RETURNDATACOPY RETURNDATASIZE PUSH1 0x0 REVERT JUMPDEST POP POP POP POP PUSH2 0x3415 PUSH2 0x3F88 JUMP JUMPDEST PUSH1 0x1 PUSH1 0x1 PUSH1 0xA0 SHL SUB AND PUSH32 0x115E2FE760F98D4FD0828D7741AE2070E7DB700F892EFBFE98448B53AC583886 DUP6 PUSH1 0x40 MLOAD PUSH2 0x344D SWAP2 SWAP1 PUSH2 0x48DC JUMP JUMPDEST PUSH1 0x40 MLOAD DUP1 SWAP2 SUB SWAP1 LOG2 PUSH2 0x345D PUSH2 0x3F88 JUMP JUMPDEST PUSH1 0x1 PUSH1 0x1 PUSH1 0xA0 SHL SUB AND PUSH32 0x723B06F6C3A94DC82019852E6AA01C0241FBA5F84410B9003DDC3440AD499E59 DUP5 PUSH1 0x40 MLOAD PUSH2 0x3495 SWAP2 SWAP1 PUSH2 0x48DC JUMP JUMPDEST PUSH1 0x40 MLOAD DUP1 SWAP2 SUB SWAP1 LOG2 POP POP POP POP JUMP JUMPDEST PUSH1 0x6C SLOAD PUSH1 0x1 PUSH1 0x1 PUSH1 0xA0 SHL SUB AND DUP2 JUMP JUMPDEST PUSH1 0x0 PUSH1 0x89 SLOAD PUSH1 0x0 EQ ISZERO PUSH2 0x34C7 JUMPI POP PUSH1 0x0 PUSH2 0x1684 JUMP JUMPDEST PUSH1 0x0 DUP1 JUMPDEST PUSH1 0x78 SLOAD DUP2 LT ISZERO PUSH2 0x362A JUMPI PUSH1 0x0 PUSH1 0x7A PUSH1 0x0 PUSH1 0x78 DUP5 DUP2 SLOAD DUP2 LT PUSH2 0x34FC JUMPI PUSH4 0x4E487B71 PUSH1 0xE0 SHL PUSH1 0x0 MSTORE PUSH1 0x32 PUSH1 0x4 MSTORE PUSH1 0x24 PUSH1 0x0 REVERT JUMPDEST PUSH1 0x0 SWAP2 DUP3 MSTORE PUSH1 0x20 DUP1 DUP4 KECCAK256 PUSH1 0x2 SWAP1 SWAP3 MUL SWAP1 SWAP2 ADD SLOAD PUSH1 0x1 PUSH1 0x1 PUSH1 0xA0 SHL SUB AND DUP4 MSTORE DUP3 ADD SWAP3 SWAP1 SWAP3 MSTORE PUSH1 0x40 ADD SWAP1 KECCAK256 PUSH1 0x78 DUP1 SLOAD DUP5 SWAP1 DUP2 LT PUSH2 0x3547 JUMPI PUSH4 0x4E487B71 PUSH1 0xE0 SHL PUSH1 0x0 MSTORE PUSH1 0x32 PUSH1 0x4 MSTORE PUSH1 0x24 PUSH1 0x0 REVERT JUMPDEST SWAP1 PUSH1 0x0 MSTORE PUSH1 0x20 PUSH1 0x0 KECCAK256 SWAP1 PUSH1 0x2 MUL ADD PUSH1 0x1 ADD SLOAD DUP2 SLOAD DUP2 LT PUSH2 0x3577 JUMPI PUSH4 0x4E487B71 PUSH1 0xE0 SHL PUSH1 0x0 MSTORE PUSH1 0x32 PUSH1 0x4 MSTORE PUSH1 0x24 PUSH1 0x0 REVERT JUMPDEST PUSH1 0x0 SWAP2 DUP3 MSTORE PUSH1 0x20 SWAP2 DUP3 SWAP1 KECCAK256 PUSH1 0x40 DUP1 MLOAD PUSH2 0x120 DUP2 ADD DUP3 MSTORE PUSH1 0x8 SWAP1 SWAP4 MUL SWAP1 SWAP2 ADD DUP1 SLOAD DUP1 DUP5 MSTORE PUSH1 0x1 DUP3 ADD SLOAD SWAP5 DUP5 ADD SWAP5 SWAP1 SWAP5 MSTORE PUSH1 0x2 DUP2 ADD SLOAD SWAP2 DUP4 ADD SWAP2 SWAP1 SWAP2 MSTORE PUSH1 0x3 DUP2 ADD SLOAD PUSH1 0x60 DUP4 ADD MSTORE PUSH1 0x4 DUP2 ADD SLOAD PUSH1 0x80 DUP4 ADD DUP2 SWAP1 MSTORE PUSH1 0x5 DUP3 ADD SLOAD PUSH1 0xA0 DUP5 ADD MSTORE PUSH1 0x6 DUP3 ADD SLOAD PUSH1 0xC0 DUP5 ADD MSTORE PUSH1 0x7 SWAP1 SWAP2 ADD SLOAD PUSH1 0xFF DUP1 DUP3 AND ISZERO ISZERO PUSH1 0xE0 DUP6 ADD MSTORE PUSH2 0x100 SWAP2 DUP3 SWAP1 DIV AND ISZERO ISZERO SWAP1 DUP4 ADD MSTORE SWAP1 SWAP3 POP PUSH2 0x3614 SWAP2 PUSH2 0x360D SWAP2 SWAP1 PUSH2 0x41B6 JUMP JUMPDEST DUP5 SWAP1 PUSH2 0x3FE8 JUMP JUMPDEST SWAP3 POP POP DUP1 DUP1 PUSH2 0x3622 SWAP1 PUSH2 0x51C9 JUMP JUMPDEST SWAP2 POP POP PUSH2 0x34CB JUMP JUMPDEST POP PUSH1 0x89 SLOAD PUSH2 0x1FC9 SWAP1 DUP3 SWAP1 PUSH2 0x41C2 JUMP JUMPDEST PUSH1 0x66 SLOAD PUSH1 0x40 MLOAD PUSH4 0x70A08231 PUSH1 0xE0 SHL DUP2 MSTORE PUSH1 0x0 SWAP2 PUSH1 0x1 PUSH1 0x1 PUSH1 0xA0 SHL SUB AND SWAP1 PUSH4 0x70A08231 SWAP1 PUSH2 0x366A SWAP1 ADDRESS SWAP1 PUSH1 0x4 ADD PUSH2 0x4822 JUMP JUMPDEST PUSH1 0x20 PUSH1 0x40 MLOAD DUP1 DUP4 SUB DUP2 DUP7 DUP1 EXTCODESIZE ISZERO DUP1 ISZERO PUSH2 0x3682 JUMPI PUSH1 0x0 DUP1 REVERT JUMPDEST POP GAS STATICCALL ISZERO DUP1 ISZERO PUSH2 0x3696 JUMPI RETURNDATASIZE PUSH1 0x0 DUP1 RETURNDATACOPY RETURNDATASIZE PUSH1 0x0 REVERT JUMPDEST POP POP POP POP PUSH1 0x40 MLOAD RETURNDATASIZE PUSH1 0x1F NOT PUSH1 0x1F DUP3 ADD AND DUP3 ADD DUP1 PUSH1 0x40 MSTORE POP DUP2 ADD SWAP1 PUSH2 0x36BA SWAP2 SWAP1 PUSH2 0x46DF JUMP JUMPDEST SWAP1 POP SWAP1 JUMP JUMPDEST PUSH1 0x6B SLOAD PUSH1 0x1 PUSH1 0x1 PUSH1 0xA0 SHL SUB AND DUP2 JUMP JUMPDEST PUSH1 0x8A SLOAD DUP2 JUMP JUMPDEST PUSH1 0x8F SLOAD PUSH3 0x10000 SWAP1 DIV PUSH1 0xFF AND DUP1 ISZERO PUSH2 0x36ED JUMPI POP PUSH1 0x80 SLOAD TIMESTAMP GT JUMPDEST PUSH2 0x3709 JUMPI PUSH1 0x40 MLOAD PUSH3 0x461BCD PUSH1 0xE5 SHL DUP2 MSTORE PUSH1 0x4 ADD PUSH2 0x9D5 SWAP1 PUSH2 0x4EB6 JUMP JUMPDEST PUSH1 0x81 SLOAD PUSH1 0x80 SLOAD PUSH2 0x3719 SWAP2 SWAP1 PUSH2 0x5120 JUMP JUMPDEST TIMESTAMP LT PUSH2 0x3737 JUMPI PUSH1 0x40 MLOAD PUSH3 0x461BCD PUSH1 0xE5 SHL DUP2 MSTORE PUSH1 0x4 ADD PUSH2 0x9D5 SWAP1 PUSH2 0x4A18 JUMP JUMPDEST PUSH1 0x8F SLOAD PUSH4 0x1000000 SWAP1 DIV PUSH1 0xFF AND ISZERO PUSH2 0x3761 JUMPI PUSH1 0x40 MLOAD PUSH3 0x461BCD PUSH1 0xE5 SHL DUP2 MSTORE PUSH1 0x4 ADD PUSH2 0x9D5 SWAP1 PUSH2 0x49EB JUMP JUMPDEST DUP3 DUP2 EQ PUSH2 0x3780 JUMPI PUSH1 0x40 MLOAD PUSH3 0x461BCD PUSH1 0xE5 SHL DUP2 MSTORE PUSH1 0x4 ADD PUSH2 0x9D5 SWAP1 PUSH2 0x4A5A JUMP JUMPDEST PUSH1 0x0 DUP1 JUMPDEST DUP5 DUP2 LT ISZERO PUSH2 0x3821 JUMPI PUSH1 0x88 SLOAD DUP7 DUP7 DUP4 DUP2 DUP2 LT PUSH2 0x37AF JUMPI PUSH4 0x4E487B71 PUSH1 0xE0 SHL PUSH1 0x0 MSTORE PUSH1 0x32 PUSH1 0x4 MSTORE PUSH1 0x24 PUSH1 0x0 REVERT JUMPDEST SWAP1 POP PUSH1 0x20 MUL ADD CALLDATALOAD LT ISZERO PUSH2 0x37D4 JUMPI PUSH1 0x40 MLOAD PUSH3 0x461BCD PUSH1 0xE5 SHL DUP2 MSTORE PUSH1 0x4 ADD PUSH2 0x9D5 SWAP1 PUSH2 0x4EED JUMP JUMPDEST PUSH2 0x380D DUP7 DUP7 DUP4 DUP2 DUP2 LT PUSH2 0x37F7 JUMPI PUSH4 0x4E487B71 PUSH1 0xE0 SHL PUSH1 0x0 MSTORE PUSH1 0x32 PUSH1 0x4 MSTORE PUSH1 0x24 PUSH1 0x0 REVERT JUMPDEST SWAP1 POP PUSH1 0x20 MUL ADD CALLDATALOAD DUP4 PUSH2 0x3FE8 SWAP1 SWAP2 SWAP1 PUSH4 0xFFFFFFFF AND JUMP JUMPDEST SWAP2 POP DUP1 PUSH2 0x3819 DUP2 PUSH2 0x51C9 JUMP JUMPDEST SWAP2 POP POP PUSH2 0x3784 JUMP JUMPDEST POP PUSH1 0x0 PUSH2 0x383F PUSH1 0x64 PUSH2 0x1808 PUSH1 0x5 PUSH1 0x83 SLOAD PUSH2 0x41B6 SWAP1 SWAP2 SWAP1 PUSH4 0xFFFFFFFF AND JUMP JUMPDEST SWAP1 POP PUSH1 0x0 PUSH1 0x7B PUSH1 0x0 SWAP1 SLOAD SWAP1 PUSH2 0x100 EXP SWAP1 DIV PUSH1 0x1 PUSH1 0x1 PUSH1 0xA0 SHL SUB AND PUSH1 0x1 PUSH1 0x1 PUSH1 0xA0 SHL SUB AND PUSH4 0x771A3A1D PUSH1 0x40 MLOAD DUP2 PUSH4 0xFFFFFFFF AND PUSH1 0xE0 SHL DUP2 MSTORE PUSH1 0x4 ADD PUSH1 0x20 PUSH1 0x40 MLOAD DUP1 DUP4 SUB DUP2 PUSH1 0x0 DUP8 DUP1 EXTCODESIZE ISZERO DUP1 ISZERO PUSH2 0x3893 JUMPI PUSH1 0x0 DUP1 REVERT JUMPDEST POP GAS CALL ISZERO DUP1 ISZERO PUSH2 0x38A7 JUMPI RETURNDATASIZE PUSH1 0x0 DUP1 RETURNDATACOPY RETURNDATASIZE PUSH1 0x0 REVERT JUMPDEST POP POP POP POP PUSH1 0x40 MLOAD RETURNDATASIZE PUSH1 0x1F NOT PUSH1 0x1F DUP3 ADD AND DUP3 ADD DUP1 PUSH1 0x40 MSTORE POP DUP2 ADD SWAP1 PUSH2 0x38CB SWAP2 SWAP1 PUSH2 0x46DF JUMP JUMPDEST PUSH1 0x7B SLOAD SWAP1 SWAP2 POP PUSH1 0x0 SWAP1 PUSH1 0x1 PUSH1 0x1 PUSH1 0xA0 SHL SUB AND PUSH4 0xD1ECFC68 PUSH2 0x38EA PUSH2 0x3F88 JUMP JUMPDEST PUSH1 0x40 MLOAD DUP3 PUSH4 0xFFFFFFFF AND PUSH1 0xE0 SHL DUP2 MSTORE PUSH1 0x4 ADD PUSH2 0x3906 SWAP2 SWAP1 PUSH2 0x4822 JUMP JUMPDEST PUSH1 0x20 PUSH1 0x40 MLOAD DUP1 DUP4 SUB DUP2 PUSH1 0x0 DUP8 DUP1 EXTCODESIZE ISZERO DUP1 ISZERO PUSH2 0x3920 JUMPI PUSH1 0x0 DUP1 REVERT JUMPDEST POP GAS CALL ISZERO DUP1 ISZERO PUSH2 0x3934 JUMPI RETURNDATASIZE PUSH1 0x0 DUP1 RETURNDATACOPY RETURNDATASIZE PUSH1 0x0 REVERT JUMPDEST POP POP POP POP PUSH1 0x40 MLOAD RETURNDATASIZE PUSH1 0x1F NOT PUSH1 0x1F DUP3 ADD AND DUP3 ADD DUP1 PUSH1 0x40 MSTORE POP DUP2 ADD SWAP1 PUSH2 0x3958 SWAP2 SWAP1 PUSH2 0x46AB JUMP JUMPDEST PUSH2 0x396B JUMPI PUSH2 0x3966 DUP5 DUP4 PUSH2 0x3FD6 JUMP JUMPDEST PUSH2 0x396E JUMP JUMPDEST PUSH1 0x0 JUMPDEST PUSH1 0x83 SLOAD SWAP1 SWAP2 POP PUSH2 0x397E SWAP1 DUP5 PUSH2 0x3FE8 JUMP JUMPDEST PUSH2 0x3997 DUP3 PUSH2 0x1403 DUP8 PUSH1 0x89 SLOAD PUSH2 0x3FE8 SWAP1 SWAP2 SWAP1 PUSH4 0xFFFFFFFF AND JUMP JUMPDEST GT ISZERO PUSH2 0x39B5 JUMPI PUSH1 0x40 MLOAD PUSH3 0x461BCD PUSH1 0xE5 SHL DUP2 MSTORE PUSH1 0x4 ADD PUSH2 0x9D5 SWAP1 PUSH2 0x4CBA JUMP JUMPDEST PUSH1 0x0 PUSH2 0x39C1 DUP6 DUP5 PUSH2 0xD9D JUMP JUMPDEST PUSH1 0x7B SLOAD SWAP1 SWAP7 POP SWAP1 SWAP2 POP PUSH1 0x1 PUSH1 0x1 PUSH1 0xA0 SHL SUB AND PUSH4 0x23B872DD PUSH2 0x39E0 PUSH2 0x3F88 JUMP JUMPDEST ADDRESS PUSH2 0x39EB DUP6 DUP11 PUSH2 0x5120 JUMP JUMPDEST PUSH1 0x40 MLOAD DUP5 PUSH4 0xFFFFFFFF AND PUSH1 0xE0 SHL DUP2 MSTORE PUSH1 0x4 ADD PUSH2 0x3A09 SWAP4 SWAP3 SWAP2 SWAP1 PUSH2 0x4836 JUMP JUMPDEST PUSH1 0x20 PUSH1 0x40 MLOAD DUP1 DUP4 SUB DUP2 PUSH1 0x0 DUP8 DUP1 EXTCODESIZE ISZERO DUP1 ISZERO PUSH2 0x3A23 JUMPI PUSH1 0x0 DUP1 REVERT JUMPDEST POP GAS CALL ISZERO DUP1 ISZERO PUSH2 0x3A37 JUMPI RETURNDATASIZE PUSH1 0x0 DUP1 RETURNDATACOPY RETURNDATASIZE PUSH1 0x0 REVERT JUMPDEST POP POP POP POP PUSH1 0x40 MLOAD RETURNDATASIZE PUSH1 0x1F NOT PUSH1 0x1F DUP3 ADD AND DUP3 ADD DUP1 PUSH1 0x40 MSTORE POP DUP2 ADD SWAP1 PUSH2 0x3A5B SWAP2 SWAP1 PUSH2 0x46AB JUMP JUMPDEST POP PUSH2 0x3A66 DUP6 DUP4 PUSH2 0x3FCA JUMP JUMPDEST SWAP5 POP DUP1 ISZERO PUSH2 0x3B67 JUMPI PUSH1 0x7B SLOAD PUSH1 0x40 DUP1 MLOAD PUSH4 0x4A5DB0A9 PUSH1 0xE0 SHL DUP2 MSTORE SWAP1 MLOAD PUSH1 0x1 PUSH1 0x1 PUSH1 0xA0 SHL SUB SWAP1 SWAP3 AND SWAP2 PUSH4 0xA9059CBB SWAP2 DUP4 SWAP2 PUSH4 0x4A5DB0A9 SWAP2 PUSH1 0x4 DUP1 DUP3 ADD SWAP3 PUSH1 0x20 SWAP3 SWAP1 SWAP2 SWAP1 DUP3 SWAP1 SUB ADD DUP2 PUSH1 0x0 DUP8 DUP1 EXTCODESIZE ISZERO DUP1 ISZERO PUSH2 0x3ABD JUMPI PUSH1 0x0 DUP1 REVERT JUMPDEST POP GAS CALL ISZERO DUP1 ISZERO PUSH2 0x3AD1 JUMPI RETURNDATASIZE PUSH1 0x0 DUP1 RETURNDATACOPY RETURNDATASIZE PUSH1 0x0 REVERT JUMPDEST POP POP POP POP PUSH1 0x40 MLOAD RETURNDATASIZE PUSH1 0x1F NOT PUSH1 0x1F DUP3 ADD AND DUP3 ADD DUP1 PUSH1 0x40 MSTORE POP DUP2 ADD SWAP1 PUSH2 0x3AF5 SWAP2 SWAP1 PUSH2 0x446F JUMP JUMPDEST DUP4 PUSH1 0x40 MLOAD DUP4 PUSH4 0xFFFFFFFF AND PUSH1 0xE0 SHL DUP2 MSTORE PUSH1 0x4 ADD PUSH2 0x3B13 SWAP3 SWAP2 SWAP1 PUSH2 0x485A JUMP JUMPDEST PUSH1 0x20 PUSH1 0x40 MLOAD DUP1 DUP4 SUB DUP2 PUSH1 0x0 DUP8 DUP1 EXTCODESIZE ISZERO DUP1 ISZERO PUSH2 0x3B2D JUMPI PUSH1 0x0 DUP1 REVERT JUMPDEST POP GAS CALL ISZERO DUP1 ISZERO PUSH2 0x3B41 JUMPI RETURNDATASIZE PUSH1 0x0 DUP1 RETURNDATACOPY RETURNDATASIZE PUSH1 0x0 REVERT JUMPDEST POP POP POP POP PUSH1 0x40 MLOAD RETURNDATASIZE PUSH1 0x1F NOT PUSH1 0x1F DUP3 ADD AND DUP3 ADD DUP1 PUSH1 0x40 MSTORE POP DUP2 ADD SWAP1 PUSH2 0x3B65 SWAP2 SWAP1 PUSH2 0x46AB JUMP JUMPDEST POP JUMPDEST PUSH1 0x89 SLOAD PUSH2 0x3B74 SWAP1 DUP7 PUSH2 0x3FE8 JUMP JUMPDEST PUSH1 0x89 SSTORE PUSH1 0x0 JUMPDEST DUP9 DUP2 LT ISZERO PUSH2 0x3CB6 JUMPI PUSH1 0x0 DUP11 DUP11 DUP4 DUP2 DUP2 LT PUSH2 0x3BA4 JUMPI PUSH4 0x4E487B71 PUSH1 0xE0 SHL PUSH1 0x0 MSTORE PUSH1 0x32 PUSH1 0x4 MSTORE PUSH1 0x24 PUSH1 0x0 REVERT JUMPDEST PUSH1 0x7B SLOAD PUSH1 0x20 SWAP1 SWAP2 MUL SWAP3 SWAP1 SWAP3 ADD CALLDATALOAD SWAP3 POP POP PUSH1 0x1 PUSH1 0x1 PUSH1 0xA0 SHL SUB AND PUSH4 0xD1ECFC68 PUSH2 0x3BCA PUSH2 0x3F88 JUMP JUMPDEST PUSH1 0x40 MLOAD DUP3 PUSH4 0xFFFFFFFF AND PUSH1 0xE0 SHL DUP2 MSTORE PUSH1 0x4 ADD PUSH2 0x3BE6 SWAP2 SWAP1 PUSH2 0x4822 JUMP JUMPDEST PUSH1 0x20 PUSH1 0x40 MLOAD DUP1 DUP4 SUB DUP2 PUSH1 0x0 DUP8 DUP1 EXTCODESIZE ISZERO DUP1 ISZERO PUSH2 0x3C00 JUMPI PUSH1 0x0 DUP1 REVERT JUMPDEST POP GAS CALL ISZERO DUP1 ISZERO PUSH2 0x3C14 JUMPI RETURNDATASIZE PUSH1 0x0 DUP1 RETURNDATACOPY RETURNDATASIZE PUSH1 0x0 REVERT JUMPDEST POP POP POP POP PUSH1 0x40 MLOAD RETURNDATASIZE PUSH1 0x1F NOT PUSH1 0x1F DUP3 ADD AND DUP3 ADD DUP1 PUSH1 0x40 MSTORE POP DUP2 ADD SWAP1 PUSH2 0x3C38 SWAP2 SWAP1 PUSH2 0x46AB JUMP JUMPDEST PUSH2 0x3C4B JUMPI PUSH2 0x3C46 DUP2 DUP7 PUSH2 0x3FD6 JUMP JUMPDEST PUSH2 0x3C4E JUMP JUMPDEST PUSH1 0x0 JUMPDEST SWAP4 POP PUSH2 0x3C5A DUP2 DUP7 PUSH2 0xD9D JUMP JUMPDEST SWAP1 SWAP4 POP SWAP1 POP PUSH2 0x3C69 DUP2 DUP6 PUSH2 0x3FCA JUMP JUMPDEST SWAP1 POP PUSH2 0x3CA3 PUSH2 0x3C76 PUSH2 0x3F88 JUMP JUMPDEST DUP3 DUP12 DUP12 DUP7 DUP2 DUP2 LT PUSH2 0x3C97 JUMPI PUSH4 0x4E487B71 PUSH1 0xE0 SHL PUSH1 0x0 MSTORE PUSH1 0x32 PUSH1 0x4 MSTORE PUSH1 0x24 PUSH1 0x0 REVERT JUMPDEST SWAP1 POP PUSH1 0x20 MUL ADD CALLDATALOAD PUSH2 0x41CE JUMP JUMPDEST POP DUP1 PUSH2 0x3CAE DUP2 PUSH2 0x51C9 JUMP JUMPDEST SWAP2 POP POP PUSH2 0x3B7A JUMP JUMPDEST POP PUSH1 0x83 SLOAD PUSH1 0x89 SLOAD LT PUSH2 0x3CCA JUMPI PUSH2 0x3CCA PUSH2 0x3F8C JUMP JUMPDEST PUSH2 0x3CD2 PUSH2 0x3F88 JUMP JUMPDEST PUSH1 0x1 PUSH1 0x1 PUSH1 0xA0 SHL SUB AND PUSH32 0x13A48D8FEBAD6AAB3D08D69A6538376EE5C1FC0D28B26D360870B006B5454F43 DUP11 DUP11 DUP11 DUP11 PUSH1 0x40 MLOAD PUSH2 0x3D10 SWAP5 SWAP4 SWAP3 SWAP2 SWAP1 PUSH2 0x4924 JUMP JUMPDEST PUSH1 0x40 MLOAD DUP1 SWAP2 SUB SWAP1 LOG2 POP POP POP POP POP POP POP POP POP JUMP JUMPDEST PUSH1 0x8F SLOAD PUSH6 0x10000000000 SWAP1 DIV PUSH1 0xFF AND DUP2 JUMP JUMPDEST PUSH1 0x79 DUP2 DUP2 SLOAD DUP2 LT PUSH2 0x3D45 JUMPI PUSH1 0x0 DUP1 REVERT JUMPDEST PUSH1 0x0 SWAP2 DUP3 MSTORE PUSH1 0x20 SWAP1 SWAP2 KECCAK256 PUSH1 0x2 SWAP1 SWAP2 MUL ADD DUP1 SLOAD PUSH1 0x1 SWAP1 SWAP2 ADD SLOAD PUSH1 0x1 PUSH1 0x1 PUSH1 0xA0 SHL SUB SWAP1 SWAP2 AND SWAP2 POP DUP3 JUMP JUMPDEST PUSH1 0x6B SLOAD PUSH1 0x1 PUSH1 0x1 PUSH1 0xA0 SHL SUB AND PUSH2 0x3D81 PUSH2 0x3F88 JUMP JUMPDEST PUSH1 0x1 PUSH1 0x1 PUSH1 0xA0 SHL SUB AND EQ PUSH2 0x3DA7 JUMPI PUSH1 0x40 MLOAD PUSH3 0x461BCD PUSH1 0xE5 SHL DUP2 MSTORE PUSH1 0x4 ADD PUSH2 0x9D5 SWAP1 PUSH2 0x4DF5 JUMP JUMPDEST PUSH1 0x6C DUP1 SLOAD PUSH1 0x1 PUSH1 0x1 PUSH1 0xA0 SHL SUB NOT AND SWAP1 SSTORE JUMP JUMPDEST PUSH1 0x6D SLOAD PUSH1 0x6E SLOAD PUSH1 0x6F SLOAD PUSH1 0x70 SLOAD PUSH1 0x71 SLOAD PUSH1 0x72 SLOAD PUSH1 0x73 SLOAD PUSH1 0x74 SLOAD PUSH1 0x75 SLOAD PUSH1 0x76 SLOAD PUSH1 0xFF DUP1 DUP3 AND SWAP2 PUSH2 0x100 SWAP1 DIV AND DUP12 JUMP JUMPDEST PUSH1 0x8B SLOAD DUP2 JUMP JUMPDEST PUSH1 0x8E SLOAD DUP2 JUMP JUMPDEST PUSH1 0x7B SLOAD PUSH1 0x1 PUSH1 0x1 PUSH1 0xA0 SHL SUB AND DUP2 JUMP JUMPDEST PUSH1 0x8C SLOAD DUP2 JUMP JUMPDEST PUSH1 0x0 DUP1 PUSH1 0x65 PUSH1 0x0 SWAP1 SLOAD SWAP1 PUSH2 0x100 EXP SWAP1 DIV PUSH1 0x1 PUSH1 0x1 PUSH1 0xA0 SHL SUB AND PUSH1 0x1 PUSH1 0x1 PUSH1 0xA0 SHL SUB AND PUSH4 0x313CE567 PUSH1 0x40 MLOAD DUP2 PUSH4 0xFFFFFFFF AND PUSH1 0xE0 SHL DUP2 MSTORE PUSH1 0x4 ADD PUSH1 0x20 PUSH1 0x40 MLOAD DUP1 DUP4 SUB DUP2 DUP7 DUP1 EXTCODESIZE ISZERO DUP1 ISZERO PUSH2 0x3E58 JUMPI PUSH1 0x0 DUP1 REVERT JUMPDEST POP GAS STATICCALL ISZERO DUP1 ISZERO PUSH2 0x3E6C JUMPI RETURNDATASIZE PUSH1 0x0 DUP1 RETURNDATACOPY RETURNDATASIZE PUSH1 0x0 REVERT JUMPDEST POP POP POP POP PUSH1 0x40 MLOAD RETURNDATASIZE PUSH1 0x1F NOT PUSH1 0x1F DUP3 ADD AND DUP3 ADD DUP1 PUSH1 0x40 MSTORE POP DUP2 ADD SWAP1 PUSH2 0x1FC9 SWAP2 SWAP1 PUSH2 0x478A JUMP JUMPDEST PUSH1 0x77 DUP2 DUP2 SLOAD DUP2 LT PUSH2 0x3EA0 JUMPI PUSH1 0x0 DUP1 REVERT JUMPDEST PUSH1 0x0 SWAP2 DUP3 MSTORE PUSH1 0x20 SWAP1 SWAP2 KECCAK256 PUSH1 0x2 SWAP1 SWAP2 MUL ADD DUP1 SLOAD PUSH1 0x1 SWAP1 SWAP2 ADD SLOAD SWAP1 SWAP2 POP DUP3 JUMP JUMPDEST PUSH2 0x3EC6 PUSH2 0x3F88 JUMP JUMPDEST PUSH1 0x1 PUSH1 0x1 PUSH1 0xA0 SHL SUB AND PUSH2 0x3ED7 PUSH2 0x1F19 JUMP JUMPDEST PUSH1 0x1 PUSH1 0x1 PUSH1 0xA0 SHL SUB AND EQ PUSH2 0x3EFD JUMPI PUSH1 0x40 MLOAD PUSH3 0x461BCD PUSH1 0xE5 SHL DUP2 MSTORE PUSH1 0x4 ADD PUSH2 0x9D5 SWAP1 PUSH2 0x4E36 JUMP JUMPDEST PUSH1 0x1 PUSH1 0x1 PUSH1 0xA0 SHL SUB DUP2 AND PUSH2 0x3F23 JUMPI PUSH1 0x40 MLOAD PUSH3 0x461BCD PUSH1 0xE5 SHL DUP2 MSTORE PUSH1 0x4 ADD PUSH2 0x9D5 SWAP1 PUSH2 0x4AEF JUMP JUMPDEST PUSH2 0x1E87 DUP2 PUSH2 0x4164 JUMP JUMPDEST PUSH1 0x8D SLOAD DUP2 JUMP JUMPDEST PUSH1 0x66 SLOAD PUSH1 0x1 PUSH1 0x1 PUSH1 0xA0 SHL SUB AND SWAP1 JUMP JUMPDEST PUSH1 0x7D SLOAD PUSH1 0x40 MLOAD PUSH4 0x70A08231 PUSH1 0xE0 SHL DUP2 MSTORE PUSH1 0x0 SWAP2 PUSH1 0x1 PUSH1 0x1 PUSH1 0xA0 SHL SUB AND SWAP1 PUSH4 0x70A08231 SWAP1 PUSH2 0x366A SWAP1 ADDRESS SWAP1 PUSH1 0x4 ADD PUSH2 0x4822 JUMP JUMPDEST PUSH1 0x80 SLOAD DUP2 JUMP JUMPDEST PUSH1 0x78 DUP2 DUP2 SLOAD DUP2 LT PUSH2 0x3D45 JUMPI PUSH1 0x0 DUP1 REVERT JUMPDEST CALLER SWAP1 JUMP JUMPDEST PUSH1 0x8F DUP1 SLOAD PUSH4 0xFF000000 NOT AND PUSH4 0x1000000 OR SWAP1 SSTORE PUSH1 0x40 MLOAD PUSH32 0x2E136745550967F28B779CE8C395CA060A2F844EDFB5B06631FE677F66F9E305 SWAP1 PUSH1 0x0 SWAP1 LOG1 JUMP JUMPDEST PUSH1 0x0 PUSH2 0x1735 DUP3 DUP5 PUSH2 0x5177 JUMP JUMPDEST PUSH1 0x0 PUSH2 0x1735 PUSH2 0x2710 PUSH2 0x1808 DUP6 DUP6 PUSH2 0x41B6 JUMP JUMPDEST PUSH1 0x0 PUSH2 0x1735 DUP3 DUP5 PUSH2 0x5120 JUMP JUMPDEST PUSH1 0x66 SLOAD PUSH1 0x40 MLOAD PUSH4 0x95EA7B3 PUSH1 0xE0 SHL DUP2 MSTORE PUSH1 0x1 PUSH1 0x1 PUSH1 0xA0 SHL SUB SWAP1 SWAP2 AND SWAP1 PUSH4 0x95EA7B3 SWAP1 PUSH2 0x4026 SWAP1 DUP6 SWAP1 DUP6 SWAP1 PUSH1 0x4 ADD PUSH2 0x485A JUMP JUMPDEST PUSH1 0x20 PUSH1 0x40 MLOAD DUP1 DUP4 SUB DUP2 PUSH1 0x0 DUP8 DUP1 EXTCODESIZE ISZERO DUP1 ISZERO PUSH2 0x4040 JUMPI PUSH1 0x0 DUP1 REVERT JUMPDEST POP GAS CALL ISZERO DUP1 ISZERO PUSH2 0x4054 JUMPI RETURNDATASIZE PUSH1 0x0 DUP1 RETURNDATACOPY RETURNDATASIZE PUSH1 0x0 REVERT JUMPDEST POP POP POP POP PUSH1 0x40 MLOAD RETURNDATASIZE PUSH1 0x1F NOT PUSH1 0x1F DUP3 ADD AND DUP3 ADD DUP1 PUSH1 0x40 MSTORE POP DUP2 ADD SWAP1 PUSH2 0x4078 SWAP2 SWAP1 PUSH2 0x46AB JUMP JUMPDEST POP DUP2 PUSH1 0x1 PUSH1 0x1 PUSH1 0xA0 SHL SUB AND PUSH32 0xD77DF63D9076D067D9FD7AF16C3D67DB48B84064C3314F5900AE919922D364A1 DUP3 PUSH1 0x40 MLOAD PUSH2 0x40B2 SWAP2 SWAP1 PUSH2 0x48DC JUMP JUMPDEST PUSH1 0x40 MLOAD DUP1 SWAP2 SUB SWAP1 LOG2 POP POP JUMP JUMPDEST PUSH1 0x1 PUSH1 0x1 PUSH1 0xA0 SHL SUB DUP5 AND PUSH2 0x40D1 JUMPI PUSH1 0x0 DUP1 REVERT JUMPDEST PUSH1 0x67 SLOAD PUSH1 0x1 PUSH1 0x1 PUSH1 0xA0 SHL SUB AND PUSH4 0x38ED1739 DUP5 DUP5 PUSH2 0x40EC PUSH2 0x20D5 JUMP JUMPDEST DUP9 DUP7 PUSH1 0x40 MLOAD DUP7 PUSH4 0xFFFFFFFF AND PUSH1 0xE0 SHL DUP2 MSTORE PUSH1 0x4 ADD PUSH2 0x410E SWAP6 SWAP5 SWAP4 SWAP3 SWAP2 SWAP1 PUSH2 0x5041 JUMP JUMPDEST PUSH1 0x0 PUSH1 0x40 MLOAD DUP1 DUP4 SUB DUP2 PUSH1 0x0 DUP8 DUP1 EXTCODESIZE ISZERO DUP1 ISZERO PUSH2 0x4128 JUMPI PUSH1 0x0 DUP1 REVERT JUMPDEST POP GAS CALL ISZERO DUP1 ISZERO PUSH2 0x413C JUMPI RETURNDATASIZE PUSH1 0x0 DUP1 RETURNDATACOPY RETURNDATASIZE PUSH1 0x0 REVERT JUMPDEST POP POP POP POP PUSH1 0x40 MLOAD RETURNDATASIZE PUSH1 0x0 DUP3 RETURNDATACOPY PUSH1 0x1F RETURNDATASIZE SWAP1 DUP2 ADD PUSH1 0x1F NOT AND DUP3 ADD PUSH1 0x40 MSTORE PUSH2 0x1525 SWAP2 SWAP1 DUP2 ADD SWAP1 PUSH2 0x45D5 JUMP JUMPDEST PUSH1 0x33 DUP1 SLOAD PUSH1 0x1 PUSH1 0x1 PUSH1 0xA0 SHL SUB DUP4 DUP2 AND PUSH1 0x1 PUSH1 0x1 PUSH1 0xA0 SHL SUB NOT DUP4 AND DUP2 OR SWAP1 SWAP4 SSTORE PUSH1 0x40 MLOAD SWAP2 AND SWAP2 SWAP1 DUP3 SWAP1 PUSH32 0x8BE0079C531659141344CD1FD0A4F28419497F9722A3DAAFE3B4186F6B6457E0 SWAP1 PUSH1 0x0 SWAP1 LOG3 POP POP JUMP JUMPDEST PUSH1 0x0 PUSH2 0x1735 DUP3 DUP5 PUSH2 0x5158 JUMP JUMPDEST PUSH1 0x0 PUSH2 0x1735 DUP3 DUP5 PUSH2 0x5138 JUMP JUMPDEST PUSH1 0x78 PUSH1 0x40 MLOAD DUP1 PUSH1 0x40 ADD PUSH1 0x40 MSTORE DUP1 DUP6 PUSH1 0x1 PUSH1 0x1 PUSH1 0xA0 SHL SUB AND DUP2 MSTORE PUSH1 0x20 ADD PUSH1 0x7A PUSH1 0x0 DUP8 PUSH1 0x1 PUSH1 0x1 PUSH1 0xA0 SHL SUB AND PUSH1 0x1 PUSH1 0x1 PUSH1 0xA0 SHL SUB AND DUP2 MSTORE PUSH1 0x20 ADD SWAP1 DUP2 MSTORE PUSH1 0x20 ADD PUSH1 0x0 KECCAK256 DUP1 SLOAD SWAP1 POP DUP2 MSTORE POP SWAP1 DUP1 PUSH1 0x1 DUP2 SLOAD ADD DUP1 DUP3 SSTORE DUP1 SWAP2 POP POP PUSH1 0x1 SWAP1 SUB SWAP1 PUSH1 0x0 MSTORE PUSH1 0x20 PUSH1 0x0 KECCAK256 SWAP1 PUSH1 0x2 MUL ADD PUSH1 0x0 SWAP1 SWAP2 SWAP1 SWAP2 SWAP1 SWAP2 POP PUSH1 0x0 DUP3 ADD MLOAD DUP2 PUSH1 0x0 ADD PUSH1 0x0 PUSH2 0x100 EXP DUP2 SLOAD DUP2 PUSH1 0x1 PUSH1 0x1 PUSH1 0xA0 SHL SUB MUL NOT AND SWAP1 DUP4 PUSH1 0x1 PUSH1 0x1 PUSH1 0xA0 SHL SUB AND MUL OR SWAP1 SSTORE POP PUSH1 0x20 DUP3 ADD MLOAD DUP2 PUSH1 0x1 ADD SSTORE POP POP PUSH1 0x7A PUSH1 0x0 DUP5 PUSH1 0x1 PUSH1 0x1 PUSH1 0xA0 SHL SUB AND PUSH1 0x1 PUSH1 0x1 PUSH1 0xA0 SHL SUB AND DUP2 MSTORE PUSH1 0x20 ADD SWAP1 DUP2 MSTORE PUSH1 0x20 ADD PUSH1 0x0 KECCAK256 PUSH1 0x40 MLOAD DUP1 PUSH2 0x120 ADD PUSH1 0x40 MSTORE DUP1 DUP5 DUP2 MSTORE PUSH1 0x20 ADD TIMESTAMP DUP2 MSTORE PUSH1 0x20 ADD PUSH1 0x0 DUP2 MSTORE PUSH1 0x20 ADD TIMESTAMP DUP2 MSTORE PUSH1 0x20 ADD DUP4 DUP2 MSTORE PUSH1 0x20 ADD PUSH1 0x0 NOT DUP2 MSTORE PUSH1 0x20 ADD PUSH1 0x0 NOT DUP2 MSTORE PUSH1 0x20 ADD PUSH1 0x0 ISZERO ISZERO DUP2 MSTORE PUSH1 0x20 ADD PUSH1 0x0 ISZERO ISZERO DUP2 MSTORE POP SWAP1 DUP1 PUSH1 0x1 DUP2 SLOAD ADD DUP1 DUP3 SSTORE DUP1 SWAP2 POP POP PUSH1 0x1 SWAP1 SUB SWAP1 PUSH1 0x0 MSTORE PUSH1 0x20 PUSH1 0x0 KECCAK256 SWAP1 PUSH1 0x8 MUL ADD PUSH1 0x0 SWAP1 SWAP2 SWAP1 SWAP2 SWAP1 SWAP2 POP PUSH1 0x0 DUP3 ADD MLOAD DUP2 PUSH1 0x0 ADD SSTORE PUSH1 0x20 DUP3 ADD MLOAD DUP2 PUSH1 0x1 ADD SSTORE PUSH1 0x40 DUP3 ADD MLOAD DUP2 PUSH1 0x2 ADD SSTORE PUSH1 0x60 DUP3 ADD MLOAD DUP2 PUSH1 0x3 ADD SSTORE PUSH1 0x80 DUP3 ADD MLOAD DUP2 PUSH1 0x4 ADD SSTORE PUSH1 0xA0 DUP3 ADD MLOAD DUP2 PUSH1 0x5 ADD SSTORE PUSH1 0xC0 DUP3 ADD MLOAD DUP2 PUSH1 0x6 ADD SSTORE PUSH1 0xE0 DUP3 ADD MLOAD DUP2 PUSH1 0x7 ADD PUSH1 0x0 PUSH2 0x100 EXP DUP2 SLOAD DUP2 PUSH1 0xFF MUL NOT AND SWAP1 DUP4 ISZERO ISZERO MUL OR SWAP1 SSTORE POP PUSH2 0x100 DUP3 ADD MLOAD DUP2 PUSH1 0x7 ADD PUSH1 0x1 PUSH2 0x100 EXP DUP2 SLOAD DUP2 PUSH1 0xFF MUL NOT AND SWAP1 DUP4 ISZERO ISZERO MUL OR SWAP1 SSTORE POP POP POP POP POP POP JUMP JUMPDEST POP DUP1 SLOAD PUSH1 0x0 DUP3 SSTORE PUSH1 0x2 MUL SWAP1 PUSH1 0x0 MSTORE PUSH1 0x20 PUSH1 0x0 KECCAK256 SWAP1 DUP2 ADD SWAP1 PUSH2 0x1E87 SWAP2 SWAP1 JUMPDEST DUP1 DUP3 GT ISZERO PUSH2 0x43E1 JUMPI DUP1 SLOAD PUSH1 0x1 PUSH1 0x1 PUSH1 0xA0 SHL SUB NOT AND DUP2 SSTORE PUSH1 0x0 PUSH1 0x1 DUP3 ADD SSTORE PUSH1 0x2 ADD PUSH2 0x43BC JUMP JUMPDEST POP SWAP1 JUMP JUMPDEST DUP1 PUSH2 0x320 DUP2 ADD DUP4 LT ISZERO PUSH2 0x8F8 JUMPI PUSH1 0x0 DUP1 REVERT JUMPDEST PUSH1 0x0 DUP1 DUP4 PUSH1 0x1F DUP5 ADD SLT PUSH2 0x4408 JUMPI DUP2 DUP3 REVERT JUMPDEST POP DUP2 CALLDATALOAD PUSH8 0xFFFFFFFFFFFFFFFF DUP2 GT ISZERO PUSH2 0x441F JUMPI DUP2 DUP3 REVERT JUMPDEST PUSH1 0x20 DUP4 ADD SWAP2 POP DUP4 PUSH1 0x20 DUP1 DUP4 MUL DUP6 ADD ADD GT ISZERO PUSH2 0xDF7 JUMPI PUSH1 0x0 DUP1 REVERT JUMPDEST DUP1 MLOAD PUSH10 0xFFFFFFFFFFFFFFFFFFFF DUP2 AND DUP2 EQ PUSH2 0xEBD JUMPI PUSH1 0x0 DUP1 REVERT JUMPDEST PUSH1 0x0 PUSH1 0x20 DUP3 DUP5 SUB SLT ISZERO PUSH2 0x4464 JUMPI DUP1 DUP2 REVERT JUMPDEST DUP2 CALLDATALOAD PUSH2 0x1735 DUP2 PUSH2 0x5210 JUMP JUMPDEST PUSH1 0x0 PUSH1 0x20 DUP3 DUP5 SUB SLT ISZERO PUSH2 0x4480 JUMPI DUP1 DUP2 REVERT JUMPDEST DUP2 MLOAD PUSH2 0x1735 DUP2 PUSH2 0x5210 JUMP JUMPDEST PUSH1 0x0 DUP1 PUSH1 0x0 PUSH1 0x60 DUP5 DUP7 SUB SLT ISZERO PUSH2 0x449F JUMPI DUP2 DUP3 REVERT JUMPDEST DUP4 CALLDATALOAD PUSH2 0x44AA DUP2 PUSH2 0x5210 JUMP JUMPDEST SWAP3 POP PUSH1 0x20 DUP5 ADD CALLDATALOAD PUSH2 0x44BA DUP2 PUSH2 0x5210 JUMP JUMPDEST SWAP2 POP PUSH1 0x40 DUP5 ADD CALLDATALOAD PUSH2 0x44CA DUP2 PUSH2 0x5210 JUMP JUMPDEST DUP1 SWAP2 POP POP SWAP3 POP SWAP3 POP SWAP3 JUMP JUMPDEST PUSH1 0x0 DUP1 PUSH1 0x40 DUP4 DUP6 SUB SLT ISZERO PUSH2 0x44E7 JUMPI DUP2 DUP3 REVERT JUMPDEST DUP3 CALLDATALOAD PUSH2 0x44F2 DUP2 PUSH2 0x5210 JUMP JUMPDEST SWAP5 PUSH1 0x20 SWAP4 SWAP1 SWAP4 ADD CALLDATALOAD SWAP4 POP POP POP JUMP JUMPDEST PUSH1 0x0 DUP1 PUSH1 0x0 PUSH1 0x60 DUP5 DUP7 SUB SLT ISZERO PUSH2 0x4514 JUMPI DUP3 DUP4 REVERT JUMPDEST DUP4 CALLDATALOAD PUSH2 0x451F DUP2 PUSH2 0x5210 JUMP JUMPDEST SWAP3 POP PUSH1 0x20 DUP5 ADD CALLDATALOAD SWAP2 POP PUSH1 0x40 DUP5 ADD CALLDATALOAD PUSH2 0x44CA DUP2 PUSH2 0x5210 JUMP JUMPDEST PUSH1 0x0 DUP1 PUSH2 0x640 DUP4 DUP6 SUB SLT ISZERO PUSH2 0x4549 JUMPI DUP2 DUP3 REVERT JUMPDEST PUSH2 0x4553 DUP5 DUP5 PUSH2 0x43E5 JUMP JUMPDEST SWAP2 POP PUSH2 0x4563 DUP5 PUSH2 0x320 DUP6 ADD PUSH2 0x43E5 JUMP JUMPDEST SWAP1 POP SWAP3 POP SWAP3 SWAP1 POP JUMP JUMPDEST PUSH1 0x0 DUP1 PUSH1 0x0 DUP1 PUSH1 0x40 DUP6 DUP8 SUB SLT ISZERO PUSH2 0x4581 JUMPI DUP1 DUP2 REVERT JUMPDEST DUP5 CALLDATALOAD PUSH8 0xFFFFFFFFFFFFFFFF DUP1 DUP3 GT ISZERO PUSH2 0x4598 JUMPI DUP3 DUP4 REVERT JUMPDEST PUSH2 0x45A4 DUP9 DUP4 DUP10 ADD PUSH2 0x43F7 JUMP JUMPDEST SWAP1 SWAP7 POP SWAP5 POP PUSH1 0x20 DUP8 ADD CALLDATALOAD SWAP2 POP DUP1 DUP3 GT ISZERO PUSH2 0x45BC JUMPI DUP3 DUP4 REVERT JUMPDEST POP PUSH2 0x45C9 DUP8 DUP3 DUP9 ADD PUSH2 0x43F7 JUMP JUMPDEST SWAP6 SWAP9 SWAP5 SWAP8 POP SWAP6 POP POP POP POP JUMP JUMPDEST PUSH1 0x0 PUSH1 0x20 DUP1 DUP4 DUP6 SUB SLT ISZERO PUSH2 0x45E7 JUMPI DUP2 DUP3 REVERT JUMPDEST DUP3 MLOAD PUSH8 0xFFFFFFFFFFFFFFFF DUP1 DUP3 GT ISZERO PUSH2 0x45FE JUMPI DUP4 DUP5 REVERT JUMPDEST DUP2 DUP6 ADD SWAP2 POP DUP6 PUSH1 0x1F DUP4 ADD SLT PUSH2 0x4611 JUMPI DUP4 DUP5 REVERT JUMPDEST DUP2 MLOAD DUP2 DUP2 GT ISZERO PUSH2 0x4623 JUMPI PUSH2 0x4623 PUSH2 0x51FA JUMP JUMPDEST DUP4 DUP2 MUL PUSH1 0x40 MLOAD DUP6 DUP3 DUP3 ADD ADD DUP2 DUP2 LT DUP6 DUP3 GT OR ISZERO PUSH2 0x4642 JUMPI PUSH2 0x4642 PUSH2 0x51FA JUMP JUMPDEST PUSH1 0x40 MSTORE DUP3 DUP2 MSTORE DUP6 DUP2 ADD SWAP4 POP DUP5 DUP7 ADD DUP3 DUP7 ADD DUP8 ADD DUP11 LT ISZERO PUSH2 0x4660 JUMPI DUP8 DUP9 REVERT JUMPDEST DUP8 SWAP6 POP JUMPDEST DUP4 DUP7 LT ISZERO PUSH2 0x4682 JUMPI DUP1 MLOAD DUP6 MSTORE PUSH1 0x1 SWAP6 SWAP1 SWAP6 ADD SWAP5 SWAP4 DUP7 ADD SWAP4 DUP7 ADD PUSH2 0x4664 JUMP JUMPDEST POP SWAP9 SWAP8 POP POP POP POP POP POP POP POP JUMP JUMPDEST PUSH1 0x0 PUSH1 0x20 DUP3 DUP5 SUB SLT ISZERO PUSH2 0x46A0 JUMPI DUP1 DUP2 REVERT JUMPDEST DUP2 CALLDATALOAD PUSH2 0x1735 DUP2 PUSH2 0x5225 JUMP JUMPDEST PUSH1 0x0 PUSH1 0x20 DUP3 DUP5 SUB SLT ISZERO PUSH2 0x46BC JUMPI DUP1 DUP2 REVERT JUMPDEST DUP2 MLOAD PUSH2 0x1735 DUP2 PUSH2 0x5225 JUMP JUMPDEST PUSH1 0x0 PUSH1 0x20 DUP3 DUP5 SUB SLT ISZERO PUSH2 0x46D8 JUMPI DUP1 DUP2 REVERT JUMPDEST POP CALLDATALOAD SWAP2 SWAP1 POP JUMP JUMPDEST PUSH1 0x0 PUSH1 0x20 DUP3 DUP5 SUB SLT ISZERO PUSH2 0x46F0 JUMPI DUP1 DUP2 REVERT JUMPDEST POP MLOAD SWAP2 SWAP1 POP JUMP JUMPDEST PUSH1 0x0 DUP1 PUSH1 0x40 DUP4 DUP6 SUB SLT ISZERO PUSH2 0x4709 JUMPI DUP2 DUP3 REVERT JUMPDEST POP POP DUP1 CALLDATALOAD SWAP3 PUSH1 0x20 SWAP1 SWAP2 ADD CALLDATALOAD SWAP2 POP JUMP JUMPDEST PUSH1 0x0 DUP1 PUSH1 0x40 DUP4 DUP6 SUB SLT ISZERO PUSH2 0x472A JUMPI DUP2 DUP3 REVERT JUMPDEST POP POP DUP1 MLOAD PUSH1 0x20 SWAP1 SWAP2 ADD MLOAD SWAP1 SWAP3 SWAP1 SWAP2 POP JUMP JUMPDEST PUSH1 0x0 DUP1 PUSH1 0x0 DUP1 PUSH1 0x0 PUSH1 0xA0 DUP7 DUP9 SUB SLT ISZERO PUSH2 0x4752 JUMPI DUP3 DUP4 REVERT JUMPDEST PUSH2 0x475B DUP7 PUSH2 0x4439 JUMP JUMPDEST SWAP5 POP PUSH1 0x20 DUP7 ADD MLOAD SWAP4 POP PUSH1 0x40 DUP7 ADD MLOAD SWAP3 POP PUSH1 0x60 DUP7 ADD MLOAD SWAP2 POP PUSH2 0x477E PUSH1 0x80 DUP8 ADD PUSH2 0x4439 JUMP JUMPDEST SWAP1 POP SWAP3 SWAP6 POP SWAP3 SWAP6 SWAP1 SWAP4 POP JUMP JUMPDEST PUSH1 0x0 PUSH1 0x20 DUP3 DUP5 SUB SLT ISZERO PUSH2 0x479B JUMPI DUP1 DUP2 REVERT JUMPDEST DUP2 MLOAD PUSH1 0xFF DUP2 AND DUP2 EQ PUSH2 0x1735 JUMPI DUP2 DUP3 REVERT JUMPDEST PUSH1 0x0 DUP2 MLOAD DUP1 DUP5 MSTORE PUSH1 0x20 DUP1 DUP6 ADD SWAP5 POP DUP1 DUP5 ADD DUP4 JUMPDEST DUP4 DUP2 LT ISZERO PUSH2 0x47E3 JUMPI DUP2 MLOAD PUSH1 0x1 PUSH1 0x1 PUSH1 0xA0 SHL SUB AND DUP8 MSTORE SWAP6 DUP3 ADD SWAP6 SWAP1 DUP3 ADD SWAP1 PUSH1 0x1 ADD PUSH2 0x47BE JUMP JUMPDEST POP SWAP5 SWAP6 SWAP5 POP POP POP POP POP JUMP JUMPDEST DUP2 DUP4 MSTORE PUSH1 0x0 PUSH1 0x1 PUSH1 0x1 PUSH1 0xFB SHL SUB DUP4 GT ISZERO PUSH2 0x4806 JUMPI DUP1 DUP2 REVERT JUMPDEST PUSH1 0x20 DUP4 MUL DUP1 DUP4 PUSH1 0x20 DUP8 ADD CALLDATACOPY SWAP4 SWAP1 SWAP4 ADD PUSH1 0x20 ADD SWAP3 DUP4 MSTORE POP SWAP1 SWAP2 SWAP1 POP JUMP JUMPDEST PUSH1 0x1 PUSH1 0x1 PUSH1 0xA0 SHL SUB SWAP2 SWAP1 SWAP2 AND DUP2 MSTORE PUSH1 0x20 ADD SWAP1 JUMP JUMPDEST PUSH1 0x1 PUSH1 0x1 PUSH1 0xA0 SHL SUB SWAP4 DUP5 AND DUP2 MSTORE SWAP2 SWAP1 SWAP3 AND PUSH1 0x20 DUP3 ADD MSTORE PUSH1 0x40 DUP2 ADD SWAP2 SWAP1 SWAP2 MSTORE PUSH1 0x60 ADD SWAP1 JUMP JUMPDEST PUSH1 0x1 PUSH1 0x1 PUSH1 0xA0 SHL SUB SWAP3 SWAP1 SWAP3 AND DUP3 MSTORE PUSH1 0x20 DUP3 ADD MSTORE PUSH1 0x40 ADD SWAP1 JUMP JUMPDEST PUSH1 0x0 PUSH1 0x20 DUP3 MSTORE PUSH2 0x1735 PUSH1 0x20 DUP4 ADD DUP5 PUSH2 0x47AB JUMP JUMPDEST PUSH1 0x0 PUSH1 0x40 DUP3 MSTORE PUSH2 0x4899 PUSH1 0x40 DUP4 ADD DUP6 PUSH2 0x47AB JUMP JUMPDEST DUP3 DUP2 SUB PUSH1 0x20 DUP5 DUP2 ADD SWAP2 SWAP1 SWAP2 MSTORE DUP5 MLOAD DUP1 DUP4 MSTORE DUP6 DUP3 ADD SWAP3 DUP3 ADD SWAP1 DUP5 JUMPDEST DUP2 DUP2 LT ISZERO PUSH2 0x48CF JUMPI DUP5 MLOAD DUP4 MSTORE SWAP4 DUP4 ADD SWAP4 SWAP2 DUP4 ADD SWAP2 PUSH1 0x1 ADD PUSH2 0x48B3 JUMP JUMPDEST POP SWAP1 SWAP8 SWAP7 POP POP POP POP POP POP POP JUMP JUMPDEST SWAP1 DUP2 MSTORE PUSH1 0x20 ADD SWAP1 JUMP JUMPDEST SWAP2 DUP3 MSTORE PUSH1 0x20 DUP3 ADD MSTORE PUSH1 0x40 ADD SWAP1 JUMP JUMPDEST SWAP3 DUP4 MSTORE PUSH1 0x20 DUP4 ADD SWAP2 SWAP1 SWAP2 MSTORE PUSH1 0x40 DUP3 ADD MSTORE PUSH1 0x60 ADD SWAP1 JUMP JUMPDEST SWAP4 DUP5 MSTORE PUSH1 0x20 DUP5 ADD SWAP3 SWAP1 SWAP3 MSTORE PUSH1 0x40 DUP4 ADD MSTORE PUSH1 0x60 DUP3 ADD MSTORE PUSH1 0x80 ADD SWAP1 JUMP JUMPDEST PUSH1 0x0 PUSH1 0x40 DUP3 MSTORE PUSH2 0x4938 PUSH1 0x40 DUP4 ADD DUP7 DUP9 PUSH2 0x47EE JUMP JUMPDEST DUP3 DUP2 SUB PUSH1 0x20 DUP5 ADD MSTORE PUSH2 0x494B DUP2 DUP6 DUP8 PUSH2 0x47EE JUMP JUMPDEST SWAP8 SWAP7 POP POP POP POP POP POP POP JUMP JUMPDEST SWAP1 ISZERO ISZERO DUP2 MSTORE PUSH1 0x20 ADD SWAP1 JUMP JUMPDEST PUSH1 0x0 PUSH1 0x20 DUP1 DUP4 MSTORE DUP4 MLOAD DUP1 DUP3 DUP6 ADD MSTORE DUP3 JUMPDEST DUP2 DUP2 LT ISZERO PUSH2 0x498D JUMPI DUP6 DUP2 ADD DUP4 ADD MLOAD DUP6 DUP3 ADD PUSH1 0x40 ADD MSTORE DUP3 ADD PUSH2 0x4971 JUMP JUMPDEST DUP2 DUP2 GT ISZERO PUSH2 0x499E JUMPI DUP4 PUSH1 0x40 DUP4 DUP8 ADD ADD MSTORE JUMPDEST POP PUSH1 0x1F ADD PUSH1 0x1F NOT AND SWAP3 SWAP1 SWAP3 ADD PUSH1 0x40 ADD SWAP4 SWAP3 POP POP POP JUMP JUMPDEST PUSH1 0x20 DUP1 DUP3 MSTORE PUSH1 0x17 SWAP1 DUP3 ADD MSTORE PUSH32 0x30333831207468697320696E6465782065786365656473000000000000000000 PUSH1 0x40 DUP3 ADD MSTORE PUSH1 0x60 ADD SWAP1 JUMP JUMPDEST PUSH1 0x20 DUP1 DUP3 MSTORE PUSH1 0x13 SWAP1 DUP3 ADD MSTORE PUSH19 0xC0CCC4C08141BDBDB081A5CC81B1BD8DAD959 PUSH1 0x6A SHL PUSH1 0x40 DUP3 ADD MSTORE PUSH1 0x60 ADD SWAP1 JUMP JUMPDEST PUSH1 0x20 DUP1 DUP3 MSTORE PUSH1 0x22 SWAP1 DUP3 ADD MSTORE PUSH32 0x303331362043616E206E6F74207374616B65206166746572206C6F636B206461 PUSH1 0x40 DUP3 ADD MSTORE PUSH2 0x7465 PUSH1 0xF0 SHL PUSH1 0x60 DUP3 ADD MSTORE PUSH1 0x80 ADD SWAP1 JUMP JUMPDEST PUSH1 0x20 DUP1 DUP3 MSTORE PUSH1 0x32 SWAP1 DUP3 ADD MSTORE PUSH32 0x30333135207374616B696E67416D6F756E7420616E642070726564696374696F PUSH1 0x40 DUP3 ADD MSTORE PUSH18 0xDCE640D8CADCCEE8D040DAD2E6DAC2E8C6D PUSH1 0x73 SHL PUSH1 0x60 DUP3 ADD MSTORE PUSH1 0x80 ADD SWAP1 JUMP JUMPDEST PUSH1 0x20 DUP1 DUP3 MSTORE PUSH1 0x23 SWAP1 DUP3 ADD MSTORE PUSH32 0x303334302054686520706F6F6C206973206F6E6C7920544F544D207265776172 PUSH1 0x40 DUP3 ADD MSTORE PUSH3 0x3232B9 PUSH1 0xE9 SHL PUSH1 0x60 DUP3 ADD MSTORE PUSH1 0x80 ADD SWAP1 JUMP JUMPDEST PUSH1 0x20 DUP1 DUP3 MSTORE PUSH1 0x26 SWAP1 DUP3 ADD MSTORE PUSH32 0x4F776E61626C653A206E6577206F776E657220697320746865207A65726F2061 PUSH1 0x40 DUP3 ADD MSTORE PUSH6 0x646472657373 PUSH1 0xD0 SHL PUSH1 0x60 DUP3 ADD MSTORE PUSH1 0x80 ADD SWAP1 JUMP JUMPDEST PUSH1 0x20 DUP1 DUP3 MSTORE PUSH1 0x2C SWAP1 DUP3 ADD MSTORE PUSH32 0x303336302043616E277420656E6420706F6F6C206265666F726520746865206D PUSH1 0x40 DUP3 ADD MSTORE PUSH12 0x617475726974792074696D65 PUSH1 0xA0 SHL PUSH1 0x60 DUP3 ADD MSTORE PUSH1 0x80 ADD SWAP1 JUMP JUMPDEST PUSH1 0x20 DUP1 DUP3 MSTORE PUSH1 0x16 SWAP1 DUP3 ADD MSTORE PUSH22 0xC0CCD8C88199A5C9CDD081CDA1BDD5B19081CDBDC9D PUSH1 0x52 SHL PUSH1 0x40 DUP3 ADD MSTORE PUSH1 0x60 ADD SWAP1 JUMP JUMPDEST PUSH1 0x20 DUP1 DUP3 MSTORE PUSH1 0x14 SWAP1 DUP3 ADD MSTORE PUSH20 0x3033343220446561646C696E65206973206C6F77 PUSH1 0x60 SHL PUSH1 0x40 DUP3 ADD MSTORE PUSH1 0x60 ADD SWAP1 JUMP JUMPDEST PUSH1 0x20 DUP1 DUP3 MSTORE PUSH1 0x1D SWAP1 DUP3 ADD MSTORE PUSH32 0x5573657220646F6573206E6F74206861766520616E79207374616B6573000000 PUSH1 0x40 DUP3 ADD MSTORE PUSH1 0x60 ADD SWAP1 JUMP JUMPDEST PUSH1 0x20 DUP1 DUP3 MSTORE PUSH1 0x4 SWAP1 DUP3 ADD MSTORE PUSH4 0x3033323 PUSH1 0xE4 SHL PUSH1 0x40 DUP3 ADD MSTORE PUSH1 0x60 ADD SWAP1 JUMP JUMPDEST PUSH1 0x20 DUP1 DUP3 MSTORE PUSH1 0x22 SWAP1 DUP3 ADD MSTORE PUSH32 0x4E6F74206368616E67696E67207468652061637469766174696F6E2073746174 PUSH1 0x40 DUP3 ADD MSTORE PUSH2 0x7573 PUSH1 0xF0 SHL PUSH1 0x60 DUP3 ADD MSTORE PUSH1 0x80 ADD SWAP1 JUMP JUMPDEST PUSH1 0x20 DUP1 DUP3 MSTORE PUSH1 0x24 SWAP1 DUP3 ADD MSTORE PUSH32 0x4E6F7420656E6F7567682062616C616E636520696E20726577617264206D616E PUSH1 0x40 DUP3 ADD MSTORE PUSH4 0x30B3B2B9 PUSH1 0xE1 SHL PUSH1 0x60 DUP3 ADD MSTORE PUSH1 0x80 ADD SWAP1 JUMP JUMPDEST PUSH1 0x20 DUP1 DUP3 MSTORE PUSH1 0x26 SWAP1 DUP3 ADD MSTORE PUSH32 0x303331322043616E2774207374616B652061626F76652073697A6520616C6C6F PUSH1 0x40 DUP3 ADD MSTORE PUSH6 0x31B0BA34B7B7 PUSH1 0xD1 SHL PUSH1 0x60 DUP3 ADD MSTORE PUSH1 0x80 ADD SWAP1 JUMP JUMPDEST PUSH1 0x20 DUP1 DUP3 MSTORE PUSH1 0x21 SWAP1 DUP3 ADD MSTORE PUSH32 0x3033373020746F74656D732063616E206E6F74206265207472616E7366657265 PUSH1 0x40 DUP3 ADD MSTORE PUSH1 0x19 PUSH1 0xFA SHL PUSH1 0x60 DUP3 ADD MSTORE PUSH1 0x80 ADD SWAP1 JUMP JUMPDEST PUSH1 0x20 DUP1 DUP3 MSTORE PUSH1 0x19 SWAP1 DUP3 ADD MSTORE PUSH32 0x3033343120416D6F756E742063616E2774206265207A65726F00000000000000 PUSH1 0x40 DUP3 ADD MSTORE PUSH1 0x60 ADD SWAP1 JUMP JUMPDEST PUSH1 0x20 DUP1 DUP3 MSTORE PUSH1 0x15 SWAP1 DUP3 ADD MSTORE PUSH21 0x69742773206E6F7420616E20656D657267656E6379 PUSH1 0x58 SHL PUSH1 0x40 DUP3 ADD MSTORE PUSH1 0x60 ADD SWAP1 JUMP JUMPDEST PUSH1 0x20 DUP1 DUP3 MSTORE PUSH1 0x2E SWAP1 DUP3 ADD MSTORE PUSH32 0x496E697469616C697A61626C653A20636F6E747261637420697320616C726561 PUSH1 0x40 DUP3 ADD MSTORE PUSH14 0x191E481A5B9A5D1A585B1A5E9959 PUSH1 0x92 SHL PUSH1 0x60 DUP3 ADD MSTORE PUSH1 0x80 ADD SWAP1 JUMP JUMPDEST PUSH1 0x20 DUP1 DUP3 MSTORE PUSH1 0x21 SWAP1 DUP3 ADD MSTORE PUSH32 0x303330302063616C6C6572206973206E6F74206120706F6F6C2063726561746F PUSH1 0x40 DUP3 ADD MSTORE PUSH1 0x39 PUSH1 0xF9 SHL PUSH1 0x60 DUP3 ADD MSTORE PUSH1 0x80 ADD SWAP1 JUMP JUMPDEST PUSH1 0x20 DUP1 DUP3 MSTORE DUP2 DUP2 ADD MSTORE PUSH32 0x4F776E61626C653A2063616C6C6572206973206E6F7420746865206F776E6572 PUSH1 0x40 DUP3 ADD MSTORE PUSH1 0x60 ADD SWAP1 JUMP JUMPDEST PUSH1 0x20 DUP1 DUP3 MSTORE PUSH1 0x2B SWAP1 DUP3 ADD MSTORE PUSH32 0x3033383020746869732061646472657373206469646E2774207374616B652069 PUSH1 0x40 DUP3 ADD MSTORE PUSH11 0x1B881D1A1A5CC81C1BDBDB PUSH1 0xAA SHL PUSH1 0x60 DUP3 ADD MSTORE PUSH1 0x80 ADD SWAP1 JUMP JUMPDEST PUSH1 0x20 DUP1 DUP3 MSTORE PUSH1 0x17 SWAP1 DUP3 ADD MSTORE PUSH32 0x3033313320706F6F6C206973206E6F7420616374697665000000000000000000 PUSH1 0x40 DUP3 ADD MSTORE PUSH1 0x60 ADD SWAP1 JUMP JUMPDEST PUSH1 0x20 DUP1 DUP3 MSTORE PUSH1 0x2A SWAP1 DUP3 ADD MSTORE PUSH32 0x3033313120416D6F756E742063616E2774206265206C657373207468616E2074 PUSH1 0x40 DUP3 ADD MSTORE PUSH10 0x6865206D696E696D756D PUSH1 0xB0 SHL PUSH1 0x60 DUP3 ADD MSTORE PUSH1 0x80 ADD SWAP1 JUMP JUMPDEST PUSH1 0x20 DUP1 DUP3 MSTORE PUSH1 0x27 SWAP1 DUP3 ADD MSTORE PUSH32 0x303336312057726170706564546F6B656E2052657761726473206E6F74206176 PUSH1 0x40 DUP3 ADD MSTORE PUSH7 0x61696C61626C65 PUSH1 0xC8 SHL PUSH1 0x60 DUP3 ADD MSTORE PUSH1 0x80 ADD SWAP1 JUMP JUMPDEST PUSH1 0x20 DUP1 DUP3 MSTORE PUSH1 0x14 SWAP1 DUP3 ADD MSTORE PUSH20 0x125B99195E08191BD95CC81B9BDD08195E1A5CDD PUSH1 0x62 SHL PUSH1 0x40 DUP3 ADD MSTORE PUSH1 0x60 ADD SWAP1 JUMP JUMPDEST PUSH1 0x20 DUP1 DUP3 MSTORE PUSH1 0x36 SWAP1 DUP3 ADD MSTORE PUSH32 0x303335302043616E277420736574206D61747572696E67207072696365206265 PUSH1 0x40 DUP3 ADD MSTORE PUSH22 0x666F726520746865206D617475726974792074696D65 PUSH1 0x50 SHL PUSH1 0x60 DUP3 ADD MSTORE PUSH1 0x80 ADD SWAP1 JUMP JUMPDEST PUSH1 0x20 DUP1 DUP3 MSTORE PUSH1 0x4 SWAP1 DUP3 ADD MSTORE PUSH4 0x3033333 PUSH1 0xE4 SHL PUSH1 0x40 DUP3 ADD MSTORE PUSH1 0x60 ADD SWAP1 JUMP JUMPDEST PUSH1 0x0 DUP4 DUP3 MSTORE PUSH1 0x40 PUSH1 0x20 DUP4 ADD MSTORE PUSH2 0x5039 PUSH1 0x40 DUP4 ADD DUP5 PUSH2 0x47AB JUMP JUMPDEST SWAP5 SWAP4 POP POP POP POP JUMP JUMPDEST PUSH1 0x0 DUP7 DUP3 MSTORE DUP6 PUSH1 0x20 DUP4 ADD MSTORE PUSH1 0xA0 PUSH1 0x40 DUP4 ADD MSTORE PUSH2 0x5060 PUSH1 0xA0 DUP4 ADD DUP7 PUSH2 0x47AB JUMP JUMPDEST PUSH1 0x1 PUSH1 0x1 PUSH1 0xA0 SHL SUB SWAP5 SWAP1 SWAP5 AND PUSH1 0x60 DUP4 ADD MSTORE POP PUSH1 0x80 ADD MSTORE SWAP4 SWAP3 POP POP POP JUMP JUMPDEST SWAP9 DUP10 MSTORE PUSH1 0x20 DUP10 ADD SWAP8 SWAP1 SWAP8 MSTORE PUSH1 0x40 DUP9 ADD SWAP6 SWAP1 SWAP6 MSTORE PUSH1 0x60 DUP8 ADD SWAP4 SWAP1 SWAP4 MSTORE PUSH1 0x80 DUP7 ADD SWAP2 SWAP1 SWAP2 MSTORE PUSH1 0xA0 DUP6 ADD MSTORE PUSH1 0xC0 DUP5 ADD MSTORE ISZERO ISZERO PUSH1 0xE0 DUP4 ADD MSTORE ISZERO ISZERO PUSH2 0x100 DUP3 ADD MSTORE PUSH2 0x120 ADD SWAP1 JUMP JUMPDEST SWAP11 DUP12 MSTORE PUSH1 0x20 DUP12 ADD SWAP10 SWAP1 SWAP10 MSTORE PUSH1 0x40 DUP11 ADD SWAP8 SWAP1 SWAP8 MSTORE PUSH1 0x60 DUP10 ADD SWAP6 SWAP1 SWAP6 MSTORE PUSH1 0x80 DUP9 ADD SWAP4 SWAP1 SWAP4 MSTORE PUSH1 0xA0 DUP8 ADD SWAP2 SWAP1 SWAP2 MSTORE PUSH1 0xC0 DUP7 ADD MSTORE PUSH1 0xE0 DUP6 ADD MSTORE PUSH2 0x100 DUP5 ADD MSTORE ISZERO ISZERO PUSH2 0x120 DUP4 ADD MSTORE ISZERO ISZERO PUSH2 0x140 DUP3 ADD MSTORE PUSH2 0x160 ADD SWAP1 JUMP JUMPDEST PUSH1 0xFF SWAP2 SWAP1 SWAP2 AND DUP2 MSTORE PUSH1 0x20 ADD SWAP1 JUMP JUMPDEST PUSH1 0x0 DUP3 NOT DUP3 GT ISZERO PUSH2 0x5133 JUMPI PUSH2 0x5133 PUSH2 0x51E4 JUMP JUMPDEST POP ADD SWAP1 JUMP JUMPDEST PUSH1 0x0 DUP3 PUSH2 0x5153 JUMPI PUSH4 0x4E487B71 PUSH1 0xE0 SHL DUP2 MSTORE PUSH1 0x12 PUSH1 0x4 MSTORE PUSH1 0x24 DUP2 REVERT JUMPDEST POP DIV SWAP1 JUMP JUMPDEST PUSH1 0x0 DUP2 PUSH1 0x0 NOT DIV DUP4 GT DUP3 ISZERO ISZERO AND ISZERO PUSH2 0x5172 JUMPI PUSH2 0x5172 PUSH2 0x51E4 JUMP JUMPDEST POP MUL SWAP1 JUMP JUMPDEST PUSH1 0x0 DUP3 DUP3 LT ISZERO PUSH2 0x5189 JUMPI PUSH2 0x5189 PUSH2 0x51E4 JUMP JUMPDEST POP SUB SWAP1 JUMP JUMPDEST PUSH1 0x2 DUP2 DIV PUSH1 0x1 DUP3 AND DUP1 PUSH2 0x51A2 JUMPI PUSH1 0x7F DUP3 AND SWAP2 POP JUMPDEST PUSH1 0x20 DUP3 LT DUP2 EQ ISZERO PUSH2 0x51C3 JUMPI PUSH4 0x4E487B71 PUSH1 0xE0 SHL PUSH1 0x0 MSTORE PUSH1 0x22 PUSH1 0x4 MSTORE PUSH1 0x24 PUSH1 0x0 REVERT JUMPDEST POP SWAP2 SWAP1 POP JUMP JUMPDEST PUSH1 0x0 PUSH1 0x0 NOT DUP3 EQ ISZERO PUSH2 0x51DD JUMPI PUSH2 0x51DD PUSH2 0x51E4 JUMP JUMPDEST POP PUSH1 0x1 ADD SWAP1 JUMP JUMPDEST PUSH4 0x4E487B71 PUSH1 0xE0 SHL PUSH1 0x0 MSTORE PUSH1 0x11 PUSH1 0x4 MSTORE PUSH1 0x24 PUSH1 0x0 REVERT JUMPDEST PUSH4 0x4E487B71 PUSH1 0xE0 SHL PUSH1 0x0 MSTORE PUSH1 0x41 PUSH1 0x4 MSTORE PUSH1 0x24 PUSH1 0x0 REVERT JUMPDEST PUSH1 0x1 PUSH1 0x1 PUSH1 0xA0 SHL SUB DUP2 AND DUP2 EQ PUSH2 0x1E87 JUMPI PUSH1 0x0 DUP1 REVERT JUMPDEST DUP1 ISZERO ISZERO DUP2 EQ PUSH2 0x1E87 JUMPI PUSH1 0x0 DUP1 REVERT INVALID LOG2 PUSH5 0x6970667358 0x22 SLT KECCAK256 GAS 0x28 CALLER JUMPI DUP6 DIFFICULTY 0xBF ADDRESS PUSH27 0x62B392E5DD3A9A7E171695C9BA1C0074EBCFB55A4E89FC64736F6C PUSH4 0x43000800 STOP CALLER "
    },
    "gasEstimates": {
      "creation": {
        "codeDepositCost": "4219400",
        "executionCost": "4861",
        "totalCost": "4224261"
      },
      "external": {
        "__PriceConsumer_initialize(address)": "65414",
        "__WrappedTokenDistributor_initialize(address,address,address)": "infinite",
        "batchStake(uint256[],uint256[])": "infinite",
        "claimReward()": "infinite",
        "collaborativeRange()": "1117",
        "collaborativeReward()": "1094",
        "declareEmergency()": "43626",
        "deletePool()": "22754",
        "emergentWithdraw()": "infinite",
        "endPool()": "infinite",
        "getAveragePricePrediction()": "infinite",
        "getDecimals()": "infinite",
        "getDifference(uint256,uint256)": "infinite",
        "getEstimatedWrappedTokenForUSD(uint256)": "infinite",
        "getIndexedPrize(address,uint256)": "infinite",
        "getIndexedStakingReward(address,uint256)": "infinite",
        "getLatestPrice()": "infinite",
        "getPathForUSDToWrappedToken()": "infinite",
        "getPrize(address)": "infinite",
        "getStakers()": "infinite",
        "getStakingReward(address)": "infinite",
        "getStakingTax(uint256,uint256)": "infinite",
        "getSwapRouter()": "1205",
        "getUSDBalance()": "infinite",
        "getUSDToken()": "1158",
        "getWrappedTokenBalance()": "infinite",
        "hasUnStaked(address,uint256)": "infinite",
        "indexedClaimReward(uint256)": "infinite",
        "isActive()": "1165",
        "isAnEmergency()": "1108",
        "isDeleted()": "1185",
        "isEnhancedEnabled()": "1185",
        "isLocked()": "1185",
        "isMatured()": "1185",
        "launchDate()": "1160",
        "lockPool()": "22780",
        "lockTime()": "1098",
        "lps()": "8632",
        "maturingPrice()": "1118",
        "maturityTime()": "1119",
        "minimumStakeAmount()": "1118",
        "oracleContract()": "1181",
        "oracleDecimals()": "1183",
        "owner()": "1139",
        "poolCreator()": "1138",
        "poolType()": "infinite",
        "potentialCollabReward()": "1161",
        "predictions(address,uint256)": "8180",
        "prizeAmount()": "1096",
        "prizeRewardRates(uint256)": "2979",
        "purchaseWrappedToken(uint256,uint256)": "infinite",
        "renounceOwnership()": "23619",
        "rewardManager()": "1162",
        "setActivationStatus(bool)": "infinite",
        "setOracleToZero()": "21948",
        "setSortedStakers(address[25],uint256[25])": "infinite",
        "sizeAllocation()": "1141",
        "sizeLimitRangeRate()": "341",
        "sortedStakers(uint256)": "2958",
        "stake(uint256,uint256)": "infinite",
        "stakeApr()": "1118",
        "stakeTaxRate()": "1096",
        "stakers(uint256)": "3045",
        "stakingPoolImplementation()": "1161",
        "totalStaked()": "1095",
        "totemToken()": "1137",
        "transferOwnership(address)": "infinite",
        "updateMaturingPrice(uint256)": "infinite",
        "upgradeEnabled()": "1206",
        "usdPrizeAmount()": "1184",
        "withdrawStuckTokens(address,uint256,address)": "infinite",
        "wrappedToken()": "1205",
        "wrappedTokenSymbol()": "infinite"
      },
      "internal": {
        "_lockPool()": "21610",
        "_stake(address,uint256,uint256)": "infinite"
      }
    },
    "methodIdentifiers": {
      "__PriceConsumer_initialize(address)": "37c4f6a4",
      "__WrappedTokenDistributor_initialize(address,address,address)": "a8f7b346",
      "batchStake(uint256[],uint256[])": "d49fab8a",
      "claimReward()": "b88a802f",
      "collaborativeRange()": "eb850ae1",
      "collaborativeReward()": "f3d9dc0d",
      "declareEmergency()": "31e244e5",
      "deletePool()": "8bfbbcbe",
      "emergentWithdraw()": "8a9920b7",
      "endPool()": "2d42cf7d",
      "getAveragePricePrediction()": "bf852196",
      "getDecimals()": "f0141d84",
      "getDifference(uint256,uint256)": "4c7c77fc",
      "getEstimatedWrappedTokenForUSD(uint256)": "3fcdd82c",
      "getIndexedPrize(address,uint256)": "b7b30170",
      "getIndexedStakingReward(address,uint256)": "2342e480",
      "getLatestPrice()": "8e15f473",
      "getPathForUSDToWrappedToken()": "a35ef3a7",
      "getPrize(address)": "2d5cd1d6",
      "getStakers()": "43352d61",
      "getStakingReward(address)": "78f4d413",
      "getStakingTax(uint256,uint256)": "395b3dac",
      "getSwapRouter()": "725c9c49",
      "getUSDBalance()": "c1201054",
      "getUSDToken()": "f5e96fc9",
      "getWrappedTokenBalance()": "f8e829c3",
      "hasUnStaked(address,uint256)": "45e91319",
      "indexedClaimReward(uint256)": "b1b1e1c0",
      "isActive()": "22f3e2d4",
      "isAnEmergency()": "a08b2c79",
      "isDeleted()": "d7efb6b7",
      "isEnhancedEnabled()": "4bc4eeb2",
      "isLocked()": "a4e2d634",
      "isMatured()": "7f2b6a0d",
      "launchDate()": "f8eeed62",
      "lockPool()": "4026478e",
      "lockTime()": "0d668087",
      "lps()": "e0818669",
      "maturingPrice()": "d025188b",
      "maturityTime()": "4e8bfdaa",
      "minimumStakeAmount()": "6b036f45",
      "oracleContract()": "bece7532",
      "oracleDecimals()": "e68b52e7",
      "owner()": "8da5cb5b",
      "poolCreator()": "c6c1decd",
      "poolType()": "b1dd61b6",
      "potentialCollabReward()": "e425df8c",
      "predictions(address,uint256)": "850fa7cb",
      "prizeAmount()": "785fa627",
      "prizeRewardRates(uint256)": "f1b17a8b",
      "purchaseWrappedToken(uint256,uint256)": "4ddc1bdc",
      "renounceOwnership()": "715018a6",
      "rewardManager()": "0f4ef8a6",
      "setActivationStatus(bool)": "a118c9a7",
      "setOracleToZero()": "df7f92e0",
      "setSortedStakers(address[25],uint256[25])": "444a4902",
      "sizeAllocation()": "51eacbf0",
      "sizeLimitRangeRate()": "95c2ba47",
      "sortedStakers(uint256)": "de09ee20",
      "stake(uint256,uint256)": "7b0472f0",
      "stakeApr()": "aa7bcb57",
      "stakeTaxRate()": "6847d0c5",
      "stakers(uint256)": "fd5e6dd1",
      "stakingPoolImplementation()": "2aa8195e",
      "totalStaked()": "817b1cd2",
      "totemToken()": "e8153c93",
      "transferOwnership(address)": "f2fde38b",
      "updateMaturingPrice(uint256)": "a7a48681",
      "upgradeEnabled()": "8cf0e21e",
      "usdPrizeAmount()": "73f31703",
      "withdrawStuckTokens(address,uint256,address)": "5d2631e2",
      "wrappedToken()": "996c6cc3",
      "wrappedTokenSymbol()": "238a6c74"
    }
  },
  "storageLayout": {
    "storage": [
      {
        "astId": 176,
        "contract": "contracts/Staking/StakingPoolImplementation.sol:StakingPoolImplementation",
        "label": "_initialized",
        "offset": 0,
        "slot": "0",
        "type": "t_bool"
      },
      {
        "astId": 179,
        "contract": "contracts/Staking/StakingPoolImplementation.sol:StakingPoolImplementation",
        "label": "_initializing",
        "offset": 1,
        "slot": "0",
        "type": "t_bool"
      },
      {
        "astId": 259,
        "contract": "contracts/Staking/StakingPoolImplementation.sol:StakingPoolImplementation",
        "label": "__gap",
        "offset": 0,
        "slot": "1",
        "type": "t_array(t_uint256)50_storage"
      },
      {
        "astId": 56,
        "contract": "contracts/Staking/StakingPoolImplementation.sol:StakingPoolImplementation",
        "label": "_owner",
        "offset": 0,
        "slot": "51",
        "type": "t_address"
      },
      {
        "astId": 169,
        "contract": "contracts/Staking/StakingPoolImplementation.sol:StakingPoolImplementation",
        "label": "__gap",
        "offset": 0,
        "slot": "52",
        "type": "t_array(t_uint256)49_storage"
      },
      {
        "astId": 1585,
        "contract": "contracts/Staking/StakingPoolImplementation.sol:StakingPoolImplementation",
        "label": "priceFeed",
        "offset": 0,
        "slot": "101",
        "type": "t_contract(AggregatorV3Interface)45"
      },
      {
        "astId": 1353,
        "contract": "contracts/Staking/StakingPoolImplementation.sol:StakingPoolImplementation",
        "label": "USDCContract",
        "offset": 0,
        "slot": "102",
        "type": "t_contract(IERC20)988"
      },
      {
        "astId": 1438,
        "contract": "contracts/Staking/StakingPoolImplementation.sol:StakingPoolImplementation",
        "label": "swapRouter",
        "offset": 0,
        "slot": "103",
        "type": "t_contract(IPancakeRouter02)7316"
      },
      {
        "astId": 1440,
        "contract": "contracts/Staking/StakingPoolImplementation.sol:StakingPoolImplementation",
        "label": "BUSD_CONTRACT_ADDRESS",
        "offset": 0,
        "slot": "104",
        "type": "t_address"
      },
      {
        "astId": 1442,
        "contract": "contracts/Staking/StakingPoolImplementation.sol:StakingPoolImplementation",
        "label": "WRAPPED_Token_CONTRACT_ADDRESS",
        "offset": 0,
        "slot": "105",
        "type": "t_address"
      },
      {
        "astId": 4689,
        "contract": "contracts/Staking/StakingPoolImplementation.sol:StakingPoolImplementation",
        "label": "stakingPoolImplementation",
        "offset": 0,
        "slot": "106",
        "type": "t_address"
      },
      {
        "astId": 4691,
        "contract": "contracts/Staking/StakingPoolImplementation.sol:StakingPoolImplementation",
        "label": "poolCreator",
        "offset": 0,
        "slot": "107",
        "type": "t_address"
      },
      {
        "astId": 4693,
        "contract": "contracts/Staking/StakingPoolImplementation.sol:StakingPoolImplementation",
        "label": "oracleContract",
        "offset": 0,
        "slot": "108",
        "type": "t_address"
      },
      {
        "astId": 4748,
        "contract": "contracts/Staking/StakingPoolImplementation.sol:StakingPoolImplementation",
        "label": "lps",
        "offset": 0,
        "slot": "109",
        "type": "t_struct(LibParams)4716_storage"
      },
      {
        "astId": 4752,
        "contract": "contracts/Staking/StakingPoolImplementation.sol:StakingPoolImplementation",
        "label": "prizeRewardRates",
        "offset": 0,
        "slot": "119",
        "type": "t_array(t_struct(PrizeRewardRate)4745_storage)dyn_storage"
      },
      {
        "astId": 4756,
        "contract": "contracts/Staking/StakingPoolImplementation.sol:StakingPoolImplementation",
        "label": "stakers",
        "offset": 0,
        "slot": "120",
        "type": "t_array(t_struct(Staker)4740_storage)dyn_storage"
      },
      {
        "astId": 4760,
        "contract": "contracts/Staking/StakingPoolImplementation.sol:StakingPoolImplementation",
        "label": "sortedStakers",
        "offset": 0,
        "slot": "121",
        "type": "t_array(t_struct(Staker)4740_storage)dyn_storage"
      },
      {
        "astId": 4766,
        "contract": "contracts/Staking/StakingPoolImplementation.sol:StakingPoolImplementation",
        "label": "predictions",
        "offset": 0,
        "slot": "122",
        "type": "t_mapping(t_address,t_array(t_struct(StakeWithPrediction)4735_storage)dyn_storage)"
      },
      {
        "astId": 4769,
        "contract": "contracts/Staking/StakingPoolImplementation.sol:StakingPoolImplementation",
        "label": "totemToken",
        "offset": 0,
        "slot": "123",
        "type": "t_contract(ITotemToken)7437"
      },
      {
        "astId": 4772,
        "contract": "contracts/Staking/StakingPoolImplementation.sol:StakingPoolImplementation",
        "label": "rewardManager",
        "offset": 0,
        "slot": "124",
        "type": "t_contract(IRewardManager)7344"
      },
      {
        "astId": 4775,
        "contract": "contracts/Staking/StakingPoolImplementation.sol:StakingPoolImplementation",
        "label": "wrappedToken",
        "offset": 0,
        "slot": "125",
        "type": "t_contract(IERC20)988"
      },
      {
        "astId": 4777,
        "contract": "contracts/Staking/StakingPoolImplementation.sol:StakingPoolImplementation",
        "label": "wrappedTokenSymbol",
        "offset": 0,
        "slot": "126",
        "type": "t_string_storage"
      },
      {
        "astId": 4779,
        "contract": "contracts/Staking/StakingPoolImplementation.sol:StakingPoolImplementation",
        "label": "poolType",
        "offset": 0,
        "slot": "127",
        "type": "t_string_storage"
      },
      {
        "astId": 4784,
        "contract": "contracts/Staking/StakingPoolImplementation.sol:StakingPoolImplementation",
        "label": "launchDate",
        "offset": 0,
        "slot": "128",
        "type": "t_uint256"
      },
      {
        "astId": 4786,
        "contract": "contracts/Staking/StakingPoolImplementation.sol:StakingPoolImplementation",
        "label": "lockTime",
        "offset": 0,
        "slot": "129",
        "type": "t_uint256"
      },
      {
        "astId": 4788,
        "contract": "contracts/Staking/StakingPoolImplementation.sol:StakingPoolImplementation",
        "label": "maturityTime",
        "offset": 0,
        "slot": "130",
        "type": "t_uint256"
      },
      {
        "astId": 4790,
        "contract": "contracts/Staking/StakingPoolImplementation.sol:StakingPoolImplementation",
        "label": "sizeAllocation",
        "offset": 0,
        "slot": "131",
        "type": "t_uint256"
      },
      {
        "astId": 4792,
        "contract": "contracts/Staking/StakingPoolImplementation.sol:StakingPoolImplementation",
        "label": "stakeApr",
        "offset": 0,
        "slot": "132",
        "type": "t_uint256"
      },
      {
        "astId": 4794,
        "contract": "contracts/Staking/StakingPoolImplementation.sol:StakingPoolImplementation",
        "label": "prizeAmount",
        "offset": 0,
        "slot": "133",
        "type": "t_uint256"
      },
      {
        "astId": 4797,
        "contract": "contracts/Staking/StakingPoolImplementation.sol:StakingPoolImplementation",
        "label": "usdPrizeAmount",
        "offset": 0,
        "slot": "134",
        "type": "t_uint256"
      },
      {
        "astId": 4799,
        "contract": "contracts/Staking/StakingPoolImplementation.sol:StakingPoolImplementation",
        "label": "stakeTaxRate",
        "offset": 0,
        "slot": "135",
        "type": "t_uint256"
      },
      {
        "astId": 4801,
        "contract": "contracts/Staking/StakingPoolImplementation.sol:StakingPoolImplementation",
        "label": "minimumStakeAmount",
        "offset": 0,
        "slot": "136",
        "type": "t_uint256"
      },
      {
        "astId": 4803,
        "contract": "contracts/Staking/StakingPoolImplementation.sol:StakingPoolImplementation",
        "label": "totalStaked",
        "offset": 0,
        "slot": "137",
        "type": "t_uint256"
      },
      {
        "astId": 4805,
        "contract": "contracts/Staking/StakingPoolImplementation.sol:StakingPoolImplementation",
        "label": "maturingPrice",
        "offset": 0,
        "slot": "138",
        "type": "t_uint256"
      },
      {
        "astId": 4807,
        "contract": "contracts/Staking/StakingPoolImplementation.sol:StakingPoolImplementation",
        "label": "potentialCollabReward",
        "offset": 0,
        "slot": "139",
        "type": "t_uint256"
      },
      {
        "astId": 4809,
        "contract": "contracts/Staking/StakingPoolImplementation.sol:StakingPoolImplementation",
        "label": "collaborativeRange",
        "offset": 0,
        "slot": "140",
        "type": "t_uint256"
      },
      {
        "astId": 4812,
        "contract": "contracts/Staking/StakingPoolImplementation.sol:StakingPoolImplementation",
        "label": "collaborativeReward",
        "offset": 0,
        "slot": "141",
        "type": "t_uint256"
      },
      {
        "astId": 4814,
        "contract": "contracts/Staking/StakingPoolImplementation.sol:StakingPoolImplementation",
        "label": "oracleDecimals",
        "offset": 0,
        "slot": "142",
        "type": "t_uint256"
      },
      {
        "astId": 4816,
        "contract": "contracts/Staking/StakingPoolImplementation.sol:StakingPoolImplementation",
        "label": "isAnEmergency",
        "offset": 0,
        "slot": "143",
        "type": "t_bool"
      },
      {
        "astId": 4818,
        "contract": "contracts/Staking/StakingPoolImplementation.sol:StakingPoolImplementation",
        "label": "isEnhancedEnabled",
        "offset": 1,
        "slot": "143",
        "type": "t_bool"
      },
      {
        "astId": 4820,
        "contract": "contracts/Staking/StakingPoolImplementation.sol:StakingPoolImplementation",
        "label": "isActive",
        "offset": 2,
        "slot": "143",
        "type": "t_bool"
      },
      {
        "astId": 4822,
        "contract": "contracts/Staking/StakingPoolImplementation.sol:StakingPoolImplementation",
        "label": "isLocked",
        "offset": 3,
        "slot": "143",
        "type": "t_bool"
      },
      {
        "astId": 4824,
        "contract": "contracts/Staking/StakingPoolImplementation.sol:StakingPoolImplementation",
        "label": "isMatured",
        "offset": 4,
        "slot": "143",
        "type": "t_bool"
      },
      {
        "astId": 4826,
        "contract": "contracts/Staking/StakingPoolImplementation.sol:StakingPoolImplementation",
        "label": "isDeleted",
        "offset": 5,
        "slot": "143",
        "type": "t_bool"
      },
      {
        "astId": 4829,
        "contract": "contracts/Staking/StakingPoolImplementation.sol:StakingPoolImplementation",
        "label": "upgradeEnabled",
        "offset": 6,
        "slot": "143",
        "type": "t_bool"
      }
    ],
    "types": {
      "t_address": {
        "encoding": "inplace",
        "label": "address",
        "numberOfBytes": "20"
      },
      "t_array(t_struct(PrizeRewardRate)4745_storage)dyn_storage": {
        "base": "t_struct(PrizeRewardRate)4745_storage",
        "encoding": "dynamic_array",
        "label": "struct StakingPoolStorageStructure.PrizeRewardRate[]",
        "numberOfBytes": "32"
      },
      "t_array(t_struct(StakeWithPrediction)4735_storage)dyn_storage": {
        "base": "t_struct(StakeWithPrediction)4735_storage",
        "encoding": "dynamic_array",
        "label": "struct StakingPoolStorageStructure.StakeWithPrediction[]",
        "numberOfBytes": "32"
      },
      "t_array(t_struct(Staker)4740_storage)dyn_storage": {
        "base": "t_struct(Staker)4740_storage",
        "encoding": "dynamic_array",
        "label": "struct StakingPoolStorageStructure.Staker[]",
        "numberOfBytes": "32"
      },
      "t_array(t_uint256)49_storage": {
        "base": "t_uint256",
        "encoding": "inplace",
        "label": "uint256[49]",
        "numberOfBytes": "1568"
      },
      "t_array(t_uint256)50_storage": {
        "base": "t_uint256",
        "encoding": "inplace",
        "label": "uint256[50]",
        "numberOfBytes": "1600"
      },
      "t_bool": {
        "encoding": "inplace",
        "label": "bool",
        "numberOfBytes": "1"
      },
      "t_contract(AggregatorV3Interface)45": {
        "encoding": "inplace",
        "label": "contract AggregatorV3Interface",
        "numberOfBytes": "20"
      },
      "t_contract(IERC20)988": {
        "encoding": "inplace",
        "label": "contract IERC20",
        "numberOfBytes": "20"
      },
      "t_contract(IPancakeRouter02)7316": {
        "encoding": "inplace",
        "label": "contract IPancakeRouter02",
        "numberOfBytes": "20"
      },
      "t_contract(IRewardManager)7344": {
        "encoding": "inplace",
        "label": "contract IRewardManager",
        "numberOfBytes": "20"
      },
      "t_contract(ITotemToken)7437": {
        "encoding": "inplace",
        "label": "contract ITotemToken",
        "numberOfBytes": "20"
      },
      "t_mapping(t_address,t_array(t_struct(StakeWithPrediction)4735_storage)dyn_storage)": {
        "encoding": "mapping",
        "key": "t_address",
        "label": "mapping(address => struct StakingPoolStorageStructure.StakeWithPrediction[])",
        "numberOfBytes": "32",
        "value": "t_array(t_struct(StakeWithPrediction)4735_storage)dyn_storage"
      },
      "t_string_storage": {
        "encoding": "bytes",
        "label": "string",
        "numberOfBytes": "32"
      },
      "t_struct(LibParams)4716_storage": {
        "encoding": "inplace",
        "label": "struct StakingPoolStorageStructure.LibParams",
        "members": [
          {
            "astId": 4695,
            "contract": "contracts/Staking/StakingPoolImplementation.sol:StakingPoolImplementation",
            "label": "launchDate",
            "offset": 0,
            "slot": "0",
            "type": "t_uint256"
          },
          {
            "astId": 4697,
            "contract": "contracts/Staking/StakingPoolImplementation.sol:StakingPoolImplementation",
            "label": "lockTime",
            "offset": 0,
            "slot": "1",
            "type": "t_uint256"
          },
          {
            "astId": 4699,
            "contract": "contracts/Staking/StakingPoolImplementation.sol:StakingPoolImplementation",
            "label": "maturityTime",
            "offset": 0,
            "slot": "2",
            "type": "t_uint256"
          },
          {
            "astId": 4701,
            "contract": "contracts/Staking/StakingPoolImplementation.sol:StakingPoolImplementation",
            "label": "maturingPrice",
            "offset": 0,
            "slot": "3",
            "type": "t_uint256"
          },
          {
            "astId": 4703,
            "contract": "contracts/Staking/StakingPoolImplementation.sol:StakingPoolImplementation",
            "label": "usdPrizeAmount",
            "offset": 0,
            "slot": "4",
            "type": "t_uint256"
          },
          {
            "astId": 4705,
            "contract": "contracts/Staking/StakingPoolImplementation.sol:StakingPoolImplementation",
            "label": "prizeAmount",
            "offset": 0,
            "slot": "5",
            "type": "t_uint256"
          },
          {
            "astId": 4707,
            "contract": "contracts/Staking/StakingPoolImplementation.sol:StakingPoolImplementation",
            "label": "stakeApr",
            "offset": 0,
            "slot": "6",
            "type": "t_uint256"
          },
          {
            "astId": 4709,
            "contract": "contracts/Staking/StakingPoolImplementation.sol:StakingPoolImplementation",
            "label": "collaborativeReward",
            "offset": 0,
            "slot": "7",
            "type": "t_uint256"
          },
          {
            "astId": 4711,
            "contract": "contracts/Staking/StakingPoolImplementation.sol:StakingPoolImplementation",
            "label": "oracleDecimals",
            "offset": 0,
            "slot": "8",
            "type": "t_uint256"
          },
          {
            "astId": 4713,
            "contract": "contracts/Staking/StakingPoolImplementation.sol:StakingPoolImplementation",
            "label": "isEnhancedEnabled",
            "offset": 0,
            "slot": "9",
            "type": "t_bool"
          },
          {
            "astId": 4715,
            "contract": "contracts/Staking/StakingPoolImplementation.sol:StakingPoolImplementation",
            "label": "isMatured",
            "offset": 1,
            "slot": "9",
            "type": "t_bool"
          }
        ],
        "numberOfBytes": "320"
      },
      "t_struct(PrizeRewardRate)4745_storage": {
        "encoding": "inplace",
        "label": "struct StakingPoolStorageStructure.PrizeRewardRate",
        "members": [
          {
            "astId": 4742,
            "contract": "contracts/Staking/StakingPoolImplementation.sol:StakingPoolImplementation",
            "label": "rank",
            "offset": 0,
            "slot": "0",
            "type": "t_uint256"
          },
          {
            "astId": 4744,
            "contract": "contracts/Staking/StakingPoolImplementation.sol:StakingPoolImplementation",
            "label": "percentage",
            "offset": 0,
            "slot": "1",
            "type": "t_uint256"
          }
        ],
        "numberOfBytes": "64"
      },
      "t_struct(StakeWithPrediction)4735_storage": {
        "encoding": "inplace",
        "label": "struct StakingPoolStorageStructure.StakeWithPrediction",
        "members": [
          {
            "astId": 4718,
            "contract": "contracts/Staking/StakingPoolImplementation.sol:StakingPoolImplementation",
            "label": "stakedBalance",
            "offset": 0,
            "slot": "0",
            "type": "t_uint256"
          },
          {
            "astId": 4720,
            "contract": "contracts/Staking/StakingPoolImplementation.sol:StakingPoolImplementation",
            "label": "stakedTime",
            "offset": 0,
            "slot": "1",
            "type": "t_uint256"
          },
          {
            "astId": 4722,
            "contract": "contracts/Staking/StakingPoolImplementation.sol:StakingPoolImplementation",
            "label": "amountWithdrawn",
            "offset": 0,
            "slot": "2",
            "type": "t_uint256"
          },
          {
            "astId": 4724,
            "contract": "contracts/Staking/StakingPoolImplementation.sol:StakingPoolImplementation",
            "label": "lastWithdrawalTime",
            "offset": 0,
            "slot": "3",
            "type": "t_uint256"
          },
          {
            "astId": 4726,
            "contract": "contracts/Staking/StakingPoolImplementation.sol:StakingPoolImplementation",
            "label": "pricePrediction",
            "offset": 0,
            "slot": "4",
            "type": "t_uint256"
          },
          {
            "astId": 4728,
            "contract": "contracts/Staking/StakingPoolImplementation.sol:StakingPoolImplementation",
            "label": "difference",
            "offset": 0,
            "slot": "5",
            "type": "t_uint256"
          },
          {
            "astId": 4730,
            "contract": "contracts/Staking/StakingPoolImplementation.sol:StakingPoolImplementation",
            "label": "rank",
            "offset": 0,
            "slot": "6",
            "type": "t_uint256"
          },
          {
            "astId": 4732,
            "contract": "contracts/Staking/StakingPoolImplementation.sol:StakingPoolImplementation",
            "label": "prizeRewardWithdrawn",
            "offset": 0,
            "slot": "7",
            "type": "t_bool"
          },
          {
            "astId": 4734,
            "contract": "contracts/Staking/StakingPoolImplementation.sol:StakingPoolImplementation",
            "label": "didUnstake",
            "offset": 1,
            "slot": "7",
            "type": "t_bool"
          }
        ],
        "numberOfBytes": "256"
      },
      "t_struct(Staker)4740_storage": {
        "encoding": "inplace",
        "label": "struct StakingPoolStorageStructure.Staker",
        "members": [
          {
            "astId": 4737,
            "contract": "contracts/Staking/StakingPoolImplementation.sol:StakingPoolImplementation",
            "label": "stakerAddress",
            "offset": 0,
            "slot": "0",
            "type": "t_address"
          },
          {
            "astId": 4739,
            "contract": "contracts/Staking/StakingPoolImplementation.sol:StakingPoolImplementation",
            "label": "index",
            "offset": 0,
            "slot": "1",
            "type": "t_uint256"
          }
        ],
        "numberOfBytes": "64"
      },
      "t_uint256": {
        "encoding": "inplace",
        "label": "uint256",
        "numberOfBytes": "32"
      }
    }
  },
  "userdoc": {
    "kind": "user",
    "methods": {
      "collaborativeReward()": {
        "notice": "Based on the white paper, the collaborative reward can be 20% (2000), 25% (2500) or 35% (3500)."
      },
      "getAveragePricePrediction()": {
        "notice": "Gets the avgerage price prediction for calculating collaborative reward"
      },
      "getDecimals()": {
        "notice": "Returns decimals for oracle contract"
      },
      "getLatestPrice()": {
        "notice": "Returns the latest price from oracle contract"
      },
      "hasUnStaked(address,uint256)": {
        "notice": "hasUnStaked return true if the user staked in the pool and then  has unStaked it (claimed)"
      },
      "setOracleToZero()": {
        "notice": "Sets oracle to zero in case it was given incorrectly by the owner,         or it is not available"
      },
      "usdPrizeAmount()": {
        "notice": "usdPrizeAmount is the enabler of WrappedToken rewarder; If it is set to 0  then the pool is only TOTM rewarder."
      }
    },
    "version": 1
  }
}