{
  "contractName": "StakingPoolProxy",
  "sourceName": "contracts/Staking/StakingPoolProxy.sol",
  "abi": [
    {
      "inputs": [],
      "stateMutability": "nonpayable",
      "type": "constructor"
    },
    {
      "anonymous": false,
      "inputs": [
        {
          "indexed": true,
          "internalType": "address",
          "name": "to",
          "type": "address"
        },
        {
          "indexed": false,
          "internalType": "uint256",
          "name": "amount",
          "type": "uint256"
        }
      ],
      "name": "ApproveTokens",
      "type": "event"
    },
    {
      "anonymous": false,
      "inputs": [
        {
          "indexed": true,
          "internalType": "address",
          "name": "to",
          "type": "address"
        },
        {
          "indexed": false,
          "internalType": "uint256",
          "name": "amount",
          "type": "uint256"
        }
      ],
      "name": "DistributedBTC",
      "type": "event"
    },
    {
      "anonymous": false,
      "inputs": [],
      "name": "ImplementationUpgraded",
      "type": "event"
    },
    {
      "anonymous": false,
      "inputs": [
        {
          "indexed": true,
          "internalType": "address",
          "name": "previousOwner",
          "type": "address"
        },
        {
          "indexed": true,
          "internalType": "address",
          "name": "newOwner",
          "type": "address"
        }
      ],
      "name": "OwnershipTransferred",
      "type": "event"
    },
    {
      "anonymous": false,
      "inputs": [
        {
          "indexed": true,
          "internalType": "address",
          "name": "from",
          "type": "address"
        },
        {
          "indexed": false,
          "internalType": "uint256",
          "name": "amount",
          "type": "uint256"
        }
      ],
      "name": "ReceivedTokens",
      "type": "event"
    },
    {
      "anonymous": false,
      "inputs": [
        {
          "indexed": true,
          "internalType": "address",
          "name": "to",
          "type": "address"
        },
        {
          "indexed": false,
          "internalType": "uint256",
          "name": "amount",
          "type": "uint256"
        }
      ],
      "name": "TransferTokens",
      "type": "event"
    },
    {
      "stateMutability": "payable",
      "type": "fallback"
    },
    {
      "inputs": [
        {
          "internalType": "address",
          "name": "_oracle",
          "type": "address"
        }
      ],
      "name": "__PriceConsumer_initialize",
      "outputs": [],
      "stateMutability": "nonpayable",
      "type": "function"
    },
    {
      "inputs": [
        {
          "internalType": "address",
          "name": "swapRouterAddress",
          "type": "address"
        },
        {
          "internalType": "address",
          "name": "BUSDContractAddress",
          "type": "address"
        },
        {
          "internalType": "address",
          "name": "WrappedTokenContractAddress",
          "type": "address"
        }
      ],
      "name": "__WrappedTokenDistributor_initialize",
      "outputs": [],
      "stateMutability": "nonpayable",
      "type": "function"
    },
    {
      "inputs": [],
      "name": "collaborativeRange",
      "outputs": [
        {
          "internalType": "uint256",
          "name": "",
          "type": "uint256"
        }
      ],
      "stateMutability": "view",
      "type": "function"
    },
    {
      "inputs": [],
      "name": "collaborativeReward",
      "outputs": [
        {
          "internalType": "uint256",
          "name": "",
          "type": "uint256"
        }
      ],
      "stateMutability": "view",
      "type": "function"
    },
    {
      "inputs": [],
      "name": "disableUpgrade",
      "outputs": [],
      "stateMutability": "nonpayable",
      "type": "function"
    },
    {
      "inputs": [],
      "name": "enableUpgrade",
      "outputs": [],
      "stateMutability": "nonpayable",
      "type": "function"
    },
    {
      "inputs": [],
      "name": "getDecimals",
      "outputs": [
        {
          "internalType": "uint8",
          "name": "",
          "type": "uint8"
        }
      ],
      "stateMutability": "view",
      "type": "function"
    },
    {
      "inputs": [
        {
          "internalType": "uint256",
          "name": "_amount",
          "type": "uint256"
        }
      ],
      "name": "getEstimatedWrappedTokenForUSD",
      "outputs": [
        {
          "internalType": "uint256",
          "name": "",
          "type": "uint256"
        }
      ],
      "stateMutability": "view",
      "type": "function"
    },
    {
      "inputs": [],
      "name": "getLatestPrice",
      "outputs": [
        {
          "internalType": "uint256",
          "name": "",
          "type": "uint256"
        }
      ],
      "stateMutability": "view",
      "type": "function"
    },
    {
      "inputs": [],
      "name": "getPathForUSDToWrappedToken",
      "outputs": [
        {
          "internalType": "address[]",
          "name": "",
          "type": "address[]"
        }
      ],
      "stateMutability": "view",
      "type": "function"
    },
    {
      "inputs": [],
      "name": "getUSDBalance",
      "outputs": [
        {
          "internalType": "uint256",
          "name": "",
          "type": "uint256"
        }
      ],
      "stateMutability": "view",
      "type": "function"
    },
    {
      "inputs": [],
      "name": "getUSDToken",
      "outputs": [
        {
          "internalType": "address",
          "name": "",
          "type": "address"
        }
      ],
      "stateMutability": "view",
      "type": "function"
    },
    {
      "inputs": [],
      "name": "getswapRouter",
      "outputs": [
        {
          "internalType": "address",
          "name": "",
          "type": "address"
        }
      ],
      "stateMutability": "view",
      "type": "function"
    },
    {
      "inputs": [
        {
          "internalType": "string",
          "name": "_wrappedTokenSymbol",
          "type": "string"
        },
        {
          "internalType": "string",
          "name": "_poolType",
          "type": "string"
        },
        {
          "internalType": "contract ITotemToken",
          "name": "_totemToken",
          "type": "address"
        },
        {
          "internalType": "contract IRewardManager",
          "name": "_rewardManager",
          "type": "address"
        },
        {
          "internalType": "address",
          "name": "_poolCreator",
          "type": "address"
        },
        {
          "internalType": "address[4]",
          "name": "_addrs",
          "type": "address[4]"
        },
        {
          "internalType": "uint256[11]",
          "name": "_variables",
          "type": "uint256[11]"
        },
        {
          "internalType": "uint256[8]",
          "name": "_ranks",
          "type": "uint256[8]"
        },
        {
          "internalType": "uint256[8]",
          "name": "_percentages",
          "type": "uint256[8]"
        },
        {
          "internalType": "bool",
          "name": "_isEnhancedEnabled",
          "type": "bool"
        }
      ],
      "name": "initialize",
      "outputs": [],
      "stateMutability": "nonpayable",
      "type": "function"
    },
    {
      "inputs": [],
      "name": "isActive",
      "outputs": [
        {
          "internalType": "bool",
          "name": "",
          "type": "bool"
        }
      ],
      "stateMutability": "view",
      "type": "function"
    },
    {
      "inputs": [],
      "name": "isAnEmergency",
      "outputs": [
        {
          "internalType": "bool",
          "name": "",
          "type": "bool"
        }
      ],
      "stateMutability": "view",
      "type": "function"
    },
    {
      "inputs": [],
      "name": "isDeleted",
      "outputs": [
        {
          "internalType": "bool",
          "name": "",
          "type": "bool"
        }
      ],
      "stateMutability": "view",
      "type": "function"
    },
    {
      "inputs": [],
      "name": "isEnhancedEnabled",
      "outputs": [
        {
          "internalType": "bool",
          "name": "",
          "type": "bool"
        }
      ],
      "stateMutability": "view",
      "type": "function"
    },
    {
      "inputs": [],
      "name": "isLocked",
      "outputs": [
        {
          "internalType": "bool",
          "name": "",
          "type": "bool"
        }
      ],
      "stateMutability": "view",
      "type": "function"
    },
    {
      "inputs": [],
      "name": "isMatured",
      "outputs": [
        {
          "internalType": "bool",
          "name": "",
          "type": "bool"
        }
      ],
      "stateMutability": "view",
      "type": "function"
    },
    {
      "inputs": [],
      "name": "launchDate",
      "outputs": [
        {
          "internalType": "uint256",
          "name": "",
          "type": "uint256"
        }
      ],
      "stateMutability": "view",
      "type": "function"
    },
    {
      "inputs": [],
      "name": "lockTime",
      "outputs": [
        {
          "internalType": "uint256",
          "name": "",
          "type": "uint256"
        }
      ],
      "stateMutability": "view",
      "type": "function"
    },
    {
      "inputs": [],
      "name": "lps",
      "outputs": [
        {
          "internalType": "uint256",
          "name": "launchDate",
          "type": "uint256"
        },
        {
          "internalType": "uint256",
          "name": "lockTime",
          "type": "uint256"
        },
        {
          "internalType": "uint256",
          "name": "maturityTime",
          "type": "uint256"
        },
        {
          "internalType": "uint256",
          "name": "maturingPrice",
          "type": "uint256"
        },
        {
          "internalType": "uint256",
          "name": "usdPrizeAmount",
          "type": "uint256"
        },
        {
          "internalType": "uint256",
          "name": "prizeAmount",
          "type": "uint256"
        },
        {
          "internalType": "uint256",
          "name": "stakeApr",
          "type": "uint256"
        },
        {
          "internalType": "uint256",
          "name": "collaborativeReward",
          "type": "uint256"
        },
        {
          "internalType": "bool",
          "name": "isEnhancedEnabled",
          "type": "bool"
        },
        {
          "internalType": "bool",
          "name": "isMatured",
          "type": "bool"
        }
      ],
      "stateMutability": "view",
      "type": "function"
    },
    {
      "inputs": [],
      "name": "maturingPrice",
      "outputs": [
        {
          "internalType": "uint256",
          "name": "",
          "type": "uint256"
        }
      ],
      "stateMutability": "view",
      "type": "function"
    },
    {
      "inputs": [],
      "name": "maturityTime",
      "outputs": [
        {
          "internalType": "uint256",
          "name": "",
          "type": "uint256"
        }
      ],
      "stateMutability": "view",
      "type": "function"
    },
    {
      "inputs": [],
      "name": "minimumStakeAmount",
      "outputs": [
        {
          "internalType": "uint256",
          "name": "",
          "type": "uint256"
        }
      ],
      "stateMutability": "view",
      "type": "function"
    },
    {
      "inputs": [],
      "name": "oracleContract",
      "outputs": [
        {
          "internalType": "address",
          "name": "",
          "type": "address"
        }
      ],
      "stateMutability": "view",
      "type": "function"
    },
    {
      "inputs": [],
      "name": "oracleDecimal",
      "outputs": [
        {
          "internalType": "uint256",
          "name": "",
          "type": "uint256"
        }
      ],
      "stateMutability": "view",
      "type": "function"
    },
    {
      "inputs": [],
      "name": "owner",
      "outputs": [
        {
          "internalType": "address",
          "name": "",
          "type": "address"
        }
      ],
      "stateMutability": "view",
      "type": "function"
    },
    {
      "inputs": [],
      "name": "poolCreator",
      "outputs": [
        {
          "internalType": "address",
          "name": "",
          "type": "address"
        }
      ],
      "stateMutability": "view",
      "type": "function"
    },
    {
      "inputs": [],
      "name": "poolType",
      "outputs": [
        {
          "internalType": "string",
          "name": "",
          "type": "string"
        }
      ],
      "stateMutability": "view",
      "type": "function"
    },
    {
      "inputs": [],
      "name": "potentialCollabReward",
      "outputs": [
        {
          "internalType": "uint256",
          "name": "",
          "type": "uint256"
        }
      ],
      "stateMutability": "view",
      "type": "function"
    },
    {
      "inputs": [
        {
          "internalType": "address",
          "name": "",
          "type": "address"
        },
        {
          "internalType": "uint256",
          "name": "",
          "type": "uint256"
        }
      ],
      "name": "predictions",
      "outputs": [
        {
          "internalType": "uint256",
          "name": "stakedBalance",
          "type": "uint256"
        },
        {
          "internalType": "uint256",
          "name": "stakedTime",
          "type": "uint256"
        },
        {
          "internalType": "uint256",
          "name": "amountWithdrawn",
          "type": "uint256"
        },
        {
          "internalType": "uint256",
          "name": "lastWithdrawalTime",
          "type": "uint256"
        },
        {
          "internalType": "uint256",
          "name": "pricePrediction",
          "type": "uint256"
        },
        {
          "internalType": "uint256",
          "name": "difference",
          "type": "uint256"
        },
        {
          "internalType": "uint256",
          "name": "rank",
          "type": "uint256"
        },
        {
          "internalType": "bool",
          "name": "prizeRewardWithdrawn",
          "type": "bool"
        },
        {
          "internalType": "bool",
          "name": "didUnstake",
          "type": "bool"
        }
      ],
      "stateMutability": "view",
      "type": "function"
    },
    {
      "inputs": [],
      "name": "prizeAmount",
      "outputs": [
        {
          "internalType": "uint256",
          "name": "",
          "type": "uint256"
        }
      ],
      "stateMutability": "view",
      "type": "function"
    },
    {
      "inputs": [
        {
          "internalType": "uint256",
          "name": "",
          "type": "uint256"
        }
      ],
      "name": "prizeRewardRates",
      "outputs": [
        {
          "internalType": "uint256",
          "name": "rank",
          "type": "uint256"
        },
        {
          "internalType": "uint256",
          "name": "percentage",
          "type": "uint256"
        }
      ],
      "stateMutability": "view",
      "type": "function"
    },
    {
      "inputs": [],
      "name": "renounceOwnership",
      "outputs": [],
      "stateMutability": "nonpayable",
      "type": "function"
    },
    {
      "inputs": [],
      "name": "rewardManager",
      "outputs": [
        {
          "internalType": "contract IRewardManager",
          "name": "",
          "type": "address"
        }
      ],
      "stateMutability": "view",
      "type": "function"
    },
    {
      "inputs": [],
      "name": "sizeAllocation",
      "outputs": [
        {
          "internalType": "uint256",
          "name": "",
          "type": "uint256"
        }
      ],
      "stateMutability": "view",
      "type": "function"
    },
    {
      "inputs": [],
      "name": "sizeLimitRangeRate",
      "outputs": [
        {
          "internalType": "uint256",
          "name": "",
          "type": "uint256"
        }
      ],
      "stateMutability": "view",
      "type": "function"
    },
    {
      "inputs": [
        {
          "internalType": "uint256",
          "name": "",
          "type": "uint256"
        }
      ],
      "name": "sortedStakers",
      "outputs": [
        {
          "internalType": "address",
          "name": "stakerAddress",
          "type": "address"
        },
        {
          "internalType": "uint256",
          "name": "index",
          "type": "uint256"
        }
      ],
      "stateMutability": "view",
      "type": "function"
    },
    {
      "inputs": [],
      "name": "stakeApr",
      "outputs": [
        {
          "internalType": "uint256",
          "name": "",
          "type": "uint256"
        }
      ],
      "stateMutability": "view",
      "type": "function"
    },
    {
      "inputs": [],
      "name": "stakeTaxRate",
      "outputs": [
        {
          "internalType": "uint256",
          "name": "",
          "type": "uint256"
        }
      ],
      "stateMutability": "view",
      "type": "function"
    },
    {
      "inputs": [
        {
          "internalType": "uint256",
          "name": "",
          "type": "uint256"
        }
      ],
      "name": "stakers",
      "outputs": [
        {
          "internalType": "address",
          "name": "stakerAddress",
          "type": "address"
        },
        {
          "internalType": "uint256",
          "name": "index",
          "type": "uint256"
        }
      ],
      "stateMutability": "view",
      "type": "function"
    },
    {
      "inputs": [],
      "name": "stakingPoolImplementation",
      "outputs": [
        {
          "internalType": "address",
          "name": "",
          "type": "address"
        }
      ],
      "stateMutability": "view",
      "type": "function"
    },
    {
      "inputs": [],
      "name": "totalStaked",
      "outputs": [
        {
          "internalType": "uint256",
          "name": "",
          "type": "uint256"
        }
      ],
      "stateMutability": "view",
      "type": "function"
    },
    {
      "inputs": [],
      "name": "totemToken",
      "outputs": [
        {
          "internalType": "contract ITotemToken",
          "name": "",
          "type": "address"
        }
      ],
      "stateMutability": "view",
      "type": "function"
    },
    {
      "inputs": [
        {
          "internalType": "address",
          "name": "newOwner",
          "type": "address"
        }
      ],
      "name": "transferOwnership",
      "outputs": [],
      "stateMutability": "nonpayable",
      "type": "function"
    },
    {
      "inputs": [],
      "name": "upgradeEnabled",
      "outputs": [
        {
          "internalType": "bool",
          "name": "",
          "type": "bool"
        }
      ],
      "stateMutability": "view",
      "type": "function"
    },
    {
      "inputs": [
        {
          "internalType": "address",
          "name": "_newStakingPoolImplementation",
          "type": "address"
        }
      ],
      "name": "upgradeTo",
      "outputs": [],
      "stateMutability": "nonpayable",
      "type": "function"
    },
    {
      "inputs": [],
      "name": "usdPrizeAmount",
      "outputs": [
        {
          "internalType": "uint256",
          "name": "",
          "type": "uint256"
        }
      ],
      "stateMutability": "view",
      "type": "function"
    },
    {
      "inputs": [],
      "name": "wrappedToken",
      "outputs": [
        {
          "internalType": "contract IERC20",
          "name": "",
          "type": "address"
        }
      ],
      "stateMutability": "view",
      "type": "function"
    },
    {
      "inputs": [],
      "name": "wrappedTokenSymbol",
      "outputs": [
        {
          "internalType": "string",
          "name": "",
          "type": "string"
        }
      ],
      "stateMutability": "view",
      "type": "function"
    },
    {
      "stateMutability": "payable",
      "type": "receive"
    }
  ],
  "bytecode": "0x608060405234801561001057600080fd5b50606b80546001600160a01b03191633179055608d805460ff60301b1916660100000000000017905561218d806100486000396000f3fe6080604052600436106103035760003560e01c8063996c6cc311610190578063de09ee20116100dc578063f0141d8411610095578063f3d9dc0d1161006f578063f3d9dc0d14610837578063f5e96fc91461084c578063f8eeed6214610861578063fd5e6dd1146108765761030a565b8063f0141d84146107c7578063f1b17a8b146107e9578063f2fde38b146108175761030a565b8063de09ee201461070f578063e08186691461073d578063e425df8c14610768578063e477ad711461077d578063e8153c931461079d578063eb850ae1146107b25761030a565b8063aa7bcb5711610149578063c120105411610123578063c1201054146106bb578063c6c1decd146106d0578063d025188b146106e5578063d7efb6b7146106fa5761030a565b8063aa7bcb571461067c578063b1dd61b614610691578063bece7532146106a65761030a565b8063996c6cc3146105e6578063a08b2c79146105fb578063a150194b14610610578063a35ef3a714610625578063a4e2d63414610647578063a8f7b3461461065c5761030a565b806367fc91381161024f5780637f2b6a0d116102085780638cf0e21e116101e25780638cf0e21e146105925780638da5cb5b146105a75780638e15f473146105bc57806395c2ba47146105d15761030a565b80637f2b6a0d14610533578063817b1cd214610548578063850fa7cb1461055d5761030a565b806367fc9138146104b55780636847d0c5146104ca5780636b036f45146104df578063715018a6146104f457806373f3170314610509578063785fa6271461051e5761030a565b80632e577d07116102bc5780633fcdd82c116102965780633fcdd82c146104565780634bc4eeb2146104765780634e8bfdaa1461048b57806351eacbf0146104a05761030a565b80632e577d07146104015780633659cfe61461041657806337c4f6a4146104365761030a565b80630d668087146103445780630f4ef8a61461036f57806322f3e2d414610391578063238a6c74146103b357806328016f9a146103d55780632aa8195e146103ec5761030a565b3661030a57005b606a546001600160a01b03168061032057600080fd5b3660008037600080366000845af43d6000803e80801561033f573d6000f35b3d6000fd5b34801561035057600080fd5b50610359610896565b6040516103669190611fce565b60405180910390f35b34801561037b57600080fd5b5061038461089c565b6040516103669190611d7d565b34801561039d57600080fd5b506103a66108ab565b6040516103669190611dbd565b3480156103bf57600080fd5b506103c86108ba565b6040516103669190611dc8565b3480156103e157600080fd5b506103ea610948565b005b3480156103f857600080fd5b506103846109a5565b34801561040d57600080fd5b506103846109b4565b34801561042257600080fd5b506103ea610431366004611a6d565b6109c3565b34801561044257600080fd5b506103ea610451366004611a6d565b610a5d565b34801561046257600080fd5b50610359610471366004611c9a565b610aee565b34801561048257600080fd5b506103a6610bb2565b34801561049757600080fd5b50610359610bc0565b3480156104ac57600080fd5b50610359610bc6565b3480156104c157600080fd5b506103ea610bcc565b3480156104d657600080fd5b50610359610c1a565b3480156104eb57600080fd5b50610359610c20565b34801561050057600080fd5b506103ea610c26565b34801561051557600080fd5b50610359610c71565b34801561052a57600080fd5b50610359610c77565b34801561053f57600080fd5b506103a6610c7d565b34801561055457600080fd5b50610359610c8e565b34801561056957600080fd5b5061057d610578366004611ada565b610c94565b60405161036699989796959493929190612006565b34801561059e57600080fd5b506103a6610d02565b3480156105b357600080fd5b50610384610d12565b3480156105c857600080fd5b50610359610d21565b3480156105dd57600080fd5b50610359610dc8565b3480156105f257600080fd5b50610384610dcd565b34801561060757600080fd5b506103a6610ddc565b34801561061c57600080fd5b50610359610de5565b34801561063157600080fd5b5061063a610dea565b6040516103669190611daa565b34801561065357600080fd5b506103a6610e99565b34801561066857600080fd5b506103ea610677366004611a90565b610ea9565b34801561068857600080fd5b50610359610f5e565b34801561069d57600080fd5b506103c8610f64565b3480156106b257600080fd5b50610384610f71565b3480156106c757600080fd5b50610359610f80565b3480156106dc57600080fd5b50610384611006565b3480156106f157600080fd5b50610359611015565b34801561070657600080fd5b506103a661101b565b34801561071b57600080fd5b5061072f61072a366004611c9a565b61102d565b604051610366929190611d91565b34801561074957600080fd5b50610752611065565b6040516103669a99989796959493929190612049565b34801561077457600080fd5b5061035961108f565b34801561078957600080fd5b506103ea610798366004611bac565b611095565b3480156107a957600080fd5b506103846113e9565b3480156107be57600080fd5b506103596113f8565b3480156107d357600080fd5b506107dc6113fe565b6040516103669190612092565b3480156107f557600080fd5b50610809610804366004611c9a565b611487565b604051610366929190611ff8565b34801561082357600080fd5b506103ea610832366004611a6d565b6114b5565b34801561084357600080fd5b50610359611526565b34801561085857600080fd5b5061038461152c565b34801561086d57600080fd5b5061035961153b565b34801561088257600080fd5b5061072f610891366004611c9a565b611541565b60805481565b607b546001600160a01b031681565b608d5462010000900460ff1681565b607d80546108c7906120ca565b80601f01602080910402602001604051908101604052809291908181526020018280546108f3906120ca565b80156109405780601f1061091557610100808354040283529160200191610940565b820191906000526020600020905b81548152906001019060200180831161092357829003601f168201915b505050505081565b610950611551565b6001600160a01b0316610961610d12565b6001600160a01b0316146109905760405162461bcd60e51b815260040161098790611f1d565b60405180910390fd5b608d805460ff60301b1916600160301b179055565b606a546001600160a01b031681565b6067546001600160a01b031690565b606b546001600160a01b031633146109ed5760405162461bcd60e51b815260040161098790611f97565b608d54600160301b900460ff16610a165760405162461bcd60e51b815260040161098790611e1b565b606a546001600160a01b0382811691161415610a445760405162461bcd60e51b815260040161098790611e98565b610a4d81611555565b50608d805460ff60301b19169055565b600054610100900460ff1680610a76575060005460ff16155b610a925760405162461bcd60e51b815260040161098790611ecf565b600054610100900460ff16158015610abd576000805460ff1961ff0019909116610100171660011790555b606580546001600160a01b0319166001600160a01b0384161790558015610aea576000805461ff00191690555b5050565b60675460009081906001600160a01b031663d06ca61f84610b0d610dea565b6040518363ffffffff1660e01b8152600401610b2a929190611fd7565b60006040518083038186803b158015610b4257600080fd5b505afa158015610b56573d6000803e3d6000fd5b505050506040513d6000823e601f3d908101601f19168201604052610b7e9190810190611b05565b905080600181518110610ba157634e487b7160e01b600052603260045260246000fd5b60200260200101519150505b919050565b608d54610100900460ff1681565b60815481565b60825481565b610bd4611551565b6001600160a01b0316610be5610d12565b6001600160a01b031614610c0b5760405162461bcd60e51b815260040161098790611f1d565b608d805460ff60301b19169055565b60865481565b60875481565b610c2e611551565b6001600160a01b0316610c3f610d12565b6001600160a01b031614610c655760405162461bcd60e51b815260040161098790611f1d565b610c6f600061159c565b565b60855481565b60845481565b608d54640100000000900460ff1681565b60885481565b60796020528160005260406000208181548110610cb057600080fd5b6000918252602090912060089091020180546001820154600283015460038401546004850154600586015460068701546007909701549598509396509194909391929160ff8082169161010090041689565b608d54600160301b900460ff1681565b6033546001600160a01b031690565b600080606560009054906101000a90046001600160a01b03166001600160a01b031663feaf968c6040518163ffffffff1660e01b815260040160a06040518083038186803b158015610d7257600080fd5b505afa158015610d86573d6000803e3d6000fd5b505050506040513d601f19601f82011682018060405250810190610daa9190611cca565b5050509150506000811215610dc0576000610dc2565b805b91505090565b600581565b607c546001600160a01b031681565b608d5460ff1681565b600881565b60408051600280825260608083018452926000929190602083019080368337505060685482519293506001600160a01b031691839150600090610e3d57634e487b7160e01b600052603260045260246000fd5b6001600160a01b039283166020918202929092010152606954825191169082906001908110610e7c57634e487b7160e01b600052603260045260246000fd5b6001600160a01b0390921660209283029190910190910152905090565b608d546301000000900460ff1681565b600054610100900460ff1680610ec2575060005460ff16155b610ede5760405162461bcd60e51b815260040161098790611ecf565b600054610100900460ff16158015610f09576000805460ff1961ff0019909116610100171660011790555b606780546001600160a01b038087166001600160a01b0319928316179092556068805486841690831617905560698054928516929091169190911790558015610f58576000805461ff00191690555b50505050565b60835481565b607e80546108c7906120ca565b606c546001600160a01b031681565b6066546040516370a0823160e01b81526000916001600160a01b0316906370a0823190610fb1903090600401611d7d565b60206040518083038186803b158015610fc957600080fd5b505afa158015610fdd573d6000803e3d6000fd5b505050506040513d601f19601f820116820180604052508101906110019190611cb2565b905090565b606b546001600160a01b031681565b60895481565b608d5465010000000000900460ff1681565b6078818154811061103d57600080fd5b6000918252602090912060029091020180546001909101546001600160a01b03909116915082565b606d54606e54606f5460705460715460725460735460745460755460ff808216916101009004168a565b608a5481565b600054610100900460ff16806110ae575060005460ff16155b6110ca5760405162461bcd60e51b815260040161098790611ecf565b600054610100900460ff161580156110f5576000805460ff1961ff0019909116610100171660011790555b606b546001600160a01b0316331461111f5760405162461bcd60e51b815260040161098790611f97565b6111276115ee565b61112f611672565b604086015161113d90610a5d565b855160208701516060880151611154929190610ea9565b845142106111745760405162461bcd60e51b815260040161098790611f52565b8a5161118790607d9060208e01906117df565b50895161119b90607e9060208d01906117df565b50607a80546001600160a01b03808c166001600160a01b031992831617909255607b80548b8416908316179055606b8054928a16929091169190911790556111e986600160200201516116da565b604086810151606c80546001600160a01b03199081166001600160a01b03938416179091556060808a0151607c805490931693169290921790558651607f5560208701516081559086015160809081559086015160825585015160835560a085015160845560c085015160855560e0850151608a5561010080860151608b55610120860151608655610140860151608755608d805461ff00191684151590920291909117905560005b6008811015611362578381600881106112bb57634e487b7160e01b600052603260045260246000fd5b60200201516112c957611362565b607660405180604001604052808784600881106112f657634e487b7160e01b600052603260045260246000fd5b6020020151815260200186846008811061132057634e487b7160e01b600052603260045260246000fd5b6020908102919091015190915282546001818101855560009485529382902083516002909202019081559101519101558061135a81612105565b915050611292565b50607f54606d55608054606e55608154606f55608954607055608554607155608454607255608354607355608c54607455608d546075805460ff191661010080840460ff90811615159290921761ff0019166401000000009094049190911615150291909117905580156113dc576000805461ff00191690555b5050505050505050505050565b607a546001600160a01b031681565b608b5481565b600080606560009054906101000a90046001600160a01b03166001600160a01b031663313ce5676040518163ffffffff1660e01b815260040160206040518083038186803b15801561144f57600080fd5b505afa158015611463573d6000803e3d6000fd5b505050506040513d601f19601f82011682018060405250810190610dc29190611d19565b6076818154811061149757600080fd5b60009182526020909120600290910201805460019091015490915082565b6114bd611551565b6001600160a01b03166114ce610d12565b6001600160a01b0316146114f45760405162461bcd60e51b815260040161098790611f1d565b6001600160a01b03811661151a5760405162461bcd60e51b815260040161098790611e52565b6115238161159c565b50565b608c5481565b6066546001600160a01b031690565b607f5481565b6077818154811061103d57600080fd5b3390565b606a80546001600160a01b0319166001600160a01b0383161790556040517f3dab95f89f74034beeac9f9fe9bec350186cb958223e1791afb0dbb64859cabd90600090a150565b603380546001600160a01b038381166001600160a01b0319831681179093556040519116919082907f8be0079c531659141344cd1fd0a4f28419497f9722a3daafe3b4186f6b6457e090600090a35050565b600054610100900460ff1680611607575060005460ff16155b6116235760405162461bcd60e51b815260040161098790611ecf565b600054610100900460ff1615801561164e576000805460ff1961ff0019909116610100171660011790555b6116566116fc565b61165e61176f565b8015611523576000805461ff001916905550565b600054610100900460ff168061168b575060005460ff16155b6116a75760405162461bcd60e51b815260040161098790611ecf565b600054610100900460ff161580156116d2576000805460ff1961ff0019909116610100171660011790555b61165e6116fc565b606680546001600160a01b0319166001600160a01b0392909216919091179055565b600054610100900460ff1680611715575060005460ff16155b6117315760405162461bcd60e51b815260040161098790611ecf565b600054610100900460ff1615801561165e576000805460ff1961ff0019909116610100171660011790558015611523576000805461ff001916905550565b600054610100900460ff1680611788575060005460ff16155b6117a45760405162461bcd60e51b815260040161098790611ecf565b600054610100900460ff161580156117cf576000805460ff1961ff0019909116610100171660011790555b61165e6117da611551565b61159c565b8280546117eb906120ca565b90600052602060002090601f01602090048101928261180d5760008555611853565b82601f1061182657805160ff1916838001178555611853565b82800160010185558215611853579182015b82811115611853578251825591602001919060010190611838565b5061185f929150611863565b5090565b5b8082111561185f5760008155600101611864565b8035610bad81612142565b600082601f830112611893578081fd5b6040516080810181811067ffffffffffffffff821117156118b6576118b661212c565b6040528083608081018610156118ca578384fd5b835b60048110156118f55781356118e081612142565b835260209283019291909101906001016118cc565b509195945050505050565b600082601f830112611910578081fd5b60405161016080820182811067ffffffffffffffff821117156119355761193561212c565b6040528184828101871015611948578485fd5b8492505b600b8310156118f55780358252600192909201916020918201910161194c565b600082601f83011261197c578081fd5b60405161010080820182811067ffffffffffffffff821117156119a1576119a161212c565b60405281848281018710156119b4578485fd5b8492505b60088310156118f5578035825260019290920191602091820191016119b8565b80358015158114610bad57600080fd5b600082601f8301126119f8578081fd5b813567ffffffffffffffff811115611a1257611a1261212c565b611a25601f8201601f19166020016120a0565b818152846020838601011115611a39578283fd5b816020850160208301379081016020019190915292915050565b805169ffffffffffffffffffff81168114610bad57600080fd5b600060208284031215611a7e578081fd5b8135611a8981612142565b9392505050565b600080600060608486031215611aa4578182fd5b8335611aaf81612142565b92506020840135611abf81612142565b91506040840135611acf81612142565b809150509250925092565b60008060408385031215611aec578182fd5b8235611af781612142565b946020939093013593505050565b60006020808385031215611b17578182fd5b825167ffffffffffffffff80821115611b2e578384fd5b818501915085601f830112611b41578384fd5b815181811115611b5357611b5361212c565b8381029150611b638483016120a0565b8181528481019084860184860187018a1015611b7d578788fd5b8795505b83861015611b9f578051835260019590950194918601918601611b81565b5098975050505050505050565b6000806000806000806000806000806104a08b8d031215611bcb578586fd5b8a3567ffffffffffffffff80821115611be2578788fd5b611bee8e838f016119e8565b9b5060208d0135915080821115611c03578788fd5b50611c108d828e016119e8565b995050611c1f60408c01611878565b9750611c2d60608c01611878565b9650611c3b60808c01611878565b9550611c4a8c60a08d01611883565b9450611c5a8c6101208d01611900565b9350611c6a8c6102808d0161196c565b9250611c7a8c6103808d0161196c565b9150611c896104808c016119d8565b90509295989b9194979a5092959850565b600060208284031215611cab578081fd5b5035919050565b600060208284031215611cc3578081fd5b5051919050565b600080600080600060a08688031215611ce1578283fd5b611cea86611a53565b9450602086015193506040860151925060608601519150611d0d60808701611a53565b90509295509295909350565b600060208284031215611d2a578081fd5b815160ff81168114611a89578182fd5b6000815180845260208085019450808401835b83811015611d725781516001600160a01b031687529582019590820190600101611d4d565b509495945050505050565b6001600160a01b0391909116815260200190565b6001600160a01b03929092168252602082015260400190565b600060208252611a896020830184611d3a565b901515815260200190565b6000602080835283518082850152825b81811015611df457858101830151858201604001528201611dd8565b81811115611e055783604083870101525b50601f01601f1916929092016040019392505050565b6020808252601a908201527f55706772616465206973206e6f7420656e61626c656420796574000000000000604082015260600190565b60208082526026908201527f4f776e61626c653a206e6577206f776e657220697320746865207a65726f206160408201526564647265737360d01b606082015260800190565b6020808252601d908201527f497320616c72656164792074686520696d706c656d656e746174696f6e000000604082015260600190565b6020808252602e908201527f496e697469616c697a61626c653a20636f6e747261637420697320616c72656160408201526d191e481a5b9a5d1a585b1a5e995960921b606082015260800190565b6020808252818101527f4f776e61626c653a2063616c6c6572206973206e6f7420746865206f776e6572604082015260600190565b60208082526025908201527f30333031206c61756e636820646174652063616e277420626520696e20746865604082015264081c185cdd60da1b606082015260800190565b6020808252601a908201527f6d73672e73656e646572206973206e6f7420616e206f776e6572000000000000604082015260600190565b90815260200190565b600083825260406020830152611ff06040830184611d3a565b949350505050565b918252602082015260400190565b988952602089019790975260408801959095526060870193909352608086019190915260a085015260c0840152151560e083015215156101008201526101200190565b998a5260208a019890985260408901969096526060880194909452608087019290925260a086015260c085015260e0840152151561010083015215156101208201526101400190565b60ff91909116815260200190565b60405181810167ffffffffffffffff811182821017156120c2576120c261212c565b604052919050565b6002810460018216806120de57607f821691505b602082108114156120ff57634e487b7160e01b600052602260045260246000fd5b50919050565b600060001982141561212557634e487b7160e01b81526011600452602481fd5b5060010190565b634e487b7160e01b600052604160045260246000fd5b6001600160a01b038116811461152357600080fdfea2646970667358221220a097e83c2482fd99d574b71919dce09c9dcd72e6db76d537c66997784585b08864736f6c63430008000033",
  "linkReferences": {},
  "deployedLinkReferences": {},
  "devdoc": {
    "kind": "dev",
    "methods": {
      "__PriceConsumer_initialize(address)": {
        "params": {
          "_oracle": "The chainlink node oracle address to send requests"
        }
      },
      "constructor": {
        "details": "poolCreator is set to the address of StakingPoolFactory here, but it will change to the address of the owner after initialize is called. This is to prevent any other entity other than the StakingPoolFactory to call initialize and upgradeTo (for the  first time). upgradeEnabled set to true so that upgradeTo can be called for the first time when the main impelementaiton is being set. "
      },
      "getEstimatedWrappedTokenForUSD(uint256)": {
        "params": {
          "_amount": "Amount"
        }
      },
      "initialize(string,string,address,address,address,address[4],uint256[11],uint256[8],uint256[8],bool)": {
        "params": {
          "_addrs": "Addresses used by priceConsumer and WrappedTokenDistributor _addrs[0] = swapRouterAddress _addrs[1] = BUSDContractAddress _addrs[2] = OracleAddress _addrs[3] = WrappedTokenContractAddress"
        }
      },
      "owner()": {
        "details": "Returns the address of the current owner."
      },
      "renounceOwnership()": {
        "details": "Leaves the contract without owner. It will not be possible to call `onlyOwner` functions anymore. Can only be called by the current owner. NOTE: Renouncing ownership will leave the contract without an owner, thereby removing any functionality that is only available to the owner."
      },
      "transferOwnership(address)": {
        "details": "Transfers ownership of the contract to a new account (`newOwner`). Can only be called by the current owner."
      }
    },
    "version": 1
  },
  "evm": {
    "bytecode": {
      "linkReferences": {},
      "opcodes": "PUSH1 0x80 PUSH1 0x40 MSTORE CALLVALUE DUP1 ISZERO PUSH2 0x10 JUMPI PUSH1 0x0 DUP1 REVERT JUMPDEST POP PUSH1 0x6B DUP1 SLOAD PUSH1 0x1 PUSH1 0x1 PUSH1 0xA0 SHL SUB NOT AND CALLER OR SWAP1 SSTORE PUSH1 0x8D DUP1 SLOAD PUSH1 0xFF PUSH1 0x30 SHL NOT AND PUSH7 0x1000000000000 OR SWAP1 SSTORE PUSH2 0x218D DUP1 PUSH2 0x48 PUSH1 0x0 CODECOPY PUSH1 0x0 RETURN INVALID PUSH1 0x80 PUSH1 0x40 MSTORE PUSH1 0x4 CALLDATASIZE LT PUSH2 0x303 JUMPI PUSH1 0x0 CALLDATALOAD PUSH1 0xE0 SHR DUP1 PUSH4 0x996C6CC3 GT PUSH2 0x190 JUMPI DUP1 PUSH4 0xDE09EE20 GT PUSH2 0xDC JUMPI DUP1 PUSH4 0xF0141D84 GT PUSH2 0x95 JUMPI DUP1 PUSH4 0xF3D9DC0D GT PUSH2 0x6F JUMPI DUP1 PUSH4 0xF3D9DC0D EQ PUSH2 0x837 JUMPI DUP1 PUSH4 0xF5E96FC9 EQ PUSH2 0x84C JUMPI DUP1 PUSH4 0xF8EEED62 EQ PUSH2 0x861 JUMPI DUP1 PUSH4 0xFD5E6DD1 EQ PUSH2 0x876 JUMPI PUSH2 0x30A JUMP JUMPDEST DUP1 PUSH4 0xF0141D84 EQ PUSH2 0x7C7 JUMPI DUP1 PUSH4 0xF1B17A8B EQ PUSH2 0x7E9 JUMPI DUP1 PUSH4 0xF2FDE38B EQ PUSH2 0x817 JUMPI PUSH2 0x30A JUMP JUMPDEST DUP1 PUSH4 0xDE09EE20 EQ PUSH2 0x70F JUMPI DUP1 PUSH4 0xE0818669 EQ PUSH2 0x73D JUMPI DUP1 PUSH4 0xE425DF8C EQ PUSH2 0x768 JUMPI DUP1 PUSH4 0xE477AD71 EQ PUSH2 0x77D JUMPI DUP1 PUSH4 0xE8153C93 EQ PUSH2 0x79D JUMPI DUP1 PUSH4 0xEB850AE1 EQ PUSH2 0x7B2 JUMPI PUSH2 0x30A JUMP JUMPDEST DUP1 PUSH4 0xAA7BCB57 GT PUSH2 0x149 JUMPI DUP1 PUSH4 0xC1201054 GT PUSH2 0x123 JUMPI DUP1 PUSH4 0xC1201054 EQ PUSH2 0x6BB JUMPI DUP1 PUSH4 0xC6C1DECD EQ PUSH2 0x6D0 JUMPI DUP1 PUSH4 0xD025188B EQ PUSH2 0x6E5 JUMPI DUP1 PUSH4 0xD7EFB6B7 EQ PUSH2 0x6FA JUMPI PUSH2 0x30A JUMP JUMPDEST DUP1 PUSH4 0xAA7BCB57 EQ PUSH2 0x67C JUMPI DUP1 PUSH4 0xB1DD61B6 EQ PUSH2 0x691 JUMPI DUP1 PUSH4 0xBECE7532 EQ PUSH2 0x6A6 JUMPI PUSH2 0x30A JUMP JUMPDEST DUP1 PUSH4 0x996C6CC3 EQ PUSH2 0x5E6 JUMPI DUP1 PUSH4 0xA08B2C79 EQ PUSH2 0x5FB JUMPI DUP1 PUSH4 0xA150194B EQ PUSH2 0x610 JUMPI DUP1 PUSH4 0xA35EF3A7 EQ PUSH2 0x625 JUMPI DUP1 PUSH4 0xA4E2D634 EQ PUSH2 0x647 JUMPI DUP1 PUSH4 0xA8F7B346 EQ PUSH2 0x65C JUMPI PUSH2 0x30A JUMP JUMPDEST DUP1 PUSH4 0x67FC9138 GT PUSH2 0x24F JUMPI DUP1 PUSH4 0x7F2B6A0D GT PUSH2 0x208 JUMPI DUP1 PUSH4 0x8CF0E21E GT PUSH2 0x1E2 JUMPI DUP1 PUSH4 0x8CF0E21E EQ PUSH2 0x592 JUMPI DUP1 PUSH4 0x8DA5CB5B EQ PUSH2 0x5A7 JUMPI DUP1 PUSH4 0x8E15F473 EQ PUSH2 0x5BC JUMPI DUP1 PUSH4 0x95C2BA47 EQ PUSH2 0x5D1 JUMPI PUSH2 0x30A JUMP JUMPDEST DUP1 PUSH4 0x7F2B6A0D EQ PUSH2 0x533 JUMPI DUP1 PUSH4 0x817B1CD2 EQ PUSH2 0x548 JUMPI DUP1 PUSH4 0x850FA7CB EQ PUSH2 0x55D JUMPI PUSH2 0x30A JUMP JUMPDEST DUP1 PUSH4 0x67FC9138 EQ PUSH2 0x4B5 JUMPI DUP1 PUSH4 0x6847D0C5 EQ PUSH2 0x4CA JUMPI DUP1 PUSH4 0x6B036F45 EQ PUSH2 0x4DF JUMPI DUP1 PUSH4 0x715018A6 EQ PUSH2 0x4F4 JUMPI DUP1 PUSH4 0x73F31703 EQ PUSH2 0x509 JUMPI DUP1 PUSH4 0x785FA627 EQ PUSH2 0x51E JUMPI PUSH2 0x30A JUMP JUMPDEST DUP1 PUSH4 0x2E577D07 GT PUSH2 0x2BC JUMPI DUP1 PUSH4 0x3FCDD82C GT PUSH2 0x296 JUMPI DUP1 PUSH4 0x3FCDD82C EQ PUSH2 0x456 JUMPI DUP1 PUSH4 0x4BC4EEB2 EQ PUSH2 0x476 JUMPI DUP1 PUSH4 0x4E8BFDAA EQ PUSH2 0x48B JUMPI DUP1 PUSH4 0x51EACBF0 EQ PUSH2 0x4A0 JUMPI PUSH2 0x30A JUMP JUMPDEST DUP1 PUSH4 0x2E577D07 EQ PUSH2 0x401 JUMPI DUP1 PUSH4 0x3659CFE6 EQ PUSH2 0x416 JUMPI DUP1 PUSH4 0x37C4F6A4 EQ PUSH2 0x436 JUMPI PUSH2 0x30A JUMP JUMPDEST DUP1 PUSH4 0xD668087 EQ PUSH2 0x344 JUMPI DUP1 PUSH4 0xF4EF8A6 EQ PUSH2 0x36F JUMPI DUP1 PUSH4 0x22F3E2D4 EQ PUSH2 0x391 JUMPI DUP1 PUSH4 0x238A6C74 EQ PUSH2 0x3B3 JUMPI DUP1 PUSH4 0x28016F9A EQ PUSH2 0x3D5 JUMPI DUP1 PUSH4 0x2AA8195E EQ PUSH2 0x3EC JUMPI PUSH2 0x30A JUMP JUMPDEST CALLDATASIZE PUSH2 0x30A JUMPI STOP JUMPDEST PUSH1 0x6A SLOAD PUSH1 0x1 PUSH1 0x1 PUSH1 0xA0 SHL SUB AND DUP1 PUSH2 0x320 JUMPI PUSH1 0x0 DUP1 REVERT JUMPDEST CALLDATASIZE PUSH1 0x0 DUP1 CALLDATACOPY PUSH1 0x0 DUP1 CALLDATASIZE PUSH1 0x0 DUP5 GAS DELEGATECALL RETURNDATASIZE PUSH1 0x0 DUP1 RETURNDATACOPY DUP1 DUP1 ISZERO PUSH2 0x33F JUMPI RETURNDATASIZE PUSH1 0x0 RETURN JUMPDEST RETURNDATASIZE PUSH1 0x0 REVERT JUMPDEST CALLVALUE DUP1 ISZERO PUSH2 0x350 JUMPI PUSH1 0x0 DUP1 REVERT JUMPDEST POP PUSH2 0x359 PUSH2 0x896 JUMP JUMPDEST PUSH1 0x40 MLOAD PUSH2 0x366 SWAP2 SWAP1 PUSH2 0x1FCE JUMP JUMPDEST PUSH1 0x40 MLOAD DUP1 SWAP2 SUB SWAP1 RETURN JUMPDEST CALLVALUE DUP1 ISZERO PUSH2 0x37B JUMPI PUSH1 0x0 DUP1 REVERT JUMPDEST POP PUSH2 0x384 PUSH2 0x89C JUMP JUMPDEST PUSH1 0x40 MLOAD PUSH2 0x366 SWAP2 SWAP1 PUSH2 0x1D7D JUMP JUMPDEST CALLVALUE DUP1 ISZERO PUSH2 0x39D JUMPI PUSH1 0x0 DUP1 REVERT JUMPDEST POP PUSH2 0x3A6 PUSH2 0x8AB JUMP JUMPDEST PUSH1 0x40 MLOAD PUSH2 0x366 SWAP2 SWAP1 PUSH2 0x1DBD JUMP JUMPDEST CALLVALUE DUP1 ISZERO PUSH2 0x3BF JUMPI PUSH1 0x0 DUP1 REVERT JUMPDEST POP PUSH2 0x3C8 PUSH2 0x8BA JUMP JUMPDEST PUSH1 0x40 MLOAD PUSH2 0x366 SWAP2 SWAP1 PUSH2 0x1DC8 JUMP JUMPDEST CALLVALUE DUP1 ISZERO PUSH2 0x3E1 JUMPI PUSH1 0x0 DUP1 REVERT JUMPDEST POP PUSH2 0x3EA PUSH2 0x948 JUMP JUMPDEST STOP JUMPDEST CALLVALUE DUP1 ISZERO PUSH2 0x3F8 JUMPI PUSH1 0x0 DUP1 REVERT JUMPDEST POP PUSH2 0x384 PUSH2 0x9A5 JUMP JUMPDEST CALLVALUE DUP1 ISZERO PUSH2 0x40D JUMPI PUSH1 0x0 DUP1 REVERT JUMPDEST POP PUSH2 0x384 PUSH2 0x9B4 JUMP JUMPDEST CALLVALUE DUP1 ISZERO PUSH2 0x422 JUMPI PUSH1 0x0 DUP1 REVERT JUMPDEST POP PUSH2 0x3EA PUSH2 0x431 CALLDATASIZE PUSH1 0x4 PUSH2 0x1A6D JUMP JUMPDEST PUSH2 0x9C3 JUMP JUMPDEST CALLVALUE DUP1 ISZERO PUSH2 0x442 JUMPI PUSH1 0x0 DUP1 REVERT JUMPDEST POP PUSH2 0x3EA PUSH2 0x451 CALLDATASIZE PUSH1 0x4 PUSH2 0x1A6D JUMP JUMPDEST PUSH2 0xA5D JUMP JUMPDEST CALLVALUE DUP1 ISZERO PUSH2 0x462 JUMPI PUSH1 0x0 DUP1 REVERT JUMPDEST POP PUSH2 0x359 PUSH2 0x471 CALLDATASIZE PUSH1 0x4 PUSH2 0x1C9A JUMP JUMPDEST PUSH2 0xAEE JUMP JUMPDEST CALLVALUE DUP1 ISZERO PUSH2 0x482 JUMPI PUSH1 0x0 DUP1 REVERT JUMPDEST POP PUSH2 0x3A6 PUSH2 0xBB2 JUMP JUMPDEST CALLVALUE DUP1 ISZERO PUSH2 0x497 JUMPI PUSH1 0x0 DUP1 REVERT JUMPDEST POP PUSH2 0x359 PUSH2 0xBC0 JUMP JUMPDEST CALLVALUE DUP1 ISZERO PUSH2 0x4AC JUMPI PUSH1 0x0 DUP1 REVERT JUMPDEST POP PUSH2 0x359 PUSH2 0xBC6 JUMP JUMPDEST CALLVALUE DUP1 ISZERO PUSH2 0x4C1 JUMPI PUSH1 0x0 DUP1 REVERT JUMPDEST POP PUSH2 0x3EA PUSH2 0xBCC JUMP JUMPDEST CALLVALUE DUP1 ISZERO PUSH2 0x4D6 JUMPI PUSH1 0x0 DUP1 REVERT JUMPDEST POP PUSH2 0x359 PUSH2 0xC1A JUMP JUMPDEST CALLVALUE DUP1 ISZERO PUSH2 0x4EB JUMPI PUSH1 0x0 DUP1 REVERT JUMPDEST POP PUSH2 0x359 PUSH2 0xC20 JUMP JUMPDEST CALLVALUE DUP1 ISZERO PUSH2 0x500 JUMPI PUSH1 0x0 DUP1 REVERT JUMPDEST POP PUSH2 0x3EA PUSH2 0xC26 JUMP JUMPDEST CALLVALUE DUP1 ISZERO PUSH2 0x515 JUMPI PUSH1 0x0 DUP1 REVERT JUMPDEST POP PUSH2 0x359 PUSH2 0xC71 JUMP JUMPDEST CALLVALUE DUP1 ISZERO PUSH2 0x52A JUMPI PUSH1 0x0 DUP1 REVERT JUMPDEST POP PUSH2 0x359 PUSH2 0xC77 JUMP JUMPDEST CALLVALUE DUP1 ISZERO PUSH2 0x53F JUMPI PUSH1 0x0 DUP1 REVERT JUMPDEST POP PUSH2 0x3A6 PUSH2 0xC7D JUMP JUMPDEST CALLVALUE DUP1 ISZERO PUSH2 0x554 JUMPI PUSH1 0x0 DUP1 REVERT JUMPDEST POP PUSH2 0x359 PUSH2 0xC8E JUMP JUMPDEST CALLVALUE DUP1 ISZERO PUSH2 0x569 JUMPI PUSH1 0x0 DUP1 REVERT JUMPDEST POP PUSH2 0x57D PUSH2 0x578 CALLDATASIZE PUSH1 0x4 PUSH2 0x1ADA JUMP JUMPDEST PUSH2 0xC94 JUMP JUMPDEST PUSH1 0x40 MLOAD PUSH2 0x366 SWAP10 SWAP9 SWAP8 SWAP7 SWAP6 SWAP5 SWAP4 SWAP3 SWAP2 SWAP1 PUSH2 0x2006 JUMP JUMPDEST CALLVALUE DUP1 ISZERO PUSH2 0x59E JUMPI PUSH1 0x0 DUP1 REVERT JUMPDEST POP PUSH2 0x3A6 PUSH2 0xD02 JUMP JUMPDEST CALLVALUE DUP1 ISZERO PUSH2 0x5B3 JUMPI PUSH1 0x0 DUP1 REVERT JUMPDEST POP PUSH2 0x384 PUSH2 0xD12 JUMP JUMPDEST CALLVALUE DUP1 ISZERO PUSH2 0x5C8 JUMPI PUSH1 0x0 DUP1 REVERT JUMPDEST POP PUSH2 0x359 PUSH2 0xD21 JUMP JUMPDEST CALLVALUE DUP1 ISZERO PUSH2 0x5DD JUMPI PUSH1 0x0 DUP1 REVERT JUMPDEST POP PUSH2 0x359 PUSH2 0xDC8 JUMP JUMPDEST CALLVALUE DUP1 ISZERO PUSH2 0x5F2 JUMPI PUSH1 0x0 DUP1 REVERT JUMPDEST POP PUSH2 0x384 PUSH2 0xDCD JUMP JUMPDEST CALLVALUE DUP1 ISZERO PUSH2 0x607 JUMPI PUSH1 0x0 DUP1 REVERT JUMPDEST POP PUSH2 0x3A6 PUSH2 0xDDC JUMP JUMPDEST CALLVALUE DUP1 ISZERO PUSH2 0x61C JUMPI PUSH1 0x0 DUP1 REVERT JUMPDEST POP PUSH2 0x359 PUSH2 0xDE5 JUMP JUMPDEST CALLVALUE DUP1 ISZERO PUSH2 0x631 JUMPI PUSH1 0x0 DUP1 REVERT JUMPDEST POP PUSH2 0x63A PUSH2 0xDEA JUMP JUMPDEST PUSH1 0x40 MLOAD PUSH2 0x366 SWAP2 SWAP1 PUSH2 0x1DAA JUMP JUMPDEST CALLVALUE DUP1 ISZERO PUSH2 0x653 JUMPI PUSH1 0x0 DUP1 REVERT JUMPDEST POP PUSH2 0x3A6 PUSH2 0xE99 JUMP JUMPDEST CALLVALUE DUP1 ISZERO PUSH2 0x668 JUMPI PUSH1 0x0 DUP1 REVERT JUMPDEST POP PUSH2 0x3EA PUSH2 0x677 CALLDATASIZE PUSH1 0x4 PUSH2 0x1A90 JUMP JUMPDEST PUSH2 0xEA9 JUMP JUMPDEST CALLVALUE DUP1 ISZERO PUSH2 0x688 JUMPI PUSH1 0x0 DUP1 REVERT JUMPDEST POP PUSH2 0x359 PUSH2 0xF5E JUMP JUMPDEST CALLVALUE DUP1 ISZERO PUSH2 0x69D JUMPI PUSH1 0x0 DUP1 REVERT JUMPDEST POP PUSH2 0x3C8 PUSH2 0xF64 JUMP JUMPDEST CALLVALUE DUP1 ISZERO PUSH2 0x6B2 JUMPI PUSH1 0x0 DUP1 REVERT JUMPDEST POP PUSH2 0x384 PUSH2 0xF71 JUMP JUMPDEST CALLVALUE DUP1 ISZERO PUSH2 0x6C7 JUMPI PUSH1 0x0 DUP1 REVERT JUMPDEST POP PUSH2 0x359 PUSH2 0xF80 JUMP JUMPDEST CALLVALUE DUP1 ISZERO PUSH2 0x6DC JUMPI PUSH1 0x0 DUP1 REVERT JUMPDEST POP PUSH2 0x384 PUSH2 0x1006 JUMP JUMPDEST CALLVALUE DUP1 ISZERO PUSH2 0x6F1 JUMPI PUSH1 0x0 DUP1 REVERT JUMPDEST POP PUSH2 0x359 PUSH2 0x1015 JUMP JUMPDEST CALLVALUE DUP1 ISZERO PUSH2 0x706 JUMPI PUSH1 0x0 DUP1 REVERT JUMPDEST POP PUSH2 0x3A6 PUSH2 0x101B JUMP JUMPDEST CALLVALUE DUP1 ISZERO PUSH2 0x71B JUMPI PUSH1 0x0 DUP1 REVERT JUMPDEST POP PUSH2 0x72F PUSH2 0x72A CALLDATASIZE PUSH1 0x4 PUSH2 0x1C9A JUMP JUMPDEST PUSH2 0x102D JUMP JUMPDEST PUSH1 0x40 MLOAD PUSH2 0x366 SWAP3 SWAP2 SWAP1 PUSH2 0x1D91 JUMP JUMPDEST CALLVALUE DUP1 ISZERO PUSH2 0x749 JUMPI PUSH1 0x0 DUP1 REVERT JUMPDEST POP PUSH2 0x752 PUSH2 0x1065 JUMP JUMPDEST PUSH1 0x40 MLOAD PUSH2 0x366 SWAP11 SWAP10 SWAP9 SWAP8 SWAP7 SWAP6 SWAP5 SWAP4 SWAP3 SWAP2 SWAP1 PUSH2 0x2049 JUMP JUMPDEST CALLVALUE DUP1 ISZERO PUSH2 0x774 JUMPI PUSH1 0x0 DUP1 REVERT JUMPDEST POP PUSH2 0x359 PUSH2 0x108F JUMP JUMPDEST CALLVALUE DUP1 ISZERO PUSH2 0x789 JUMPI PUSH1 0x0 DUP1 REVERT JUMPDEST POP PUSH2 0x3EA PUSH2 0x798 CALLDATASIZE PUSH1 0x4 PUSH2 0x1BAC JUMP JUMPDEST PUSH2 0x1095 JUMP JUMPDEST CALLVALUE DUP1 ISZERO PUSH2 0x7A9 JUMPI PUSH1 0x0 DUP1 REVERT JUMPDEST POP PUSH2 0x384 PUSH2 0x13E9 JUMP JUMPDEST CALLVALUE DUP1 ISZERO PUSH2 0x7BE JUMPI PUSH1 0x0 DUP1 REVERT JUMPDEST POP PUSH2 0x359 PUSH2 0x13F8 JUMP JUMPDEST CALLVALUE DUP1 ISZERO PUSH2 0x7D3 JUMPI PUSH1 0x0 DUP1 REVERT JUMPDEST POP PUSH2 0x7DC PUSH2 0x13FE JUMP JUMPDEST PUSH1 0x40 MLOAD PUSH2 0x366 SWAP2 SWAP1 PUSH2 0x2092 JUMP JUMPDEST CALLVALUE DUP1 ISZERO PUSH2 0x7F5 JUMPI PUSH1 0x0 DUP1 REVERT JUMPDEST POP PUSH2 0x809 PUSH2 0x804 CALLDATASIZE PUSH1 0x4 PUSH2 0x1C9A JUMP JUMPDEST PUSH2 0x1487 JUMP JUMPDEST PUSH1 0x40 MLOAD PUSH2 0x366 SWAP3 SWAP2 SWAP1 PUSH2 0x1FF8 JUMP JUMPDEST CALLVALUE DUP1 ISZERO PUSH2 0x823 JUMPI PUSH1 0x0 DUP1 REVERT JUMPDEST POP PUSH2 0x3EA PUSH2 0x832 CALLDATASIZE PUSH1 0x4 PUSH2 0x1A6D JUMP JUMPDEST PUSH2 0x14B5 JUMP JUMPDEST CALLVALUE DUP1 ISZERO PUSH2 0x843 JUMPI PUSH1 0x0 DUP1 REVERT JUMPDEST POP PUSH2 0x359 PUSH2 0x1526 JUMP JUMPDEST CALLVALUE DUP1 ISZERO PUSH2 0x858 JUMPI PUSH1 0x0 DUP1 REVERT JUMPDEST POP PUSH2 0x384 PUSH2 0x152C JUMP JUMPDEST CALLVALUE DUP1 ISZERO PUSH2 0x86D JUMPI PUSH1 0x0 DUP1 REVERT JUMPDEST POP PUSH2 0x359 PUSH2 0x153B JUMP JUMPDEST CALLVALUE DUP1 ISZERO PUSH2 0x882 JUMPI PUSH1 0x0 DUP1 REVERT JUMPDEST POP PUSH2 0x72F PUSH2 0x891 CALLDATASIZE PUSH1 0x4 PUSH2 0x1C9A JUMP JUMPDEST PUSH2 0x1541 JUMP JUMPDEST PUSH1 0x80 SLOAD DUP2 JUMP JUMPDEST PUSH1 0x7B SLOAD PUSH1 0x1 PUSH1 0x1 PUSH1 0xA0 SHL SUB AND DUP2 JUMP JUMPDEST PUSH1 0x8D SLOAD PUSH3 0x10000 SWAP1 DIV PUSH1 0xFF AND DUP2 JUMP JUMPDEST PUSH1 0x7D DUP1 SLOAD PUSH2 0x8C7 SWAP1 PUSH2 0x20CA JUMP JUMPDEST DUP1 PUSH1 0x1F ADD PUSH1 0x20 DUP1 SWAP2 DIV MUL PUSH1 0x20 ADD PUSH1 0x40 MLOAD SWAP1 DUP2 ADD PUSH1 0x40 MSTORE DUP1 SWAP3 SWAP2 SWAP1 DUP2 DUP2 MSTORE PUSH1 0x20 ADD DUP3 DUP1 SLOAD PUSH2 0x8F3 SWAP1 PUSH2 0x20CA JUMP JUMPDEST DUP1 ISZERO PUSH2 0x940 JUMPI DUP1 PUSH1 0x1F LT PUSH2 0x915 JUMPI PUSH2 0x100 DUP1 DUP4 SLOAD DIV MUL DUP4 MSTORE SWAP2 PUSH1 0x20 ADD SWAP2 PUSH2 0x940 JUMP JUMPDEST DUP3 ADD SWAP2 SWAP1 PUSH1 0x0 MSTORE PUSH1 0x20 PUSH1 0x0 KECCAK256 SWAP1 JUMPDEST DUP2 SLOAD DUP2 MSTORE SWAP1 PUSH1 0x1 ADD SWAP1 PUSH1 0x20 ADD DUP1 DUP4 GT PUSH2 0x923 JUMPI DUP3 SWAP1 SUB PUSH1 0x1F AND DUP3 ADD SWAP2 JUMPDEST POP POP POP POP POP DUP2 JUMP JUMPDEST PUSH2 0x950 PUSH2 0x1551 JUMP JUMPDEST PUSH1 0x1 PUSH1 0x1 PUSH1 0xA0 SHL SUB AND PUSH2 0x961 PUSH2 0xD12 JUMP JUMPDEST PUSH1 0x1 PUSH1 0x1 PUSH1 0xA0 SHL SUB AND EQ PUSH2 0x990 JUMPI PUSH1 0x40 MLOAD PUSH3 0x461BCD PUSH1 0xE5 SHL DUP2 MSTORE PUSH1 0x4 ADD PUSH2 0x987 SWAP1 PUSH2 0x1F1D JUMP JUMPDEST PUSH1 0x40 MLOAD DUP1 SWAP2 SUB SWAP1 REVERT JUMPDEST PUSH1 0x8D DUP1 SLOAD PUSH1 0xFF PUSH1 0x30 SHL NOT AND PUSH1 0x1 PUSH1 0x30 SHL OR SWAP1 SSTORE JUMP JUMPDEST PUSH1 0x6A SLOAD PUSH1 0x1 PUSH1 0x1 PUSH1 0xA0 SHL SUB AND DUP2 JUMP JUMPDEST PUSH1 0x67 SLOAD PUSH1 0x1 PUSH1 0x1 PUSH1 0xA0 SHL SUB AND SWAP1 JUMP JUMPDEST PUSH1 0x6B SLOAD PUSH1 0x1 PUSH1 0x1 PUSH1 0xA0 SHL SUB AND CALLER EQ PUSH2 0x9ED JUMPI PUSH1 0x40 MLOAD PUSH3 0x461BCD PUSH1 0xE5 SHL DUP2 MSTORE PUSH1 0x4 ADD PUSH2 0x987 SWAP1 PUSH2 0x1F97 JUMP JUMPDEST PUSH1 0x8D SLOAD PUSH1 0x1 PUSH1 0x30 SHL SWAP1 DIV PUSH1 0xFF AND PUSH2 0xA16 JUMPI PUSH1 0x40 MLOAD PUSH3 0x461BCD PUSH1 0xE5 SHL DUP2 MSTORE PUSH1 0x4 ADD PUSH2 0x987 SWAP1 PUSH2 0x1E1B JUMP JUMPDEST PUSH1 0x6A SLOAD PUSH1 0x1 PUSH1 0x1 PUSH1 0xA0 SHL SUB DUP3 DUP2 AND SWAP2 AND EQ ISZERO PUSH2 0xA44 JUMPI PUSH1 0x40 MLOAD PUSH3 0x461BCD PUSH1 0xE5 SHL DUP2 MSTORE PUSH1 0x4 ADD PUSH2 0x987 SWAP1 PUSH2 0x1E98 JUMP JUMPDEST PUSH2 0xA4D DUP2 PUSH2 0x1555 JUMP JUMPDEST POP PUSH1 0x8D DUP1 SLOAD PUSH1 0xFF PUSH1 0x30 SHL NOT AND SWAP1 SSTORE JUMP JUMPDEST PUSH1 0x0 SLOAD PUSH2 0x100 SWAP1 DIV PUSH1 0xFF AND DUP1 PUSH2 0xA76 JUMPI POP PUSH1 0x0 SLOAD PUSH1 0xFF AND ISZERO JUMPDEST PUSH2 0xA92 JUMPI PUSH1 0x40 MLOAD PUSH3 0x461BCD PUSH1 0xE5 SHL DUP2 MSTORE PUSH1 0x4 ADD PUSH2 0x987 SWAP1 PUSH2 0x1ECF JUMP JUMPDEST PUSH1 0x0 SLOAD PUSH2 0x100 SWAP1 DIV PUSH1 0xFF AND ISZERO DUP1 ISZERO PUSH2 0xABD JUMPI PUSH1 0x0 DUP1 SLOAD PUSH1 0xFF NOT PUSH2 0xFF00 NOT SWAP1 SWAP2 AND PUSH2 0x100 OR AND PUSH1 0x1 OR SWAP1 SSTORE JUMPDEST PUSH1 0x65 DUP1 SLOAD PUSH1 0x1 PUSH1 0x1 PUSH1 0xA0 SHL SUB NOT AND PUSH1 0x1 PUSH1 0x1 PUSH1 0xA0 SHL SUB DUP5 AND OR SWAP1 SSTORE DUP1 ISZERO PUSH2 0xAEA JUMPI PUSH1 0x0 DUP1 SLOAD PUSH2 0xFF00 NOT AND SWAP1 SSTORE JUMPDEST POP POP JUMP JUMPDEST PUSH1 0x67 SLOAD PUSH1 0x0 SWAP1 DUP2 SWAP1 PUSH1 0x1 PUSH1 0x1 PUSH1 0xA0 SHL SUB AND PUSH4 0xD06CA61F DUP5 PUSH2 0xB0D PUSH2 0xDEA JUMP JUMPDEST PUSH1 0x40 MLOAD DUP4 PUSH4 0xFFFFFFFF AND PUSH1 0xE0 SHL DUP2 MSTORE PUSH1 0x4 ADD PUSH2 0xB2A SWAP3 SWAP2 SWAP1 PUSH2 0x1FD7 JUMP JUMPDEST PUSH1 0x0 PUSH1 0x40 MLOAD DUP1 DUP4 SUB DUP2 DUP7 DUP1 EXTCODESIZE ISZERO DUP1 ISZERO PUSH2 0xB42 JUMPI PUSH1 0x0 DUP1 REVERT JUMPDEST POP GAS STATICCALL ISZERO DUP1 ISZERO PUSH2 0xB56 JUMPI RETURNDATASIZE PUSH1 0x0 DUP1 RETURNDATACOPY RETURNDATASIZE PUSH1 0x0 REVERT JUMPDEST POP POP POP POP PUSH1 0x40 MLOAD RETURNDATASIZE PUSH1 0x0 DUP3 RETURNDATACOPY PUSH1 0x1F RETURNDATASIZE SWAP1 DUP2 ADD PUSH1 0x1F NOT AND DUP3 ADD PUSH1 0x40 MSTORE PUSH2 0xB7E SWAP2 SWAP1 DUP2 ADD SWAP1 PUSH2 0x1B05 JUMP JUMPDEST SWAP1 POP DUP1 PUSH1 0x1 DUP2 MLOAD DUP2 LT PUSH2 0xBA1 JUMPI PUSH4 0x4E487B71 PUSH1 0xE0 SHL PUSH1 0x0 MSTORE PUSH1 0x32 PUSH1 0x4 MSTORE PUSH1 0x24 PUSH1 0x0 REVERT JUMPDEST PUSH1 0x20 MUL PUSH1 0x20 ADD ADD MLOAD SWAP2 POP POP JUMPDEST SWAP2 SWAP1 POP JUMP JUMPDEST PUSH1 0x8D SLOAD PUSH2 0x100 SWAP1 DIV PUSH1 0xFF AND DUP2 JUMP JUMPDEST PUSH1 0x81 SLOAD DUP2 JUMP JUMPDEST PUSH1 0x82 SLOAD DUP2 JUMP JUMPDEST PUSH2 0xBD4 PUSH2 0x1551 JUMP JUMPDEST PUSH1 0x1 PUSH1 0x1 PUSH1 0xA0 SHL SUB AND PUSH2 0xBE5 PUSH2 0xD12 JUMP JUMPDEST PUSH1 0x1 PUSH1 0x1 PUSH1 0xA0 SHL SUB AND EQ PUSH2 0xC0B JUMPI PUSH1 0x40 MLOAD PUSH3 0x461BCD PUSH1 0xE5 SHL DUP2 MSTORE PUSH1 0x4 ADD PUSH2 0x987 SWAP1 PUSH2 0x1F1D JUMP JUMPDEST PUSH1 0x8D DUP1 SLOAD PUSH1 0xFF PUSH1 0x30 SHL NOT AND SWAP1 SSTORE JUMP JUMPDEST PUSH1 0x86 SLOAD DUP2 JUMP JUMPDEST PUSH1 0x87 SLOAD DUP2 JUMP JUMPDEST PUSH2 0xC2E PUSH2 0x1551 JUMP JUMPDEST PUSH1 0x1 PUSH1 0x1 PUSH1 0xA0 SHL SUB AND PUSH2 0xC3F PUSH2 0xD12 JUMP JUMPDEST PUSH1 0x1 PUSH1 0x1 PUSH1 0xA0 SHL SUB AND EQ PUSH2 0xC65 JUMPI PUSH1 0x40 MLOAD PUSH3 0x461BCD PUSH1 0xE5 SHL DUP2 MSTORE PUSH1 0x4 ADD PUSH2 0x987 SWAP1 PUSH2 0x1F1D JUMP JUMPDEST PUSH2 0xC6F PUSH1 0x0 PUSH2 0x159C JUMP JUMPDEST JUMP JUMPDEST PUSH1 0x85 SLOAD DUP2 JUMP JUMPDEST PUSH1 0x84 SLOAD DUP2 JUMP JUMPDEST PUSH1 0x8D SLOAD PUSH5 0x100000000 SWAP1 DIV PUSH1 0xFF AND DUP2 JUMP JUMPDEST PUSH1 0x88 SLOAD DUP2 JUMP JUMPDEST PUSH1 0x79 PUSH1 0x20 MSTORE DUP2 PUSH1 0x0 MSTORE PUSH1 0x40 PUSH1 0x0 KECCAK256 DUP2 DUP2 SLOAD DUP2 LT PUSH2 0xCB0 JUMPI PUSH1 0x0 DUP1 REVERT JUMPDEST PUSH1 0x0 SWAP2 DUP3 MSTORE PUSH1 0x20 SWAP1 SWAP2 KECCAK256 PUSH1 0x8 SWAP1 SWAP2 MUL ADD DUP1 SLOAD PUSH1 0x1 DUP3 ADD SLOAD PUSH1 0x2 DUP4 ADD SLOAD PUSH1 0x3 DUP5 ADD SLOAD PUSH1 0x4 DUP6 ADD SLOAD PUSH1 0x5 DUP7 ADD SLOAD PUSH1 0x6 DUP8 ADD SLOAD PUSH1 0x7 SWAP1 SWAP8 ADD SLOAD SWAP6 SWAP9 POP SWAP4 SWAP7 POP SWAP2 SWAP5 SWAP1 SWAP4 SWAP2 SWAP3 SWAP2 PUSH1 0xFF DUP1 DUP3 AND SWAP2 PUSH2 0x100 SWAP1 DIV AND DUP10 JUMP JUMPDEST PUSH1 0x8D SLOAD PUSH1 0x1 PUSH1 0x30 SHL SWAP1 DIV PUSH1 0xFF AND DUP2 JUMP JUMPDEST PUSH1 0x33 SLOAD PUSH1 0x1 PUSH1 0x1 PUSH1 0xA0 SHL SUB AND SWAP1 JUMP JUMPDEST PUSH1 0x0 DUP1 PUSH1 0x65 PUSH1 0x0 SWAP1 SLOAD SWAP1 PUSH2 0x100 EXP SWAP1 DIV PUSH1 0x1 PUSH1 0x1 PUSH1 0xA0 SHL SUB AND PUSH1 0x1 PUSH1 0x1 PUSH1 0xA0 SHL SUB AND PUSH4 0xFEAF968C PUSH1 0x40 MLOAD DUP2 PUSH4 0xFFFFFFFF AND PUSH1 0xE0 SHL DUP2 MSTORE PUSH1 0x4 ADD PUSH1 0xA0 PUSH1 0x40 MLOAD DUP1 DUP4 SUB DUP2 DUP7 DUP1 EXTCODESIZE ISZERO DUP1 ISZERO PUSH2 0xD72 JUMPI PUSH1 0x0 DUP1 REVERT JUMPDEST POP GAS STATICCALL ISZERO DUP1 ISZERO PUSH2 0xD86 JUMPI RETURNDATASIZE PUSH1 0x0 DUP1 RETURNDATACOPY RETURNDATASIZE PUSH1 0x0 REVERT JUMPDEST POP POP POP POP PUSH1 0x40 MLOAD RETURNDATASIZE PUSH1 0x1F NOT PUSH1 0x1F DUP3 ADD AND DUP3 ADD DUP1 PUSH1 0x40 MSTORE POP DUP2 ADD SWAP1 PUSH2 0xDAA SWAP2 SWAP1 PUSH2 0x1CCA JUMP JUMPDEST POP POP POP SWAP2 POP POP PUSH1 0x0 DUP2 SLT ISZERO PUSH2 0xDC0 JUMPI PUSH1 0x0 PUSH2 0xDC2 JUMP JUMPDEST DUP1 JUMPDEST SWAP2 POP POP SWAP1 JUMP JUMPDEST PUSH1 0x5 DUP2 JUMP JUMPDEST PUSH1 0x7C SLOAD PUSH1 0x1 PUSH1 0x1 PUSH1 0xA0 SHL SUB AND DUP2 JUMP JUMPDEST PUSH1 0x8D SLOAD PUSH1 0xFF AND DUP2 JUMP JUMPDEST PUSH1 0x8 DUP2 JUMP JUMPDEST PUSH1 0x40 DUP1 MLOAD PUSH1 0x2 DUP1 DUP3 MSTORE PUSH1 0x60 DUP1 DUP4 ADD DUP5 MSTORE SWAP3 PUSH1 0x0 SWAP3 SWAP2 SWAP1 PUSH1 0x20 DUP4 ADD SWAP1 DUP1 CALLDATASIZE DUP4 CALLDATACOPY POP POP PUSH1 0x68 SLOAD DUP3 MLOAD SWAP3 SWAP4 POP PUSH1 0x1 PUSH1 0x1 PUSH1 0xA0 SHL SUB AND SWAP2 DUP4 SWAP2 POP PUSH1 0x0 SWAP1 PUSH2 0xE3D JUMPI PUSH4 0x4E487B71 PUSH1 0xE0 SHL PUSH1 0x0 MSTORE PUSH1 0x32 PUSH1 0x4 MSTORE PUSH1 0x24 PUSH1 0x0 REVERT JUMPDEST PUSH1 0x1 PUSH1 0x1 PUSH1 0xA0 SHL SUB SWAP3 DUP4 AND PUSH1 0x20 SWAP2 DUP3 MUL SWAP3 SWAP1 SWAP3 ADD ADD MSTORE PUSH1 0x69 SLOAD DUP3 MLOAD SWAP2 AND SWAP1 DUP3 SWAP1 PUSH1 0x1 SWAP1 DUP2 LT PUSH2 0xE7C JUMPI PUSH4 0x4E487B71 PUSH1 0xE0 SHL PUSH1 0x0 MSTORE PUSH1 0x32 PUSH1 0x4 MSTORE PUSH1 0x24 PUSH1 0x0 REVERT JUMPDEST PUSH1 0x1 PUSH1 0x1 PUSH1 0xA0 SHL SUB SWAP1 SWAP3 AND PUSH1 0x20 SWAP3 DUP4 MUL SWAP2 SWAP1 SWAP2 ADD SWAP1 SWAP2 ADD MSTORE SWAP1 POP SWAP1 JUMP JUMPDEST PUSH1 0x8D SLOAD PUSH4 0x1000000 SWAP1 DIV PUSH1 0xFF AND DUP2 JUMP JUMPDEST PUSH1 0x0 SLOAD PUSH2 0x100 SWAP1 DIV PUSH1 0xFF AND DUP1 PUSH2 0xEC2 JUMPI POP PUSH1 0x0 SLOAD PUSH1 0xFF AND ISZERO JUMPDEST PUSH2 0xEDE JUMPI PUSH1 0x40 MLOAD PUSH3 0x461BCD PUSH1 0xE5 SHL DUP2 MSTORE PUSH1 0x4 ADD PUSH2 0x987 SWAP1 PUSH2 0x1ECF JUMP JUMPDEST PUSH1 0x0 SLOAD PUSH2 0x100 SWAP1 DIV PUSH1 0xFF AND ISZERO DUP1 ISZERO PUSH2 0xF09 JUMPI PUSH1 0x0 DUP1 SLOAD PUSH1 0xFF NOT PUSH2 0xFF00 NOT SWAP1 SWAP2 AND PUSH2 0x100 OR AND PUSH1 0x1 OR SWAP1 SSTORE JUMPDEST PUSH1 0x67 DUP1 SLOAD PUSH1 0x1 PUSH1 0x1 PUSH1 0xA0 SHL SUB DUP1 DUP8 AND PUSH1 0x1 PUSH1 0x1 PUSH1 0xA0 SHL SUB NOT SWAP3 DUP4 AND OR SWAP1 SWAP3 SSTORE PUSH1 0x68 DUP1 SLOAD DUP7 DUP5 AND SWAP1 DUP4 AND OR SWAP1 SSTORE PUSH1 0x69 DUP1 SLOAD SWAP3 DUP6 AND SWAP3 SWAP1 SWAP2 AND SWAP2 SWAP1 SWAP2 OR SWAP1 SSTORE DUP1 ISZERO PUSH2 0xF58 JUMPI PUSH1 0x0 DUP1 SLOAD PUSH2 0xFF00 NOT AND SWAP1 SSTORE JUMPDEST POP POP POP POP JUMP JUMPDEST PUSH1 0x83 SLOAD DUP2 JUMP JUMPDEST PUSH1 0x7E DUP1 SLOAD PUSH2 0x8C7 SWAP1 PUSH2 0x20CA JUMP JUMPDEST PUSH1 0x6C SLOAD PUSH1 0x1 PUSH1 0x1 PUSH1 0xA0 SHL SUB AND DUP2 JUMP JUMPDEST PUSH1 0x66 SLOAD PUSH1 0x40 MLOAD PUSH4 0x70A08231 PUSH1 0xE0 SHL DUP2 MSTORE PUSH1 0x0 SWAP2 PUSH1 0x1 PUSH1 0x1 PUSH1 0xA0 SHL SUB AND SWAP1 PUSH4 0x70A08231 SWAP1 PUSH2 0xFB1 SWAP1 ADDRESS SWAP1 PUSH1 0x4 ADD PUSH2 0x1D7D JUMP JUMPDEST PUSH1 0x20 PUSH1 0x40 MLOAD DUP1 DUP4 SUB DUP2 DUP7 DUP1 EXTCODESIZE ISZERO DUP1 ISZERO PUSH2 0xFC9 JUMPI PUSH1 0x0 DUP1 REVERT JUMPDEST POP GAS STATICCALL ISZERO DUP1 ISZERO PUSH2 0xFDD JUMPI RETURNDATASIZE PUSH1 0x0 DUP1 RETURNDATACOPY RETURNDATASIZE PUSH1 0x0 REVERT JUMPDEST POP POP POP POP PUSH1 0x40 MLOAD RETURNDATASIZE PUSH1 0x1F NOT PUSH1 0x1F DUP3 ADD AND DUP3 ADD DUP1 PUSH1 0x40 MSTORE POP DUP2 ADD SWAP1 PUSH2 0x1001 SWAP2 SWAP1 PUSH2 0x1CB2 JUMP JUMPDEST SWAP1 POP SWAP1 JUMP JUMPDEST PUSH1 0x6B SLOAD PUSH1 0x1 PUSH1 0x1 PUSH1 0xA0 SHL SUB AND DUP2 JUMP JUMPDEST PUSH1 0x89 SLOAD DUP2 JUMP JUMPDEST PUSH1 0x8D SLOAD PUSH6 0x10000000000 SWAP1 DIV PUSH1 0xFF AND DUP2 JUMP JUMPDEST PUSH1 0x78 DUP2 DUP2 SLOAD DUP2 LT PUSH2 0x103D JUMPI PUSH1 0x0 DUP1 REVERT JUMPDEST PUSH1 0x0 SWAP2 DUP3 MSTORE PUSH1 0x20 SWAP1 SWAP2 KECCAK256 PUSH1 0x2 SWAP1 SWAP2 MUL ADD DUP1 SLOAD PUSH1 0x1 SWAP1 SWAP2 ADD SLOAD PUSH1 0x1 PUSH1 0x1 PUSH1 0xA0 SHL SUB SWAP1 SWAP2 AND SWAP2 POP DUP3 JUMP JUMPDEST PUSH1 0x6D SLOAD PUSH1 0x6E SLOAD PUSH1 0x6F SLOAD PUSH1 0x70 SLOAD PUSH1 0x71 SLOAD PUSH1 0x72 SLOAD PUSH1 0x73 SLOAD PUSH1 0x74 SLOAD PUSH1 0x75 SLOAD PUSH1 0xFF DUP1 DUP3 AND SWAP2 PUSH2 0x100 SWAP1 DIV AND DUP11 JUMP JUMPDEST PUSH1 0x8A SLOAD DUP2 JUMP JUMPDEST PUSH1 0x0 SLOAD PUSH2 0x100 SWAP1 DIV PUSH1 0xFF AND DUP1 PUSH2 0x10AE JUMPI POP PUSH1 0x0 SLOAD PUSH1 0xFF AND ISZERO JUMPDEST PUSH2 0x10CA JUMPI PUSH1 0x40 MLOAD PUSH3 0x461BCD PUSH1 0xE5 SHL DUP2 MSTORE PUSH1 0x4 ADD PUSH2 0x987 SWAP1 PUSH2 0x1ECF JUMP JUMPDEST PUSH1 0x0 SLOAD PUSH2 0x100 SWAP1 DIV PUSH1 0xFF AND ISZERO DUP1 ISZERO PUSH2 0x10F5 JUMPI PUSH1 0x0 DUP1 SLOAD PUSH1 0xFF NOT PUSH2 0xFF00 NOT SWAP1 SWAP2 AND PUSH2 0x100 OR AND PUSH1 0x1 OR SWAP1 SSTORE JUMPDEST PUSH1 0x6B SLOAD PUSH1 0x1 PUSH1 0x1 PUSH1 0xA0 SHL SUB AND CALLER EQ PUSH2 0x111F JUMPI PUSH1 0x40 MLOAD PUSH3 0x461BCD PUSH1 0xE5 SHL DUP2 MSTORE PUSH1 0x4 ADD PUSH2 0x987 SWAP1 PUSH2 0x1F97 JUMP JUMPDEST PUSH2 0x1127 PUSH2 0x15EE JUMP JUMPDEST PUSH2 0x112F PUSH2 0x1672 JUMP JUMPDEST PUSH1 0x40 DUP7 ADD MLOAD PUSH2 0x113D SWAP1 PUSH2 0xA5D JUMP JUMPDEST DUP6 MLOAD PUSH1 0x20 DUP8 ADD MLOAD PUSH1 0x60 DUP9 ADD MLOAD PUSH2 0x1154 SWAP3 SWAP2 SWAP1 PUSH2 0xEA9 JUMP JUMPDEST DUP5 MLOAD TIMESTAMP LT PUSH2 0x1174 JUMPI PUSH1 0x40 MLOAD PUSH3 0x461BCD PUSH1 0xE5 SHL DUP2 MSTORE PUSH1 0x4 ADD PUSH2 0x987 SWAP1 PUSH2 0x1F52 JUMP JUMPDEST DUP11 MLOAD PUSH2 0x1187 SWAP1 PUSH1 0x7D SWAP1 PUSH1 0x20 DUP15 ADD SWAP1 PUSH2 0x17DF JUMP JUMPDEST POP DUP10 MLOAD PUSH2 0x119B SWAP1 PUSH1 0x7E SWAP1 PUSH1 0x20 DUP14 ADD SWAP1 PUSH2 0x17DF JUMP JUMPDEST POP PUSH1 0x7A DUP1 SLOAD PUSH1 0x1 PUSH1 0x1 PUSH1 0xA0 SHL SUB DUP1 DUP13 AND PUSH1 0x1 PUSH1 0x1 PUSH1 0xA0 SHL SUB NOT SWAP3 DUP4 AND OR SWAP1 SWAP3 SSTORE PUSH1 0x7B DUP1 SLOAD DUP12 DUP5 AND SWAP1 DUP4 AND OR SWAP1 SSTORE PUSH1 0x6B DUP1 SLOAD SWAP3 DUP11 AND SWAP3 SWAP1 SWAP2 AND SWAP2 SWAP1 SWAP2 OR SWAP1 SSTORE PUSH2 0x11E9 DUP7 PUSH1 0x1 PUSH1 0x20 MUL ADD MLOAD PUSH2 0x16DA JUMP JUMPDEST PUSH1 0x40 DUP7 DUP2 ADD MLOAD PUSH1 0x6C DUP1 SLOAD PUSH1 0x1 PUSH1 0x1 PUSH1 0xA0 SHL SUB NOT SWAP1 DUP2 AND PUSH1 0x1 PUSH1 0x1 PUSH1 0xA0 SHL SUB SWAP4 DUP5 AND OR SWAP1 SWAP2 SSTORE PUSH1 0x60 DUP1 DUP11 ADD MLOAD PUSH1 0x7C DUP1 SLOAD SWAP1 SWAP4 AND SWAP4 AND SWAP3 SWAP1 SWAP3 OR SWAP1 SSTORE DUP7 MLOAD PUSH1 0x7F SSTORE PUSH1 0x20 DUP8 ADD MLOAD PUSH1 0x81 SSTORE SWAP1 DUP7 ADD MLOAD PUSH1 0x80 SWAP1 DUP2 SSTORE SWAP1 DUP7 ADD MLOAD PUSH1 0x82 SSTORE DUP6 ADD MLOAD PUSH1 0x83 SSTORE PUSH1 0xA0 DUP6 ADD MLOAD PUSH1 0x84 SSTORE PUSH1 0xC0 DUP6 ADD MLOAD PUSH1 0x85 SSTORE PUSH1 0xE0 DUP6 ADD MLOAD PUSH1 0x8A SSTORE PUSH2 0x100 DUP1 DUP7 ADD MLOAD PUSH1 0x8B SSTORE PUSH2 0x120 DUP7 ADD MLOAD PUSH1 0x86 SSTORE PUSH2 0x140 DUP7 ADD MLOAD PUSH1 0x87 SSTORE PUSH1 0x8D DUP1 SLOAD PUSH2 0xFF00 NOT AND DUP5 ISZERO ISZERO SWAP1 SWAP3 MUL SWAP2 SWAP1 SWAP2 OR SWAP1 SSTORE PUSH1 0x0 JUMPDEST PUSH1 0x8 DUP2 LT ISZERO PUSH2 0x1362 JUMPI DUP4 DUP2 PUSH1 0x8 DUP2 LT PUSH2 0x12BB JUMPI PUSH4 0x4E487B71 PUSH1 0xE0 SHL PUSH1 0x0 MSTORE PUSH1 0x32 PUSH1 0x4 MSTORE PUSH1 0x24 PUSH1 0x0 REVERT JUMPDEST PUSH1 0x20 MUL ADD MLOAD PUSH2 0x12C9 JUMPI PUSH2 0x1362 JUMP JUMPDEST PUSH1 0x76 PUSH1 0x40 MLOAD DUP1 PUSH1 0x40 ADD PUSH1 0x40 MSTORE DUP1 DUP8 DUP5 PUSH1 0x8 DUP2 LT PUSH2 0x12F6 JUMPI PUSH4 0x4E487B71 PUSH1 0xE0 SHL PUSH1 0x0 MSTORE PUSH1 0x32 PUSH1 0x4 MSTORE PUSH1 0x24 PUSH1 0x0 REVERT JUMPDEST PUSH1 0x20 MUL ADD MLOAD DUP2 MSTORE PUSH1 0x20 ADD DUP7 DUP5 PUSH1 0x8 DUP2 LT PUSH2 0x1320 JUMPI PUSH4 0x4E487B71 PUSH1 0xE0 SHL PUSH1 0x0 MSTORE PUSH1 0x32 PUSH1 0x4 MSTORE PUSH1 0x24 PUSH1 0x0 REVERT JUMPDEST PUSH1 0x20 SWAP1 DUP2 MUL SWAP2 SWAP1 SWAP2 ADD MLOAD SWAP1 SWAP2 MSTORE DUP3 SLOAD PUSH1 0x1 DUP2 DUP2 ADD DUP6 SSTORE PUSH1 0x0 SWAP5 DUP6 MSTORE SWAP4 DUP3 SWAP1 KECCAK256 DUP4 MLOAD PUSH1 0x2 SWAP1 SWAP3 MUL ADD SWAP1 DUP2 SSTORE SWAP2 ADD MLOAD SWAP2 ADD SSTORE DUP1 PUSH2 0x135A DUP2 PUSH2 0x2105 JUMP JUMPDEST SWAP2 POP POP PUSH2 0x1292 JUMP JUMPDEST POP PUSH1 0x7F SLOAD PUSH1 0x6D SSTORE PUSH1 0x80 SLOAD PUSH1 0x6E SSTORE PUSH1 0x81 SLOAD PUSH1 0x6F SSTORE PUSH1 0x89 SLOAD PUSH1 0x70 SSTORE PUSH1 0x85 SLOAD PUSH1 0x71 SSTORE PUSH1 0x84 SLOAD PUSH1 0x72 SSTORE PUSH1 0x83 SLOAD PUSH1 0x73 SSTORE PUSH1 0x8C SLOAD PUSH1 0x74 SSTORE PUSH1 0x8D SLOAD PUSH1 0x75 DUP1 SLOAD PUSH1 0xFF NOT AND PUSH2 0x100 DUP1 DUP5 DIV PUSH1 0xFF SWAP1 DUP2 AND ISZERO ISZERO SWAP3 SWAP1 SWAP3 OR PUSH2 0xFF00 NOT AND PUSH5 0x100000000 SWAP1 SWAP5 DIV SWAP2 SWAP1 SWAP2 AND ISZERO ISZERO MUL SWAP2 SWAP1 SWAP2 OR SWAP1 SSTORE DUP1 ISZERO PUSH2 0x13DC JUMPI PUSH1 0x0 DUP1 SLOAD PUSH2 0xFF00 NOT AND SWAP1 SSTORE JUMPDEST POP POP POP POP POP POP POP POP POP POP POP JUMP JUMPDEST PUSH1 0x7A SLOAD PUSH1 0x1 PUSH1 0x1 PUSH1 0xA0 SHL SUB AND DUP2 JUMP JUMPDEST PUSH1 0x8B SLOAD DUP2 JUMP JUMPDEST PUSH1 0x0 DUP1 PUSH1 0x65 PUSH1 0x0 SWAP1 SLOAD SWAP1 PUSH2 0x100 EXP SWAP1 DIV PUSH1 0x1 PUSH1 0x1 PUSH1 0xA0 SHL SUB AND PUSH1 0x1 PUSH1 0x1 PUSH1 0xA0 SHL SUB AND PUSH4 0x313CE567 PUSH1 0x40 MLOAD DUP2 PUSH4 0xFFFFFFFF AND PUSH1 0xE0 SHL DUP2 MSTORE PUSH1 0x4 ADD PUSH1 0x20 PUSH1 0x40 MLOAD DUP1 DUP4 SUB DUP2 DUP7 DUP1 EXTCODESIZE ISZERO DUP1 ISZERO PUSH2 0x144F JUMPI PUSH1 0x0 DUP1 REVERT JUMPDEST POP GAS STATICCALL ISZERO DUP1 ISZERO PUSH2 0x1463 JUMPI RETURNDATASIZE PUSH1 0x0 DUP1 RETURNDATACOPY RETURNDATASIZE PUSH1 0x0 REVERT JUMPDEST POP POP POP POP PUSH1 0x40 MLOAD RETURNDATASIZE PUSH1 0x1F NOT PUSH1 0x1F DUP3 ADD AND DUP3 ADD DUP1 PUSH1 0x40 MSTORE POP DUP2 ADD SWAP1 PUSH2 0xDC2 SWAP2 SWAP1 PUSH2 0x1D19 JUMP JUMPDEST PUSH1 0x76 DUP2 DUP2 SLOAD DUP2 LT PUSH2 0x1497 JUMPI PUSH1 0x0 DUP1 REVERT JUMPDEST PUSH1 0x0 SWAP2 DUP3 MSTORE PUSH1 0x20 SWAP1 SWAP2 KECCAK256 PUSH1 0x2 SWAP1 SWAP2 MUL ADD DUP1 SLOAD PUSH1 0x1 SWAP1 SWAP2 ADD SLOAD SWAP1 SWAP2 POP DUP3 JUMP JUMPDEST PUSH2 0x14BD PUSH2 0x1551 JUMP JUMPDEST PUSH1 0x1 PUSH1 0x1 PUSH1 0xA0 SHL SUB AND PUSH2 0x14CE PUSH2 0xD12 JUMP JUMPDEST PUSH1 0x1 PUSH1 0x1 PUSH1 0xA0 SHL SUB AND EQ PUSH2 0x14F4 JUMPI PUSH1 0x40 MLOAD PUSH3 0x461BCD PUSH1 0xE5 SHL DUP2 MSTORE PUSH1 0x4 ADD PUSH2 0x987 SWAP1 PUSH2 0x1F1D JUMP JUMPDEST PUSH1 0x1 PUSH1 0x1 PUSH1 0xA0 SHL SUB DUP2 AND PUSH2 0x151A JUMPI PUSH1 0x40 MLOAD PUSH3 0x461BCD PUSH1 0xE5 SHL DUP2 MSTORE PUSH1 0x4 ADD PUSH2 0x987 SWAP1 PUSH2 0x1E52 JUMP JUMPDEST PUSH2 0x1523 DUP2 PUSH2 0x159C JUMP JUMPDEST POP JUMP JUMPDEST PUSH1 0x8C SLOAD DUP2 JUMP JUMPDEST PUSH1 0x66 SLOAD PUSH1 0x1 PUSH1 0x1 PUSH1 0xA0 SHL SUB AND SWAP1 JUMP JUMPDEST PUSH1 0x7F SLOAD DUP2 JUMP JUMPDEST PUSH1 0x77 DUP2 DUP2 SLOAD DUP2 LT PUSH2 0x103D JUMPI PUSH1 0x0 DUP1 REVERT JUMPDEST CALLER SWAP1 JUMP JUMPDEST PUSH1 0x6A DUP1 SLOAD PUSH1 0x1 PUSH1 0x1 PUSH1 0xA0 SHL SUB NOT AND PUSH1 0x1 PUSH1 0x1 PUSH1 0xA0 SHL SUB DUP4 AND OR SWAP1 SSTORE PUSH1 0x40 MLOAD PUSH32 0x3DAB95F89F74034BEEAC9F9FE9BEC350186CB958223E1791AFB0DBB64859CABD SWAP1 PUSH1 0x0 SWAP1 LOG1 POP JUMP JUMPDEST PUSH1 0x33 DUP1 SLOAD PUSH1 0x1 PUSH1 0x1 PUSH1 0xA0 SHL SUB DUP4 DUP2 AND PUSH1 0x1 PUSH1 0x1 PUSH1 0xA0 SHL SUB NOT DUP4 AND DUP2 OR SWAP1 SWAP4 SSTORE PUSH1 0x40 MLOAD SWAP2 AND SWAP2 SWAP1 DUP3 SWAP1 PUSH32 0x8BE0079C531659141344CD1FD0A4F28419497F9722A3DAAFE3B4186F6B6457E0 SWAP1 PUSH1 0x0 SWAP1 LOG3 POP POP JUMP JUMPDEST PUSH1 0x0 SLOAD PUSH2 0x100 SWAP1 DIV PUSH1 0xFF AND DUP1 PUSH2 0x1607 JUMPI POP PUSH1 0x0 SLOAD PUSH1 0xFF AND ISZERO JUMPDEST PUSH2 0x1623 JUMPI PUSH1 0x40 MLOAD PUSH3 0x461BCD PUSH1 0xE5 SHL DUP2 MSTORE PUSH1 0x4 ADD PUSH2 0x987 SWAP1 PUSH2 0x1ECF JUMP JUMPDEST PUSH1 0x0 SLOAD PUSH2 0x100 SWAP1 DIV PUSH1 0xFF AND ISZERO DUP1 ISZERO PUSH2 0x164E JUMPI PUSH1 0x0 DUP1 SLOAD PUSH1 0xFF NOT PUSH2 0xFF00 NOT SWAP1 SWAP2 AND PUSH2 0x100 OR AND PUSH1 0x1 OR SWAP1 SSTORE JUMPDEST PUSH2 0x1656 PUSH2 0x16FC JUMP JUMPDEST PUSH2 0x165E PUSH2 0x176F JUMP JUMPDEST DUP1 ISZERO PUSH2 0x1523 JUMPI PUSH1 0x0 DUP1 SLOAD PUSH2 0xFF00 NOT AND SWAP1 SSTORE POP JUMP JUMPDEST PUSH1 0x0 SLOAD PUSH2 0x100 SWAP1 DIV PUSH1 0xFF AND DUP1 PUSH2 0x168B JUMPI POP PUSH1 0x0 SLOAD PUSH1 0xFF AND ISZERO JUMPDEST PUSH2 0x16A7 JUMPI PUSH1 0x40 MLOAD PUSH3 0x461BCD PUSH1 0xE5 SHL DUP2 MSTORE PUSH1 0x4 ADD PUSH2 0x987 SWAP1 PUSH2 0x1ECF JUMP JUMPDEST PUSH1 0x0 SLOAD PUSH2 0x100 SWAP1 DIV PUSH1 0xFF AND ISZERO DUP1 ISZERO PUSH2 0x16D2 JUMPI PUSH1 0x0 DUP1 SLOAD PUSH1 0xFF NOT PUSH2 0xFF00 NOT SWAP1 SWAP2 AND PUSH2 0x100 OR AND PUSH1 0x1 OR SWAP1 SSTORE JUMPDEST PUSH2 0x165E PUSH2 0x16FC JUMP JUMPDEST PUSH1 0x66 DUP1 SLOAD PUSH1 0x1 PUSH1 0x1 PUSH1 0xA0 SHL SUB NOT AND PUSH1 0x1 PUSH1 0x1 PUSH1 0xA0 SHL SUB SWAP3 SWAP1 SWAP3 AND SWAP2 SWAP1 SWAP2 OR SWAP1 SSTORE JUMP JUMPDEST PUSH1 0x0 SLOAD PUSH2 0x100 SWAP1 DIV PUSH1 0xFF AND DUP1 PUSH2 0x1715 JUMPI POP PUSH1 0x0 SLOAD PUSH1 0xFF AND ISZERO JUMPDEST PUSH2 0x1731 JUMPI PUSH1 0x40 MLOAD PUSH3 0x461BCD PUSH1 0xE5 SHL DUP2 MSTORE PUSH1 0x4 ADD PUSH2 0x987 SWAP1 PUSH2 0x1ECF JUMP JUMPDEST PUSH1 0x0 SLOAD PUSH2 0x100 SWAP1 DIV PUSH1 0xFF AND ISZERO DUP1 ISZERO PUSH2 0x165E JUMPI PUSH1 0x0 DUP1 SLOAD PUSH1 0xFF NOT PUSH2 0xFF00 NOT SWAP1 SWAP2 AND PUSH2 0x100 OR AND PUSH1 0x1 OR SWAP1 SSTORE DUP1 ISZERO PUSH2 0x1523 JUMPI PUSH1 0x0 DUP1 SLOAD PUSH2 0xFF00 NOT AND SWAP1 SSTORE POP JUMP JUMPDEST PUSH1 0x0 SLOAD PUSH2 0x100 SWAP1 DIV PUSH1 0xFF AND DUP1 PUSH2 0x1788 JUMPI POP PUSH1 0x0 SLOAD PUSH1 0xFF AND ISZERO JUMPDEST PUSH2 0x17A4 JUMPI PUSH1 0x40 MLOAD PUSH3 0x461BCD PUSH1 0xE5 SHL DUP2 MSTORE PUSH1 0x4 ADD PUSH2 0x987 SWAP1 PUSH2 0x1ECF JUMP JUMPDEST PUSH1 0x0 SLOAD PUSH2 0x100 SWAP1 DIV PUSH1 0xFF AND ISZERO DUP1 ISZERO PUSH2 0x17CF JUMPI PUSH1 0x0 DUP1 SLOAD PUSH1 0xFF NOT PUSH2 0xFF00 NOT SWAP1 SWAP2 AND PUSH2 0x100 OR AND PUSH1 0x1 OR SWAP1 SSTORE JUMPDEST PUSH2 0x165E PUSH2 0x17DA PUSH2 0x1551 JUMP JUMPDEST PUSH2 0x159C JUMP JUMPDEST DUP3 DUP1 SLOAD PUSH2 0x17EB SWAP1 PUSH2 0x20CA JUMP JUMPDEST SWAP1 PUSH1 0x0 MSTORE PUSH1 0x20 PUSH1 0x0 KECCAK256 SWAP1 PUSH1 0x1F ADD PUSH1 0x20 SWAP1 DIV DUP2 ADD SWAP3 DUP3 PUSH2 0x180D JUMPI PUSH1 0x0 DUP6 SSTORE PUSH2 0x1853 JUMP JUMPDEST DUP3 PUSH1 0x1F LT PUSH2 0x1826 JUMPI DUP1 MLOAD PUSH1 0xFF NOT AND DUP4 DUP1 ADD OR DUP6 SSTORE PUSH2 0x1853 JUMP JUMPDEST DUP3 DUP1 ADD PUSH1 0x1 ADD DUP6 SSTORE DUP3 ISZERO PUSH2 0x1853 JUMPI SWAP2 DUP3 ADD JUMPDEST DUP3 DUP2 GT ISZERO PUSH2 0x1853 JUMPI DUP3 MLOAD DUP3 SSTORE SWAP2 PUSH1 0x20 ADD SWAP2 SWAP1 PUSH1 0x1 ADD SWAP1 PUSH2 0x1838 JUMP JUMPDEST POP PUSH2 0x185F SWAP3 SWAP2 POP PUSH2 0x1863 JUMP JUMPDEST POP SWAP1 JUMP JUMPDEST JUMPDEST DUP1 DUP3 GT ISZERO PUSH2 0x185F JUMPI PUSH1 0x0 DUP2 SSTORE PUSH1 0x1 ADD PUSH2 0x1864 JUMP JUMPDEST DUP1 CALLDATALOAD PUSH2 0xBAD DUP2 PUSH2 0x2142 JUMP JUMPDEST PUSH1 0x0 DUP3 PUSH1 0x1F DUP4 ADD SLT PUSH2 0x1893 JUMPI DUP1 DUP2 REVERT JUMPDEST PUSH1 0x40 MLOAD PUSH1 0x80 DUP2 ADD DUP2 DUP2 LT PUSH8 0xFFFFFFFFFFFFFFFF DUP3 GT OR ISZERO PUSH2 0x18B6 JUMPI PUSH2 0x18B6 PUSH2 0x212C JUMP JUMPDEST PUSH1 0x40 MSTORE DUP1 DUP4 PUSH1 0x80 DUP2 ADD DUP7 LT ISZERO PUSH2 0x18CA JUMPI DUP4 DUP5 REVERT JUMPDEST DUP4 JUMPDEST PUSH1 0x4 DUP2 LT ISZERO PUSH2 0x18F5 JUMPI DUP2 CALLDATALOAD PUSH2 0x18E0 DUP2 PUSH2 0x2142 JUMP JUMPDEST DUP4 MSTORE PUSH1 0x20 SWAP3 DUP4 ADD SWAP3 SWAP2 SWAP1 SWAP2 ADD SWAP1 PUSH1 0x1 ADD PUSH2 0x18CC JUMP JUMPDEST POP SWAP2 SWAP6 SWAP5 POP POP POP POP POP JUMP JUMPDEST PUSH1 0x0 DUP3 PUSH1 0x1F DUP4 ADD SLT PUSH2 0x1910 JUMPI DUP1 DUP2 REVERT JUMPDEST PUSH1 0x40 MLOAD PUSH2 0x160 DUP1 DUP3 ADD DUP3 DUP2 LT PUSH8 0xFFFFFFFFFFFFFFFF DUP3 GT OR ISZERO PUSH2 0x1935 JUMPI PUSH2 0x1935 PUSH2 0x212C JUMP JUMPDEST PUSH1 0x40 MSTORE DUP2 DUP5 DUP3 DUP2 ADD DUP8 LT ISZERO PUSH2 0x1948 JUMPI DUP5 DUP6 REVERT JUMPDEST DUP5 SWAP3 POP JUMPDEST PUSH1 0xB DUP4 LT ISZERO PUSH2 0x18F5 JUMPI DUP1 CALLDATALOAD DUP3 MSTORE PUSH1 0x1 SWAP3 SWAP1 SWAP3 ADD SWAP2 PUSH1 0x20 SWAP2 DUP3 ADD SWAP2 ADD PUSH2 0x194C JUMP JUMPDEST PUSH1 0x0 DUP3 PUSH1 0x1F DUP4 ADD SLT PUSH2 0x197C JUMPI DUP1 DUP2 REVERT JUMPDEST PUSH1 0x40 MLOAD PUSH2 0x100 DUP1 DUP3 ADD DUP3 DUP2 LT PUSH8 0xFFFFFFFFFFFFFFFF DUP3 GT OR ISZERO PUSH2 0x19A1 JUMPI PUSH2 0x19A1 PUSH2 0x212C JUMP JUMPDEST PUSH1 0x40 MSTORE DUP2 DUP5 DUP3 DUP2 ADD DUP8 LT ISZERO PUSH2 0x19B4 JUMPI DUP5 DUP6 REVERT JUMPDEST DUP5 SWAP3 POP JUMPDEST PUSH1 0x8 DUP4 LT ISZERO PUSH2 0x18F5 JUMPI DUP1 CALLDATALOAD DUP3 MSTORE PUSH1 0x1 SWAP3 SWAP1 SWAP3 ADD SWAP2 PUSH1 0x20 SWAP2 DUP3 ADD SWAP2 ADD PUSH2 0x19B8 JUMP JUMPDEST DUP1 CALLDATALOAD DUP1 ISZERO ISZERO DUP2 EQ PUSH2 0xBAD JUMPI PUSH1 0x0 DUP1 REVERT JUMPDEST PUSH1 0x0 DUP3 PUSH1 0x1F DUP4 ADD SLT PUSH2 0x19F8 JUMPI DUP1 DUP2 REVERT JUMPDEST DUP2 CALLDATALOAD PUSH8 0xFFFFFFFFFFFFFFFF DUP2 GT ISZERO PUSH2 0x1A12 JUMPI PUSH2 0x1A12 PUSH2 0x212C JUMP JUMPDEST PUSH2 0x1A25 PUSH1 0x1F DUP3 ADD PUSH1 0x1F NOT AND PUSH1 0x20 ADD PUSH2 0x20A0 JUMP JUMPDEST DUP2 DUP2 MSTORE DUP5 PUSH1 0x20 DUP4 DUP7 ADD ADD GT ISZERO PUSH2 0x1A39 JUMPI DUP3 DUP4 REVERT JUMPDEST DUP2 PUSH1 0x20 DUP6 ADD PUSH1 0x20 DUP4 ADD CALLDATACOPY SWAP1 DUP2 ADD PUSH1 0x20 ADD SWAP2 SWAP1 SWAP2 MSTORE SWAP3 SWAP2 POP POP JUMP JUMPDEST DUP1 MLOAD PUSH10 0xFFFFFFFFFFFFFFFFFFFF DUP2 AND DUP2 EQ PUSH2 0xBAD JUMPI PUSH1 0x0 DUP1 REVERT JUMPDEST PUSH1 0x0 PUSH1 0x20 DUP3 DUP5 SUB SLT ISZERO PUSH2 0x1A7E JUMPI DUP1 DUP2 REVERT JUMPDEST DUP2 CALLDATALOAD PUSH2 0x1A89 DUP2 PUSH2 0x2142 JUMP JUMPDEST SWAP4 SWAP3 POP POP POP JUMP JUMPDEST PUSH1 0x0 DUP1 PUSH1 0x0 PUSH1 0x60 DUP5 DUP7 SUB SLT ISZERO PUSH2 0x1AA4 JUMPI DUP2 DUP3 REVERT JUMPDEST DUP4 CALLDATALOAD PUSH2 0x1AAF DUP2 PUSH2 0x2142 JUMP JUMPDEST SWAP3 POP PUSH1 0x20 DUP5 ADD CALLDATALOAD PUSH2 0x1ABF DUP2 PUSH2 0x2142 JUMP JUMPDEST SWAP2 POP PUSH1 0x40 DUP5 ADD CALLDATALOAD PUSH2 0x1ACF DUP2 PUSH2 0x2142 JUMP JUMPDEST DUP1 SWAP2 POP POP SWAP3 POP SWAP3 POP SWAP3 JUMP JUMPDEST PUSH1 0x0 DUP1 PUSH1 0x40 DUP4 DUP6 SUB SLT ISZERO PUSH2 0x1AEC JUMPI DUP2 DUP3 REVERT JUMPDEST DUP3 CALLDATALOAD PUSH2 0x1AF7 DUP2 PUSH2 0x2142 JUMP JUMPDEST SWAP5 PUSH1 0x20 SWAP4 SWAP1 SWAP4 ADD CALLDATALOAD SWAP4 POP POP POP JUMP JUMPDEST PUSH1 0x0 PUSH1 0x20 DUP1 DUP4 DUP6 SUB SLT ISZERO PUSH2 0x1B17 JUMPI DUP2 DUP3 REVERT JUMPDEST DUP3 MLOAD PUSH8 0xFFFFFFFFFFFFFFFF DUP1 DUP3 GT ISZERO PUSH2 0x1B2E JUMPI DUP4 DUP5 REVERT JUMPDEST DUP2 DUP6 ADD SWAP2 POP DUP6 PUSH1 0x1F DUP4 ADD SLT PUSH2 0x1B41 JUMPI DUP4 DUP5 REVERT JUMPDEST DUP2 MLOAD DUP2 DUP2 GT ISZERO PUSH2 0x1B53 JUMPI PUSH2 0x1B53 PUSH2 0x212C JUMP JUMPDEST DUP4 DUP2 MUL SWAP2 POP PUSH2 0x1B63 DUP5 DUP4 ADD PUSH2 0x20A0 JUMP JUMPDEST DUP2 DUP2 MSTORE DUP5 DUP2 ADD SWAP1 DUP5 DUP7 ADD DUP5 DUP7 ADD DUP8 ADD DUP11 LT ISZERO PUSH2 0x1B7D JUMPI DUP8 DUP9 REVERT JUMPDEST DUP8 SWAP6 POP JUMPDEST DUP4 DUP7 LT ISZERO PUSH2 0x1B9F JUMPI DUP1 MLOAD DUP4 MSTORE PUSH1 0x1 SWAP6 SWAP1 SWAP6 ADD SWAP5 SWAP2 DUP7 ADD SWAP2 DUP7 ADD PUSH2 0x1B81 JUMP JUMPDEST POP SWAP9 SWAP8 POP POP POP POP POP POP POP POP JUMP JUMPDEST PUSH1 0x0 DUP1 PUSH1 0x0 DUP1 PUSH1 0x0 DUP1 PUSH1 0x0 DUP1 PUSH1 0x0 DUP1 PUSH2 0x4A0 DUP12 DUP14 SUB SLT ISZERO PUSH2 0x1BCB JUMPI DUP6 DUP7 REVERT JUMPDEST DUP11 CALLDATALOAD PUSH8 0xFFFFFFFFFFFFFFFF DUP1 DUP3 GT ISZERO PUSH2 0x1BE2 JUMPI DUP8 DUP9 REVERT JUMPDEST PUSH2 0x1BEE DUP15 DUP4 DUP16 ADD PUSH2 0x19E8 JUMP JUMPDEST SWAP12 POP PUSH1 0x20 DUP14 ADD CALLDATALOAD SWAP2 POP DUP1 DUP3 GT ISZERO PUSH2 0x1C03 JUMPI DUP8 DUP9 REVERT JUMPDEST POP PUSH2 0x1C10 DUP14 DUP3 DUP15 ADD PUSH2 0x19E8 JUMP JUMPDEST SWAP10 POP POP PUSH2 0x1C1F PUSH1 0x40 DUP13 ADD PUSH2 0x1878 JUMP JUMPDEST SWAP8 POP PUSH2 0x1C2D PUSH1 0x60 DUP13 ADD PUSH2 0x1878 JUMP JUMPDEST SWAP7 POP PUSH2 0x1C3B PUSH1 0x80 DUP13 ADD PUSH2 0x1878 JUMP JUMPDEST SWAP6 POP PUSH2 0x1C4A DUP13 PUSH1 0xA0 DUP14 ADD PUSH2 0x1883 JUMP JUMPDEST SWAP5 POP PUSH2 0x1C5A DUP13 PUSH2 0x120 DUP14 ADD PUSH2 0x1900 JUMP JUMPDEST SWAP4 POP PUSH2 0x1C6A DUP13 PUSH2 0x280 DUP14 ADD PUSH2 0x196C JUMP JUMPDEST SWAP3 POP PUSH2 0x1C7A DUP13 PUSH2 0x380 DUP14 ADD PUSH2 0x196C JUMP JUMPDEST SWAP2 POP PUSH2 0x1C89 PUSH2 0x480 DUP13 ADD PUSH2 0x19D8 JUMP JUMPDEST SWAP1 POP SWAP3 SWAP6 SWAP9 SWAP12 SWAP2 SWAP5 SWAP8 SWAP11 POP SWAP3 SWAP6 SWAP9 POP JUMP JUMPDEST PUSH1 0x0 PUSH1 0x20 DUP3 DUP5 SUB SLT ISZERO PUSH2 0x1CAB JUMPI DUP1 DUP2 REVERT JUMPDEST POP CALLDATALOAD SWAP2 SWAP1 POP JUMP JUMPDEST PUSH1 0x0 PUSH1 0x20 DUP3 DUP5 SUB SLT ISZERO PUSH2 0x1CC3 JUMPI DUP1 DUP2 REVERT JUMPDEST POP MLOAD SWAP2 SWAP1 POP JUMP JUMPDEST PUSH1 0x0 DUP1 PUSH1 0x0 DUP1 PUSH1 0x0 PUSH1 0xA0 DUP7 DUP9 SUB SLT ISZERO PUSH2 0x1CE1 JUMPI DUP3 DUP4 REVERT JUMPDEST PUSH2 0x1CEA DUP7 PUSH2 0x1A53 JUMP JUMPDEST SWAP5 POP PUSH1 0x20 DUP7 ADD MLOAD SWAP4 POP PUSH1 0x40 DUP7 ADD MLOAD SWAP3 POP PUSH1 0x60 DUP7 ADD MLOAD SWAP2 POP PUSH2 0x1D0D PUSH1 0x80 DUP8 ADD PUSH2 0x1A53 JUMP JUMPDEST SWAP1 POP SWAP3 SWAP6 POP SWAP3 SWAP6 SWAP1 SWAP4 POP JUMP JUMPDEST PUSH1 0x0 PUSH1 0x20 DUP3 DUP5 SUB SLT ISZERO PUSH2 0x1D2A JUMPI DUP1 DUP2 REVERT JUMPDEST DUP2 MLOAD PUSH1 0xFF DUP2 AND DUP2 EQ PUSH2 0x1A89 JUMPI DUP2 DUP3 REVERT JUMPDEST PUSH1 0x0 DUP2 MLOAD DUP1 DUP5 MSTORE PUSH1 0x20 DUP1 DUP6 ADD SWAP5 POP DUP1 DUP5 ADD DUP4 JUMPDEST DUP4 DUP2 LT ISZERO PUSH2 0x1D72 JUMPI DUP2 MLOAD PUSH1 0x1 PUSH1 0x1 PUSH1 0xA0 SHL SUB AND DUP8 MSTORE SWAP6 DUP3 ADD SWAP6 SWAP1 DUP3 ADD SWAP1 PUSH1 0x1 ADD PUSH2 0x1D4D JUMP JUMPDEST POP SWAP5 SWAP6 SWAP5 POP POP POP POP POP JUMP JUMPDEST PUSH1 0x1 PUSH1 0x1 PUSH1 0xA0 SHL SUB SWAP2 SWAP1 SWAP2 AND DUP2 MSTORE PUSH1 0x20 ADD SWAP1 JUMP JUMPDEST PUSH1 0x1 PUSH1 0x1 PUSH1 0xA0 SHL SUB SWAP3 SWAP1 SWAP3 AND DUP3 MSTORE PUSH1 0x20 DUP3 ADD MSTORE PUSH1 0x40 ADD SWAP1 JUMP JUMPDEST PUSH1 0x0 PUSH1 0x20 DUP3 MSTORE PUSH2 0x1A89 PUSH1 0x20 DUP4 ADD DUP5 PUSH2 0x1D3A JUMP JUMPDEST SWAP1 ISZERO ISZERO DUP2 MSTORE PUSH1 0x20 ADD SWAP1 JUMP JUMPDEST PUSH1 0x0 PUSH1 0x20 DUP1 DUP4 MSTORE DUP4 MLOAD DUP1 DUP3 DUP6 ADD MSTORE DUP3 JUMPDEST DUP2 DUP2 LT ISZERO PUSH2 0x1DF4 JUMPI DUP6 DUP2 ADD DUP4 ADD MLOAD DUP6 DUP3 ADD PUSH1 0x40 ADD MSTORE DUP3 ADD PUSH2 0x1DD8 JUMP JUMPDEST DUP2 DUP2 GT ISZERO PUSH2 0x1E05 JUMPI DUP4 PUSH1 0x40 DUP4 DUP8 ADD ADD MSTORE JUMPDEST POP PUSH1 0x1F ADD PUSH1 0x1F NOT AND SWAP3 SWAP1 SWAP3 ADD PUSH1 0x40 ADD SWAP4 SWAP3 POP POP POP JUMP JUMPDEST PUSH1 0x20 DUP1 DUP3 MSTORE PUSH1 0x1A SWAP1 DUP3 ADD MSTORE PUSH32 0x55706772616465206973206E6F7420656E61626C656420796574000000000000 PUSH1 0x40 DUP3 ADD MSTORE PUSH1 0x60 ADD SWAP1 JUMP JUMPDEST PUSH1 0x20 DUP1 DUP3 MSTORE PUSH1 0x26 SWAP1 DUP3 ADD MSTORE PUSH32 0x4F776E61626C653A206E6577206F776E657220697320746865207A65726F2061 PUSH1 0x40 DUP3 ADD MSTORE PUSH6 0x646472657373 PUSH1 0xD0 SHL PUSH1 0x60 DUP3 ADD MSTORE PUSH1 0x80 ADD SWAP1 JUMP JUMPDEST PUSH1 0x20 DUP1 DUP3 MSTORE PUSH1 0x1D SWAP1 DUP3 ADD MSTORE PUSH32 0x497320616C72656164792074686520696D706C656D656E746174696F6E000000 PUSH1 0x40 DUP3 ADD MSTORE PUSH1 0x60 ADD SWAP1 JUMP JUMPDEST PUSH1 0x20 DUP1 DUP3 MSTORE PUSH1 0x2E SWAP1 DUP3 ADD MSTORE PUSH32 0x496E697469616C697A61626C653A20636F6E747261637420697320616C726561 PUSH1 0x40 DUP3 ADD MSTORE PUSH14 0x191E481A5B9A5D1A585B1A5E9959 PUSH1 0x92 SHL PUSH1 0x60 DUP3 ADD MSTORE PUSH1 0x80 ADD SWAP1 JUMP JUMPDEST PUSH1 0x20 DUP1 DUP3 MSTORE DUP2 DUP2 ADD MSTORE PUSH32 0x4F776E61626C653A2063616C6C6572206973206E6F7420746865206F776E6572 PUSH1 0x40 DUP3 ADD MSTORE PUSH1 0x60 ADD SWAP1 JUMP JUMPDEST PUSH1 0x20 DUP1 DUP3 MSTORE PUSH1 0x25 SWAP1 DUP3 ADD MSTORE PUSH32 0x30333031206C61756E636820646174652063616E277420626520696E20746865 PUSH1 0x40 DUP3 ADD MSTORE PUSH5 0x81C185CDD PUSH1 0xDA SHL PUSH1 0x60 DUP3 ADD MSTORE PUSH1 0x80 ADD SWAP1 JUMP JUMPDEST PUSH1 0x20 DUP1 DUP3 MSTORE PUSH1 0x1A SWAP1 DUP3 ADD MSTORE PUSH32 0x6D73672E73656E646572206973206E6F7420616E206F776E6572000000000000 PUSH1 0x40 DUP3 ADD MSTORE PUSH1 0x60 ADD SWAP1 JUMP JUMPDEST SWAP1 DUP2 MSTORE PUSH1 0x20 ADD SWAP1 JUMP JUMPDEST PUSH1 0x0 DUP4 DUP3 MSTORE PUSH1 0x40 PUSH1 0x20 DUP4 ADD MSTORE PUSH2 0x1FF0 PUSH1 0x40 DUP4 ADD DUP5 PUSH2 0x1D3A JUMP JUMPDEST SWAP5 SWAP4 POP POP POP POP JUMP JUMPDEST SWAP2 DUP3 MSTORE PUSH1 0x20 DUP3 ADD MSTORE PUSH1 0x40 ADD SWAP1 JUMP JUMPDEST SWAP9 DUP10 MSTORE PUSH1 0x20 DUP10 ADD SWAP8 SWAP1 SWAP8 MSTORE PUSH1 0x40 DUP9 ADD SWAP6 SWAP1 SWAP6 MSTORE PUSH1 0x60 DUP8 ADD SWAP4 SWAP1 SWAP4 MSTORE PUSH1 0x80 DUP7 ADD SWAP2 SWAP1 SWAP2 MSTORE PUSH1 0xA0 DUP6 ADD MSTORE PUSH1 0xC0 DUP5 ADD MSTORE ISZERO ISZERO PUSH1 0xE0 DUP4 ADD MSTORE ISZERO ISZERO PUSH2 0x100 DUP3 ADD MSTORE PUSH2 0x120 ADD SWAP1 JUMP JUMPDEST SWAP10 DUP11 MSTORE PUSH1 0x20 DUP11 ADD SWAP9 SWAP1 SWAP9 MSTORE PUSH1 0x40 DUP10 ADD SWAP7 SWAP1 SWAP7 MSTORE PUSH1 0x60 DUP9 ADD SWAP5 SWAP1 SWAP5 MSTORE PUSH1 0x80 DUP8 ADD SWAP3 SWAP1 SWAP3 MSTORE PUSH1 0xA0 DUP7 ADD MSTORE PUSH1 0xC0 DUP6 ADD MSTORE PUSH1 0xE0 DUP5 ADD MSTORE ISZERO ISZERO PUSH2 0x100 DUP4 ADD MSTORE ISZERO ISZERO PUSH2 0x120 DUP3 ADD MSTORE PUSH2 0x140 ADD SWAP1 JUMP JUMPDEST PUSH1 0xFF SWAP2 SWAP1 SWAP2 AND DUP2 MSTORE PUSH1 0x20 ADD SWAP1 JUMP JUMPDEST PUSH1 0x40 MLOAD DUP2 DUP2 ADD PUSH8 0xFFFFFFFFFFFFFFFF DUP2 GT DUP3 DUP3 LT OR ISZERO PUSH2 0x20C2 JUMPI PUSH2 0x20C2 PUSH2 0x212C JUMP JUMPDEST PUSH1 0x40 MSTORE SWAP2 SWAP1 POP JUMP JUMPDEST PUSH1 0x2 DUP2 DIV PUSH1 0x1 DUP3 AND DUP1 PUSH2 0x20DE JUMPI PUSH1 0x7F DUP3 AND SWAP2 POP JUMPDEST PUSH1 0x20 DUP3 LT DUP2 EQ ISZERO PUSH2 0x20FF JUMPI PUSH4 0x4E487B71 PUSH1 0xE0 SHL PUSH1 0x0 MSTORE PUSH1 0x22 PUSH1 0x4 MSTORE PUSH1 0x24 PUSH1 0x0 REVERT JUMPDEST POP SWAP2 SWAP1 POP JUMP JUMPDEST PUSH1 0x0 PUSH1 0x0 NOT DUP3 EQ ISZERO PUSH2 0x2125 JUMPI PUSH4 0x4E487B71 PUSH1 0xE0 SHL DUP2 MSTORE PUSH1 0x11 PUSH1 0x4 MSTORE PUSH1 0x24 DUP2 REVERT JUMPDEST POP PUSH1 0x1 ADD SWAP1 JUMP JUMPDEST PUSH4 0x4E487B71 PUSH1 0xE0 SHL PUSH1 0x0 MSTORE PUSH1 0x41 PUSH1 0x4 MSTORE PUSH1 0x24 PUSH1 0x0 REVERT JUMPDEST PUSH1 0x1 PUSH1 0x1 PUSH1 0xA0 SHL SUB DUP2 AND DUP2 EQ PUSH2 0x1523 JUMPI PUSH1 0x0 DUP1 REVERT INVALID LOG2 PUSH5 0x6970667358 0x22 SLT KECCAK256 LOG0 SWAP8 0xE8 EXTCODECOPY 0x24 DUP3 REVERT SWAP10 0xD5 PUSH21 0xB71919DCE09C9DCD72E6DB76D537C66997784585B0 DUP9 PUSH5 0x736F6C6343 STOP ADDMOD STOP STOP CALLER "
    },
    "gasEstimates": {
      "creation": {
        "codeDepositCost": "1717800",
        "executionCost": "43465",
        "totalCost": "1761265"
      },
      "external": {
        "": "infinite",
        "__PriceConsumer_initialize(address)": "65458",
        "__WrappedTokenDistributor_initialize(address,address,address)": "infinite",
        "collaborativeRange()": "1183",
        "collaborativeReward()": "1094",
        "disableUpgrade()": "21944",
        "enableUpgrade()": "22045",
        "getDecimals()": "infinite",
        "getEstimatedWrappedTokenForUSD(uint256)": "infinite",
        "getLatestPrice()": "infinite",
        "getPathForUSDToWrappedToken()": "infinite",
        "getUSDBalance()": "infinite",
        "getUSDToken()": "1158",
        "getswapRouter()": "1139",
        "initialize(string,string,address,address,address,address[4],uint256[11],uint256[8],uint256[8],bool)": "infinite",
        "isActive()": "1142",
        "isAnEmergency()": "1108",
        "isDeleted()": "1184",
        "isEnhancedEnabled()": "1141",
        "isLocked()": "1185",
        "isMatured()": "1119",
        "launchDate()": "1138",
        "lockTime()": "1075",
        "lps()": "7758",
        "maturingPrice()": "1139",
        "maturityTime()": "1140",
        "minimumStakeAmount()": "1118",
        "oracleContract()": "1182",
        "oracleDecimal()": "318",
        "owner()": "1159",
        "poolCreator()": "1159",
        "poolType()": "infinite",
        "potentialCollabReward()": "1117",
        "predictions(address,uint256)": "8203",
        "prizeAmount()": "1184",
        "prizeRewardRates(uint256)": "2935",
        "renounceOwnership()": "23619",
        "rewardManager()": "1139",
        "sizeAllocation()": "1162",
        "sizeLimitRangeRate()": "361",
        "sortedStakers(uint256)": "2936",
        "stakeApr()": "1096",
        "stakeTaxRate()": "1096",
        "stakers(uint256)": "3023",
        "stakingPoolImplementation()": "1227",
        "totalStaked()": "1118",
        "totemToken()": "1203",
        "transferOwnership(address)": "infinite",
        "upgradeEnabled()": "1124",
        "upgradeTo(address)": "45397",
        "usdPrizeAmount()": "1162",
        "wrappedToken()": "1116",
        "wrappedTokenSymbol()": "infinite"
      },
      "internal": {
        "_setStakingPoolImplementation(address)": "21642"
      }
    },
    "methodIdentifiers": {
      "__PriceConsumer_initialize(address)": "37c4f6a4",
      "__WrappedTokenDistributor_initialize(address,address,address)": "a8f7b346",
      "collaborativeRange()": "eb850ae1",
      "collaborativeReward()": "f3d9dc0d",
      "disableUpgrade()": "67fc9138",
      "enableUpgrade()": "28016f9a",
      "getDecimals()": "f0141d84",
      "getEstimatedWrappedTokenForUSD(uint256)": "3fcdd82c",
      "getLatestPrice()": "8e15f473",
      "getPathForUSDToWrappedToken()": "a35ef3a7",
      "getUSDBalance()": "c1201054",
      "getUSDToken()": "f5e96fc9",
      "getswapRouter()": "2e577d07",
      "initialize(string,string,address,address,address,address[4],uint256[11],uint256[8],uint256[8],bool)": "e477ad71",
      "isActive()": "22f3e2d4",
      "isAnEmergency()": "a08b2c79",
      "isDeleted()": "d7efb6b7",
      "isEnhancedEnabled()": "4bc4eeb2",
      "isLocked()": "a4e2d634",
      "isMatured()": "7f2b6a0d",
      "launchDate()": "f8eeed62",
      "lockTime()": "0d668087",
      "lps()": "e0818669",
      "maturingPrice()": "d025188b",
      "maturityTime()": "4e8bfdaa",
      "minimumStakeAmount()": "6b036f45",
      "oracleContract()": "bece7532",
      "oracleDecimal()": "a150194b",
      "owner()": "8da5cb5b",
      "poolCreator()": "c6c1decd",
      "poolType()": "b1dd61b6",
      "potentialCollabReward()": "e425df8c",
      "predictions(address,uint256)": "850fa7cb",
      "prizeAmount()": "785fa627",
      "prizeRewardRates(uint256)": "f1b17a8b",
      "renounceOwnership()": "715018a6",
      "rewardManager()": "0f4ef8a6",
      "sizeAllocation()": "51eacbf0",
      "sizeLimitRangeRate()": "95c2ba47",
      "sortedStakers(uint256)": "de09ee20",
      "stakeApr()": "aa7bcb57",
      "stakeTaxRate()": "6847d0c5",
      "stakers(uint256)": "fd5e6dd1",
      "stakingPoolImplementation()": "2aa8195e",
      "totalStaked()": "817b1cd2",
      "totemToken()": "e8153c93",
      "transferOwnership(address)": "f2fde38b",
      "upgradeEnabled()": "8cf0e21e",
      "upgradeTo(address)": "3659cfe6",
      "usdPrizeAmount()": "73f31703",
      "wrappedToken()": "996c6cc3",
      "wrappedTokenSymbol()": "238a6c74"
    }
  },
  "storageLayout": {
    "storage": [
      {
        "astId": 176,
        "contract": "contracts/Staking/StakingPoolProxy.sol:StakingPoolProxy",
        "label": "_initialized",
        "offset": 0,
        "slot": "0",
        "type": "t_bool"
      },
      {
        "astId": 179,
        "contract": "contracts/Staking/StakingPoolProxy.sol:StakingPoolProxy",
        "label": "_initializing",
        "offset": 1,
        "slot": "0",
        "type": "t_bool"
      },
      {
        "astId": 259,
        "contract": "contracts/Staking/StakingPoolProxy.sol:StakingPoolProxy",
        "label": "__gap",
        "offset": 0,
        "slot": "1",
        "type": "t_array(t_uint256)50_storage"
      },
      {
        "astId": 56,
        "contract": "contracts/Staking/StakingPoolProxy.sol:StakingPoolProxy",
        "label": "_owner",
        "offset": 0,
        "slot": "51",
        "type": "t_address"
      },
      {
        "astId": 169,
        "contract": "contracts/Staking/StakingPoolProxy.sol:StakingPoolProxy",
        "label": "__gap",
        "offset": 0,
        "slot": "52",
        "type": "t_array(t_uint256)49_storage"
      },
      {
        "astId": 1585,
        "contract": "contracts/Staking/StakingPoolProxy.sol:StakingPoolProxy",
        "label": "priceFeed",
        "offset": 0,
        "slot": "101",
        "type": "t_contract(AggregatorV3Interface)45"
      },
      {
        "astId": 1353,
        "contract": "contracts/Staking/StakingPoolProxy.sol:StakingPoolProxy",
        "label": "USDCContract",
        "offset": 0,
        "slot": "102",
        "type": "t_contract(IERC20)988"
      },
      {
        "astId": 1438,
        "contract": "contracts/Staking/StakingPoolProxy.sol:StakingPoolProxy",
        "label": "swapRouter",
        "offset": 0,
        "slot": "103",
        "type": "t_contract(IPancakeRouter02)7031"
      },
      {
        "astId": 1440,
        "contract": "contracts/Staking/StakingPoolProxy.sol:StakingPoolProxy",
        "label": "BUSD_CONTRACT_ADDRESS",
        "offset": 0,
        "slot": "104",
        "type": "t_address"
      },
      {
        "astId": 1442,
        "contract": "contracts/Staking/StakingPoolProxy.sol:StakingPoolProxy",
        "label": "WRAPPED_Token_CONTRACT_ADDRESS",
        "offset": 0,
        "slot": "105",
        "type": "t_address"
      },
      {
        "astId": 4405,
        "contract": "contracts/Staking/StakingPoolProxy.sol:StakingPoolProxy",
        "label": "stakingPoolImplementation",
        "offset": 0,
        "slot": "106",
        "type": "t_address"
      },
      {
        "astId": 4407,
        "contract": "contracts/Staking/StakingPoolProxy.sol:StakingPoolProxy",
        "label": "poolCreator",
        "offset": 0,
        "slot": "107",
        "type": "t_address"
      },
      {
        "astId": 4409,
        "contract": "contracts/Staking/StakingPoolProxy.sol:StakingPoolProxy",
        "label": "oracleContract",
        "offset": 0,
        "slot": "108",
        "type": "t_address"
      },
      {
        "astId": 4462,
        "contract": "contracts/Staking/StakingPoolProxy.sol:StakingPoolProxy",
        "label": "lps",
        "offset": 0,
        "slot": "109",
        "type": "t_struct(LibParams)4430_storage"
      },
      {
        "astId": 4466,
        "contract": "contracts/Staking/StakingPoolProxy.sol:StakingPoolProxy",
        "label": "prizeRewardRates",
        "offset": 0,
        "slot": "118",
        "type": "t_array(t_struct(PrizeRewardRate)4459_storage)dyn_storage"
      },
      {
        "astId": 4470,
        "contract": "contracts/Staking/StakingPoolProxy.sol:StakingPoolProxy",
        "label": "stakers",
        "offset": 0,
        "slot": "119",
        "type": "t_array(t_struct(Staker)4454_storage)dyn_storage"
      },
      {
        "astId": 4474,
        "contract": "contracts/Staking/StakingPoolProxy.sol:StakingPoolProxy",
        "label": "sortedStakers",
        "offset": 0,
        "slot": "120",
        "type": "t_array(t_struct(Staker)4454_storage)dyn_storage"
      },
      {
        "astId": 4480,
        "contract": "contracts/Staking/StakingPoolProxy.sol:StakingPoolProxy",
        "label": "predictions",
        "offset": 0,
        "slot": "121",
        "type": "t_mapping(t_address,t_array(t_struct(StakeWithPrediction)4449_storage)dyn_storage)"
      },
      {
        "astId": 4483,
        "contract": "contracts/Staking/StakingPoolProxy.sol:StakingPoolProxy",
        "label": "totemToken",
        "offset": 0,
        "slot": "122",
        "type": "t_contract(ITotemToken)7152"
      },
      {
        "astId": 4486,
        "contract": "contracts/Staking/StakingPoolProxy.sol:StakingPoolProxy",
        "label": "rewardManager",
        "offset": 0,
        "slot": "123",
        "type": "t_contract(IRewardManager)7059"
      },
      {
        "astId": 4489,
        "contract": "contracts/Staking/StakingPoolProxy.sol:StakingPoolProxy",
        "label": "wrappedToken",
        "offset": 0,
        "slot": "124",
        "type": "t_contract(IERC20)988"
      },
      {
        "astId": 4491,
        "contract": "contracts/Staking/StakingPoolProxy.sol:StakingPoolProxy",
        "label": "wrappedTokenSymbol",
        "offset": 0,
        "slot": "125",
        "type": "t_string_storage"
      },
      {
        "astId": 4493,
        "contract": "contracts/Staking/StakingPoolProxy.sol:StakingPoolProxy",
        "label": "poolType",
        "offset": 0,
        "slot": "126",
        "type": "t_string_storage"
      },
      {
        "astId": 4501,
        "contract": "contracts/Staking/StakingPoolProxy.sol:StakingPoolProxy",
        "label": "launchDate",
        "offset": 0,
        "slot": "127",
        "type": "t_uint256"
      },
      {
        "astId": 4503,
        "contract": "contracts/Staking/StakingPoolProxy.sol:StakingPoolProxy",
        "label": "lockTime",
        "offset": 0,
        "slot": "128",
        "type": "t_uint256"
      },
      {
        "astId": 4505,
        "contract": "contracts/Staking/StakingPoolProxy.sol:StakingPoolProxy",
        "label": "maturityTime",
        "offset": 0,
        "slot": "129",
        "type": "t_uint256"
      },
      {
        "astId": 4507,
        "contract": "contracts/Staking/StakingPoolProxy.sol:StakingPoolProxy",
        "label": "sizeAllocation",
        "offset": 0,
        "slot": "130",
        "type": "t_uint256"
      },
      {
        "astId": 4509,
        "contract": "contracts/Staking/StakingPoolProxy.sol:StakingPoolProxy",
        "label": "stakeApr",
        "offset": 0,
        "slot": "131",
        "type": "t_uint256"
      },
      {
        "astId": 4511,
        "contract": "contracts/Staking/StakingPoolProxy.sol:StakingPoolProxy",
        "label": "prizeAmount",
        "offset": 0,
        "slot": "132",
        "type": "t_uint256"
      },
      {
        "astId": 4514,
        "contract": "contracts/Staking/StakingPoolProxy.sol:StakingPoolProxy",
        "label": "usdPrizeAmount",
        "offset": 0,
        "slot": "133",
        "type": "t_uint256"
      },
      {
        "astId": 4516,
        "contract": "contracts/Staking/StakingPoolProxy.sol:StakingPoolProxy",
        "label": "stakeTaxRate",
        "offset": 0,
        "slot": "134",
        "type": "t_uint256"
      },
      {
        "astId": 4518,
        "contract": "contracts/Staking/StakingPoolProxy.sol:StakingPoolProxy",
        "label": "minimumStakeAmount",
        "offset": 0,
        "slot": "135",
        "type": "t_uint256"
      },
      {
        "astId": 4520,
        "contract": "contracts/Staking/StakingPoolProxy.sol:StakingPoolProxy",
        "label": "totalStaked",
        "offset": 0,
        "slot": "136",
        "type": "t_uint256"
      },
      {
        "astId": 4522,
        "contract": "contracts/Staking/StakingPoolProxy.sol:StakingPoolProxy",
        "label": "maturingPrice",
        "offset": 0,
        "slot": "137",
        "type": "t_uint256"
      },
      {
        "astId": 4524,
        "contract": "contracts/Staking/StakingPoolProxy.sol:StakingPoolProxy",
        "label": "potentialCollabReward",
        "offset": 0,
        "slot": "138",
        "type": "t_uint256"
      },
      {
        "astId": 4526,
        "contract": "contracts/Staking/StakingPoolProxy.sol:StakingPoolProxy",
        "label": "collaborativeRange",
        "offset": 0,
        "slot": "139",
        "type": "t_uint256"
      },
      {
        "astId": 4529,
        "contract": "contracts/Staking/StakingPoolProxy.sol:StakingPoolProxy",
        "label": "collaborativeReward",
        "offset": 0,
        "slot": "140",
        "type": "t_uint256"
      },
      {
        "astId": 4531,
        "contract": "contracts/Staking/StakingPoolProxy.sol:StakingPoolProxy",
        "label": "isAnEmergency",
        "offset": 0,
        "slot": "141",
        "type": "t_bool"
      },
      {
        "astId": 4533,
        "contract": "contracts/Staking/StakingPoolProxy.sol:StakingPoolProxy",
        "label": "isEnhancedEnabled",
        "offset": 1,
        "slot": "141",
        "type": "t_bool"
      },
      {
        "astId": 4535,
        "contract": "contracts/Staking/StakingPoolProxy.sol:StakingPoolProxy",
        "label": "isActive",
        "offset": 2,
        "slot": "141",
        "type": "t_bool"
      },
      {
        "astId": 4537,
        "contract": "contracts/Staking/StakingPoolProxy.sol:StakingPoolProxy",
        "label": "isLocked",
        "offset": 3,
        "slot": "141",
        "type": "t_bool"
      },
      {
        "astId": 4539,
        "contract": "contracts/Staking/StakingPoolProxy.sol:StakingPoolProxy",
        "label": "isMatured",
        "offset": 4,
        "slot": "141",
        "type": "t_bool"
      },
      {
        "astId": 4541,
        "contract": "contracts/Staking/StakingPoolProxy.sol:StakingPoolProxy",
        "label": "isDeleted",
        "offset": 5,
        "slot": "141",
        "type": "t_bool"
      },
      {
        "astId": 4544,
        "contract": "contracts/Staking/StakingPoolProxy.sol:StakingPoolProxy",
        "label": "upgradeEnabled",
        "offset": 6,
        "slot": "141",
        "type": "t_bool"
      }
    ],
    "types": {
      "t_address": {
        "encoding": "inplace",
        "label": "address",
        "numberOfBytes": "20"
      },
      "t_array(t_struct(PrizeRewardRate)4459_storage)dyn_storage": {
        "base": "t_struct(PrizeRewardRate)4459_storage",
        "encoding": "dynamic_array",
        "label": "struct StakingPoolStorageStructure.PrizeRewardRate[]",
        "numberOfBytes": "32"
      },
      "t_array(t_struct(StakeWithPrediction)4449_storage)dyn_storage": {
        "base": "t_struct(StakeWithPrediction)4449_storage",
        "encoding": "dynamic_array",
        "label": "struct StakingPoolStorageStructure.StakeWithPrediction[]",
        "numberOfBytes": "32"
      },
      "t_array(t_struct(Staker)4454_storage)dyn_storage": {
        "base": "t_struct(Staker)4454_storage",
        "encoding": "dynamic_array",
        "label": "struct StakingPoolStorageStructure.Staker[]",
        "numberOfBytes": "32"
      },
      "t_array(t_uint256)49_storage": {
        "base": "t_uint256",
        "encoding": "inplace",
        "label": "uint256[49]",
        "numberOfBytes": "1568"
      },
      "t_array(t_uint256)50_storage": {
        "base": "t_uint256",
        "encoding": "inplace",
        "label": "uint256[50]",
        "numberOfBytes": "1600"
      },
      "t_bool": {
        "encoding": "inplace",
        "label": "bool",
        "numberOfBytes": "1"
      },
      "t_contract(AggregatorV3Interface)45": {
        "encoding": "inplace",
        "label": "contract AggregatorV3Interface",
        "numberOfBytes": "20"
      },
      "t_contract(IERC20)988": {
        "encoding": "inplace",
        "label": "contract IERC20",
        "numberOfBytes": "20"
      },
      "t_contract(IPancakeRouter02)7031": {
        "encoding": "inplace",
        "label": "contract IPancakeRouter02",
        "numberOfBytes": "20"
      },
      "t_contract(IRewardManager)7059": {
        "encoding": "inplace",
        "label": "contract IRewardManager",
        "numberOfBytes": "20"
      },
      "t_contract(ITotemToken)7152": {
        "encoding": "inplace",
        "label": "contract ITotemToken",
        "numberOfBytes": "20"
      },
      "t_mapping(t_address,t_array(t_struct(StakeWithPrediction)4449_storage)dyn_storage)": {
        "encoding": "mapping",
        "key": "t_address",
        "label": "mapping(address => struct StakingPoolStorageStructure.StakeWithPrediction[])",
        "numberOfBytes": "32",
        "value": "t_array(t_struct(StakeWithPrediction)4449_storage)dyn_storage"
      },
      "t_string_storage": {
        "encoding": "bytes",
        "label": "string",
        "numberOfBytes": "32"
      },
      "t_struct(LibParams)4430_storage": {
        "encoding": "inplace",
        "label": "struct StakingPoolStorageStructure.LibParams",
        "members": [
          {
            "astId": 4411,
            "contract": "contracts/Staking/StakingPoolProxy.sol:StakingPoolProxy",
            "label": "launchDate",
            "offset": 0,
            "slot": "0",
            "type": "t_uint256"
          },
          {
            "astId": 4413,
            "contract": "contracts/Staking/StakingPoolProxy.sol:StakingPoolProxy",
            "label": "lockTime",
            "offset": 0,
            "slot": "1",
            "type": "t_uint256"
          },
          {
            "astId": 4415,
            "contract": "contracts/Staking/StakingPoolProxy.sol:StakingPoolProxy",
            "label": "maturityTime",
            "offset": 0,
            "slot": "2",
            "type": "t_uint256"
          },
          {
            "astId": 4417,
            "contract": "contracts/Staking/StakingPoolProxy.sol:StakingPoolProxy",
            "label": "maturingPrice",
            "offset": 0,
            "slot": "3",
            "type": "t_uint256"
          },
          {
            "astId": 4419,
            "contract": "contracts/Staking/StakingPoolProxy.sol:StakingPoolProxy",
            "label": "usdPrizeAmount",
            "offset": 0,
            "slot": "4",
            "type": "t_uint256"
          },
          {
            "astId": 4421,
            "contract": "contracts/Staking/StakingPoolProxy.sol:StakingPoolProxy",
            "label": "prizeAmount",
            "offset": 0,
            "slot": "5",
            "type": "t_uint256"
          },
          {
            "astId": 4423,
            "contract": "contracts/Staking/StakingPoolProxy.sol:StakingPoolProxy",
            "label": "stakeApr",
            "offset": 0,
            "slot": "6",
            "type": "t_uint256"
          },
          {
            "astId": 4425,
            "contract": "contracts/Staking/StakingPoolProxy.sol:StakingPoolProxy",
            "label": "collaborativeReward",
            "offset": 0,
            "slot": "7",
            "type": "t_uint256"
          },
          {
            "astId": 4427,
            "contract": "contracts/Staking/StakingPoolProxy.sol:StakingPoolProxy",
            "label": "isEnhancedEnabled",
            "offset": 0,
            "slot": "8",
            "type": "t_bool"
          },
          {
            "astId": 4429,
            "contract": "contracts/Staking/StakingPoolProxy.sol:StakingPoolProxy",
            "label": "isMatured",
            "offset": 1,
            "slot": "8",
            "type": "t_bool"
          }
        ],
        "numberOfBytes": "288"
      },
      "t_struct(PrizeRewardRate)4459_storage": {
        "encoding": "inplace",
        "label": "struct StakingPoolStorageStructure.PrizeRewardRate",
        "members": [
          {
            "astId": 4456,
            "contract": "contracts/Staking/StakingPoolProxy.sol:StakingPoolProxy",
            "label": "rank",
            "offset": 0,
            "slot": "0",
            "type": "t_uint256"
          },
          {
            "astId": 4458,
            "contract": "contracts/Staking/StakingPoolProxy.sol:StakingPoolProxy",
            "label": "percentage",
            "offset": 0,
            "slot": "1",
            "type": "t_uint256"
          }
        ],
        "numberOfBytes": "64"
      },
      "t_struct(StakeWithPrediction)4449_storage": {
        "encoding": "inplace",
        "label": "struct StakingPoolStorageStructure.StakeWithPrediction",
        "members": [
          {
            "astId": 4432,
            "contract": "contracts/Staking/StakingPoolProxy.sol:StakingPoolProxy",
            "label": "stakedBalance",
            "offset": 0,
            "slot": "0",
            "type": "t_uint256"
          },
          {
            "astId": 4434,
            "contract": "contracts/Staking/StakingPoolProxy.sol:StakingPoolProxy",
            "label": "stakedTime",
            "offset": 0,
            "slot": "1",
            "type": "t_uint256"
          },
          {
            "astId": 4436,
            "contract": "contracts/Staking/StakingPoolProxy.sol:StakingPoolProxy",
            "label": "amountWithdrawn",
            "offset": 0,
            "slot": "2",
            "type": "t_uint256"
          },
          {
            "astId": 4438,
            "contract": "contracts/Staking/StakingPoolProxy.sol:StakingPoolProxy",
            "label": "lastWithdrawalTime",
            "offset": 0,
            "slot": "3",
            "type": "t_uint256"
          },
          {
            "astId": 4440,
            "contract": "contracts/Staking/StakingPoolProxy.sol:StakingPoolProxy",
            "label": "pricePrediction",
            "offset": 0,
            "slot": "4",
            "type": "t_uint256"
          },
          {
            "astId": 4442,
            "contract": "contracts/Staking/StakingPoolProxy.sol:StakingPoolProxy",
            "label": "difference",
            "offset": 0,
            "slot": "5",
            "type": "t_uint256"
          },
          {
            "astId": 4444,
            "contract": "contracts/Staking/StakingPoolProxy.sol:StakingPoolProxy",
            "label": "rank",
            "offset": 0,
            "slot": "6",
            "type": "t_uint256"
          },
          {
            "astId": 4446,
            "contract": "contracts/Staking/StakingPoolProxy.sol:StakingPoolProxy",
            "label": "prizeRewardWithdrawn",
            "offset": 0,
            "slot": "7",
            "type": "t_bool"
          },
          {
            "astId": 4448,
            "contract": "contracts/Staking/StakingPoolProxy.sol:StakingPoolProxy",
            "label": "didUnstake",
            "offset": 1,
            "slot": "7",
            "type": "t_bool"
          }
        ],
        "numberOfBytes": "256"
      },
      "t_struct(Staker)4454_storage": {
        "encoding": "inplace",
        "label": "struct StakingPoolStorageStructure.Staker",
        "members": [
          {
            "astId": 4451,
            "contract": "contracts/Staking/StakingPoolProxy.sol:StakingPoolProxy",
            "label": "stakerAddress",
            "offset": 0,
            "slot": "0",
            "type": "t_address"
          },
          {
            "astId": 4453,
            "contract": "contracts/Staking/StakingPoolProxy.sol:StakingPoolProxy",
            "label": "index",
            "offset": 0,
            "slot": "1",
            "type": "t_uint256"
          }
        ],
        "numberOfBytes": "64"
      },
      "t_uint256": {
        "encoding": "inplace",
        "label": "uint256",
        "numberOfBytes": "32"
      }
    }
  },
  "userdoc": {
    "kind": "user",
    "methods": {
      "collaborativeReward()": {
        "notice": "Based on the white paper, the collaborative reward can be 20% (2000), 25% (2500) or 35% (3500)."
      },
      "enableUpgrade()": {
        "notice": "StakingPoolImplementation can't be upgraded unless superAdmin sets upgradeEnabled"
      },
      "getDecimals()": {
        "notice": "Returns decimals for oracle contract"
      },
      "getLatestPrice()": {
        "notice": "Returns the latest price from oracle contract"
      },
      "initialize(string,string,address,address,address,address[4],uint256[11],uint256[8],uint256[8],bool)": {
        "notice": "The initializer modifier is used to make sure initialize() is not called  more than once because we want it to act like a constructor."
      },
      "upgradeTo(address)": {
        "notice": "This is called in case we want to upgrade a working pool which inherits from the original implementation, to apply bug fixes and consider emergency cases."
      },
      "usdPrizeAmount()": {
        "notice": "usdPrizeAmount is the enabler of WrappedToken rewarder; If it is set to 0  then the pool is only TOTM rewarder."
      }
    },
    "version": 1
  }
}