{
  "contractName": "StakingPoolStorageStructure",
  "sourceName": "contracts/Staking/StakingPoolStorageStructure.sol",
  "abi": [
    {
      "anonymous": false,
      "inputs": [
        {
          "indexed": true,
          "internalType": "address",
          "name": "to",
          "type": "address"
        },
        {
          "indexed": false,
          "internalType": "uint256",
          "name": "amount",
          "type": "uint256"
        }
      ],
      "name": "ApproveTokens",
      "type": "event"
    },
    {
      "anonymous": false,
      "inputs": [
        {
          "indexed": true,
          "internalType": "address",
          "name": "to",
          "type": "address"
        },
        {
          "indexed": false,
          "internalType": "uint256",
          "name": "amount",
          "type": "uint256"
        }
      ],
      "name": "DistributedBTC",
      "type": "event"
    },
    {
      "anonymous": false,
      "inputs": [
        {
          "indexed": true,
          "internalType": "address",
          "name": "previousOwner",
          "type": "address"
        },
        {
          "indexed": true,
          "internalType": "address",
          "name": "newOwner",
          "type": "address"
        }
      ],
      "name": "OwnershipTransferred",
      "type": "event"
    },
    {
      "anonymous": false,
      "inputs": [
        {
          "indexed": true,
          "internalType": "address",
          "name": "from",
          "type": "address"
        },
        {
          "indexed": false,
          "internalType": "uint256",
          "name": "amount",
          "type": "uint256"
        }
      ],
      "name": "ReceivedTokens",
      "type": "event"
    },
    {
      "anonymous": false,
      "inputs": [
        {
          "indexed": true,
          "internalType": "address",
          "name": "to",
          "type": "address"
        },
        {
          "indexed": false,
          "internalType": "uint256",
          "name": "amount",
          "type": "uint256"
        }
      ],
      "name": "TransferTokens",
      "type": "event"
    },
    {
      "inputs": [
        {
          "internalType": "address",
          "name": "_oracle",
          "type": "address"
        }
      ],
      "name": "__PriceConsumer_initialize",
      "outputs": [],
      "stateMutability": "nonpayable",
      "type": "function"
    },
    {
      "inputs": [
        {
          "internalType": "address",
          "name": "swapRouterAddress",
          "type": "address"
        },
        {
          "internalType": "address",
          "name": "BUSDContractAddress",
          "type": "address"
        },
        {
          "internalType": "address",
          "name": "WrappedTokenContractAddress",
          "type": "address"
        }
      ],
      "name": "__WrappedTokenDistributor_initialize",
      "outputs": [],
      "stateMutability": "nonpayable",
      "type": "function"
    },
    {
      "inputs": [],
      "name": "collaborativeRange",
      "outputs": [
        {
          "internalType": "uint256",
          "name": "",
          "type": "uint256"
        }
      ],
      "stateMutability": "view",
      "type": "function"
    },
    {
      "inputs": [],
      "name": "collaborativeReward",
      "outputs": [
        {
          "internalType": "uint256",
          "name": "",
          "type": "uint256"
        }
      ],
      "stateMutability": "view",
      "type": "function"
    },
    {
      "inputs": [],
      "name": "getDecimals",
      "outputs": [
        {
          "internalType": "uint8",
          "name": "",
          "type": "uint8"
        }
      ],
      "stateMutability": "view",
      "type": "function"
    },
    {
      "inputs": [
        {
          "internalType": "uint256",
          "name": "_amount",
          "type": "uint256"
        }
      ],
      "name": "getEstimatedWrappedTokenForUSD",
      "outputs": [
        {
          "internalType": "uint256",
          "name": "",
          "type": "uint256"
        }
      ],
      "stateMutability": "view",
      "type": "function"
    },
    {
      "inputs": [],
      "name": "getLatestPrice",
      "outputs": [
        {
          "internalType": "uint256",
          "name": "",
          "type": "uint256"
        }
      ],
      "stateMutability": "view",
      "type": "function"
    },
    {
      "inputs": [],
      "name": "getPathForUSDToWrappedToken",
      "outputs": [
        {
          "internalType": "address[]",
          "name": "",
          "type": "address[]"
        }
      ],
      "stateMutability": "view",
      "type": "function"
    },
    {
      "inputs": [],
      "name": "getUSDBalance",
      "outputs": [
        {
          "internalType": "uint256",
          "name": "",
          "type": "uint256"
        }
      ],
      "stateMutability": "view",
      "type": "function"
    },
    {
      "inputs": [],
      "name": "getUSDToken",
      "outputs": [
        {
          "internalType": "address",
          "name": "",
          "type": "address"
        }
      ],
      "stateMutability": "view",
      "type": "function"
    },
    {
      "inputs": [],
      "name": "getswapRouter",
      "outputs": [
        {
          "internalType": "address",
          "name": "",
          "type": "address"
        }
      ],
      "stateMutability": "view",
      "type": "function"
    },
    {
      "inputs": [],
      "name": "isActive",
      "outputs": [
        {
          "internalType": "bool",
          "name": "",
          "type": "bool"
        }
      ],
      "stateMutability": "view",
      "type": "function"
    },
    {
      "inputs": [],
      "name": "isAnEmergency",
      "outputs": [
        {
          "internalType": "bool",
          "name": "",
          "type": "bool"
        }
      ],
      "stateMutability": "view",
      "type": "function"
    },
    {
      "inputs": [],
      "name": "isDeleted",
      "outputs": [
        {
          "internalType": "bool",
          "name": "",
          "type": "bool"
        }
      ],
      "stateMutability": "view",
      "type": "function"
    },
    {
      "inputs": [],
      "name": "isEnhancedEnabled",
      "outputs": [
        {
          "internalType": "bool",
          "name": "",
          "type": "bool"
        }
      ],
      "stateMutability": "view",
      "type": "function"
    },
    {
      "inputs": [],
      "name": "isLocked",
      "outputs": [
        {
          "internalType": "bool",
          "name": "",
          "type": "bool"
        }
      ],
      "stateMutability": "view",
      "type": "function"
    },
    {
      "inputs": [],
      "name": "isMatured",
      "outputs": [
        {
          "internalType": "bool",
          "name": "",
          "type": "bool"
        }
      ],
      "stateMutability": "view",
      "type": "function"
    },
    {
      "inputs": [],
      "name": "launchDate",
      "outputs": [
        {
          "internalType": "uint256",
          "name": "",
          "type": "uint256"
        }
      ],
      "stateMutability": "view",
      "type": "function"
    },
    {
      "inputs": [],
      "name": "lockTime",
      "outputs": [
        {
          "internalType": "uint256",
          "name": "",
          "type": "uint256"
        }
      ],
      "stateMutability": "view",
      "type": "function"
    },
    {
      "inputs": [],
      "name": "lps",
      "outputs": [
        {
          "internalType": "uint256",
          "name": "launchDate",
          "type": "uint256"
        },
        {
          "internalType": "uint256",
          "name": "lockTime",
          "type": "uint256"
        },
        {
          "internalType": "uint256",
          "name": "maturityTime",
          "type": "uint256"
        },
        {
          "internalType": "uint256",
          "name": "maturingPrice",
          "type": "uint256"
        },
        {
          "internalType": "uint256",
          "name": "usdPrizeAmount",
          "type": "uint256"
        },
        {
          "internalType": "uint256",
          "name": "prizeAmount",
          "type": "uint256"
        },
        {
          "internalType": "uint256",
          "name": "stakeApr",
          "type": "uint256"
        },
        {
          "internalType": "uint256",
          "name": "collaborativeReward",
          "type": "uint256"
        },
        {
          "internalType": "bool",
          "name": "isEnhancedEnabled",
          "type": "bool"
        },
        {
          "internalType": "bool",
          "name": "isMatured",
          "type": "bool"
        }
      ],
      "stateMutability": "view",
      "type": "function"
    },
    {
      "inputs": [],
      "name": "maturingPrice",
      "outputs": [
        {
          "internalType": "uint256",
          "name": "",
          "type": "uint256"
        }
      ],
      "stateMutability": "view",
      "type": "function"
    },
    {
      "inputs": [],
      "name": "maturityTime",
      "outputs": [
        {
          "internalType": "uint256",
          "name": "",
          "type": "uint256"
        }
      ],
      "stateMutability": "view",
      "type": "function"
    },
    {
      "inputs": [],
      "name": "minimumStakeAmount",
      "outputs": [
        {
          "internalType": "uint256",
          "name": "",
          "type": "uint256"
        }
      ],
      "stateMutability": "view",
      "type": "function"
    },
    {
      "inputs": [],
      "name": "oracleContract",
      "outputs": [
        {
          "internalType": "address",
          "name": "",
          "type": "address"
        }
      ],
      "stateMutability": "view",
      "type": "function"
    },
    {
      "inputs": [],
      "name": "oracleDecimal",
      "outputs": [
        {
          "internalType": "uint256",
          "name": "",
          "type": "uint256"
        }
      ],
      "stateMutability": "view",
      "type": "function"
    },
    {
      "inputs": [],
      "name": "owner",
      "outputs": [
        {
          "internalType": "address",
          "name": "",
          "type": "address"
        }
      ],
      "stateMutability": "view",
      "type": "function"
    },
    {
      "inputs": [],
      "name": "poolCreator",
      "outputs": [
        {
          "internalType": "address",
          "name": "",
          "type": "address"
        }
      ],
      "stateMutability": "view",
      "type": "function"
    },
    {
      "inputs": [],
      "name": "poolType",
      "outputs": [
        {
          "internalType": "string",
          "name": "",
          "type": "string"
        }
      ],
      "stateMutability": "view",
      "type": "function"
    },
    {
      "inputs": [],
      "name": "potentialCollabReward",
      "outputs": [
        {
          "internalType": "uint256",
          "name": "",
          "type": "uint256"
        }
      ],
      "stateMutability": "view",
      "type": "function"
    },
    {
      "inputs": [
        {
          "internalType": "address",
          "name": "",
          "type": "address"
        },
        {
          "internalType": "uint256",
          "name": "",
          "type": "uint256"
        }
      ],
      "name": "predictions",
      "outputs": [
        {
          "internalType": "uint256",
          "name": "stakedBalance",
          "type": "uint256"
        },
        {
          "internalType": "uint256",
          "name": "stakedTime",
          "type": "uint256"
        },
        {
          "internalType": "uint256",
          "name": "amountWithdrawn",
          "type": "uint256"
        },
        {
          "internalType": "uint256",
          "name": "lastWithdrawalTime",
          "type": "uint256"
        },
        {
          "internalType": "uint256",
          "name": "pricePrediction",
          "type": "uint256"
        },
        {
          "internalType": "uint256",
          "name": "difference",
          "type": "uint256"
        },
        {
          "internalType": "uint256",
          "name": "rank",
          "type": "uint256"
        },
        {
          "internalType": "bool",
          "name": "prizeRewardWithdrawn",
          "type": "bool"
        },
        {
          "internalType": "bool",
          "name": "didUnstake",
          "type": "bool"
        }
      ],
      "stateMutability": "view",
      "type": "function"
    },
    {
      "inputs": [],
      "name": "prizeAmount",
      "outputs": [
        {
          "internalType": "uint256",
          "name": "",
          "type": "uint256"
        }
      ],
      "stateMutability": "view",
      "type": "function"
    },
    {
      "inputs": [
        {
          "internalType": "uint256",
          "name": "",
          "type": "uint256"
        }
      ],
      "name": "prizeRewardRates",
      "outputs": [
        {
          "internalType": "uint256",
          "name": "rank",
          "type": "uint256"
        },
        {
          "internalType": "uint256",
          "name": "percentage",
          "type": "uint256"
        }
      ],
      "stateMutability": "view",
      "type": "function"
    },
    {
      "inputs": [],
      "name": "renounceOwnership",
      "outputs": [],
      "stateMutability": "nonpayable",
      "type": "function"
    },
    {
      "inputs": [],
      "name": "rewardManager",
      "outputs": [
        {
          "internalType": "contract IRewardManager",
          "name": "",
          "type": "address"
        }
      ],
      "stateMutability": "view",
      "type": "function"
    },
    {
      "inputs": [],
      "name": "sizeAllocation",
      "outputs": [
        {
          "internalType": "uint256",
          "name": "",
          "type": "uint256"
        }
      ],
      "stateMutability": "view",
      "type": "function"
    },
    {
      "inputs": [],
      "name": "sizeLimitRangeRate",
      "outputs": [
        {
          "internalType": "uint256",
          "name": "",
          "type": "uint256"
        }
      ],
      "stateMutability": "view",
      "type": "function"
    },
    {
      "inputs": [
        {
          "internalType": "uint256",
          "name": "",
          "type": "uint256"
        }
      ],
      "name": "sortedStakers",
      "outputs": [
        {
          "internalType": "address",
          "name": "stakerAddress",
          "type": "address"
        },
        {
          "internalType": "uint256",
          "name": "index",
          "type": "uint256"
        }
      ],
      "stateMutability": "view",
      "type": "function"
    },
    {
      "inputs": [],
      "name": "stakeApr",
      "outputs": [
        {
          "internalType": "uint256",
          "name": "",
          "type": "uint256"
        }
      ],
      "stateMutability": "view",
      "type": "function"
    },
    {
      "inputs": [],
      "name": "stakeTaxRate",
      "outputs": [
        {
          "internalType": "uint256",
          "name": "",
          "type": "uint256"
        }
      ],
      "stateMutability": "view",
      "type": "function"
    },
    {
      "inputs": [
        {
          "internalType": "uint256",
          "name": "",
          "type": "uint256"
        }
      ],
      "name": "stakers",
      "outputs": [
        {
          "internalType": "address",
          "name": "stakerAddress",
          "type": "address"
        },
        {
          "internalType": "uint256",
          "name": "index",
          "type": "uint256"
        }
      ],
      "stateMutability": "view",
      "type": "function"
    },
    {
      "inputs": [],
      "name": "stakingPoolImplementation",
      "outputs": [
        {
          "internalType": "address",
          "name": "",
          "type": "address"
        }
      ],
      "stateMutability": "view",
      "type": "function"
    },
    {
      "inputs": [],
      "name": "totalStaked",
      "outputs": [
        {
          "internalType": "uint256",
          "name": "",
          "type": "uint256"
        }
      ],
      "stateMutability": "view",
      "type": "function"
    },
    {
      "inputs": [],
      "name": "totemToken",
      "outputs": [
        {
          "internalType": "contract ITotemToken",
          "name": "",
          "type": "address"
        }
      ],
      "stateMutability": "view",
      "type": "function"
    },
    {
      "inputs": [
        {
          "internalType": "address",
          "name": "newOwner",
          "type": "address"
        }
      ],
      "name": "transferOwnership",
      "outputs": [],
      "stateMutability": "nonpayable",
      "type": "function"
    },
    {
      "inputs": [],
      "name": "upgradeEnabled",
      "outputs": [
        {
          "internalType": "bool",
          "name": "",
          "type": "bool"
        }
      ],
      "stateMutability": "view",
      "type": "function"
    },
    {
      "inputs": [],
      "name": "usdPrizeAmount",
      "outputs": [
        {
          "internalType": "uint256",
          "name": "",
          "type": "uint256"
        }
      ],
      "stateMutability": "view",
      "type": "function"
    },
    {
      "inputs": [],
      "name": "wrappedToken",
      "outputs": [
        {
          "internalType": "contract IERC20",
          "name": "",
          "type": "address"
        }
      ],
      "stateMutability": "view",
      "type": "function"
    },
    {
      "inputs": [],
      "name": "wrappedTokenSymbol",
      "outputs": [
        {
          "internalType": "string",
          "name": "",
          "type": "string"
        }
      ],
      "stateMutability": "view",
      "type": "function"
    }
  ],
  "bytecode": "0x608060405234801561001057600080fd5b506112bb806100206000396000f3fe608060405234801561001057600080fd5b50600436106102a05760003560e01c8063a08b2c7911610167578063de09ee20116100ce578063f1b17a8b11610087578063f1b17a8b146104be578063f2fde38b146104df578063f3d9dc0d146104f2578063f5e96fc9146104fa578063f8eeed6214610502578063fd5e6dd11461050a576102a0565b8063de09ee2014610452578063e081866914610473578063e425df8c14610491578063e8153c9314610499578063eb850ae1146104a1578063f0141d84146104a9576102a0565b8063b1dd61b611610120578063b1dd61b614610422578063bece75321461042a578063c120105414610432578063c6c1decd1461043a578063d025188b14610442578063d7efb6b71461044a576102a0565b8063a08b2c79146103da578063a150194b146103e2578063a35ef3a7146103ea578063a4e2d634146103ff578063a8f7b34614610407578063aa7bcb571461041a576102a0565b80636b036f451161020b578063850fa7cb116101c4578063850fa7cb1461038a5780638cf0e21e146103b25780638da5cb5b146103ba5780638e15f473146103c257806395c2ba47146103ca578063996c6cc3146103d2576102a0565b80636b036f451461035a578063715018a61461036257806373f317031461036a578063785fa627146103725780637f2b6a0d1461037a578063817b1cd214610382576102a0565b806337c4f6a41161025d57806337c4f6a4146103125780633fcdd82c146103275780634bc4eeb21461033a5780634e8bfdaa1461034257806351eacbf01461034a5780636847d0c514610352576102a0565b80630d668087146102a55780630f4ef8a6146102c357806322f3e2d4146102d8578063238a6c74146102ed5780632aa8195e146103025780632e577d071461030a575b600080fd5b6102ad61051d565b6040516102ba9190611162565b60405180910390f35b6102cb610523565b6040516102ba9190610ffb565b6102e0610532565b6040516102ba919061103b565b6102f5610541565b6040516102ba9190611046565b6102cb6105cf565b6102cb6105de565b610325610320366004610dd2565b6105ed565b005b6102ad610335366004610f18565b610687565b6102e061074b565b6102ad610759565b6102ad61075f565b6102ad610765565b6102ad61076b565b610325610771565b6102ad6107bc565b6102ad6107c2565b6102e06107c8565b6102ad6107d9565b61039d610398366004610e35565b6107df565b6040516102ba9998979695949392919061119a565b6102e061084d565b6102cb610860565b6102ad61086f565b6102ad610916565b6102cb61091b565b6102e061092a565b6102ad610933565b6103f2610938565b6040516102ba9190611028565b6102e06109e7565b610325610415366004610df3565b6109f7565b6102ad610aac565b6102f5610ab2565b6102cb610abf565b6102ad610ace565b6102cb610b54565b6102ad610b63565b6102e0610b69565b610465610460366004610f18565b610b7b565b6040516102ba92919061100f565b61047b610bb3565b6040516102ba9a999897969594939291906111dd565b6102ad610bdd565b6102cb610be3565b6102ad610bf2565b6104b1610bf8565b6040516102ba9190611226565b6104d16104cc366004610f18565b610c81565b6040516102ba92919061118c565b6103256104ed366004610dd2565b610caf565b6102ad610d20565b6102cb610d26565b6102ad610d35565b610465610518366004610f18565b610d3b565b60805481565b607b546001600160a01b031681565b608d5462010000900460ff1681565b607d805461054e90611234565b80601f016020809104026020016040519081016040528092919081815260200182805461057a90611234565b80156105c75780601f1061059c576101008083540402835291602001916105c7565b820191906000526020600020905b8154815290600101906020018083116105aa57829003601f168201915b505050505081565b606a546001600160a01b031681565b6067546001600160a01b031690565b600054610100900460ff1680610606575060005460ff16155b61062b5760405162461bcd60e51b8152600401610622906110df565b60405180910390fd5b600054610100900460ff16158015610656576000805460ff1961ff0019909116610100171660011790555b606580546001600160a01b0319166001600160a01b0384161790558015610683576000805461ff00191690555b5050565b60675460009081906001600160a01b031663d06ca61f846106a6610938565b6040518363ffffffff1660e01b81526004016106c392919061116b565b60006040518083038186803b1580156106db57600080fd5b505afa1580156106ef573d6000803e3d6000fd5b505050506040513d6000823e601f3d908101601f191682016040526107179190810190610e5e565b90508060018151811061073a57634e487b7160e01b600052603260045260246000fd5b60200260200101519150505b919050565b608d54610100900460ff1681565b60815481565b60825481565b60865481565b60875481565b610779610d4b565b6001600160a01b031661078a610860565b6001600160a01b0316146107b05760405162461bcd60e51b81526004016106229061112d565b6107ba6000610d4f565b565b60855481565b60845481565b608d54640100000000900460ff1681565b60885481565b607960205281600052604060002081815481106107fb57600080fd5b6000918252602090912060089091020180546001820154600283015460038401546004850154600586015460068701546007909701549598509396509194909391929160ff8082169161010090041689565b608d546601000000000000900460ff1681565b6033546001600160a01b031690565b600080606560009054906101000a90046001600160a01b03166001600160a01b031663feaf968c6040518163ffffffff1660e01b815260040160a06040518083038186803b1580156108c057600080fd5b505afa1580156108d4573d6000803e3d6000fd5b505050506040513d601f19601f820116820180604052508101906108f89190610f48565b505050915050600081121561090e576000610910565b805b91505090565b600581565b607c546001600160a01b031681565b608d5460ff1681565b600881565b60408051600280825260608083018452926000929190602083019080368337505060685482519293506001600160a01b03169183915060009061098b57634e487b7160e01b600052603260045260246000fd5b6001600160a01b0392831660209182029290920101526069548251911690829060019081106109ca57634e487b7160e01b600052603260045260246000fd5b6001600160a01b0390921660209283029190910190910152905090565b608d546301000000900460ff1681565b600054610100900460ff1680610a10575060005460ff16155b610a2c5760405162461bcd60e51b8152600401610622906110df565b600054610100900460ff16158015610a57576000805460ff1961ff0019909116610100171660011790555b606780546001600160a01b038087166001600160a01b0319928316179092556068805486841690831617905560698054928516929091169190911790558015610aa6576000805461ff00191690555b50505050565b60835481565b607e805461054e90611234565b606c546001600160a01b031681565b6066546040516370a0823160e01b81526000916001600160a01b0316906370a0823190610aff903090600401610ffb565b60206040518083038186803b158015610b1757600080fd5b505afa158015610b2b573d6000803e3d6000fd5b505050506040513d601f19601f82011682018060405250810190610b4f9190610f30565b905090565b606b546001600160a01b031681565b60895481565b608d5465010000000000900460ff1681565b60788181548110610b8b57600080fd5b6000918252602090912060029091020180546001909101546001600160a01b03909116915082565b606d54606e54606f5460705460715460725460735460745460755460ff808216916101009004168a565b608a5481565b607a546001600160a01b031681565b608b5481565b600080606560009054906101000a90046001600160a01b03166001600160a01b031663313ce5676040518163ffffffff1660e01b815260040160206040518083038186803b158015610c4957600080fd5b505afa158015610c5d573d6000803e3d6000fd5b505050506040513d601f19601f820116820180604052508101906109109190610f97565b60768181548110610c9157600080fd5b60009182526020909120600290910201805460019091015490915082565b610cb7610d4b565b6001600160a01b0316610cc8610860565b6001600160a01b031614610cee5760405162461bcd60e51b81526004016106229061112d565b6001600160a01b038116610d145760405162461bcd60e51b815260040161062290611099565b610d1d81610d4f565b50565b608c5481565b6066546001600160a01b031690565b607f5481565b60778181548110610b8b57600080fd5b3390565b603380546001600160a01b038381166001600160a01b0319831681179093556040519116919082907f8be0079c531659141344cd1fd0a4f28419497f9722a3daafe3b4186f6b6457e090600090a35050565b80356001600160a01b038116811461074657600080fd5b805169ffffffffffffffffffff8116811461074657600080fd5b600060208284031215610de3578081fd5b610dec82610da1565b9392505050565b600080600060608486031215610e07578182fd5b610e1084610da1565b9250610e1e60208501610da1565b9150610e2c60408501610da1565b90509250925092565b60008060408385031215610e47578182fd5b610e5083610da1565b946020939093013593505050565b60006020808385031215610e70578182fd5b825167ffffffffffffffff80821115610e87578384fd5b818501915085601f830112610e9a578384fd5b815181811115610eac57610eac61126f565b83810260405185828201018181108582111715610ecb57610ecb61126f565b604052828152858101935084860182860187018a1015610ee9578788fd5b8795505b83861015610f0b578051855260019590950194938601938601610eed565b5098975050505050505050565b600060208284031215610f29578081fd5b5035919050565b600060208284031215610f41578081fd5b5051919050565b600080600080600060a08688031215610f5f578081fd5b610f6886610db8565b9450602086015193506040860151925060608601519150610f8b60808701610db8565b90509295509295909350565b600060208284031215610fa8578081fd5b815160ff81168114610dec578182fd5b6000815180845260208085019450808401835b83811015610ff05781516001600160a01b031687529582019590820190600101610fcb565b509495945050505050565b6001600160a01b0391909116815260200190565b6001600160a01b03929092168252602082015260400190565b600060208252610dec6020830184610fb8565b901515815260200190565b6000602080835283518082850152825b8181101561107257858101830151858201604001528201611056565b818111156110835783604083870101525b50601f01601f1916929092016040019392505050565b60208082526026908201527f4f776e61626c653a206e6577206f776e657220697320746865207a65726f206160408201526564647265737360d01b606082015260800190565b6020808252602e908201527f496e697469616c697a61626c653a20636f6e747261637420697320616c72656160408201526d191e481a5b9a5d1a585b1a5e995960921b606082015260800190565b6020808252818101527f4f776e61626c653a2063616c6c6572206973206e6f7420746865206f776e6572604082015260600190565b90815260200190565b6000838252604060208301526111846040830184610fb8565b949350505050565b918252602082015260400190565b988952602089019790975260408801959095526060870193909352608086019190915260a085015260c0840152151560e083015215156101008201526101200190565b998a5260208a019890985260408901969096526060880194909452608087019290925260a086015260c085015260e0840152151561010083015215156101208201526101400190565b60ff91909116815260200190565b60028104600182168061124857607f821691505b6020821081141561126957634e487b7160e01b600052602260045260246000fd5b50919050565b634e487b7160e01b600052604160045260246000fdfea26469706673582212200da4b0176023dfd1124bea82ca57d4b86682c2a72d51a8448173986cc072900564736f6c63430008000033",
  "linkReferences": {},
  "deployedLinkReferences": {},
  "devdoc": {
    "kind": "dev",
    "methods": {
      "__PriceConsumer_initialize(address)": {
        "params": {
          "_oracle": "The chainlink node oracle address to send requests"
        }
      },
      "getEstimatedWrappedTokenForUSD(uint256)": {
        "params": {
          "_amount": "Amount"
        }
      },
      "owner()": {
        "details": "Returns the address of the current owner."
      },
      "renounceOwnership()": {
        "details": "Leaves the contract without owner. It will not be possible to call `onlyOwner` functions anymore. Can only be called by the current owner. NOTE: Renouncing ownership will leave the contract without an owner, thereby removing any functionality that is only available to the owner."
      },
      "transferOwnership(address)": {
        "details": "Transfers ownership of the contract to a new account (`newOwner`). Can only be called by the current owner."
      }
    },
    "stateVariables": {
      "upgradeEnabled": {
        "details": "StakingPoolImplementation can't be upgraded unless superAdmin sets this flag."
      }
    },
    "version": 1
  },
  "evm": {
    "bytecode": {
      "linkReferences": {},
      "opcodes": "PUSH1 0x80 PUSH1 0x40 MSTORE CALLVALUE DUP1 ISZERO PUSH2 0x10 JUMPI PUSH1 0x0 DUP1 REVERT JUMPDEST POP PUSH2 0x12BB DUP1 PUSH2 0x20 PUSH1 0x0 CODECOPY PUSH1 0x0 RETURN INVALID PUSH1 0x80 PUSH1 0x40 MSTORE CALLVALUE DUP1 ISZERO PUSH2 0x10 JUMPI PUSH1 0x0 DUP1 REVERT JUMPDEST POP PUSH1 0x4 CALLDATASIZE LT PUSH2 0x2A0 JUMPI PUSH1 0x0 CALLDATALOAD PUSH1 0xE0 SHR DUP1 PUSH4 0xA08B2C79 GT PUSH2 0x167 JUMPI DUP1 PUSH4 0xDE09EE20 GT PUSH2 0xCE JUMPI DUP1 PUSH4 0xF1B17A8B GT PUSH2 0x87 JUMPI DUP1 PUSH4 0xF1B17A8B EQ PUSH2 0x4BE JUMPI DUP1 PUSH4 0xF2FDE38B EQ PUSH2 0x4DF JUMPI DUP1 PUSH4 0xF3D9DC0D EQ PUSH2 0x4F2 JUMPI DUP1 PUSH4 0xF5E96FC9 EQ PUSH2 0x4FA JUMPI DUP1 PUSH4 0xF8EEED62 EQ PUSH2 0x502 JUMPI DUP1 PUSH4 0xFD5E6DD1 EQ PUSH2 0x50A JUMPI PUSH2 0x2A0 JUMP JUMPDEST DUP1 PUSH4 0xDE09EE20 EQ PUSH2 0x452 JUMPI DUP1 PUSH4 0xE0818669 EQ PUSH2 0x473 JUMPI DUP1 PUSH4 0xE425DF8C EQ PUSH2 0x491 JUMPI DUP1 PUSH4 0xE8153C93 EQ PUSH2 0x499 JUMPI DUP1 PUSH4 0xEB850AE1 EQ PUSH2 0x4A1 JUMPI DUP1 PUSH4 0xF0141D84 EQ PUSH2 0x4A9 JUMPI PUSH2 0x2A0 JUMP JUMPDEST DUP1 PUSH4 0xB1DD61B6 GT PUSH2 0x120 JUMPI DUP1 PUSH4 0xB1DD61B6 EQ PUSH2 0x422 JUMPI DUP1 PUSH4 0xBECE7532 EQ PUSH2 0x42A JUMPI DUP1 PUSH4 0xC1201054 EQ PUSH2 0x432 JUMPI DUP1 PUSH4 0xC6C1DECD EQ PUSH2 0x43A JUMPI DUP1 PUSH4 0xD025188B EQ PUSH2 0x442 JUMPI DUP1 PUSH4 0xD7EFB6B7 EQ PUSH2 0x44A JUMPI PUSH2 0x2A0 JUMP JUMPDEST DUP1 PUSH4 0xA08B2C79 EQ PUSH2 0x3DA JUMPI DUP1 PUSH4 0xA150194B EQ PUSH2 0x3E2 JUMPI DUP1 PUSH4 0xA35EF3A7 EQ PUSH2 0x3EA JUMPI DUP1 PUSH4 0xA4E2D634 EQ PUSH2 0x3FF JUMPI DUP1 PUSH4 0xA8F7B346 EQ PUSH2 0x407 JUMPI DUP1 PUSH4 0xAA7BCB57 EQ PUSH2 0x41A JUMPI PUSH2 0x2A0 JUMP JUMPDEST DUP1 PUSH4 0x6B036F45 GT PUSH2 0x20B JUMPI DUP1 PUSH4 0x850FA7CB GT PUSH2 0x1C4 JUMPI DUP1 PUSH4 0x850FA7CB EQ PUSH2 0x38A JUMPI DUP1 PUSH4 0x8CF0E21E EQ PUSH2 0x3B2 JUMPI DUP1 PUSH4 0x8DA5CB5B EQ PUSH2 0x3BA JUMPI DUP1 PUSH4 0x8E15F473 EQ PUSH2 0x3C2 JUMPI DUP1 PUSH4 0x95C2BA47 EQ PUSH2 0x3CA JUMPI DUP1 PUSH4 0x996C6CC3 EQ PUSH2 0x3D2 JUMPI PUSH2 0x2A0 JUMP JUMPDEST DUP1 PUSH4 0x6B036F45 EQ PUSH2 0x35A JUMPI DUP1 PUSH4 0x715018A6 EQ PUSH2 0x362 JUMPI DUP1 PUSH4 0x73F31703 EQ PUSH2 0x36A JUMPI DUP1 PUSH4 0x785FA627 EQ PUSH2 0x372 JUMPI DUP1 PUSH4 0x7F2B6A0D EQ PUSH2 0x37A JUMPI DUP1 PUSH4 0x817B1CD2 EQ PUSH2 0x382 JUMPI PUSH2 0x2A0 JUMP JUMPDEST DUP1 PUSH4 0x37C4F6A4 GT PUSH2 0x25D JUMPI DUP1 PUSH4 0x37C4F6A4 EQ PUSH2 0x312 JUMPI DUP1 PUSH4 0x3FCDD82C EQ PUSH2 0x327 JUMPI DUP1 PUSH4 0x4BC4EEB2 EQ PUSH2 0x33A JUMPI DUP1 PUSH4 0x4E8BFDAA EQ PUSH2 0x342 JUMPI DUP1 PUSH4 0x51EACBF0 EQ PUSH2 0x34A JUMPI DUP1 PUSH4 0x6847D0C5 EQ PUSH2 0x352 JUMPI PUSH2 0x2A0 JUMP JUMPDEST DUP1 PUSH4 0xD668087 EQ PUSH2 0x2A5 JUMPI DUP1 PUSH4 0xF4EF8A6 EQ PUSH2 0x2C3 JUMPI DUP1 PUSH4 0x22F3E2D4 EQ PUSH2 0x2D8 JUMPI DUP1 PUSH4 0x238A6C74 EQ PUSH2 0x2ED JUMPI DUP1 PUSH4 0x2AA8195E EQ PUSH2 0x302 JUMPI DUP1 PUSH4 0x2E577D07 EQ PUSH2 0x30A JUMPI JUMPDEST PUSH1 0x0 DUP1 REVERT JUMPDEST PUSH2 0x2AD PUSH2 0x51D JUMP JUMPDEST PUSH1 0x40 MLOAD PUSH2 0x2BA SWAP2 SWAP1 PUSH2 0x1162 JUMP JUMPDEST PUSH1 0x40 MLOAD DUP1 SWAP2 SUB SWAP1 RETURN JUMPDEST PUSH2 0x2CB PUSH2 0x523 JUMP JUMPDEST PUSH1 0x40 MLOAD PUSH2 0x2BA SWAP2 SWAP1 PUSH2 0xFFB JUMP JUMPDEST PUSH2 0x2E0 PUSH2 0x532 JUMP JUMPDEST PUSH1 0x40 MLOAD PUSH2 0x2BA SWAP2 SWAP1 PUSH2 0x103B JUMP JUMPDEST PUSH2 0x2F5 PUSH2 0x541 JUMP JUMPDEST PUSH1 0x40 MLOAD PUSH2 0x2BA SWAP2 SWAP1 PUSH2 0x1046 JUMP JUMPDEST PUSH2 0x2CB PUSH2 0x5CF JUMP JUMPDEST PUSH2 0x2CB PUSH2 0x5DE JUMP JUMPDEST PUSH2 0x325 PUSH2 0x320 CALLDATASIZE PUSH1 0x4 PUSH2 0xDD2 JUMP JUMPDEST PUSH2 0x5ED JUMP JUMPDEST STOP JUMPDEST PUSH2 0x2AD PUSH2 0x335 CALLDATASIZE PUSH1 0x4 PUSH2 0xF18 JUMP JUMPDEST PUSH2 0x687 JUMP JUMPDEST PUSH2 0x2E0 PUSH2 0x74B JUMP JUMPDEST PUSH2 0x2AD PUSH2 0x759 JUMP JUMPDEST PUSH2 0x2AD PUSH2 0x75F JUMP JUMPDEST PUSH2 0x2AD PUSH2 0x765 JUMP JUMPDEST PUSH2 0x2AD PUSH2 0x76B JUMP JUMPDEST PUSH2 0x325 PUSH2 0x771 JUMP JUMPDEST PUSH2 0x2AD PUSH2 0x7BC JUMP JUMPDEST PUSH2 0x2AD PUSH2 0x7C2 JUMP JUMPDEST PUSH2 0x2E0 PUSH2 0x7C8 JUMP JUMPDEST PUSH2 0x2AD PUSH2 0x7D9 JUMP JUMPDEST PUSH2 0x39D PUSH2 0x398 CALLDATASIZE PUSH1 0x4 PUSH2 0xE35 JUMP JUMPDEST PUSH2 0x7DF JUMP JUMPDEST PUSH1 0x40 MLOAD PUSH2 0x2BA SWAP10 SWAP9 SWAP8 SWAP7 SWAP6 SWAP5 SWAP4 SWAP3 SWAP2 SWAP1 PUSH2 0x119A JUMP JUMPDEST PUSH2 0x2E0 PUSH2 0x84D JUMP JUMPDEST PUSH2 0x2CB PUSH2 0x860 JUMP JUMPDEST PUSH2 0x2AD PUSH2 0x86F JUMP JUMPDEST PUSH2 0x2AD PUSH2 0x916 JUMP JUMPDEST PUSH2 0x2CB PUSH2 0x91B JUMP JUMPDEST PUSH2 0x2E0 PUSH2 0x92A JUMP JUMPDEST PUSH2 0x2AD PUSH2 0x933 JUMP JUMPDEST PUSH2 0x3F2 PUSH2 0x938 JUMP JUMPDEST PUSH1 0x40 MLOAD PUSH2 0x2BA SWAP2 SWAP1 PUSH2 0x1028 JUMP JUMPDEST PUSH2 0x2E0 PUSH2 0x9E7 JUMP JUMPDEST PUSH2 0x325 PUSH2 0x415 CALLDATASIZE PUSH1 0x4 PUSH2 0xDF3 JUMP JUMPDEST PUSH2 0x9F7 JUMP JUMPDEST PUSH2 0x2AD PUSH2 0xAAC JUMP JUMPDEST PUSH2 0x2F5 PUSH2 0xAB2 JUMP JUMPDEST PUSH2 0x2CB PUSH2 0xABF JUMP JUMPDEST PUSH2 0x2AD PUSH2 0xACE JUMP JUMPDEST PUSH2 0x2CB PUSH2 0xB54 JUMP JUMPDEST PUSH2 0x2AD PUSH2 0xB63 JUMP JUMPDEST PUSH2 0x2E0 PUSH2 0xB69 JUMP JUMPDEST PUSH2 0x465 PUSH2 0x460 CALLDATASIZE PUSH1 0x4 PUSH2 0xF18 JUMP JUMPDEST PUSH2 0xB7B JUMP JUMPDEST PUSH1 0x40 MLOAD PUSH2 0x2BA SWAP3 SWAP2 SWAP1 PUSH2 0x100F JUMP JUMPDEST PUSH2 0x47B PUSH2 0xBB3 JUMP JUMPDEST PUSH1 0x40 MLOAD PUSH2 0x2BA SWAP11 SWAP10 SWAP9 SWAP8 SWAP7 SWAP6 SWAP5 SWAP4 SWAP3 SWAP2 SWAP1 PUSH2 0x11DD JUMP JUMPDEST PUSH2 0x2AD PUSH2 0xBDD JUMP JUMPDEST PUSH2 0x2CB PUSH2 0xBE3 JUMP JUMPDEST PUSH2 0x2AD PUSH2 0xBF2 JUMP JUMPDEST PUSH2 0x4B1 PUSH2 0xBF8 JUMP JUMPDEST PUSH1 0x40 MLOAD PUSH2 0x2BA SWAP2 SWAP1 PUSH2 0x1226 JUMP JUMPDEST PUSH2 0x4D1 PUSH2 0x4CC CALLDATASIZE PUSH1 0x4 PUSH2 0xF18 JUMP JUMPDEST PUSH2 0xC81 JUMP JUMPDEST PUSH1 0x40 MLOAD PUSH2 0x2BA SWAP3 SWAP2 SWAP1 PUSH2 0x118C JUMP JUMPDEST PUSH2 0x325 PUSH2 0x4ED CALLDATASIZE PUSH1 0x4 PUSH2 0xDD2 JUMP JUMPDEST PUSH2 0xCAF JUMP JUMPDEST PUSH2 0x2AD PUSH2 0xD20 JUMP JUMPDEST PUSH2 0x2CB PUSH2 0xD26 JUMP JUMPDEST PUSH2 0x2AD PUSH2 0xD35 JUMP JUMPDEST PUSH2 0x465 PUSH2 0x518 CALLDATASIZE PUSH1 0x4 PUSH2 0xF18 JUMP JUMPDEST PUSH2 0xD3B JUMP JUMPDEST PUSH1 0x80 SLOAD DUP2 JUMP JUMPDEST PUSH1 0x7B SLOAD PUSH1 0x1 PUSH1 0x1 PUSH1 0xA0 SHL SUB AND DUP2 JUMP JUMPDEST PUSH1 0x8D SLOAD PUSH3 0x10000 SWAP1 DIV PUSH1 0xFF AND DUP2 JUMP JUMPDEST PUSH1 0x7D DUP1 SLOAD PUSH2 0x54E SWAP1 PUSH2 0x1234 JUMP JUMPDEST DUP1 PUSH1 0x1F ADD PUSH1 0x20 DUP1 SWAP2 DIV MUL PUSH1 0x20 ADD PUSH1 0x40 MLOAD SWAP1 DUP2 ADD PUSH1 0x40 MSTORE DUP1 SWAP3 SWAP2 SWAP1 DUP2 DUP2 MSTORE PUSH1 0x20 ADD DUP3 DUP1 SLOAD PUSH2 0x57A SWAP1 PUSH2 0x1234 JUMP JUMPDEST DUP1 ISZERO PUSH2 0x5C7 JUMPI DUP1 PUSH1 0x1F LT PUSH2 0x59C JUMPI PUSH2 0x100 DUP1 DUP4 SLOAD DIV MUL DUP4 MSTORE SWAP2 PUSH1 0x20 ADD SWAP2 PUSH2 0x5C7 JUMP JUMPDEST DUP3 ADD SWAP2 SWAP1 PUSH1 0x0 MSTORE PUSH1 0x20 PUSH1 0x0 KECCAK256 SWAP1 JUMPDEST DUP2 SLOAD DUP2 MSTORE SWAP1 PUSH1 0x1 ADD SWAP1 PUSH1 0x20 ADD DUP1 DUP4 GT PUSH2 0x5AA JUMPI DUP3 SWAP1 SUB PUSH1 0x1F AND DUP3 ADD SWAP2 JUMPDEST POP POP POP POP POP DUP2 JUMP JUMPDEST PUSH1 0x6A SLOAD PUSH1 0x1 PUSH1 0x1 PUSH1 0xA0 SHL SUB AND DUP2 JUMP JUMPDEST PUSH1 0x67 SLOAD PUSH1 0x1 PUSH1 0x1 PUSH1 0xA0 SHL SUB AND SWAP1 JUMP JUMPDEST PUSH1 0x0 SLOAD PUSH2 0x100 SWAP1 DIV PUSH1 0xFF AND DUP1 PUSH2 0x606 JUMPI POP PUSH1 0x0 SLOAD PUSH1 0xFF AND ISZERO JUMPDEST PUSH2 0x62B JUMPI PUSH1 0x40 MLOAD PUSH3 0x461BCD PUSH1 0xE5 SHL DUP2 MSTORE PUSH1 0x4 ADD PUSH2 0x622 SWAP1 PUSH2 0x10DF JUMP JUMPDEST PUSH1 0x40 MLOAD DUP1 SWAP2 SUB SWAP1 REVERT JUMPDEST PUSH1 0x0 SLOAD PUSH2 0x100 SWAP1 DIV PUSH1 0xFF AND ISZERO DUP1 ISZERO PUSH2 0x656 JUMPI PUSH1 0x0 DUP1 SLOAD PUSH1 0xFF NOT PUSH2 0xFF00 NOT SWAP1 SWAP2 AND PUSH2 0x100 OR AND PUSH1 0x1 OR SWAP1 SSTORE JUMPDEST PUSH1 0x65 DUP1 SLOAD PUSH1 0x1 PUSH1 0x1 PUSH1 0xA0 SHL SUB NOT AND PUSH1 0x1 PUSH1 0x1 PUSH1 0xA0 SHL SUB DUP5 AND OR SWAP1 SSTORE DUP1 ISZERO PUSH2 0x683 JUMPI PUSH1 0x0 DUP1 SLOAD PUSH2 0xFF00 NOT AND SWAP1 SSTORE JUMPDEST POP POP JUMP JUMPDEST PUSH1 0x67 SLOAD PUSH1 0x0 SWAP1 DUP2 SWAP1 PUSH1 0x1 PUSH1 0x1 PUSH1 0xA0 SHL SUB AND PUSH4 0xD06CA61F DUP5 PUSH2 0x6A6 PUSH2 0x938 JUMP JUMPDEST PUSH1 0x40 MLOAD DUP4 PUSH4 0xFFFFFFFF AND PUSH1 0xE0 SHL DUP2 MSTORE PUSH1 0x4 ADD PUSH2 0x6C3 SWAP3 SWAP2 SWAP1 PUSH2 0x116B JUMP JUMPDEST PUSH1 0x0 PUSH1 0x40 MLOAD DUP1 DUP4 SUB DUP2 DUP7 DUP1 EXTCODESIZE ISZERO DUP1 ISZERO PUSH2 0x6DB JUMPI PUSH1 0x0 DUP1 REVERT JUMPDEST POP GAS STATICCALL ISZERO DUP1 ISZERO PUSH2 0x6EF JUMPI RETURNDATASIZE PUSH1 0x0 DUP1 RETURNDATACOPY RETURNDATASIZE PUSH1 0x0 REVERT JUMPDEST POP POP POP POP PUSH1 0x40 MLOAD RETURNDATASIZE PUSH1 0x0 DUP3 RETURNDATACOPY PUSH1 0x1F RETURNDATASIZE SWAP1 DUP2 ADD PUSH1 0x1F NOT AND DUP3 ADD PUSH1 0x40 MSTORE PUSH2 0x717 SWAP2 SWAP1 DUP2 ADD SWAP1 PUSH2 0xE5E JUMP JUMPDEST SWAP1 POP DUP1 PUSH1 0x1 DUP2 MLOAD DUP2 LT PUSH2 0x73A JUMPI PUSH4 0x4E487B71 PUSH1 0xE0 SHL PUSH1 0x0 MSTORE PUSH1 0x32 PUSH1 0x4 MSTORE PUSH1 0x24 PUSH1 0x0 REVERT JUMPDEST PUSH1 0x20 MUL PUSH1 0x20 ADD ADD MLOAD SWAP2 POP POP JUMPDEST SWAP2 SWAP1 POP JUMP JUMPDEST PUSH1 0x8D SLOAD PUSH2 0x100 SWAP1 DIV PUSH1 0xFF AND DUP2 JUMP JUMPDEST PUSH1 0x81 SLOAD DUP2 JUMP JUMPDEST PUSH1 0x82 SLOAD DUP2 JUMP JUMPDEST PUSH1 0x86 SLOAD DUP2 JUMP JUMPDEST PUSH1 0x87 SLOAD DUP2 JUMP JUMPDEST PUSH2 0x779 PUSH2 0xD4B JUMP JUMPDEST PUSH1 0x1 PUSH1 0x1 PUSH1 0xA0 SHL SUB AND PUSH2 0x78A PUSH2 0x860 JUMP JUMPDEST PUSH1 0x1 PUSH1 0x1 PUSH1 0xA0 SHL SUB AND EQ PUSH2 0x7B0 JUMPI PUSH1 0x40 MLOAD PUSH3 0x461BCD PUSH1 0xE5 SHL DUP2 MSTORE PUSH1 0x4 ADD PUSH2 0x622 SWAP1 PUSH2 0x112D JUMP JUMPDEST PUSH2 0x7BA PUSH1 0x0 PUSH2 0xD4F JUMP JUMPDEST JUMP JUMPDEST PUSH1 0x85 SLOAD DUP2 JUMP JUMPDEST PUSH1 0x84 SLOAD DUP2 JUMP JUMPDEST PUSH1 0x8D SLOAD PUSH5 0x100000000 SWAP1 DIV PUSH1 0xFF AND DUP2 JUMP JUMPDEST PUSH1 0x88 SLOAD DUP2 JUMP JUMPDEST PUSH1 0x79 PUSH1 0x20 MSTORE DUP2 PUSH1 0x0 MSTORE PUSH1 0x40 PUSH1 0x0 KECCAK256 DUP2 DUP2 SLOAD DUP2 LT PUSH2 0x7FB JUMPI PUSH1 0x0 DUP1 REVERT JUMPDEST PUSH1 0x0 SWAP2 DUP3 MSTORE PUSH1 0x20 SWAP1 SWAP2 KECCAK256 PUSH1 0x8 SWAP1 SWAP2 MUL ADD DUP1 SLOAD PUSH1 0x1 DUP3 ADD SLOAD PUSH1 0x2 DUP4 ADD SLOAD PUSH1 0x3 DUP5 ADD SLOAD PUSH1 0x4 DUP6 ADD SLOAD PUSH1 0x5 DUP7 ADD SLOAD PUSH1 0x6 DUP8 ADD SLOAD PUSH1 0x7 SWAP1 SWAP8 ADD SLOAD SWAP6 SWAP9 POP SWAP4 SWAP7 POP SWAP2 SWAP5 SWAP1 SWAP4 SWAP2 SWAP3 SWAP2 PUSH1 0xFF DUP1 DUP3 AND SWAP2 PUSH2 0x100 SWAP1 DIV AND DUP10 JUMP JUMPDEST PUSH1 0x8D SLOAD PUSH7 0x1000000000000 SWAP1 DIV PUSH1 0xFF AND DUP2 JUMP JUMPDEST PUSH1 0x33 SLOAD PUSH1 0x1 PUSH1 0x1 PUSH1 0xA0 SHL SUB AND SWAP1 JUMP JUMPDEST PUSH1 0x0 DUP1 PUSH1 0x65 PUSH1 0x0 SWAP1 SLOAD SWAP1 PUSH2 0x100 EXP SWAP1 DIV PUSH1 0x1 PUSH1 0x1 PUSH1 0xA0 SHL SUB AND PUSH1 0x1 PUSH1 0x1 PUSH1 0xA0 SHL SUB AND PUSH4 0xFEAF968C PUSH1 0x40 MLOAD DUP2 PUSH4 0xFFFFFFFF AND PUSH1 0xE0 SHL DUP2 MSTORE PUSH1 0x4 ADD PUSH1 0xA0 PUSH1 0x40 MLOAD DUP1 DUP4 SUB DUP2 DUP7 DUP1 EXTCODESIZE ISZERO DUP1 ISZERO PUSH2 0x8C0 JUMPI PUSH1 0x0 DUP1 REVERT JUMPDEST POP GAS STATICCALL ISZERO DUP1 ISZERO PUSH2 0x8D4 JUMPI RETURNDATASIZE PUSH1 0x0 DUP1 RETURNDATACOPY RETURNDATASIZE PUSH1 0x0 REVERT JUMPDEST POP POP POP POP PUSH1 0x40 MLOAD RETURNDATASIZE PUSH1 0x1F NOT PUSH1 0x1F DUP3 ADD AND DUP3 ADD DUP1 PUSH1 0x40 MSTORE POP DUP2 ADD SWAP1 PUSH2 0x8F8 SWAP2 SWAP1 PUSH2 0xF48 JUMP JUMPDEST POP POP POP SWAP2 POP POP PUSH1 0x0 DUP2 SLT ISZERO PUSH2 0x90E JUMPI PUSH1 0x0 PUSH2 0x910 JUMP JUMPDEST DUP1 JUMPDEST SWAP2 POP POP SWAP1 JUMP JUMPDEST PUSH1 0x5 DUP2 JUMP JUMPDEST PUSH1 0x7C SLOAD PUSH1 0x1 PUSH1 0x1 PUSH1 0xA0 SHL SUB AND DUP2 JUMP JUMPDEST PUSH1 0x8D SLOAD PUSH1 0xFF AND DUP2 JUMP JUMPDEST PUSH1 0x8 DUP2 JUMP JUMPDEST PUSH1 0x40 DUP1 MLOAD PUSH1 0x2 DUP1 DUP3 MSTORE PUSH1 0x60 DUP1 DUP4 ADD DUP5 MSTORE SWAP3 PUSH1 0x0 SWAP3 SWAP2 SWAP1 PUSH1 0x20 DUP4 ADD SWAP1 DUP1 CALLDATASIZE DUP4 CALLDATACOPY POP POP PUSH1 0x68 SLOAD DUP3 MLOAD SWAP3 SWAP4 POP PUSH1 0x1 PUSH1 0x1 PUSH1 0xA0 SHL SUB AND SWAP2 DUP4 SWAP2 POP PUSH1 0x0 SWAP1 PUSH2 0x98B JUMPI PUSH4 0x4E487B71 PUSH1 0xE0 SHL PUSH1 0x0 MSTORE PUSH1 0x32 PUSH1 0x4 MSTORE PUSH1 0x24 PUSH1 0x0 REVERT JUMPDEST PUSH1 0x1 PUSH1 0x1 PUSH1 0xA0 SHL SUB SWAP3 DUP4 AND PUSH1 0x20 SWAP2 DUP3 MUL SWAP3 SWAP1 SWAP3 ADD ADD MSTORE PUSH1 0x69 SLOAD DUP3 MLOAD SWAP2 AND SWAP1 DUP3 SWAP1 PUSH1 0x1 SWAP1 DUP2 LT PUSH2 0x9CA JUMPI PUSH4 0x4E487B71 PUSH1 0xE0 SHL PUSH1 0x0 MSTORE PUSH1 0x32 PUSH1 0x4 MSTORE PUSH1 0x24 PUSH1 0x0 REVERT JUMPDEST PUSH1 0x1 PUSH1 0x1 PUSH1 0xA0 SHL SUB SWAP1 SWAP3 AND PUSH1 0x20 SWAP3 DUP4 MUL SWAP2 SWAP1 SWAP2 ADD SWAP1 SWAP2 ADD MSTORE SWAP1 POP SWAP1 JUMP JUMPDEST PUSH1 0x8D SLOAD PUSH4 0x1000000 SWAP1 DIV PUSH1 0xFF AND DUP2 JUMP JUMPDEST PUSH1 0x0 SLOAD PUSH2 0x100 SWAP1 DIV PUSH1 0xFF AND DUP1 PUSH2 0xA10 JUMPI POP PUSH1 0x0 SLOAD PUSH1 0xFF AND ISZERO JUMPDEST PUSH2 0xA2C JUMPI PUSH1 0x40 MLOAD PUSH3 0x461BCD PUSH1 0xE5 SHL DUP2 MSTORE PUSH1 0x4 ADD PUSH2 0x622 SWAP1 PUSH2 0x10DF JUMP JUMPDEST PUSH1 0x0 SLOAD PUSH2 0x100 SWAP1 DIV PUSH1 0xFF AND ISZERO DUP1 ISZERO PUSH2 0xA57 JUMPI PUSH1 0x0 DUP1 SLOAD PUSH1 0xFF NOT PUSH2 0xFF00 NOT SWAP1 SWAP2 AND PUSH2 0x100 OR AND PUSH1 0x1 OR SWAP1 SSTORE JUMPDEST PUSH1 0x67 DUP1 SLOAD PUSH1 0x1 PUSH1 0x1 PUSH1 0xA0 SHL SUB DUP1 DUP8 AND PUSH1 0x1 PUSH1 0x1 PUSH1 0xA0 SHL SUB NOT SWAP3 DUP4 AND OR SWAP1 SWAP3 SSTORE PUSH1 0x68 DUP1 SLOAD DUP7 DUP5 AND SWAP1 DUP4 AND OR SWAP1 SSTORE PUSH1 0x69 DUP1 SLOAD SWAP3 DUP6 AND SWAP3 SWAP1 SWAP2 AND SWAP2 SWAP1 SWAP2 OR SWAP1 SSTORE DUP1 ISZERO PUSH2 0xAA6 JUMPI PUSH1 0x0 DUP1 SLOAD PUSH2 0xFF00 NOT AND SWAP1 SSTORE JUMPDEST POP POP POP POP JUMP JUMPDEST PUSH1 0x83 SLOAD DUP2 JUMP JUMPDEST PUSH1 0x7E DUP1 SLOAD PUSH2 0x54E SWAP1 PUSH2 0x1234 JUMP JUMPDEST PUSH1 0x6C SLOAD PUSH1 0x1 PUSH1 0x1 PUSH1 0xA0 SHL SUB AND DUP2 JUMP JUMPDEST PUSH1 0x66 SLOAD PUSH1 0x40 MLOAD PUSH4 0x70A08231 PUSH1 0xE0 SHL DUP2 MSTORE PUSH1 0x0 SWAP2 PUSH1 0x1 PUSH1 0x1 PUSH1 0xA0 SHL SUB AND SWAP1 PUSH4 0x70A08231 SWAP1 PUSH2 0xAFF SWAP1 ADDRESS SWAP1 PUSH1 0x4 ADD PUSH2 0xFFB JUMP JUMPDEST PUSH1 0x20 PUSH1 0x40 MLOAD DUP1 DUP4 SUB DUP2 DUP7 DUP1 EXTCODESIZE ISZERO DUP1 ISZERO PUSH2 0xB17 JUMPI PUSH1 0x0 DUP1 REVERT JUMPDEST POP GAS STATICCALL ISZERO DUP1 ISZERO PUSH2 0xB2B JUMPI RETURNDATASIZE PUSH1 0x0 DUP1 RETURNDATACOPY RETURNDATASIZE PUSH1 0x0 REVERT JUMPDEST POP POP POP POP PUSH1 0x40 MLOAD RETURNDATASIZE PUSH1 0x1F NOT PUSH1 0x1F DUP3 ADD AND DUP3 ADD DUP1 PUSH1 0x40 MSTORE POP DUP2 ADD SWAP1 PUSH2 0xB4F SWAP2 SWAP1 PUSH2 0xF30 JUMP JUMPDEST SWAP1 POP SWAP1 JUMP JUMPDEST PUSH1 0x6B SLOAD PUSH1 0x1 PUSH1 0x1 PUSH1 0xA0 SHL SUB AND DUP2 JUMP JUMPDEST PUSH1 0x89 SLOAD DUP2 JUMP JUMPDEST PUSH1 0x8D SLOAD PUSH6 0x10000000000 SWAP1 DIV PUSH1 0xFF AND DUP2 JUMP JUMPDEST PUSH1 0x78 DUP2 DUP2 SLOAD DUP2 LT PUSH2 0xB8B JUMPI PUSH1 0x0 DUP1 REVERT JUMPDEST PUSH1 0x0 SWAP2 DUP3 MSTORE PUSH1 0x20 SWAP1 SWAP2 KECCAK256 PUSH1 0x2 SWAP1 SWAP2 MUL ADD DUP1 SLOAD PUSH1 0x1 SWAP1 SWAP2 ADD SLOAD PUSH1 0x1 PUSH1 0x1 PUSH1 0xA0 SHL SUB SWAP1 SWAP2 AND SWAP2 POP DUP3 JUMP JUMPDEST PUSH1 0x6D SLOAD PUSH1 0x6E SLOAD PUSH1 0x6F SLOAD PUSH1 0x70 SLOAD PUSH1 0x71 SLOAD PUSH1 0x72 SLOAD PUSH1 0x73 SLOAD PUSH1 0x74 SLOAD PUSH1 0x75 SLOAD PUSH1 0xFF DUP1 DUP3 AND SWAP2 PUSH2 0x100 SWAP1 DIV AND DUP11 JUMP JUMPDEST PUSH1 0x8A SLOAD DUP2 JUMP JUMPDEST PUSH1 0x7A SLOAD PUSH1 0x1 PUSH1 0x1 PUSH1 0xA0 SHL SUB AND DUP2 JUMP JUMPDEST PUSH1 0x8B SLOAD DUP2 JUMP JUMPDEST PUSH1 0x0 DUP1 PUSH1 0x65 PUSH1 0x0 SWAP1 SLOAD SWAP1 PUSH2 0x100 EXP SWAP1 DIV PUSH1 0x1 PUSH1 0x1 PUSH1 0xA0 SHL SUB AND PUSH1 0x1 PUSH1 0x1 PUSH1 0xA0 SHL SUB AND PUSH4 0x313CE567 PUSH1 0x40 MLOAD DUP2 PUSH4 0xFFFFFFFF AND PUSH1 0xE0 SHL DUP2 MSTORE PUSH1 0x4 ADD PUSH1 0x20 PUSH1 0x40 MLOAD DUP1 DUP4 SUB DUP2 DUP7 DUP1 EXTCODESIZE ISZERO DUP1 ISZERO PUSH2 0xC49 JUMPI PUSH1 0x0 DUP1 REVERT JUMPDEST POP GAS STATICCALL ISZERO DUP1 ISZERO PUSH2 0xC5D JUMPI RETURNDATASIZE PUSH1 0x0 DUP1 RETURNDATACOPY RETURNDATASIZE PUSH1 0x0 REVERT JUMPDEST POP POP POP POP PUSH1 0x40 MLOAD RETURNDATASIZE PUSH1 0x1F NOT PUSH1 0x1F DUP3 ADD AND DUP3 ADD DUP1 PUSH1 0x40 MSTORE POP DUP2 ADD SWAP1 PUSH2 0x910 SWAP2 SWAP1 PUSH2 0xF97 JUMP JUMPDEST PUSH1 0x76 DUP2 DUP2 SLOAD DUP2 LT PUSH2 0xC91 JUMPI PUSH1 0x0 DUP1 REVERT JUMPDEST PUSH1 0x0 SWAP2 DUP3 MSTORE PUSH1 0x20 SWAP1 SWAP2 KECCAK256 PUSH1 0x2 SWAP1 SWAP2 MUL ADD DUP1 SLOAD PUSH1 0x1 SWAP1 SWAP2 ADD SLOAD SWAP1 SWAP2 POP DUP3 JUMP JUMPDEST PUSH2 0xCB7 PUSH2 0xD4B JUMP JUMPDEST PUSH1 0x1 PUSH1 0x1 PUSH1 0xA0 SHL SUB AND PUSH2 0xCC8 PUSH2 0x860 JUMP JUMPDEST PUSH1 0x1 PUSH1 0x1 PUSH1 0xA0 SHL SUB AND EQ PUSH2 0xCEE JUMPI PUSH1 0x40 MLOAD PUSH3 0x461BCD PUSH1 0xE5 SHL DUP2 MSTORE PUSH1 0x4 ADD PUSH2 0x622 SWAP1 PUSH2 0x112D JUMP JUMPDEST PUSH1 0x1 PUSH1 0x1 PUSH1 0xA0 SHL SUB DUP2 AND PUSH2 0xD14 JUMPI PUSH1 0x40 MLOAD PUSH3 0x461BCD PUSH1 0xE5 SHL DUP2 MSTORE PUSH1 0x4 ADD PUSH2 0x622 SWAP1 PUSH2 0x1099 JUMP JUMPDEST PUSH2 0xD1D DUP2 PUSH2 0xD4F JUMP JUMPDEST POP JUMP JUMPDEST PUSH1 0x8C SLOAD DUP2 JUMP JUMPDEST PUSH1 0x66 SLOAD PUSH1 0x1 PUSH1 0x1 PUSH1 0xA0 SHL SUB AND SWAP1 JUMP JUMPDEST PUSH1 0x7F SLOAD DUP2 JUMP JUMPDEST PUSH1 0x77 DUP2 DUP2 SLOAD DUP2 LT PUSH2 0xB8B JUMPI PUSH1 0x0 DUP1 REVERT JUMPDEST CALLER SWAP1 JUMP JUMPDEST PUSH1 0x33 DUP1 SLOAD PUSH1 0x1 PUSH1 0x1 PUSH1 0xA0 SHL SUB DUP4 DUP2 AND PUSH1 0x1 PUSH1 0x1 PUSH1 0xA0 SHL SUB NOT DUP4 AND DUP2 OR SWAP1 SWAP4 SSTORE PUSH1 0x40 MLOAD SWAP2 AND SWAP2 SWAP1 DUP3 SWAP1 PUSH32 0x8BE0079C531659141344CD1FD0A4F28419497F9722A3DAAFE3B4186F6B6457E0 SWAP1 PUSH1 0x0 SWAP1 LOG3 POP POP JUMP JUMPDEST DUP1 CALLDATALOAD PUSH1 0x1 PUSH1 0x1 PUSH1 0xA0 SHL SUB DUP2 AND DUP2 EQ PUSH2 0x746 JUMPI PUSH1 0x0 DUP1 REVERT JUMPDEST DUP1 MLOAD PUSH10 0xFFFFFFFFFFFFFFFFFFFF DUP2 AND DUP2 EQ PUSH2 0x746 JUMPI PUSH1 0x0 DUP1 REVERT JUMPDEST PUSH1 0x0 PUSH1 0x20 DUP3 DUP5 SUB SLT ISZERO PUSH2 0xDE3 JUMPI DUP1 DUP2 REVERT JUMPDEST PUSH2 0xDEC DUP3 PUSH2 0xDA1 JUMP JUMPDEST SWAP4 SWAP3 POP POP POP JUMP JUMPDEST PUSH1 0x0 DUP1 PUSH1 0x0 PUSH1 0x60 DUP5 DUP7 SUB SLT ISZERO PUSH2 0xE07 JUMPI DUP2 DUP3 REVERT JUMPDEST PUSH2 0xE10 DUP5 PUSH2 0xDA1 JUMP JUMPDEST SWAP3 POP PUSH2 0xE1E PUSH1 0x20 DUP6 ADD PUSH2 0xDA1 JUMP JUMPDEST SWAP2 POP PUSH2 0xE2C PUSH1 0x40 DUP6 ADD PUSH2 0xDA1 JUMP JUMPDEST SWAP1 POP SWAP3 POP SWAP3 POP SWAP3 JUMP JUMPDEST PUSH1 0x0 DUP1 PUSH1 0x40 DUP4 DUP6 SUB SLT ISZERO PUSH2 0xE47 JUMPI DUP2 DUP3 REVERT JUMPDEST PUSH2 0xE50 DUP4 PUSH2 0xDA1 JUMP JUMPDEST SWAP5 PUSH1 0x20 SWAP4 SWAP1 SWAP4 ADD CALLDATALOAD SWAP4 POP POP POP JUMP JUMPDEST PUSH1 0x0 PUSH1 0x20 DUP1 DUP4 DUP6 SUB SLT ISZERO PUSH2 0xE70 JUMPI DUP2 DUP3 REVERT JUMPDEST DUP3 MLOAD PUSH8 0xFFFFFFFFFFFFFFFF DUP1 DUP3 GT ISZERO PUSH2 0xE87 JUMPI DUP4 DUP5 REVERT JUMPDEST DUP2 DUP6 ADD SWAP2 POP DUP6 PUSH1 0x1F DUP4 ADD SLT PUSH2 0xE9A JUMPI DUP4 DUP5 REVERT JUMPDEST DUP2 MLOAD DUP2 DUP2 GT ISZERO PUSH2 0xEAC JUMPI PUSH2 0xEAC PUSH2 0x126F JUMP JUMPDEST DUP4 DUP2 MUL PUSH1 0x40 MLOAD DUP6 DUP3 DUP3 ADD ADD DUP2 DUP2 LT DUP6 DUP3 GT OR ISZERO PUSH2 0xECB JUMPI PUSH2 0xECB PUSH2 0x126F JUMP JUMPDEST PUSH1 0x40 MSTORE DUP3 DUP2 MSTORE DUP6 DUP2 ADD SWAP4 POP DUP5 DUP7 ADD DUP3 DUP7 ADD DUP8 ADD DUP11 LT ISZERO PUSH2 0xEE9 JUMPI DUP8 DUP9 REVERT JUMPDEST DUP8 SWAP6 POP JUMPDEST DUP4 DUP7 LT ISZERO PUSH2 0xF0B JUMPI DUP1 MLOAD DUP6 MSTORE PUSH1 0x1 SWAP6 SWAP1 SWAP6 ADD SWAP5 SWAP4 DUP7 ADD SWAP4 DUP7 ADD PUSH2 0xEED JUMP JUMPDEST POP SWAP9 SWAP8 POP POP POP POP POP POP POP POP JUMP JUMPDEST PUSH1 0x0 PUSH1 0x20 DUP3 DUP5 SUB SLT ISZERO PUSH2 0xF29 JUMPI DUP1 DUP2 REVERT JUMPDEST POP CALLDATALOAD SWAP2 SWAP1 POP JUMP JUMPDEST PUSH1 0x0 PUSH1 0x20 DUP3 DUP5 SUB SLT ISZERO PUSH2 0xF41 JUMPI DUP1 DUP2 REVERT JUMPDEST POP MLOAD SWAP2 SWAP1 POP JUMP JUMPDEST PUSH1 0x0 DUP1 PUSH1 0x0 DUP1 PUSH1 0x0 PUSH1 0xA0 DUP7 DUP9 SUB SLT ISZERO PUSH2 0xF5F JUMPI DUP1 DUP2 REVERT JUMPDEST PUSH2 0xF68 DUP7 PUSH2 0xDB8 JUMP JUMPDEST SWAP5 POP PUSH1 0x20 DUP7 ADD MLOAD SWAP4 POP PUSH1 0x40 DUP7 ADD MLOAD SWAP3 POP PUSH1 0x60 DUP7 ADD MLOAD SWAP2 POP PUSH2 0xF8B PUSH1 0x80 DUP8 ADD PUSH2 0xDB8 JUMP JUMPDEST SWAP1 POP SWAP3 SWAP6 POP SWAP3 SWAP6 SWAP1 SWAP4 POP JUMP JUMPDEST PUSH1 0x0 PUSH1 0x20 DUP3 DUP5 SUB SLT ISZERO PUSH2 0xFA8 JUMPI DUP1 DUP2 REVERT JUMPDEST DUP2 MLOAD PUSH1 0xFF DUP2 AND DUP2 EQ PUSH2 0xDEC JUMPI DUP2 DUP3 REVERT JUMPDEST PUSH1 0x0 DUP2 MLOAD DUP1 DUP5 MSTORE PUSH1 0x20 DUP1 DUP6 ADD SWAP5 POP DUP1 DUP5 ADD DUP4 JUMPDEST DUP4 DUP2 LT ISZERO PUSH2 0xFF0 JUMPI DUP2 MLOAD PUSH1 0x1 PUSH1 0x1 PUSH1 0xA0 SHL SUB AND DUP8 MSTORE SWAP6 DUP3 ADD SWAP6 SWAP1 DUP3 ADD SWAP1 PUSH1 0x1 ADD PUSH2 0xFCB JUMP JUMPDEST POP SWAP5 SWAP6 SWAP5 POP POP POP POP POP JUMP JUMPDEST PUSH1 0x1 PUSH1 0x1 PUSH1 0xA0 SHL SUB SWAP2 SWAP1 SWAP2 AND DUP2 MSTORE PUSH1 0x20 ADD SWAP1 JUMP JUMPDEST PUSH1 0x1 PUSH1 0x1 PUSH1 0xA0 SHL SUB SWAP3 SWAP1 SWAP3 AND DUP3 MSTORE PUSH1 0x20 DUP3 ADD MSTORE PUSH1 0x40 ADD SWAP1 JUMP JUMPDEST PUSH1 0x0 PUSH1 0x20 DUP3 MSTORE PUSH2 0xDEC PUSH1 0x20 DUP4 ADD DUP5 PUSH2 0xFB8 JUMP JUMPDEST SWAP1 ISZERO ISZERO DUP2 MSTORE PUSH1 0x20 ADD SWAP1 JUMP JUMPDEST PUSH1 0x0 PUSH1 0x20 DUP1 DUP4 MSTORE DUP4 MLOAD DUP1 DUP3 DUP6 ADD MSTORE DUP3 JUMPDEST DUP2 DUP2 LT ISZERO PUSH2 0x1072 JUMPI DUP6 DUP2 ADD DUP4 ADD MLOAD DUP6 DUP3 ADD PUSH1 0x40 ADD MSTORE DUP3 ADD PUSH2 0x1056 JUMP JUMPDEST DUP2 DUP2 GT ISZERO PUSH2 0x1083 JUMPI DUP4 PUSH1 0x40 DUP4 DUP8 ADD ADD MSTORE JUMPDEST POP PUSH1 0x1F ADD PUSH1 0x1F NOT AND SWAP3 SWAP1 SWAP3 ADD PUSH1 0x40 ADD SWAP4 SWAP3 POP POP POP JUMP JUMPDEST PUSH1 0x20 DUP1 DUP3 MSTORE PUSH1 0x26 SWAP1 DUP3 ADD MSTORE PUSH32 0x4F776E61626C653A206E6577206F776E657220697320746865207A65726F2061 PUSH1 0x40 DUP3 ADD MSTORE PUSH6 0x646472657373 PUSH1 0xD0 SHL PUSH1 0x60 DUP3 ADD MSTORE PUSH1 0x80 ADD SWAP1 JUMP JUMPDEST PUSH1 0x20 DUP1 DUP3 MSTORE PUSH1 0x2E SWAP1 DUP3 ADD MSTORE PUSH32 0x496E697469616C697A61626C653A20636F6E747261637420697320616C726561 PUSH1 0x40 DUP3 ADD MSTORE PUSH14 0x191E481A5B9A5D1A585B1A5E9959 PUSH1 0x92 SHL PUSH1 0x60 DUP3 ADD MSTORE PUSH1 0x80 ADD SWAP1 JUMP JUMPDEST PUSH1 0x20 DUP1 DUP3 MSTORE DUP2 DUP2 ADD MSTORE PUSH32 0x4F776E61626C653A2063616C6C6572206973206E6F7420746865206F776E6572 PUSH1 0x40 DUP3 ADD MSTORE PUSH1 0x60 ADD SWAP1 JUMP JUMPDEST SWAP1 DUP2 MSTORE PUSH1 0x20 ADD SWAP1 JUMP JUMPDEST PUSH1 0x0 DUP4 DUP3 MSTORE PUSH1 0x40 PUSH1 0x20 DUP4 ADD MSTORE PUSH2 0x1184 PUSH1 0x40 DUP4 ADD DUP5 PUSH2 0xFB8 JUMP JUMPDEST SWAP5 SWAP4 POP POP POP POP JUMP JUMPDEST SWAP2 DUP3 MSTORE PUSH1 0x20 DUP3 ADD MSTORE PUSH1 0x40 ADD SWAP1 JUMP JUMPDEST SWAP9 DUP10 MSTORE PUSH1 0x20 DUP10 ADD SWAP8 SWAP1 SWAP8 MSTORE PUSH1 0x40 DUP9 ADD SWAP6 SWAP1 SWAP6 MSTORE PUSH1 0x60 DUP8 ADD SWAP4 SWAP1 SWAP4 MSTORE PUSH1 0x80 DUP7 ADD SWAP2 SWAP1 SWAP2 MSTORE PUSH1 0xA0 DUP6 ADD MSTORE PUSH1 0xC0 DUP5 ADD MSTORE ISZERO ISZERO PUSH1 0xE0 DUP4 ADD MSTORE ISZERO ISZERO PUSH2 0x100 DUP3 ADD MSTORE PUSH2 0x120 ADD SWAP1 JUMP JUMPDEST SWAP10 DUP11 MSTORE PUSH1 0x20 DUP11 ADD SWAP9 SWAP1 SWAP9 MSTORE PUSH1 0x40 DUP10 ADD SWAP7 SWAP1 SWAP7 MSTORE PUSH1 0x60 DUP9 ADD SWAP5 SWAP1 SWAP5 MSTORE PUSH1 0x80 DUP8 ADD SWAP3 SWAP1 SWAP3 MSTORE PUSH1 0xA0 DUP7 ADD MSTORE PUSH1 0xC0 DUP6 ADD MSTORE PUSH1 0xE0 DUP5 ADD MSTORE ISZERO ISZERO PUSH2 0x100 DUP4 ADD MSTORE ISZERO ISZERO PUSH2 0x120 DUP3 ADD MSTORE PUSH2 0x140 ADD SWAP1 JUMP JUMPDEST PUSH1 0xFF SWAP2 SWAP1 SWAP2 AND DUP2 MSTORE PUSH1 0x20 ADD SWAP1 JUMP JUMPDEST PUSH1 0x2 DUP2 DIV PUSH1 0x1 DUP3 AND DUP1 PUSH2 0x1248 JUMPI PUSH1 0x7F DUP3 AND SWAP2 POP JUMPDEST PUSH1 0x20 DUP3 LT DUP2 EQ ISZERO PUSH2 0x1269 JUMPI PUSH4 0x4E487B71 PUSH1 0xE0 SHL PUSH1 0x0 MSTORE PUSH1 0x22 PUSH1 0x4 MSTORE PUSH1 0x24 PUSH1 0x0 REVERT JUMPDEST POP SWAP2 SWAP1 POP JUMP JUMPDEST PUSH4 0x4E487B71 PUSH1 0xE0 SHL PUSH1 0x0 MSTORE PUSH1 0x41 PUSH1 0x4 MSTORE PUSH1 0x24 PUSH1 0x0 REVERT INVALID LOG2 PUSH5 0x6970667358 0x22 SLT KECCAK256 0xD LOG4 0xB0 OR PUSH1 0x23 0xDF 0xD1 SLT 0x4B 0xEA DUP3 0xCA JUMPI 0xD4 0xB8 PUSH7 0x82C2A72D51A844 DUP2 PUSH20 0x986CC072900564736F6C63430008000033000000 "
    },
    "gasEstimates": {
      "creation": {
        "codeDepositCost": "959000",
        "executionCost": "994",
        "totalCost": "959994"
      },
      "external": {
        "__PriceConsumer_initialize(address)": "65397",
        "__WrappedTokenDistributor_initialize(address,address,address)": "infinite",
        "collaborativeRange()": "1161",
        "collaborativeReward()": "1116",
        "getDecimals()": "infinite",
        "getEstimatedWrappedTokenForUSD(uint256)": "infinite",
        "getLatestPrice()": "infinite",
        "getPathForUSDToWrappedToken()": "infinite",
        "getUSDBalance()": "infinite",
        "getUSDToken()": "1180",
        "getswapRouter()": "1227",
        "isActive()": "1142",
        "isAnEmergency()": "1086",
        "isDeleted()": "1206",
        "isEnhancedEnabled()": "1141",
        "isLocked()": "1163",
        "isMatured()": "1185",
        "launchDate()": "1160",
        "lockTime()": "1075",
        "lps()": "7758",
        "maturingPrice()": "1161",
        "maturityTime()": "1140",
        "minimumStakeAmount()": "1074",
        "oracleContract()": "1137",
        "oracleDecimal()": "296",
        "owner()": "1159",
        "poolCreator()": "1181",
        "poolType()": "infinite",
        "potentialCollabReward()": "1117",
        "predictions(address,uint256)": "8142",
        "prizeAmount()": "1140",
        "prizeRewardRates(uint256)": "2890",
        "renounceOwnership()": "23575",
        "rewardManager()": "1139",
        "sizeAllocation()": "1162",
        "sizeLimitRangeRate()": "361",
        "sortedStakers(uint256)": "2936",
        "stakeApr()": "1184",
        "stakeTaxRate()": "1184",
        "stakers(uint256)": "3045",
        "stakingPoolImplementation()": "1205",
        "totalStaked()": "1184",
        "totemToken()": "1181",
        "transferOwnership(address)": "23768",
        "upgradeEnabled()": "1118",
        "usdPrizeAmount()": "1118",
        "wrappedToken()": "1225",
        "wrappedTokenSymbol()": "infinite"
      }
    },
    "methodIdentifiers": {
      "__PriceConsumer_initialize(address)": "37c4f6a4",
      "__WrappedTokenDistributor_initialize(address,address,address)": "a8f7b346",
      "collaborativeRange()": "eb850ae1",
      "collaborativeReward()": "f3d9dc0d",
      "getDecimals()": "f0141d84",
      "getEstimatedWrappedTokenForUSD(uint256)": "3fcdd82c",
      "getLatestPrice()": "8e15f473",
      "getPathForUSDToWrappedToken()": "a35ef3a7",
      "getUSDBalance()": "c1201054",
      "getUSDToken()": "f5e96fc9",
      "getswapRouter()": "2e577d07",
      "isActive()": "22f3e2d4",
      "isAnEmergency()": "a08b2c79",
      "isDeleted()": "d7efb6b7",
      "isEnhancedEnabled()": "4bc4eeb2",
      "isLocked()": "a4e2d634",
      "isMatured()": "7f2b6a0d",
      "launchDate()": "f8eeed62",
      "lockTime()": "0d668087",
      "lps()": "e0818669",
      "maturingPrice()": "d025188b",
      "maturityTime()": "4e8bfdaa",
      "minimumStakeAmount()": "6b036f45",
      "oracleContract()": "bece7532",
      "oracleDecimal()": "a150194b",
      "owner()": "8da5cb5b",
      "poolCreator()": "c6c1decd",
      "poolType()": "b1dd61b6",
      "potentialCollabReward()": "e425df8c",
      "predictions(address,uint256)": "850fa7cb",
      "prizeAmount()": "785fa627",
      "prizeRewardRates(uint256)": "f1b17a8b",
      "renounceOwnership()": "715018a6",
      "rewardManager()": "0f4ef8a6",
      "sizeAllocation()": "51eacbf0",
      "sizeLimitRangeRate()": "95c2ba47",
      "sortedStakers(uint256)": "de09ee20",
      "stakeApr()": "aa7bcb57",
      "stakeTaxRate()": "6847d0c5",
      "stakers(uint256)": "fd5e6dd1",
      "stakingPoolImplementation()": "2aa8195e",
      "totalStaked()": "817b1cd2",
      "totemToken()": "e8153c93",
      "transferOwnership(address)": "f2fde38b",
      "upgradeEnabled()": "8cf0e21e",
      "usdPrizeAmount()": "73f31703",
      "wrappedToken()": "996c6cc3",
      "wrappedTokenSymbol()": "238a6c74"
    }
  },
  "storageLayout": {
    "storage": [
      {
        "astId": 176,
        "contract": "contracts/Staking/StakingPoolStorageStructure.sol:StakingPoolStorageStructure",
        "label": "_initialized",
        "offset": 0,
        "slot": "0",
        "type": "t_bool"
      },
      {
        "astId": 179,
        "contract": "contracts/Staking/StakingPoolStorageStructure.sol:StakingPoolStorageStructure",
        "label": "_initializing",
        "offset": 1,
        "slot": "0",
        "type": "t_bool"
      },
      {
        "astId": 259,
        "contract": "contracts/Staking/StakingPoolStorageStructure.sol:StakingPoolStorageStructure",
        "label": "__gap",
        "offset": 0,
        "slot": "1",
        "type": "t_array(t_uint256)50_storage"
      },
      {
        "astId": 56,
        "contract": "contracts/Staking/StakingPoolStorageStructure.sol:StakingPoolStorageStructure",
        "label": "_owner",
        "offset": 0,
        "slot": "51",
        "type": "t_address"
      },
      {
        "astId": 169,
        "contract": "contracts/Staking/StakingPoolStorageStructure.sol:StakingPoolStorageStructure",
        "label": "__gap",
        "offset": 0,
        "slot": "52",
        "type": "t_array(t_uint256)49_storage"
      },
      {
        "astId": 1585,
        "contract": "contracts/Staking/StakingPoolStorageStructure.sol:StakingPoolStorageStructure",
        "label": "priceFeed",
        "offset": 0,
        "slot": "101",
        "type": "t_contract(AggregatorV3Interface)45"
      },
      {
        "astId": 1353,
        "contract": "contracts/Staking/StakingPoolStorageStructure.sol:StakingPoolStorageStructure",
        "label": "USDCContract",
        "offset": 0,
        "slot": "102",
        "type": "t_contract(IERC20)988"
      },
      {
        "astId": 1438,
        "contract": "contracts/Staking/StakingPoolStorageStructure.sol:StakingPoolStorageStructure",
        "label": "swapRouter",
        "offset": 0,
        "slot": "103",
        "type": "t_contract(IPancakeRouter02)7031"
      },
      {
        "astId": 1440,
        "contract": "contracts/Staking/StakingPoolStorageStructure.sol:StakingPoolStorageStructure",
        "label": "BUSD_CONTRACT_ADDRESS",
        "offset": 0,
        "slot": "104",
        "type": "t_address"
      },
      {
        "astId": 1442,
        "contract": "contracts/Staking/StakingPoolStorageStructure.sol:StakingPoolStorageStructure",
        "label": "WRAPPED_Token_CONTRACT_ADDRESS",
        "offset": 0,
        "slot": "105",
        "type": "t_address"
      },
      {
        "astId": 4405,
        "contract": "contracts/Staking/StakingPoolStorageStructure.sol:StakingPoolStorageStructure",
        "label": "stakingPoolImplementation",
        "offset": 0,
        "slot": "106",
        "type": "t_address"
      },
      {
        "astId": 4407,
        "contract": "contracts/Staking/StakingPoolStorageStructure.sol:StakingPoolStorageStructure",
        "label": "poolCreator",
        "offset": 0,
        "slot": "107",
        "type": "t_address"
      },
      {
        "astId": 4409,
        "contract": "contracts/Staking/StakingPoolStorageStructure.sol:StakingPoolStorageStructure",
        "label": "oracleContract",
        "offset": 0,
        "slot": "108",
        "type": "t_address"
      },
      {
        "astId": 4462,
        "contract": "contracts/Staking/StakingPoolStorageStructure.sol:StakingPoolStorageStructure",
        "label": "lps",
        "offset": 0,
        "slot": "109",
        "type": "t_struct(LibParams)4430_storage"
      },
      {
        "astId": 4466,
        "contract": "contracts/Staking/StakingPoolStorageStructure.sol:StakingPoolStorageStructure",
        "label": "prizeRewardRates",
        "offset": 0,
        "slot": "118",
        "type": "t_array(t_struct(PrizeRewardRate)4459_storage)dyn_storage"
      },
      {
        "astId": 4470,
        "contract": "contracts/Staking/StakingPoolStorageStructure.sol:StakingPoolStorageStructure",
        "label": "stakers",
        "offset": 0,
        "slot": "119",
        "type": "t_array(t_struct(Staker)4454_storage)dyn_storage"
      },
      {
        "astId": 4474,
        "contract": "contracts/Staking/StakingPoolStorageStructure.sol:StakingPoolStorageStructure",
        "label": "sortedStakers",
        "offset": 0,
        "slot": "120",
        "type": "t_array(t_struct(Staker)4454_storage)dyn_storage"
      },
      {
        "astId": 4480,
        "contract": "contracts/Staking/StakingPoolStorageStructure.sol:StakingPoolStorageStructure",
        "label": "predictions",
        "offset": 0,
        "slot": "121",
        "type": "t_mapping(t_address,t_array(t_struct(StakeWithPrediction)4449_storage)dyn_storage)"
      },
      {
        "astId": 4483,
        "contract": "contracts/Staking/StakingPoolStorageStructure.sol:StakingPoolStorageStructure",
        "label": "totemToken",
        "offset": 0,
        "slot": "122",
        "type": "t_contract(ITotemToken)7152"
      },
      {
        "astId": 4486,
        "contract": "contracts/Staking/StakingPoolStorageStructure.sol:StakingPoolStorageStructure",
        "label": "rewardManager",
        "offset": 0,
        "slot": "123",
        "type": "t_contract(IRewardManager)7059"
      },
      {
        "astId": 4489,
        "contract": "contracts/Staking/StakingPoolStorageStructure.sol:StakingPoolStorageStructure",
        "label": "wrappedToken",
        "offset": 0,
        "slot": "124",
        "type": "t_contract(IERC20)988"
      },
      {
        "astId": 4491,
        "contract": "contracts/Staking/StakingPoolStorageStructure.sol:StakingPoolStorageStructure",
        "label": "wrappedTokenSymbol",
        "offset": 0,
        "slot": "125",
        "type": "t_string_storage"
      },
      {
        "astId": 4493,
        "contract": "contracts/Staking/StakingPoolStorageStructure.sol:StakingPoolStorageStructure",
        "label": "poolType",
        "offset": 0,
        "slot": "126",
        "type": "t_string_storage"
      },
      {
        "astId": 4501,
        "contract": "contracts/Staking/StakingPoolStorageStructure.sol:StakingPoolStorageStructure",
        "label": "launchDate",
        "offset": 0,
        "slot": "127",
        "type": "t_uint256"
      },
      {
        "astId": 4503,
        "contract": "contracts/Staking/StakingPoolStorageStructure.sol:StakingPoolStorageStructure",
        "label": "lockTime",
        "offset": 0,
        "slot": "128",
        "type": "t_uint256"
      },
      {
        "astId": 4505,
        "contract": "contracts/Staking/StakingPoolStorageStructure.sol:StakingPoolStorageStructure",
        "label": "maturityTime",
        "offset": 0,
        "slot": "129",
        "type": "t_uint256"
      },
      {
        "astId": 4507,
        "contract": "contracts/Staking/StakingPoolStorageStructure.sol:StakingPoolStorageStructure",
        "label": "sizeAllocation",
        "offset": 0,
        "slot": "130",
        "type": "t_uint256"
      },
      {
        "astId": 4509,
        "contract": "contracts/Staking/StakingPoolStorageStructure.sol:StakingPoolStorageStructure",
        "label": "stakeApr",
        "offset": 0,
        "slot": "131",
        "type": "t_uint256"
      },
      {
        "astId": 4511,
        "contract": "contracts/Staking/StakingPoolStorageStructure.sol:StakingPoolStorageStructure",
        "label": "prizeAmount",
        "offset": 0,
        "slot": "132",
        "type": "t_uint256"
      },
      {
        "astId": 4514,
        "contract": "contracts/Staking/StakingPoolStorageStructure.sol:StakingPoolStorageStructure",
        "label": "usdPrizeAmount",
        "offset": 0,
        "slot": "133",
        "type": "t_uint256"
      },
      {
        "astId": 4516,
        "contract": "contracts/Staking/StakingPoolStorageStructure.sol:StakingPoolStorageStructure",
        "label": "stakeTaxRate",
        "offset": 0,
        "slot": "134",
        "type": "t_uint256"
      },
      {
        "astId": 4518,
        "contract": "contracts/Staking/StakingPoolStorageStructure.sol:StakingPoolStorageStructure",
        "label": "minimumStakeAmount",
        "offset": 0,
        "slot": "135",
        "type": "t_uint256"
      },
      {
        "astId": 4520,
        "contract": "contracts/Staking/StakingPoolStorageStructure.sol:StakingPoolStorageStructure",
        "label": "totalStaked",
        "offset": 0,
        "slot": "136",
        "type": "t_uint256"
      },
      {
        "astId": 4522,
        "contract": "contracts/Staking/StakingPoolStorageStructure.sol:StakingPoolStorageStructure",
        "label": "maturingPrice",
        "offset": 0,
        "slot": "137",
        "type": "t_uint256"
      },
      {
        "astId": 4524,
        "contract": "contracts/Staking/StakingPoolStorageStructure.sol:StakingPoolStorageStructure",
        "label": "potentialCollabReward",
        "offset": 0,
        "slot": "138",
        "type": "t_uint256"
      },
      {
        "astId": 4526,
        "contract": "contracts/Staking/StakingPoolStorageStructure.sol:StakingPoolStorageStructure",
        "label": "collaborativeRange",
        "offset": 0,
        "slot": "139",
        "type": "t_uint256"
      },
      {
        "astId": 4529,
        "contract": "contracts/Staking/StakingPoolStorageStructure.sol:StakingPoolStorageStructure",
        "label": "collaborativeReward",
        "offset": 0,
        "slot": "140",
        "type": "t_uint256"
      },
      {
        "astId": 4531,
        "contract": "contracts/Staking/StakingPoolStorageStructure.sol:StakingPoolStorageStructure",
        "label": "isAnEmergency",
        "offset": 0,
        "slot": "141",
        "type": "t_bool"
      },
      {
        "astId": 4533,
        "contract": "contracts/Staking/StakingPoolStorageStructure.sol:StakingPoolStorageStructure",
        "label": "isEnhancedEnabled",
        "offset": 1,
        "slot": "141",
        "type": "t_bool"
      },
      {
        "astId": 4535,
        "contract": "contracts/Staking/StakingPoolStorageStructure.sol:StakingPoolStorageStructure",
        "label": "isActive",
        "offset": 2,
        "slot": "141",
        "type": "t_bool"
      },
      {
        "astId": 4537,
        "contract": "contracts/Staking/StakingPoolStorageStructure.sol:StakingPoolStorageStructure",
        "label": "isLocked",
        "offset": 3,
        "slot": "141",
        "type": "t_bool"
      },
      {
        "astId": 4539,
        "contract": "contracts/Staking/StakingPoolStorageStructure.sol:StakingPoolStorageStructure",
        "label": "isMatured",
        "offset": 4,
        "slot": "141",
        "type": "t_bool"
      },
      {
        "astId": 4541,
        "contract": "contracts/Staking/StakingPoolStorageStructure.sol:StakingPoolStorageStructure",
        "label": "isDeleted",
        "offset": 5,
        "slot": "141",
        "type": "t_bool"
      },
      {
        "astId": 4544,
        "contract": "contracts/Staking/StakingPoolStorageStructure.sol:StakingPoolStorageStructure",
        "label": "upgradeEnabled",
        "offset": 6,
        "slot": "141",
        "type": "t_bool"
      }
    ],
    "types": {
      "t_address": {
        "encoding": "inplace",
        "label": "address",
        "numberOfBytes": "20"
      },
      "t_array(t_struct(PrizeRewardRate)4459_storage)dyn_storage": {
        "base": "t_struct(PrizeRewardRate)4459_storage",
        "encoding": "dynamic_array",
        "label": "struct StakingPoolStorageStructure.PrizeRewardRate[]",
        "numberOfBytes": "32"
      },
      "t_array(t_struct(StakeWithPrediction)4449_storage)dyn_storage": {
        "base": "t_struct(StakeWithPrediction)4449_storage",
        "encoding": "dynamic_array",
        "label": "struct StakingPoolStorageStructure.StakeWithPrediction[]",
        "numberOfBytes": "32"
      },
      "t_array(t_struct(Staker)4454_storage)dyn_storage": {
        "base": "t_struct(Staker)4454_storage",
        "encoding": "dynamic_array",
        "label": "struct StakingPoolStorageStructure.Staker[]",
        "numberOfBytes": "32"
      },
      "t_array(t_uint256)49_storage": {
        "base": "t_uint256",
        "encoding": "inplace",
        "label": "uint256[49]",
        "numberOfBytes": "1568"
      },
      "t_array(t_uint256)50_storage": {
        "base": "t_uint256",
        "encoding": "inplace",
        "label": "uint256[50]",
        "numberOfBytes": "1600"
      },
      "t_bool": {
        "encoding": "inplace",
        "label": "bool",
        "numberOfBytes": "1"
      },
      "t_contract(AggregatorV3Interface)45": {
        "encoding": "inplace",
        "label": "contract AggregatorV3Interface",
        "numberOfBytes": "20"
      },
      "t_contract(IERC20)988": {
        "encoding": "inplace",
        "label": "contract IERC20",
        "numberOfBytes": "20"
      },
      "t_contract(IPancakeRouter02)7031": {
        "encoding": "inplace",
        "label": "contract IPancakeRouter02",
        "numberOfBytes": "20"
      },
      "t_contract(IRewardManager)7059": {
        "encoding": "inplace",
        "label": "contract IRewardManager",
        "numberOfBytes": "20"
      },
      "t_contract(ITotemToken)7152": {
        "encoding": "inplace",
        "label": "contract ITotemToken",
        "numberOfBytes": "20"
      },
      "t_mapping(t_address,t_array(t_struct(StakeWithPrediction)4449_storage)dyn_storage)": {
        "encoding": "mapping",
        "key": "t_address",
        "label": "mapping(address => struct StakingPoolStorageStructure.StakeWithPrediction[])",
        "numberOfBytes": "32",
        "value": "t_array(t_struct(StakeWithPrediction)4449_storage)dyn_storage"
      },
      "t_string_storage": {
        "encoding": "bytes",
        "label": "string",
        "numberOfBytes": "32"
      },
      "t_struct(LibParams)4430_storage": {
        "encoding": "inplace",
        "label": "struct StakingPoolStorageStructure.LibParams",
        "members": [
          {
            "astId": 4411,
            "contract": "contracts/Staking/StakingPoolStorageStructure.sol:StakingPoolStorageStructure",
            "label": "launchDate",
            "offset": 0,
            "slot": "0",
            "type": "t_uint256"
          },
          {
            "astId": 4413,
            "contract": "contracts/Staking/StakingPoolStorageStructure.sol:StakingPoolStorageStructure",
            "label": "lockTime",
            "offset": 0,
            "slot": "1",
            "type": "t_uint256"
          },
          {
            "astId": 4415,
            "contract": "contracts/Staking/StakingPoolStorageStructure.sol:StakingPoolStorageStructure",
            "label": "maturityTime",
            "offset": 0,
            "slot": "2",
            "type": "t_uint256"
          },
          {
            "astId": 4417,
            "contract": "contracts/Staking/StakingPoolStorageStructure.sol:StakingPoolStorageStructure",
            "label": "maturingPrice",
            "offset": 0,
            "slot": "3",
            "type": "t_uint256"
          },
          {
            "astId": 4419,
            "contract": "contracts/Staking/StakingPoolStorageStructure.sol:StakingPoolStorageStructure",
            "label": "usdPrizeAmount",
            "offset": 0,
            "slot": "4",
            "type": "t_uint256"
          },
          {
            "astId": 4421,
            "contract": "contracts/Staking/StakingPoolStorageStructure.sol:StakingPoolStorageStructure",
            "label": "prizeAmount",
            "offset": 0,
            "slot": "5",
            "type": "t_uint256"
          },
          {
            "astId": 4423,
            "contract": "contracts/Staking/StakingPoolStorageStructure.sol:StakingPoolStorageStructure",
            "label": "stakeApr",
            "offset": 0,
            "slot": "6",
            "type": "t_uint256"
          },
          {
            "astId": 4425,
            "contract": "contracts/Staking/StakingPoolStorageStructure.sol:StakingPoolStorageStructure",
            "label": "collaborativeReward",
            "offset": 0,
            "slot": "7",
            "type": "t_uint256"
          },
          {
            "astId": 4427,
            "contract": "contracts/Staking/StakingPoolStorageStructure.sol:StakingPoolStorageStructure",
            "label": "isEnhancedEnabled",
            "offset": 0,
            "slot": "8",
            "type": "t_bool"
          },
          {
            "astId": 4429,
            "contract": "contracts/Staking/StakingPoolStorageStructure.sol:StakingPoolStorageStructure",
            "label": "isMatured",
            "offset": 1,
            "slot": "8",
            "type": "t_bool"
          }
        ],
        "numberOfBytes": "288"
      },
      "t_struct(PrizeRewardRate)4459_storage": {
        "encoding": "inplace",
        "label": "struct StakingPoolStorageStructure.PrizeRewardRate",
        "members": [
          {
            "astId": 4456,
            "contract": "contracts/Staking/StakingPoolStorageStructure.sol:StakingPoolStorageStructure",
            "label": "rank",
            "offset": 0,
            "slot": "0",
            "type": "t_uint256"
          },
          {
            "astId": 4458,
            "contract": "contracts/Staking/StakingPoolStorageStructure.sol:StakingPoolStorageStructure",
            "label": "percentage",
            "offset": 0,
            "slot": "1",
            "type": "t_uint256"
          }
        ],
        "numberOfBytes": "64"
      },
      "t_struct(StakeWithPrediction)4449_storage": {
        "encoding": "inplace",
        "label": "struct StakingPoolStorageStructure.StakeWithPrediction",
        "members": [
          {
            "astId": 4432,
            "contract": "contracts/Staking/StakingPoolStorageStructure.sol:StakingPoolStorageStructure",
            "label": "stakedBalance",
            "offset": 0,
            "slot": "0",
            "type": "t_uint256"
          },
          {
            "astId": 4434,
            "contract": "contracts/Staking/StakingPoolStorageStructure.sol:StakingPoolStorageStructure",
            "label": "stakedTime",
            "offset": 0,
            "slot": "1",
            "type": "t_uint256"
          },
          {
            "astId": 4436,
            "contract": "contracts/Staking/StakingPoolStorageStructure.sol:StakingPoolStorageStructure",
            "label": "amountWithdrawn",
            "offset": 0,
            "slot": "2",
            "type": "t_uint256"
          },
          {
            "astId": 4438,
            "contract": "contracts/Staking/StakingPoolStorageStructure.sol:StakingPoolStorageStructure",
            "label": "lastWithdrawalTime",
            "offset": 0,
            "slot": "3",
            "type": "t_uint256"
          },
          {
            "astId": 4440,
            "contract": "contracts/Staking/StakingPoolStorageStructure.sol:StakingPoolStorageStructure",
            "label": "pricePrediction",
            "offset": 0,
            "slot": "4",
            "type": "t_uint256"
          },
          {
            "astId": 4442,
            "contract": "contracts/Staking/StakingPoolStorageStructure.sol:StakingPoolStorageStructure",
            "label": "difference",
            "offset": 0,
            "slot": "5",
            "type": "t_uint256"
          },
          {
            "astId": 4444,
            "contract": "contracts/Staking/StakingPoolStorageStructure.sol:StakingPoolStorageStructure",
            "label": "rank",
            "offset": 0,
            "slot": "6",
            "type": "t_uint256"
          },
          {
            "astId": 4446,
            "contract": "contracts/Staking/StakingPoolStorageStructure.sol:StakingPoolStorageStructure",
            "label": "prizeRewardWithdrawn",
            "offset": 0,
            "slot": "7",
            "type": "t_bool"
          },
          {
            "astId": 4448,
            "contract": "contracts/Staking/StakingPoolStorageStructure.sol:StakingPoolStorageStructure",
            "label": "didUnstake",
            "offset": 1,
            "slot": "7",
            "type": "t_bool"
          }
        ],
        "numberOfBytes": "256"
      },
      "t_struct(Staker)4454_storage": {
        "encoding": "inplace",
        "label": "struct StakingPoolStorageStructure.Staker",
        "members": [
          {
            "astId": 4451,
            "contract": "contracts/Staking/StakingPoolStorageStructure.sol:StakingPoolStorageStructure",
            "label": "stakerAddress",
            "offset": 0,
            "slot": "0",
            "type": "t_address"
          },
          {
            "astId": 4453,
            "contract": "contracts/Staking/StakingPoolStorageStructure.sol:StakingPoolStorageStructure",
            "label": "index",
            "offset": 0,
            "slot": "1",
            "type": "t_uint256"
          }
        ],
        "numberOfBytes": "64"
      },
      "t_uint256": {
        "encoding": "inplace",
        "label": "uint256",
        "numberOfBytes": "32"
      }
    }
  },
  "userdoc": {
    "kind": "user",
    "methods": {
      "collaborativeReward()": {
        "notice": "Based on the white paper, the collaborative reward can be 20% (2000), 25% (2500) or 35% (3500)."
      },
      "getDecimals()": {
        "notice": "Returns decimals for oracle contract"
      },
      "getLatestPrice()": {
        "notice": "Returns the latest price from oracle contract"
      },
      "usdPrizeAmount()": {
        "notice": "usdPrizeAmount is the enabler of WrappedToken rewarder; If it is set to 0  then the pool is only TOTM rewarder."
      }
    },
    "version": 1
  }
}