{
  "contractName": "StakingPoolFactory",
  "sourceName": "contracts/Staking/StakingPoolFactory.sol",
  "abi": [
    {
      "inputs": [
        {
          "internalType": "contract ITotemToken",
          "name": "_totemToken",
          "type": "address"
        },
        {
          "internalType": "contract IRewardManager",
          "name": "_rewardManager",
          "type": "address"
        },
        {
          "internalType": "address",
          "name": "_swapRouter",
          "type": "address"
        },
        {
          "internalType": "address",
          "name": "_usdToken",
          "type": "address"
        },
        {
          "internalType": "address",
          "name": "_stakingPoolImplementation",
          "type": "address"
        },
        {
          "internalType": "address",
          "name": "_superAdmin",
          "type": "address"
        }
      ],
      "stateMutability": "nonpayable",
      "type": "constructor"
    },
    {
      "anonymous": false,
      "inputs": [],
      "name": "NewStakingPoolImplemnetationWasSet",
      "type": "event"
    },
    {
      "anonymous": false,
      "inputs": [],
      "name": "NewSuperAdminWasSet",
      "type": "event"
    },
    {
      "anonymous": false,
      "inputs": [
        {
          "indexed": true,
          "internalType": "address",
          "name": "pool",
          "type": "address"
        },
        {
          "indexed": false,
          "internalType": "string",
          "name": "wrappedTokenSymbol",
          "type": "string"
        },
        {
          "indexed": false,
          "internalType": "string",
          "name": "poolType",
          "type": "string"
        },
        {
          "indexed": false,
          "internalType": "uint256[12]",
          "name": "variables",
          "type": "uint256[12]"
        },
        {
          "indexed": false,
          "internalType": "uint256[8]",
          "name": "ranks",
          "type": "uint256[8]"
        },
        {
          "indexed": false,
          "internalType": "uint256[8]",
          "name": "percentages",
          "type": "uint256[8]"
        },
        {
          "indexed": false,
          "internalType": "bool",
          "name": "isEnhancedEnabled",
          "type": "bool"
        }
      ],
      "name": "PoolCreated",
      "type": "event"
    },
    {
      "anonymous": false,
      "inputs": [
        {
          "indexed": true,
          "internalType": "address",
          "name": "account",
          "type": "address"
        }
      ],
      "name": "PoolCreatorAdded",
      "type": "event"
    },
    {
      "anonymous": false,
      "inputs": [
        {
          "indexed": true,
          "internalType": "address",
          "name": "account",
          "type": "address"
        }
      ],
      "name": "PoolCreatorRemoved",
      "type": "event"
    },
    {
      "inputs": [
        {
          "internalType": "address",
          "name": "account",
          "type": "address"
        }
      ],
      "name": "addPoolCreator",
      "outputs": [],
      "stateMutability": "nonpayable",
      "type": "function"
    },
    {
      "inputs": [
        {
          "internalType": "address",
          "name": "_oracleContract",
          "type": "address"
        },
        {
          "internalType": "address",
          "name": "_wrappedTokenContract",
          "type": "address"
        },
        {
          "internalType": "string",
          "name": "_wrappedTokenSymbol",
          "type": "string"
        },
        {
          "internalType": "string",
          "name": "_poolType",
          "type": "string"
        },
        {
          "internalType": "uint256[12]",
          "name": "_variables",
          "type": "uint256[12]"
        },
        {
          "internalType": "uint256[8]",
          "name": "_ranks",
          "type": "uint256[8]"
        },
        {
          "internalType": "uint256[8]",
          "name": "_percentages",
          "type": "uint256[8]"
        },
        {
          "internalType": "bool",
          "name": "isEnhancedEnabled",
          "type": "bool"
        }
      ],
      "name": "createPoolProxy",
      "outputs": [
        {
          "internalType": "address",
          "name": "",
          "type": "address"
        }
      ],
      "stateMutability": "nonpayable",
      "type": "function"
    },
    {
      "inputs": [
        {
          "internalType": "address",
          "name": "account",
          "type": "address"
        }
      ],
      "name": "isPoolCreator",
      "outputs": [
        {
          "internalType": "bool",
          "name": "",
          "type": "bool"
        }
      ],
      "stateMutability": "view",
      "type": "function"
    },
    {
      "inputs": [],
      "name": "minimumStakeAmount",
      "outputs": [
        {
          "internalType": "uint256",
          "name": "",
          "type": "uint256"
        }
      ],
      "stateMutability": "view",
      "type": "function"
    },
    {
      "inputs": [],
      "name": "renouncePoolCreator",
      "outputs": [],
      "stateMutability": "nonpayable",
      "type": "function"
    },
    {
      "inputs": [],
      "name": "rewardManager",
      "outputs": [
        {
          "internalType": "contract IRewardManager",
          "name": "",
          "type": "address"
        }
      ],
      "stateMutability": "view",
      "type": "function"
    },
    {
      "inputs": [
        {
          "internalType": "uint256",
          "name": "newStakingPoolTaxRate",
          "type": "uint256"
        }
      ],
      "name": "setDefaultTaxRate",
      "outputs": [],
      "stateMutability": "nonpayable",
      "type": "function"
    },
    {
      "inputs": [
        {
          "internalType": "address",
          "name": "_ImpAdr",
          "type": "address"
        }
      ],
      "name": "setNewStakingPoolImplementationAdr",
      "outputs": [],
      "stateMutability": "nonpayable",
      "type": "function"
    },
    {
      "inputs": [
        {
          "internalType": "address",
          "name": "_superAdmin",
          "type": "address"
        }
      ],
      "name": "setNewSuperAdmin",
      "outputs": [],
      "stateMutability": "nonpayable",
      "type": "function"
    },
    {
      "inputs": [
        {
          "internalType": "address",
          "name": "_swapRouter",
          "type": "address"
        }
      ],
      "name": "setSwapRouter",
      "outputs": [],
      "stateMutability": "nonpayable",
      "type": "function"
    },
    {
      "inputs": [],
      "name": "stakingPoolImplementationAdr",
      "outputs": [
        {
          "internalType": "address",
          "name": "",
          "type": "address"
        }
      ],
      "stateMutability": "view",
      "type": "function"
    },
    {
      "inputs": [],
      "name": "stakingPoolTaxRate",
      "outputs": [
        {
          "internalType": "uint256",
          "name": "",
          "type": "uint256"
        }
      ],
      "stateMutability": "view",
      "type": "function"
    },
    {
      "inputs": [],
      "name": "superAdmin",
      "outputs": [
        {
          "internalType": "address",
          "name": "",
          "type": "address"
        }
      ],
      "stateMutability": "view",
      "type": "function"
    },
    {
      "inputs": [],
      "name": "swapRouter",
      "outputs": [
        {
          "internalType": "address",
          "name": "",
          "type": "address"
        }
      ],
      "stateMutability": "view",
      "type": "function"
    },
    {
      "inputs": [],
      "name": "totemToken",
      "outputs": [
        {
          "internalType": "contract ITotemToken",
          "name": "",
          "type": "address"
        }
      ],
      "stateMutability": "view",
      "type": "function"
    },
    {
      "inputs": [],
      "name": "usdToken",
      "outputs": [
        {
          "internalType": "address",
          "name": "",
          "type": "address"
        }
      ],
      "stateMutability": "view",
      "type": "function"
    }
  ],
  "bytecode": "0x60806040523480156200001157600080fd5b50604051620034bd380380620034bd8339810160408190526200003491620001f8565b6200004862000042620000da565b620000de565b6200006157620000616200005b620000da565b62000101565b600180546001600160a01b03199081166001600160a01b039889161790915560028054821696881696909617909555600580548616948716949094179093556006805485169286169290921790915560048054841691851691909117905560038054909216921691909117905561012c6007556200031d565b3390565b6000620000fb8260006200015360201b6200067f1790919060201c565b92915050565b6200011c816000620001a760201b620006c71790919060201c565b6040516001600160a01b038216907fac89bb7b3d0c5a763a97f31bc75f8faee00426e7b235f02ca76897d55caf7b6190600090a250565b60006001600160a01b038216620001875760405162461bcd60e51b81526004016200017e90620002c2565b60405180910390fd5b506001600160a01b03166000908152602091909152604090205460ff1690565b620001b3828262000153565b15620001d35760405162461bcd60e51b81526004016200017e906200028b565b6001600160a01b0316600090815260209190915260409020805460ff19166001179055565b60008060008060008060c0878903121562000211578182fd5b86516200021e8162000304565b6020880151909650620002318162000304565b6040880151909550620002448162000304565b6060880151909450620002578162000304565b60808801519093506200026a8162000304565b60a08801519092506200027d8162000304565b809150509295509295509295565b6020808252601f908201527f526f6c65733a206163636f756e7420616c72656164792068617320726f6c6500604082015260600190565b60208082526022908201527f526f6c65733a206163636f756e7420697320746865207a65726f206164647265604082015261737360f01b606082015260800190565b6001600160a01b03811681146200031a57600080fd5b50565b613190806200032d6000396000f3fe608060405234801561001057600080fd5b50600436106101005760003560e01c8063b6c3ef2711610097578063d53b245b11610066578063d53b245b146101d9578063e281cc7e146101ec578063e8153c93146101f4578063f897a22b146101fc57610100565b8063b6c3ef27146101a3578063bc8a0669146101b6578063c31c9c07146101be578063ceba6f8d146101c657610100565b806349a84429116100d357806349a84429146101555780636b036f45146101685780638c2d741c146101705780639a94775d1461018357610100565b80630f4ef8a61461010557806329575f6a14610123578063412736571461012b578063441f5c6514610140575b600080fd5b61010d610204565b60405161011a9190610bc5565b60405180910390f35b61010d610213565b61013e6101393660046109d8565b610222565b005b61014861029a565b60405161011a9190610ee6565b61013e6101633660046109d8565b6102a0565b61014861033c565b61013e61017e3660046109d8565b610342565b6101966101913660046109d8565b610375565b60405161011a9190610bd9565b61013e6101b13660046109d8565b610389565b61010d6103f7565b61010d610406565b61010d6101d43660046109f9565b610415565b61013e6101e7366004610b10565b610602565b61013e61064f565b61010d610661565b61010d610670565b6002546001600160a01b031681565b6003546001600160a01b031681565b61022d610191610713565b6102525760405162461bcd60e51b815260040161024990610da9565b60405180910390fd5b6001600160a01b0381166102785760405162461bcd60e51b815260040161024990610d8b565b600580546001600160a01b0319166001600160a01b0392909216919091179055565b60075481565b6102ab610191610713565b6102c75760405162461bcd60e51b815260040161024990610da9565b6004546001600160a01b03828116911614156102f55760405162461bcd60e51b815260040161024990610e06565b600480546001600160a01b0319166001600160a01b0383161790556040517f3199ab49607559567913d4714288fee1e692c31829ed4722a6fd064adbdc5b5490600090a150565b60085481565b61034d610191610713565b6103695760405162461bcd60e51b815260040161024990610da9565b61037281610717565b50565b6000610381818361067f565b90505b919050565b610394610191610713565b6103b05760405162461bcd60e51b815260040161024990610da9565b600380546001600160a01b0319166001600160a01b0383161790556040517fb25686d5de2544aa0f0235ea99dd20e962286bc9cec2fb371b226a637be461f790600090a150565b6004546001600160a01b031681565b6005546001600160a01b031681565b6000610422610191610713565b61043e5760405162461bcd60e51b815260040161024990610da9565b610120850151610452576007546101208601525b6000604051610460906108c2565b604051809103906000f08015801561047c573d6000803e3d6000fd5b5060048054604051631b2ce7f360e11b815292935083926001600160a01b0380851693633659cfe6936104b29392169101610bc5565b600060405180830381600087803b1580156104cc57600080fd5b505af11580156104e0573d6000803e3d6000fd5b5050604080516080810182526005546001600160a01b039081168252600654811660208301528f811692820192909252908d166060820152915061052c9050818b8b8b8b8b8b8a610759565b60035460405163f2fde38b60e01b81526001600160a01b038581169263f2fde38b9261055e9290911690600401610bc5565b600060405180830381600087803b15801561057857600080fd5b505af115801561058c573d6000803e3d6000fd5b505060025460405163d914cd4b60e01b81526001600160a01b03909116925063d914cd4b91506105c0908590600401610bc5565b600060405180830381600087803b1580156105da57600080fd5b505af11580156105ee573d6000803e3d6000fd5b50939e9d5050505050505050505050505050565b61060d610191610713565b6106295760405162461bcd60e51b815260040161024990610da9565b612710811061064a5760405162461bcd60e51b815260040161024990610d44565b600755565b61065f61065a610713565b610838565b565b6001546001600160a01b031681565b6006546001600160a01b031681565b60006001600160a01b0382166106a75760405162461bcd60e51b815260040161024990610ea4565b506001600160a01b03166000908152602091909152604090205460ff1690565b6106d1828261067f565b156106ee5760405162461bcd60e51b815260040161024990610d0d565b6001600160a01b0316600090815260209190915260409020805460ff19166001179055565b3390565b6107226000826106c7565b6040516001600160a01b038216907fac89bb7b3d0c5a763a97f31bc75f8faee00426e7b235f02ca76897d55caf7b6190600090a250565b6001546002546001600160a01b038084169263869eb310928b928b9281169116610781610713565b8e8c8c8c8c6040518b63ffffffff1660e01b81526004016107ab9a99989796959493929190610c4c565b600060405180830381600087803b1580156107c557600080fd5b505af11580156107d9573d6000803e3d6000fd5b505050506000819050806001600160a01b03167fd69cf3c5f6280df773a744806dc6920bc09109ef4a352c0846f5ef35965dca1289898989898960405161082596959493929190610be4565b60405180910390a2505050505050505050565b61084360008261087a565b6040516001600160a01b038216907f2bc71cc60b543df5fdd80ef5a45e1cdb344843769b649e9d901de3be24aeb24e90600090a250565b610884828261067f565b6108a05760405162461bcd60e51b815260040161024990610e63565b6001600160a01b0316600090815260209190915260409020805460ff19169055565b61220a80610f5183390190565b80356001600160a01b038116811461038457600080fd5b600082601f8301126108f6578081fd5b60405161010080820182811067ffffffffffffffff8211171561091b5761091b610f3a565b604052818482810187101561092e578485fd5b8492505b600883101561095257803582526001929092019160209182019101610932565b509195945050505050565b8035801515811461038457600080fd5b600082601f83011261097d578081fd5b813567ffffffffffffffff81111561099757610997610f3a565b6109aa601f8201601f1916602001610eef565b8181528460208386010111156109be578283fd5b816020850160208301379081016020019190915292915050565b6000602082840312156109e9578081fd5b6109f2826108cf565b9392505050565b600080600080600080600080610420898b031215610a15578384fd5b610a1e896108cf565b97506020610a2d818b016108cf565b975060408a013567ffffffffffffffff80821115610a49578687fd5b610a558d838e0161096d565b985060608c0135915080821115610a6a578687fd5b50610a778c828d0161096d565b9650508a609f8b0112610a88578485fd5b610a9a610a95600c610f19565b610eef565b8060808c016102008d018e811115610ab0578889fd5b885b600c811015610acf57823585529385019391850191600101610ab2565b50829850610add8f826108e6565b97505050505050610af28a6103008b016108e6565b9150610b016104008a0161095d565b90509295985092959890939650565b600060208284031215610b21578081fd5b5035919050565b8060005b600c811015610b4b578151845260209384019390910190600101610b2c565b50505050565b8060005b6008811015610b4b578151845260209384019390910190600101610b55565b15159052565b60008151808452815b81811015610b9f57602081850181015186830182015201610b83565b81811115610bb05782602083870101525b50601f01601f19169290920160200192915050565b6001600160a01b0391909116815260200190565b901515815260200190565b60006103e0808352610bf88184018a610b7a565b90508281036020840152610c0c8189610b7a565b915050610c1c6040830187610b28565b610c2a6101c0830186610b51565b610c386102c0830185610b51565b8215156103c0830152979650505050505050565b60006104c0808352610c608184018e610b7a565b9050602083820381850152610c75828e610b7a565b6001600160a01b038d811660408701528c811660608701528b81166080870152909350915060a084018960005b6004811015610cc1578151851683529183019190830190600101610ca2565b5050505050610cd4610120830187610b28565b610ce26102a0830186610b51565b610cf06103a0830185610b51565b610cfe6104a0830184610b74565b9b9a5050505050505050505050565b6020808252601f908201527f526f6c65733a206163636f756e7420616c72656164792068617320726f6c6500604082015260600190565b60208082526027908201527f303432302054617820636f6e6e6f74206265206f7665722031303025202831306040820152663030302042502960c81b606082015260800190565b6020808252600490820152630303431360e41b604082015260600190565b6020808252603a908201527f506f6f6c43726561746f72526f6c653a2063616c6c657220646f6573206e6f7460408201527f20686176652074686520506f6f6c43726561746f7220726f6c65000000000000606082015260800190565b6020808252603d908201527f5468697320616464726573732069732074686520696d706c656d656e7461746960408201527f6f6e207468617420697320616c7265616479206265696e672075736564000000606082015260800190565b60208082526021908201527f526f6c65733a206163636f756e7420646f6573206e6f74206861766520726f6c6040820152606560f81b606082015260800190565b60208082526022908201527f526f6c65733a206163636f756e7420697320746865207a65726f206164647265604082015261737360f01b606082015260800190565b90815260200190565b60405181810167ffffffffffffffff81118282101715610f1157610f11610f3a565b604052919050565b600067ffffffffffffffff821115610f3357610f33610f3a565b5060200290565b634e487b7160e01b600052604160045260246000fdfe608060405234801561001057600080fd5b50606b80546001600160a01b03191633179055608f805460ff60301b191666010000000000001790556121c2806100486000396000f3fe6080604052600436106103035760003560e01c806395c2ba4711610190578063de09ee20116100dc578063f0141d8411610095578063f3d9dc0d1161006f578063f3d9dc0d14610838578063f5e96fc91461084d578063f8eeed6214610862578063fd5e6dd1146108775761030a565b8063f0141d84146107c8578063f1b17a8b146107ea578063f2fde38b146108185761030a565b8063de09ee201461071a578063e081866914610748578063e425df8c14610774578063e68b52e714610789578063e8153c931461079e578063eb850ae1146107b35761030a565b8063aa7bcb5711610149578063c120105411610123578063c1201054146106c6578063c6c1decd146106db578063d025188b146106f0578063d7efb6b7146107055761030a565b8063aa7bcb5714610687578063b1dd61b61461069c578063bece7532146106b15761030a565b806395c2ba47146105f1578063996c6cc314610606578063a08b2c791461061b578063a35ef3a714610630578063a4e2d63414610652578063a8f7b346146106675761030a565b80636847d0c51161024f5780637f2b6a0d11610208578063869eb310116101e2578063869eb310146105925780638cf0e21e146105b25780638da5cb5b146105c75780638e15f473146105dc5761030a565b80637f2b6a0d14610533578063817b1cd214610548578063850fa7cb1461055d5761030a565b80636847d0c5146104b55780636b036f45146104ca578063715018a6146104df578063725c9c49146104f457806373f3170314610509578063785fa6271461051e5761030a565b80633659cfe6116102bc5780634bc4eeb2116102965780634bc4eeb2146104615780634e8bfdaa1461047657806351eacbf01461048b57806367fc9138146104a05761030a565b80633659cfe61461040157806337c4f6a4146104215780633fcdd82c146104415761030a565b80630d668087146103445780630f4ef8a61461036f57806322f3e2d414610391578063238a6c74146103b357806328016f9a146103d55780632aa8195e146103ec5761030a565b3661030a57005b606a546001600160a01b03168061032057600080fd5b3660008037600080366000845af43d6000803e80801561033f573d6000f35b3d6000fd5b34801561035057600080fd5b50610359610897565b6040516103669190611ffa565b60405180910390f35b34801561037b57600080fd5b5061038461089d565b6040516103669190611da9565b34801561039d57600080fd5b506103a66108ac565b6040516103669190611de9565b3480156103bf57600080fd5b506103c86108bb565b6040516103669190611df4565b3480156103e157600080fd5b506103ea610949565b005b3480156103f857600080fd5b506103846109a6565b34801561040d57600080fd5b506103ea61041c366004611a99565b6109b5565b34801561042d57600080fd5b506103ea61043c366004611a99565b610a4f565b34801561044d57600080fd5b5061035961045c366004611cc6565b610ae0565b34801561046d57600080fd5b506103a6610ba4565b34801561048257600080fd5b50610359610bb2565b34801561049757600080fd5b50610359610bb8565b3480156104ac57600080fd5b506103ea610bbe565b3480156104c157600080fd5b50610359610c0c565b3480156104d657600080fd5b50610359610c12565b3480156104eb57600080fd5b506103ea610c18565b34801561050057600080fd5b50610384610c63565b34801561051557600080fd5b50610359610c72565b34801561052a57600080fd5b50610359610c78565b34801561053f57600080fd5b506103a6610c7e565b34801561055457600080fd5b50610359610c8f565b34801561056957600080fd5b5061057d610578366004611b06565b610c95565b60405161036699989796959493929190612032565b34801561059e57600080fd5b506103ea6105ad366004611bd8565b610d03565b3480156105be57600080fd5b506103a661107e565b3480156105d357600080fd5b5061038461108e565b3480156105e857600080fd5b5061035961109d565b3480156105fd57600080fd5b50610359611144565b34801561061257600080fd5b50610384611149565b34801561062757600080fd5b506103a6611158565b34801561063c57600080fd5b50610645611161565b6040516103669190611dd6565b34801561065e57600080fd5b506103a6611210565b34801561067357600080fd5b506103ea610682366004611abc565b611220565b34801561069357600080fd5b506103596112d5565b3480156106a857600080fd5b506103c86112db565b3480156106bd57600080fd5b506103846112e8565b3480156106d257600080fd5b506103596112f7565b3480156106e757600080fd5b5061038461137d565b3480156106fc57600080fd5b5061035961138c565b34801561071157600080fd5b506103a6611392565b34801561072657600080fd5b5061073a610735366004611cc6565b6113a4565b604051610366929190611dbd565b34801561075457600080fd5b5061075d6113dc565b6040516103669b9a99989796959493929190612075565b34801561078057600080fd5b50610359611409565b34801561079557600080fd5b5061035961140f565b3480156107aa57600080fd5b50610384611415565b3480156107bf57600080fd5b50610359611424565b3480156107d457600080fd5b506107dd61142a565b60405161036691906120c7565b3480156107f657600080fd5b5061080a610805366004611cc6565b6114b3565b604051610366929190612024565b34801561082457600080fd5b506103ea610833366004611a99565b6114e1565b34801561084457600080fd5b50610359611552565b34801561085957600080fd5b50610384611558565b34801561086e57600080fd5b50610359611567565b34801561088357600080fd5b5061073a610892366004611cc6565b61156d565b60815481565b607c546001600160a01b031681565b608f5462010000900460ff1681565b607e80546108c8906120ff565b80601f01602080910402602001604051908101604052809291908181526020018280546108f4906120ff565b80156109415780601f1061091657610100808354040283529160200191610941565b820191906000526020600020905b81548152906001019060200180831161092457829003601f168201915b505050505081565b61095161157d565b6001600160a01b031661096261108e565b6001600160a01b0316146109915760405162461bcd60e51b815260040161098890611f49565b60405180910390fd5b608f805460ff60301b1916600160301b179055565b606a546001600160a01b031681565b606b546001600160a01b031633146109df5760405162461bcd60e51b815260040161098890611fc3565b608f54600160301b900460ff16610a085760405162461bcd60e51b815260040161098890611e47565b606a546001600160a01b0382811691161415610a365760405162461bcd60e51b815260040161098890611ec4565b610a3f81611581565b50608f805460ff60301b19169055565b600054610100900460ff1680610a68575060005460ff16155b610a845760405162461bcd60e51b815260040161098890611efb565b600054610100900460ff16158015610aaf576000805460ff1961ff0019909116610100171660011790555b606580546001600160a01b0319166001600160a01b0384161790558015610adc576000805461ff00191690555b5050565b60675460009081906001600160a01b031663d06ca61f84610aff611161565b6040518363ffffffff1660e01b8152600401610b1c929190612003565b60006040518083038186803b158015610b3457600080fd5b505afa158015610b48573d6000803e3d6000fd5b505050506040513d6000823e601f3d908101601f19168201604052610b709190810190611b31565b905080600181518110610b9357634e487b7160e01b600052603260045260246000fd5b60200260200101519150505b919050565b608f54610100900460ff1681565b60825481565b60835481565b610bc661157d565b6001600160a01b0316610bd761108e565b6001600160a01b031614610bfd5760405162461bcd60e51b815260040161098890611f49565b608f805460ff60301b19169055565b60875481565b60885481565b610c2061157d565b6001600160a01b0316610c3161108e565b6001600160a01b031614610c575760405162461bcd60e51b815260040161098890611f49565b610c6160006115c8565b565b6067546001600160a01b031690565b60865481565b60855481565b608f54640100000000900460ff1681565b60895481565b607a6020528160005260406000208181548110610cb157600080fd5b6000918252602090912060089091020180546001820154600283015460038401546004850154600586015460068701546007909701549598509396509194909391929160ff8082169161010090041689565b600054610100900460ff1680610d1c575060005460ff16155b610d385760405162461bcd60e51b815260040161098890611efb565b600054610100900460ff16158015610d63576000805460ff1961ff0019909116610100171660011790555b606b546001600160a01b03163314610d8d5760405162461bcd60e51b815260040161098890611fc3565b610d9561161a565b610d9d61169e565b6040860151610dab90610a4f565b855160208701516060880151610dc2929190611220565b84514210610de25760405162461bcd60e51b815260040161098890611f7e565b8a51610df590607e9060208e019061180b565b508951610e0990607f9060208d019061180b565b50607b80546001600160a01b03808c166001600160a01b031992831617909255607c80548b8416908316179055606b8054928a1692909116919091179055610e578660016020020151611706565b604086810151606c80546001600160a01b03199081166001600160a01b039384169081179092556060808b0151607d8054909316941693909317905587516080908155602089015160825592880151608155908701516083559086015160845560a086015160855560c086015160865560e0860151608b55610100860151608c55610120860151608755610140860151608855610efc57610160850151608e55610f0b565b610f0461142a565b60ff16608e555b608f805461ff0019166101008415150217905560005b6008811015610ff157838160088110610f4a57634e487b7160e01b600052603260045260246000fd5b6020020151610f5857610ff1565b60776040518060400160405280878460088110610f8557634e487b7160e01b600052603260045260246000fd5b60200201518152602001868460088110610faf57634e487b7160e01b600052603260045260246000fd5b60209081029190910151909152825460018181018555600094855293829020835160029092020190815591015191015580610fe98161213a565b915050610f21565b50608054606d55608154606e55608254606f55608a54607055608654607155608554607255608454607355608d54607455608f546076805460ff191661010080840460ff90811615159290921761ff00191664010000000090940491909116151502919091179055608e546075558015611071576000805461ff00191690555b5050505050505050505050565b608f54600160301b900460ff1681565b6033546001600160a01b031690565b600080606560009054906101000a90046001600160a01b03166001600160a01b031663feaf968c6040518163ffffffff1660e01b815260040160a06040518083038186803b1580156110ee57600080fd5b505afa158015611102573d6000803e3d6000fd5b505050506040513d601f19601f820116820180604052508101906111269190611cf6565b505050915050600081121561113c57600061113e565b805b91505090565b600581565b607d546001600160a01b031681565b608f5460ff1681565b60408051600280825260608083018452926000929190602083019080368337505060685482519293506001600160a01b0316918391506000906111b457634e487b7160e01b600052603260045260246000fd5b6001600160a01b0392831660209182029290920101526069548251911690829060019081106111f357634e487b7160e01b600052603260045260246000fd5b6001600160a01b0390921660209283029190910190910152905090565b608f546301000000900460ff1681565b600054610100900460ff1680611239575060005460ff16155b6112555760405162461bcd60e51b815260040161098890611efb565b600054610100900460ff16158015611280576000805460ff1961ff0019909116610100171660011790555b606780546001600160a01b038087166001600160a01b03199283161790925560688054868416908316179055606980549285169290911691909117905580156112cf576000805461ff00191690555b50505050565b60845481565b607f80546108c8906120ff565b606c546001600160a01b031681565b6066546040516370a0823160e01b81526000916001600160a01b0316906370a0823190611328903090600401611da9565b60206040518083038186803b15801561134057600080fd5b505afa158015611354573d6000803e3d6000fd5b505050506040513d601f19601f820116820180604052508101906113789190611cde565b905090565b606b546001600160a01b031681565b608a5481565b608f5465010000000000900460ff1681565b607981815481106113b457600080fd5b6000918252602090912060029091020180546001909101546001600160a01b03909116915082565b606d54606e54606f5460705460715460725460735460745460755460765460ff808216916101009004168b565b608b5481565b608e5481565b607b546001600160a01b031681565b608c5481565b600080606560009054906101000a90046001600160a01b03166001600160a01b031663313ce5676040518163ffffffff1660e01b815260040160206040518083038186803b15801561147b57600080fd5b505afa15801561148f573d6000803e3d6000fd5b505050506040513d601f19601f8201168201806040525081019061113e9190611d45565b607781815481106114c357600080fd5b60009182526020909120600290910201805460019091015490915082565b6114e961157d565b6001600160a01b03166114fa61108e565b6001600160a01b0316146115205760405162461bcd60e51b815260040161098890611f49565b6001600160a01b0381166115465760405162461bcd60e51b815260040161098890611e7e565b61154f816115c8565b50565b608d5481565b6066546001600160a01b031690565b60805481565b607881815481106113b457600080fd5b3390565b606a80546001600160a01b0319166001600160a01b0383161790556040517f3dab95f89f74034beeac9f9fe9bec350186cb958223e1791afb0dbb64859cabd90600090a150565b603380546001600160a01b038381166001600160a01b0319831681179093556040519116919082907f8be0079c531659141344cd1fd0a4f28419497f9722a3daafe3b4186f6b6457e090600090a35050565b600054610100900460ff1680611633575060005460ff16155b61164f5760405162461bcd60e51b815260040161098890611efb565b600054610100900460ff1615801561167a576000805460ff1961ff0019909116610100171660011790555b611682611728565b61168a61179b565b801561154f576000805461ff001916905550565b600054610100900460ff16806116b7575060005460ff16155b6116d35760405162461bcd60e51b815260040161098890611efb565b600054610100900460ff161580156116fe576000805460ff1961ff0019909116610100171660011790555b61168a611728565b606680546001600160a01b0319166001600160a01b0392909216919091179055565b600054610100900460ff1680611741575060005460ff16155b61175d5760405162461bcd60e51b815260040161098890611efb565b600054610100900460ff1615801561168a576000805460ff1961ff001990911661010017166001179055801561154f576000805461ff001916905550565b600054610100900460ff16806117b4575060005460ff16155b6117d05760405162461bcd60e51b815260040161098890611efb565b600054610100900460ff161580156117fb576000805460ff1961ff0019909116610100171660011790555b61168a61180661157d565b6115c8565b828054611817906120ff565b90600052602060002090601f016020900481019282611839576000855561187f565b82601f1061185257805160ff191683800117855561187f565b8280016001018555821561187f579182015b8281111561187f578251825591602001919060010190611864565b5061188b92915061188f565b5090565b5b8082111561188b5760008155600101611890565b8035610b9f81612177565b600082601f8301126118bf578081fd5b6040516080810181811067ffffffffffffffff821117156118e2576118e2612161565b6040528083608081018610156118f6578384fd5b835b600481101561192157813561190c81612177565b835260209283019291909101906001016118f8565b509195945050505050565b600082601f83011261193c578081fd5b60405161018080820182811067ffffffffffffffff8211171561196157611961612161565b6040528184828101871015611974578485fd5b8492505b600c83101561192157803582526001929092019160209182019101611978565b600082601f8301126119a8578081fd5b60405161010080820182811067ffffffffffffffff821117156119cd576119cd612161565b60405281848281018710156119e0578485fd5b8492505b6008831015611921578035825260019290920191602091820191016119e4565b80358015158114610b9f57600080fd5b600082601f830112611a24578081fd5b813567ffffffffffffffff811115611a3e57611a3e612161565b611a51601f8201601f19166020016120d5565b818152846020838601011115611a65578283fd5b816020850160208301379081016020019190915292915050565b805169ffffffffffffffffffff81168114610b9f57600080fd5b600060208284031215611aaa578081fd5b8135611ab581612177565b9392505050565b600080600060608486031215611ad0578182fd5b8335611adb81612177565b92506020840135611aeb81612177565b91506040840135611afb81612177565b809150509250925092565b60008060408385031215611b18578182fd5b8235611b2381612177565b946020939093013593505050565b60006020808385031215611b43578182fd5b825167ffffffffffffffff80821115611b5a578384fd5b818501915085601f830112611b6d578384fd5b815181811115611b7f57611b7f612161565b8381029150611b8f8483016120d5565b8181528481019084860184860187018a1015611ba9578788fd5b8795505b83861015611bcb578051835260019590950194918601918601611bad565b5098975050505050505050565b6000806000806000806000806000806104c08b8d031215611bf7578586fd5b8a3567ffffffffffffffff80821115611c0e578788fd5b611c1a8e838f01611a14565b9b5060208d0135915080821115611c2f578788fd5b50611c3c8d828e01611a14565b995050611c4b60408c016118a4565b9750611c5960608c016118a4565b9650611c6760808c016118a4565b9550611c768c60a08d016118af565b9450611c868c6101208d0161192c565b9350611c968c6102a08d01611998565b9250611ca68c6103a08d01611998565b9150611cb56104a08c01611a04565b90509295989b9194979a5092959850565b600060208284031215611cd7578081fd5b5035919050565b600060208284031215611cef578081fd5b5051919050565b600080600080600060a08688031215611d0d578283fd5b611d1686611a7f565b9450602086015193506040860151925060608601519150611d3960808701611a7f565b90509295509295909350565b600060208284031215611d56578081fd5b815160ff81168114611ab5578182fd5b6000815180845260208085019450808401835b83811015611d9e5781516001600160a01b031687529582019590820190600101611d79565b509495945050505050565b6001600160a01b0391909116815260200190565b6001600160a01b03929092168252602082015260400190565b600060208252611ab56020830184611d66565b901515815260200190565b6000602080835283518082850152825b81811015611e2057858101830151858201604001528201611e04565b81811115611e315783604083870101525b50601f01601f1916929092016040019392505050565b6020808252601a908201527f55706772616465206973206e6f7420656e61626c656420796574000000000000604082015260600190565b60208082526026908201527f4f776e61626c653a206e6577206f776e657220697320746865207a65726f206160408201526564647265737360d01b606082015260800190565b6020808252601d908201527f497320616c72656164792074686520696d706c656d656e746174696f6e000000604082015260600190565b6020808252602e908201527f496e697469616c697a61626c653a20636f6e747261637420697320616c72656160408201526d191e481a5b9a5d1a585b1a5e995960921b606082015260800190565b6020808252818101527f4f776e61626c653a2063616c6c6572206973206e6f7420746865206f776e6572604082015260600190565b60208082526025908201527f30333031206c61756e636820646174652063616e277420626520696e20746865604082015264081c185cdd60da1b606082015260800190565b6020808252601a908201527f6d73672e73656e646572206973206e6f7420616e206f776e6572000000000000604082015260600190565b90815260200190565b60008382526040602083015261201c6040830184611d66565b949350505050565b918252602082015260400190565b988952602089019790975260408801959095526060870193909352608086019190915260a085015260c0840152151560e083015215156101008201526101200190565b9a8b5260208b019990995260408a01979097526060890195909552608088019390935260a087019190915260c086015260e0850152610100840152151561012083015215156101408201526101600190565b60ff91909116815260200190565b60405181810167ffffffffffffffff811182821017156120f7576120f7612161565b604052919050565b60028104600182168061211357607f821691505b6020821081141561213457634e487b7160e01b600052602260045260246000fd5b50919050565b600060001982141561215a57634e487b7160e01b81526011600452602481fd5b5060010190565b634e487b7160e01b600052604160045260246000fd5b6001600160a01b038116811461154f57600080fdfea26469706673582212208941e253e87cdd920dc2e7b088fc78d8c0047f31483a1848e7336ca4ad74a59464736f6c63430008000033a26469706673582212202fedb59b04502d078690feab09664d1483582af6dcefb5726795ffedf567577364736f6c63430008000033",
  "linkReferences": {},
  "deployedLinkReferences": {},
  "devdoc": {
    "events": {
      "PoolCreated(address,string,string,uint256[12],uint256[8],uint256[8],bool)": {
        "params": {
          "variables": "The StakingPoolProxy is created with these specs: variables[0] = launchDate variables[1] = maturityTime variables[2] = lockTime variables[3] = sizeAllocation variables[4] = stakeApr variables[5] = prizeAmount variables[6] = usdPrizeAmount variables[7] = potentialCollabReward variables[8] = collaborativeRange variables[9] = stakingPoolTaxRate variables[10] = minimumStakeAmount variables[11] = oracleDeciamls"
        }
      }
    },
    "kind": "dev",
    "methods": {
      "createPoolProxy(address,address,string,string,uint256[12],uint256[8],uint256[8],bool)": {
        "params": {
          "_variables": "The StakingPoolProxy is created with these specs: variables[0] = launchDate variables[1] = maturityTime variables[2] = lockTime variables[3] = sizeAllocation variables[4] = stakeApr variables[5] = prizeAmount variables[6] = usdPrizeAmount variables[7] = potentialCollabReward variables[8] = collaborativeRange variables[9] = stakingPoolTaxRate variables[10] = minimumStakeAmount variables[11] = oracleDeciamls"
        }
      },
      "setNewStakingPoolImplementationAdr(address)": {
        "params": {
          "_ImpAdr": "address of the new StakingPoolImplementation contract."
        }
      }
    },
    "version": 1
  },
  "evm": {
    "bytecode": {
      "linkReferences": {},
      "opcodes": "PUSH1 0x80 PUSH1 0x40 MSTORE CALLVALUE DUP1 ISZERO PUSH3 0x11 JUMPI PUSH1 0x0 DUP1 REVERT JUMPDEST POP PUSH1 0x40 MLOAD PUSH3 0x34BD CODESIZE SUB DUP1 PUSH3 0x34BD DUP4 CODECOPY DUP2 ADD PUSH1 0x40 DUP2 SWAP1 MSTORE PUSH3 0x34 SWAP2 PUSH3 0x1F8 JUMP JUMPDEST PUSH3 0x48 PUSH3 0x42 PUSH3 0xDA JUMP JUMPDEST PUSH3 0xDE JUMP JUMPDEST PUSH3 0x61 JUMPI PUSH3 0x61 PUSH3 0x5B PUSH3 0xDA JUMP JUMPDEST PUSH3 0x101 JUMP JUMPDEST PUSH1 0x1 DUP1 SLOAD PUSH1 0x1 PUSH1 0x1 PUSH1 0xA0 SHL SUB NOT SWAP1 DUP2 AND PUSH1 0x1 PUSH1 0x1 PUSH1 0xA0 SHL SUB SWAP9 DUP10 AND OR SWAP1 SWAP2 SSTORE PUSH1 0x2 DUP1 SLOAD DUP3 AND SWAP7 DUP9 AND SWAP7 SWAP1 SWAP7 OR SWAP1 SWAP6 SSTORE PUSH1 0x5 DUP1 SLOAD DUP7 AND SWAP5 DUP8 AND SWAP5 SWAP1 SWAP5 OR SWAP1 SWAP4 SSTORE PUSH1 0x6 DUP1 SLOAD DUP6 AND SWAP3 DUP7 AND SWAP3 SWAP1 SWAP3 OR SWAP1 SWAP2 SSTORE PUSH1 0x4 DUP1 SLOAD DUP5 AND SWAP2 DUP6 AND SWAP2 SWAP1 SWAP2 OR SWAP1 SSTORE PUSH1 0x3 DUP1 SLOAD SWAP1 SWAP3 AND SWAP3 AND SWAP2 SWAP1 SWAP2 OR SWAP1 SSTORE PUSH2 0x12C PUSH1 0x7 SSTORE PUSH3 0x31D JUMP JUMPDEST CALLER SWAP1 JUMP JUMPDEST PUSH1 0x0 PUSH3 0xFB DUP3 PUSH1 0x0 PUSH3 0x153 PUSH1 0x20 SHL PUSH3 0x67F OR SWAP1 SWAP2 SWAP1 PUSH1 0x20 SHR JUMP JUMPDEST SWAP3 SWAP2 POP POP JUMP JUMPDEST PUSH3 0x11C DUP2 PUSH1 0x0 PUSH3 0x1A7 PUSH1 0x20 SHL PUSH3 0x6C7 OR SWAP1 SWAP2 SWAP1 PUSH1 0x20 SHR JUMP JUMPDEST PUSH1 0x40 MLOAD PUSH1 0x1 PUSH1 0x1 PUSH1 0xA0 SHL SUB DUP3 AND SWAP1 PUSH32 0xAC89BB7B3D0C5A763A97F31BC75F8FAEE00426E7B235F02CA76897D55CAF7B61 SWAP1 PUSH1 0x0 SWAP1 LOG2 POP JUMP JUMPDEST PUSH1 0x0 PUSH1 0x1 PUSH1 0x1 PUSH1 0xA0 SHL SUB DUP3 AND PUSH3 0x187 JUMPI PUSH1 0x40 MLOAD PUSH3 0x461BCD PUSH1 0xE5 SHL DUP2 MSTORE PUSH1 0x4 ADD PUSH3 0x17E SWAP1 PUSH3 0x2C2 JUMP JUMPDEST PUSH1 0x40 MLOAD DUP1 SWAP2 SUB SWAP1 REVERT JUMPDEST POP PUSH1 0x1 PUSH1 0x1 PUSH1 0xA0 SHL SUB AND PUSH1 0x0 SWAP1 DUP2 MSTORE PUSH1 0x20 SWAP2 SWAP1 SWAP2 MSTORE PUSH1 0x40 SWAP1 KECCAK256 SLOAD PUSH1 0xFF AND SWAP1 JUMP JUMPDEST PUSH3 0x1B3 DUP3 DUP3 PUSH3 0x153 JUMP JUMPDEST ISZERO PUSH3 0x1D3 JUMPI PUSH1 0x40 MLOAD PUSH3 0x461BCD PUSH1 0xE5 SHL DUP2 MSTORE PUSH1 0x4 ADD PUSH3 0x17E SWAP1 PUSH3 0x28B JUMP JUMPDEST PUSH1 0x1 PUSH1 0x1 PUSH1 0xA0 SHL SUB AND PUSH1 0x0 SWAP1 DUP2 MSTORE PUSH1 0x20 SWAP2 SWAP1 SWAP2 MSTORE PUSH1 0x40 SWAP1 KECCAK256 DUP1 SLOAD PUSH1 0xFF NOT AND PUSH1 0x1 OR SWAP1 SSTORE JUMP JUMPDEST PUSH1 0x0 DUP1 PUSH1 0x0 DUP1 PUSH1 0x0 DUP1 PUSH1 0xC0 DUP8 DUP10 SUB SLT ISZERO PUSH3 0x211 JUMPI DUP2 DUP3 REVERT JUMPDEST DUP7 MLOAD PUSH3 0x21E DUP2 PUSH3 0x304 JUMP JUMPDEST PUSH1 0x20 DUP9 ADD MLOAD SWAP1 SWAP7 POP PUSH3 0x231 DUP2 PUSH3 0x304 JUMP JUMPDEST PUSH1 0x40 DUP9 ADD MLOAD SWAP1 SWAP6 POP PUSH3 0x244 DUP2 PUSH3 0x304 JUMP JUMPDEST PUSH1 0x60 DUP9 ADD MLOAD SWAP1 SWAP5 POP PUSH3 0x257 DUP2 PUSH3 0x304 JUMP JUMPDEST PUSH1 0x80 DUP9 ADD MLOAD SWAP1 SWAP4 POP PUSH3 0x26A DUP2 PUSH3 0x304 JUMP JUMPDEST PUSH1 0xA0 DUP9 ADD MLOAD SWAP1 SWAP3 POP PUSH3 0x27D DUP2 PUSH3 0x304 JUMP JUMPDEST DUP1 SWAP2 POP POP SWAP3 SWAP6 POP SWAP3 SWAP6 POP SWAP3 SWAP6 JUMP JUMPDEST PUSH1 0x20 DUP1 DUP3 MSTORE PUSH1 0x1F SWAP1 DUP3 ADD MSTORE PUSH32 0x526F6C65733A206163636F756E7420616C72656164792068617320726F6C6500 PUSH1 0x40 DUP3 ADD MSTORE PUSH1 0x60 ADD SWAP1 JUMP JUMPDEST PUSH1 0x20 DUP1 DUP3 MSTORE PUSH1 0x22 SWAP1 DUP3 ADD MSTORE PUSH32 0x526F6C65733A206163636F756E7420697320746865207A65726F206164647265 PUSH1 0x40 DUP3 ADD MSTORE PUSH2 0x7373 PUSH1 0xF0 SHL PUSH1 0x60 DUP3 ADD MSTORE PUSH1 0x80 ADD SWAP1 JUMP JUMPDEST PUSH1 0x1 PUSH1 0x1 PUSH1 0xA0 SHL SUB DUP2 AND DUP2 EQ PUSH3 0x31A JUMPI PUSH1 0x0 DUP1 REVERT JUMPDEST POP JUMP JUMPDEST PUSH2 0x3190 DUP1 PUSH3 0x32D PUSH1 0x0 CODECOPY PUSH1 0x0 RETURN INVALID PUSH1 0x80 PUSH1 0x40 MSTORE CALLVALUE DUP1 ISZERO PUSH2 0x10 JUMPI PUSH1 0x0 DUP1 REVERT JUMPDEST POP PUSH1 0x4 CALLDATASIZE LT PUSH2 0x100 JUMPI PUSH1 0x0 CALLDATALOAD PUSH1 0xE0 SHR DUP1 PUSH4 0xB6C3EF27 GT PUSH2 0x97 JUMPI DUP1 PUSH4 0xD53B245B GT PUSH2 0x66 JUMPI DUP1 PUSH4 0xD53B245B EQ PUSH2 0x1D9 JUMPI DUP1 PUSH4 0xE281CC7E EQ PUSH2 0x1EC JUMPI DUP1 PUSH4 0xE8153C93 EQ PUSH2 0x1F4 JUMPI DUP1 PUSH4 0xF897A22B EQ PUSH2 0x1FC JUMPI PUSH2 0x100 JUMP JUMPDEST DUP1 PUSH4 0xB6C3EF27 EQ PUSH2 0x1A3 JUMPI DUP1 PUSH4 0xBC8A0669 EQ PUSH2 0x1B6 JUMPI DUP1 PUSH4 0xC31C9C07 EQ PUSH2 0x1BE JUMPI DUP1 PUSH4 0xCEBA6F8D EQ PUSH2 0x1C6 JUMPI PUSH2 0x100 JUMP JUMPDEST DUP1 PUSH4 0x49A84429 GT PUSH2 0xD3 JUMPI DUP1 PUSH4 0x49A84429 EQ PUSH2 0x155 JUMPI DUP1 PUSH4 0x6B036F45 EQ PUSH2 0x168 JUMPI DUP1 PUSH4 0x8C2D741C EQ PUSH2 0x170 JUMPI DUP1 PUSH4 0x9A94775D EQ PUSH2 0x183 JUMPI PUSH2 0x100 JUMP JUMPDEST DUP1 PUSH4 0xF4EF8A6 EQ PUSH2 0x105 JUMPI DUP1 PUSH4 0x29575F6A EQ PUSH2 0x123 JUMPI DUP1 PUSH4 0x41273657 EQ PUSH2 0x12B JUMPI DUP1 PUSH4 0x441F5C65 EQ PUSH2 0x140 JUMPI JUMPDEST PUSH1 0x0 DUP1 REVERT JUMPDEST PUSH2 0x10D PUSH2 0x204 JUMP JUMPDEST PUSH1 0x40 MLOAD PUSH2 0x11A SWAP2 SWAP1 PUSH2 0xBC5 JUMP JUMPDEST PUSH1 0x40 MLOAD DUP1 SWAP2 SUB SWAP1 RETURN JUMPDEST PUSH2 0x10D PUSH2 0x213 JUMP JUMPDEST PUSH2 0x13E PUSH2 0x139 CALLDATASIZE PUSH1 0x4 PUSH2 0x9D8 JUMP JUMPDEST PUSH2 0x222 JUMP JUMPDEST STOP JUMPDEST PUSH2 0x148 PUSH2 0x29A JUMP JUMPDEST PUSH1 0x40 MLOAD PUSH2 0x11A SWAP2 SWAP1 PUSH2 0xEE6 JUMP JUMPDEST PUSH2 0x13E PUSH2 0x163 CALLDATASIZE PUSH1 0x4 PUSH2 0x9D8 JUMP JUMPDEST PUSH2 0x2A0 JUMP JUMPDEST PUSH2 0x148 PUSH2 0x33C JUMP JUMPDEST PUSH2 0x13E PUSH2 0x17E CALLDATASIZE PUSH1 0x4 PUSH2 0x9D8 JUMP JUMPDEST PUSH2 0x342 JUMP JUMPDEST PUSH2 0x196 PUSH2 0x191 CALLDATASIZE PUSH1 0x4 PUSH2 0x9D8 JUMP JUMPDEST PUSH2 0x375 JUMP JUMPDEST PUSH1 0x40 MLOAD PUSH2 0x11A SWAP2 SWAP1 PUSH2 0xBD9 JUMP JUMPDEST PUSH2 0x13E PUSH2 0x1B1 CALLDATASIZE PUSH1 0x4 PUSH2 0x9D8 JUMP JUMPDEST PUSH2 0x389 JUMP JUMPDEST PUSH2 0x10D PUSH2 0x3F7 JUMP JUMPDEST PUSH2 0x10D PUSH2 0x406 JUMP JUMPDEST PUSH2 0x10D PUSH2 0x1D4 CALLDATASIZE PUSH1 0x4 PUSH2 0x9F9 JUMP JUMPDEST PUSH2 0x415 JUMP JUMPDEST PUSH2 0x13E PUSH2 0x1E7 CALLDATASIZE PUSH1 0x4 PUSH2 0xB10 JUMP JUMPDEST PUSH2 0x602 JUMP JUMPDEST PUSH2 0x13E PUSH2 0x64F JUMP JUMPDEST PUSH2 0x10D PUSH2 0x661 JUMP JUMPDEST PUSH2 0x10D PUSH2 0x670 JUMP JUMPDEST PUSH1 0x2 SLOAD PUSH1 0x1 PUSH1 0x1 PUSH1 0xA0 SHL SUB AND DUP2 JUMP JUMPDEST PUSH1 0x3 SLOAD PUSH1 0x1 PUSH1 0x1 PUSH1 0xA0 SHL SUB AND DUP2 JUMP JUMPDEST PUSH2 0x22D PUSH2 0x191 PUSH2 0x713 JUMP JUMPDEST PUSH2 0x252 JUMPI PUSH1 0x40 MLOAD PUSH3 0x461BCD PUSH1 0xE5 SHL DUP2 MSTORE PUSH1 0x4 ADD PUSH2 0x249 SWAP1 PUSH2 0xDA9 JUMP JUMPDEST PUSH1 0x40 MLOAD DUP1 SWAP2 SUB SWAP1 REVERT JUMPDEST PUSH1 0x1 PUSH1 0x1 PUSH1 0xA0 SHL SUB DUP2 AND PUSH2 0x278 JUMPI PUSH1 0x40 MLOAD PUSH3 0x461BCD PUSH1 0xE5 SHL DUP2 MSTORE PUSH1 0x4 ADD PUSH2 0x249 SWAP1 PUSH2 0xD8B JUMP JUMPDEST PUSH1 0x5 DUP1 SLOAD PUSH1 0x1 PUSH1 0x1 PUSH1 0xA0 SHL SUB NOT AND PUSH1 0x1 PUSH1 0x1 PUSH1 0xA0 SHL SUB SWAP3 SWAP1 SWAP3 AND SWAP2 SWAP1 SWAP2 OR SWAP1 SSTORE JUMP JUMPDEST PUSH1 0x7 SLOAD DUP2 JUMP JUMPDEST PUSH2 0x2AB PUSH2 0x191 PUSH2 0x713 JUMP JUMPDEST PUSH2 0x2C7 JUMPI PUSH1 0x40 MLOAD PUSH3 0x461BCD PUSH1 0xE5 SHL DUP2 MSTORE PUSH1 0x4 ADD PUSH2 0x249 SWAP1 PUSH2 0xDA9 JUMP JUMPDEST PUSH1 0x4 SLOAD PUSH1 0x1 PUSH1 0x1 PUSH1 0xA0 SHL SUB DUP3 DUP2 AND SWAP2 AND EQ ISZERO PUSH2 0x2F5 JUMPI PUSH1 0x40 MLOAD PUSH3 0x461BCD PUSH1 0xE5 SHL DUP2 MSTORE PUSH1 0x4 ADD PUSH2 0x249 SWAP1 PUSH2 0xE06 JUMP JUMPDEST PUSH1 0x4 DUP1 SLOAD PUSH1 0x1 PUSH1 0x1 PUSH1 0xA0 SHL SUB NOT AND PUSH1 0x1 PUSH1 0x1 PUSH1 0xA0 SHL SUB DUP4 AND OR SWAP1 SSTORE PUSH1 0x40 MLOAD PUSH32 0x3199AB49607559567913D4714288FEE1E692C31829ED4722A6FD064ADBDC5B54 SWAP1 PUSH1 0x0 SWAP1 LOG1 POP JUMP JUMPDEST PUSH1 0x8 SLOAD DUP2 JUMP JUMPDEST PUSH2 0x34D PUSH2 0x191 PUSH2 0x713 JUMP JUMPDEST PUSH2 0x369 JUMPI PUSH1 0x40 MLOAD PUSH3 0x461BCD PUSH1 0xE5 SHL DUP2 MSTORE PUSH1 0x4 ADD PUSH2 0x249 SWAP1 PUSH2 0xDA9 JUMP JUMPDEST PUSH2 0x372 DUP2 PUSH2 0x717 JUMP JUMPDEST POP JUMP JUMPDEST PUSH1 0x0 PUSH2 0x381 DUP2 DUP4 PUSH2 0x67F JUMP JUMPDEST SWAP1 POP JUMPDEST SWAP2 SWAP1 POP JUMP JUMPDEST PUSH2 0x394 PUSH2 0x191 PUSH2 0x713 JUMP JUMPDEST PUSH2 0x3B0 JUMPI PUSH1 0x40 MLOAD PUSH3 0x461BCD PUSH1 0xE5 SHL DUP2 MSTORE PUSH1 0x4 ADD PUSH2 0x249 SWAP1 PUSH2 0xDA9 JUMP JUMPDEST PUSH1 0x3 DUP1 SLOAD PUSH1 0x1 PUSH1 0x1 PUSH1 0xA0 SHL SUB NOT AND PUSH1 0x1 PUSH1 0x1 PUSH1 0xA0 SHL SUB DUP4 AND OR SWAP1 SSTORE PUSH1 0x40 MLOAD PUSH32 0xB25686D5DE2544AA0F0235EA99DD20E962286BC9CEC2FB371B226A637BE461F7 SWAP1 PUSH1 0x0 SWAP1 LOG1 POP JUMP JUMPDEST PUSH1 0x4 SLOAD PUSH1 0x1 PUSH1 0x1 PUSH1 0xA0 SHL SUB AND DUP2 JUMP JUMPDEST PUSH1 0x5 SLOAD PUSH1 0x1 PUSH1 0x1 PUSH1 0xA0 SHL SUB AND DUP2 JUMP JUMPDEST PUSH1 0x0 PUSH2 0x422 PUSH2 0x191 PUSH2 0x713 JUMP JUMPDEST PUSH2 0x43E JUMPI PUSH1 0x40 MLOAD PUSH3 0x461BCD PUSH1 0xE5 SHL DUP2 MSTORE PUSH1 0x4 ADD PUSH2 0x249 SWAP1 PUSH2 0xDA9 JUMP JUMPDEST PUSH2 0x120 DUP6 ADD MLOAD PUSH2 0x452 JUMPI PUSH1 0x7 SLOAD PUSH2 0x120 DUP7 ADD MSTORE JUMPDEST PUSH1 0x0 PUSH1 0x40 MLOAD PUSH2 0x460 SWAP1 PUSH2 0x8C2 JUMP JUMPDEST PUSH1 0x40 MLOAD DUP1 SWAP2 SUB SWAP1 PUSH1 0x0 CREATE DUP1 ISZERO DUP1 ISZERO PUSH2 0x47C JUMPI RETURNDATASIZE PUSH1 0x0 DUP1 RETURNDATACOPY RETURNDATASIZE PUSH1 0x0 REVERT JUMPDEST POP PUSH1 0x4 DUP1 SLOAD PUSH1 0x40 MLOAD PUSH4 0x1B2CE7F3 PUSH1 0xE1 SHL DUP2 MSTORE SWAP3 SWAP4 POP DUP4 SWAP3 PUSH1 0x1 PUSH1 0x1 PUSH1 0xA0 SHL SUB DUP1 DUP6 AND SWAP4 PUSH4 0x3659CFE6 SWAP4 PUSH2 0x4B2 SWAP4 SWAP3 AND SWAP2 ADD PUSH2 0xBC5 JUMP JUMPDEST PUSH1 0x0 PUSH1 0x40 MLOAD DUP1 DUP4 SUB DUP2 PUSH1 0x0 DUP8 DUP1 EXTCODESIZE ISZERO DUP1 ISZERO PUSH2 0x4CC JUMPI PUSH1 0x0 DUP1 REVERT JUMPDEST POP GAS CALL ISZERO DUP1 ISZERO PUSH2 0x4E0 JUMPI RETURNDATASIZE PUSH1 0x0 DUP1 RETURNDATACOPY RETURNDATASIZE PUSH1 0x0 REVERT JUMPDEST POP POP PUSH1 0x40 DUP1 MLOAD PUSH1 0x80 DUP2 ADD DUP3 MSTORE PUSH1 0x5 SLOAD PUSH1 0x1 PUSH1 0x1 PUSH1 0xA0 SHL SUB SWAP1 DUP2 AND DUP3 MSTORE PUSH1 0x6 SLOAD DUP2 AND PUSH1 0x20 DUP4 ADD MSTORE DUP16 DUP2 AND SWAP3 DUP3 ADD SWAP3 SWAP1 SWAP3 MSTORE SWAP1 DUP14 AND PUSH1 0x60 DUP3 ADD MSTORE SWAP2 POP PUSH2 0x52C SWAP1 POP DUP2 DUP12 DUP12 DUP12 DUP12 DUP12 DUP12 DUP11 PUSH2 0x759 JUMP JUMPDEST PUSH1 0x3 SLOAD PUSH1 0x40 MLOAD PUSH4 0xF2FDE38B PUSH1 0xE0 SHL DUP2 MSTORE PUSH1 0x1 PUSH1 0x1 PUSH1 0xA0 SHL SUB DUP6 DUP2 AND SWAP3 PUSH4 0xF2FDE38B SWAP3 PUSH2 0x55E SWAP3 SWAP1 SWAP2 AND SWAP1 PUSH1 0x4 ADD PUSH2 0xBC5 JUMP JUMPDEST PUSH1 0x0 PUSH1 0x40 MLOAD DUP1 DUP4 SUB DUP2 PUSH1 0x0 DUP8 DUP1 EXTCODESIZE ISZERO DUP1 ISZERO PUSH2 0x578 JUMPI PUSH1 0x0 DUP1 REVERT JUMPDEST POP GAS CALL ISZERO DUP1 ISZERO PUSH2 0x58C JUMPI RETURNDATASIZE PUSH1 0x0 DUP1 RETURNDATACOPY RETURNDATASIZE PUSH1 0x0 REVERT JUMPDEST POP POP PUSH1 0x2 SLOAD PUSH1 0x40 MLOAD PUSH4 0xD914CD4B PUSH1 0xE0 SHL DUP2 MSTORE PUSH1 0x1 PUSH1 0x1 PUSH1 0xA0 SHL SUB SWAP1 SWAP2 AND SWAP3 POP PUSH4 0xD914CD4B SWAP2 POP PUSH2 0x5C0 SWAP1 DUP6 SWAP1 PUSH1 0x4 ADD PUSH2 0xBC5 JUMP JUMPDEST PUSH1 0x0 PUSH1 0x40 MLOAD DUP1 DUP4 SUB DUP2 PUSH1 0x0 DUP8 DUP1 EXTCODESIZE ISZERO DUP1 ISZERO PUSH2 0x5DA JUMPI PUSH1 0x0 DUP1 REVERT JUMPDEST POP GAS CALL ISZERO DUP1 ISZERO PUSH2 0x5EE JUMPI RETURNDATASIZE PUSH1 0x0 DUP1 RETURNDATACOPY RETURNDATASIZE PUSH1 0x0 REVERT JUMPDEST POP SWAP4 SWAP15 SWAP14 POP POP POP POP POP POP POP POP POP POP POP POP POP POP JUMP JUMPDEST PUSH2 0x60D PUSH2 0x191 PUSH2 0x713 JUMP JUMPDEST PUSH2 0x629 JUMPI PUSH1 0x40 MLOAD PUSH3 0x461BCD PUSH1 0xE5 SHL DUP2 MSTORE PUSH1 0x4 ADD PUSH2 0x249 SWAP1 PUSH2 0xDA9 JUMP JUMPDEST PUSH2 0x2710 DUP2 LT PUSH2 0x64A JUMPI PUSH1 0x40 MLOAD PUSH3 0x461BCD PUSH1 0xE5 SHL DUP2 MSTORE PUSH1 0x4 ADD PUSH2 0x249 SWAP1 PUSH2 0xD44 JUMP JUMPDEST PUSH1 0x7 SSTORE JUMP JUMPDEST PUSH2 0x65F PUSH2 0x65A PUSH2 0x713 JUMP JUMPDEST PUSH2 0x838 JUMP JUMPDEST JUMP JUMPDEST PUSH1 0x1 SLOAD PUSH1 0x1 PUSH1 0x1 PUSH1 0xA0 SHL SUB AND DUP2 JUMP JUMPDEST PUSH1 0x6 SLOAD PUSH1 0x1 PUSH1 0x1 PUSH1 0xA0 SHL SUB AND DUP2 JUMP JUMPDEST PUSH1 0x0 PUSH1 0x1 PUSH1 0x1 PUSH1 0xA0 SHL SUB DUP3 AND PUSH2 0x6A7 JUMPI PUSH1 0x40 MLOAD PUSH3 0x461BCD PUSH1 0xE5 SHL DUP2 MSTORE PUSH1 0x4 ADD PUSH2 0x249 SWAP1 PUSH2 0xEA4 JUMP JUMPDEST POP PUSH1 0x1 PUSH1 0x1 PUSH1 0xA0 SHL SUB AND PUSH1 0x0 SWAP1 DUP2 MSTORE PUSH1 0x20 SWAP2 SWAP1 SWAP2 MSTORE PUSH1 0x40 SWAP1 KECCAK256 SLOAD PUSH1 0xFF AND SWAP1 JUMP JUMPDEST PUSH2 0x6D1 DUP3 DUP3 PUSH2 0x67F JUMP JUMPDEST ISZERO PUSH2 0x6EE JUMPI PUSH1 0x40 MLOAD PUSH3 0x461BCD PUSH1 0xE5 SHL DUP2 MSTORE PUSH1 0x4 ADD PUSH2 0x249 SWAP1 PUSH2 0xD0D JUMP JUMPDEST PUSH1 0x1 PUSH1 0x1 PUSH1 0xA0 SHL SUB AND PUSH1 0x0 SWAP1 DUP2 MSTORE PUSH1 0x20 SWAP2 SWAP1 SWAP2 MSTORE PUSH1 0x40 SWAP1 KECCAK256 DUP1 SLOAD PUSH1 0xFF NOT AND PUSH1 0x1 OR SWAP1 SSTORE JUMP JUMPDEST CALLER SWAP1 JUMP JUMPDEST PUSH2 0x722 PUSH1 0x0 DUP3 PUSH2 0x6C7 JUMP JUMPDEST PUSH1 0x40 MLOAD PUSH1 0x1 PUSH1 0x1 PUSH1 0xA0 SHL SUB DUP3 AND SWAP1 PUSH32 0xAC89BB7B3D0C5A763A97F31BC75F8FAEE00426E7B235F02CA76897D55CAF7B61 SWAP1 PUSH1 0x0 SWAP1 LOG2 POP JUMP JUMPDEST PUSH1 0x1 SLOAD PUSH1 0x2 SLOAD PUSH1 0x1 PUSH1 0x1 PUSH1 0xA0 SHL SUB DUP1 DUP5 AND SWAP3 PUSH4 0x869EB310 SWAP3 DUP12 SWAP3 DUP12 SWAP3 DUP2 AND SWAP2 AND PUSH2 0x781 PUSH2 0x713 JUMP JUMPDEST DUP15 DUP13 DUP13 DUP13 DUP13 PUSH1 0x40 MLOAD DUP12 PUSH4 0xFFFFFFFF AND PUSH1 0xE0 SHL DUP2 MSTORE PUSH1 0x4 ADD PUSH2 0x7AB SWAP11 SWAP10 SWAP9 SWAP8 SWAP7 SWAP6 SWAP5 SWAP4 SWAP3 SWAP2 SWAP1 PUSH2 0xC4C JUMP JUMPDEST PUSH1 0x0 PUSH1 0x40 MLOAD DUP1 DUP4 SUB DUP2 PUSH1 0x0 DUP8 DUP1 EXTCODESIZE ISZERO DUP1 ISZERO PUSH2 0x7C5 JUMPI PUSH1 0x0 DUP1 REVERT JUMPDEST POP GAS CALL ISZERO DUP1 ISZERO PUSH2 0x7D9 JUMPI RETURNDATASIZE PUSH1 0x0 DUP1 RETURNDATACOPY RETURNDATASIZE PUSH1 0x0 REVERT JUMPDEST POP POP POP POP PUSH1 0x0 DUP2 SWAP1 POP DUP1 PUSH1 0x1 PUSH1 0x1 PUSH1 0xA0 SHL SUB AND PUSH32 0xD69CF3C5F6280DF773A744806DC6920BC09109EF4A352C0846F5EF35965DCA12 DUP10 DUP10 DUP10 DUP10 DUP10 DUP10 PUSH1 0x40 MLOAD PUSH2 0x825 SWAP7 SWAP6 SWAP5 SWAP4 SWAP3 SWAP2 SWAP1 PUSH2 0xBE4 JUMP JUMPDEST PUSH1 0x40 MLOAD DUP1 SWAP2 SUB SWAP1 LOG2 POP POP POP POP POP POP POP POP POP JUMP JUMPDEST PUSH2 0x843 PUSH1 0x0 DUP3 PUSH2 0x87A JUMP JUMPDEST PUSH1 0x40 MLOAD PUSH1 0x1 PUSH1 0x1 PUSH1 0xA0 SHL SUB DUP3 AND SWAP1 PUSH32 0x2BC71CC60B543DF5FDD80EF5A45E1CDB344843769B649E9D901DE3BE24AEB24E SWAP1 PUSH1 0x0 SWAP1 LOG2 POP JUMP JUMPDEST PUSH2 0x884 DUP3 DUP3 PUSH2 0x67F JUMP JUMPDEST PUSH2 0x8A0 JUMPI PUSH1 0x40 MLOAD PUSH3 0x461BCD PUSH1 0xE5 SHL DUP2 MSTORE PUSH1 0x4 ADD PUSH2 0x249 SWAP1 PUSH2 0xE63 JUMP JUMPDEST PUSH1 0x1 PUSH1 0x1 PUSH1 0xA0 SHL SUB AND PUSH1 0x0 SWAP1 DUP2 MSTORE PUSH1 0x20 SWAP2 SWAP1 SWAP2 MSTORE PUSH1 0x40 SWAP1 KECCAK256 DUP1 SLOAD PUSH1 0xFF NOT AND SWAP1 SSTORE JUMP JUMPDEST PUSH2 0x220A DUP1 PUSH2 0xF51 DUP4 CODECOPY ADD SWAP1 JUMP JUMPDEST DUP1 CALLDATALOAD PUSH1 0x1 PUSH1 0x1 PUSH1 0xA0 SHL SUB DUP2 AND DUP2 EQ PUSH2 0x384 JUMPI PUSH1 0x0 DUP1 REVERT JUMPDEST PUSH1 0x0 DUP3 PUSH1 0x1F DUP4 ADD SLT PUSH2 0x8F6 JUMPI DUP1 DUP2 REVERT JUMPDEST PUSH1 0x40 MLOAD PUSH2 0x100 DUP1 DUP3 ADD DUP3 DUP2 LT PUSH8 0xFFFFFFFFFFFFFFFF DUP3 GT OR ISZERO PUSH2 0x91B JUMPI PUSH2 0x91B PUSH2 0xF3A JUMP JUMPDEST PUSH1 0x40 MSTORE DUP2 DUP5 DUP3 DUP2 ADD DUP8 LT ISZERO PUSH2 0x92E JUMPI DUP5 DUP6 REVERT JUMPDEST DUP5 SWAP3 POP JUMPDEST PUSH1 0x8 DUP4 LT ISZERO PUSH2 0x952 JUMPI DUP1 CALLDATALOAD DUP3 MSTORE PUSH1 0x1 SWAP3 SWAP1 SWAP3 ADD SWAP2 PUSH1 0x20 SWAP2 DUP3 ADD SWAP2 ADD PUSH2 0x932 JUMP JUMPDEST POP SWAP2 SWAP6 SWAP5 POP POP POP POP POP JUMP JUMPDEST DUP1 CALLDATALOAD DUP1 ISZERO ISZERO DUP2 EQ PUSH2 0x384 JUMPI PUSH1 0x0 DUP1 REVERT JUMPDEST PUSH1 0x0 DUP3 PUSH1 0x1F DUP4 ADD SLT PUSH2 0x97D JUMPI DUP1 DUP2 REVERT JUMPDEST DUP2 CALLDATALOAD PUSH8 0xFFFFFFFFFFFFFFFF DUP2 GT ISZERO PUSH2 0x997 JUMPI PUSH2 0x997 PUSH2 0xF3A JUMP JUMPDEST PUSH2 0x9AA PUSH1 0x1F DUP3 ADD PUSH1 0x1F NOT AND PUSH1 0x20 ADD PUSH2 0xEEF JUMP JUMPDEST DUP2 DUP2 MSTORE DUP5 PUSH1 0x20 DUP4 DUP7 ADD ADD GT ISZERO PUSH2 0x9BE JUMPI DUP3 DUP4 REVERT JUMPDEST DUP2 PUSH1 0x20 DUP6 ADD PUSH1 0x20 DUP4 ADD CALLDATACOPY SWAP1 DUP2 ADD PUSH1 0x20 ADD SWAP2 SWAP1 SWAP2 MSTORE SWAP3 SWAP2 POP POP JUMP JUMPDEST PUSH1 0x0 PUSH1 0x20 DUP3 DUP5 SUB SLT ISZERO PUSH2 0x9E9 JUMPI DUP1 DUP2 REVERT JUMPDEST PUSH2 0x9F2 DUP3 PUSH2 0x8CF JUMP JUMPDEST SWAP4 SWAP3 POP POP POP JUMP JUMPDEST PUSH1 0x0 DUP1 PUSH1 0x0 DUP1 PUSH1 0x0 DUP1 PUSH1 0x0 DUP1 PUSH2 0x420 DUP10 DUP12 SUB SLT ISZERO PUSH2 0xA15 JUMPI DUP4 DUP5 REVERT JUMPDEST PUSH2 0xA1E DUP10 PUSH2 0x8CF JUMP JUMPDEST SWAP8 POP PUSH1 0x20 PUSH2 0xA2D DUP2 DUP12 ADD PUSH2 0x8CF JUMP JUMPDEST SWAP8 POP PUSH1 0x40 DUP11 ADD CALLDATALOAD PUSH8 0xFFFFFFFFFFFFFFFF DUP1 DUP3 GT ISZERO PUSH2 0xA49 JUMPI DUP7 DUP8 REVERT JUMPDEST PUSH2 0xA55 DUP14 DUP4 DUP15 ADD PUSH2 0x96D JUMP JUMPDEST SWAP9 POP PUSH1 0x60 DUP13 ADD CALLDATALOAD SWAP2 POP DUP1 DUP3 GT ISZERO PUSH2 0xA6A JUMPI DUP7 DUP8 REVERT JUMPDEST POP PUSH2 0xA77 DUP13 DUP3 DUP14 ADD PUSH2 0x96D JUMP JUMPDEST SWAP7 POP POP DUP11 PUSH1 0x9F DUP12 ADD SLT PUSH2 0xA88 JUMPI DUP5 DUP6 REVERT JUMPDEST PUSH2 0xA9A PUSH2 0xA95 PUSH1 0xC PUSH2 0xF19 JUMP JUMPDEST PUSH2 0xEEF JUMP JUMPDEST DUP1 PUSH1 0x80 DUP13 ADD PUSH2 0x200 DUP14 ADD DUP15 DUP2 GT ISZERO PUSH2 0xAB0 JUMPI DUP9 DUP10 REVERT JUMPDEST DUP9 JUMPDEST PUSH1 0xC DUP2 LT ISZERO PUSH2 0xACF JUMPI DUP3 CALLDATALOAD DUP6 MSTORE SWAP4 DUP6 ADD SWAP4 SWAP2 DUP6 ADD SWAP2 PUSH1 0x1 ADD PUSH2 0xAB2 JUMP JUMPDEST POP DUP3 SWAP9 POP PUSH2 0xADD DUP16 DUP3 PUSH2 0x8E6 JUMP JUMPDEST SWAP8 POP POP POP POP POP POP PUSH2 0xAF2 DUP11 PUSH2 0x300 DUP12 ADD PUSH2 0x8E6 JUMP JUMPDEST SWAP2 POP PUSH2 0xB01 PUSH2 0x400 DUP11 ADD PUSH2 0x95D JUMP JUMPDEST SWAP1 POP SWAP3 SWAP6 SWAP9 POP SWAP3 SWAP6 SWAP9 SWAP1 SWAP4 SWAP7 POP JUMP JUMPDEST PUSH1 0x0 PUSH1 0x20 DUP3 DUP5 SUB SLT ISZERO PUSH2 0xB21 JUMPI DUP1 DUP2 REVERT JUMPDEST POP CALLDATALOAD SWAP2 SWAP1 POP JUMP JUMPDEST DUP1 PUSH1 0x0 JUMPDEST PUSH1 0xC DUP2 LT ISZERO PUSH2 0xB4B JUMPI DUP2 MLOAD DUP5 MSTORE PUSH1 0x20 SWAP4 DUP5 ADD SWAP4 SWAP1 SWAP2 ADD SWAP1 PUSH1 0x1 ADD PUSH2 0xB2C JUMP JUMPDEST POP POP POP POP JUMP JUMPDEST DUP1 PUSH1 0x0 JUMPDEST PUSH1 0x8 DUP2 LT ISZERO PUSH2 0xB4B JUMPI DUP2 MLOAD DUP5 MSTORE PUSH1 0x20 SWAP4 DUP5 ADD SWAP4 SWAP1 SWAP2 ADD SWAP1 PUSH1 0x1 ADD PUSH2 0xB55 JUMP JUMPDEST ISZERO ISZERO SWAP1 MSTORE JUMP JUMPDEST PUSH1 0x0 DUP2 MLOAD DUP1 DUP5 MSTORE DUP2 JUMPDEST DUP2 DUP2 LT ISZERO PUSH2 0xB9F JUMPI PUSH1 0x20 DUP2 DUP6 ADD DUP2 ADD MLOAD DUP7 DUP4 ADD DUP3 ADD MSTORE ADD PUSH2 0xB83 JUMP JUMPDEST DUP2 DUP2 GT ISZERO PUSH2 0xBB0 JUMPI DUP3 PUSH1 0x20 DUP4 DUP8 ADD ADD MSTORE JUMPDEST POP PUSH1 0x1F ADD PUSH1 0x1F NOT AND SWAP3 SWAP1 SWAP3 ADD PUSH1 0x20 ADD SWAP3 SWAP2 POP POP JUMP JUMPDEST PUSH1 0x1 PUSH1 0x1 PUSH1 0xA0 SHL SUB SWAP2 SWAP1 SWAP2 AND DUP2 MSTORE PUSH1 0x20 ADD SWAP1 JUMP JUMPDEST SWAP1 ISZERO ISZERO DUP2 MSTORE PUSH1 0x20 ADD SWAP1 JUMP JUMPDEST PUSH1 0x0 PUSH2 0x3E0 DUP1 DUP4 MSTORE PUSH2 0xBF8 DUP2 DUP5 ADD DUP11 PUSH2 0xB7A JUMP JUMPDEST SWAP1 POP DUP3 DUP2 SUB PUSH1 0x20 DUP5 ADD MSTORE PUSH2 0xC0C DUP2 DUP10 PUSH2 0xB7A JUMP JUMPDEST SWAP2 POP POP PUSH2 0xC1C PUSH1 0x40 DUP4 ADD DUP8 PUSH2 0xB28 JUMP JUMPDEST PUSH2 0xC2A PUSH2 0x1C0 DUP4 ADD DUP7 PUSH2 0xB51 JUMP JUMPDEST PUSH2 0xC38 PUSH2 0x2C0 DUP4 ADD DUP6 PUSH2 0xB51 JUMP JUMPDEST DUP3 ISZERO ISZERO PUSH2 0x3C0 DUP4 ADD MSTORE SWAP8 SWAP7 POP POP POP POP POP POP POP JUMP JUMPDEST PUSH1 0x0 PUSH2 0x4C0 DUP1 DUP4 MSTORE PUSH2 0xC60 DUP2 DUP5 ADD DUP15 PUSH2 0xB7A JUMP JUMPDEST SWAP1 POP PUSH1 0x20 DUP4 DUP3 SUB DUP2 DUP6 ADD MSTORE PUSH2 0xC75 DUP3 DUP15 PUSH2 0xB7A JUMP JUMPDEST PUSH1 0x1 PUSH1 0x1 PUSH1 0xA0 SHL SUB DUP14 DUP2 AND PUSH1 0x40 DUP8 ADD MSTORE DUP13 DUP2 AND PUSH1 0x60 DUP8 ADD MSTORE DUP12 DUP2 AND PUSH1 0x80 DUP8 ADD MSTORE SWAP1 SWAP4 POP SWAP2 POP PUSH1 0xA0 DUP5 ADD DUP10 PUSH1 0x0 JUMPDEST PUSH1 0x4 DUP2 LT ISZERO PUSH2 0xCC1 JUMPI DUP2 MLOAD DUP6 AND DUP4 MSTORE SWAP2 DUP4 ADD SWAP2 SWAP1 DUP4 ADD SWAP1 PUSH1 0x1 ADD PUSH2 0xCA2 JUMP JUMPDEST POP POP POP POP POP PUSH2 0xCD4 PUSH2 0x120 DUP4 ADD DUP8 PUSH2 0xB28 JUMP JUMPDEST PUSH2 0xCE2 PUSH2 0x2A0 DUP4 ADD DUP7 PUSH2 0xB51 JUMP JUMPDEST PUSH2 0xCF0 PUSH2 0x3A0 DUP4 ADD DUP6 PUSH2 0xB51 JUMP JUMPDEST PUSH2 0xCFE PUSH2 0x4A0 DUP4 ADD DUP5 PUSH2 0xB74 JUMP JUMPDEST SWAP12 SWAP11 POP POP POP POP POP POP POP POP POP POP POP JUMP JUMPDEST PUSH1 0x20 DUP1 DUP3 MSTORE PUSH1 0x1F SWAP1 DUP3 ADD MSTORE PUSH32 0x526F6C65733A206163636F756E7420616C72656164792068617320726F6C6500 PUSH1 0x40 DUP3 ADD MSTORE PUSH1 0x60 ADD SWAP1 JUMP JUMPDEST PUSH1 0x20 DUP1 DUP3 MSTORE PUSH1 0x27 SWAP1 DUP3 ADD MSTORE PUSH32 0x303432302054617820636F6E6E6F74206265206F766572203130302520283130 PUSH1 0x40 DUP3 ADD MSTORE PUSH7 0x30303020425029 PUSH1 0xC8 SHL PUSH1 0x60 DUP3 ADD MSTORE PUSH1 0x80 ADD SWAP1 JUMP JUMPDEST PUSH1 0x20 DUP1 DUP3 MSTORE PUSH1 0x4 SWAP1 DUP3 ADD MSTORE PUSH4 0x3034313 PUSH1 0xE4 SHL PUSH1 0x40 DUP3 ADD MSTORE PUSH1 0x60 ADD SWAP1 JUMP JUMPDEST PUSH1 0x20 DUP1 DUP3 MSTORE PUSH1 0x3A SWAP1 DUP3 ADD MSTORE PUSH32 0x506F6F6C43726561746F72526F6C653A2063616C6C657220646F6573206E6F74 PUSH1 0x40 DUP3 ADD MSTORE PUSH32 0x20686176652074686520506F6F6C43726561746F7220726F6C65000000000000 PUSH1 0x60 DUP3 ADD MSTORE PUSH1 0x80 ADD SWAP1 JUMP JUMPDEST PUSH1 0x20 DUP1 DUP3 MSTORE PUSH1 0x3D SWAP1 DUP3 ADD MSTORE PUSH32 0x5468697320616464726573732069732074686520696D706C656D656E74617469 PUSH1 0x40 DUP3 ADD MSTORE PUSH32 0x6F6E207468617420697320616C7265616479206265696E672075736564000000 PUSH1 0x60 DUP3 ADD MSTORE PUSH1 0x80 ADD SWAP1 JUMP JUMPDEST PUSH1 0x20 DUP1 DUP3 MSTORE PUSH1 0x21 SWAP1 DUP3 ADD MSTORE PUSH32 0x526F6C65733A206163636F756E7420646F6573206E6F74206861766520726F6C PUSH1 0x40 DUP3 ADD MSTORE PUSH1 0x65 PUSH1 0xF8 SHL PUSH1 0x60 DUP3 ADD MSTORE PUSH1 0x80 ADD SWAP1 JUMP JUMPDEST PUSH1 0x20 DUP1 DUP3 MSTORE PUSH1 0x22 SWAP1 DUP3 ADD MSTORE PUSH32 0x526F6C65733A206163636F756E7420697320746865207A65726F206164647265 PUSH1 0x40 DUP3 ADD MSTORE PUSH2 0x7373 PUSH1 0xF0 SHL PUSH1 0x60 DUP3 ADD MSTORE PUSH1 0x80 ADD SWAP1 JUMP JUMPDEST SWAP1 DUP2 MSTORE PUSH1 0x20 ADD SWAP1 JUMP JUMPDEST PUSH1 0x40 MLOAD DUP2 DUP2 ADD PUSH8 0xFFFFFFFFFFFFFFFF DUP2 GT DUP3 DUP3 LT OR ISZERO PUSH2 0xF11 JUMPI PUSH2 0xF11 PUSH2 0xF3A JUMP JUMPDEST PUSH1 0x40 MSTORE SWAP2 SWAP1 POP JUMP JUMPDEST PUSH1 0x0 PUSH8 0xFFFFFFFFFFFFFFFF DUP3 GT ISZERO PUSH2 0xF33 JUMPI PUSH2 0xF33 PUSH2 0xF3A JUMP JUMPDEST POP PUSH1 0x20 MUL SWAP1 JUMP JUMPDEST PUSH4 0x4E487B71 PUSH1 0xE0 SHL PUSH1 0x0 MSTORE PUSH1 0x41 PUSH1 0x4 MSTORE PUSH1 0x24 PUSH1 0x0 REVERT INVALID PUSH1 0x80 PUSH1 0x40 MSTORE CALLVALUE DUP1 ISZERO PUSH2 0x10 JUMPI PUSH1 0x0 DUP1 REVERT JUMPDEST POP PUSH1 0x6B DUP1 SLOAD PUSH1 0x1 PUSH1 0x1 PUSH1 0xA0 SHL SUB NOT AND CALLER OR SWAP1 SSTORE PUSH1 0x8F DUP1 SLOAD PUSH1 0xFF PUSH1 0x30 SHL NOT AND PUSH7 0x1000000000000 OR SWAP1 SSTORE PUSH2 0x21C2 DUP1 PUSH2 0x48 PUSH1 0x0 CODECOPY PUSH1 0x0 RETURN INVALID PUSH1 0x80 PUSH1 0x40 MSTORE PUSH1 0x4 CALLDATASIZE LT PUSH2 0x303 JUMPI PUSH1 0x0 CALLDATALOAD PUSH1 0xE0 SHR DUP1 PUSH4 0x95C2BA47 GT PUSH2 0x190 JUMPI DUP1 PUSH4 0xDE09EE20 GT PUSH2 0xDC JUMPI DUP1 PUSH4 0xF0141D84 GT PUSH2 0x95 JUMPI DUP1 PUSH4 0xF3D9DC0D GT PUSH2 0x6F JUMPI DUP1 PUSH4 0xF3D9DC0D EQ PUSH2 0x838 JUMPI DUP1 PUSH4 0xF5E96FC9 EQ PUSH2 0x84D JUMPI DUP1 PUSH4 0xF8EEED62 EQ PUSH2 0x862 JUMPI DUP1 PUSH4 0xFD5E6DD1 EQ PUSH2 0x877 JUMPI PUSH2 0x30A JUMP JUMPDEST DUP1 PUSH4 0xF0141D84 EQ PUSH2 0x7C8 JUMPI DUP1 PUSH4 0xF1B17A8B EQ PUSH2 0x7EA JUMPI DUP1 PUSH4 0xF2FDE38B EQ PUSH2 0x818 JUMPI PUSH2 0x30A JUMP JUMPDEST DUP1 PUSH4 0xDE09EE20 EQ PUSH2 0x71A JUMPI DUP1 PUSH4 0xE0818669 EQ PUSH2 0x748 JUMPI DUP1 PUSH4 0xE425DF8C EQ PUSH2 0x774 JUMPI DUP1 PUSH4 0xE68B52E7 EQ PUSH2 0x789 JUMPI DUP1 PUSH4 0xE8153C93 EQ PUSH2 0x79E JUMPI DUP1 PUSH4 0xEB850AE1 EQ PUSH2 0x7B3 JUMPI PUSH2 0x30A JUMP JUMPDEST DUP1 PUSH4 0xAA7BCB57 GT PUSH2 0x149 JUMPI DUP1 PUSH4 0xC1201054 GT PUSH2 0x123 JUMPI DUP1 PUSH4 0xC1201054 EQ PUSH2 0x6C6 JUMPI DUP1 PUSH4 0xC6C1DECD EQ PUSH2 0x6DB JUMPI DUP1 PUSH4 0xD025188B EQ PUSH2 0x6F0 JUMPI DUP1 PUSH4 0xD7EFB6B7 EQ PUSH2 0x705 JUMPI PUSH2 0x30A JUMP JUMPDEST DUP1 PUSH4 0xAA7BCB57 EQ PUSH2 0x687 JUMPI DUP1 PUSH4 0xB1DD61B6 EQ PUSH2 0x69C JUMPI DUP1 PUSH4 0xBECE7532 EQ PUSH2 0x6B1 JUMPI PUSH2 0x30A JUMP JUMPDEST DUP1 PUSH4 0x95C2BA47 EQ PUSH2 0x5F1 JUMPI DUP1 PUSH4 0x996C6CC3 EQ PUSH2 0x606 JUMPI DUP1 PUSH4 0xA08B2C79 EQ PUSH2 0x61B JUMPI DUP1 PUSH4 0xA35EF3A7 EQ PUSH2 0x630 JUMPI DUP1 PUSH4 0xA4E2D634 EQ PUSH2 0x652 JUMPI DUP1 PUSH4 0xA8F7B346 EQ PUSH2 0x667 JUMPI PUSH2 0x30A JUMP JUMPDEST DUP1 PUSH4 0x6847D0C5 GT PUSH2 0x24F JUMPI DUP1 PUSH4 0x7F2B6A0D GT PUSH2 0x208 JUMPI DUP1 PUSH4 0x869EB310 GT PUSH2 0x1E2 JUMPI DUP1 PUSH4 0x869EB310 EQ PUSH2 0x592 JUMPI DUP1 PUSH4 0x8CF0E21E EQ PUSH2 0x5B2 JUMPI DUP1 PUSH4 0x8DA5CB5B EQ PUSH2 0x5C7 JUMPI DUP1 PUSH4 0x8E15F473 EQ PUSH2 0x5DC JUMPI PUSH2 0x30A JUMP JUMPDEST DUP1 PUSH4 0x7F2B6A0D EQ PUSH2 0x533 JUMPI DUP1 PUSH4 0x817B1CD2 EQ PUSH2 0x548 JUMPI DUP1 PUSH4 0x850FA7CB EQ PUSH2 0x55D JUMPI PUSH2 0x30A JUMP JUMPDEST DUP1 PUSH4 0x6847D0C5 EQ PUSH2 0x4B5 JUMPI DUP1 PUSH4 0x6B036F45 EQ PUSH2 0x4CA JUMPI DUP1 PUSH4 0x715018A6 EQ PUSH2 0x4DF JUMPI DUP1 PUSH4 0x725C9C49 EQ PUSH2 0x4F4 JUMPI DUP1 PUSH4 0x73F31703 EQ PUSH2 0x509 JUMPI DUP1 PUSH4 0x785FA627 EQ PUSH2 0x51E JUMPI PUSH2 0x30A JUMP JUMPDEST DUP1 PUSH4 0x3659CFE6 GT PUSH2 0x2BC JUMPI DUP1 PUSH4 0x4BC4EEB2 GT PUSH2 0x296 JUMPI DUP1 PUSH4 0x4BC4EEB2 EQ PUSH2 0x461 JUMPI DUP1 PUSH4 0x4E8BFDAA EQ PUSH2 0x476 JUMPI DUP1 PUSH4 0x51EACBF0 EQ PUSH2 0x48B JUMPI DUP1 PUSH4 0x67FC9138 EQ PUSH2 0x4A0 JUMPI PUSH2 0x30A JUMP JUMPDEST DUP1 PUSH4 0x3659CFE6 EQ PUSH2 0x401 JUMPI DUP1 PUSH4 0x37C4F6A4 EQ PUSH2 0x421 JUMPI DUP1 PUSH4 0x3FCDD82C EQ PUSH2 0x441 JUMPI PUSH2 0x30A JUMP JUMPDEST DUP1 PUSH4 0xD668087 EQ PUSH2 0x344 JUMPI DUP1 PUSH4 0xF4EF8A6 EQ PUSH2 0x36F JUMPI DUP1 PUSH4 0x22F3E2D4 EQ PUSH2 0x391 JUMPI DUP1 PUSH4 0x238A6C74 EQ PUSH2 0x3B3 JUMPI DUP1 PUSH4 0x28016F9A EQ PUSH2 0x3D5 JUMPI DUP1 PUSH4 0x2AA8195E EQ PUSH2 0x3EC JUMPI PUSH2 0x30A JUMP JUMPDEST CALLDATASIZE PUSH2 0x30A JUMPI STOP JUMPDEST PUSH1 0x6A SLOAD PUSH1 0x1 PUSH1 0x1 PUSH1 0xA0 SHL SUB AND DUP1 PUSH2 0x320 JUMPI PUSH1 0x0 DUP1 REVERT JUMPDEST CALLDATASIZE PUSH1 0x0 DUP1 CALLDATACOPY PUSH1 0x0 DUP1 CALLDATASIZE PUSH1 0x0 DUP5 GAS DELEGATECALL RETURNDATASIZE PUSH1 0x0 DUP1 RETURNDATACOPY DUP1 DUP1 ISZERO PUSH2 0x33F JUMPI RETURNDATASIZE PUSH1 0x0 RETURN JUMPDEST RETURNDATASIZE PUSH1 0x0 REVERT JUMPDEST CALLVALUE DUP1 ISZERO PUSH2 0x350 JUMPI PUSH1 0x0 DUP1 REVERT JUMPDEST POP PUSH2 0x359 PUSH2 0x897 JUMP JUMPDEST PUSH1 0x40 MLOAD PUSH2 0x366 SWAP2 SWAP1 PUSH2 0x1FFA JUMP JUMPDEST PUSH1 0x40 MLOAD DUP1 SWAP2 SUB SWAP1 RETURN JUMPDEST CALLVALUE DUP1 ISZERO PUSH2 0x37B JUMPI PUSH1 0x0 DUP1 REVERT JUMPDEST POP PUSH2 0x384 PUSH2 0x89D JUMP JUMPDEST PUSH1 0x40 MLOAD PUSH2 0x366 SWAP2 SWAP1 PUSH2 0x1DA9 JUMP JUMPDEST CALLVALUE DUP1 ISZERO PUSH2 0x39D JUMPI PUSH1 0x0 DUP1 REVERT JUMPDEST POP PUSH2 0x3A6 PUSH2 0x8AC JUMP JUMPDEST PUSH1 0x40 MLOAD PUSH2 0x366 SWAP2 SWAP1 PUSH2 0x1DE9 JUMP JUMPDEST CALLVALUE DUP1 ISZERO PUSH2 0x3BF JUMPI PUSH1 0x0 DUP1 REVERT JUMPDEST POP PUSH2 0x3C8 PUSH2 0x8BB JUMP JUMPDEST PUSH1 0x40 MLOAD PUSH2 0x366 SWAP2 SWAP1 PUSH2 0x1DF4 JUMP JUMPDEST CALLVALUE DUP1 ISZERO PUSH2 0x3E1 JUMPI PUSH1 0x0 DUP1 REVERT JUMPDEST POP PUSH2 0x3EA PUSH2 0x949 JUMP JUMPDEST STOP JUMPDEST CALLVALUE DUP1 ISZERO PUSH2 0x3F8 JUMPI PUSH1 0x0 DUP1 REVERT JUMPDEST POP PUSH2 0x384 PUSH2 0x9A6 JUMP JUMPDEST CALLVALUE DUP1 ISZERO PUSH2 0x40D JUMPI PUSH1 0x0 DUP1 REVERT JUMPDEST POP PUSH2 0x3EA PUSH2 0x41C CALLDATASIZE PUSH1 0x4 PUSH2 0x1A99 JUMP JUMPDEST PUSH2 0x9B5 JUMP JUMPDEST CALLVALUE DUP1 ISZERO PUSH2 0x42D JUMPI PUSH1 0x0 DUP1 REVERT JUMPDEST POP PUSH2 0x3EA PUSH2 0x43C CALLDATASIZE PUSH1 0x4 PUSH2 0x1A99 JUMP JUMPDEST PUSH2 0xA4F JUMP JUMPDEST CALLVALUE DUP1 ISZERO PUSH2 0x44D JUMPI PUSH1 0x0 DUP1 REVERT JUMPDEST POP PUSH2 0x359 PUSH2 0x45C CALLDATASIZE PUSH1 0x4 PUSH2 0x1CC6 JUMP JUMPDEST PUSH2 0xAE0 JUMP JUMPDEST CALLVALUE DUP1 ISZERO PUSH2 0x46D JUMPI PUSH1 0x0 DUP1 REVERT JUMPDEST POP PUSH2 0x3A6 PUSH2 0xBA4 JUMP JUMPDEST CALLVALUE DUP1 ISZERO PUSH2 0x482 JUMPI PUSH1 0x0 DUP1 REVERT JUMPDEST POP PUSH2 0x359 PUSH2 0xBB2 JUMP JUMPDEST CALLVALUE DUP1 ISZERO PUSH2 0x497 JUMPI PUSH1 0x0 DUP1 REVERT JUMPDEST POP PUSH2 0x359 PUSH2 0xBB8 JUMP JUMPDEST CALLVALUE DUP1 ISZERO PUSH2 0x4AC JUMPI PUSH1 0x0 DUP1 REVERT JUMPDEST POP PUSH2 0x3EA PUSH2 0xBBE JUMP JUMPDEST CALLVALUE DUP1 ISZERO PUSH2 0x4C1 JUMPI PUSH1 0x0 DUP1 REVERT JUMPDEST POP PUSH2 0x359 PUSH2 0xC0C JUMP JUMPDEST CALLVALUE DUP1 ISZERO PUSH2 0x4D6 JUMPI PUSH1 0x0 DUP1 REVERT JUMPDEST POP PUSH2 0x359 PUSH2 0xC12 JUMP JUMPDEST CALLVALUE DUP1 ISZERO PUSH2 0x4EB JUMPI PUSH1 0x0 DUP1 REVERT JUMPDEST POP PUSH2 0x3EA PUSH2 0xC18 JUMP JUMPDEST CALLVALUE DUP1 ISZERO PUSH2 0x500 JUMPI PUSH1 0x0 DUP1 REVERT JUMPDEST POP PUSH2 0x384 PUSH2 0xC63 JUMP JUMPDEST CALLVALUE DUP1 ISZERO PUSH2 0x515 JUMPI PUSH1 0x0 DUP1 REVERT JUMPDEST POP PUSH2 0x359 PUSH2 0xC72 JUMP JUMPDEST CALLVALUE DUP1 ISZERO PUSH2 0x52A JUMPI PUSH1 0x0 DUP1 REVERT JUMPDEST POP PUSH2 0x359 PUSH2 0xC78 JUMP JUMPDEST CALLVALUE DUP1 ISZERO PUSH2 0x53F JUMPI PUSH1 0x0 DUP1 REVERT JUMPDEST POP PUSH2 0x3A6 PUSH2 0xC7E JUMP JUMPDEST CALLVALUE DUP1 ISZERO PUSH2 0x554 JUMPI PUSH1 0x0 DUP1 REVERT JUMPDEST POP PUSH2 0x359 PUSH2 0xC8F JUMP JUMPDEST CALLVALUE DUP1 ISZERO PUSH2 0x569 JUMPI PUSH1 0x0 DUP1 REVERT JUMPDEST POP PUSH2 0x57D PUSH2 0x578 CALLDATASIZE PUSH1 0x4 PUSH2 0x1B06 JUMP JUMPDEST PUSH2 0xC95 JUMP JUMPDEST PUSH1 0x40 MLOAD PUSH2 0x366 SWAP10 SWAP9 SWAP8 SWAP7 SWAP6 SWAP5 SWAP4 SWAP3 SWAP2 SWAP1 PUSH2 0x2032 JUMP JUMPDEST CALLVALUE DUP1 ISZERO PUSH2 0x59E JUMPI PUSH1 0x0 DUP1 REVERT JUMPDEST POP PUSH2 0x3EA PUSH2 0x5AD CALLDATASIZE PUSH1 0x4 PUSH2 0x1BD8 JUMP JUMPDEST PUSH2 0xD03 JUMP JUMPDEST CALLVALUE DUP1 ISZERO PUSH2 0x5BE JUMPI PUSH1 0x0 DUP1 REVERT JUMPDEST POP PUSH2 0x3A6 PUSH2 0x107E JUMP JUMPDEST CALLVALUE DUP1 ISZERO PUSH2 0x5D3 JUMPI PUSH1 0x0 DUP1 REVERT JUMPDEST POP PUSH2 0x384 PUSH2 0x108E JUMP JUMPDEST CALLVALUE DUP1 ISZERO PUSH2 0x5E8 JUMPI PUSH1 0x0 DUP1 REVERT JUMPDEST POP PUSH2 0x359 PUSH2 0x109D JUMP JUMPDEST CALLVALUE DUP1 ISZERO PUSH2 0x5FD JUMPI PUSH1 0x0 DUP1 REVERT JUMPDEST POP PUSH2 0x359 PUSH2 0x1144 JUMP JUMPDEST CALLVALUE DUP1 ISZERO PUSH2 0x612 JUMPI PUSH1 0x0 DUP1 REVERT JUMPDEST POP PUSH2 0x384 PUSH2 0x1149 JUMP JUMPDEST CALLVALUE DUP1 ISZERO PUSH2 0x627 JUMPI PUSH1 0x0 DUP1 REVERT JUMPDEST POP PUSH2 0x3A6 PUSH2 0x1158 JUMP JUMPDEST CALLVALUE DUP1 ISZERO PUSH2 0x63C JUMPI PUSH1 0x0 DUP1 REVERT JUMPDEST POP PUSH2 0x645 PUSH2 0x1161 JUMP JUMPDEST PUSH1 0x40 MLOAD PUSH2 0x366 SWAP2 SWAP1 PUSH2 0x1DD6 JUMP JUMPDEST CALLVALUE DUP1 ISZERO PUSH2 0x65E JUMPI PUSH1 0x0 DUP1 REVERT JUMPDEST POP PUSH2 0x3A6 PUSH2 0x1210 JUMP JUMPDEST CALLVALUE DUP1 ISZERO PUSH2 0x673 JUMPI PUSH1 0x0 DUP1 REVERT JUMPDEST POP PUSH2 0x3EA PUSH2 0x682 CALLDATASIZE PUSH1 0x4 PUSH2 0x1ABC JUMP JUMPDEST PUSH2 0x1220 JUMP JUMPDEST CALLVALUE DUP1 ISZERO PUSH2 0x693 JUMPI PUSH1 0x0 DUP1 REVERT JUMPDEST POP PUSH2 0x359 PUSH2 0x12D5 JUMP JUMPDEST CALLVALUE DUP1 ISZERO PUSH2 0x6A8 JUMPI PUSH1 0x0 DUP1 REVERT JUMPDEST POP PUSH2 0x3C8 PUSH2 0x12DB JUMP JUMPDEST CALLVALUE DUP1 ISZERO PUSH2 0x6BD JUMPI PUSH1 0x0 DUP1 REVERT JUMPDEST POP PUSH2 0x384 PUSH2 0x12E8 JUMP JUMPDEST CALLVALUE DUP1 ISZERO PUSH2 0x6D2 JUMPI PUSH1 0x0 DUP1 REVERT JUMPDEST POP PUSH2 0x359 PUSH2 0x12F7 JUMP JUMPDEST CALLVALUE DUP1 ISZERO PUSH2 0x6E7 JUMPI PUSH1 0x0 DUP1 REVERT JUMPDEST POP PUSH2 0x384 PUSH2 0x137D JUMP JUMPDEST CALLVALUE DUP1 ISZERO PUSH2 0x6FC JUMPI PUSH1 0x0 DUP1 REVERT JUMPDEST POP PUSH2 0x359 PUSH2 0x138C JUMP JUMPDEST CALLVALUE DUP1 ISZERO PUSH2 0x711 JUMPI PUSH1 0x0 DUP1 REVERT JUMPDEST POP PUSH2 0x3A6 PUSH2 0x1392 JUMP JUMPDEST CALLVALUE DUP1 ISZERO PUSH2 0x726 JUMPI PUSH1 0x0 DUP1 REVERT JUMPDEST POP PUSH2 0x73A PUSH2 0x735 CALLDATASIZE PUSH1 0x4 PUSH2 0x1CC6 JUMP JUMPDEST PUSH2 0x13A4 JUMP JUMPDEST PUSH1 0x40 MLOAD PUSH2 0x366 SWAP3 SWAP2 SWAP1 PUSH2 0x1DBD JUMP JUMPDEST CALLVALUE DUP1 ISZERO PUSH2 0x754 JUMPI PUSH1 0x0 DUP1 REVERT JUMPDEST POP PUSH2 0x75D PUSH2 0x13DC JUMP JUMPDEST PUSH1 0x40 MLOAD PUSH2 0x366 SWAP12 SWAP11 SWAP10 SWAP9 SWAP8 SWAP7 SWAP6 SWAP5 SWAP4 SWAP3 SWAP2 SWAP1 PUSH2 0x2075 JUMP JUMPDEST CALLVALUE DUP1 ISZERO PUSH2 0x780 JUMPI PUSH1 0x0 DUP1 REVERT JUMPDEST POP PUSH2 0x359 PUSH2 0x1409 JUMP JUMPDEST CALLVALUE DUP1 ISZERO PUSH2 0x795 JUMPI PUSH1 0x0 DUP1 REVERT JUMPDEST POP PUSH2 0x359 PUSH2 0x140F JUMP JUMPDEST CALLVALUE DUP1 ISZERO PUSH2 0x7AA JUMPI PUSH1 0x0 DUP1 REVERT JUMPDEST POP PUSH2 0x384 PUSH2 0x1415 JUMP JUMPDEST CALLVALUE DUP1 ISZERO PUSH2 0x7BF JUMPI PUSH1 0x0 DUP1 REVERT JUMPDEST POP PUSH2 0x359 PUSH2 0x1424 JUMP JUMPDEST CALLVALUE DUP1 ISZERO PUSH2 0x7D4 JUMPI PUSH1 0x0 DUP1 REVERT JUMPDEST POP PUSH2 0x7DD PUSH2 0x142A JUMP JUMPDEST PUSH1 0x40 MLOAD PUSH2 0x366 SWAP2 SWAP1 PUSH2 0x20C7 JUMP JUMPDEST CALLVALUE DUP1 ISZERO PUSH2 0x7F6 JUMPI PUSH1 0x0 DUP1 REVERT JUMPDEST POP PUSH2 0x80A PUSH2 0x805 CALLDATASIZE PUSH1 0x4 PUSH2 0x1CC6 JUMP JUMPDEST PUSH2 0x14B3 JUMP JUMPDEST PUSH1 0x40 MLOAD PUSH2 0x366 SWAP3 SWAP2 SWAP1 PUSH2 0x2024 JUMP JUMPDEST CALLVALUE DUP1 ISZERO PUSH2 0x824 JUMPI PUSH1 0x0 DUP1 REVERT JUMPDEST POP PUSH2 0x3EA PUSH2 0x833 CALLDATASIZE PUSH1 0x4 PUSH2 0x1A99 JUMP JUMPDEST PUSH2 0x14E1 JUMP JUMPDEST CALLVALUE DUP1 ISZERO PUSH2 0x844 JUMPI PUSH1 0x0 DUP1 REVERT JUMPDEST POP PUSH2 0x359 PUSH2 0x1552 JUMP JUMPDEST CALLVALUE DUP1 ISZERO PUSH2 0x859 JUMPI PUSH1 0x0 DUP1 REVERT JUMPDEST POP PUSH2 0x384 PUSH2 0x1558 JUMP JUMPDEST CALLVALUE DUP1 ISZERO PUSH2 0x86E JUMPI PUSH1 0x0 DUP1 REVERT JUMPDEST POP PUSH2 0x359 PUSH2 0x1567 JUMP JUMPDEST CALLVALUE DUP1 ISZERO PUSH2 0x883 JUMPI PUSH1 0x0 DUP1 REVERT JUMPDEST POP PUSH2 0x73A PUSH2 0x892 CALLDATASIZE PUSH1 0x4 PUSH2 0x1CC6 JUMP JUMPDEST PUSH2 0x156D JUMP JUMPDEST PUSH1 0x81 SLOAD DUP2 JUMP JUMPDEST PUSH1 0x7C SLOAD PUSH1 0x1 PUSH1 0x1 PUSH1 0xA0 SHL SUB AND DUP2 JUMP JUMPDEST PUSH1 0x8F SLOAD PUSH3 0x10000 SWAP1 DIV PUSH1 0xFF AND DUP2 JUMP JUMPDEST PUSH1 0x7E DUP1 SLOAD PUSH2 0x8C8 SWAP1 PUSH2 0x20FF JUMP JUMPDEST DUP1 PUSH1 0x1F ADD PUSH1 0x20 DUP1 SWAP2 DIV MUL PUSH1 0x20 ADD PUSH1 0x40 MLOAD SWAP1 DUP2 ADD PUSH1 0x40 MSTORE DUP1 SWAP3 SWAP2 SWAP1 DUP2 DUP2 MSTORE PUSH1 0x20 ADD DUP3 DUP1 SLOAD PUSH2 0x8F4 SWAP1 PUSH2 0x20FF JUMP JUMPDEST DUP1 ISZERO PUSH2 0x941 JUMPI DUP1 PUSH1 0x1F LT PUSH2 0x916 JUMPI PUSH2 0x100 DUP1 DUP4 SLOAD DIV MUL DUP4 MSTORE SWAP2 PUSH1 0x20 ADD SWAP2 PUSH2 0x941 JUMP JUMPDEST DUP3 ADD SWAP2 SWAP1 PUSH1 0x0 MSTORE PUSH1 0x20 PUSH1 0x0 KECCAK256 SWAP1 JUMPDEST DUP2 SLOAD DUP2 MSTORE SWAP1 PUSH1 0x1 ADD SWAP1 PUSH1 0x20 ADD DUP1 DUP4 GT PUSH2 0x924 JUMPI DUP3 SWAP1 SUB PUSH1 0x1F AND DUP3 ADD SWAP2 JUMPDEST POP POP POP POP POP DUP2 JUMP JUMPDEST PUSH2 0x951 PUSH2 0x157D JUMP JUMPDEST PUSH1 0x1 PUSH1 0x1 PUSH1 0xA0 SHL SUB AND PUSH2 0x962 PUSH2 0x108E JUMP JUMPDEST PUSH1 0x1 PUSH1 0x1 PUSH1 0xA0 SHL SUB AND EQ PUSH2 0x991 JUMPI PUSH1 0x40 MLOAD PUSH3 0x461BCD PUSH1 0xE5 SHL DUP2 MSTORE PUSH1 0x4 ADD PUSH2 0x988 SWAP1 PUSH2 0x1F49 JUMP JUMPDEST PUSH1 0x40 MLOAD DUP1 SWAP2 SUB SWAP1 REVERT JUMPDEST PUSH1 0x8F DUP1 SLOAD PUSH1 0xFF PUSH1 0x30 SHL NOT AND PUSH1 0x1 PUSH1 0x30 SHL OR SWAP1 SSTORE JUMP JUMPDEST PUSH1 0x6A SLOAD PUSH1 0x1 PUSH1 0x1 PUSH1 0xA0 SHL SUB AND DUP2 JUMP JUMPDEST PUSH1 0x6B SLOAD PUSH1 0x1 PUSH1 0x1 PUSH1 0xA0 SHL SUB AND CALLER EQ PUSH2 0x9DF JUMPI PUSH1 0x40 MLOAD PUSH3 0x461BCD PUSH1 0xE5 SHL DUP2 MSTORE PUSH1 0x4 ADD PUSH2 0x988 SWAP1 PUSH2 0x1FC3 JUMP JUMPDEST PUSH1 0x8F SLOAD PUSH1 0x1 PUSH1 0x30 SHL SWAP1 DIV PUSH1 0xFF AND PUSH2 0xA08 JUMPI PUSH1 0x40 MLOAD PUSH3 0x461BCD PUSH1 0xE5 SHL DUP2 MSTORE PUSH1 0x4 ADD PUSH2 0x988 SWAP1 PUSH2 0x1E47 JUMP JUMPDEST PUSH1 0x6A SLOAD PUSH1 0x1 PUSH1 0x1 PUSH1 0xA0 SHL SUB DUP3 DUP2 AND SWAP2 AND EQ ISZERO PUSH2 0xA36 JUMPI PUSH1 0x40 MLOAD PUSH3 0x461BCD PUSH1 0xE5 SHL DUP2 MSTORE PUSH1 0x4 ADD PUSH2 0x988 SWAP1 PUSH2 0x1EC4 JUMP JUMPDEST PUSH2 0xA3F DUP2 PUSH2 0x1581 JUMP JUMPDEST POP PUSH1 0x8F DUP1 SLOAD PUSH1 0xFF PUSH1 0x30 SHL NOT AND SWAP1 SSTORE JUMP JUMPDEST PUSH1 0x0 SLOAD PUSH2 0x100 SWAP1 DIV PUSH1 0xFF AND DUP1 PUSH2 0xA68 JUMPI POP PUSH1 0x0 SLOAD PUSH1 0xFF AND ISZERO JUMPDEST PUSH2 0xA84 JUMPI PUSH1 0x40 MLOAD PUSH3 0x461BCD PUSH1 0xE5 SHL DUP2 MSTORE PUSH1 0x4 ADD PUSH2 0x988 SWAP1 PUSH2 0x1EFB JUMP JUMPDEST PUSH1 0x0 SLOAD PUSH2 0x100 SWAP1 DIV PUSH1 0xFF AND ISZERO DUP1 ISZERO PUSH2 0xAAF JUMPI PUSH1 0x0 DUP1 SLOAD PUSH1 0xFF NOT PUSH2 0xFF00 NOT SWAP1 SWAP2 AND PUSH2 0x100 OR AND PUSH1 0x1 OR SWAP1 SSTORE JUMPDEST PUSH1 0x65 DUP1 SLOAD PUSH1 0x1 PUSH1 0x1 PUSH1 0xA0 SHL SUB NOT AND PUSH1 0x1 PUSH1 0x1 PUSH1 0xA0 SHL SUB DUP5 AND OR SWAP1 SSTORE DUP1 ISZERO PUSH2 0xADC JUMPI PUSH1 0x0 DUP1 SLOAD PUSH2 0xFF00 NOT AND SWAP1 SSTORE JUMPDEST POP POP JUMP JUMPDEST PUSH1 0x67 SLOAD PUSH1 0x0 SWAP1 DUP2 SWAP1 PUSH1 0x1 PUSH1 0x1 PUSH1 0xA0 SHL SUB AND PUSH4 0xD06CA61F DUP5 PUSH2 0xAFF PUSH2 0x1161 JUMP JUMPDEST PUSH1 0x40 MLOAD DUP4 PUSH4 0xFFFFFFFF AND PUSH1 0xE0 SHL DUP2 MSTORE PUSH1 0x4 ADD PUSH2 0xB1C SWAP3 SWAP2 SWAP1 PUSH2 0x2003 JUMP JUMPDEST PUSH1 0x0 PUSH1 0x40 MLOAD DUP1 DUP4 SUB DUP2 DUP7 DUP1 EXTCODESIZE ISZERO DUP1 ISZERO PUSH2 0xB34 JUMPI PUSH1 0x0 DUP1 REVERT JUMPDEST POP GAS STATICCALL ISZERO DUP1 ISZERO PUSH2 0xB48 JUMPI RETURNDATASIZE PUSH1 0x0 DUP1 RETURNDATACOPY RETURNDATASIZE PUSH1 0x0 REVERT JUMPDEST POP POP POP POP PUSH1 0x40 MLOAD RETURNDATASIZE PUSH1 0x0 DUP3 RETURNDATACOPY PUSH1 0x1F RETURNDATASIZE SWAP1 DUP2 ADD PUSH1 0x1F NOT AND DUP3 ADD PUSH1 0x40 MSTORE PUSH2 0xB70 SWAP2 SWAP1 DUP2 ADD SWAP1 PUSH2 0x1B31 JUMP JUMPDEST SWAP1 POP DUP1 PUSH1 0x1 DUP2 MLOAD DUP2 LT PUSH2 0xB93 JUMPI PUSH4 0x4E487B71 PUSH1 0xE0 SHL PUSH1 0x0 MSTORE PUSH1 0x32 PUSH1 0x4 MSTORE PUSH1 0x24 PUSH1 0x0 REVERT JUMPDEST PUSH1 0x20 MUL PUSH1 0x20 ADD ADD MLOAD SWAP2 POP POP JUMPDEST SWAP2 SWAP1 POP JUMP JUMPDEST PUSH1 0x8F SLOAD PUSH2 0x100 SWAP1 DIV PUSH1 0xFF AND DUP2 JUMP JUMPDEST PUSH1 0x82 SLOAD DUP2 JUMP JUMPDEST PUSH1 0x83 SLOAD DUP2 JUMP JUMPDEST PUSH2 0xBC6 PUSH2 0x157D JUMP JUMPDEST PUSH1 0x1 PUSH1 0x1 PUSH1 0xA0 SHL SUB AND PUSH2 0xBD7 PUSH2 0x108E JUMP JUMPDEST PUSH1 0x1 PUSH1 0x1 PUSH1 0xA0 SHL SUB AND EQ PUSH2 0xBFD JUMPI PUSH1 0x40 MLOAD PUSH3 0x461BCD PUSH1 0xE5 SHL DUP2 MSTORE PUSH1 0x4 ADD PUSH2 0x988 SWAP1 PUSH2 0x1F49 JUMP JUMPDEST PUSH1 0x8F DUP1 SLOAD PUSH1 0xFF PUSH1 0x30 SHL NOT AND SWAP1 SSTORE JUMP JUMPDEST PUSH1 0x87 SLOAD DUP2 JUMP JUMPDEST PUSH1 0x88 SLOAD DUP2 JUMP JUMPDEST PUSH2 0xC20 PUSH2 0x157D JUMP JUMPDEST PUSH1 0x1 PUSH1 0x1 PUSH1 0xA0 SHL SUB AND PUSH2 0xC31 PUSH2 0x108E JUMP JUMPDEST PUSH1 0x1 PUSH1 0x1 PUSH1 0xA0 SHL SUB AND EQ PUSH2 0xC57 JUMPI PUSH1 0x40 MLOAD PUSH3 0x461BCD PUSH1 0xE5 SHL DUP2 MSTORE PUSH1 0x4 ADD PUSH2 0x988 SWAP1 PUSH2 0x1F49 JUMP JUMPDEST PUSH2 0xC61 PUSH1 0x0 PUSH2 0x15C8 JUMP JUMPDEST JUMP JUMPDEST PUSH1 0x67 SLOAD PUSH1 0x1 PUSH1 0x1 PUSH1 0xA0 SHL SUB AND SWAP1 JUMP JUMPDEST PUSH1 0x86 SLOAD DUP2 JUMP JUMPDEST PUSH1 0x85 SLOAD DUP2 JUMP JUMPDEST PUSH1 0x8F SLOAD PUSH5 0x100000000 SWAP1 DIV PUSH1 0xFF AND DUP2 JUMP JUMPDEST PUSH1 0x89 SLOAD DUP2 JUMP JUMPDEST PUSH1 0x7A PUSH1 0x20 MSTORE DUP2 PUSH1 0x0 MSTORE PUSH1 0x40 PUSH1 0x0 KECCAK256 DUP2 DUP2 SLOAD DUP2 LT PUSH2 0xCB1 JUMPI PUSH1 0x0 DUP1 REVERT JUMPDEST PUSH1 0x0 SWAP2 DUP3 MSTORE PUSH1 0x20 SWAP1 SWAP2 KECCAK256 PUSH1 0x8 SWAP1 SWAP2 MUL ADD DUP1 SLOAD PUSH1 0x1 DUP3 ADD SLOAD PUSH1 0x2 DUP4 ADD SLOAD PUSH1 0x3 DUP5 ADD SLOAD PUSH1 0x4 DUP6 ADD SLOAD PUSH1 0x5 DUP7 ADD SLOAD PUSH1 0x6 DUP8 ADD SLOAD PUSH1 0x7 SWAP1 SWAP8 ADD SLOAD SWAP6 SWAP9 POP SWAP4 SWAP7 POP SWAP2 SWAP5 SWAP1 SWAP4 SWAP2 SWAP3 SWAP2 PUSH1 0xFF DUP1 DUP3 AND SWAP2 PUSH2 0x100 SWAP1 DIV AND DUP10 JUMP JUMPDEST PUSH1 0x0 SLOAD PUSH2 0x100 SWAP1 DIV PUSH1 0xFF AND DUP1 PUSH2 0xD1C JUMPI POP PUSH1 0x0 SLOAD PUSH1 0xFF AND ISZERO JUMPDEST PUSH2 0xD38 JUMPI PUSH1 0x40 MLOAD PUSH3 0x461BCD PUSH1 0xE5 SHL DUP2 MSTORE PUSH1 0x4 ADD PUSH2 0x988 SWAP1 PUSH2 0x1EFB JUMP JUMPDEST PUSH1 0x0 SLOAD PUSH2 0x100 SWAP1 DIV PUSH1 0xFF AND ISZERO DUP1 ISZERO PUSH2 0xD63 JUMPI PUSH1 0x0 DUP1 SLOAD PUSH1 0xFF NOT PUSH2 0xFF00 NOT SWAP1 SWAP2 AND PUSH2 0x100 OR AND PUSH1 0x1 OR SWAP1 SSTORE JUMPDEST PUSH1 0x6B SLOAD PUSH1 0x1 PUSH1 0x1 PUSH1 0xA0 SHL SUB AND CALLER EQ PUSH2 0xD8D JUMPI PUSH1 0x40 MLOAD PUSH3 0x461BCD PUSH1 0xE5 SHL DUP2 MSTORE PUSH1 0x4 ADD PUSH2 0x988 SWAP1 PUSH2 0x1FC3 JUMP JUMPDEST PUSH2 0xD95 PUSH2 0x161A JUMP JUMPDEST PUSH2 0xD9D PUSH2 0x169E JUMP JUMPDEST PUSH1 0x40 DUP7 ADD MLOAD PUSH2 0xDAB SWAP1 PUSH2 0xA4F JUMP JUMPDEST DUP6 MLOAD PUSH1 0x20 DUP8 ADD MLOAD PUSH1 0x60 DUP9 ADD MLOAD PUSH2 0xDC2 SWAP3 SWAP2 SWAP1 PUSH2 0x1220 JUMP JUMPDEST DUP5 MLOAD TIMESTAMP LT PUSH2 0xDE2 JUMPI PUSH1 0x40 MLOAD PUSH3 0x461BCD PUSH1 0xE5 SHL DUP2 MSTORE PUSH1 0x4 ADD PUSH2 0x988 SWAP1 PUSH2 0x1F7E JUMP JUMPDEST DUP11 MLOAD PUSH2 0xDF5 SWAP1 PUSH1 0x7E SWAP1 PUSH1 0x20 DUP15 ADD SWAP1 PUSH2 0x180B JUMP JUMPDEST POP DUP10 MLOAD PUSH2 0xE09 SWAP1 PUSH1 0x7F SWAP1 PUSH1 0x20 DUP14 ADD SWAP1 PUSH2 0x180B JUMP JUMPDEST POP PUSH1 0x7B DUP1 SLOAD PUSH1 0x1 PUSH1 0x1 PUSH1 0xA0 SHL SUB DUP1 DUP13 AND PUSH1 0x1 PUSH1 0x1 PUSH1 0xA0 SHL SUB NOT SWAP3 DUP4 AND OR SWAP1 SWAP3 SSTORE PUSH1 0x7C DUP1 SLOAD DUP12 DUP5 AND SWAP1 DUP4 AND OR SWAP1 SSTORE PUSH1 0x6B DUP1 SLOAD SWAP3 DUP11 AND SWAP3 SWAP1 SWAP2 AND SWAP2 SWAP1 SWAP2 OR SWAP1 SSTORE PUSH2 0xE57 DUP7 PUSH1 0x1 PUSH1 0x20 MUL ADD MLOAD PUSH2 0x1706 JUMP JUMPDEST PUSH1 0x40 DUP7 DUP2 ADD MLOAD PUSH1 0x6C DUP1 SLOAD PUSH1 0x1 PUSH1 0x1 PUSH1 0xA0 SHL SUB NOT SWAP1 DUP2 AND PUSH1 0x1 PUSH1 0x1 PUSH1 0xA0 SHL SUB SWAP4 DUP5 AND SWAP1 DUP2 OR SWAP1 SWAP3 SSTORE PUSH1 0x60 DUP1 DUP12 ADD MLOAD PUSH1 0x7D DUP1 SLOAD SWAP1 SWAP4 AND SWAP5 AND SWAP4 SWAP1 SWAP4 OR SWAP1 SSTORE DUP8 MLOAD PUSH1 0x80 SWAP1 DUP2 SSTORE PUSH1 0x20 DUP10 ADD MLOAD PUSH1 0x82 SSTORE SWAP3 DUP9 ADD MLOAD PUSH1 0x81 SSTORE SWAP1 DUP8 ADD MLOAD PUSH1 0x83 SSTORE SWAP1 DUP7 ADD MLOAD PUSH1 0x84 SSTORE PUSH1 0xA0 DUP7 ADD MLOAD PUSH1 0x85 SSTORE PUSH1 0xC0 DUP7 ADD MLOAD PUSH1 0x86 SSTORE PUSH1 0xE0 DUP7 ADD MLOAD PUSH1 0x8B SSTORE PUSH2 0x100 DUP7 ADD MLOAD PUSH1 0x8C SSTORE PUSH2 0x120 DUP7 ADD MLOAD PUSH1 0x87 SSTORE PUSH2 0x140 DUP7 ADD MLOAD PUSH1 0x88 SSTORE PUSH2 0xEFC JUMPI PUSH2 0x160 DUP6 ADD MLOAD PUSH1 0x8E SSTORE PUSH2 0xF0B JUMP JUMPDEST PUSH2 0xF04 PUSH2 0x142A JUMP JUMPDEST PUSH1 0xFF AND PUSH1 0x8E SSTORE JUMPDEST PUSH1 0x8F DUP1 SLOAD PUSH2 0xFF00 NOT AND PUSH2 0x100 DUP5 ISZERO ISZERO MUL OR SWAP1 SSTORE PUSH1 0x0 JUMPDEST PUSH1 0x8 DUP2 LT ISZERO PUSH2 0xFF1 JUMPI DUP4 DUP2 PUSH1 0x8 DUP2 LT PUSH2 0xF4A JUMPI PUSH4 0x4E487B71 PUSH1 0xE0 SHL PUSH1 0x0 MSTORE PUSH1 0x32 PUSH1 0x4 MSTORE PUSH1 0x24 PUSH1 0x0 REVERT JUMPDEST PUSH1 0x20 MUL ADD MLOAD PUSH2 0xF58 JUMPI PUSH2 0xFF1 JUMP JUMPDEST PUSH1 0x77 PUSH1 0x40 MLOAD DUP1 PUSH1 0x40 ADD PUSH1 0x40 MSTORE DUP1 DUP8 DUP5 PUSH1 0x8 DUP2 LT PUSH2 0xF85 JUMPI PUSH4 0x4E487B71 PUSH1 0xE0 SHL PUSH1 0x0 MSTORE PUSH1 0x32 PUSH1 0x4 MSTORE PUSH1 0x24 PUSH1 0x0 REVERT JUMPDEST PUSH1 0x20 MUL ADD MLOAD DUP2 MSTORE PUSH1 0x20 ADD DUP7 DUP5 PUSH1 0x8 DUP2 LT PUSH2 0xFAF JUMPI PUSH4 0x4E487B71 PUSH1 0xE0 SHL PUSH1 0x0 MSTORE PUSH1 0x32 PUSH1 0x4 MSTORE PUSH1 0x24 PUSH1 0x0 REVERT JUMPDEST PUSH1 0x20 SWAP1 DUP2 MUL SWAP2 SWAP1 SWAP2 ADD MLOAD SWAP1 SWAP2 MSTORE DUP3 SLOAD PUSH1 0x1 DUP2 DUP2 ADD DUP6 SSTORE PUSH1 0x0 SWAP5 DUP6 MSTORE SWAP4 DUP3 SWAP1 KECCAK256 DUP4 MLOAD PUSH1 0x2 SWAP1 SWAP3 MUL ADD SWAP1 DUP2 SSTORE SWAP2 ADD MLOAD SWAP2 ADD SSTORE DUP1 PUSH2 0xFE9 DUP2 PUSH2 0x213A JUMP JUMPDEST SWAP2 POP POP PUSH2 0xF21 JUMP JUMPDEST POP PUSH1 0x80 SLOAD PUSH1 0x6D SSTORE PUSH1 0x81 SLOAD PUSH1 0x6E SSTORE PUSH1 0x82 SLOAD PUSH1 0x6F SSTORE PUSH1 0x8A SLOAD PUSH1 0x70 SSTORE PUSH1 0x86 SLOAD PUSH1 0x71 SSTORE PUSH1 0x85 SLOAD PUSH1 0x72 SSTORE PUSH1 0x84 SLOAD PUSH1 0x73 SSTORE PUSH1 0x8D SLOAD PUSH1 0x74 SSTORE PUSH1 0x8F SLOAD PUSH1 0x76 DUP1 SLOAD PUSH1 0xFF NOT AND PUSH2 0x100 DUP1 DUP5 DIV PUSH1 0xFF SWAP1 DUP2 AND ISZERO ISZERO SWAP3 SWAP1 SWAP3 OR PUSH2 0xFF00 NOT AND PUSH5 0x100000000 SWAP1 SWAP5 DIV SWAP2 SWAP1 SWAP2 AND ISZERO ISZERO MUL SWAP2 SWAP1 SWAP2 OR SWAP1 SSTORE PUSH1 0x8E SLOAD PUSH1 0x75 SSTORE DUP1 ISZERO PUSH2 0x1071 JUMPI PUSH1 0x0 DUP1 SLOAD PUSH2 0xFF00 NOT AND SWAP1 SSTORE JUMPDEST POP POP POP POP POP POP POP POP POP POP POP JUMP JUMPDEST PUSH1 0x8F SLOAD PUSH1 0x1 PUSH1 0x30 SHL SWAP1 DIV PUSH1 0xFF AND DUP2 JUMP JUMPDEST PUSH1 0x33 SLOAD PUSH1 0x1 PUSH1 0x1 PUSH1 0xA0 SHL SUB AND SWAP1 JUMP JUMPDEST PUSH1 0x0 DUP1 PUSH1 0x65 PUSH1 0x0 SWAP1 SLOAD SWAP1 PUSH2 0x100 EXP SWAP1 DIV PUSH1 0x1 PUSH1 0x1 PUSH1 0xA0 SHL SUB AND PUSH1 0x1 PUSH1 0x1 PUSH1 0xA0 SHL SUB AND PUSH4 0xFEAF968C PUSH1 0x40 MLOAD DUP2 PUSH4 0xFFFFFFFF AND PUSH1 0xE0 SHL DUP2 MSTORE PUSH1 0x4 ADD PUSH1 0xA0 PUSH1 0x40 MLOAD DUP1 DUP4 SUB DUP2 DUP7 DUP1 EXTCODESIZE ISZERO DUP1 ISZERO PUSH2 0x10EE JUMPI PUSH1 0x0 DUP1 REVERT JUMPDEST POP GAS STATICCALL ISZERO DUP1 ISZERO PUSH2 0x1102 JUMPI RETURNDATASIZE PUSH1 0x0 DUP1 RETURNDATACOPY RETURNDATASIZE PUSH1 0x0 REVERT JUMPDEST POP POP POP POP PUSH1 0x40 MLOAD RETURNDATASIZE PUSH1 0x1F NOT PUSH1 0x1F DUP3 ADD AND DUP3 ADD DUP1 PUSH1 0x40 MSTORE POP DUP2 ADD SWAP1 PUSH2 0x1126 SWAP2 SWAP1 PUSH2 0x1CF6 JUMP JUMPDEST POP POP POP SWAP2 POP POP PUSH1 0x0 DUP2 SLT ISZERO PUSH2 0x113C JUMPI PUSH1 0x0 PUSH2 0x113E JUMP JUMPDEST DUP1 JUMPDEST SWAP2 POP POP SWAP1 JUMP JUMPDEST PUSH1 0x5 DUP2 JUMP JUMPDEST PUSH1 0x7D SLOAD PUSH1 0x1 PUSH1 0x1 PUSH1 0xA0 SHL SUB AND DUP2 JUMP JUMPDEST PUSH1 0x8F SLOAD PUSH1 0xFF AND DUP2 JUMP JUMPDEST PUSH1 0x40 DUP1 MLOAD PUSH1 0x2 DUP1 DUP3 MSTORE PUSH1 0x60 DUP1 DUP4 ADD DUP5 MSTORE SWAP3 PUSH1 0x0 SWAP3 SWAP2 SWAP1 PUSH1 0x20 DUP4 ADD SWAP1 DUP1 CALLDATASIZE DUP4 CALLDATACOPY POP POP PUSH1 0x68 SLOAD DUP3 MLOAD SWAP3 SWAP4 POP PUSH1 0x1 PUSH1 0x1 PUSH1 0xA0 SHL SUB AND SWAP2 DUP4 SWAP2 POP PUSH1 0x0 SWAP1 PUSH2 0x11B4 JUMPI PUSH4 0x4E487B71 PUSH1 0xE0 SHL PUSH1 0x0 MSTORE PUSH1 0x32 PUSH1 0x4 MSTORE PUSH1 0x24 PUSH1 0x0 REVERT JUMPDEST PUSH1 0x1 PUSH1 0x1 PUSH1 0xA0 SHL SUB SWAP3 DUP4 AND PUSH1 0x20 SWAP2 DUP3 MUL SWAP3 SWAP1 SWAP3 ADD ADD MSTORE PUSH1 0x69 SLOAD DUP3 MLOAD SWAP2 AND SWAP1 DUP3 SWAP1 PUSH1 0x1 SWAP1 DUP2 LT PUSH2 0x11F3 JUMPI PUSH4 0x4E487B71 PUSH1 0xE0 SHL PUSH1 0x0 MSTORE PUSH1 0x32 PUSH1 0x4 MSTORE PUSH1 0x24 PUSH1 0x0 REVERT JUMPDEST PUSH1 0x1 PUSH1 0x1 PUSH1 0xA0 SHL SUB SWAP1 SWAP3 AND PUSH1 0x20 SWAP3 DUP4 MUL SWAP2 SWAP1 SWAP2 ADD SWAP1 SWAP2 ADD MSTORE SWAP1 POP SWAP1 JUMP JUMPDEST PUSH1 0x8F SLOAD PUSH4 0x1000000 SWAP1 DIV PUSH1 0xFF AND DUP2 JUMP JUMPDEST PUSH1 0x0 SLOAD PUSH2 0x100 SWAP1 DIV PUSH1 0xFF AND DUP1 PUSH2 0x1239 JUMPI POP PUSH1 0x0 SLOAD PUSH1 0xFF AND ISZERO JUMPDEST PUSH2 0x1255 JUMPI PUSH1 0x40 MLOAD PUSH3 0x461BCD PUSH1 0xE5 SHL DUP2 MSTORE PUSH1 0x4 ADD PUSH2 0x988 SWAP1 PUSH2 0x1EFB JUMP JUMPDEST PUSH1 0x0 SLOAD PUSH2 0x100 SWAP1 DIV PUSH1 0xFF AND ISZERO DUP1 ISZERO PUSH2 0x1280 JUMPI PUSH1 0x0 DUP1 SLOAD PUSH1 0xFF NOT PUSH2 0xFF00 NOT SWAP1 SWAP2 AND PUSH2 0x100 OR AND PUSH1 0x1 OR SWAP1 SSTORE JUMPDEST PUSH1 0x67 DUP1 SLOAD PUSH1 0x1 PUSH1 0x1 PUSH1 0xA0 SHL SUB DUP1 DUP8 AND PUSH1 0x1 PUSH1 0x1 PUSH1 0xA0 SHL SUB NOT SWAP3 DUP4 AND OR SWAP1 SWAP3 SSTORE PUSH1 0x68 DUP1 SLOAD DUP7 DUP5 AND SWAP1 DUP4 AND OR SWAP1 SSTORE PUSH1 0x69 DUP1 SLOAD SWAP3 DUP6 AND SWAP3 SWAP1 SWAP2 AND SWAP2 SWAP1 SWAP2 OR SWAP1 SSTORE DUP1 ISZERO PUSH2 0x12CF JUMPI PUSH1 0x0 DUP1 SLOAD PUSH2 0xFF00 NOT AND SWAP1 SSTORE JUMPDEST POP POP POP POP JUMP JUMPDEST PUSH1 0x84 SLOAD DUP2 JUMP JUMPDEST PUSH1 0x7F DUP1 SLOAD PUSH2 0x8C8 SWAP1 PUSH2 0x20FF JUMP JUMPDEST PUSH1 0x6C SLOAD PUSH1 0x1 PUSH1 0x1 PUSH1 0xA0 SHL SUB AND DUP2 JUMP JUMPDEST PUSH1 0x66 SLOAD PUSH1 0x40 MLOAD PUSH4 0x70A08231 PUSH1 0xE0 SHL DUP2 MSTORE PUSH1 0x0 SWAP2 PUSH1 0x1 PUSH1 0x1 PUSH1 0xA0 SHL SUB AND SWAP1 PUSH4 0x70A08231 SWAP1 PUSH2 0x1328 SWAP1 ADDRESS SWAP1 PUSH1 0x4 ADD PUSH2 0x1DA9 JUMP JUMPDEST PUSH1 0x20 PUSH1 0x40 MLOAD DUP1 DUP4 SUB DUP2 DUP7 DUP1 EXTCODESIZE ISZERO DUP1 ISZERO PUSH2 0x1340 JUMPI PUSH1 0x0 DUP1 REVERT JUMPDEST POP GAS STATICCALL ISZERO DUP1 ISZERO PUSH2 0x1354 JUMPI RETURNDATASIZE PUSH1 0x0 DUP1 RETURNDATACOPY RETURNDATASIZE PUSH1 0x0 REVERT JUMPDEST POP POP POP POP PUSH1 0x40 MLOAD RETURNDATASIZE PUSH1 0x1F NOT PUSH1 0x1F DUP3 ADD AND DUP3 ADD DUP1 PUSH1 0x40 MSTORE POP DUP2 ADD SWAP1 PUSH2 0x1378 SWAP2 SWAP1 PUSH2 0x1CDE JUMP JUMPDEST SWAP1 POP SWAP1 JUMP JUMPDEST PUSH1 0x6B SLOAD PUSH1 0x1 PUSH1 0x1 PUSH1 0xA0 SHL SUB AND DUP2 JUMP JUMPDEST PUSH1 0x8A SLOAD DUP2 JUMP JUMPDEST PUSH1 0x8F SLOAD PUSH6 0x10000000000 SWAP1 DIV PUSH1 0xFF AND DUP2 JUMP JUMPDEST PUSH1 0x79 DUP2 DUP2 SLOAD DUP2 LT PUSH2 0x13B4 JUMPI PUSH1 0x0 DUP1 REVERT JUMPDEST PUSH1 0x0 SWAP2 DUP3 MSTORE PUSH1 0x20 SWAP1 SWAP2 KECCAK256 PUSH1 0x2 SWAP1 SWAP2 MUL ADD DUP1 SLOAD PUSH1 0x1 SWAP1 SWAP2 ADD SLOAD PUSH1 0x1 PUSH1 0x1 PUSH1 0xA0 SHL SUB SWAP1 SWAP2 AND SWAP2 POP DUP3 JUMP JUMPDEST PUSH1 0x6D SLOAD PUSH1 0x6E SLOAD PUSH1 0x6F SLOAD PUSH1 0x70 SLOAD PUSH1 0x71 SLOAD PUSH1 0x72 SLOAD PUSH1 0x73 SLOAD PUSH1 0x74 SLOAD PUSH1 0x75 SLOAD PUSH1 0x76 SLOAD PUSH1 0xFF DUP1 DUP3 AND SWAP2 PUSH2 0x100 SWAP1 DIV AND DUP12 JUMP JUMPDEST PUSH1 0x8B SLOAD DUP2 JUMP JUMPDEST PUSH1 0x8E SLOAD DUP2 JUMP JUMPDEST PUSH1 0x7B SLOAD PUSH1 0x1 PUSH1 0x1 PUSH1 0xA0 SHL SUB AND DUP2 JUMP JUMPDEST PUSH1 0x8C SLOAD DUP2 JUMP JUMPDEST PUSH1 0x0 DUP1 PUSH1 0x65 PUSH1 0x0 SWAP1 SLOAD SWAP1 PUSH2 0x100 EXP SWAP1 DIV PUSH1 0x1 PUSH1 0x1 PUSH1 0xA0 SHL SUB AND PUSH1 0x1 PUSH1 0x1 PUSH1 0xA0 SHL SUB AND PUSH4 0x313CE567 PUSH1 0x40 MLOAD DUP2 PUSH4 0xFFFFFFFF AND PUSH1 0xE0 SHL DUP2 MSTORE PUSH1 0x4 ADD PUSH1 0x20 PUSH1 0x40 MLOAD DUP1 DUP4 SUB DUP2 DUP7 DUP1 EXTCODESIZE ISZERO DUP1 ISZERO PUSH2 0x147B JUMPI PUSH1 0x0 DUP1 REVERT JUMPDEST POP GAS STATICCALL ISZERO DUP1 ISZERO PUSH2 0x148F JUMPI RETURNDATASIZE PUSH1 0x0 DUP1 RETURNDATACOPY RETURNDATASIZE PUSH1 0x0 REVERT JUMPDEST POP POP POP POP PUSH1 0x40 MLOAD RETURNDATASIZE PUSH1 0x1F NOT PUSH1 0x1F DUP3 ADD AND DUP3 ADD DUP1 PUSH1 0x40 MSTORE POP DUP2 ADD SWAP1 PUSH2 0x113E SWAP2 SWAP1 PUSH2 0x1D45 JUMP JUMPDEST PUSH1 0x77 DUP2 DUP2 SLOAD DUP2 LT PUSH2 0x14C3 JUMPI PUSH1 0x0 DUP1 REVERT JUMPDEST PUSH1 0x0 SWAP2 DUP3 MSTORE PUSH1 0x20 SWAP1 SWAP2 KECCAK256 PUSH1 0x2 SWAP1 SWAP2 MUL ADD DUP1 SLOAD PUSH1 0x1 SWAP1 SWAP2 ADD SLOAD SWAP1 SWAP2 POP DUP3 JUMP JUMPDEST PUSH2 0x14E9 PUSH2 0x157D JUMP JUMPDEST PUSH1 0x1 PUSH1 0x1 PUSH1 0xA0 SHL SUB AND PUSH2 0x14FA PUSH2 0x108E JUMP JUMPDEST PUSH1 0x1 PUSH1 0x1 PUSH1 0xA0 SHL SUB AND EQ PUSH2 0x1520 JUMPI PUSH1 0x40 MLOAD PUSH3 0x461BCD PUSH1 0xE5 SHL DUP2 MSTORE PUSH1 0x4 ADD PUSH2 0x988 SWAP1 PUSH2 0x1F49 JUMP JUMPDEST PUSH1 0x1 PUSH1 0x1 PUSH1 0xA0 SHL SUB DUP2 AND PUSH2 0x1546 JUMPI PUSH1 0x40 MLOAD PUSH3 0x461BCD PUSH1 0xE5 SHL DUP2 MSTORE PUSH1 0x4 ADD PUSH2 0x988 SWAP1 PUSH2 0x1E7E JUMP JUMPDEST PUSH2 0x154F DUP2 PUSH2 0x15C8 JUMP JUMPDEST POP JUMP JUMPDEST PUSH1 0x8D SLOAD DUP2 JUMP JUMPDEST PUSH1 0x66 SLOAD PUSH1 0x1 PUSH1 0x1 PUSH1 0xA0 SHL SUB AND SWAP1 JUMP JUMPDEST PUSH1 0x80 SLOAD DUP2 JUMP JUMPDEST PUSH1 0x78 DUP2 DUP2 SLOAD DUP2 LT PUSH2 0x13B4 JUMPI PUSH1 0x0 DUP1 REVERT JUMPDEST CALLER SWAP1 JUMP JUMPDEST PUSH1 0x6A DUP1 SLOAD PUSH1 0x1 PUSH1 0x1 PUSH1 0xA0 SHL SUB NOT AND PUSH1 0x1 PUSH1 0x1 PUSH1 0xA0 SHL SUB DUP4 AND OR SWAP1 SSTORE PUSH1 0x40 MLOAD PUSH32 0x3DAB95F89F74034BEEAC9F9FE9BEC350186CB958223E1791AFB0DBB64859CABD SWAP1 PUSH1 0x0 SWAP1 LOG1 POP JUMP JUMPDEST PUSH1 0x33 DUP1 SLOAD PUSH1 0x1 PUSH1 0x1 PUSH1 0xA0 SHL SUB DUP4 DUP2 AND PUSH1 0x1 PUSH1 0x1 PUSH1 0xA0 SHL SUB NOT DUP4 AND DUP2 OR SWAP1 SWAP4 SSTORE PUSH1 0x40 MLOAD SWAP2 AND SWAP2 SWAP1 DUP3 SWAP1 PUSH32 0x8BE0079C531659141344CD1FD0A4F28419497F9722A3DAAFE3B4186F6B6457E0 SWAP1 PUSH1 0x0 SWAP1 LOG3 POP POP JUMP JUMPDEST PUSH1 0x0 SLOAD PUSH2 0x100 SWAP1 DIV PUSH1 0xFF AND DUP1 PUSH2 0x1633 JUMPI POP PUSH1 0x0 SLOAD PUSH1 0xFF AND ISZERO JUMPDEST PUSH2 0x164F JUMPI PUSH1 0x40 MLOAD PUSH3 0x461BCD PUSH1 0xE5 SHL DUP2 MSTORE PUSH1 0x4 ADD PUSH2 0x988 SWAP1 PUSH2 0x1EFB JUMP JUMPDEST PUSH1 0x0 SLOAD PUSH2 0x100 SWAP1 DIV PUSH1 0xFF AND ISZERO DUP1 ISZERO PUSH2 0x167A JUMPI PUSH1 0x0 DUP1 SLOAD PUSH1 0xFF NOT PUSH2 0xFF00 NOT SWAP1 SWAP2 AND PUSH2 0x100 OR AND PUSH1 0x1 OR SWAP1 SSTORE JUMPDEST PUSH2 0x1682 PUSH2 0x1728 JUMP JUMPDEST PUSH2 0x168A PUSH2 0x179B JUMP JUMPDEST DUP1 ISZERO PUSH2 0x154F JUMPI PUSH1 0x0 DUP1 SLOAD PUSH2 0xFF00 NOT AND SWAP1 SSTORE POP JUMP JUMPDEST PUSH1 0x0 SLOAD PUSH2 0x100 SWAP1 DIV PUSH1 0xFF AND DUP1 PUSH2 0x16B7 JUMPI POP PUSH1 0x0 SLOAD PUSH1 0xFF AND ISZERO JUMPDEST PUSH2 0x16D3 JUMPI PUSH1 0x40 MLOAD PUSH3 0x461BCD PUSH1 0xE5 SHL DUP2 MSTORE PUSH1 0x4 ADD PUSH2 0x988 SWAP1 PUSH2 0x1EFB JUMP JUMPDEST PUSH1 0x0 SLOAD PUSH2 0x100 SWAP1 DIV PUSH1 0xFF AND ISZERO DUP1 ISZERO PUSH2 0x16FE JUMPI PUSH1 0x0 DUP1 SLOAD PUSH1 0xFF NOT PUSH2 0xFF00 NOT SWAP1 SWAP2 AND PUSH2 0x100 OR AND PUSH1 0x1 OR SWAP1 SSTORE JUMPDEST PUSH2 0x168A PUSH2 0x1728 JUMP JUMPDEST PUSH1 0x66 DUP1 SLOAD PUSH1 0x1 PUSH1 0x1 PUSH1 0xA0 SHL SUB NOT AND PUSH1 0x1 PUSH1 0x1 PUSH1 0xA0 SHL SUB SWAP3 SWAP1 SWAP3 AND SWAP2 SWAP1 SWAP2 OR SWAP1 SSTORE JUMP JUMPDEST PUSH1 0x0 SLOAD PUSH2 0x100 SWAP1 DIV PUSH1 0xFF AND DUP1 PUSH2 0x1741 JUMPI POP PUSH1 0x0 SLOAD PUSH1 0xFF AND ISZERO JUMPDEST PUSH2 0x175D JUMPI PUSH1 0x40 MLOAD PUSH3 0x461BCD PUSH1 0xE5 SHL DUP2 MSTORE PUSH1 0x4 ADD PUSH2 0x988 SWAP1 PUSH2 0x1EFB JUMP JUMPDEST PUSH1 0x0 SLOAD PUSH2 0x100 SWAP1 DIV PUSH1 0xFF AND ISZERO DUP1 ISZERO PUSH2 0x168A JUMPI PUSH1 0x0 DUP1 SLOAD PUSH1 0xFF NOT PUSH2 0xFF00 NOT SWAP1 SWAP2 AND PUSH2 0x100 OR AND PUSH1 0x1 OR SWAP1 SSTORE DUP1 ISZERO PUSH2 0x154F JUMPI PUSH1 0x0 DUP1 SLOAD PUSH2 0xFF00 NOT AND SWAP1 SSTORE POP JUMP JUMPDEST PUSH1 0x0 SLOAD PUSH2 0x100 SWAP1 DIV PUSH1 0xFF AND DUP1 PUSH2 0x17B4 JUMPI POP PUSH1 0x0 SLOAD PUSH1 0xFF AND ISZERO JUMPDEST PUSH2 0x17D0 JUMPI PUSH1 0x40 MLOAD PUSH3 0x461BCD PUSH1 0xE5 SHL DUP2 MSTORE PUSH1 0x4 ADD PUSH2 0x988 SWAP1 PUSH2 0x1EFB JUMP JUMPDEST PUSH1 0x0 SLOAD PUSH2 0x100 SWAP1 DIV PUSH1 0xFF AND ISZERO DUP1 ISZERO PUSH2 0x17FB JUMPI PUSH1 0x0 DUP1 SLOAD PUSH1 0xFF NOT PUSH2 0xFF00 NOT SWAP1 SWAP2 AND PUSH2 0x100 OR AND PUSH1 0x1 OR SWAP1 SSTORE JUMPDEST PUSH2 0x168A PUSH2 0x1806 PUSH2 0x157D JUMP JUMPDEST PUSH2 0x15C8 JUMP JUMPDEST DUP3 DUP1 SLOAD PUSH2 0x1817 SWAP1 PUSH2 0x20FF JUMP JUMPDEST SWAP1 PUSH1 0x0 MSTORE PUSH1 0x20 PUSH1 0x0 KECCAK256 SWAP1 PUSH1 0x1F ADD PUSH1 0x20 SWAP1 DIV DUP2 ADD SWAP3 DUP3 PUSH2 0x1839 JUMPI PUSH1 0x0 DUP6 SSTORE PUSH2 0x187F JUMP JUMPDEST DUP3 PUSH1 0x1F LT PUSH2 0x1852 JUMPI DUP1 MLOAD PUSH1 0xFF NOT AND DUP4 DUP1 ADD OR DUP6 SSTORE PUSH2 0x187F JUMP JUMPDEST DUP3 DUP1 ADD PUSH1 0x1 ADD DUP6 SSTORE DUP3 ISZERO PUSH2 0x187F JUMPI SWAP2 DUP3 ADD JUMPDEST DUP3 DUP2 GT ISZERO PUSH2 0x187F JUMPI DUP3 MLOAD DUP3 SSTORE SWAP2 PUSH1 0x20 ADD SWAP2 SWAP1 PUSH1 0x1 ADD SWAP1 PUSH2 0x1864 JUMP JUMPDEST POP PUSH2 0x188B SWAP3 SWAP2 POP PUSH2 0x188F JUMP JUMPDEST POP SWAP1 JUMP JUMPDEST JUMPDEST DUP1 DUP3 GT ISZERO PUSH2 0x188B JUMPI PUSH1 0x0 DUP2 SSTORE PUSH1 0x1 ADD PUSH2 0x1890 JUMP JUMPDEST DUP1 CALLDATALOAD PUSH2 0xB9F DUP2 PUSH2 0x2177 JUMP JUMPDEST PUSH1 0x0 DUP3 PUSH1 0x1F DUP4 ADD SLT PUSH2 0x18BF JUMPI DUP1 DUP2 REVERT JUMPDEST PUSH1 0x40 MLOAD PUSH1 0x80 DUP2 ADD DUP2 DUP2 LT PUSH8 0xFFFFFFFFFFFFFFFF DUP3 GT OR ISZERO PUSH2 0x18E2 JUMPI PUSH2 0x18E2 PUSH2 0x2161 JUMP JUMPDEST PUSH1 0x40 MSTORE DUP1 DUP4 PUSH1 0x80 DUP2 ADD DUP7 LT ISZERO PUSH2 0x18F6 JUMPI DUP4 DUP5 REVERT JUMPDEST DUP4 JUMPDEST PUSH1 0x4 DUP2 LT ISZERO PUSH2 0x1921 JUMPI DUP2 CALLDATALOAD PUSH2 0x190C DUP2 PUSH2 0x2177 JUMP JUMPDEST DUP4 MSTORE PUSH1 0x20 SWAP3 DUP4 ADD SWAP3 SWAP2 SWAP1 SWAP2 ADD SWAP1 PUSH1 0x1 ADD PUSH2 0x18F8 JUMP JUMPDEST POP SWAP2 SWAP6 SWAP5 POP POP POP POP POP JUMP JUMPDEST PUSH1 0x0 DUP3 PUSH1 0x1F DUP4 ADD SLT PUSH2 0x193C JUMPI DUP1 DUP2 REVERT JUMPDEST PUSH1 0x40 MLOAD PUSH2 0x180 DUP1 DUP3 ADD DUP3 DUP2 LT PUSH8 0xFFFFFFFFFFFFFFFF DUP3 GT OR ISZERO PUSH2 0x1961 JUMPI PUSH2 0x1961 PUSH2 0x2161 JUMP JUMPDEST PUSH1 0x40 MSTORE DUP2 DUP5 DUP3 DUP2 ADD DUP8 LT ISZERO PUSH2 0x1974 JUMPI DUP5 DUP6 REVERT JUMPDEST DUP5 SWAP3 POP JUMPDEST PUSH1 0xC DUP4 LT ISZERO PUSH2 0x1921 JUMPI DUP1 CALLDATALOAD DUP3 MSTORE PUSH1 0x1 SWAP3 SWAP1 SWAP3 ADD SWAP2 PUSH1 0x20 SWAP2 DUP3 ADD SWAP2 ADD PUSH2 0x1978 JUMP JUMPDEST PUSH1 0x0 DUP3 PUSH1 0x1F DUP4 ADD SLT PUSH2 0x19A8 JUMPI DUP1 DUP2 REVERT JUMPDEST PUSH1 0x40 MLOAD PUSH2 0x100 DUP1 DUP3 ADD DUP3 DUP2 LT PUSH8 0xFFFFFFFFFFFFFFFF DUP3 GT OR ISZERO PUSH2 0x19CD JUMPI PUSH2 0x19CD PUSH2 0x2161 JUMP JUMPDEST PUSH1 0x40 MSTORE DUP2 DUP5 DUP3 DUP2 ADD DUP8 LT ISZERO PUSH2 0x19E0 JUMPI DUP5 DUP6 REVERT JUMPDEST DUP5 SWAP3 POP JUMPDEST PUSH1 0x8 DUP4 LT ISZERO PUSH2 0x1921 JUMPI DUP1 CALLDATALOAD DUP3 MSTORE PUSH1 0x1 SWAP3 SWAP1 SWAP3 ADD SWAP2 PUSH1 0x20 SWAP2 DUP3 ADD SWAP2 ADD PUSH2 0x19E4 JUMP JUMPDEST DUP1 CALLDATALOAD DUP1 ISZERO ISZERO DUP2 EQ PUSH2 0xB9F JUMPI PUSH1 0x0 DUP1 REVERT JUMPDEST PUSH1 0x0 DUP3 PUSH1 0x1F DUP4 ADD SLT PUSH2 0x1A24 JUMPI DUP1 DUP2 REVERT JUMPDEST DUP2 CALLDATALOAD PUSH8 0xFFFFFFFFFFFFFFFF DUP2 GT ISZERO PUSH2 0x1A3E JUMPI PUSH2 0x1A3E PUSH2 0x2161 JUMP JUMPDEST PUSH2 0x1A51 PUSH1 0x1F DUP3 ADD PUSH1 0x1F NOT AND PUSH1 0x20 ADD PUSH2 0x20D5 JUMP JUMPDEST DUP2 DUP2 MSTORE DUP5 PUSH1 0x20 DUP4 DUP7 ADD ADD GT ISZERO PUSH2 0x1A65 JUMPI DUP3 DUP4 REVERT JUMPDEST DUP2 PUSH1 0x20 DUP6 ADD PUSH1 0x20 DUP4 ADD CALLDATACOPY SWAP1 DUP2 ADD PUSH1 0x20 ADD SWAP2 SWAP1 SWAP2 MSTORE SWAP3 SWAP2 POP POP JUMP JUMPDEST DUP1 MLOAD PUSH10 0xFFFFFFFFFFFFFFFFFFFF DUP2 AND DUP2 EQ PUSH2 0xB9F JUMPI PUSH1 0x0 DUP1 REVERT JUMPDEST PUSH1 0x0 PUSH1 0x20 DUP3 DUP5 SUB SLT ISZERO PUSH2 0x1AAA JUMPI DUP1 DUP2 REVERT JUMPDEST DUP2 CALLDATALOAD PUSH2 0x1AB5 DUP2 PUSH2 0x2177 JUMP JUMPDEST SWAP4 SWAP3 POP POP POP JUMP JUMPDEST PUSH1 0x0 DUP1 PUSH1 0x0 PUSH1 0x60 DUP5 DUP7 SUB SLT ISZERO PUSH2 0x1AD0 JUMPI DUP2 DUP3 REVERT JUMPDEST DUP4 CALLDATALOAD PUSH2 0x1ADB DUP2 PUSH2 0x2177 JUMP JUMPDEST SWAP3 POP PUSH1 0x20 DUP5 ADD CALLDATALOAD PUSH2 0x1AEB DUP2 PUSH2 0x2177 JUMP JUMPDEST SWAP2 POP PUSH1 0x40 DUP5 ADD CALLDATALOAD PUSH2 0x1AFB DUP2 PUSH2 0x2177 JUMP JUMPDEST DUP1 SWAP2 POP POP SWAP3 POP SWAP3 POP SWAP3 JUMP JUMPDEST PUSH1 0x0 DUP1 PUSH1 0x40 DUP4 DUP6 SUB SLT ISZERO PUSH2 0x1B18 JUMPI DUP2 DUP3 REVERT JUMPDEST DUP3 CALLDATALOAD PUSH2 0x1B23 DUP2 PUSH2 0x2177 JUMP JUMPDEST SWAP5 PUSH1 0x20 SWAP4 SWAP1 SWAP4 ADD CALLDATALOAD SWAP4 POP POP POP JUMP JUMPDEST PUSH1 0x0 PUSH1 0x20 DUP1 DUP4 DUP6 SUB SLT ISZERO PUSH2 0x1B43 JUMPI DUP2 DUP3 REVERT JUMPDEST DUP3 MLOAD PUSH8 0xFFFFFFFFFFFFFFFF DUP1 DUP3 GT ISZERO PUSH2 0x1B5A JUMPI DUP4 DUP5 REVERT JUMPDEST DUP2 DUP6 ADD SWAP2 POP DUP6 PUSH1 0x1F DUP4 ADD SLT PUSH2 0x1B6D JUMPI DUP4 DUP5 REVERT JUMPDEST DUP2 MLOAD DUP2 DUP2 GT ISZERO PUSH2 0x1B7F JUMPI PUSH2 0x1B7F PUSH2 0x2161 JUMP JUMPDEST DUP4 DUP2 MUL SWAP2 POP PUSH2 0x1B8F DUP5 DUP4 ADD PUSH2 0x20D5 JUMP JUMPDEST DUP2 DUP2 MSTORE DUP5 DUP2 ADD SWAP1 DUP5 DUP7 ADD DUP5 DUP7 ADD DUP8 ADD DUP11 LT ISZERO PUSH2 0x1BA9 JUMPI DUP8 DUP9 REVERT JUMPDEST DUP8 SWAP6 POP JUMPDEST DUP4 DUP7 LT ISZERO PUSH2 0x1BCB JUMPI DUP1 MLOAD DUP4 MSTORE PUSH1 0x1 SWAP6 SWAP1 SWAP6 ADD SWAP5 SWAP2 DUP7 ADD SWAP2 DUP7 ADD PUSH2 0x1BAD JUMP JUMPDEST POP SWAP9 SWAP8 POP POP POP POP POP POP POP POP JUMP JUMPDEST PUSH1 0x0 DUP1 PUSH1 0x0 DUP1 PUSH1 0x0 DUP1 PUSH1 0x0 DUP1 PUSH1 0x0 DUP1 PUSH2 0x4C0 DUP12 DUP14 SUB SLT ISZERO PUSH2 0x1BF7 JUMPI DUP6 DUP7 REVERT JUMPDEST DUP11 CALLDATALOAD PUSH8 0xFFFFFFFFFFFFFFFF DUP1 DUP3 GT ISZERO PUSH2 0x1C0E JUMPI DUP8 DUP9 REVERT JUMPDEST PUSH2 0x1C1A DUP15 DUP4 DUP16 ADD PUSH2 0x1A14 JUMP JUMPDEST SWAP12 POP PUSH1 0x20 DUP14 ADD CALLDATALOAD SWAP2 POP DUP1 DUP3 GT ISZERO PUSH2 0x1C2F JUMPI DUP8 DUP9 REVERT JUMPDEST POP PUSH2 0x1C3C DUP14 DUP3 DUP15 ADD PUSH2 0x1A14 JUMP JUMPDEST SWAP10 POP POP PUSH2 0x1C4B PUSH1 0x40 DUP13 ADD PUSH2 0x18A4 JUMP JUMPDEST SWAP8 POP PUSH2 0x1C59 PUSH1 0x60 DUP13 ADD PUSH2 0x18A4 JUMP JUMPDEST SWAP7 POP PUSH2 0x1C67 PUSH1 0x80 DUP13 ADD PUSH2 0x18A4 JUMP JUMPDEST SWAP6 POP PUSH2 0x1C76 DUP13 PUSH1 0xA0 DUP14 ADD PUSH2 0x18AF JUMP JUMPDEST SWAP5 POP PUSH2 0x1C86 DUP13 PUSH2 0x120 DUP14 ADD PUSH2 0x192C JUMP JUMPDEST SWAP4 POP PUSH2 0x1C96 DUP13 PUSH2 0x2A0 DUP14 ADD PUSH2 0x1998 JUMP JUMPDEST SWAP3 POP PUSH2 0x1CA6 DUP13 PUSH2 0x3A0 DUP14 ADD PUSH2 0x1998 JUMP JUMPDEST SWAP2 POP PUSH2 0x1CB5 PUSH2 0x4A0 DUP13 ADD PUSH2 0x1A04 JUMP JUMPDEST SWAP1 POP SWAP3 SWAP6 SWAP9 SWAP12 SWAP2 SWAP5 SWAP8 SWAP11 POP SWAP3 SWAP6 SWAP9 POP JUMP JUMPDEST PUSH1 0x0 PUSH1 0x20 DUP3 DUP5 SUB SLT ISZERO PUSH2 0x1CD7 JUMPI DUP1 DUP2 REVERT JUMPDEST POP CALLDATALOAD SWAP2 SWAP1 POP JUMP JUMPDEST PUSH1 0x0 PUSH1 0x20 DUP3 DUP5 SUB SLT ISZERO PUSH2 0x1CEF JUMPI DUP1 DUP2 REVERT JUMPDEST POP MLOAD SWAP2 SWAP1 POP JUMP JUMPDEST PUSH1 0x0 DUP1 PUSH1 0x0 DUP1 PUSH1 0x0 PUSH1 0xA0 DUP7 DUP9 SUB SLT ISZERO PUSH2 0x1D0D JUMPI DUP3 DUP4 REVERT JUMPDEST PUSH2 0x1D16 DUP7 PUSH2 0x1A7F JUMP JUMPDEST SWAP5 POP PUSH1 0x20 DUP7 ADD MLOAD SWAP4 POP PUSH1 0x40 DUP7 ADD MLOAD SWAP3 POP PUSH1 0x60 DUP7 ADD MLOAD SWAP2 POP PUSH2 0x1D39 PUSH1 0x80 DUP8 ADD PUSH2 0x1A7F JUMP JUMPDEST SWAP1 POP SWAP3 SWAP6 POP SWAP3 SWAP6 SWAP1 SWAP4 POP JUMP JUMPDEST PUSH1 0x0 PUSH1 0x20 DUP3 DUP5 SUB SLT ISZERO PUSH2 0x1D56 JUMPI DUP1 DUP2 REVERT JUMPDEST DUP2 MLOAD PUSH1 0xFF DUP2 AND DUP2 EQ PUSH2 0x1AB5 JUMPI DUP2 DUP3 REVERT JUMPDEST PUSH1 0x0 DUP2 MLOAD DUP1 DUP5 MSTORE PUSH1 0x20 DUP1 DUP6 ADD SWAP5 POP DUP1 DUP5 ADD DUP4 JUMPDEST DUP4 DUP2 LT ISZERO PUSH2 0x1D9E JUMPI DUP2 MLOAD PUSH1 0x1 PUSH1 0x1 PUSH1 0xA0 SHL SUB AND DUP8 MSTORE SWAP6 DUP3 ADD SWAP6 SWAP1 DUP3 ADD SWAP1 PUSH1 0x1 ADD PUSH2 0x1D79 JUMP JUMPDEST POP SWAP5 SWAP6 SWAP5 POP POP POP POP POP JUMP JUMPDEST PUSH1 0x1 PUSH1 0x1 PUSH1 0xA0 SHL SUB SWAP2 SWAP1 SWAP2 AND DUP2 MSTORE PUSH1 0x20 ADD SWAP1 JUMP JUMPDEST PUSH1 0x1 PUSH1 0x1 PUSH1 0xA0 SHL SUB SWAP3 SWAP1 SWAP3 AND DUP3 MSTORE PUSH1 0x20 DUP3 ADD MSTORE PUSH1 0x40 ADD SWAP1 JUMP JUMPDEST PUSH1 0x0 PUSH1 0x20 DUP3 MSTORE PUSH2 0x1AB5 PUSH1 0x20 DUP4 ADD DUP5 PUSH2 0x1D66 JUMP JUMPDEST SWAP1 ISZERO ISZERO DUP2 MSTORE PUSH1 0x20 ADD SWAP1 JUMP JUMPDEST PUSH1 0x0 PUSH1 0x20 DUP1 DUP4 MSTORE DUP4 MLOAD DUP1 DUP3 DUP6 ADD MSTORE DUP3 JUMPDEST DUP2 DUP2 LT ISZERO PUSH2 0x1E20 JUMPI DUP6 DUP2 ADD DUP4 ADD MLOAD DUP6 DUP3 ADD PUSH1 0x40 ADD MSTORE DUP3 ADD PUSH2 0x1E04 JUMP JUMPDEST DUP2 DUP2 GT ISZERO PUSH2 0x1E31 JUMPI DUP4 PUSH1 0x40 DUP4 DUP8 ADD ADD MSTORE JUMPDEST POP PUSH1 0x1F ADD PUSH1 0x1F NOT AND SWAP3 SWAP1 SWAP3 ADD PUSH1 0x40 ADD SWAP4 SWAP3 POP POP POP JUMP JUMPDEST PUSH1 0x20 DUP1 DUP3 MSTORE PUSH1 0x1A SWAP1 DUP3 ADD MSTORE PUSH32 0x55706772616465206973206E6F7420656E61626C656420796574000000000000 PUSH1 0x40 DUP3 ADD MSTORE PUSH1 0x60 ADD SWAP1 JUMP JUMPDEST PUSH1 0x20 DUP1 DUP3 MSTORE PUSH1 0x26 SWAP1 DUP3 ADD MSTORE PUSH32 0x4F776E61626C653A206E6577206F776E657220697320746865207A65726F2061 PUSH1 0x40 DUP3 ADD MSTORE PUSH6 0x646472657373 PUSH1 0xD0 SHL PUSH1 0x60 DUP3 ADD MSTORE PUSH1 0x80 ADD SWAP1 JUMP JUMPDEST PUSH1 0x20 DUP1 DUP3 MSTORE PUSH1 0x1D SWAP1 DUP3 ADD MSTORE PUSH32 0x497320616C72656164792074686520696D706C656D656E746174696F6E000000 PUSH1 0x40 DUP3 ADD MSTORE PUSH1 0x60 ADD SWAP1 JUMP JUMPDEST PUSH1 0x20 DUP1 DUP3 MSTORE PUSH1 0x2E SWAP1 DUP3 ADD MSTORE PUSH32 0x496E697469616C697A61626C653A20636F6E747261637420697320616C726561 PUSH1 0x40 DUP3 ADD MSTORE PUSH14 0x191E481A5B9A5D1A585B1A5E9959 PUSH1 0x92 SHL PUSH1 0x60 DUP3 ADD MSTORE PUSH1 0x80 ADD SWAP1 JUMP JUMPDEST PUSH1 0x20 DUP1 DUP3 MSTORE DUP2 DUP2 ADD MSTORE PUSH32 0x4F776E61626C653A2063616C6C6572206973206E6F7420746865206F776E6572 PUSH1 0x40 DUP3 ADD MSTORE PUSH1 0x60 ADD SWAP1 JUMP JUMPDEST PUSH1 0x20 DUP1 DUP3 MSTORE PUSH1 0x25 SWAP1 DUP3 ADD MSTORE PUSH32 0x30333031206C61756E636820646174652063616E277420626520696E20746865 PUSH1 0x40 DUP3 ADD MSTORE PUSH5 0x81C185CDD PUSH1 0xDA SHL PUSH1 0x60 DUP3 ADD MSTORE PUSH1 0x80 ADD SWAP1 JUMP JUMPDEST PUSH1 0x20 DUP1 DUP3 MSTORE PUSH1 0x1A SWAP1 DUP3 ADD MSTORE PUSH32 0x6D73672E73656E646572206973206E6F7420616E206F776E6572000000000000 PUSH1 0x40 DUP3 ADD MSTORE PUSH1 0x60 ADD SWAP1 JUMP JUMPDEST SWAP1 DUP2 MSTORE PUSH1 0x20 ADD SWAP1 JUMP JUMPDEST PUSH1 0x0 DUP4 DUP3 MSTORE PUSH1 0x40 PUSH1 0x20 DUP4 ADD MSTORE PUSH2 0x201C PUSH1 0x40 DUP4 ADD DUP5 PUSH2 0x1D66 JUMP JUMPDEST SWAP5 SWAP4 POP POP POP POP JUMP JUMPDEST SWAP2 DUP3 MSTORE PUSH1 0x20 DUP3 ADD MSTORE PUSH1 0x40 ADD SWAP1 JUMP JUMPDEST SWAP9 DUP10 MSTORE PUSH1 0x20 DUP10 ADD SWAP8 SWAP1 SWAP8 MSTORE PUSH1 0x40 DUP9 ADD SWAP6 SWAP1 SWAP6 MSTORE PUSH1 0x60 DUP8 ADD SWAP4 SWAP1 SWAP4 MSTORE PUSH1 0x80 DUP7 ADD SWAP2 SWAP1 SWAP2 MSTORE PUSH1 0xA0 DUP6 ADD MSTORE PUSH1 0xC0 DUP5 ADD MSTORE ISZERO ISZERO PUSH1 0xE0 DUP4 ADD MSTORE ISZERO ISZERO PUSH2 0x100 DUP3 ADD MSTORE PUSH2 0x120 ADD SWAP1 JUMP JUMPDEST SWAP11 DUP12 MSTORE PUSH1 0x20 DUP12 ADD SWAP10 SWAP1 SWAP10 MSTORE PUSH1 0x40 DUP11 ADD SWAP8 SWAP1 SWAP8 MSTORE PUSH1 0x60 DUP10 ADD SWAP6 SWAP1 SWAP6 MSTORE PUSH1 0x80 DUP9 ADD SWAP4 SWAP1 SWAP4 MSTORE PUSH1 0xA0 DUP8 ADD SWAP2 SWAP1 SWAP2 MSTORE PUSH1 0xC0 DUP7 ADD MSTORE PUSH1 0xE0 DUP6 ADD MSTORE PUSH2 0x100 DUP5 ADD MSTORE ISZERO ISZERO PUSH2 0x120 DUP4 ADD MSTORE ISZERO ISZERO PUSH2 0x140 DUP3 ADD MSTORE PUSH2 0x160 ADD SWAP1 JUMP JUMPDEST PUSH1 0xFF SWAP2 SWAP1 SWAP2 AND DUP2 MSTORE PUSH1 0x20 ADD SWAP1 JUMP JUMPDEST PUSH1 0x40 MLOAD DUP2 DUP2 ADD PUSH8 0xFFFFFFFFFFFFFFFF DUP2 GT DUP3 DUP3 LT OR ISZERO PUSH2 0x20F7 JUMPI PUSH2 0x20F7 PUSH2 0x2161 JUMP JUMPDEST PUSH1 0x40 MSTORE SWAP2 SWAP1 POP JUMP JUMPDEST PUSH1 0x2 DUP2 DIV PUSH1 0x1 DUP3 AND DUP1 PUSH2 0x2113 JUMPI PUSH1 0x7F DUP3 AND SWAP2 POP JUMPDEST PUSH1 0x20 DUP3 LT DUP2 EQ ISZERO PUSH2 0x2134 JUMPI PUSH4 0x4E487B71 PUSH1 0xE0 SHL PUSH1 0x0 MSTORE PUSH1 0x22 PUSH1 0x4 MSTORE PUSH1 0x24 PUSH1 0x0 REVERT JUMPDEST POP SWAP2 SWAP1 POP JUMP JUMPDEST PUSH1 0x0 PUSH1 0x0 NOT DUP3 EQ ISZERO PUSH2 0x215A JUMPI PUSH4 0x4E487B71 PUSH1 0xE0 SHL DUP2 MSTORE PUSH1 0x11 PUSH1 0x4 MSTORE PUSH1 0x24 DUP2 REVERT JUMPDEST POP PUSH1 0x1 ADD SWAP1 JUMP JUMPDEST PUSH4 0x4E487B71 PUSH1 0xE0 SHL PUSH1 0x0 MSTORE PUSH1 0x41 PUSH1 0x4 MSTORE PUSH1 0x24 PUSH1 0x0 REVERT JUMPDEST PUSH1 0x1 PUSH1 0x1 PUSH1 0xA0 SHL SUB DUP2 AND DUP2 EQ PUSH2 0x154F JUMPI PUSH1 0x0 DUP1 REVERT INVALID LOG2 PUSH5 0x6970667358 0x22 SLT KECCAK256 DUP10 COINBASE 0xE2 MSTORE8 0xE8 PUSH29 0xDD920DC2E7B088FC78D8C0047F31483A1848E7336CA4AD74A59464736F PUSH13 0x63430008000033A26469706673 PC 0x22 SLT KECCAK256 0x2F 0xED 0xB5 SWAP12 DIV POP 0x2D SMOD DUP7 SWAP1 INVALID 0xAB MULMOD PUSH7 0x4D1483582AF6DC 0xEF 0xB5 PUSH19 0x6795FFEDF567577364736F6C63430008000033 "
    },
    "gasEstimates": {
      "creation": {
        "codeDepositCost": "2537600",
        "executionCost": "infinite",
        "totalCost": "infinite"
      },
      "external": {
        "addPoolCreator(address)": "infinite",
        "createPoolProxy(address,address,string,string,uint256[12],uint256[8],uint256[8],bool)": "infinite",
        "isPoolCreator(address)": "infinite",
        "minimumStakeAmount()": "1073",
        "renouncePoolCreator()": "23334",
        "rewardManager()": "1094",
        "setDefaultTaxRate(uint256)": "21325",
        "setNewStakingPoolImplementationAdr(address)": "infinite",
        "setNewSuperAdmin(address)": "infinite",
        "setSwapRouter(address)": "infinite",
        "stakingPoolImplementationAdr()": "1115",
        "stakingPoolTaxRate()": "1118",
        "superAdmin()": "1116",
        "swapRouter()": "1137",
        "totemToken()": "1136",
        "usdToken()": "1158"
      },
      "internal": {
        "_createPool(address[4] memory,string memory,string memory,uint256[12] memory,uint256[8] memory,uint256[8] memory,bool,contract StakingPoolProxy)": "infinite"
      }
    },
    "methodIdentifiers": {
      "addPoolCreator(address)": "8c2d741c",
      "createPoolProxy(address,address,string,string,uint256[12],uint256[8],uint256[8],bool)": "ceba6f8d",
      "isPoolCreator(address)": "9a94775d",
      "minimumStakeAmount()": "6b036f45",
      "renouncePoolCreator()": "e281cc7e",
      "rewardManager()": "0f4ef8a6",
      "setDefaultTaxRate(uint256)": "d53b245b",
      "setNewStakingPoolImplementationAdr(address)": "49a84429",
      "setNewSuperAdmin(address)": "b6c3ef27",
      "setSwapRouter(address)": "41273657",
      "stakingPoolImplementationAdr()": "bc8a0669",
      "stakingPoolTaxRate()": "441f5c65",
      "superAdmin()": "29575f6a",
      "swapRouter()": "c31c9c07",
      "totemToken()": "e8153c93",
      "usdToken()": "f897a22b"
    }
  },
  "storageLayout": {
    "storage": [
      {
        "astId": 1776,
        "contract": "contracts/Staking/StakingPoolFactory.sol:StakingPoolFactory",
        "label": "_poolCreators",
        "offset": 0,
        "slot": "0",
        "type": "t_struct(Role)1995_storage"
      },
      {
        "astId": 2087,
        "contract": "contracts/Staking/StakingPoolFactory.sol:StakingPoolFactory",
        "label": "totemToken",
        "offset": 0,
        "slot": "1",
        "type": "t_contract(ITotemToken)7437"
      },
      {
        "astId": 2090,
        "contract": "contracts/Staking/StakingPoolFactory.sol:StakingPoolFactory",
        "label": "rewardManager",
        "offset": 0,
        "slot": "2",
        "type": "t_contract(IRewardManager)7344"
      },
      {
        "astId": 2092,
        "contract": "contracts/Staking/StakingPoolFactory.sol:StakingPoolFactory",
        "label": "superAdmin",
        "offset": 0,
        "slot": "3",
        "type": "t_address"
      },
      {
        "astId": 2094,
        "contract": "contracts/Staking/StakingPoolFactory.sol:StakingPoolFactory",
        "label": "stakingPoolImplementationAdr",
        "offset": 0,
        "slot": "4",
        "type": "t_address"
      },
      {
        "astId": 2096,
        "contract": "contracts/Staking/StakingPoolFactory.sol:StakingPoolFactory",
        "label": "swapRouter",
        "offset": 0,
        "slot": "5",
        "type": "t_address"
      },
      {
        "astId": 2098,
        "contract": "contracts/Staking/StakingPoolFactory.sol:StakingPoolFactory",
        "label": "usdToken",
        "offset": 0,
        "slot": "6",
        "type": "t_address"
      },
      {
        "astId": 2100,
        "contract": "contracts/Staking/StakingPoolFactory.sol:StakingPoolFactory",
        "label": "stakingPoolTaxRate",
        "offset": 0,
        "slot": "7",
        "type": "t_uint256"
      },
      {
        "astId": 2102,
        "contract": "contracts/Staking/StakingPoolFactory.sol:StakingPoolFactory",
        "label": "minimumStakeAmount",
        "offset": 0,
        "slot": "8",
        "type": "t_uint256"
      }
    ],
    "types": {
      "t_address": {
        "encoding": "inplace",
        "label": "address",
        "numberOfBytes": "20"
      },
      "t_bool": {
        "encoding": "inplace",
        "label": "bool",
        "numberOfBytes": "1"
      },
      "t_contract(IRewardManager)7344": {
        "encoding": "inplace",
        "label": "contract IRewardManager",
        "numberOfBytes": "20"
      },
      "t_contract(ITotemToken)7437": {
        "encoding": "inplace",
        "label": "contract ITotemToken",
        "numberOfBytes": "20"
      },
      "t_mapping(t_address,t_bool)": {
        "encoding": "mapping",
        "key": "t_address",
        "label": "mapping(address => bool)",
        "numberOfBytes": "32",
        "value": "t_bool"
      },
      "t_struct(Role)1995_storage": {
        "encoding": "inplace",
        "label": "struct Roles.Role",
        "members": [
          {
            "astId": 1994,
            "contract": "contracts/Staking/StakingPoolFactory.sol:StakingPoolFactory",
            "label": "bearer",
            "offset": 0,
            "slot": "0",
            "type": "t_mapping(t_address,t_bool)"
          }
        ],
        "numberOfBytes": "32"
      },
      "t_uint256": {
        "encoding": "inplace",
        "label": "uint256",
        "numberOfBytes": "32"
      }
    }
  },
  "userdoc": {
    "kind": "user",
    "methods": {
      "createPoolProxy(address,address,string,string,uint256[12],uint256[8],uint256[8],bool)": {
        "notice": "creates a StakingPoolProxy for the  provided stakingPoolImplementationAdr and initializes it so that the pool is ready to be used."
      },
      "setNewStakingPoolImplementationAdr(address)": {
        "notice": "This function is called whenever we want to use a new StakingPoolImplementation to create our proxies for."
      },
      "setNewSuperAdmin(address)": {
        "notice": "Changes superAdmin's address so that new StakingPoolProxies have this new superAdmin"
      }
    },
    "version": 1
  }
}