{
  "contractName": "TeamVesting",
  "sourceName": "contracts/TotemVesting/TeamVesting.sol",
  "abi": [
    {
      "inputs": [
        {
          "internalType": "contract TotemToken",
          "name": "_totemToken",
          "type": "address"
        }
      ],
      "stateMutability": "nonpayable",
      "type": "constructor"
    },
    {
      "anonymous": false,
      "inputs": [
        {
          "indexed": true,
          "internalType": "address",
          "name": "previousOwner",
          "type": "address"
        },
        {
          "indexed": true,
          "internalType": "address",
          "name": "newOwner",
          "type": "address"
        }
      ],
      "name": "OwnershipTransferred",
      "type": "event"
    },
    {
      "anonymous": false,
      "inputs": [
        {
          "indexed": false,
          "internalType": "uint256",
          "name": "startTime",
          "type": "uint256"
        }
      ],
      "name": "StartTimeSet",
      "type": "event"
    },
    {
      "anonymous": false,
      "inputs": [
        {
          "indexed": false,
          "internalType": "address",
          "name": "registeredAddress",
          "type": "address"
        },
        {
          "indexed": false,
          "internalType": "uint256",
          "name": "totalAmount",
          "type": "uint256"
        }
      ],
      "name": "VestingScheduleRegistered",
      "type": "event"
    },
    {
      "anonymous": false,
      "inputs": [
        {
          "indexed": false,
          "internalType": "address",
          "name": "registeredAddress",
          "type": "address"
        },
        {
          "indexed": false,
          "internalType": "uint256",
          "name": "amountWithdrawn",
          "type": "uint256"
        }
      ],
      "name": "Withdraw",
      "type": "event"
    },
    {
      "inputs": [],
      "name": "LOCK_PERIODS",
      "outputs": [
        {
          "internalType": "uint256",
          "name": "",
          "type": "uint256"
        }
      ],
      "stateMutability": "view",
      "type": "function"
    },
    {
      "inputs": [],
      "name": "RELEASE_PERIODS",
      "outputs": [
        {
          "internalType": "uint256",
          "name": "",
          "type": "uint256"
        }
      ],
      "stateMutability": "view",
      "type": "function"
    },
    {
      "inputs": [],
      "name": "TOTAL_AMOUNT",
      "outputs": [
        {
          "internalType": "uint256",
          "name": "",
          "type": "uint256"
        }
      ],
      "stateMutability": "view",
      "type": "function"
    },
    {
      "inputs": [],
      "name": "WITHDRAW_INTERVAL",
      "outputs": [
        {
          "internalType": "uint256",
          "name": "",
          "type": "uint256"
        }
      ],
      "stateMutability": "view",
      "type": "function"
    },
    {
      "inputs": [
        {
          "internalType": "address",
          "name": "_newRecipient",
          "type": "address"
        },
        {
          "internalType": "uint256",
          "name": "_totalAmount",
          "type": "uint256"
        }
      ],
      "name": "addRecipient",
      "outputs": [],
      "stateMutability": "nonpayable",
      "type": "function"
    },
    {
      "inputs": [],
      "name": "isStartTimeSet",
      "outputs": [
        {
          "internalType": "bool",
          "name": "",
          "type": "bool"
        }
      ],
      "stateMutability": "view",
      "type": "function"
    },
    {
      "inputs": [],
      "name": "lockPeriods",
      "outputs": [
        {
          "internalType": "uint256",
          "name": "",
          "type": "uint256"
        }
      ],
      "stateMutability": "view",
      "type": "function"
    },
    {
      "inputs": [],
      "name": "owner",
      "outputs": [
        {
          "internalType": "address",
          "name": "",
          "type": "address"
        }
      ],
      "stateMutability": "view",
      "type": "function"
    },
    {
      "inputs": [
        {
          "internalType": "address",
          "name": "",
          "type": "address"
        }
      ],
      "name": "recipients",
      "outputs": [
        {
          "internalType": "uint256",
          "name": "totalAmount",
          "type": "uint256"
        },
        {
          "internalType": "uint256",
          "name": "amountWithdrawn",
          "type": "uint256"
        }
      ],
      "stateMutability": "view",
      "type": "function"
    },
    {
      "inputs": [],
      "name": "releasePeriods",
      "outputs": [
        {
          "internalType": "uint256",
          "name": "",
          "type": "uint256"
        }
      ],
      "stateMutability": "view",
      "type": "function"
    },
    {
      "inputs": [],
      "name": "renounceOwnership",
      "outputs": [],
      "stateMutability": "nonpayable",
      "type": "function"
    },
    {
      "inputs": [
        {
          "internalType": "uint256",
          "name": "_newStartTime",
          "type": "uint256"
        }
      ],
      "name": "setStartTime",
      "outputs": [],
      "stateMutability": "nonpayable",
      "type": "function"
    },
    {
      "inputs": [],
      "name": "startTime",
      "outputs": [
        {
          "internalType": "uint256",
          "name": "",
          "type": "uint256"
        }
      ],
      "stateMutability": "view",
      "type": "function"
    },
    {
      "inputs": [],
      "name": "totalAmount",
      "outputs": [
        {
          "internalType": "uint256",
          "name": "",
          "type": "uint256"
        }
      ],
      "stateMutability": "view",
      "type": "function"
    },
    {
      "inputs": [],
      "name": "totemToken",
      "outputs": [
        {
          "internalType": "contract TotemToken",
          "name": "",
          "type": "address"
        }
      ],
      "stateMutability": "view",
      "type": "function"
    },
    {
      "inputs": [
        {
          "internalType": "address",
          "name": "newOwner",
          "type": "address"
        }
      ],
      "name": "transferOwnership",
      "outputs": [],
      "stateMutability": "nonpayable",
      "type": "function"
    },
    {
      "inputs": [],
      "name": "unallocatedAmount",
      "outputs": [
        {
          "internalType": "uint256",
          "name": "",
          "type": "uint256"
        }
      ],
      "stateMutability": "view",
      "type": "function"
    },
    {
      "inputs": [
        {
          "internalType": "address",
          "name": "beneficiary",
          "type": "address"
        }
      ],
      "name": "vested",
      "outputs": [
        {
          "internalType": "uint256",
          "name": "_amountVested",
          "type": "uint256"
        }
      ],
      "stateMutability": "view",
      "type": "function"
    },
    {
      "inputs": [],
      "name": "withdraw",
      "outputs": [],
      "stateMutability": "nonpayable",
      "type": "function"
    },
    {
      "inputs": [],
      "name": "withdrawInterval",
      "outputs": [
        {
          "internalType": "uint256",
          "name": "",
          "type": "uint256"
        }
      ],
      "stateMutability": "view",
      "type": "function"
    },
    {
      "inputs": [
        {
          "internalType": "address",
          "name": "beneficiary",
          "type": "address"
        }
      ],
      "name": "withdrawable",
      "outputs": [
        {
          "internalType": "uint256",
          "name": "amount",
          "type": "uint256"
        }
      ],
      "stateMutability": "view",
      "type": "function"
    }
  ],
  "bytecode": "0x608060405234801561001057600080fd5b50604051610dcb380380610dcb8339818101604052602081101561003357600080fd5b5051806a013da329b633647180000062278d00600c6006600061005461010a565b600080546001600160a01b0319166001600160a01b0383169081178255604051929350917f8be0079c531659141344cd1fd0a4f28419497f9722a3daafe3b4186f6b6457e0908290a350600084116100ab57600080fd5b600083116100b857600080fd5b600082116100c557600080fd5b600980546001600160a01b0319166001600160a01b0396909616959095179094556007839055600892909255600455600555600655506003805460ff1916905561010e565b3390565b610cae8061011d6000396000f3fe608060405234801561001057600080fd5b50600436106101365760003560e01c8063715018a6116100b8578063e8153c931161007c578063e8153c9314610234578063eb8203121461023c578063f2fde38b1461027b578063f361c59b146102a1578063f57c8cdf146102bd578063f7982243146102c557610136565b8063715018a6146101d257806378e97925146101da5780638da5cb5b146101e2578063a2d7f5e314610206578063ce513b6f1461020e57610136565b80633ccfd60b116100ff5780633ccfd60b146101755780633e0a322d1461017f578063494051a01461019c5780634afe5bf3146101a45780637102b728146101ac57610136565b8062ad3a231461013b578063162075d8146101555780631a39d8ef1461015d5780632509e0861461016557806330c6b5eb1461016d575b600080fd5b6101436102f1565b60408051918252519081900360200190f35b6101436102f6565b6101436102fc565b610143610302565b610143610308565b61017d61030f565b005b61017d6004803603602081101561019557600080fd5b5035610460565b610143610532565b610143610537565b610143600480360360208110156101c257600080fd5b50356001600160a01b031661053d565b61017d6106d1565b61014361077d565b6101ea610783565b604080516001600160a01b039092168252519081900360200190f35b610143610792565b6101436004803603602081101561022457600080fd5b50356001600160a01b03166107a1565b6101ea6107d6565b6102626004803603602081101561025257600080fd5b50356001600160a01b03166107e5565b6040805192835260208301919091528051918290030190f35b61017d6004803603602081101561029157600080fd5b50356001600160a01b03166107fe565b6102a9610900565b604080519115158252519081900360200190f35b610143610909565b61017d600480360360408110156102db57600080fd5b506001600160a01b03813516906020013561090f565b600c81565b60045481565b60075481565b60065481565b62278d0081565b60006001600061031d610a8f565b6001600160a01b0316815260208101919091526040016000208054909150610345575061045e565b6000610357610352610a8f565b61053d565b9050600061036b610366610a8f565b6107a1565b600184018390559050801561045a576009546001600160a01b031663a9059cbb610393610a8f565b836040518363ffffffff1660e01b815260040180836001600160a01b0316815260200182815260200192505050602060405180830381600087803b1580156103da57600080fd5b505af11580156103ee573d6000803e3d6000fd5b505050506040513d602081101561040457600080fd5b505161040f57600080fd5b7f884edad9ce6fa2440d8a54cc123490eb96d2768479d49ff9c7366125a9424364610438610a8f565b604080516001600160a01b039092168252602082018490528051918290030190a15b5050505b565b610468610a8f565b6001600160a01b0316610479610783565b6001600160a01b0316146104c2576040805162461bcd60e51b81526020600482018190526024820152600080516020610c59833981519152604482015290519081900360640190fd5b60035460ff1615806104d5575042600254115b6104de57600080fd5b4281116104ea57600080fd5b60028190556003805460ff191660011790556040805182815290517faad53c4362ef2fe5a5390cc046e71fd8423a0a8dceebc156ac9bbcd15997eec29181900360200190a150565b600681565b60085481565b6001600160a01b0381166000908152600160208181526040808420815180830190925280548252909201549082015260035460ff16158061057d57508051155b8061059357506006541580156105935750600554155b8061059f575060025442105b156105ae5760009150506106cc565b60006105c7600654600454610a9390919063ffffffff16565b6002549091506105d79082610af3565b4210156105e9576000925050506106cc565b600061060e610605600554600654610af390919063ffffffff16565b60045490610a93565b60025490915061061e9082610af3565b421061062e5750505190506106cc565b600061065160045461064b60025442610b4d90919063ffffffff16565b90610baa565b6001019050600654811161066c5760009450505050506106cc565b60055460065461067b91610af3565b811061068e575050905191506106cc9050565b60055484516000916106a09190610baa565b905060006106c3826106bd60065486610b4d90919063ffffffff16565b90610a93565b96505050505050505b919050565b6106d9610a8f565b6001600160a01b03166106ea610783565b6001600160a01b031614610733576040805162461bcd60e51b81526020600482018190526024820152600080516020610c59833981519152604482015290519081900360640190fd5b600080546040516001600160a01b03909116907f8be0079c531659141344cd1fd0a4f28419497f9722a3daafe3b4186f6b6457e0908390a3600080546001600160a01b0319169055565b60025481565b6000546001600160a01b031690565b6a013da329b633647180000081565b6001600160a01b0381166000908152600160208190526040822001546107d0906107ca8461053d565b90610b4d565b92915050565b6009546001600160a01b031681565b6001602081905260009182526040909120805491015482565b610806610a8f565b6001600160a01b0316610817610783565b6001600160a01b031614610860576040805162461bcd60e51b81526020600482018190526024820152600080516020610c59833981519152604482015290519081900360640190fd5b6001600160a01b0381166108a55760405162461bcd60e51b8152600401808060200182810382526026815260200180610c126026913960400191505060405180910390fd5b600080546040516001600160a01b03808516939216917f8be0079c531659141344cd1fd0a4f28419497f9722a3daafe3b4186f6b6457e091a3600080546001600160a01b0319166001600160a01b0392909216919091179055565b60035460ff1681565b60055481565b610917610a8f565b6001600160a01b0316610928610783565b6001600160a01b031614610971576040805162461bcd60e51b81526020600482018190526024820152600080516020610c59833981519152604482015290519081900360640190fd5b60035460ff161580610984575042600254115b61098d57600080fd5b6001600160a01b0382166109a057600080fd5b6001600160a01b038216600090815260016020526040902054156109e7576001600160a01b0382166000908152600160205260409020546008546109e391610af3565b6008555b6000811180156109f957506008548111155b610a0257600080fd5b604080518082018252828152600060208083018281526001600160a01b038716835260019182905293909120915182559151910155600854610a449082610b4d565b600855604080516001600160a01b03841681526020810183905281517f16e42921daee38136dc17f8420c371163ec8299e5299fb480d7aeff85cfac3eb929181900390910190a15050565b3390565b600082610aa2575060006107d0565b82820282848281610aaf57fe5b0414610aec5760405162461bcd60e51b8152600401808060200182810382526021815260200180610c386021913960400191505060405180910390fd5b9392505050565b600082820183811015610aec576040805162461bcd60e51b815260206004820152601b60248201527f536166654d6174683a206164646974696f6e206f766572666c6f770000000000604482015290519081900360640190fd5b600082821115610ba4576040805162461bcd60e51b815260206004820152601e60248201527f536166654d6174683a207375627472616374696f6e206f766572666c6f770000604482015290519081900360640190fd5b50900390565b6000808211610c00576040805162461bcd60e51b815260206004820152601a60248201527f536166654d6174683a206469766973696f6e206279207a65726f000000000000604482015290519081900360640190fd5b818381610c0957fe5b04939250505056fe4f776e61626c653a206e6577206f776e657220697320746865207a65726f2061646472657373536166654d6174683a206d756c7469706c69636174696f6e206f766572666c6f774f776e61626c653a2063616c6c6572206973206e6f7420746865206f776e6572a264697066735822122014f59a1c5983e8b6de6394e5acdd2ffd70c854c810c082489298eac82f635fb864736f6c63430007060033",
  "linkReferences": {},
  "deployedLinkReferences": {},
  "devdoc": {
    "kind": "dev",
    "methods": {
      "owner()": {
        "details": "Returns the address of the current owner."
      },
      "renounceOwnership()": {
        "details": "Leaves the contract without owner. It will not be possible to call `onlyOwner` functions anymore. Can only be called by the current owner. NOTE: Renouncing ownership will leave the contract without an owner, thereby removing any functionality that is only available to the owner."
      },
      "transferOwnership(address)": {
        "details": "Transfers ownership of the contract to a new account (`newOwner`). Can only be called by the current owner."
      }
    },
    "version": 1
  },
  "evm": {
    "bytecode": {
      "linkReferences": {},
      "opcodes": "PUSH1 0x80 PUSH1 0x40 MSTORE CALLVALUE DUP1 ISZERO PUSH2 0x10 JUMPI PUSH1 0x0 DUP1 REVERT JUMPDEST POP PUSH1 0x40 MLOAD PUSH2 0xDCB CODESIZE SUB DUP1 PUSH2 0xDCB DUP4 CODECOPY DUP2 DUP2 ADD PUSH1 0x40 MSTORE PUSH1 0x20 DUP2 LT ISZERO PUSH2 0x33 JUMPI PUSH1 0x0 DUP1 REVERT JUMPDEST POP MLOAD DUP1 PUSH11 0x13DA329B6336471800000 PUSH3 0x278D00 PUSH1 0xC PUSH1 0x6 PUSH1 0x0 PUSH2 0x54 PUSH2 0x10A JUMP JUMPDEST PUSH1 0x0 DUP1 SLOAD PUSH1 0x1 PUSH1 0x1 PUSH1 0xA0 SHL SUB NOT AND PUSH1 0x1 PUSH1 0x1 PUSH1 0xA0 SHL SUB DUP4 AND SWAP1 DUP2 OR DUP3 SSTORE PUSH1 0x40 MLOAD SWAP3 SWAP4 POP SWAP2 PUSH32 0x8BE0079C531659141344CD1FD0A4F28419497F9722A3DAAFE3B4186F6B6457E0 SWAP1 DUP3 SWAP1 LOG3 POP PUSH1 0x0 DUP5 GT PUSH2 0xAB JUMPI PUSH1 0x0 DUP1 REVERT JUMPDEST PUSH1 0x0 DUP4 GT PUSH2 0xB8 JUMPI PUSH1 0x0 DUP1 REVERT JUMPDEST PUSH1 0x0 DUP3 GT PUSH2 0xC5 JUMPI PUSH1 0x0 DUP1 REVERT JUMPDEST PUSH1 0x9 DUP1 SLOAD PUSH1 0x1 PUSH1 0x1 PUSH1 0xA0 SHL SUB NOT AND PUSH1 0x1 PUSH1 0x1 PUSH1 0xA0 SHL SUB SWAP7 SWAP1 SWAP7 AND SWAP6 SWAP1 SWAP6 OR SWAP1 SWAP5 SSTORE PUSH1 0x7 DUP4 SWAP1 SSTORE PUSH1 0x8 SWAP3 SWAP1 SWAP3 SSTORE PUSH1 0x4 SSTORE PUSH1 0x5 SSTORE PUSH1 0x6 SSTORE POP PUSH1 0x3 DUP1 SLOAD PUSH1 0xFF NOT AND SWAP1 SSTORE PUSH2 0x10E JUMP JUMPDEST CALLER SWAP1 JUMP JUMPDEST PUSH2 0xCAE DUP1 PUSH2 0x11D PUSH1 0x0 CODECOPY PUSH1 0x0 RETURN INVALID PUSH1 0x80 PUSH1 0x40 MSTORE CALLVALUE DUP1 ISZERO PUSH2 0x10 JUMPI PUSH1 0x0 DUP1 REVERT JUMPDEST POP PUSH1 0x4 CALLDATASIZE LT PUSH2 0x136 JUMPI PUSH1 0x0 CALLDATALOAD PUSH1 0xE0 SHR DUP1 PUSH4 0x715018A6 GT PUSH2 0xB8 JUMPI DUP1 PUSH4 0xE8153C93 GT PUSH2 0x7C JUMPI DUP1 PUSH4 0xE8153C93 EQ PUSH2 0x234 JUMPI DUP1 PUSH4 0xEB820312 EQ PUSH2 0x23C JUMPI DUP1 PUSH4 0xF2FDE38B EQ PUSH2 0x27B JUMPI DUP1 PUSH4 0xF361C59B EQ PUSH2 0x2A1 JUMPI DUP1 PUSH4 0xF57C8CDF EQ PUSH2 0x2BD JUMPI DUP1 PUSH4 0xF7982243 EQ PUSH2 0x2C5 JUMPI PUSH2 0x136 JUMP JUMPDEST DUP1 PUSH4 0x715018A6 EQ PUSH2 0x1D2 JUMPI DUP1 PUSH4 0x78E97925 EQ PUSH2 0x1DA JUMPI DUP1 PUSH4 0x8DA5CB5B EQ PUSH2 0x1E2 JUMPI DUP1 PUSH4 0xA2D7F5E3 EQ PUSH2 0x206 JUMPI DUP1 PUSH4 0xCE513B6F EQ PUSH2 0x20E JUMPI PUSH2 0x136 JUMP JUMPDEST DUP1 PUSH4 0x3CCFD60B GT PUSH2 0xFF JUMPI DUP1 PUSH4 0x3CCFD60B EQ PUSH2 0x175 JUMPI DUP1 PUSH4 0x3E0A322D EQ PUSH2 0x17F JUMPI DUP1 PUSH4 0x494051A0 EQ PUSH2 0x19C JUMPI DUP1 PUSH4 0x4AFE5BF3 EQ PUSH2 0x1A4 JUMPI DUP1 PUSH4 0x7102B728 EQ PUSH2 0x1AC JUMPI PUSH2 0x136 JUMP JUMPDEST DUP1 PUSH3 0xAD3A23 EQ PUSH2 0x13B JUMPI DUP1 PUSH4 0x162075D8 EQ PUSH2 0x155 JUMPI DUP1 PUSH4 0x1A39D8EF EQ PUSH2 0x15D JUMPI DUP1 PUSH4 0x2509E086 EQ PUSH2 0x165 JUMPI DUP1 PUSH4 0x30C6B5EB EQ PUSH2 0x16D JUMPI JUMPDEST PUSH1 0x0 DUP1 REVERT JUMPDEST PUSH2 0x143 PUSH2 0x2F1 JUMP JUMPDEST PUSH1 0x40 DUP1 MLOAD SWAP2 DUP3 MSTORE MLOAD SWAP1 DUP2 SWAP1 SUB PUSH1 0x20 ADD SWAP1 RETURN JUMPDEST PUSH2 0x143 PUSH2 0x2F6 JUMP JUMPDEST PUSH2 0x143 PUSH2 0x2FC JUMP JUMPDEST PUSH2 0x143 PUSH2 0x302 JUMP JUMPDEST PUSH2 0x143 PUSH2 0x308 JUMP JUMPDEST PUSH2 0x17D PUSH2 0x30F JUMP JUMPDEST STOP JUMPDEST PUSH2 0x17D PUSH1 0x4 DUP1 CALLDATASIZE SUB PUSH1 0x20 DUP2 LT ISZERO PUSH2 0x195 JUMPI PUSH1 0x0 DUP1 REVERT JUMPDEST POP CALLDATALOAD PUSH2 0x460 JUMP JUMPDEST PUSH2 0x143 PUSH2 0x532 JUMP JUMPDEST PUSH2 0x143 PUSH2 0x537 JUMP JUMPDEST PUSH2 0x143 PUSH1 0x4 DUP1 CALLDATASIZE SUB PUSH1 0x20 DUP2 LT ISZERO PUSH2 0x1C2 JUMPI PUSH1 0x0 DUP1 REVERT JUMPDEST POP CALLDATALOAD PUSH1 0x1 PUSH1 0x1 PUSH1 0xA0 SHL SUB AND PUSH2 0x53D JUMP JUMPDEST PUSH2 0x17D PUSH2 0x6D1 JUMP JUMPDEST PUSH2 0x143 PUSH2 0x77D JUMP JUMPDEST PUSH2 0x1EA PUSH2 0x783 JUMP JUMPDEST PUSH1 0x40 DUP1 MLOAD PUSH1 0x1 PUSH1 0x1 PUSH1 0xA0 SHL SUB SWAP1 SWAP3 AND DUP3 MSTORE MLOAD SWAP1 DUP2 SWAP1 SUB PUSH1 0x20 ADD SWAP1 RETURN JUMPDEST PUSH2 0x143 PUSH2 0x792 JUMP JUMPDEST PUSH2 0x143 PUSH1 0x4 DUP1 CALLDATASIZE SUB PUSH1 0x20 DUP2 LT ISZERO PUSH2 0x224 JUMPI PUSH1 0x0 DUP1 REVERT JUMPDEST POP CALLDATALOAD PUSH1 0x1 PUSH1 0x1 PUSH1 0xA0 SHL SUB AND PUSH2 0x7A1 JUMP JUMPDEST PUSH2 0x1EA PUSH2 0x7D6 JUMP JUMPDEST PUSH2 0x262 PUSH1 0x4 DUP1 CALLDATASIZE SUB PUSH1 0x20 DUP2 LT ISZERO PUSH2 0x252 JUMPI PUSH1 0x0 DUP1 REVERT JUMPDEST POP CALLDATALOAD PUSH1 0x1 PUSH1 0x1 PUSH1 0xA0 SHL SUB AND PUSH2 0x7E5 JUMP JUMPDEST PUSH1 0x40 DUP1 MLOAD SWAP3 DUP4 MSTORE PUSH1 0x20 DUP4 ADD SWAP2 SWAP1 SWAP2 MSTORE DUP1 MLOAD SWAP2 DUP3 SWAP1 SUB ADD SWAP1 RETURN JUMPDEST PUSH2 0x17D PUSH1 0x4 DUP1 CALLDATASIZE SUB PUSH1 0x20 DUP2 LT ISZERO PUSH2 0x291 JUMPI PUSH1 0x0 DUP1 REVERT JUMPDEST POP CALLDATALOAD PUSH1 0x1 PUSH1 0x1 PUSH1 0xA0 SHL SUB AND PUSH2 0x7FE JUMP JUMPDEST PUSH2 0x2A9 PUSH2 0x900 JUMP JUMPDEST PUSH1 0x40 DUP1 MLOAD SWAP2 ISZERO ISZERO DUP3 MSTORE MLOAD SWAP1 DUP2 SWAP1 SUB PUSH1 0x20 ADD SWAP1 RETURN JUMPDEST PUSH2 0x143 PUSH2 0x909 JUMP JUMPDEST PUSH2 0x17D PUSH1 0x4 DUP1 CALLDATASIZE SUB PUSH1 0x40 DUP2 LT ISZERO PUSH2 0x2DB JUMPI PUSH1 0x0 DUP1 REVERT JUMPDEST POP PUSH1 0x1 PUSH1 0x1 PUSH1 0xA0 SHL SUB DUP2 CALLDATALOAD AND SWAP1 PUSH1 0x20 ADD CALLDATALOAD PUSH2 0x90F JUMP JUMPDEST PUSH1 0xC DUP2 JUMP JUMPDEST PUSH1 0x4 SLOAD DUP2 JUMP JUMPDEST PUSH1 0x7 SLOAD DUP2 JUMP JUMPDEST PUSH1 0x6 SLOAD DUP2 JUMP JUMPDEST PUSH3 0x278D00 DUP2 JUMP JUMPDEST PUSH1 0x0 PUSH1 0x1 PUSH1 0x0 PUSH2 0x31D PUSH2 0xA8F JUMP JUMPDEST PUSH1 0x1 PUSH1 0x1 PUSH1 0xA0 SHL SUB AND DUP2 MSTORE PUSH1 0x20 DUP2 ADD SWAP2 SWAP1 SWAP2 MSTORE PUSH1 0x40 ADD PUSH1 0x0 KECCAK256 DUP1 SLOAD SWAP1 SWAP2 POP PUSH2 0x345 JUMPI POP PUSH2 0x45E JUMP JUMPDEST PUSH1 0x0 PUSH2 0x357 PUSH2 0x352 PUSH2 0xA8F JUMP JUMPDEST PUSH2 0x53D JUMP JUMPDEST SWAP1 POP PUSH1 0x0 PUSH2 0x36B PUSH2 0x366 PUSH2 0xA8F JUMP JUMPDEST PUSH2 0x7A1 JUMP JUMPDEST PUSH1 0x1 DUP5 ADD DUP4 SWAP1 SSTORE SWAP1 POP DUP1 ISZERO PUSH2 0x45A JUMPI PUSH1 0x9 SLOAD PUSH1 0x1 PUSH1 0x1 PUSH1 0xA0 SHL SUB AND PUSH4 0xA9059CBB PUSH2 0x393 PUSH2 0xA8F JUMP JUMPDEST DUP4 PUSH1 0x40 MLOAD DUP4 PUSH4 0xFFFFFFFF AND PUSH1 0xE0 SHL DUP2 MSTORE PUSH1 0x4 ADD DUP1 DUP4 PUSH1 0x1 PUSH1 0x1 PUSH1 0xA0 SHL SUB AND DUP2 MSTORE PUSH1 0x20 ADD DUP3 DUP2 MSTORE PUSH1 0x20 ADD SWAP3 POP POP POP PUSH1 0x20 PUSH1 0x40 MLOAD DUP1 DUP4 SUB DUP2 PUSH1 0x0 DUP8 DUP1 EXTCODESIZE ISZERO DUP1 ISZERO PUSH2 0x3DA JUMPI PUSH1 0x0 DUP1 REVERT JUMPDEST POP GAS CALL ISZERO DUP1 ISZERO PUSH2 0x3EE JUMPI RETURNDATASIZE PUSH1 0x0 DUP1 RETURNDATACOPY RETURNDATASIZE PUSH1 0x0 REVERT JUMPDEST POP POP POP POP PUSH1 0x40 MLOAD RETURNDATASIZE PUSH1 0x20 DUP2 LT ISZERO PUSH2 0x404 JUMPI PUSH1 0x0 DUP1 REVERT JUMPDEST POP MLOAD PUSH2 0x40F JUMPI PUSH1 0x0 DUP1 REVERT JUMPDEST PUSH32 0x884EDAD9CE6FA2440D8A54CC123490EB96D2768479D49FF9C7366125A9424364 PUSH2 0x438 PUSH2 0xA8F JUMP JUMPDEST PUSH1 0x40 DUP1 MLOAD PUSH1 0x1 PUSH1 0x1 PUSH1 0xA0 SHL SUB SWAP1 SWAP3 AND DUP3 MSTORE PUSH1 0x20 DUP3 ADD DUP5 SWAP1 MSTORE DUP1 MLOAD SWAP2 DUP3 SWAP1 SUB ADD SWAP1 LOG1 JUMPDEST POP POP POP JUMPDEST JUMP JUMPDEST PUSH2 0x468 PUSH2 0xA8F JUMP JUMPDEST PUSH1 0x1 PUSH1 0x1 PUSH1 0xA0 SHL SUB AND PUSH2 0x479 PUSH2 0x783 JUMP JUMPDEST PUSH1 0x1 PUSH1 0x1 PUSH1 0xA0 SHL SUB AND EQ PUSH2 0x4C2 JUMPI PUSH1 0x40 DUP1 MLOAD PUSH3 0x461BCD PUSH1 0xE5 SHL DUP2 MSTORE PUSH1 0x20 PUSH1 0x4 DUP3 ADD DUP2 SWAP1 MSTORE PUSH1 0x24 DUP3 ADD MSTORE PUSH1 0x0 DUP1 MLOAD PUSH1 0x20 PUSH2 0xC59 DUP4 CODECOPY DUP2 MLOAD SWAP2 MSTORE PUSH1 0x44 DUP3 ADD MSTORE SWAP1 MLOAD SWAP1 DUP2 SWAP1 SUB PUSH1 0x64 ADD SWAP1 REVERT JUMPDEST PUSH1 0x3 SLOAD PUSH1 0xFF AND ISZERO DUP1 PUSH2 0x4D5 JUMPI POP TIMESTAMP PUSH1 0x2 SLOAD GT JUMPDEST PUSH2 0x4DE JUMPI PUSH1 0x0 DUP1 REVERT JUMPDEST TIMESTAMP DUP2 GT PUSH2 0x4EA JUMPI PUSH1 0x0 DUP1 REVERT JUMPDEST PUSH1 0x2 DUP2 SWAP1 SSTORE PUSH1 0x3 DUP1 SLOAD PUSH1 0xFF NOT AND PUSH1 0x1 OR SWAP1 SSTORE PUSH1 0x40 DUP1 MLOAD DUP3 DUP2 MSTORE SWAP1 MLOAD PUSH32 0xAAD53C4362EF2FE5A5390CC046E71FD8423A0A8DCEEBC156AC9BBCD15997EEC2 SWAP2 DUP2 SWAP1 SUB PUSH1 0x20 ADD SWAP1 LOG1 POP JUMP JUMPDEST PUSH1 0x6 DUP2 JUMP JUMPDEST PUSH1 0x8 SLOAD DUP2 JUMP JUMPDEST PUSH1 0x1 PUSH1 0x1 PUSH1 0xA0 SHL SUB DUP2 AND PUSH1 0x0 SWAP1 DUP2 MSTORE PUSH1 0x1 PUSH1 0x20 DUP2 DUP2 MSTORE PUSH1 0x40 DUP1 DUP5 KECCAK256 DUP2 MLOAD DUP1 DUP4 ADD SWAP1 SWAP3 MSTORE DUP1 SLOAD DUP3 MSTORE SWAP1 SWAP3 ADD SLOAD SWAP1 DUP3 ADD MSTORE PUSH1 0x3 SLOAD PUSH1 0xFF AND ISZERO DUP1 PUSH2 0x57D JUMPI POP DUP1 MLOAD ISZERO JUMPDEST DUP1 PUSH2 0x593 JUMPI POP PUSH1 0x6 SLOAD ISZERO DUP1 ISZERO PUSH2 0x593 JUMPI POP PUSH1 0x5 SLOAD ISZERO JUMPDEST DUP1 PUSH2 0x59F JUMPI POP PUSH1 0x2 SLOAD TIMESTAMP LT JUMPDEST ISZERO PUSH2 0x5AE JUMPI PUSH1 0x0 SWAP2 POP POP PUSH2 0x6CC JUMP JUMPDEST PUSH1 0x0 PUSH2 0x5C7 PUSH1 0x6 SLOAD PUSH1 0x4 SLOAD PUSH2 0xA93 SWAP1 SWAP2 SWAP1 PUSH4 0xFFFFFFFF AND JUMP JUMPDEST PUSH1 0x2 SLOAD SWAP1 SWAP2 POP PUSH2 0x5D7 SWAP1 DUP3 PUSH2 0xAF3 JUMP JUMPDEST TIMESTAMP LT ISZERO PUSH2 0x5E9 JUMPI PUSH1 0x0 SWAP3 POP POP POP PUSH2 0x6CC JUMP JUMPDEST PUSH1 0x0 PUSH2 0x60E PUSH2 0x605 PUSH1 0x5 SLOAD PUSH1 0x6 SLOAD PUSH2 0xAF3 SWAP1 SWAP2 SWAP1 PUSH4 0xFFFFFFFF AND JUMP JUMPDEST PUSH1 0x4 SLOAD SWAP1 PUSH2 0xA93 JUMP JUMPDEST PUSH1 0x2 SLOAD SWAP1 SWAP2 POP PUSH2 0x61E SWAP1 DUP3 PUSH2 0xAF3 JUMP JUMPDEST TIMESTAMP LT PUSH2 0x62E JUMPI POP POP MLOAD SWAP1 POP PUSH2 0x6CC JUMP JUMPDEST PUSH1 0x0 PUSH2 0x651 PUSH1 0x4 SLOAD PUSH2 0x64B PUSH1 0x2 SLOAD TIMESTAMP PUSH2 0xB4D SWAP1 SWAP2 SWAP1 PUSH4 0xFFFFFFFF AND JUMP JUMPDEST SWAP1 PUSH2 0xBAA JUMP JUMPDEST PUSH1 0x1 ADD SWAP1 POP PUSH1 0x6 SLOAD DUP2 GT PUSH2 0x66C JUMPI PUSH1 0x0 SWAP5 POP POP POP POP POP PUSH2 0x6CC JUMP JUMPDEST PUSH1 0x5 SLOAD PUSH1 0x6 SLOAD PUSH2 0x67B SWAP2 PUSH2 0xAF3 JUMP JUMPDEST DUP2 LT PUSH2 0x68E JUMPI POP POP SWAP1 MLOAD SWAP2 POP PUSH2 0x6CC SWAP1 POP JUMP JUMPDEST PUSH1 0x5 SLOAD DUP5 MLOAD PUSH1 0x0 SWAP2 PUSH2 0x6A0 SWAP2 SWAP1 PUSH2 0xBAA JUMP JUMPDEST SWAP1 POP PUSH1 0x0 PUSH2 0x6C3 DUP3 PUSH2 0x6BD PUSH1 0x6 SLOAD DUP7 PUSH2 0xB4D SWAP1 SWAP2 SWAP1 PUSH4 0xFFFFFFFF AND JUMP JUMPDEST SWAP1 PUSH2 0xA93 JUMP JUMPDEST SWAP7 POP POP POP POP POP POP POP JUMPDEST SWAP2 SWAP1 POP JUMP JUMPDEST PUSH2 0x6D9 PUSH2 0xA8F JUMP JUMPDEST PUSH1 0x1 PUSH1 0x1 PUSH1 0xA0 SHL SUB AND PUSH2 0x6EA PUSH2 0x783 JUMP JUMPDEST PUSH1 0x1 PUSH1 0x1 PUSH1 0xA0 SHL SUB AND EQ PUSH2 0x733 JUMPI PUSH1 0x40 DUP1 MLOAD PUSH3 0x461BCD PUSH1 0xE5 SHL DUP2 MSTORE PUSH1 0x20 PUSH1 0x4 DUP3 ADD DUP2 SWAP1 MSTORE PUSH1 0x24 DUP3 ADD MSTORE PUSH1 0x0 DUP1 MLOAD PUSH1 0x20 PUSH2 0xC59 DUP4 CODECOPY DUP2 MLOAD SWAP2 MSTORE PUSH1 0x44 DUP3 ADD MSTORE SWAP1 MLOAD SWAP1 DUP2 SWAP1 SUB PUSH1 0x64 ADD SWAP1 REVERT JUMPDEST PUSH1 0x0 DUP1 SLOAD PUSH1 0x40 MLOAD PUSH1 0x1 PUSH1 0x1 PUSH1 0xA0 SHL SUB SWAP1 SWAP2 AND SWAP1 PUSH32 0x8BE0079C531659141344CD1FD0A4F28419497F9722A3DAAFE3B4186F6B6457E0 SWAP1 DUP4 SWAP1 LOG3 PUSH1 0x0 DUP1 SLOAD PUSH1 0x1 PUSH1 0x1 PUSH1 0xA0 SHL SUB NOT AND SWAP1 SSTORE JUMP JUMPDEST PUSH1 0x2 SLOAD DUP2 JUMP JUMPDEST PUSH1 0x0 SLOAD PUSH1 0x1 PUSH1 0x1 PUSH1 0xA0 SHL SUB AND SWAP1 JUMP JUMPDEST PUSH11 0x13DA329B6336471800000 DUP2 JUMP JUMPDEST PUSH1 0x1 PUSH1 0x1 PUSH1 0xA0 SHL SUB DUP2 AND PUSH1 0x0 SWAP1 DUP2 MSTORE PUSH1 0x1 PUSH1 0x20 DUP2 SWAP1 MSTORE PUSH1 0x40 DUP3 KECCAK256 ADD SLOAD PUSH2 0x7D0 SWAP1 PUSH2 0x7CA DUP5 PUSH2 0x53D JUMP JUMPDEST SWAP1 PUSH2 0xB4D JUMP JUMPDEST SWAP3 SWAP2 POP POP JUMP JUMPDEST PUSH1 0x9 SLOAD PUSH1 0x1 PUSH1 0x1 PUSH1 0xA0 SHL SUB AND DUP2 JUMP JUMPDEST PUSH1 0x1 PUSH1 0x20 DUP2 SWAP1 MSTORE PUSH1 0x0 SWAP2 DUP3 MSTORE PUSH1 0x40 SWAP1 SWAP2 KECCAK256 DUP1 SLOAD SWAP2 ADD SLOAD DUP3 JUMP JUMPDEST PUSH2 0x806 PUSH2 0xA8F JUMP JUMPDEST PUSH1 0x1 PUSH1 0x1 PUSH1 0xA0 SHL SUB AND PUSH2 0x817 PUSH2 0x783 JUMP JUMPDEST PUSH1 0x1 PUSH1 0x1 PUSH1 0xA0 SHL SUB AND EQ PUSH2 0x860 JUMPI PUSH1 0x40 DUP1 MLOAD PUSH3 0x461BCD PUSH1 0xE5 SHL DUP2 MSTORE PUSH1 0x20 PUSH1 0x4 DUP3 ADD DUP2 SWAP1 MSTORE PUSH1 0x24 DUP3 ADD MSTORE PUSH1 0x0 DUP1 MLOAD PUSH1 0x20 PUSH2 0xC59 DUP4 CODECOPY DUP2 MLOAD SWAP2 MSTORE PUSH1 0x44 DUP3 ADD MSTORE SWAP1 MLOAD SWAP1 DUP2 SWAP1 SUB PUSH1 0x64 ADD SWAP1 REVERT JUMPDEST PUSH1 0x1 PUSH1 0x1 PUSH1 0xA0 SHL SUB DUP2 AND PUSH2 0x8A5 JUMPI PUSH1 0x40 MLOAD PUSH3 0x461BCD PUSH1 0xE5 SHL DUP2 MSTORE PUSH1 0x4 ADD DUP1 DUP1 PUSH1 0x20 ADD DUP3 DUP2 SUB DUP3 MSTORE PUSH1 0x26 DUP2 MSTORE PUSH1 0x20 ADD DUP1 PUSH2 0xC12 PUSH1 0x26 SWAP2 CODECOPY PUSH1 0x40 ADD SWAP2 POP POP PUSH1 0x40 MLOAD DUP1 SWAP2 SUB SWAP1 REVERT JUMPDEST PUSH1 0x0 DUP1 SLOAD PUSH1 0x40 MLOAD PUSH1 0x1 PUSH1 0x1 PUSH1 0xA0 SHL SUB DUP1 DUP6 AND SWAP4 SWAP3 AND SWAP2 PUSH32 0x8BE0079C531659141344CD1FD0A4F28419497F9722A3DAAFE3B4186F6B6457E0 SWAP2 LOG3 PUSH1 0x0 DUP1 SLOAD PUSH1 0x1 PUSH1 0x1 PUSH1 0xA0 SHL SUB NOT AND PUSH1 0x1 PUSH1 0x1 PUSH1 0xA0 SHL SUB SWAP3 SWAP1 SWAP3 AND SWAP2 SWAP1 SWAP2 OR SWAP1 SSTORE JUMP JUMPDEST PUSH1 0x3 SLOAD PUSH1 0xFF AND DUP2 JUMP JUMPDEST PUSH1 0x5 SLOAD DUP2 JUMP JUMPDEST PUSH2 0x917 PUSH2 0xA8F JUMP JUMPDEST PUSH1 0x1 PUSH1 0x1 PUSH1 0xA0 SHL SUB AND PUSH2 0x928 PUSH2 0x783 JUMP JUMPDEST PUSH1 0x1 PUSH1 0x1 PUSH1 0xA0 SHL SUB AND EQ PUSH2 0x971 JUMPI PUSH1 0x40 DUP1 MLOAD PUSH3 0x461BCD PUSH1 0xE5 SHL DUP2 MSTORE PUSH1 0x20 PUSH1 0x4 DUP3 ADD DUP2 SWAP1 MSTORE PUSH1 0x24 DUP3 ADD MSTORE PUSH1 0x0 DUP1 MLOAD PUSH1 0x20 PUSH2 0xC59 DUP4 CODECOPY DUP2 MLOAD SWAP2 MSTORE PUSH1 0x44 DUP3 ADD MSTORE SWAP1 MLOAD SWAP1 DUP2 SWAP1 SUB PUSH1 0x64 ADD SWAP1 REVERT JUMPDEST PUSH1 0x3 SLOAD PUSH1 0xFF AND ISZERO DUP1 PUSH2 0x984 JUMPI POP TIMESTAMP PUSH1 0x2 SLOAD GT JUMPDEST PUSH2 0x98D JUMPI PUSH1 0x0 DUP1 REVERT JUMPDEST PUSH1 0x1 PUSH1 0x1 PUSH1 0xA0 SHL SUB DUP3 AND PUSH2 0x9A0 JUMPI PUSH1 0x0 DUP1 REVERT JUMPDEST PUSH1 0x1 PUSH1 0x1 PUSH1 0xA0 SHL SUB DUP3 AND PUSH1 0x0 SWAP1 DUP2 MSTORE PUSH1 0x1 PUSH1 0x20 MSTORE PUSH1 0x40 SWAP1 KECCAK256 SLOAD ISZERO PUSH2 0x9E7 JUMPI PUSH1 0x1 PUSH1 0x1 PUSH1 0xA0 SHL SUB DUP3 AND PUSH1 0x0 SWAP1 DUP2 MSTORE PUSH1 0x1 PUSH1 0x20 MSTORE PUSH1 0x40 SWAP1 KECCAK256 SLOAD PUSH1 0x8 SLOAD PUSH2 0x9E3 SWAP2 PUSH2 0xAF3 JUMP JUMPDEST PUSH1 0x8 SSTORE JUMPDEST PUSH1 0x0 DUP2 GT DUP1 ISZERO PUSH2 0x9F9 JUMPI POP PUSH1 0x8 SLOAD DUP2 GT ISZERO JUMPDEST PUSH2 0xA02 JUMPI PUSH1 0x0 DUP1 REVERT JUMPDEST PUSH1 0x40 DUP1 MLOAD DUP1 DUP3 ADD DUP3 MSTORE DUP3 DUP2 MSTORE PUSH1 0x0 PUSH1 0x20 DUP1 DUP4 ADD DUP3 DUP2 MSTORE PUSH1 0x1 PUSH1 0x1 PUSH1 0xA0 SHL SUB DUP8 AND DUP4 MSTORE PUSH1 0x1 SWAP2 DUP3 SWAP1 MSTORE SWAP4 SWAP1 SWAP2 KECCAK256 SWAP2 MLOAD DUP3 SSTORE SWAP2 MLOAD SWAP2 ADD SSTORE PUSH1 0x8 SLOAD PUSH2 0xA44 SWAP1 DUP3 PUSH2 0xB4D JUMP JUMPDEST PUSH1 0x8 SSTORE PUSH1 0x40 DUP1 MLOAD PUSH1 0x1 PUSH1 0x1 PUSH1 0xA0 SHL SUB DUP5 AND DUP2 MSTORE PUSH1 0x20 DUP2 ADD DUP4 SWAP1 MSTORE DUP2 MLOAD PUSH32 0x16E42921DAEE38136DC17F8420C371163EC8299E5299FB480D7AEFF85CFAC3EB SWAP3 SWAP2 DUP2 SWAP1 SUB SWAP1 SWAP2 ADD SWAP1 LOG1 POP POP JUMP JUMPDEST CALLER SWAP1 JUMP JUMPDEST PUSH1 0x0 DUP3 PUSH2 0xAA2 JUMPI POP PUSH1 0x0 PUSH2 0x7D0 JUMP JUMPDEST DUP3 DUP3 MUL DUP3 DUP5 DUP3 DUP2 PUSH2 0xAAF JUMPI INVALID JUMPDEST DIV EQ PUSH2 0xAEC JUMPI PUSH1 0x40 MLOAD PUSH3 0x461BCD PUSH1 0xE5 SHL DUP2 MSTORE PUSH1 0x4 ADD DUP1 DUP1 PUSH1 0x20 ADD DUP3 DUP2 SUB DUP3 MSTORE PUSH1 0x21 DUP2 MSTORE PUSH1 0x20 ADD DUP1 PUSH2 0xC38 PUSH1 0x21 SWAP2 CODECOPY PUSH1 0x40 ADD SWAP2 POP POP PUSH1 0x40 MLOAD DUP1 SWAP2 SUB SWAP1 REVERT JUMPDEST SWAP4 SWAP3 POP POP POP JUMP JUMPDEST PUSH1 0x0 DUP3 DUP3 ADD DUP4 DUP2 LT ISZERO PUSH2 0xAEC JUMPI PUSH1 0x40 DUP1 MLOAD PUSH3 0x461BCD PUSH1 0xE5 SHL DUP2 MSTORE PUSH1 0x20 PUSH1 0x4 DUP3 ADD MSTORE PUSH1 0x1B PUSH1 0x24 DUP3 ADD MSTORE PUSH32 0x536166654D6174683A206164646974696F6E206F766572666C6F770000000000 PUSH1 0x44 DUP3 ADD MSTORE SWAP1 MLOAD SWAP1 DUP2 SWAP1 SUB PUSH1 0x64 ADD SWAP1 REVERT JUMPDEST PUSH1 0x0 DUP3 DUP3 GT ISZERO PUSH2 0xBA4 JUMPI PUSH1 0x40 DUP1 MLOAD PUSH3 0x461BCD PUSH1 0xE5 SHL DUP2 MSTORE PUSH1 0x20 PUSH1 0x4 DUP3 ADD MSTORE PUSH1 0x1E PUSH1 0x24 DUP3 ADD MSTORE PUSH32 0x536166654D6174683A207375627472616374696F6E206F766572666C6F770000 PUSH1 0x44 DUP3 ADD MSTORE SWAP1 MLOAD SWAP1 DUP2 SWAP1 SUB PUSH1 0x64 ADD SWAP1 REVERT JUMPDEST POP SWAP1 SUB SWAP1 JUMP JUMPDEST PUSH1 0x0 DUP1 DUP3 GT PUSH2 0xC00 JUMPI PUSH1 0x40 DUP1 MLOAD PUSH3 0x461BCD PUSH1 0xE5 SHL DUP2 MSTORE PUSH1 0x20 PUSH1 0x4 DUP3 ADD MSTORE PUSH1 0x1A PUSH1 0x24 DUP3 ADD MSTORE PUSH32 0x536166654D6174683A206469766973696F6E206279207A65726F000000000000 PUSH1 0x44 DUP3 ADD MSTORE SWAP1 MLOAD SWAP1 DUP2 SWAP1 SUB PUSH1 0x64 ADD SWAP1 REVERT JUMPDEST DUP2 DUP4 DUP2 PUSH2 0xC09 JUMPI INVALID JUMPDEST DIV SWAP4 SWAP3 POP POP POP JUMP INVALID 0x4F PUSH24 0x6E61626C653A206E6577206F776E65722069732074686520 PUSH27 0x65726F2061646472657373536166654D6174683A206D756C746970 PUSH13 0x69636174696F6E206F76657266 PUSH13 0x6F774F776E61626C653A206361 PUSH13 0x6C6572206973206E6F74207468 PUSH6 0x206F776E6572 LOG2 PUSH5 0x6970667358 0x22 SLT KECCAK256 EQ CREATE2 SWAP11 SHR MSIZE DUP4 0xE8 0xB6 0xDE PUSH4 0x94E5ACDD 0x2F REVERT PUSH17 0xC854C810C082489298EAC82F635FB86473 PUSH16 0x6C634300070600330000000000000000 "
    },
    "gasEstimates": {
      "creation": {
        "codeDepositCost": "649200",
        "executionCost": "infinite",
        "totalCost": "infinite"
      },
      "external": {
        "LOCK_PERIODS()": "265",
        "RELEASE_PERIODS()": "222",
        "TOTAL_AMOUNT()": "287",
        "WITHDRAW_INTERVAL()": "310",
        "addRecipient(address,uint256)": "infinite",
        "isStartTimeSet()": "1098",
        "lockPeriods()": "1088",
        "owner()": "1104",
        "recipients(address)": "2010",
        "releasePeriods()": "1108",
        "renounceOwnership()": "infinite",
        "setStartTime(uint256)": "infinite",
        "startTime()": "1043",
        "totalAmount()": "1066",
        "totemToken()": "1059",
        "transferOwnership(address)": "infinite",
        "unallocatedAmount()": "1087",
        "vested(address)": "infinite",
        "withdraw()": "infinite",
        "withdrawInterval()": "1044",
        "withdrawable(address)": "infinite"
      }
    },
    "methodIdentifiers": {
      "LOCK_PERIODS()": "494051a0",
      "RELEASE_PERIODS()": "00ad3a23",
      "TOTAL_AMOUNT()": "a2d7f5e3",
      "WITHDRAW_INTERVAL()": "30c6b5eb",
      "addRecipient(address,uint256)": "f7982243",
      "isStartTimeSet()": "f361c59b",
      "lockPeriods()": "2509e086",
      "owner()": "8da5cb5b",
      "recipients(address)": "eb820312",
      "releasePeriods()": "f57c8cdf",
      "renounceOwnership()": "715018a6",
      "setStartTime(uint256)": "3e0a322d",
      "startTime()": "78e97925",
      "totalAmount()": "1a39d8ef",
      "totemToken()": "e8153c93",
      "transferOwnership(address)": "f2fde38b",
      "unallocatedAmount()": "4afe5bf3",
      "vested(address)": "7102b728",
      "withdraw()": "3ccfd60b",
      "withdrawInterval()": "162075d8",
      "withdrawable(address)": "ce513b6f"
    }
  },
  "storageLayout": {
    "storage": [
      {
        "astId": 53,
        "contract": "contracts/TotemVesting/TeamVesting.sol:TeamVesting",
        "label": "_owner",
        "offset": 0,
        "slot": "0",
        "type": "t_address"
      },
      {
        "astId": 6417,
        "contract": "contracts/TotemVesting/TeamVesting.sol:TeamVesting",
        "label": "recipients",
        "offset": 0,
        "slot": "1",
        "type": "t_mapping(t_address,t_struct(VestingSchedule)6413_storage)"
      },
      {
        "astId": 6419,
        "contract": "contracts/TotemVesting/TeamVesting.sol:TeamVesting",
        "label": "startTime",
        "offset": 0,
        "slot": "2",
        "type": "t_uint256"
      },
      {
        "astId": 6421,
        "contract": "contracts/TotemVesting/TeamVesting.sol:TeamVesting",
        "label": "isStartTimeSet",
        "offset": 0,
        "slot": "3",
        "type": "t_bool"
      },
      {
        "astId": 6423,
        "contract": "contracts/TotemVesting/TeamVesting.sol:TeamVesting",
        "label": "withdrawInterval",
        "offset": 0,
        "slot": "4",
        "type": "t_uint256"
      },
      {
        "astId": 6425,
        "contract": "contracts/TotemVesting/TeamVesting.sol:TeamVesting",
        "label": "releasePeriods",
        "offset": 0,
        "slot": "5",
        "type": "t_uint256"
      },
      {
        "astId": 6427,
        "contract": "contracts/TotemVesting/TeamVesting.sol:TeamVesting",
        "label": "lockPeriods",
        "offset": 0,
        "slot": "6",
        "type": "t_uint256"
      },
      {
        "astId": 6429,
        "contract": "contracts/TotemVesting/TeamVesting.sol:TeamVesting",
        "label": "totalAmount",
        "offset": 0,
        "slot": "7",
        "type": "t_uint256"
      },
      {
        "astId": 6431,
        "contract": "contracts/TotemVesting/TeamVesting.sol:TeamVesting",
        "label": "unallocatedAmount",
        "offset": 0,
        "slot": "8",
        "type": "t_uint256"
      },
      {
        "astId": 6433,
        "contract": "contracts/TotemVesting/TeamVesting.sol:TeamVesting",
        "label": "totemToken",
        "offset": 0,
        "slot": "9",
        "type": "t_contract(TotemToken)5743"
      }
    ],
    "types": {
      "t_address": {
        "encoding": "inplace",
        "label": "address",
        "numberOfBytes": "20"
      },
      "t_bool": {
        "encoding": "inplace",
        "label": "bool",
        "numberOfBytes": "1"
      },
      "t_contract(TotemToken)5743": {
        "encoding": "inplace",
        "label": "contract TotemToken",
        "numberOfBytes": "20"
      },
      "t_mapping(t_address,t_struct(VestingSchedule)6413_storage)": {
        "encoding": "mapping",
        "key": "t_address",
        "label": "mapping(address => struct TotemVesting.VestingSchedule)",
        "numberOfBytes": "32",
        "value": "t_struct(VestingSchedule)6413_storage"
      },
      "t_struct(VestingSchedule)6413_storage": {
        "encoding": "inplace",
        "label": "struct TotemVesting.VestingSchedule",
        "members": [
          {
            "astId": 6410,
            "contract": "contracts/TotemVesting/TeamVesting.sol:TeamVesting",
            "label": "totalAmount",
            "offset": 0,
            "slot": "0",
            "type": "t_uint256"
          },
          {
            "astId": 6412,
            "contract": "contracts/TotemVesting/TeamVesting.sol:TeamVesting",
            "label": "amountWithdrawn",
            "offset": 0,
            "slot": "1",
            "type": "t_uint256"
          }
        ],
        "numberOfBytes": "64"
      },
      "t_uint256": {
        "encoding": "inplace",
        "label": "uint256",
        "numberOfBytes": "32"
      }
    }
  },
  "userdoc": {
    "kind": "user",
    "methods": {},
    "version": 1
  }
}