{
  "address": "0xFA495bB732e298e1275a7EEf996E23745A475e67",
  "abi": [
    {
      "inputs": [
        {
          "internalType": "contract TotemToken",
          "name": "_totemToken",
          "type": "address"
        },
        {
          "internalType": "contract RewardManager",
          "name": "_rewardManager",
          "type": "address"
        },
        {
          "internalType": "address",
          "name": "_swapRouter",
          "type": "address"
        },
        {
          "internalType": "address",
          "name": "_usdToken",
          "type": "address"
        }
      ],
      "stateMutability": "nonpayable",
      "type": "constructor"
    },
    {
      "anonymous": false,
      "inputs": [
        {
          "indexed": true,
          "internalType": "address",
          "name": "pool",
          "type": "address"
        },
        {
          "indexed": false,
          "internalType": "string",
          "name": "wrappedTokenSymbole",
          "type": "string"
        },
        {
          "indexed": false,
          "internalType": "string",
          "name": "poolType",
          "type": "string"
        },
        {
          "indexed": false,
          "internalType": "uint256[11]",
          "name": "variables",
          "type": "uint256[11]"
        },
        {
          "indexed": false,
          "internalType": "uint256[8]",
          "name": "ranks",
          "type": "uint256[8]"
        },
        {
          "indexed": false,
          "internalType": "uint256[8]",
          "name": "percentages",
          "type": "uint256[8]"
        },
        {
          "indexed": false,
          "internalType": "bool",
          "name": "isEnhancedEnabled",
          "type": "bool"
        }
      ],
      "name": "PoolCreated",
      "type": "event"
    },
    {
      "anonymous": false,
      "inputs": [
        {
          "indexed": true,
          "internalType": "address",
          "name": "account",
          "type": "address"
        }
      ],
      "name": "PoolCreatorAdded",
      "type": "event"
    },
    {
      "anonymous": false,
      "inputs": [
        {
          "indexed": true,
          "internalType": "address",
          "name": "account",
          "type": "address"
        }
      ],
      "name": "PoolCreatorRemoved",
      "type": "event"
    },
    {
      "inputs": [
        {
          "internalType": "address",
          "name": "account",
          "type": "address"
        }
      ],
      "name": "addPoolCreator",
      "outputs": [],
      "stateMutability": "nonpayable",
      "type": "function"
    },
    {
      "inputs": [
        {
          "internalType": "address",
          "name": "_oracleContract",
          "type": "address"
        },
        {
          "internalType": "address",
          "name": "_wrappedTokenContract",
          "type": "address"
        },
        {
          "internalType": "string",
          "name": "_wrappedTokenSymbole",
          "type": "string"
        },
        {
          "internalType": "string",
          "name": "_poolType",
          "type": "string"
        },
        {
          "internalType": "uint256[11]",
          "name": "_variables",
          "type": "uint256[11]"
        },
        {
          "internalType": "uint256[8]",
          "name": "_ranks",
          "type": "uint256[8]"
        },
        {
          "internalType": "uint256[8]",
          "name": "_percentages",
          "type": "uint256[8]"
        },
        {
          "internalType": "bool",
          "name": "isEnhancedEnabled",
          "type": "bool"
        }
      ],
      "name": "create",
      "outputs": [
        {
          "internalType": "address",
          "name": "",
          "type": "address"
        }
      ],
      "stateMutability": "nonpayable",
      "type": "function"
    },
    {
      "inputs": [
        {
          "internalType": "address",
          "name": "account",
          "type": "address"
        }
      ],
      "name": "isPoolCreator",
      "outputs": [
        {
          "internalType": "bool",
          "name": "",
          "type": "bool"
        }
      ],
      "stateMutability": "view",
      "type": "function"
    },
    {
      "inputs": [],
      "name": "minimumStakeAmount",
      "outputs": [
        {
          "internalType": "uint256",
          "name": "",
          "type": "uint256"
        }
      ],
      "stateMutability": "view",
      "type": "function"
    },
    {
      "inputs": [],
      "name": "renouncePoolCreator",
      "outputs": [],
      "stateMutability": "nonpayable",
      "type": "function"
    },
    {
      "inputs": [],
      "name": "rewardManager",
      "outputs": [
        {
          "internalType": "contract RewardManager",
          "name": "",
          "type": "address"
        }
      ],
      "stateMutability": "view",
      "type": "function"
    },
    {
      "inputs": [
        {
          "internalType": "uint256",
          "name": "newStakingPoolTaxRate",
          "type": "uint256"
        }
      ],
      "name": "setDefaultTaxRate",
      "outputs": [],
      "stateMutability": "nonpayable",
      "type": "function"
    },
    {
      "inputs": [
        {
          "internalType": "address",
          "name": "_swapRouter",
          "type": "address"
        }
      ],
      "name": "setSwapRouter",
      "outputs": [],
      "stateMutability": "nonpayable",
      "type": "function"
    },
    {
      "inputs": [],
      "name": "stakingPoolTaxRate",
      "outputs": [
        {
          "internalType": "uint256",
          "name": "",
          "type": "uint256"
        }
      ],
      "stateMutability": "view",
      "type": "function"
    },
    {
      "inputs": [],
      "name": "swapRouter",
      "outputs": [
        {
          "internalType": "address",
          "name": "",
          "type": "address"
        }
      ],
      "stateMutability": "view",
      "type": "function"
    },
    {
      "inputs": [],
      "name": "totemToken",
      "outputs": [
        {
          "internalType": "contract TotemToken",
          "name": "",
          "type": "address"
        }
      ],
      "stateMutability": "view",
      "type": "function"
    }
  ],
  "transactionHash": "0xc25e5d8c086f97002fc3b7205f0a2823eb498cd1fbdec806a833ae46f8226521",
  "args": [
    "0xf2cf56fBE1Ae8E40f0e0D8672305c3bB115625A2",
    "0x9440B61bA309f0B31e50F07e3e6EE5C706Fb3230",
    "0x9Ac64Cc6e4415144C455BD8E4837Fea55603e5c3",
    "0x78867bbeef44f2326bf8ddd1941a4439382ef2a7"
  ],
  "solcInputHash": "2629fde0d3d2f4982c2e6a48785300b3",
  "bytecode": "0x60e06040523480156200001157600080fd5b5060405162005aec38038062005aec833981016040819052620000349162000217565b6200004862000042620000b1565b620000b5565b6200006157620000616200005b620000b1565b620000d8565b606093841b6001600160601b031990811660805292841b831660a052600180546001600160a01b0319166001600160a01b03939093169290921790915590911b1660c05261012c60025562000297565b3390565b6000620000d28260006200012a60201b6200047d1790919060201c565b92915050565b620000f38160006200019360201b620004e61790919060201c565b6040516001600160a01b038216907fac89bb7b3d0c5a763a97f31bc75f8faee00426e7b235f02ca76897d55caf7b6190600090a250565b60006001600160a01b038216620001735760405162461bcd60e51b815260040180806020018281038252602281526020018062005aca6022913960400191505060405180910390fd5b506001600160a01b03166000908152602091909152604090205460ff1690565b6200019f82826200012a565b15620001f2576040805162461bcd60e51b815260206004820152601f60248201527f526f6c65733a206163636f756e7420616c72656164792068617320726f6c6500604482015290519081900360640190fd5b6001600160a01b0316600090815260209190915260409020805460ff19166001179055565b600080600080608085870312156200022d578384fd5b84516200023a816200027e565b60208601519094506200024d816200027e565b604086015190935062000260816200027e565b606086015190925062000273816200027e565b939692955090935050565b6001600160a01b03811681146200029457600080fd5b50565b60805160601c60a05160601c60c05160601c6157ee620002dc600039806102555250806101a65280610596528061066b52508061045b528061057552506157ee6000f3fe60806040523480156200001157600080fd5b5060043610620000b85760003560e01c80638c2d741c116200007b5780638c2d741c14620001325780639a94775d1462000149578063c31c9c07146200016f578063d53b245b1462000179578063e281cc7e1462000190578063e8153c93146200019a57620000b8565b80630f4ef8a614620000bd5780631f7e29e514620000df5780634127365714620000f6578063441f5c65146200010f5780636b036f451462000128575b600080fd5b620000c7620001a4565b604051620000d6919062000afe565b60405180910390f35b620000c7620000f036600462000911565b620001c8565b6200010d62000107366004620008ed565b620002af565b005b6200011962000345565b604051620000d6919062000cb4565b620001196200034b565b6200010d62000143366004620008ed565b62000351565b620001606200015a366004620008ed565b620003aa565b604051620000d6919062000b12565b620000c7620003c0565b6200010d6200018a36600462000a41565b620003cf565b6200010d62000443565b620000c762000459565b7f000000000000000000000000000000000000000000000000000000000000000081565b6000620001d86200015a6200056a565b620002155760405162461bcd60e51b815260040180806020018281038252603a8152602001806200573c603a913960400191505060405180910390fd5b62000224565b60405180910390fd5b61012085015162000239576002546101208601525b604080516080810182526001546001600160a01b0390811682527f0000000000000000000000000000000000000000000000000000000000000000811660208301528b81169282019290925290891660608201526000620002a0828a8a8a8a8a8a6200056e565b9b9a5050505050505050505050565b620002bd6200015a6200056a565b620002fa5760405162461bcd60e51b815260040180806020018281038252603a8152602001806200573c603a913960400191505060405180910390fd5b6001600160a01b038116620003235760405162461bcd60e51b81526004016200021b9062000c96565b600180546001600160a01b0319166001600160a01b0392909216919091179055565b60025481565b60035481565b6200035f6200015a6200056a565b6200039c5760405162461bcd60e51b815260040180806020018281038252603a8152602001806200573c603a913960400191505060405180910390fd5b620003a781620006e3565b50565b6000620003b881836200047d565b90505b919050565b6001546001600160a01b031681565b620003dd6200015a6200056a565b6200041a5760405162461bcd60e51b815260040180806020018281038252603a8152602001806200573c603a913960400191505060405180910390fd5b61271081106200043e5760405162461bcd60e51b81526004016200021b9062000c4f565b600255565b62000457620004516200056a565b62000727565b565b7f000000000000000000000000000000000000000000000000000000000000000081565b60006001600160a01b038216620004c65760405162461bcd60e51b8152600401808060200182810382526022815260200180620057976022913960400191505060405180910390fd5b506001600160a01b03166000908152602091909152604090205460ff1690565b620004f282826200047d565b1562000545576040805162461bcd60e51b815260206004820152601f60248201527f526f6c65733a206163636f756e7420616c72656164792068617320726f6c6500604482015290519081900360640190fd5b6001600160a01b0316600090815260209190915260409020805460ff19166001179055565b3390565b60008087877f00000000000000000000000000000000000000000000000000000000000000007f0000000000000000000000000000000000000000000000000000000000000000620005bf6200056a565b8d8b8b8b8b604051620005d290620007d6565b620005e79a9998979695949392919062000b8f565b604051809103906000f08015801562000604573d6000803e3d6000fd5b509050806001600160a01b03167f36fb28861e6315c1412b9cbba95b66a3a98f78cc2192d142d7c9d3a6269a1a538989898989896040516200064c9695949392919062000b1d565b60405180910390a260405163d914cd4b60e01b81526001600160a01b037f0000000000000000000000000000000000000000000000000000000000000000169063d914cd4b90620006a290849060040162000afe565b600060405180830381600087803b158015620006bd57600080fd5b505af1158015620006d2573d6000803e3d6000fd5b50929b9a5050505050505050505050565b620006f0600082620004e6565b6040516001600160a01b038216907fac89bb7b3d0c5a763a97f31bc75f8faee00426e7b235f02ca76897d55caf7b6190600090a250565b620007346000826200076b565b6040516001600160a01b038216907f2bc71cc60b543df5fdd80ef5a45e1cdb344843769b649e9d901de3be24aeb24e90600090a250565b6200077782826200047d565b620007b45760405162461bcd60e51b8152600401808060200182810382526021815260200180620057766021913960400191505060405180910390fd5b6001600160a01b0316600090815260209190915260409020805460ff19169055565b614a3d8062000cff83390190565b80356001600160a01b0381168114620003bb57600080fd5b600082601f8301126200080d578081fd5b60405161010080820182811067ffffffffffffffff821117156200082d57fe5b604052818482810187101562000841578485fd5b8492505b6008831015620008675780358252600192909201916020918201910162000845565b509195945050505050565b80358015158114620003bb57600080fd5b600082601f83011262000894578081fd5b813567ffffffffffffffff811115620008a957fe5b620008be601f8201601f191660200162000cbd565b818152846020838601011115620008d3578283fd5b816020850160208301379081016020019190915292915050565b600060208284031215620008ff578081fd5b6200090a82620007e4565b9392505050565b600080600080600080600080610400898b0312156200092e578384fd5b6200093989620007e4565b975060206200094a818b01620007e4565b975060408a013567ffffffffffffffff8082111562000967578687fd5b620009758d838e0162000883565b985060608c01359150808211156200098b578687fd5b506200099a8c828d0162000883565b9650508a609f8b0112620009ac578485fd5b620009c2620009bc600b62000ce2565b62000cbd565b8060808c016101e08d018e811115620009d9578889fd5b885b600b811015620009fa57823585529385019391850191600101620009db565b5082985062000a0a8f82620007fc565b9750505050505062000a218a6102e08b01620007fc565b915062000a326103e08a0162000872565b90509295985092959890939650565b60006020828403121562000a53578081fd5b5035919050565b8060005b600b81101562000a7f57815184526020938401939091019060010162000a5e565b50505050565b8060005b600881101562000a7f57815184526020938401939091019060010162000a89565b15159052565b60008151808452815b8181101562000ad75760208185018101518683018201520162000ab9565b8181111562000ae95782602083870101525b50601f01601f19169290920160200192915050565b6001600160a01b0391909116815260200190565b901515815260200190565b60006103c080835262000b338184018a62000ab0565b9050828103602084015262000b49818962000ab0565b91505062000b5b604083018762000a5a565b62000b6b6101a083018662000a85565b62000b7b6102a083018562000a85565b8215156103a0830152979650505050505050565b60006104a080835262000ba58184018e62000ab0565b905060208382038185015262000bbc828e62000ab0565b6001600160a01b038d811660408701528c811660608701528b81166080870152909350915060a084018960005b600481101562000c0a57815185168352918301919083019060010162000be9565b505050505062000c1f61012083018762000a5a565b62000c2f61028083018662000a85565b62000c3f61038083018562000a85565b620002a061048083018462000aaa565b60208082526027908201527f303432302054617820636f6e6e6f74206265206f7665722031303025202831306040820152663030302042502960c81b606082015260800190565b6020808252600490820152630303431360e41b604082015260600190565b90815260200190565b60405181810167ffffffffffffffff8111828210171562000cda57fe5b604052919050565b600067ffffffffffffffff82111562000cf757fe5b506020029056fe6102606040523480156200001257600080fd5b5060405162004a3d38038062004a3d83398181016040526104a08110156200003957600080fd5b81019080805160405193929190846401000000008211156200005a57600080fd5b9083019060208201858111156200007057600080fd5b82516401000000008111828201881017156200008b57600080fd5b82525081516020918201929091019080838360005b83811015620000ba578181015183820152602001620000a0565b50505050905090810190601f168015620000e85780820380516001836020036101000a031916815260200191505b50604052602001805160405193929190846401000000008211156200010c57600080fd5b9083019060208201858111156200012257600080fd5b82516401000000008111828201881017156200013d57600080fd5b82525081516020918201929091019080838360005b838110156200016c57818101518382015260200162000152565b50505050905090810190601f1680156200019a5780820380516001836020036101000a031916815260200191505b506040908152602082015190820151606083015161046084015160808501805160a087015160e088015160c0890151979a50959850939691956101008301956102608401956103609094019493916000620001f462000484565b600080546001600160a01b0319166001600160a01b0383169081178255604051929350917f8be0079c531659141344cd1fd0a4f28419497f9722a3daafe3b4186f6b6457e0908290a350600180546001600160a01b03199081166001600160a01b0393841617909155600380548216958316959095179094556004805485169382169390931790925560058054909316911617905542846000602002015111620002d05760405162461bcd60e51b815260040180806020018281038252602181526020018062004a1c6021913960400191505060405180910390fd5b8951620002e59060069060208d0190620004aa565b508851620002fb9060079060208c0190620004aa565b506001600160601b0319606089811b821660805288901b1660a0528460026020020151600f80546001600160a01b03199081166001600160a01b0393841617909155600e80549091169188169190911790556200035f856001602002015162000488565b606085810151811b6001600160601b03191660c0908152855160e0908152602087015161012090815260408801516101009081529388015161014090815260808901516101605260a089015161018052928801516101a05290870151610200529186015161022052908501516101c0528401516101e05280151560f81b6102405260005b60088110156200047357828160088110620003fa57fe5b60200201516200040a5762000473565b601060405180604001604052808684600881106200042457fe5b602002015181526020018584600881106200043b57fe5b6020908102919091015190915282546001818101855560009485529382902083516002909202019081559101519082015501620003e3565b505050505050505050505062000556565b3390565b600280546001600160a01b0319166001600160a01b0392909216919091179055565b828054600181600116156101000203166002900490600052602060002090601f016020900481019282620004e257600085556200052d565b82601f10620004fd57805160ff19168380011785556200052d565b828001600101855582156200052d579182015b828111156200052d57825182559160200191906001019062000510565b506200053b9291506200053f565b5090565b5b808211156200053b576000815560010162000540565b60805160601c60a05160601c60c05160601c60e05161010051610120516101405161016051610180516101a0516101c0516101e05161020051610220516102405160f81c614349620006d3600039806119c05280613f17525080610e5352806133e8525080610e1d5280610e7d52806133a0525080611dbc52806120d3525080611d985280613cea5280613d1a525080610d5f52806112955280611ab35280611e9e5280612ef55250806113175280611ec2525080612ce05280613c81525080611c25528061213c52806122ac52806126af525080610cbc5280611c015280612c155280613c34525080610a355280610cdd5280612c365280613c125280613f6a525080610cfe52806120095280612c5752806136555280613bf15280613f49525080612a755280612f2152806135e8525080610a595280612dad5280612e3c525080611ca2528061216852806121f952806123415280612404528061243352806128295280612d7e528061302a52806133c452506143496000f3fe608060405234801561001057600080fd5b50600436106103db5760003560e01c80638a9920b71161020a578063bf85219611610125578063eb850ae1116100b8578063f3d9dc0d11610087578063f3d9dc0d146109f6578063f5e96fc9146109fe578063f8e829c314610a06578063f8eeed6214610a0e578063fd5e6dd114610a16576103db565b8063eb850ae11461098d578063f0141d8414610995578063f1b17a8b146109b3578063f2fde38b146109d0576103db565b8063d7efb6b7116100f4578063d7efb6b714610935578063de09ee201461093d578063e425df8c1461097d578063e8153c9314610985576103db565b8063bf85219614610915578063c12010541461091d578063c6c1decd14610925578063d025188b1461092d576103db565b8063a150194b1161019d578063aa7bcb571161016c578063aa7bcb57146108f5578063b1dd61b6146108fd578063b88a802f14610905578063bece75321461090d576103db565b8063a150194b14610870578063a35ef3a714610878578063a4e2d634146108d0578063a7a48681146108d8576103db565b806395c2ba47116101d957806395c2ba4714610839578063996c6cc314610841578063a08b2c7914610849578063a118c9a714610851576103db565b80638a9920b7146108195780638bfbbcbe146108215780638da5cb5b146108295780638e15f47314610831576103db565b80634bc4eeb2116102fa578063715018a61161028d5780637b0472f01161025c5780637b0472f01461076f5780637f2b6a0d14610792578063817b1cd21461079a578063850fa7cb146107a2576103db565b8063715018a61461073157806373f3170314610739578063785fa6271461074157806378f4d41314610749576103db565b806351eacbf0116102c957806351eacbf0146106e35780635d2631e2146106eb5780636847d0c5146107215780636b036f4514610729576103db565b80634bc4eeb21461068d5780634c7c77fc146106955780634ddc1bdc146106b85780634e8bfdaa146106db576103db565b80633299ac5f116103725780634026478e116103415780634026478e1461059657806343352d611461059e578063444a49021461063f57806345e9131914610661576103db565b80633299ac5f146104f757806334381749146105145780633ac58b9a146105535780633fcdd82c14610579576103db565b8063238a6c74116103ae578063238a6c74146104605780632d42cf7d146104dd5780632e577d07146104e757806331e244e5146104ef576103db565b80630d668087146103e05780630f4ef8a6146103fa578063183521cc1461041e57806322f3e2d414610444575b600080fd5b6103e8610a33565b60408051918252519081900360200190f35b610402610a57565b604080516001600160a01b039092168252519081900360200190f35b6103e86004803603602081101561043457600080fd5b50356001600160a01b0316610a7b565b61044c610bc3565b604080519115158252519081900360200190f35b610468610bd3565b6040805160208082528351818301528351919283929083019185019080838360005b838110156104a257818101518382015260200161048a565b50505050905090810190601f1680156104cf5780820380516001836020036101000a031916815260200191505b509250505060405180910390f35b6104e5610c61565b005b610402610f9a565b6104e5610faa565b6103e86004803603602081101561050d57600080fd5b5035611021565b61053a6004803603602081101561052a57600080fd5b50356001600160a01b0316611148565b6040805192835260208301919091528051918290030190f35b61053a6004803603602081101561056957600080fd5b50356001600160a01b0316611180565b6103e86004803603602081101561058f57600080fd5b503561139b565b6104e561151b565b6105a661157c565b604051808060200180602001838103835285818151815260200191508051906020019060200280838360005b838110156105ea5781810151838201526020016105d2565b50505050905001838103825284818151815260200191508051906020019060200280838360005b83811015610629578181015183820152602001610611565b5050505090500194505050505060405180910390f35b6104e5600480360361064081101561065657600080fd5b5061032081016116c1565b61044c6004803603604081101561067757600080fd5b506001600160a01b03813516906020013561182a565b61044c6119be565b6103e8600480360360408110156106ab57600080fd5b50803590602001356119e2565b6104e5600480360360408110156106ce57600080fd5b5080359060200135611a56565b6103e8611bff565b6103e8611c23565b6104e56004803603606081101561070157600080fd5b506001600160a01b03813581169160208101359160409091013516611c47565b6103e8611d96565b6103e8611dba565b6104e5611dde565b6103e8611e9c565b6103e8611ec0565b6103e86004803603602081101561075f57600080fd5b50356001600160a01b0316611ee4565b6104e56004803603604081101561078557600080fd5b5080359060200135611ff3565b61044c612733565b6103e8612743565b6107ce600480360360408110156107b857600080fd5b506001600160a01b038135169060200135612749565b60408051998a5260208a0198909852888801969096526060880194909452608087019290925260a086015260c0850152151560e0840152151561010083015251908190036101200190f35b6104e56127b7565b6104e561292e565b6104026129c5565b6103e86129d4565b6103e8612a6e565b610402612a73565b61044c612a97565b6104e56004803603602081101561086757600080fd5b50351515612aa7565b6103e8612b1e565b610880612b23565b60408051602080825283518183015283519192839290830191858101910280838360005b838110156108bc5781810151838201526020016108a4565b505050509050019250505060405180910390f35b61044c612baa565b6104e5600480360360208110156108ee57600080fd5b5035612bba565b6103e8612cde565b610468612d02565b6104e5612d5d565b61040261317d565b6103e861318c565b6103e86132c5565b610402613341565b6103e8613350565b61044c613356565b61095a6004803603602081101561095357600080fd5b5035613366565b604080516001600160a01b03909316835260208301919091528051918290030190f35b6103e861339e565b6104026133c2565b6103e86133e6565b61099d61340a565b6040805160ff9092168252519081900360200190f35b61053a600480360360208110156109c957600080fd5b503561348d565b6104e5600480360360208110156109e657600080fd5b50356001600160a01b03166134bb565b6103e86135cf565b6104026135d5565b6103e86135e4565b6103e8613653565b61095a60048036036020811015610a2c57600080fd5b5035613677565b7f000000000000000000000000000000000000000000000000000000000000000081565b7f000000000000000000000000000000000000000000000000000000000000000081565b6001600160a01b038116600090815260086020908152604080832080548251818502810185019093528083528493849084015b82821015610b4057600084815260209081902060408051610120810182526008860290920180548352600180820154848601526002820154928401929092526003810154606084015260048101546080840152600581015460a0840152600681015460c08401526007015460ff808216151560e085015261010091829004161515908301529083529092019101610aae565b505050509050805160001415610b5a576000915050610bbe565b6000805b8251811015610bb957828181518110610b7357fe5b60200260200101516101000151610bb157610bae838281518110610b9357fe5b6020026020010151600001518361368790919063ffffffff16565b91505b600101610b5e565b509150505b919050565b600f54600160a81b900460ff1681565b6006805460408051602060026001851615610100026000190190941693909304601f81018490048402820184019092528181529291830182828015610c595780601f10610c2e57610100808354040283529160200191610c59565b820191906000526020600020905b815481529060010190602001808311610c3c57829003601f168201915b505050505081565b600e546001600160a01b0316610c756136e8565b6001600160a01b031614610cba5760405162461bcd60e51b81526004018080602001828103825260218152602001806142206021913960400191505060405180910390fd5b7f00000000000000000000000000000000000000000000000000000000000000007f00000000000000000000000000000000000000000000000000000000000000007f00000000000000000000000000000000000000000000000000000000000000000101421015610d5d5760405162461bcd60e51b815260040180806020018281038252602c8152602001806141ad602c913960400191505060405180910390fd5b7f000000000000000000000000000000000000000000000000000000000000000015610dc657610d8b6135e4565b610dc65760405162461bcd60e51b81526004018080602001828103825260278152602001806142b76027913960400191505060405180910390fd5b60095415610e1b57600a54610e1b576040805162461bcd60e51b81526020600482015260166024820152750c0ccd8c88199a5c9cdd081cda1bdd5b19081cdbdc9d60521b604482015290519081900360640190fd5b7f000000000000000000000000000000000000000000000000000000000000000015610ea2576000610e4b61318c565b9050610e77817f00000000000000000000000000000000000000000000000000000000000000006119e2565b610ea0577f0000000000000000000000000000000000000000000000000000000000000000600d555b505b600a54600090601910610eb757600a54610eba565b60195b905060005b81811015610f4b578060010160086000600a8481548110610edc57fe5b600091825260208083206002909202909101546001600160a01b031683528201929092526040019020600a805484908110610f1357fe5b90600052602060002090600202016001015481548110610f2f57fe5b6000918252602090912060066008909202010155600101610ebf565b50600f805460ff60b81b1960ff60b01b19909116600160b01b1716600160b81b1790556040517fe8ef7a17c92d025d9c1ead1c6b3ca3b44d3283d0ee954f615c5c476911f629a590600090a150565b6003546001600160a01b03165b90565b600e546001600160a01b0316610fbe6136e8565b6001600160a01b0316146110035760405162461bcd60e51b81526004018080602001828103825260218152602001806142206021913960400191505060405180910390fd5b600f805461ffff60a01b1916600160a01b17905561101f6136ec565b565b6000806040518060800160405280616b6c8152602001617530815260200161445c81526020016000198152509050600060405180608001604052806103e881526020016102bc8152602001610177815260200160c881525090506000805b600481101561113f576000600382146110ba576110b5670de0b6b3a76400008684600481106110aa57fe5b60200201519061372a565b6110bc565b865b905060008188116110cd57876110cf565b815b9050611119611112670de0b6b3a764000061110c6101f481620f42406111068c8b600481106110fa57fe5b6020020151899061372a565b9061372a565b90613783565b8590613687565b935081881161112957505061113f565b61113388836137ea565b9750505060010161107f565b50949350505050565b600080600080600061115986611ee4565b905061116486611180565b90935091506111738184613687565b945090925050505b915091565b600f546000908190600160b81b900460ff166111a15750600090508061117b565b6001600160a01b038316600090815260086020908152604080832080548251818502810185019093528083529192909190849084015b8282101561126957600084815260209081902060408051610120810182526008860290920180548352600180820154848601526002820154928401929092526003810154606084015260048101546080840152600581015460a0840152600681015460c08401526007015460ff808216151560e0850152610100918290041615159083015290835290920191016111d7565b50505050905080516000141561128657600080925092505061117b565b600c546000906112be9061110c7f00000000000000000000000000000000000000000000000000000000000000006305f5e10061372a565b905060008060005b845181101561135e578481815181106112db57fe5b602002602001015160e0015161135657600061130d8683815181106112fc57fe5b602002602001015160c00151613847565b905061133c6111127f0000000000000000000000000000000000000000000000000000000000000000836138b2565b935061135261134b86836138b2565b8490613687565b9250505b6001016112c6565b50600d541561138f57600d546113759083906138c4565b915061138c600d54826138c490919063ffffffff16565b90505b90945092505050915091565b60035460009081906001600160a01b031663d06ca61f846113ba612b23565b6040518363ffffffff1660e01b81526004018083815260200180602001828103825283818151815260200191508051906020019060200280838360005b8381101561140f5781810151838201526020016113f7565b50505050905001935050505060006040518083038186803b15801561143357600080fd5b505afa158015611447573d6000803e3d6000fd5b505050506040513d6000823e601f3d908101601f19168201604052602081101561147057600080fd5b810190808051604051939291908464010000000082111561149057600080fd5b9083019060208201858111156114a557600080fd5b82518660208202830111640100000000821117156114c257600080fd5b82525081516020918201928201910280838360005b838110156114ef5781810151838201526020016114d7565b5050505090500160405250505090508060018151811061150b57fe5b6020026020010151915050919050565b600e546001600160a01b031661152f6136e8565b6001600160a01b0316146115745760405162461bcd60e51b81526004018080602001828103825260218152602001806142206021913960400191505060405180910390fd5b61101f6136ec565b606080600060098054905067ffffffffffffffff8111801561159d57600080fd5b506040519080825280602002602001820160405280156115c7578160200160208202803683370190505b5060095490915060009067ffffffffffffffff811180156115e757600080fd5b50604051908082528060200260200182016040528015611611578160200160208202803683370190505b50905060005b6009548110156116b7576009818154811061162e57fe5b600091825260209091206002909102015483516001600160a01b039091169084908390811061165957fe5b60200260200101906001600160a01b031690816001600160a01b0316815250506009818154811061168657fe5b9060005260206000209060020201600101548282815181106116a457fe5b6020908102919091010152600101611617565b5090925090509091565b600e546001600160a01b03166116d56136e8565b6001600160a01b03161461171a5760405162461bcd60e51b81526004018080602001828103825260218152602001806142206021913960400191505060405180910390fd5b600a541561172e5761172e600a600061411d565b60005b60198110156117fc57600083826019811061174857fe5b60200201356001600160a01b03166001600160a01b0316141561176a576117fc565b600a604051806040016040528085846019811061178357fe5b60200201356001600160a01b03166001600160a01b031681526020018484601981106117ab57fe5b60209081029190910135909152825460018082018555600094855293829020835160029092020180546001600160a01b0319166001600160a01b039092169190911781559101519082015501611731565b506040517f5c243cc6e4f210bf2dd86b8eca0ca891d3f8ad2eb09fbf91735eb348bc199c7e90600090a15050565b6001600160a01b038216600090815260086020908152604080832080548251818502810185019093528083528493849084015b828210156118ef57600084815260209081902060408051610120810182526008860290920180548352600180820154848601526002820154928401929092526003810154606084015260048101546080840152600581015460a0840152600681015460c08401526007015460ff808216151560e08501526101009182900416151590830152908352909201910161185d565b50505050905060008151116119355760405162461bcd60e51b815260040180806020018281038252602b815260200180614262602b913960400191505060405180910390fd5b8051831061198a576040805162461bcd60e51b815260206004820152601760248201527f30333831207468697320696e6465782065786365656473000000000000000000604482015290519081900360640190fd5b80838151811061199657fe5b60200260200101516101000151156119b25760019150506119b8565b60009150505b92915050565b7f000000000000000000000000000000000000000000000000000000000000000081565b6000600c54831115611a2657600c546119fb84846137ea565b11611a08575060006119b8565b600c54611a1f90611a1985856137ea565b906137ea565b90506119b8565b600c54611a338484613687565b10611a40575060006119b8565b611a1f611a4d8484613687565b600c54906137ea565b600e546001600160a01b0316611a6a6136e8565b6001600160a01b031614611aaf5760405162461bcd60e51b81526004018080602001828103825260218152602001806142206021913960400191505060405180910390fd5b60007f000000000000000000000000000000000000000000000000000000000000000011611b0e5760405162461bcd60e51b81526004018080602001828103825260238152602001806141646023913960400191505060405180910390fd5b60008211611b63576040805162461bcd60e51b815260206004820152601960248201527f3033343120416d6f756e742063616e2774206265207a65726f00000000000000604482015290519081900360640190fd5b42811015611baf576040805162461bcd60e51b81526020600482015260146024820152733033343220446561646c696e65206973206c6f7760601b604482015290519081900360640190fd5b6000611bb9610f9a565b9050611bc581846138ec565b6000611bd08461139b565b90506000611bea611be38361012c6138b2565b83906137ea565b9050611bf8308683876139b1565b5050505050565b7f000000000000000000000000000000000000000000000000000000000000000081565b7f000000000000000000000000000000000000000000000000000000000000000081565b600e546001600160a01b0316611c5b6136e8565b6001600160a01b031614611ca05760405162461bcd60e51b81526004018080602001828103825260218152602001806142206021913960400191505060405180910390fd5b7f00000000000000000000000000000000000000000000000000000000000000006001600160a01b0316836001600160a01b03161415611d115760405162461bcd60e51b81526004018080602001828103825260218152602001806141ff6021913960400191505060405180910390fd5b6040805163a9059cbb60e01b81526001600160a01b038381166004830152602482018590529151859283169163a9059cbb9160448083019260209291908290030181600087803b158015611d6457600080fd5b505af1158015611d78573d6000803e3d6000fd5b505050506040513d6020811015611d8e57600080fd5b505050505050565b7f000000000000000000000000000000000000000000000000000000000000000081565b7f000000000000000000000000000000000000000000000000000000000000000081565b611de66136e8565b6001600160a01b0316611df76129c5565b6001600160a01b031614611e52576040805162461bcd60e51b815260206004820181905260248201527f4f776e61626c653a2063616c6c6572206973206e6f7420746865206f776e6572604482015290519081900360640190fd5b600080546040516001600160a01b03909116907f8be0079c531659141344cd1fd0a4f28419497f9722a3daafe3b4186f6b6457e0908390a3600080546001600160a01b0319169055565b7f000000000000000000000000000000000000000000000000000000000000000081565b7f000000000000000000000000000000000000000000000000000000000000000081565b6001600160a01b038116600090815260086020908152604080832080548251818502810185019093528083528493849084015b82821015611fa957600084815260209081902060408051610120810182526008860290920180548352600180820154848601526002820154928401929092526003810154606084015260048101546080840152600581015460a0840152600681015460c08401526007015460ff808216151560e085015261010091829004161515908301529083529092019101611f17565b505050509050805160001415611fc3576000915050610bbe565b6000805b8251811015610bb9576000611fdc8683613b4a565b9050611fe88382613687565b925050600101611fc7565b600f54600160a81b900460ff16801561202b57507f000000000000000000000000000000000000000000000000000000000000000042115b61207c576040805162461bcd60e51b815260206004820152601760248201527f3033313320706f6f6c206973206e6f7420616374697665000000000000000000604482015290519081900360640190fd5b600f54600160b01b900460ff16156120d1576040805162461bcd60e51b81526020600482015260136024820152720c0ccc4c08141bdbdb081a5cc81b1bd8dad959606a1b604482015290519081900360640190fd5b7f00000000000000000000000000000000000000000000000000000000000000008210156121305760405162461bcd60e51b815260040180806020018281038252602a81526020018061428d602a913960400191505060405180910390fd5b6000612162606461110c7f0000000000000000000000000000000000000000000000000000000000000000600561372a565b905060007f00000000000000000000000000000000000000000000000000000000000000006001600160a01b031663771a3a1d6040518163ffffffff1660e01b815260040160206040518083038186803b1580156121bf57600080fd5b505afa1580156121d3573d6000803e3d6000fd5b505050506040513d60208110156121e957600080fd5b5051905060006001600160a01b037f00000000000000000000000000000000000000000000000000000000000000001663d1ecfc686122266136e8565b6040518263ffffffff1660e01b815260040180826001600160a01b0316815260200191505060206040518083038186803b15801561226357600080fd5b505afa158015612277573d6000803e3d6000fd5b505050506040513d602081101561228d57600080fd5b50516122a25761229d85836138b2565b6122a5565b60005b90506122d17f000000000000000000000000000000000000000000000000000000000000000084613687565b6122ea82611a1988600b5461368790919063ffffffff16565b11156123275760405162461bcd60e51b81526004018080602001828103825260268152602001806141d96026913960400191505060405180910390fd5b60006123338684613ce2565b965090506001600160a01b037f0000000000000000000000000000000000000000000000000000000000000000166323b872dd61236e6136e8565b604080516001600160e01b031960e085901b1681526001600160a01b03909216600483015230602483015289850160448301525160648083019260209291908290030181600087803b1580156123c357600080fd5b505af11580156123d7573d6000803e3d6000fd5b505050506040513d60208110156123ed57600080fd5b506123fa905086836137ea565b95508015612531577f00000000000000000000000000000000000000000000000000000000000000006001600160a01b031663a9059cbb7f00000000000000000000000000000000000000000000000000000000000000006001600160a01b0316634a5db0a96040518163ffffffff1660e01b815260040160206040518083038186803b15801561248a57600080fd5b505afa15801561249e573d6000803e3d6000fd5b505050506040513d60208110156124b457600080fd5b5051604080516001600160e01b031960e085901b1681526001600160a01b039092166004830152602482018590525160448083019260209291908290030181600087803b15801561250457600080fd5b505af1158015612518573d6000803e3d6000fd5b505050506040513d602081101561252e57600080fd5b50505b600b5461253e9087613687565b600b81905550600960405180604001604052806125596136e8565b6001600160a01b03168152602001600860006125736136e8565b6001600160a01b0390811682526020808301939093526040909101600090812054909352845460018082018755958452828420855160029092020180546001600160a01b0319169190921617815592015191909201556008906125d46136e8565b6001600160a01b03168152602080820192909252604090810160009081208251610120810184528a81524281860181815294820184815260608301918252608083018c815260001960a0850181815260c0860191825260e086018881526101008088018a8152895460018082018c559a8c529c909a2097516008909c029097019a8b559851968a01969096559151600289015591516003880155905160048701559151600586015590516006850155915160079093018054915160ff19929092169315159390931761ff001916901515909102179055600b547f0000000000000000000000000000000000000000000000000000000000000000116126db576126db6136ec565b6126e36136e8565b6001600160a01b03167f5af417134f72a9d41143ace85b0a26dce6f550f894f2cbc1eeee8810603d91b68787604051808381526020018281526020019250505060405180910390a2505050505050565b600f54600160b81b900460ff1681565b600b5481565b6008602052816000526040600020818154811061276557600080fd5b6000918252602090912060089091020180546001820154600283015460038401546004850154600586015460068701546007909701549598509396509194909391929160ff8082169161010090041689565b600f54600160a01b900460ff1661280d576040805162461bcd60e51b815260206004820152601560248201527469742773206e6f7420616e20656d657267656e637960581b604482015290519081900360640190fd5b600061281f61281a6136e8565b610a7b565b9050801561292b577f00000000000000000000000000000000000000000000000000000000000000006001600160a01b031663a9059cbb61285e6136e8565b836040518363ffffffff1660e01b815260040180836001600160a01b0316815260200182815260200192505050602060405180830381600087803b1580156128a557600080fd5b505af11580156128b9573d6000803e3d6000fd5b505050506040513d60208110156128cf57600080fd5b506128e290506128dd6136e8565b613d7e565b6128ea6136e8565b6001600160a01b03167f85082129d87b2fe11527cb1b3b7a520aeb5aa6913f88a3d8757fe40d1db02fdd826040518082815260200191505060405180910390a25b50565b600e546001600160a01b03166129426136e8565b6001600160a01b0316146129875760405162461bcd60e51b81526004018080602001828103825260218152602001806142206021913960400191505060405180910390fd5b600f805460ff60c01b1916600160c01b1790556040517f9331b2a38c658c57a39ea19b2709d928c28a12cc8fbb838d12b85148550f937d90600090a1565b6000546001600160a01b031690565b600080600160009054906101000a90046001600160a01b03166001600160a01b031663feaf968c6040518163ffffffff1660e01b815260040160a06040518083038186803b158015612a2557600080fd5b505afa158015612a39573d6000803e3d6000fd5b505050506040513d60a0811015612a4f57600080fd5b506020015190506000811215612a66576000612a68565b805b91505090565b600581565b7f000000000000000000000000000000000000000000000000000000000000000081565b600f54600160a01b900460ff1681565b600e546001600160a01b0316612abb6136e8565b6001600160a01b031614612b005760405162461bcd60e51b81526004018080602001828103825260218152602001806142206021913960400191505060405180910390fd5b600f8054911515600160a81b0260ff60a81b19909216919091179055565b600881565b60408051600280825260608083018452926000929190602083019080368337505060045482519293506001600160a01b031691839150600090612b6257fe5b6001600160a01b039283166020918202929092010152600554825191169082906001908110612b8d57fe5b6001600160a01b0390921660209283029190910190910152905090565b600f54600160b01b900460ff1681565b600e546001600160a01b0316612bce6136e8565b6001600160a01b031614612c135760405162461bcd60e51b81526004018080602001828103825260218152602001806142206021913960400191505060405180910390fd5b7f00000000000000000000000000000000000000000000000000000000000000007f00000000000000000000000000000000000000000000000000000000000000007f00000000000000000000000000000000000000000000000000000000000000000101421015612cb65760405162461bcd60e51b81526004018080602001828103825260368152602001806142de6036913960400191505060405180910390fd5b600f546001600160a01b0316612cd057600c81905561292b565b612cd86129d4565b600c5550565b7f000000000000000000000000000000000000000000000000000000000000000081565b6007805460408051602060026001851615610100026000190190941693909304601f81018490048402820184019092528181529291830182828015610c595780601f10610c2e57610100808354040283529160200191610c59565b600080612d70612d6b6136e8565b611148565b90925090508115612ed157817f00000000000000000000000000000000000000000000000000000000000000006001600160a01b03166370a082317f00000000000000000000000000000000000000000000000000000000000000006040518263ffffffff1660e01b815260040180826001600160a01b0316815260200191505060206040518083038186803b158015612e0957600080fd5b505afa158015612e1d573d6000803e3d6000fd5b505050506040513d6020811015612e3357600080fd5b505110612ed1577f00000000000000000000000000000000000000000000000000000000000000006001600160a01b031663e4e103dc612e716136e8565b846040518363ffffffff1660e01b815260040180836001600160a01b0316815260200182815260200192505050600060405180830381600087803b158015612eb857600080fd5b505af1158015612ecc573d6000803e3d6000fd5b505050505b612ee1612edc6136e8565b613df2565b600f54600160b81b900460ff1615613129577f000000000000000000000000000000000000000000000000000000000000000015613013578015613003577f00000000000000000000000000000000000000000000000000000000000000006001600160a01b031663a9059cbb612f566136e8565b836040518363ffffffff1660e01b815260040180836001600160a01b0316815260200182815260200192505050602060405180830381600087803b158015612f9d57600080fd5b505af1158015612fb1573d6000803e3d6000fd5b505050506040513d6020811015612fc757600080fd5b5051613003576040805162461bcd60e51b815260206004808301919091526024820152630303332360e41b604482015290519081900360640190fd5b61301361300e6136e8565b613eab565b600061302061281a6136e8565b90508015613127577f00000000000000000000000000000000000000000000000000000000000000006001600160a01b031663a9059cbb61305f6136e8565b836040518363ffffffff1660e01b815260040180836001600160a01b0316815260200182815260200192505050602060405180830381600087803b1580156130a657600080fd5b505af11580156130ba573d6000803e3d6000fd5b505050506040513d60208110156130d057600080fd5b506130de90506128dd6136e8565b6130e66136e8565b6001600160a01b03167f85082129d87b2fe11527cb1b3b7a520aeb5aa6913f88a3d8757fe40d1db02fdd826040518082815260200191505060405180910390a25b505b6131316136e8565b6001600160a01b03167ff279e6a1f5e320cca91135676d9cb6e44ca8a08c0b88342bcdb1144f6511b5688383604051808381526020018281526020019250505060405180910390a25050565b600f546001600160a01b031681565b6000600b54600014156131a157506000610fa7565b6000805b6009548110156132b657600060086000600984815481106131c257fe5b600091825260208083206002909202909101546001600160a01b03168352820192909252604001902060098054849081106131f957fe5b9060005260206000209060020201600101548154811061321557fe5b600091825260209182902060408051610120810182526008909302909101805480845260018201549484019490945260028101549183019190915260038101546060830152600481015460808301819052600582015460a0840152600682015460c084015260079091015460ff808216151560e085015261010091829004161515908301529092506132ab9161134b919061372a565b9250506001016131a5565b50600b54612a68908290613783565b600254604080516370a0823160e01b815230600482015290516000926001600160a01b0316916370a08231916024808301926020929190829003018186803b15801561331057600080fd5b505afa158015613324573d6000803e3d6000fd5b505050506040513d602081101561333a57600080fd5b5051905090565b600e546001600160a01b031681565b600c5481565b600f54600160c01b900460ff1681565b600a818154811061337657600080fd5b6000918252602090912060029091020180546001909101546001600160a01b03909116915082565b7f000000000000000000000000000000000000000000000000000000000000000081565b7f000000000000000000000000000000000000000000000000000000000000000081565b7f000000000000000000000000000000000000000000000000000000000000000081565b600080600160009054906101000a90046001600160a01b03166001600160a01b031663313ce5676040518163ffffffff1660e01b815260040160206040518083038186803b15801561345b57600080fd5b505afa15801561346f573d6000803e3d6000fd5b505050506040513d602081101561348557600080fd5b505191505090565b6010818154811061349d57600080fd5b60009182526020909120600290910201805460019091015490915082565b6134c36136e8565b6001600160a01b03166134d46129c5565b6001600160a01b03161461352f576040805162461bcd60e51b815260206004820181905260248201527f4f776e61626c653a2063616c6c6572206973206e6f7420746865206f776e6572604482015290519081900360640190fd5b6001600160a01b0381166135745760405162461bcd60e51b81526004018080602001828103825260268152602001806141876026913960400191505060405180910390fd5b600080546040516001600160a01b03808516939216917f8be0079c531659141344cd1fd0a4f28419497f9722a3daafe3b4186f6b6457e091a3600080546001600160a01b0319166001600160a01b0392909216919091179055565b600d5481565b6002546001600160a01b031690565b60007f00000000000000000000000000000000000000000000000000000000000000006001600160a01b03166370a08231306040518263ffffffff1660e01b815260040180826001600160a01b0316815260200191505060206040518083038186803b15801561331057600080fd5b7f000000000000000000000000000000000000000000000000000000000000000081565b6009818154811061337657600080fd5b6000828201838110156136e1576040805162461bcd60e51b815260206004820152601b60248201527f536166654d6174683a206164646974696f6e206f766572666c6f770000000000604482015290519081900360640190fd5b9392505050565b3390565b600f805460ff60b01b1916600160b01b1790556040517f2e136745550967f28b779ce8c395ca060a2f844edfb5b06631fe677f66f9e30590600090a1565b600082613739575060006119b8565b8282028284828161374657fe5b04146136e15760405162461bcd60e51b81526004018080602001828103825260218152602001806142416021913960400191505060405180910390fd5b60008082116137d9576040805162461bcd60e51b815260206004820152601a60248201527f536166654d6174683a206469766973696f6e206279207a65726f000000000000604482015290519081900360640190fd5b8183816137e257fe5b049392505050565b600082821115613841576040805162461bcd60e51b815260206004820152601e60248201527f536166654d6174683a207375627472616374696f6e206f766572666c6f770000604482015290519081900360640190fd5b50900390565b6000805b6010548110156138a9576010818154811061386257fe5b90600052602060002090600202016000015483116138a1576010818154811061388757fe5b906000526020600020906002020160010154915050610bbe565b60010161384b565b50600092915050565b60006136e161271061110c858561372a565b6000826138d3575060006119b8565b816138df5750816119b8565b6136e161134b84846138b2565b6002546040805163095ea7b360e01b81526001600160a01b038581166004830152602482018590529151919092169163095ea7b39160448083019260209291908290030181600087803b15801561394257600080fd5b505af1158015613956573d6000803e3d6000fd5b505050506040513d602081101561396c57600080fd5b50506040805182815290516001600160a01b038416917fd77df63d9076d067d9fd7af16c3d67db48b84064c3314f5900ae919922d364a1919081900360200190a25050565b6001600160a01b0384166139c457600080fd5b6003546001600160a01b03166338ed173984846139df612b23565b88866040518663ffffffff1660e01b81526004018086815260200185815260200180602001846001600160a01b03168152602001838152602001828103825285818151815260200191508051906020019060200280838360005b83811015613a51578181015183820152602001613a39565b505050509050019650505050505050600060405180830381600087803b158015613a7a57600080fd5b505af1158015613a8e573d6000803e3d6000fd5b505050506040513d6000823e601f3d908101601f191682016040526020811015613ab757600080fd5b8101908080516040519392919084640100000000821115613ad757600080fd5b908301906020820185811115613aec57600080fd5b8251866020820283011164010000000082111715613b0957600080fd5b82525081516020918201928201910280838360005b83811015613b36578181015183820152602001613b1e565b505050509050016040525050505050505050565b6001600160a01b0382166000908152600860205260408120805482919084908110613b7157fe5b6000918252602080832060408051610120810182526008909402909101805484526001810154928401929092526002820154908301526003810154606083015260048101546080830152600581015460a0830152600681015460c08301526007015460ff808216151560e0840152610100918290041615159082015291507f00000000000000000000000000000000000000000000000000000000000000007f0000000000000000000000000000000000000000000000000000000000000000017f00000000000000000000000000000000000000000000000000000000000000000190428210613c625742613c64565b815b90506000613c758460200151613f13565b90506000613cbd613ca67f000000000000000000000000000000000000000000000000000000000000000084613687565b6020870151613cb69086906137ea565b875161401a565b9050613cd68560400151826137ea90919063ffffffff16565b98975050505050505050565b6000806000837f000000000000000000000000000000000000000000000000000000000000000011613d15576000613d3f565b613d3f7f0000000000000000000000000000000000000000000000000000000000000000856137ea565b905080613d53576000859250925050613d77565b613d5d85826138b2565b613d71613d6a87846138b2565b87906137ea565b92509250505b9250929050565b6001600160a01b03811660009081526008602052604090208054613da2575061292b565b60005b8154811015613ded576001828281548110613dbc57fe5b6000918252602090912060076008909202010180549115156101000261ff0019909216919091179055600101613da5565b505050565b6001600160a01b03811660009081526008602052604090208054613e16575061292b565b60005b8154811015613ded576000613e2e8483613b4a565b905042838381548110613e3d57fe5b906000526020600020906008020160030181905550613e8281848481548110613e6257fe5b90600052602060002090600802016002015461368790919063ffffffff16565b838381548110613e8e57fe5b600091825260209091206002600890920201015550600101613e19565b6001600160a01b03811660009081526008602052604090208054613ecf575061292b565b60005b8154811015613ded576001828281548110613ee957fe5b60009182526020909120600890910201600701805460ff1916911515919091179055600101613ed2565b60007f0000000000000000000000000000000000000000000000000000000000000000613f4257506000610bbe565b6000613f8e7f00000000000000000000000000000000000000000000000000000000000000007f0000000000000000000000000000000000000000000000000000000000000000613687565b90506000613f9c82856137ea565b90506202a300811015613fb457600092505050610bbe565b6203f480811015613fca57606492505050610bbe565b62054600811015613fe05760c892505050610bbe565b62069780811015613ff75761012c92505050610bbe565b6207e90081101561400e5761019092505050610bbe565b6101f492505050610bbe565b60006301e133808161403766038882915c40006305f5e10061372a565b9050600061404d61138861110685818a8c61372a565b905060006140646113886111068a6002880a61372a565b9050600061407d600661110c6002808c0a908d0a61372a565b905060006140a0600261110c8861110660028f0a8e61372a90919063ffffffff16565b905060006140b9600361110c6002808f0a908b0a61372a565b905060006140d3826140cd86818b8b613687565b90613687565b90506140e383611a1983886137ea565b90506140f38b611106838f61372a565b905061410d64e8d4a5100061110c60038b0a81858f61372a565b9c9b505050505050505050505050565b508054600082556002029060005260206000209081019061292b91905b8082111561415f5780546001600160a01b03191681556000600182015560020161413a565b509056fe303334302054686520706f6f6c206973206f6e6c7920544f544d2072657761726465724f776e61626c653a206e6577206f776e657220697320746865207a65726f2061646472657373303336302043616e277420656e6420706f6f6c206265666f726520746865206d617475726974792074696d65303331322043616e2774207374616b652061626f76652073697a6520616c6c6f636174696f6e3033373020746f74656d732063616e206e6f74206265207472616e736665726564303330302063616c6c6572206973206e6f74206120706f6f6c2063726561746f72536166654d6174683a206d756c7469706c69636174696f6e206f766572666c6f773033383020746869732061646472657373206469646e2774207374616b6520696e207468697320706f6f6c3033313120416d6f756e742063616e2774206265206c657373207468616e20746865206d696e696d756d303336312057726170706564546f6b656e2052657761726473206e6f7420617661696c61626c65303335302043616e277420736574206d61747572696e67207072696365206265666f726520746865206d617475726974792074696d65a2646970667358221220f219269857c47c3bd976cc3c33097b4d3bad026611ee365ef2a7e4e6e75fece364736f6c6343000706003330333031206c61756e636820646174652063616e277420626520696e2070617374506f6f6c43726561746f72526f6c653a2063616c6c657220646f6573206e6f7420686176652074686520506f6f6c43726561746f7220726f6c65526f6c65733a206163636f756e7420646f6573206e6f74206861766520726f6c65526f6c65733a206163636f756e7420697320746865207a65726f2061646472657373a26469706673582212206b775668cca7020ff3175f135b112f6e54733b651af6f99a706f88e6a3437f5f64736f6c63430007060033526f6c65733a206163636f756e7420697320746865207a65726f2061646472657373",
  "devdoc": {
    "kind": "dev",
    "methods": {},
    "version": 1
  },
  "userdoc": {
    "kind": "user",
    "methods": {},
    "version": 1
  },
  "storageLayout": {
    "storage": [
      {
        "astId": 2058,
        "contract": "contracts/Staking/StakingPoolFactory.sol:StakingPoolFactory",
        "label": "_poolCreators",
        "offset": 0,
        "slot": "0",
        "type": "t_struct(Role)2275_storage"
      },
      {
        "astId": 4728,
        "contract": "contracts/Staking/StakingPoolFactory.sol:StakingPoolFactory",
        "label": "swapRouter",
        "offset": 0,
        "slot": "1",
        "type": "t_address"
      },
      {
        "astId": 4732,
        "contract": "contracts/Staking/StakingPoolFactory.sol:StakingPoolFactory",
        "label": "stakingPoolTaxRate",
        "offset": 0,
        "slot": "2",
        "type": "t_uint256"
      },
      {
        "astId": 4734,
        "contract": "contracts/Staking/StakingPoolFactory.sol:StakingPoolFactory",
        "label": "minimumStakeAmount",
        "offset": 0,
        "slot": "3",
        "type": "t_uint256"
      }
    ],
    "types": {
      "t_address": {
        "encoding": "inplace",
        "label": "address",
        "numberOfBytes": "20"
      },
      "t_bool": {
        "encoding": "inplace",
        "label": "bool",
        "numberOfBytes": "1"
      },
      "t_mapping(t_address,t_bool)": {
        "encoding": "mapping",
        "key": "t_address",
        "label": "mapping(address => bool)",
        "numberOfBytes": "32",
        "value": "t_bool"
      },
      "t_struct(Role)2275_storage": {
        "encoding": "inplace",
        "label": "struct Roles.Role",
        "members": [
          {
            "astId": 2274,
            "contract": "contracts/Staking/StakingPoolFactory.sol:StakingPoolFactory",
            "label": "bearer",
            "offset": 0,
            "slot": "0",
            "type": "t_mapping(t_address,t_bool)"
          }
        ],
        "numberOfBytes": "32"
      },
      "t_uint256": {
        "encoding": "inplace",
        "label": "uint256",
        "numberOfBytes": "32"
      }
    }
  }
}