{
    "contractName": "StakingPool",
    "sourceName": "contracts/Staking/StakingPool.sol",
    "abi": [
        {
            "inputs": [
                {
                    "internalType": "string",
                    "name": "_poolType",
                    "type": "string"
                },
                {
                    "internalType": "contract TotemToken",
                    "name": "_totemToken",
                    "type": "address"
                },
                {
                    "internalType": "contract RewardManager",
                    "name": "_rewardManager",
                    "type": "address"
                },
                {
                    "internalType": "address",
                    "name": "_poolCreator",
                    "type": "address"
                },
                {
                    "internalType": "address",
                    "name": "_swapRouter",
                    "type": "address"
                },
                {
                    "internalType": "address",
                    "name": "_oracleContract",
                    "type": "address"
                },
                {
                    "internalType": "address",
                    "name": "_usdToken",
                    "type": "address"
                },
                {
                    "internalType": "address",
                    "name": "_btcToken",
                    "type": "address"
                },
                {
                    "internalType": "uint256[10]",
                    "name": "_variables",
                    "type": "uint256[10]"
                },
                {
                    "internalType": "uint256[8]",
                    "name": "_ranks",
                    "type": "uint256[8]"
                },
                {
                    "internalType": "uint256[8]",
                    "name": "_percentages",
                    "type": "uint256[8]"
                },
                {
                    "internalType": "bool",
                    "name": "_isEnhancedEnabled",
                    "type": "bool"
                }
            ],
            "stateMutability": "nonpayable",
            "type": "constructor"
        },
        {
            "anonymous": false,
            "inputs": [
                {
                    "indexed": true,
                    "internalType": "address",
                    "name": "to",
                    "type": "address"
                },
                {
                    "indexed": false,
                    "internalType": "uint256",
                    "name": "amount",
                    "type": "uint256"
                }
            ],
            "name": "ApproveTokens",
            "type": "event"
        },
        {
            "anonymous": false,
            "inputs": [
                {
                    "indexed": true,
                    "internalType": "address",
                    "name": "to",
                    "type": "address"
                },
                {
                    "indexed": false,
                    "internalType": "uint256",
                    "name": "amount",
                    "type": "uint256"
                }
            ],
            "name": "DistributedBTC",
            "type": "event"
        },
        {
            "anonymous": false,
            "inputs": [
                {
                    "indexed": true,
                    "internalType": "address",
                    "name": "previousOwner",
                    "type": "address"
                },
                {
                    "indexed": true,
                    "internalType": "address",
                    "name": "newOwner",
                    "type": "address"
                }
            ],
            "name": "OwnershipTransferred",
            "type": "event"
        },
        {
            "anonymous": false,
            "inputs": [],
            "name": "PoolDeleted",
            "type": "event"
        },
        {
            "anonymous": false,
            "inputs": [],
            "name": "PoolLocked",
            "type": "event"
        },
        {
            "anonymous": false,
            "inputs": [],
            "name": "PoolMatured",
            "type": "event"
        },
        {
            "anonymous": false,
            "inputs": [],
            "name": "PoolSorted",
            "type": "event"
        },
        {
            "anonymous": false,
            "inputs": [
                {
                    "indexed": true,
                    "internalType": "address",
                    "name": "from",
                    "type": "address"
                },
                {
                    "indexed": false,
                    "internalType": "uint256",
                    "name": "amount",
                    "type": "uint256"
                }
            ],
            "name": "ReceivedTokens",
            "type": "event"
        },
        {
            "anonymous": false,
            "inputs": [
                {
                    "indexed": true,
                    "internalType": "address",
                    "name": "user",
                    "type": "address"
                },
                {
                    "indexed": false,
                    "internalType": "uint256",
                    "name": "amount",
                    "type": "uint256"
                },
                {
                    "indexed": false,
                    "internalType": "uint256",
                    "name": "pricePrediction",
                    "type": "uint256"
                }
            ],
            "name": "Stake",
            "type": "event"
        },
        {
            "anonymous": false,
            "inputs": [
                {
                    "indexed": true,
                    "internalType": "address",
                    "name": "to",
                    "type": "address"
                },
                {
                    "indexed": false,
                    "internalType": "uint256",
                    "name": "amount",
                    "type": "uint256"
                }
            ],
            "name": "TransferTokens",
            "type": "event"
        },
        {
            "anonymous": false,
            "inputs": [
                {
                    "indexed": true,
                    "internalType": "address",
                    "name": "user",
                    "type": "address"
                },
                {
                    "indexed": false,
                    "internalType": "uint256",
                    "name": "amount",
                    "type": "uint256"
                }
            ],
            "name": "Unstake",
            "type": "event"
        },
        {
            "anonymous": false,
            "inputs": [
                {
                    "indexed": true,
                    "internalType": "address",
                    "name": "user",
                    "type": "address"
                },
                {
                    "indexed": false,
                    "internalType": "uint256",
                    "name": "amount",
                    "type": "uint256"
                },
                {
                    "indexed": false,
                    "internalType": "uint256",
                    "name": "btcAmount",
                    "type": "uint256"
                }
            ],
            "name": "Withdraw",
            "type": "event"
        },
        {
            "inputs": [
                {
                    "internalType": "address",
                    "name": "staker",
                    "type": "address"
                },
                {
                    "internalType": "uint256",
                    "name": "stakeIndex",
                    "type": "uint256"
                }
            ],
            "name": "_getIndexedStakingReward",
            "outputs": [
                {
                    "internalType": "uint256",
                    "name": "",
                    "type": "uint256"
                }
            ],
            "stateMutability": "view",
            "type": "function"
        },
        {
            "inputs": [
                {
                    "internalType": "address",
                    "name": "staker",
                    "type": "address"
                }
            ],
            "name": "_getStakingReward",
            "outputs": [
                {
                    "internalType": "uint256",
                    "name": "",
                    "type": "uint256"
                }
            ],
            "stateMutability": "view",
            "type": "function"
        },
        {
            "inputs": [],
            "name": "btcToken",
            "outputs": [
                {
                    "internalType": "contract IERC20",
                    "name": "",
                    "type": "address"
                }
            ],
            "stateMutability": "view",
            "type": "function"
        },
        {
            "inputs": [],
            "name": "claimReward",
            "outputs": [],
            "stateMutability": "nonpayable",
            "type": "function"
        },
        {
            "inputs": [],
            "name": "collaborativeRange",
            "outputs": [
                {
                    "internalType": "uint256",
                    "name": "",
                    "type": "uint256"
                }
            ],
            "stateMutability": "view",
            "type": "function"
        },
        {
            "inputs": [],
            "name": "collaborativeReward",
            "outputs": [
                {
                    "internalType": "uint256",
                    "name": "",
                    "type": "uint256"
                }
            ],
            "stateMutability": "view",
            "type": "function"
        },
        {
            "inputs": [],
            "name": "declareEmergency",
            "outputs": [],
            "stateMutability": "nonpayable",
            "type": "function"
        },
        {
            "inputs": [],
            "name": "deletePool",
            "outputs": [],
            "stateMutability": "nonpayable",
            "type": "function"
        },
        {
            "inputs": [],
            "name": "emergentWithdraw",
            "outputs": [],
            "stateMutability": "nonpayable",
            "type": "function"
        },
        {
            "inputs": [],
            "name": "endPool",
            "outputs": [],
            "stateMutability": "nonpayable",
            "type": "function"
        },
        {
            "inputs": [],
            "name": "getAveragePricePrediction",
            "outputs": [
                {
                    "internalType": "uint256",
                    "name": "",
                    "type": "uint256"
                }
            ],
            "stateMutability": "view",
            "type": "function"
        },
        {
            "inputs": [],
            "name": "getBTCBalance",
            "outputs": [
                {
                    "internalType": "uint256",
                    "name": "",
                    "type": "uint256"
                }
            ],
            "stateMutability": "view",
            "type": "function"
        },
        {
            "inputs": [],
            "name": "getDecimals",
            "outputs": [
                {
                    "internalType": "uint8",
                    "name": "",
                    "type": "uint8"
                }
            ],
            "stateMutability": "view",
            "type": "function"
        },
        {
            "inputs": [
                {
                    "internalType": "uint256",
                    "name": "_amount",
                    "type": "uint256"
                }
            ],
            "name": "getEstimatedBTCForUSD",
            "outputs": [
                {
                    "internalType": "uint256",
                    "name": "",
                    "type": "uint256"
                }
            ],
            "stateMutability": "view",
            "type": "function"
        },
        {
            "inputs": [
                {
                    "internalType": "uint256",
                    "name": "stakeIndex",
                    "type": "uint256"
                }
            ],
            "name": "getIndexedPrizeReward",
            "outputs": [
                {
                    "internalType": "uint256",
                    "name": "",
                    "type": "uint256"
                },
                {
                    "internalType": "uint256",
                    "name": "",
                    "type": "uint256"
                }
            ],
            "stateMutability": "view",
            "type": "function"
        },
        {
            "inputs": [
                {
                    "internalType": "uint256",
                    "name": "stakeIndex",
                    "type": "uint256"
                }
            ],
            "name": "getIndexedReward",
            "outputs": [
                {
                    "internalType": "uint256",
                    "name": "",
                    "type": "uint256"
                },
                {
                    "internalType": "uint256",
                    "name": "",
                    "type": "uint256"
                }
            ],
            "stateMutability": "view",
            "type": "function"
        },
        {
            "inputs": [
                {
                    "internalType": "uint256",
                    "name": "stakeIndex",
                    "type": "uint256"
                }
            ],
            "name": "getIndexedStakedBalance",
            "outputs": [
                {
                    "internalType": "uint256",
                    "name": "",
                    "type": "uint256"
                }
            ],
            "stateMutability": "view",
            "type": "function"
        },
        {
            "inputs": [
                {
                    "internalType": "uint256",
                    "name": "stakeIndex",
                    "type": "uint256"
                }
            ],
            "name": "getIndexedStakingReward",
            "outputs": [
                {
                    "internalType": "uint256",
                    "name": "",
                    "type": "uint256"
                }
            ],
            "stateMutability": "view",
            "type": "function"
        },
        {
            "inputs": [],
            "name": "getLatestPrice",
            "outputs": [
                {
                    "internalType": "uint256",
                    "name": "",
                    "type": "uint256"
                }
            ],
            "stateMutability": "view",
            "type": "function"
        },
        {
            "inputs": [],
            "name": "getPathForUSDToBTC",
            "outputs": [
                {
                    "internalType": "address[]",
                    "name": "",
                    "type": "address[]"
                }
            ],
            "stateMutability": "view",
            "type": "function"
        },
        {
            "inputs": [],
            "name": "getPrizeReward",
            "outputs": [
                {
                    "internalType": "uint256",
                    "name": "",
                    "type": "uint256"
                },
                {
                    "internalType": "uint256",
                    "name": "",
                    "type": "uint256"
                }
            ],
            "stateMutability": "view",
            "type": "function"
        },
        {
            "inputs": [],
            "name": "getStakers",
            "outputs": [
                {
                    "internalType": "address[]",
                    "name": "",
                    "type": "address[]"
                },
                {
                    "internalType": "uint256[]",
                    "name": "",
                    "type": "uint256[]"
                }
            ],
            "stateMutability": "view",
            "type": "function"
        },
        {
            "inputs": [],
            "name": "getStakingReward",
            "outputs": [
                {
                    "internalType": "uint256",
                    "name": "",
                    "type": "uint256"
                }
            ],
            "stateMutability": "view",
            "type": "function"
        },
        {
            "inputs": [],
            "name": "getTotalReward",
            "outputs": [
                {
                    "internalType": "uint256",
                    "name": "",
                    "type": "uint256"
                },
                {
                    "internalType": "uint256",
                    "name": "",
                    "type": "uint256"
                }
            ],
            "stateMutability": "view",
            "type": "function"
        },
        {
            "inputs": [],
            "name": "getTotalStakedBalance",
            "outputs": [
                {
                    "internalType": "uint256",
                    "name": "",
                    "type": "uint256"
                }
            ],
            "stateMutability": "view",
            "type": "function"
        },
        {
            "inputs": [],
            "name": "getUSDBalance",
            "outputs": [
                {
                    "internalType": "uint256",
                    "name": "",
                    "type": "uint256"
                }
            ],
            "stateMutability": "view",
            "type": "function"
        },
        {
            "inputs": [],
            "name": "getUSDToken",
            "outputs": [
                {
                    "internalType": "address",
                    "name": "",
                    "type": "address"
                }
            ],
            "stateMutability": "view",
            "type": "function"
        },
        {
            "inputs": [],
            "name": "getswapRouter",
            "outputs": [
                {
                    "internalType": "address",
                    "name": "",
                    "type": "address"
                }
            ],
            "stateMutability": "view",
            "type": "function"
        },
        {
            "inputs": [
                {
                    "internalType": "address",
                    "name": "staker",
                    "type": "address"
                },
                {
                    "internalType": "uint256",
                    "name": "stakeIndex",
                    "type": "uint256"
                }
            ],
            "name": "hasUnStaked",
            "outputs": [
                {
                    "internalType": "bool",
                    "name": "",
                    "type": "bool"
                }
            ],
            "stateMutability": "view",
            "type": "function"
        },
        {
            "inputs": [
                {
                    "internalType": "uint256",
                    "name": "stakeIndex",
                    "type": "uint256"
                }
            ],
            "name": "indexedClaimReward",
            "outputs": [],
            "stateMutability": "nonpayable",
            "type": "function"
        },
        {
            "inputs": [],
            "name": "isAnEmergency",
            "outputs": [
                {
                    "internalType": "bool",
                    "name": "",
                    "type": "bool"
                }
            ],
            "stateMutability": "view",
            "type": "function"
        },
        {
            "inputs": [],
            "name": "isDeleted",
            "outputs": [
                {
                    "internalType": "bool",
                    "name": "",
                    "type": "bool"
                }
            ],
            "stateMutability": "view",
            "type": "function"
        },
        {
            "inputs": [],
            "name": "isEnhancedEnabled",
            "outputs": [
                {
                    "internalType": "bool",
                    "name": "",
                    "type": "bool"
                }
            ],
            "stateMutability": "view",
            "type": "function"
        },
        {
            "inputs": [],
            "name": "isLocked",
            "outputs": [
                {
                    "internalType": "bool",
                    "name": "",
                    "type": "bool"
                }
            ],
            "stateMutability": "view",
            "type": "function"
        },
        {
            "inputs": [],
            "name": "isMatured",
            "outputs": [
                {
                    "internalType": "bool",
                    "name": "",
                    "type": "bool"
                }
            ],
            "stateMutability": "view",
            "type": "function"
        },
        {
            "inputs": [],
            "name": "lockPool",
            "outputs": [],
            "stateMutability": "nonpayable",
            "type": "function"
        },
        {
            "inputs": [],
            "name": "lockTime",
            "outputs": [
                {
                    "internalType": "uint256",
                    "name": "",
                    "type": "uint256"
                }
            ],
            "stateMutability": "view",
            "type": "function"
        },
        {
            "inputs": [],
            "name": "maturingPrice",
            "outputs": [
                {
                    "internalType": "uint256",
                    "name": "",
                    "type": "uint256"
                }
            ],
            "stateMutability": "view",
            "type": "function"
        },
        {
            "inputs": [],
            "name": "maturityTime",
            "outputs": [
                {
                    "internalType": "uint256",
                    "name": "",
                    "type": "uint256"
                }
            ],
            "stateMutability": "view",
            "type": "function"
        },
        {
            "inputs": [],
            "name": "minimumStakeAmount",
            "outputs": [
                {
                    "internalType": "uint256",
                    "name": "",
                    "type": "uint256"
                }
            ],
            "stateMutability": "view",
            "type": "function"
        },
        {
            "inputs": [],
            "name": "oracleDecimal",
            "outputs": [
                {
                    "internalType": "uint256",
                    "name": "",
                    "type": "uint256"
                }
            ],
            "stateMutability": "view",
            "type": "function"
        },
        {
            "inputs": [],
            "name": "owner",
            "outputs": [
                {
                    "internalType": "address",
                    "name": "",
                    "type": "address"
                }
            ],
            "stateMutability": "view",
            "type": "function"
        },
        {
            "inputs": [],
            "name": "poolCreator",
            "outputs": [
                {
                    "internalType": "address",
                    "name": "",
                    "type": "address"
                }
            ],
            "stateMutability": "view",
            "type": "function"
        },
        {
            "inputs": [],
            "name": "poolType",
            "outputs": [
                {
                    "internalType": "string",
                    "name": "",
                    "type": "string"
                }
            ],
            "stateMutability": "view",
            "type": "function"
        },
        {
            "inputs": [],
            "name": "potentialCollabReward",
            "outputs": [
                {
                    "internalType": "uint256",
                    "name": "",
                    "type": "uint256"
                }
            ],
            "stateMutability": "view",
            "type": "function"
        },
        {
            "inputs": [
                {
                    "internalType": "address",
                    "name": "",
                    "type": "address"
                },
                {
                    "internalType": "uint256",
                    "name": "",
                    "type": "uint256"
                }
            ],
            "name": "predictions",
            "outputs": [
                {
                    "internalType": "uint256",
                    "name": "stakedBalance",
                    "type": "uint256"
                },
                {
                    "internalType": "uint256",
                    "name": "stakedTime",
                    "type": "uint256"
                },
                {
                    "internalType": "uint256",
                    "name": "amountWithdrawn",
                    "type": "uint256"
                },
                {
                    "internalType": "uint256",
                    "name": "lastWithdrawalTime",
                    "type": "uint256"
                },
                {
                    "internalType": "uint256",
                    "name": "pricePrediction",
                    "type": "uint256"
                },
                {
                    "internalType": "uint256",
                    "name": "difference",
                    "type": "uint256"
                },
                {
                    "internalType": "uint256",
                    "name": "rank",
                    "type": "uint256"
                },
                {
                    "internalType": "bool",
                    "name": "prizeRewardWithdrawn",
                    "type": "bool"
                },
                {
                    "internalType": "bool",
                    "name": "didUnstake",
                    "type": "bool"
                }
            ],
            "stateMutability": "view",
            "type": "function"
        },
        {
            "inputs": [],
            "name": "prizeAmount",
            "outputs": [
                {
                    "internalType": "uint256",
                    "name": "",
                    "type": "uint256"
                }
            ],
            "stateMutability": "view",
            "type": "function"
        },
        {
            "inputs": [
                {
                    "internalType": "uint256",
                    "name": "",
                    "type": "uint256"
                }
            ],
            "name": "prizeRewardRates",
            "outputs": [
                {
                    "internalType": "uint256",
                    "name": "rank",
                    "type": "uint256"
                },
                {
                    "internalType": "uint256",
                    "name": "percentage",
                    "type": "uint256"
                }
            ],
            "stateMutability": "view",
            "type": "function"
        },
        {
            "inputs": [
                {
                    "internalType": "uint256",
                    "name": "usdAmount",
                    "type": "uint256"
                },
                {
                    "internalType": "uint256",
                    "name": "deadline",
                    "type": "uint256"
                }
            ],
            "name": "purchaseBTC",
            "outputs": [],
            "stateMutability": "nonpayable",
            "type": "function"
        },
        {
            "inputs": [],
            "name": "renounceOwnership",
            "outputs": [],
            "stateMutability": "nonpayable",
            "type": "function"
        },
        {
            "inputs": [],
            "name": "rewardManager",
            "outputs": [
                {
                    "internalType": "contract RewardManager",
                    "name": "",
                    "type": "address"
                }
            ],
            "stateMutability": "view",
            "type": "function"
        },
        {
            "inputs": [
                {
                    "internalType": "address[25]",
                    "name": "addrArray",
                    "type": "address[25]"
                },
                {
                    "internalType": "uint256[25]",
                    "name": "indexArray",
                    "type": "uint256[25]"
                }
            ],
            "name": "setSortedStakers",
            "outputs": [],
            "stateMutability": "nonpayable",
            "type": "function"
        },
        {
            "inputs": [],
            "name": "sizeAllocation",
            "outputs": [
                {
                    "internalType": "uint256",
                    "name": "",
                    "type": "uint256"
                }
            ],
            "stateMutability": "view",
            "type": "function"
        },
        {
            "inputs": [],
            "name": "sizeLimitRangeRate",
            "outputs": [
                {
                    "internalType": "uint256",
                    "name": "",
                    "type": "uint256"
                }
            ],
            "stateMutability": "view",
            "type": "function"
        },
        {
            "inputs": [
                {
                    "internalType": "uint256",
                    "name": "",
                    "type": "uint256"
                }
            ],
            "name": "sortedStakers",
            "outputs": [
                {
                    "internalType": "address",
                    "name": "stakerAddress",
                    "type": "address"
                },
                {
                    "internalType": "uint256",
                    "name": "index",
                    "type": "uint256"
                }
            ],
            "stateMutability": "view",
            "type": "function"
        },
        {
            "inputs": [
                {
                    "internalType": "uint256",
                    "name": "_amount",
                    "type": "uint256"
                },
                {
                    "internalType": "uint256",
                    "name": "_pricePrediction",
                    "type": "uint256"
                }
            ],
            "name": "stake",
            "outputs": [],
            "stateMutability": "nonpayable",
            "type": "function"
        },
        {
            "inputs": [],
            "name": "stakeApr",
            "outputs": [
                {
                    "internalType": "uint256",
                    "name": "",
                    "type": "uint256"
                }
            ],
            "stateMutability": "view",
            "type": "function"
        },
        {
            "inputs": [],
            "name": "stakeTaxRate",
            "outputs": [
                {
                    "internalType": "uint256",
                    "name": "",
                    "type": "uint256"
                }
            ],
            "stateMutability": "view",
            "type": "function"
        },
        {
            "inputs": [
                {
                    "internalType": "uint256",
                    "name": "",
                    "type": "uint256"
                }
            ],
            "name": "stakers",
            "outputs": [
                {
                    "internalType": "address",
                    "name": "stakerAddress",
                    "type": "address"
                },
                {
                    "internalType": "uint256",
                    "name": "index",
                    "type": "uint256"
                }
            ],
            "stateMutability": "view",
            "type": "function"
        },
        {
            "inputs": [],
            "name": "startDate",
            "outputs": [
                {
                    "internalType": "uint256",
                    "name": "",
                    "type": "uint256"
                }
            ],
            "stateMutability": "view",
            "type": "function"
        },
        {
            "inputs": [],
            "name": "totalStaked",
            "outputs": [
                {
                    "internalType": "uint256",
                    "name": "",
                    "type": "uint256"
                }
            ],
            "stateMutability": "view",
            "type": "function"
        },
        {
            "inputs": [],
            "name": "totemToken",
            "outputs": [
                {
                    "internalType": "contract TotemToken",
                    "name": "",
                    "type": "address"
                }
            ],
            "stateMutability": "view",
            "type": "function"
        },
        {
            "inputs": [
                {
                    "internalType": "address",
                    "name": "newOwner",
                    "type": "address"
                }
            ],
            "name": "transferOwnership",
            "outputs": [],
            "stateMutability": "nonpayable",
            "type": "function"
        },
        {
            "inputs": [],
            "name": "updateMaturingPrice",
            "outputs": [],
            "stateMutability": "nonpayable",
            "type": "function"
        },
        {
            "inputs": [],
            "name": "usdPrizeAmount",
            "outputs": [
                {
                    "internalType": "uint256",
                    "name": "",
                    "type": "uint256"
                }
            ],
            "stateMutability": "view",
            "type": "function"
        },
        {
            "inputs": [
                {
                    "internalType": "address",
                    "name": "_stuckToken",
                    "type": "address"
                },
                {
                    "internalType": "uint256",
                    "name": "amount",
                    "type": "uint256"
                },
                {
                    "internalType": "address",
                    "name": "receiver",
                    "type": "address"
                }
            ],
            "name": "withdrawStuckTokens",
            "outputs": [],
            "stateMutability": "nonpayable",
            "type": "function"
        }
    ],
    "bytecode": "0x6102606040523480156200001257600080fd5b50604051620051043803806200510483398181016040526104608110156200003957600080fd5b81019080805160405193929190846401000000008211156200005a57600080fd5b9083019060208201858111156200007057600080fd5b82516401000000008111828201881017156200008b57600080fd5b82525081516020918201929091019080838360005b83811015620000ba578181015183820152602001620000a0565b50505050905090810190601f168015620000e85780820380516001836020036101000a031916815260200191505b5060409081526020820151908201516060830151608084015160a085015160c086015160e08701516104408801519699509497509295919490939161010081019161024082019161034001908786868960006200014462000375565b600080546001600160a01b0319166001600160a01b0383169081178255604051929350917f8be0079c531659141344cd1fd0a4f28419497f9722a3daafe3b4186f6b6457e0908290a3506001600160a01b038116620001a257600080fd5b600180546001600160a01b03199081166001600160a01b039384161790915560038054821695831695909517909455600480548516938216939093179092556005805490931691161790558b51620002029060069060208f01906200039b565b506001600160601b031960608c811b82166080528b901b1660a052600d80546001600160a01b038b166001600160a01b0319909116179055620002458662000379565b606085811b6001600160601b03191660c09081524260e0908152865161012090815260208801516101009081526040890151670de0b6b3a7640000908102610140529489015161016052608089015185026101805260a089015185026101a05292880151610200529087015161022052908601516101c052850151026101e05280151560f81b6102405260005b60088110156200036257828160088110620002e957fe5b6020020151620002f95762000362565b600e60405180604001604052808684600881106200031357fe5b602002015181526020018584600881106200032a57fe5b6020908102919091015190915282546001818101855560009485529382902083516002909202019081559101519082015501620002d2565b5050505050505050505050505062000447565b3390565b600280546001600160a01b0319166001600160a01b0392909216919091179055565b828054600181600116156101000203166002900490600052602060002090601f016020900481019282620003d357600085556200041e565b82601f10620003ee57805160ff19168380011785556200041e565b828001600101855582156200041e579182015b828111156200041e57825182559160200191906001019062000401565b506200042c92915062000430565b5090565b5b808211156200042c576000815560010162000431565b60805160601c60a05160601c60c05160601c60e05161010051610120516101405161016051610180516101a0516101c0516101e05161020051610220516102405160f81c614b1d620005e76000398061154552806146c1525080610e4f5280613360525080610e195280610e7952806133185250806119445280611bd7525080611920528061398052806139b0525080610d455280611a26528061233f52806129dc5280612e935280613f7052806145f8525080611b5e5280613ff25280614641525080612826528061378752508061158d5280611c405280611db652806121bf525080610ca252806115695280611870528061373a525080610be85280610cc3528061189152806137185280614714525080610bc45280610ce452806118b252806136f752806146f3525080610a1f5280610faa5280612a085280612ebf525080610c0c528061289352806129225280612d4b5280612dda5250806117215280611c725280611d035280611e515280611f145280611f4352806124fd52806128645280612b185280612d1c5280612fc8528061333c5250614b1d6000f3fe608060405234801561001057600080fd5b50600436106103e65760003560e01c80638bfbbcbe1161020a578063c6c1decd11610125578063eda2d424116100b8578063f2fde38b11610087578063f2fde38b146109c2578063f3d9dc0d146109e8578063f5e96fc9146109f0578063fd5e6dd1146109f8578063fd8fd47f14610a15576103e6565b8063eda2d42414610962578063eee394031461096a578063f0141d8414610987578063f1b17a8b146109a5576103e6565b8063de09ee20116100f4578063de09ee201461090a578063e425df8c1461094a578063e8153c9314610952578063eb850ae11461095a576103e6565b8063c6c1decd146108d5578063d025188b146108dd578063d7efb6b7146108e5578063d83db49f146108ed576103e6565b8063a4e2d6341161019d578063b1dd61b61161016c578063b1dd61b614610840578063b88a802f146108bd578063bf852196146108c5578063c1201054146108cd576103e6565b8063a4e2d634146107bb578063a508bc71146107c3578063aa7bcb571461081b578063b1b1e1c014610823576103e6565b806395c2ba47116101d957806395c2ba47146107865780639d9a62df1461078e578063a08b2c79146107ab578063a150194b146107b3576103e6565b80638bfbbcbe146107665780638da5cb5b1461076e5780638e15f473146107765780639234a39a1461077e576103e6565b806351eacbf011610305578063765e14d8116102985780637f2b6a0d116102675780637f2b6a0d146106b4578063817b1cd2146106bc578063850fa7cb146106c4578063857b21ee1461073b5780638a9920b71461075e576103e6565b8063765e14d81461063c578063785fa627146106685780637b0472f0146106705780637d1fcbfa14610693576103e6565b80636847d0c5116102d45780636847d0c51461061c5780636b036f4514610624578063715018a61461062c57806373f3170314610634576103e6565b806351eacbf0146105b05780635b9f4f90146105b85780635d2631e2146105de5780635e2e2ffc14610614576103e6565b806331769ef71161037d578063444a49021161034c578063444a49021461053e57806345e91319146105605780634bc4eeb2146105a05780634e8bfdaa146105a8576103e6565b806331769ef71461048557806331e244e51461048d5780634026478e1461049557806343352d611461049d576103e6565b80630f4ef8a6116103b95780630f4ef8a61461044e5780631898a1a7146104565780632d42cf7d146104735780632e577d071461047d576103e6565b8063074bc101146103eb57806309082c291461040f5780630b97bc861461043e5780630d66808714610446575b600080fd5b6103f3610a1d565b604080516001600160a01b039092168252519081900360200190f35b61042c6004803603602081101561042557600080fd5b5035610a41565b60408051918252519081900360200190f35b61042c610bc2565b61042c610be6565b6103f3610c0a565b61042c6004803603602081101561046c57600080fd5b5035610c2e565b61047b610c47565b005b6103f3610f96565b61042c610fa6565b61047b611046565b61047b6110b4565b6104a5611117565b604051808060200180602001838103835285818151815260200191508051906020019060200280838360005b838110156104e95781810151838201526020016104d1565b50505050905001838103825284818151815260200191508051906020019060200280838360005b83811015610528578181015183820152602001610510565b5050505090500194505050505060405180910390f35b61047b600480360361064081101561055557600080fd5b50610320810161125c565b61058c6004803603604081101561057657600080fd5b506001600160a01b0381351690602001356113b1565b604080519115158252519081900360200190f35b61058c611543565b61042c611567565b61042c61158b565b61042c600480360360208110156105ce57600080fd5b50356001600160a01b03166115af565b61047b600480360360608110156105f457600080fd5b506001600160a01b038135811691602081013591604090910135166116c6565b61047b611815565b61042c61191e565b61042c611942565b61047b611966565b61042c611a24565b61042c6004803603604081101561065257600080fd5b506001600160a01b038135169060200135611a48565b61042c611b5c565b61047b6004803603604081101561068657600080fd5b5080359060200135611b80565b61069b612243565b6040805192835260208301919091528051918290030190f35b61058c61225e565b61042c61226e565b6106f0600480360360408110156106da57600080fd5b506001600160a01b038135169060200135612274565b60408051998a5260208a0198909852888801969096526060880194909452608087019290925260a086015260c0850152151560e0840152151561010083015251908190036101200190f35b61047b6004803603604081101561075157600080fd5b50803590602001356122e2565b61047b61248b565b61047b612602565b6103f3612699565b61042c6126a8565b61069b612742565b61042c612755565b61069b600480360360208110156107a457600080fd5b503561275a565b61058c612778565b61042c612788565b61058c61278d565b6107cb61279d565b60408051602080825283518183015283519192839290830191858101910280838360005b838110156108075781810151838201526020016107ef565b505050509050019250505060405180910390f35b61042c612824565b61047b6004803603602081101561083957600080fd5b5035612848565b610848612c72565b6040805160208082528351818301528351919283929083019185019080838360005b8381101561088257818101518382015260200161086a565b50505050905090810190601f1680156108af5780820380516001836020036101000a031916815260200191505b509250505060405180910390f35b61047b612d00565b61042c61311b565b61042c61325b565b6103f36132a6565b61042c6132b5565b61058c6132bb565b61042c6004803603602081101561090357600080fd5b50356132cb565b6109276004803603602081101561092057600080fd5b50356132de565b604080516001600160a01b03909316835260208301919091528051918290030190f35b61042c613316565b6103f361333a565b61042c61335e565b61042c613382565b61069b6004803603602081101561098057600080fd5b5035613399565b61098f6133ad565b6040805160ff9092168252519081900360200190f35b61069b600480360360208110156109bb57600080fd5b5035613430565b61047b600480360360208110156109d857600080fd5b50356001600160a01b031661345e565b61042c613572565b6103f3613578565b61092760048036036020811015610a0e57600080fd5b5035613587565b61042c613597565b7f000000000000000000000000000000000000000000000000000000000000000081565b60035460009081906001600160a01b031663d06ca61f84610a6061279d565b6040518363ffffffff1660e01b81526004018083815260200180602001828103825283818151815260200191508051906020019060200280838360005b83811015610ab5578181015183820152602001610a9d565b50505050905001935050505060006040518083038186803b158015610ad957600080fd5b505afa158015610aed573d6000803e3d6000fd5b505050506040513d6000823e601f3d908101601f191682016040526020811015610b1657600080fd5b8101908080516040519392919084640100000000821115610b3657600080fd5b908301906020820185811115610b4b57600080fd5b8251866020820283011164010000000082111715610b6857600080fd5b82525081516020918201928201910280838360005b83811015610b95578181015183820152602001610b7d565b50505050905001604052505050905080600181518110610bb157fe5b60200260200101519150505b919050565b7f000000000000000000000000000000000000000000000000000000000000000081565b7f000000000000000000000000000000000000000000000000000000000000000081565b7f000000000000000000000000000000000000000000000000000000000000000081565b6000610c41610c3b6135a0565b83611a48565b92915050565b600d546001600160a01b0316610c5b6135a0565b6001600160a01b031614610ca05760405162461bcd60e51b81526004018080602001828103825260218152602001806149fa6021913960400191505060405180910390fd5b7f00000000000000000000000000000000000000000000000000000000000000007f00000000000000000000000000000000000000000000000000000000000000007f00000000000000000000000000000000000000000000000000000000000000000101421015610d435760405162461bcd60e51b815260040180806020018281038252602c815260200180614987602c913960400191505060405180910390fd5b7f000000000000000000000000000000000000000000000000000000000000000015610dc257610d71610fa6565b610dc2576040805162461bcd60e51b815260206004820152601e60248201527f30333631204254432052657761726473206e6f7420617661696c61626c650000604482015290519081900360640190fd5b60085415610e1757600954610e17576040805162461bcd60e51b81526020600482015260166024820152750c0ccd8c88199a5c9cdd081cda1bdd5b19081cdbdc9d60521b604482015290519081900360640190fd5b7f000000000000000000000000000000000000000000000000000000000000000015610e9e576000610e4761311b565b9050610e73817f00000000000000000000000000000000000000000000000000000000000000006135a4565b610e9c577f0000000000000000000000000000000000000000000000000000000000000000600c555b505b600954600090601910610eb357600954610eb6565b60195b905060005b81811015610f4757806001016007600060098481548110610ed857fe5b600091825260208083206002909202909101546001600160a01b0316835282019290925260400190206009805484908110610f0f57fe5b90600052602060002090600202016001015481548110610f2b57fe5b6000918252602090912060066008909202010155600101610ebb565b50600d805460ff60b01b1960ff60a81b19909116600160a81b1716600160b01b1790556040517fe8ef7a17c92d025d9c1ead1c6b3ca3b44d3283d0ee954f615c5c476911f629a590600090a150565b6003546001600160a01b03165b90565b60007f00000000000000000000000000000000000000000000000000000000000000006001600160a01b03166370a08231306040518263ffffffff1660e01b815260040180826001600160a01b0316815260200191505060206040518083038186803b15801561101557600080fd5b505afa158015611029573d6000803e3d6000fd5b505050506040513d602081101561103f57600080fd5b5051905090565b600d546001600160a01b031661105a6135a0565b6001600160a01b03161461109f5760405162461bcd60e51b81526004018080602001828103825260218152602001806149fa6021913960400191505060405180910390fd5b600d805460ff60a01b1916600160a01b179055565b600d546001600160a01b03166110c86135a0565b6001600160a01b03161461110d5760405162461bcd60e51b81526004018080602001828103825260218152602001806149fa6021913960400191505060405180910390fd5b611115613612565b565b606080600060088054905067ffffffffffffffff8111801561113857600080fd5b50604051908082528060200260200182016040528015611162578160200160208202803683370190505b5060085490915060009067ffffffffffffffff8111801561118257600080fd5b506040519080825280602002602001820160405280156111ac578160200160208202803683370190505b50905060005b60085481101561125257600881815481106111c957fe5b600091825260209091206002909102015483516001600160a01b03909116908490839081106111f457fe5b60200260200101906001600160a01b031690816001600160a01b0316815250506008818154811061122157fe5b90600052602060002090600202016001015482828151811061123f57fe5b60209081029190910101526001016111b2565b5090925090509091565b600d546001600160a01b03166112706135a0565b6001600160a01b0316146112b55760405162461bcd60e51b81526004018080602001828103825260218152602001806149fa6021913960400191505060405180910390fd5b60005b60198110156113835760008382601981106112cf57fe5b60200201356001600160a01b03166001600160a01b031614156112f157611383565b6009604051806040016040528085846019811061130a57fe5b60200201356001600160a01b03166001600160a01b0316815260200184846019811061133257fe5b60209081029190910135909152825460018082018555600094855293829020835160029092020180546001600160a01b0319166001600160a01b0390921691909117815591015190820155016112b8565b506040517f5c243cc6e4f210bf2dd86b8eca0ca891d3f8ad2eb09fbf91735eb348bc199c7e90600090a15050565b6001600160a01b038216600090815260076020908152604080832080548251818502810185019093528083528493849084015b8282101561147657600084815260209081902060408051610120810182526008860290920180548352600180820154848601526002820154928401929092526003810154606084015260048101546080840152600581015460a0840152600681015460c08401526007015460ff808216151560e0850152610100918290041615159083015290835290920191016113e4565b50505050905060008151116114bc5760405162461bcd60e51b815260040180806020018281038252602b815260200180614a5d602b913960400191505060405180910390fd5b80518310611511576040805162461bcd60e51b815260206004820152601760248201527f30333831207468697320696e6465782065786365656473000000000000000000604482015290519081900360640190fd5b80838151811061151d57fe5b6020026020010151610100015115611539576001915050610c41565b5060009392505050565b7f000000000000000000000000000000000000000000000000000000000000000081565b7f000000000000000000000000000000000000000000000000000000000000000081565b7f000000000000000000000000000000000000000000000000000000000000000081565b6001600160a01b038116600090815260076020908152604080832080548251818502810185019093528083528493849084015b8282101561167457600084815260209081902060408051610120810182526008860290920180548352600180820154848601526002820154928401929092526003810154606084015260048101546080840152600581015460a0840152600681015460c08401526007015460ff808216151560e0850152610100918290041615159083015290835290920191016115e2565b50505050905080516000141561168e576000915050610bbd565b6000805b82518110156116be5760006116a78683613650565b90506116b383826137e8565b925050600101611692565b509392505050565b600d546001600160a01b03166116da6135a0565b6001600160a01b03161461171f5760405162461bcd60e51b81526004018080602001828103825260218152602001806149fa6021913960400191505060405180910390fd5b7f00000000000000000000000000000000000000000000000000000000000000006001600160a01b0316836001600160a01b031614156117905760405162461bcd60e51b81526004018080602001828103825260218152602001806149d96021913960400191505060405180910390fd5b6040805163a9059cbb60e01b81526001600160a01b038381166004830152602482018590529151859283169163a9059cbb9160448083019260209291908290030181600087803b1580156117e357600080fd5b505af11580156117f7573d6000803e3d6000fd5b505050506040513d602081101561180d57600080fd5b505050505050565b600d546001600160a01b03166118296135a0565b6001600160a01b03161461186e5760405162461bcd60e51b81526004018080602001828103825260218152602001806149fa6021913960400191505060405180910390fd5b7f00000000000000000000000000000000000000000000000000000000000000007f00000000000000000000000000000000000000000000000000000000000000007f000000000000000000000000000000000000000000000000000000000000000001014210156119115760405162461bcd60e51b8152600401808060200182810382526036815260200180614ab26036913960400191505060405180910390fd5b6119196126a8565b600b55565b7f000000000000000000000000000000000000000000000000000000000000000081565b7f000000000000000000000000000000000000000000000000000000000000000081565b61196e6135a0565b6001600160a01b031661197f612699565b6001600160a01b0316146119da576040805162461bcd60e51b815260206004820181905260248201527f4f776e61626c653a2063616c6c6572206973206e6f7420746865206f776e6572604482015290519081900360640190fd5b600080546040516001600160a01b03909116907f8be0079c531659141344cd1fd0a4f28419497f9722a3daafe3b4186f6b6457e0908390a3600080546001600160a01b0319169055565b7f000000000000000000000000000000000000000000000000000000000000000081565b6001600160a01b038216600090815260076020908152604080832080548251818502810185019093528083528493849084015b82821015611b0d57600084815260209081902060408051610120810182526008860290920180548352600180820154848601526002820154928401929092526003810154606084015260048101546080840152600581015460a0840152600681015460c08401526007015460ff808216151560e085015261010091829004161515908301529083529092019101611a7b565b505050509050805160001415611b27576000915050610c41565b80518310611b39576000915050610c41565b600080611b468686613650565b9050611b5282826137e8565b9695505050505050565b7f000000000000000000000000000000000000000000000000000000000000000081565b600d54600160a81b900460ff1615611bd5576040805162461bcd60e51b81526020600482015260136024820152720c0ccc4c08141bdbdb081a5cc81b1bd8dad959606a1b604482015290519081900360640190fd5b7f0000000000000000000000000000000000000000000000000000000000000000821015611c345760405162461bcd60e51b815260040180806020018281038252602a815260200180614a88602a913960400191505060405180910390fd5b6000611c6c6064611c667f00000000000000000000000000000000000000000000000000000000000000006005613849565b906138a2565b905060007f00000000000000000000000000000000000000000000000000000000000000006001600160a01b031663771a3a1d6040518163ffffffff1660e01b815260040160206040518083038186803b158015611cc957600080fd5b505afa158015611cdd573d6000803e3d6000fd5b505050506040513d6020811015611cf357600080fd5b5051905060006001600160a01b037f00000000000000000000000000000000000000000000000000000000000000001663d1ecfc68611d306135a0565b6040518263ffffffff1660e01b815260040180826001600160a01b0316815260200191505060206040518083038186803b158015611d6d57600080fd5b505afa158015611d81573d6000803e3d6000fd5b505050506040513d6020811015611d9757600080fd5b5051611dac57611da78583613909565b611daf565b60005b9050611ddb7f0000000000000000000000000000000000000000000000000000000000000000846137e8565b611dfa82611df488600a546137e890919063ffffffff16565b9061391b565b1115611e375760405162461bcd60e51b81526004018080602001828103825260268152602001806149b36026913960400191505060405180910390fd5b6000611e438684613978565b965090506001600160a01b037f0000000000000000000000000000000000000000000000000000000000000000166323b872dd611e7e6135a0565b604080516001600160e01b031960e085901b1681526001600160a01b03909216600483015230602483015289850160448301525160648083019260209291908290030181600087803b158015611ed357600080fd5b505af1158015611ee7573d6000803e3d6000fd5b505050506040513d6020811015611efd57600080fd5b50611f0a9050868361391b565b95508015612041577f00000000000000000000000000000000000000000000000000000000000000006001600160a01b031663a9059cbb7f00000000000000000000000000000000000000000000000000000000000000006001600160a01b0316634a5db0a96040518163ffffffff1660e01b815260040160206040518083038186803b158015611f9a57600080fd5b505afa158015611fae573d6000803e3d6000fd5b505050506040513d6020811015611fc457600080fd5b5051604080516001600160e01b031960e085901b1681526001600160a01b039092166004830152602482018590525160448083019260209291908290030181600087803b15801561201457600080fd5b505af1158015612028573d6000803e3d6000fd5b505050506040513d602081101561203e57600080fd5b50505b600a5461204e90876137e8565b600a81905550600860405180604001604052806120696135a0565b6001600160a01b03168152602001600760006120836135a0565b6001600160a01b0390811682526020808301939093526040909101600090812054909352845460018082018755958452828420855160029092020180546001600160a01b0319169190921617815592015191909201556007906120e46135a0565b6001600160a01b03168152602080820192909252604090810160009081208251610120810184528a81524281860181815294820184815260608301918252608083018c815260001960a0850181815260c0860191825260e086018881526101008088018a8152895460018082018c559a8c529c909a2097516008909c029097019a8b559851968a01969096559151600289015591516003880155905160048701559151600586015590516006850155915160079093018054915160ff19929092169315159390931761ff001916901515909102179055600a547f0000000000000000000000000000000000000000000000000000000000000000116121eb576121eb613612565b6121f36135a0565b6001600160a01b03167f5af417134f72a9d41143ace85b0a26dce6f550f894f2cbc1eeee8810603d91b68787604051808381526020018281526020019250505060405180910390a2505050505050565b6000806122566122516135a0565b613a14565b915091509091565b600d54600160b01b900460ff1681565b600a5481565b6007602052816000526040600020818154811061229057600080fd5b6000918252602090912060089091020180546001820154600283015460038401546004850154600586015460068701546007909701549598509396509194909391929160ff8082169161010090041689565b600d546001600160a01b03166122f66135a0565b6001600160a01b03161461233b5760405162461bcd60e51b81526004018080602001828103825260218152602001806149fa6021913960400191505060405180910390fd5b60007f00000000000000000000000000000000000000000000000000000000000000001161239a5760405162461bcd60e51b8152600401808060200182810382526021815260200180614a3c6021913960400191505060405180910390fd5b600082116123ef576040805162461bcd60e51b815260206004820152601960248201527f3033343120416d6f756e742063616e2774206265207a65726f00000000000000604482015290519081900360640190fd5b4281101561243b576040805162461bcd60e51b81526020600482015260146024820152733033343220646561646c696e65206973206c6f7760601b604482015290519081900360640190fd5b6000612445610f96565b90506124518184613a4b565b600061245c84610a41565b9050600061247661246f8361012c613909565b839061391b565b905061248430868387613b10565b5050505050565b600d54600160a01b900460ff166124e1576040805162461bcd60e51b815260206004820152601560248201527469742773206e6f7420616e20656d657267656e637960581b604482015290519081900360640190fd5b60006124f36124ee6135a0565b613ca9565b905080156125ff577f00000000000000000000000000000000000000000000000000000000000000006001600160a01b031663a9059cbb6125326135a0565b836040518363ffffffff1660e01b815260040180836001600160a01b0316815260200182815260200192505050602060405180830381600087803b15801561257957600080fd5b505af115801561258d573d6000803e3d6000fd5b505050506040513d60208110156125a357600080fd5b506125b690506125b16135a0565b613de7565b6125be6135a0565b6001600160a01b03167f85082129d87b2fe11527cb1b3b7a520aeb5aa6913f88a3d8757fe40d1db02fdd826040518082815260200191505060405180910390a25b50565b600d546001600160a01b03166126166135a0565b6001600160a01b03161461265b5760405162461bcd60e51b81526004018080602001828103825260218152602001806149fa6021913960400191505060405180910390fd5b600d805460ff60b81b1916600160b81b1790556040517f9331b2a38c658c57a39ea19b2709d928c28a12cc8fbb838d12b85148550f937d90600090a1565b6000546001600160a01b031690565b600080600160009054906101000a90046001600160a01b03166001600160a01b031663feaf968c6040518163ffffffff1660e01b815260040160a06040518083038186803b1580156126f957600080fd5b505afa15801561270d573d6000803e3d6000fd5b505050506040513d60a081101561272357600080fd5b50602001519050600081121561273a57600061273c565b805b91505090565b6000806122566127506135a0565b613e5b565b600581565b60008061276e6127686135a0565b84614076565b915091505b915091565b600d54600160a01b900460ff1681565b600881565b600d54600160a81b900460ff1681565b60408051600280825260608083018452926000929190602083019080368337505060045482519293506001600160a01b0316918391506000906127dc57fe5b6001600160a01b03928316602091820292909201015260055482519116908290600190811061280757fe5b6001600160a01b0390921660209283029190910190910152905090565b7f000000000000000000000000000000000000000000000000000000000000000081565b6000806128566127686135a0565b909250905081156129b757817f00000000000000000000000000000000000000000000000000000000000000006001600160a01b03166370a082317f00000000000000000000000000000000000000000000000000000000000000006040518263ffffffff1660e01b815260040180826001600160a01b0316815260200191505060206040518083038186803b1580156128ef57600080fd5b505afa158015612903573d6000803e3d6000fd5b505050506040513d602081101561291957600080fd5b5051106129b7577f00000000000000000000000000000000000000000000000000000000000000006001600160a01b031663e4e103dc6129576135a0565b846040518363ffffffff1660e01b815260040180836001600160a01b0316815260200182815260200192505050600060405180830381600087803b15801561299e57600080fd5b505af11580156129b2573d6000803e3d6000fd5b505050505b6129c86129c26135a0565b846140b0565b600d54600160b01b900460ff1615612c1d577f000000000000000000000000000000000000000000000000000000000000000015612afb578015612aea577f00000000000000000000000000000000000000000000000000000000000000006001600160a01b031663a9059cbb612a3d6135a0565b836040518363ffffffff1660e01b815260040180836001600160a01b0316815260200182815260200192505050602060405180830381600087803b158015612a8457600080fd5b505af1158015612a98573d6000803e3d6000fd5b505050506040513d6020811015612aae57600080fd5b5051612aea576040805162461bcd60e51b815260206004808301919091526024820152630303333360e41b604482015290519081900360640190fd5b612afb612af56135a0565b8461416a565b6000612b0e612b086135a0565b856141f1565b90508015612c1b577f00000000000000000000000000000000000000000000000000000000000000006001600160a01b031663a9059cbb612b4d6135a0565b836040518363ffffffff1660e01b815260040180836001600160a01b0316815260200182815260200192505050602060405180830381600087803b158015612b9457600080fd5b505af1158015612ba8573d6000803e3d6000fd5b505050506040513d6020811015612bbe57600080fd5b50612bd29050612bcc6135a0565b85614336565b612bda6135a0565b6001600160a01b03167f85082129d87b2fe11527cb1b3b7a520aeb5aa6913f88a3d8757fe40d1db02fdd826040518082815260200191505060405180910390a25b505b612c256135a0565b6001600160a01b03167ff279e6a1f5e320cca91135676d9cb6e44ca8a08c0b88342bcdb1144f6511b5688383604051808381526020018281526020019250505060405180910390a2505050565b6006805460408051602060026001851615610100026000190190941693909304601f81018490048402820184019092528181529291830182828015612cf85780601f10612ccd57610100808354040283529160200191612cf8565b820191906000526020600020905b815481529060010190602001808311612cdb57829003601f168201915b505050505081565b600080612d0e6122516135a0565b90925090508115612e6f57817f00000000000000000000000000000000000000000000000000000000000000006001600160a01b03166370a082317f00000000000000000000000000000000000000000000000000000000000000006040518263ffffffff1660e01b815260040180826001600160a01b0316815260200191505060206040518083038186803b158015612da757600080fd5b505afa158015612dbb573d6000803e3d6000fd5b505050506040513d6020811015612dd157600080fd5b505110612e6f577f00000000000000000000000000000000000000000000000000000000000000006001600160a01b031663e4e103dc612e0f6135a0565b846040518363ffffffff1660e01b815260040180836001600160a01b0316815260200182815260200192505050600060405180830381600087803b158015612e5657600080fd5b505af1158015612e6a573d6000803e3d6000fd5b505050505b612e7f612e7a6135a0565b6143a3565b600d54600160b01b900460ff16156130c7577f000000000000000000000000000000000000000000000000000000000000000015612fb1578015612fa1577f00000000000000000000000000000000000000000000000000000000000000006001600160a01b031663a9059cbb612ef46135a0565b836040518363ffffffff1660e01b815260040180836001600160a01b0316815260200182815260200192505050602060405180830381600087803b158015612f3b57600080fd5b505af1158015612f4f573d6000803e3d6000fd5b505050506040513d6020811015612f6557600080fd5b5051612fa1576040805162461bcd60e51b815260206004808301919091526024820152630303332360e41b604482015290519081900360640190fd5b612fb1612fac6135a0565b61443c565b6000612fbe6124ee6135a0565b905080156130c5577f00000000000000000000000000000000000000000000000000000000000000006001600160a01b031663a9059cbb612ffd6135a0565b836040518363ffffffff1660e01b815260040180836001600160a01b0316815260200182815260200192505050602060405180830381600087803b15801561304457600080fd5b505af1158015613058573d6000803e3d6000fd5b505050506040513d602081101561306e57600080fd5b5061307c90506125b16135a0565b6130846135a0565b6001600160a01b03167f85082129d87b2fe11527cb1b3b7a520aeb5aa6913f88a3d8757fe40d1db02fdd826040518082815260200191505060405180910390a25b505b6130cf6135a0565b6001600160a01b03167ff279e6a1f5e320cca91135676d9cb6e44ca8a08c0b88342bcdb1144f6511b5688383604051808381526020018281526020019250505060405180910390a25050565b6000600a546000141561313057506000610fa3565b6000805b60085481101561324c576000600760006008848154811061315157fe5b600091825260208083206002909202909101546001600160a01b031683528201929092526040019020600880548490811061318857fe5b906000526020600020906002020160010154815481106131a457fe5b600091825260209182902060408051610120810182526008909302909101805480845260018201549484019490945260028101549183019190915260038101546060830152600481015460808301819052600582015460a0840152600682015460c084015260079091015460ff808216151560e085015261010091829004161515908301529092506132419161323a9190613849565b84906137e8565b925050600101613134565b50600a5461273c9082906138a2565b600254604080516370a0823160e01b815230600482015290516000926001600160a01b0316916370a08231916024808301926020929190829003018186803b15801561101557600080fd5b600d546001600160a01b031681565b600b5481565b600d54600160b81b900460ff1681565b6000610c416132d86135a0565b836141f1565b600981815481106132ee57600080fd5b6000918252602090912060029091020180546001909101546001600160a01b03909116915082565b7f000000000000000000000000000000000000000000000000000000000000000081565b7f000000000000000000000000000000000000000000000000000000000000000081565b7f000000000000000000000000000000000000000000000000000000000000000081565b600061339461338f6135a0565b6115af565b905090565b60008061276e6133a76135a0565b846144a4565b600080600160009054906101000a90046001600160a01b03166001600160a01b031663313ce5676040518163ffffffff1660e01b815260040160206040518083038186803b1580156133fe57600080fd5b505afa158015613412573d6000803e3d6000fd5b505050506040513d602081101561342857600080fd5b505191505090565b600e818154811061344057600080fd5b60009182526020909120600290910201805460019091015490915082565b6134666135a0565b6001600160a01b0316613477612699565b6001600160a01b0316146134d2576040805162461bcd60e51b815260206004820181905260248201527f4f776e61626c653a2063616c6c6572206973206e6f7420746865206f776e6572604482015290519081900360640190fd5b6001600160a01b0381166135175760405162461bcd60e51b81526004018080602001828103825260268152602001806149616026913960400191505060405180910390fd5b600080546040516001600160a01b03808516939216917f8be0079c531659141344cd1fd0a4f28419497f9722a3daafe3b4186f6b6457e091a3600080546001600160a01b0319166001600160a01b0392909216919091179055565b600c5481565b6002546001600160a01b031690565b600881815481106132ee57600080fd5b60006133946124ee5b3390565b6000600b548311156135e257600b546135bd848461391b565b116135ca57506000610c41565b600b546135db90611df4858561391b565b9050610c41565b600b546135ef84846137e8565b106135fc57506000610c41565b6135db61360984846137e8565b600b549061391b565b600d805460ff60a81b1916600160a81b1790556040517f2e136745550967f28b779ce8c395ca060a2f844edfb5b06631fe677f66f9e30590600090a1565b6001600160a01b038216600090815260076020526040812080548291908490811061367757fe5b6000918252602080832060408051610120810182526008909402909101805484526001810154928401929092526002820154908301526003810154606083015260048101546080830152600581015460a0830152600681015460c08301526007015460ff808216151560e0840152610100918290041615159082015291507f00000000000000000000000000000000000000000000000000000000000000007f0000000000000000000000000000000000000000000000000000000000000000017f00000000000000000000000000000000000000000000000000000000000000000190428210613768574261376a565b815b9050600061377b84602001516146bd565b905060006137c36137ac7f0000000000000000000000000000000000000000000000000000000000000000846137e8565b60208701516137bc90869061391b565b87516147c4565b90506137dc85604001518261391b90919063ffffffff16565b98975050505050505050565b600082820183811015613842576040805162461bcd60e51b815260206004820152601b60248201527f536166654d6174683a206164646974696f6e206f766572666c6f770000000000604482015290519081900360640190fd5b9392505050565b60008261385857506000610c41565b8282028284828161386557fe5b04146138425760405162461bcd60e51b8152600401808060200182810382526021815260200180614a1b6021913960400191505060405180910390fd5b60008082116138f8576040805162461bcd60e51b815260206004820152601a60248201527f536166654d6174683a206469766973696f6e206279207a65726f000000000000604482015290519081900360640190fd5b81838161390157fe5b049392505050565b6000613842612710611c668585613849565b600082821115613972576040805162461bcd60e51b815260206004820152601e60248201527f536166654d6174683a207375627472616374696f6e206f766572666c6f770000604482015290519081900360640190fd5b50900390565b6000806000837f0000000000000000000000000000000000000000000000000000000000000000116139ab5760006139d5565b6139d57f00000000000000000000000000000000000000000000000000000000000000008561391b565b9050806139e9576000859250925050613a0d565b6139f38582613909565b613a07613a008784613909565b879061391b565b92509250505b9250929050565b6000806000806000613a25866115af565b9050613a3086613e5b565b9093509150613a3f81846137e8565b94509092505050915091565b6002546040805163095ea7b360e01b81526001600160a01b038581166004830152602482018590529151919092169163095ea7b39160448083019260209291908290030181600087803b158015613aa157600080fd5b505af1158015613ab5573d6000803e3d6000fd5b505050506040513d6020811015613acb57600080fd5b50506040805182815290516001600160a01b038416917fd77df63d9076d067d9fd7af16c3d67db48b84064c3314f5900ae919922d364a1919081900360200190a25050565b6001600160a01b038416613b2357600080fd5b6003546001600160a01b03166338ed17398484613b3e61279d565b88866040518663ffffffff1660e01b81526004018086815260200185815260200180602001846001600160a01b03168152602001838152602001828103825285818151815260200191508051906020019060200280838360005b83811015613bb0578181015183820152602001613b98565b505050509050019650505050505050600060405180830381600087803b158015613bd957600080fd5b505af1158015613bed573d6000803e3d6000fd5b505050506040513d6000823e601f3d908101601f191682016040526020811015613c1657600080fd5b8101908080516040519392919084640100000000821115613c3657600080fd5b908301906020820185811115613c4b57600080fd5b8251866020820283011164010000000082111715613c6857600080fd5b82525081516020918201928201910280838360005b83811015613c95578181015183820152602001613c7d565b505050509050016040525050505050505050565b6001600160a01b038116600090815260076020908152604080832080548251818502810185019093528083528493849084015b82821015613d6e57600084815260209081902060408051610120810182526008860290920180548352600180820154848601526002820154928401929092526003810154606084015260048101546080840152600581015460a0840152600681015460c08401526007015460ff808216151560e085015261010091829004161515908301529083529092019101613cdc565b505050509050805160001415613d88576000915050610bbd565b6000805b82518110156116be57828181518110613da157fe5b60200260200101516101000151613ddf57613ddc838281518110613dc157fe5b602002602001015160000151836137e890919063ffffffff16565b91505b600101613d8c565b6001600160a01b03811660009081526007602052604090208054613e0b57506125ff565b60005b8154811015613e56576001828281548110613e2557fe5b6000918252602090912060076008909202010180549115156101000261ff0019909216919091179055600101613e0e565b505050565b600d546000908190600160b01b900460ff16613e7c57506000905080612773565b6001600160a01b038316600090815260076020908152604080832080548251818502810185019093528083529192909190849084015b82821015613f4457600084815260209081902060408051610120810182526008860290920180548352600180820154848601526002820154928401929092526003810154606084015260048101546080840152600581015460a0840152600681015460c08401526007015460ff808216151560e085015261010091829004161515908301529083529092019101613eb2565b505050509050805160001415613f61576000809250925050612773565b600b54600090613f9990611c667f00000000000000000000000000000000000000000000000000000000000000006305f5e100613849565b905060008060005b845181101561403957848181518110613fb657fe5b602002602001015160e00151614031576000613fe8868381518110613fd757fe5b602002602001015160c001516148cd565b905061401e6140177f000000000000000000000000000000000000000000000000000000000000000083613909565b85906137e8565b935061402d61323a8683613909565b9250505b600101613fa1565b50600c541561406a57600c54614050908390614938565b9150614067600c548261493890919063ffffffff16565b90505b90945092505050915091565b60008060008060006140888787611a48565b905061409487876144a4565b90935091506140a381846137e8565b9791965090945050505050565b6001600160a01b038216600090815260076020526040902080546140d45750614166565b805482106140e25750614166565b60006140ee8484613650565b9050428284815481106140fd57fe5b9060005260206000209060080201600301819055506141428183858154811061412257fe5b9060005260206000209060080201600201546137e890919063ffffffff16565b82848154811061414e57fe5b90600052602060002090600802016002018190555050505b5050565b6001600160a01b0382166000908152600760205260409020805461418e5750614166565b80828154811061419a57fe5b600091825260209091206007600890920201015460ff16156141bc5750614166565b60018183815481106141ca57fe5b60009182526020909120600890910201600701805460ff1916911515919091179055505050565b6001600160a01b038216600090815260076020908152604080832080548251818502810185019093528083528493849084015b828210156142b657600084815260209081902060408051610120810182526008860290920180548352600180820154848601526002820154928401929092526003810154606084015260048101546080840152600581015460a0840152600681015460c08401526007015460ff808216151560e085015261010091829004161515908301529083529092019101614224565b5050505090508051600014156142d0576000915050610c41565b805183106142e2576000915050610c41565b60008184815181106142f057fe5b6020026020010151610100015161432e5761432b82858151811061431057fe5b602002602001015160000151826137e890919063ffffffff16565b90505b949350505050565b6001600160a01b0382166000908152600760205260409020805461435a5750614166565b805482106143685750614166565b600181838154811061437657fe5b906000526020600020906008020160070160016101000a81548160ff021916908315150217905550505050565b6001600160a01b038116600090815260076020526040902080546143c757506125ff565b60005b8154811015613e565760006143df8483613650565b9050428383815481106143ee57fe5b9060005260206000209060080201600301819055506144138184848154811061412257fe5b83838154811061441f57fe5b6000918252602090912060026008909202010155506001016143ca565b6001600160a01b0381166000908152600760205260409020805461446057506125ff565b60005b8154811015613e5657600182828154811061447a57fe5b60009182526020909120600890910201600701805460ff1916911515919091179055600101614463565b600d546000908190600160b01b900460ff166144c557506000905080613a0d565b6001600160a01b038416600090815260076020908152604080832080548251818502810185019093528083529192909190849084015b8282101561458d57600084815260209081902060408051610120810182526008860290920180548352600180820154848601526002820154928401929092526003810154606084015260048101546080840152600581015460a0840152600681015460c08401526007015460ff808216151560e0850152610100918290041615159083015290835290920191016144fb565b5050505090508051600014156145aa576000809250925050613a0d565b805184106145bf576000809250925050613a0d565b8084815181106145cb57fe5b602002602001015160e00151156145e9576000809250925050613a0d565b600b5460009061462190611c667f00000000000000000000000000000000000000000000000000000000000000006305f5e100613849565b90506000806000614637858981518110613fd757fe5b905061466661323a7f000000000000000000000000000000000000000000000000000000000000000083613909565b925061467c6146758583613909565b83906137e8565b600c54909250156146af57600c54614695908490614938565b92506146ac600c548361493890919063ffffffff16565b91505b509097909650945050505050565b60007f00000000000000000000000000000000000000000000000000000000000000006146ec57506000610bbd565b60006147387f00000000000000000000000000000000000000000000000000000000000000007f00000000000000000000000000000000000000000000000000000000000000006137e8565b90506000614746828561391b565b90506202a30081101561475e57600092505050610bbd565b6203f48081101561477457606492505050610bbd565b6205460081101561478a5760c892505050610bbd565b620697808110156147a15761012c92505050610bbd565b6207e9008110156147b85761019092505050610bbd565b6101f492505050610bbd565b60006301e13380816147e166038882915c40006305f5e100613849565b905060006147fd6113886147f785818a8c613849565b90613849565b905060006148146113886147f78a6002880a613849565b9050600061482d6006611c666002808c0a908d0a613849565b905060006148506002611c66886147f760028f0a8e61384990919063ffffffff16565b905060006148696003611c666002808f0a908b0a613849565b905060006148838261487d86818b8b6137e8565b906137e8565b905061489383611df4838861391b565b90506148a38b6147f7838f613849565b90506148bd64e8d4a51000611c6660038b0a81858f613849565b9c9b505050505050505050505050565b6000805b600e5481101561492f57600e81815481106148e857fe5b906000526020600020906002020160000154831161492757600e818154811061490d57fe5b906000526020600020906002020160010154915050610bbd565b6001016148d1565b50600092915050565b60008261494757506000610c41565b81614953575081610c41565b61384261323a848461390956fe4f776e61626c653a206e6577206f776e657220697320746865207a65726f2061646472657373303336302043616e277420656e6420706f6f6c206265666f726520746865206d617475726974792074696d65303331322043616e2774207374616b652061626f76652073697a6520616c6c6f636174696f6e3033373020746f74656d732063616e206e6f74206265207472616e736665726564303330302063616c6c6572206973206e6f74206120706f6f6c2063726561746f72536166654d6174683a206d756c7469706c69636174696f6e206f766572666c6f77303334302054686520706f6f6c206973206e6f74204254432072657761726465723033383020746869732061646472657373206469646e2774207374616b6520696e207468697320706f6f6c3033313120416d6f756e742063616e2774206265206c657373207468616e20746865206d696e696d756d303335302043616e277420736574206d61747572696e67207072696365206265666f726520746865206d617475726974792074696d65a2646970667358221220788769e583bd50a5106717a90a2a23ad0509831f1ad8fc6286fcc58823d6a21a64736f6c63430007060033",
    "linkReferences": {},
    "deployedLinkReferences": {},
    "devdoc": {
        "kind": "dev",
        "methods": {
            "getEstimatedBTCForUSD(uint256)": {
                "params": {
                    "_amount": "Amount"
                }
            },
            "owner()": {
                "details": "Returns the address of the current owner."
            },
            "renounceOwnership()": {
                "details": "Leaves the contract without owner. It will not be possible to call `onlyOwner` functions anymore. Can only be called by the current owner. NOTE: Renouncing ownership will leave the contract without an owner, thereby removing any functionality that is only available to the owner."
            },
            "transferOwnership(address)": {
                "details": "Transfers ownership of the contract to a new account (`newOwner`). Can only be called by the current owner."
            }
        },
        "version": 1
    },
    "evm": {
        "bytecode": {
            "linkReferences": {},
            "opcodes": "PUSH2 0x260 PUSH1 0x40 MSTORE CALLVALUE DUP1 ISZERO PUSH3 0x12 JUMPI PUSH1 0x0 DUP1 REVERT JUMPDEST POP PUSH1 0x40 MLOAD PUSH3 0x5104 CODESIZE SUB DUP1 PUSH3 0x5104 DUP4 CODECOPY DUP2 DUP2 ADD PUSH1 0x40 MSTORE PUSH2 0x460 DUP2 LT ISZERO PUSH3 0x39 JUMPI PUSH1 0x0 DUP1 REVERT JUMPDEST DUP2 ADD SWAP1 DUP1 DUP1 MLOAD PUSH1 0x40 MLOAD SWAP4 SWAP3 SWAP2 SWAP1 DUP5 PUSH5 0x100000000 DUP3 GT ISZERO PUSH3 0x5A JUMPI PUSH1 0x0 DUP1 REVERT JUMPDEST SWAP1 DUP4 ADD SWAP1 PUSH1 0x20 DUP3 ADD DUP6 DUP2 GT ISZERO PUSH3 0x70 JUMPI PUSH1 0x0 DUP1 REVERT JUMPDEST DUP3 MLOAD PUSH5 0x100000000 DUP2 GT DUP3 DUP3 ADD DUP9 LT OR ISZERO PUSH3 0x8B JUMPI PUSH1 0x0 DUP1 REVERT JUMPDEST DUP3 MSTORE POP DUP2 MLOAD PUSH1 0x20 SWAP2 DUP3 ADD SWAP3 SWAP1 SWAP2 ADD SWAP1 DUP1 DUP4 DUP4 PUSH1 0x0 JUMPDEST DUP4 DUP2 LT ISZERO PUSH3 0xBA JUMPI DUP2 DUP2 ADD MLOAD DUP4 DUP3 ADD MSTORE PUSH1 0x20 ADD PUSH3 0xA0 JUMP JUMPDEST POP POP POP POP SWAP1 POP SWAP1 DUP2 ADD SWAP1 PUSH1 0x1F AND DUP1 ISZERO PUSH3 0xE8 JUMPI DUP1 DUP3 SUB DUP1 MLOAD PUSH1 0x1 DUP4 PUSH1 0x20 SUB PUSH2 0x100 EXP SUB NOT AND DUP2 MSTORE PUSH1 0x20 ADD SWAP2 POP JUMPDEST POP PUSH1 0x40 SWAP1 DUP2 MSTORE PUSH1 0x20 DUP3 ADD MLOAD SWAP1 DUP3 ADD MLOAD PUSH1 0x60 DUP4 ADD MLOAD PUSH1 0x80 DUP5 ADD MLOAD PUSH1 0xA0 DUP6 ADD MLOAD PUSH1 0xC0 DUP7 ADD MLOAD PUSH1 0xE0 DUP8 ADD MLOAD PUSH2 0x440 DUP9 ADD MLOAD SWAP7 SWAP10 POP SWAP5 SWAP8 POP SWAP3 SWAP6 SWAP2 SWAP5 SWAP1 SWAP4 SWAP2 PUSH2 0x100 DUP2 ADD SWAP2 PUSH2 0x240 DUP3 ADD SWAP2 PUSH2 0x340 ADD SWAP1 DUP8 DUP7 DUP7 DUP10 PUSH1 0x0 PUSH3 0x144 PUSH3 0x375 JUMP JUMPDEST PUSH1 0x0 DUP1 SLOAD PUSH1 0x1 PUSH1 0x1 PUSH1 0xA0 SHL SUB NOT AND PUSH1 0x1 PUSH1 0x1 PUSH1 0xA0 SHL SUB DUP4 AND SWAP1 DUP2 OR DUP3 SSTORE PUSH1 0x40 MLOAD SWAP3 SWAP4 POP SWAP2 PUSH32 0x8BE0079C531659141344CD1FD0A4F28419497F9722A3DAAFE3B4186F6B6457E0 SWAP1 DUP3 SWAP1 LOG3 POP PUSH1 0x1 PUSH1 0x1 PUSH1 0xA0 SHL SUB DUP2 AND PUSH3 0x1A2 JUMPI PUSH1 0x0 DUP1 REVERT JUMPDEST PUSH1 0x1 DUP1 SLOAD PUSH1 0x1 PUSH1 0x1 PUSH1 0xA0 SHL SUB NOT SWAP1 DUP2 AND PUSH1 0x1 PUSH1 0x1 PUSH1 0xA0 SHL SUB SWAP4 DUP5 AND OR SWAP1 SWAP2 SSTORE PUSH1 0x3 DUP1 SLOAD DUP3 AND SWAP6 DUP4 AND SWAP6 SWAP1 SWAP6 OR SWAP1 SWAP5 SSTORE PUSH1 0x4 DUP1 SLOAD DUP6 AND SWAP4 DUP3 AND SWAP4 SWAP1 SWAP4 OR SWAP1 SWAP3 SSTORE PUSH1 0x5 DUP1 SLOAD SWAP1 SWAP4 AND SWAP2 AND OR SWAP1 SSTORE DUP12 MLOAD PUSH3 0x202 SWAP1 PUSH1 0x6 SWAP1 PUSH1 0x20 DUP16 ADD SWAP1 PUSH3 0x39B JUMP JUMPDEST POP PUSH1 0x1 PUSH1 0x1 PUSH1 0x60 SHL SUB NOT PUSH1 0x60 DUP13 DUP2 SHL DUP3 AND PUSH1 0x80 MSTORE DUP12 SWAP1 SHL AND PUSH1 0xA0 MSTORE PUSH1 0xD DUP1 SLOAD PUSH1 0x1 PUSH1 0x1 PUSH1 0xA0 SHL SUB DUP12 AND PUSH1 0x1 PUSH1 0x1 PUSH1 0xA0 SHL SUB NOT SWAP1 SWAP2 AND OR SWAP1 SSTORE PUSH3 0x245 DUP7 PUSH3 0x379 JUMP JUMPDEST PUSH1 0x60 DUP6 DUP2 SHL PUSH1 0x1 PUSH1 0x1 PUSH1 0x60 SHL SUB NOT AND PUSH1 0xC0 SWAP1 DUP2 MSTORE TIMESTAMP PUSH1 0xE0 SWAP1 DUP2 MSTORE DUP7 MLOAD PUSH2 0x120 SWAP1 DUP2 MSTORE PUSH1 0x20 DUP9 ADD MLOAD PUSH2 0x100 SWAP1 DUP2 MSTORE PUSH1 0x40 DUP10 ADD MLOAD PUSH8 0xDE0B6B3A7640000 SWAP1 DUP2 MUL PUSH2 0x140 MSTORE SWAP5 DUP10 ADD MLOAD PUSH2 0x160 MSTORE PUSH1 0x80 DUP10 ADD MLOAD DUP6 MUL PUSH2 0x180 MSTORE PUSH1 0xA0 DUP10 ADD MLOAD DUP6 MUL PUSH2 0x1A0 MSTORE SWAP3 DUP9 ADD MLOAD PUSH2 0x200 MSTORE SWAP1 DUP8 ADD MLOAD PUSH2 0x220 MSTORE SWAP1 DUP7 ADD MLOAD PUSH2 0x1C0 MSTORE DUP6 ADD MLOAD MUL PUSH2 0x1E0 MSTORE DUP1 ISZERO ISZERO PUSH1 0xF8 SHL PUSH2 0x240 MSTORE PUSH1 0x0 JUMPDEST PUSH1 0x8 DUP2 LT ISZERO PUSH3 0x362 JUMPI DUP3 DUP2 PUSH1 0x8 DUP2 LT PUSH3 0x2E9 JUMPI INVALID JUMPDEST PUSH1 0x20 MUL ADD MLOAD PUSH3 0x2F9 JUMPI PUSH3 0x362 JUMP JUMPDEST PUSH1 0xE PUSH1 0x40 MLOAD DUP1 PUSH1 0x40 ADD PUSH1 0x40 MSTORE DUP1 DUP7 DUP5 PUSH1 0x8 DUP2 LT PUSH3 0x313 JUMPI INVALID JUMPDEST PUSH1 0x20 MUL ADD MLOAD DUP2 MSTORE PUSH1 0x20 ADD DUP6 DUP5 PUSH1 0x8 DUP2 LT PUSH3 0x32A JUMPI INVALID JUMPDEST PUSH1 0x20 SWAP1 DUP2 MUL SWAP2 SWAP1 SWAP2 ADD MLOAD SWAP1 SWAP2 MSTORE DUP3 SLOAD PUSH1 0x1 DUP2 DUP2 ADD DUP6 SSTORE PUSH1 0x0 SWAP5 DUP6 MSTORE SWAP4 DUP3 SWAP1 KECCAK256 DUP4 MLOAD PUSH1 0x2 SWAP1 SWAP3 MUL ADD SWAP1 DUP2 SSTORE SWAP2 ADD MLOAD SWAP1 DUP3 ADD SSTORE ADD PUSH3 0x2D2 JUMP JUMPDEST POP POP POP POP POP POP POP POP POP POP POP POP POP PUSH3 0x447 JUMP JUMPDEST CALLER SWAP1 JUMP JUMPDEST PUSH1 0x2 DUP1 SLOAD PUSH1 0x1 PUSH1 0x1 PUSH1 0xA0 SHL SUB NOT AND PUSH1 0x1 PUSH1 0x1 PUSH1 0xA0 SHL SUB SWAP3 SWAP1 SWAP3 AND SWAP2 SWAP1 SWAP2 OR SWAP1 SSTORE JUMP JUMPDEST DUP3 DUP1 SLOAD PUSH1 0x1 DUP2 PUSH1 0x1 AND ISZERO PUSH2 0x100 MUL SUB AND PUSH1 0x2 SWAP1 DIV SWAP1 PUSH1 0x0 MSTORE PUSH1 0x20 PUSH1 0x0 KECCAK256 SWAP1 PUSH1 0x1F ADD PUSH1 0x20 SWAP1 DIV DUP2 ADD SWAP3 DUP3 PUSH3 0x3D3 JUMPI PUSH1 0x0 DUP6 SSTORE PUSH3 0x41E JUMP JUMPDEST DUP3 PUSH1 0x1F LT PUSH3 0x3EE JUMPI DUP1 MLOAD PUSH1 0xFF NOT AND DUP4 DUP1 ADD OR DUP6 SSTORE PUSH3 0x41E JUMP JUMPDEST DUP3 DUP1 ADD PUSH1 0x1 ADD DUP6 SSTORE DUP3 ISZERO PUSH3 0x41E JUMPI SWAP2 DUP3 ADD JUMPDEST DUP3 DUP2 GT ISZERO PUSH3 0x41E JUMPI DUP3 MLOAD DUP3 SSTORE SWAP2 PUSH1 0x20 ADD SWAP2 SWAP1 PUSH1 0x1 ADD SWAP1 PUSH3 0x401 JUMP JUMPDEST POP PUSH3 0x42C SWAP3 SWAP2 POP PUSH3 0x430 JUMP JUMPDEST POP SWAP1 JUMP JUMPDEST JUMPDEST DUP1 DUP3 GT ISZERO PUSH3 0x42C JUMPI PUSH1 0x0 DUP2 SSTORE PUSH1 0x1 ADD PUSH3 0x431 JUMP JUMPDEST PUSH1 0x80 MLOAD PUSH1 0x60 SHR PUSH1 0xA0 MLOAD PUSH1 0x60 SHR PUSH1 0xC0 MLOAD PUSH1 0x60 SHR PUSH1 0xE0 MLOAD PUSH2 0x100 MLOAD PUSH2 0x120 MLOAD PUSH2 0x140 MLOAD PUSH2 0x160 MLOAD PUSH2 0x180 MLOAD PUSH2 0x1A0 MLOAD PUSH2 0x1C0 MLOAD PUSH2 0x1E0 MLOAD PUSH2 0x200 MLOAD PUSH2 0x220 MLOAD PUSH2 0x240 MLOAD PUSH1 0xF8 SHR PUSH2 0x4B1D PUSH3 0x5E7 PUSH1 0x0 CODECOPY DUP1 PUSH2 0x1545 MSTORE DUP1 PUSH2 0x46C1 MSTORE POP DUP1 PUSH2 0xE4F MSTORE DUP1 PUSH2 0x3360 MSTORE POP DUP1 PUSH2 0xE19 MSTORE DUP1 PUSH2 0xE79 MSTORE DUP1 PUSH2 0x3318 MSTORE POP DUP1 PUSH2 0x1944 MSTORE DUP1 PUSH2 0x1BD7 MSTORE POP DUP1 PUSH2 0x1920 MSTORE DUP1 PUSH2 0x3980 MSTORE DUP1 PUSH2 0x39B0 MSTORE POP DUP1 PUSH2 0xD45 MSTORE DUP1 PUSH2 0x1A26 MSTORE DUP1 PUSH2 0x233F MSTORE DUP1 PUSH2 0x29DC MSTORE DUP1 PUSH2 0x2E93 MSTORE DUP1 PUSH2 0x3F70 MSTORE DUP1 PUSH2 0x45F8 MSTORE POP DUP1 PUSH2 0x1B5E MSTORE DUP1 PUSH2 0x3FF2 MSTORE DUP1 PUSH2 0x4641 MSTORE POP DUP1 PUSH2 0x2826 MSTORE DUP1 PUSH2 0x3787 MSTORE POP DUP1 PUSH2 0x158D MSTORE DUP1 PUSH2 0x1C40 MSTORE DUP1 PUSH2 0x1DB6 MSTORE DUP1 PUSH2 0x21BF MSTORE POP DUP1 PUSH2 0xCA2 MSTORE DUP1 PUSH2 0x1569 MSTORE DUP1 PUSH2 0x1870 MSTORE DUP1 PUSH2 0x373A MSTORE POP DUP1 PUSH2 0xBE8 MSTORE DUP1 PUSH2 0xCC3 MSTORE DUP1 PUSH2 0x1891 MSTORE DUP1 PUSH2 0x3718 MSTORE DUP1 PUSH2 0x4714 MSTORE POP DUP1 PUSH2 0xBC4 MSTORE DUP1 PUSH2 0xCE4 MSTORE DUP1 PUSH2 0x18B2 MSTORE DUP1 PUSH2 0x36F7 MSTORE DUP1 PUSH2 0x46F3 MSTORE POP DUP1 PUSH2 0xA1F MSTORE DUP1 PUSH2 0xFAA MSTORE DUP1 PUSH2 0x2A08 MSTORE DUP1 PUSH2 0x2EBF MSTORE POP DUP1 PUSH2 0xC0C MSTORE DUP1 PUSH2 0x2893 MSTORE DUP1 PUSH2 0x2922 MSTORE DUP1 PUSH2 0x2D4B MSTORE DUP1 PUSH2 0x2DDA MSTORE POP DUP1 PUSH2 0x1721 MSTORE DUP1 PUSH2 0x1C72 MSTORE DUP1 PUSH2 0x1D03 MSTORE DUP1 PUSH2 0x1E51 MSTORE DUP1 PUSH2 0x1F14 MSTORE DUP1 PUSH2 0x1F43 MSTORE DUP1 PUSH2 0x24FD MSTORE DUP1 PUSH2 0x2864 MSTORE DUP1 PUSH2 0x2B18 MSTORE DUP1 PUSH2 0x2D1C MSTORE DUP1 PUSH2 0x2FC8 MSTORE DUP1 PUSH2 0x333C MSTORE POP PUSH2 0x4B1D PUSH1 0x0 RETURN INVALID PUSH1 0x80 PUSH1 0x40 MSTORE CALLVALUE DUP1 ISZERO PUSH2 0x10 JUMPI PUSH1 0x0 DUP1 REVERT JUMPDEST POP PUSH1 0x4 CALLDATASIZE LT PUSH2 0x3E6 JUMPI PUSH1 0x0 CALLDATALOAD PUSH1 0xE0 SHR DUP1 PUSH4 0x8BFBBCBE GT PUSH2 0x20A JUMPI DUP1 PUSH4 0xC6C1DECD GT PUSH2 0x125 JUMPI DUP1 PUSH4 0xEDA2D424 GT PUSH2 0xB8 JUMPI DUP1 PUSH4 0xF2FDE38B GT PUSH2 0x87 JUMPI DUP1 PUSH4 0xF2FDE38B EQ PUSH2 0x9C2 JUMPI DUP1 PUSH4 0xF3D9DC0D EQ PUSH2 0x9E8 JUMPI DUP1 PUSH4 0xF5E96FC9 EQ PUSH2 0x9F0 JUMPI DUP1 PUSH4 0xFD5E6DD1 EQ PUSH2 0x9F8 JUMPI DUP1 PUSH4 0xFD8FD47F EQ PUSH2 0xA15 JUMPI PUSH2 0x3E6 JUMP JUMPDEST DUP1 PUSH4 0xEDA2D424 EQ PUSH2 0x962 JUMPI DUP1 PUSH4 0xEEE39403 EQ PUSH2 0x96A JUMPI DUP1 PUSH4 0xF0141D84 EQ PUSH2 0x987 JUMPI DUP1 PUSH4 0xF1B17A8B EQ PUSH2 0x9A5 JUMPI PUSH2 0x3E6 JUMP JUMPDEST DUP1 PUSH4 0xDE09EE20 GT PUSH2 0xF4 JUMPI DUP1 PUSH4 0xDE09EE20 EQ PUSH2 0x90A JUMPI DUP1 PUSH4 0xE425DF8C EQ PUSH2 0x94A JUMPI DUP1 PUSH4 0xE8153C93 EQ PUSH2 0x952 JUMPI DUP1 PUSH4 0xEB850AE1 EQ PUSH2 0x95A JUMPI PUSH2 0x3E6 JUMP JUMPDEST DUP1 PUSH4 0xC6C1DECD EQ PUSH2 0x8D5 JUMPI DUP1 PUSH4 0xD025188B EQ PUSH2 0x8DD JUMPI DUP1 PUSH4 0xD7EFB6B7 EQ PUSH2 0x8E5 JUMPI DUP1 PUSH4 0xD83DB49F EQ PUSH2 0x8ED JUMPI PUSH2 0x3E6 JUMP JUMPDEST DUP1 PUSH4 0xA4E2D634 GT PUSH2 0x19D JUMPI DUP1 PUSH4 0xB1DD61B6 GT PUSH2 0x16C JUMPI DUP1 PUSH4 0xB1DD61B6 EQ PUSH2 0x840 JUMPI DUP1 PUSH4 0xB88A802F EQ PUSH2 0x8BD JUMPI DUP1 PUSH4 0xBF852196 EQ PUSH2 0x8C5 JUMPI DUP1 PUSH4 0xC1201054 EQ PUSH2 0x8CD JUMPI PUSH2 0x3E6 JUMP JUMPDEST DUP1 PUSH4 0xA4E2D634 EQ PUSH2 0x7BB JUMPI DUP1 PUSH4 0xA508BC71 EQ PUSH2 0x7C3 JUMPI DUP1 PUSH4 0xAA7BCB57 EQ PUSH2 0x81B JUMPI DUP1 PUSH4 0xB1B1E1C0 EQ PUSH2 0x823 JUMPI PUSH2 0x3E6 JUMP JUMPDEST DUP1 PUSH4 0x95C2BA47 GT PUSH2 0x1D9 JUMPI DUP1 PUSH4 0x95C2BA47 EQ PUSH2 0x786 JUMPI DUP1 PUSH4 0x9D9A62DF EQ PUSH2 0x78E JUMPI DUP1 PUSH4 0xA08B2C79 EQ PUSH2 0x7AB JUMPI DUP1 PUSH4 0xA150194B EQ PUSH2 0x7B3 JUMPI PUSH2 0x3E6 JUMP JUMPDEST DUP1 PUSH4 0x8BFBBCBE EQ PUSH2 0x766 JUMPI DUP1 PUSH4 0x8DA5CB5B EQ PUSH2 0x76E JUMPI DUP1 PUSH4 0x8E15F473 EQ PUSH2 0x776 JUMPI DUP1 PUSH4 0x9234A39A EQ PUSH2 0x77E JUMPI PUSH2 0x3E6 JUMP JUMPDEST DUP1 PUSH4 0x51EACBF0 GT PUSH2 0x305 JUMPI DUP1 PUSH4 0x765E14D8 GT PUSH2 0x298 JUMPI DUP1 PUSH4 0x7F2B6A0D GT PUSH2 0x267 JUMPI DUP1 PUSH4 0x7F2B6A0D EQ PUSH2 0x6B4 JUMPI DUP1 PUSH4 0x817B1CD2 EQ PUSH2 0x6BC JUMPI DUP1 PUSH4 0x850FA7CB EQ PUSH2 0x6C4 JUMPI DUP1 PUSH4 0x857B21EE EQ PUSH2 0x73B JUMPI DUP1 PUSH4 0x8A9920B7 EQ PUSH2 0x75E JUMPI PUSH2 0x3E6 JUMP JUMPDEST DUP1 PUSH4 0x765E14D8 EQ PUSH2 0x63C JUMPI DUP1 PUSH4 0x785FA627 EQ PUSH2 0x668 JUMPI DUP1 PUSH4 0x7B0472F0 EQ PUSH2 0x670 JUMPI DUP1 PUSH4 0x7D1FCBFA EQ PUSH2 0x693 JUMPI PUSH2 0x3E6 JUMP JUMPDEST DUP1 PUSH4 0x6847D0C5 GT PUSH2 0x2D4 JUMPI DUP1 PUSH4 0x6847D0C5 EQ PUSH2 0x61C JUMPI DUP1 PUSH4 0x6B036F45 EQ PUSH2 0x624 JUMPI DUP1 PUSH4 0x715018A6 EQ PUSH2 0x62C JUMPI DUP1 PUSH4 0x73F31703 EQ PUSH2 0x634 JUMPI PUSH2 0x3E6 JUMP JUMPDEST DUP1 PUSH4 0x51EACBF0 EQ PUSH2 0x5B0 JUMPI DUP1 PUSH4 0x5B9F4F90 EQ PUSH2 0x5B8 JUMPI DUP1 PUSH4 0x5D2631E2 EQ PUSH2 0x5DE JUMPI DUP1 PUSH4 0x5E2E2FFC EQ PUSH2 0x614 JUMPI PUSH2 0x3E6 JUMP JUMPDEST DUP1 PUSH4 0x31769EF7 GT PUSH2 0x37D JUMPI DUP1 PUSH4 0x444A4902 GT PUSH2 0x34C JUMPI DUP1 PUSH4 0x444A4902 EQ PUSH2 0x53E JUMPI DUP1 PUSH4 0x45E91319 EQ PUSH2 0x560 JUMPI DUP1 PUSH4 0x4BC4EEB2 EQ PUSH2 0x5A0 JUMPI DUP1 PUSH4 0x4E8BFDAA EQ PUSH2 0x5A8 JUMPI PUSH2 0x3E6 JUMP JUMPDEST DUP1 PUSH4 0x31769EF7 EQ PUSH2 0x485 JUMPI DUP1 PUSH4 0x31E244E5 EQ PUSH2 0x48D JUMPI DUP1 PUSH4 0x4026478E EQ PUSH2 0x495 JUMPI DUP1 PUSH4 0x43352D61 EQ PUSH2 0x49D JUMPI PUSH2 0x3E6 JUMP JUMPDEST DUP1 PUSH4 0xF4EF8A6 GT PUSH2 0x3B9 JUMPI DUP1 PUSH4 0xF4EF8A6 EQ PUSH2 0x44E JUMPI DUP1 PUSH4 0x1898A1A7 EQ PUSH2 0x456 JUMPI DUP1 PUSH4 0x2D42CF7D EQ PUSH2 0x473 JUMPI DUP1 PUSH4 0x2E577D07 EQ PUSH2 0x47D JUMPI PUSH2 0x3E6 JUMP JUMPDEST DUP1 PUSH4 0x74BC101 EQ PUSH2 0x3EB JUMPI DUP1 PUSH4 0x9082C29 EQ PUSH2 0x40F JUMPI DUP1 PUSH4 0xB97BC86 EQ PUSH2 0x43E JUMPI DUP1 PUSH4 0xD668087 EQ PUSH2 0x446 JUMPI JUMPDEST PUSH1 0x0 DUP1 REVERT JUMPDEST PUSH2 0x3F3 PUSH2 0xA1D JUMP JUMPDEST PUSH1 0x40 DUP1 MLOAD PUSH1 0x1 PUSH1 0x1 PUSH1 0xA0 SHL SUB SWAP1 SWAP3 AND DUP3 MSTORE MLOAD SWAP1 DUP2 SWAP1 SUB PUSH1 0x20 ADD SWAP1 RETURN JUMPDEST PUSH2 0x42C PUSH1 0x4 DUP1 CALLDATASIZE SUB PUSH1 0x20 DUP2 LT ISZERO PUSH2 0x425 JUMPI PUSH1 0x0 DUP1 REVERT JUMPDEST POP CALLDATALOAD PUSH2 0xA41 JUMP JUMPDEST PUSH1 0x40 DUP1 MLOAD SWAP2 DUP3 MSTORE MLOAD SWAP1 DUP2 SWAP1 SUB PUSH1 0x20 ADD SWAP1 RETURN JUMPDEST PUSH2 0x42C PUSH2 0xBC2 JUMP JUMPDEST PUSH2 0x42C PUSH2 0xBE6 JUMP JUMPDEST PUSH2 0x3F3 PUSH2 0xC0A JUMP JUMPDEST PUSH2 0x42C PUSH1 0x4 DUP1 CALLDATASIZE SUB PUSH1 0x20 DUP2 LT ISZERO PUSH2 0x46C JUMPI PUSH1 0x0 DUP1 REVERT JUMPDEST POP CALLDATALOAD PUSH2 0xC2E JUMP JUMPDEST PUSH2 0x47B PUSH2 0xC47 JUMP JUMPDEST STOP JUMPDEST PUSH2 0x3F3 PUSH2 0xF96 JUMP JUMPDEST PUSH2 0x42C PUSH2 0xFA6 JUMP JUMPDEST PUSH2 0x47B PUSH2 0x1046 JUMP JUMPDEST PUSH2 0x47B PUSH2 0x10B4 JUMP JUMPDEST PUSH2 0x4A5 PUSH2 0x1117 JUMP JUMPDEST PUSH1 0x40 MLOAD DUP1 DUP1 PUSH1 0x20 ADD DUP1 PUSH1 0x20 ADD DUP4 DUP2 SUB DUP4 MSTORE DUP6 DUP2 DUP2 MLOAD DUP2 MSTORE PUSH1 0x20 ADD SWAP2 POP DUP1 MLOAD SWAP1 PUSH1 0x20 ADD SWAP1 PUSH1 0x20 MUL DUP1 DUP4 DUP4 PUSH1 0x0 JUMPDEST DUP4 DUP2 LT ISZERO PUSH2 0x4E9 JUMPI DUP2 DUP2 ADD MLOAD DUP4 DUP3 ADD MSTORE PUSH1 0x20 ADD PUSH2 0x4D1 JUMP JUMPDEST POP POP POP POP SWAP1 POP ADD DUP4 DUP2 SUB DUP3 MSTORE DUP5 DUP2 DUP2 MLOAD DUP2 MSTORE PUSH1 0x20 ADD SWAP2 POP DUP1 MLOAD SWAP1 PUSH1 0x20 ADD SWAP1 PUSH1 0x20 MUL DUP1 DUP4 DUP4 PUSH1 0x0 JUMPDEST DUP4 DUP2 LT ISZERO PUSH2 0x528 JUMPI DUP2 DUP2 ADD MLOAD DUP4 DUP3 ADD MSTORE PUSH1 0x20 ADD PUSH2 0x510 JUMP JUMPDEST POP POP POP POP SWAP1 POP ADD SWAP5 POP POP POP POP POP PUSH1 0x40 MLOAD DUP1 SWAP2 SUB SWAP1 RETURN JUMPDEST PUSH2 0x47B PUSH1 0x4 DUP1 CALLDATASIZE SUB PUSH2 0x640 DUP2 LT ISZERO PUSH2 0x555 JUMPI PUSH1 0x0 DUP1 REVERT JUMPDEST POP PUSH2 0x320 DUP2 ADD PUSH2 0x125C JUMP JUMPDEST PUSH2 0x58C PUSH1 0x4 DUP1 CALLDATASIZE SUB PUSH1 0x40 DUP2 LT ISZERO PUSH2 0x576 JUMPI PUSH1 0x0 DUP1 REVERT JUMPDEST POP PUSH1 0x1 PUSH1 0x1 PUSH1 0xA0 SHL SUB DUP2 CALLDATALOAD AND SWAP1 PUSH1 0x20 ADD CALLDATALOAD PUSH2 0x13B1 JUMP JUMPDEST PUSH1 0x40 DUP1 MLOAD SWAP2 ISZERO ISZERO DUP3 MSTORE MLOAD SWAP1 DUP2 SWAP1 SUB PUSH1 0x20 ADD SWAP1 RETURN JUMPDEST PUSH2 0x58C PUSH2 0x1543 JUMP JUMPDEST PUSH2 0x42C PUSH2 0x1567 JUMP JUMPDEST PUSH2 0x42C PUSH2 0x158B JUMP JUMPDEST PUSH2 0x42C PUSH1 0x4 DUP1 CALLDATASIZE SUB PUSH1 0x20 DUP2 LT ISZERO PUSH2 0x5CE JUMPI PUSH1 0x0 DUP1 REVERT JUMPDEST POP CALLDATALOAD PUSH1 0x1 PUSH1 0x1 PUSH1 0xA0 SHL SUB AND PUSH2 0x15AF JUMP JUMPDEST PUSH2 0x47B PUSH1 0x4 DUP1 CALLDATASIZE SUB PUSH1 0x60 DUP2 LT ISZERO PUSH2 0x5F4 JUMPI PUSH1 0x0 DUP1 REVERT JUMPDEST POP PUSH1 0x1 PUSH1 0x1 PUSH1 0xA0 SHL SUB DUP2 CALLDATALOAD DUP2 AND SWAP2 PUSH1 0x20 DUP2 ADD CALLDATALOAD SWAP2 PUSH1 0x40 SWAP1 SWAP2 ADD CALLDATALOAD AND PUSH2 0x16C6 JUMP JUMPDEST PUSH2 0x47B PUSH2 0x1815 JUMP JUMPDEST PUSH2 0x42C PUSH2 0x191E JUMP JUMPDEST PUSH2 0x42C PUSH2 0x1942 JUMP JUMPDEST PUSH2 0x47B PUSH2 0x1966 JUMP JUMPDEST PUSH2 0x42C PUSH2 0x1A24 JUMP JUMPDEST PUSH2 0x42C PUSH1 0x4 DUP1 CALLDATASIZE SUB PUSH1 0x40 DUP2 LT ISZERO PUSH2 0x652 JUMPI PUSH1 0x0 DUP1 REVERT JUMPDEST POP PUSH1 0x1 PUSH1 0x1 PUSH1 0xA0 SHL SUB DUP2 CALLDATALOAD AND SWAP1 PUSH1 0x20 ADD CALLDATALOAD PUSH2 0x1A48 JUMP JUMPDEST PUSH2 0x42C PUSH2 0x1B5C JUMP JUMPDEST PUSH2 0x47B PUSH1 0x4 DUP1 CALLDATASIZE SUB PUSH1 0x40 DUP2 LT ISZERO PUSH2 0x686 JUMPI PUSH1 0x0 DUP1 REVERT JUMPDEST POP DUP1 CALLDATALOAD SWAP1 PUSH1 0x20 ADD CALLDATALOAD PUSH2 0x1B80 JUMP JUMPDEST PUSH2 0x69B PUSH2 0x2243 JUMP JUMPDEST PUSH1 0x40 DUP1 MLOAD SWAP3 DUP4 MSTORE PUSH1 0x20 DUP4 ADD SWAP2 SWAP1 SWAP2 MSTORE DUP1 MLOAD SWAP2 DUP3 SWAP1 SUB ADD SWAP1 RETURN JUMPDEST PUSH2 0x58C PUSH2 0x225E JUMP JUMPDEST PUSH2 0x42C PUSH2 0x226E JUMP JUMPDEST PUSH2 0x6F0 PUSH1 0x4 DUP1 CALLDATASIZE SUB PUSH1 0x40 DUP2 LT ISZERO PUSH2 0x6DA JUMPI PUSH1 0x0 DUP1 REVERT JUMPDEST POP PUSH1 0x1 PUSH1 0x1 PUSH1 0xA0 SHL SUB DUP2 CALLDATALOAD AND SWAP1 PUSH1 0x20 ADD CALLDATALOAD PUSH2 0x2274 JUMP JUMPDEST PUSH1 0x40 DUP1 MLOAD SWAP10 DUP11 MSTORE PUSH1 0x20 DUP11 ADD SWAP9 SWAP1 SWAP9 MSTORE DUP9 DUP9 ADD SWAP7 SWAP1 SWAP7 MSTORE PUSH1 0x60 DUP9 ADD SWAP5 SWAP1 SWAP5 MSTORE PUSH1 0x80 DUP8 ADD SWAP3 SWAP1 SWAP3 MSTORE PUSH1 0xA0 DUP7 ADD MSTORE PUSH1 0xC0 DUP6 ADD MSTORE ISZERO ISZERO PUSH1 0xE0 DUP5 ADD MSTORE ISZERO ISZERO PUSH2 0x100 DUP4 ADD MSTORE MLOAD SWAP1 DUP2 SWAP1 SUB PUSH2 0x120 ADD SWAP1 RETURN JUMPDEST PUSH2 0x47B PUSH1 0x4 DUP1 CALLDATASIZE SUB PUSH1 0x40 DUP2 LT ISZERO PUSH2 0x751 JUMPI PUSH1 0x0 DUP1 REVERT JUMPDEST POP DUP1 CALLDATALOAD SWAP1 PUSH1 0x20 ADD CALLDATALOAD PUSH2 0x22E2 JUMP JUMPDEST PUSH2 0x47B PUSH2 0x248B JUMP JUMPDEST PUSH2 0x47B PUSH2 0x2602 JUMP JUMPDEST PUSH2 0x3F3 PUSH2 0x2699 JUMP JUMPDEST PUSH2 0x42C PUSH2 0x26A8 JUMP JUMPDEST PUSH2 0x69B PUSH2 0x2742 JUMP JUMPDEST PUSH2 0x42C PUSH2 0x2755 JUMP JUMPDEST PUSH2 0x69B PUSH1 0x4 DUP1 CALLDATASIZE SUB PUSH1 0x20 DUP2 LT ISZERO PUSH2 0x7A4 JUMPI PUSH1 0x0 DUP1 REVERT JUMPDEST POP CALLDATALOAD PUSH2 0x275A JUMP JUMPDEST PUSH2 0x58C PUSH2 0x2778 JUMP JUMPDEST PUSH2 0x42C PUSH2 0x2788 JUMP JUMPDEST PUSH2 0x58C PUSH2 0x278D JUMP JUMPDEST PUSH2 0x7CB PUSH2 0x279D JUMP JUMPDEST PUSH1 0x40 DUP1 MLOAD PUSH1 0x20 DUP1 DUP3 MSTORE DUP4 MLOAD DUP2 DUP4 ADD MSTORE DUP4 MLOAD SWAP2 SWAP3 DUP4 SWAP3 SWAP1 DUP4 ADD SWAP2 DUP6 DUP2 ADD SWAP2 MUL DUP1 DUP4 DUP4 PUSH1 0x0 JUMPDEST DUP4 DUP2 LT ISZERO PUSH2 0x807 JUMPI DUP2 DUP2 ADD MLOAD DUP4 DUP3 ADD MSTORE PUSH1 0x20 ADD PUSH2 0x7EF JUMP JUMPDEST POP POP POP POP SWAP1 POP ADD SWAP3 POP POP POP PUSH1 0x40 MLOAD DUP1 SWAP2 SUB SWAP1 RETURN JUMPDEST PUSH2 0x42C PUSH2 0x2824 JUMP JUMPDEST PUSH2 0x47B PUSH1 0x4 DUP1 CALLDATASIZE SUB PUSH1 0x20 DUP2 LT ISZERO PUSH2 0x839 JUMPI PUSH1 0x0 DUP1 REVERT JUMPDEST POP CALLDATALOAD PUSH2 0x2848 JUMP JUMPDEST PUSH2 0x848 PUSH2 0x2C72 JUMP JUMPDEST PUSH1 0x40 DUP1 MLOAD PUSH1 0x20 DUP1 DUP3 MSTORE DUP4 MLOAD DUP2 DUP4 ADD MSTORE DUP4 MLOAD SWAP2 SWAP3 DUP4 SWAP3 SWAP1 DUP4 ADD SWAP2 DUP6 ADD SWAP1 DUP1 DUP4 DUP4 PUSH1 0x0 JUMPDEST DUP4 DUP2 LT ISZERO PUSH2 0x882 JUMPI DUP2 DUP2 ADD MLOAD DUP4 DUP3 ADD MSTORE PUSH1 0x20 ADD PUSH2 0x86A JUMP JUMPDEST POP POP POP POP SWAP1 POP SWAP1 DUP2 ADD SWAP1 PUSH1 0x1F AND DUP1 ISZERO PUSH2 0x8AF JUMPI DUP1 DUP3 SUB DUP1 MLOAD PUSH1 0x1 DUP4 PUSH1 0x20 SUB PUSH2 0x100 EXP SUB NOT AND DUP2 MSTORE PUSH1 0x20 ADD SWAP2 POP JUMPDEST POP SWAP3 POP POP POP PUSH1 0x40 MLOAD DUP1 SWAP2 SUB SWAP1 RETURN JUMPDEST PUSH2 0x47B PUSH2 0x2D00 JUMP JUMPDEST PUSH2 0x42C PUSH2 0x311B JUMP JUMPDEST PUSH2 0x42C PUSH2 0x325B JUMP JUMPDEST PUSH2 0x3F3 PUSH2 0x32A6 JUMP JUMPDEST PUSH2 0x42C PUSH2 0x32B5 JUMP JUMPDEST PUSH2 0x58C PUSH2 0x32BB JUMP JUMPDEST PUSH2 0x42C PUSH1 0x4 DUP1 CALLDATASIZE SUB PUSH1 0x20 DUP2 LT ISZERO PUSH2 0x903 JUMPI PUSH1 0x0 DUP1 REVERT JUMPDEST POP CALLDATALOAD PUSH2 0x32CB JUMP JUMPDEST PUSH2 0x927 PUSH1 0x4 DUP1 CALLDATASIZE SUB PUSH1 0x20 DUP2 LT ISZERO PUSH2 0x920 JUMPI PUSH1 0x0 DUP1 REVERT JUMPDEST POP CALLDATALOAD PUSH2 0x32DE JUMP JUMPDEST PUSH1 0x40 DUP1 MLOAD PUSH1 0x1 PUSH1 0x1 PUSH1 0xA0 SHL SUB SWAP1 SWAP4 AND DUP4 MSTORE PUSH1 0x20 DUP4 ADD SWAP2 SWAP1 SWAP2 MSTORE DUP1 MLOAD SWAP2 DUP3 SWAP1 SUB ADD SWAP1 RETURN JUMPDEST PUSH2 0x42C PUSH2 0x3316 JUMP JUMPDEST PUSH2 0x3F3 PUSH2 0x333A JUMP JUMPDEST PUSH2 0x42C PUSH2 0x335E JUMP JUMPDEST PUSH2 0x42C PUSH2 0x3382 JUMP JUMPDEST PUSH2 0x69B PUSH1 0x4 DUP1 CALLDATASIZE SUB PUSH1 0x20 DUP2 LT ISZERO PUSH2 0x980 JUMPI PUSH1 0x0 DUP1 REVERT JUMPDEST POP CALLDATALOAD PUSH2 0x3399 JUMP JUMPDEST PUSH2 0x98F PUSH2 0x33AD JUMP JUMPDEST PUSH1 0x40 DUP1 MLOAD PUSH1 0xFF SWAP1 SWAP3 AND DUP3 MSTORE MLOAD SWAP1 DUP2 SWAP1 SUB PUSH1 0x20 ADD SWAP1 RETURN JUMPDEST PUSH2 0x69B PUSH1 0x4 DUP1 CALLDATASIZE SUB PUSH1 0x20 DUP2 LT ISZERO PUSH2 0x9BB JUMPI PUSH1 0x0 DUP1 REVERT JUMPDEST POP CALLDATALOAD PUSH2 0x3430 JUMP JUMPDEST PUSH2 0x47B PUSH1 0x4 DUP1 CALLDATASIZE SUB PUSH1 0x20 DUP2 LT ISZERO PUSH2 0x9D8 JUMPI PUSH1 0x0 DUP1 REVERT JUMPDEST POP CALLDATALOAD PUSH1 0x1 PUSH1 0x1 PUSH1 0xA0 SHL SUB AND PUSH2 0x345E JUMP JUMPDEST PUSH2 0x42C PUSH2 0x3572 JUMP JUMPDEST PUSH2 0x3F3 PUSH2 0x3578 JUMP JUMPDEST PUSH2 0x927 PUSH1 0x4 DUP1 CALLDATASIZE SUB PUSH1 0x20 DUP2 LT ISZERO PUSH2 0xA0E JUMPI PUSH1 0x0 DUP1 REVERT JUMPDEST POP CALLDATALOAD PUSH2 0x3587 JUMP JUMPDEST PUSH2 0x42C PUSH2 0x3597 JUMP JUMPDEST PUSH32 0x0 DUP2 JUMP JUMPDEST PUSH1 0x3 SLOAD PUSH1 0x0 SWAP1 DUP2 SWAP1 PUSH1 0x1 PUSH1 0x1 PUSH1 0xA0 SHL SUB AND PUSH4 0xD06CA61F DUP5 PUSH2 0xA60 PUSH2 0x279D JUMP JUMPDEST PUSH1 0x40 MLOAD DUP4 PUSH4 0xFFFFFFFF AND PUSH1 0xE0 SHL DUP2 MSTORE PUSH1 0x4 ADD DUP1 DUP4 DUP2 MSTORE PUSH1 0x20 ADD DUP1 PUSH1 0x20 ADD DUP3 DUP2 SUB DUP3 MSTORE DUP4 DUP2 DUP2 MLOAD DUP2 MSTORE PUSH1 0x20 ADD SWAP2 POP DUP1 MLOAD SWAP1 PUSH1 0x20 ADD SWAP1 PUSH1 0x20 MUL DUP1 DUP4 DUP4 PUSH1 0x0 JUMPDEST DUP4 DUP2 LT ISZERO PUSH2 0xAB5 JUMPI DUP2 DUP2 ADD MLOAD DUP4 DUP3 ADD MSTORE PUSH1 0x20 ADD PUSH2 0xA9D JUMP JUMPDEST POP POP POP POP SWAP1 POP ADD SWAP4 POP POP POP POP PUSH1 0x0 PUSH1 0x40 MLOAD DUP1 DUP4 SUB DUP2 DUP7 DUP1 EXTCODESIZE ISZERO DUP1 ISZERO PUSH2 0xAD9 JUMPI PUSH1 0x0 DUP1 REVERT JUMPDEST POP GAS STATICCALL ISZERO DUP1 ISZERO PUSH2 0xAED JUMPI RETURNDATASIZE PUSH1 0x0 DUP1 RETURNDATACOPY RETURNDATASIZE PUSH1 0x0 REVERT JUMPDEST POP POP POP POP PUSH1 0x40 MLOAD RETURNDATASIZE PUSH1 0x0 DUP3 RETURNDATACOPY PUSH1 0x1F RETURNDATASIZE SWAP1 DUP2 ADD PUSH1 0x1F NOT AND DUP3 ADD PUSH1 0x40 MSTORE PUSH1 0x20 DUP2 LT ISZERO PUSH2 0xB16 JUMPI PUSH1 0x0 DUP1 REVERT JUMPDEST DUP2 ADD SWAP1 DUP1 DUP1 MLOAD PUSH1 0x40 MLOAD SWAP4 SWAP3 SWAP2 SWAP1 DUP5 PUSH5 0x100000000 DUP3 GT ISZERO PUSH2 0xB36 JUMPI PUSH1 0x0 DUP1 REVERT JUMPDEST SWAP1 DUP4 ADD SWAP1 PUSH1 0x20 DUP3 ADD DUP6 DUP2 GT ISZERO PUSH2 0xB4B JUMPI PUSH1 0x0 DUP1 REVERT JUMPDEST DUP3 MLOAD DUP7 PUSH1 0x20 DUP3 MUL DUP4 ADD GT PUSH5 0x100000000 DUP3 GT OR ISZERO PUSH2 0xB68 JUMPI PUSH1 0x0 DUP1 REVERT JUMPDEST DUP3 MSTORE POP DUP2 MLOAD PUSH1 0x20 SWAP2 DUP3 ADD SWAP3 DUP3 ADD SWAP2 MUL DUP1 DUP4 DUP4 PUSH1 0x0 JUMPDEST DUP4 DUP2 LT ISZERO PUSH2 0xB95 JUMPI DUP2 DUP2 ADD MLOAD DUP4 DUP3 ADD MSTORE PUSH1 0x20 ADD PUSH2 0xB7D JUMP JUMPDEST POP POP POP POP SWAP1 POP ADD PUSH1 0x40 MSTORE POP POP POP SWAP1 POP DUP1 PUSH1 0x1 DUP2 MLOAD DUP2 LT PUSH2 0xBB1 JUMPI INVALID JUMPDEST PUSH1 0x20 MUL PUSH1 0x20 ADD ADD MLOAD SWAP2 POP POP JUMPDEST SWAP2 SWAP1 POP JUMP JUMPDEST PUSH32 0x0 DUP2 JUMP JUMPDEST PUSH32 0x0 DUP2 JUMP JUMPDEST PUSH32 0x0 DUP2 JUMP JUMPDEST PUSH1 0x0 PUSH2 0xC41 PUSH2 0xC3B PUSH2 0x35A0 JUMP JUMPDEST DUP4 PUSH2 0x1A48 JUMP JUMPDEST SWAP3 SWAP2 POP POP JUMP JUMPDEST PUSH1 0xD SLOAD PUSH1 0x1 PUSH1 0x1 PUSH1 0xA0 SHL SUB AND PUSH2 0xC5B PUSH2 0x35A0 JUMP JUMPDEST PUSH1 0x1 PUSH1 0x1 PUSH1 0xA0 SHL SUB AND EQ PUSH2 0xCA0 JUMPI PUSH1 0x40 MLOAD PUSH3 0x461BCD PUSH1 0xE5 SHL DUP2 MSTORE PUSH1 0x4 ADD DUP1 DUP1 PUSH1 0x20 ADD DUP3 DUP2 SUB DUP3 MSTORE PUSH1 0x21 DUP2 MSTORE PUSH1 0x20 ADD DUP1 PUSH2 0x49FA PUSH1 0x21 SWAP2 CODECOPY PUSH1 0x40 ADD SWAP2 POP POP PUSH1 0x40 MLOAD DUP1 SWAP2 SUB SWAP1 REVERT JUMPDEST PUSH32 0x0 PUSH32 0x0 PUSH32 0x0 ADD ADD TIMESTAMP LT ISZERO PUSH2 0xD43 JUMPI PUSH1 0x40 MLOAD PUSH3 0x461BCD PUSH1 0xE5 SHL DUP2 MSTORE PUSH1 0x4 ADD DUP1 DUP1 PUSH1 0x20 ADD DUP3 DUP2 SUB DUP3 MSTORE PUSH1 0x2C DUP2 MSTORE PUSH1 0x20 ADD DUP1 PUSH2 0x4987 PUSH1 0x2C SWAP2 CODECOPY PUSH1 0x40 ADD SWAP2 POP POP PUSH1 0x40 MLOAD DUP1 SWAP2 SUB SWAP1 REVERT JUMPDEST PUSH32 0x0 ISZERO PUSH2 0xDC2 JUMPI PUSH2 0xD71 PUSH2 0xFA6 JUMP JUMPDEST PUSH2 0xDC2 JUMPI PUSH1 0x40 DUP1 MLOAD PUSH3 0x461BCD PUSH1 0xE5 SHL DUP2 MSTORE PUSH1 0x20 PUSH1 0x4 DUP3 ADD MSTORE PUSH1 0x1E PUSH1 0x24 DUP3 ADD MSTORE PUSH32 0x30333631204254432052657761726473206E6F7420617661696C61626C650000 PUSH1 0x44 DUP3 ADD MSTORE SWAP1 MLOAD SWAP1 DUP2 SWAP1 SUB PUSH1 0x64 ADD SWAP1 REVERT JUMPDEST PUSH1 0x8 SLOAD ISZERO PUSH2 0xE17 JUMPI PUSH1 0x9 SLOAD PUSH2 0xE17 JUMPI PUSH1 0x40 DUP1 MLOAD PUSH3 0x461BCD PUSH1 0xE5 SHL DUP2 MSTORE PUSH1 0x20 PUSH1 0x4 DUP3 ADD MSTORE PUSH1 0x16 PUSH1 0x24 DUP3 ADD MSTORE PUSH22 0xC0CCD8C88199A5C9CDD081CDA1BDD5B19081CDBDC9D PUSH1 0x52 SHL PUSH1 0x44 DUP3 ADD MSTORE SWAP1 MLOAD SWAP1 DUP2 SWAP1 SUB PUSH1 0x64 ADD SWAP1 REVERT JUMPDEST PUSH32 0x0 ISZERO PUSH2 0xE9E JUMPI PUSH1 0x0 PUSH2 0xE47 PUSH2 0x311B JUMP JUMPDEST SWAP1 POP PUSH2 0xE73 DUP2 PUSH32 0x0 PUSH2 0x35A4 JUMP JUMPDEST PUSH2 0xE9C JUMPI PUSH32 0x0 PUSH1 0xC SSTORE JUMPDEST POP JUMPDEST PUSH1 0x9 SLOAD PUSH1 0x0 SWAP1 PUSH1 0x19 LT PUSH2 0xEB3 JUMPI PUSH1 0x9 SLOAD PUSH2 0xEB6 JUMP JUMPDEST PUSH1 0x19 JUMPDEST SWAP1 POP PUSH1 0x0 JUMPDEST DUP2 DUP2 LT ISZERO PUSH2 0xF47 JUMPI DUP1 PUSH1 0x1 ADD PUSH1 0x7 PUSH1 0x0 PUSH1 0x9 DUP5 DUP2 SLOAD DUP2 LT PUSH2 0xED8 JUMPI INVALID JUMPDEST PUSH1 0x0 SWAP2 DUP3 MSTORE PUSH1 0x20 DUP1 DUP4 KECCAK256 PUSH1 0x2 SWAP1 SWAP3 MUL SWAP1 SWAP2 ADD SLOAD PUSH1 0x1 PUSH1 0x1 PUSH1 0xA0 SHL SUB AND DUP4 MSTORE DUP3 ADD SWAP3 SWAP1 SWAP3 MSTORE PUSH1 0x40 ADD SWAP1 KECCAK256 PUSH1 0x9 DUP1 SLOAD DUP5 SWAP1 DUP2 LT PUSH2 0xF0F JUMPI INVALID JUMPDEST SWAP1 PUSH1 0x0 MSTORE PUSH1 0x20 PUSH1 0x0 KECCAK256 SWAP1 PUSH1 0x2 MUL ADD PUSH1 0x1 ADD SLOAD DUP2 SLOAD DUP2 LT PUSH2 0xF2B JUMPI INVALID JUMPDEST PUSH1 0x0 SWAP2 DUP3 MSTORE PUSH1 0x20 SWAP1 SWAP2 KECCAK256 PUSH1 0x6 PUSH1 0x8 SWAP1 SWAP3 MUL ADD ADD SSTORE PUSH1 0x1 ADD PUSH2 0xEBB JUMP JUMPDEST POP PUSH1 0xD DUP1 SLOAD PUSH1 0xFF PUSH1 0xB0 SHL NOT PUSH1 0xFF PUSH1 0xA8 SHL NOT SWAP1 SWAP2 AND PUSH1 0x1 PUSH1 0xA8 SHL OR AND PUSH1 0x1 PUSH1 0xB0 SHL OR SWAP1 SSTORE PUSH1 0x40 MLOAD PUSH32 0xE8EF7A17C92D025D9C1EAD1C6B3CA3B44D3283D0EE954F615C5C476911F629A5 SWAP1 PUSH1 0x0 SWAP1 LOG1 POP JUMP JUMPDEST PUSH1 0x3 SLOAD PUSH1 0x1 PUSH1 0x1 PUSH1 0xA0 SHL SUB AND JUMPDEST SWAP1 JUMP JUMPDEST PUSH1 0x0 PUSH32 0x0 PUSH1 0x1 PUSH1 0x1 PUSH1 0xA0 SHL SUB AND PUSH4 0x70A08231 ADDRESS PUSH1 0x40 MLOAD DUP3 PUSH4 0xFFFFFFFF AND PUSH1 0xE0 SHL DUP2 MSTORE PUSH1 0x4 ADD DUP1 DUP3 PUSH1 0x1 PUSH1 0x1 PUSH1 0xA0 SHL SUB AND DUP2 MSTORE PUSH1 0x20 ADD SWAP2 POP POP PUSH1 0x20 PUSH1 0x40 MLOAD DUP1 DUP4 SUB DUP2 DUP7 DUP1 EXTCODESIZE ISZERO DUP1 ISZERO PUSH2 0x1015 JUMPI PUSH1 0x0 DUP1 REVERT JUMPDEST POP GAS STATICCALL ISZERO DUP1 ISZERO PUSH2 0x1029 JUMPI RETURNDATASIZE PUSH1 0x0 DUP1 RETURNDATACOPY RETURNDATASIZE PUSH1 0x0 REVERT JUMPDEST POP POP POP POP PUSH1 0x40 MLOAD RETURNDATASIZE PUSH1 0x20 DUP2 LT ISZERO PUSH2 0x103F JUMPI PUSH1 0x0 DUP1 REVERT JUMPDEST POP MLOAD SWAP1 POP SWAP1 JUMP JUMPDEST PUSH1 0xD SLOAD PUSH1 0x1 PUSH1 0x1 PUSH1 0xA0 SHL SUB AND PUSH2 0x105A PUSH2 0x35A0 JUMP JUMPDEST PUSH1 0x1 PUSH1 0x1 PUSH1 0xA0 SHL SUB AND EQ PUSH2 0x109F JUMPI PUSH1 0x40 MLOAD PUSH3 0x461BCD PUSH1 0xE5 SHL DUP2 MSTORE PUSH1 0x4 ADD DUP1 DUP1 PUSH1 0x20 ADD DUP3 DUP2 SUB DUP3 MSTORE PUSH1 0x21 DUP2 MSTORE PUSH1 0x20 ADD DUP1 PUSH2 0x49FA PUSH1 0x21 SWAP2 CODECOPY PUSH1 0x40 ADD SWAP2 POP POP PUSH1 0x40 MLOAD DUP1 SWAP2 SUB SWAP1 REVERT JUMPDEST PUSH1 0xD DUP1 SLOAD PUSH1 0xFF PUSH1 0xA0 SHL NOT AND PUSH1 0x1 PUSH1 0xA0 SHL OR SWAP1 SSTORE JUMP JUMPDEST PUSH1 0xD SLOAD PUSH1 0x1 PUSH1 0x1 PUSH1 0xA0 SHL SUB AND PUSH2 0x10C8 PUSH2 0x35A0 JUMP JUMPDEST PUSH1 0x1 PUSH1 0x1 PUSH1 0xA0 SHL SUB AND EQ PUSH2 0x110D JUMPI PUSH1 0x40 MLOAD PUSH3 0x461BCD PUSH1 0xE5 SHL DUP2 MSTORE PUSH1 0x4 ADD DUP1 DUP1 PUSH1 0x20 ADD DUP3 DUP2 SUB DUP3 MSTORE PUSH1 0x21 DUP2 MSTORE PUSH1 0x20 ADD DUP1 PUSH2 0x49FA PUSH1 0x21 SWAP2 CODECOPY PUSH1 0x40 ADD SWAP2 POP POP PUSH1 0x40 MLOAD DUP1 SWAP2 SUB SWAP1 REVERT JUMPDEST PUSH2 0x1115 PUSH2 0x3612 JUMP JUMPDEST JUMP JUMPDEST PUSH1 0x60 DUP1 PUSH1 0x0 PUSH1 0x8 DUP1 SLOAD SWAP1 POP PUSH8 0xFFFFFFFFFFFFFFFF DUP2 GT DUP1 ISZERO PUSH2 0x1138 JUMPI PUSH1 0x0 DUP1 REVERT JUMPDEST POP PUSH1 0x40 MLOAD SWAP1 DUP1 DUP3 MSTORE DUP1 PUSH1 0x20 MUL PUSH1 0x20 ADD DUP3 ADD PUSH1 0x40 MSTORE DUP1 ISZERO PUSH2 0x1162 JUMPI DUP2 PUSH1 0x20 ADD PUSH1 0x20 DUP3 MUL DUP1 CALLDATASIZE DUP4 CALLDATACOPY ADD SWAP1 POP JUMPDEST POP PUSH1 0x8 SLOAD SWAP1 SWAP2 POP PUSH1 0x0 SWAP1 PUSH8 0xFFFFFFFFFFFFFFFF DUP2 GT DUP1 ISZERO PUSH2 0x1182 JUMPI PUSH1 0x0 DUP1 REVERT JUMPDEST POP PUSH1 0x40 MLOAD SWAP1 DUP1 DUP3 MSTORE DUP1 PUSH1 0x20 MUL PUSH1 0x20 ADD DUP3 ADD PUSH1 0x40 MSTORE DUP1 ISZERO PUSH2 0x11AC JUMPI DUP2 PUSH1 0x20 ADD PUSH1 0x20 DUP3 MUL DUP1 CALLDATASIZE DUP4 CALLDATACOPY ADD SWAP1 POP JUMPDEST POP SWAP1 POP PUSH1 0x0 JUMPDEST PUSH1 0x8 SLOAD DUP2 LT ISZERO PUSH2 0x1252 JUMPI PUSH1 0x8 DUP2 DUP2 SLOAD DUP2 LT PUSH2 0x11C9 JUMPI INVALID JUMPDEST PUSH1 0x0 SWAP2 DUP3 MSTORE PUSH1 0x20 SWAP1 SWAP2 KECCAK256 PUSH1 0x2 SWAP1 SWAP2 MUL ADD SLOAD DUP4 MLOAD PUSH1 0x1 PUSH1 0x1 PUSH1 0xA0 SHL SUB SWAP1 SWAP2 AND SWAP1 DUP5 SWAP1 DUP4 SWAP1 DUP2 LT PUSH2 0x11F4 JUMPI INVALID JUMPDEST PUSH1 0x20 MUL PUSH1 0x20 ADD ADD SWAP1 PUSH1 0x1 PUSH1 0x1 PUSH1 0xA0 SHL SUB AND SWAP1 DUP2 PUSH1 0x1 PUSH1 0x1 PUSH1 0xA0 SHL SUB AND DUP2 MSTORE POP POP PUSH1 0x8 DUP2 DUP2 SLOAD DUP2 LT PUSH2 0x1221 JUMPI INVALID JUMPDEST SWAP1 PUSH1 0x0 MSTORE PUSH1 0x20 PUSH1 0x0 KECCAK256 SWAP1 PUSH1 0x2 MUL ADD PUSH1 0x1 ADD SLOAD DUP3 DUP3 DUP2 MLOAD DUP2 LT PUSH2 0x123F JUMPI INVALID JUMPDEST PUSH1 0x20 SWAP1 DUP2 MUL SWAP2 SWAP1 SWAP2 ADD ADD MSTORE PUSH1 0x1 ADD PUSH2 0x11B2 JUMP JUMPDEST POP SWAP1 SWAP3 POP SWAP1 POP SWAP1 SWAP2 JUMP JUMPDEST PUSH1 0xD SLOAD PUSH1 0x1 PUSH1 0x1 PUSH1 0xA0 SHL SUB AND PUSH2 0x1270 PUSH2 0x35A0 JUMP JUMPDEST PUSH1 0x1 PUSH1 0x1 PUSH1 0xA0 SHL SUB AND EQ PUSH2 0x12B5 JUMPI PUSH1 0x40 MLOAD PUSH3 0x461BCD PUSH1 0xE5 SHL DUP2 MSTORE PUSH1 0x4 ADD DUP1 DUP1 PUSH1 0x20 ADD DUP3 DUP2 SUB DUP3 MSTORE PUSH1 0x21 DUP2 MSTORE PUSH1 0x20 ADD DUP1 PUSH2 0x49FA PUSH1 0x21 SWAP2 CODECOPY PUSH1 0x40 ADD SWAP2 POP POP PUSH1 0x40 MLOAD DUP1 SWAP2 SUB SWAP1 REVERT JUMPDEST PUSH1 0x0 JUMPDEST PUSH1 0x19 DUP2 LT ISZERO PUSH2 0x1383 JUMPI PUSH1 0x0 DUP4 DUP3 PUSH1 0x19 DUP2 LT PUSH2 0x12CF JUMPI INVALID JUMPDEST PUSH1 0x20 MUL ADD CALLDATALOAD PUSH1 0x1 PUSH1 0x1 PUSH1 0xA0 SHL SUB AND PUSH1 0x1 PUSH1 0x1 PUSH1 0xA0 SHL SUB AND EQ ISZERO PUSH2 0x12F1 JUMPI PUSH2 0x1383 JUMP JUMPDEST PUSH1 0x9 PUSH1 0x40 MLOAD DUP1 PUSH1 0x40 ADD PUSH1 0x40 MSTORE DUP1 DUP6 DUP5 PUSH1 0x19 DUP2 LT PUSH2 0x130A JUMPI INVALID JUMPDEST PUSH1 0x20 MUL ADD CALLDATALOAD PUSH1 0x1 PUSH1 0x1 PUSH1 0xA0 SHL SUB AND PUSH1 0x1 PUSH1 0x1 PUSH1 0xA0 SHL SUB AND DUP2 MSTORE PUSH1 0x20 ADD DUP5 DUP5 PUSH1 0x19 DUP2 LT PUSH2 0x1332 JUMPI INVALID JUMPDEST PUSH1 0x20 SWAP1 DUP2 MUL SWAP2 SWAP1 SWAP2 ADD CALLDATALOAD SWAP1 SWAP2 MSTORE DUP3 SLOAD PUSH1 0x1 DUP1 DUP3 ADD DUP6 SSTORE PUSH1 0x0 SWAP5 DUP6 MSTORE SWAP4 DUP3 SWAP1 KECCAK256 DUP4 MLOAD PUSH1 0x2 SWAP1 SWAP3 MUL ADD DUP1 SLOAD PUSH1 0x1 PUSH1 0x1 PUSH1 0xA0 SHL SUB NOT AND PUSH1 0x1 PUSH1 0x1 PUSH1 0xA0 SHL SUB SWAP1 SWAP3 AND SWAP2 SWAP1 SWAP2 OR DUP2 SSTORE SWAP2 ADD MLOAD SWAP1 DUP3 ADD SSTORE ADD PUSH2 0x12B8 JUMP JUMPDEST POP PUSH1 0x40 MLOAD PUSH32 0x5C243CC6E4F210BF2DD86B8ECA0CA891D3F8AD2EB09FBF91735EB348BC199C7E SWAP1 PUSH1 0x0 SWAP1 LOG1 POP POP JUMP JUMPDEST PUSH1 0x1 PUSH1 0x1 PUSH1 0xA0 SHL SUB DUP3 AND PUSH1 0x0 SWAP1 DUP2 MSTORE PUSH1 0x7 PUSH1 0x20 SWAP1 DUP2 MSTORE PUSH1 0x40 DUP1 DUP4 KECCAK256 DUP1 SLOAD DUP3 MLOAD DUP2 DUP6 MUL DUP2 ADD DUP6 ADD SWAP1 SWAP4 MSTORE DUP1 DUP4 MSTORE DUP5 SWAP4 DUP5 SWAP1 DUP5 ADD JUMPDEST DUP3 DUP3 LT ISZERO PUSH2 0x1476 JUMPI PUSH1 0x0 DUP5 DUP2 MSTORE PUSH1 0x20 SWAP1 DUP2 SWAP1 KECCAK256 PUSH1 0x40 DUP1 MLOAD PUSH2 0x120 DUP2 ADD DUP3 MSTORE PUSH1 0x8 DUP7 MUL SWAP1 SWAP3 ADD DUP1 SLOAD DUP4 MSTORE PUSH1 0x1 DUP1 DUP3 ADD SLOAD DUP5 DUP7 ADD MSTORE PUSH1 0x2 DUP3 ADD SLOAD SWAP3 DUP5 ADD SWAP3 SWAP1 SWAP3 MSTORE PUSH1 0x3 DUP2 ADD SLOAD PUSH1 0x60 DUP5 ADD MSTORE PUSH1 0x4 DUP2 ADD SLOAD PUSH1 0x80 DUP5 ADD MSTORE PUSH1 0x5 DUP2 ADD SLOAD PUSH1 0xA0 DUP5 ADD MSTORE PUSH1 0x6 DUP2 ADD SLOAD PUSH1 0xC0 DUP5 ADD MSTORE PUSH1 0x7 ADD SLOAD PUSH1 0xFF DUP1 DUP3 AND ISZERO ISZERO PUSH1 0xE0 DUP6 ADD MSTORE PUSH2 0x100 SWAP2 DUP3 SWAP1 DIV AND ISZERO ISZERO SWAP1 DUP4 ADD MSTORE SWAP1 DUP4 MSTORE SWAP1 SWAP3 ADD SWAP2 ADD PUSH2 0x13E4 JUMP JUMPDEST POP POP POP POP SWAP1 POP PUSH1 0x0 DUP2 MLOAD GT PUSH2 0x14BC JUMPI PUSH1 0x40 MLOAD PUSH3 0x461BCD PUSH1 0xE5 SHL DUP2 MSTORE PUSH1 0x4 ADD DUP1 DUP1 PUSH1 0x20 ADD DUP3 DUP2 SUB DUP3 MSTORE PUSH1 0x2B DUP2 MSTORE PUSH1 0x20 ADD DUP1 PUSH2 0x4A5D PUSH1 0x2B SWAP2 CODECOPY PUSH1 0x40 ADD SWAP2 POP POP PUSH1 0x40 MLOAD DUP1 SWAP2 SUB SWAP1 REVERT JUMPDEST DUP1 MLOAD DUP4 LT PUSH2 0x1511 JUMPI PUSH1 0x40 DUP1 MLOAD PUSH3 0x461BCD PUSH1 0xE5 SHL DUP2 MSTORE PUSH1 0x20 PUSH1 0x4 DUP3 ADD MSTORE PUSH1 0x17 PUSH1 0x24 DUP3 ADD MSTORE PUSH32 0x30333831207468697320696E6465782065786365656473000000000000000000 PUSH1 0x44 DUP3 ADD MSTORE SWAP1 MLOAD SWAP1 DUP2 SWAP1 SUB PUSH1 0x64 ADD SWAP1 REVERT JUMPDEST DUP1 DUP4 DUP2 MLOAD DUP2 LT PUSH2 0x151D JUMPI INVALID JUMPDEST PUSH1 0x20 MUL PUSH1 0x20 ADD ADD MLOAD PUSH2 0x100 ADD MLOAD ISZERO PUSH2 0x1539 JUMPI PUSH1 0x1 SWAP2 POP POP PUSH2 0xC41 JUMP JUMPDEST POP PUSH1 0x0 SWAP4 SWAP3 POP POP POP JUMP JUMPDEST PUSH32 0x0 DUP2 JUMP JUMPDEST PUSH32 0x0 DUP2 JUMP JUMPDEST PUSH32 0x0 DUP2 JUMP JUMPDEST PUSH1 0x1 PUSH1 0x1 PUSH1 0xA0 SHL SUB DUP2 AND PUSH1 0x0 SWAP1 DUP2 MSTORE PUSH1 0x7 PUSH1 0x20 SWAP1 DUP2 MSTORE PUSH1 0x40 DUP1 DUP4 KECCAK256 DUP1 SLOAD DUP3 MLOAD DUP2 DUP6 MUL DUP2 ADD DUP6 ADD SWAP1 SWAP4 MSTORE DUP1 DUP4 MSTORE DUP5 SWAP4 DUP5 SWAP1 DUP5 ADD JUMPDEST DUP3 DUP3 LT ISZERO PUSH2 0x1674 JUMPI PUSH1 0x0 DUP5 DUP2 MSTORE PUSH1 0x20 SWAP1 DUP2 SWAP1 KECCAK256 PUSH1 0x40 DUP1 MLOAD PUSH2 0x120 DUP2 ADD DUP3 MSTORE PUSH1 0x8 DUP7 MUL SWAP1 SWAP3 ADD DUP1 SLOAD DUP4 MSTORE PUSH1 0x1 DUP1 DUP3 ADD SLOAD DUP5 DUP7 ADD MSTORE PUSH1 0x2 DUP3 ADD SLOAD SWAP3 DUP5 ADD SWAP3 SWAP1 SWAP3 MSTORE PUSH1 0x3 DUP2 ADD SLOAD PUSH1 0x60 DUP5 ADD MSTORE PUSH1 0x4 DUP2 ADD SLOAD PUSH1 0x80 DUP5 ADD MSTORE PUSH1 0x5 DUP2 ADD SLOAD PUSH1 0xA0 DUP5 ADD MSTORE PUSH1 0x6 DUP2 ADD SLOAD PUSH1 0xC0 DUP5 ADD MSTORE PUSH1 0x7 ADD SLOAD PUSH1 0xFF DUP1 DUP3 AND ISZERO ISZERO PUSH1 0xE0 DUP6 ADD MSTORE PUSH2 0x100 SWAP2 DUP3 SWAP1 DIV AND ISZERO ISZERO SWAP1 DUP4 ADD MSTORE SWAP1 DUP4 MSTORE SWAP1 SWAP3 ADD SWAP2 ADD PUSH2 0x15E2 JUMP JUMPDEST POP POP POP POP SWAP1 POP DUP1 MLOAD PUSH1 0x0 EQ ISZERO PUSH2 0x168E JUMPI PUSH1 0x0 SWAP2 POP POP PUSH2 0xBBD JUMP JUMPDEST PUSH1 0x0 DUP1 JUMPDEST DUP3 MLOAD DUP2 LT ISZERO PUSH2 0x16BE JUMPI PUSH1 0x0 PUSH2 0x16A7 DUP7 DUP4 PUSH2 0x3650 JUMP JUMPDEST SWAP1 POP PUSH2 0x16B3 DUP4 DUP3 PUSH2 0x37E8 JUMP JUMPDEST SWAP3 POP POP PUSH1 0x1 ADD PUSH2 0x1692 JUMP JUMPDEST POP SWAP4 SWAP3 POP POP POP JUMP JUMPDEST PUSH1 0xD SLOAD PUSH1 0x1 PUSH1 0x1 PUSH1 0xA0 SHL SUB AND PUSH2 0x16DA PUSH2 0x35A0 JUMP JUMPDEST PUSH1 0x1 PUSH1 0x1 PUSH1 0xA0 SHL SUB AND EQ PUSH2 0x171F JUMPI PUSH1 0x40 MLOAD PUSH3 0x461BCD PUSH1 0xE5 SHL DUP2 MSTORE PUSH1 0x4 ADD DUP1 DUP1 PUSH1 0x20 ADD DUP3 DUP2 SUB DUP3 MSTORE PUSH1 0x21 DUP2 MSTORE PUSH1 0x20 ADD DUP1 PUSH2 0x49FA PUSH1 0x21 SWAP2 CODECOPY PUSH1 0x40 ADD SWAP2 POP POP PUSH1 0x40 MLOAD DUP1 SWAP2 SUB SWAP1 REVERT JUMPDEST PUSH32 0x0 PUSH1 0x1 PUSH1 0x1 PUSH1 0xA0 SHL SUB AND DUP4 PUSH1 0x1 PUSH1 0x1 PUSH1 0xA0 SHL SUB AND EQ ISZERO PUSH2 0x1790 JUMPI PUSH1 0x40 MLOAD PUSH3 0x461BCD PUSH1 0xE5 SHL DUP2 MSTORE PUSH1 0x4 ADD DUP1 DUP1 PUSH1 0x20 ADD DUP3 DUP2 SUB DUP3 MSTORE PUSH1 0x21 DUP2 MSTORE PUSH1 0x20 ADD DUP1 PUSH2 0x49D9 PUSH1 0x21 SWAP2 CODECOPY PUSH1 0x40 ADD SWAP2 POP POP PUSH1 0x40 MLOAD DUP1 SWAP2 SUB SWAP1 REVERT JUMPDEST PUSH1 0x40 DUP1 MLOAD PUSH4 0xA9059CBB PUSH1 0xE0 SHL DUP2 MSTORE PUSH1 0x1 PUSH1 0x1 PUSH1 0xA0 SHL SUB DUP4 DUP2 AND PUSH1 0x4 DUP4 ADD MSTORE PUSH1 0x24 DUP3 ADD DUP6 SWAP1 MSTORE SWAP2 MLOAD DUP6 SWAP3 DUP4 AND SWAP2 PUSH4 0xA9059CBB SWAP2 PUSH1 0x44 DUP1 DUP4 ADD SWAP3 PUSH1 0x20 SWAP3 SWAP2 SWAP1 DUP3 SWAP1 SUB ADD DUP2 PUSH1 0x0 DUP8 DUP1 EXTCODESIZE ISZERO DUP1 ISZERO PUSH2 0x17E3 JUMPI PUSH1 0x0 DUP1 REVERT JUMPDEST POP GAS CALL ISZERO DUP1 ISZERO PUSH2 0x17F7 JUMPI RETURNDATASIZE PUSH1 0x0 DUP1 RETURNDATACOPY RETURNDATASIZE PUSH1 0x0 REVERT JUMPDEST POP POP POP POP PUSH1 0x40 MLOAD RETURNDATASIZE PUSH1 0x20 DUP2 LT ISZERO PUSH2 0x180D JUMPI PUSH1 0x0 DUP1 REVERT JUMPDEST POP POP POP POP POP POP JUMP JUMPDEST PUSH1 0xD SLOAD PUSH1 0x1 PUSH1 0x1 PUSH1 0xA0 SHL SUB AND PUSH2 0x1829 PUSH2 0x35A0 JUMP JUMPDEST PUSH1 0x1 PUSH1 0x1 PUSH1 0xA0 SHL SUB AND EQ PUSH2 0x186E JUMPI PUSH1 0x40 MLOAD PUSH3 0x461BCD PUSH1 0xE5 SHL DUP2 MSTORE PUSH1 0x4 ADD DUP1 DUP1 PUSH1 0x20 ADD DUP3 DUP2 SUB DUP3 MSTORE PUSH1 0x21 DUP2 MSTORE PUSH1 0x20 ADD DUP1 PUSH2 0x49FA PUSH1 0x21 SWAP2 CODECOPY PUSH1 0x40 ADD SWAP2 POP POP PUSH1 0x40 MLOAD DUP1 SWAP2 SUB SWAP1 REVERT JUMPDEST PUSH32 0x0 PUSH32 0x0 PUSH32 0x0 ADD ADD TIMESTAMP LT ISZERO PUSH2 0x1911 JUMPI PUSH1 0x40 MLOAD PUSH3 0x461BCD PUSH1 0xE5 SHL DUP2 MSTORE PUSH1 0x4 ADD DUP1 DUP1 PUSH1 0x20 ADD DUP3 DUP2 SUB DUP3 MSTORE PUSH1 0x36 DUP2 MSTORE PUSH1 0x20 ADD DUP1 PUSH2 0x4AB2 PUSH1 0x36 SWAP2 CODECOPY PUSH1 0x40 ADD SWAP2 POP POP PUSH1 0x40 MLOAD DUP1 SWAP2 SUB SWAP1 REVERT JUMPDEST PUSH2 0x1919 PUSH2 0x26A8 JUMP JUMPDEST PUSH1 0xB SSTORE JUMP JUMPDEST PUSH32 0x0 DUP2 JUMP JUMPDEST PUSH32 0x0 DUP2 JUMP JUMPDEST PUSH2 0x196E PUSH2 0x35A0 JUMP JUMPDEST PUSH1 0x1 PUSH1 0x1 PUSH1 0xA0 SHL SUB AND PUSH2 0x197F PUSH2 0x2699 JUMP JUMPDEST PUSH1 0x1 PUSH1 0x1 PUSH1 0xA0 SHL SUB AND EQ PUSH2 0x19DA JUMPI PUSH1 0x40 DUP1 MLOAD PUSH3 0x461BCD PUSH1 0xE5 SHL DUP2 MSTORE PUSH1 0x20 PUSH1 0x4 DUP3 ADD DUP2 SWAP1 MSTORE PUSH1 0x24 DUP3 ADD MSTORE PUSH32 0x4F776E61626C653A2063616C6C6572206973206E6F7420746865206F776E6572 PUSH1 0x44 DUP3 ADD MSTORE SWAP1 MLOAD SWAP1 DUP2 SWAP1 SUB PUSH1 0x64 ADD SWAP1 REVERT JUMPDEST PUSH1 0x0 DUP1 SLOAD PUSH1 0x40 MLOAD PUSH1 0x1 PUSH1 0x1 PUSH1 0xA0 SHL SUB SWAP1 SWAP2 AND SWAP1 PUSH32 0x8BE0079C531659141344CD1FD0A4F28419497F9722A3DAAFE3B4186F6B6457E0 SWAP1 DUP4 SWAP1 LOG3 PUSH1 0x0 DUP1 SLOAD PUSH1 0x1 PUSH1 0x1 PUSH1 0xA0 SHL SUB NOT AND SWAP1 SSTORE JUMP JUMPDEST PUSH32 0x0 DUP2 JUMP JUMPDEST PUSH1 0x1 PUSH1 0x1 PUSH1 0xA0 SHL SUB DUP3 AND PUSH1 0x0 SWAP1 DUP2 MSTORE PUSH1 0x7 PUSH1 0x20 SWAP1 DUP2 MSTORE PUSH1 0x40 DUP1 DUP4 KECCAK256 DUP1 SLOAD DUP3 MLOAD DUP2 DUP6 MUL DUP2 ADD DUP6 ADD SWAP1 SWAP4 MSTORE DUP1 DUP4 MSTORE DUP5 SWAP4 DUP5 SWAP1 DUP5 ADD JUMPDEST DUP3 DUP3 LT ISZERO PUSH2 0x1B0D JUMPI PUSH1 0x0 DUP5 DUP2 MSTORE PUSH1 0x20 SWAP1 DUP2 SWAP1 KECCAK256 PUSH1 0x40 DUP1 MLOAD PUSH2 0x120 DUP2 ADD DUP3 MSTORE PUSH1 0x8 DUP7 MUL SWAP1 SWAP3 ADD DUP1 SLOAD DUP4 MSTORE PUSH1 0x1 DUP1 DUP3 ADD SLOAD DUP5 DUP7 ADD MSTORE PUSH1 0x2 DUP3 ADD SLOAD SWAP3 DUP5 ADD SWAP3 SWAP1 SWAP3 MSTORE PUSH1 0x3 DUP2 ADD SLOAD PUSH1 0x60 DUP5 ADD MSTORE PUSH1 0x4 DUP2 ADD SLOAD PUSH1 0x80 DUP5 ADD MSTORE PUSH1 0x5 DUP2 ADD SLOAD PUSH1 0xA0 DUP5 ADD MSTORE PUSH1 0x6 DUP2 ADD SLOAD PUSH1 0xC0 DUP5 ADD MSTORE PUSH1 0x7 ADD SLOAD PUSH1 0xFF DUP1 DUP3 AND ISZERO ISZERO PUSH1 0xE0 DUP6 ADD MSTORE PUSH2 0x100 SWAP2 DUP3 SWAP1 DIV AND ISZERO ISZERO SWAP1 DUP4 ADD MSTORE SWAP1 DUP4 MSTORE SWAP1 SWAP3 ADD SWAP2 ADD PUSH2 0x1A7B JUMP JUMPDEST POP POP POP POP SWAP1 POP DUP1 MLOAD PUSH1 0x0 EQ ISZERO PUSH2 0x1B27 JUMPI PUSH1 0x0 SWAP2 POP POP PUSH2 0xC41 JUMP JUMPDEST DUP1 MLOAD DUP4 LT PUSH2 0x1B39 JUMPI PUSH1 0x0 SWAP2 POP POP PUSH2 0xC41 JUMP JUMPDEST PUSH1 0x0 DUP1 PUSH2 0x1B46 DUP7 DUP7 PUSH2 0x3650 JUMP JUMPDEST SWAP1 POP PUSH2 0x1B52 DUP3 DUP3 PUSH2 0x37E8 JUMP JUMPDEST SWAP7 SWAP6 POP POP POP POP POP POP JUMP JUMPDEST PUSH32 0x0 DUP2 JUMP JUMPDEST PUSH1 0xD SLOAD PUSH1 0x1 PUSH1 0xA8 SHL SWAP1 DIV PUSH1 0xFF AND ISZERO PUSH2 0x1BD5 JUMPI PUSH1 0x40 DUP1 MLOAD PUSH3 0x461BCD PUSH1 0xE5 SHL DUP2 MSTORE PUSH1 0x20 PUSH1 0x4 DUP3 ADD MSTORE PUSH1 0x13 PUSH1 0x24 DUP3 ADD MSTORE PUSH19 0xC0CCC4C08141BDBDB081A5CC81B1BD8DAD959 PUSH1 0x6A SHL PUSH1 0x44 DUP3 ADD MSTORE SWAP1 MLOAD SWAP1 DUP2 SWAP1 SUB PUSH1 0x64 ADD SWAP1 REVERT JUMPDEST PUSH32 0x0 DUP3 LT ISZERO PUSH2 0x1C34 JUMPI PUSH1 0x40 MLOAD PUSH3 0x461BCD PUSH1 0xE5 SHL DUP2 MSTORE PUSH1 0x4 ADD DUP1 DUP1 PUSH1 0x20 ADD DUP3 DUP2 SUB DUP3 MSTORE PUSH1 0x2A DUP2 MSTORE PUSH1 0x20 ADD DUP1 PUSH2 0x4A88 PUSH1 0x2A SWAP2 CODECOPY PUSH1 0x40 ADD SWAP2 POP POP PUSH1 0x40 MLOAD DUP1 SWAP2 SUB SWAP1 REVERT JUMPDEST PUSH1 0x0 PUSH2 0x1C6C PUSH1 0x64 PUSH2 0x1C66 PUSH32 0x0 PUSH1 0x5 PUSH2 0x3849 JUMP JUMPDEST SWAP1 PUSH2 0x38A2 JUMP JUMPDEST SWAP1 POP PUSH1 0x0 PUSH32 0x0 PUSH1 0x1 PUSH1 0x1 PUSH1 0xA0 SHL SUB AND PUSH4 0x771A3A1D PUSH1 0x40 MLOAD DUP2 PUSH4 0xFFFFFFFF AND PUSH1 0xE0 SHL DUP2 MSTORE PUSH1 0x4 ADD PUSH1 0x20 PUSH1 0x40 MLOAD DUP1 DUP4 SUB DUP2 DUP7 DUP1 EXTCODESIZE ISZERO DUP1 ISZERO PUSH2 0x1CC9 JUMPI PUSH1 0x0 DUP1 REVERT JUMPDEST POP GAS STATICCALL ISZERO DUP1 ISZERO PUSH2 0x1CDD JUMPI RETURNDATASIZE PUSH1 0x0 DUP1 RETURNDATACOPY RETURNDATASIZE PUSH1 0x0 REVERT JUMPDEST POP POP POP POP PUSH1 0x40 MLOAD RETURNDATASIZE PUSH1 0x20 DUP2 LT ISZERO PUSH2 0x1CF3 JUMPI PUSH1 0x0 DUP1 REVERT JUMPDEST POP MLOAD SWAP1 POP PUSH1 0x0 PUSH1 0x1 PUSH1 0x1 PUSH1 0xA0 SHL SUB PUSH32 0x0 AND PUSH4 0xD1ECFC68 PUSH2 0x1D30 PUSH2 0x35A0 JUMP JUMPDEST PUSH1 0x40 MLOAD DUP3 PUSH4 0xFFFFFFFF AND PUSH1 0xE0 SHL DUP2 MSTORE PUSH1 0x4 ADD DUP1 DUP3 PUSH1 0x1 PUSH1 0x1 PUSH1 0xA0 SHL SUB AND DUP2 MSTORE PUSH1 0x20 ADD SWAP2 POP POP PUSH1 0x20 PUSH1 0x40 MLOAD DUP1 DUP4 SUB DUP2 DUP7 DUP1 EXTCODESIZE ISZERO DUP1 ISZERO PUSH2 0x1D6D JUMPI PUSH1 0x0 DUP1 REVERT JUMPDEST POP GAS STATICCALL ISZERO DUP1 ISZERO PUSH2 0x1D81 JUMPI RETURNDATASIZE PUSH1 0x0 DUP1 RETURNDATACOPY RETURNDATASIZE PUSH1 0x0 REVERT JUMPDEST POP POP POP POP PUSH1 0x40 MLOAD RETURNDATASIZE PUSH1 0x20 DUP2 LT ISZERO PUSH2 0x1D97 JUMPI PUSH1 0x0 DUP1 REVERT JUMPDEST POP MLOAD PUSH2 0x1DAC JUMPI PUSH2 0x1DA7 DUP6 DUP4 PUSH2 0x3909 JUMP JUMPDEST PUSH2 0x1DAF JUMP JUMPDEST PUSH1 0x0 JUMPDEST SWAP1 POP PUSH2 0x1DDB PUSH32 0x0 DUP5 PUSH2 0x37E8 JUMP JUMPDEST PUSH2 0x1DFA DUP3 PUSH2 0x1DF4 DUP9 PUSH1 0xA SLOAD PUSH2 0x37E8 SWAP1 SWAP2 SWAP1 PUSH4 0xFFFFFFFF AND JUMP JUMPDEST SWAP1 PUSH2 0x391B JUMP JUMPDEST GT ISZERO PUSH2 0x1E37 JUMPI PUSH1 0x40 MLOAD PUSH3 0x461BCD PUSH1 0xE5 SHL DUP2 MSTORE PUSH1 0x4 ADD DUP1 DUP1 PUSH1 0x20 ADD DUP3 DUP2 SUB DUP3 MSTORE PUSH1 0x26 DUP2 MSTORE PUSH1 0x20 ADD DUP1 PUSH2 0x49B3 PUSH1 0x26 SWAP2 CODECOPY PUSH1 0x40 ADD SWAP2 POP POP PUSH1 0x40 MLOAD DUP1 SWAP2 SUB SWAP1 REVERT JUMPDEST PUSH1 0x0 PUSH2 0x1E43 DUP7 DUP5 PUSH2 0x3978 JUMP JUMPDEST SWAP7 POP SWAP1 POP PUSH1 0x1 PUSH1 0x1 PUSH1 0xA0 SHL SUB PUSH32 0x0 AND PUSH4 0x23B872DD PUSH2 0x1E7E PUSH2 0x35A0 JUMP JUMPDEST PUSH1 0x40 DUP1 MLOAD PUSH1 0x1 PUSH1 0x1 PUSH1 0xE0 SHL SUB NOT PUSH1 0xE0 DUP6 SWAP1 SHL AND DUP2 MSTORE PUSH1 0x1 PUSH1 0x1 PUSH1 0xA0 SHL SUB SWAP1 SWAP3 AND PUSH1 0x4 DUP4 ADD MSTORE ADDRESS PUSH1 0x24 DUP4 ADD MSTORE DUP10 DUP6 ADD PUSH1 0x44 DUP4 ADD MSTORE MLOAD PUSH1 0x64 DUP1 DUP4 ADD SWAP3 PUSH1 0x20 SWAP3 SWAP2 SWAP1 DUP3 SWAP1 SUB ADD DUP2 PUSH1 0x0 DUP8 DUP1 EXTCODESIZE ISZERO DUP1 ISZERO PUSH2 0x1ED3 JUMPI PUSH1 0x0 DUP1 REVERT JUMPDEST POP GAS CALL ISZERO DUP1 ISZERO PUSH2 0x1EE7 JUMPI RETURNDATASIZE PUSH1 0x0 DUP1 RETURNDATACOPY RETURNDATASIZE PUSH1 0x0 REVERT JUMPDEST POP POP POP POP PUSH1 0x40 MLOAD RETURNDATASIZE PUSH1 0x20 DUP2 LT ISZERO PUSH2 0x1EFD JUMPI PUSH1 0x0 DUP1 REVERT JUMPDEST POP PUSH2 0x1F0A SWAP1 POP DUP7 DUP4 PUSH2 0x391B JUMP JUMPDEST SWAP6 POP DUP1 ISZERO PUSH2 0x2041 JUMPI PUSH32 0x0 PUSH1 0x1 PUSH1 0x1 PUSH1 0xA0 SHL SUB AND PUSH4 0xA9059CBB PUSH32 0x0 PUSH1 0x1 PUSH1 0x1 PUSH1 0xA0 SHL SUB AND PUSH4 0x4A5DB0A9 PUSH1 0x40 MLOAD DUP2 PUSH4 0xFFFFFFFF AND PUSH1 0xE0 SHL DUP2 MSTORE PUSH1 0x4 ADD PUSH1 0x20 PUSH1 0x40 MLOAD DUP1 DUP4 SUB DUP2 DUP7 DUP1 EXTCODESIZE ISZERO DUP1 ISZERO PUSH2 0x1F9A JUMPI PUSH1 0x0 DUP1 REVERT JUMPDEST POP GAS STATICCALL ISZERO DUP1 ISZERO PUSH2 0x1FAE JUMPI RETURNDATASIZE PUSH1 0x0 DUP1 RETURNDATACOPY RETURNDATASIZE PUSH1 0x0 REVERT JUMPDEST POP POP POP POP PUSH1 0x40 MLOAD RETURNDATASIZE PUSH1 0x20 DUP2 LT ISZERO PUSH2 0x1FC4 JUMPI PUSH1 0x0 DUP1 REVERT JUMPDEST POP MLOAD PUSH1 0x40 DUP1 MLOAD PUSH1 0x1 PUSH1 0x1 PUSH1 0xE0 SHL SUB NOT PUSH1 0xE0 DUP6 SWAP1 SHL AND DUP2 MSTORE PUSH1 0x1 PUSH1 0x1 PUSH1 0xA0 SHL SUB SWAP1 SWAP3 AND PUSH1 0x4 DUP4 ADD MSTORE PUSH1 0x24 DUP3 ADD DUP6 SWAP1 MSTORE MLOAD PUSH1 0x44 DUP1 DUP4 ADD SWAP3 PUSH1 0x20 SWAP3 SWAP2 SWAP1 DUP3 SWAP1 SUB ADD DUP2 PUSH1 0x0 DUP8 DUP1 EXTCODESIZE ISZERO DUP1 ISZERO PUSH2 0x2014 JUMPI PUSH1 0x0 DUP1 REVERT JUMPDEST POP GAS CALL ISZERO DUP1 ISZERO PUSH2 0x2028 JUMPI RETURNDATASIZE PUSH1 0x0 DUP1 RETURNDATACOPY RETURNDATASIZE PUSH1 0x0 REVERT JUMPDEST POP POP POP POP PUSH1 0x40 MLOAD RETURNDATASIZE PUSH1 0x20 DUP2 LT ISZERO PUSH2 0x203E JUMPI PUSH1 0x0 DUP1 REVERT JUMPDEST POP POP JUMPDEST PUSH1 0xA SLOAD PUSH2 0x204E SWAP1 DUP8 PUSH2 0x37E8 JUMP JUMPDEST PUSH1 0xA DUP2 SWAP1 SSTORE POP PUSH1 0x8 PUSH1 0x40 MLOAD DUP1 PUSH1 0x40 ADD PUSH1 0x40 MSTORE DUP1 PUSH2 0x2069 PUSH2 0x35A0 JUMP JUMPDEST PUSH1 0x1 PUSH1 0x1 PUSH1 0xA0 SHL SUB AND DUP2 MSTORE PUSH1 0x20 ADD PUSH1 0x7 PUSH1 0x0 PUSH2 0x2083 PUSH2 0x35A0 JUMP JUMPDEST PUSH1 0x1 PUSH1 0x1 PUSH1 0xA0 SHL SUB SWAP1 DUP2 AND DUP3 MSTORE PUSH1 0x20 DUP1 DUP4 ADD SWAP4 SWAP1 SWAP4 MSTORE PUSH1 0x40 SWAP1 SWAP2 ADD PUSH1 0x0 SWAP1 DUP2 KECCAK256 SLOAD SWAP1 SWAP4 MSTORE DUP5 SLOAD PUSH1 0x1 DUP1 DUP3 ADD DUP8 SSTORE SWAP6 DUP5 MSTORE DUP3 DUP5 KECCAK256 DUP6 MLOAD PUSH1 0x2 SWAP1 SWAP3 MUL ADD DUP1 SLOAD PUSH1 0x1 PUSH1 0x1 PUSH1 0xA0 SHL SUB NOT AND SWAP2 SWAP1 SWAP3 AND OR DUP2 SSTORE SWAP3 ADD MLOAD SWAP2 SWAP1 SWAP3 ADD SSTORE PUSH1 0x7 SWAP1 PUSH2 0x20E4 PUSH2 0x35A0 JUMP JUMPDEST PUSH1 0x1 PUSH1 0x1 PUSH1 0xA0 SHL SUB AND DUP2 MSTORE PUSH1 0x20 DUP1 DUP3 ADD SWAP3 SWAP1 SWAP3 MSTORE PUSH1 0x40 SWAP1 DUP2 ADD PUSH1 0x0 SWAP1 DUP2 KECCAK256 DUP3 MLOAD PUSH2 0x120 DUP2 ADD DUP5 MSTORE DUP11 DUP2 MSTORE TIMESTAMP DUP2 DUP7 ADD DUP2 DUP2 MSTORE SWAP5 DUP3 ADD DUP5 DUP2 MSTORE PUSH1 0x60 DUP4 ADD SWAP2 DUP3 MSTORE PUSH1 0x80 DUP4 ADD DUP13 DUP2 MSTORE PUSH1 0x0 NOT PUSH1 0xA0 DUP6 ADD DUP2 DUP2 MSTORE PUSH1 0xC0 DUP7 ADD SWAP2 DUP3 MSTORE PUSH1 0xE0 DUP7 ADD DUP9 DUP2 MSTORE PUSH2 0x100 DUP1 DUP9 ADD DUP11 DUP2 MSTORE DUP10 SLOAD PUSH1 0x1 DUP1 DUP3 ADD DUP13 SSTORE SWAP11 DUP13 MSTORE SWAP13 SWAP1 SWAP11 KECCAK256 SWAP8 MLOAD PUSH1 0x8 SWAP1 SWAP13 MUL SWAP1 SWAP8 ADD SWAP11 DUP12 SSTORE SWAP9 MLOAD SWAP7 DUP11 ADD SWAP7 SWAP1 SWAP7 SSTORE SWAP2 MLOAD PUSH1 0x2 DUP10 ADD SSTORE SWAP2 MLOAD PUSH1 0x3 DUP9 ADD SSTORE SWAP1 MLOAD PUSH1 0x4 DUP8 ADD SSTORE SWAP2 MLOAD PUSH1 0x5 DUP7 ADD SSTORE SWAP1 MLOAD PUSH1 0x6 DUP6 ADD SSTORE SWAP2 MLOAD PUSH1 0x7 SWAP1 SWAP4 ADD DUP1 SLOAD SWAP2 MLOAD PUSH1 0xFF NOT SWAP3 SWAP1 SWAP3 AND SWAP4 ISZERO ISZERO SWAP4 SWAP1 SWAP4 OR PUSH2 0xFF00 NOT AND SWAP1 ISZERO ISZERO SWAP1 SWAP2 MUL OR SWAP1 SSTORE PUSH1 0xA SLOAD PUSH32 0x0 GT PUSH2 0x21EB JUMPI PUSH2 0x21EB PUSH2 0x3612 JUMP JUMPDEST PUSH2 0x21F3 PUSH2 0x35A0 JUMP JUMPDEST PUSH1 0x1 PUSH1 0x1 PUSH1 0xA0 SHL SUB AND PUSH32 0x5AF417134F72A9D41143ACE85B0A26DCE6F550F894F2CBC1EEEE8810603D91B6 DUP8 DUP8 PUSH1 0x40 MLOAD DUP1 DUP4 DUP2 MSTORE PUSH1 0x20 ADD DUP3 DUP2 MSTORE PUSH1 0x20 ADD SWAP3 POP POP POP PUSH1 0x40 MLOAD DUP1 SWAP2 SUB SWAP1 LOG2 POP POP POP POP POP POP JUMP JUMPDEST PUSH1 0x0 DUP1 PUSH2 0x2256 PUSH2 0x2251 PUSH2 0x35A0 JUMP JUMPDEST PUSH2 0x3A14 JUMP JUMPDEST SWAP2 POP SWAP2 POP SWAP1 SWAP2 JUMP JUMPDEST PUSH1 0xD SLOAD PUSH1 0x1 PUSH1 0xB0 SHL SWAP1 DIV PUSH1 0xFF AND DUP2 JUMP JUMPDEST PUSH1 0xA SLOAD DUP2 JUMP JUMPDEST PUSH1 0x7 PUSH1 0x20 MSTORE DUP2 PUSH1 0x0 MSTORE PUSH1 0x40 PUSH1 0x0 KECCAK256 DUP2 DUP2 SLOAD DUP2 LT PUSH2 0x2290 JUMPI PUSH1 0x0 DUP1 REVERT JUMPDEST PUSH1 0x0 SWAP2 DUP3 MSTORE PUSH1 0x20 SWAP1 SWAP2 KECCAK256 PUSH1 0x8 SWAP1 SWAP2 MUL ADD DUP1 SLOAD PUSH1 0x1 DUP3 ADD SLOAD PUSH1 0x2 DUP4 ADD SLOAD PUSH1 0x3 DUP5 ADD SLOAD PUSH1 0x4 DUP6 ADD SLOAD PUSH1 0x5 DUP7 ADD SLOAD PUSH1 0x6 DUP8 ADD SLOAD PUSH1 0x7 SWAP1 SWAP8 ADD SLOAD SWAP6 SWAP9 POP SWAP4 SWAP7 POP SWAP2 SWAP5 SWAP1 SWAP4 SWAP2 SWAP3 SWAP2 PUSH1 0xFF DUP1 DUP3 AND SWAP2 PUSH2 0x100 SWAP1 DIV AND DUP10 JUMP JUMPDEST PUSH1 0xD SLOAD PUSH1 0x1 PUSH1 0x1 PUSH1 0xA0 SHL SUB AND PUSH2 0x22F6 PUSH2 0x35A0 JUMP JUMPDEST PUSH1 0x1 PUSH1 0x1 PUSH1 0xA0 SHL SUB AND EQ PUSH2 0x233B JUMPI PUSH1 0x40 MLOAD PUSH3 0x461BCD PUSH1 0xE5 SHL DUP2 MSTORE PUSH1 0x4 ADD DUP1 DUP1 PUSH1 0x20 ADD DUP3 DUP2 SUB DUP3 MSTORE PUSH1 0x21 DUP2 MSTORE PUSH1 0x20 ADD DUP1 PUSH2 0x49FA PUSH1 0x21 SWAP2 CODECOPY PUSH1 0x40 ADD SWAP2 POP POP PUSH1 0x40 MLOAD DUP1 SWAP2 SUB SWAP1 REVERT JUMPDEST PUSH1 0x0 PUSH32 0x0 GT PUSH2 0x239A JUMPI PUSH1 0x40 MLOAD PUSH3 0x461BCD PUSH1 0xE5 SHL DUP2 MSTORE PUSH1 0x4 ADD DUP1 DUP1 PUSH1 0x20 ADD DUP3 DUP2 SUB DUP3 MSTORE PUSH1 0x21 DUP2 MSTORE PUSH1 0x20 ADD DUP1 PUSH2 0x4A3C PUSH1 0x21 SWAP2 CODECOPY PUSH1 0x40 ADD SWAP2 POP POP PUSH1 0x40 MLOAD DUP1 SWAP2 SUB SWAP1 REVERT JUMPDEST PUSH1 0x0 DUP3 GT PUSH2 0x23EF JUMPI PUSH1 0x40 DUP1 MLOAD PUSH3 0x461BCD PUSH1 0xE5 SHL DUP2 MSTORE PUSH1 0x20 PUSH1 0x4 DUP3 ADD MSTORE PUSH1 0x19 PUSH1 0x24 DUP3 ADD MSTORE PUSH32 0x3033343120416D6F756E742063616E2774206265207A65726F00000000000000 PUSH1 0x44 DUP3 ADD MSTORE SWAP1 MLOAD SWAP1 DUP2 SWAP1 SUB PUSH1 0x64 ADD SWAP1 REVERT JUMPDEST TIMESTAMP DUP2 LT ISZERO PUSH2 0x243B JUMPI PUSH1 0x40 DUP1 MLOAD PUSH3 0x461BCD PUSH1 0xE5 SHL DUP2 MSTORE PUSH1 0x20 PUSH1 0x4 DUP3 ADD MSTORE PUSH1 0x14 PUSH1 0x24 DUP3 ADD MSTORE PUSH20 0x3033343220646561646C696E65206973206C6F77 PUSH1 0x60 SHL PUSH1 0x44 DUP3 ADD MSTORE SWAP1 MLOAD SWAP1 DUP2 SWAP1 SUB PUSH1 0x64 ADD SWAP1 REVERT JUMPDEST PUSH1 0x0 PUSH2 0x2445 PUSH2 0xF96 JUMP JUMPDEST SWAP1 POP PUSH2 0x2451 DUP2 DUP5 PUSH2 0x3A4B JUMP JUMPDEST PUSH1 0x0 PUSH2 0x245C DUP5 PUSH2 0xA41 JUMP JUMPDEST SWAP1 POP PUSH1 0x0 PUSH2 0x2476 PUSH2 0x246F DUP4 PUSH2 0x12C PUSH2 0x3909 JUMP JUMPDEST DUP4 SWAP1 PUSH2 0x391B JUMP JUMPDEST SWAP1 POP PUSH2 0x2484 ADDRESS DUP7 DUP4 DUP8 PUSH2 0x3B10 JUMP JUMPDEST POP POP POP POP POP JUMP JUMPDEST PUSH1 0xD SLOAD PUSH1 0x1 PUSH1 0xA0 SHL SWAP1 DIV PUSH1 0xFF AND PUSH2 0x24E1 JUMPI PUSH1 0x40 DUP1 MLOAD PUSH3 0x461BCD PUSH1 0xE5 SHL DUP2 MSTORE PUSH1 0x20 PUSH1 0x4 DUP3 ADD MSTORE PUSH1 0x15 PUSH1 0x24 DUP3 ADD MSTORE PUSH21 0x69742773206E6F7420616E20656D657267656E6379 PUSH1 0x58 SHL PUSH1 0x44 DUP3 ADD MSTORE SWAP1 MLOAD SWAP1 DUP2 SWAP1 SUB PUSH1 0x64 ADD SWAP1 REVERT JUMPDEST PUSH1 0x0 PUSH2 0x24F3 PUSH2 0x24EE PUSH2 0x35A0 JUMP JUMPDEST PUSH2 0x3CA9 JUMP JUMPDEST SWAP1 POP DUP1 ISZERO PUSH2 0x25FF JUMPI PUSH32 0x0 PUSH1 0x1 PUSH1 0x1 PUSH1 0xA0 SHL SUB AND PUSH4 0xA9059CBB PUSH2 0x2532 PUSH2 0x35A0 JUMP JUMPDEST DUP4 PUSH1 0x40 MLOAD DUP4 PUSH4 0xFFFFFFFF AND PUSH1 0xE0 SHL DUP2 MSTORE PUSH1 0x4 ADD DUP1 DUP4 PUSH1 0x1 PUSH1 0x1 PUSH1 0xA0 SHL SUB AND DUP2 MSTORE PUSH1 0x20 ADD DUP3 DUP2 MSTORE PUSH1 0x20 ADD SWAP3 POP POP POP PUSH1 0x20 PUSH1 0x40 MLOAD DUP1 DUP4 SUB DUP2 PUSH1 0x0 DUP8 DUP1 EXTCODESIZE ISZERO DUP1 ISZERO PUSH2 0x2579 JUMPI PUSH1 0x0 DUP1 REVERT JUMPDEST POP GAS CALL ISZERO DUP1 ISZERO PUSH2 0x258D JUMPI RETURNDATASIZE PUSH1 0x0 DUP1 RETURNDATACOPY RETURNDATASIZE PUSH1 0x0 REVERT JUMPDEST POP POP POP POP PUSH1 0x40 MLOAD RETURNDATASIZE PUSH1 0x20 DUP2 LT ISZERO PUSH2 0x25A3 JUMPI PUSH1 0x0 DUP1 REVERT JUMPDEST POP PUSH2 0x25B6 SWAP1 POP PUSH2 0x25B1 PUSH2 0x35A0 JUMP JUMPDEST PUSH2 0x3DE7 JUMP JUMPDEST PUSH2 0x25BE PUSH2 0x35A0 JUMP JUMPDEST PUSH1 0x1 PUSH1 0x1 PUSH1 0xA0 SHL SUB AND PUSH32 0x85082129D87B2FE11527CB1B3B7A520AEB5AA6913F88A3D8757FE40D1DB02FDD DUP3 PUSH1 0x40 MLOAD DUP1 DUP3 DUP2 MSTORE PUSH1 0x20 ADD SWAP2 POP POP PUSH1 0x40 MLOAD DUP1 SWAP2 SUB SWAP1 LOG2 JUMPDEST POP JUMP JUMPDEST PUSH1 0xD SLOAD PUSH1 0x1 PUSH1 0x1 PUSH1 0xA0 SHL SUB AND PUSH2 0x2616 PUSH2 0x35A0 JUMP JUMPDEST PUSH1 0x1 PUSH1 0x1 PUSH1 0xA0 SHL SUB AND EQ PUSH2 0x265B JUMPI PUSH1 0x40 MLOAD PUSH3 0x461BCD PUSH1 0xE5 SHL DUP2 MSTORE PUSH1 0x4 ADD DUP1 DUP1 PUSH1 0x20 ADD DUP3 DUP2 SUB DUP3 MSTORE PUSH1 0x21 DUP2 MSTORE PUSH1 0x20 ADD DUP1 PUSH2 0x49FA PUSH1 0x21 SWAP2 CODECOPY PUSH1 0x40 ADD SWAP2 POP POP PUSH1 0x40 MLOAD DUP1 SWAP2 SUB SWAP1 REVERT JUMPDEST PUSH1 0xD DUP1 SLOAD PUSH1 0xFF PUSH1 0xB8 SHL NOT AND PUSH1 0x1 PUSH1 0xB8 SHL OR SWAP1 SSTORE PUSH1 0x40 MLOAD PUSH32 0x9331B2A38C658C57A39EA19B2709D928C28A12CC8FBB838D12B85148550F937D SWAP1 PUSH1 0x0 SWAP1 LOG1 JUMP JUMPDEST PUSH1 0x0 SLOAD PUSH1 0x1 PUSH1 0x1 PUSH1 0xA0 SHL SUB AND SWAP1 JUMP JUMPDEST PUSH1 0x0 DUP1 PUSH1 0x1 PUSH1 0x0 SWAP1 SLOAD SWAP1 PUSH2 0x100 EXP SWAP1 DIV PUSH1 0x1 PUSH1 0x1 PUSH1 0xA0 SHL SUB AND PUSH1 0x1 PUSH1 0x1 PUSH1 0xA0 SHL SUB AND PUSH4 0xFEAF968C PUSH1 0x40 MLOAD DUP2 PUSH4 0xFFFFFFFF AND PUSH1 0xE0 SHL DUP2 MSTORE PUSH1 0x4 ADD PUSH1 0xA0 PUSH1 0x40 MLOAD DUP1 DUP4 SUB DUP2 DUP7 DUP1 EXTCODESIZE ISZERO DUP1 ISZERO PUSH2 0x26F9 JUMPI PUSH1 0x0 DUP1 REVERT JUMPDEST POP GAS STATICCALL ISZERO DUP1 ISZERO PUSH2 0x270D JUMPI RETURNDATASIZE PUSH1 0x0 DUP1 RETURNDATACOPY RETURNDATASIZE PUSH1 0x0 REVERT JUMPDEST POP POP POP POP PUSH1 0x40 MLOAD RETURNDATASIZE PUSH1 0xA0 DUP2 LT ISZERO PUSH2 0x2723 JUMPI PUSH1 0x0 DUP1 REVERT JUMPDEST POP PUSH1 0x20 ADD MLOAD SWAP1 POP PUSH1 0x0 DUP2 SLT ISZERO PUSH2 0x273A JUMPI PUSH1 0x0 PUSH2 0x273C JUMP JUMPDEST DUP1 JUMPDEST SWAP2 POP POP SWAP1 JUMP JUMPDEST PUSH1 0x0 DUP1 PUSH2 0x2256 PUSH2 0x2750 PUSH2 0x35A0 JUMP JUMPDEST PUSH2 0x3E5B JUMP JUMPDEST PUSH1 0x5 DUP2 JUMP JUMPDEST PUSH1 0x0 DUP1 PUSH2 0x276E PUSH2 0x2768 PUSH2 0x35A0 JUMP JUMPDEST DUP5 PUSH2 0x4076 JUMP JUMPDEST SWAP2 POP SWAP2 POP JUMPDEST SWAP2 POP SWAP2 JUMP JUMPDEST PUSH1 0xD SLOAD PUSH1 0x1 PUSH1 0xA0 SHL SWAP1 DIV PUSH1 0xFF AND DUP2 JUMP JUMPDEST PUSH1 0x8 DUP2 JUMP JUMPDEST PUSH1 0xD SLOAD PUSH1 0x1 PUSH1 0xA8 SHL SWAP1 DIV PUSH1 0xFF AND DUP2 JUMP JUMPDEST PUSH1 0x40 DUP1 MLOAD PUSH1 0x2 DUP1 DUP3 MSTORE PUSH1 0x60 DUP1 DUP4 ADD DUP5 MSTORE SWAP3 PUSH1 0x0 SWAP3 SWAP2 SWAP1 PUSH1 0x20 DUP4 ADD SWAP1 DUP1 CALLDATASIZE DUP4 CALLDATACOPY POP POP PUSH1 0x4 SLOAD DUP3 MLOAD SWAP3 SWAP4 POP PUSH1 0x1 PUSH1 0x1 PUSH1 0xA0 SHL SUB AND SWAP2 DUP4 SWAP2 POP PUSH1 0x0 SWAP1 PUSH2 0x27DC JUMPI INVALID JUMPDEST PUSH1 0x1 PUSH1 0x1 PUSH1 0xA0 SHL SUB SWAP3 DUP4 AND PUSH1 0x20 SWAP2 DUP3 MUL SWAP3 SWAP1 SWAP3 ADD ADD MSTORE PUSH1 0x5 SLOAD DUP3 MLOAD SWAP2 AND SWAP1 DUP3 SWAP1 PUSH1 0x1 SWAP1 DUP2 LT PUSH2 0x2807 JUMPI INVALID JUMPDEST PUSH1 0x1 PUSH1 0x1 PUSH1 0xA0 SHL SUB SWAP1 SWAP3 AND PUSH1 0x20 SWAP3 DUP4 MUL SWAP2 SWAP1 SWAP2 ADD SWAP1 SWAP2 ADD MSTORE SWAP1 POP SWAP1 JUMP JUMPDEST PUSH32 0x0 DUP2 JUMP JUMPDEST PUSH1 0x0 DUP1 PUSH2 0x2856 PUSH2 0x2768 PUSH2 0x35A0 JUMP JUMPDEST SWAP1 SWAP3 POP SWAP1 POP DUP2 ISZERO PUSH2 0x29B7 JUMPI DUP2 PUSH32 0x0 PUSH1 0x1 PUSH1 0x1 PUSH1 0xA0 SHL SUB AND PUSH4 0x70A08231 PUSH32 0x0 PUSH1 0x40 MLOAD DUP3 PUSH4 0xFFFFFFFF AND PUSH1 0xE0 SHL DUP2 MSTORE PUSH1 0x4 ADD DUP1 DUP3 PUSH1 0x1 PUSH1 0x1 PUSH1 0xA0 SHL SUB AND DUP2 MSTORE PUSH1 0x20 ADD SWAP2 POP POP PUSH1 0x20 PUSH1 0x40 MLOAD DUP1 DUP4 SUB DUP2 DUP7 DUP1 EXTCODESIZE ISZERO DUP1 ISZERO PUSH2 0x28EF JUMPI PUSH1 0x0 DUP1 REVERT JUMPDEST POP GAS STATICCALL ISZERO DUP1 ISZERO PUSH2 0x2903 JUMPI RETURNDATASIZE PUSH1 0x0 DUP1 RETURNDATACOPY RETURNDATASIZE PUSH1 0x0 REVERT JUMPDEST POP POP POP POP PUSH1 0x40 MLOAD RETURNDATASIZE PUSH1 0x20 DUP2 LT ISZERO PUSH2 0x2919 JUMPI PUSH1 0x0 DUP1 REVERT JUMPDEST POP MLOAD LT PUSH2 0x29B7 JUMPI PUSH32 0x0 PUSH1 0x1 PUSH1 0x1 PUSH1 0xA0 SHL SUB AND PUSH4 0xE4E103DC PUSH2 0x2957 PUSH2 0x35A0 JUMP JUMPDEST DUP5 PUSH1 0x40 MLOAD DUP4 PUSH4 0xFFFFFFFF AND PUSH1 0xE0 SHL DUP2 MSTORE PUSH1 0x4 ADD DUP1 DUP4 PUSH1 0x1 PUSH1 0x1 PUSH1 0xA0 SHL SUB AND DUP2 MSTORE PUSH1 0x20 ADD DUP3 DUP2 MSTORE PUSH1 0x20 ADD SWAP3 POP POP POP PUSH1 0x0 PUSH1 0x40 MLOAD DUP1 DUP4 SUB DUP2 PUSH1 0x0 DUP8 DUP1 EXTCODESIZE ISZERO DUP1 ISZERO PUSH2 0x299E JUMPI PUSH1 0x0 DUP1 REVERT JUMPDEST POP GAS CALL ISZERO DUP1 ISZERO PUSH2 0x29B2 JUMPI RETURNDATASIZE PUSH1 0x0 DUP1 RETURNDATACOPY RETURNDATASIZE PUSH1 0x0 REVERT JUMPDEST POP POP POP POP JUMPDEST PUSH2 0x29C8 PUSH2 0x29C2 PUSH2 0x35A0 JUMP JUMPDEST DUP5 PUSH2 0x40B0 JUMP JUMPDEST PUSH1 0xD SLOAD PUSH1 0x1 PUSH1 0xB0 SHL SWAP1 DIV PUSH1 0xFF AND ISZERO PUSH2 0x2C1D JUMPI PUSH32 0x0 ISZERO PUSH2 0x2AFB JUMPI DUP1 ISZERO PUSH2 0x2AEA JUMPI PUSH32 0x0 PUSH1 0x1 PUSH1 0x1 PUSH1 0xA0 SHL SUB AND PUSH4 0xA9059CBB PUSH2 0x2A3D PUSH2 0x35A0 JUMP JUMPDEST DUP4 PUSH1 0x40 MLOAD DUP4 PUSH4 0xFFFFFFFF AND PUSH1 0xE0 SHL DUP2 MSTORE PUSH1 0x4 ADD DUP1 DUP4 PUSH1 0x1 PUSH1 0x1 PUSH1 0xA0 SHL SUB AND DUP2 MSTORE PUSH1 0x20 ADD DUP3 DUP2 MSTORE PUSH1 0x20 ADD SWAP3 POP POP POP PUSH1 0x20 PUSH1 0x40 MLOAD DUP1 DUP4 SUB DUP2 PUSH1 0x0 DUP8 DUP1 EXTCODESIZE ISZERO DUP1 ISZERO PUSH2 0x2A84 JUMPI PUSH1 0x0 DUP1 REVERT JUMPDEST POP GAS CALL ISZERO DUP1 ISZERO PUSH2 0x2A98 JUMPI RETURNDATASIZE PUSH1 0x0 DUP1 RETURNDATACOPY RETURNDATASIZE PUSH1 0x0 REVERT JUMPDEST POP POP POP POP PUSH1 0x40 MLOAD RETURNDATASIZE PUSH1 0x20 DUP2 LT ISZERO PUSH2 0x2AAE JUMPI PUSH1 0x0 DUP1 REVERT JUMPDEST POP MLOAD PUSH2 0x2AEA JUMPI PUSH1 0x40 DUP1 MLOAD PUSH3 0x461BCD PUSH1 0xE5 SHL DUP2 MSTORE PUSH1 0x20 PUSH1 0x4 DUP1 DUP4 ADD SWAP2 SWAP1 SWAP2 MSTORE PUSH1 0x24 DUP3 ADD MSTORE PUSH4 0x3033333 PUSH1 0xE4 SHL PUSH1 0x44 DUP3 ADD MSTORE SWAP1 MLOAD SWAP1 DUP2 SWAP1 SUB PUSH1 0x64 ADD SWAP1 REVERT JUMPDEST PUSH2 0x2AFB PUSH2 0x2AF5 PUSH2 0x35A0 JUMP JUMPDEST DUP5 PUSH2 0x416A JUMP JUMPDEST PUSH1 0x0 PUSH2 0x2B0E PUSH2 0x2B08 PUSH2 0x35A0 JUMP JUMPDEST DUP6 PUSH2 0x41F1 JUMP JUMPDEST SWAP1 POP DUP1 ISZERO PUSH2 0x2C1B JUMPI PUSH32 0x0 PUSH1 0x1 PUSH1 0x1 PUSH1 0xA0 SHL SUB AND PUSH4 0xA9059CBB PUSH2 0x2B4D PUSH2 0x35A0 JUMP JUMPDEST DUP4 PUSH1 0x40 MLOAD DUP4 PUSH4 0xFFFFFFFF AND PUSH1 0xE0 SHL DUP2 MSTORE PUSH1 0x4 ADD DUP1 DUP4 PUSH1 0x1 PUSH1 0x1 PUSH1 0xA0 SHL SUB AND DUP2 MSTORE PUSH1 0x20 ADD DUP3 DUP2 MSTORE PUSH1 0x20 ADD SWAP3 POP POP POP PUSH1 0x20 PUSH1 0x40 MLOAD DUP1 DUP4 SUB DUP2 PUSH1 0x0 DUP8 DUP1 EXTCODESIZE ISZERO DUP1 ISZERO PUSH2 0x2B94 JUMPI PUSH1 0x0 DUP1 REVERT JUMPDEST POP GAS CALL ISZERO DUP1 ISZERO PUSH2 0x2BA8 JUMPI RETURNDATASIZE PUSH1 0x0 DUP1 RETURNDATACOPY RETURNDATASIZE PUSH1 0x0 REVERT JUMPDEST POP POP POP POP PUSH1 0x40 MLOAD RETURNDATASIZE PUSH1 0x20 DUP2 LT ISZERO PUSH2 0x2BBE JUMPI PUSH1 0x0 DUP1 REVERT JUMPDEST POP PUSH2 0x2BD2 SWAP1 POP PUSH2 0x2BCC PUSH2 0x35A0 JUMP JUMPDEST DUP6 PUSH2 0x4336 JUMP JUMPDEST PUSH2 0x2BDA PUSH2 0x35A0 JUMP JUMPDEST PUSH1 0x1 PUSH1 0x1 PUSH1 0xA0 SHL SUB AND PUSH32 0x85082129D87B2FE11527CB1B3B7A520AEB5AA6913F88A3D8757FE40D1DB02FDD DUP3 PUSH1 0x40 MLOAD DUP1 DUP3 DUP2 MSTORE PUSH1 0x20 ADD SWAP2 POP POP PUSH1 0x40 MLOAD DUP1 SWAP2 SUB SWAP1 LOG2 JUMPDEST POP JUMPDEST PUSH2 0x2C25 PUSH2 0x35A0 JUMP JUMPDEST PUSH1 0x1 PUSH1 0x1 PUSH1 0xA0 SHL SUB AND PUSH32 0xF279E6A1F5E320CCA91135676D9CB6E44CA8A08C0B88342BCDB1144F6511B568 DUP4 DUP4 PUSH1 0x40 MLOAD DUP1 DUP4 DUP2 MSTORE PUSH1 0x20 ADD DUP3 DUP2 MSTORE PUSH1 0x20 ADD SWAP3 POP POP POP PUSH1 0x40 MLOAD DUP1 SWAP2 SUB SWAP1 LOG2 POP POP POP JUMP JUMPDEST PUSH1 0x6 DUP1 SLOAD PUSH1 0x40 DUP1 MLOAD PUSH1 0x20 PUSH1 0x2 PUSH1 0x1 DUP6 AND ISZERO PUSH2 0x100 MUL PUSH1 0x0 NOT ADD SWAP1 SWAP5 AND SWAP4 SWAP1 SWAP4 DIV PUSH1 0x1F DUP2 ADD DUP5 SWAP1 DIV DUP5 MUL DUP3 ADD DUP5 ADD SWAP1 SWAP3 MSTORE DUP2 DUP2 MSTORE SWAP3 SWAP2 DUP4 ADD DUP3 DUP3 DUP1 ISZERO PUSH2 0x2CF8 JUMPI DUP1 PUSH1 0x1F LT PUSH2 0x2CCD JUMPI PUSH2 0x100 DUP1 DUP4 SLOAD DIV MUL DUP4 MSTORE SWAP2 PUSH1 0x20 ADD SWAP2 PUSH2 0x2CF8 JUMP JUMPDEST DUP3 ADD SWAP2 SWAP1 PUSH1 0x0 MSTORE PUSH1 0x20 PUSH1 0x0 KECCAK256 SWAP1 JUMPDEST DUP2 SLOAD DUP2 MSTORE SWAP1 PUSH1 0x1 ADD SWAP1 PUSH1 0x20 ADD DUP1 DUP4 GT PUSH2 0x2CDB JUMPI DUP3 SWAP1 SUB PUSH1 0x1F AND DUP3 ADD SWAP2 JUMPDEST POP POP POP POP POP DUP2 JUMP JUMPDEST PUSH1 0x0 DUP1 PUSH2 0x2D0E PUSH2 0x2251 PUSH2 0x35A0 JUMP JUMPDEST SWAP1 SWAP3 POP SWAP1 POP DUP2 ISZERO PUSH2 0x2E6F JUMPI DUP2 PUSH32 0x0 PUSH1 0x1 PUSH1 0x1 PUSH1 0xA0 SHL SUB AND PUSH4 0x70A08231 PUSH32 0x0 PUSH1 0x40 MLOAD DUP3 PUSH4 0xFFFFFFFF AND PUSH1 0xE0 SHL DUP2 MSTORE PUSH1 0x4 ADD DUP1 DUP3 PUSH1 0x1 PUSH1 0x1 PUSH1 0xA0 SHL SUB AND DUP2 MSTORE PUSH1 0x20 ADD SWAP2 POP POP PUSH1 0x20 PUSH1 0x40 MLOAD DUP1 DUP4 SUB DUP2 DUP7 DUP1 EXTCODESIZE ISZERO DUP1 ISZERO PUSH2 0x2DA7 JUMPI PUSH1 0x0 DUP1 REVERT JUMPDEST POP GAS STATICCALL ISZERO DUP1 ISZERO PUSH2 0x2DBB JUMPI RETURNDATASIZE PUSH1 0x0 DUP1 RETURNDATACOPY RETURNDATASIZE PUSH1 0x0 REVERT JUMPDEST POP POP POP POP PUSH1 0x40 MLOAD RETURNDATASIZE PUSH1 0x20 DUP2 LT ISZERO PUSH2 0x2DD1 JUMPI PUSH1 0x0 DUP1 REVERT JUMPDEST POP MLOAD LT PUSH2 0x2E6F JUMPI PUSH32 0x0 PUSH1 0x1 PUSH1 0x1 PUSH1 0xA0 SHL SUB AND PUSH4 0xE4E103DC PUSH2 0x2E0F PUSH2 0x35A0 JUMP JUMPDEST DUP5 PUSH1 0x40 MLOAD DUP4 PUSH4 0xFFFFFFFF AND PUSH1 0xE0 SHL DUP2 MSTORE PUSH1 0x4 ADD DUP1 DUP4 PUSH1 0x1 PUSH1 0x1 PUSH1 0xA0 SHL SUB AND DUP2 MSTORE PUSH1 0x20 ADD DUP3 DUP2 MSTORE PUSH1 0x20 ADD SWAP3 POP POP POP PUSH1 0x0 PUSH1 0x40 MLOAD DUP1 DUP4 SUB DUP2 PUSH1 0x0 DUP8 DUP1 EXTCODESIZE ISZERO DUP1 ISZERO PUSH2 0x2E56 JUMPI PUSH1 0x0 DUP1 REVERT JUMPDEST POP GAS CALL ISZERO DUP1 ISZERO PUSH2 0x2E6A JUMPI RETURNDATASIZE PUSH1 0x0 DUP1 RETURNDATACOPY RETURNDATASIZE PUSH1 0x0 REVERT JUMPDEST POP POP POP POP JUMPDEST PUSH2 0x2E7F PUSH2 0x2E7A PUSH2 0x35A0 JUMP JUMPDEST PUSH2 0x43A3 JUMP JUMPDEST PUSH1 0xD SLOAD PUSH1 0x1 PUSH1 0xB0 SHL SWAP1 DIV PUSH1 0xFF AND ISZERO PUSH2 0x30C7 JUMPI PUSH32 0x0 ISZERO PUSH2 0x2FB1 JUMPI DUP1 ISZERO PUSH2 0x2FA1 JUMPI PUSH32 0x0 PUSH1 0x1 PUSH1 0x1 PUSH1 0xA0 SHL SUB AND PUSH4 0xA9059CBB PUSH2 0x2EF4 PUSH2 0x35A0 JUMP JUMPDEST DUP4 PUSH1 0x40 MLOAD DUP4 PUSH4 0xFFFFFFFF AND PUSH1 0xE0 SHL DUP2 MSTORE PUSH1 0x4 ADD DUP1 DUP4 PUSH1 0x1 PUSH1 0x1 PUSH1 0xA0 SHL SUB AND DUP2 MSTORE PUSH1 0x20 ADD DUP3 DUP2 MSTORE PUSH1 0x20 ADD SWAP3 POP POP POP PUSH1 0x20 PUSH1 0x40 MLOAD DUP1 DUP4 SUB DUP2 PUSH1 0x0 DUP8 DUP1 EXTCODESIZE ISZERO DUP1 ISZERO PUSH2 0x2F3B JUMPI PUSH1 0x0 DUP1 REVERT JUMPDEST POP GAS CALL ISZERO DUP1 ISZERO PUSH2 0x2F4F JUMPI RETURNDATASIZE PUSH1 0x0 DUP1 RETURNDATACOPY RETURNDATASIZE PUSH1 0x0 REVERT JUMPDEST POP POP POP POP PUSH1 0x40 MLOAD RETURNDATASIZE PUSH1 0x20 DUP2 LT ISZERO PUSH2 0x2F65 JUMPI PUSH1 0x0 DUP1 REVERT JUMPDEST POP MLOAD PUSH2 0x2FA1 JUMPI PUSH1 0x40 DUP1 MLOAD PUSH3 0x461BCD PUSH1 0xE5 SHL DUP2 MSTORE PUSH1 0x20 PUSH1 0x4 DUP1 DUP4 ADD SWAP2 SWAP1 SWAP2 MSTORE PUSH1 0x24 DUP3 ADD MSTORE PUSH4 0x3033323 PUSH1 0xE4 SHL PUSH1 0x44 DUP3 ADD MSTORE SWAP1 MLOAD SWAP1 DUP2 SWAP1 SUB PUSH1 0x64 ADD SWAP1 REVERT JUMPDEST PUSH2 0x2FB1 PUSH2 0x2FAC PUSH2 0x35A0 JUMP JUMPDEST PUSH2 0x443C JUMP JUMPDEST PUSH1 0x0 PUSH2 0x2FBE PUSH2 0x24EE PUSH2 0x35A0 JUMP JUMPDEST SWAP1 POP DUP1 ISZERO PUSH2 0x30C5 JUMPI PUSH32 0x0 PUSH1 0x1 PUSH1 0x1 PUSH1 0xA0 SHL SUB AND PUSH4 0xA9059CBB PUSH2 0x2FFD PUSH2 0x35A0 JUMP JUMPDEST DUP4 PUSH1 0x40 MLOAD DUP4 PUSH4 0xFFFFFFFF AND PUSH1 0xE0 SHL DUP2 MSTORE PUSH1 0x4 ADD DUP1 DUP4 PUSH1 0x1 PUSH1 0x1 PUSH1 0xA0 SHL SUB AND DUP2 MSTORE PUSH1 0x20 ADD DUP3 DUP2 MSTORE PUSH1 0x20 ADD SWAP3 POP POP POP PUSH1 0x20 PUSH1 0x40 MLOAD DUP1 DUP4 SUB DUP2 PUSH1 0x0 DUP8 DUP1 EXTCODESIZE ISZERO DUP1 ISZERO PUSH2 0x3044 JUMPI PUSH1 0x0 DUP1 REVERT JUMPDEST POP GAS CALL ISZERO DUP1 ISZERO PUSH2 0x3058 JUMPI RETURNDATASIZE PUSH1 0x0 DUP1 RETURNDATACOPY RETURNDATASIZE PUSH1 0x0 REVERT JUMPDEST POP POP POP POP PUSH1 0x40 MLOAD RETURNDATASIZE PUSH1 0x20 DUP2 LT ISZERO PUSH2 0x306E JUMPI PUSH1 0x0 DUP1 REVERT JUMPDEST POP PUSH2 0x307C SWAP1 POP PUSH2 0x25B1 PUSH2 0x35A0 JUMP JUMPDEST PUSH2 0x3084 PUSH2 0x35A0 JUMP JUMPDEST PUSH1 0x1 PUSH1 0x1 PUSH1 0xA0 SHL SUB AND PUSH32 0x85082129D87B2FE11527CB1B3B7A520AEB5AA6913F88A3D8757FE40D1DB02FDD DUP3 PUSH1 0x40 MLOAD DUP1 DUP3 DUP2 MSTORE PUSH1 0x20 ADD SWAP2 POP POP PUSH1 0x40 MLOAD DUP1 SWAP2 SUB SWAP1 LOG2 JUMPDEST POP JUMPDEST PUSH2 0x30CF PUSH2 0x35A0 JUMP JUMPDEST PUSH1 0x1 PUSH1 0x1 PUSH1 0xA0 SHL SUB AND PUSH32 0xF279E6A1F5E320CCA91135676D9CB6E44CA8A08C0B88342BCDB1144F6511B568 DUP4 DUP4 PUSH1 0x40 MLOAD DUP1 DUP4 DUP2 MSTORE PUSH1 0x20 ADD DUP3 DUP2 MSTORE PUSH1 0x20 ADD SWAP3 POP POP POP PUSH1 0x40 MLOAD DUP1 SWAP2 SUB SWAP1 LOG2 POP POP JUMP JUMPDEST PUSH1 0x0 PUSH1 0xA SLOAD PUSH1 0x0 EQ ISZERO PUSH2 0x3130 JUMPI POP PUSH1 0x0 PUSH2 0xFA3 JUMP JUMPDEST PUSH1 0x0 DUP1 JUMPDEST PUSH1 0x8 SLOAD DUP2 LT ISZERO PUSH2 0x324C JUMPI PUSH1 0x0 PUSH1 0x7 PUSH1 0x0 PUSH1 0x8 DUP5 DUP2 SLOAD DUP2 LT PUSH2 0x3151 JUMPI INVALID JUMPDEST PUSH1 0x0 SWAP2 DUP3 MSTORE PUSH1 0x20 DUP1 DUP4 KECCAK256 PUSH1 0x2 SWAP1 SWAP3 MUL SWAP1 SWAP2 ADD SLOAD PUSH1 0x1 PUSH1 0x1 PUSH1 0xA0 SHL SUB AND DUP4 MSTORE DUP3 ADD SWAP3 SWAP1 SWAP3 MSTORE PUSH1 0x40 ADD SWAP1 KECCAK256 PUSH1 0x8 DUP1 SLOAD DUP5 SWAP1 DUP2 LT PUSH2 0x3188 JUMPI INVALID JUMPDEST SWAP1 PUSH1 0x0 MSTORE PUSH1 0x20 PUSH1 0x0 KECCAK256 SWAP1 PUSH1 0x2 MUL ADD PUSH1 0x1 ADD SLOAD DUP2 SLOAD DUP2 LT PUSH2 0x31A4 JUMPI INVALID JUMPDEST PUSH1 0x0 SWAP2 DUP3 MSTORE PUSH1 0x20 SWAP2 DUP3 SWAP1 KECCAK256 PUSH1 0x40 DUP1 MLOAD PUSH2 0x120 DUP2 ADD DUP3 MSTORE PUSH1 0x8 SWAP1 SWAP4 MUL SWAP1 SWAP2 ADD DUP1 SLOAD DUP1 DUP5 MSTORE PUSH1 0x1 DUP3 ADD SLOAD SWAP5 DUP5 ADD SWAP5 SWAP1 SWAP5 MSTORE PUSH1 0x2 DUP2 ADD SLOAD SWAP2 DUP4 ADD SWAP2 SWAP1 SWAP2 MSTORE PUSH1 0x3 DUP2 ADD SLOAD PUSH1 0x60 DUP4 ADD MSTORE PUSH1 0x4 DUP2 ADD SLOAD PUSH1 0x80 DUP4 ADD DUP2 SWAP1 MSTORE PUSH1 0x5 DUP3 ADD SLOAD PUSH1 0xA0 DUP5 ADD MSTORE PUSH1 0x6 DUP3 ADD SLOAD PUSH1 0xC0 DUP5 ADD MSTORE PUSH1 0x7 SWAP1 SWAP2 ADD SLOAD PUSH1 0xFF DUP1 DUP3 AND ISZERO ISZERO PUSH1 0xE0 DUP6 ADD MSTORE PUSH2 0x100 SWAP2 DUP3 SWAP1 DIV AND ISZERO ISZERO SWAP1 DUP4 ADD MSTORE SWAP1 SWAP3 POP PUSH2 0x3241 SWAP2 PUSH2 0x323A SWAP2 SWAP1 PUSH2 0x3849 JUMP JUMPDEST DUP5 SWAP1 PUSH2 0x37E8 JUMP JUMPDEST SWAP3 POP POP PUSH1 0x1 ADD PUSH2 0x3134 JUMP JUMPDEST POP PUSH1 0xA SLOAD PUSH2 0x273C SWAP1 DUP3 SWAP1 PUSH2 0x38A2 JUMP JUMPDEST PUSH1 0x2 SLOAD PUSH1 0x40 DUP1 MLOAD PUSH4 0x70A08231 PUSH1 0xE0 SHL DUP2 MSTORE ADDRESS PUSH1 0x4 DUP3 ADD MSTORE SWAP1 MLOAD PUSH1 0x0 SWAP3 PUSH1 0x1 PUSH1 0x1 PUSH1 0xA0 SHL SUB AND SWAP2 PUSH4 0x70A08231 SWAP2 PUSH1 0x24 DUP1 DUP4 ADD SWAP3 PUSH1 0x20 SWAP3 SWAP2 SWAP1 DUP3 SWAP1 SUB ADD DUP2 DUP7 DUP1 EXTCODESIZE ISZERO DUP1 ISZERO PUSH2 0x1015 JUMPI PUSH1 0x0 DUP1 REVERT JUMPDEST PUSH1 0xD SLOAD PUSH1 0x1 PUSH1 0x1 PUSH1 0xA0 SHL SUB AND DUP2 JUMP JUMPDEST PUSH1 0xB SLOAD DUP2 JUMP JUMPDEST PUSH1 0xD SLOAD PUSH1 0x1 PUSH1 0xB8 SHL SWAP1 DIV PUSH1 0xFF AND DUP2 JUMP JUMPDEST PUSH1 0x0 PUSH2 0xC41 PUSH2 0x32D8 PUSH2 0x35A0 JUMP JUMPDEST DUP4 PUSH2 0x41F1 JUMP JUMPDEST PUSH1 0x9 DUP2 DUP2 SLOAD DUP2 LT PUSH2 0x32EE JUMPI PUSH1 0x0 DUP1 REVERT JUMPDEST PUSH1 0x0 SWAP2 DUP3 MSTORE PUSH1 0x20 SWAP1 SWAP2 KECCAK256 PUSH1 0x2 SWAP1 SWAP2 MUL ADD DUP1 SLOAD PUSH1 0x1 SWAP1 SWAP2 ADD SLOAD PUSH1 0x1 PUSH1 0x1 PUSH1 0xA0 SHL SUB SWAP1 SWAP2 AND SWAP2 POP DUP3 JUMP JUMPDEST PUSH32 0x0 DUP2 JUMP JUMPDEST PUSH32 0x0 DUP2 JUMP JUMPDEST PUSH32 0x0 DUP2 JUMP JUMPDEST PUSH1 0x0 PUSH2 0x3394 PUSH2 0x338F PUSH2 0x35A0 JUMP JUMPDEST PUSH2 0x15AF JUMP JUMPDEST SWAP1 POP SWAP1 JUMP JUMPDEST PUSH1 0x0 DUP1 PUSH2 0x276E PUSH2 0x33A7 PUSH2 0x35A0 JUMP JUMPDEST DUP5 PUSH2 0x44A4 JUMP JUMPDEST PUSH1 0x0 DUP1 PUSH1 0x1 PUSH1 0x0 SWAP1 SLOAD SWAP1 PUSH2 0x100 EXP SWAP1 DIV PUSH1 0x1 PUSH1 0x1 PUSH1 0xA0 SHL SUB AND PUSH1 0x1 PUSH1 0x1 PUSH1 0xA0 SHL SUB AND PUSH4 0x313CE567 PUSH1 0x40 MLOAD DUP2 PUSH4 0xFFFFFFFF AND PUSH1 0xE0 SHL DUP2 MSTORE PUSH1 0x4 ADD PUSH1 0x20 PUSH1 0x40 MLOAD DUP1 DUP4 SUB DUP2 DUP7 DUP1 EXTCODESIZE ISZERO DUP1 ISZERO PUSH2 0x33FE JUMPI PUSH1 0x0 DUP1 REVERT JUMPDEST POP GAS STATICCALL ISZERO DUP1 ISZERO PUSH2 0x3412 JUMPI RETURNDATASIZE PUSH1 0x0 DUP1 RETURNDATACOPY RETURNDATASIZE PUSH1 0x0 REVERT JUMPDEST POP POP POP POP PUSH1 0x40 MLOAD RETURNDATASIZE PUSH1 0x20 DUP2 LT ISZERO PUSH2 0x3428 JUMPI PUSH1 0x0 DUP1 REVERT JUMPDEST POP MLOAD SWAP2 POP POP SWAP1 JUMP JUMPDEST PUSH1 0xE DUP2 DUP2 SLOAD DUP2 LT PUSH2 0x3440 JUMPI PUSH1 0x0 DUP1 REVERT JUMPDEST PUSH1 0x0 SWAP2 DUP3 MSTORE PUSH1 0x20 SWAP1 SWAP2 KECCAK256 PUSH1 0x2 SWAP1 SWAP2 MUL ADD DUP1 SLOAD PUSH1 0x1 SWAP1 SWAP2 ADD SLOAD SWAP1 SWAP2 POP DUP3 JUMP JUMPDEST PUSH2 0x3466 PUSH2 0x35A0 JUMP JUMPDEST PUSH1 0x1 PUSH1 0x1 PUSH1 0xA0 SHL SUB AND PUSH2 0x3477 PUSH2 0x2699 JUMP JUMPDEST PUSH1 0x1 PUSH1 0x1 PUSH1 0xA0 SHL SUB AND EQ PUSH2 0x34D2 JUMPI PUSH1 0x40 DUP1 MLOAD PUSH3 0x461BCD PUSH1 0xE5 SHL DUP2 MSTORE PUSH1 0x20 PUSH1 0x4 DUP3 ADD DUP2 SWAP1 MSTORE PUSH1 0x24 DUP3 ADD MSTORE PUSH32 0x4F776E61626C653A2063616C6C6572206973206E6F7420746865206F776E6572 PUSH1 0x44 DUP3 ADD MSTORE SWAP1 MLOAD SWAP1 DUP2 SWAP1 SUB PUSH1 0x64 ADD SWAP1 REVERT JUMPDEST PUSH1 0x1 PUSH1 0x1 PUSH1 0xA0 SHL SUB DUP2 AND PUSH2 0x3517 JUMPI PUSH1 0x40 MLOAD PUSH3 0x461BCD PUSH1 0xE5 SHL DUP2 MSTORE PUSH1 0x4 ADD DUP1 DUP1 PUSH1 0x20 ADD DUP3 DUP2 SUB DUP3 MSTORE PUSH1 0x26 DUP2 MSTORE PUSH1 0x20 ADD DUP1 PUSH2 0x4961 PUSH1 0x26 SWAP2 CODECOPY PUSH1 0x40 ADD SWAP2 POP POP PUSH1 0x40 MLOAD DUP1 SWAP2 SUB SWAP1 REVERT JUMPDEST PUSH1 0x0 DUP1 SLOAD PUSH1 0x40 MLOAD PUSH1 0x1 PUSH1 0x1 PUSH1 0xA0 SHL SUB DUP1 DUP6 AND SWAP4 SWAP3 AND SWAP2 PUSH32 0x8BE0079C531659141344CD1FD0A4F28419497F9722A3DAAFE3B4186F6B6457E0 SWAP2 LOG3 PUSH1 0x0 DUP1 SLOAD PUSH1 0x1 PUSH1 0x1 PUSH1 0xA0 SHL SUB NOT AND PUSH1 0x1 PUSH1 0x1 PUSH1 0xA0 SHL SUB SWAP3 SWAP1 SWAP3 AND SWAP2 SWAP1 SWAP2 OR SWAP1 SSTORE JUMP JUMPDEST PUSH1 0xC SLOAD DUP2 JUMP JUMPDEST PUSH1 0x2 SLOAD PUSH1 0x1 PUSH1 0x1 PUSH1 0xA0 SHL SUB AND SWAP1 JUMP JUMPDEST PUSH1 0x8 DUP2 DUP2 SLOAD DUP2 LT PUSH2 0x32EE JUMPI PUSH1 0x0 DUP1 REVERT JUMPDEST PUSH1 0x0 PUSH2 0x3394 PUSH2 0x24EE JUMPDEST CALLER SWAP1 JUMP JUMPDEST PUSH1 0x0 PUSH1 0xB SLOAD DUP4 GT ISZERO PUSH2 0x35E2 JUMPI PUSH1 0xB SLOAD PUSH2 0x35BD DUP5 DUP5 PUSH2 0x391B JUMP JUMPDEST GT PUSH2 0x35CA JUMPI POP PUSH1 0x0 PUSH2 0xC41 JUMP JUMPDEST PUSH1 0xB SLOAD PUSH2 0x35DB SWAP1 PUSH2 0x1DF4 DUP6 DUP6 PUSH2 0x391B JUMP JUMPDEST SWAP1 POP PUSH2 0xC41 JUMP JUMPDEST PUSH1 0xB SLOAD PUSH2 0x35EF DUP5 DUP5 PUSH2 0x37E8 JUMP JUMPDEST LT PUSH2 0x35FC JUMPI POP PUSH1 0x0 PUSH2 0xC41 JUMP JUMPDEST PUSH2 0x35DB PUSH2 0x3609 DUP5 DUP5 PUSH2 0x37E8 JUMP JUMPDEST PUSH1 0xB SLOAD SWAP1 PUSH2 0x391B JUMP JUMPDEST PUSH1 0xD DUP1 SLOAD PUSH1 0xFF PUSH1 0xA8 SHL NOT AND PUSH1 0x1 PUSH1 0xA8 SHL OR SWAP1 SSTORE PUSH1 0x40 MLOAD PUSH32 0x2E136745550967F28B779CE8C395CA060A2F844EDFB5B06631FE677F66F9E305 SWAP1 PUSH1 0x0 SWAP1 LOG1 JUMP JUMPDEST PUSH1 0x1 PUSH1 0x1 PUSH1 0xA0 SHL SUB DUP3 AND PUSH1 0x0 SWAP1 DUP2 MSTORE PUSH1 0x7 PUSH1 0x20 MSTORE PUSH1 0x40 DUP2 KECCAK256 DUP1 SLOAD DUP3 SWAP2 SWAP1 DUP5 SWAP1 DUP2 LT PUSH2 0x3677 JUMPI INVALID JUMPDEST PUSH1 0x0 SWAP2 DUP3 MSTORE PUSH1 0x20 DUP1 DUP4 KECCAK256 PUSH1 0x40 DUP1 MLOAD PUSH2 0x120 DUP2 ADD DUP3 MSTORE PUSH1 0x8 SWAP1 SWAP5 MUL SWAP1 SWAP2 ADD DUP1 SLOAD DUP5 MSTORE PUSH1 0x1 DUP2 ADD SLOAD SWAP3 DUP5 ADD SWAP3 SWAP1 SWAP3 MSTORE PUSH1 0x2 DUP3 ADD SLOAD SWAP1 DUP4 ADD MSTORE PUSH1 0x3 DUP2 ADD SLOAD PUSH1 0x60 DUP4 ADD MSTORE PUSH1 0x4 DUP2 ADD SLOAD PUSH1 0x80 DUP4 ADD MSTORE PUSH1 0x5 DUP2 ADD SLOAD PUSH1 0xA0 DUP4 ADD MSTORE PUSH1 0x6 DUP2 ADD SLOAD PUSH1 0xC0 DUP4 ADD MSTORE PUSH1 0x7 ADD SLOAD PUSH1 0xFF DUP1 DUP3 AND ISZERO ISZERO PUSH1 0xE0 DUP5 ADD MSTORE PUSH2 0x100 SWAP2 DUP3 SWAP1 DIV AND ISZERO ISZERO SWAP1 DUP3 ADD MSTORE SWAP2 POP PUSH32 0x0 PUSH32 0x0 ADD PUSH32 0x0 ADD SWAP1 TIMESTAMP DUP3 LT PUSH2 0x3768 JUMPI TIMESTAMP PUSH2 0x376A JUMP JUMPDEST DUP2 JUMPDEST SWAP1 POP PUSH1 0x0 PUSH2 0x377B DUP5 PUSH1 0x20 ADD MLOAD PUSH2 0x46BD JUMP JUMPDEST SWAP1 POP PUSH1 0x0 PUSH2 0x37C3 PUSH2 0x37AC PUSH32 0x0 DUP5 PUSH2 0x37E8 JUMP JUMPDEST PUSH1 0x20 DUP8 ADD MLOAD PUSH2 0x37BC SWAP1 DUP7 SWAP1 PUSH2 0x391B JUMP JUMPDEST DUP8 MLOAD PUSH2 0x47C4 JUMP JUMPDEST SWAP1 POP PUSH2 0x37DC DUP6 PUSH1 0x40 ADD MLOAD DUP3 PUSH2 0x391B SWAP1 SWAP2 SWAP1 PUSH4 0xFFFFFFFF AND JUMP JUMPDEST SWAP9 SWAP8 POP POP POP POP POP POP POP POP JUMP JUMPDEST PUSH1 0x0 DUP3 DUP3 ADD DUP4 DUP2 LT ISZERO PUSH2 0x3842 JUMPI PUSH1 0x40 DUP1 MLOAD PUSH3 0x461BCD PUSH1 0xE5 SHL DUP2 MSTORE PUSH1 0x20 PUSH1 0x4 DUP3 ADD MSTORE PUSH1 0x1B PUSH1 0x24 DUP3 ADD MSTORE PUSH32 0x536166654D6174683A206164646974696F6E206F766572666C6F770000000000 PUSH1 0x44 DUP3 ADD MSTORE SWAP1 MLOAD SWAP1 DUP2 SWAP1 SUB PUSH1 0x64 ADD SWAP1 REVERT JUMPDEST SWAP4 SWAP3 POP POP POP JUMP JUMPDEST PUSH1 0x0 DUP3 PUSH2 0x3858 JUMPI POP PUSH1 0x0 PUSH2 0xC41 JUMP JUMPDEST DUP3 DUP3 MUL DUP3 DUP5 DUP3 DUP2 PUSH2 0x3865 JUMPI INVALID JUMPDEST DIV EQ PUSH2 0x3842 JUMPI PUSH1 0x40 MLOAD PUSH3 0x461BCD PUSH1 0xE5 SHL DUP2 MSTORE PUSH1 0x4 ADD DUP1 DUP1 PUSH1 0x20 ADD DUP3 DUP2 SUB DUP3 MSTORE PUSH1 0x21 DUP2 MSTORE PUSH1 0x20 ADD DUP1 PUSH2 0x4A1B PUSH1 0x21 SWAP2 CODECOPY PUSH1 0x40 ADD SWAP2 POP POP PUSH1 0x40 MLOAD DUP1 SWAP2 SUB SWAP1 REVERT JUMPDEST PUSH1 0x0 DUP1 DUP3 GT PUSH2 0x38F8 JUMPI PUSH1 0x40 DUP1 MLOAD PUSH3 0x461BCD PUSH1 0xE5 SHL DUP2 MSTORE PUSH1 0x20 PUSH1 0x4 DUP3 ADD MSTORE PUSH1 0x1A PUSH1 0x24 DUP3 ADD MSTORE PUSH32 0x536166654D6174683A206469766973696F6E206279207A65726F000000000000 PUSH1 0x44 DUP3 ADD MSTORE SWAP1 MLOAD SWAP1 DUP2 SWAP1 SUB PUSH1 0x64 ADD SWAP1 REVERT JUMPDEST DUP2 DUP4 DUP2 PUSH2 0x3901 JUMPI INVALID JUMPDEST DIV SWAP4 SWAP3 POP POP POP JUMP JUMPDEST PUSH1 0x0 PUSH2 0x3842 PUSH2 0x2710 PUSH2 0x1C66 DUP6 DUP6 PUSH2 0x3849 JUMP JUMPDEST PUSH1 0x0 DUP3 DUP3 GT ISZERO PUSH2 0x3972 JUMPI PUSH1 0x40 DUP1 MLOAD PUSH3 0x461BCD PUSH1 0xE5 SHL DUP2 MSTORE PUSH1 0x20 PUSH1 0x4 DUP3 ADD MSTORE PUSH1 0x1E PUSH1 0x24 DUP3 ADD MSTORE PUSH32 0x536166654D6174683A207375627472616374696F6E206F766572666C6F770000 PUSH1 0x44 DUP3 ADD MSTORE SWAP1 MLOAD SWAP1 DUP2 SWAP1 SUB PUSH1 0x64 ADD SWAP1 REVERT JUMPDEST POP SWAP1 SUB SWAP1 JUMP JUMPDEST PUSH1 0x0 DUP1 PUSH1 0x0 DUP4 PUSH32 0x0 GT PUSH2 0x39AB JUMPI PUSH1 0x0 PUSH2 0x39D5 JUMP JUMPDEST PUSH2 0x39D5 PUSH32 0x0 DUP6 PUSH2 0x391B JUMP JUMPDEST SWAP1 POP DUP1 PUSH2 0x39E9 JUMPI PUSH1 0x0 DUP6 SWAP3 POP SWAP3 POP POP PUSH2 0x3A0D JUMP JUMPDEST PUSH2 0x39F3 DUP6 DUP3 PUSH2 0x3909 JUMP JUMPDEST PUSH2 0x3A07 PUSH2 0x3A00 DUP8 DUP5 PUSH2 0x3909 JUMP JUMPDEST DUP8 SWAP1 PUSH2 0x391B JUMP JUMPDEST SWAP3 POP SWAP3 POP POP JUMPDEST SWAP3 POP SWAP3 SWAP1 POP JUMP JUMPDEST PUSH1 0x0 DUP1 PUSH1 0x0 DUP1 PUSH1 0x0 PUSH2 0x3A25 DUP7 PUSH2 0x15AF JUMP JUMPDEST SWAP1 POP PUSH2 0x3A30 DUP7 PUSH2 0x3E5B JUMP JUMPDEST SWAP1 SWAP4 POP SWAP2 POP PUSH2 0x3A3F DUP2 DUP5 PUSH2 0x37E8 JUMP JUMPDEST SWAP5 POP SWAP1 SWAP3 POP POP POP SWAP2 POP SWAP2 JUMP JUMPDEST PUSH1 0x2 SLOAD PUSH1 0x40 DUP1 MLOAD PUSH4 0x95EA7B3 PUSH1 0xE0 SHL DUP2 MSTORE PUSH1 0x1 PUSH1 0x1 PUSH1 0xA0 SHL SUB DUP6 DUP2 AND PUSH1 0x4 DUP4 ADD MSTORE PUSH1 0x24 DUP3 ADD DUP6 SWAP1 MSTORE SWAP2 MLOAD SWAP2 SWAP1 SWAP3 AND SWAP2 PUSH4 0x95EA7B3 SWAP2 PUSH1 0x44 DUP1 DUP4 ADD SWAP3 PUSH1 0x20 SWAP3 SWAP2 SWAP1 DUP3 SWAP1 SUB ADD DUP2 PUSH1 0x0 DUP8 DUP1 EXTCODESIZE ISZERO DUP1 ISZERO PUSH2 0x3AA1 JUMPI PUSH1 0x0 DUP1 REVERT JUMPDEST POP GAS CALL ISZERO DUP1 ISZERO PUSH2 0x3AB5 JUMPI RETURNDATASIZE PUSH1 0x0 DUP1 RETURNDATACOPY RETURNDATASIZE PUSH1 0x0 REVERT JUMPDEST POP POP POP POP PUSH1 0x40 MLOAD RETURNDATASIZE PUSH1 0x20 DUP2 LT ISZERO PUSH2 0x3ACB JUMPI PUSH1 0x0 DUP1 REVERT JUMPDEST POP POP PUSH1 0x40 DUP1 MLOAD DUP3 DUP2 MSTORE SWAP1 MLOAD PUSH1 0x1 PUSH1 0x1 PUSH1 0xA0 SHL SUB DUP5 AND SWAP2 PUSH32 0xD77DF63D9076D067D9FD7AF16C3D67DB48B84064C3314F5900AE919922D364A1 SWAP2 SWAP1 DUP2 SWAP1 SUB PUSH1 0x20 ADD SWAP1 LOG2 POP POP JUMP JUMPDEST PUSH1 0x1 PUSH1 0x1 PUSH1 0xA0 SHL SUB DUP5 AND PUSH2 0x3B23 JUMPI PUSH1 0x0 DUP1 REVERT JUMPDEST PUSH1 0x3 SLOAD PUSH1 0x1 PUSH1 0x1 PUSH1 0xA0 SHL SUB AND PUSH4 0x38ED1739 DUP5 DUP5 PUSH2 0x3B3E PUSH2 0x279D JUMP JUMPDEST DUP9 DUP7 PUSH1 0x40 MLOAD DUP7 PUSH4 0xFFFFFFFF AND PUSH1 0xE0 SHL DUP2 MSTORE PUSH1 0x4 ADD DUP1 DUP7 DUP2 MSTORE PUSH1 0x20 ADD DUP6 DUP2 MSTORE PUSH1 0x20 ADD DUP1 PUSH1 0x20 ADD DUP5 PUSH1 0x1 PUSH1 0x1 PUSH1 0xA0 SHL SUB AND DUP2 MSTORE PUSH1 0x20 ADD DUP4 DUP2 MSTORE PUSH1 0x20 ADD DUP3 DUP2 SUB DUP3 MSTORE DUP6 DUP2 DUP2 MLOAD DUP2 MSTORE PUSH1 0x20 ADD SWAP2 POP DUP1 MLOAD SWAP1 PUSH1 0x20 ADD SWAP1 PUSH1 0x20 MUL DUP1 DUP4 DUP4 PUSH1 0x0 JUMPDEST DUP4 DUP2 LT ISZERO PUSH2 0x3BB0 JUMPI DUP2 DUP2 ADD MLOAD DUP4 DUP3 ADD MSTORE PUSH1 0x20 ADD PUSH2 0x3B98 JUMP JUMPDEST POP POP POP POP SWAP1 POP ADD SWAP7 POP POP POP POP POP POP POP PUSH1 0x0 PUSH1 0x40 MLOAD DUP1 DUP4 SUB DUP2 PUSH1 0x0 DUP8 DUP1 EXTCODESIZE ISZERO DUP1 ISZERO PUSH2 0x3BD9 JUMPI PUSH1 0x0 DUP1 REVERT JUMPDEST POP GAS CALL ISZERO DUP1 ISZERO PUSH2 0x3BED JUMPI RETURNDATASIZE PUSH1 0x0 DUP1 RETURNDATACOPY RETURNDATASIZE PUSH1 0x0 REVERT JUMPDEST POP POP POP POP PUSH1 0x40 MLOAD RETURNDATASIZE PUSH1 0x0 DUP3 RETURNDATACOPY PUSH1 0x1F RETURNDATASIZE SWAP1 DUP2 ADD PUSH1 0x1F NOT AND DUP3 ADD PUSH1 0x40 MSTORE PUSH1 0x20 DUP2 LT ISZERO PUSH2 0x3C16 JUMPI PUSH1 0x0 DUP1 REVERT JUMPDEST DUP2 ADD SWAP1 DUP1 DUP1 MLOAD PUSH1 0x40 MLOAD SWAP4 SWAP3 SWAP2 SWAP1 DUP5 PUSH5 0x100000000 DUP3 GT ISZERO PUSH2 0x3C36 JUMPI PUSH1 0x0 DUP1 REVERT JUMPDEST SWAP1 DUP4 ADD SWAP1 PUSH1 0x20 DUP3 ADD DUP6 DUP2 GT ISZERO PUSH2 0x3C4B JUMPI PUSH1 0x0 DUP1 REVERT JUMPDEST DUP3 MLOAD DUP7 PUSH1 0x20 DUP3 MUL DUP4 ADD GT PUSH5 0x100000000 DUP3 GT OR ISZERO PUSH2 0x3C68 JUMPI PUSH1 0x0 DUP1 REVERT JUMPDEST DUP3 MSTORE POP DUP2 MLOAD PUSH1 0x20 SWAP2 DUP3 ADD SWAP3 DUP3 ADD SWAP2 MUL DUP1 DUP4 DUP4 PUSH1 0x0 JUMPDEST DUP4 DUP2 LT ISZERO PUSH2 0x3C95 JUMPI DUP2 DUP2 ADD MLOAD DUP4 DUP3 ADD MSTORE PUSH1 0x20 ADD PUSH2 0x3C7D JUMP JUMPDEST POP POP POP POP SWAP1 POP ADD PUSH1 0x40 MSTORE POP POP POP POP POP POP POP POP JUMP JUMPDEST PUSH1 0x1 PUSH1 0x1 PUSH1 0xA0 SHL SUB DUP2 AND PUSH1 0x0 SWAP1 DUP2 MSTORE PUSH1 0x7 PUSH1 0x20 SWAP1 DUP2 MSTORE PUSH1 0x40 DUP1 DUP4 KECCAK256 DUP1 SLOAD DUP3 MLOAD DUP2 DUP6 MUL DUP2 ADD DUP6 ADD SWAP1 SWAP4 MSTORE DUP1 DUP4 MSTORE DUP5 SWAP4 DUP5 SWAP1 DUP5 ADD JUMPDEST DUP3 DUP3 LT ISZERO PUSH2 0x3D6E JUMPI PUSH1 0x0 DUP5 DUP2 MSTORE PUSH1 0x20 SWAP1 DUP2 SWAP1 KECCAK256 PUSH1 0x40 DUP1 MLOAD PUSH2 0x120 DUP2 ADD DUP3 MSTORE PUSH1 0x8 DUP7 MUL SWAP1 SWAP3 ADD DUP1 SLOAD DUP4 MSTORE PUSH1 0x1 DUP1 DUP3 ADD SLOAD DUP5 DUP7 ADD MSTORE PUSH1 0x2 DUP3 ADD SLOAD SWAP3 DUP5 ADD SWAP3 SWAP1 SWAP3 MSTORE PUSH1 0x3 DUP2 ADD SLOAD PUSH1 0x60 DUP5 ADD MSTORE PUSH1 0x4 DUP2 ADD SLOAD PUSH1 0x80 DUP5 ADD MSTORE PUSH1 0x5 DUP2 ADD SLOAD PUSH1 0xA0 DUP5 ADD MSTORE PUSH1 0x6 DUP2 ADD SLOAD PUSH1 0xC0 DUP5 ADD MSTORE PUSH1 0x7 ADD SLOAD PUSH1 0xFF DUP1 DUP3 AND ISZERO ISZERO PUSH1 0xE0 DUP6 ADD MSTORE PUSH2 0x100 SWAP2 DUP3 SWAP1 DIV AND ISZERO ISZERO SWAP1 DUP4 ADD MSTORE SWAP1 DUP4 MSTORE SWAP1 SWAP3 ADD SWAP2 ADD PUSH2 0x3CDC JUMP JUMPDEST POP POP POP POP SWAP1 POP DUP1 MLOAD PUSH1 0x0 EQ ISZERO PUSH2 0x3D88 JUMPI PUSH1 0x0 SWAP2 POP POP PUSH2 0xBBD JUMP JUMPDEST PUSH1 0x0 DUP1 JUMPDEST DUP3 MLOAD DUP2 LT ISZERO PUSH2 0x16BE JUMPI DUP3 DUP2 DUP2 MLOAD DUP2 LT PUSH2 0x3DA1 JUMPI INVALID JUMPDEST PUSH1 0x20 MUL PUSH1 0x20 ADD ADD MLOAD PUSH2 0x100 ADD MLOAD PUSH2 0x3DDF JUMPI PUSH2 0x3DDC DUP4 DUP3 DUP2 MLOAD DUP2 LT PUSH2 0x3DC1 JUMPI INVALID JUMPDEST PUSH1 0x20 MUL PUSH1 0x20 ADD ADD MLOAD PUSH1 0x0 ADD MLOAD DUP4 PUSH2 0x37E8 SWAP1 SWAP2 SWAP1 PUSH4 0xFFFFFFFF AND JUMP JUMPDEST SWAP2 POP JUMPDEST PUSH1 0x1 ADD PUSH2 0x3D8C JUMP JUMPDEST PUSH1 0x1 PUSH1 0x1 PUSH1 0xA0 SHL SUB DUP2 AND PUSH1 0x0 SWAP1 DUP2 MSTORE PUSH1 0x7 PUSH1 0x20 MSTORE PUSH1 0x40 SWAP1 KECCAK256 DUP1 SLOAD PUSH2 0x3E0B JUMPI POP PUSH2 0x25FF JUMP JUMPDEST PUSH1 0x0 JUMPDEST DUP2 SLOAD DUP2 LT ISZERO PUSH2 0x3E56 JUMPI PUSH1 0x1 DUP3 DUP3 DUP2 SLOAD DUP2 LT PUSH2 0x3E25 JUMPI INVALID JUMPDEST PUSH1 0x0 SWAP2 DUP3 MSTORE PUSH1 0x20 SWAP1 SWAP2 KECCAK256 PUSH1 0x7 PUSH1 0x8 SWAP1 SWAP3 MUL ADD ADD DUP1 SLOAD SWAP2 ISZERO ISZERO PUSH2 0x100 MUL PUSH2 0xFF00 NOT SWAP1 SWAP3 AND SWAP2 SWAP1 SWAP2 OR SWAP1 SSTORE PUSH1 0x1 ADD PUSH2 0x3E0E JUMP JUMPDEST POP POP POP JUMP JUMPDEST PUSH1 0xD SLOAD PUSH1 0x0 SWAP1 DUP2 SWAP1 PUSH1 0x1 PUSH1 0xB0 SHL SWAP1 DIV PUSH1 0xFF AND PUSH2 0x3E7C JUMPI POP PUSH1 0x0 SWAP1 POP DUP1 PUSH2 0x2773 JUMP JUMPDEST PUSH1 0x1 PUSH1 0x1 PUSH1 0xA0 SHL SUB DUP4 AND PUSH1 0x0 SWAP1 DUP2 MSTORE PUSH1 0x7 PUSH1 0x20 SWAP1 DUP2 MSTORE PUSH1 0x40 DUP1 DUP4 KECCAK256 DUP1 SLOAD DUP3 MLOAD DUP2 DUP6 MUL DUP2 ADD DUP6 ADD SWAP1 SWAP4 MSTORE DUP1 DUP4 MSTORE SWAP2 SWAP3 SWAP1 SWAP2 SWAP1 DUP5 SWAP1 DUP5 ADD JUMPDEST DUP3 DUP3 LT ISZERO PUSH2 0x3F44 JUMPI PUSH1 0x0 DUP5 DUP2 MSTORE PUSH1 0x20 SWAP1 DUP2 SWAP1 KECCAK256 PUSH1 0x40 DUP1 MLOAD PUSH2 0x120 DUP2 ADD DUP3 MSTORE PUSH1 0x8 DUP7 MUL SWAP1 SWAP3 ADD DUP1 SLOAD DUP4 MSTORE PUSH1 0x1 DUP1 DUP3 ADD SLOAD DUP5 DUP7 ADD MSTORE PUSH1 0x2 DUP3 ADD SLOAD SWAP3 DUP5 ADD SWAP3 SWAP1 SWAP3 MSTORE PUSH1 0x3 DUP2 ADD SLOAD PUSH1 0x60 DUP5 ADD MSTORE PUSH1 0x4 DUP2 ADD SLOAD PUSH1 0x80 DUP5 ADD MSTORE PUSH1 0x5 DUP2 ADD SLOAD PUSH1 0xA0 DUP5 ADD MSTORE PUSH1 0x6 DUP2 ADD SLOAD PUSH1 0xC0 DUP5 ADD MSTORE PUSH1 0x7 ADD SLOAD PUSH1 0xFF DUP1 DUP3 AND ISZERO ISZERO PUSH1 0xE0 DUP6 ADD MSTORE PUSH2 0x100 SWAP2 DUP3 SWAP1 DIV AND ISZERO ISZERO SWAP1 DUP4 ADD MSTORE SWAP1 DUP4 MSTORE SWAP1 SWAP3 ADD SWAP2 ADD PUSH2 0x3EB2 JUMP JUMPDEST POP POP POP POP SWAP1 POP DUP1 MLOAD PUSH1 0x0 EQ ISZERO PUSH2 0x3F61 JUMPI PUSH1 0x0 DUP1 SWAP3 POP SWAP3 POP POP PUSH2 0x2773 JUMP JUMPDEST PUSH1 0xB SLOAD PUSH1 0x0 SWAP1 PUSH2 0x3F99 SWAP1 PUSH2 0x1C66 PUSH32 0x0 PUSH4 0x5F5E100 PUSH2 0x3849 JUMP JUMPDEST SWAP1 POP PUSH1 0x0 DUP1 PUSH1 0x0 JUMPDEST DUP5 MLOAD DUP2 LT ISZERO PUSH2 0x4039 JUMPI DUP5 DUP2 DUP2 MLOAD DUP2 LT PUSH2 0x3FB6 JUMPI INVALID JUMPDEST PUSH1 0x20 MUL PUSH1 0x20 ADD ADD MLOAD PUSH1 0xE0 ADD MLOAD PUSH2 0x4031 JUMPI PUSH1 0x0 PUSH2 0x3FE8 DUP7 DUP4 DUP2 MLOAD DUP2 LT PUSH2 0x3FD7 JUMPI INVALID JUMPDEST PUSH1 0x20 MUL PUSH1 0x20 ADD ADD MLOAD PUSH1 0xC0 ADD MLOAD PUSH2 0x48CD JUMP JUMPDEST SWAP1 POP PUSH2 0x401E PUSH2 0x4017 PUSH32 0x0 DUP4 PUSH2 0x3909 JUMP JUMPDEST DUP6 SWAP1 PUSH2 0x37E8 JUMP JUMPDEST SWAP4 POP PUSH2 0x402D PUSH2 0x323A DUP7 DUP4 PUSH2 0x3909 JUMP JUMPDEST SWAP3 POP POP JUMPDEST PUSH1 0x1 ADD PUSH2 0x3FA1 JUMP JUMPDEST POP PUSH1 0xC SLOAD ISZERO PUSH2 0x406A JUMPI PUSH1 0xC SLOAD PUSH2 0x4050 SWAP1 DUP4 SWAP1 PUSH2 0x4938 JUMP JUMPDEST SWAP2 POP PUSH2 0x4067 PUSH1 0xC SLOAD DUP3 PUSH2 0x4938 SWAP1 SWAP2 SWAP1 PUSH4 0xFFFFFFFF AND JUMP JUMPDEST SWAP1 POP JUMPDEST SWAP1 SWAP5 POP SWAP3 POP POP POP SWAP2 POP SWAP2 JUMP JUMPDEST PUSH1 0x0 DUP1 PUSH1 0x0 DUP1 PUSH1 0x0 PUSH2 0x4088 DUP8 DUP8 PUSH2 0x1A48 JUMP JUMPDEST SWAP1 POP PUSH2 0x4094 DUP8 DUP8 PUSH2 0x44A4 JUMP JUMPDEST SWAP1 SWAP4 POP SWAP2 POP PUSH2 0x40A3 DUP2 DUP5 PUSH2 0x37E8 JUMP JUMPDEST SWAP8 SWAP2 SWAP7 POP SWAP1 SWAP5 POP POP POP POP POP JUMP JUMPDEST PUSH1 0x1 PUSH1 0x1 PUSH1 0xA0 SHL SUB DUP3 AND PUSH1 0x0 SWAP1 DUP2 MSTORE PUSH1 0x7 PUSH1 0x20 MSTORE PUSH1 0x40 SWAP1 KECCAK256 DUP1 SLOAD PUSH2 0x40D4 JUMPI POP PUSH2 0x4166 JUMP JUMPDEST DUP1 SLOAD DUP3 LT PUSH2 0x40E2 JUMPI POP PUSH2 0x4166 JUMP JUMPDEST PUSH1 0x0 PUSH2 0x40EE DUP5 DUP5 PUSH2 0x3650 JUMP JUMPDEST SWAP1 POP TIMESTAMP DUP3 DUP5 DUP2 SLOAD DUP2 LT PUSH2 0x40FD JUMPI INVALID JUMPDEST SWAP1 PUSH1 0x0 MSTORE PUSH1 0x20 PUSH1 0x0 KECCAK256 SWAP1 PUSH1 0x8 MUL ADD PUSH1 0x3 ADD DUP2 SWAP1 SSTORE POP PUSH2 0x4142 DUP2 DUP4 DUP6 DUP2 SLOAD DUP2 LT PUSH2 0x4122 JUMPI INVALID JUMPDEST SWAP1 PUSH1 0x0 MSTORE PUSH1 0x20 PUSH1 0x0 KECCAK256 SWAP1 PUSH1 0x8 MUL ADD PUSH1 0x2 ADD SLOAD PUSH2 0x37E8 SWAP1 SWAP2 SWAP1 PUSH4 0xFFFFFFFF AND JUMP JUMPDEST DUP3 DUP5 DUP2 SLOAD DUP2 LT PUSH2 0x414E JUMPI INVALID JUMPDEST SWAP1 PUSH1 0x0 MSTORE PUSH1 0x20 PUSH1 0x0 KECCAK256 SWAP1 PUSH1 0x8 MUL ADD PUSH1 0x2 ADD DUP2 SWAP1 SSTORE POP POP POP JUMPDEST POP POP JUMP JUMPDEST PUSH1 0x1 PUSH1 0x1 PUSH1 0xA0 SHL SUB DUP3 AND PUSH1 0x0 SWAP1 DUP2 MSTORE PUSH1 0x7 PUSH1 0x20 MSTORE PUSH1 0x40 SWAP1 KECCAK256 DUP1 SLOAD PUSH2 0x418E JUMPI POP PUSH2 0x4166 JUMP JUMPDEST DUP1 DUP3 DUP2 SLOAD DUP2 LT PUSH2 0x419A JUMPI INVALID JUMPDEST PUSH1 0x0 SWAP2 DUP3 MSTORE PUSH1 0x20 SWAP1 SWAP2 KECCAK256 PUSH1 0x7 PUSH1 0x8 SWAP1 SWAP3 MUL ADD ADD SLOAD PUSH1 0xFF AND ISZERO PUSH2 0x41BC JUMPI POP PUSH2 0x4166 JUMP JUMPDEST PUSH1 0x1 DUP2 DUP4 DUP2 SLOAD DUP2 LT PUSH2 0x41CA JUMPI INVALID JUMPDEST PUSH1 0x0 SWAP2 DUP3 MSTORE PUSH1 0x20 SWAP1 SWAP2 KECCAK256 PUSH1 0x8 SWAP1 SWAP2 MUL ADD PUSH1 0x7 ADD DUP1 SLOAD PUSH1 0xFF NOT AND SWAP2 ISZERO ISZERO SWAP2 SWAP1 SWAP2 OR SWAP1 SSTORE POP POP POP JUMP JUMPDEST PUSH1 0x1 PUSH1 0x1 PUSH1 0xA0 SHL SUB DUP3 AND PUSH1 0x0 SWAP1 DUP2 MSTORE PUSH1 0x7 PUSH1 0x20 SWAP1 DUP2 MSTORE PUSH1 0x40 DUP1 DUP4 KECCAK256 DUP1 SLOAD DUP3 MLOAD DUP2 DUP6 MUL DUP2 ADD DUP6 ADD SWAP1 SWAP4 MSTORE DUP1 DUP4 MSTORE DUP5 SWAP4 DUP5 SWAP1 DUP5 ADD JUMPDEST DUP3 DUP3 LT ISZERO PUSH2 0x42B6 JUMPI PUSH1 0x0 DUP5 DUP2 MSTORE PUSH1 0x20 SWAP1 DUP2 SWAP1 KECCAK256 PUSH1 0x40 DUP1 MLOAD PUSH2 0x120 DUP2 ADD DUP3 MSTORE PUSH1 0x8 DUP7 MUL SWAP1 SWAP3 ADD DUP1 SLOAD DUP4 MSTORE PUSH1 0x1 DUP1 DUP3 ADD SLOAD DUP5 DUP7 ADD MSTORE PUSH1 0x2 DUP3 ADD SLOAD SWAP3 DUP5 ADD SWAP3 SWAP1 SWAP3 MSTORE PUSH1 0x3 DUP2 ADD SLOAD PUSH1 0x60 DUP5 ADD MSTORE PUSH1 0x4 DUP2 ADD SLOAD PUSH1 0x80 DUP5 ADD MSTORE PUSH1 0x5 DUP2 ADD SLOAD PUSH1 0xA0 DUP5 ADD MSTORE PUSH1 0x6 DUP2 ADD SLOAD PUSH1 0xC0 DUP5 ADD MSTORE PUSH1 0x7 ADD SLOAD PUSH1 0xFF DUP1 DUP3 AND ISZERO ISZERO PUSH1 0xE0 DUP6 ADD MSTORE PUSH2 0x100 SWAP2 DUP3 SWAP1 DIV AND ISZERO ISZERO SWAP1 DUP4 ADD MSTORE SWAP1 DUP4 MSTORE SWAP1 SWAP3 ADD SWAP2 ADD PUSH2 0x4224 JUMP JUMPDEST POP POP POP POP SWAP1 POP DUP1 MLOAD PUSH1 0x0 EQ ISZERO PUSH2 0x42D0 JUMPI PUSH1 0x0 SWAP2 POP POP PUSH2 0xC41 JUMP JUMPDEST DUP1 MLOAD DUP4 LT PUSH2 0x42E2 JUMPI PUSH1 0x0 SWAP2 POP POP PUSH2 0xC41 JUMP JUMPDEST PUSH1 0x0 DUP2 DUP5 DUP2 MLOAD DUP2 LT PUSH2 0x42F0 JUMPI INVALID JUMPDEST PUSH1 0x20 MUL PUSH1 0x20 ADD ADD MLOAD PUSH2 0x100 ADD MLOAD PUSH2 0x432E JUMPI PUSH2 0x432B DUP3 DUP6 DUP2 MLOAD DUP2 LT PUSH2 0x4310 JUMPI INVALID JUMPDEST PUSH1 0x20 MUL PUSH1 0x20 ADD ADD MLOAD PUSH1 0x0 ADD MLOAD DUP3 PUSH2 0x37E8 SWAP1 SWAP2 SWAP1 PUSH4 0xFFFFFFFF AND JUMP JUMPDEST SWAP1 POP JUMPDEST SWAP5 SWAP4 POP POP POP POP JUMP JUMPDEST PUSH1 0x1 PUSH1 0x1 PUSH1 0xA0 SHL SUB DUP3 AND PUSH1 0x0 SWAP1 DUP2 MSTORE PUSH1 0x7 PUSH1 0x20 MSTORE PUSH1 0x40 SWAP1 KECCAK256 DUP1 SLOAD PUSH2 0x435A JUMPI POP PUSH2 0x4166 JUMP JUMPDEST DUP1 SLOAD DUP3 LT PUSH2 0x4368 JUMPI POP PUSH2 0x4166 JUMP JUMPDEST PUSH1 0x1 DUP2 DUP4 DUP2 SLOAD DUP2 LT PUSH2 0x4376 JUMPI INVALID JUMPDEST SWAP1 PUSH1 0x0 MSTORE PUSH1 0x20 PUSH1 0x0 KECCAK256 SWAP1 PUSH1 0x8 MUL ADD PUSH1 0x7 ADD PUSH1 0x1 PUSH2 0x100 EXP DUP2 SLOAD DUP2 PUSH1 0xFF MUL NOT AND SWAP1 DUP4 ISZERO ISZERO MUL OR SWAP1 SSTORE POP POP POP POP JUMP JUMPDEST PUSH1 0x1 PUSH1 0x1 PUSH1 0xA0 SHL SUB DUP2 AND PUSH1 0x0 SWAP1 DUP2 MSTORE PUSH1 0x7 PUSH1 0x20 MSTORE PUSH1 0x40 SWAP1 KECCAK256 DUP1 SLOAD PUSH2 0x43C7 JUMPI POP PUSH2 0x25FF JUMP JUMPDEST PUSH1 0x0 JUMPDEST DUP2 SLOAD DUP2 LT ISZERO PUSH2 0x3E56 JUMPI PUSH1 0x0 PUSH2 0x43DF DUP5 DUP4 PUSH2 0x3650 JUMP JUMPDEST SWAP1 POP TIMESTAMP DUP4 DUP4 DUP2 SLOAD DUP2 LT PUSH2 0x43EE JUMPI INVALID JUMPDEST SWAP1 PUSH1 0x0 MSTORE PUSH1 0x20 PUSH1 0x0 KECCAK256 SWAP1 PUSH1 0x8 MUL ADD PUSH1 0x3 ADD DUP2 SWAP1 SSTORE POP PUSH2 0x4413 DUP2 DUP5 DUP5 DUP2 SLOAD DUP2 LT PUSH2 0x4122 JUMPI INVALID JUMPDEST DUP4 DUP4 DUP2 SLOAD DUP2 LT PUSH2 0x441F JUMPI INVALID JUMPDEST PUSH1 0x0 SWAP2 DUP3 MSTORE PUSH1 0x20 SWAP1 SWAP2 KECCAK256 PUSH1 0x2 PUSH1 0x8 SWAP1 SWAP3 MUL ADD ADD SSTORE POP PUSH1 0x1 ADD PUSH2 0x43CA JUMP JUMPDEST PUSH1 0x1 PUSH1 0x1 PUSH1 0xA0 SHL SUB DUP2 AND PUSH1 0x0 SWAP1 DUP2 MSTORE PUSH1 0x7 PUSH1 0x20 MSTORE PUSH1 0x40 SWAP1 KECCAK256 DUP1 SLOAD PUSH2 0x4460 JUMPI POP PUSH2 0x25FF JUMP JUMPDEST PUSH1 0x0 JUMPDEST DUP2 SLOAD DUP2 LT ISZERO PUSH2 0x3E56 JUMPI PUSH1 0x1 DUP3 DUP3 DUP2 SLOAD DUP2 LT PUSH2 0x447A JUMPI INVALID JUMPDEST PUSH1 0x0 SWAP2 DUP3 MSTORE PUSH1 0x20 SWAP1 SWAP2 KECCAK256 PUSH1 0x8 SWAP1 SWAP2 MUL ADD PUSH1 0x7 ADD DUP1 SLOAD PUSH1 0xFF NOT AND SWAP2 ISZERO ISZERO SWAP2 SWAP1 SWAP2 OR SWAP1 SSTORE PUSH1 0x1 ADD PUSH2 0x4463 JUMP JUMPDEST PUSH1 0xD SLOAD PUSH1 0x0 SWAP1 DUP2 SWAP1 PUSH1 0x1 PUSH1 0xB0 SHL SWAP1 DIV PUSH1 0xFF AND PUSH2 0x44C5 JUMPI POP PUSH1 0x0 SWAP1 POP DUP1 PUSH2 0x3A0D JUMP JUMPDEST PUSH1 0x1 PUSH1 0x1 PUSH1 0xA0 SHL SUB DUP5 AND PUSH1 0x0 SWAP1 DUP2 MSTORE PUSH1 0x7 PUSH1 0x20 SWAP1 DUP2 MSTORE PUSH1 0x40 DUP1 DUP4 KECCAK256 DUP1 SLOAD DUP3 MLOAD DUP2 DUP6 MUL DUP2 ADD DUP6 ADD SWAP1 SWAP4 MSTORE DUP1 DUP4 MSTORE SWAP2 SWAP3 SWAP1 SWAP2 SWAP1 DUP5 SWAP1 DUP5 ADD JUMPDEST DUP3 DUP3 LT ISZERO PUSH2 0x458D JUMPI PUSH1 0x0 DUP5 DUP2 MSTORE PUSH1 0x20 SWAP1 DUP2 SWAP1 KECCAK256 PUSH1 0x40 DUP1 MLOAD PUSH2 0x120 DUP2 ADD DUP3 MSTORE PUSH1 0x8 DUP7 MUL SWAP1 SWAP3 ADD DUP1 SLOAD DUP4 MSTORE PUSH1 0x1 DUP1 DUP3 ADD SLOAD DUP5 DUP7 ADD MSTORE PUSH1 0x2 DUP3 ADD SLOAD SWAP3 DUP5 ADD SWAP3 SWAP1 SWAP3 MSTORE PUSH1 0x3 DUP2 ADD SLOAD PUSH1 0x60 DUP5 ADD MSTORE PUSH1 0x4 DUP2 ADD SLOAD PUSH1 0x80 DUP5 ADD MSTORE PUSH1 0x5 DUP2 ADD SLOAD PUSH1 0xA0 DUP5 ADD MSTORE PUSH1 0x6 DUP2 ADD SLOAD PUSH1 0xC0 DUP5 ADD MSTORE PUSH1 0x7 ADD SLOAD PUSH1 0xFF DUP1 DUP3 AND ISZERO ISZERO PUSH1 0xE0 DUP6 ADD MSTORE PUSH2 0x100 SWAP2 DUP3 SWAP1 DIV AND ISZERO ISZERO SWAP1 DUP4 ADD MSTORE SWAP1 DUP4 MSTORE SWAP1 SWAP3 ADD SWAP2 ADD PUSH2 0x44FB JUMP JUMPDEST POP POP POP POP SWAP1 POP DUP1 MLOAD PUSH1 0x0 EQ ISZERO PUSH2 0x45AA JUMPI PUSH1 0x0 DUP1 SWAP3 POP SWAP3 POP POP PUSH2 0x3A0D JUMP JUMPDEST DUP1 MLOAD DUP5 LT PUSH2 0x45BF JUMPI PUSH1 0x0 DUP1 SWAP3 POP SWAP3 POP POP PUSH2 0x3A0D JUMP JUMPDEST DUP1 DUP5 DUP2 MLOAD DUP2 LT PUSH2 0x45CB JUMPI INVALID JUMPDEST PUSH1 0x20 MUL PUSH1 0x20 ADD ADD MLOAD PUSH1 0xE0 ADD MLOAD ISZERO PUSH2 0x45E9 JUMPI PUSH1 0x0 DUP1 SWAP3 POP SWAP3 POP POP PUSH2 0x3A0D JUMP JUMPDEST PUSH1 0xB SLOAD PUSH1 0x0 SWAP1 PUSH2 0x4621 SWAP1 PUSH2 0x1C66 PUSH32 0x0 PUSH4 0x5F5E100 PUSH2 0x3849 JUMP JUMPDEST SWAP1 POP PUSH1 0x0 DUP1 PUSH1 0x0 PUSH2 0x4637 DUP6 DUP10 DUP2 MLOAD DUP2 LT PUSH2 0x3FD7 JUMPI INVALID JUMPDEST SWAP1 POP PUSH2 0x4666 PUSH2 0x323A PUSH32 0x0 DUP4 PUSH2 0x3909 JUMP JUMPDEST SWAP3 POP PUSH2 0x467C PUSH2 0x4675 DUP6 DUP4 PUSH2 0x3909 JUMP JUMPDEST DUP4 SWAP1 PUSH2 0x37E8 JUMP JUMPDEST PUSH1 0xC SLOAD SWAP1 SWAP3 POP ISZERO PUSH2 0x46AF JUMPI PUSH1 0xC SLOAD PUSH2 0x4695 SWAP1 DUP5 SWAP1 PUSH2 0x4938 JUMP JUMPDEST SWAP3 POP PUSH2 0x46AC PUSH1 0xC SLOAD DUP4 PUSH2 0x4938 SWAP1 SWAP2 SWAP1 PUSH4 0xFFFFFFFF AND JUMP JUMPDEST SWAP2 POP JUMPDEST POP SWAP1 SWAP8 SWAP1 SWAP7 POP SWAP5 POP POP POP POP POP JUMP JUMPDEST PUSH1 0x0 PUSH32 0x0 PUSH2 0x46EC JUMPI POP PUSH1 0x0 PUSH2 0xBBD JUMP JUMPDEST PUSH1 0x0 PUSH2 0x4738 PUSH32 0x0 PUSH32 0x0 PUSH2 0x37E8 JUMP JUMPDEST SWAP1 POP PUSH1 0x0 PUSH2 0x4746 DUP3 DUP6 PUSH2 0x391B JUMP JUMPDEST SWAP1 POP PUSH3 0x2A300 DUP2 LT ISZERO PUSH2 0x475E JUMPI PUSH1 0x0 SWAP3 POP POP POP PUSH2 0xBBD JUMP JUMPDEST PUSH3 0x3F480 DUP2 LT ISZERO PUSH2 0x4774 JUMPI PUSH1 0x64 SWAP3 POP POP POP PUSH2 0xBBD JUMP JUMPDEST PUSH3 0x54600 DUP2 LT ISZERO PUSH2 0x478A JUMPI PUSH1 0xC8 SWAP3 POP POP POP PUSH2 0xBBD JUMP JUMPDEST PUSH3 0x69780 DUP2 LT ISZERO PUSH2 0x47A1 JUMPI PUSH2 0x12C SWAP3 POP POP POP PUSH2 0xBBD JUMP JUMPDEST PUSH3 0x7E900 DUP2 LT ISZERO PUSH2 0x47B8 JUMPI PUSH2 0x190 SWAP3 POP POP POP PUSH2 0xBBD JUMP JUMPDEST PUSH2 0x1F4 SWAP3 POP POP POP PUSH2 0xBBD JUMP JUMPDEST PUSH1 0x0 PUSH4 0x1E13380 DUP2 PUSH2 0x47E1 PUSH7 0x38882915C4000 PUSH4 0x5F5E100 PUSH2 0x3849 JUMP JUMPDEST SWAP1 POP PUSH1 0x0 PUSH2 0x47FD PUSH2 0x1388 PUSH2 0x47F7 DUP6 DUP2 DUP11 DUP13 PUSH2 0x3849 JUMP JUMPDEST SWAP1 PUSH2 0x3849 JUMP JUMPDEST SWAP1 POP PUSH1 0x0 PUSH2 0x4814 PUSH2 0x1388 PUSH2 0x47F7 DUP11 PUSH1 0x2 DUP9 EXP PUSH2 0x3849 JUMP JUMPDEST SWAP1 POP PUSH1 0x0 PUSH2 0x482D PUSH1 0x6 PUSH2 0x1C66 PUSH1 0x2 DUP1 DUP13 EXP SWAP1 DUP14 EXP PUSH2 0x3849 JUMP JUMPDEST SWAP1 POP PUSH1 0x0 PUSH2 0x4850 PUSH1 0x2 PUSH2 0x1C66 DUP9 PUSH2 0x47F7 PUSH1 0x2 DUP16 EXP DUP15 PUSH2 0x3849 SWAP1 SWAP2 SWAP1 PUSH4 0xFFFFFFFF AND JUMP JUMPDEST SWAP1 POP PUSH1 0x0 PUSH2 0x4869 PUSH1 0x3 PUSH2 0x1C66 PUSH1 0x2 DUP1 DUP16 EXP SWAP1 DUP12 EXP PUSH2 0x3849 JUMP JUMPDEST SWAP1 POP PUSH1 0x0 PUSH2 0x4883 DUP3 PUSH2 0x487D DUP7 DUP2 DUP12 DUP12 PUSH2 0x37E8 JUMP JUMPDEST SWAP1 PUSH2 0x37E8 JUMP JUMPDEST SWAP1 POP PUSH2 0x4893 DUP4 PUSH2 0x1DF4 DUP4 DUP9 PUSH2 0x391B JUMP JUMPDEST SWAP1 POP PUSH2 0x48A3 DUP12 PUSH2 0x47F7 DUP4 DUP16 PUSH2 0x3849 JUMP JUMPDEST SWAP1 POP PUSH2 0x48BD PUSH5 0xE8D4A51000 PUSH2 0x1C66 PUSH1 0x3 DUP12 EXP DUP2 DUP6 DUP16 PUSH2 0x3849 JUMP JUMPDEST SWAP13 SWAP12 POP POP POP POP POP POP POP POP POP POP POP POP JUMP JUMPDEST PUSH1 0x0 DUP1 JUMPDEST PUSH1 0xE SLOAD DUP2 LT ISZERO PUSH2 0x492F JUMPI PUSH1 0xE DUP2 DUP2 SLOAD DUP2 LT PUSH2 0x48E8 JUMPI INVALID JUMPDEST SWAP1 PUSH1 0x0 MSTORE PUSH1 0x20 PUSH1 0x0 KECCAK256 SWAP1 PUSH1 0x2 MUL ADD PUSH1 0x0 ADD SLOAD DUP4 GT PUSH2 0x4927 JUMPI PUSH1 0xE DUP2 DUP2 SLOAD DUP2 LT PUSH2 0x490D JUMPI INVALID JUMPDEST SWAP1 PUSH1 0x0 MSTORE PUSH1 0x20 PUSH1 0x0 KECCAK256 SWAP1 PUSH1 0x2 MUL ADD PUSH1 0x1 ADD SLOAD SWAP2 POP POP PUSH2 0xBBD JUMP JUMPDEST PUSH1 0x1 ADD PUSH2 0x48D1 JUMP JUMPDEST POP PUSH1 0x0 SWAP3 SWAP2 POP POP JUMP JUMPDEST PUSH1 0x0 DUP3 PUSH2 0x4947 JUMPI POP PUSH1 0x0 PUSH2 0xC41 JUMP JUMPDEST DUP2 PUSH2 0x4953 JUMPI POP DUP2 PUSH2 0xC41 JUMP JUMPDEST PUSH2 0x3842 PUSH2 0x323A DUP5 DUP5 PUSH2 0x3909 JUMP INVALID 0x4F PUSH24 0x6E61626C653A206E6577206F776E65722069732074686520 PUSH27 0x65726F2061646472657373303336302043616E277420656E642070 PUSH16 0x6F6C206265666F726520746865206D61 PUSH21 0x75726974792074696D65303331322043616E277420 PUSH20 0x74616B652061626F76652073697A6520616C6C6F PUSH4 0x6174696F PUSH15 0x3033373020746F74656D732063616E KECCAK256 PUSH15 0x6F74206265207472616E7366657265 PUSH5 0x3033303020 PUSH4 0x616C6C65 PUSH19 0x206973206E6F74206120706F6F6C2063726561 PUSH21 0x6F72536166654D6174683A206D756C7469706C6963 PUSH2 0x7469 PUSH16 0x6E206F766572666C6F77303334302054 PUSH9 0x6520706F6F6C206973 KECCAK256 PUSH15 0x6F7420425443207265776172646572 ADDRESS CALLER CODESIZE ADDRESS KECCAK256 PUSH21 0x6869732061646472657373206469646E2774207374 PUSH2 0x6B65 KECCAK256 PUSH10 0x6E207468697320706F6F PUSH13 0x3033313120416D6F756E742063 PUSH2 0x6E27 PUSH21 0x206265206C657373207468616E20746865206D696E PUSH10 0x6D756D30333530204361 PUSH15 0x277420736574206D61747572696E67 KECCAK256 PUSH17 0x72696365206265666F726520746865206D PUSH2 0x7475 PUSH19 0x6974792074696D65A264697066735822122078 DUP8 PUSH10 0xE583BD50A5106717A90A 0x2A 0x23 0xAD SDIV MULMOD DUP4 0x1F BYTE 0xD8 0xFC PUSH3 0x86FCC5 DUP9 0x23 0xD6 LOG2 BYTE PUSH5 0x736F6C6343 STOP SMOD MOD STOP CALLER "
        },
        "gasEstimates": {
            "creation": {
                "codeDepositCost": "3845800",
                "executionCost": "infinite",
                "totalCost": "infinite"
            },
            "external": {
                "_getIndexedStakingReward(address,uint256)": "infinite",
                "_getStakingReward(address)": "infinite",
                "btcToken()": "infinite",
                "claimReward()": "infinite",
                "collaborativeRange()": "infinite",
                "collaborativeReward()": "1086",
                "declareEmergency()": "infinite",
                "deletePool()": "infinite",
                "emergentWithdraw()": "infinite",
                "endPool()": "infinite",
                "getAveragePricePrediction()": "infinite",
                "getBTCBalance()": "infinite",
                "getDecimals()": "infinite",
                "getEstimatedBTCForUSD(uint256)": "infinite",
                "getIndexedPrizeReward(uint256)": "infinite",
                "getIndexedReward(uint256)": "infinite",
                "getIndexedStakedBalance(uint256)": "infinite",
                "getIndexedStakingReward(uint256)": "infinite",
                "getLatestPrice()": "infinite",
                "getPathForUSDToBTC()": "infinite",
                "getPrizeReward()": "infinite",
                "getStakers()": "infinite",
                "getStakingReward()": "infinite",
                "getTotalReward()": "infinite",
                "getTotalStakedBalance()": "infinite",
                "getUSDBalance()": "infinite",
                "getUSDToken()": "1147",
                "getswapRouter()": "1173",
                "hasUnStaked(address,uint256)": "infinite",
                "indexedClaimReward(uint256)": "infinite",
                "isAnEmergency()": "1139",
                "isDeleted()": "1139",
                "isEnhancedEnabled()": "infinite",
                "isLocked()": "1095",
                "isMatured()": "1094",
                "lockPool()": "infinite",
                "lockTime()": "infinite",
                "maturingPrice()": "1088",
                "maturityTime()": "infinite",
                "minimumStakeAmount()": "infinite",
                "oracleDecimal()": "332",
                "owner()": "1128",
                "poolCreator()": "1105",
                "poolType()": "infinite",
                "potentialCollabReward()": "infinite",
                "predictions(address,uint256)": "8050",
                "prizeAmount()": "infinite",
                "prizeRewardRates(uint256)": "2920",
                "purchaseBTC(uint256,uint256)": "infinite",
                "renounceOwnership()": "24367",
                "rewardManager()": "infinite",
                "setSortedStakers(address[25],uint256[25])": "infinite",
                "sizeAllocation()": "infinite",
                "sizeLimitRangeRate()": "266",
                "sortedStakers(uint256)": "2899",
                "stake(uint256,uint256)": "infinite",
                "stakeApr()": "infinite",
                "stakeTaxRate()": "infinite",
                "stakers(uint256)": "2964",
                "startDate()": "infinite",
                "totalStaked()": "1087",
                "totemToken()": "infinite",
                "transferOwnership(address)": "infinite",
                "updateMaturingPrice()": "infinite",
                "usdPrizeAmount()": "infinite",
                "withdrawStuckTokens(address,uint256,address)": "infinite"
            },
            "internal": {
                "_calcStakingReturn(uint256,uint256,uint256)": "infinite",
                "_getDifference(uint256,uint256)": "infinite",
                "_getEnhancedRewardRate(uint256)": "infinite",
                "_getIndexedPrizeReward(address,uint256)": "infinite",
                "_getIndexedReward(address,uint256)": "infinite",
                "_getIndexedStakedBalance(address,uint256)": "infinite",
                "_getPercentageReward(uint256)": "infinite",
                "_getPrizeReward(address)": "infinite",
                "_getStakingRewardPerStake(address,uint256)": "infinite",
                "_getTotalReward(address)": "infinite",
                "_getTotalStakedBalance(address)": "infinite",
                "_lockPool()": "21622",
                "_withdrawIndexedPrizeReward(address,uint256)": "24408",
                "_withdrawIndexedStakedBalance(address,uint256)": "23565",
                "_withdrawIndexedStakingReward(address,uint256)": "infinite",
                "_withdrawPrizeReward(address)": "infinite",
                "_withdrawStakedBalance(address)": "infinite",
                "_withdrawStakingReward(address)": "infinite",
                "getPredictionRange(uint256)": "infinite",
                "getStakingTax(uint256,uint256)": "infinite"
            }
        },
        "methodIdentifiers": {
            "_getIndexedStakingReward(address,uint256)": "765e14d8",
            "_getStakingReward(address)": "5b9f4f90",
            "btcToken()": "074bc101",
            "claimReward()": "b88a802f",
            "collaborativeRange()": "eb850ae1",
            "collaborativeReward()": "f3d9dc0d",
            "declareEmergency()": "31e244e5",
            "deletePool()": "8bfbbcbe",
            "emergentWithdraw()": "8a9920b7",
            "endPool()": "2d42cf7d",
            "getAveragePricePrediction()": "bf852196",
            "getBTCBalance()": "31769ef7",
            "getDecimals()": "f0141d84",
            "getEstimatedBTCForUSD(uint256)": "09082c29",
            "getIndexedPrizeReward(uint256)": "eee39403",
            "getIndexedReward(uint256)": "9d9a62df",
            "getIndexedStakedBalance(uint256)": "d83db49f",
            "getIndexedStakingReward(uint256)": "1898a1a7",
            "getLatestPrice()": "8e15f473",
            "getPathForUSDToBTC()": "a508bc71",
            "getPrizeReward()": "9234a39a",
            "getStakers()": "43352d61",
            "getStakingReward()": "eda2d424",
            "getTotalReward()": "7d1fcbfa",
            "getTotalStakedBalance()": "fd8fd47f",
            "getUSDBalance()": "c1201054",
            "getUSDToken()": "f5e96fc9",
            "getswapRouter()": "2e577d07",
            "hasUnStaked(address,uint256)": "45e91319",
            "indexedClaimReward(uint256)": "b1b1e1c0",
            "isAnEmergency()": "a08b2c79",
            "isDeleted()": "d7efb6b7",
            "isEnhancedEnabled()": "4bc4eeb2",
            "isLocked()": "a4e2d634",
            "isMatured()": "7f2b6a0d",
            "lockPool()": "4026478e",
            "lockTime()": "0d668087",
            "maturingPrice()": "d025188b",
            "maturityTime()": "4e8bfdaa",
            "minimumStakeAmount()": "6b036f45",
            "oracleDecimal()": "a150194b",
            "owner()": "8da5cb5b",
            "poolCreator()": "c6c1decd",
            "poolType()": "b1dd61b6",
            "potentialCollabReward()": "e425df8c",
            "predictions(address,uint256)": "850fa7cb",
            "prizeAmount()": "785fa627",
            "prizeRewardRates(uint256)": "f1b17a8b",
            "purchaseBTC(uint256,uint256)": "857b21ee",
            "renounceOwnership()": "715018a6",
            "rewardManager()": "0f4ef8a6",
            "setSortedStakers(address[25],uint256[25])": "444a4902",
            "sizeAllocation()": "51eacbf0",
            "sizeLimitRangeRate()": "95c2ba47",
            "sortedStakers(uint256)": "de09ee20",
            "stake(uint256,uint256)": "7b0472f0",
            "stakeApr()": "aa7bcb57",
            "stakeTaxRate()": "6847d0c5",
            "stakers(uint256)": "fd5e6dd1",
            "startDate()": "0b97bc86",
            "totalStaked()": "817b1cd2",
            "totemToken()": "e8153c93",
            "transferOwnership(address)": "f2fde38b",
            "updateMaturingPrice()": "5e2e2ffc",
            "usdPrizeAmount()": "73f31703",
            "withdrawStuckTokens(address,uint256,address)": "5d2631e2"
        }
    },
    "storageLayout": {
        "storage": [
            {
                "astId": 53,
                "contract": "contracts/Staking/StakingPool.sol:StakingPool",
                "label": "_owner",
                "offset": 0,
                "slot": "0",
                "type": "t_address"
            },
            {
                "astId": 1873,
                "contract": "contracts/Staking/StakingPool.sol:StakingPool",
                "label": "priceFeed",
                "offset": 0,
                "slot": "1",
                "type": "t_contract(AggregatorV3Interface)45"
            },
            {
                "astId": 1373,
                "contract": "contracts/Staking/StakingPool.sol:StakingPool",
                "label": "USDCContract",
                "offset": 0,
                "slot": "2",
                "type": "t_contract(IERC20)1091"
            },
            {
                "astId": 1232,
                "contract": "contracts/Staking/StakingPool.sol:StakingPool",
                "label": "swapRouter",
                "offset": 0,
                "slot": "3",
                "type": "t_contract(IPancakeRouter02)1868"
            },
            {
                "astId": 1234,
                "contract": "contracts/Staking/StakingPool.sol:StakingPool",
                "label": "USDC_CONTRACT_ADDRESS",
                "offset": 0,
                "slot": "4",
                "type": "t_address"
            },
            {
                "astId": 1236,
                "contract": "contracts/Staking/StakingPool.sol:StakingPool",
                "label": "WBTC_CONTRACT_ADDRESS",
                "offset": 0,
                "slot": "5",
                "type": "t_address"
            },
            {
                "astId": 2536,
                "contract": "contracts/Staking/StakingPool.sol:StakingPool",
                "label": "poolType",
                "offset": 0,
                "slot": "6",
                "type": "t_string_storage"
            },
            {
                "astId": 2559,
                "contract": "contracts/Staking/StakingPool.sol:StakingPool",
                "label": "predictions",
                "offset": 0,
                "slot": "7",
                "type": "t_mapping(t_address,t_array(t_struct(StakeWithPrediction)2518_storage)dyn_storage)"
            },
            {
                "astId": 2562,
                "contract": "contracts/Staking/StakingPool.sol:StakingPool",
                "label": "stakers",
                "offset": 0,
                "slot": "8",
                "type": "t_array(t_struct(Staker)2523_storage)dyn_storage"
            },
            {
                "astId": 2565,
                "contract": "contracts/Staking/StakingPool.sol:StakingPool",
                "label": "sortedStakers",
                "offset": 0,
                "slot": "9",
                "type": "t_array(t_struct(Staker)2523_storage)dyn_storage"
            },
            {
                "astId": 2567,
                "contract": "contracts/Staking/StakingPool.sol:StakingPool",
                "label": "totalStaked",
                "offset": 0,
                "slot": "10",
                "type": "t_uint256"
            },
            {
                "astId": 2569,
                "contract": "contracts/Staking/StakingPool.sol:StakingPool",
                "label": "maturingPrice",
                "offset": 0,
                "slot": "11",
                "type": "t_uint256"
            },
            {
                "astId": 2581,
                "contract": "contracts/Staking/StakingPool.sol:StakingPool",
                "label": "collaborativeReward",
                "offset": 0,
                "slot": "12",
                "type": "t_uint256"
            },
            {
                "astId": 2583,
                "contract": "contracts/Staking/StakingPool.sol:StakingPool",
                "label": "poolCreator",
                "offset": 0,
                "slot": "13",
                "type": "t_address"
            },
            {
                "astId": 2585,
                "contract": "contracts/Staking/StakingPool.sol:StakingPool",
                "label": "isAnEmergency",
                "offset": 20,
                "slot": "13",
                "type": "t_bool"
            },
            {
                "astId": 2589,
                "contract": "contracts/Staking/StakingPool.sol:StakingPool",
                "label": "isLocked",
                "offset": 21,
                "slot": "13",
                "type": "t_bool"
            },
            {
                "astId": 2591,
                "contract": "contracts/Staking/StakingPool.sol:StakingPool",
                "label": "isMatured",
                "offset": 22,
                "slot": "13",
                "type": "t_bool"
            },
            {
                "astId": 2593,
                "contract": "contracts/Staking/StakingPool.sol:StakingPool",
                "label": "isDeleted",
                "offset": 23,
                "slot": "13",
                "type": "t_bool"
            },
            {
                "astId": 2596,
                "contract": "contracts/Staking/StakingPool.sol:StakingPool",
                "label": "prizeRewardRates",
                "offset": 0,
                "slot": "14",
                "type": "t_array(t_struct(PrizeRewardRate)2528_storage)dyn_storage"
            }
        ],
        "types": {
            "t_address": {
                "encoding": "inplace",
                "label": "address",
                "numberOfBytes": "20"
            },
            "t_array(t_struct(PrizeRewardRate)2528_storage)dyn_storage": {
                "base": "t_struct(PrizeRewardRate)2528_storage",
                "encoding": "dynamic_array",
                "label": "struct StakingPool.PrizeRewardRate[]",
                "numberOfBytes": "32"
            },
            "t_array(t_struct(StakeWithPrediction)2518_storage)dyn_storage": {
                "base": "t_struct(StakeWithPrediction)2518_storage",
                "encoding": "dynamic_array",
                "label": "struct StakingPool.StakeWithPrediction[]",
                "numberOfBytes": "32"
            },
            "t_array(t_struct(Staker)2523_storage)dyn_storage": {
                "base": "t_struct(Staker)2523_storage",
                "encoding": "dynamic_array",
                "label": "struct StakingPool.Staker[]",
                "numberOfBytes": "32"
            },
            "t_bool": {
                "encoding": "inplace",
                "label": "bool",
                "numberOfBytes": "1"
            },
            "t_contract(AggregatorV3Interface)45": {
                "encoding": "inplace",
                "label": "contract AggregatorV3Interface",
                "numberOfBytes": "20"
            },
            "t_contract(IERC20)1091": {
                "encoding": "inplace",
                "label": "contract IERC20",
                "numberOfBytes": "20"
            },
            "t_contract(IPancakeRouter02)1868": {
                "encoding": "inplace",
                "label": "contract IPancakeRouter02",
                "numberOfBytes": "20"
            },
            "t_mapping(t_address,t_array(t_struct(StakeWithPrediction)2518_storage)dyn_storage)": {
                "encoding": "mapping",
                "key": "t_address",
                "label": "mapping(address => struct StakingPool.StakeWithPrediction[])",
                "numberOfBytes": "32",
                "value": "t_array(t_struct(StakeWithPrediction)2518_storage)dyn_storage"
            },
            "t_string_storage": {
                "encoding": "bytes",
                "label": "string",
                "numberOfBytes": "32"
            },
            "t_struct(PrizeRewardRate)2528_storage": {
                "encoding": "inplace",
                "label": "struct StakingPool.PrizeRewardRate",
                "members": [
                    {
                        "astId": 2525,
                        "contract": "contracts/Staking/StakingPool.sol:StakingPool",
                        "label": "rank",
                        "offset": 0,
                        "slot": "0",
                        "type": "t_uint256"
                    },
                    {
                        "astId": 2527,
                        "contract": "contracts/Staking/StakingPool.sol:StakingPool",
                        "label": "percentage",
                        "offset": 0,
                        "slot": "1",
                        "type": "t_uint256"
                    }
                ],
                "numberOfBytes": "64"
            },
            "t_struct(StakeWithPrediction)2518_storage": {
                "encoding": "inplace",
                "label": "struct StakingPool.StakeWithPrediction",
                "members": [
                    {
                        "astId": 2501,
                        "contract": "contracts/Staking/StakingPool.sol:StakingPool",
                        "label": "stakedBalance",
                        "offset": 0,
                        "slot": "0",
                        "type": "t_uint256"
                    },
                    {
                        "astId": 2503,
                        "contract": "contracts/Staking/StakingPool.sol:StakingPool",
                        "label": "stakedTime",
                        "offset": 0,
                        "slot": "1",
                        "type": "t_uint256"
                    },
                    {
                        "astId": 2505,
                        "contract": "contracts/Staking/StakingPool.sol:StakingPool",
                        "label": "amountWithdrawn",
                        "offset": 0,
                        "slot": "2",
                        "type": "t_uint256"
                    },
                    {
                        "astId": 2507,
                        "contract": "contracts/Staking/StakingPool.sol:StakingPool",
                        "label": "lastWithdrawalTime",
                        "offset": 0,
                        "slot": "3",
                        "type": "t_uint256"
                    },
                    {
                        "astId": 2509,
                        "contract": "contracts/Staking/StakingPool.sol:StakingPool",
                        "label": "pricePrediction",
                        "offset": 0,
                        "slot": "4",
                        "type": "t_uint256"
                    },
                    {
                        "astId": 2511,
                        "contract": "contracts/Staking/StakingPool.sol:StakingPool",
                        "label": "difference",
                        "offset": 0,
                        "slot": "5",
                        "type": "t_uint256"
                    },
                    {
                        "astId": 2513,
                        "contract": "contracts/Staking/StakingPool.sol:StakingPool",
                        "label": "rank",
                        "offset": 0,
                        "slot": "6",
                        "type": "t_uint256"
                    },
                    {
                        "astId": 2515,
                        "contract": "contracts/Staking/StakingPool.sol:StakingPool",
                        "label": "prizeRewardWithdrawn",
                        "offset": 0,
                        "slot": "7",
                        "type": "t_bool"
                    },
                    {
                        "astId": 2517,
                        "contract": "contracts/Staking/StakingPool.sol:StakingPool",
                        "label": "didUnstake",
                        "offset": 1,
                        "slot": "7",
                        "type": "t_bool"
                    }
                ],
                "numberOfBytes": "256"
            },
            "t_struct(Staker)2523_storage": {
                "encoding": "inplace",
                "label": "struct StakingPool.Staker",
                "members": [
                    {
                        "astId": 2520,
                        "contract": "contracts/Staking/StakingPool.sol:StakingPool",
                        "label": "stakerAddress",
                        "offset": 0,
                        "slot": "0",
                        "type": "t_address"
                    },
                    {
                        "astId": 2522,
                        "contract": "contracts/Staking/StakingPool.sol:StakingPool",
                        "label": "index",
                        "offset": 0,
                        "slot": "1",
                        "type": "t_uint256"
                    }
                ],
                "numberOfBytes": "64"
            },
            "t_uint256": {
                "encoding": "inplace",
                "label": "uint256",
                "numberOfBytes": "32"
            }
        }
    },
    "userdoc": {
        "kind": "user",
        "methods": {
            "getDecimals()": {
                "notice": "Returns decimals for oracle contract"
            },
            "getLatestPrice()": {
                "notice": "Returns the latest price from oracle contract"
            }
        },
        "version": 1
    }
}