{
  "contractName": "StakingPoolFactory",
  "sourceName": "contracts/Staking/StakingPoolFactory.sol",
  "abi": [
    {
      "inputs": [
        {
          "internalType": "contract TotemToken",
          "name": "_totemToken",
          "type": "address"
        },
        {
          "internalType": "contract RewardManager",
          "name": "_rewardManager",
          "type": "address"
        },
        {
          "internalType": "address",
          "name": "_oracleContract",
          "type": "address"
        },
        {
          "internalType": "address",
          "name": "_swapRouter",
          "type": "address"
        },
        {
          "internalType": "address",
          "name": "_usdToken",
          "type": "address"
        },
        {
          "internalType": "address",
          "name": "_btcToken",
          "type": "address"
        }
      ],
      "stateMutability": "nonpayable",
      "type": "constructor"
    },
    {
      "anonymous": false,
      "inputs": [
        {
          "indexed": true,
          "internalType": "address",
          "name": "pool",
          "type": "address"
        },
        {
          "indexed": false,
          "internalType": "uint256",
          "name": "maturityTime",
          "type": "uint256"
        },
        {
          "indexed": false,
          "internalType": "uint256",
          "name": "lockTime",
          "type": "uint256"
        },
        {
          "indexed": false,
          "internalType": "uint256",
          "name": "sizeAllocation",
          "type": "uint256"
        },
        {
          "indexed": false,
          "internalType": "uint256",
          "name": "stakeApr",
          "type": "uint256"
        },
        {
          "indexed": false,
          "internalType": "uint256",
          "name": "prizeAmount",
          "type": "uint256"
        },
        {
          "indexed": false,
          "internalType": "uint256",
          "name": "usdPrizeAmount",
          "type": "uint256"
        },
        {
          "indexed": false,
          "internalType": "uint256",
          "name": "potentialCollabReward",
          "type": "uint256"
        },
        {
          "indexed": false,
          "internalType": "uint256",
          "name": "stakingPoolTaxRate",
          "type": "uint256"
        },
        {
          "indexed": false,
          "internalType": "uint256",
          "name": "minimumStakeAmount",
          "type": "uint256"
        },
        {
          "indexed": false,
          "internalType": "bool",
          "name": "isEnhancedEnabled",
          "type": "bool"
        }
      ],
      "name": "PoolCreated",
      "type": "event"
    },
    {
      "anonymous": false,
      "inputs": [
        {
          "indexed": true,
          "internalType": "address",
          "name": "account",
          "type": "address"
        }
      ],
      "name": "PoolCreatorAdded",
      "type": "event"
    },
    {
      "anonymous": false,
      "inputs": [
        {
          "indexed": true,
          "internalType": "address",
          "name": "account",
          "type": "address"
        }
      ],
      "name": "PoolCreatorRemoved",
      "type": "event"
    },
    {
      "inputs": [
        {
          "internalType": "address",
          "name": "account",
          "type": "address"
        }
      ],
      "name": "addPoolCreator",
      "outputs": [],
      "stateMutability": "nonpayable",
      "type": "function"
    },
    {
      "inputs": [
        {
          "internalType": "uint256",
          "name": "maturityTime",
          "type": "uint256"
        },
        {
          "internalType": "uint256",
          "name": "lockTime",
          "type": "uint256"
        },
        {
          "internalType": "uint256",
          "name": "sizeAllocation",
          "type": "uint256"
        },
        {
          "internalType": "uint256",
          "name": "stakeApr",
          "type": "uint256"
        },
        {
          "internalType": "uint256",
          "name": "prizeAmount",
          "type": "uint256"
        },
        {
          "internalType": "uint256",
          "name": "usdPrizeAmount",
          "type": "uint256"
        },
        {
          "internalType": "uint256",
          "name": "potentialCollabReward",
          "type": "uint256"
        },
        {
          "internalType": "bool",
          "name": "isEnhancedEnabled",
          "type": "bool"
        }
      ],
      "name": "create",
      "outputs": [
        {
          "internalType": "address",
          "name": "",
          "type": "address"
        }
      ],
      "stateMutability": "nonpayable",
      "type": "function"
    },
    {
      "inputs": [
        {
          "internalType": "address",
          "name": "account",
          "type": "address"
        }
      ],
      "name": "isPoolCreator",
      "outputs": [
        {
          "internalType": "bool",
          "name": "",
          "type": "bool"
        }
      ],
      "stateMutability": "view",
      "type": "function"
    },
    {
      "inputs": [],
      "name": "minimumStakeAmount",
      "outputs": [
        {
          "internalType": "uint256",
          "name": "",
          "type": "uint256"
        }
      ],
      "stateMutability": "view",
      "type": "function"
    },
    {
      "inputs": [],
      "name": "oracleContract",
      "outputs": [
        {
          "internalType": "address",
          "name": "",
          "type": "address"
        }
      ],
      "stateMutability": "view",
      "type": "function"
    },
    {
      "inputs": [],
      "name": "renouncePoolCreator",
      "outputs": [],
      "stateMutability": "nonpayable",
      "type": "function"
    },
    {
      "inputs": [],
      "name": "rewardManager",
      "outputs": [
        {
          "internalType": "contract RewardManager",
          "name": "",
          "type": "address"
        }
      ],
      "stateMutability": "view",
      "type": "function"
    },
    {
      "inputs": [
        {
          "internalType": "uint256",
          "name": "newMinimumStakeAmount",
          "type": "uint256"
        }
      ],
      "name": "setMinimuntToStake",
      "outputs": [],
      "stateMutability": "nonpayable",
      "type": "function"
    },
    {
      "inputs": [
        {
          "internalType": "address",
          "name": "_oracleContract",
          "type": "address"
        }
      ],
      "name": "setOracleContract",
      "outputs": [],
      "stateMutability": "nonpayable",
      "type": "function"
    },
    {
      "inputs": [
        {
          "internalType": "address",
          "name": "_swapRouter",
          "type": "address"
        }
      ],
      "name": "setSwapRouter",
      "outputs": [],
      "stateMutability": "nonpayable",
      "type": "function"
    },
    {
      "inputs": [
        {
          "internalType": "uint256",
          "name": "newStakingPoolTaxRate",
          "type": "uint256"
        }
      ],
      "name": "setTaxRate",
      "outputs": [],
      "stateMutability": "nonpayable",
      "type": "function"
    },
    {
      "inputs": [],
      "name": "stakingPoolTaxRate",
      "outputs": [
        {
          "internalType": "uint256",
          "name": "",
          "type": "uint256"
        }
      ],
      "stateMutability": "view",
      "type": "function"
    },
    {
      "inputs": [],
      "name": "swapRouter",
      "outputs": [
        {
          "internalType": "address",
          "name": "",
          "type": "address"
        }
      ],
      "stateMutability": "view",
      "type": "function"
    },
    {
      "inputs": [],
      "name": "totemToken",
      "outputs": [
        {
          "internalType": "contract TotemToken",
          "name": "",
          "type": "address"
        }
      ],
      "stateMutability": "view",
      "type": "function"
    }
  ],
  "bytecode": "0x6101006040523480156200001257600080fd5b5060405162005bbf38038062005bbf833981810160405260c08110156200003857600080fd5b508051602082015160408301516060840151608085015160a0909501519394929391929091620000716200006b620000fd565b62000101565b6200008a576200008a62000084620000fd565b62000124565b6001600160601b0319606096871b811660805294861b851660a052600280546001600160a01b039586166001600160a01b031991821617909155600180549490951693169290921790925590831b821660c05290911b1660e05261012c600355680d8d726b7177a8000060045562000263565b3390565b60006200011e8260006200017660201b6200090e1790919060201c565b92915050565b6200013f816000620001df60201b620009771790919060201c565b6040516001600160a01b038216907fac89bb7b3d0c5a763a97f31bc75f8faee00426e7b235f02ca76897d55caf7b6190600090a250565b60006001600160a01b038216620001bf5760405162461bcd60e51b815260040180806020018281038252602281526020018062005b9d6022913960400191505060405180910390fd5b506001600160a01b03166000908152602091909152604090205460ff1690565b620001eb828262000176565b156200023e576040805162461bcd60e51b815260206004820152601f60248201527f526f6c65733a206163636f756e7420616c72656164792068617320726f6c6500604482015290519081900360640190fd5b6001600160a01b0316600090815260209190915260409020805460ff19166001179055565b60805160601c60a05160601c60c05160601c60e05160601c6158e9620002b4600039806106375250806106155250806102c252806105d1528061078e5250806105b052806108ec52506158e96000f3fe60806040523480156200001157600080fd5b5060043610620001005760003560e01c80639a94775d1162000099578063c31c9c07116200006f578063c31c9c071462000282578063c6d69a30146200028c578063e281cc7e14620002ac578063e8153c9314620002b65762000100565b80639a94775d14620001ee578063b9603d6a146200022b578063bece753214620002785762000100565b8063441f5c6511620000db578063441f5c651462000176578063496ccd9b14620001925780636b036f4514620001bb5780638c2d741c14620001c55762000100565b80630f4ef8a6146200010557806337e77675146200012b57806341273657146200014d575b600080fd5b6200010f620002c0565b604080516001600160a01b039092168252519081900360200190f35b6200014b600480360360208110156200014357600080fd5b5035620002e4565b005b6200014b600480360360208110156200016557600080fd5b50356001600160a01b03166200033a565b62000180620003ec565b60408051918252519081900360200190f35b6200014b60048036036020811015620001aa57600080fd5b50356001600160a01b0316620003f2565b62000180620004a4565b6200014b60048036036020811015620001dd57600080fd5b50356001600160a01b0316620004aa565b62000217600480360360208110156200020657600080fd5b50356001600160a01b031662000503565b604080519115158252519081900360200190f35b6200010f60048036036101008110156200024457600080fd5b5080359060208101359060408101359060608101359060808101359060a08101359060c08101359060e00135151562000517565b6200010f62000824565b6200010f62000833565b6200014b60048036036020811015620002a457600080fd5b503562000842565b6200014b620008d4565b6200010f620008ea565b7f000000000000000000000000000000000000000000000000000000000000000081565b620002f8620002f2620009fb565b62000503565b620003355760405162461bcd60e51b815260040180806020018281038252603a81526020018062005837603a913960400191505060405180910390fd5b600455565b62000348620002f2620009fb565b620003855760405162461bcd60e51b815260040180806020018281038252603a81526020018062005837603a913960400191505060405180910390fd5b6001600160a01b038116620003ca576040805162461bcd60e51b815260206004808301919091526024820152630303431360e41b604482015290519081900360640190fd5b600180546001600160a01b0319166001600160a01b0392909216919091179055565b60035481565b62000400620002f2620009fb565b6200043d5760405162461bcd60e51b815260040180806020018281038252603a81526020018062005837603a913960400191505060405180910390fd5b6001600160a01b03811662000482576040805162461bcd60e51b815260206004808301919091526024820152630303430360e41b604482015290519081900360640190fd5b600280546001600160a01b0319166001600160a01b0392909216919091179055565b60045481565b620004b8620002f2620009fb565b620004f55760405162461bcd60e51b815260040180806020018281038252603a81526020018062005837603a913960400191505060405180910390fd5b6200050081620009ff565b50565b60006200051181836200090e565b92915050565b600062000527620002f2620009fb565b620005645760405162461bcd60e51b815260040180806020018281038252603a81526020018062005837603a913960400191505060405180910390fd5b60006040518061012001604052808b81526020018a81526020018981526020018881526020018781526020018681526020018581526020016003548152602001600454815250905060007f00000000000000000000000000000000000000000000000000000000000000007f0000000000000000000000000000000000000000000000000000000000000000620005fa620009fb565b6001546002546040516001600160a01b0392831692909116907f0000000000000000000000000000000000000000000000000000000000000000907f00000000000000000000000000000000000000000000000000000000000000009089908c90620006669062000af2565b6001600160a01b03808b168252898116602083015288811660408301528781166060830152868116608083015285811660a0830152841660c082015260e081018361012080838360005b83811015620006ca578181015183820152602001620006b0565b5050505090500182151581526020019950505050505050505050604051809103906000f08015801562000701573d6000803e3d6000fd5b50600354600454604080518f8152602081018f90528082018e9052606081018d9052608081018c905260a081018b905260c081018a905260e0810193909352610100830191909152861515610120830152519192506001600160a01b038316917f75243069ec60d1b18edc96a68bc98623353ebb06c41582ecbcaa59e4ec8df221918190036101400190a27f00000000000000000000000000000000000000000000000000000000000000006001600160a01b031663d914cd4b826040518263ffffffff1660e01b815260040180826001600160a01b03168152602001915050600060405180830381600087803b158015620007fc57600080fd5b505af115801562000811573d6000803e3d6000fd5b50929d9c50505050505050505050505050565b6002546001600160a01b031681565b6001546001600160a01b031681565b62000850620002f2620009fb565b6200088d5760405162461bcd60e51b815260040180806020018281038252603a81526020018062005837603a913960400191505060405180910390fd5b6127108110620008cf5760405162461bcd60e51b8152600401808060200182810382526027815260200180620058106027913960400191505060405180910390fd5b600355565b620008e8620008e2620009fb565b62000a43565b565b7f000000000000000000000000000000000000000000000000000000000000000081565b60006001600160a01b038216620009575760405162461bcd60e51b8152600401808060200182810382526022815260200180620058926022913960400191505060405180910390fd5b506001600160a01b03166000908152602091909152604090205460ff1690565b6200098382826200090e565b15620009d6576040805162461bcd60e51b815260206004820152601f60248201527f526f6c65733a206163636f756e7420616c72656164792068617320726f6c6500604482015290519081900360640190fd5b6001600160a01b0316600090815260209190915260409020805460ff19166001179055565b3390565b62000a0c60008262000977565b6040516001600160a01b038216907fac89bb7b3d0c5a763a97f31bc75f8faee00426e7b235f02ca76897d55caf7b6190600090a250565b62000a5060008262000a87565b6040516001600160a01b038216907f2bc71cc60b543df5fdd80ef5a45e1cdb344843769b649e9d901de3be24aeb24e90600090a250565b62000a9382826200090e565b62000ad05760405162461bcd60e51b8152600401808060200182810382526021815260200180620058716021913960400191505060405180910390fd5b6001600160a01b0316600090815260209190915260409020805460ff19169055565b614d0f8062000b018339019056fe6102406040523480156200001257600080fd5b5060405162004d0f38038062004d0f83398181016040526102208110156200003957600080fd5b508051602082015160408301516060840151608085015160a086015160c0870151610200880151969795969495939492939192909160e001908584848760006200008262000311565b600080546001600160a01b0319166001600160a01b0383169081178255604051929350917f8be0079c531659141344cd1fd0a4f28419497f9722a3daafe3b4186f6b6457e0908290a3506001600160a01b038116620000e057600080fd5b600180546001600160a01b03199081166001600160a01b0393841617909155600380548216958316959095179094556004805485169382169390931790925560058054841691831691909117905560608b811b6001600160601b0319908116608052908b901b1660a052600c8054909216908916179055620001628462000315565b606092831b6001600160601b03191660c09081524260e090815283516101205260208085015161010090815260408087015161014052968601516101605260808601516101805260a08601516101a0529285015161020052908401516101c0529201516101e052151560f81b61022052815180830183526001808252610ea6828401908152600d80548084018255600082815294517fd7b6990105719101dabeb77144f2a3385c8033acd3af97e9423a695e81ad1eb560029283028181019290925593517fd7b6990105719101dabeb77144f2a3385c8033acd3af97e9423a695e81ad1eb691820155875180890189528281526107d081890190815284548088018655858952915191840280870192909255519082015587518089018952600381526103e881890190815284548088018655858952915191840280870192909255519082015587518089018952600a815260fa818901908152845480880186558589529151918402808701929092555190820155875180890190985260198852606496880196875282549485018355919094529451919092029182015590519101555062000337945050505050565b3390565b600280546001600160a01b0319166001600160a01b0392909216919091179055565b60805160601c60a05160601c60c05160601c60e05161010051610120516101405161016051610180516101a0516101c0516101e051610200516102205160f81c61484c620004c3600039806113e75280614334525080610d455280610d895280612fae5250806117e65280611a795250806117c252806135f25280613622525080610c7152806118c852806121e052806126f65280612b1f5280613a30528061426b525080611a005280613ab252806142b452508061254052806133f952508061142f5280611ae25280611c595280612060525080610bce528061140b528061171252806133ac525080610b145280610bef5280611733528061338a5280614387525080610af05280610c1052806117545280613369528061436652508061094b5280610eba52806127225280612b4b525080610b3852806125ad528061263c52806129d75280612a665250806115c35280611b155280611ba65280611cf25280611db55280611de4528061257e528061283252806129a85280612c595280612fd2525061484c6000f3fe608060405234801561001057600080fd5b50600436106103af5760003560e01c8063857b21ee116101f4578063c6c1decd1161011a578063eee39403116100ad578063f3d9dc0d1161007c578063f3d9dc0d14610914578063f5e96fc91461091c578063fd5e6dd114610924578063fd8fd47f14610941576103af565b8063eee3940314610896578063f0141d84146108b3578063f1b17a8b146108d1578063f2fde38b146108ee576103af565b8063de09ee20116100e9578063de09ee201461083e578063e425df8c1461087e578063e8153c9314610886578063eda2d4241461088e576103af565b8063c6c1decd14610809578063d025188b14610811578063d7efb6b714610819578063d83db49f14610821576103af565b8063a150194b11610192578063b1b1e1c011610161578063b1b1e1c0146107d4578063b88a802f146107f1578063bf852196146107f9578063c120105414610801576103af565b8063a150194b14610764578063a4e2d6341461076c578063a508bc7114610774578063aa7bcb57146107cc576103af565b80638e15f473116101ce5780638e15f4731461072f5780639234a39a1461073757806395c2ba471461073f5780639d9a62df14610747576103af565b8063857b21ee146106fc5780638bfbbcbe1461071f5780638da5cb5b14610727576103af565b806351eacbf0116102d957806373f31703116102775780637d1fcbfa116102465780637d1fcbfa146106545780637f2b6a0d14610675578063817b1cd21461067d578063850fa7cb14610685576103af565b806373f31703146105f5578063765e14d8146105fd578063785fa627146106295780637b0472f014610631576103af565b80635e2e2ffc116102b35780635e2e2ffc146105d55780636847d0c5146105dd5780636b036f45146105e5578063715018a6146105ed576103af565b806351eacbf0146105715780635b9f4f90146105795780635d2631e21461059f576103af565b80632e577d0711610351578063444a490211610320578063444a4902146104ff57806345e91319146105215780634bc4eeb2146105615780634e8bfdaa14610569576103af565b80632e577d071461044657806331769ef71461044e5780634026478e1461045657806343352d611461045e576103af565b80630d6680871161038d5780630d6680871461040f5780630f4ef8a6146104175780631898a1a71461041f5780632d42cf7d1461043c576103af565b8063074bc101146103b457806309082c29146103d85780630b97bc8614610407575b600080fd5b6103bc610949565b604080516001600160a01b039092168252519081900360200190f35b6103f5600480360360208110156103ee57600080fd5b503561096d565b60408051918252519081900360200190f35b6103f5610aee565b6103f5610b12565b6103bc610b36565b6103f56004803603602081101561043557600080fd5b5035610b5a565b610444610b73565b005b6103bc610ea6565b6103f5610eb6565b610444610f56565b610466610fb9565b604051808060200180602001838103835285818151815260200191508051906020019060200280838360005b838110156104aa578181015183820152602001610492565b50505050905001838103825284818151815260200191508051906020019060200280838360005b838110156104e95781810151838201526020016104d1565b5050505090500194505050505060405180910390f35b610444600480360361064081101561051657600080fd5b5061032081016110fe565b61054d6004803603604081101561053757600080fd5b506001600160a01b038135169060200135611253565b604080519115158252519081900360200190f35b61054d6113e5565b6103f5611409565b6103f561142d565b6103f56004803603602081101561058f57600080fd5b50356001600160a01b0316611451565b610444600480360360608110156105b557600080fd5b506001600160a01b03813581169160208101359160409091013516611568565b6104446116b7565b6103f56117c0565b6103f56117e4565b610444611808565b6103f56118c6565b6103f56004803603604081101561061357600080fd5b506001600160a01b0381351690602001356118ea565b6103f56119fe565b6104446004803603604081101561064757600080fd5b5080359060200135611a22565b61065c6120e4565b6040805192835260208301919091528051918290030190f35b61054d6120ff565b6103f561210f565b6106b16004803603604081101561069b57600080fd5b506001600160a01b038135169060200135612115565b60408051998a5260208a0198909852888801969096526060880194909452608087019290925260a086015260c0850152151560e0840152151561010083015251908190036101200190f35b6104446004803603604081101561071257600080fd5b5080359060200135612183565b61044461232c565b6103bc6123c3565b6103f56123d2565b61065c61246c565b6103f561247f565b61065c6004803603602081101561075d57600080fd5b5035612484565b6103f56124a2565b61054d6124a7565b61077c6124b7565b60408051602080825283518183015283519192839290830191858101910280838360005b838110156107b85781810151838201526020016107a0565b505050509050019250505060405180910390f35b6103f561253e565b610444600480360360208110156107ea57600080fd5b5035612562565b61044461298c565b6103f5612db1565b6103f5612ef1565b6103bc612f3c565b6103f5612f4b565b61054d612f51565b6103f56004803603602081101561083757600080fd5b5035612f61565b61085b6004803603602081101561085457600080fd5b5035612f74565b604080516001600160a01b03909316835260208301919091528051918290030190f35b6103f5612fac565b6103bc612fd0565b6103f5612ff4565b61065c600480360360208110156108ac57600080fd5b503561300b565b6108bb61301f565b6040805160ff9092168252519081900360200190f35b61065c600480360360208110156108e757600080fd5b50356130a2565b6104446004803603602081101561090457600080fd5b50356001600160a01b03166130d0565b6103f56131e4565b6103bc6131ea565b61085b6004803603602081101561093a57600080fd5b50356131f9565b6103f5613209565b7f000000000000000000000000000000000000000000000000000000000000000081565b60035460009081906001600160a01b031663d06ca61f8461098c6124b7565b6040518363ffffffff1660e01b81526004018083815260200180602001828103825283818151815260200191508051906020019060200280838360005b838110156109e15781810151838201526020016109c9565b50505050905001935050505060006040518083038186803b158015610a0557600080fd5b505afa158015610a19573d6000803e3d6000fd5b505050506040513d6000823e601f3d908101601f191682016040526020811015610a4257600080fd5b8101908080516040519392919084640100000000821115610a6257600080fd5b908301906020820185811115610a7757600080fd5b8251866020820283011164010000000082111715610a9457600080fd5b82525081516020918201928201910280838360005b83811015610ac1578181015183820152602001610aa9565b50505050905001604052505050905080600181518110610add57fe5b60200260200101519150505b919050565b7f000000000000000000000000000000000000000000000000000000000000000081565b7f000000000000000000000000000000000000000000000000000000000000000081565b7f000000000000000000000000000000000000000000000000000000000000000081565b6000610b6d610b67613212565b836118ea565b92915050565b600c546001600160a01b0316610b87613212565b6001600160a01b031614610bcc5760405162461bcd60e51b81526004018080602001828103825260218152602001806147296021913960400191505060405180910390fd5b7f00000000000000000000000000000000000000000000000000000000000000007f00000000000000000000000000000000000000000000000000000000000000007f00000000000000000000000000000000000000000000000000000000000000000101421015610c6f5760405162461bcd60e51b815260040180806020018281038252602c8152602001806146b6602c913960400191505060405180910390fd5b7f000000000000000000000000000000000000000000000000000000000000000015610cee57610c9d610eb6565b610cee576040805162461bcd60e51b815260206004820152601e60248201527f30333631204254432052657761726473206e6f7420617661696c61626c650000604482015290519081900360640190fd5b60075415610d4357600854610d43576040805162461bcd60e51b81526020600482015260166024820152750c0ccd8c88199a5c9cdd081cda1bdd5b19081cdbdc9d60521b604482015290519081900360640190fd5b7f000000000000000000000000000000000000000000000000000000000000000015610dae576000610d73612db1565b9050610d8381639502f900613216565b610dac577f0000000000000000000000000000000000000000000000000000000000000000600b555b505b600854600090601910610dc357600854610dc6565b60195b905060005b81811015610e5757806001016006600060088481548110610de857fe5b600091825260208083206002909202909101546001600160a01b0316835282019290925260400190206008805484908110610e1f57fe5b90600052602060002090600202016001015481548110610e3b57fe5b6000918252602090912060066008909202010155600101610dcb565b50600c805460ff60a81b1960ff60a01b19909116600160a01b1716600160a81b1790556040517fe8ef7a17c92d025d9c1ead1c6b3ca3b44d3283d0ee954f615c5c476911f629a590600090a150565b6003546001600160a01b03165b90565b60007f00000000000000000000000000000000000000000000000000000000000000006001600160a01b03166370a08231306040518263ffffffff1660e01b815260040180826001600160a01b0316815260200191505060206040518083038186803b158015610f2557600080fd5b505afa158015610f39573d6000803e3d6000fd5b505050506040513d6020811015610f4f57600080fd5b5051905090565b600c546001600160a01b0316610f6a613212565b6001600160a01b031614610faf5760405162461bcd60e51b81526004018080602001828103825260218152602001806147296021913960400191505060405180910390fd5b610fb7613284565b565b606080600060078054905067ffffffffffffffff81118015610fda57600080fd5b50604051908082528060200260200182016040528015611004578160200160208202803683370190505b5060075490915060009067ffffffffffffffff8111801561102457600080fd5b5060405190808252806020026020018201604052801561104e578160200160208202803683370190505b50905060005b6007548110156110f4576007818154811061106b57fe5b600091825260209091206002909102015483516001600160a01b039091169084908390811061109657fe5b60200260200101906001600160a01b031690816001600160a01b031681525050600781815481106110c357fe5b9060005260206000209060020201600101548282815181106110e157fe5b6020908102919091010152600101611054565b5090925090509091565b600c546001600160a01b0316611112613212565b6001600160a01b0316146111575760405162461bcd60e51b81526004018080602001828103825260218152602001806147296021913960400191505060405180910390fd5b60005b601981101561122557600083826019811061117157fe5b60200201356001600160a01b03166001600160a01b0316141561119357611225565b600860405180604001604052808584601981106111ac57fe5b60200201356001600160a01b03166001600160a01b031681526020018484601981106111d457fe5b60209081029190910135909152825460018082018555600094855293829020835160029092020180546001600160a01b0319166001600160a01b03909216919091178155910151908201550161115a565b506040517f5c243cc6e4f210bf2dd86b8eca0ca891d3f8ad2eb09fbf91735eb348bc199c7e90600090a15050565b6001600160a01b038216600090815260066020908152604080832080548251818502810185019093528083528493849084015b8282101561131857600084815260209081902060408051610120810182526008860290920180548352600180820154848601526002820154928401929092526003810154606084015260048101546080840152600581015460a0840152600681015460c08401526007015460ff808216151560e085015261010091829004161515908301529083529092019101611286565b505050509050600081511161135e5760405162461bcd60e51b815260040180806020018281038252602b81526020018061478c602b913960400191505060405180910390fd5b805183106113b3576040805162461bcd60e51b815260206004820152601760248201527f30333831207468697320696e6465782065786365656473000000000000000000604482015290519081900360640190fd5b8083815181106113bf57fe5b60200260200101516101000151156113db576001915050610b6d565b5060009392505050565b7f000000000000000000000000000000000000000000000000000000000000000081565b7f000000000000000000000000000000000000000000000000000000000000000081565b7f000000000000000000000000000000000000000000000000000000000000000081565b6001600160a01b038116600090815260066020908152604080832080548251818502810185019093528083528493849084015b8282101561151657600084815260209081902060408051610120810182526008860290920180548352600180820154848601526002820154928401929092526003810154606084015260048101546080840152600581015460a0840152600681015460c08401526007015460ff808216151560e085015261010091829004161515908301529083529092019101611484565b505050509050805160001415611530576000915050610ae9565b6000805b825181101561156057600061154986836132c2565b9050611555838261345a565b925050600101611534565b509392505050565b600c546001600160a01b031661157c613212565b6001600160a01b0316146115c15760405162461bcd60e51b81526004018080602001828103825260218152602001806147296021913960400191505060405180910390fd5b7f00000000000000000000000000000000000000000000000000000000000000006001600160a01b0316836001600160a01b031614156116325760405162461bcd60e51b81526004018080602001828103825260218152602001806147086021913960400191505060405180910390fd5b6040805163a9059cbb60e01b81526001600160a01b038381166004830152602482018590529151859283169163a9059cbb9160448083019260209291908290030181600087803b15801561168557600080fd5b505af1158015611699573d6000803e3d6000fd5b505050506040513d60208110156116af57600080fd5b505050505050565b600c546001600160a01b03166116cb613212565b6001600160a01b0316146117105760405162461bcd60e51b81526004018080602001828103825260218152602001806147296021913960400191505060405180910390fd5b7f00000000000000000000000000000000000000000000000000000000000000007f00000000000000000000000000000000000000000000000000000000000000007f000000000000000000000000000000000000000000000000000000000000000001014210156117b35760405162461bcd60e51b81526004018080602001828103825260368152602001806147e16036913960400191505060405180910390fd5b6117bb6123d2565b600a55565b7f000000000000000000000000000000000000000000000000000000000000000081565b7f000000000000000000000000000000000000000000000000000000000000000081565b611810613212565b6001600160a01b03166118216123c3565b6001600160a01b03161461187c576040805162461bcd60e51b815260206004820181905260248201527f4f776e61626c653a2063616c6c6572206973206e6f7420746865206f776e6572604482015290519081900360640190fd5b600080546040516001600160a01b03909116907f8be0079c531659141344cd1fd0a4f28419497f9722a3daafe3b4186f6b6457e0908390a3600080546001600160a01b0319169055565b7f000000000000000000000000000000000000000000000000000000000000000081565b6001600160a01b038216600090815260066020908152604080832080548251818502810185019093528083528493849084015b828210156119af57600084815260209081902060408051610120810182526008860290920180548352600180820154848601526002820154928401929092526003810154606084015260048101546080840152600581015460a0840152600681015460c08401526007015460ff808216151560e08501526101009182900416151590830152908352909201910161191d565b5050505090508051600014156119c9576000915050610b6d565b805183106119db576000915050610b6d565b6000806119e886866132c2565b90506119f4828261345a565b9695505050505050565b7f000000000000000000000000000000000000000000000000000000000000000081565b600c54600160a01b900460ff1615611a77576040805162461bcd60e51b81526020600482015260136024820152720c0ccc4c08141bdbdb081a5cc81b1bd8dad959606a1b604482015290519081900360640190fd5b7f0000000000000000000000000000000000000000000000000000000000000000821015611ad65760405162461bcd60e51b815260040180806020018281038252602a8152602001806147b7602a913960400191505060405180910390fd5b6000611b0e6064611b087f000000000000000000000000000000000000000000000000000000000000000060056134bb565b90613514565b90506000807f00000000000000000000000000000000000000000000000000000000000000006001600160a01b031663771a3a1d6040518163ffffffff1660e01b815260040160206040518083038186803b158015611b6c57600080fd5b505afa158015611b80573d6000803e3d6000fd5b505050506040513d6020811015611b9657600080fd5b5051905060006001600160a01b037f00000000000000000000000000000000000000000000000000000000000000001663d1ecfc68611bd3613212565b6040518263ffffffff1660e01b815260040180826001600160a01b0316815260200191505060206040518083038186803b158015611c1057600080fd5b505afa158015611c24573d6000803e3d6000fd5b505050506040513d6020811015611c3a57600080fd5b5051611c4f57611c4a868361357b565b611c52565b60005b9050611c7e7f00000000000000000000000000000000000000000000000000000000000000008561345a565b611c9d82611c978960095461345a90919063ffffffff16565b9061358d565b1115611cda5760405162461bcd60e51b81526004018080602001828103825260268152602001806146e26026913960400191505060405180910390fd5b611ce486836135ea565b965092506001600160a01b037f0000000000000000000000000000000000000000000000000000000000000000166323b872dd611d1f613212565b604080516001600160e01b031960e085901b1681526001600160a01b03909216600483015230602483015289870160448301525160648083019260209291908290030181600087803b158015611d7457600080fd5b505af1158015611d88573d6000803e3d6000fd5b505050506040513d6020811015611d9e57600080fd5b50611dab9050868261358d565b95508215611ee2577f00000000000000000000000000000000000000000000000000000000000000006001600160a01b031663a9059cbb7f00000000000000000000000000000000000000000000000000000000000000006001600160a01b0316634a5db0a96040518163ffffffff1660e01b815260040160206040518083038186803b158015611e3b57600080fd5b505afa158015611e4f573d6000803e3d6000fd5b505050506040513d6020811015611e6557600080fd5b5051604080516001600160e01b031960e085901b1681526001600160a01b039092166004830152602482018790525160448083019260209291908290030181600087803b158015611eb557600080fd5b505af1158015611ec9573d6000803e3d6000fd5b505050506040513d6020811015611edf57600080fd5b50505b600954611eef908761345a565b60098190555060076040518060400160405280611f0a613212565b6001600160a01b0316815260200160066000611f24613212565b6001600160a01b0390811682526020808301939093526040909101600090812054909352845460018082018755958452828420855160029092020180546001600160a01b031916919092161781559201519190920155600690611f85613212565b6001600160a01b03168152602080820192909252604090810160009081208251610120810184528a81524281860181815294820184815260608301918252608083018c815260001960a0850181815260c0860191825260e086018881526101008088018a8152895460018082018c559a8c529c909a2097516008909c029097019a8b559851968a01969096559151600289015591516003880155905160048701559151600586015590516006850155915160079093018054915160ff19929092169315159390931761ff0019169015159091021790556009547f00000000000000000000000000000000000000000000000000000000000000001161208c5761208c613284565b612094613212565b6001600160a01b03167f5af417134f72a9d41143ace85b0a26dce6f550f894f2cbc1eeee8810603d91b68787604051808381526020018281526020019250505060405180910390a2505050505050565b6000806120f76120f2613212565b613686565b915091509091565b600c54600160a81b900460ff1681565b60095481565b6006602052816000526040600020818154811061213157600080fd5b6000918252602090912060089091020180546001820154600283015460038401546004850154600586015460068701546007909701549598509396509194909391929160ff8082169161010090041689565b600c546001600160a01b0316612197613212565b6001600160a01b0316146121dc5760405162461bcd60e51b81526004018080602001828103825260218152602001806147296021913960400191505060405180910390fd5b60007f00000000000000000000000000000000000000000000000000000000000000001161223b5760405162461bcd60e51b815260040180806020018281038252602181526020018061476b6021913960400191505060405180910390fd5b60008211612290576040805162461bcd60e51b815260206004820152601960248201527f3033343120416d6f756e742063616e2774206265207a65726f00000000000000604482015290519081900360640190fd5b428110156122dc576040805162461bcd60e51b81526020600482015260146024820152733033343220646561646c696e65206973206c6f7760601b604482015290519081900360640190fd5b60006122e6610ea6565b90506122f281846136bd565b60006122fd8461096d565b905060006123176123108361012c61357b565b839061358d565b905061232530868387613782565b5050505050565b600c546001600160a01b0316612340613212565b6001600160a01b0316146123855760405162461bcd60e51b81526004018080602001828103825260218152602001806147296021913960400191505060405180910390fd5b600c805460ff60b01b1916600160b01b1790556040517f9331b2a38c658c57a39ea19b2709d928c28a12cc8fbb838d12b85148550f937d90600090a1565b6000546001600160a01b031690565b600080600160009054906101000a90046001600160a01b03166001600160a01b031663feaf968c6040518163ffffffff1660e01b815260040160a06040518083038186803b15801561242357600080fd5b505afa158015612437573d6000803e3d6000fd5b505050506040513d60a081101561244d57600080fd5b506020015190506000811215612464576000612466565b805b91505090565b6000806120f761247a613212565b61391b565b600581565b600080612498612492613212565b84613b36565b915091505b915091565b600881565b600c54600160a01b900460ff1681565b60408051600280825260608083018452926000929190602083019080368337505060045482519293506001600160a01b0316918391506000906124f657fe5b6001600160a01b03928316602091820292909201015260055482519116908290600190811061252157fe5b6001600160a01b0390921660209283029190910190910152905090565b7f000000000000000000000000000000000000000000000000000000000000000081565b600080612570612492613212565b909250905081156126d157817f00000000000000000000000000000000000000000000000000000000000000006001600160a01b03166370a082317f00000000000000000000000000000000000000000000000000000000000000006040518263ffffffff1660e01b815260040180826001600160a01b0316815260200191505060206040518083038186803b15801561260957600080fd5b505afa15801561261d573d6000803e3d6000fd5b505050506040513d602081101561263357600080fd5b5051106126d1577f00000000000000000000000000000000000000000000000000000000000000006001600160a01b031663e4e103dc612671613212565b846040518363ffffffff1660e01b815260040180836001600160a01b0316815260200182815260200192505050600060405180830381600087803b1580156126b857600080fd5b505af11580156126cc573d6000803e3d6000fd5b505050505b6126e26126dc613212565b84613b70565b600c54600160a81b900460ff1615612937577f000000000000000000000000000000000000000000000000000000000000000015612815578015612804577f00000000000000000000000000000000000000000000000000000000000000006001600160a01b031663a9059cbb612757613212565b836040518363ffffffff1660e01b815260040180836001600160a01b0316815260200182815260200192505050602060405180830381600087803b15801561279e57600080fd5b505af11580156127b2573d6000803e3d6000fd5b505050506040513d60208110156127c857600080fd5b5051612804576040805162461bcd60e51b815260206004808301919091526024820152630303333360e41b604482015290519081900360640190fd5b61281561280f613212565b84613c2a565b6000612828612822613212565b85613cb1565b90508015612935577f00000000000000000000000000000000000000000000000000000000000000006001600160a01b031663a9059cbb612867613212565b836040518363ffffffff1660e01b815260040180836001600160a01b0316815260200182815260200192505050602060405180830381600087803b1580156128ae57600080fd5b505af11580156128c2573d6000803e3d6000fd5b505050506040513d60208110156128d857600080fd5b506128ec90506128e6613212565b85613df6565b6128f4613212565b6001600160a01b03167f85082129d87b2fe11527cb1b3b7a520aeb5aa6913f88a3d8757fe40d1db02fdd826040518082815260200191505060405180910390a25b505b61293f613212565b6001600160a01b03167ff279e6a1f5e320cca91135676d9cb6e44ca8a08c0b88342bcdb1144f6511b5688383604051808381526020018281526020019250505060405180910390a2505050565b60008061299a6120f2613212565b90925090508115612afb57817f00000000000000000000000000000000000000000000000000000000000000006001600160a01b03166370a082317f00000000000000000000000000000000000000000000000000000000000000006040518263ffffffff1660e01b815260040180826001600160a01b0316815260200191505060206040518083038186803b158015612a3357600080fd5b505afa158015612a47573d6000803e3d6000fd5b505050506040513d6020811015612a5d57600080fd5b505110612afb577f00000000000000000000000000000000000000000000000000000000000000006001600160a01b031663e4e103dc612a9b613212565b846040518363ffffffff1660e01b815260040180836001600160a01b0316815260200182815260200192505050600060405180830381600087803b158015612ae257600080fd5b505af1158015612af6573d6000803e3d6000fd5b505050505b612b0b612b06613212565b613e63565b600c54600160a81b900460ff1615612d5d577f000000000000000000000000000000000000000000000000000000000000000015612c3d578015612c2d577f00000000000000000000000000000000000000000000000000000000000000006001600160a01b031663a9059cbb612b80613212565b836040518363ffffffff1660e01b815260040180836001600160a01b0316815260200182815260200192505050602060405180830381600087803b158015612bc757600080fd5b505af1158015612bdb573d6000803e3d6000fd5b505050506040513d6020811015612bf157600080fd5b5051612c2d576040805162461bcd60e51b815260206004808301919091526024820152630303332360e41b604482015290519081900360640190fd5b612c3d612c38613212565b613f02565b6000612c4f612c4a613212565b613f6a565b90508015612d5b577f00000000000000000000000000000000000000000000000000000000000000006001600160a01b031663a9059cbb612c8e613212565b836040518363ffffffff1660e01b815260040180836001600160a01b0316815260200182815260200192505050602060405180830381600087803b158015612cd557600080fd5b505af1158015612ce9573d6000803e3d6000fd5b505050506040513d6020811015612cff57600080fd5b50612d129050612d0d613212565b6140a8565b612d1a613212565b6001600160a01b03167f85082129d87b2fe11527cb1b3b7a520aeb5aa6913f88a3d8757fe40d1db02fdd826040518082815260200191505060405180910390a25b505b612d65613212565b6001600160a01b03167ff279e6a1f5e320cca91135676d9cb6e44ca8a08c0b88342bcdb1144f6511b5688383604051808381526020018281526020019250505060405180910390a25050565b600060095460001415612dc657506000610eb3565b6000805b600754811015612ee25760006006600060078481548110612de757fe5b600091825260208083206002909202909101546001600160a01b0316835282019290925260400190206007805484908110612e1e57fe5b90600052602060002090600202016001015481548110612e3a57fe5b600091825260209182902060408051610120810182526008909302909101805480845260018201549484019490945260028101549183019190915260038101546060830152600481015460808301819052600582015460a0840152600682015460c084015260079091015460ff808216151560e08501526101009182900416151590830152909250612ed791612ed091906134bb565b849061345a565b925050600101612dca565b50600954612466908290613514565b600254604080516370a0823160e01b815230600482015290516000926001600160a01b0316916370a08231916024808301926020929190829003018186803b158015610f2557600080fd5b600c546001600160a01b031681565b600a5481565b600c54600160b01b900460ff1681565b6000610b6d612f6e613212565b83613cb1565b60088181548110612f8457600080fd5b6000918252602090912060029091020180546001909101546001600160a01b03909116915082565b7f000000000000000000000000000000000000000000000000000000000000000081565b7f000000000000000000000000000000000000000000000000000000000000000081565b6000613006613001613212565b611451565b905090565b600080612498613019613212565b84614117565b600080600160009054906101000a90046001600160a01b03166001600160a01b031663313ce5676040518163ffffffff1660e01b815260040160206040518083038186803b15801561307057600080fd5b505afa158015613084573d6000803e3d6000fd5b505050506040513d602081101561309a57600080fd5b505191505090565b600d81815481106130b257600080fd5b60009182526020909120600290910201805460019091015490915082565b6130d8613212565b6001600160a01b03166130e96123c3565b6001600160a01b031614613144576040805162461bcd60e51b815260206004820181905260248201527f4f776e61626c653a2063616c6c6572206973206e6f7420746865206f776e6572604482015290519081900360640190fd5b6001600160a01b0381166131895760405162461bcd60e51b81526004018080602001828103825260268152602001806146906026913960400191505060405180910390fd5b600080546040516001600160a01b03808516939216917f8be0079c531659141344cd1fd0a4f28419497f9722a3daafe3b4186f6b6457e091a3600080546001600160a01b0319166001600160a01b0392909216919091179055565b600b5481565b6002546001600160a01b031690565b60078181548110612f8457600080fd5b6000613006612c4a5b3390565b6000600a5483111561325457600a5461322f848461358d565b1161323c57506000610b6d565b600a5461324d90611c97858561358d565b9050610b6d565b600a54613261848461345a565b1061326e57506000610b6d565b61324d61327b848461345a565b600a549061358d565b600c805460ff60a01b1916600160a01b1790556040517f2e136745550967f28b779ce8c395ca060a2f844edfb5b06631fe677f66f9e30590600090a1565b6001600160a01b03821660009081526006602052604081208054829190849081106132e957fe5b6000918252602080832060408051610120810182526008909402909101805484526001810154928401929092526002820154908301526003810154606083015260048101546080830152600581015460a0830152600681015460c08301526007015460ff808216151560e0840152610100918290041615159082015291507f00000000000000000000000000000000000000000000000000000000000000007f0000000000000000000000000000000000000000000000000000000000000000017f000000000000000000000000000000000000000000000000000000000000000001904282106133da57426133dc565b815b905060006133ed8460200151614330565b9050600061343561341e7f00000000000000000000000000000000000000000000000000000000000000008461345a565b602087015161342e90869061358d565b8751614437565b905061344e85604001518261358d90919063ffffffff16565b98975050505050505050565b6000828201838110156134b4576040805162461bcd60e51b815260206004820152601b60248201527f536166654d6174683a206164646974696f6e206f766572666c6f770000000000604482015290519081900360640190fd5b9392505050565b6000826134ca57506000610b6d565b828202828482816134d757fe5b04146134b45760405162461bcd60e51b815260040180806020018281038252602181526020018061474a6021913960400191505060405180910390fd5b600080821161356a576040805162461bcd60e51b815260206004820152601a60248201527f536166654d6174683a206469766973696f6e206279207a65726f000000000000604482015290519081900360640190fd5b81838161357357fe5b049392505050565b60006134b4612710611b0885856134bb565b6000828211156135e4576040805162461bcd60e51b815260206004820152601e60248201527f536166654d6174683a207375627472616374696f6e206f766572666c6f770000604482015290519081900360640190fd5b50900390565b6000806000837f00000000000000000000000000000000000000000000000000000000000000001161361d576000613647565b6136477f00000000000000000000000000000000000000000000000000000000000000008561358d565b90508061365b57600085925092505061367f565b613665858261357b565b613679613672878461357b565b879061358d565b92509250505b9250929050565b600080600080600061369786611451565b90506136a28661391b565b90935091506136b1818461345a565b94509092505050915091565b6002546040805163095ea7b360e01b81526001600160a01b038581166004830152602482018590529151919092169163095ea7b39160448083019260209291908290030181600087803b15801561371357600080fd5b505af1158015613727573d6000803e3d6000fd5b505050506040513d602081101561373d57600080fd5b50506040805182815290516001600160a01b038416917fd77df63d9076d067d9fd7af16c3d67db48b84064c3314f5900ae919922d364a1919081900360200190a25050565b6001600160a01b03841661379557600080fd5b6003546001600160a01b03166338ed173984846137b06124b7565b88866040518663ffffffff1660e01b81526004018086815260200185815260200180602001846001600160a01b03168152602001838152602001828103825285818151815260200191508051906020019060200280838360005b8381101561382257818101518382015260200161380a565b505050509050019650505050505050600060405180830381600087803b15801561384b57600080fd5b505af115801561385f573d6000803e3d6000fd5b505050506040513d6000823e601f3d908101601f19168201604052602081101561388857600080fd5b81019080805160405193929190846401000000008211156138a857600080fd5b9083019060208201858111156138bd57600080fd5b82518660208202830111640100000000821117156138da57600080fd5b82525081516020918201928201910280838360005b838110156139075781810151838201526020016138ef565b505050509050016040525050505050505050565b600c546000908190600160a81b900460ff1661393c5750600090508061249d565b6001600160a01b038316600090815260066020908152604080832080548251818502810185019093528083529192909190849084015b82821015613a0457600084815260209081902060408051610120810182526008860290920180548352600180820154848601526002820154928401929092526003810154606084015260048101546080840152600581015460a0840152600681015460c08401526007015460ff808216151560e085015261010091829004161515908301529083529092019101613972565b505050509050805160001415613a2157600080925092505061249d565b600a54600090613a5990611b087f00000000000000000000000000000000000000000000000000000000000000006305f5e1006134bb565b905060008060005b8451811015613af957848181518110613a7657fe5b602002602001015160e00151613af1576000613aa8868381518110613a9757fe5b602002602001015160c00151614540565b9050613ade613ad77f00000000000000000000000000000000000000000000000000000000000000008361357b565b859061345a565b9350613aed612ed0868361357b565b9250505b600101613a61565b50600b5415613b2a57600b54613b10908390614667565b9150613b27600b548261466790919063ffffffff16565b90505b90945092505050915091565b6000806000806000613b4887876118ea565b9050613b548787614117565b9093509150613b63818461345a565b9791965090945050505050565b6001600160a01b03821660009081526006602052604090208054613b945750613c26565b80548210613ba25750613c26565b6000613bae84846132c2565b905042828481548110613bbd57fe5b906000526020600020906008020160030181905550613c0281838581548110613be257fe5b90600052602060002090600802016002015461345a90919063ffffffff16565b828481548110613c0e57fe5b90600052602060002090600802016002018190555050505b5050565b6001600160a01b03821660009081526006602052604090208054613c4e5750613c26565b808281548110613c5a57fe5b600091825260209091206007600890920201015460ff1615613c7c5750613c26565b6001818381548110613c8a57fe5b60009182526020909120600890910201600701805460ff1916911515919091179055505050565b6001600160a01b038216600090815260066020908152604080832080548251818502810185019093528083528493849084015b82821015613d7657600084815260209081902060408051610120810182526008860290920180548352600180820154848601526002820154928401929092526003810154606084015260048101546080840152600581015460a0840152600681015460c08401526007015460ff808216151560e085015261010091829004161515908301529083529092019101613ce4565b505050509050805160001415613d90576000915050610b6d565b80518310613da2576000915050610b6d565b6000818481518110613db057fe5b60200260200101516101000151613dee57613deb828581518110613dd057fe5b6020026020010151600001518261345a90919063ffffffff16565b90505b949350505050565b6001600160a01b03821660009081526006602052604090208054613e1a5750613c26565b80548210613e285750613c26565b6001818381548110613e3657fe5b906000526020600020906008020160070160016101000a81548160ff021916908315150217905550505050565b6001600160a01b03811660009081526006602052604090208054613e875750613eff565b60005b8154811015613efc576000613e9f84836132c2565b905042838381548110613eae57fe5b906000526020600020906008020160030181905550613ed381848481548110613be257fe5b838381548110613edf57fe5b600091825260209091206002600890920201015550600101613e8a565b50505b50565b6001600160a01b03811660009081526006602052604090208054613f265750613eff565b60005b8154811015613efc576001828281548110613f4057fe5b60009182526020909120600890910201600701805460ff1916911515919091179055600101613f29565b6001600160a01b038116600090815260066020908152604080832080548251818502810185019093528083528493849084015b8282101561402f57600084815260209081902060408051610120810182526008860290920180548352600180820154848601526002820154928401929092526003810154606084015260048101546080840152600581015460a0840152600681015460c08401526007015460ff808216151560e085015261010091829004161515908301529083529092019101613f9d565b505050509050805160001415614049576000915050610ae9565b6000805b82518110156115605782818151811061406257fe5b602002602001015161010001516140a05761409d83828151811061408257fe5b6020026020010151600001518361345a90919063ffffffff16565b91505b60010161404d565b6001600160a01b038116600090815260066020526040902080546140cc5750613eff565b60005b8154811015613efc5760018282815481106140e657fe5b6000918252602090912060076008909202010180549115156101000261ff00199092169190911790556001016140cf565b600c546000908190600160a81b900460ff166141385750600090508061367f565b6001600160a01b038416600090815260066020908152604080832080548251818502810185019093528083529192909190849084015b8282101561420057600084815260209081902060408051610120810182526008860290920180548352600180820154848601526002820154928401929092526003810154606084015260048101546080840152600581015460a0840152600681015460c08401526007015460ff808216151560e08501526101009182900416151590830152908352909201910161416e565b50505050905080516000141561421d57600080925092505061367f565b8051841061423257600080925092505061367f565b80848151811061423e57fe5b602002602001015160e001511561425c57600080925092505061367f565b600a5460009061429490611b087f00000000000000000000000000000000000000000000000000000000000000006305f5e1006134bb565b905060008060006142aa858981518110613a9757fe5b90506142d9612ed07f00000000000000000000000000000000000000000000000000000000000000008361357b565b92506142ef6142e8858361357b565b839061345a565b600b549092501561432257600b54614308908490614667565b925061431f600b548361466790919063ffffffff16565b91505b509097909650945050505050565b60007f000000000000000000000000000000000000000000000000000000000000000061435f57506000610ae9565b60006143ab7f00000000000000000000000000000000000000000000000000000000000000007f000000000000000000000000000000000000000000000000000000000000000061345a565b905060006143b9828561358d565b90506202a3008110156143d157600092505050610ae9565b6203f4808110156143e757606492505050610ae9565b620546008110156143fd5760c892505050610ae9565b620697808110156144145761012c92505050610ae9565b6207e90081101561442b5761019092505050610ae9565b6101f492505050610ae9565b60006301e133808161445466038882915c40006305f5e1006134bb565b9050600061447061138861446a85818a8c6134bb565b906134bb565b9050600061448761138861446a8a6002880a6134bb565b905060006144a06006611b086002808c0a908d0a6134bb565b905060006144c36002611b088861446a60028f0a8e6134bb90919063ffffffff16565b905060006144dc6003611b086002808f0a908b0a6134bb565b905060006144f6826144f086818b8b61345a565b9061345a565b905061450683611c97838861358d565b90506145168b61446a838f6134bb565b905061453064e8d4a51000611b0860038b0a81858f6134bb565b9c9b505050505050505050505050565b6000600d60008154811061455057fe5b906000526020600020906002020160000154821161458f57600d60008154811061457657fe5b9060005260206000209060020201600101549050610ae9565b600d60018154811061459d57fe5b90600052602060002090600202016000015482116145c357600d60018154811061457657fe5b600d6002815481106145d157fe5b90600052602060002090600202016000015482116145f757600d60028154811061457657fe5b600d60038154811061460557fe5b906000526020600020906002020160000154821161462b57600d60038154811061457657fe5b600d60048154811061463957fe5b906000526020600020906002020160000154821161465f57600d60048154811061457657fe5b506000610ae9565b60008261467657506000610b6d565b81614682575081610b6d565b6134b4612ed0848461357b56fe4f776e61626c653a206e6577206f776e657220697320746865207a65726f2061646472657373303336302043616e277420656e6420706f6f6c206265666f726520746865206d617475726974792074696d65303331322043616e2774207374616b652061626f76652073697a6520616c6c6f636174696f6e3033373020746f74656d732063616e206e6f74206265207472616e736665726564303330302063616c6c6572206973206e6f74206120706f6f6c2063726561746f72536166654d6174683a206d756c7469706c69636174696f6e206f766572666c6f77303334302054686520706f6f6c206973206e6f74204254432072657761726465723033383020746869732061646472657373206469646e2774207374616b6520696e207468697320706f6f6c3033313120416d6f756e742063616e2774206265206c657373207468616e20746865206d696e696d756d303335302043616e277420736574206d61747572696e67207072696365206265666f726520746865206d617475726974792074696d65a2646970667358221220e0fa9905750a081896faa6534672f6d4ae226d59c2da44a6ba0c7056f0e75de764736f6c63430007060033303432302054617820636f6e6e6f74206265206f76657220313030252028313030303020425029506f6f6c43726561746f72526f6c653a2063616c6c657220646f6573206e6f7420686176652074686520506f6f6c43726561746f7220726f6c65526f6c65733a206163636f756e7420646f6573206e6f74206861766520726f6c65526f6c65733a206163636f756e7420697320746865207a65726f2061646472657373a264697066735822122065d6bbe272791c472cfae7041590f24bc1802f9c054bf11e103204bd99e66ac164736f6c63430007060033526f6c65733a206163636f756e7420697320746865207a65726f2061646472657373",
  "linkReferences": {},
  "deployedLinkReferences": {},
  "devdoc": {
    "kind": "dev",
    "methods": {},
    "version": 1
  },
  "evm": {
    "bytecode": {
      "linkReferences": {},
      "opcodes": "PUSH2 0x100 PUSH1 0x40 MSTORE CALLVALUE DUP1 ISZERO PUSH3 0x12 JUMPI PUSH1 0x0 DUP1 REVERT JUMPDEST POP PUSH1 0x40 MLOAD PUSH3 0x5BBF CODESIZE SUB DUP1 PUSH3 0x5BBF DUP4 CODECOPY DUP2 DUP2 ADD PUSH1 0x40 MSTORE PUSH1 0xC0 DUP2 LT ISZERO PUSH3 0x38 JUMPI PUSH1 0x0 DUP1 REVERT JUMPDEST POP DUP1 MLOAD PUSH1 0x20 DUP3 ADD MLOAD PUSH1 0x40 DUP4 ADD MLOAD PUSH1 0x60 DUP5 ADD MLOAD PUSH1 0x80 DUP6 ADD MLOAD PUSH1 0xA0 SWAP1 SWAP6 ADD MLOAD SWAP4 SWAP5 SWAP3 SWAP4 SWAP2 SWAP3 SWAP1 SWAP2 PUSH3 0x71 PUSH3 0x6B PUSH3 0xFD JUMP JUMPDEST PUSH3 0x101 JUMP JUMPDEST PUSH3 0x8A JUMPI PUSH3 0x8A PUSH3 0x84 PUSH3 0xFD JUMP JUMPDEST PUSH3 0x124 JUMP JUMPDEST PUSH1 0x1 PUSH1 0x1 PUSH1 0x60 SHL SUB NOT PUSH1 0x60 SWAP7 DUP8 SHL DUP2 AND PUSH1 0x80 MSTORE SWAP5 DUP7 SHL DUP6 AND PUSH1 0xA0 MSTORE PUSH1 0x2 DUP1 SLOAD PUSH1 0x1 PUSH1 0x1 PUSH1 0xA0 SHL SUB SWAP6 DUP7 AND PUSH1 0x1 PUSH1 0x1 PUSH1 0xA0 SHL SUB NOT SWAP2 DUP3 AND OR SWAP1 SWAP2 SSTORE PUSH1 0x1 DUP1 SLOAD SWAP5 SWAP1 SWAP6 AND SWAP4 AND SWAP3 SWAP1 SWAP3 OR SWAP1 SWAP3 SSTORE SWAP1 DUP4 SHL DUP3 AND PUSH1 0xC0 MSTORE SWAP1 SWAP2 SHL AND PUSH1 0xE0 MSTORE PUSH2 0x12C PUSH1 0x3 SSTORE PUSH9 0xD8D726B7177A80000 PUSH1 0x4 SSTORE PUSH3 0x263 JUMP JUMPDEST CALLER SWAP1 JUMP JUMPDEST PUSH1 0x0 PUSH3 0x11E DUP3 PUSH1 0x0 PUSH3 0x176 PUSH1 0x20 SHL PUSH3 0x90E OR SWAP1 SWAP2 SWAP1 PUSH1 0x20 SHR JUMP JUMPDEST SWAP3 SWAP2 POP POP JUMP JUMPDEST PUSH3 0x13F DUP2 PUSH1 0x0 PUSH3 0x1DF PUSH1 0x20 SHL PUSH3 0x977 OR SWAP1 SWAP2 SWAP1 PUSH1 0x20 SHR JUMP JUMPDEST PUSH1 0x40 MLOAD PUSH1 0x1 PUSH1 0x1 PUSH1 0xA0 SHL SUB DUP3 AND SWAP1 PUSH32 0xAC89BB7B3D0C5A763A97F31BC75F8FAEE00426E7B235F02CA76897D55CAF7B61 SWAP1 PUSH1 0x0 SWAP1 LOG2 POP JUMP JUMPDEST PUSH1 0x0 PUSH1 0x1 PUSH1 0x1 PUSH1 0xA0 SHL SUB DUP3 AND PUSH3 0x1BF JUMPI PUSH1 0x40 MLOAD PUSH3 0x461BCD PUSH1 0xE5 SHL DUP2 MSTORE PUSH1 0x4 ADD DUP1 DUP1 PUSH1 0x20 ADD DUP3 DUP2 SUB DUP3 MSTORE PUSH1 0x22 DUP2 MSTORE PUSH1 0x20 ADD DUP1 PUSH3 0x5B9D PUSH1 0x22 SWAP2 CODECOPY PUSH1 0x40 ADD SWAP2 POP POP PUSH1 0x40 MLOAD DUP1 SWAP2 SUB SWAP1 REVERT JUMPDEST POP PUSH1 0x1 PUSH1 0x1 PUSH1 0xA0 SHL SUB AND PUSH1 0x0 SWAP1 DUP2 MSTORE PUSH1 0x20 SWAP2 SWAP1 SWAP2 MSTORE PUSH1 0x40 SWAP1 KECCAK256 SLOAD PUSH1 0xFF AND SWAP1 JUMP JUMPDEST PUSH3 0x1EB DUP3 DUP3 PUSH3 0x176 JUMP JUMPDEST ISZERO PUSH3 0x23E JUMPI PUSH1 0x40 DUP1 MLOAD PUSH3 0x461BCD PUSH1 0xE5 SHL DUP2 MSTORE PUSH1 0x20 PUSH1 0x4 DUP3 ADD MSTORE PUSH1 0x1F PUSH1 0x24 DUP3 ADD MSTORE PUSH32 0x526F6C65733A206163636F756E7420616C72656164792068617320726F6C6500 PUSH1 0x44 DUP3 ADD MSTORE SWAP1 MLOAD SWAP1 DUP2 SWAP1 SUB PUSH1 0x64 ADD SWAP1 REVERT JUMPDEST PUSH1 0x1 PUSH1 0x1 PUSH1 0xA0 SHL SUB AND PUSH1 0x0 SWAP1 DUP2 MSTORE PUSH1 0x20 SWAP2 SWAP1 SWAP2 MSTORE PUSH1 0x40 SWAP1 KECCAK256 DUP1 SLOAD PUSH1 0xFF NOT AND PUSH1 0x1 OR SWAP1 SSTORE JUMP JUMPDEST PUSH1 0x80 MLOAD PUSH1 0x60 SHR PUSH1 0xA0 MLOAD PUSH1 0x60 SHR PUSH1 0xC0 MLOAD PUSH1 0x60 SHR PUSH1 0xE0 MLOAD PUSH1 0x60 SHR PUSH2 0x58E9 PUSH3 0x2B4 PUSH1 0x0 CODECOPY DUP1 PUSH2 0x637 MSTORE POP DUP1 PUSH2 0x615 MSTORE POP DUP1 PUSH2 0x2C2 MSTORE DUP1 PUSH2 0x5D1 MSTORE DUP1 PUSH2 0x78E MSTORE POP DUP1 PUSH2 0x5B0 MSTORE DUP1 PUSH2 0x8EC MSTORE POP PUSH2 0x58E9 PUSH1 0x0 RETURN INVALID PUSH1 0x80 PUSH1 0x40 MSTORE CALLVALUE DUP1 ISZERO PUSH3 0x11 JUMPI PUSH1 0x0 DUP1 REVERT JUMPDEST POP PUSH1 0x4 CALLDATASIZE LT PUSH3 0x100 JUMPI PUSH1 0x0 CALLDATALOAD PUSH1 0xE0 SHR DUP1 PUSH4 0x9A94775D GT PUSH3 0x99 JUMPI DUP1 PUSH4 0xC31C9C07 GT PUSH3 0x6F JUMPI DUP1 PUSH4 0xC31C9C07 EQ PUSH3 0x282 JUMPI DUP1 PUSH4 0xC6D69A30 EQ PUSH3 0x28C JUMPI DUP1 PUSH4 0xE281CC7E EQ PUSH3 0x2AC JUMPI DUP1 PUSH4 0xE8153C93 EQ PUSH3 0x2B6 JUMPI PUSH3 0x100 JUMP JUMPDEST DUP1 PUSH4 0x9A94775D EQ PUSH3 0x1EE JUMPI DUP1 PUSH4 0xB9603D6A EQ PUSH3 0x22B JUMPI DUP1 PUSH4 0xBECE7532 EQ PUSH3 0x278 JUMPI PUSH3 0x100 JUMP JUMPDEST DUP1 PUSH4 0x441F5C65 GT PUSH3 0xDB JUMPI DUP1 PUSH4 0x441F5C65 EQ PUSH3 0x176 JUMPI DUP1 PUSH4 0x496CCD9B EQ PUSH3 0x192 JUMPI DUP1 PUSH4 0x6B036F45 EQ PUSH3 0x1BB JUMPI DUP1 PUSH4 0x8C2D741C EQ PUSH3 0x1C5 JUMPI PUSH3 0x100 JUMP JUMPDEST DUP1 PUSH4 0xF4EF8A6 EQ PUSH3 0x105 JUMPI DUP1 PUSH4 0x37E77675 EQ PUSH3 0x12B JUMPI DUP1 PUSH4 0x41273657 EQ PUSH3 0x14D JUMPI JUMPDEST PUSH1 0x0 DUP1 REVERT JUMPDEST PUSH3 0x10F PUSH3 0x2C0 JUMP JUMPDEST PUSH1 0x40 DUP1 MLOAD PUSH1 0x1 PUSH1 0x1 PUSH1 0xA0 SHL SUB SWAP1 SWAP3 AND DUP3 MSTORE MLOAD SWAP1 DUP2 SWAP1 SUB PUSH1 0x20 ADD SWAP1 RETURN JUMPDEST PUSH3 0x14B PUSH1 0x4 DUP1 CALLDATASIZE SUB PUSH1 0x20 DUP2 LT ISZERO PUSH3 0x143 JUMPI PUSH1 0x0 DUP1 REVERT JUMPDEST POP CALLDATALOAD PUSH3 0x2E4 JUMP JUMPDEST STOP JUMPDEST PUSH3 0x14B PUSH1 0x4 DUP1 CALLDATASIZE SUB PUSH1 0x20 DUP2 LT ISZERO PUSH3 0x165 JUMPI PUSH1 0x0 DUP1 REVERT JUMPDEST POP CALLDATALOAD PUSH1 0x1 PUSH1 0x1 PUSH1 0xA0 SHL SUB AND PUSH3 0x33A JUMP JUMPDEST PUSH3 0x180 PUSH3 0x3EC JUMP JUMPDEST PUSH1 0x40 DUP1 MLOAD SWAP2 DUP3 MSTORE MLOAD SWAP1 DUP2 SWAP1 SUB PUSH1 0x20 ADD SWAP1 RETURN JUMPDEST PUSH3 0x14B PUSH1 0x4 DUP1 CALLDATASIZE SUB PUSH1 0x20 DUP2 LT ISZERO PUSH3 0x1AA JUMPI PUSH1 0x0 DUP1 REVERT JUMPDEST POP CALLDATALOAD PUSH1 0x1 PUSH1 0x1 PUSH1 0xA0 SHL SUB AND PUSH3 0x3F2 JUMP JUMPDEST PUSH3 0x180 PUSH3 0x4A4 JUMP JUMPDEST PUSH3 0x14B PUSH1 0x4 DUP1 CALLDATASIZE SUB PUSH1 0x20 DUP2 LT ISZERO PUSH3 0x1DD JUMPI PUSH1 0x0 DUP1 REVERT JUMPDEST POP CALLDATALOAD PUSH1 0x1 PUSH1 0x1 PUSH1 0xA0 SHL SUB AND PUSH3 0x4AA JUMP JUMPDEST PUSH3 0x217 PUSH1 0x4 DUP1 CALLDATASIZE SUB PUSH1 0x20 DUP2 LT ISZERO PUSH3 0x206 JUMPI PUSH1 0x0 DUP1 REVERT JUMPDEST POP CALLDATALOAD PUSH1 0x1 PUSH1 0x1 PUSH1 0xA0 SHL SUB AND PUSH3 0x503 JUMP JUMPDEST PUSH1 0x40 DUP1 MLOAD SWAP2 ISZERO ISZERO DUP3 MSTORE MLOAD SWAP1 DUP2 SWAP1 SUB PUSH1 0x20 ADD SWAP1 RETURN JUMPDEST PUSH3 0x10F PUSH1 0x4 DUP1 CALLDATASIZE SUB PUSH2 0x100 DUP2 LT ISZERO PUSH3 0x244 JUMPI PUSH1 0x0 DUP1 REVERT JUMPDEST POP DUP1 CALLDATALOAD SWAP1 PUSH1 0x20 DUP2 ADD CALLDATALOAD SWAP1 PUSH1 0x40 DUP2 ADD CALLDATALOAD SWAP1 PUSH1 0x60 DUP2 ADD CALLDATALOAD SWAP1 PUSH1 0x80 DUP2 ADD CALLDATALOAD SWAP1 PUSH1 0xA0 DUP2 ADD CALLDATALOAD SWAP1 PUSH1 0xC0 DUP2 ADD CALLDATALOAD SWAP1 PUSH1 0xE0 ADD CALLDATALOAD ISZERO ISZERO PUSH3 0x517 JUMP JUMPDEST PUSH3 0x10F PUSH3 0x824 JUMP JUMPDEST PUSH3 0x10F PUSH3 0x833 JUMP JUMPDEST PUSH3 0x14B PUSH1 0x4 DUP1 CALLDATASIZE SUB PUSH1 0x20 DUP2 LT ISZERO PUSH3 0x2A4 JUMPI PUSH1 0x0 DUP1 REVERT JUMPDEST POP CALLDATALOAD PUSH3 0x842 JUMP JUMPDEST PUSH3 0x14B PUSH3 0x8D4 JUMP JUMPDEST PUSH3 0x10F PUSH3 0x8EA JUMP JUMPDEST PUSH32 0x0 DUP2 JUMP JUMPDEST PUSH3 0x2F8 PUSH3 0x2F2 PUSH3 0x9FB JUMP JUMPDEST PUSH3 0x503 JUMP JUMPDEST PUSH3 0x335 JUMPI PUSH1 0x40 MLOAD PUSH3 0x461BCD PUSH1 0xE5 SHL DUP2 MSTORE PUSH1 0x4 ADD DUP1 DUP1 PUSH1 0x20 ADD DUP3 DUP2 SUB DUP3 MSTORE PUSH1 0x3A DUP2 MSTORE PUSH1 0x20 ADD DUP1 PUSH3 0x5837 PUSH1 0x3A SWAP2 CODECOPY PUSH1 0x40 ADD SWAP2 POP POP PUSH1 0x40 MLOAD DUP1 SWAP2 SUB SWAP1 REVERT JUMPDEST PUSH1 0x4 SSTORE JUMP JUMPDEST PUSH3 0x348 PUSH3 0x2F2 PUSH3 0x9FB JUMP JUMPDEST PUSH3 0x385 JUMPI PUSH1 0x40 MLOAD PUSH3 0x461BCD PUSH1 0xE5 SHL DUP2 MSTORE PUSH1 0x4 ADD DUP1 DUP1 PUSH1 0x20 ADD DUP3 DUP2 SUB DUP3 MSTORE PUSH1 0x3A DUP2 MSTORE PUSH1 0x20 ADD DUP1 PUSH3 0x5837 PUSH1 0x3A SWAP2 CODECOPY PUSH1 0x40 ADD SWAP2 POP POP PUSH1 0x40 MLOAD DUP1 SWAP2 SUB SWAP1 REVERT JUMPDEST PUSH1 0x1 PUSH1 0x1 PUSH1 0xA0 SHL SUB DUP2 AND PUSH3 0x3CA JUMPI PUSH1 0x40 DUP1 MLOAD PUSH3 0x461BCD PUSH1 0xE5 SHL DUP2 MSTORE PUSH1 0x20 PUSH1 0x4 DUP1 DUP4 ADD SWAP2 SWAP1 SWAP2 MSTORE PUSH1 0x24 DUP3 ADD MSTORE PUSH4 0x3034313 PUSH1 0xE4 SHL PUSH1 0x44 DUP3 ADD MSTORE SWAP1 MLOAD SWAP1 DUP2 SWAP1 SUB PUSH1 0x64 ADD SWAP1 REVERT JUMPDEST PUSH1 0x1 DUP1 SLOAD PUSH1 0x1 PUSH1 0x1 PUSH1 0xA0 SHL SUB NOT AND PUSH1 0x1 PUSH1 0x1 PUSH1 0xA0 SHL SUB SWAP3 SWAP1 SWAP3 AND SWAP2 SWAP1 SWAP2 OR SWAP1 SSTORE JUMP JUMPDEST PUSH1 0x3 SLOAD DUP2 JUMP JUMPDEST PUSH3 0x400 PUSH3 0x2F2 PUSH3 0x9FB JUMP JUMPDEST PUSH3 0x43D JUMPI PUSH1 0x40 MLOAD PUSH3 0x461BCD PUSH1 0xE5 SHL DUP2 MSTORE PUSH1 0x4 ADD DUP1 DUP1 PUSH1 0x20 ADD DUP3 DUP2 SUB DUP3 MSTORE PUSH1 0x3A DUP2 MSTORE PUSH1 0x20 ADD DUP1 PUSH3 0x5837 PUSH1 0x3A SWAP2 CODECOPY PUSH1 0x40 ADD SWAP2 POP POP PUSH1 0x40 MLOAD DUP1 SWAP2 SUB SWAP1 REVERT JUMPDEST PUSH1 0x1 PUSH1 0x1 PUSH1 0xA0 SHL SUB DUP2 AND PUSH3 0x482 JUMPI PUSH1 0x40 DUP1 MLOAD PUSH3 0x461BCD PUSH1 0xE5 SHL DUP2 MSTORE PUSH1 0x20 PUSH1 0x4 DUP1 DUP4 ADD SWAP2 SWAP1 SWAP2 MSTORE PUSH1 0x24 DUP3 ADD MSTORE PUSH4 0x3034303 PUSH1 0xE4 SHL PUSH1 0x44 DUP3 ADD MSTORE SWAP1 MLOAD SWAP1 DUP2 SWAP1 SUB PUSH1 0x64 ADD SWAP1 REVERT JUMPDEST PUSH1 0x2 DUP1 SLOAD PUSH1 0x1 PUSH1 0x1 PUSH1 0xA0 SHL SUB NOT AND PUSH1 0x1 PUSH1 0x1 PUSH1 0xA0 SHL SUB SWAP3 SWAP1 SWAP3 AND SWAP2 SWAP1 SWAP2 OR SWAP1 SSTORE JUMP JUMPDEST PUSH1 0x4 SLOAD DUP2 JUMP JUMPDEST PUSH3 0x4B8 PUSH3 0x2F2 PUSH3 0x9FB JUMP JUMPDEST PUSH3 0x4F5 JUMPI PUSH1 0x40 MLOAD PUSH3 0x461BCD PUSH1 0xE5 SHL DUP2 MSTORE PUSH1 0x4 ADD DUP1 DUP1 PUSH1 0x20 ADD DUP3 DUP2 SUB DUP3 MSTORE PUSH1 0x3A DUP2 MSTORE PUSH1 0x20 ADD DUP1 PUSH3 0x5837 PUSH1 0x3A SWAP2 CODECOPY PUSH1 0x40 ADD SWAP2 POP POP PUSH1 0x40 MLOAD DUP1 SWAP2 SUB SWAP1 REVERT JUMPDEST PUSH3 0x500 DUP2 PUSH3 0x9FF JUMP JUMPDEST POP JUMP JUMPDEST PUSH1 0x0 PUSH3 0x511 DUP2 DUP4 PUSH3 0x90E JUMP JUMPDEST SWAP3 SWAP2 POP POP JUMP JUMPDEST PUSH1 0x0 PUSH3 0x527 PUSH3 0x2F2 PUSH3 0x9FB JUMP JUMPDEST PUSH3 0x564 JUMPI PUSH1 0x40 MLOAD PUSH3 0x461BCD PUSH1 0xE5 SHL DUP2 MSTORE PUSH1 0x4 ADD DUP1 DUP1 PUSH1 0x20 ADD DUP3 DUP2 SUB DUP3 MSTORE PUSH1 0x3A DUP2 MSTORE PUSH1 0x20 ADD DUP1 PUSH3 0x5837 PUSH1 0x3A SWAP2 CODECOPY PUSH1 0x40 ADD SWAP2 POP POP PUSH1 0x40 MLOAD DUP1 SWAP2 SUB SWAP1 REVERT JUMPDEST PUSH1 0x0 PUSH1 0x40 MLOAD DUP1 PUSH2 0x120 ADD PUSH1 0x40 MSTORE DUP1 DUP12 DUP2 MSTORE PUSH1 0x20 ADD DUP11 DUP2 MSTORE PUSH1 0x20 ADD DUP10 DUP2 MSTORE PUSH1 0x20 ADD DUP9 DUP2 MSTORE PUSH1 0x20 ADD DUP8 DUP2 MSTORE PUSH1 0x20 ADD DUP7 DUP2 MSTORE PUSH1 0x20 ADD DUP6 DUP2 MSTORE PUSH1 0x20 ADD PUSH1 0x3 SLOAD DUP2 MSTORE PUSH1 0x20 ADD PUSH1 0x4 SLOAD DUP2 MSTORE POP SWAP1 POP PUSH1 0x0 PUSH32 0x0 PUSH32 0x0 PUSH3 0x5FA PUSH3 0x9FB JUMP JUMPDEST PUSH1 0x1 SLOAD PUSH1 0x2 SLOAD PUSH1 0x40 MLOAD PUSH1 0x1 PUSH1 0x1 PUSH1 0xA0 SHL SUB SWAP3 DUP4 AND SWAP3 SWAP1 SWAP2 AND SWAP1 PUSH32 0x0 SWAP1 PUSH32 0x0 SWAP1 DUP10 SWAP1 DUP13 SWAP1 PUSH3 0x666 SWAP1 PUSH3 0xAF2 JUMP JUMPDEST PUSH1 0x1 PUSH1 0x1 PUSH1 0xA0 SHL SUB DUP1 DUP12 AND DUP3 MSTORE DUP10 DUP2 AND PUSH1 0x20 DUP4 ADD MSTORE DUP9 DUP2 AND PUSH1 0x40 DUP4 ADD MSTORE DUP8 DUP2 AND PUSH1 0x60 DUP4 ADD MSTORE DUP7 DUP2 AND PUSH1 0x80 DUP4 ADD MSTORE DUP6 DUP2 AND PUSH1 0xA0 DUP4 ADD MSTORE DUP5 AND PUSH1 0xC0 DUP3 ADD MSTORE PUSH1 0xE0 DUP2 ADD DUP4 PUSH2 0x120 DUP1 DUP4 DUP4 PUSH1 0x0 JUMPDEST DUP4 DUP2 LT ISZERO PUSH3 0x6CA JUMPI DUP2 DUP2 ADD MLOAD DUP4 DUP3 ADD MSTORE PUSH1 0x20 ADD PUSH3 0x6B0 JUMP JUMPDEST POP POP POP POP SWAP1 POP ADD DUP3 ISZERO ISZERO DUP2 MSTORE PUSH1 0x20 ADD SWAP10 POP POP POP POP POP POP POP POP POP POP PUSH1 0x40 MLOAD DUP1 SWAP2 SUB SWAP1 PUSH1 0x0 CREATE DUP1 ISZERO DUP1 ISZERO PUSH3 0x701 JUMPI RETURNDATASIZE PUSH1 0x0 DUP1 RETURNDATACOPY RETURNDATASIZE PUSH1 0x0 REVERT JUMPDEST POP PUSH1 0x3 SLOAD PUSH1 0x4 SLOAD PUSH1 0x40 DUP1 MLOAD DUP16 DUP2 MSTORE PUSH1 0x20 DUP2 ADD DUP16 SWAP1 MSTORE DUP1 DUP3 ADD DUP15 SWAP1 MSTORE PUSH1 0x60 DUP2 ADD DUP14 SWAP1 MSTORE PUSH1 0x80 DUP2 ADD DUP13 SWAP1 MSTORE PUSH1 0xA0 DUP2 ADD DUP12 SWAP1 MSTORE PUSH1 0xC0 DUP2 ADD DUP11 SWAP1 MSTORE PUSH1 0xE0 DUP2 ADD SWAP4 SWAP1 SWAP4 MSTORE PUSH2 0x100 DUP4 ADD SWAP2 SWAP1 SWAP2 MSTORE DUP7 ISZERO ISZERO PUSH2 0x120 DUP4 ADD MSTORE MLOAD SWAP2 SWAP3 POP PUSH1 0x1 PUSH1 0x1 PUSH1 0xA0 SHL SUB DUP4 AND SWAP2 PUSH32 0x75243069EC60D1B18EDC96A68BC98623353EBB06C41582ECBCAA59E4EC8DF221 SWAP2 DUP2 SWAP1 SUB PUSH2 0x140 ADD SWAP1 LOG2 PUSH32 0x0 PUSH1 0x1 PUSH1 0x1 PUSH1 0xA0 SHL SUB AND PUSH4 0xD914CD4B DUP3 PUSH1 0x40 MLOAD DUP3 PUSH4 0xFFFFFFFF AND PUSH1 0xE0 SHL DUP2 MSTORE PUSH1 0x4 ADD DUP1 DUP3 PUSH1 0x1 PUSH1 0x1 PUSH1 0xA0 SHL SUB AND DUP2 MSTORE PUSH1 0x20 ADD SWAP2 POP POP PUSH1 0x0 PUSH1 0x40 MLOAD DUP1 DUP4 SUB DUP2 PUSH1 0x0 DUP8 DUP1 EXTCODESIZE ISZERO DUP1 ISZERO PUSH3 0x7FC JUMPI PUSH1 0x0 DUP1 REVERT JUMPDEST POP GAS CALL ISZERO DUP1 ISZERO PUSH3 0x811 JUMPI RETURNDATASIZE PUSH1 0x0 DUP1 RETURNDATACOPY RETURNDATASIZE PUSH1 0x0 REVERT JUMPDEST POP SWAP3 SWAP14 SWAP13 POP POP POP POP POP POP POP POP POP POP POP POP POP JUMP JUMPDEST PUSH1 0x2 SLOAD PUSH1 0x1 PUSH1 0x1 PUSH1 0xA0 SHL SUB AND DUP2 JUMP JUMPDEST PUSH1 0x1 SLOAD PUSH1 0x1 PUSH1 0x1 PUSH1 0xA0 SHL SUB AND DUP2 JUMP JUMPDEST PUSH3 0x850 PUSH3 0x2F2 PUSH3 0x9FB JUMP JUMPDEST PUSH3 0x88D JUMPI PUSH1 0x40 MLOAD PUSH3 0x461BCD PUSH1 0xE5 SHL DUP2 MSTORE PUSH1 0x4 ADD DUP1 DUP1 PUSH1 0x20 ADD DUP3 DUP2 SUB DUP3 MSTORE PUSH1 0x3A DUP2 MSTORE PUSH1 0x20 ADD DUP1 PUSH3 0x5837 PUSH1 0x3A SWAP2 CODECOPY PUSH1 0x40 ADD SWAP2 POP POP PUSH1 0x40 MLOAD DUP1 SWAP2 SUB SWAP1 REVERT JUMPDEST PUSH2 0x2710 DUP2 LT PUSH3 0x8CF JUMPI PUSH1 0x40 MLOAD PUSH3 0x461BCD PUSH1 0xE5 SHL DUP2 MSTORE PUSH1 0x4 ADD DUP1 DUP1 PUSH1 0x20 ADD DUP3 DUP2 SUB DUP3 MSTORE PUSH1 0x27 DUP2 MSTORE PUSH1 0x20 ADD DUP1 PUSH3 0x5810 PUSH1 0x27 SWAP2 CODECOPY PUSH1 0x40 ADD SWAP2 POP POP PUSH1 0x40 MLOAD DUP1 SWAP2 SUB SWAP1 REVERT JUMPDEST PUSH1 0x3 SSTORE JUMP JUMPDEST PUSH3 0x8E8 PUSH3 0x8E2 PUSH3 0x9FB JUMP JUMPDEST PUSH3 0xA43 JUMP JUMPDEST JUMP JUMPDEST PUSH32 0x0 DUP2 JUMP JUMPDEST PUSH1 0x0 PUSH1 0x1 PUSH1 0x1 PUSH1 0xA0 SHL SUB DUP3 AND PUSH3 0x957 JUMPI PUSH1 0x40 MLOAD PUSH3 0x461BCD PUSH1 0xE5 SHL DUP2 MSTORE PUSH1 0x4 ADD DUP1 DUP1 PUSH1 0x20 ADD DUP3 DUP2 SUB DUP3 MSTORE PUSH1 0x22 DUP2 MSTORE PUSH1 0x20 ADD DUP1 PUSH3 0x5892 PUSH1 0x22 SWAP2 CODECOPY PUSH1 0x40 ADD SWAP2 POP POP PUSH1 0x40 MLOAD DUP1 SWAP2 SUB SWAP1 REVERT JUMPDEST POP PUSH1 0x1 PUSH1 0x1 PUSH1 0xA0 SHL SUB AND PUSH1 0x0 SWAP1 DUP2 MSTORE PUSH1 0x20 SWAP2 SWAP1 SWAP2 MSTORE PUSH1 0x40 SWAP1 KECCAK256 SLOAD PUSH1 0xFF AND SWAP1 JUMP JUMPDEST PUSH3 0x983 DUP3 DUP3 PUSH3 0x90E JUMP JUMPDEST ISZERO PUSH3 0x9D6 JUMPI PUSH1 0x40 DUP1 MLOAD PUSH3 0x461BCD PUSH1 0xE5 SHL DUP2 MSTORE PUSH1 0x20 PUSH1 0x4 DUP3 ADD MSTORE PUSH1 0x1F PUSH1 0x24 DUP3 ADD MSTORE PUSH32 0x526F6C65733A206163636F756E7420616C72656164792068617320726F6C6500 PUSH1 0x44 DUP3 ADD MSTORE SWAP1 MLOAD SWAP1 DUP2 SWAP1 SUB PUSH1 0x64 ADD SWAP1 REVERT JUMPDEST PUSH1 0x1 PUSH1 0x1 PUSH1 0xA0 SHL SUB AND PUSH1 0x0 SWAP1 DUP2 MSTORE PUSH1 0x20 SWAP2 SWAP1 SWAP2 MSTORE PUSH1 0x40 SWAP1 KECCAK256 DUP1 SLOAD PUSH1 0xFF NOT AND PUSH1 0x1 OR SWAP1 SSTORE JUMP JUMPDEST CALLER SWAP1 JUMP JUMPDEST PUSH3 0xA0C PUSH1 0x0 DUP3 PUSH3 0x977 JUMP JUMPDEST PUSH1 0x40 MLOAD PUSH1 0x1 PUSH1 0x1 PUSH1 0xA0 SHL SUB DUP3 AND SWAP1 PUSH32 0xAC89BB7B3D0C5A763A97F31BC75F8FAEE00426E7B235F02CA76897D55CAF7B61 SWAP1 PUSH1 0x0 SWAP1 LOG2 POP JUMP JUMPDEST PUSH3 0xA50 PUSH1 0x0 DUP3 PUSH3 0xA87 JUMP JUMPDEST PUSH1 0x40 MLOAD PUSH1 0x1 PUSH1 0x1 PUSH1 0xA0 SHL SUB DUP3 AND SWAP1 PUSH32 0x2BC71CC60B543DF5FDD80EF5A45E1CDB344843769B649E9D901DE3BE24AEB24E SWAP1 PUSH1 0x0 SWAP1 LOG2 POP JUMP JUMPDEST PUSH3 0xA93 DUP3 DUP3 PUSH3 0x90E JUMP JUMPDEST PUSH3 0xAD0 JUMPI PUSH1 0x40 MLOAD PUSH3 0x461BCD PUSH1 0xE5 SHL DUP2 MSTORE PUSH1 0x4 ADD DUP1 DUP1 PUSH1 0x20 ADD DUP3 DUP2 SUB DUP3 MSTORE PUSH1 0x21 DUP2 MSTORE PUSH1 0x20 ADD DUP1 PUSH3 0x5871 PUSH1 0x21 SWAP2 CODECOPY PUSH1 0x40 ADD SWAP2 POP POP PUSH1 0x40 MLOAD DUP1 SWAP2 SUB SWAP1 REVERT JUMPDEST PUSH1 0x1 PUSH1 0x1 PUSH1 0xA0 SHL SUB AND PUSH1 0x0 SWAP1 DUP2 MSTORE PUSH1 0x20 SWAP2 SWAP1 SWAP2 MSTORE PUSH1 0x40 SWAP1 KECCAK256 DUP1 SLOAD PUSH1 0xFF NOT AND SWAP1 SSTORE JUMP JUMPDEST PUSH2 0x4D0F DUP1 PUSH3 0xB01 DUP4 CODECOPY ADD SWAP1 JUMP INVALID PUSH2 0x240 PUSH1 0x40 MSTORE CALLVALUE DUP1 ISZERO PUSH3 0x12 JUMPI PUSH1 0x0 DUP1 REVERT JUMPDEST POP PUSH1 0x40 MLOAD PUSH3 0x4D0F CODESIZE SUB DUP1 PUSH3 0x4D0F DUP4 CODECOPY DUP2 DUP2 ADD PUSH1 0x40 MSTORE PUSH2 0x220 DUP2 LT ISZERO PUSH3 0x39 JUMPI PUSH1 0x0 DUP1 REVERT JUMPDEST POP DUP1 MLOAD PUSH1 0x20 DUP3 ADD MLOAD PUSH1 0x40 DUP4 ADD MLOAD PUSH1 0x60 DUP5 ADD MLOAD PUSH1 0x80 DUP6 ADD MLOAD PUSH1 0xA0 DUP7 ADD MLOAD PUSH1 0xC0 DUP8 ADD MLOAD PUSH2 0x200 DUP9 ADD MLOAD SWAP7 SWAP8 SWAP6 SWAP7 SWAP5 SWAP6 SWAP4 SWAP5 SWAP3 SWAP4 SWAP2 SWAP3 SWAP1 SWAP2 PUSH1 0xE0 ADD SWAP1 DUP6 DUP5 DUP5 DUP8 PUSH1 0x0 PUSH3 0x82 PUSH3 0x311 JUMP JUMPDEST PUSH1 0x0 DUP1 SLOAD PUSH1 0x1 PUSH1 0x1 PUSH1 0xA0 SHL SUB NOT AND PUSH1 0x1 PUSH1 0x1 PUSH1 0xA0 SHL SUB DUP4 AND SWAP1 DUP2 OR DUP3 SSTORE PUSH1 0x40 MLOAD SWAP3 SWAP4 POP SWAP2 PUSH32 0x8BE0079C531659141344CD1FD0A4F28419497F9722A3DAAFE3B4186F6B6457E0 SWAP1 DUP3 SWAP1 LOG3 POP PUSH1 0x1 PUSH1 0x1 PUSH1 0xA0 SHL SUB DUP2 AND PUSH3 0xE0 JUMPI PUSH1 0x0 DUP1 REVERT JUMPDEST PUSH1 0x1 DUP1 SLOAD PUSH1 0x1 PUSH1 0x1 PUSH1 0xA0 SHL SUB NOT SWAP1 DUP2 AND PUSH1 0x1 PUSH1 0x1 PUSH1 0xA0 SHL SUB SWAP4 DUP5 AND OR SWAP1 SWAP2 SSTORE PUSH1 0x3 DUP1 SLOAD DUP3 AND SWAP6 DUP4 AND SWAP6 SWAP1 SWAP6 OR SWAP1 SWAP5 SSTORE PUSH1 0x4 DUP1 SLOAD DUP6 AND SWAP4 DUP3 AND SWAP4 SWAP1 SWAP4 OR SWAP1 SWAP3 SSTORE PUSH1 0x5 DUP1 SLOAD DUP5 AND SWAP2 DUP4 AND SWAP2 SWAP1 SWAP2 OR SWAP1 SSTORE PUSH1 0x60 DUP12 DUP2 SHL PUSH1 0x1 PUSH1 0x1 PUSH1 0x60 SHL SUB NOT SWAP1 DUP2 AND PUSH1 0x80 MSTORE SWAP1 DUP12 SWAP1 SHL AND PUSH1 0xA0 MSTORE PUSH1 0xC DUP1 SLOAD SWAP1 SWAP3 AND SWAP1 DUP10 AND OR SWAP1 SSTORE PUSH3 0x162 DUP5 PUSH3 0x315 JUMP JUMPDEST PUSH1 0x60 SWAP3 DUP4 SHL PUSH1 0x1 PUSH1 0x1 PUSH1 0x60 SHL SUB NOT AND PUSH1 0xC0 SWAP1 DUP2 MSTORE TIMESTAMP PUSH1 0xE0 SWAP1 DUP2 MSTORE DUP4 MLOAD PUSH2 0x120 MSTORE PUSH1 0x20 DUP1 DUP6 ADD MLOAD PUSH2 0x100 SWAP1 DUP2 MSTORE PUSH1 0x40 DUP1 DUP8 ADD MLOAD PUSH2 0x140 MSTORE SWAP7 DUP7 ADD MLOAD PUSH2 0x160 MSTORE PUSH1 0x80 DUP7 ADD MLOAD PUSH2 0x180 MSTORE PUSH1 0xA0 DUP7 ADD MLOAD PUSH2 0x1A0 MSTORE SWAP3 DUP6 ADD MLOAD PUSH2 0x200 MSTORE SWAP1 DUP5 ADD MLOAD PUSH2 0x1C0 MSTORE SWAP3 ADD MLOAD PUSH2 0x1E0 MSTORE ISZERO ISZERO PUSH1 0xF8 SHL PUSH2 0x220 MSTORE DUP2 MLOAD DUP1 DUP4 ADD DUP4 MSTORE PUSH1 0x1 DUP1 DUP3 MSTORE PUSH2 0xEA6 DUP3 DUP5 ADD SWAP1 DUP2 MSTORE PUSH1 0xD DUP1 SLOAD DUP1 DUP5 ADD DUP3 SSTORE PUSH1 0x0 DUP3 DUP2 MSTORE SWAP5 MLOAD PUSH32 0xD7B6990105719101DABEB77144F2A3385C8033ACD3AF97E9423A695E81AD1EB5 PUSH1 0x2 SWAP3 DUP4 MUL DUP2 DUP2 ADD SWAP3 SWAP1 SWAP3 SSTORE SWAP4 MLOAD PUSH32 0xD7B6990105719101DABEB77144F2A3385C8033ACD3AF97E9423A695E81AD1EB6 SWAP2 DUP3 ADD SSTORE DUP8 MLOAD DUP1 DUP10 ADD DUP10 MSTORE DUP3 DUP2 MSTORE PUSH2 0x7D0 DUP2 DUP10 ADD SWAP1 DUP2 MSTORE DUP5 SLOAD DUP1 DUP9 ADD DUP7 SSTORE DUP6 DUP10 MSTORE SWAP2 MLOAD SWAP2 DUP5 MUL DUP1 DUP8 ADD SWAP3 SWAP1 SWAP3 SSTORE MLOAD SWAP1 DUP3 ADD SSTORE DUP8 MLOAD DUP1 DUP10 ADD DUP10 MSTORE PUSH1 0x3 DUP2 MSTORE PUSH2 0x3E8 DUP2 DUP10 ADD SWAP1 DUP2 MSTORE DUP5 SLOAD DUP1 DUP9 ADD DUP7 SSTORE DUP6 DUP10 MSTORE SWAP2 MLOAD SWAP2 DUP5 MUL DUP1 DUP8 ADD SWAP3 SWAP1 SWAP3 SSTORE MLOAD SWAP1 DUP3 ADD SSTORE DUP8 MLOAD DUP1 DUP10 ADD DUP10 MSTORE PUSH1 0xA DUP2 MSTORE PUSH1 0xFA DUP2 DUP10 ADD SWAP1 DUP2 MSTORE DUP5 SLOAD DUP1 DUP9 ADD DUP7 SSTORE DUP6 DUP10 MSTORE SWAP2 MLOAD SWAP2 DUP5 MUL DUP1 DUP8 ADD SWAP3 SWAP1 SWAP3 SSTORE MLOAD SWAP1 DUP3 ADD SSTORE DUP8 MLOAD DUP1 DUP10 ADD SWAP1 SWAP9 MSTORE PUSH1 0x19 DUP9 MSTORE PUSH1 0x64 SWAP7 DUP9 ADD SWAP7 DUP8 MSTORE DUP3 SLOAD SWAP5 DUP6 ADD DUP4 SSTORE SWAP2 SWAP1 SWAP5 MSTORE SWAP5 MLOAD SWAP2 SWAP1 SWAP3 MUL SWAP2 DUP3 ADD SSTORE SWAP1 MLOAD SWAP2 ADD SSTORE POP PUSH3 0x337 SWAP5 POP POP POP POP POP JUMP JUMPDEST CALLER SWAP1 JUMP JUMPDEST PUSH1 0x2 DUP1 SLOAD PUSH1 0x1 PUSH1 0x1 PUSH1 0xA0 SHL SUB NOT AND PUSH1 0x1 PUSH1 0x1 PUSH1 0xA0 SHL SUB SWAP3 SWAP1 SWAP3 AND SWAP2 SWAP1 SWAP2 OR SWAP1 SSTORE JUMP JUMPDEST PUSH1 0x80 MLOAD PUSH1 0x60 SHR PUSH1 0xA0 MLOAD PUSH1 0x60 SHR PUSH1 0xC0 MLOAD PUSH1 0x60 SHR PUSH1 0xE0 MLOAD PUSH2 0x100 MLOAD PUSH2 0x120 MLOAD PUSH2 0x140 MLOAD PUSH2 0x160 MLOAD PUSH2 0x180 MLOAD PUSH2 0x1A0 MLOAD PUSH2 0x1C0 MLOAD PUSH2 0x1E0 MLOAD PUSH2 0x200 MLOAD PUSH2 0x220 MLOAD PUSH1 0xF8 SHR PUSH2 0x484C PUSH3 0x4C3 PUSH1 0x0 CODECOPY DUP1 PUSH2 0x13E7 MSTORE DUP1 PUSH2 0x4334 MSTORE POP DUP1 PUSH2 0xD45 MSTORE DUP1 PUSH2 0xD89 MSTORE DUP1 PUSH2 0x2FAE MSTORE POP DUP1 PUSH2 0x17E6 MSTORE DUP1 PUSH2 0x1A79 MSTORE POP DUP1 PUSH2 0x17C2 MSTORE DUP1 PUSH2 0x35F2 MSTORE DUP1 PUSH2 0x3622 MSTORE POP DUP1 PUSH2 0xC71 MSTORE DUP1 PUSH2 0x18C8 MSTORE DUP1 PUSH2 0x21E0 MSTORE DUP1 PUSH2 0x26F6 MSTORE DUP1 PUSH2 0x2B1F MSTORE DUP1 PUSH2 0x3A30 MSTORE DUP1 PUSH2 0x426B MSTORE POP DUP1 PUSH2 0x1A00 MSTORE DUP1 PUSH2 0x3AB2 MSTORE DUP1 PUSH2 0x42B4 MSTORE POP DUP1 PUSH2 0x2540 MSTORE DUP1 PUSH2 0x33F9 MSTORE POP DUP1 PUSH2 0x142F MSTORE DUP1 PUSH2 0x1AE2 MSTORE DUP1 PUSH2 0x1C59 MSTORE DUP1 PUSH2 0x2060 MSTORE POP DUP1 PUSH2 0xBCE MSTORE DUP1 PUSH2 0x140B MSTORE DUP1 PUSH2 0x1712 MSTORE DUP1 PUSH2 0x33AC MSTORE POP DUP1 PUSH2 0xB14 MSTORE DUP1 PUSH2 0xBEF MSTORE DUP1 PUSH2 0x1733 MSTORE DUP1 PUSH2 0x338A MSTORE DUP1 PUSH2 0x4387 MSTORE POP DUP1 PUSH2 0xAF0 MSTORE DUP1 PUSH2 0xC10 MSTORE DUP1 PUSH2 0x1754 MSTORE DUP1 PUSH2 0x3369 MSTORE DUP1 PUSH2 0x4366 MSTORE POP DUP1 PUSH2 0x94B MSTORE DUP1 PUSH2 0xEBA MSTORE DUP1 PUSH2 0x2722 MSTORE DUP1 PUSH2 0x2B4B MSTORE POP DUP1 PUSH2 0xB38 MSTORE DUP1 PUSH2 0x25AD MSTORE DUP1 PUSH2 0x263C MSTORE DUP1 PUSH2 0x29D7 MSTORE DUP1 PUSH2 0x2A66 MSTORE POP DUP1 PUSH2 0x15C3 MSTORE DUP1 PUSH2 0x1B15 MSTORE DUP1 PUSH2 0x1BA6 MSTORE DUP1 PUSH2 0x1CF2 MSTORE DUP1 PUSH2 0x1DB5 MSTORE DUP1 PUSH2 0x1DE4 MSTORE DUP1 PUSH2 0x257E MSTORE DUP1 PUSH2 0x2832 MSTORE DUP1 PUSH2 0x29A8 MSTORE DUP1 PUSH2 0x2C59 MSTORE DUP1 PUSH2 0x2FD2 MSTORE POP PUSH2 0x484C PUSH1 0x0 RETURN INVALID PUSH1 0x80 PUSH1 0x40 MSTORE CALLVALUE DUP1 ISZERO PUSH2 0x10 JUMPI PUSH1 0x0 DUP1 REVERT JUMPDEST POP PUSH1 0x4 CALLDATASIZE LT PUSH2 0x3AF JUMPI PUSH1 0x0 CALLDATALOAD PUSH1 0xE0 SHR DUP1 PUSH4 0x857B21EE GT PUSH2 0x1F4 JUMPI DUP1 PUSH4 0xC6C1DECD GT PUSH2 0x11A JUMPI DUP1 PUSH4 0xEEE39403 GT PUSH2 0xAD JUMPI DUP1 PUSH4 0xF3D9DC0D GT PUSH2 0x7C JUMPI DUP1 PUSH4 0xF3D9DC0D EQ PUSH2 0x914 JUMPI DUP1 PUSH4 0xF5E96FC9 EQ PUSH2 0x91C JUMPI DUP1 PUSH4 0xFD5E6DD1 EQ PUSH2 0x924 JUMPI DUP1 PUSH4 0xFD8FD47F EQ PUSH2 0x941 JUMPI PUSH2 0x3AF JUMP JUMPDEST DUP1 PUSH4 0xEEE39403 EQ PUSH2 0x896 JUMPI DUP1 PUSH4 0xF0141D84 EQ PUSH2 0x8B3 JUMPI DUP1 PUSH4 0xF1B17A8B EQ PUSH2 0x8D1 JUMPI DUP1 PUSH4 0xF2FDE38B EQ PUSH2 0x8EE JUMPI PUSH2 0x3AF JUMP JUMPDEST DUP1 PUSH4 0xDE09EE20 GT PUSH2 0xE9 JUMPI DUP1 PUSH4 0xDE09EE20 EQ PUSH2 0x83E JUMPI DUP1 PUSH4 0xE425DF8C EQ PUSH2 0x87E JUMPI DUP1 PUSH4 0xE8153C93 EQ PUSH2 0x886 JUMPI DUP1 PUSH4 0xEDA2D424 EQ PUSH2 0x88E JUMPI PUSH2 0x3AF JUMP JUMPDEST DUP1 PUSH4 0xC6C1DECD EQ PUSH2 0x809 JUMPI DUP1 PUSH4 0xD025188B EQ PUSH2 0x811 JUMPI DUP1 PUSH4 0xD7EFB6B7 EQ PUSH2 0x819 JUMPI DUP1 PUSH4 0xD83DB49F EQ PUSH2 0x821 JUMPI PUSH2 0x3AF JUMP JUMPDEST DUP1 PUSH4 0xA150194B GT PUSH2 0x192 JUMPI DUP1 PUSH4 0xB1B1E1C0 GT PUSH2 0x161 JUMPI DUP1 PUSH4 0xB1B1E1C0 EQ PUSH2 0x7D4 JUMPI DUP1 PUSH4 0xB88A802F EQ PUSH2 0x7F1 JUMPI DUP1 PUSH4 0xBF852196 EQ PUSH2 0x7F9 JUMPI DUP1 PUSH4 0xC1201054 EQ PUSH2 0x801 JUMPI PUSH2 0x3AF JUMP JUMPDEST DUP1 PUSH4 0xA150194B EQ PUSH2 0x764 JUMPI DUP1 PUSH4 0xA4E2D634 EQ PUSH2 0x76C JUMPI DUP1 PUSH4 0xA508BC71 EQ PUSH2 0x774 JUMPI DUP1 PUSH4 0xAA7BCB57 EQ PUSH2 0x7CC JUMPI PUSH2 0x3AF JUMP JUMPDEST DUP1 PUSH4 0x8E15F473 GT PUSH2 0x1CE JUMPI DUP1 PUSH4 0x8E15F473 EQ PUSH2 0x72F JUMPI DUP1 PUSH4 0x9234A39A EQ PUSH2 0x737 JUMPI DUP1 PUSH4 0x95C2BA47 EQ PUSH2 0x73F JUMPI DUP1 PUSH4 0x9D9A62DF EQ PUSH2 0x747 JUMPI PUSH2 0x3AF JUMP JUMPDEST DUP1 PUSH4 0x857B21EE EQ PUSH2 0x6FC JUMPI DUP1 PUSH4 0x8BFBBCBE EQ PUSH2 0x71F JUMPI DUP1 PUSH4 0x8DA5CB5B EQ PUSH2 0x727 JUMPI PUSH2 0x3AF JUMP JUMPDEST DUP1 PUSH4 0x51EACBF0 GT PUSH2 0x2D9 JUMPI DUP1 PUSH4 0x73F31703 GT PUSH2 0x277 JUMPI DUP1 PUSH4 0x7D1FCBFA GT PUSH2 0x246 JUMPI DUP1 PUSH4 0x7D1FCBFA EQ PUSH2 0x654 JUMPI DUP1 PUSH4 0x7F2B6A0D EQ PUSH2 0x675 JUMPI DUP1 PUSH4 0x817B1CD2 EQ PUSH2 0x67D JUMPI DUP1 PUSH4 0x850FA7CB EQ PUSH2 0x685 JUMPI PUSH2 0x3AF JUMP JUMPDEST DUP1 PUSH4 0x73F31703 EQ PUSH2 0x5F5 JUMPI DUP1 PUSH4 0x765E14D8 EQ PUSH2 0x5FD JUMPI DUP1 PUSH4 0x785FA627 EQ PUSH2 0x629 JUMPI DUP1 PUSH4 0x7B0472F0 EQ PUSH2 0x631 JUMPI PUSH2 0x3AF JUMP JUMPDEST DUP1 PUSH4 0x5E2E2FFC GT PUSH2 0x2B3 JUMPI DUP1 PUSH4 0x5E2E2FFC EQ PUSH2 0x5D5 JUMPI DUP1 PUSH4 0x6847D0C5 EQ PUSH2 0x5DD JUMPI DUP1 PUSH4 0x6B036F45 EQ PUSH2 0x5E5 JUMPI DUP1 PUSH4 0x715018A6 EQ PUSH2 0x5ED JUMPI PUSH2 0x3AF JUMP JUMPDEST DUP1 PUSH4 0x51EACBF0 EQ PUSH2 0x571 JUMPI DUP1 PUSH4 0x5B9F4F90 EQ PUSH2 0x579 JUMPI DUP1 PUSH4 0x5D2631E2 EQ PUSH2 0x59F JUMPI PUSH2 0x3AF JUMP JUMPDEST DUP1 PUSH4 0x2E577D07 GT PUSH2 0x351 JUMPI DUP1 PUSH4 0x444A4902 GT PUSH2 0x320 JUMPI DUP1 PUSH4 0x444A4902 EQ PUSH2 0x4FF JUMPI DUP1 PUSH4 0x45E91319 EQ PUSH2 0x521 JUMPI DUP1 PUSH4 0x4BC4EEB2 EQ PUSH2 0x561 JUMPI DUP1 PUSH4 0x4E8BFDAA EQ PUSH2 0x569 JUMPI PUSH2 0x3AF JUMP JUMPDEST DUP1 PUSH4 0x2E577D07 EQ PUSH2 0x446 JUMPI DUP1 PUSH4 0x31769EF7 EQ PUSH2 0x44E JUMPI DUP1 PUSH4 0x4026478E EQ PUSH2 0x456 JUMPI DUP1 PUSH4 0x43352D61 EQ PUSH2 0x45E JUMPI PUSH2 0x3AF JUMP JUMPDEST DUP1 PUSH4 0xD668087 GT PUSH2 0x38D JUMPI DUP1 PUSH4 0xD668087 EQ PUSH2 0x40F JUMPI DUP1 PUSH4 0xF4EF8A6 EQ PUSH2 0x417 JUMPI DUP1 PUSH4 0x1898A1A7 EQ PUSH2 0x41F JUMPI DUP1 PUSH4 0x2D42CF7D EQ PUSH2 0x43C JUMPI PUSH2 0x3AF JUMP JUMPDEST DUP1 PUSH4 0x74BC101 EQ PUSH2 0x3B4 JUMPI DUP1 PUSH4 0x9082C29 EQ PUSH2 0x3D8 JUMPI DUP1 PUSH4 0xB97BC86 EQ PUSH2 0x407 JUMPI JUMPDEST PUSH1 0x0 DUP1 REVERT JUMPDEST PUSH2 0x3BC PUSH2 0x949 JUMP JUMPDEST PUSH1 0x40 DUP1 MLOAD PUSH1 0x1 PUSH1 0x1 PUSH1 0xA0 SHL SUB SWAP1 SWAP3 AND DUP3 MSTORE MLOAD SWAP1 DUP2 SWAP1 SUB PUSH1 0x20 ADD SWAP1 RETURN JUMPDEST PUSH2 0x3F5 PUSH1 0x4 DUP1 CALLDATASIZE SUB PUSH1 0x20 DUP2 LT ISZERO PUSH2 0x3EE JUMPI PUSH1 0x0 DUP1 REVERT JUMPDEST POP CALLDATALOAD PUSH2 0x96D JUMP JUMPDEST PUSH1 0x40 DUP1 MLOAD SWAP2 DUP3 MSTORE MLOAD SWAP1 DUP2 SWAP1 SUB PUSH1 0x20 ADD SWAP1 RETURN JUMPDEST PUSH2 0x3F5 PUSH2 0xAEE JUMP JUMPDEST PUSH2 0x3F5 PUSH2 0xB12 JUMP JUMPDEST PUSH2 0x3BC PUSH2 0xB36 JUMP JUMPDEST PUSH2 0x3F5 PUSH1 0x4 DUP1 CALLDATASIZE SUB PUSH1 0x20 DUP2 LT ISZERO PUSH2 0x435 JUMPI PUSH1 0x0 DUP1 REVERT JUMPDEST POP CALLDATALOAD PUSH2 0xB5A JUMP JUMPDEST PUSH2 0x444 PUSH2 0xB73 JUMP JUMPDEST STOP JUMPDEST PUSH2 0x3BC PUSH2 0xEA6 JUMP JUMPDEST PUSH2 0x3F5 PUSH2 0xEB6 JUMP JUMPDEST PUSH2 0x444 PUSH2 0xF56 JUMP JUMPDEST PUSH2 0x466 PUSH2 0xFB9 JUMP JUMPDEST PUSH1 0x40 MLOAD DUP1 DUP1 PUSH1 0x20 ADD DUP1 PUSH1 0x20 ADD DUP4 DUP2 SUB DUP4 MSTORE DUP6 DUP2 DUP2 MLOAD DUP2 MSTORE PUSH1 0x20 ADD SWAP2 POP DUP1 MLOAD SWAP1 PUSH1 0x20 ADD SWAP1 PUSH1 0x20 MUL DUP1 DUP4 DUP4 PUSH1 0x0 JUMPDEST DUP4 DUP2 LT ISZERO PUSH2 0x4AA JUMPI DUP2 DUP2 ADD MLOAD DUP4 DUP3 ADD MSTORE PUSH1 0x20 ADD PUSH2 0x492 JUMP JUMPDEST POP POP POP POP SWAP1 POP ADD DUP4 DUP2 SUB DUP3 MSTORE DUP5 DUP2 DUP2 MLOAD DUP2 MSTORE PUSH1 0x20 ADD SWAP2 POP DUP1 MLOAD SWAP1 PUSH1 0x20 ADD SWAP1 PUSH1 0x20 MUL DUP1 DUP4 DUP4 PUSH1 0x0 JUMPDEST DUP4 DUP2 LT ISZERO PUSH2 0x4E9 JUMPI DUP2 DUP2 ADD MLOAD DUP4 DUP3 ADD MSTORE PUSH1 0x20 ADD PUSH2 0x4D1 JUMP JUMPDEST POP POP POP POP SWAP1 POP ADD SWAP5 POP POP POP POP POP PUSH1 0x40 MLOAD DUP1 SWAP2 SUB SWAP1 RETURN JUMPDEST PUSH2 0x444 PUSH1 0x4 DUP1 CALLDATASIZE SUB PUSH2 0x640 DUP2 LT ISZERO PUSH2 0x516 JUMPI PUSH1 0x0 DUP1 REVERT JUMPDEST POP PUSH2 0x320 DUP2 ADD PUSH2 0x10FE JUMP JUMPDEST PUSH2 0x54D PUSH1 0x4 DUP1 CALLDATASIZE SUB PUSH1 0x40 DUP2 LT ISZERO PUSH2 0x537 JUMPI PUSH1 0x0 DUP1 REVERT JUMPDEST POP PUSH1 0x1 PUSH1 0x1 PUSH1 0xA0 SHL SUB DUP2 CALLDATALOAD AND SWAP1 PUSH1 0x20 ADD CALLDATALOAD PUSH2 0x1253 JUMP JUMPDEST PUSH1 0x40 DUP1 MLOAD SWAP2 ISZERO ISZERO DUP3 MSTORE MLOAD SWAP1 DUP2 SWAP1 SUB PUSH1 0x20 ADD SWAP1 RETURN JUMPDEST PUSH2 0x54D PUSH2 0x13E5 JUMP JUMPDEST PUSH2 0x3F5 PUSH2 0x1409 JUMP JUMPDEST PUSH2 0x3F5 PUSH2 0x142D JUMP JUMPDEST PUSH2 0x3F5 PUSH1 0x4 DUP1 CALLDATASIZE SUB PUSH1 0x20 DUP2 LT ISZERO PUSH2 0x58F JUMPI PUSH1 0x0 DUP1 REVERT JUMPDEST POP CALLDATALOAD PUSH1 0x1 PUSH1 0x1 PUSH1 0xA0 SHL SUB AND PUSH2 0x1451 JUMP JUMPDEST PUSH2 0x444 PUSH1 0x4 DUP1 CALLDATASIZE SUB PUSH1 0x60 DUP2 LT ISZERO PUSH2 0x5B5 JUMPI PUSH1 0x0 DUP1 REVERT JUMPDEST POP PUSH1 0x1 PUSH1 0x1 PUSH1 0xA0 SHL SUB DUP2 CALLDATALOAD DUP2 AND SWAP2 PUSH1 0x20 DUP2 ADD CALLDATALOAD SWAP2 PUSH1 0x40 SWAP1 SWAP2 ADD CALLDATALOAD AND PUSH2 0x1568 JUMP JUMPDEST PUSH2 0x444 PUSH2 0x16B7 JUMP JUMPDEST PUSH2 0x3F5 PUSH2 0x17C0 JUMP JUMPDEST PUSH2 0x3F5 PUSH2 0x17E4 JUMP JUMPDEST PUSH2 0x444 PUSH2 0x1808 JUMP JUMPDEST PUSH2 0x3F5 PUSH2 0x18C6 JUMP JUMPDEST PUSH2 0x3F5 PUSH1 0x4 DUP1 CALLDATASIZE SUB PUSH1 0x40 DUP2 LT ISZERO PUSH2 0x613 JUMPI PUSH1 0x0 DUP1 REVERT JUMPDEST POP PUSH1 0x1 PUSH1 0x1 PUSH1 0xA0 SHL SUB DUP2 CALLDATALOAD AND SWAP1 PUSH1 0x20 ADD CALLDATALOAD PUSH2 0x18EA JUMP JUMPDEST PUSH2 0x3F5 PUSH2 0x19FE JUMP JUMPDEST PUSH2 0x444 PUSH1 0x4 DUP1 CALLDATASIZE SUB PUSH1 0x40 DUP2 LT ISZERO PUSH2 0x647 JUMPI PUSH1 0x0 DUP1 REVERT JUMPDEST POP DUP1 CALLDATALOAD SWAP1 PUSH1 0x20 ADD CALLDATALOAD PUSH2 0x1A22 JUMP JUMPDEST PUSH2 0x65C PUSH2 0x20E4 JUMP JUMPDEST PUSH1 0x40 DUP1 MLOAD SWAP3 DUP4 MSTORE PUSH1 0x20 DUP4 ADD SWAP2 SWAP1 SWAP2 MSTORE DUP1 MLOAD SWAP2 DUP3 SWAP1 SUB ADD SWAP1 RETURN JUMPDEST PUSH2 0x54D PUSH2 0x20FF JUMP JUMPDEST PUSH2 0x3F5 PUSH2 0x210F JUMP JUMPDEST PUSH2 0x6B1 PUSH1 0x4 DUP1 CALLDATASIZE SUB PUSH1 0x40 DUP2 LT ISZERO PUSH2 0x69B JUMPI PUSH1 0x0 DUP1 REVERT JUMPDEST POP PUSH1 0x1 PUSH1 0x1 PUSH1 0xA0 SHL SUB DUP2 CALLDATALOAD AND SWAP1 PUSH1 0x20 ADD CALLDATALOAD PUSH2 0x2115 JUMP JUMPDEST PUSH1 0x40 DUP1 MLOAD SWAP10 DUP11 MSTORE PUSH1 0x20 DUP11 ADD SWAP9 SWAP1 SWAP9 MSTORE DUP9 DUP9 ADD SWAP7 SWAP1 SWAP7 MSTORE PUSH1 0x60 DUP9 ADD SWAP5 SWAP1 SWAP5 MSTORE PUSH1 0x80 DUP8 ADD SWAP3 SWAP1 SWAP3 MSTORE PUSH1 0xA0 DUP7 ADD MSTORE PUSH1 0xC0 DUP6 ADD MSTORE ISZERO ISZERO PUSH1 0xE0 DUP5 ADD MSTORE ISZERO ISZERO PUSH2 0x100 DUP4 ADD MSTORE MLOAD SWAP1 DUP2 SWAP1 SUB PUSH2 0x120 ADD SWAP1 RETURN JUMPDEST PUSH2 0x444 PUSH1 0x4 DUP1 CALLDATASIZE SUB PUSH1 0x40 DUP2 LT ISZERO PUSH2 0x712 JUMPI PUSH1 0x0 DUP1 REVERT JUMPDEST POP DUP1 CALLDATALOAD SWAP1 PUSH1 0x20 ADD CALLDATALOAD PUSH2 0x2183 JUMP JUMPDEST PUSH2 0x444 PUSH2 0x232C JUMP JUMPDEST PUSH2 0x3BC PUSH2 0x23C3 JUMP JUMPDEST PUSH2 0x3F5 PUSH2 0x23D2 JUMP JUMPDEST PUSH2 0x65C PUSH2 0x246C JUMP JUMPDEST PUSH2 0x3F5 PUSH2 0x247F JUMP JUMPDEST PUSH2 0x65C PUSH1 0x4 DUP1 CALLDATASIZE SUB PUSH1 0x20 DUP2 LT ISZERO PUSH2 0x75D JUMPI PUSH1 0x0 DUP1 REVERT JUMPDEST POP CALLDATALOAD PUSH2 0x2484 JUMP JUMPDEST PUSH2 0x3F5 PUSH2 0x24A2 JUMP JUMPDEST PUSH2 0x54D PUSH2 0x24A7 JUMP JUMPDEST PUSH2 0x77C PUSH2 0x24B7 JUMP JUMPDEST PUSH1 0x40 DUP1 MLOAD PUSH1 0x20 DUP1 DUP3 MSTORE DUP4 MLOAD DUP2 DUP4 ADD MSTORE DUP4 MLOAD SWAP2 SWAP3 DUP4 SWAP3 SWAP1 DUP4 ADD SWAP2 DUP6 DUP2 ADD SWAP2 MUL DUP1 DUP4 DUP4 PUSH1 0x0 JUMPDEST DUP4 DUP2 LT ISZERO PUSH2 0x7B8 JUMPI DUP2 DUP2 ADD MLOAD DUP4 DUP3 ADD MSTORE PUSH1 0x20 ADD PUSH2 0x7A0 JUMP JUMPDEST POP POP POP POP SWAP1 POP ADD SWAP3 POP POP POP PUSH1 0x40 MLOAD DUP1 SWAP2 SUB SWAP1 RETURN JUMPDEST PUSH2 0x3F5 PUSH2 0x253E JUMP JUMPDEST PUSH2 0x444 PUSH1 0x4 DUP1 CALLDATASIZE SUB PUSH1 0x20 DUP2 LT ISZERO PUSH2 0x7EA JUMPI PUSH1 0x0 DUP1 REVERT JUMPDEST POP CALLDATALOAD PUSH2 0x2562 JUMP JUMPDEST PUSH2 0x444 PUSH2 0x298C JUMP JUMPDEST PUSH2 0x3F5 PUSH2 0x2DB1 JUMP JUMPDEST PUSH2 0x3F5 PUSH2 0x2EF1 JUMP JUMPDEST PUSH2 0x3BC PUSH2 0x2F3C JUMP JUMPDEST PUSH2 0x3F5 PUSH2 0x2F4B JUMP JUMPDEST PUSH2 0x54D PUSH2 0x2F51 JUMP JUMPDEST PUSH2 0x3F5 PUSH1 0x4 DUP1 CALLDATASIZE SUB PUSH1 0x20 DUP2 LT ISZERO PUSH2 0x837 JUMPI PUSH1 0x0 DUP1 REVERT JUMPDEST POP CALLDATALOAD PUSH2 0x2F61 JUMP JUMPDEST PUSH2 0x85B PUSH1 0x4 DUP1 CALLDATASIZE SUB PUSH1 0x20 DUP2 LT ISZERO PUSH2 0x854 JUMPI PUSH1 0x0 DUP1 REVERT JUMPDEST POP CALLDATALOAD PUSH2 0x2F74 JUMP JUMPDEST PUSH1 0x40 DUP1 MLOAD PUSH1 0x1 PUSH1 0x1 PUSH1 0xA0 SHL SUB SWAP1 SWAP4 AND DUP4 MSTORE PUSH1 0x20 DUP4 ADD SWAP2 SWAP1 SWAP2 MSTORE DUP1 MLOAD SWAP2 DUP3 SWAP1 SUB ADD SWAP1 RETURN JUMPDEST PUSH2 0x3F5 PUSH2 0x2FAC JUMP JUMPDEST PUSH2 0x3BC PUSH2 0x2FD0 JUMP JUMPDEST PUSH2 0x3F5 PUSH2 0x2FF4 JUMP JUMPDEST PUSH2 0x65C PUSH1 0x4 DUP1 CALLDATASIZE SUB PUSH1 0x20 DUP2 LT ISZERO PUSH2 0x8AC JUMPI PUSH1 0x0 DUP1 REVERT JUMPDEST POP CALLDATALOAD PUSH2 0x300B JUMP JUMPDEST PUSH2 0x8BB PUSH2 0x301F JUMP JUMPDEST PUSH1 0x40 DUP1 MLOAD PUSH1 0xFF SWAP1 SWAP3 AND DUP3 MSTORE MLOAD SWAP1 DUP2 SWAP1 SUB PUSH1 0x20 ADD SWAP1 RETURN JUMPDEST PUSH2 0x65C PUSH1 0x4 DUP1 CALLDATASIZE SUB PUSH1 0x20 DUP2 LT ISZERO PUSH2 0x8E7 JUMPI PUSH1 0x0 DUP1 REVERT JUMPDEST POP CALLDATALOAD PUSH2 0x30A2 JUMP JUMPDEST PUSH2 0x444 PUSH1 0x4 DUP1 CALLDATASIZE SUB PUSH1 0x20 DUP2 LT ISZERO PUSH2 0x904 JUMPI PUSH1 0x0 DUP1 REVERT JUMPDEST POP CALLDATALOAD PUSH1 0x1 PUSH1 0x1 PUSH1 0xA0 SHL SUB AND PUSH2 0x30D0 JUMP JUMPDEST PUSH2 0x3F5 PUSH2 0x31E4 JUMP JUMPDEST PUSH2 0x3BC PUSH2 0x31EA JUMP JUMPDEST PUSH2 0x85B PUSH1 0x4 DUP1 CALLDATASIZE SUB PUSH1 0x20 DUP2 LT ISZERO PUSH2 0x93A JUMPI PUSH1 0x0 DUP1 REVERT JUMPDEST POP CALLDATALOAD PUSH2 0x31F9 JUMP JUMPDEST PUSH2 0x3F5 PUSH2 0x3209 JUMP JUMPDEST PUSH32 0x0 DUP2 JUMP JUMPDEST PUSH1 0x3 SLOAD PUSH1 0x0 SWAP1 DUP2 SWAP1 PUSH1 0x1 PUSH1 0x1 PUSH1 0xA0 SHL SUB AND PUSH4 0xD06CA61F DUP5 PUSH2 0x98C PUSH2 0x24B7 JUMP JUMPDEST PUSH1 0x40 MLOAD DUP4 PUSH4 0xFFFFFFFF AND PUSH1 0xE0 SHL DUP2 MSTORE PUSH1 0x4 ADD DUP1 DUP4 DUP2 MSTORE PUSH1 0x20 ADD DUP1 PUSH1 0x20 ADD DUP3 DUP2 SUB DUP3 MSTORE DUP4 DUP2 DUP2 MLOAD DUP2 MSTORE PUSH1 0x20 ADD SWAP2 POP DUP1 MLOAD SWAP1 PUSH1 0x20 ADD SWAP1 PUSH1 0x20 MUL DUP1 DUP4 DUP4 PUSH1 0x0 JUMPDEST DUP4 DUP2 LT ISZERO PUSH2 0x9E1 JUMPI DUP2 DUP2 ADD MLOAD DUP4 DUP3 ADD MSTORE PUSH1 0x20 ADD PUSH2 0x9C9 JUMP JUMPDEST POP POP POP POP SWAP1 POP ADD SWAP4 POP POP POP POP PUSH1 0x0 PUSH1 0x40 MLOAD DUP1 DUP4 SUB DUP2 DUP7 DUP1 EXTCODESIZE ISZERO DUP1 ISZERO PUSH2 0xA05 JUMPI PUSH1 0x0 DUP1 REVERT JUMPDEST POP GAS STATICCALL ISZERO DUP1 ISZERO PUSH2 0xA19 JUMPI RETURNDATASIZE PUSH1 0x0 DUP1 RETURNDATACOPY RETURNDATASIZE PUSH1 0x0 REVERT JUMPDEST POP POP POP POP PUSH1 0x40 MLOAD RETURNDATASIZE PUSH1 0x0 DUP3 RETURNDATACOPY PUSH1 0x1F RETURNDATASIZE SWAP1 DUP2 ADD PUSH1 0x1F NOT AND DUP3 ADD PUSH1 0x40 MSTORE PUSH1 0x20 DUP2 LT ISZERO PUSH2 0xA42 JUMPI PUSH1 0x0 DUP1 REVERT JUMPDEST DUP2 ADD SWAP1 DUP1 DUP1 MLOAD PUSH1 0x40 MLOAD SWAP4 SWAP3 SWAP2 SWAP1 DUP5 PUSH5 0x100000000 DUP3 GT ISZERO PUSH2 0xA62 JUMPI PUSH1 0x0 DUP1 REVERT JUMPDEST SWAP1 DUP4 ADD SWAP1 PUSH1 0x20 DUP3 ADD DUP6 DUP2 GT ISZERO PUSH2 0xA77 JUMPI PUSH1 0x0 DUP1 REVERT JUMPDEST DUP3 MLOAD DUP7 PUSH1 0x20 DUP3 MUL DUP4 ADD GT PUSH5 0x100000000 DUP3 GT OR ISZERO PUSH2 0xA94 JUMPI PUSH1 0x0 DUP1 REVERT JUMPDEST DUP3 MSTORE POP DUP2 MLOAD PUSH1 0x20 SWAP2 DUP3 ADD SWAP3 DUP3 ADD SWAP2 MUL DUP1 DUP4 DUP4 PUSH1 0x0 JUMPDEST DUP4 DUP2 LT ISZERO PUSH2 0xAC1 JUMPI DUP2 DUP2 ADD MLOAD DUP4 DUP3 ADD MSTORE PUSH1 0x20 ADD PUSH2 0xAA9 JUMP JUMPDEST POP POP POP POP SWAP1 POP ADD PUSH1 0x40 MSTORE POP POP POP SWAP1 POP DUP1 PUSH1 0x1 DUP2 MLOAD DUP2 LT PUSH2 0xADD JUMPI INVALID JUMPDEST PUSH1 0x20 MUL PUSH1 0x20 ADD ADD MLOAD SWAP2 POP POP JUMPDEST SWAP2 SWAP1 POP JUMP JUMPDEST PUSH32 0x0 DUP2 JUMP JUMPDEST PUSH32 0x0 DUP2 JUMP JUMPDEST PUSH32 0x0 DUP2 JUMP JUMPDEST PUSH1 0x0 PUSH2 0xB6D PUSH2 0xB67 PUSH2 0x3212 JUMP JUMPDEST DUP4 PUSH2 0x18EA JUMP JUMPDEST SWAP3 SWAP2 POP POP JUMP JUMPDEST PUSH1 0xC SLOAD PUSH1 0x1 PUSH1 0x1 PUSH1 0xA0 SHL SUB AND PUSH2 0xB87 PUSH2 0x3212 JUMP JUMPDEST PUSH1 0x1 PUSH1 0x1 PUSH1 0xA0 SHL SUB AND EQ PUSH2 0xBCC JUMPI PUSH1 0x40 MLOAD PUSH3 0x461BCD PUSH1 0xE5 SHL DUP2 MSTORE PUSH1 0x4 ADD DUP1 DUP1 PUSH1 0x20 ADD DUP3 DUP2 SUB DUP3 MSTORE PUSH1 0x21 DUP2 MSTORE PUSH1 0x20 ADD DUP1 PUSH2 0x4729 PUSH1 0x21 SWAP2 CODECOPY PUSH1 0x40 ADD SWAP2 POP POP PUSH1 0x40 MLOAD DUP1 SWAP2 SUB SWAP1 REVERT JUMPDEST PUSH32 0x0 PUSH32 0x0 PUSH32 0x0 ADD ADD TIMESTAMP LT ISZERO PUSH2 0xC6F JUMPI PUSH1 0x40 MLOAD PUSH3 0x461BCD PUSH1 0xE5 SHL DUP2 MSTORE PUSH1 0x4 ADD DUP1 DUP1 PUSH1 0x20 ADD DUP3 DUP2 SUB DUP3 MSTORE PUSH1 0x2C DUP2 MSTORE PUSH1 0x20 ADD DUP1 PUSH2 0x46B6 PUSH1 0x2C SWAP2 CODECOPY PUSH1 0x40 ADD SWAP2 POP POP PUSH1 0x40 MLOAD DUP1 SWAP2 SUB SWAP1 REVERT JUMPDEST PUSH32 0x0 ISZERO PUSH2 0xCEE JUMPI PUSH2 0xC9D PUSH2 0xEB6 JUMP JUMPDEST PUSH2 0xCEE JUMPI PUSH1 0x40 DUP1 MLOAD PUSH3 0x461BCD PUSH1 0xE5 SHL DUP2 MSTORE PUSH1 0x20 PUSH1 0x4 DUP3 ADD MSTORE PUSH1 0x1E PUSH1 0x24 DUP3 ADD MSTORE PUSH32 0x30333631204254432052657761726473206E6F7420617661696C61626C650000 PUSH1 0x44 DUP3 ADD MSTORE SWAP1 MLOAD SWAP1 DUP2 SWAP1 SUB PUSH1 0x64 ADD SWAP1 REVERT JUMPDEST PUSH1 0x7 SLOAD ISZERO PUSH2 0xD43 JUMPI PUSH1 0x8 SLOAD PUSH2 0xD43 JUMPI PUSH1 0x40 DUP1 MLOAD PUSH3 0x461BCD PUSH1 0xE5 SHL DUP2 MSTORE PUSH1 0x20 PUSH1 0x4 DUP3 ADD MSTORE PUSH1 0x16 PUSH1 0x24 DUP3 ADD MSTORE PUSH22 0xC0CCD8C88199A5C9CDD081CDA1BDD5B19081CDBDC9D PUSH1 0x52 SHL PUSH1 0x44 DUP3 ADD MSTORE SWAP1 MLOAD SWAP1 DUP2 SWAP1 SUB PUSH1 0x64 ADD SWAP1 REVERT JUMPDEST PUSH32 0x0 ISZERO PUSH2 0xDAE JUMPI PUSH1 0x0 PUSH2 0xD73 PUSH2 0x2DB1 JUMP JUMPDEST SWAP1 POP PUSH2 0xD83 DUP2 PUSH4 0x9502F900 PUSH2 0x3216 JUMP JUMPDEST PUSH2 0xDAC JUMPI PUSH32 0x0 PUSH1 0xB SSTORE JUMPDEST POP JUMPDEST PUSH1 0x8 SLOAD PUSH1 0x0 SWAP1 PUSH1 0x19 LT PUSH2 0xDC3 JUMPI PUSH1 0x8 SLOAD PUSH2 0xDC6 JUMP JUMPDEST PUSH1 0x19 JUMPDEST SWAP1 POP PUSH1 0x0 JUMPDEST DUP2 DUP2 LT ISZERO PUSH2 0xE57 JUMPI DUP1 PUSH1 0x1 ADD PUSH1 0x6 PUSH1 0x0 PUSH1 0x8 DUP5 DUP2 SLOAD DUP2 LT PUSH2 0xDE8 JUMPI INVALID JUMPDEST PUSH1 0x0 SWAP2 DUP3 MSTORE PUSH1 0x20 DUP1 DUP4 KECCAK256 PUSH1 0x2 SWAP1 SWAP3 MUL SWAP1 SWAP2 ADD SLOAD PUSH1 0x1 PUSH1 0x1 PUSH1 0xA0 SHL SUB AND DUP4 MSTORE DUP3 ADD SWAP3 SWAP1 SWAP3 MSTORE PUSH1 0x40 ADD SWAP1 KECCAK256 PUSH1 0x8 DUP1 SLOAD DUP5 SWAP1 DUP2 LT PUSH2 0xE1F JUMPI INVALID JUMPDEST SWAP1 PUSH1 0x0 MSTORE PUSH1 0x20 PUSH1 0x0 KECCAK256 SWAP1 PUSH1 0x2 MUL ADD PUSH1 0x1 ADD SLOAD DUP2 SLOAD DUP2 LT PUSH2 0xE3B JUMPI INVALID JUMPDEST PUSH1 0x0 SWAP2 DUP3 MSTORE PUSH1 0x20 SWAP1 SWAP2 KECCAK256 PUSH1 0x6 PUSH1 0x8 SWAP1 SWAP3 MUL ADD ADD SSTORE PUSH1 0x1 ADD PUSH2 0xDCB JUMP JUMPDEST POP PUSH1 0xC DUP1 SLOAD PUSH1 0xFF PUSH1 0xA8 SHL NOT PUSH1 0xFF PUSH1 0xA0 SHL NOT SWAP1 SWAP2 AND PUSH1 0x1 PUSH1 0xA0 SHL OR AND PUSH1 0x1 PUSH1 0xA8 SHL OR SWAP1 SSTORE PUSH1 0x40 MLOAD PUSH32 0xE8EF7A17C92D025D9C1EAD1C6B3CA3B44D3283D0EE954F615C5C476911F629A5 SWAP1 PUSH1 0x0 SWAP1 LOG1 POP JUMP JUMPDEST PUSH1 0x3 SLOAD PUSH1 0x1 PUSH1 0x1 PUSH1 0xA0 SHL SUB AND JUMPDEST SWAP1 JUMP JUMPDEST PUSH1 0x0 PUSH32 0x0 PUSH1 0x1 PUSH1 0x1 PUSH1 0xA0 SHL SUB AND PUSH4 0x70A08231 ADDRESS PUSH1 0x40 MLOAD DUP3 PUSH4 0xFFFFFFFF AND PUSH1 0xE0 SHL DUP2 MSTORE PUSH1 0x4 ADD DUP1 DUP3 PUSH1 0x1 PUSH1 0x1 PUSH1 0xA0 SHL SUB AND DUP2 MSTORE PUSH1 0x20 ADD SWAP2 POP POP PUSH1 0x20 PUSH1 0x40 MLOAD DUP1 DUP4 SUB DUP2 DUP7 DUP1 EXTCODESIZE ISZERO DUP1 ISZERO PUSH2 0xF25 JUMPI PUSH1 0x0 DUP1 REVERT JUMPDEST POP GAS STATICCALL ISZERO DUP1 ISZERO PUSH2 0xF39 JUMPI RETURNDATASIZE PUSH1 0x0 DUP1 RETURNDATACOPY RETURNDATASIZE PUSH1 0x0 REVERT JUMPDEST POP POP POP POP PUSH1 0x40 MLOAD RETURNDATASIZE PUSH1 0x20 DUP2 LT ISZERO PUSH2 0xF4F JUMPI PUSH1 0x0 DUP1 REVERT JUMPDEST POP MLOAD SWAP1 POP SWAP1 JUMP JUMPDEST PUSH1 0xC SLOAD PUSH1 0x1 PUSH1 0x1 PUSH1 0xA0 SHL SUB AND PUSH2 0xF6A PUSH2 0x3212 JUMP JUMPDEST PUSH1 0x1 PUSH1 0x1 PUSH1 0xA0 SHL SUB AND EQ PUSH2 0xFAF JUMPI PUSH1 0x40 MLOAD PUSH3 0x461BCD PUSH1 0xE5 SHL DUP2 MSTORE PUSH1 0x4 ADD DUP1 DUP1 PUSH1 0x20 ADD DUP3 DUP2 SUB DUP3 MSTORE PUSH1 0x21 DUP2 MSTORE PUSH1 0x20 ADD DUP1 PUSH2 0x4729 PUSH1 0x21 SWAP2 CODECOPY PUSH1 0x40 ADD SWAP2 POP POP PUSH1 0x40 MLOAD DUP1 SWAP2 SUB SWAP1 REVERT JUMPDEST PUSH2 0xFB7 PUSH2 0x3284 JUMP JUMPDEST JUMP JUMPDEST PUSH1 0x60 DUP1 PUSH1 0x0 PUSH1 0x7 DUP1 SLOAD SWAP1 POP PUSH8 0xFFFFFFFFFFFFFFFF DUP2 GT DUP1 ISZERO PUSH2 0xFDA JUMPI PUSH1 0x0 DUP1 REVERT JUMPDEST POP PUSH1 0x40 MLOAD SWAP1 DUP1 DUP3 MSTORE DUP1 PUSH1 0x20 MUL PUSH1 0x20 ADD DUP3 ADD PUSH1 0x40 MSTORE DUP1 ISZERO PUSH2 0x1004 JUMPI DUP2 PUSH1 0x20 ADD PUSH1 0x20 DUP3 MUL DUP1 CALLDATASIZE DUP4 CALLDATACOPY ADD SWAP1 POP JUMPDEST POP PUSH1 0x7 SLOAD SWAP1 SWAP2 POP PUSH1 0x0 SWAP1 PUSH8 0xFFFFFFFFFFFFFFFF DUP2 GT DUP1 ISZERO PUSH2 0x1024 JUMPI PUSH1 0x0 DUP1 REVERT JUMPDEST POP PUSH1 0x40 MLOAD SWAP1 DUP1 DUP3 MSTORE DUP1 PUSH1 0x20 MUL PUSH1 0x20 ADD DUP3 ADD PUSH1 0x40 MSTORE DUP1 ISZERO PUSH2 0x104E JUMPI DUP2 PUSH1 0x20 ADD PUSH1 0x20 DUP3 MUL DUP1 CALLDATASIZE DUP4 CALLDATACOPY ADD SWAP1 POP JUMPDEST POP SWAP1 POP PUSH1 0x0 JUMPDEST PUSH1 0x7 SLOAD DUP2 LT ISZERO PUSH2 0x10F4 JUMPI PUSH1 0x7 DUP2 DUP2 SLOAD DUP2 LT PUSH2 0x106B JUMPI INVALID JUMPDEST PUSH1 0x0 SWAP2 DUP3 MSTORE PUSH1 0x20 SWAP1 SWAP2 KECCAK256 PUSH1 0x2 SWAP1 SWAP2 MUL ADD SLOAD DUP4 MLOAD PUSH1 0x1 PUSH1 0x1 PUSH1 0xA0 SHL SUB SWAP1 SWAP2 AND SWAP1 DUP5 SWAP1 DUP4 SWAP1 DUP2 LT PUSH2 0x1096 JUMPI INVALID JUMPDEST PUSH1 0x20 MUL PUSH1 0x20 ADD ADD SWAP1 PUSH1 0x1 PUSH1 0x1 PUSH1 0xA0 SHL SUB AND SWAP1 DUP2 PUSH1 0x1 PUSH1 0x1 PUSH1 0xA0 SHL SUB AND DUP2 MSTORE POP POP PUSH1 0x7 DUP2 DUP2 SLOAD DUP2 LT PUSH2 0x10C3 JUMPI INVALID JUMPDEST SWAP1 PUSH1 0x0 MSTORE PUSH1 0x20 PUSH1 0x0 KECCAK256 SWAP1 PUSH1 0x2 MUL ADD PUSH1 0x1 ADD SLOAD DUP3 DUP3 DUP2 MLOAD DUP2 LT PUSH2 0x10E1 JUMPI INVALID JUMPDEST PUSH1 0x20 SWAP1 DUP2 MUL SWAP2 SWAP1 SWAP2 ADD ADD MSTORE PUSH1 0x1 ADD PUSH2 0x1054 JUMP JUMPDEST POP SWAP1 SWAP3 POP SWAP1 POP SWAP1 SWAP2 JUMP JUMPDEST PUSH1 0xC SLOAD PUSH1 0x1 PUSH1 0x1 PUSH1 0xA0 SHL SUB AND PUSH2 0x1112 PUSH2 0x3212 JUMP JUMPDEST PUSH1 0x1 PUSH1 0x1 PUSH1 0xA0 SHL SUB AND EQ PUSH2 0x1157 JUMPI PUSH1 0x40 MLOAD PUSH3 0x461BCD PUSH1 0xE5 SHL DUP2 MSTORE PUSH1 0x4 ADD DUP1 DUP1 PUSH1 0x20 ADD DUP3 DUP2 SUB DUP3 MSTORE PUSH1 0x21 DUP2 MSTORE PUSH1 0x20 ADD DUP1 PUSH2 0x4729 PUSH1 0x21 SWAP2 CODECOPY PUSH1 0x40 ADD SWAP2 POP POP PUSH1 0x40 MLOAD DUP1 SWAP2 SUB SWAP1 REVERT JUMPDEST PUSH1 0x0 JUMPDEST PUSH1 0x19 DUP2 LT ISZERO PUSH2 0x1225 JUMPI PUSH1 0x0 DUP4 DUP3 PUSH1 0x19 DUP2 LT PUSH2 0x1171 JUMPI INVALID JUMPDEST PUSH1 0x20 MUL ADD CALLDATALOAD PUSH1 0x1 PUSH1 0x1 PUSH1 0xA0 SHL SUB AND PUSH1 0x1 PUSH1 0x1 PUSH1 0xA0 SHL SUB AND EQ ISZERO PUSH2 0x1193 JUMPI PUSH2 0x1225 JUMP JUMPDEST PUSH1 0x8 PUSH1 0x40 MLOAD DUP1 PUSH1 0x40 ADD PUSH1 0x40 MSTORE DUP1 DUP6 DUP5 PUSH1 0x19 DUP2 LT PUSH2 0x11AC JUMPI INVALID JUMPDEST PUSH1 0x20 MUL ADD CALLDATALOAD PUSH1 0x1 PUSH1 0x1 PUSH1 0xA0 SHL SUB AND PUSH1 0x1 PUSH1 0x1 PUSH1 0xA0 SHL SUB AND DUP2 MSTORE PUSH1 0x20 ADD DUP5 DUP5 PUSH1 0x19 DUP2 LT PUSH2 0x11D4 JUMPI INVALID JUMPDEST PUSH1 0x20 SWAP1 DUP2 MUL SWAP2 SWAP1 SWAP2 ADD CALLDATALOAD SWAP1 SWAP2 MSTORE DUP3 SLOAD PUSH1 0x1 DUP1 DUP3 ADD DUP6 SSTORE PUSH1 0x0 SWAP5 DUP6 MSTORE SWAP4 DUP3 SWAP1 KECCAK256 DUP4 MLOAD PUSH1 0x2 SWAP1 SWAP3 MUL ADD DUP1 SLOAD PUSH1 0x1 PUSH1 0x1 PUSH1 0xA0 SHL SUB NOT AND PUSH1 0x1 PUSH1 0x1 PUSH1 0xA0 SHL SUB SWAP1 SWAP3 AND SWAP2 SWAP1 SWAP2 OR DUP2 SSTORE SWAP2 ADD MLOAD SWAP1 DUP3 ADD SSTORE ADD PUSH2 0x115A JUMP JUMPDEST POP PUSH1 0x40 MLOAD PUSH32 0x5C243CC6E4F210BF2DD86B8ECA0CA891D3F8AD2EB09FBF91735EB348BC199C7E SWAP1 PUSH1 0x0 SWAP1 LOG1 POP POP JUMP JUMPDEST PUSH1 0x1 PUSH1 0x1 PUSH1 0xA0 SHL SUB DUP3 AND PUSH1 0x0 SWAP1 DUP2 MSTORE PUSH1 0x6 PUSH1 0x20 SWAP1 DUP2 MSTORE PUSH1 0x40 DUP1 DUP4 KECCAK256 DUP1 SLOAD DUP3 MLOAD DUP2 DUP6 MUL DUP2 ADD DUP6 ADD SWAP1 SWAP4 MSTORE DUP1 DUP4 MSTORE DUP5 SWAP4 DUP5 SWAP1 DUP5 ADD JUMPDEST DUP3 DUP3 LT ISZERO PUSH2 0x1318 JUMPI PUSH1 0x0 DUP5 DUP2 MSTORE PUSH1 0x20 SWAP1 DUP2 SWAP1 KECCAK256 PUSH1 0x40 DUP1 MLOAD PUSH2 0x120 DUP2 ADD DUP3 MSTORE PUSH1 0x8 DUP7 MUL SWAP1 SWAP3 ADD DUP1 SLOAD DUP4 MSTORE PUSH1 0x1 DUP1 DUP3 ADD SLOAD DUP5 DUP7 ADD MSTORE PUSH1 0x2 DUP3 ADD SLOAD SWAP3 DUP5 ADD SWAP3 SWAP1 SWAP3 MSTORE PUSH1 0x3 DUP2 ADD SLOAD PUSH1 0x60 DUP5 ADD MSTORE PUSH1 0x4 DUP2 ADD SLOAD PUSH1 0x80 DUP5 ADD MSTORE PUSH1 0x5 DUP2 ADD SLOAD PUSH1 0xA0 DUP5 ADD MSTORE PUSH1 0x6 DUP2 ADD SLOAD PUSH1 0xC0 DUP5 ADD MSTORE PUSH1 0x7 ADD SLOAD PUSH1 0xFF DUP1 DUP3 AND ISZERO ISZERO PUSH1 0xE0 DUP6 ADD MSTORE PUSH2 0x100 SWAP2 DUP3 SWAP1 DIV AND ISZERO ISZERO SWAP1 DUP4 ADD MSTORE SWAP1 DUP4 MSTORE SWAP1 SWAP3 ADD SWAP2 ADD PUSH2 0x1286 JUMP JUMPDEST POP POP POP POP SWAP1 POP PUSH1 0x0 DUP2 MLOAD GT PUSH2 0x135E JUMPI PUSH1 0x40 MLOAD PUSH3 0x461BCD PUSH1 0xE5 SHL DUP2 MSTORE PUSH1 0x4 ADD DUP1 DUP1 PUSH1 0x20 ADD DUP3 DUP2 SUB DUP3 MSTORE PUSH1 0x2B DUP2 MSTORE PUSH1 0x20 ADD DUP1 PUSH2 0x478C PUSH1 0x2B SWAP2 CODECOPY PUSH1 0x40 ADD SWAP2 POP POP PUSH1 0x40 MLOAD DUP1 SWAP2 SUB SWAP1 REVERT JUMPDEST DUP1 MLOAD DUP4 LT PUSH2 0x13B3 JUMPI PUSH1 0x40 DUP1 MLOAD PUSH3 0x461BCD PUSH1 0xE5 SHL DUP2 MSTORE PUSH1 0x20 PUSH1 0x4 DUP3 ADD MSTORE PUSH1 0x17 PUSH1 0x24 DUP3 ADD MSTORE PUSH32 0x30333831207468697320696E6465782065786365656473000000000000000000 PUSH1 0x44 DUP3 ADD MSTORE SWAP1 MLOAD SWAP1 DUP2 SWAP1 SUB PUSH1 0x64 ADD SWAP1 REVERT JUMPDEST DUP1 DUP4 DUP2 MLOAD DUP2 LT PUSH2 0x13BF JUMPI INVALID JUMPDEST PUSH1 0x20 MUL PUSH1 0x20 ADD ADD MLOAD PUSH2 0x100 ADD MLOAD ISZERO PUSH2 0x13DB JUMPI PUSH1 0x1 SWAP2 POP POP PUSH2 0xB6D JUMP JUMPDEST POP PUSH1 0x0 SWAP4 SWAP3 POP POP POP JUMP JUMPDEST PUSH32 0x0 DUP2 JUMP JUMPDEST PUSH32 0x0 DUP2 JUMP JUMPDEST PUSH32 0x0 DUP2 JUMP JUMPDEST PUSH1 0x1 PUSH1 0x1 PUSH1 0xA0 SHL SUB DUP2 AND PUSH1 0x0 SWAP1 DUP2 MSTORE PUSH1 0x6 PUSH1 0x20 SWAP1 DUP2 MSTORE PUSH1 0x40 DUP1 DUP4 KECCAK256 DUP1 SLOAD DUP3 MLOAD DUP2 DUP6 MUL DUP2 ADD DUP6 ADD SWAP1 SWAP4 MSTORE DUP1 DUP4 MSTORE DUP5 SWAP4 DUP5 SWAP1 DUP5 ADD JUMPDEST DUP3 DUP3 LT ISZERO PUSH2 0x1516 JUMPI PUSH1 0x0 DUP5 DUP2 MSTORE PUSH1 0x20 SWAP1 DUP2 SWAP1 KECCAK256 PUSH1 0x40 DUP1 MLOAD PUSH2 0x120 DUP2 ADD DUP3 MSTORE PUSH1 0x8 DUP7 MUL SWAP1 SWAP3 ADD DUP1 SLOAD DUP4 MSTORE PUSH1 0x1 DUP1 DUP3 ADD SLOAD DUP5 DUP7 ADD MSTORE PUSH1 0x2 DUP3 ADD SLOAD SWAP3 DUP5 ADD SWAP3 SWAP1 SWAP3 MSTORE PUSH1 0x3 DUP2 ADD SLOAD PUSH1 0x60 DUP5 ADD MSTORE PUSH1 0x4 DUP2 ADD SLOAD PUSH1 0x80 DUP5 ADD MSTORE PUSH1 0x5 DUP2 ADD SLOAD PUSH1 0xA0 DUP5 ADD MSTORE PUSH1 0x6 DUP2 ADD SLOAD PUSH1 0xC0 DUP5 ADD MSTORE PUSH1 0x7 ADD SLOAD PUSH1 0xFF DUP1 DUP3 AND ISZERO ISZERO PUSH1 0xE0 DUP6 ADD MSTORE PUSH2 0x100 SWAP2 DUP3 SWAP1 DIV AND ISZERO ISZERO SWAP1 DUP4 ADD MSTORE SWAP1 DUP4 MSTORE SWAP1 SWAP3 ADD SWAP2 ADD PUSH2 0x1484 JUMP JUMPDEST POP POP POP POP SWAP1 POP DUP1 MLOAD PUSH1 0x0 EQ ISZERO PUSH2 0x1530 JUMPI PUSH1 0x0 SWAP2 POP POP PUSH2 0xAE9 JUMP JUMPDEST PUSH1 0x0 DUP1 JUMPDEST DUP3 MLOAD DUP2 LT ISZERO PUSH2 0x1560 JUMPI PUSH1 0x0 PUSH2 0x1549 DUP7 DUP4 PUSH2 0x32C2 JUMP JUMPDEST SWAP1 POP PUSH2 0x1555 DUP4 DUP3 PUSH2 0x345A JUMP JUMPDEST SWAP3 POP POP PUSH1 0x1 ADD PUSH2 0x1534 JUMP JUMPDEST POP SWAP4 SWAP3 POP POP POP JUMP JUMPDEST PUSH1 0xC SLOAD PUSH1 0x1 PUSH1 0x1 PUSH1 0xA0 SHL SUB AND PUSH2 0x157C PUSH2 0x3212 JUMP JUMPDEST PUSH1 0x1 PUSH1 0x1 PUSH1 0xA0 SHL SUB AND EQ PUSH2 0x15C1 JUMPI PUSH1 0x40 MLOAD PUSH3 0x461BCD PUSH1 0xE5 SHL DUP2 MSTORE PUSH1 0x4 ADD DUP1 DUP1 PUSH1 0x20 ADD DUP3 DUP2 SUB DUP3 MSTORE PUSH1 0x21 DUP2 MSTORE PUSH1 0x20 ADD DUP1 PUSH2 0x4729 PUSH1 0x21 SWAP2 CODECOPY PUSH1 0x40 ADD SWAP2 POP POP PUSH1 0x40 MLOAD DUP1 SWAP2 SUB SWAP1 REVERT JUMPDEST PUSH32 0x0 PUSH1 0x1 PUSH1 0x1 PUSH1 0xA0 SHL SUB AND DUP4 PUSH1 0x1 PUSH1 0x1 PUSH1 0xA0 SHL SUB AND EQ ISZERO PUSH2 0x1632 JUMPI PUSH1 0x40 MLOAD PUSH3 0x461BCD PUSH1 0xE5 SHL DUP2 MSTORE PUSH1 0x4 ADD DUP1 DUP1 PUSH1 0x20 ADD DUP3 DUP2 SUB DUP3 MSTORE PUSH1 0x21 DUP2 MSTORE PUSH1 0x20 ADD DUP1 PUSH2 0x4708 PUSH1 0x21 SWAP2 CODECOPY PUSH1 0x40 ADD SWAP2 POP POP PUSH1 0x40 MLOAD DUP1 SWAP2 SUB SWAP1 REVERT JUMPDEST PUSH1 0x40 DUP1 MLOAD PUSH4 0xA9059CBB PUSH1 0xE0 SHL DUP2 MSTORE PUSH1 0x1 PUSH1 0x1 PUSH1 0xA0 SHL SUB DUP4 DUP2 AND PUSH1 0x4 DUP4 ADD MSTORE PUSH1 0x24 DUP3 ADD DUP6 SWAP1 MSTORE SWAP2 MLOAD DUP6 SWAP3 DUP4 AND SWAP2 PUSH4 0xA9059CBB SWAP2 PUSH1 0x44 DUP1 DUP4 ADD SWAP3 PUSH1 0x20 SWAP3 SWAP2 SWAP1 DUP3 SWAP1 SUB ADD DUP2 PUSH1 0x0 DUP8 DUP1 EXTCODESIZE ISZERO DUP1 ISZERO PUSH2 0x1685 JUMPI PUSH1 0x0 DUP1 REVERT JUMPDEST POP GAS CALL ISZERO DUP1 ISZERO PUSH2 0x1699 JUMPI RETURNDATASIZE PUSH1 0x0 DUP1 RETURNDATACOPY RETURNDATASIZE PUSH1 0x0 REVERT JUMPDEST POP POP POP POP PUSH1 0x40 MLOAD RETURNDATASIZE PUSH1 0x20 DUP2 LT ISZERO PUSH2 0x16AF JUMPI PUSH1 0x0 DUP1 REVERT JUMPDEST POP POP POP POP POP POP JUMP JUMPDEST PUSH1 0xC SLOAD PUSH1 0x1 PUSH1 0x1 PUSH1 0xA0 SHL SUB AND PUSH2 0x16CB PUSH2 0x3212 JUMP JUMPDEST PUSH1 0x1 PUSH1 0x1 PUSH1 0xA0 SHL SUB AND EQ PUSH2 0x1710 JUMPI PUSH1 0x40 MLOAD PUSH3 0x461BCD PUSH1 0xE5 SHL DUP2 MSTORE PUSH1 0x4 ADD DUP1 DUP1 PUSH1 0x20 ADD DUP3 DUP2 SUB DUP3 MSTORE PUSH1 0x21 DUP2 MSTORE PUSH1 0x20 ADD DUP1 PUSH2 0x4729 PUSH1 0x21 SWAP2 CODECOPY PUSH1 0x40 ADD SWAP2 POP POP PUSH1 0x40 MLOAD DUP1 SWAP2 SUB SWAP1 REVERT JUMPDEST PUSH32 0x0 PUSH32 0x0 PUSH32 0x0 ADD ADD TIMESTAMP LT ISZERO PUSH2 0x17B3 JUMPI PUSH1 0x40 MLOAD PUSH3 0x461BCD PUSH1 0xE5 SHL DUP2 MSTORE PUSH1 0x4 ADD DUP1 DUP1 PUSH1 0x20 ADD DUP3 DUP2 SUB DUP3 MSTORE PUSH1 0x36 DUP2 MSTORE PUSH1 0x20 ADD DUP1 PUSH2 0x47E1 PUSH1 0x36 SWAP2 CODECOPY PUSH1 0x40 ADD SWAP2 POP POP PUSH1 0x40 MLOAD DUP1 SWAP2 SUB SWAP1 REVERT JUMPDEST PUSH2 0x17BB PUSH2 0x23D2 JUMP JUMPDEST PUSH1 0xA SSTORE JUMP JUMPDEST PUSH32 0x0 DUP2 JUMP JUMPDEST PUSH32 0x0 DUP2 JUMP JUMPDEST PUSH2 0x1810 PUSH2 0x3212 JUMP JUMPDEST PUSH1 0x1 PUSH1 0x1 PUSH1 0xA0 SHL SUB AND PUSH2 0x1821 PUSH2 0x23C3 JUMP JUMPDEST PUSH1 0x1 PUSH1 0x1 PUSH1 0xA0 SHL SUB AND EQ PUSH2 0x187C JUMPI PUSH1 0x40 DUP1 MLOAD PUSH3 0x461BCD PUSH1 0xE5 SHL DUP2 MSTORE PUSH1 0x20 PUSH1 0x4 DUP3 ADD DUP2 SWAP1 MSTORE PUSH1 0x24 DUP3 ADD MSTORE PUSH32 0x4F776E61626C653A2063616C6C6572206973206E6F7420746865206F776E6572 PUSH1 0x44 DUP3 ADD MSTORE SWAP1 MLOAD SWAP1 DUP2 SWAP1 SUB PUSH1 0x64 ADD SWAP1 REVERT JUMPDEST PUSH1 0x0 DUP1 SLOAD PUSH1 0x40 MLOAD PUSH1 0x1 PUSH1 0x1 PUSH1 0xA0 SHL SUB SWAP1 SWAP2 AND SWAP1 PUSH32 0x8BE0079C531659141344CD1FD0A4F28419497F9722A3DAAFE3B4186F6B6457E0 SWAP1 DUP4 SWAP1 LOG3 PUSH1 0x0 DUP1 SLOAD PUSH1 0x1 PUSH1 0x1 PUSH1 0xA0 SHL SUB NOT AND SWAP1 SSTORE JUMP JUMPDEST PUSH32 0x0 DUP2 JUMP JUMPDEST PUSH1 0x1 PUSH1 0x1 PUSH1 0xA0 SHL SUB DUP3 AND PUSH1 0x0 SWAP1 DUP2 MSTORE PUSH1 0x6 PUSH1 0x20 SWAP1 DUP2 MSTORE PUSH1 0x40 DUP1 DUP4 KECCAK256 DUP1 SLOAD DUP3 MLOAD DUP2 DUP6 MUL DUP2 ADD DUP6 ADD SWAP1 SWAP4 MSTORE DUP1 DUP4 MSTORE DUP5 SWAP4 DUP5 SWAP1 DUP5 ADD JUMPDEST DUP3 DUP3 LT ISZERO PUSH2 0x19AF JUMPI PUSH1 0x0 DUP5 DUP2 MSTORE PUSH1 0x20 SWAP1 DUP2 SWAP1 KECCAK256 PUSH1 0x40 DUP1 MLOAD PUSH2 0x120 DUP2 ADD DUP3 MSTORE PUSH1 0x8 DUP7 MUL SWAP1 SWAP3 ADD DUP1 SLOAD DUP4 MSTORE PUSH1 0x1 DUP1 DUP3 ADD SLOAD DUP5 DUP7 ADD MSTORE PUSH1 0x2 DUP3 ADD SLOAD SWAP3 DUP5 ADD SWAP3 SWAP1 SWAP3 MSTORE PUSH1 0x3 DUP2 ADD SLOAD PUSH1 0x60 DUP5 ADD MSTORE PUSH1 0x4 DUP2 ADD SLOAD PUSH1 0x80 DUP5 ADD MSTORE PUSH1 0x5 DUP2 ADD SLOAD PUSH1 0xA0 DUP5 ADD MSTORE PUSH1 0x6 DUP2 ADD SLOAD PUSH1 0xC0 DUP5 ADD MSTORE PUSH1 0x7 ADD SLOAD PUSH1 0xFF DUP1 DUP3 AND ISZERO ISZERO PUSH1 0xE0 DUP6 ADD MSTORE PUSH2 0x100 SWAP2 DUP3 SWAP1 DIV AND ISZERO ISZERO SWAP1 DUP4 ADD MSTORE SWAP1 DUP4 MSTORE SWAP1 SWAP3 ADD SWAP2 ADD PUSH2 0x191D JUMP JUMPDEST POP POP POP POP SWAP1 POP DUP1 MLOAD PUSH1 0x0 EQ ISZERO PUSH2 0x19C9 JUMPI PUSH1 0x0 SWAP2 POP POP PUSH2 0xB6D JUMP JUMPDEST DUP1 MLOAD DUP4 LT PUSH2 0x19DB JUMPI PUSH1 0x0 SWAP2 POP POP PUSH2 0xB6D JUMP JUMPDEST PUSH1 0x0 DUP1 PUSH2 0x19E8 DUP7 DUP7 PUSH2 0x32C2 JUMP JUMPDEST SWAP1 POP PUSH2 0x19F4 DUP3 DUP3 PUSH2 0x345A JUMP JUMPDEST SWAP7 SWAP6 POP POP POP POP POP POP JUMP JUMPDEST PUSH32 0x0 DUP2 JUMP JUMPDEST PUSH1 0xC SLOAD PUSH1 0x1 PUSH1 0xA0 SHL SWAP1 DIV PUSH1 0xFF AND ISZERO PUSH2 0x1A77 JUMPI PUSH1 0x40 DUP1 MLOAD PUSH3 0x461BCD PUSH1 0xE5 SHL DUP2 MSTORE PUSH1 0x20 PUSH1 0x4 DUP3 ADD MSTORE PUSH1 0x13 PUSH1 0x24 DUP3 ADD MSTORE PUSH19 0xC0CCC4C08141BDBDB081A5CC81B1BD8DAD959 PUSH1 0x6A SHL PUSH1 0x44 DUP3 ADD MSTORE SWAP1 MLOAD SWAP1 DUP2 SWAP1 SUB PUSH1 0x64 ADD SWAP1 REVERT JUMPDEST PUSH32 0x0 DUP3 LT ISZERO PUSH2 0x1AD6 JUMPI PUSH1 0x40 MLOAD PUSH3 0x461BCD PUSH1 0xE5 SHL DUP2 MSTORE PUSH1 0x4 ADD DUP1 DUP1 PUSH1 0x20 ADD DUP3 DUP2 SUB DUP3 MSTORE PUSH1 0x2A DUP2 MSTORE PUSH1 0x20 ADD DUP1 PUSH2 0x47B7 PUSH1 0x2A SWAP2 CODECOPY PUSH1 0x40 ADD SWAP2 POP POP PUSH1 0x40 MLOAD DUP1 SWAP2 SUB SWAP1 REVERT JUMPDEST PUSH1 0x0 PUSH2 0x1B0E PUSH1 0x64 PUSH2 0x1B08 PUSH32 0x0 PUSH1 0x5 PUSH2 0x34BB JUMP JUMPDEST SWAP1 PUSH2 0x3514 JUMP JUMPDEST SWAP1 POP PUSH1 0x0 DUP1 PUSH32 0x0 PUSH1 0x1 PUSH1 0x1 PUSH1 0xA0 SHL SUB AND PUSH4 0x771A3A1D PUSH1 0x40 MLOAD DUP2 PUSH4 0xFFFFFFFF AND PUSH1 0xE0 SHL DUP2 MSTORE PUSH1 0x4 ADD PUSH1 0x20 PUSH1 0x40 MLOAD DUP1 DUP4 SUB DUP2 DUP7 DUP1 EXTCODESIZE ISZERO DUP1 ISZERO PUSH2 0x1B6C JUMPI PUSH1 0x0 DUP1 REVERT JUMPDEST POP GAS STATICCALL ISZERO DUP1 ISZERO PUSH2 0x1B80 JUMPI RETURNDATASIZE PUSH1 0x0 DUP1 RETURNDATACOPY RETURNDATASIZE PUSH1 0x0 REVERT JUMPDEST POP POP POP POP PUSH1 0x40 MLOAD RETURNDATASIZE PUSH1 0x20 DUP2 LT ISZERO PUSH2 0x1B96 JUMPI PUSH1 0x0 DUP1 REVERT JUMPDEST POP MLOAD SWAP1 POP PUSH1 0x0 PUSH1 0x1 PUSH1 0x1 PUSH1 0xA0 SHL SUB PUSH32 0x0 AND PUSH4 0xD1ECFC68 PUSH2 0x1BD3 PUSH2 0x3212 JUMP JUMPDEST PUSH1 0x40 MLOAD DUP3 PUSH4 0xFFFFFFFF AND PUSH1 0xE0 SHL DUP2 MSTORE PUSH1 0x4 ADD DUP1 DUP3 PUSH1 0x1 PUSH1 0x1 PUSH1 0xA0 SHL SUB AND DUP2 MSTORE PUSH1 0x20 ADD SWAP2 POP POP PUSH1 0x20 PUSH1 0x40 MLOAD DUP1 DUP4 SUB DUP2 DUP7 DUP1 EXTCODESIZE ISZERO DUP1 ISZERO PUSH2 0x1C10 JUMPI PUSH1 0x0 DUP1 REVERT JUMPDEST POP GAS STATICCALL ISZERO DUP1 ISZERO PUSH2 0x1C24 JUMPI RETURNDATASIZE PUSH1 0x0 DUP1 RETURNDATACOPY RETURNDATASIZE PUSH1 0x0 REVERT JUMPDEST POP POP POP POP PUSH1 0x40 MLOAD RETURNDATASIZE PUSH1 0x20 DUP2 LT ISZERO PUSH2 0x1C3A JUMPI PUSH1 0x0 DUP1 REVERT JUMPDEST POP MLOAD PUSH2 0x1C4F JUMPI PUSH2 0x1C4A DUP7 DUP4 PUSH2 0x357B JUMP JUMPDEST PUSH2 0x1C52 JUMP JUMPDEST PUSH1 0x0 JUMPDEST SWAP1 POP PUSH2 0x1C7E PUSH32 0x0 DUP6 PUSH2 0x345A JUMP JUMPDEST PUSH2 0x1C9D DUP3 PUSH2 0x1C97 DUP10 PUSH1 0x9 SLOAD PUSH2 0x345A SWAP1 SWAP2 SWAP1 PUSH4 0xFFFFFFFF AND JUMP JUMPDEST SWAP1 PUSH2 0x358D JUMP JUMPDEST GT ISZERO PUSH2 0x1CDA JUMPI PUSH1 0x40 MLOAD PUSH3 0x461BCD PUSH1 0xE5 SHL DUP2 MSTORE PUSH1 0x4 ADD DUP1 DUP1 PUSH1 0x20 ADD DUP3 DUP2 SUB DUP3 MSTORE PUSH1 0x26 DUP2 MSTORE PUSH1 0x20 ADD DUP1 PUSH2 0x46E2 PUSH1 0x26 SWAP2 CODECOPY PUSH1 0x40 ADD SWAP2 POP POP PUSH1 0x40 MLOAD DUP1 SWAP2 SUB SWAP1 REVERT JUMPDEST PUSH2 0x1CE4 DUP7 DUP4 PUSH2 0x35EA JUMP JUMPDEST SWAP7 POP SWAP3 POP PUSH1 0x1 PUSH1 0x1 PUSH1 0xA0 SHL SUB PUSH32 0x0 AND PUSH4 0x23B872DD PUSH2 0x1D1F PUSH2 0x3212 JUMP JUMPDEST PUSH1 0x40 DUP1 MLOAD PUSH1 0x1 PUSH1 0x1 PUSH1 0xE0 SHL SUB NOT PUSH1 0xE0 DUP6 SWAP1 SHL AND DUP2 MSTORE PUSH1 0x1 PUSH1 0x1 PUSH1 0xA0 SHL SUB SWAP1 SWAP3 AND PUSH1 0x4 DUP4 ADD MSTORE ADDRESS PUSH1 0x24 DUP4 ADD MSTORE DUP10 DUP8 ADD PUSH1 0x44 DUP4 ADD MSTORE MLOAD PUSH1 0x64 DUP1 DUP4 ADD SWAP3 PUSH1 0x20 SWAP3 SWAP2 SWAP1 DUP3 SWAP1 SUB ADD DUP2 PUSH1 0x0 DUP8 DUP1 EXTCODESIZE ISZERO DUP1 ISZERO PUSH2 0x1D74 JUMPI PUSH1 0x0 DUP1 REVERT JUMPDEST POP GAS CALL ISZERO DUP1 ISZERO PUSH2 0x1D88 JUMPI RETURNDATASIZE PUSH1 0x0 DUP1 RETURNDATACOPY RETURNDATASIZE PUSH1 0x0 REVERT JUMPDEST POP POP POP POP PUSH1 0x40 MLOAD RETURNDATASIZE PUSH1 0x20 DUP2 LT ISZERO PUSH2 0x1D9E JUMPI PUSH1 0x0 DUP1 REVERT JUMPDEST POP PUSH2 0x1DAB SWAP1 POP DUP7 DUP3 PUSH2 0x358D JUMP JUMPDEST SWAP6 POP DUP3 ISZERO PUSH2 0x1EE2 JUMPI PUSH32 0x0 PUSH1 0x1 PUSH1 0x1 PUSH1 0xA0 SHL SUB AND PUSH4 0xA9059CBB PUSH32 0x0 PUSH1 0x1 PUSH1 0x1 PUSH1 0xA0 SHL SUB AND PUSH4 0x4A5DB0A9 PUSH1 0x40 MLOAD DUP2 PUSH4 0xFFFFFFFF AND PUSH1 0xE0 SHL DUP2 MSTORE PUSH1 0x4 ADD PUSH1 0x20 PUSH1 0x40 MLOAD DUP1 DUP4 SUB DUP2 DUP7 DUP1 EXTCODESIZE ISZERO DUP1 ISZERO PUSH2 0x1E3B JUMPI PUSH1 0x0 DUP1 REVERT JUMPDEST POP GAS STATICCALL ISZERO DUP1 ISZERO PUSH2 0x1E4F JUMPI RETURNDATASIZE PUSH1 0x0 DUP1 RETURNDATACOPY RETURNDATASIZE PUSH1 0x0 REVERT JUMPDEST POP POP POP POP PUSH1 0x40 MLOAD RETURNDATASIZE PUSH1 0x20 DUP2 LT ISZERO PUSH2 0x1E65 JUMPI PUSH1 0x0 DUP1 REVERT JUMPDEST POP MLOAD PUSH1 0x40 DUP1 MLOAD PUSH1 0x1 PUSH1 0x1 PUSH1 0xE0 SHL SUB NOT PUSH1 0xE0 DUP6 SWAP1 SHL AND DUP2 MSTORE PUSH1 0x1 PUSH1 0x1 PUSH1 0xA0 SHL SUB SWAP1 SWAP3 AND PUSH1 0x4 DUP4 ADD MSTORE PUSH1 0x24 DUP3 ADD DUP8 SWAP1 MSTORE MLOAD PUSH1 0x44 DUP1 DUP4 ADD SWAP3 PUSH1 0x20 SWAP3 SWAP2 SWAP1 DUP3 SWAP1 SUB ADD DUP2 PUSH1 0x0 DUP8 DUP1 EXTCODESIZE ISZERO DUP1 ISZERO PUSH2 0x1EB5 JUMPI PUSH1 0x0 DUP1 REVERT JUMPDEST POP GAS CALL ISZERO DUP1 ISZERO PUSH2 0x1EC9 JUMPI RETURNDATASIZE PUSH1 0x0 DUP1 RETURNDATACOPY RETURNDATASIZE PUSH1 0x0 REVERT JUMPDEST POP POP POP POP PUSH1 0x40 MLOAD RETURNDATASIZE PUSH1 0x20 DUP2 LT ISZERO PUSH2 0x1EDF JUMPI PUSH1 0x0 DUP1 REVERT JUMPDEST POP POP JUMPDEST PUSH1 0x9 SLOAD PUSH2 0x1EEF SWAP1 DUP8 PUSH2 0x345A JUMP JUMPDEST PUSH1 0x9 DUP2 SWAP1 SSTORE POP PUSH1 0x7 PUSH1 0x40 MLOAD DUP1 PUSH1 0x40 ADD PUSH1 0x40 MSTORE DUP1 PUSH2 0x1F0A PUSH2 0x3212 JUMP JUMPDEST PUSH1 0x1 PUSH1 0x1 PUSH1 0xA0 SHL SUB AND DUP2 MSTORE PUSH1 0x20 ADD PUSH1 0x6 PUSH1 0x0 PUSH2 0x1F24 PUSH2 0x3212 JUMP JUMPDEST PUSH1 0x1 PUSH1 0x1 PUSH1 0xA0 SHL SUB SWAP1 DUP2 AND DUP3 MSTORE PUSH1 0x20 DUP1 DUP4 ADD SWAP4 SWAP1 SWAP4 MSTORE PUSH1 0x40 SWAP1 SWAP2 ADD PUSH1 0x0 SWAP1 DUP2 KECCAK256 SLOAD SWAP1 SWAP4 MSTORE DUP5 SLOAD PUSH1 0x1 DUP1 DUP3 ADD DUP8 SSTORE SWAP6 DUP5 MSTORE DUP3 DUP5 KECCAK256 DUP6 MLOAD PUSH1 0x2 SWAP1 SWAP3 MUL ADD DUP1 SLOAD PUSH1 0x1 PUSH1 0x1 PUSH1 0xA0 SHL SUB NOT AND SWAP2 SWAP1 SWAP3 AND OR DUP2 SSTORE SWAP3 ADD MLOAD SWAP2 SWAP1 SWAP3 ADD SSTORE PUSH1 0x6 SWAP1 PUSH2 0x1F85 PUSH2 0x3212 JUMP JUMPDEST PUSH1 0x1 PUSH1 0x1 PUSH1 0xA0 SHL SUB AND DUP2 MSTORE PUSH1 0x20 DUP1 DUP3 ADD SWAP3 SWAP1 SWAP3 MSTORE PUSH1 0x40 SWAP1 DUP2 ADD PUSH1 0x0 SWAP1 DUP2 KECCAK256 DUP3 MLOAD PUSH2 0x120 DUP2 ADD DUP5 MSTORE DUP11 DUP2 MSTORE TIMESTAMP DUP2 DUP7 ADD DUP2 DUP2 MSTORE SWAP5 DUP3 ADD DUP5 DUP2 MSTORE PUSH1 0x60 DUP4 ADD SWAP2 DUP3 MSTORE PUSH1 0x80 DUP4 ADD DUP13 DUP2 MSTORE PUSH1 0x0 NOT PUSH1 0xA0 DUP6 ADD DUP2 DUP2 MSTORE PUSH1 0xC0 DUP7 ADD SWAP2 DUP3 MSTORE PUSH1 0xE0 DUP7 ADD DUP9 DUP2 MSTORE PUSH2 0x100 DUP1 DUP9 ADD DUP11 DUP2 MSTORE DUP10 SLOAD PUSH1 0x1 DUP1 DUP3 ADD DUP13 SSTORE SWAP11 DUP13 MSTORE SWAP13 SWAP1 SWAP11 KECCAK256 SWAP8 MLOAD PUSH1 0x8 SWAP1 SWAP13 MUL SWAP1 SWAP8 ADD SWAP11 DUP12 SSTORE SWAP9 MLOAD SWAP7 DUP11 ADD SWAP7 SWAP1 SWAP7 SSTORE SWAP2 MLOAD PUSH1 0x2 DUP10 ADD SSTORE SWAP2 MLOAD PUSH1 0x3 DUP9 ADD SSTORE SWAP1 MLOAD PUSH1 0x4 DUP8 ADD SSTORE SWAP2 MLOAD PUSH1 0x5 DUP7 ADD SSTORE SWAP1 MLOAD PUSH1 0x6 DUP6 ADD SSTORE SWAP2 MLOAD PUSH1 0x7 SWAP1 SWAP4 ADD DUP1 SLOAD SWAP2 MLOAD PUSH1 0xFF NOT SWAP3 SWAP1 SWAP3 AND SWAP4 ISZERO ISZERO SWAP4 SWAP1 SWAP4 OR PUSH2 0xFF00 NOT AND SWAP1 ISZERO ISZERO SWAP1 SWAP2 MUL OR SWAP1 SSTORE PUSH1 0x9 SLOAD PUSH32 0x0 GT PUSH2 0x208C JUMPI PUSH2 0x208C PUSH2 0x3284 JUMP JUMPDEST PUSH2 0x2094 PUSH2 0x3212 JUMP JUMPDEST PUSH1 0x1 PUSH1 0x1 PUSH1 0xA0 SHL SUB AND PUSH32 0x5AF417134F72A9D41143ACE85B0A26DCE6F550F894F2CBC1EEEE8810603D91B6 DUP8 DUP8 PUSH1 0x40 MLOAD DUP1 DUP4 DUP2 MSTORE PUSH1 0x20 ADD DUP3 DUP2 MSTORE PUSH1 0x20 ADD SWAP3 POP POP POP PUSH1 0x40 MLOAD DUP1 SWAP2 SUB SWAP1 LOG2 POP POP POP POP POP POP JUMP JUMPDEST PUSH1 0x0 DUP1 PUSH2 0x20F7 PUSH2 0x20F2 PUSH2 0x3212 JUMP JUMPDEST PUSH2 0x3686 JUMP JUMPDEST SWAP2 POP SWAP2 POP SWAP1 SWAP2 JUMP JUMPDEST PUSH1 0xC SLOAD PUSH1 0x1 PUSH1 0xA8 SHL SWAP1 DIV PUSH1 0xFF AND DUP2 JUMP JUMPDEST PUSH1 0x9 SLOAD DUP2 JUMP JUMPDEST PUSH1 0x6 PUSH1 0x20 MSTORE DUP2 PUSH1 0x0 MSTORE PUSH1 0x40 PUSH1 0x0 KECCAK256 DUP2 DUP2 SLOAD DUP2 LT PUSH2 0x2131 JUMPI PUSH1 0x0 DUP1 REVERT JUMPDEST PUSH1 0x0 SWAP2 DUP3 MSTORE PUSH1 0x20 SWAP1 SWAP2 KECCAK256 PUSH1 0x8 SWAP1 SWAP2 MUL ADD DUP1 SLOAD PUSH1 0x1 DUP3 ADD SLOAD PUSH1 0x2 DUP4 ADD SLOAD PUSH1 0x3 DUP5 ADD SLOAD PUSH1 0x4 DUP6 ADD SLOAD PUSH1 0x5 DUP7 ADD SLOAD PUSH1 0x6 DUP8 ADD SLOAD PUSH1 0x7 SWAP1 SWAP8 ADD SLOAD SWAP6 SWAP9 POP SWAP4 SWAP7 POP SWAP2 SWAP5 SWAP1 SWAP4 SWAP2 SWAP3 SWAP2 PUSH1 0xFF DUP1 DUP3 AND SWAP2 PUSH2 0x100 SWAP1 DIV AND DUP10 JUMP JUMPDEST PUSH1 0xC SLOAD PUSH1 0x1 PUSH1 0x1 PUSH1 0xA0 SHL SUB AND PUSH2 0x2197 PUSH2 0x3212 JUMP JUMPDEST PUSH1 0x1 PUSH1 0x1 PUSH1 0xA0 SHL SUB AND EQ PUSH2 0x21DC JUMPI PUSH1 0x40 MLOAD PUSH3 0x461BCD PUSH1 0xE5 SHL DUP2 MSTORE PUSH1 0x4 ADD DUP1 DUP1 PUSH1 0x20 ADD DUP3 DUP2 SUB DUP3 MSTORE PUSH1 0x21 DUP2 MSTORE PUSH1 0x20 ADD DUP1 PUSH2 0x4729 PUSH1 0x21 SWAP2 CODECOPY PUSH1 0x40 ADD SWAP2 POP POP PUSH1 0x40 MLOAD DUP1 SWAP2 SUB SWAP1 REVERT JUMPDEST PUSH1 0x0 PUSH32 0x0 GT PUSH2 0x223B JUMPI PUSH1 0x40 MLOAD PUSH3 0x461BCD PUSH1 0xE5 SHL DUP2 MSTORE PUSH1 0x4 ADD DUP1 DUP1 PUSH1 0x20 ADD DUP3 DUP2 SUB DUP3 MSTORE PUSH1 0x21 DUP2 MSTORE PUSH1 0x20 ADD DUP1 PUSH2 0x476B PUSH1 0x21 SWAP2 CODECOPY PUSH1 0x40 ADD SWAP2 POP POP PUSH1 0x40 MLOAD DUP1 SWAP2 SUB SWAP1 REVERT JUMPDEST PUSH1 0x0 DUP3 GT PUSH2 0x2290 JUMPI PUSH1 0x40 DUP1 MLOAD PUSH3 0x461BCD PUSH1 0xE5 SHL DUP2 MSTORE PUSH1 0x20 PUSH1 0x4 DUP3 ADD MSTORE PUSH1 0x19 PUSH1 0x24 DUP3 ADD MSTORE PUSH32 0x3033343120416D6F756E742063616E2774206265207A65726F00000000000000 PUSH1 0x44 DUP3 ADD MSTORE SWAP1 MLOAD SWAP1 DUP2 SWAP1 SUB PUSH1 0x64 ADD SWAP1 REVERT JUMPDEST TIMESTAMP DUP2 LT ISZERO PUSH2 0x22DC JUMPI PUSH1 0x40 DUP1 MLOAD PUSH3 0x461BCD PUSH1 0xE5 SHL DUP2 MSTORE PUSH1 0x20 PUSH1 0x4 DUP3 ADD MSTORE PUSH1 0x14 PUSH1 0x24 DUP3 ADD MSTORE PUSH20 0x3033343220646561646C696E65206973206C6F77 PUSH1 0x60 SHL PUSH1 0x44 DUP3 ADD MSTORE SWAP1 MLOAD SWAP1 DUP2 SWAP1 SUB PUSH1 0x64 ADD SWAP1 REVERT JUMPDEST PUSH1 0x0 PUSH2 0x22E6 PUSH2 0xEA6 JUMP JUMPDEST SWAP1 POP PUSH2 0x22F2 DUP2 DUP5 PUSH2 0x36BD JUMP JUMPDEST PUSH1 0x0 PUSH2 0x22FD DUP5 PUSH2 0x96D JUMP JUMPDEST SWAP1 POP PUSH1 0x0 PUSH2 0x2317 PUSH2 0x2310 DUP4 PUSH2 0x12C PUSH2 0x357B JUMP JUMPDEST DUP4 SWAP1 PUSH2 0x358D JUMP JUMPDEST SWAP1 POP PUSH2 0x2325 ADDRESS DUP7 DUP4 DUP8 PUSH2 0x3782 JUMP JUMPDEST POP POP POP POP POP JUMP JUMPDEST PUSH1 0xC SLOAD PUSH1 0x1 PUSH1 0x1 PUSH1 0xA0 SHL SUB AND PUSH2 0x2340 PUSH2 0x3212 JUMP JUMPDEST PUSH1 0x1 PUSH1 0x1 PUSH1 0xA0 SHL SUB AND EQ PUSH2 0x2385 JUMPI PUSH1 0x40 MLOAD PUSH3 0x461BCD PUSH1 0xE5 SHL DUP2 MSTORE PUSH1 0x4 ADD DUP1 DUP1 PUSH1 0x20 ADD DUP3 DUP2 SUB DUP3 MSTORE PUSH1 0x21 DUP2 MSTORE PUSH1 0x20 ADD DUP1 PUSH2 0x4729 PUSH1 0x21 SWAP2 CODECOPY PUSH1 0x40 ADD SWAP2 POP POP PUSH1 0x40 MLOAD DUP1 SWAP2 SUB SWAP1 REVERT JUMPDEST PUSH1 0xC DUP1 SLOAD PUSH1 0xFF PUSH1 0xB0 SHL NOT AND PUSH1 0x1 PUSH1 0xB0 SHL OR SWAP1 SSTORE PUSH1 0x40 MLOAD PUSH32 0x9331B2A38C658C57A39EA19B2709D928C28A12CC8FBB838D12B85148550F937D SWAP1 PUSH1 0x0 SWAP1 LOG1 JUMP JUMPDEST PUSH1 0x0 SLOAD PUSH1 0x1 PUSH1 0x1 PUSH1 0xA0 SHL SUB AND SWAP1 JUMP JUMPDEST PUSH1 0x0 DUP1 PUSH1 0x1 PUSH1 0x0 SWAP1 SLOAD SWAP1 PUSH2 0x100 EXP SWAP1 DIV PUSH1 0x1 PUSH1 0x1 PUSH1 0xA0 SHL SUB AND PUSH1 0x1 PUSH1 0x1 PUSH1 0xA0 SHL SUB AND PUSH4 0xFEAF968C PUSH1 0x40 MLOAD DUP2 PUSH4 0xFFFFFFFF AND PUSH1 0xE0 SHL DUP2 MSTORE PUSH1 0x4 ADD PUSH1 0xA0 PUSH1 0x40 MLOAD DUP1 DUP4 SUB DUP2 DUP7 DUP1 EXTCODESIZE ISZERO DUP1 ISZERO PUSH2 0x2423 JUMPI PUSH1 0x0 DUP1 REVERT JUMPDEST POP GAS STATICCALL ISZERO DUP1 ISZERO PUSH2 0x2437 JUMPI RETURNDATASIZE PUSH1 0x0 DUP1 RETURNDATACOPY RETURNDATASIZE PUSH1 0x0 REVERT JUMPDEST POP POP POP POP PUSH1 0x40 MLOAD RETURNDATASIZE PUSH1 0xA0 DUP2 LT ISZERO PUSH2 0x244D JUMPI PUSH1 0x0 DUP1 REVERT JUMPDEST POP PUSH1 0x20 ADD MLOAD SWAP1 POP PUSH1 0x0 DUP2 SLT ISZERO PUSH2 0x2464 JUMPI PUSH1 0x0 PUSH2 0x2466 JUMP JUMPDEST DUP1 JUMPDEST SWAP2 POP POP SWAP1 JUMP JUMPDEST PUSH1 0x0 DUP1 PUSH2 0x20F7 PUSH2 0x247A PUSH2 0x3212 JUMP JUMPDEST PUSH2 0x391B JUMP JUMPDEST PUSH1 0x5 DUP2 JUMP JUMPDEST PUSH1 0x0 DUP1 PUSH2 0x2498 PUSH2 0x2492 PUSH2 0x3212 JUMP JUMPDEST DUP5 PUSH2 0x3B36 JUMP JUMPDEST SWAP2 POP SWAP2 POP JUMPDEST SWAP2 POP SWAP2 JUMP JUMPDEST PUSH1 0x8 DUP2 JUMP JUMPDEST PUSH1 0xC SLOAD PUSH1 0x1 PUSH1 0xA0 SHL SWAP1 DIV PUSH1 0xFF AND DUP2 JUMP JUMPDEST PUSH1 0x40 DUP1 MLOAD PUSH1 0x2 DUP1 DUP3 MSTORE PUSH1 0x60 DUP1 DUP4 ADD DUP5 MSTORE SWAP3 PUSH1 0x0 SWAP3 SWAP2 SWAP1 PUSH1 0x20 DUP4 ADD SWAP1 DUP1 CALLDATASIZE DUP4 CALLDATACOPY POP POP PUSH1 0x4 SLOAD DUP3 MLOAD SWAP3 SWAP4 POP PUSH1 0x1 PUSH1 0x1 PUSH1 0xA0 SHL SUB AND SWAP2 DUP4 SWAP2 POP PUSH1 0x0 SWAP1 PUSH2 0x24F6 JUMPI INVALID JUMPDEST PUSH1 0x1 PUSH1 0x1 PUSH1 0xA0 SHL SUB SWAP3 DUP4 AND PUSH1 0x20 SWAP2 DUP3 MUL SWAP3 SWAP1 SWAP3 ADD ADD MSTORE PUSH1 0x5 SLOAD DUP3 MLOAD SWAP2 AND SWAP1 DUP3 SWAP1 PUSH1 0x1 SWAP1 DUP2 LT PUSH2 0x2521 JUMPI INVALID JUMPDEST PUSH1 0x1 PUSH1 0x1 PUSH1 0xA0 SHL SUB SWAP1 SWAP3 AND PUSH1 0x20 SWAP3 DUP4 MUL SWAP2 SWAP1 SWAP2 ADD SWAP1 SWAP2 ADD MSTORE SWAP1 POP SWAP1 JUMP JUMPDEST PUSH32 0x0 DUP2 JUMP JUMPDEST PUSH1 0x0 DUP1 PUSH2 0x2570 PUSH2 0x2492 PUSH2 0x3212 JUMP JUMPDEST SWAP1 SWAP3 POP SWAP1 POP DUP2 ISZERO PUSH2 0x26D1 JUMPI DUP2 PUSH32 0x0 PUSH1 0x1 PUSH1 0x1 PUSH1 0xA0 SHL SUB AND PUSH4 0x70A08231 PUSH32 0x0 PUSH1 0x40 MLOAD DUP3 PUSH4 0xFFFFFFFF AND PUSH1 0xE0 SHL DUP2 MSTORE PUSH1 0x4 ADD DUP1 DUP3 PUSH1 0x1 PUSH1 0x1 PUSH1 0xA0 SHL SUB AND DUP2 MSTORE PUSH1 0x20 ADD SWAP2 POP POP PUSH1 0x20 PUSH1 0x40 MLOAD DUP1 DUP4 SUB DUP2 DUP7 DUP1 EXTCODESIZE ISZERO DUP1 ISZERO PUSH2 0x2609 JUMPI PUSH1 0x0 DUP1 REVERT JUMPDEST POP GAS STATICCALL ISZERO DUP1 ISZERO PUSH2 0x261D JUMPI RETURNDATASIZE PUSH1 0x0 DUP1 RETURNDATACOPY RETURNDATASIZE PUSH1 0x0 REVERT JUMPDEST POP POP POP POP PUSH1 0x40 MLOAD RETURNDATASIZE PUSH1 0x20 DUP2 LT ISZERO PUSH2 0x2633 JUMPI PUSH1 0x0 DUP1 REVERT JUMPDEST POP MLOAD LT PUSH2 0x26D1 JUMPI PUSH32 0x0 PUSH1 0x1 PUSH1 0x1 PUSH1 0xA0 SHL SUB AND PUSH4 0xE4E103DC PUSH2 0x2671 PUSH2 0x3212 JUMP JUMPDEST DUP5 PUSH1 0x40 MLOAD DUP4 PUSH4 0xFFFFFFFF AND PUSH1 0xE0 SHL DUP2 MSTORE PUSH1 0x4 ADD DUP1 DUP4 PUSH1 0x1 PUSH1 0x1 PUSH1 0xA0 SHL SUB AND DUP2 MSTORE PUSH1 0x20 ADD DUP3 DUP2 MSTORE PUSH1 0x20 ADD SWAP3 POP POP POP PUSH1 0x0 PUSH1 0x40 MLOAD DUP1 DUP4 SUB DUP2 PUSH1 0x0 DUP8 DUP1 EXTCODESIZE ISZERO DUP1 ISZERO PUSH2 0x26B8 JUMPI PUSH1 0x0 DUP1 REVERT JUMPDEST POP GAS CALL ISZERO DUP1 ISZERO PUSH2 0x26CC JUMPI RETURNDATASIZE PUSH1 0x0 DUP1 RETURNDATACOPY RETURNDATASIZE PUSH1 0x0 REVERT JUMPDEST POP POP POP POP JUMPDEST PUSH2 0x26E2 PUSH2 0x26DC PUSH2 0x3212 JUMP JUMPDEST DUP5 PUSH2 0x3B70 JUMP JUMPDEST PUSH1 0xC SLOAD PUSH1 0x1 PUSH1 0xA8 SHL SWAP1 DIV PUSH1 0xFF AND ISZERO PUSH2 0x2937 JUMPI PUSH32 0x0 ISZERO PUSH2 0x2815 JUMPI DUP1 ISZERO PUSH2 0x2804 JUMPI PUSH32 0x0 PUSH1 0x1 PUSH1 0x1 PUSH1 0xA0 SHL SUB AND PUSH4 0xA9059CBB PUSH2 0x2757 PUSH2 0x3212 JUMP JUMPDEST DUP4 PUSH1 0x40 MLOAD DUP4 PUSH4 0xFFFFFFFF AND PUSH1 0xE0 SHL DUP2 MSTORE PUSH1 0x4 ADD DUP1 DUP4 PUSH1 0x1 PUSH1 0x1 PUSH1 0xA0 SHL SUB AND DUP2 MSTORE PUSH1 0x20 ADD DUP3 DUP2 MSTORE PUSH1 0x20 ADD SWAP3 POP POP POP PUSH1 0x20 PUSH1 0x40 MLOAD DUP1 DUP4 SUB DUP2 PUSH1 0x0 DUP8 DUP1 EXTCODESIZE ISZERO DUP1 ISZERO PUSH2 0x279E JUMPI PUSH1 0x0 DUP1 REVERT JUMPDEST POP GAS CALL ISZERO DUP1 ISZERO PUSH2 0x27B2 JUMPI RETURNDATASIZE PUSH1 0x0 DUP1 RETURNDATACOPY RETURNDATASIZE PUSH1 0x0 REVERT JUMPDEST POP POP POP POP PUSH1 0x40 MLOAD RETURNDATASIZE PUSH1 0x20 DUP2 LT ISZERO PUSH2 0x27C8 JUMPI PUSH1 0x0 DUP1 REVERT JUMPDEST POP MLOAD PUSH2 0x2804 JUMPI PUSH1 0x40 DUP1 MLOAD PUSH3 0x461BCD PUSH1 0xE5 SHL DUP2 MSTORE PUSH1 0x20 PUSH1 0x4 DUP1 DUP4 ADD SWAP2 SWAP1 SWAP2 MSTORE PUSH1 0x24 DUP3 ADD MSTORE PUSH4 0x3033333 PUSH1 0xE4 SHL PUSH1 0x44 DUP3 ADD MSTORE SWAP1 MLOAD SWAP1 DUP2 SWAP1 SUB PUSH1 0x64 ADD SWAP1 REVERT JUMPDEST PUSH2 0x2815 PUSH2 0x280F PUSH2 0x3212 JUMP JUMPDEST DUP5 PUSH2 0x3C2A JUMP JUMPDEST PUSH1 0x0 PUSH2 0x2828 PUSH2 0x2822 PUSH2 0x3212 JUMP JUMPDEST DUP6 PUSH2 0x3CB1 JUMP JUMPDEST SWAP1 POP DUP1 ISZERO PUSH2 0x2935 JUMPI PUSH32 0x0 PUSH1 0x1 PUSH1 0x1 PUSH1 0xA0 SHL SUB AND PUSH4 0xA9059CBB PUSH2 0x2867 PUSH2 0x3212 JUMP JUMPDEST DUP4 PUSH1 0x40 MLOAD DUP4 PUSH4 0xFFFFFFFF AND PUSH1 0xE0 SHL DUP2 MSTORE PUSH1 0x4 ADD DUP1 DUP4 PUSH1 0x1 PUSH1 0x1 PUSH1 0xA0 SHL SUB AND DUP2 MSTORE PUSH1 0x20 ADD DUP3 DUP2 MSTORE PUSH1 0x20 ADD SWAP3 POP POP POP PUSH1 0x20 PUSH1 0x40 MLOAD DUP1 DUP4 SUB DUP2 PUSH1 0x0 DUP8 DUP1 EXTCODESIZE ISZERO DUP1 ISZERO PUSH2 0x28AE JUMPI PUSH1 0x0 DUP1 REVERT JUMPDEST POP GAS CALL ISZERO DUP1 ISZERO PUSH2 0x28C2 JUMPI RETURNDATASIZE PUSH1 0x0 DUP1 RETURNDATACOPY RETURNDATASIZE PUSH1 0x0 REVERT JUMPDEST POP POP POP POP PUSH1 0x40 MLOAD RETURNDATASIZE PUSH1 0x20 DUP2 LT ISZERO PUSH2 0x28D8 JUMPI PUSH1 0x0 DUP1 REVERT JUMPDEST POP PUSH2 0x28EC SWAP1 POP PUSH2 0x28E6 PUSH2 0x3212 JUMP JUMPDEST DUP6 PUSH2 0x3DF6 JUMP JUMPDEST PUSH2 0x28F4 PUSH2 0x3212 JUMP JUMPDEST PUSH1 0x1 PUSH1 0x1 PUSH1 0xA0 SHL SUB AND PUSH32 0x85082129D87B2FE11527CB1B3B7A520AEB5AA6913F88A3D8757FE40D1DB02FDD DUP3 PUSH1 0x40 MLOAD DUP1 DUP3 DUP2 MSTORE PUSH1 0x20 ADD SWAP2 POP POP PUSH1 0x40 MLOAD DUP1 SWAP2 SUB SWAP1 LOG2 JUMPDEST POP JUMPDEST PUSH2 0x293F PUSH2 0x3212 JUMP JUMPDEST PUSH1 0x1 PUSH1 0x1 PUSH1 0xA0 SHL SUB AND PUSH32 0xF279E6A1F5E320CCA91135676D9CB6E44CA8A08C0B88342BCDB1144F6511B568 DUP4 DUP4 PUSH1 0x40 MLOAD DUP1 DUP4 DUP2 MSTORE PUSH1 0x20 ADD DUP3 DUP2 MSTORE PUSH1 0x20 ADD SWAP3 POP POP POP PUSH1 0x40 MLOAD DUP1 SWAP2 SUB SWAP1 LOG2 POP POP POP JUMP JUMPDEST PUSH1 0x0 DUP1 PUSH2 0x299A PUSH2 0x20F2 PUSH2 0x3212 JUMP JUMPDEST SWAP1 SWAP3 POP SWAP1 POP DUP2 ISZERO PUSH2 0x2AFB JUMPI DUP2 PUSH32 0x0 PUSH1 0x1 PUSH1 0x1 PUSH1 0xA0 SHL SUB AND PUSH4 0x70A08231 PUSH32 0x0 PUSH1 0x40 MLOAD DUP3 PUSH4 0xFFFFFFFF AND PUSH1 0xE0 SHL DUP2 MSTORE PUSH1 0x4 ADD DUP1 DUP3 PUSH1 0x1 PUSH1 0x1 PUSH1 0xA0 SHL SUB AND DUP2 MSTORE PUSH1 0x20 ADD SWAP2 POP POP PUSH1 0x20 PUSH1 0x40 MLOAD DUP1 DUP4 SUB DUP2 DUP7 DUP1 EXTCODESIZE ISZERO DUP1 ISZERO PUSH2 0x2A33 JUMPI PUSH1 0x0 DUP1 REVERT JUMPDEST POP GAS STATICCALL ISZERO DUP1 ISZERO PUSH2 0x2A47 JUMPI RETURNDATASIZE PUSH1 0x0 DUP1 RETURNDATACOPY RETURNDATASIZE PUSH1 0x0 REVERT JUMPDEST POP POP POP POP PUSH1 0x40 MLOAD RETURNDATASIZE PUSH1 0x20 DUP2 LT ISZERO PUSH2 0x2A5D JUMPI PUSH1 0x0 DUP1 REVERT JUMPDEST POP MLOAD LT PUSH2 0x2AFB JUMPI PUSH32 0x0 PUSH1 0x1 PUSH1 0x1 PUSH1 0xA0 SHL SUB AND PUSH4 0xE4E103DC PUSH2 0x2A9B PUSH2 0x3212 JUMP JUMPDEST DUP5 PUSH1 0x40 MLOAD DUP4 PUSH4 0xFFFFFFFF AND PUSH1 0xE0 SHL DUP2 MSTORE PUSH1 0x4 ADD DUP1 DUP4 PUSH1 0x1 PUSH1 0x1 PUSH1 0xA0 SHL SUB AND DUP2 MSTORE PUSH1 0x20 ADD DUP3 DUP2 MSTORE PUSH1 0x20 ADD SWAP3 POP POP POP PUSH1 0x0 PUSH1 0x40 MLOAD DUP1 DUP4 SUB DUP2 PUSH1 0x0 DUP8 DUP1 EXTCODESIZE ISZERO DUP1 ISZERO PUSH2 0x2AE2 JUMPI PUSH1 0x0 DUP1 REVERT JUMPDEST POP GAS CALL ISZERO DUP1 ISZERO PUSH2 0x2AF6 JUMPI RETURNDATASIZE PUSH1 0x0 DUP1 RETURNDATACOPY RETURNDATASIZE PUSH1 0x0 REVERT JUMPDEST POP POP POP POP JUMPDEST PUSH2 0x2B0B PUSH2 0x2B06 PUSH2 0x3212 JUMP JUMPDEST PUSH2 0x3E63 JUMP JUMPDEST PUSH1 0xC SLOAD PUSH1 0x1 PUSH1 0xA8 SHL SWAP1 DIV PUSH1 0xFF AND ISZERO PUSH2 0x2D5D JUMPI PUSH32 0x0 ISZERO PUSH2 0x2C3D JUMPI DUP1 ISZERO PUSH2 0x2C2D JUMPI PUSH32 0x0 PUSH1 0x1 PUSH1 0x1 PUSH1 0xA0 SHL SUB AND PUSH4 0xA9059CBB PUSH2 0x2B80 PUSH2 0x3212 JUMP JUMPDEST DUP4 PUSH1 0x40 MLOAD DUP4 PUSH4 0xFFFFFFFF AND PUSH1 0xE0 SHL DUP2 MSTORE PUSH1 0x4 ADD DUP1 DUP4 PUSH1 0x1 PUSH1 0x1 PUSH1 0xA0 SHL SUB AND DUP2 MSTORE PUSH1 0x20 ADD DUP3 DUP2 MSTORE PUSH1 0x20 ADD SWAP3 POP POP POP PUSH1 0x20 PUSH1 0x40 MLOAD DUP1 DUP4 SUB DUP2 PUSH1 0x0 DUP8 DUP1 EXTCODESIZE ISZERO DUP1 ISZERO PUSH2 0x2BC7 JUMPI PUSH1 0x0 DUP1 REVERT JUMPDEST POP GAS CALL ISZERO DUP1 ISZERO PUSH2 0x2BDB JUMPI RETURNDATASIZE PUSH1 0x0 DUP1 RETURNDATACOPY RETURNDATASIZE PUSH1 0x0 REVERT JUMPDEST POP POP POP POP PUSH1 0x40 MLOAD RETURNDATASIZE PUSH1 0x20 DUP2 LT ISZERO PUSH2 0x2BF1 JUMPI PUSH1 0x0 DUP1 REVERT JUMPDEST POP MLOAD PUSH2 0x2C2D JUMPI PUSH1 0x40 DUP1 MLOAD PUSH3 0x461BCD PUSH1 0xE5 SHL DUP2 MSTORE PUSH1 0x20 PUSH1 0x4 DUP1 DUP4 ADD SWAP2 SWAP1 SWAP2 MSTORE PUSH1 0x24 DUP3 ADD MSTORE PUSH4 0x3033323 PUSH1 0xE4 SHL PUSH1 0x44 DUP3 ADD MSTORE SWAP1 MLOAD SWAP1 DUP2 SWAP1 SUB PUSH1 0x64 ADD SWAP1 REVERT JUMPDEST PUSH2 0x2C3D PUSH2 0x2C38 PUSH2 0x3212 JUMP JUMPDEST PUSH2 0x3F02 JUMP JUMPDEST PUSH1 0x0 PUSH2 0x2C4F PUSH2 0x2C4A PUSH2 0x3212 JUMP JUMPDEST PUSH2 0x3F6A JUMP JUMPDEST SWAP1 POP DUP1 ISZERO PUSH2 0x2D5B JUMPI PUSH32 0x0 PUSH1 0x1 PUSH1 0x1 PUSH1 0xA0 SHL SUB AND PUSH4 0xA9059CBB PUSH2 0x2C8E PUSH2 0x3212 JUMP JUMPDEST DUP4 PUSH1 0x40 MLOAD DUP4 PUSH4 0xFFFFFFFF AND PUSH1 0xE0 SHL DUP2 MSTORE PUSH1 0x4 ADD DUP1 DUP4 PUSH1 0x1 PUSH1 0x1 PUSH1 0xA0 SHL SUB AND DUP2 MSTORE PUSH1 0x20 ADD DUP3 DUP2 MSTORE PUSH1 0x20 ADD SWAP3 POP POP POP PUSH1 0x20 PUSH1 0x40 MLOAD DUP1 DUP4 SUB DUP2 PUSH1 0x0 DUP8 DUP1 EXTCODESIZE ISZERO DUP1 ISZERO PUSH2 0x2CD5 JUMPI PUSH1 0x0 DUP1 REVERT JUMPDEST POP GAS CALL ISZERO DUP1 ISZERO PUSH2 0x2CE9 JUMPI RETURNDATASIZE PUSH1 0x0 DUP1 RETURNDATACOPY RETURNDATASIZE PUSH1 0x0 REVERT JUMPDEST POP POP POP POP PUSH1 0x40 MLOAD RETURNDATASIZE PUSH1 0x20 DUP2 LT ISZERO PUSH2 0x2CFF JUMPI PUSH1 0x0 DUP1 REVERT JUMPDEST POP PUSH2 0x2D12 SWAP1 POP PUSH2 0x2D0D PUSH2 0x3212 JUMP JUMPDEST PUSH2 0x40A8 JUMP JUMPDEST PUSH2 0x2D1A PUSH2 0x3212 JUMP JUMPDEST PUSH1 0x1 PUSH1 0x1 PUSH1 0xA0 SHL SUB AND PUSH32 0x85082129D87B2FE11527CB1B3B7A520AEB5AA6913F88A3D8757FE40D1DB02FDD DUP3 PUSH1 0x40 MLOAD DUP1 DUP3 DUP2 MSTORE PUSH1 0x20 ADD SWAP2 POP POP PUSH1 0x40 MLOAD DUP1 SWAP2 SUB SWAP1 LOG2 JUMPDEST POP JUMPDEST PUSH2 0x2D65 PUSH2 0x3212 JUMP JUMPDEST PUSH1 0x1 PUSH1 0x1 PUSH1 0xA0 SHL SUB AND PUSH32 0xF279E6A1F5E320CCA91135676D9CB6E44CA8A08C0B88342BCDB1144F6511B568 DUP4 DUP4 PUSH1 0x40 MLOAD DUP1 DUP4 DUP2 MSTORE PUSH1 0x20 ADD DUP3 DUP2 MSTORE PUSH1 0x20 ADD SWAP3 POP POP POP PUSH1 0x40 MLOAD DUP1 SWAP2 SUB SWAP1 LOG2 POP POP JUMP JUMPDEST PUSH1 0x0 PUSH1 0x9 SLOAD PUSH1 0x0 EQ ISZERO PUSH2 0x2DC6 JUMPI POP PUSH1 0x0 PUSH2 0xEB3 JUMP JUMPDEST PUSH1 0x0 DUP1 JUMPDEST PUSH1 0x7 SLOAD DUP2 LT ISZERO PUSH2 0x2EE2 JUMPI PUSH1 0x0 PUSH1 0x6 PUSH1 0x0 PUSH1 0x7 DUP5 DUP2 SLOAD DUP2 LT PUSH2 0x2DE7 JUMPI INVALID JUMPDEST PUSH1 0x0 SWAP2 DUP3 MSTORE PUSH1 0x20 DUP1 DUP4 KECCAK256 PUSH1 0x2 SWAP1 SWAP3 MUL SWAP1 SWAP2 ADD SLOAD PUSH1 0x1 PUSH1 0x1 PUSH1 0xA0 SHL SUB AND DUP4 MSTORE DUP3 ADD SWAP3 SWAP1 SWAP3 MSTORE PUSH1 0x40 ADD SWAP1 KECCAK256 PUSH1 0x7 DUP1 SLOAD DUP5 SWAP1 DUP2 LT PUSH2 0x2E1E JUMPI INVALID JUMPDEST SWAP1 PUSH1 0x0 MSTORE PUSH1 0x20 PUSH1 0x0 KECCAK256 SWAP1 PUSH1 0x2 MUL ADD PUSH1 0x1 ADD SLOAD DUP2 SLOAD DUP2 LT PUSH2 0x2E3A JUMPI INVALID JUMPDEST PUSH1 0x0 SWAP2 DUP3 MSTORE PUSH1 0x20 SWAP2 DUP3 SWAP1 KECCAK256 PUSH1 0x40 DUP1 MLOAD PUSH2 0x120 DUP2 ADD DUP3 MSTORE PUSH1 0x8 SWAP1 SWAP4 MUL SWAP1 SWAP2 ADD DUP1 SLOAD DUP1 DUP5 MSTORE PUSH1 0x1 DUP3 ADD SLOAD SWAP5 DUP5 ADD SWAP5 SWAP1 SWAP5 MSTORE PUSH1 0x2 DUP2 ADD SLOAD SWAP2 DUP4 ADD SWAP2 SWAP1 SWAP2 MSTORE PUSH1 0x3 DUP2 ADD SLOAD PUSH1 0x60 DUP4 ADD MSTORE PUSH1 0x4 DUP2 ADD SLOAD PUSH1 0x80 DUP4 ADD DUP2 SWAP1 MSTORE PUSH1 0x5 DUP3 ADD SLOAD PUSH1 0xA0 DUP5 ADD MSTORE PUSH1 0x6 DUP3 ADD SLOAD PUSH1 0xC0 DUP5 ADD MSTORE PUSH1 0x7 SWAP1 SWAP2 ADD SLOAD PUSH1 0xFF DUP1 DUP3 AND ISZERO ISZERO PUSH1 0xE0 DUP6 ADD MSTORE PUSH2 0x100 SWAP2 DUP3 SWAP1 DIV AND ISZERO ISZERO SWAP1 DUP4 ADD MSTORE SWAP1 SWAP3 POP PUSH2 0x2ED7 SWAP2 PUSH2 0x2ED0 SWAP2 SWAP1 PUSH2 0x34BB JUMP JUMPDEST DUP5 SWAP1 PUSH2 0x345A JUMP JUMPDEST SWAP3 POP POP PUSH1 0x1 ADD PUSH2 0x2DCA JUMP JUMPDEST POP PUSH1 0x9 SLOAD PUSH2 0x2466 SWAP1 DUP3 SWAP1 PUSH2 0x3514 JUMP JUMPDEST PUSH1 0x2 SLOAD PUSH1 0x40 DUP1 MLOAD PUSH4 0x70A08231 PUSH1 0xE0 SHL DUP2 MSTORE ADDRESS PUSH1 0x4 DUP3 ADD MSTORE SWAP1 MLOAD PUSH1 0x0 SWAP3 PUSH1 0x1 PUSH1 0x1 PUSH1 0xA0 SHL SUB AND SWAP2 PUSH4 0x70A08231 SWAP2 PUSH1 0x24 DUP1 DUP4 ADD SWAP3 PUSH1 0x20 SWAP3 SWAP2 SWAP1 DUP3 SWAP1 SUB ADD DUP2 DUP7 DUP1 EXTCODESIZE ISZERO DUP1 ISZERO PUSH2 0xF25 JUMPI PUSH1 0x0 DUP1 REVERT JUMPDEST PUSH1 0xC SLOAD PUSH1 0x1 PUSH1 0x1 PUSH1 0xA0 SHL SUB AND DUP2 JUMP JUMPDEST PUSH1 0xA SLOAD DUP2 JUMP JUMPDEST PUSH1 0xC SLOAD PUSH1 0x1 PUSH1 0xB0 SHL SWAP1 DIV PUSH1 0xFF AND DUP2 JUMP JUMPDEST PUSH1 0x0 PUSH2 0xB6D PUSH2 0x2F6E PUSH2 0x3212 JUMP JUMPDEST DUP4 PUSH2 0x3CB1 JUMP JUMPDEST PUSH1 0x8 DUP2 DUP2 SLOAD DUP2 LT PUSH2 0x2F84 JUMPI PUSH1 0x0 DUP1 REVERT JUMPDEST PUSH1 0x0 SWAP2 DUP3 MSTORE PUSH1 0x20 SWAP1 SWAP2 KECCAK256 PUSH1 0x2 SWAP1 SWAP2 MUL ADD DUP1 SLOAD PUSH1 0x1 SWAP1 SWAP2 ADD SLOAD PUSH1 0x1 PUSH1 0x1 PUSH1 0xA0 SHL SUB SWAP1 SWAP2 AND SWAP2 POP DUP3 JUMP JUMPDEST PUSH32 0x0 DUP2 JUMP JUMPDEST PUSH32 0x0 DUP2 JUMP JUMPDEST PUSH1 0x0 PUSH2 0x3006 PUSH2 0x3001 PUSH2 0x3212 JUMP JUMPDEST PUSH2 0x1451 JUMP JUMPDEST SWAP1 POP SWAP1 JUMP JUMPDEST PUSH1 0x0 DUP1 PUSH2 0x2498 PUSH2 0x3019 PUSH2 0x3212 JUMP JUMPDEST DUP5 PUSH2 0x4117 JUMP JUMPDEST PUSH1 0x0 DUP1 PUSH1 0x1 PUSH1 0x0 SWAP1 SLOAD SWAP1 PUSH2 0x100 EXP SWAP1 DIV PUSH1 0x1 PUSH1 0x1 PUSH1 0xA0 SHL SUB AND PUSH1 0x1 PUSH1 0x1 PUSH1 0xA0 SHL SUB AND PUSH4 0x313CE567 PUSH1 0x40 MLOAD DUP2 PUSH4 0xFFFFFFFF AND PUSH1 0xE0 SHL DUP2 MSTORE PUSH1 0x4 ADD PUSH1 0x20 PUSH1 0x40 MLOAD DUP1 DUP4 SUB DUP2 DUP7 DUP1 EXTCODESIZE ISZERO DUP1 ISZERO PUSH2 0x3070 JUMPI PUSH1 0x0 DUP1 REVERT JUMPDEST POP GAS STATICCALL ISZERO DUP1 ISZERO PUSH2 0x3084 JUMPI RETURNDATASIZE PUSH1 0x0 DUP1 RETURNDATACOPY RETURNDATASIZE PUSH1 0x0 REVERT JUMPDEST POP POP POP POP PUSH1 0x40 MLOAD RETURNDATASIZE PUSH1 0x20 DUP2 LT ISZERO PUSH2 0x309A JUMPI PUSH1 0x0 DUP1 REVERT JUMPDEST POP MLOAD SWAP2 POP POP SWAP1 JUMP JUMPDEST PUSH1 0xD DUP2 DUP2 SLOAD DUP2 LT PUSH2 0x30B2 JUMPI PUSH1 0x0 DUP1 REVERT JUMPDEST PUSH1 0x0 SWAP2 DUP3 MSTORE PUSH1 0x20 SWAP1 SWAP2 KECCAK256 PUSH1 0x2 SWAP1 SWAP2 MUL ADD DUP1 SLOAD PUSH1 0x1 SWAP1 SWAP2 ADD SLOAD SWAP1 SWAP2 POP DUP3 JUMP JUMPDEST PUSH2 0x30D8 PUSH2 0x3212 JUMP JUMPDEST PUSH1 0x1 PUSH1 0x1 PUSH1 0xA0 SHL SUB AND PUSH2 0x30E9 PUSH2 0x23C3 JUMP JUMPDEST PUSH1 0x1 PUSH1 0x1 PUSH1 0xA0 SHL SUB AND EQ PUSH2 0x3144 JUMPI PUSH1 0x40 DUP1 MLOAD PUSH3 0x461BCD PUSH1 0xE5 SHL DUP2 MSTORE PUSH1 0x20 PUSH1 0x4 DUP3 ADD DUP2 SWAP1 MSTORE PUSH1 0x24 DUP3 ADD MSTORE PUSH32 0x4F776E61626C653A2063616C6C6572206973206E6F7420746865206F776E6572 PUSH1 0x44 DUP3 ADD MSTORE SWAP1 MLOAD SWAP1 DUP2 SWAP1 SUB PUSH1 0x64 ADD SWAP1 REVERT JUMPDEST PUSH1 0x1 PUSH1 0x1 PUSH1 0xA0 SHL SUB DUP2 AND PUSH2 0x3189 JUMPI PUSH1 0x40 MLOAD PUSH3 0x461BCD PUSH1 0xE5 SHL DUP2 MSTORE PUSH1 0x4 ADD DUP1 DUP1 PUSH1 0x20 ADD DUP3 DUP2 SUB DUP3 MSTORE PUSH1 0x26 DUP2 MSTORE PUSH1 0x20 ADD DUP1 PUSH2 0x4690 PUSH1 0x26 SWAP2 CODECOPY PUSH1 0x40 ADD SWAP2 POP POP PUSH1 0x40 MLOAD DUP1 SWAP2 SUB SWAP1 REVERT JUMPDEST PUSH1 0x0 DUP1 SLOAD PUSH1 0x40 MLOAD PUSH1 0x1 PUSH1 0x1 PUSH1 0xA0 SHL SUB DUP1 DUP6 AND SWAP4 SWAP3 AND SWAP2 PUSH32 0x8BE0079C531659141344CD1FD0A4F28419497F9722A3DAAFE3B4186F6B6457E0 SWAP2 LOG3 PUSH1 0x0 DUP1 SLOAD PUSH1 0x1 PUSH1 0x1 PUSH1 0xA0 SHL SUB NOT AND PUSH1 0x1 PUSH1 0x1 PUSH1 0xA0 SHL SUB SWAP3 SWAP1 SWAP3 AND SWAP2 SWAP1 SWAP2 OR SWAP1 SSTORE JUMP JUMPDEST PUSH1 0xB SLOAD DUP2 JUMP JUMPDEST PUSH1 0x2 SLOAD PUSH1 0x1 PUSH1 0x1 PUSH1 0xA0 SHL SUB AND SWAP1 JUMP JUMPDEST PUSH1 0x7 DUP2 DUP2 SLOAD DUP2 LT PUSH2 0x2F84 JUMPI PUSH1 0x0 DUP1 REVERT JUMPDEST PUSH1 0x0 PUSH2 0x3006 PUSH2 0x2C4A JUMPDEST CALLER SWAP1 JUMP JUMPDEST PUSH1 0x0 PUSH1 0xA SLOAD DUP4 GT ISZERO PUSH2 0x3254 JUMPI PUSH1 0xA SLOAD PUSH2 0x322F DUP5 DUP5 PUSH2 0x358D JUMP JUMPDEST GT PUSH2 0x323C JUMPI POP PUSH1 0x0 PUSH2 0xB6D JUMP JUMPDEST PUSH1 0xA SLOAD PUSH2 0x324D SWAP1 PUSH2 0x1C97 DUP6 DUP6 PUSH2 0x358D JUMP JUMPDEST SWAP1 POP PUSH2 0xB6D JUMP JUMPDEST PUSH1 0xA SLOAD PUSH2 0x3261 DUP5 DUP5 PUSH2 0x345A JUMP JUMPDEST LT PUSH2 0x326E JUMPI POP PUSH1 0x0 PUSH2 0xB6D JUMP JUMPDEST PUSH2 0x324D PUSH2 0x327B DUP5 DUP5 PUSH2 0x345A JUMP JUMPDEST PUSH1 0xA SLOAD SWAP1 PUSH2 0x358D JUMP JUMPDEST PUSH1 0xC DUP1 SLOAD PUSH1 0xFF PUSH1 0xA0 SHL NOT AND PUSH1 0x1 PUSH1 0xA0 SHL OR SWAP1 SSTORE PUSH1 0x40 MLOAD PUSH32 0x2E136745550967F28B779CE8C395CA060A2F844EDFB5B06631FE677F66F9E305 SWAP1 PUSH1 0x0 SWAP1 LOG1 JUMP JUMPDEST PUSH1 0x1 PUSH1 0x1 PUSH1 0xA0 SHL SUB DUP3 AND PUSH1 0x0 SWAP1 DUP2 MSTORE PUSH1 0x6 PUSH1 0x20 MSTORE PUSH1 0x40 DUP2 KECCAK256 DUP1 SLOAD DUP3 SWAP2 SWAP1 DUP5 SWAP1 DUP2 LT PUSH2 0x32E9 JUMPI INVALID JUMPDEST PUSH1 0x0 SWAP2 DUP3 MSTORE PUSH1 0x20 DUP1 DUP4 KECCAK256 PUSH1 0x40 DUP1 MLOAD PUSH2 0x120 DUP2 ADD DUP3 MSTORE PUSH1 0x8 SWAP1 SWAP5 MUL SWAP1 SWAP2 ADD DUP1 SLOAD DUP5 MSTORE PUSH1 0x1 DUP2 ADD SLOAD SWAP3 DUP5 ADD SWAP3 SWAP1 SWAP3 MSTORE PUSH1 0x2 DUP3 ADD SLOAD SWAP1 DUP4 ADD MSTORE PUSH1 0x3 DUP2 ADD SLOAD PUSH1 0x60 DUP4 ADD MSTORE PUSH1 0x4 DUP2 ADD SLOAD PUSH1 0x80 DUP4 ADD MSTORE PUSH1 0x5 DUP2 ADD SLOAD PUSH1 0xA0 DUP4 ADD MSTORE PUSH1 0x6 DUP2 ADD SLOAD PUSH1 0xC0 DUP4 ADD MSTORE PUSH1 0x7 ADD SLOAD PUSH1 0xFF DUP1 DUP3 AND ISZERO ISZERO PUSH1 0xE0 DUP5 ADD MSTORE PUSH2 0x100 SWAP2 DUP3 SWAP1 DIV AND ISZERO ISZERO SWAP1 DUP3 ADD MSTORE SWAP2 POP PUSH32 0x0 PUSH32 0x0 ADD PUSH32 0x0 ADD SWAP1 TIMESTAMP DUP3 LT PUSH2 0x33DA JUMPI TIMESTAMP PUSH2 0x33DC JUMP JUMPDEST DUP2 JUMPDEST SWAP1 POP PUSH1 0x0 PUSH2 0x33ED DUP5 PUSH1 0x20 ADD MLOAD PUSH2 0x4330 JUMP JUMPDEST SWAP1 POP PUSH1 0x0 PUSH2 0x3435 PUSH2 0x341E PUSH32 0x0 DUP5 PUSH2 0x345A JUMP JUMPDEST PUSH1 0x20 DUP8 ADD MLOAD PUSH2 0x342E SWAP1 DUP7 SWAP1 PUSH2 0x358D JUMP JUMPDEST DUP8 MLOAD PUSH2 0x4437 JUMP JUMPDEST SWAP1 POP PUSH2 0x344E DUP6 PUSH1 0x40 ADD MLOAD DUP3 PUSH2 0x358D SWAP1 SWAP2 SWAP1 PUSH4 0xFFFFFFFF AND JUMP JUMPDEST SWAP9 SWAP8 POP POP POP POP POP POP POP POP JUMP JUMPDEST PUSH1 0x0 DUP3 DUP3 ADD DUP4 DUP2 LT ISZERO PUSH2 0x34B4 JUMPI PUSH1 0x40 DUP1 MLOAD PUSH3 0x461BCD PUSH1 0xE5 SHL DUP2 MSTORE PUSH1 0x20 PUSH1 0x4 DUP3 ADD MSTORE PUSH1 0x1B PUSH1 0x24 DUP3 ADD MSTORE PUSH32 0x536166654D6174683A206164646974696F6E206F766572666C6F770000000000 PUSH1 0x44 DUP3 ADD MSTORE SWAP1 MLOAD SWAP1 DUP2 SWAP1 SUB PUSH1 0x64 ADD SWAP1 REVERT JUMPDEST SWAP4 SWAP3 POP POP POP JUMP JUMPDEST PUSH1 0x0 DUP3 PUSH2 0x34CA JUMPI POP PUSH1 0x0 PUSH2 0xB6D JUMP JUMPDEST DUP3 DUP3 MUL DUP3 DUP5 DUP3 DUP2 PUSH2 0x34D7 JUMPI INVALID JUMPDEST DIV EQ PUSH2 0x34B4 JUMPI PUSH1 0x40 MLOAD PUSH3 0x461BCD PUSH1 0xE5 SHL DUP2 MSTORE PUSH1 0x4 ADD DUP1 DUP1 PUSH1 0x20 ADD DUP3 DUP2 SUB DUP3 MSTORE PUSH1 0x21 DUP2 MSTORE PUSH1 0x20 ADD DUP1 PUSH2 0x474A PUSH1 0x21 SWAP2 CODECOPY PUSH1 0x40 ADD SWAP2 POP POP PUSH1 0x40 MLOAD DUP1 SWAP2 SUB SWAP1 REVERT JUMPDEST PUSH1 0x0 DUP1 DUP3 GT PUSH2 0x356A JUMPI PUSH1 0x40 DUP1 MLOAD PUSH3 0x461BCD PUSH1 0xE5 SHL DUP2 MSTORE PUSH1 0x20 PUSH1 0x4 DUP3 ADD MSTORE PUSH1 0x1A PUSH1 0x24 DUP3 ADD MSTORE PUSH32 0x536166654D6174683A206469766973696F6E206279207A65726F000000000000 PUSH1 0x44 DUP3 ADD MSTORE SWAP1 MLOAD SWAP1 DUP2 SWAP1 SUB PUSH1 0x64 ADD SWAP1 REVERT JUMPDEST DUP2 DUP4 DUP2 PUSH2 0x3573 JUMPI INVALID JUMPDEST DIV SWAP4 SWAP3 POP POP POP JUMP JUMPDEST PUSH1 0x0 PUSH2 0x34B4 PUSH2 0x2710 PUSH2 0x1B08 DUP6 DUP6 PUSH2 0x34BB JUMP JUMPDEST PUSH1 0x0 DUP3 DUP3 GT ISZERO PUSH2 0x35E4 JUMPI PUSH1 0x40 DUP1 MLOAD PUSH3 0x461BCD PUSH1 0xE5 SHL DUP2 MSTORE PUSH1 0x20 PUSH1 0x4 DUP3 ADD MSTORE PUSH1 0x1E PUSH1 0x24 DUP3 ADD MSTORE PUSH32 0x536166654D6174683A207375627472616374696F6E206F766572666C6F770000 PUSH1 0x44 DUP3 ADD MSTORE SWAP1 MLOAD SWAP1 DUP2 SWAP1 SUB PUSH1 0x64 ADD SWAP1 REVERT JUMPDEST POP SWAP1 SUB SWAP1 JUMP JUMPDEST PUSH1 0x0 DUP1 PUSH1 0x0 DUP4 PUSH32 0x0 GT PUSH2 0x361D JUMPI PUSH1 0x0 PUSH2 0x3647 JUMP JUMPDEST PUSH2 0x3647 PUSH32 0x0 DUP6 PUSH2 0x358D JUMP JUMPDEST SWAP1 POP DUP1 PUSH2 0x365B JUMPI PUSH1 0x0 DUP6 SWAP3 POP SWAP3 POP POP PUSH2 0x367F JUMP JUMPDEST PUSH2 0x3665 DUP6 DUP3 PUSH2 0x357B JUMP JUMPDEST PUSH2 0x3679 PUSH2 0x3672 DUP8 DUP5 PUSH2 0x357B JUMP JUMPDEST DUP8 SWAP1 PUSH2 0x358D JUMP JUMPDEST SWAP3 POP SWAP3 POP POP JUMPDEST SWAP3 POP SWAP3 SWAP1 POP JUMP JUMPDEST PUSH1 0x0 DUP1 PUSH1 0x0 DUP1 PUSH1 0x0 PUSH2 0x3697 DUP7 PUSH2 0x1451 JUMP JUMPDEST SWAP1 POP PUSH2 0x36A2 DUP7 PUSH2 0x391B JUMP JUMPDEST SWAP1 SWAP4 POP SWAP2 POP PUSH2 0x36B1 DUP2 DUP5 PUSH2 0x345A JUMP JUMPDEST SWAP5 POP SWAP1 SWAP3 POP POP POP SWAP2 POP SWAP2 JUMP JUMPDEST PUSH1 0x2 SLOAD PUSH1 0x40 DUP1 MLOAD PUSH4 0x95EA7B3 PUSH1 0xE0 SHL DUP2 MSTORE PUSH1 0x1 PUSH1 0x1 PUSH1 0xA0 SHL SUB DUP6 DUP2 AND PUSH1 0x4 DUP4 ADD MSTORE PUSH1 0x24 DUP3 ADD DUP6 SWAP1 MSTORE SWAP2 MLOAD SWAP2 SWAP1 SWAP3 AND SWAP2 PUSH4 0x95EA7B3 SWAP2 PUSH1 0x44 DUP1 DUP4 ADD SWAP3 PUSH1 0x20 SWAP3 SWAP2 SWAP1 DUP3 SWAP1 SUB ADD DUP2 PUSH1 0x0 DUP8 DUP1 EXTCODESIZE ISZERO DUP1 ISZERO PUSH2 0x3713 JUMPI PUSH1 0x0 DUP1 REVERT JUMPDEST POP GAS CALL ISZERO DUP1 ISZERO PUSH2 0x3727 JUMPI RETURNDATASIZE PUSH1 0x0 DUP1 RETURNDATACOPY RETURNDATASIZE PUSH1 0x0 REVERT JUMPDEST POP POP POP POP PUSH1 0x40 MLOAD RETURNDATASIZE PUSH1 0x20 DUP2 LT ISZERO PUSH2 0x373D JUMPI PUSH1 0x0 DUP1 REVERT JUMPDEST POP POP PUSH1 0x40 DUP1 MLOAD DUP3 DUP2 MSTORE SWAP1 MLOAD PUSH1 0x1 PUSH1 0x1 PUSH1 0xA0 SHL SUB DUP5 AND SWAP2 PUSH32 0xD77DF63D9076D067D9FD7AF16C3D67DB48B84064C3314F5900AE919922D364A1 SWAP2 SWAP1 DUP2 SWAP1 SUB PUSH1 0x20 ADD SWAP1 LOG2 POP POP JUMP JUMPDEST PUSH1 0x1 PUSH1 0x1 PUSH1 0xA0 SHL SUB DUP5 AND PUSH2 0x3795 JUMPI PUSH1 0x0 DUP1 REVERT JUMPDEST PUSH1 0x3 SLOAD PUSH1 0x1 PUSH1 0x1 PUSH1 0xA0 SHL SUB AND PUSH4 0x38ED1739 DUP5 DUP5 PUSH2 0x37B0 PUSH2 0x24B7 JUMP JUMPDEST DUP9 DUP7 PUSH1 0x40 MLOAD DUP7 PUSH4 0xFFFFFFFF AND PUSH1 0xE0 SHL DUP2 MSTORE PUSH1 0x4 ADD DUP1 DUP7 DUP2 MSTORE PUSH1 0x20 ADD DUP6 DUP2 MSTORE PUSH1 0x20 ADD DUP1 PUSH1 0x20 ADD DUP5 PUSH1 0x1 PUSH1 0x1 PUSH1 0xA0 SHL SUB AND DUP2 MSTORE PUSH1 0x20 ADD DUP4 DUP2 MSTORE PUSH1 0x20 ADD DUP3 DUP2 SUB DUP3 MSTORE DUP6 DUP2 DUP2 MLOAD DUP2 MSTORE PUSH1 0x20 ADD SWAP2 POP DUP1 MLOAD SWAP1 PUSH1 0x20 ADD SWAP1 PUSH1 0x20 MUL DUP1 DUP4 DUP4 PUSH1 0x0 JUMPDEST DUP4 DUP2 LT ISZERO PUSH2 0x3822 JUMPI DUP2 DUP2 ADD MLOAD DUP4 DUP3 ADD MSTORE PUSH1 0x20 ADD PUSH2 0x380A JUMP JUMPDEST POP POP POP POP SWAP1 POP ADD SWAP7 POP POP POP POP POP POP POP PUSH1 0x0 PUSH1 0x40 MLOAD DUP1 DUP4 SUB DUP2 PUSH1 0x0 DUP8 DUP1 EXTCODESIZE ISZERO DUP1 ISZERO PUSH2 0x384B JUMPI PUSH1 0x0 DUP1 REVERT JUMPDEST POP GAS CALL ISZERO DUP1 ISZERO PUSH2 0x385F JUMPI RETURNDATASIZE PUSH1 0x0 DUP1 RETURNDATACOPY RETURNDATASIZE PUSH1 0x0 REVERT JUMPDEST POP POP POP POP PUSH1 0x40 MLOAD RETURNDATASIZE PUSH1 0x0 DUP3 RETURNDATACOPY PUSH1 0x1F RETURNDATASIZE SWAP1 DUP2 ADD PUSH1 0x1F NOT AND DUP3 ADD PUSH1 0x40 MSTORE PUSH1 0x20 DUP2 LT ISZERO PUSH2 0x3888 JUMPI PUSH1 0x0 DUP1 REVERT JUMPDEST DUP2 ADD SWAP1 DUP1 DUP1 MLOAD PUSH1 0x40 MLOAD SWAP4 SWAP3 SWAP2 SWAP1 DUP5 PUSH5 0x100000000 DUP3 GT ISZERO PUSH2 0x38A8 JUMPI PUSH1 0x0 DUP1 REVERT JUMPDEST SWAP1 DUP4 ADD SWAP1 PUSH1 0x20 DUP3 ADD DUP6 DUP2 GT ISZERO PUSH2 0x38BD JUMPI PUSH1 0x0 DUP1 REVERT JUMPDEST DUP3 MLOAD DUP7 PUSH1 0x20 DUP3 MUL DUP4 ADD GT PUSH5 0x100000000 DUP3 GT OR ISZERO PUSH2 0x38DA JUMPI PUSH1 0x0 DUP1 REVERT JUMPDEST DUP3 MSTORE POP DUP2 MLOAD PUSH1 0x20 SWAP2 DUP3 ADD SWAP3 DUP3 ADD SWAP2 MUL DUP1 DUP4 DUP4 PUSH1 0x0 JUMPDEST DUP4 DUP2 LT ISZERO PUSH2 0x3907 JUMPI DUP2 DUP2 ADD MLOAD DUP4 DUP3 ADD MSTORE PUSH1 0x20 ADD PUSH2 0x38EF JUMP JUMPDEST POP POP POP POP SWAP1 POP ADD PUSH1 0x40 MSTORE POP POP POP POP POP POP POP POP JUMP JUMPDEST PUSH1 0xC SLOAD PUSH1 0x0 SWAP1 DUP2 SWAP1 PUSH1 0x1 PUSH1 0xA8 SHL SWAP1 DIV PUSH1 0xFF AND PUSH2 0x393C JUMPI POP PUSH1 0x0 SWAP1 POP DUP1 PUSH2 0x249D JUMP JUMPDEST PUSH1 0x1 PUSH1 0x1 PUSH1 0xA0 SHL SUB DUP4 AND PUSH1 0x0 SWAP1 DUP2 MSTORE PUSH1 0x6 PUSH1 0x20 SWAP1 DUP2 MSTORE PUSH1 0x40 DUP1 DUP4 KECCAK256 DUP1 SLOAD DUP3 MLOAD DUP2 DUP6 MUL DUP2 ADD DUP6 ADD SWAP1 SWAP4 MSTORE DUP1 DUP4 MSTORE SWAP2 SWAP3 SWAP1 SWAP2 SWAP1 DUP5 SWAP1 DUP5 ADD JUMPDEST DUP3 DUP3 LT ISZERO PUSH2 0x3A04 JUMPI PUSH1 0x0 DUP5 DUP2 MSTORE PUSH1 0x20 SWAP1 DUP2 SWAP1 KECCAK256 PUSH1 0x40 DUP1 MLOAD PUSH2 0x120 DUP2 ADD DUP3 MSTORE PUSH1 0x8 DUP7 MUL SWAP1 SWAP3 ADD DUP1 SLOAD DUP4 MSTORE PUSH1 0x1 DUP1 DUP3 ADD SLOAD DUP5 DUP7 ADD MSTORE PUSH1 0x2 DUP3 ADD SLOAD SWAP3 DUP5 ADD SWAP3 SWAP1 SWAP3 MSTORE PUSH1 0x3 DUP2 ADD SLOAD PUSH1 0x60 DUP5 ADD MSTORE PUSH1 0x4 DUP2 ADD SLOAD PUSH1 0x80 DUP5 ADD MSTORE PUSH1 0x5 DUP2 ADD SLOAD PUSH1 0xA0 DUP5 ADD MSTORE PUSH1 0x6 DUP2 ADD SLOAD PUSH1 0xC0 DUP5 ADD MSTORE PUSH1 0x7 ADD SLOAD PUSH1 0xFF DUP1 DUP3 AND ISZERO ISZERO PUSH1 0xE0 DUP6 ADD MSTORE PUSH2 0x100 SWAP2 DUP3 SWAP1 DIV AND ISZERO ISZERO SWAP1 DUP4 ADD MSTORE SWAP1 DUP4 MSTORE SWAP1 SWAP3 ADD SWAP2 ADD PUSH2 0x3972 JUMP JUMPDEST POP POP POP POP SWAP1 POP DUP1 MLOAD PUSH1 0x0 EQ ISZERO PUSH2 0x3A21 JUMPI PUSH1 0x0 DUP1 SWAP3 POP SWAP3 POP POP PUSH2 0x249D JUMP JUMPDEST PUSH1 0xA SLOAD PUSH1 0x0 SWAP1 PUSH2 0x3A59 SWAP1 PUSH2 0x1B08 PUSH32 0x0 PUSH4 0x5F5E100 PUSH2 0x34BB JUMP JUMPDEST SWAP1 POP PUSH1 0x0 DUP1 PUSH1 0x0 JUMPDEST DUP5 MLOAD DUP2 LT ISZERO PUSH2 0x3AF9 JUMPI DUP5 DUP2 DUP2 MLOAD DUP2 LT PUSH2 0x3A76 JUMPI INVALID JUMPDEST PUSH1 0x20 MUL PUSH1 0x20 ADD ADD MLOAD PUSH1 0xE0 ADD MLOAD PUSH2 0x3AF1 JUMPI PUSH1 0x0 PUSH2 0x3AA8 DUP7 DUP4 DUP2 MLOAD DUP2 LT PUSH2 0x3A97 JUMPI INVALID JUMPDEST PUSH1 0x20 MUL PUSH1 0x20 ADD ADD MLOAD PUSH1 0xC0 ADD MLOAD PUSH2 0x4540 JUMP JUMPDEST SWAP1 POP PUSH2 0x3ADE PUSH2 0x3AD7 PUSH32 0x0 DUP4 PUSH2 0x357B JUMP JUMPDEST DUP6 SWAP1 PUSH2 0x345A JUMP JUMPDEST SWAP4 POP PUSH2 0x3AED PUSH2 0x2ED0 DUP7 DUP4 PUSH2 0x357B JUMP JUMPDEST SWAP3 POP POP JUMPDEST PUSH1 0x1 ADD PUSH2 0x3A61 JUMP JUMPDEST POP PUSH1 0xB SLOAD ISZERO PUSH2 0x3B2A JUMPI PUSH1 0xB SLOAD PUSH2 0x3B10 SWAP1 DUP4 SWAP1 PUSH2 0x4667 JUMP JUMPDEST SWAP2 POP PUSH2 0x3B27 PUSH1 0xB SLOAD DUP3 PUSH2 0x4667 SWAP1 SWAP2 SWAP1 PUSH4 0xFFFFFFFF AND JUMP JUMPDEST SWAP1 POP JUMPDEST SWAP1 SWAP5 POP SWAP3 POP POP POP SWAP2 POP SWAP2 JUMP JUMPDEST PUSH1 0x0 DUP1 PUSH1 0x0 DUP1 PUSH1 0x0 PUSH2 0x3B48 DUP8 DUP8 PUSH2 0x18EA JUMP JUMPDEST SWAP1 POP PUSH2 0x3B54 DUP8 DUP8 PUSH2 0x4117 JUMP JUMPDEST SWAP1 SWAP4 POP SWAP2 POP PUSH2 0x3B63 DUP2 DUP5 PUSH2 0x345A JUMP JUMPDEST SWAP8 SWAP2 SWAP7 POP SWAP1 SWAP5 POP POP POP POP POP JUMP JUMPDEST PUSH1 0x1 PUSH1 0x1 PUSH1 0xA0 SHL SUB DUP3 AND PUSH1 0x0 SWAP1 DUP2 MSTORE PUSH1 0x6 PUSH1 0x20 MSTORE PUSH1 0x40 SWAP1 KECCAK256 DUP1 SLOAD PUSH2 0x3B94 JUMPI POP PUSH2 0x3C26 JUMP JUMPDEST DUP1 SLOAD DUP3 LT PUSH2 0x3BA2 JUMPI POP PUSH2 0x3C26 JUMP JUMPDEST PUSH1 0x0 PUSH2 0x3BAE DUP5 DUP5 PUSH2 0x32C2 JUMP JUMPDEST SWAP1 POP TIMESTAMP DUP3 DUP5 DUP2 SLOAD DUP2 LT PUSH2 0x3BBD JUMPI INVALID JUMPDEST SWAP1 PUSH1 0x0 MSTORE PUSH1 0x20 PUSH1 0x0 KECCAK256 SWAP1 PUSH1 0x8 MUL ADD PUSH1 0x3 ADD DUP2 SWAP1 SSTORE POP PUSH2 0x3C02 DUP2 DUP4 DUP6 DUP2 SLOAD DUP2 LT PUSH2 0x3BE2 JUMPI INVALID JUMPDEST SWAP1 PUSH1 0x0 MSTORE PUSH1 0x20 PUSH1 0x0 KECCAK256 SWAP1 PUSH1 0x8 MUL ADD PUSH1 0x2 ADD SLOAD PUSH2 0x345A SWAP1 SWAP2 SWAP1 PUSH4 0xFFFFFFFF AND JUMP JUMPDEST DUP3 DUP5 DUP2 SLOAD DUP2 LT PUSH2 0x3C0E JUMPI INVALID JUMPDEST SWAP1 PUSH1 0x0 MSTORE PUSH1 0x20 PUSH1 0x0 KECCAK256 SWAP1 PUSH1 0x8 MUL ADD PUSH1 0x2 ADD DUP2 SWAP1 SSTORE POP POP POP JUMPDEST POP POP JUMP JUMPDEST PUSH1 0x1 PUSH1 0x1 PUSH1 0xA0 SHL SUB DUP3 AND PUSH1 0x0 SWAP1 DUP2 MSTORE PUSH1 0x6 PUSH1 0x20 MSTORE PUSH1 0x40 SWAP1 KECCAK256 DUP1 SLOAD PUSH2 0x3C4E JUMPI POP PUSH2 0x3C26 JUMP JUMPDEST DUP1 DUP3 DUP2 SLOAD DUP2 LT PUSH2 0x3C5A JUMPI INVALID JUMPDEST PUSH1 0x0 SWAP2 DUP3 MSTORE PUSH1 0x20 SWAP1 SWAP2 KECCAK256 PUSH1 0x7 PUSH1 0x8 SWAP1 SWAP3 MUL ADD ADD SLOAD PUSH1 0xFF AND ISZERO PUSH2 0x3C7C JUMPI POP PUSH2 0x3C26 JUMP JUMPDEST PUSH1 0x1 DUP2 DUP4 DUP2 SLOAD DUP2 LT PUSH2 0x3C8A JUMPI INVALID JUMPDEST PUSH1 0x0 SWAP2 DUP3 MSTORE PUSH1 0x20 SWAP1 SWAP2 KECCAK256 PUSH1 0x8 SWAP1 SWAP2 MUL ADD PUSH1 0x7 ADD DUP1 SLOAD PUSH1 0xFF NOT AND SWAP2 ISZERO ISZERO SWAP2 SWAP1 SWAP2 OR SWAP1 SSTORE POP POP POP JUMP JUMPDEST PUSH1 0x1 PUSH1 0x1 PUSH1 0xA0 SHL SUB DUP3 AND PUSH1 0x0 SWAP1 DUP2 MSTORE PUSH1 0x6 PUSH1 0x20 SWAP1 DUP2 MSTORE PUSH1 0x40 DUP1 DUP4 KECCAK256 DUP1 SLOAD DUP3 MLOAD DUP2 DUP6 MUL DUP2 ADD DUP6 ADD SWAP1 SWAP4 MSTORE DUP1 DUP4 MSTORE DUP5 SWAP4 DUP5 SWAP1 DUP5 ADD JUMPDEST DUP3 DUP3 LT ISZERO PUSH2 0x3D76 JUMPI PUSH1 0x0 DUP5 DUP2 MSTORE PUSH1 0x20 SWAP1 DUP2 SWAP1 KECCAK256 PUSH1 0x40 DUP1 MLOAD PUSH2 0x120 DUP2 ADD DUP3 MSTORE PUSH1 0x8 DUP7 MUL SWAP1 SWAP3 ADD DUP1 SLOAD DUP4 MSTORE PUSH1 0x1 DUP1 DUP3 ADD SLOAD DUP5 DUP7 ADD MSTORE PUSH1 0x2 DUP3 ADD SLOAD SWAP3 DUP5 ADD SWAP3 SWAP1 SWAP3 MSTORE PUSH1 0x3 DUP2 ADD SLOAD PUSH1 0x60 DUP5 ADD MSTORE PUSH1 0x4 DUP2 ADD SLOAD PUSH1 0x80 DUP5 ADD MSTORE PUSH1 0x5 DUP2 ADD SLOAD PUSH1 0xA0 DUP5 ADD MSTORE PUSH1 0x6 DUP2 ADD SLOAD PUSH1 0xC0 DUP5 ADD MSTORE PUSH1 0x7 ADD SLOAD PUSH1 0xFF DUP1 DUP3 AND ISZERO ISZERO PUSH1 0xE0 DUP6 ADD MSTORE PUSH2 0x100 SWAP2 DUP3 SWAP1 DIV AND ISZERO ISZERO SWAP1 DUP4 ADD MSTORE SWAP1 DUP4 MSTORE SWAP1 SWAP3 ADD SWAP2 ADD PUSH2 0x3CE4 JUMP JUMPDEST POP POP POP POP SWAP1 POP DUP1 MLOAD PUSH1 0x0 EQ ISZERO PUSH2 0x3D90 JUMPI PUSH1 0x0 SWAP2 POP POP PUSH2 0xB6D JUMP JUMPDEST DUP1 MLOAD DUP4 LT PUSH2 0x3DA2 JUMPI PUSH1 0x0 SWAP2 POP POP PUSH2 0xB6D JUMP JUMPDEST PUSH1 0x0 DUP2 DUP5 DUP2 MLOAD DUP2 LT PUSH2 0x3DB0 JUMPI INVALID JUMPDEST PUSH1 0x20 MUL PUSH1 0x20 ADD ADD MLOAD PUSH2 0x100 ADD MLOAD PUSH2 0x3DEE JUMPI PUSH2 0x3DEB DUP3 DUP6 DUP2 MLOAD DUP2 LT PUSH2 0x3DD0 JUMPI INVALID JUMPDEST PUSH1 0x20 MUL PUSH1 0x20 ADD ADD MLOAD PUSH1 0x0 ADD MLOAD DUP3 PUSH2 0x345A SWAP1 SWAP2 SWAP1 PUSH4 0xFFFFFFFF AND JUMP JUMPDEST SWAP1 POP JUMPDEST SWAP5 SWAP4 POP POP POP POP JUMP JUMPDEST PUSH1 0x1 PUSH1 0x1 PUSH1 0xA0 SHL SUB DUP3 AND PUSH1 0x0 SWAP1 DUP2 MSTORE PUSH1 0x6 PUSH1 0x20 MSTORE PUSH1 0x40 SWAP1 KECCAK256 DUP1 SLOAD PUSH2 0x3E1A JUMPI POP PUSH2 0x3C26 JUMP JUMPDEST DUP1 SLOAD DUP3 LT PUSH2 0x3E28 JUMPI POP PUSH2 0x3C26 JUMP JUMPDEST PUSH1 0x1 DUP2 DUP4 DUP2 SLOAD DUP2 LT PUSH2 0x3E36 JUMPI INVALID JUMPDEST SWAP1 PUSH1 0x0 MSTORE PUSH1 0x20 PUSH1 0x0 KECCAK256 SWAP1 PUSH1 0x8 MUL ADD PUSH1 0x7 ADD PUSH1 0x1 PUSH2 0x100 EXP DUP2 SLOAD DUP2 PUSH1 0xFF MUL NOT AND SWAP1 DUP4 ISZERO ISZERO MUL OR SWAP1 SSTORE POP POP POP POP JUMP JUMPDEST PUSH1 0x1 PUSH1 0x1 PUSH1 0xA0 SHL SUB DUP2 AND PUSH1 0x0 SWAP1 DUP2 MSTORE PUSH1 0x6 PUSH1 0x20 MSTORE PUSH1 0x40 SWAP1 KECCAK256 DUP1 SLOAD PUSH2 0x3E87 JUMPI POP PUSH2 0x3EFF JUMP JUMPDEST PUSH1 0x0 JUMPDEST DUP2 SLOAD DUP2 LT ISZERO PUSH2 0x3EFC JUMPI PUSH1 0x0 PUSH2 0x3E9F DUP5 DUP4 PUSH2 0x32C2 JUMP JUMPDEST SWAP1 POP TIMESTAMP DUP4 DUP4 DUP2 SLOAD DUP2 LT PUSH2 0x3EAE JUMPI INVALID JUMPDEST SWAP1 PUSH1 0x0 MSTORE PUSH1 0x20 PUSH1 0x0 KECCAK256 SWAP1 PUSH1 0x8 MUL ADD PUSH1 0x3 ADD DUP2 SWAP1 SSTORE POP PUSH2 0x3ED3 DUP2 DUP5 DUP5 DUP2 SLOAD DUP2 LT PUSH2 0x3BE2 JUMPI INVALID JUMPDEST DUP4 DUP4 DUP2 SLOAD DUP2 LT PUSH2 0x3EDF JUMPI INVALID JUMPDEST PUSH1 0x0 SWAP2 DUP3 MSTORE PUSH1 0x20 SWAP1 SWAP2 KECCAK256 PUSH1 0x2 PUSH1 0x8 SWAP1 SWAP3 MUL ADD ADD SSTORE POP PUSH1 0x1 ADD PUSH2 0x3E8A JUMP JUMPDEST POP POP JUMPDEST POP JUMP JUMPDEST PUSH1 0x1 PUSH1 0x1 PUSH1 0xA0 SHL SUB DUP2 AND PUSH1 0x0 SWAP1 DUP2 MSTORE PUSH1 0x6 PUSH1 0x20 MSTORE PUSH1 0x40 SWAP1 KECCAK256 DUP1 SLOAD PUSH2 0x3F26 JUMPI POP PUSH2 0x3EFF JUMP JUMPDEST PUSH1 0x0 JUMPDEST DUP2 SLOAD DUP2 LT ISZERO PUSH2 0x3EFC JUMPI PUSH1 0x1 DUP3 DUP3 DUP2 SLOAD DUP2 LT PUSH2 0x3F40 JUMPI INVALID JUMPDEST PUSH1 0x0 SWAP2 DUP3 MSTORE PUSH1 0x20 SWAP1 SWAP2 KECCAK256 PUSH1 0x8 SWAP1 SWAP2 MUL ADD PUSH1 0x7 ADD DUP1 SLOAD PUSH1 0xFF NOT AND SWAP2 ISZERO ISZERO SWAP2 SWAP1 SWAP2 OR SWAP1 SSTORE PUSH1 0x1 ADD PUSH2 0x3F29 JUMP JUMPDEST PUSH1 0x1 PUSH1 0x1 PUSH1 0xA0 SHL SUB DUP2 AND PUSH1 0x0 SWAP1 DUP2 MSTORE PUSH1 0x6 PUSH1 0x20 SWAP1 DUP2 MSTORE PUSH1 0x40 DUP1 DUP4 KECCAK256 DUP1 SLOAD DUP3 MLOAD DUP2 DUP6 MUL DUP2 ADD DUP6 ADD SWAP1 SWAP4 MSTORE DUP1 DUP4 MSTORE DUP5 SWAP4 DUP5 SWAP1 DUP5 ADD JUMPDEST DUP3 DUP3 LT ISZERO PUSH2 0x402F JUMPI PUSH1 0x0 DUP5 DUP2 MSTORE PUSH1 0x20 SWAP1 DUP2 SWAP1 KECCAK256 PUSH1 0x40 DUP1 MLOAD PUSH2 0x120 DUP2 ADD DUP3 MSTORE PUSH1 0x8 DUP7 MUL SWAP1 SWAP3 ADD DUP1 SLOAD DUP4 MSTORE PUSH1 0x1 DUP1 DUP3 ADD SLOAD DUP5 DUP7 ADD MSTORE PUSH1 0x2 DUP3 ADD SLOAD SWAP3 DUP5 ADD SWAP3 SWAP1 SWAP3 MSTORE PUSH1 0x3 DUP2 ADD SLOAD PUSH1 0x60 DUP5 ADD MSTORE PUSH1 0x4 DUP2 ADD SLOAD PUSH1 0x80 DUP5 ADD MSTORE PUSH1 0x5 DUP2 ADD SLOAD PUSH1 0xA0 DUP5 ADD MSTORE PUSH1 0x6 DUP2 ADD SLOAD PUSH1 0xC0 DUP5 ADD MSTORE PUSH1 0x7 ADD SLOAD PUSH1 0xFF DUP1 DUP3 AND ISZERO ISZERO PUSH1 0xE0 DUP6 ADD MSTORE PUSH2 0x100 SWAP2 DUP3 SWAP1 DIV AND ISZERO ISZERO SWAP1 DUP4 ADD MSTORE SWAP1 DUP4 MSTORE SWAP1 SWAP3 ADD SWAP2 ADD PUSH2 0x3F9D JUMP JUMPDEST POP POP POP POP SWAP1 POP DUP1 MLOAD PUSH1 0x0 EQ ISZERO PUSH2 0x4049 JUMPI PUSH1 0x0 SWAP2 POP POP PUSH2 0xAE9 JUMP JUMPDEST PUSH1 0x0 DUP1 JUMPDEST DUP3 MLOAD DUP2 LT ISZERO PUSH2 0x1560 JUMPI DUP3 DUP2 DUP2 MLOAD DUP2 LT PUSH2 0x4062 JUMPI INVALID JUMPDEST PUSH1 0x20 MUL PUSH1 0x20 ADD ADD MLOAD PUSH2 0x100 ADD MLOAD PUSH2 0x40A0 JUMPI PUSH2 0x409D DUP4 DUP3 DUP2 MLOAD DUP2 LT PUSH2 0x4082 JUMPI INVALID JUMPDEST PUSH1 0x20 MUL PUSH1 0x20 ADD ADD MLOAD PUSH1 0x0 ADD MLOAD DUP4 PUSH2 0x345A SWAP1 SWAP2 SWAP1 PUSH4 0xFFFFFFFF AND JUMP JUMPDEST SWAP2 POP JUMPDEST PUSH1 0x1 ADD PUSH2 0x404D JUMP JUMPDEST PUSH1 0x1 PUSH1 0x1 PUSH1 0xA0 SHL SUB DUP2 AND PUSH1 0x0 SWAP1 DUP2 MSTORE PUSH1 0x6 PUSH1 0x20 MSTORE PUSH1 0x40 SWAP1 KECCAK256 DUP1 SLOAD PUSH2 0x40CC JUMPI POP PUSH2 0x3EFF JUMP JUMPDEST PUSH1 0x0 JUMPDEST DUP2 SLOAD DUP2 LT ISZERO PUSH2 0x3EFC JUMPI PUSH1 0x1 DUP3 DUP3 DUP2 SLOAD DUP2 LT PUSH2 0x40E6 JUMPI INVALID JUMPDEST PUSH1 0x0 SWAP2 DUP3 MSTORE PUSH1 0x20 SWAP1 SWAP2 KECCAK256 PUSH1 0x7 PUSH1 0x8 SWAP1 SWAP3 MUL ADD ADD DUP1 SLOAD SWAP2 ISZERO ISZERO PUSH2 0x100 MUL PUSH2 0xFF00 NOT SWAP1 SWAP3 AND SWAP2 SWAP1 SWAP2 OR SWAP1 SSTORE PUSH1 0x1 ADD PUSH2 0x40CF JUMP JUMPDEST PUSH1 0xC SLOAD PUSH1 0x0 SWAP1 DUP2 SWAP1 PUSH1 0x1 PUSH1 0xA8 SHL SWAP1 DIV PUSH1 0xFF AND PUSH2 0x4138 JUMPI POP PUSH1 0x0 SWAP1 POP DUP1 PUSH2 0x367F JUMP JUMPDEST PUSH1 0x1 PUSH1 0x1 PUSH1 0xA0 SHL SUB DUP5 AND PUSH1 0x0 SWAP1 DUP2 MSTORE PUSH1 0x6 PUSH1 0x20 SWAP1 DUP2 MSTORE PUSH1 0x40 DUP1 DUP4 KECCAK256 DUP1 SLOAD DUP3 MLOAD DUP2 DUP6 MUL DUP2 ADD DUP6 ADD SWAP1 SWAP4 MSTORE DUP1 DUP4 MSTORE SWAP2 SWAP3 SWAP1 SWAP2 SWAP1 DUP5 SWAP1 DUP5 ADD JUMPDEST DUP3 DUP3 LT ISZERO PUSH2 0x4200 JUMPI PUSH1 0x0 DUP5 DUP2 MSTORE PUSH1 0x20 SWAP1 DUP2 SWAP1 KECCAK256 PUSH1 0x40 DUP1 MLOAD PUSH2 0x120 DUP2 ADD DUP3 MSTORE PUSH1 0x8 DUP7 MUL SWAP1 SWAP3 ADD DUP1 SLOAD DUP4 MSTORE PUSH1 0x1 DUP1 DUP3 ADD SLOAD DUP5 DUP7 ADD MSTORE PUSH1 0x2 DUP3 ADD SLOAD SWAP3 DUP5 ADD SWAP3 SWAP1 SWAP3 MSTORE PUSH1 0x3 DUP2 ADD SLOAD PUSH1 0x60 DUP5 ADD MSTORE PUSH1 0x4 DUP2 ADD SLOAD PUSH1 0x80 DUP5 ADD MSTORE PUSH1 0x5 DUP2 ADD SLOAD PUSH1 0xA0 DUP5 ADD MSTORE PUSH1 0x6 DUP2 ADD SLOAD PUSH1 0xC0 DUP5 ADD MSTORE PUSH1 0x7 ADD SLOAD PUSH1 0xFF DUP1 DUP3 AND ISZERO ISZERO PUSH1 0xE0 DUP6 ADD MSTORE PUSH2 0x100 SWAP2 DUP3 SWAP1 DIV AND ISZERO ISZERO SWAP1 DUP4 ADD MSTORE SWAP1 DUP4 MSTORE SWAP1 SWAP3 ADD SWAP2 ADD PUSH2 0x416E JUMP JUMPDEST POP POP POP POP SWAP1 POP DUP1 MLOAD PUSH1 0x0 EQ ISZERO PUSH2 0x421D JUMPI PUSH1 0x0 DUP1 SWAP3 POP SWAP3 POP POP PUSH2 0x367F JUMP JUMPDEST DUP1 MLOAD DUP5 LT PUSH2 0x4232 JUMPI PUSH1 0x0 DUP1 SWAP3 POP SWAP3 POP POP PUSH2 0x367F JUMP JUMPDEST DUP1 DUP5 DUP2 MLOAD DUP2 LT PUSH2 0x423E JUMPI INVALID JUMPDEST PUSH1 0x20 MUL PUSH1 0x20 ADD ADD MLOAD PUSH1 0xE0 ADD MLOAD ISZERO PUSH2 0x425C JUMPI PUSH1 0x0 DUP1 SWAP3 POP SWAP3 POP POP PUSH2 0x367F JUMP JUMPDEST PUSH1 0xA SLOAD PUSH1 0x0 SWAP1 PUSH2 0x4294 SWAP1 PUSH2 0x1B08 PUSH32 0x0 PUSH4 0x5F5E100 PUSH2 0x34BB JUMP JUMPDEST SWAP1 POP PUSH1 0x0 DUP1 PUSH1 0x0 PUSH2 0x42AA DUP6 DUP10 DUP2 MLOAD DUP2 LT PUSH2 0x3A97 JUMPI INVALID JUMPDEST SWAP1 POP PUSH2 0x42D9 PUSH2 0x2ED0 PUSH32 0x0 DUP4 PUSH2 0x357B JUMP JUMPDEST SWAP3 POP PUSH2 0x42EF PUSH2 0x42E8 DUP6 DUP4 PUSH2 0x357B JUMP JUMPDEST DUP4 SWAP1 PUSH2 0x345A JUMP JUMPDEST PUSH1 0xB SLOAD SWAP1 SWAP3 POP ISZERO PUSH2 0x4322 JUMPI PUSH1 0xB SLOAD PUSH2 0x4308 SWAP1 DUP5 SWAP1 PUSH2 0x4667 JUMP JUMPDEST SWAP3 POP PUSH2 0x431F PUSH1 0xB SLOAD DUP4 PUSH2 0x4667 SWAP1 SWAP2 SWAP1 PUSH4 0xFFFFFFFF AND JUMP JUMPDEST SWAP2 POP JUMPDEST POP SWAP1 SWAP8 SWAP1 SWAP7 POP SWAP5 POP POP POP POP POP JUMP JUMPDEST PUSH1 0x0 PUSH32 0x0 PUSH2 0x435F JUMPI POP PUSH1 0x0 PUSH2 0xAE9 JUMP JUMPDEST PUSH1 0x0 PUSH2 0x43AB PUSH32 0x0 PUSH32 0x0 PUSH2 0x345A JUMP JUMPDEST SWAP1 POP PUSH1 0x0 PUSH2 0x43B9 DUP3 DUP6 PUSH2 0x358D JUMP JUMPDEST SWAP1 POP PUSH3 0x2A300 DUP2 LT ISZERO PUSH2 0x43D1 JUMPI PUSH1 0x0 SWAP3 POP POP POP PUSH2 0xAE9 JUMP JUMPDEST PUSH3 0x3F480 DUP2 LT ISZERO PUSH2 0x43E7 JUMPI PUSH1 0x64 SWAP3 POP POP POP PUSH2 0xAE9 JUMP JUMPDEST PUSH3 0x54600 DUP2 LT ISZERO PUSH2 0x43FD JUMPI PUSH1 0xC8 SWAP3 POP POP POP PUSH2 0xAE9 JUMP JUMPDEST PUSH3 0x69780 DUP2 LT ISZERO PUSH2 0x4414 JUMPI PUSH2 0x12C SWAP3 POP POP POP PUSH2 0xAE9 JUMP JUMPDEST PUSH3 0x7E900 DUP2 LT ISZERO PUSH2 0x442B JUMPI PUSH2 0x190 SWAP3 POP POP POP PUSH2 0xAE9 JUMP JUMPDEST PUSH2 0x1F4 SWAP3 POP POP POP PUSH2 0xAE9 JUMP JUMPDEST PUSH1 0x0 PUSH4 0x1E13380 DUP2 PUSH2 0x4454 PUSH7 0x38882915C4000 PUSH4 0x5F5E100 PUSH2 0x34BB JUMP JUMPDEST SWAP1 POP PUSH1 0x0 PUSH2 0x4470 PUSH2 0x1388 PUSH2 0x446A DUP6 DUP2 DUP11 DUP13 PUSH2 0x34BB JUMP JUMPDEST SWAP1 PUSH2 0x34BB JUMP JUMPDEST SWAP1 POP PUSH1 0x0 PUSH2 0x4487 PUSH2 0x1388 PUSH2 0x446A DUP11 PUSH1 0x2 DUP9 EXP PUSH2 0x34BB JUMP JUMPDEST SWAP1 POP PUSH1 0x0 PUSH2 0x44A0 PUSH1 0x6 PUSH2 0x1B08 PUSH1 0x2 DUP1 DUP13 EXP SWAP1 DUP14 EXP PUSH2 0x34BB JUMP JUMPDEST SWAP1 POP PUSH1 0x0 PUSH2 0x44C3 PUSH1 0x2 PUSH2 0x1B08 DUP9 PUSH2 0x446A PUSH1 0x2 DUP16 EXP DUP15 PUSH2 0x34BB SWAP1 SWAP2 SWAP1 PUSH4 0xFFFFFFFF AND JUMP JUMPDEST SWAP1 POP PUSH1 0x0 PUSH2 0x44DC PUSH1 0x3 PUSH2 0x1B08 PUSH1 0x2 DUP1 DUP16 EXP SWAP1 DUP12 EXP PUSH2 0x34BB JUMP JUMPDEST SWAP1 POP PUSH1 0x0 PUSH2 0x44F6 DUP3 PUSH2 0x44F0 DUP7 DUP2 DUP12 DUP12 PUSH2 0x345A JUMP JUMPDEST SWAP1 PUSH2 0x345A JUMP JUMPDEST SWAP1 POP PUSH2 0x4506 DUP4 PUSH2 0x1C97 DUP4 DUP9 PUSH2 0x358D JUMP JUMPDEST SWAP1 POP PUSH2 0x4516 DUP12 PUSH2 0x446A DUP4 DUP16 PUSH2 0x34BB JUMP JUMPDEST SWAP1 POP PUSH2 0x4530 PUSH5 0xE8D4A51000 PUSH2 0x1B08 PUSH1 0x3 DUP12 EXP DUP2 DUP6 DUP16 PUSH2 0x34BB JUMP JUMPDEST SWAP13 SWAP12 POP POP POP POP POP POP POP POP POP POP POP POP JUMP JUMPDEST PUSH1 0x0 PUSH1 0xD PUSH1 0x0 DUP2 SLOAD DUP2 LT PUSH2 0x4550 JUMPI INVALID JUMPDEST SWAP1 PUSH1 0x0 MSTORE PUSH1 0x20 PUSH1 0x0 KECCAK256 SWAP1 PUSH1 0x2 MUL ADD PUSH1 0x0 ADD SLOAD DUP3 GT PUSH2 0x458F JUMPI PUSH1 0xD PUSH1 0x0 DUP2 SLOAD DUP2 LT PUSH2 0x4576 JUMPI INVALID JUMPDEST SWAP1 PUSH1 0x0 MSTORE PUSH1 0x20 PUSH1 0x0 KECCAK256 SWAP1 PUSH1 0x2 MUL ADD PUSH1 0x1 ADD SLOAD SWAP1 POP PUSH2 0xAE9 JUMP JUMPDEST PUSH1 0xD PUSH1 0x1 DUP2 SLOAD DUP2 LT PUSH2 0x459D JUMPI INVALID JUMPDEST SWAP1 PUSH1 0x0 MSTORE PUSH1 0x20 PUSH1 0x0 KECCAK256 SWAP1 PUSH1 0x2 MUL ADD PUSH1 0x0 ADD SLOAD DUP3 GT PUSH2 0x45C3 JUMPI PUSH1 0xD PUSH1 0x1 DUP2 SLOAD DUP2 LT PUSH2 0x4576 JUMPI INVALID JUMPDEST PUSH1 0xD PUSH1 0x2 DUP2 SLOAD DUP2 LT PUSH2 0x45D1 JUMPI INVALID JUMPDEST SWAP1 PUSH1 0x0 MSTORE PUSH1 0x20 PUSH1 0x0 KECCAK256 SWAP1 PUSH1 0x2 MUL ADD PUSH1 0x0 ADD SLOAD DUP3 GT PUSH2 0x45F7 JUMPI PUSH1 0xD PUSH1 0x2 DUP2 SLOAD DUP2 LT PUSH2 0x4576 JUMPI INVALID JUMPDEST PUSH1 0xD PUSH1 0x3 DUP2 SLOAD DUP2 LT PUSH2 0x4605 JUMPI INVALID JUMPDEST SWAP1 PUSH1 0x0 MSTORE PUSH1 0x20 PUSH1 0x0 KECCAK256 SWAP1 PUSH1 0x2 MUL ADD PUSH1 0x0 ADD SLOAD DUP3 GT PUSH2 0x462B JUMPI PUSH1 0xD PUSH1 0x3 DUP2 SLOAD DUP2 LT PUSH2 0x4576 JUMPI INVALID JUMPDEST PUSH1 0xD PUSH1 0x4 DUP2 SLOAD DUP2 LT PUSH2 0x4639 JUMPI INVALID JUMPDEST SWAP1 PUSH1 0x0 MSTORE PUSH1 0x20 PUSH1 0x0 KECCAK256 SWAP1 PUSH1 0x2 MUL ADD PUSH1 0x0 ADD SLOAD DUP3 GT PUSH2 0x465F JUMPI PUSH1 0xD PUSH1 0x4 DUP2 SLOAD DUP2 LT PUSH2 0x4576 JUMPI INVALID JUMPDEST POP PUSH1 0x0 PUSH2 0xAE9 JUMP JUMPDEST PUSH1 0x0 DUP3 PUSH2 0x4676 JUMPI POP PUSH1 0x0 PUSH2 0xB6D JUMP JUMPDEST DUP2 PUSH2 0x4682 JUMPI POP DUP2 PUSH2 0xB6D JUMP JUMPDEST PUSH2 0x34B4 PUSH2 0x2ED0 DUP5 DUP5 PUSH2 0x357B JUMP INVALID 0x4F PUSH24 0x6E61626C653A206E6577206F776E65722069732074686520 PUSH27 0x65726F2061646472657373303336302043616E277420656E642070 PUSH16 0x6F6C206265666F726520746865206D61 PUSH21 0x75726974792074696D65303331322043616E277420 PUSH20 0x74616B652061626F76652073697A6520616C6C6F PUSH4 0x6174696F PUSH15 0x3033373020746F74656D732063616E KECCAK256 PUSH15 0x6F74206265207472616E7366657265 PUSH5 0x3033303020 PUSH4 0x616C6C65 PUSH19 0x206973206E6F74206120706F6F6C2063726561 PUSH21 0x6F72536166654D6174683A206D756C7469706C6963 PUSH2 0x7469 PUSH16 0x6E206F766572666C6F77303334302054 PUSH9 0x6520706F6F6C206973 KECCAK256 PUSH15 0x6F7420425443207265776172646572 ADDRESS CALLER CODESIZE ADDRESS KECCAK256 PUSH21 0x6869732061646472657373206469646E2774207374 PUSH2 0x6B65 KECCAK256 PUSH10 0x6E207468697320706F6F PUSH13 0x3033313120416D6F756E742063 PUSH2 0x6E27 PUSH21 0x206265206C657373207468616E20746865206D696E PUSH10 0x6D756D30333530204361 PUSH15 0x277420736574206D61747572696E67 KECCAK256 PUSH17 0x72696365206265666F726520746865206D PUSH2 0x7475 PUSH19 0x6974792074696D65A2646970667358221220E0 STATICCALL SWAP10 SDIV PUSH22 0xA081896FAA6534672F6D4AE226D59C2DA44A6BA0C70 JUMP CREATE 0xE7 0x5D 0xE7 PUSH5 0x736F6C6343 STOP SMOD MOD STOP CALLER ADDRESS CALLVALUE ORIGIN ADDRESS KECCAK256 SLOAD PUSH2 0x7820 PUSH4 0x6F6E6E6F PUSH21 0x206265206F76657220313030252028313030303020 TIMESTAMP POP 0x29 POP PUSH16 0x6F6C43726561746F72526F6C653A2063 PUSH2 0x6C6C PUSH6 0x7220646F6573 KECCAK256 PUSH15 0x6F7420686176652074686520506F6F PUSH13 0x43726561746F7220726F6C6552 PUSH16 0x6C65733A206163636F756E7420646F65 PUSH20 0x206E6F74206861766520726F6C65526F6C65733A KECCAK256 PUSH2 0x6363 PUSH16 0x756E7420697320746865207A65726F20 PUSH2 0x6464 PUSH19 0x657373A264697066735822122065D6BBE27279 SHR SELFBALANCE 0x2C STATICCALL 0xE7 DIV ISZERO SWAP1 CALLCODE 0x4B 0xC1 DUP1 0x2F SWAP13 SDIV 0x4B CALL 0x1E LT ORIGIN DIV 0xBD SWAP10 0xE6 PUSH11 0xC164736F6C634300070600 CALLER MSTORE PUSH16 0x6C65733A206163636F756E7420697320 PUSH21 0x6865207A65726F2061646472657373000000000000 "
    },
    "gasEstimates": {
      "creation": {
        "codeDepositCost": "4552200",
        "executionCost": "infinite",
        "totalCost": "infinite"
      },
      "external": {
        "addPoolCreator(address)": "infinite",
        "create(uint256,uint256,uint256,uint256,uint256,uint256,uint256,bool)": "infinite",
        "isPoolCreator(address)": "infinite",
        "minimumStakeAmount()": "1065",
        "oracleContract()": "1104",
        "renouncePoolCreator()": "infinite",
        "rewardManager()": "infinite",
        "setMinimuntToStake(uint256)": "infinite",
        "setOracleContract(address)": "infinite",
        "setSwapRouter(address)": "infinite",
        "setTaxRate(uint256)": "infinite",
        "stakingPoolTaxRate()": "1021",
        "swapRouter()": "1059",
        "totemToken()": "infinite"
      }
    },
    "methodIdentifiers": {
      "addPoolCreator(address)": "8c2d741c",
      "create(uint256,uint256,uint256,uint256,uint256,uint256,uint256,bool)": "b9603d6a",
      "isPoolCreator(address)": "9a94775d",
      "minimumStakeAmount()": "6b036f45",
      "oracleContract()": "bece7532",
      "renouncePoolCreator()": "e281cc7e",
      "rewardManager()": "0f4ef8a6",
      "setMinimuntToStake(uint256)": "37e77675",
      "setOracleContract(address)": "496ccd9b",
      "setSwapRouter(address)": "41273657",
      "setTaxRate(uint256)": "c6d69a30",
      "stakingPoolTaxRate()": "441f5c65",
      "swapRouter()": "c31c9c07",
      "totemToken()": "e8153c93"
    }
  },
  "storageLayout": {
    "storage": [
      {
        "astId": 4944,
        "contract": "contracts/Staking/StakingPoolFactory.sol:StakingPoolFactory",
        "label": "_poolCreators",
        "offset": 0,
        "slot": "0",
        "type": "t_struct(Role)5161_storage"
      },
      {
        "astId": 8127,
        "contract": "contracts/Staking/StakingPoolFactory.sol:StakingPoolFactory",
        "label": "swapRouter",
        "offset": 0,
        "slot": "1",
        "type": "t_address"
      },
      {
        "astId": 8129,
        "contract": "contracts/Staking/StakingPoolFactory.sol:StakingPoolFactory",
        "label": "oracleContract",
        "offset": 0,
        "slot": "2",
        "type": "t_address"
      },
      {
        "astId": 8135,
        "contract": "contracts/Staking/StakingPoolFactory.sol:StakingPoolFactory",
        "label": "stakingPoolTaxRate",
        "offset": 0,
        "slot": "3",
        "type": "t_uint256"
      },
      {
        "astId": 8137,
        "contract": "contracts/Staking/StakingPoolFactory.sol:StakingPoolFactory",
        "label": "minimumStakeAmount",
        "offset": 0,
        "slot": "4",
        "type": "t_uint256"
      }
    ],
    "types": {
      "t_address": {
        "encoding": "inplace",
        "label": "address",
        "numberOfBytes": "20"
      },
      "t_bool": {
        "encoding": "inplace",
        "label": "bool",
        "numberOfBytes": "1"
      },
      "t_mapping(t_address,t_bool)": {
        "encoding": "mapping",
        "key": "t_address",
        "label": "mapping(address => bool)",
        "numberOfBytes": "32",
        "value": "t_bool"
      },
      "t_struct(Role)5161_storage": {
        "encoding": "inplace",
        "label": "struct Roles.Role",
        "members": [
          {
            "astId": 5160,
            "contract": "contracts/Staking/StakingPoolFactory.sol:StakingPoolFactory",
            "label": "bearer",
            "offset": 0,
            "slot": "0",
            "type": "t_mapping(t_address,t_bool)"
          }
        ],
        "numberOfBytes": "32"
      },
      "t_uint256": {
        "encoding": "inplace",
        "label": "uint256",
        "numberOfBytes": "32"
      }
    }
  },
  "userdoc": {
    "kind": "user",
    "methods": {},
    "version": 1
  }
}